{
	"Marketplace.sol": {
		"Marketplace": {
			"abi": [
				{
					"inputs": [],
					"stateMutability": "nonpayable",
					"type": "constructor"
				},
				{
					"anonymous": false,
					"inputs": [
						{
							"indexed": true,
							"internalType": "bytes32",
							"name": "role",
							"type": "bytes32"
						},
						{
							"indexed": true,
							"internalType": "bytes32",
							"name": "previousAdminRole",
							"type": "bytes32"
						},
						{
							"indexed": true,
							"internalType": "bytes32",
							"name": "newAdminRole",
							"type": "bytes32"
						}
					],
					"name": "RoleAdminChanged",
					"type": "event"
				},
				{
					"anonymous": false,
					"inputs": [
						{
							"indexed": true,
							"internalType": "bytes32",
							"name": "role",
							"type": "bytes32"
						},
						{
							"indexed": true,
							"internalType": "address",
							"name": "account",
							"type": "address"
						},
						{
							"indexed": true,
							"internalType": "address",
							"name": "sender",
							"type": "address"
						}
					],
					"name": "RoleGranted",
					"type": "event"
				},
				{
					"anonymous": false,
					"inputs": [
						{
							"indexed": true,
							"internalType": "bytes32",
							"name": "role",
							"type": "bytes32"
						},
						{
							"indexed": true,
							"internalType": "address",
							"name": "account",
							"type": "address"
						},
						{
							"indexed": true,
							"internalType": "address",
							"name": "sender",
							"type": "address"
						}
					],
					"name": "RoleRevoked",
					"type": "event"
				},
				{
					"inputs": [],
					"name": "DEFAULT_ADMIN_ROLE",
					"outputs": [
						{
							"internalType": "bytes32",
							"name": "",
							"type": "bytes32"
						}
					],
					"stateMutability": "view",
					"type": "function"
				},
				{
					"inputs": [],
					"name": "MARKETPLACE_OWNER",
					"outputs": [
						{
							"internalType": "bytes32",
							"name": "",
							"type": "bytes32"
						}
					],
					"stateMutability": "view",
					"type": "function"
				},
				{
					"inputs": [
						{
							"internalType": "uint256",
							"name": "_itemId",
							"type": "uint256"
						}
					],
					"name": "buyMarketItem",
					"outputs": [],
					"stateMutability": "payable",
					"type": "function"
				},
				{
					"inputs": [
						{
							"internalType": "string",
							"name": "_title",
							"type": "string"
						},
						{
							"internalType": "string",
							"name": "_description",
							"type": "string"
						},
						{
							"internalType": "address payable",
							"name": "_seller",
							"type": "address"
						},
						{
							"internalType": "uint256",
							"name": "_price",
							"type": "uint256"
						},
						{
							"internalType": "string",
							"name": "_imageUrl",
							"type": "string"
						},
						{
							"internalType": "uint8",
							"name": "_quantity",
							"type": "uint8"
						}
					],
					"name": "createMarketItem",
					"outputs": [],
					"stateMutability": "nonpayable",
					"type": "function"
				},
				{
					"inputs": [
						{
							"internalType": "uint256",
							"name": "_itemId",
							"type": "uint256"
						}
					],
					"name": "getMarketItem",
					"outputs": [
						{
							"internalType": "string",
							"name": "title",
							"type": "string"
						},
						{
							"internalType": "address payable",
							"name": "seller",
							"type": "address"
						},
						{
							"internalType": "uint256",
							"name": "price",
							"type": "uint256"
						},
						{
							"internalType": "bool",
							"name": "sold",
							"type": "bool"
						}
					],
					"stateMutability": "view",
					"type": "function"
				},
				{
					"inputs": [
						{
							"internalType": "uint256",
							"name": "_itemId",
							"type": "uint256"
						}
					],
					"name": "getMarketItemDetails",
					"outputs": [
						{
							"internalType": "string",
							"name": "description",
							"type": "string"
						},
						{
							"internalType": "string",
							"name": "imageUrl",
							"type": "string"
						},
						{
							"internalType": "uint8",
							"name": "stars",
							"type": "uint8"
						},
						{
							"internalType": "uint8",
							"name": "quantity",
							"type": "uint8"
						}
					],
					"stateMutability": "view",
					"type": "function"
				},
				{
					"inputs": [
						{
							"internalType": "bytes32",
							"name": "role",
							"type": "bytes32"
						}
					],
					"name": "getRoleAdmin",
					"outputs": [
						{
							"internalType": "bytes32",
							"name": "",
							"type": "bytes32"
						}
					],
					"stateMutability": "view",
					"type": "function"
				},
				{
					"inputs": [
						{
							"internalType": "bytes32",
							"name": "role",
							"type": "bytes32"
						},
						{
							"internalType": "address",
							"name": "account",
							"type": "address"
						}
					],
					"name": "grantRole",
					"outputs": [],
					"stateMutability": "nonpayable",
					"type": "function"
				},
				{
					"inputs": [
						{
							"internalType": "bytes32",
							"name": "role",
							"type": "bytes32"
						},
						{
							"internalType": "address",
							"name": "account",
							"type": "address"
						}
					],
					"name": "hasRole",
					"outputs": [
						{
							"internalType": "bool",
							"name": "",
							"type": "bool"
						}
					],
					"stateMutability": "view",
					"type": "function"
				},
				{
					"inputs": [],
					"name": "nextItemId",
					"outputs": [
						{
							"internalType": "uint256",
							"name": "",
							"type": "uint256"
						}
					],
					"stateMutability": "view",
					"type": "function"
				},
				{
					"inputs": [
						{
							"internalType": "bytes32",
							"name": "role",
							"type": "bytes32"
						},
						{
							"internalType": "address",
							"name": "account",
							"type": "address"
						}
					],
					"name": "renounceRole",
					"outputs": [],
					"stateMutability": "nonpayable",
					"type": "function"
				},
				{
					"inputs": [
						{
							"internalType": "bytes32",
							"name": "role",
							"type": "bytes32"
						},
						{
							"internalType": "address",
							"name": "account",
							"type": "address"
						}
					],
					"name": "revokeRole",
					"outputs": [],
					"stateMutability": "nonpayable",
					"type": "function"
				},
				{
					"inputs": [
						{
							"internalType": "bytes4",
							"name": "interfaceId",
							"type": "bytes4"
						}
					],
					"name": "supportsInterface",
					"outputs": [
						{
							"internalType": "bool",
							"name": "",
							"type": "bool"
						}
					],
					"stateMutability": "view",
					"type": "function"
				}
			],
			"devdoc": {
				"kind": "dev",
				"methods": {
					"getRoleAdmin(bytes32)": {
						"details": "Returns the admin role that controls `role`. See {grantRole} and {revokeRole}. To change a role's admin, use {_setRoleAdmin}."
					},
					"grantRole(bytes32,address)": {
						"details": "Grants `role` to `account`. If `account` had not been already granted `role`, emits a {RoleGranted} event. Requirements: - the caller must have ``role``'s admin role."
					},
					"hasRole(bytes32,address)": {
						"details": "Returns `true` if `account` has been granted `role`."
					},
					"renounceRole(bytes32,address)": {
						"details": "Revokes `role` from the calling account. Roles are often managed via {grantRole} and {revokeRole}: this function's purpose is to provide a mechanism for accounts to lose their privileges if they are compromised (such as when a trusted device is misplaced). If the calling account had been revoked `role`, emits a {RoleRevoked} event. Requirements: - the caller must be `account`."
					},
					"revokeRole(bytes32,address)": {
						"details": "Revokes `role` from `account`. If `account` had been granted `role`, emits a {RoleRevoked} event. Requirements: - the caller must have ``role``'s admin role."
					},
					"supportsInterface(bytes4)": {
						"details": "See {IERC165-supportsInterface}."
					}
				},
				"version": 1
			},
			"evm": {
				"assembly": "    /* \"Marketplace.sol\":122:2192  contract Marketplace is  AccessControl {\r... */\n  mstore(0x40, 0x80)\n    /* \"Marketplace.sol\":277:278  0 */\n  0x00\n    /* \"Marketplace.sol\":249:278  uint256 public nextItemId = 0 */\n  0x01\n  sstore\n    /* \"Marketplace.sol\":619:693  constructor() {\r... */\n  callvalue\n  dup1\n  iszero\n  tag_1\n  jumpi\n  0x00\n  dup1\n  revert\ntag_1:\n  pop\n    /* \"Marketplace.sol\":644:685  _grantRole(MARKETPLACE_OWNER, msg.sender) */\n  tag_4\n    /* \"Marketplace.sol\":212:242  keccak256(\"MARKETPLACE_OWNER\") */\n  0x1f9ca85e780b3b3cfbe1334ca9dd68802db7860f692bd163c796bb76d464edc0\n    /* \"Marketplace.sol\":674:684  msg.sender */\n  caller\n    /* \"Marketplace.sol\":644:654  _grantRole */\n  shl(0x20, tag_5)\n    /* \"Marketplace.sol\":644:685  _grantRole(MARKETPLACE_OWNER, msg.sender) */\n  0x20\n  shr\n  jump\t// in\ntag_4:\n    /* \"Marketplace.sol\":122:2192  contract Marketplace is  AccessControl {\r... */\n  jump(tag_6)\n    /* \"@openzeppelin/contracts/access/AccessControl.sol\":6861:7094  function _grantRole(bytes32 role, address account) internal virtual {... */\ntag_5:\n    /* \"@openzeppelin/contracts/access/AccessControl.sol\":6944:6966  hasRole(role, account) */\n  tag_8\n    /* \"@openzeppelin/contracts/access/AccessControl.sol\":6952:6956  role */\n  dup3\n    /* \"@openzeppelin/contracts/access/AccessControl.sol\":6958:6965  account */\n  dup3\n    /* \"@openzeppelin/contracts/access/AccessControl.sol\":6944:6951  hasRole */\n  shl(0x20, tag_9)\n    /* \"@openzeppelin/contracts/access/AccessControl.sol\":6944:6966  hasRole(role, account) */\n  0x20\n  shr\n  jump\t// in\ntag_8:\n    /* \"@openzeppelin/contracts/access/AccessControl.sol\":6939:7088  if (!hasRole(role, account)) {... */\n  tag_10\n  jumpi\n    /* \"@openzeppelin/contracts/access/AccessControl.sol\":7014:7018  true */\n  0x01\n    /* \"@openzeppelin/contracts/access/AccessControl.sol\":6982:6988  _roles */\n  0x00\n    /* \"@openzeppelin/contracts/access/AccessControl.sol\":6982:6994  _roles[role] */\n  dup1\n    /* \"@openzeppelin/contracts/access/AccessControl.sol\":6989:6993  role */\n  dup5\n    /* \"@openzeppelin/contracts/access/AccessControl.sol\":6982:6994  _roles[role] */\n  dup2\n  mstore\n  0x20\n  add\n  swap1\n  dup2\n  mstore\n  0x20\n  add\n  0x00\n  keccak256\n    /* \"@openzeppelin/contracts/access/AccessControl.sol\":6982:7002  _roles[role].members */\n  0x00\n  add\n    /* \"@openzeppelin/contracts/access/AccessControl.sol\":6982:7011  _roles[role].members[account] */\n  0x00\n    /* \"@openzeppelin/contracts/access/AccessControl.sol\":7003:7010  account */\n  dup4\n    /* \"@openzeppelin/contracts/access/AccessControl.sol\":6982:7011  _roles[role].members[account] */\n  0xffffffffffffffffffffffffffffffffffffffff\n  and\n  0xffffffffffffffffffffffffffffffffffffffff\n  and\n  dup2\n  mstore\n  0x20\n  add\n  swap1\n  dup2\n  mstore\n  0x20\n  add\n  0x00\n  keccak256\n  0x00\n    /* \"@openzeppelin/contracts/access/AccessControl.sol\":6982:7018  _roles[role].members[account] = true */\n  0x0100\n  exp\n  dup2\n  sload\n  dup2\n  0xff\n  mul\n  not\n  and\n  swap1\n  dup4\n  iszero\n  iszero\n  mul\n  or\n  swap1\n  sstore\n  pop\n    /* \"@openzeppelin/contracts/access/AccessControl.sol\":7064:7076  _msgSender() */\n  tag_11\n    /* \"@openzeppelin/contracts/access/AccessControl.sol\":7064:7074  _msgSender */\n  shl(0x20, tag_12)\n    /* \"@openzeppelin/contracts/access/AccessControl.sol\":7064:7076  _msgSender() */\n  0x20\n  shr\n  jump\t// in\ntag_11:\n    /* \"@openzeppelin/contracts/access/AccessControl.sol\":7037:7077  RoleGranted(role, account, _msgSender()) */\n  0xffffffffffffffffffffffffffffffffffffffff\n  and\n    /* \"@openzeppelin/contracts/access/AccessControl.sol\":7055:7062  account */\n  dup2\n    /* \"@openzeppelin/contracts/access/AccessControl.sol\":7037:7077  RoleGranted(role, account, _msgSender()) */\n  0xffffffffffffffffffffffffffffffffffffffff\n  and\n    /* \"@openzeppelin/contracts/access/AccessControl.sol\":7049:7053  role */\n  dup4\n    /* \"@openzeppelin/contracts/access/AccessControl.sol\":7037:7077  RoleGranted(role, account, _msgSender()) */\n  0x2f8788117e7eff1d82e926ec794901d17c78024a50270940304540a733656f0d\n  mload(0x40)\n  mload(0x40)\n  dup1\n  swap2\n  sub\n  swap1\n  log4\n    /* \"@openzeppelin/contracts/access/AccessControl.sol\":6939:7088  if (!hasRole(role, account)) {... */\ntag_10:\n    /* \"@openzeppelin/contracts/access/AccessControl.sol\":6861:7094  function _grantRole(bytes32 role, address account) internal virtual {... */\n  pop\n  pop\n  jump\t// out\n    /* \"@openzeppelin/contracts/access/AccessControl.sol\":2909:3054  function hasRole(bytes32 role, address account) public view virtual override returns (bool) {... */\ntag_9:\n    /* \"@openzeppelin/contracts/access/AccessControl.sol\":2995:2999  bool */\n  0x00\n    /* \"@openzeppelin/contracts/access/AccessControl.sol\":3018:3024  _roles */\n  dup1\n    /* \"@openzeppelin/contracts/access/AccessControl.sol\":3018:3030  _roles[role] */\n  0x00\n    /* \"@openzeppelin/contracts/access/AccessControl.sol\":3025:3029  role */\n  dup5\n    /* \"@openzeppelin/contracts/access/AccessControl.sol\":3018:3030  _roles[role] */\n  dup2\n  mstore\n  0x20\n  add\n  swap1\n  dup2\n  mstore\n  0x20\n  add\n  0x00\n  keccak256\n    /* \"@openzeppelin/contracts/access/AccessControl.sol\":3018:3038  _roles[role].members */\n  0x00\n  add\n    /* \"@openzeppelin/contracts/access/AccessControl.sol\":3018:3047  _roles[role].members[account] */\n  0x00\n    /* \"@openzeppelin/contracts/access/AccessControl.sol\":3039:3046  account */\n  dup4\n    /* \"@openzeppelin/contracts/access/AccessControl.sol\":3018:3047  _roles[role].members[account] */\n  0xffffffffffffffffffffffffffffffffffffffff\n  and\n  0xffffffffffffffffffffffffffffffffffffffff\n  and\n  dup2\n  mstore\n  0x20\n  add\n  swap1\n  dup2\n  mstore\n  0x20\n  add\n  0x00\n  keccak256\n  0x00\n  swap1\n  sload\n  swap1\n  0x0100\n  exp\n  swap1\n  div\n  0xff\n  and\n    /* \"@openzeppelin/contracts/access/AccessControl.sol\":3011:3047  return _roles[role].members[account] */\n  swap1\n  pop\n    /* \"@openzeppelin/contracts/access/AccessControl.sol\":2909:3054  function hasRole(bytes32 role, address account) public view virtual override returns (bool) {... */\n  swap3\n  swap2\n  pop\n  pop\n  jump\t// out\n    /* \"@openzeppelin/contracts/utils/Context.sol\":640:736  function _msgSender() internal view virtual returns (address) {... */\ntag_12:\n    /* \"@openzeppelin/contracts/utils/Context.sol\":693:700  address */\n  0x00\n    /* \"@openzeppelin/contracts/utils/Context.sol\":719:729  msg.sender */\n  caller\n    /* \"@openzeppelin/contracts/utils/Context.sol\":712:729  return msg.sender */\n  swap1\n  pop\n    /* \"@openzeppelin/contracts/utils/Context.sol\":640:736  function _msgSender() internal view virtual returns (address) {... */\n  swap1\n  jump\t// out\n    /* \"Marketplace.sol\":122:2192  contract Marketplace is  AccessControl {\r... */\ntag_6:\n  dataSize(sub_0)\n  dup1\n  dataOffset(sub_0)\n  0x00\n  codecopy\n  0x00\n  return\nstop\n\nsub_0: assembly {\n        /* \"Marketplace.sol\":122:2192  contract Marketplace is  AccessControl {\r... */\n      mstore(0x40, 0x80)\n      jumpi(tag_1, lt(calldatasize, 0x04))\n      shr(0xe0, calldataload(0x00))\n      dup1\n      0x88d9e84c\n      gt\n      tag_15\n      jumpi\n      dup1\n      0xa6667d06\n      gt\n      tag_16\n      jumpi\n      dup1\n      0xa6667d06\n      eq\n      tag_11\n      jumpi\n      dup1\n      0xb491efa0\n      eq\n      tag_12\n      jumpi\n      dup1\n      0xc7be7a49\n      eq\n      tag_13\n      jumpi\n      dup1\n      0xd547741f\n      eq\n      tag_14\n      jumpi\n      jump(tag_1)\n    tag_16:\n      dup1\n      0x88d9e84c\n      eq\n      tag_8\n      jumpi\n      dup1\n      0x91d14854\n      eq\n      tag_9\n      jumpi\n      dup1\n      0xa217fddf\n      eq\n      tag_10\n      jumpi\n      jump(tag_1)\n    tag_15:\n      dup1\n      0x01ffc9a7\n      eq\n      tag_2\n      jumpi\n      dup1\n      0x248a9ca3\n      eq\n      tag_3\n      jumpi\n      dup1\n      0x2f2ff15d\n      eq\n      tag_4\n      jumpi\n      dup1\n      0x351901c3\n      eq\n      tag_5\n      jumpi\n      dup1\n      0x36568abe\n      eq\n      tag_6\n      jumpi\n      dup1\n      0x6a868974\n      eq\n      tag_7\n      jumpi\n    tag_1:\n      0x00\n      dup1\n      revert\n        /* \"@openzeppelin/contracts/access/AccessControl.sol\":2620:2822  function supportsInterface(bytes4 interfaceId) public view virtual override returns (bool) {... */\n    tag_2:\n      callvalue\n      dup1\n      iszero\n      tag_17\n      jumpi\n      0x00\n      dup1\n      revert\n    tag_17:\n      pop\n      tag_18\n      0x04\n      dup1\n      calldatasize\n      sub\n      dup2\n      add\n      swap1\n      tag_19\n      swap2\n      swap1\n      tag_20\n      jump\t// in\n    tag_19:\n      tag_21\n      jump\t// in\n    tag_18:\n      mload(0x40)\n      tag_22\n      swap2\n      swap1\n      tag_23\n      jump\t// in\n    tag_22:\n      mload(0x40)\n      dup1\n      swap2\n      sub\n      swap1\n      return\n        /* \"@openzeppelin/contracts/access/AccessControl.sol\":4008:4137  function getRoleAdmin(bytes32 role) public view virtual override returns (bytes32) {... */\n    tag_3:\n      callvalue\n      dup1\n      iszero\n      tag_24\n      jumpi\n      0x00\n      dup1\n      revert\n    tag_24:\n      pop\n      tag_25\n      0x04\n      dup1\n      calldatasize\n      sub\n      dup2\n      add\n      swap1\n      tag_26\n      swap2\n      swap1\n      tag_27\n      jump\t// in\n    tag_26:\n      tag_28\n      jump\t// in\n    tag_25:\n      mload(0x40)\n      tag_29\n      swap2\n      swap1\n      tag_30\n      jump\t// in\n    tag_29:\n      mload(0x40)\n      dup1\n      swap2\n      sub\n      swap1\n      return\n        /* \"@openzeppelin/contracts/access/AccessControl.sol\":4387:4532  function grantRole(bytes32 role, address account) public virtual override onlyRole(getRoleAdmin(role)) {... */\n    tag_4:\n      callvalue\n      dup1\n      iszero\n      tag_31\n      jumpi\n      0x00\n      dup1\n      revert\n    tag_31:\n      pop\n      tag_32\n      0x04\n      dup1\n      calldatasize\n      sub\n      dup2\n      add\n      swap1\n      tag_33\n      swap2\n      swap1\n      tag_34\n      jump\t// in\n    tag_33:\n      tag_35\n      jump\t// in\n    tag_32:\n      stop\n        /* \"Marketplace.sol\":1259:1596  function buyMarketItem(uint256 _itemId) public payable {\r... */\n    tag_5:\n      tag_36\n      0x04\n      dup1\n      calldatasize\n      sub\n      dup2\n      add\n      swap1\n      tag_37\n      swap2\n      swap1\n      tag_38\n      jump\t// in\n    tag_37:\n      tag_39\n      jump\t// in\n    tag_36:\n      stop\n        /* \"@openzeppelin/contracts/access/AccessControl.sol\":5404:5618  function renounceRole(bytes32 role, address account) public virtual override {... */\n    tag_6:\n      callvalue\n      dup1\n      iszero\n      tag_40\n      jumpi\n      0x00\n      dup1\n      revert\n    tag_40:\n      pop\n      tag_41\n      0x04\n      dup1\n      calldatasize\n      sub\n      dup2\n      add\n      swap1\n      tag_42\n      swap2\n      swap1\n      tag_34\n      jump\t// in\n    tag_42:\n      tag_43\n      jump\t// in\n    tag_41:\n      stop\n        /* \"Marketplace.sol\":249:278  uint256 public nextItemId = 0 */\n    tag_7:\n      callvalue\n      dup1\n      iszero\n      tag_44\n      jumpi\n      0x00\n      dup1\n      revert\n    tag_44:\n      pop\n      tag_45\n      tag_46\n      jump\t// in\n    tag_45:\n      mload(0x40)\n      tag_47\n      swap2\n      swap1\n      tag_48\n      jump\t// in\n    tag_47:\n      mload(0x40)\n      dup1\n      swap2\n      sub\n      swap1\n      return\n        /* \"Marketplace.sol\":1896:2189  function getMarketItemDetails(uint256 _itemId) public view returns (string memory description, string memory imageUrl, uint8 stars, uint8 quantity) {\r... */\n    tag_8:\n      callvalue\n      dup1\n      iszero\n      tag_49\n      jumpi\n      0x00\n      dup1\n      revert\n    tag_49:\n      pop\n      tag_50\n      0x04\n      dup1\n      calldatasize\n      sub\n      dup2\n      add\n      swap1\n      tag_51\n      swap2\n      swap1\n      tag_38\n      jump\t// in\n    tag_51:\n      tag_52\n      jump\t// in\n    tag_50:\n      mload(0x40)\n      tag_53\n      swap5\n      swap4\n      swap3\n      swap2\n      swap1\n      tag_54\n      jump\t// in\n    tag_53:\n      mload(0x40)\n      dup1\n      swap2\n      sub\n      swap1\n      return\n        /* \"@openzeppelin/contracts/access/AccessControl.sol\":2909:3054  function hasRole(bytes32 role, address account) public view virtual override returns (bool) {... */\n    tag_9:\n      callvalue\n      dup1\n      iszero\n      tag_55\n      jumpi\n      0x00\n      dup1\n      revert\n    tag_55:\n      pop\n      tag_56\n      0x04\n      dup1\n      calldatasize\n      sub\n      dup2\n      add\n      swap1\n      tag_57\n      swap2\n      swap1\n      tag_34\n      jump\t// in\n    tag_57:\n      tag_58\n      jump\t// in\n    tag_56:\n      mload(0x40)\n      tag_59\n      swap2\n      swap1\n      tag_23\n      jump\t// in\n    tag_59:\n      mload(0x40)\n      dup1\n      swap2\n      sub\n      swap1\n      return\n        /* \"@openzeppelin/contracts/access/AccessControl.sol\":2027:2076  bytes32 public constant DEFAULT_ADMIN_ROLE = 0x00 */\n    tag_10:\n      callvalue\n      dup1\n      iszero\n      tag_60\n      jumpi\n      0x00\n      dup1\n      revert\n    tag_60:\n      pop\n      tag_61\n      tag_62\n      jump\t// in\n    tag_61:\n      mload(0x40)\n      tag_63\n      swap2\n      swap1\n      tag_30\n      jump\t// in\n    tag_63:\n      mload(0x40)\n      dup1\n      swap2\n      sub\n      swap1\n      return\n        /* \"Marketplace.sol\":701:1251  function createMarketItem(string memory _title, string memory _description, address payable _seller, uint256 _price, string memory _imageUrl, uint8 _quantity) public {\r... */\n    tag_11:\n      callvalue\n      dup1\n      iszero\n      tag_64\n      jumpi\n      0x00\n      dup1\n      revert\n    tag_64:\n      pop\n      tag_65\n      0x04\n      dup1\n      calldatasize\n      sub\n      dup2\n      add\n      swap1\n      tag_66\n      swap2\n      swap1\n      tag_67\n      jump\t// in\n    tag_66:\n      tag_68\n      jump\t// in\n    tag_65:\n      stop\n        /* \"Marketplace.sol\":168:242  bytes32 public constant MARKETPLACE_OWNER = keccak256(\"MARKETPLACE_OWNER\") */\n    tag_12:\n      callvalue\n      dup1\n      iszero\n      tag_69\n      jumpi\n      0x00\n      dup1\n      revert\n    tag_69:\n      pop\n      tag_70\n      tag_71\n      jump\t// in\n    tag_70:\n      mload(0x40)\n      tag_72\n      swap2\n      swap1\n      tag_30\n      jump\t// in\n    tag_72:\n      mload(0x40)\n      dup1\n      swap2\n      sub\n      swap1\n      return\n        /* \"Marketplace.sol\":1604:1886  function getMarketItem(uint256 _itemId) public view returns (string memory title, address payable seller, uint256 price, bool sold) {\r... */\n    tag_13:\n      callvalue\n      dup1\n      iszero\n      tag_73\n      jumpi\n      0x00\n      dup1\n      revert\n    tag_73:\n      pop\n      tag_74\n      0x04\n      dup1\n      calldatasize\n      sub\n      dup2\n      add\n      swap1\n      tag_75\n      swap2\n      swap1\n      tag_38\n      jump\t// in\n    tag_75:\n      tag_76\n      jump\t// in\n    tag_74:\n      mload(0x40)\n      tag_77\n      swap5\n      swap4\n      swap3\n      swap2\n      swap1\n      tag_78\n      jump\t// in\n    tag_77:\n      mload(0x40)\n      dup1\n      swap2\n      sub\n      swap1\n      return\n        /* \"@openzeppelin/contracts/access/AccessControl.sol\":4766:4913  function revokeRole(bytes32 role, address account) public virtual override onlyRole(getRoleAdmin(role)) {... */\n    tag_14:\n      callvalue\n      dup1\n      iszero\n      tag_79\n      jumpi\n      0x00\n      dup1\n      revert\n    tag_79:\n      pop\n      tag_80\n      0x04\n      dup1\n      calldatasize\n      sub\n      dup2\n      add\n      swap1\n      tag_81\n      swap2\n      swap1\n      tag_34\n      jump\t// in\n    tag_81:\n      tag_82\n      jump\t// in\n    tag_80:\n      stop\n        /* \"@openzeppelin/contracts/access/AccessControl.sol\":2620:2822  function supportsInterface(bytes4 interfaceId) public view virtual override returns (bool) {... */\n    tag_21:\n        /* \"@openzeppelin/contracts/access/AccessControl.sol\":2705:2709  bool */\n      0x00\n        /* \"@openzeppelin/contracts/access/AccessControl.sol\":2743:2775  type(IAccessControl).interfaceId */\n      0x7965db0b00000000000000000000000000000000000000000000000000000000\n        /* \"@openzeppelin/contracts/access/AccessControl.sol\":2728:2775  interfaceId == type(IAccessControl).interfaceId */\n      not(0xffffffffffffffffffffffffffffffffffffffffffffffffffffffff)\n      and\n        /* \"@openzeppelin/contracts/access/AccessControl.sol\":2728:2739  interfaceId */\n      dup3\n        /* \"@openzeppelin/contracts/access/AccessControl.sol\":2728:2775  interfaceId == type(IAccessControl).interfaceId */\n      not(0xffffffffffffffffffffffffffffffffffffffffffffffffffffffff)\n      and\n      eq\n        /* \"@openzeppelin/contracts/access/AccessControl.sol\":2728:2815  interfaceId == type(IAccessControl).interfaceId || super.supportsInterface(interfaceId) */\n      dup1\n      tag_84\n      jumpi\n      pop\n        /* \"@openzeppelin/contracts/access/AccessControl.sol\":2779:2815  super.supportsInterface(interfaceId) */\n      tag_85\n        /* \"@openzeppelin/contracts/access/AccessControl.sol\":2803:2814  interfaceId */\n      dup3\n        /* \"@openzeppelin/contracts/access/AccessControl.sol\":2779:2802  super.supportsInterface */\n      tag_86\n        /* \"@openzeppelin/contracts/access/AccessControl.sol\":2779:2815  super.supportsInterface(interfaceId) */\n      jump\t// in\n    tag_85:\n        /* \"@openzeppelin/contracts/access/AccessControl.sol\":2728:2815  interfaceId == type(IAccessControl).interfaceId || super.supportsInterface(interfaceId) */\n    tag_84:\n        /* \"@openzeppelin/contracts/access/AccessControl.sol\":2721:2815  return interfaceId == type(IAccessControl).interfaceId || super.supportsInterface(interfaceId) */\n      swap1\n      pop\n        /* \"@openzeppelin/contracts/access/AccessControl.sol\":2620:2822  function supportsInterface(bytes4 interfaceId) public view virtual override returns (bool) {... */\n      swap2\n      swap1\n      pop\n      jump\t// out\n        /* \"@openzeppelin/contracts/access/AccessControl.sol\":4008:4137  function getRoleAdmin(bytes32 role) public view virtual override returns (bytes32) {... */\n    tag_28:\n        /* \"@openzeppelin/contracts/access/AccessControl.sol\":4082:4089  bytes32 */\n      0x00\n        /* \"@openzeppelin/contracts/access/AccessControl.sol\":4108:4114  _roles */\n      dup1\n        /* \"@openzeppelin/contracts/access/AccessControl.sol\":4108:4120  _roles[role] */\n      0x00\n        /* \"@openzeppelin/contracts/access/AccessControl.sol\":4115:4119  role */\n      dup4\n        /* \"@openzeppelin/contracts/access/AccessControl.sol\":4108:4120  _roles[role] */\n      dup2\n      mstore\n      0x20\n      add\n      swap1\n      dup2\n      mstore\n      0x20\n      add\n      0x00\n      keccak256\n        /* \"@openzeppelin/contracts/access/AccessControl.sol\":4108:4130  _roles[role].adminRole */\n      0x01\n      add\n      sload\n        /* \"@openzeppelin/contracts/access/AccessControl.sol\":4101:4130  return _roles[role].adminRole */\n      swap1\n      pop\n        /* \"@openzeppelin/contracts/access/AccessControl.sol\":4008:4137  function getRoleAdmin(bytes32 role) public view virtual override returns (bytes32) {... */\n      swap2\n      swap1\n      pop\n      jump\t// out\n        /* \"@openzeppelin/contracts/access/AccessControl.sol\":4387:4532  function grantRole(bytes32 role, address account) public virtual override onlyRole(getRoleAdmin(role)) {... */\n    tag_35:\n        /* \"@openzeppelin/contracts/access/AccessControl.sol\":4470:4488  getRoleAdmin(role) */\n      tag_88\n        /* \"@openzeppelin/contracts/access/AccessControl.sol\":4483:4487  role */\n      dup3\n        /* \"@openzeppelin/contracts/access/AccessControl.sol\":4470:4482  getRoleAdmin */\n      tag_28\n        /* \"@openzeppelin/contracts/access/AccessControl.sol\":4470:4488  getRoleAdmin(role) */\n      jump\t// in\n    tag_88:\n        /* \"@openzeppelin/contracts/access/AccessControl.sol\":2505:2535  _checkRole(role, _msgSender()) */\n      tag_90\n        /* \"@openzeppelin/contracts/access/AccessControl.sol\":2516:2520  role */\n      dup2\n        /* \"@openzeppelin/contracts/access/AccessControl.sol\":2522:2534  _msgSender() */\n      tag_91\n        /* \"@openzeppelin/contracts/access/AccessControl.sol\":2522:2532  _msgSender */\n      tag_92\n        /* \"@openzeppelin/contracts/access/AccessControl.sol\":2522:2534  _msgSender() */\n      jump\t// in\n    tag_91:\n        /* \"@openzeppelin/contracts/access/AccessControl.sol\":2505:2515  _checkRole */\n      tag_93\n        /* \"@openzeppelin/contracts/access/AccessControl.sol\":2505:2535  _checkRole(role, _msgSender()) */\n      jump\t// in\n    tag_90:\n        /* \"@openzeppelin/contracts/access/AccessControl.sol\":4500:4525  _grantRole(role, account) */\n      tag_95\n        /* \"@openzeppelin/contracts/access/AccessControl.sol\":4511:4515  role */\n      dup4\n        /* \"@openzeppelin/contracts/access/AccessControl.sol\":4517:4524  account */\n      dup4\n        /* \"@openzeppelin/contracts/access/AccessControl.sol\":4500:4510  _grantRole */\n      tag_96\n        /* \"@openzeppelin/contracts/access/AccessControl.sol\":4500:4525  _grantRole(role, account) */\n      jump\t// in\n    tag_95:\n        /* \"@openzeppelin/contracts/access/AccessControl.sol\":4387:4532  function grantRole(bytes32 role, address account) public virtual override onlyRole(getRoleAdmin(role)) {... */\n      pop\n      pop\n      pop\n      jump\t// out\n        /* \"Marketplace.sol\":1259:1596  function buyMarketItem(uint256 _itemId) public payable {\r... */\n    tag_39:\n        /* \"Marketplace.sol\":1365:1370  false */\n      0x00\n        /* \"Marketplace.sol\":1333:1370  idToMarketItem[_itemId].sold == false */\n      iszero\n      iszero\n        /* \"Marketplace.sol\":1333:1347  idToMarketItem */\n      0x02\n        /* \"Marketplace.sol\":1333:1356  idToMarketItem[_itemId] */\n      0x00\n        /* \"Marketplace.sol\":1348:1355  _itemId */\n      dup4\n        /* \"Marketplace.sol\":1333:1356  idToMarketItem[_itemId] */\n      dup2\n      mstore\n      0x20\n      add\n      swap1\n      dup2\n      mstore\n      0x20\n      add\n      0x00\n      keccak256\n        /* \"Marketplace.sol\":1333:1361  idToMarketItem[_itemId].sold */\n      0x04\n      add\n      0x14\n      swap1\n      sload\n      swap1\n      0x0100\n      exp\n      swap1\n      div\n      0xff\n      and\n        /* \"Marketplace.sol\":1333:1370  idToMarketItem[_itemId].sold == false */\n      iszero\n      iszero\n      eq\n        /* \"Marketplace.sol\":1325:1395  require(idToMarketItem[_itemId].sold == false, \"Item is already sold\") */\n      tag_98\n      jumpi\n      mload(0x40)\n      0x08c379a000000000000000000000000000000000000000000000000000000000\n      dup2\n      mstore\n      0x04\n      add\n      tag_99\n      swap1\n      tag_100\n      jump\t// in\n    tag_99:\n      mload(0x40)\n      dup1\n      swap2\n      sub\n      swap1\n      revert\n    tag_98:\n        /* \"Marketplace.sol\":1447:1456  msg.value */\n      callvalue\n        /* \"Marketplace.sol\":1414:1428  idToMarketItem */\n      0x02\n        /* \"Marketplace.sol\":1414:1437  idToMarketItem[_itemId] */\n      0x00\n        /* \"Marketplace.sol\":1429:1436  _itemId */\n      dup4\n        /* \"Marketplace.sol\":1414:1437  idToMarketItem[_itemId] */\n      dup2\n      mstore\n      0x20\n      add\n      swap1\n      dup2\n      mstore\n      0x20\n      add\n      0x00\n      keccak256\n        /* \"Marketplace.sol\":1414:1443  idToMarketItem[_itemId].price */\n      0x03\n      add\n      sload\n        /* \"Marketplace.sol\":1414:1456  idToMarketItem[_itemId].price == msg.value */\n      eq\n        /* \"Marketplace.sol\":1406:1481  require(idToMarketItem[_itemId].price == msg.value, \"Price does not match\") */\n      tag_101\n      jumpi\n      mload(0x40)\n      0x08c379a000000000000000000000000000000000000000000000000000000000\n      dup2\n      mstore\n      0x04\n      add\n      tag_102\n      swap1\n      tag_103\n      jump\t// in\n    tag_102:\n      mload(0x40)\n      dup1\n      swap2\n      sub\n      swap1\n      revert\n    tag_101:\n        /* \"Marketplace.sol\":1523:1527  true */\n      0x01\n        /* \"Marketplace.sol\":1492:1506  idToMarketItem */\n      0x02\n        /* \"Marketplace.sol\":1492:1515  idToMarketItem[_itemId] */\n      0x00\n        /* \"Marketplace.sol\":1507:1514  _itemId */\n      dup4\n        /* \"Marketplace.sol\":1492:1515  idToMarketItem[_itemId] */\n      dup2\n      mstore\n      0x20\n      add\n      swap1\n      dup2\n      mstore\n      0x20\n      add\n      0x00\n      keccak256\n        /* \"Marketplace.sol\":1492:1520  idToMarketItem[_itemId].sold */\n      0x04\n      add\n      0x14\n        /* \"Marketplace.sol\":1492:1527  idToMarketItem[_itemId].sold = true */\n      0x0100\n      exp\n      dup2\n      sload\n      dup2\n      0xff\n      mul\n      not\n      and\n      swap1\n      dup4\n      iszero\n      iszero\n      mul\n      or\n      swap1\n      sstore\n      pop\n        /* \"Marketplace.sol\":1538:1552  idToMarketItem */\n      0x02\n        /* \"Marketplace.sol\":1538:1561  idToMarketItem[_itemId] */\n      0x00\n        /* \"Marketplace.sol\":1553:1560  _itemId */\n      dup3\n        /* \"Marketplace.sol\":1538:1561  idToMarketItem[_itemId] */\n      dup2\n      mstore\n      0x20\n      add\n      swap1\n      dup2\n      mstore\n      0x20\n      add\n      0x00\n      keccak256\n        /* \"Marketplace.sol\":1538:1568  idToMarketItem[_itemId].seller */\n      0x04\n      add\n      0x00\n      swap1\n      sload\n      swap1\n      0x0100\n      exp\n      swap1\n      div\n      0xffffffffffffffffffffffffffffffffffffffff\n      and\n        /* \"Marketplace.sol\":1538:1577  idToMarketItem[_itemId].seller.transfer */\n      0xffffffffffffffffffffffffffffffffffffffff\n      and\n        /* \"Marketplace.sol\":1538:1588  idToMarketItem[_itemId].seller.transfer(msg.value) */\n      0x08fc\n        /* \"Marketplace.sol\":1578:1587  msg.value */\n      callvalue\n        /* \"Marketplace.sol\":1538:1588  idToMarketItem[_itemId].seller.transfer(msg.value) */\n      swap1\n      dup2\n      iszero\n      mul\n      swap1\n      mload(0x40)\n      0x00\n      mload(0x40)\n      dup1\n      dup4\n      sub\n      dup2\n      dup6\n      dup9\n      dup9\n      call\n      swap4\n      pop\n      pop\n      pop\n      pop\n      iszero\n      dup1\n      iszero\n      tag_105\n      jumpi\n      returndatasize\n      0x00\n      dup1\n      returndatacopy\n      revert(0x00, returndatasize)\n    tag_105:\n      pop\n        /* \"Marketplace.sol\":1259:1596  function buyMarketItem(uint256 _itemId) public payable {\r... */\n      pop\n      jump\t// out\n        /* \"@openzeppelin/contracts/access/AccessControl.sol\":5404:5618  function renounceRole(bytes32 role, address account) public virtual override {... */\n    tag_43:\n        /* \"@openzeppelin/contracts/access/AccessControl.sol\":5510:5522  _msgSender() */\n      tag_107\n        /* \"@openzeppelin/contracts/access/AccessControl.sol\":5510:5520  _msgSender */\n      tag_92\n        /* \"@openzeppelin/contracts/access/AccessControl.sol\":5510:5522  _msgSender() */\n      jump\t// in\n    tag_107:\n        /* \"@openzeppelin/contracts/access/AccessControl.sol\":5499:5522  account == _msgSender() */\n      0xffffffffffffffffffffffffffffffffffffffff\n      and\n        /* \"@openzeppelin/contracts/access/AccessControl.sol\":5499:5506  account */\n      dup2\n        /* \"@openzeppelin/contracts/access/AccessControl.sol\":5499:5522  account == _msgSender() */\n      0xffffffffffffffffffffffffffffffffffffffff\n      and\n      eq\n        /* \"@openzeppelin/contracts/access/AccessControl.sol\":5491:5574  require(account == _msgSender(), \"AccessControl: can only renounce roles for self\") */\n      tag_108\n      jumpi\n      mload(0x40)\n      0x08c379a000000000000000000000000000000000000000000000000000000000\n      dup2\n      mstore\n      0x04\n      add\n      tag_109\n      swap1\n      tag_110\n      jump\t// in\n    tag_109:\n      mload(0x40)\n      dup1\n      swap2\n      sub\n      swap1\n      revert\n    tag_108:\n        /* \"@openzeppelin/contracts/access/AccessControl.sol\":5585:5611  _revokeRole(role, account) */\n      tag_111\n        /* \"@openzeppelin/contracts/access/AccessControl.sol\":5597:5601  role */\n      dup3\n        /* \"@openzeppelin/contracts/access/AccessControl.sol\":5603:5610  account */\n      dup3\n        /* \"@openzeppelin/contracts/access/AccessControl.sol\":5585:5596  _revokeRole */\n      tag_112\n        /* \"@openzeppelin/contracts/access/AccessControl.sol\":5585:5611  _revokeRole(role, account) */\n      jump\t// in\n    tag_111:\n        /* \"@openzeppelin/contracts/access/AccessControl.sol\":5404:5618  function renounceRole(bytes32 role, address account) public virtual override {... */\n      pop\n      pop\n      jump\t// out\n        /* \"Marketplace.sol\":249:278  uint256 public nextItemId = 0 */\n    tag_46:\n      sload(0x01)\n      dup2\n      jump\t// out\n        /* \"Marketplace.sol\":1896:2189  function getMarketItemDetails(uint256 _itemId) public view returns (string memory description, string memory imageUrl, uint8 stars, uint8 quantity) {\r... */\n    tag_52:\n        /* \"Marketplace.sol\":1964:1989  string memory description */\n      0x60\n        /* \"Marketplace.sol\":1991:2013  string memory imageUrl */\n      dup1\n        /* \"Marketplace.sol\":2015:2026  uint8 stars */\n      0x00\n        /* \"Marketplace.sol\":2028:2042  uint8 quantity */\n      dup1\n        /* \"Marketplace.sol\":2055:2077  MarketItem memory item */\n      0x00\n        /* \"Marketplace.sol\":2080:2094  idToMarketItem */\n      0x02\n        /* \"Marketplace.sol\":2080:2103  idToMarketItem[_itemId] */\n      0x00\n        /* \"Marketplace.sol\":2095:2102  _itemId */\n      dup8\n        /* \"Marketplace.sol\":2080:2103  idToMarketItem[_itemId] */\n      dup2\n      mstore\n      0x20\n      add\n      swap1\n      dup2\n      mstore\n      0x20\n      add\n      0x00\n      keccak256\n        /* \"Marketplace.sol\":2055:2103  MarketItem memory item = idToMarketItem[_itemId] */\n      mload(0x40)\n      dup1\n      0x0120\n      add\n      0x40\n      mstore\n      swap1\n      dup2\n      0x00\n      dup3\n      add\n      sload\n      dup2\n      mstore\n      0x20\n      add\n      0x01\n      dup3\n      add\n      dup1\n      sload\n      tag_114\n      swap1\n      tag_115\n      jump\t// in\n    tag_114:\n      dup1\n      0x1f\n      add\n      0x20\n      dup1\n      swap2\n      div\n      mul\n      0x20\n      add\n      mload(0x40)\n      swap1\n      dup2\n      add\n      0x40\n      mstore\n      dup1\n      swap3\n      swap2\n      swap1\n      dup2\n      dup2\n      mstore\n      0x20\n      add\n      dup3\n      dup1\n      sload\n      tag_116\n      swap1\n      tag_115\n      jump\t// in\n    tag_116:\n      dup1\n      iszero\n      tag_117\n      jumpi\n      dup1\n      0x1f\n      lt\n      tag_118\n      jumpi\n      0x0100\n      dup1\n      dup4\n      sload\n      div\n      mul\n      dup4\n      mstore\n      swap2\n      0x20\n      add\n      swap2\n      jump(tag_117)\n    tag_118:\n      dup3\n      add\n      swap2\n      swap1\n      0x00\n      mstore\n      keccak256(0x00, 0x20)\n      swap1\n    tag_119:\n      dup2\n      sload\n      dup2\n      mstore\n      swap1\n      0x01\n      add\n      swap1\n      0x20\n      add\n      dup1\n      dup4\n      gt\n      tag_119\n      jumpi\n      dup3\n      swap1\n      sub\n      0x1f\n      and\n      dup3\n      add\n      swap2\n    tag_117:\n      pop\n      pop\n      pop\n      pop\n      pop\n      dup2\n      mstore\n      0x20\n      add\n      0x02\n      dup3\n      add\n      dup1\n      sload\n      tag_120\n      swap1\n      tag_115\n      jump\t// in\n    tag_120:\n      dup1\n      0x1f\n      add\n      0x20\n      dup1\n      swap2\n      div\n      mul\n      0x20\n      add\n      mload(0x40)\n      swap1\n      dup2\n      add\n      0x40\n      mstore\n      dup1\n      swap3\n      swap2\n      swap1\n      dup2\n      dup2\n      mstore\n      0x20\n      add\n      dup3\n      dup1\n      sload\n      tag_121\n      swap1\n      tag_115\n      jump\t// in\n    tag_121:\n      dup1\n      iszero\n      tag_122\n      jumpi\n      dup1\n      0x1f\n      lt\n      tag_123\n      jumpi\n      0x0100\n      dup1\n      dup4\n      sload\n      div\n      mul\n      dup4\n      mstore\n      swap2\n      0x20\n      add\n      swap2\n      jump(tag_122)\n    tag_123:\n      dup3\n      add\n      swap2\n      swap1\n      0x00\n      mstore\n      keccak256(0x00, 0x20)\n      swap1\n    tag_124:\n      dup2\n      sload\n      dup2\n      mstore\n      swap1\n      0x01\n      add\n      swap1\n      0x20\n      add\n      dup1\n      dup4\n      gt\n      tag_124\n      jumpi\n      dup3\n      swap1\n      sub\n      0x1f\n      and\n      dup3\n      add\n      swap2\n    tag_122:\n      pop\n      pop\n      pop\n      pop\n      pop\n      dup2\n      mstore\n      0x20\n      add\n      0x03\n      dup3\n      add\n      sload\n      dup2\n      mstore\n      0x20\n      add\n      0x04\n      dup3\n      add\n      0x00\n      swap1\n      sload\n      swap1\n      0x0100\n      exp\n      swap1\n      div\n      0xffffffffffffffffffffffffffffffffffffffff\n      and\n      0xffffffffffffffffffffffffffffffffffffffff\n      and\n      0xffffffffffffffffffffffffffffffffffffffff\n      and\n      dup2\n      mstore\n      0x20\n      add\n      0x04\n      dup3\n      add\n      0x14\n      swap1\n      sload\n      swap1\n      0x0100\n      exp\n      swap1\n      div\n      0xff\n      and\n      iszero\n      iszero\n      iszero\n      iszero\n      dup2\n      mstore\n      0x20\n      add\n      0x05\n      dup3\n      add\n      dup1\n      sload\n      tag_125\n      swap1\n      tag_115\n      jump\t// in\n    tag_125:\n      dup1\n      0x1f\n      add\n      0x20\n      dup1\n      swap2\n      div\n      mul\n      0x20\n      add\n      mload(0x40)\n      swap1\n      dup2\n      add\n      0x40\n      mstore\n      dup1\n      swap3\n      swap2\n      swap1\n      dup2\n      dup2\n      mstore\n      0x20\n      add\n      dup3\n      dup1\n      sload\n      tag_126\n      swap1\n      tag_115\n      jump\t// in\n    tag_126:\n      dup1\n      iszero\n      tag_127\n      jumpi\n      dup1\n      0x1f\n      lt\n      tag_128\n      jumpi\n      0x0100\n      dup1\n      dup4\n      sload\n      div\n      mul\n      dup4\n      mstore\n      swap2\n      0x20\n      add\n      swap2\n      jump(tag_127)\n    tag_128:\n      dup3\n      add\n      swap2\n      swap1\n      0x00\n      mstore\n      keccak256(0x00, 0x20)\n      swap1\n    tag_129:\n      dup2\n      sload\n      dup2\n      mstore\n      swap1\n      0x01\n      add\n      swap1\n      0x20\n      add\n      dup1\n      dup4\n      gt\n      tag_129\n      jumpi\n      dup3\n      swap1\n      sub\n      0x1f\n      and\n      dup3\n      add\n      swap2\n    tag_127:\n      pop\n      pop\n      pop\n      pop\n      pop\n      dup2\n      mstore\n      0x20\n      add\n      0x06\n      dup3\n      add\n      0x00\n      swap1\n      sload\n      swap1\n      0x0100\n      exp\n      swap1\n      div\n      0xff\n      and\n      0xff\n      and\n      0xff\n      and\n      dup2\n      mstore\n      0x20\n      add\n      0x06\n      dup3\n      add\n      0x01\n      swap1\n      sload\n      swap1\n      0x0100\n      exp\n      swap1\n      div\n      0xff\n      and\n      0xff\n      and\n      0xff\n      and\n      dup2\n      mstore\n      pop\n      pop\n      swap1\n      pop\n        /* \"Marketplace.sol\":2122:2126  item */\n      dup1\n        /* \"Marketplace.sol\":2122:2138  item.description */\n      0x40\n      add\n      mload\n        /* \"Marketplace.sol\":2140:2144  item */\n      dup2\n        /* \"Marketplace.sol\":2140:2153  item.imageUrl */\n      0xc0\n      add\n      mload\n        /* \"Marketplace.sol\":2155:2159  item */\n      dup3\n        /* \"Marketplace.sol\":2155:2165  item.stars */\n      0xe0\n      add\n      mload\n        /* \"Marketplace.sol\":2167:2171  item */\n      dup4\n        /* \"Marketplace.sol\":2167:2180  item.quantity */\n      0x0100\n      add\n      mload\n        /* \"Marketplace.sol\":2114:2181  return (item.description, item.imageUrl, item.stars, item.quantity) */\n      swap5\n      pop\n      swap5\n      pop\n      swap5\n      pop\n      swap5\n      pop\n      pop\n        /* \"Marketplace.sol\":1896:2189  function getMarketItemDetails(uint256 _itemId) public view returns (string memory description, string memory imageUrl, uint8 stars, uint8 quantity) {\r... */\n      swap2\n      swap4\n      pop\n      swap2\n      swap4\n      jump\t// out\n        /* \"@openzeppelin/contracts/access/AccessControl.sol\":2909:3054  function hasRole(bytes32 role, address account) public view virtual override returns (bool) {... */\n    tag_58:\n        /* \"@openzeppelin/contracts/access/AccessControl.sol\":2995:2999  bool */\n      0x00\n        /* \"@openzeppelin/contracts/access/AccessControl.sol\":3018:3024  _roles */\n      dup1\n        /* \"@openzeppelin/contracts/access/AccessControl.sol\":3018:3030  _roles[role] */\n      0x00\n        /* \"@openzeppelin/contracts/access/AccessControl.sol\":3025:3029  role */\n      dup5\n        /* \"@openzeppelin/contracts/access/AccessControl.sol\":3018:3030  _roles[role] */\n      dup2\n      mstore\n      0x20\n      add\n      swap1\n      dup2\n      mstore\n      0x20\n      add\n      0x00\n      keccak256\n        /* \"@openzeppelin/contracts/access/AccessControl.sol\":3018:3038  _roles[role].members */\n      0x00\n      add\n        /* \"@openzeppelin/contracts/access/AccessControl.sol\":3018:3047  _roles[role].members[account] */\n      0x00\n        /* \"@openzeppelin/contracts/access/AccessControl.sol\":3039:3046  account */\n      dup4\n        /* \"@openzeppelin/contracts/access/AccessControl.sol\":3018:3047  _roles[role].members[account] */\n      0xffffffffffffffffffffffffffffffffffffffff\n      and\n      0xffffffffffffffffffffffffffffffffffffffff\n      and\n      dup2\n      mstore\n      0x20\n      add\n      swap1\n      dup2\n      mstore\n      0x20\n      add\n      0x00\n      keccak256\n      0x00\n      swap1\n      sload\n      swap1\n      0x0100\n      exp\n      swap1\n      div\n      0xff\n      and\n        /* \"@openzeppelin/contracts/access/AccessControl.sol\":3011:3047  return _roles[role].members[account] */\n      swap1\n      pop\n        /* \"@openzeppelin/contracts/access/AccessControl.sol\":2909:3054  function hasRole(bytes32 role, address account) public view virtual override returns (bool) {... */\n      swap3\n      swap2\n      pop\n      pop\n      jump\t// out\n        /* \"@openzeppelin/contracts/access/AccessControl.sol\":2027:2076  bytes32 public constant DEFAULT_ADMIN_ROLE = 0x00 */\n    tag_62:\n        /* \"@openzeppelin/contracts/access/AccessControl.sol\":2072:2076  0x00 */\n      0x00\n        /* \"@openzeppelin/contracts/access/AccessControl.sol\":2027:2076  bytes32 public constant DEFAULT_ADMIN_ROLE = 0x00 */\n      dup1\n      shl\n      dup2\n      jump\t// out\n        /* \"Marketplace.sol\":701:1251  function createMarketItem(string memory _title, string memory _description, address payable _seller, uint256 _price, string memory _imageUrl, uint8 _quantity) public {\r... */\n    tag_68:\n        /* \"Marketplace.sol\":900:907  _seller */\n      dup4\n        /* \"Marketplace.sol\":886:907  msg.sender == _seller */\n      0xffffffffffffffffffffffffffffffffffffffff\n      and\n        /* \"Marketplace.sol\":886:896  msg.sender */\n      caller\n        /* \"Marketplace.sol\":886:907  msg.sender == _seller */\n      0xffffffffffffffffffffffffffffffffffffffff\n      and\n      eq\n        /* \"Marketplace.sol\":878:952  require(msg.sender == _seller, \"Only the seller can create a market item\") */\n      tag_132\n      jumpi\n      mload(0x40)\n      0x08c379a000000000000000000000000000000000000000000000000000000000\n      dup2\n      mstore\n      0x04\n      add\n      tag_133\n      swap1\n      tag_134\n      jump\t// in\n    tag_133:\n      mload(0x40)\n      dup1\n      swap2\n      sub\n      swap1\n      revert\n    tag_132:\n        /* \"Marketplace.sol\":980:981  0 */\n      0x00\n        /* \"Marketplace.sol\":971:977  _price */\n      dup4\n        /* \"Marketplace.sol\":971:981  _price > 0 */\n      gt\n        /* \"Marketplace.sol\":963:1014  require(_price > 0, \"Price must be greater than 0\") */\n      tag_135\n      jumpi\n      mload(0x40)\n      0x08c379a000000000000000000000000000000000000000000000000000000000\n      dup2\n      mstore\n      0x04\n      add\n      tag_136\n      swap1\n      tag_137\n      jump\t// in\n    tag_136:\n      mload(0x40)\n      dup1\n      swap2\n      sub\n      swap1\n      revert\n    tag_135:\n        /* \"Marketplace.sol\":1034:1048  idToMarketItem */\n      0x02\n        /* \"Marketplace.sol\":1034:1060  idToMarketItem[nextItemId] */\n      0x00\n        /* \"Marketplace.sol\":1049:1059  nextItemId */\n      sload(0x01)\n        /* \"Marketplace.sol\":1034:1060  idToMarketItem[nextItemId] */\n      dup2\n      mstore\n      0x20\n      add\n      swap1\n      dup2\n      mstore\n      0x20\n      add\n      0x00\n      keccak256\n        /* \"Marketplace.sol\":1034:1065  idToMarketItem[nextItemId].sold */\n      0x04\n      add\n      0x14\n      swap1\n      sload\n      swap1\n      0x0100\n      exp\n      swap1\n      div\n      0xff\n      and\n        /* \"Marketplace.sol\":1033:1065  !idToMarketItem[nextItemId].sold */\n      iszero\n        /* \"Marketplace.sol\":1025:1087  require(!idToMarketItem[nextItemId].sold, \"Item already sold\") */\n      tag_138\n      jumpi\n      mload(0x40)\n      0x08c379a000000000000000000000000000000000000000000000000000000000\n      dup2\n      mstore\n      0x04\n      add\n      tag_139\n      swap1\n      tag_140\n      jump\t// in\n    tag_139:\n      mload(0x40)\n      dup1\n      swap2\n      sub\n      swap1\n      revert\n    tag_138:\n        /* \"Marketplace.sol\":1127:1220  MarketItem(nextItemId, _title, _description, _price, _seller, false, _imageUrl, 0, _quantity) */\n      mload(0x40)\n      dup1\n      0x0120\n      add\n      0x40\n      mstore\n      dup1\n        /* \"Marketplace.sol\":1138:1148  nextItemId */\n      sload(0x01)\n        /* \"Marketplace.sol\":1127:1220  MarketItem(nextItemId, _title, _description, _price, _seller, false, _imageUrl, 0, _quantity) */\n      dup2\n      mstore\n      0x20\n      add\n        /* \"Marketplace.sol\":1150:1156  _title */\n      dup8\n        /* \"Marketplace.sol\":1127:1220  MarketItem(nextItemId, _title, _description, _price, _seller, false, _imageUrl, 0, _quantity) */\n      dup2\n      mstore\n      0x20\n      add\n        /* \"Marketplace.sol\":1158:1170  _description */\n      dup7\n        /* \"Marketplace.sol\":1127:1220  MarketItem(nextItemId, _title, _description, _price, _seller, false, _imageUrl, 0, _quantity) */\n      dup2\n      mstore\n      0x20\n      add\n        /* \"Marketplace.sol\":1172:1178  _price */\n      dup5\n        /* \"Marketplace.sol\":1127:1220  MarketItem(nextItemId, _title, _description, _price, _seller, false, _imageUrl, 0, _quantity) */\n      dup2\n      mstore\n      0x20\n      add\n        /* \"Marketplace.sol\":1180:1187  _seller */\n      dup6\n        /* \"Marketplace.sol\":1127:1220  MarketItem(nextItemId, _title, _description, _price, _seller, false, _imageUrl, 0, _quantity) */\n      0xffffffffffffffffffffffffffffffffffffffff\n      and\n      dup2\n      mstore\n      0x20\n      add\n        /* \"Marketplace.sol\":1189:1194  false */\n      0x00\n        /* \"Marketplace.sol\":1127:1220  MarketItem(nextItemId, _title, _description, _price, _seller, false, _imageUrl, 0, _quantity) */\n      iszero\n      iszero\n      dup2\n      mstore\n      0x20\n      add\n        /* \"Marketplace.sol\":1196:1205  _imageUrl */\n      dup4\n        /* \"Marketplace.sol\":1127:1220  MarketItem(nextItemId, _title, _description, _price, _seller, false, _imageUrl, 0, _quantity) */\n      dup2\n      mstore\n      0x20\n      add\n        /* \"Marketplace.sol\":1207:1208  0 */\n      0x00\n        /* \"Marketplace.sol\":1127:1220  MarketItem(nextItemId, _title, _description, _price, _seller, false, _imageUrl, 0, _quantity) */\n      0xff\n      and\n      dup2\n      mstore\n      0x20\n      add\n        /* \"Marketplace.sol\":1210:1219  _quantity */\n      dup3\n        /* \"Marketplace.sol\":1127:1220  MarketItem(nextItemId, _title, _description, _price, _seller, false, _imageUrl, 0, _quantity) */\n      0xff\n      and\n      dup2\n      mstore\n      pop\n        /* \"Marketplace.sol\":1098:1112  idToMarketItem */\n      0x02\n        /* \"Marketplace.sol\":1098:1124  idToMarketItem[nextItemId] */\n      0x00\n        /* \"Marketplace.sol\":1113:1123  nextItemId */\n      sload(0x01)\n        /* \"Marketplace.sol\":1098:1124  idToMarketItem[nextItemId] */\n      dup2\n      mstore\n      0x20\n      add\n      swap1\n      dup2\n      mstore\n      0x20\n      add\n      0x00\n      keccak256\n        /* \"Marketplace.sol\":1098:1220  idToMarketItem[nextItemId] = MarketItem(nextItemId, _title, _description, _price, _seller, false, _imageUrl, 0, _quantity) */\n      0x00\n      dup3\n      add\n      mload\n      dup2\n      0x00\n      add\n      sstore\n      0x20\n      dup3\n      add\n      mload\n      dup2\n      0x01\n      add\n      swap1\n      dup1\n      mload\n      swap1\n      0x20\n      add\n      swap1\n      tag_141\n      swap3\n      swap2\n      swap1\n      tag_142\n      jump\t// in\n    tag_141:\n      pop\n      0x40\n      dup3\n      add\n      mload\n      dup2\n      0x02\n      add\n      swap1\n      dup1\n      mload\n      swap1\n      0x20\n      add\n      swap1\n      tag_143\n      swap3\n      swap2\n      swap1\n      tag_142\n      jump\t// in\n    tag_143:\n      pop\n      0x60\n      dup3\n      add\n      mload\n      dup2\n      0x03\n      add\n      sstore\n      0x80\n      dup3\n      add\n      mload\n      dup2\n      0x04\n      add\n      exp(0x0100, 0x00)\n      dup2\n      sload\n      dup2\n      0xffffffffffffffffffffffffffffffffffffffff\n      mul\n      not\n      and\n      swap1\n      dup4\n      0xffffffffffffffffffffffffffffffffffffffff\n      and\n      mul\n      or\n      swap1\n      sstore\n      pop\n      0xa0\n      dup3\n      add\n      mload\n      dup2\n      0x04\n      add\n      exp(0x0100, 0x14)\n      dup2\n      sload\n      dup2\n      0xff\n      mul\n      not\n      and\n      swap1\n      dup4\n      iszero\n      iszero\n      mul\n      or\n      swap1\n      sstore\n      pop\n      0xc0\n      dup3\n      add\n      mload\n      dup2\n      0x05\n      add\n      swap1\n      dup1\n      mload\n      swap1\n      0x20\n      add\n      swap1\n      tag_144\n      swap3\n      swap2\n      swap1\n      tag_142\n      jump\t// in\n    tag_144:\n      pop\n      0xe0\n      dup3\n      add\n      mload\n      dup2\n      0x06\n      add\n      exp(0x0100, 0x00)\n      dup2\n      sload\n      dup2\n      0xff\n      mul\n      not\n      and\n      swap1\n      dup4\n      0xff\n      and\n      mul\n      or\n      swap1\n      sstore\n      pop\n      0x0100\n      dup3\n      add\n      mload\n      dup2\n      0x06\n      add\n      exp(0x0100, 0x01)\n      dup2\n      sload\n      dup2\n      0xff\n      mul\n      not\n      and\n      swap1\n      dup4\n      0xff\n      and\n      mul\n      or\n      swap1\n      sstore\n      pop\n      swap1\n      pop\n      pop\n        /* \"Marketplace.sol\":1231:1241  nextItemId */\n      0x01\n      0x00\n        /* \"Marketplace.sol\":1231:1243  nextItemId++ */\n      dup2\n      sload\n      dup1\n      swap3\n      swap2\n      swap1\n      tag_145\n      swap1\n      tag_146\n      jump\t// in\n    tag_145:\n      swap2\n      swap1\n      pop\n      sstore\n      pop\n        /* \"Marketplace.sol\":701:1251  function createMarketItem(string memory _title, string memory _description, address payable _seller, uint256 _price, string memory _imageUrl, uint8 _quantity) public {\r... */\n      pop\n      pop\n      pop\n      pop\n      pop\n      pop\n      jump\t// out\n        /* \"Marketplace.sol\":168:242  bytes32 public constant MARKETPLACE_OWNER = keccak256(\"MARKETPLACE_OWNER\") */\n    tag_71:\n        /* \"Marketplace.sol\":212:242  keccak256(\"MARKETPLACE_OWNER\") */\n      0x1f9ca85e780b3b3cfbe1334ca9dd68802db7860f692bd163c796bb76d464edc0\n        /* \"Marketplace.sol\":168:242  bytes32 public constant MARKETPLACE_OWNER = keccak256(\"MARKETPLACE_OWNER\") */\n      dup2\n      jump\t// out\n        /* \"Marketplace.sol\":1604:1886  function getMarketItem(uint256 _itemId) public view returns (string memory title, address payable seller, uint256 price, bool sold) {\r... */\n    tag_76:\n        /* \"Marketplace.sol\":1665:1684  string memory title */\n      0x60\n        /* \"Marketplace.sol\":1686:1708  address payable seller */\n      0x00\n        /* \"Marketplace.sol\":1710:1723  uint256 price */\n      dup1\n        /* \"Marketplace.sol\":1725:1734  bool sold */\n      0x00\n        /* \"Marketplace.sol\":1755:1769  idToMarketItem */\n      0x02\n        /* \"Marketplace.sol\":1755:1778  idToMarketItem[_itemId] */\n      0x00\n        /* \"Marketplace.sol\":1770:1777  _itemId */\n      dup7\n        /* \"Marketplace.sol\":1755:1778  idToMarketItem[_itemId] */\n      dup2\n      mstore\n      0x20\n      add\n      swap1\n      dup2\n      mstore\n      0x20\n      add\n      0x00\n      keccak256\n        /* \"Marketplace.sol\":1755:1784  idToMarketItem[_itemId].title */\n      0x01\n      add\n        /* \"Marketplace.sol\":1786:1800  idToMarketItem */\n      0x02\n        /* \"Marketplace.sol\":1786:1809  idToMarketItem[_itemId] */\n      0x00\n        /* \"Marketplace.sol\":1801:1808  _itemId */\n      dup8\n        /* \"Marketplace.sol\":1786:1809  idToMarketItem[_itemId] */\n      dup2\n      mstore\n      0x20\n      add\n      swap1\n      dup2\n      mstore\n      0x20\n      add\n      0x00\n      keccak256\n        /* \"Marketplace.sol\":1786:1816  idToMarketItem[_itemId].seller */\n      0x04\n      add\n      0x00\n      swap1\n      sload\n      swap1\n      0x0100\n      exp\n      swap1\n      div\n      0xffffffffffffffffffffffffffffffffffffffff\n      and\n        /* \"Marketplace.sol\":1818:1832  idToMarketItem */\n      0x02\n        /* \"Marketplace.sol\":1818:1841  idToMarketItem[_itemId] */\n      0x00\n        /* \"Marketplace.sol\":1833:1840  _itemId */\n      dup9\n        /* \"Marketplace.sol\":1818:1841  idToMarketItem[_itemId] */\n      dup2\n      mstore\n      0x20\n      add\n      swap1\n      dup2\n      mstore\n      0x20\n      add\n      0x00\n      keccak256\n        /* \"Marketplace.sol\":1818:1847  idToMarketItem[_itemId].price */\n      0x03\n      add\n      sload\n        /* \"Marketplace.sol\":1849:1863  idToMarketItem */\n      0x02\n        /* \"Marketplace.sol\":1849:1872  idToMarketItem[_itemId] */\n      0x00\n        /* \"Marketplace.sol\":1864:1871  _itemId */\n      dup10\n        /* \"Marketplace.sol\":1849:1872  idToMarketItem[_itemId] */\n      dup2\n      mstore\n      0x20\n      add\n      swap1\n      dup2\n      mstore\n      0x20\n      add\n      0x00\n      keccak256\n        /* \"Marketplace.sol\":1849:1877  idToMarketItem[_itemId].sold */\n      0x04\n      add\n      0x14\n      swap1\n      sload\n      swap1\n      0x0100\n      exp\n      swap1\n      div\n      0xff\n      and\n        /* \"Marketplace.sol\":1747:1878  return (idToMarketItem[_itemId].title, idToMarketItem[_itemId].seller, idToMarketItem[_itemId].price, idToMarketItem[_itemId].sold) */\n      dup4\n      dup1\n      sload\n      tag_148\n      swap1\n      tag_115\n      jump\t// in\n    tag_148:\n      dup1\n      0x1f\n      add\n      0x20\n      dup1\n      swap2\n      div\n      mul\n      0x20\n      add\n      mload(0x40)\n      swap1\n      dup2\n      add\n      0x40\n      mstore\n      dup1\n      swap3\n      swap2\n      swap1\n      dup2\n      dup2\n      mstore\n      0x20\n      add\n      dup3\n      dup1\n      sload\n      tag_149\n      swap1\n      tag_115\n      jump\t// in\n    tag_149:\n      dup1\n      iszero\n      tag_150\n      jumpi\n      dup1\n      0x1f\n      lt\n      tag_151\n      jumpi\n      0x0100\n      dup1\n      dup4\n      sload\n      div\n      mul\n      dup4\n      mstore\n      swap2\n      0x20\n      add\n      swap2\n      jump(tag_150)\n    tag_151:\n      dup3\n      add\n      swap2\n      swap1\n      0x00\n      mstore\n      keccak256(0x00, 0x20)\n      swap1\n    tag_152:\n      dup2\n      sload\n      dup2\n      mstore\n      swap1\n      0x01\n      add\n      swap1\n      0x20\n      add\n      dup1\n      dup4\n      gt\n      tag_152\n      jumpi\n      dup3\n      swap1\n      sub\n      0x1f\n      and\n      dup3\n      add\n      swap2\n    tag_150:\n      pop\n      pop\n      pop\n      pop\n      pop\n      swap4\n      pop\n      swap4\n      pop\n      swap4\n      pop\n      swap4\n      pop\n      swap4\n      pop\n        /* \"Marketplace.sol\":1604:1886  function getMarketItem(uint256 _itemId) public view returns (string memory title, address payable seller, uint256 price, bool sold) {\r... */\n      swap2\n      swap4\n      pop\n      swap2\n      swap4\n      jump\t// out\n        /* \"@openzeppelin/contracts/access/AccessControl.sol\":4766:4913  function revokeRole(bytes32 role, address account) public virtual override onlyRole(getRoleAdmin(role)) {... */\n    tag_82:\n        /* \"@openzeppelin/contracts/access/AccessControl.sol\":4850:4868  getRoleAdmin(role) */\n      tag_153\n        /* \"@openzeppelin/contracts/access/AccessControl.sol\":4863:4867  role */\n      dup3\n        /* \"@openzeppelin/contracts/access/AccessControl.sol\":4850:4862  getRoleAdmin */\n      tag_28\n        /* \"@openzeppelin/contracts/access/AccessControl.sol\":4850:4868  getRoleAdmin(role) */\n      jump\t// in\n    tag_153:\n        /* \"@openzeppelin/contracts/access/AccessControl.sol\":2505:2535  _checkRole(role, _msgSender()) */\n      tag_155\n        /* \"@openzeppelin/contracts/access/AccessControl.sol\":2516:2520  role */\n      dup2\n        /* \"@openzeppelin/contracts/access/AccessControl.sol\":2522:2534  _msgSender() */\n      tag_156\n        /* \"@openzeppelin/contracts/access/AccessControl.sol\":2522:2532  _msgSender */\n      tag_92\n        /* \"@openzeppelin/contracts/access/AccessControl.sol\":2522:2534  _msgSender() */\n      jump\t// in\n    tag_156:\n        /* \"@openzeppelin/contracts/access/AccessControl.sol\":2505:2515  _checkRole */\n      tag_93\n        /* \"@openzeppelin/contracts/access/AccessControl.sol\":2505:2535  _checkRole(role, _msgSender()) */\n      jump\t// in\n    tag_155:\n        /* \"@openzeppelin/contracts/access/AccessControl.sol\":4880:4906  _revokeRole(role, account) */\n      tag_158\n        /* \"@openzeppelin/contracts/access/AccessControl.sol\":4892:4896  role */\n      dup4\n        /* \"@openzeppelin/contracts/access/AccessControl.sol\":4898:4905  account */\n      dup4\n        /* \"@openzeppelin/contracts/access/AccessControl.sol\":4880:4891  _revokeRole */\n      tag_112\n        /* \"@openzeppelin/contracts/access/AccessControl.sol\":4880:4906  _revokeRole(role, account) */\n      jump\t// in\n    tag_158:\n        /* \"@openzeppelin/contracts/access/AccessControl.sol\":4766:4913  function revokeRole(bytes32 role, address account) public virtual override onlyRole(getRoleAdmin(role)) {... */\n      pop\n      pop\n      pop\n      jump\t// out\n        /* \"@openzeppelin/contracts/utils/introspection/ERC165.sol\":829:984  function supportsInterface(bytes4 interfaceId) public view virtual override returns (bool) {... */\n    tag_86:\n        /* \"@openzeppelin/contracts/utils/introspection/ERC165.sol\":914:918  bool */\n      0x00\n        /* \"@openzeppelin/contracts/utils/introspection/ERC165.sol\":952:977  type(IERC165).interfaceId */\n      0x01ffc9a700000000000000000000000000000000000000000000000000000000\n        /* \"@openzeppelin/contracts/utils/introspection/ERC165.sol\":937:977  interfaceId == type(IERC165).interfaceId */\n      not(0xffffffffffffffffffffffffffffffffffffffffffffffffffffffff)\n      and\n        /* \"@openzeppelin/contracts/utils/introspection/ERC165.sol\":937:948  interfaceId */\n      dup3\n        /* \"@openzeppelin/contracts/utils/introspection/ERC165.sol\":937:977  interfaceId == type(IERC165).interfaceId */\n      not(0xffffffffffffffffffffffffffffffffffffffffffffffffffffffff)\n      and\n      eq\n        /* \"@openzeppelin/contracts/utils/introspection/ERC165.sol\":930:977  return interfaceId == type(IERC165).interfaceId */\n      swap1\n      pop\n        /* \"@openzeppelin/contracts/utils/introspection/ERC165.sol\":829:984  function supportsInterface(bytes4 interfaceId) public view virtual override returns (bool) {... */\n      swap2\n      swap1\n      pop\n      jump\t// out\n        /* \"@openzeppelin/contracts/utils/Context.sol\":640:736  function _msgSender() internal view virtual returns (address) {... */\n    tag_92:\n        /* \"@openzeppelin/contracts/utils/Context.sol\":693:700  address */\n      0x00\n        /* \"@openzeppelin/contracts/utils/Context.sol\":719:729  msg.sender */\n      caller\n        /* \"@openzeppelin/contracts/utils/Context.sol\":712:729  return msg.sender */\n      swap1\n      pop\n        /* \"@openzeppelin/contracts/utils/Context.sol\":640:736  function _msgSender() internal view virtual returns (address) {... */\n      swap1\n      jump\t// out\n        /* \"@openzeppelin/contracts/access/AccessControl.sol\":3335:3827  function _checkRole(bytes32 role, address account) internal view virtual {... */\n    tag_93:\n        /* \"@openzeppelin/contracts/access/AccessControl.sol\":3423:3445  hasRole(role, account) */\n      tag_162\n        /* \"@openzeppelin/contracts/access/AccessControl.sol\":3431:3435  role */\n      dup3\n        /* \"@openzeppelin/contracts/access/AccessControl.sol\":3437:3444  account */\n      dup3\n        /* \"@openzeppelin/contracts/access/AccessControl.sol\":3423:3430  hasRole */\n      tag_58\n        /* \"@openzeppelin/contracts/access/AccessControl.sol\":3423:3445  hasRole(role, account) */\n      jump\t// in\n    tag_162:\n        /* \"@openzeppelin/contracts/access/AccessControl.sol\":3418:3821  if (!hasRole(role, account)) {... */\n      tag_163\n      jumpi\n        /* \"@openzeppelin/contracts/access/AccessControl.sol\":3606:3647  Strings.toHexString(uint160(account), 20) */\n      tag_164\n        /* \"@openzeppelin/contracts/access/AccessControl.sol\":3634:3641  account */\n      dup2\n        /* \"@openzeppelin/contracts/access/AccessControl.sol\":3606:3647  Strings.toHexString(uint160(account), 20) */\n      0xffffffffffffffffffffffffffffffffffffffff\n      and\n        /* \"@openzeppelin/contracts/access/AccessControl.sol\":3644:3646  20 */\n      0x14\n        /* \"@openzeppelin/contracts/access/AccessControl.sol\":3606:3625  Strings.toHexString */\n      tag_165\n        /* \"@openzeppelin/contracts/access/AccessControl.sol\":3606:3647  Strings.toHexString(uint160(account), 20) */\n      jump\t// in\n    tag_164:\n        /* \"@openzeppelin/contracts/access/AccessControl.sol\":3718:3756  Strings.toHexString(uint256(role), 32) */\n      tag_166\n        /* \"@openzeppelin/contracts/access/AccessControl.sol\":3746:3750  role */\n      dup4\n        /* \"@openzeppelin/contracts/access/AccessControl.sol\":3738:3751  uint256(role) */\n      0x00\n      shr\n        /* \"@openzeppelin/contracts/access/AccessControl.sol\":3753:3755  32 */\n      0x20\n        /* \"@openzeppelin/contracts/access/AccessControl.sol\":3718:3737  Strings.toHexString */\n      tag_165\n        /* \"@openzeppelin/contracts/access/AccessControl.sol\":3718:3756  Strings.toHexString(uint256(role), 32) */\n      jump\t// in\n    tag_166:\n        /* \"@openzeppelin/contracts/access/AccessControl.sol\":3513:3778  abi.encodePacked(... */\n      add(0x20, mload(0x40))\n      tag_167\n      swap3\n      swap2\n      swap1\n      tag_168\n      jump\t// in\n    tag_167:\n      mload(0x40)\n      0x20\n      dup2\n      dup4\n      sub\n      sub\n      dup2\n      mstore\n      swap1\n      0x40\n      mstore\n        /* \"@openzeppelin/contracts/access/AccessControl.sol\":3461:3810  revert(... */\n      mload(0x40)\n      0x08c379a000000000000000000000000000000000000000000000000000000000\n      dup2\n      mstore\n      0x04\n      add\n      tag_169\n      swap2\n      swap1\n      tag_170\n      jump\t// in\n    tag_169:\n      mload(0x40)\n      dup1\n      swap2\n      sub\n      swap1\n      revert\n        /* \"@openzeppelin/contracts/access/AccessControl.sol\":3418:3821  if (!hasRole(role, account)) {... */\n    tag_163:\n        /* \"@openzeppelin/contracts/access/AccessControl.sol\":3335:3827  function _checkRole(bytes32 role, address account) internal view virtual {... */\n      pop\n      pop\n      jump\t// out\n        /* \"@openzeppelin/contracts/access/AccessControl.sol\":6861:7094  function _grantRole(bytes32 role, address account) internal virtual {... */\n    tag_96:\n        /* \"@openzeppelin/contracts/access/AccessControl.sol\":6944:6966  hasRole(role, account) */\n      tag_172\n        /* \"@openzeppelin/contracts/access/AccessControl.sol\":6952:6956  role */\n      dup3\n        /* \"@openzeppelin/contracts/access/AccessControl.sol\":6958:6965  account */\n      dup3\n        /* \"@openzeppelin/contracts/access/AccessControl.sol\":6944:6951  hasRole */\n      tag_58\n        /* \"@openzeppelin/contracts/access/AccessControl.sol\":6944:6966  hasRole(role, account) */\n      jump\t// in\n    tag_172:\n        /* \"@openzeppelin/contracts/access/AccessControl.sol\":6939:7088  if (!hasRole(role, account)) {... */\n      tag_173\n      jumpi\n        /* \"@openzeppelin/contracts/access/AccessControl.sol\":7014:7018  true */\n      0x01\n        /* \"@openzeppelin/contracts/access/AccessControl.sol\":6982:6988  _roles */\n      0x00\n        /* \"@openzeppelin/contracts/access/AccessControl.sol\":6982:6994  _roles[role] */\n      dup1\n        /* \"@openzeppelin/contracts/access/AccessControl.sol\":6989:6993  role */\n      dup5\n        /* \"@openzeppelin/contracts/access/AccessControl.sol\":6982:6994  _roles[role] */\n      dup2\n      mstore\n      0x20\n      add\n      swap1\n      dup2\n      mstore\n      0x20\n      add\n      0x00\n      keccak256\n        /* \"@openzeppelin/contracts/access/AccessControl.sol\":6982:7002  _roles[role].members */\n      0x00\n      add\n        /* \"@openzeppelin/contracts/access/AccessControl.sol\":6982:7011  _roles[role].members[account] */\n      0x00\n        /* \"@openzeppelin/contracts/access/AccessControl.sol\":7003:7010  account */\n      dup4\n        /* \"@openzeppelin/contracts/access/AccessControl.sol\":6982:7011  _roles[role].members[account] */\n      0xffffffffffffffffffffffffffffffffffffffff\n      and\n      0xffffffffffffffffffffffffffffffffffffffff\n      and\n      dup2\n      mstore\n      0x20\n      add\n      swap1\n      dup2\n      mstore\n      0x20\n      add\n      0x00\n      keccak256\n      0x00\n        /* \"@openzeppelin/contracts/access/AccessControl.sol\":6982:7018  _roles[role].members[account] = true */\n      0x0100\n      exp\n      dup2\n      sload\n      dup2\n      0xff\n      mul\n      not\n      and\n      swap1\n      dup4\n      iszero\n      iszero\n      mul\n      or\n      swap1\n      sstore\n      pop\n        /* \"@openzeppelin/contracts/access/AccessControl.sol\":7064:7076  _msgSender() */\n      tag_174\n        /* \"@openzeppelin/contracts/access/AccessControl.sol\":7064:7074  _msgSender */\n      tag_92\n        /* \"@openzeppelin/contracts/access/AccessControl.sol\":7064:7076  _msgSender() */\n      jump\t// in\n    tag_174:\n        /* \"@openzeppelin/contracts/access/AccessControl.sol\":7037:7077  RoleGranted(role, account, _msgSender()) */\n      0xffffffffffffffffffffffffffffffffffffffff\n      and\n        /* \"@openzeppelin/contracts/access/AccessControl.sol\":7055:7062  account */\n      dup2\n        /* \"@openzeppelin/contracts/access/AccessControl.sol\":7037:7077  RoleGranted(role, account, _msgSender()) */\n      0xffffffffffffffffffffffffffffffffffffffff\n      and\n        /* \"@openzeppelin/contracts/access/AccessControl.sol\":7049:7053  role */\n      dup4\n        /* \"@openzeppelin/contracts/access/AccessControl.sol\":7037:7077  RoleGranted(role, account, _msgSender()) */\n      0x2f8788117e7eff1d82e926ec794901d17c78024a50270940304540a733656f0d\n      mload(0x40)\n      mload(0x40)\n      dup1\n      swap2\n      sub\n      swap1\n      log4\n        /* \"@openzeppelin/contracts/access/AccessControl.sol\":6939:7088  if (!hasRole(role, account)) {... */\n    tag_173:\n        /* \"@openzeppelin/contracts/access/AccessControl.sol\":6861:7094  function _grantRole(bytes32 role, address account) internal virtual {... */\n      pop\n      pop\n      jump\t// out\n        /* \"@openzeppelin/contracts/access/AccessControl.sol\":7219:7453  function _revokeRole(bytes32 role, address account) internal virtual {... */\n    tag_112:\n        /* \"@openzeppelin/contracts/access/AccessControl.sol\":7302:7324  hasRole(role, account) */\n      tag_176\n        /* \"@openzeppelin/contracts/access/AccessControl.sol\":7310:7314  role */\n      dup3\n        /* \"@openzeppelin/contracts/access/AccessControl.sol\":7316:7323  account */\n      dup3\n        /* \"@openzeppelin/contracts/access/AccessControl.sol\":7302:7309  hasRole */\n      tag_58\n        /* \"@openzeppelin/contracts/access/AccessControl.sol\":7302:7324  hasRole(role, account) */\n      jump\t// in\n    tag_176:\n        /* \"@openzeppelin/contracts/access/AccessControl.sol\":7298:7447  if (hasRole(role, account)) {... */\n      iszero\n      tag_177\n      jumpi\n        /* \"@openzeppelin/contracts/access/AccessControl.sol\":7372:7377  false */\n      0x00\n        /* \"@openzeppelin/contracts/access/AccessControl.sol\":7340:7346  _roles */\n      dup1\n        /* \"@openzeppelin/contracts/access/AccessControl.sol\":7340:7352  _roles[role] */\n      0x00\n        /* \"@openzeppelin/contracts/access/AccessControl.sol\":7347:7351  role */\n      dup5\n        /* \"@openzeppelin/contracts/access/AccessControl.sol\":7340:7352  _roles[role] */\n      dup2\n      mstore\n      0x20\n      add\n      swap1\n      dup2\n      mstore\n      0x20\n      add\n      0x00\n      keccak256\n        /* \"@openzeppelin/contracts/access/AccessControl.sol\":7340:7360  _roles[role].members */\n      0x00\n      add\n        /* \"@openzeppelin/contracts/access/AccessControl.sol\":7340:7369  _roles[role].members[account] */\n      0x00\n        /* \"@openzeppelin/contracts/access/AccessControl.sol\":7361:7368  account */\n      dup4\n        /* \"@openzeppelin/contracts/access/AccessControl.sol\":7340:7369  _roles[role].members[account] */\n      0xffffffffffffffffffffffffffffffffffffffff\n      and\n      0xffffffffffffffffffffffffffffffffffffffff\n      and\n      dup2\n      mstore\n      0x20\n      add\n      swap1\n      dup2\n      mstore\n      0x20\n      add\n      0x00\n      keccak256\n      0x00\n        /* \"@openzeppelin/contracts/access/AccessControl.sol\":7340:7377  _roles[role].members[account] = false */\n      0x0100\n      exp\n      dup2\n      sload\n      dup2\n      0xff\n      mul\n      not\n      and\n      swap1\n      dup4\n      iszero\n      iszero\n      mul\n      or\n      swap1\n      sstore\n      pop\n        /* \"@openzeppelin/contracts/access/AccessControl.sol\":7423:7435  _msgSender() */\n      tag_178\n        /* \"@openzeppelin/contracts/access/AccessControl.sol\":7423:7433  _msgSender */\n      tag_92\n        /* \"@openzeppelin/contracts/access/AccessControl.sol\":7423:7435  _msgSender() */\n      jump\t// in\n    tag_178:\n        /* \"@openzeppelin/contracts/access/AccessControl.sol\":7396:7436  RoleRevoked(role, account, _msgSender()) */\n      0xffffffffffffffffffffffffffffffffffffffff\n      and\n        /* \"@openzeppelin/contracts/access/AccessControl.sol\":7414:7421  account */\n      dup2\n        /* \"@openzeppelin/contracts/access/AccessControl.sol\":7396:7436  RoleRevoked(role, account, _msgSender()) */\n      0xffffffffffffffffffffffffffffffffffffffff\n      and\n        /* \"@openzeppelin/contracts/access/AccessControl.sol\":7408:7412  role */\n      dup4\n        /* \"@openzeppelin/contracts/access/AccessControl.sol\":7396:7436  RoleRevoked(role, account, _msgSender()) */\n      0xf6391f5c32d9c69d2a47ea670b442974b53935d1edc7fd64eb21e047a839171b\n      mload(0x40)\n      mload(0x40)\n      dup1\n      swap2\n      sub\n      swap1\n      log4\n        /* \"@openzeppelin/contracts/access/AccessControl.sol\":7298:7447  if (hasRole(role, account)) {... */\n    tag_177:\n        /* \"@openzeppelin/contracts/access/AccessControl.sol\":7219:7453  function _revokeRole(bytes32 role, address account) internal virtual {... */\n      pop\n      pop\n      jump\t// out\n        /* \"@openzeppelin/contracts/utils/Strings.sol\":1588:2029  function toHexString(uint256 value, uint256 length) internal pure returns (string memory) {... */\n    tag_165:\n        /* \"@openzeppelin/contracts/utils/Strings.sol\":1663:1676  string memory */\n      0x60\n        /* \"@openzeppelin/contracts/utils/Strings.sol\":1688:1707  bytes memory buffer */\n      0x00\n        /* \"@openzeppelin/contracts/utils/Strings.sol\":1733:1734  2 */\n      0x02\n        /* \"@openzeppelin/contracts/utils/Strings.sol\":1724:1730  length */\n      dup4\n        /* \"@openzeppelin/contracts/utils/Strings.sol\":1720:1721  2 */\n      0x02\n        /* \"@openzeppelin/contracts/utils/Strings.sol\":1720:1730  2 * length */\n      tag_180\n      swap2\n      swap1\n      tag_181\n      jump\t// in\n    tag_180:\n        /* \"@openzeppelin/contracts/utils/Strings.sol\":1720:1734  2 * length + 2 */\n      tag_182\n      swap2\n      swap1\n      tag_183\n      jump\t// in\n    tag_182:\n        /* \"@openzeppelin/contracts/utils/Strings.sol\":1710:1735  new bytes(2 * length + 2) */\n      0xffffffffffffffff\n      dup2\n      gt\n      iszero\n      tag_184\n      jumpi\n      tag_185\n      tag_186\n      jump\t// in\n    tag_185:\n    tag_184:\n      mload(0x40)\n      swap1\n      dup1\n      dup3\n      mstore\n      dup1\n      0x1f\n      add\n      not(0x1f)\n      and\n      0x20\n      add\n      dup3\n      add\n      0x40\n      mstore\n      dup1\n      iszero\n      tag_187\n      jumpi\n      dup2\n      0x20\n      add\n      0x01\n      dup3\n      mul\n      dup1\n      calldatasize\n      dup4\n      calldatacopy\n      dup1\n      dup3\n      add\n      swap2\n      pop\n      pop\n      swap1\n      pop\n    tag_187:\n      pop\n        /* \"@openzeppelin/contracts/utils/Strings.sol\":1688:1735  bytes memory buffer = new bytes(2 * length + 2) */\n      swap1\n      pop\n        /* \"@openzeppelin/contracts/utils/Strings.sol\":1745:1760  buffer[0] = \"0\" */\n      0x3000000000000000000000000000000000000000000000000000000000000000\n        /* \"@openzeppelin/contracts/utils/Strings.sol\":1745:1751  buffer */\n      dup2\n        /* \"@openzeppelin/contracts/utils/Strings.sol\":1752:1753  0 */\n      0x00\n        /* \"@openzeppelin/contracts/utils/Strings.sol\":1745:1754  buffer[0] */\n      dup2\n      mload\n      dup2\n      lt\n      tag_188\n      jumpi\n      tag_189\n      tag_190\n      jump\t// in\n    tag_189:\n    tag_188:\n      0x20\n      add\n      add\n        /* \"@openzeppelin/contracts/utils/Strings.sol\":1745:1760  buffer[0] = \"0\" */\n      swap1\n      not(0xffffffffffffffffffffffffffffffffffffffffffffffffffffffffffffff)\n      and\n      swap1\n      dup2\n      0x00\n      byte\n      swap1\n      mstore8\n      pop\n        /* \"@openzeppelin/contracts/utils/Strings.sol\":1770:1785  buffer[1] = \"x\" */\n      0x7800000000000000000000000000000000000000000000000000000000000000\n        /* \"@openzeppelin/contracts/utils/Strings.sol\":1770:1776  buffer */\n      dup2\n        /* \"@openzeppelin/contracts/utils/Strings.sol\":1777:1778  1 */\n      0x01\n        /* \"@openzeppelin/contracts/utils/Strings.sol\":1770:1779  buffer[1] */\n      dup2\n      mload\n      dup2\n      lt\n      tag_191\n      jumpi\n      tag_192\n      tag_190\n      jump\t// in\n    tag_192:\n    tag_191:\n      0x20\n      add\n      add\n        /* \"@openzeppelin/contracts/utils/Strings.sol\":1770:1785  buffer[1] = \"x\" */\n      swap1\n      not(0xffffffffffffffffffffffffffffffffffffffffffffffffffffffffffffff)\n      and\n      swap1\n      dup2\n      0x00\n      byte\n      swap1\n      mstore8\n      pop\n        /* \"@openzeppelin/contracts/utils/Strings.sol\":1800:1809  uint256 i */\n      0x00\n        /* \"@openzeppelin/contracts/utils/Strings.sol\":1825:1826  1 */\n      0x01\n        /* \"@openzeppelin/contracts/utils/Strings.sol\":1816:1822  length */\n      dup5\n        /* \"@openzeppelin/contracts/utils/Strings.sol\":1812:1813  2 */\n      0x02\n        /* \"@openzeppelin/contracts/utils/Strings.sol\":1812:1822  2 * length */\n      tag_196\n      swap2\n      swap1\n      tag_181\n      jump\t// in\n    tag_196:\n        /* \"@openzeppelin/contracts/utils/Strings.sol\":1812:1826  2 * length + 1 */\n      tag_197\n      swap2\n      swap1\n      tag_183\n      jump\t// in\n    tag_197:\n        /* \"@openzeppelin/contracts/utils/Strings.sol\":1800:1826  uint256 i = 2 * length + 1 */\n      swap1\n      pop\n        /* \"@openzeppelin/contracts/utils/Strings.sol\":1795:1927  for (uint256 i = 2 * length + 1; i > 1; --i) {... */\n    tag_193:\n        /* \"@openzeppelin/contracts/utils/Strings.sol\":1832:1833  1 */\n      0x01\n        /* \"@openzeppelin/contracts/utils/Strings.sol\":1828:1829  i */\n      dup2\n        /* \"@openzeppelin/contracts/utils/Strings.sol\":1828:1833  i > 1 */\n      gt\n        /* \"@openzeppelin/contracts/utils/Strings.sol\":1795:1927  for (uint256 i = 2 * length + 1; i > 1; --i) {... */\n      iszero\n      tag_194\n      jumpi\n        /* \"@openzeppelin/contracts/utils/Strings.sol\":1866:1878  _HEX_SYMBOLS */\n      0x3031323334353637383961626364656600000000000000000000000000000000\n        /* \"@openzeppelin/contracts/utils/Strings.sol\":1887:1890  0xf */\n      0x0f\n        /* \"@openzeppelin/contracts/utils/Strings.sol\":1879:1884  value */\n      dup7\n        /* \"@openzeppelin/contracts/utils/Strings.sol\":1879:1890  value & 0xf */\n      and\n        /* \"@openzeppelin/contracts/utils/Strings.sol\":1866:1891  _HEX_SYMBOLS[value & 0xf] */\n      0x10\n      dup2\n      lt\n      tag_198\n      jumpi\n      tag_199\n      tag_190\n      jump\t// in\n    tag_199:\n    tag_198:\n      byte\n      0xf8\n      shl\n        /* \"@openzeppelin/contracts/utils/Strings.sol\":1854:1860  buffer */\n      dup3\n        /* \"@openzeppelin/contracts/utils/Strings.sol\":1861:1862  i */\n      dup3\n        /* \"@openzeppelin/contracts/utils/Strings.sol\":1854:1863  buffer[i] */\n      dup2\n      mload\n      dup2\n      lt\n      tag_200\n      jumpi\n      tag_201\n      tag_190\n      jump\t// in\n    tag_201:\n    tag_200:\n      0x20\n      add\n      add\n        /* \"@openzeppelin/contracts/utils/Strings.sol\":1854:1891  buffer[i] = _HEX_SYMBOLS[value & 0xf] */\n      swap1\n      not(0xffffffffffffffffffffffffffffffffffffffffffffffffffffffffffffff)\n      and\n      swap1\n      dup2\n      0x00\n      byte\n      swap1\n      mstore8\n      pop\n        /* \"@openzeppelin/contracts/utils/Strings.sol\":1915:1916  4 */\n      0x04\n        /* \"@openzeppelin/contracts/utils/Strings.sol\":1905:1916  value >>= 4 */\n      dup6\n      swap1\n      shr\n      swap5\n      pop\n        /* \"@openzeppelin/contracts/utils/Strings.sol\":1835:1838  --i */\n      dup1\n      tag_202\n      swap1\n      tag_203\n      jump\t// in\n    tag_202:\n      swap1\n      pop\n        /* \"@openzeppelin/contracts/utils/Strings.sol\":1795:1927  for (uint256 i = 2 * length + 1; i > 1; --i) {... */\n      jump(tag_193)\n    tag_194:\n      pop\n        /* \"@openzeppelin/contracts/utils/Strings.sol\":1953:1954  0 */\n      0x00\n        /* \"@openzeppelin/contracts/utils/Strings.sol\":1944:1949  value */\n      dup5\n        /* \"@openzeppelin/contracts/utils/Strings.sol\":1944:1954  value == 0 */\n      eq\n        /* \"@openzeppelin/contracts/utils/Strings.sol\":1936:1991  require(value == 0, \"Strings: hex length insufficient\") */\n      tag_204\n      jumpi\n      mload(0x40)\n      0x08c379a000000000000000000000000000000000000000000000000000000000\n      dup2\n      mstore\n      0x04\n      add\n      tag_205\n      swap1\n      tag_206\n      jump\t// in\n    tag_205:\n      mload(0x40)\n      dup1\n      swap2\n      sub\n      swap1\n      revert\n    tag_204:\n        /* \"@openzeppelin/contracts/utils/Strings.sol\":2015:2021  buffer */\n      dup1\n        /* \"@openzeppelin/contracts/utils/Strings.sol\":2001:2022  return string(buffer) */\n      swap2\n      pop\n      pop\n        /* \"@openzeppelin/contracts/utils/Strings.sol\":1588:2029  function toHexString(uint256 value, uint256 length) internal pure returns (string memory) {... */\n      swap3\n      swap2\n      pop\n      pop\n      jump\t// out\n    tag_142:\n      dup3\n      dup1\n      sload\n      tag_207\n      swap1\n      tag_115\n      jump\t// in\n    tag_207:\n      swap1\n      0x00\n      mstore\n      keccak256(0x00, 0x20)\n      swap1\n      0x1f\n      add\n      0x20\n      swap1\n      div\n      dup2\n      add\n      swap3\n      dup3\n      tag_209\n      jumpi\n      0x00\n      dup6\n      sstore\n      jump(tag_208)\n    tag_209:\n      dup3\n      0x1f\n      lt\n      tag_210\n      jumpi\n      dup1\n      mload\n      not(0xff)\n      and\n      dup4\n      dup1\n      add\n      or\n      dup6\n      sstore\n      jump(tag_208)\n    tag_210:\n      dup3\n      dup1\n      add\n      0x01\n      add\n      dup6\n      sstore\n      dup3\n      iszero\n      tag_208\n      jumpi\n      swap2\n      dup3\n      add\n    tag_211:\n      dup3\n      dup2\n      gt\n      iszero\n      tag_212\n      jumpi\n      dup3\n      mload\n      dup3\n      sstore\n      swap2\n      0x20\n      add\n      swap2\n      swap1\n      0x01\n      add\n      swap1\n      jump(tag_211)\n    tag_212:\n    tag_208:\n      pop\n      swap1\n      pop\n      tag_213\n      swap2\n      swap1\n      tag_214\n      jump\t// in\n    tag_213:\n      pop\n      swap1\n      jump\t// out\n    tag_214:\n    tag_215:\n      dup1\n      dup3\n      gt\n      iszero\n      tag_216\n      jumpi\n      0x00\n      dup2\n      0x00\n      swap1\n      sstore\n      pop\n      0x01\n      add\n      jump(tag_215)\n    tag_216:\n      pop\n      swap1\n      jump\t// out\n        /* \"#utility.yul\":7:419   */\n    tag_218:\n        /* \"#utility.yul\":85:90   */\n      0x00\n        /* \"#utility.yul\":110:176   */\n      tag_220\n        /* \"#utility.yul\":126:175   */\n      tag_221\n        /* \"#utility.yul\":168:174   */\n      dup5\n        /* \"#utility.yul\":126:175   */\n      tag_222\n      jump\t// in\n    tag_221:\n        /* \"#utility.yul\":110:176   */\n      tag_223\n      jump\t// in\n    tag_220:\n        /* \"#utility.yul\":101:176   */\n      swap1\n      pop\n        /* \"#utility.yul\":199:205   */\n      dup3\n        /* \"#utility.yul\":192:197   */\n      dup2\n        /* \"#utility.yul\":185:206   */\n      mstore\n        /* \"#utility.yul\":237:241   */\n      0x20\n        /* \"#utility.yul\":230:235   */\n      dup2\n        /* \"#utility.yul\":226:242   */\n      add\n        /* \"#utility.yul\":275:278   */\n      dup5\n        /* \"#utility.yul\":266:272   */\n      dup5\n        /* \"#utility.yul\":261:264   */\n      dup5\n        /* \"#utility.yul\":257:273   */\n      add\n        /* \"#utility.yul\":254:279   */\n      gt\n        /* \"#utility.yul\":251:363   */\n      iszero\n      tag_224\n      jumpi\n        /* \"#utility.yul\":282:361   */\n      tag_225\n      tag_226\n      jump\t// in\n    tag_225:\n        /* \"#utility.yul\":251:363   */\n    tag_224:\n        /* \"#utility.yul\":372:413   */\n      tag_227\n        /* \"#utility.yul\":406:412   */\n      dup5\n        /* \"#utility.yul\":401:404   */\n      dup3\n        /* \"#utility.yul\":396:399   */\n      dup6\n        /* \"#utility.yul\":372:413   */\n      tag_228\n      jump\t// in\n    tag_227:\n        /* \"#utility.yul\":91:419   */\n      pop\n        /* \"#utility.yul\":7:419   */\n      swap4\n      swap3\n      pop\n      pop\n      pop\n      jump\t// out\n        /* \"#utility.yul\":425:564   */\n    tag_229:\n        /* \"#utility.yul\":471:476   */\n      0x00\n        /* \"#utility.yul\":509:515   */\n      dup2\n        /* \"#utility.yul\":496:516   */\n      calldataload\n        /* \"#utility.yul\":487:516   */\n      swap1\n      pop\n        /* \"#utility.yul\":525:558   */\n      tag_231\n        /* \"#utility.yul\":552:557   */\n      dup2\n        /* \"#utility.yul\":525:558   */\n      tag_232\n      jump\t// in\n    tag_231:\n        /* \"#utility.yul\":425:564   */\n      swap3\n      swap2\n      pop\n      pop\n      jump\t// out\n        /* \"#utility.yul\":570:725   */\n    tag_233:\n        /* \"#utility.yul\":624:629   */\n      0x00\n        /* \"#utility.yul\":662:668   */\n      dup2\n        /* \"#utility.yul\":649:669   */\n      calldataload\n        /* \"#utility.yul\":640:669   */\n      swap1\n      pop\n        /* \"#utility.yul\":678:719   */\n      tag_235\n        /* \"#utility.yul\":713:718   */\n      dup2\n        /* \"#utility.yul\":678:719   */\n      tag_236\n      jump\t// in\n    tag_235:\n        /* \"#utility.yul\":570:725   */\n      swap3\n      swap2\n      pop\n      pop\n      jump\t// out\n        /* \"#utility.yul\":731:870   */\n    tag_237:\n        /* \"#utility.yul\":777:782   */\n      0x00\n        /* \"#utility.yul\":815:821   */\n      dup2\n        /* \"#utility.yul\":802:822   */\n      calldataload\n        /* \"#utility.yul\":793:822   */\n      swap1\n      pop\n        /* \"#utility.yul\":831:864   */\n      tag_239\n        /* \"#utility.yul\":858:863   */\n      dup2\n        /* \"#utility.yul\":831:864   */\n      tag_240\n      jump\t// in\n    tag_239:\n        /* \"#utility.yul\":731:870   */\n      swap3\n      swap2\n      pop\n      pop\n      jump\t// out\n        /* \"#utility.yul\":876:1013   */\n    tag_241:\n        /* \"#utility.yul\":921:926   */\n      0x00\n        /* \"#utility.yul\":959:965   */\n      dup2\n        /* \"#utility.yul\":946:966   */\n      calldataload\n        /* \"#utility.yul\":937:966   */\n      swap1\n      pop\n        /* \"#utility.yul\":975:1007   */\n      tag_243\n        /* \"#utility.yul\":1001:1006   */\n      dup2\n        /* \"#utility.yul\":975:1007   */\n      tag_244\n      jump\t// in\n    tag_243:\n        /* \"#utility.yul\":876:1013   */\n      swap3\n      swap2\n      pop\n      pop\n      jump\t// out\n        /* \"#utility.yul\":1033:1373   */\n    tag_245:\n        /* \"#utility.yul\":1089:1094   */\n      0x00\n        /* \"#utility.yul\":1138:1141   */\n      dup3\n        /* \"#utility.yul\":1131:1135   */\n      0x1f\n        /* \"#utility.yul\":1123:1129   */\n      dup4\n        /* \"#utility.yul\":1119:1136   */\n      add\n        /* \"#utility.yul\":1115:1142   */\n      slt\n        /* \"#utility.yul\":1105:1227   */\n      tag_247\n      jumpi\n        /* \"#utility.yul\":1146:1225   */\n      tag_248\n      tag_249\n      jump\t// in\n    tag_248:\n        /* \"#utility.yul\":1105:1227   */\n    tag_247:\n        /* \"#utility.yul\":1263:1269   */\n      dup2\n        /* \"#utility.yul\":1250:1270   */\n      calldataload\n        /* \"#utility.yul\":1288:1367   */\n      tag_250\n        /* \"#utility.yul\":1363:1366   */\n      dup5\n        /* \"#utility.yul\":1355:1361   */\n      dup3\n        /* \"#utility.yul\":1348:1352   */\n      0x20\n        /* \"#utility.yul\":1340:1346   */\n      dup7\n        /* \"#utility.yul\":1336:1353   */\n      add\n        /* \"#utility.yul\":1288:1367   */\n      tag_218\n      jump\t// in\n    tag_250:\n        /* \"#utility.yul\":1279:1367   */\n      swap2\n      pop\n        /* \"#utility.yul\":1095:1373   */\n      pop\n        /* \"#utility.yul\":1033:1373   */\n      swap3\n      swap2\n      pop\n      pop\n      jump\t// out\n        /* \"#utility.yul\":1379:1518   */\n    tag_251:\n        /* \"#utility.yul\":1425:1430   */\n      0x00\n        /* \"#utility.yul\":1463:1469   */\n      dup2\n        /* \"#utility.yul\":1450:1470   */\n      calldataload\n        /* \"#utility.yul\":1441:1470   */\n      swap1\n      pop\n        /* \"#utility.yul\":1479:1512   */\n      tag_253\n        /* \"#utility.yul\":1506:1511   */\n      dup2\n        /* \"#utility.yul\":1479:1512   */\n      tag_254\n      jump\t// in\n    tag_253:\n        /* \"#utility.yul\":1379:1518   */\n      swap3\n      swap2\n      pop\n      pop\n      jump\t// out\n        /* \"#utility.yul\":1524:1659   */\n    tag_255:\n        /* \"#utility.yul\":1568:1573   */\n      0x00\n        /* \"#utility.yul\":1606:1612   */\n      dup2\n        /* \"#utility.yul\":1593:1613   */\n      calldataload\n        /* \"#utility.yul\":1584:1613   */\n      swap1\n      pop\n        /* \"#utility.yul\":1622:1653   */\n      tag_257\n        /* \"#utility.yul\":1647:1652   */\n      dup2\n        /* \"#utility.yul\":1622:1653   */\n      tag_258\n      jump\t// in\n    tag_257:\n        /* \"#utility.yul\":1524:1659   */\n      swap3\n      swap2\n      pop\n      pop\n      jump\t// out\n        /* \"#utility.yul\":1665:1994   */\n    tag_27:\n        /* \"#utility.yul\":1724:1730   */\n      0x00\n        /* \"#utility.yul\":1773:1775   */\n      0x20\n        /* \"#utility.yul\":1761:1770   */\n      dup3\n        /* \"#utility.yul\":1752:1759   */\n      dup5\n        /* \"#utility.yul\":1748:1771   */\n      sub\n        /* \"#utility.yul\":1744:1776   */\n      slt\n        /* \"#utility.yul\":1741:1860   */\n      iszero\n      tag_260\n      jumpi\n        /* \"#utility.yul\":1779:1858   */\n      tag_261\n      tag_262\n      jump\t// in\n    tag_261:\n        /* \"#utility.yul\":1741:1860   */\n    tag_260:\n        /* \"#utility.yul\":1899:1900   */\n      0x00\n        /* \"#utility.yul\":1924:1977   */\n      tag_263\n        /* \"#utility.yul\":1969:1976   */\n      dup5\n        /* \"#utility.yul\":1960:1966   */\n      dup3\n        /* \"#utility.yul\":1949:1958   */\n      dup6\n        /* \"#utility.yul\":1945:1967   */\n      add\n        /* \"#utility.yul\":1924:1977   */\n      tag_237\n      jump\t// in\n    tag_263:\n        /* \"#utility.yul\":1914:1977   */\n      swap2\n      pop\n        /* \"#utility.yul\":1870:1987   */\n      pop\n        /* \"#utility.yul\":1665:1994   */\n      swap3\n      swap2\n      pop\n      pop\n      jump\t// out\n        /* \"#utility.yul\":2000:2474   */\n    tag_34:\n        /* \"#utility.yul\":2068:2074   */\n      0x00\n        /* \"#utility.yul\":2076:2082   */\n      dup1\n        /* \"#utility.yul\":2125:2127   */\n      0x40\n        /* \"#utility.yul\":2113:2122   */\n      dup4\n        /* \"#utility.yul\":2104:2111   */\n      dup6\n        /* \"#utility.yul\":2100:2123   */\n      sub\n        /* \"#utility.yul\":2096:2128   */\n      slt\n        /* \"#utility.yul\":2093:2212   */\n      iszero\n      tag_265\n      jumpi\n        /* \"#utility.yul\":2131:2210   */\n      tag_266\n      tag_262\n      jump\t// in\n    tag_266:\n        /* \"#utility.yul\":2093:2212   */\n    tag_265:\n        /* \"#utility.yul\":2251:2252   */\n      0x00\n        /* \"#utility.yul\":2276:2329   */\n      tag_267\n        /* \"#utility.yul\":2321:2328   */\n      dup6\n        /* \"#utility.yul\":2312:2318   */\n      dup3\n        /* \"#utility.yul\":2301:2310   */\n      dup7\n        /* \"#utility.yul\":2297:2319   */\n      add\n        /* \"#utility.yul\":2276:2329   */\n      tag_237\n      jump\t// in\n    tag_267:\n        /* \"#utility.yul\":2266:2329   */\n      swap3\n      pop\n        /* \"#utility.yul\":2222:2339   */\n      pop\n        /* \"#utility.yul\":2378:2380   */\n      0x20\n        /* \"#utility.yul\":2404:2457   */\n      tag_268\n        /* \"#utility.yul\":2449:2456   */\n      dup6\n        /* \"#utility.yul\":2440:2446   */\n      dup3\n        /* \"#utility.yul\":2429:2438   */\n      dup7\n        /* \"#utility.yul\":2425:2447   */\n      add\n        /* \"#utility.yul\":2404:2457   */\n      tag_229\n      jump\t// in\n    tag_268:\n        /* \"#utility.yul\":2394:2457   */\n      swap2\n      pop\n        /* \"#utility.yul\":2349:2467   */\n      pop\n        /* \"#utility.yul\":2000:2474   */\n      swap3\n      pop\n      swap3\n      swap1\n      pop\n      jump\t// out\n        /* \"#utility.yul\":2480:2807   */\n    tag_20:\n        /* \"#utility.yul\":2538:2544   */\n      0x00\n        /* \"#utility.yul\":2587:2589   */\n      0x20\n        /* \"#utility.yul\":2575:2584   */\n      dup3\n        /* \"#utility.yul\":2566:2573   */\n      dup5\n        /* \"#utility.yul\":2562:2585   */\n      sub\n        /* \"#utility.yul\":2558:2590   */\n      slt\n        /* \"#utility.yul\":2555:2674   */\n      iszero\n      tag_270\n      jumpi\n        /* \"#utility.yul\":2593:2672   */\n      tag_271\n      tag_262\n      jump\t// in\n    tag_271:\n        /* \"#utility.yul\":2555:2674   */\n    tag_270:\n        /* \"#utility.yul\":2713:2714   */\n      0x00\n        /* \"#utility.yul\":2738:2790   */\n      tag_272\n        /* \"#utility.yul\":2782:2789   */\n      dup5\n        /* \"#utility.yul\":2773:2779   */\n      dup3\n        /* \"#utility.yul\":2762:2771   */\n      dup6\n        /* \"#utility.yul\":2758:2780   */\n      add\n        /* \"#utility.yul\":2738:2790   */\n      tag_241\n      jump\t// in\n    tag_272:\n        /* \"#utility.yul\":2728:2790   */\n      swap2\n      pop\n        /* \"#utility.yul\":2684:2800   */\n      pop\n        /* \"#utility.yul\":2480:2807   */\n      swap3\n      swap2\n      pop\n      pop\n      jump\t// out\n        /* \"#utility.yul\":2813:4422   */\n    tag_67:\n        /* \"#utility.yul\":2953:2959   */\n      0x00\n        /* \"#utility.yul\":2961:2967   */\n      dup1\n        /* \"#utility.yul\":2969:2975   */\n      0x00\n        /* \"#utility.yul\":2977:2983   */\n      dup1\n        /* \"#utility.yul\":2985:2991   */\n      0x00\n        /* \"#utility.yul\":2993:2999   */\n      dup1\n        /* \"#utility.yul\":3042:3045   */\n      0xc0\n        /* \"#utility.yul\":3030:3039   */\n      dup8\n        /* \"#utility.yul\":3021:3028   */\n      dup10\n        /* \"#utility.yul\":3017:3040   */\n      sub\n        /* \"#utility.yul\":3013:3046   */\n      slt\n        /* \"#utility.yul\":3010:3130   */\n      iszero\n      tag_274\n      jumpi\n        /* \"#utility.yul\":3049:3128   */\n      tag_275\n      tag_262\n      jump\t// in\n    tag_275:\n        /* \"#utility.yul\":3010:3130   */\n    tag_274:\n        /* \"#utility.yul\":3197:3198   */\n      0x00\n        /* \"#utility.yul\":3186:3195   */\n      dup8\n        /* \"#utility.yul\":3182:3199   */\n      add\n        /* \"#utility.yul\":3169:3200   */\n      calldataload\n        /* \"#utility.yul\":3227:3245   */\n      0xffffffffffffffff\n        /* \"#utility.yul\":3219:3225   */\n      dup2\n        /* \"#utility.yul\":3216:3246   */\n      gt\n        /* \"#utility.yul\":3213:3330   */\n      iszero\n      tag_276\n      jumpi\n        /* \"#utility.yul\":3249:3328   */\n      tag_277\n      tag_278\n      jump\t// in\n    tag_277:\n        /* \"#utility.yul\":3213:3330   */\n    tag_276:\n        /* \"#utility.yul\":3354:3417   */\n      tag_279\n        /* \"#utility.yul\":3409:3416   */\n      dup10\n        /* \"#utility.yul\":3400:3406   */\n      dup3\n        /* \"#utility.yul\":3389:3398   */\n      dup11\n        /* \"#utility.yul\":3385:3407   */\n      add\n        /* \"#utility.yul\":3354:3417   */\n      tag_245\n      jump\t// in\n    tag_279:\n        /* \"#utility.yul\":3344:3417   */\n      swap7\n      pop\n        /* \"#utility.yul\":3140:3427   */\n      pop\n        /* \"#utility.yul\":3494:3496   */\n      0x20\n        /* \"#utility.yul\":3483:3492   */\n      dup8\n        /* \"#utility.yul\":3479:3497   */\n      add\n        /* \"#utility.yul\":3466:3498   */\n      calldataload\n        /* \"#utility.yul\":3525:3543   */\n      0xffffffffffffffff\n        /* \"#utility.yul\":3517:3523   */\n      dup2\n        /* \"#utility.yul\":3514:3544   */\n      gt\n        /* \"#utility.yul\":3511:3628   */\n      iszero\n      tag_280\n      jumpi\n        /* \"#utility.yul\":3547:3626   */\n      tag_281\n      tag_278\n      jump\t// in\n    tag_281:\n        /* \"#utility.yul\":3511:3628   */\n    tag_280:\n        /* \"#utility.yul\":3652:3715   */\n      tag_282\n        /* \"#utility.yul\":3707:3714   */\n      dup10\n        /* \"#utility.yul\":3698:3704   */\n      dup3\n        /* \"#utility.yul\":3687:3696   */\n      dup11\n        /* \"#utility.yul\":3683:3705   */\n      add\n        /* \"#utility.yul\":3652:3715   */\n      tag_245\n      jump\t// in\n    tag_282:\n        /* \"#utility.yul\":3642:3715   */\n      swap6\n      pop\n        /* \"#utility.yul\":3437:3725   */\n      pop\n        /* \"#utility.yul\":3764:3766   */\n      0x40\n        /* \"#utility.yul\":3790:3851   */\n      tag_283\n        /* \"#utility.yul\":3843:3850   */\n      dup10\n        /* \"#utility.yul\":3834:3840   */\n      dup3\n        /* \"#utility.yul\":3823:3832   */\n      dup11\n        /* \"#utility.yul\":3819:3841   */\n      add\n        /* \"#utility.yul\":3790:3851   */\n      tag_233\n      jump\t// in\n    tag_283:\n        /* \"#utility.yul\":3780:3851   */\n      swap5\n      pop\n        /* \"#utility.yul\":3735:3861   */\n      pop\n        /* \"#utility.yul\":3900:3902   */\n      0x60\n        /* \"#utility.yul\":3926:3979   */\n      tag_284\n        /* \"#utility.yul\":3971:3978   */\n      dup10\n        /* \"#utility.yul\":3962:3968   */\n      dup3\n        /* \"#utility.yul\":3951:3960   */\n      dup11\n        /* \"#utility.yul\":3947:3969   */\n      add\n        /* \"#utility.yul\":3926:3979   */\n      tag_251\n      jump\t// in\n    tag_284:\n        /* \"#utility.yul\":3916:3979   */\n      swap4\n      pop\n        /* \"#utility.yul\":3871:3989   */\n      pop\n        /* \"#utility.yul\":4056:4059   */\n      0x80\n        /* \"#utility.yul\":4045:4054   */\n      dup8\n        /* \"#utility.yul\":4041:4060   */\n      add\n        /* \"#utility.yul\":4028:4061   */\n      calldataload\n        /* \"#utility.yul\":4088:4106   */\n      0xffffffffffffffff\n        /* \"#utility.yul\":4080:4086   */\n      dup2\n        /* \"#utility.yul\":4077:4107   */\n      gt\n        /* \"#utility.yul\":4074:4191   */\n      iszero\n      tag_285\n      jumpi\n        /* \"#utility.yul\":4110:4189   */\n      tag_286\n      tag_278\n      jump\t// in\n    tag_286:\n        /* \"#utility.yul\":4074:4191   */\n    tag_285:\n        /* \"#utility.yul\":4215:4278   */\n      tag_287\n        /* \"#utility.yul\":4270:4277   */\n      dup10\n        /* \"#utility.yul\":4261:4267   */\n      dup3\n        /* \"#utility.yul\":4250:4259   */\n      dup11\n        /* \"#utility.yul\":4246:4268   */\n      add\n        /* \"#utility.yul\":4215:4278   */\n      tag_245\n      jump\t// in\n    tag_287:\n        /* \"#utility.yul\":4205:4278   */\n      swap3\n      pop\n        /* \"#utility.yul\":3999:4288   */\n      pop\n        /* \"#utility.yul\":4327:4330   */\n      0xa0\n        /* \"#utility.yul\":4354:4405   */\n      tag_288\n        /* \"#utility.yul\":4397:4404   */\n      dup10\n        /* \"#utility.yul\":4388:4394   */\n      dup3\n        /* \"#utility.yul\":4377:4386   */\n      dup11\n        /* \"#utility.yul\":4373:4395   */\n      add\n        /* \"#utility.yul\":4354:4405   */\n      tag_255\n      jump\t// in\n    tag_288:\n        /* \"#utility.yul\":4344:4405   */\n      swap2\n      pop\n        /* \"#utility.yul\":4298:4415   */\n      pop\n        /* \"#utility.yul\":2813:4422   */\n      swap3\n      swap6\n      pop\n      swap3\n      swap6\n      pop\n      swap3\n      swap6\n      jump\t// out\n        /* \"#utility.yul\":4428:4757   */\n    tag_38:\n        /* \"#utility.yul\":4487:4493   */\n      0x00\n        /* \"#utility.yul\":4536:4538   */\n      0x20\n        /* \"#utility.yul\":4524:4533   */\n      dup3\n        /* \"#utility.yul\":4515:4522   */\n      dup5\n        /* \"#utility.yul\":4511:4534   */\n      sub\n        /* \"#utility.yul\":4507:4539   */\n      slt\n        /* \"#utility.yul\":4504:4623   */\n      iszero\n      tag_290\n      jumpi\n        /* \"#utility.yul\":4542:4621   */\n      tag_291\n      tag_262\n      jump\t// in\n    tag_291:\n        /* \"#utility.yul\":4504:4623   */\n    tag_290:\n        /* \"#utility.yul\":4662:4663   */\n      0x00\n        /* \"#utility.yul\":4687:4740   */\n      tag_292\n        /* \"#utility.yul\":4732:4739   */\n      dup5\n        /* \"#utility.yul\":4723:4729   */\n      dup3\n        /* \"#utility.yul\":4712:4721   */\n      dup6\n        /* \"#utility.yul\":4708:4730   */\n      add\n        /* \"#utility.yul\":4687:4740   */\n      tag_251\n      jump\t// in\n    tag_292:\n        /* \"#utility.yul\":4677:4740   */\n      swap2\n      pop\n        /* \"#utility.yul\":4633:4750   */\n      pop\n        /* \"#utility.yul\":4428:4757   */\n      swap3\n      swap2\n      pop\n      pop\n      jump\t// out\n        /* \"#utility.yul\":4763:4905   */\n    tag_293:\n        /* \"#utility.yul\":4866:4898   */\n      tag_295\n        /* \"#utility.yul\":4892:4897   */\n      dup2\n        /* \"#utility.yul\":4866:4898   */\n      tag_296\n      jump\t// in\n    tag_295:\n        /* \"#utility.yul\":4861:4864   */\n      dup3\n        /* \"#utility.yul\":4854:4899   */\n      mstore\n        /* \"#utility.yul\":4763:4905   */\n      pop\n      pop\n      jump\t// out\n        /* \"#utility.yul\":4911:5020   */\n    tag_297:\n        /* \"#utility.yul\":4992:5013   */\n      tag_299\n        /* \"#utility.yul\":5007:5012   */\n      dup2\n        /* \"#utility.yul\":4992:5013   */\n      tag_300\n      jump\t// in\n    tag_299:\n        /* \"#utility.yul\":4987:4990   */\n      dup3\n        /* \"#utility.yul\":4980:5014   */\n      mstore\n        /* \"#utility.yul\":4911:5020   */\n      pop\n      pop\n      jump\t// out\n        /* \"#utility.yul\":5026:5144   */\n    tag_301:\n        /* \"#utility.yul\":5113:5137   */\n      tag_303\n        /* \"#utility.yul\":5131:5136   */\n      dup2\n        /* \"#utility.yul\":5113:5137   */\n      tag_304\n      jump\t// in\n    tag_303:\n        /* \"#utility.yul\":5108:5111   */\n      dup3\n        /* \"#utility.yul\":5101:5138   */\n      mstore\n        /* \"#utility.yul\":5026:5144   */\n      pop\n      pop\n      jump\t// out\n        /* \"#utility.yul\":5150:5514   */\n    tag_305:\n        /* \"#utility.yul\":5238:5241   */\n      0x00\n        /* \"#utility.yul\":5266:5305   */\n      tag_307\n        /* \"#utility.yul\":5299:5304   */\n      dup3\n        /* \"#utility.yul\":5266:5305   */\n      tag_308\n      jump\t// in\n    tag_307:\n        /* \"#utility.yul\":5321:5392   */\n      tag_309\n        /* \"#utility.yul\":5385:5391   */\n      dup2\n        /* \"#utility.yul\":5380:5383   */\n      dup6\n        /* \"#utility.yul\":5321:5392   */\n      tag_310\n      jump\t// in\n    tag_309:\n        /* \"#utility.yul\":5314:5392   */\n      swap4\n      pop\n        /* \"#utility.yul\":5401:5453   */\n      tag_311\n        /* \"#utility.yul\":5446:5452   */\n      dup2\n        /* \"#utility.yul\":5441:5444   */\n      dup6\n        /* \"#utility.yul\":5434:5438   */\n      0x20\n        /* \"#utility.yul\":5427:5432   */\n      dup7\n        /* \"#utility.yul\":5423:5439   */\n      add\n        /* \"#utility.yul\":5401:5453   */\n      tag_312\n      jump\t// in\n    tag_311:\n        /* \"#utility.yul\":5478:5507   */\n      tag_313\n        /* \"#utility.yul\":5500:5506   */\n      dup2\n        /* \"#utility.yul\":5478:5507   */\n      tag_314\n      jump\t// in\n    tag_313:\n        /* \"#utility.yul\":5473:5476   */\n      dup5\n        /* \"#utility.yul\":5469:5508   */\n      add\n        /* \"#utility.yul\":5462:5508   */\n      swap2\n      pop\n        /* \"#utility.yul\":5242:5514   */\n      pop\n        /* \"#utility.yul\":5150:5514   */\n      swap3\n      swap2\n      pop\n      pop\n      jump\t// out\n        /* \"#utility.yul\":5520:5897   */\n    tag_315:\n        /* \"#utility.yul\":5626:5629   */\n      0x00\n        /* \"#utility.yul\":5654:5693   */\n      tag_317\n        /* \"#utility.yul\":5687:5692   */\n      dup3\n        /* \"#utility.yul\":5654:5693   */\n      tag_308\n      jump\t// in\n    tag_317:\n        /* \"#utility.yul\":5709:5798   */\n      tag_318\n        /* \"#utility.yul\":5791:5797   */\n      dup2\n        /* \"#utility.yul\":5786:5789   */\n      dup6\n        /* \"#utility.yul\":5709:5798   */\n      tag_319\n      jump\t// in\n    tag_318:\n        /* \"#utility.yul\":5702:5798   */\n      swap4\n      pop\n        /* \"#utility.yul\":5807:5859   */\n      tag_320\n        /* \"#utility.yul\":5852:5858   */\n      dup2\n        /* \"#utility.yul\":5847:5850   */\n      dup6\n        /* \"#utility.yul\":5840:5844   */\n      0x20\n        /* \"#utility.yul\":5833:5838   */\n      dup7\n        /* \"#utility.yul\":5829:5845   */\n      add\n        /* \"#utility.yul\":5807:5859   */\n      tag_312\n      jump\t// in\n    tag_320:\n        /* \"#utility.yul\":5884:5890   */\n      dup1\n        /* \"#utility.yul\":5879:5882   */\n      dup5\n        /* \"#utility.yul\":5875:5891   */\n      add\n        /* \"#utility.yul\":5868:5891   */\n      swap2\n      pop\n        /* \"#utility.yul\":5630:5897   */\n      pop\n        /* \"#utility.yul\":5520:5897   */\n      swap3\n      swap2\n      pop\n      pop\n      jump\t// out\n        /* \"#utility.yul\":5903:6269   */\n    tag_321:\n        /* \"#utility.yul\":6045:6048   */\n      0x00\n        /* \"#utility.yul\":6066:6133   */\n      tag_323\n        /* \"#utility.yul\":6130:6132   */\n      0x20\n        /* \"#utility.yul\":6125:6128   */\n      dup4\n        /* \"#utility.yul\":6066:6133   */\n      tag_310\n      jump\t// in\n    tag_323:\n        /* \"#utility.yul\":6059:6133   */\n      swap2\n      pop\n        /* \"#utility.yul\":6142:6235   */\n      tag_324\n        /* \"#utility.yul\":6231:6234   */\n      dup3\n        /* \"#utility.yul\":6142:6235   */\n      tag_325\n      jump\t// in\n    tag_324:\n        /* \"#utility.yul\":6260:6262   */\n      0x20\n        /* \"#utility.yul\":6255:6258   */\n      dup3\n        /* \"#utility.yul\":6251:6263   */\n      add\n        /* \"#utility.yul\":6244:6263   */\n      swap1\n      pop\n        /* \"#utility.yul\":5903:6269   */\n      swap2\n      swap1\n      pop\n      jump\t// out\n        /* \"#utility.yul\":6275:6641   */\n    tag_326:\n        /* \"#utility.yul\":6417:6420   */\n      0x00\n        /* \"#utility.yul\":6438:6505   */\n      tag_328\n        /* \"#utility.yul\":6502:6504   */\n      0x14\n        /* \"#utility.yul\":6497:6500   */\n      dup4\n        /* \"#utility.yul\":6438:6505   */\n      tag_310\n      jump\t// in\n    tag_328:\n        /* \"#utility.yul\":6431:6505   */\n      swap2\n      pop\n        /* \"#utility.yul\":6514:6607   */\n      tag_329\n        /* \"#utility.yul\":6603:6606   */\n      dup3\n        /* \"#utility.yul\":6514:6607   */\n      tag_330\n      jump\t// in\n    tag_329:\n        /* \"#utility.yul\":6632:6634   */\n      0x20\n        /* \"#utility.yul\":6627:6630   */\n      dup3\n        /* \"#utility.yul\":6623:6635   */\n      add\n        /* \"#utility.yul\":6616:6635   */\n      swap1\n      pop\n        /* \"#utility.yul\":6275:6641   */\n      swap2\n      swap1\n      pop\n      jump\t// out\n        /* \"#utility.yul\":6647:7013   */\n    tag_331:\n        /* \"#utility.yul\":6789:6792   */\n      0x00\n        /* \"#utility.yul\":6810:6877   */\n      tag_333\n        /* \"#utility.yul\":6874:6876   */\n      0x14\n        /* \"#utility.yul\":6869:6872   */\n      dup4\n        /* \"#utility.yul\":6810:6877   */\n      tag_310\n      jump\t// in\n    tag_333:\n        /* \"#utility.yul\":6803:6877   */\n      swap2\n      pop\n        /* \"#utility.yul\":6886:6979   */\n      tag_334\n        /* \"#utility.yul\":6975:6978   */\n      dup3\n        /* \"#utility.yul\":6886:6979   */\n      tag_335\n      jump\t// in\n    tag_334:\n        /* \"#utility.yul\":7004:7006   */\n      0x20\n        /* \"#utility.yul\":6999:7002   */\n      dup3\n        /* \"#utility.yul\":6995:7007   */\n      add\n        /* \"#utility.yul\":6988:7007   */\n      swap1\n      pop\n        /* \"#utility.yul\":6647:7013   */\n      swap2\n      swap1\n      pop\n      jump\t// out\n        /* \"#utility.yul\":7019:7385   */\n    tag_336:\n        /* \"#utility.yul\":7161:7164   */\n      0x00\n        /* \"#utility.yul\":7182:7249   */\n      tag_338\n        /* \"#utility.yul\":7246:7248   */\n      0x28\n        /* \"#utility.yul\":7241:7244   */\n      dup4\n        /* \"#utility.yul\":7182:7249   */\n      tag_310\n      jump\t// in\n    tag_338:\n        /* \"#utility.yul\":7175:7249   */\n      swap2\n      pop\n        /* \"#utility.yul\":7258:7351   */\n      tag_339\n        /* \"#utility.yul\":7347:7350   */\n      dup3\n        /* \"#utility.yul\":7258:7351   */\n      tag_340\n      jump\t// in\n    tag_339:\n        /* \"#utility.yul\":7376:7378   */\n      0x40\n        /* \"#utility.yul\":7371:7374   */\n      dup3\n        /* \"#utility.yul\":7367:7379   */\n      add\n        /* \"#utility.yul\":7360:7379   */\n      swap1\n      pop\n        /* \"#utility.yul\":7019:7385   */\n      swap2\n      swap1\n      pop\n      jump\t// out\n        /* \"#utility.yul\":7391:7793   */\n    tag_341:\n        /* \"#utility.yul\":7551:7554   */\n      0x00\n        /* \"#utility.yul\":7572:7657   */\n      tag_343\n        /* \"#utility.yul\":7654:7656   */\n      0x17\n        /* \"#utility.yul\":7649:7652   */\n      dup4\n        /* \"#utility.yul\":7572:7657   */\n      tag_319\n      jump\t// in\n    tag_343:\n        /* \"#utility.yul\":7565:7657   */\n      swap2\n      pop\n        /* \"#utility.yul\":7666:7759   */\n      tag_344\n        /* \"#utility.yul\":7755:7758   */\n      dup3\n        /* \"#utility.yul\":7666:7759   */\n      tag_345\n      jump\t// in\n    tag_344:\n        /* \"#utility.yul\":7784:7786   */\n      0x17\n        /* \"#utility.yul\":7779:7782   */\n      dup3\n        /* \"#utility.yul\":7775:7787   */\n      add\n        /* \"#utility.yul\":7768:7787   */\n      swap1\n      pop\n        /* \"#utility.yul\":7391:7793   */\n      swap2\n      swap1\n      pop\n      jump\t// out\n        /* \"#utility.yul\":7799:8165   */\n    tag_346:\n        /* \"#utility.yul\":7941:7944   */\n      0x00\n        /* \"#utility.yul\":7962:8029   */\n      tag_348\n        /* \"#utility.yul\":8026:8028   */\n      0x11\n        /* \"#utility.yul\":8021:8024   */\n      dup4\n        /* \"#utility.yul\":7962:8029   */\n      tag_310\n      jump\t// in\n    tag_348:\n        /* \"#utility.yul\":7955:8029   */\n      swap2\n      pop\n        /* \"#utility.yul\":8038:8131   */\n      tag_349\n        /* \"#utility.yul\":8127:8130   */\n      dup3\n        /* \"#utility.yul\":8038:8131   */\n      tag_350\n      jump\t// in\n    tag_349:\n        /* \"#utility.yul\":8156:8158   */\n      0x20\n        /* \"#utility.yul\":8151:8154   */\n      dup3\n        /* \"#utility.yul\":8147:8159   */\n      add\n        /* \"#utility.yul\":8140:8159   */\n      swap1\n      pop\n        /* \"#utility.yul\":7799:8165   */\n      swap2\n      swap1\n      pop\n      jump\t// out\n        /* \"#utility.yul\":8171:8537   */\n    tag_351:\n        /* \"#utility.yul\":8313:8316   */\n      0x00\n        /* \"#utility.yul\":8334:8401   */\n      tag_353\n        /* \"#utility.yul\":8398:8400   */\n      0x1c\n        /* \"#utility.yul\":8393:8396   */\n      dup4\n        /* \"#utility.yul\":8334:8401   */\n      tag_310\n      jump\t// in\n    tag_353:\n        /* \"#utility.yul\":8327:8401   */\n      swap2\n      pop\n        /* \"#utility.yul\":8410:8503   */\n      tag_354\n        /* \"#utility.yul\":8499:8502   */\n      dup3\n        /* \"#utility.yul\":8410:8503   */\n      tag_355\n      jump\t// in\n    tag_354:\n        /* \"#utility.yul\":8528:8530   */\n      0x20\n        /* \"#utility.yul\":8523:8526   */\n      dup3\n        /* \"#utility.yul\":8519:8531   */\n      add\n        /* \"#utility.yul\":8512:8531   */\n      swap1\n      pop\n        /* \"#utility.yul\":8171:8537   */\n      swap2\n      swap1\n      pop\n      jump\t// out\n        /* \"#utility.yul\":8543:8945   */\n    tag_356:\n        /* \"#utility.yul\":8703:8706   */\n      0x00\n        /* \"#utility.yul\":8724:8809   */\n      tag_358\n        /* \"#utility.yul\":8806:8808   */\n      0x11\n        /* \"#utility.yul\":8801:8804   */\n      dup4\n        /* \"#utility.yul\":8724:8809   */\n      tag_319\n      jump\t// in\n    tag_358:\n        /* \"#utility.yul\":8717:8809   */\n      swap2\n      pop\n        /* \"#utility.yul\":8818:8911   */\n      tag_359\n        /* \"#utility.yul\":8907:8910   */\n      dup3\n        /* \"#utility.yul\":8818:8911   */\n      tag_360\n      jump\t// in\n    tag_359:\n        /* \"#utility.yul\":8936:8938   */\n      0x11\n        /* \"#utility.yul\":8931:8934   */\n      dup3\n        /* \"#utility.yul\":8927:8939   */\n      add\n        /* \"#utility.yul\":8920:8939   */\n      swap1\n      pop\n        /* \"#utility.yul\":8543:8945   */\n      swap2\n      swap1\n      pop\n      jump\t// out\n        /* \"#utility.yul\":8951:9317   */\n    tag_361:\n        /* \"#utility.yul\":9093:9096   */\n      0x00\n        /* \"#utility.yul\":9114:9181   */\n      tag_363\n        /* \"#utility.yul\":9178:9180   */\n      0x2f\n        /* \"#utility.yul\":9173:9176   */\n      dup4\n        /* \"#utility.yul\":9114:9181   */\n      tag_310\n      jump\t// in\n    tag_363:\n        /* \"#utility.yul\":9107:9181   */\n      swap2\n      pop\n        /* \"#utility.yul\":9190:9283   */\n      tag_364\n        /* \"#utility.yul\":9279:9282   */\n      dup3\n        /* \"#utility.yul\":9190:9283   */\n      tag_365\n      jump\t// in\n    tag_364:\n        /* \"#utility.yul\":9308:9310   */\n      0x40\n        /* \"#utility.yul\":9303:9306   */\n      dup3\n        /* \"#utility.yul\":9299:9311   */\n      add\n        /* \"#utility.yul\":9292:9311   */\n      swap1\n      pop\n        /* \"#utility.yul\":8951:9317   */\n      swap2\n      swap1\n      pop\n      jump\t// out\n        /* \"#utility.yul\":9323:9441   */\n    tag_366:\n        /* \"#utility.yul\":9410:9434   */\n      tag_368\n        /* \"#utility.yul\":9428:9433   */\n      dup2\n        /* \"#utility.yul\":9410:9434   */\n      tag_369\n      jump\t// in\n    tag_368:\n        /* \"#utility.yul\":9405:9408   */\n      dup3\n        /* \"#utility.yul\":9398:9435   */\n      mstore\n        /* \"#utility.yul\":9323:9441   */\n      pop\n      pop\n      jump\t// out\n        /* \"#utility.yul\":9447:9559   */\n    tag_370:\n        /* \"#utility.yul\":9530:9552   */\n      tag_372\n        /* \"#utility.yul\":9546:9551   */\n      dup2\n        /* \"#utility.yul\":9530:9552   */\n      tag_373\n      jump\t// in\n    tag_372:\n        /* \"#utility.yul\":9525:9528   */\n      dup3\n        /* \"#utility.yul\":9518:9553   */\n      mstore\n        /* \"#utility.yul\":9447:9559   */\n      pop\n      pop\n      jump\t// out\n        /* \"#utility.yul\":9565:10532   */\n    tag_168:\n        /* \"#utility.yul\":9947:9950   */\n      0x00\n        /* \"#utility.yul\":9969:10117   */\n      tag_375\n        /* \"#utility.yul\":10113:10116   */\n      dup3\n        /* \"#utility.yul\":9969:10117   */\n      tag_341\n      jump\t// in\n    tag_375:\n        /* \"#utility.yul\":9962:10117   */\n      swap2\n      pop\n        /* \"#utility.yul\":10134:10229   */\n      tag_376\n        /* \"#utility.yul\":10225:10228   */\n      dup3\n        /* \"#utility.yul\":10216:10222   */\n      dup6\n        /* \"#utility.yul\":10134:10229   */\n      tag_315\n      jump\t// in\n    tag_376:\n        /* \"#utility.yul\":10127:10229   */\n      swap2\n      pop\n        /* \"#utility.yul\":10246:10394   */\n      tag_377\n        /* \"#utility.yul\":10390:10393   */\n      dup3\n        /* \"#utility.yul\":10246:10394   */\n      tag_356\n      jump\t// in\n    tag_377:\n        /* \"#utility.yul\":10239:10394   */\n      swap2\n      pop\n        /* \"#utility.yul\":10411:10506   */\n      tag_378\n        /* \"#utility.yul\":10502:10505   */\n      dup3\n        /* \"#utility.yul\":10493:10499   */\n      dup5\n        /* \"#utility.yul\":10411:10506   */\n      tag_315\n      jump\t// in\n    tag_378:\n        /* \"#utility.yul\":10404:10506   */\n      swap2\n      pop\n        /* \"#utility.yul\":10523:10526   */\n      dup2\n        /* \"#utility.yul\":10516:10526   */\n      swap1\n      pop\n        /* \"#utility.yul\":9565:10532   */\n      swap4\n      swap3\n      pop\n      pop\n      pop\n      jump\t// out\n        /* \"#utility.yul\":10538:10748   */\n    tag_23:\n        /* \"#utility.yul\":10625:10629   */\n      0x00\n        /* \"#utility.yul\":10663:10665   */\n      0x20\n        /* \"#utility.yul\":10652:10661   */\n      dup3\n        /* \"#utility.yul\":10648:10666   */\n      add\n        /* \"#utility.yul\":10640:10666   */\n      swap1\n      pop\n        /* \"#utility.yul\":10676:10741   */\n      tag_380\n        /* \"#utility.yul\":10738:10739   */\n      0x00\n        /* \"#utility.yul\":10727:10736   */\n      dup4\n        /* \"#utility.yul\":10723:10740   */\n      add\n        /* \"#utility.yul\":10714:10720   */\n      dup5\n        /* \"#utility.yul\":10676:10741   */\n      tag_297\n      jump\t// in\n    tag_380:\n        /* \"#utility.yul\":10538:10748   */\n      swap3\n      swap2\n      pop\n      pop\n      jump\t// out\n        /* \"#utility.yul\":10754:10976   */\n    tag_30:\n        /* \"#utility.yul\":10847:10851   */\n      0x00\n        /* \"#utility.yul\":10885:10887   */\n      0x20\n        /* \"#utility.yul\":10874:10883   */\n      dup3\n        /* \"#utility.yul\":10870:10888   */\n      add\n        /* \"#utility.yul\":10862:10888   */\n      swap1\n      pop\n        /* \"#utility.yul\":10898:10969   */\n      tag_382\n        /* \"#utility.yul\":10966:10967   */\n      0x00\n        /* \"#utility.yul\":10955:10964   */\n      dup4\n        /* \"#utility.yul\":10951:10968   */\n      add\n        /* \"#utility.yul\":10942:10948   */\n      dup5\n        /* \"#utility.yul\":10898:10969   */\n      tag_301\n      jump\t// in\n    tag_382:\n        /* \"#utility.yul\":10754:10976   */\n      swap3\n      swap2\n      pop\n      pop\n      jump\t// out\n        /* \"#utility.yul\":10982:11295   */\n    tag_170:\n        /* \"#utility.yul\":11095:11099   */\n      0x00\n        /* \"#utility.yul\":11133:11135   */\n      0x20\n        /* \"#utility.yul\":11122:11131   */\n      dup3\n        /* \"#utility.yul\":11118:11136   */\n      add\n        /* \"#utility.yul\":11110:11136   */\n      swap1\n      pop\n        /* \"#utility.yul\":11182:11191   */\n      dup2\n        /* \"#utility.yul\":11176:11180   */\n      dup2\n        /* \"#utility.yul\":11172:11192   */\n      sub\n        /* \"#utility.yul\":11168:11169   */\n      0x00\n        /* \"#utility.yul\":11157:11166   */\n      dup4\n        /* \"#utility.yul\":11153:11170   */\n      add\n        /* \"#utility.yul\":11146:11193   */\n      mstore\n        /* \"#utility.yul\":11210:11288   */\n      tag_384\n        /* \"#utility.yul\":11283:11287   */\n      dup2\n        /* \"#utility.yul\":11274:11280   */\n      dup5\n        /* \"#utility.yul\":11210:11288   */\n      tag_305\n      jump\t// in\n    tag_384:\n        /* \"#utility.yul\":11202:11288   */\n      swap1\n      pop\n        /* \"#utility.yul\":10982:11295   */\n      swap3\n      swap2\n      pop\n      pop\n      jump\t// out\n        /* \"#utility.yul\":11301:11965   */\n    tag_78:\n        /* \"#utility.yul\":11508:11512   */\n      0x00\n        /* \"#utility.yul\":11546:11549   */\n      0x80\n        /* \"#utility.yul\":11535:11544   */\n      dup3\n        /* \"#utility.yul\":11531:11550   */\n      add\n        /* \"#utility.yul\":11523:11550   */\n      swap1\n      pop\n        /* \"#utility.yul\":11596:11605   */\n      dup2\n        /* \"#utility.yul\":11590:11594   */\n      dup2\n        /* \"#utility.yul\":11586:11606   */\n      sub\n        /* \"#utility.yul\":11582:11583   */\n      0x00\n        /* \"#utility.yul\":11571:11580   */\n      dup4\n        /* \"#utility.yul\":11567:11584   */\n      add\n        /* \"#utility.yul\":11560:11607   */\n      mstore\n        /* \"#utility.yul\":11624:11702   */\n      tag_386\n        /* \"#utility.yul\":11697:11701   */\n      dup2\n        /* \"#utility.yul\":11688:11694   */\n      dup8\n        /* \"#utility.yul\":11624:11702   */\n      tag_305\n      jump\t// in\n    tag_386:\n        /* \"#utility.yul\":11616:11702   */\n      swap1\n      pop\n        /* \"#utility.yul\":11712:11800   */\n      tag_387\n        /* \"#utility.yul\":11796:11798   */\n      0x20\n        /* \"#utility.yul\":11785:11794   */\n      dup4\n        /* \"#utility.yul\":11781:11799   */\n      add\n        /* \"#utility.yul\":11772:11778   */\n      dup7\n        /* \"#utility.yul\":11712:11800   */\n      tag_293\n      jump\t// in\n    tag_387:\n        /* \"#utility.yul\":11810:11882   */\n      tag_388\n        /* \"#utility.yul\":11878:11880   */\n      0x40\n        /* \"#utility.yul\":11867:11876   */\n      dup4\n        /* \"#utility.yul\":11863:11881   */\n      add\n        /* \"#utility.yul\":11854:11860   */\n      dup6\n        /* \"#utility.yul\":11810:11882   */\n      tag_366\n      jump\t// in\n    tag_388:\n        /* \"#utility.yul\":11892:11958   */\n      tag_389\n        /* \"#utility.yul\":11954:11956   */\n      0x60\n        /* \"#utility.yul\":11943:11952   */\n      dup4\n        /* \"#utility.yul\":11939:11957   */\n      add\n        /* \"#utility.yul\":11930:11936   */\n      dup5\n        /* \"#utility.yul\":11892:11958   */\n      tag_297\n      jump\t// in\n    tag_389:\n        /* \"#utility.yul\":11301:11965   */\n      swap6\n      swap5\n      pop\n      pop\n      pop\n      pop\n      pop\n      jump\t// out\n        /* \"#utility.yul\":11971:12690   */\n    tag_54:\n        /* \"#utility.yul\":12180:12184   */\n      0x00\n        /* \"#utility.yul\":12218:12221   */\n      0x80\n        /* \"#utility.yul\":12207:12216   */\n      dup3\n        /* \"#utility.yul\":12203:12222   */\n      add\n        /* \"#utility.yul\":12195:12222   */\n      swap1\n      pop\n        /* \"#utility.yul\":12268:12277   */\n      dup2\n        /* \"#utility.yul\":12262:12266   */\n      dup2\n        /* \"#utility.yul\":12258:12278   */\n      sub\n        /* \"#utility.yul\":12254:12255   */\n      0x00\n        /* \"#utility.yul\":12243:12252   */\n      dup4\n        /* \"#utility.yul\":12239:12256   */\n      add\n        /* \"#utility.yul\":12232:12279   */\n      mstore\n        /* \"#utility.yul\":12296:12374   */\n      tag_391\n        /* \"#utility.yul\":12369:12373   */\n      dup2\n        /* \"#utility.yul\":12360:12366   */\n      dup8\n        /* \"#utility.yul\":12296:12374   */\n      tag_305\n      jump\t// in\n    tag_391:\n        /* \"#utility.yul\":12288:12374   */\n      swap1\n      pop\n        /* \"#utility.yul\":12421:12430   */\n      dup2\n        /* \"#utility.yul\":12415:12419   */\n      dup2\n        /* \"#utility.yul\":12411:12431   */\n      sub\n        /* \"#utility.yul\":12406:12408   */\n      0x20\n        /* \"#utility.yul\":12395:12404   */\n      dup4\n        /* \"#utility.yul\":12391:12409   */\n      add\n        /* \"#utility.yul\":12384:12432   */\n      mstore\n        /* \"#utility.yul\":12449:12527   */\n      tag_392\n        /* \"#utility.yul\":12522:12526   */\n      dup2\n        /* \"#utility.yul\":12513:12519   */\n      dup7\n        /* \"#utility.yul\":12449:12527   */\n      tag_305\n      jump\t// in\n    tag_392:\n        /* \"#utility.yul\":12441:12527   */\n      swap1\n      pop\n        /* \"#utility.yul\":12537:12605   */\n      tag_393\n        /* \"#utility.yul\":12601:12603   */\n      0x40\n        /* \"#utility.yul\":12590:12599   */\n      dup4\n        /* \"#utility.yul\":12586:12604   */\n      add\n        /* \"#utility.yul\":12577:12583   */\n      dup6\n        /* \"#utility.yul\":12537:12605   */\n      tag_370\n      jump\t// in\n    tag_393:\n        /* \"#utility.yul\":12615:12683   */\n      tag_394\n        /* \"#utility.yul\":12679:12681   */\n      0x60\n        /* \"#utility.yul\":12668:12677   */\n      dup4\n        /* \"#utility.yul\":12664:12682   */\n      add\n        /* \"#utility.yul\":12655:12661   */\n      dup5\n        /* \"#utility.yul\":12615:12683   */\n      tag_370\n      jump\t// in\n    tag_394:\n        /* \"#utility.yul\":11971:12690   */\n      swap6\n      swap5\n      pop\n      pop\n      pop\n      pop\n      pop\n      jump\t// out\n        /* \"#utility.yul\":12696:13115   */\n    tag_206:\n        /* \"#utility.yul\":12862:12866   */\n      0x00\n        /* \"#utility.yul\":12900:12902   */\n      0x20\n        /* \"#utility.yul\":12889:12898   */\n      dup3\n        /* \"#utility.yul\":12885:12903   */\n      add\n        /* \"#utility.yul\":12877:12903   */\n      swap1\n      pop\n        /* \"#utility.yul\":12949:12958   */\n      dup2\n        /* \"#utility.yul\":12943:12947   */\n      dup2\n        /* \"#utility.yul\":12939:12959   */\n      sub\n        /* \"#utility.yul\":12935:12936   */\n      0x00\n        /* \"#utility.yul\":12924:12933   */\n      dup4\n        /* \"#utility.yul\":12920:12937   */\n      add\n        /* \"#utility.yul\":12913:12960   */\n      mstore\n        /* \"#utility.yul\":12977:13108   */\n      tag_396\n        /* \"#utility.yul\":13103:13107   */\n      dup2\n        /* \"#utility.yul\":12977:13108   */\n      tag_321\n      jump\t// in\n    tag_396:\n        /* \"#utility.yul\":12969:13108   */\n      swap1\n      pop\n        /* \"#utility.yul\":12696:13115   */\n      swap2\n      swap1\n      pop\n      jump\t// out\n        /* \"#utility.yul\":13121:13540   */\n    tag_103:\n        /* \"#utility.yul\":13287:13291   */\n      0x00\n        /* \"#utility.yul\":13325:13327   */\n      0x20\n        /* \"#utility.yul\":13314:13323   */\n      dup3\n        /* \"#utility.yul\":13310:13328   */\n      add\n        /* \"#utility.yul\":13302:13328   */\n      swap1\n      pop\n        /* \"#utility.yul\":13374:13383   */\n      dup2\n        /* \"#utility.yul\":13368:13372   */\n      dup2\n        /* \"#utility.yul\":13364:13384   */\n      sub\n        /* \"#utility.yul\":13360:13361   */\n      0x00\n        /* \"#utility.yul\":13349:13358   */\n      dup4\n        /* \"#utility.yul\":13345:13362   */\n      add\n        /* \"#utility.yul\":13338:13385   */\n      mstore\n        /* \"#utility.yul\":13402:13533   */\n      tag_398\n        /* \"#utility.yul\":13528:13532   */\n      dup2\n        /* \"#utility.yul\":13402:13533   */\n      tag_326\n      jump\t// in\n    tag_398:\n        /* \"#utility.yul\":13394:13533   */\n      swap1\n      pop\n        /* \"#utility.yul\":13121:13540   */\n      swap2\n      swap1\n      pop\n      jump\t// out\n        /* \"#utility.yul\":13546:13965   */\n    tag_100:\n        /* \"#utility.yul\":13712:13716   */\n      0x00\n        /* \"#utility.yul\":13750:13752   */\n      0x20\n        /* \"#utility.yul\":13739:13748   */\n      dup3\n        /* \"#utility.yul\":13735:13753   */\n      add\n        /* \"#utility.yul\":13727:13753   */\n      swap1\n      pop\n        /* \"#utility.yul\":13799:13808   */\n      dup2\n        /* \"#utility.yul\":13793:13797   */\n      dup2\n        /* \"#utility.yul\":13789:13809   */\n      sub\n        /* \"#utility.yul\":13785:13786   */\n      0x00\n        /* \"#utility.yul\":13774:13783   */\n      dup4\n        /* \"#utility.yul\":13770:13787   */\n      add\n        /* \"#utility.yul\":13763:13810   */\n      mstore\n        /* \"#utility.yul\":13827:13958   */\n      tag_400\n        /* \"#utility.yul\":13953:13957   */\n      dup2\n        /* \"#utility.yul\":13827:13958   */\n      tag_331\n      jump\t// in\n    tag_400:\n        /* \"#utility.yul\":13819:13958   */\n      swap1\n      pop\n        /* \"#utility.yul\":13546:13965   */\n      swap2\n      swap1\n      pop\n      jump\t// out\n        /* \"#utility.yul\":13971:14390   */\n    tag_134:\n        /* \"#utility.yul\":14137:14141   */\n      0x00\n        /* \"#utility.yul\":14175:14177   */\n      0x20\n        /* \"#utility.yul\":14164:14173   */\n      dup3\n        /* \"#utility.yul\":14160:14178   */\n      add\n        /* \"#utility.yul\":14152:14178   */\n      swap1\n      pop\n        /* \"#utility.yul\":14224:14233   */\n      dup2\n        /* \"#utility.yul\":14218:14222   */\n      dup2\n        /* \"#utility.yul\":14214:14234   */\n      sub\n        /* \"#utility.yul\":14210:14211   */\n      0x00\n        /* \"#utility.yul\":14199:14208   */\n      dup4\n        /* \"#utility.yul\":14195:14212   */\n      add\n        /* \"#utility.yul\":14188:14235   */\n      mstore\n        /* \"#utility.yul\":14252:14383   */\n      tag_402\n        /* \"#utility.yul\":14378:14382   */\n      dup2\n        /* \"#utility.yul\":14252:14383   */\n      tag_336\n      jump\t// in\n    tag_402:\n        /* \"#utility.yul\":14244:14383   */\n      swap1\n      pop\n        /* \"#utility.yul\":13971:14390   */\n      swap2\n      swap1\n      pop\n      jump\t// out\n        /* \"#utility.yul\":14396:14815   */\n    tag_140:\n        /* \"#utility.yul\":14562:14566   */\n      0x00\n        /* \"#utility.yul\":14600:14602   */\n      0x20\n        /* \"#utility.yul\":14589:14598   */\n      dup3\n        /* \"#utility.yul\":14585:14603   */\n      add\n        /* \"#utility.yul\":14577:14603   */\n      swap1\n      pop\n        /* \"#utility.yul\":14649:14658   */\n      dup2\n        /* \"#utility.yul\":14643:14647   */\n      dup2\n        /* \"#utility.yul\":14639:14659   */\n      sub\n        /* \"#utility.yul\":14635:14636   */\n      0x00\n        /* \"#utility.yul\":14624:14633   */\n      dup4\n        /* \"#utility.yul\":14620:14637   */\n      add\n        /* \"#utility.yul\":14613:14660   */\n      mstore\n        /* \"#utility.yul\":14677:14808   */\n      tag_404\n        /* \"#utility.yul\":14803:14807   */\n      dup2\n        /* \"#utility.yul\":14677:14808   */\n      tag_346\n      jump\t// in\n    tag_404:\n        /* \"#utility.yul\":14669:14808   */\n      swap1\n      pop\n        /* \"#utility.yul\":14396:14815   */\n      swap2\n      swap1\n      pop\n      jump\t// out\n        /* \"#utility.yul\":14821:15240   */\n    tag_137:\n        /* \"#utility.yul\":14987:14991   */\n      0x00\n        /* \"#utility.yul\":15025:15027   */\n      0x20\n        /* \"#utility.yul\":15014:15023   */\n      dup3\n        /* \"#utility.yul\":15010:15028   */\n      add\n        /* \"#utility.yul\":15002:15028   */\n      swap1\n      pop\n        /* \"#utility.yul\":15074:15083   */\n      dup2\n        /* \"#utility.yul\":15068:15072   */\n      dup2\n        /* \"#utility.yul\":15064:15084   */\n      sub\n        /* \"#utility.yul\":15060:15061   */\n      0x00\n        /* \"#utility.yul\":15049:15058   */\n      dup4\n        /* \"#utility.yul\":15045:15062   */\n      add\n        /* \"#utility.yul\":15038:15085   */\n      mstore\n        /* \"#utility.yul\":15102:15233   */\n      tag_406\n        /* \"#utility.yul\":15228:15232   */\n      dup2\n        /* \"#utility.yul\":15102:15233   */\n      tag_351\n      jump\t// in\n    tag_406:\n        /* \"#utility.yul\":15094:15233   */\n      swap1\n      pop\n        /* \"#utility.yul\":14821:15240   */\n      swap2\n      swap1\n      pop\n      jump\t// out\n        /* \"#utility.yul\":15246:15665   */\n    tag_110:\n        /* \"#utility.yul\":15412:15416   */\n      0x00\n        /* \"#utility.yul\":15450:15452   */\n      0x20\n        /* \"#utility.yul\":15439:15448   */\n      dup3\n        /* \"#utility.yul\":15435:15453   */\n      add\n        /* \"#utility.yul\":15427:15453   */\n      swap1\n      pop\n        /* \"#utility.yul\":15499:15508   */\n      dup2\n        /* \"#utility.yul\":15493:15497   */\n      dup2\n        /* \"#utility.yul\":15489:15509   */\n      sub\n        /* \"#utility.yul\":15485:15486   */\n      0x00\n        /* \"#utility.yul\":15474:15483   */\n      dup4\n        /* \"#utility.yul\":15470:15487   */\n      add\n        /* \"#utility.yul\":15463:15510   */\n      mstore\n        /* \"#utility.yul\":15527:15658   */\n      tag_408\n        /* \"#utility.yul\":15653:15657   */\n      dup2\n        /* \"#utility.yul\":15527:15658   */\n      tag_361\n      jump\t// in\n    tag_408:\n        /* \"#utility.yul\":15519:15658   */\n      swap1\n      pop\n        /* \"#utility.yul\":15246:15665   */\n      swap2\n      swap1\n      pop\n      jump\t// out\n        /* \"#utility.yul\":15671:15893   */\n    tag_48:\n        /* \"#utility.yul\":15764:15768   */\n      0x00\n        /* \"#utility.yul\":15802:15804   */\n      0x20\n        /* \"#utility.yul\":15791:15800   */\n      dup3\n        /* \"#utility.yul\":15787:15805   */\n      add\n        /* \"#utility.yul\":15779:15805   */\n      swap1\n      pop\n        /* \"#utility.yul\":15815:15886   */\n      tag_410\n        /* \"#utility.yul\":15883:15884   */\n      0x00\n        /* \"#utility.yul\":15872:15881   */\n      dup4\n        /* \"#utility.yul\":15868:15885   */\n      add\n        /* \"#utility.yul\":15859:15865   */\n      dup5\n        /* \"#utility.yul\":15815:15886   */\n      tag_366\n      jump\t// in\n    tag_410:\n        /* \"#utility.yul\":15671:15893   */\n      swap3\n      swap2\n      pop\n      pop\n      jump\t// out\n        /* \"#utility.yul\":15899:16028   */\n    tag_223:\n        /* \"#utility.yul\":15933:15939   */\n      0x00\n        /* \"#utility.yul\":15960:15980   */\n      tag_412\n      tag_413\n      jump\t// in\n    tag_412:\n        /* \"#utility.yul\":15950:15980   */\n      swap1\n      pop\n        /* \"#utility.yul\":15989:16022   */\n      tag_414\n        /* \"#utility.yul\":16017:16021   */\n      dup3\n        /* \"#utility.yul\":16009:16015   */\n      dup3\n        /* \"#utility.yul\":15989:16022   */\n      tag_415\n      jump\t// in\n    tag_414:\n        /* \"#utility.yul\":15899:16028   */\n      swap2\n      swap1\n      pop\n      jump\t// out\n        /* \"#utility.yul\":16034:16109   */\n    tag_413:\n        /* \"#utility.yul\":16067:16073   */\n      0x00\n        /* \"#utility.yul\":16100:16102   */\n      0x40\n        /* \"#utility.yul\":16094:16103   */\n      mload\n        /* \"#utility.yul\":16084:16103   */\n      swap1\n      pop\n        /* \"#utility.yul\":16034:16109   */\n      swap1\n      jump\t// out\n        /* \"#utility.yul\":16115:16423   */\n    tag_222:\n        /* \"#utility.yul\":16177:16181   */\n      0x00\n        /* \"#utility.yul\":16267:16285   */\n      0xffffffffffffffff\n        /* \"#utility.yul\":16259:16265   */\n      dup3\n        /* \"#utility.yul\":16256:16286   */\n      gt\n        /* \"#utility.yul\":16253:16309   */\n      iszero\n      tag_418\n      jumpi\n        /* \"#utility.yul\":16289:16307   */\n      tag_419\n      tag_186\n      jump\t// in\n    tag_419:\n        /* \"#utility.yul\":16253:16309   */\n    tag_418:\n        /* \"#utility.yul\":16327:16356   */\n      tag_420\n        /* \"#utility.yul\":16349:16355   */\n      dup3\n        /* \"#utility.yul\":16327:16356   */\n      tag_314\n      jump\t// in\n    tag_420:\n        /* \"#utility.yul\":16319:16356   */\n      swap1\n      pop\n        /* \"#utility.yul\":16411:16415   */\n      0x20\n        /* \"#utility.yul\":16405:16409   */\n      dup2\n        /* \"#utility.yul\":16401:16416   */\n      add\n        /* \"#utility.yul\":16393:16416   */\n      swap1\n      pop\n        /* \"#utility.yul\":16115:16423   */\n      swap2\n      swap1\n      pop\n      jump\t// out\n        /* \"#utility.yul\":16429:16528   */\n    tag_308:\n        /* \"#utility.yul\":16481:16487   */\n      0x00\n        /* \"#utility.yul\":16515:16520   */\n      dup2\n        /* \"#utility.yul\":16509:16521   */\n      mload\n        /* \"#utility.yul\":16499:16521   */\n      swap1\n      pop\n        /* \"#utility.yul\":16429:16528   */\n      swap2\n      swap1\n      pop\n      jump\t// out\n        /* \"#utility.yul\":16534:16703   */\n    tag_310:\n        /* \"#utility.yul\":16618:16629   */\n      0x00\n        /* \"#utility.yul\":16652:16658   */\n      dup3\n        /* \"#utility.yul\":16647:16650   */\n      dup3\n        /* \"#utility.yul\":16640:16659   */\n      mstore\n        /* \"#utility.yul\":16692:16696   */\n      0x20\n        /* \"#utility.yul\":16687:16690   */\n      dup3\n        /* \"#utility.yul\":16683:16697   */\n      add\n        /* \"#utility.yul\":16668:16697   */\n      swap1\n      pop\n        /* \"#utility.yul\":16534:16703   */\n      swap3\n      swap2\n      pop\n      pop\n      jump\t// out\n        /* \"#utility.yul\":16709:16857   */\n    tag_319:\n        /* \"#utility.yul\":16811:16822   */\n      0x00\n        /* \"#utility.yul\":16848:16851   */\n      dup2\n        /* \"#utility.yul\":16833:16851   */\n      swap1\n      pop\n        /* \"#utility.yul\":16709:16857   */\n      swap3\n      swap2\n      pop\n      pop\n      jump\t// out\n        /* \"#utility.yul\":16863:17168   */\n    tag_183:\n        /* \"#utility.yul\":16903:16906   */\n      0x00\n        /* \"#utility.yul\":16922:16942   */\n      tag_425\n        /* \"#utility.yul\":16940:16941   */\n      dup3\n        /* \"#utility.yul\":16922:16942   */\n      tag_369\n      jump\t// in\n    tag_425:\n        /* \"#utility.yul\":16917:16942   */\n      swap2\n      pop\n        /* \"#utility.yul\":16956:16976   */\n      tag_426\n        /* \"#utility.yul\":16974:16975   */\n      dup4\n        /* \"#utility.yul\":16956:16976   */\n      tag_369\n      jump\t// in\n    tag_426:\n        /* \"#utility.yul\":16951:16976   */\n      swap3\n      pop\n        /* \"#utility.yul\":17110:17111   */\n      dup3\n        /* \"#utility.yul\":17042:17108   */\n      0xffffffffffffffffffffffffffffffffffffffffffffffffffffffffffffffff\n        /* \"#utility.yul\":17038:17112   */\n      sub\n        /* \"#utility.yul\":17035:17036   */\n      dup3\n        /* \"#utility.yul\":17032:17113   */\n      gt\n        /* \"#utility.yul\":17029:17136   */\n      iszero\n      tag_427\n      jumpi\n        /* \"#utility.yul\":17116:17134   */\n      tag_428\n      tag_429\n      jump\t// in\n    tag_428:\n        /* \"#utility.yul\":17029:17136   */\n    tag_427:\n        /* \"#utility.yul\":17160:17161   */\n      dup3\n        /* \"#utility.yul\":17157:17158   */\n      dup3\n        /* \"#utility.yul\":17153:17162   */\n      add\n        /* \"#utility.yul\":17146:17162   */\n      swap1\n      pop\n        /* \"#utility.yul\":16863:17168   */\n      swap3\n      swap2\n      pop\n      pop\n      jump\t// out\n        /* \"#utility.yul\":17174:17522   */\n    tag_181:\n        /* \"#utility.yul\":17214:17221   */\n      0x00\n        /* \"#utility.yul\":17237:17257   */\n      tag_431\n        /* \"#utility.yul\":17255:17256   */\n      dup3\n        /* \"#utility.yul\":17237:17257   */\n      tag_369\n      jump\t// in\n    tag_431:\n        /* \"#utility.yul\":17232:17257   */\n      swap2\n      pop\n        /* \"#utility.yul\":17271:17291   */\n      tag_432\n        /* \"#utility.yul\":17289:17290   */\n      dup4\n        /* \"#utility.yul\":17271:17291   */\n      tag_369\n      jump\t// in\n    tag_432:\n        /* \"#utility.yul\":17266:17291   */\n      swap3\n      pop\n        /* \"#utility.yul\":17459:17460   */\n      dup2\n        /* \"#utility.yul\":17391:17457   */\n      0xffffffffffffffffffffffffffffffffffffffffffffffffffffffffffffffff\n        /* \"#utility.yul\":17387:17461   */\n      div\n        /* \"#utility.yul\":17384:17385   */\n      dup4\n        /* \"#utility.yul\":17381:17462   */\n      gt\n        /* \"#utility.yul\":17376:17377   */\n      dup3\n        /* \"#utility.yul\":17369:17378   */\n      iszero\n        /* \"#utility.yul\":17362:17379   */\n      iszero\n        /* \"#utility.yul\":17358:17463   */\n      and\n        /* \"#utility.yul\":17355:17486   */\n      iszero\n      tag_433\n      jumpi\n        /* \"#utility.yul\":17466:17484   */\n      tag_434\n      tag_429\n      jump\t// in\n    tag_434:\n        /* \"#utility.yul\":17355:17486   */\n    tag_433:\n        /* \"#utility.yul\":17514:17515   */\n      dup3\n        /* \"#utility.yul\":17511:17512   */\n      dup3\n        /* \"#utility.yul\":17507:17516   */\n      mul\n        /* \"#utility.yul\":17496:17516   */\n      swap1\n      pop\n        /* \"#utility.yul\":17174:17522   */\n      swap3\n      swap2\n      pop\n      pop\n      jump\t// out\n        /* \"#utility.yul\":17528:17624   */\n    tag_435:\n        /* \"#utility.yul\":17565:17572   */\n      0x00\n        /* \"#utility.yul\":17594:17618   */\n      tag_437\n        /* \"#utility.yul\":17612:17617   */\n      dup3\n        /* \"#utility.yul\":17594:17618   */\n      tag_438\n      jump\t// in\n    tag_437:\n        /* \"#utility.yul\":17583:17618   */\n      swap1\n      pop\n        /* \"#utility.yul\":17528:17624   */\n      swap2\n      swap1\n      pop\n      jump\t// out\n        /* \"#utility.yul\":17630:17734   */\n    tag_296:\n        /* \"#utility.yul\":17675:17682   */\n      0x00\n        /* \"#utility.yul\":17704:17728   */\n      tag_440\n        /* \"#utility.yul\":17722:17727   */\n      dup3\n        /* \"#utility.yul\":17704:17728   */\n      tag_438\n      jump\t// in\n    tag_440:\n        /* \"#utility.yul\":17693:17728   */\n      swap1\n      pop\n        /* \"#utility.yul\":17630:17734   */\n      swap2\n      swap1\n      pop\n      jump\t// out\n        /* \"#utility.yul\":17740:17830   */\n    tag_300:\n        /* \"#utility.yul\":17774:17781   */\n      0x00\n        /* \"#utility.yul\":17817:17822   */\n      dup2\n        /* \"#utility.yul\":17810:17823   */\n      iszero\n        /* \"#utility.yul\":17803:17824   */\n      iszero\n        /* \"#utility.yul\":17792:17824   */\n      swap1\n      pop\n        /* \"#utility.yul\":17740:17830   */\n      swap2\n      swap1\n      pop\n      jump\t// out\n        /* \"#utility.yul\":17836:17913   */\n    tag_304:\n        /* \"#utility.yul\":17873:17880   */\n      0x00\n        /* \"#utility.yul\":17902:17907   */\n      dup2\n        /* \"#utility.yul\":17891:17907   */\n      swap1\n      pop\n        /* \"#utility.yul\":17836:17913   */\n      swap2\n      swap1\n      pop\n      jump\t// out\n        /* \"#utility.yul\":17919:18068   */\n    tag_443:\n        /* \"#utility.yul\":17955:17962   */\n      0x00\n        /* \"#utility.yul\":17995:18061   */\n      0xffffffff00000000000000000000000000000000000000000000000000000000\n        /* \"#utility.yul\":17988:17993   */\n      dup3\n        /* \"#utility.yul\":17984:18062   */\n      and\n        /* \"#utility.yul\":17973:18062   */\n      swap1\n      pop\n        /* \"#utility.yul\":17919:18068   */\n      swap2\n      swap1\n      pop\n      jump\t// out\n        /* \"#utility.yul\":18074:18200   */\n    tag_438:\n        /* \"#utility.yul\":18111:18118   */\n      0x00\n        /* \"#utility.yul\":18151:18193   */\n      0xffffffffffffffffffffffffffffffffffffffff\n        /* \"#utility.yul\":18144:18149   */\n      dup3\n        /* \"#utility.yul\":18140:18194   */\n      and\n        /* \"#utility.yul\":18129:18194   */\n      swap1\n      pop\n        /* \"#utility.yul\":18074:18200   */\n      swap2\n      swap1\n      pop\n      jump\t// out\n        /* \"#utility.yul\":18206:18283   */\n    tag_369:\n        /* \"#utility.yul\":18243:18250   */\n      0x00\n        /* \"#utility.yul\":18272:18277   */\n      dup2\n        /* \"#utility.yul\":18261:18277   */\n      swap1\n      pop\n        /* \"#utility.yul\":18206:18283   */\n      swap2\n      swap1\n      pop\n      jump\t// out\n        /* \"#utility.yul\":18289:18375   */\n    tag_373:\n        /* \"#utility.yul\":18324:18331   */\n      0x00\n        /* \"#utility.yul\":18364:18368   */\n      0xff\n        /* \"#utility.yul\":18357:18362   */\n      dup3\n        /* \"#utility.yul\":18353:18369   */\n      and\n        /* \"#utility.yul\":18342:18369   */\n      swap1\n      pop\n        /* \"#utility.yul\":18289:18375   */\n      swap2\n      swap1\n      pop\n      jump\t// out\n        /* \"#utility.yul\":18381:18535   */\n    tag_228:\n        /* \"#utility.yul\":18465:18471   */\n      dup3\n        /* \"#utility.yul\":18460:18463   */\n      dup2\n        /* \"#utility.yul\":18455:18458   */\n      dup4\n        /* \"#utility.yul\":18442:18472   */\n      calldatacopy\n        /* \"#utility.yul\":18527:18528   */\n      0x00\n        /* \"#utility.yul\":18518:18524   */\n      dup4\n        /* \"#utility.yul\":18513:18516   */\n      dup4\n        /* \"#utility.yul\":18509:18525   */\n      add\n        /* \"#utility.yul\":18502:18529   */\n      mstore\n        /* \"#utility.yul\":18381:18535   */\n      pop\n      pop\n      pop\n      jump\t// out\n        /* \"#utility.yul\":18541:18848   */\n    tag_312:\n        /* \"#utility.yul\":18609:18610   */\n      0x00\n        /* \"#utility.yul\":18619:18732   */\n    tag_450:\n        /* \"#utility.yul\":18633:18639   */\n      dup4\n        /* \"#utility.yul\":18630:18631   */\n      dup2\n        /* \"#utility.yul\":18627:18640   */\n      lt\n        /* \"#utility.yul\":18619:18732   */\n      iszero\n      tag_452\n      jumpi\n        /* \"#utility.yul\":18718:18719   */\n      dup1\n        /* \"#utility.yul\":18713:18716   */\n      dup3\n        /* \"#utility.yul\":18709:18720   */\n      add\n        /* \"#utility.yul\":18703:18721   */\n      mload\n        /* \"#utility.yul\":18699:18700   */\n      dup2\n        /* \"#utility.yul\":18694:18697   */\n      dup5\n        /* \"#utility.yul\":18690:18701   */\n      add\n        /* \"#utility.yul\":18683:18722   */\n      mstore\n        /* \"#utility.yul\":18655:18657   */\n      0x20\n        /* \"#utility.yul\":18652:18653   */\n      dup2\n        /* \"#utility.yul\":18648:18658   */\n      add\n        /* \"#utility.yul\":18643:18658   */\n      swap1\n      pop\n        /* \"#utility.yul\":18619:18732   */\n      jump(tag_450)\n    tag_452:\n        /* \"#utility.yul\":18750:18756   */\n      dup4\n        /* \"#utility.yul\":18747:18748   */\n      dup2\n        /* \"#utility.yul\":18744:18757   */\n      gt\n        /* \"#utility.yul\":18741:18842   */\n      iszero\n      tag_453\n      jumpi\n        /* \"#utility.yul\":18830:18831   */\n      0x00\n        /* \"#utility.yul\":18821:18827   */\n      dup5\n        /* \"#utility.yul\":18816:18819   */\n      dup5\n        /* \"#utility.yul\":18812:18828   */\n      add\n        /* \"#utility.yul\":18805:18832   */\n      mstore\n        /* \"#utility.yul\":18741:18842   */\n    tag_453:\n        /* \"#utility.yul\":18590:18848   */\n      pop\n        /* \"#utility.yul\":18541:18848   */\n      pop\n      pop\n      pop\n      jump\t// out\n        /* \"#utility.yul\":18854:19025   */\n    tag_203:\n        /* \"#utility.yul\":18893:18896   */\n      0x00\n        /* \"#utility.yul\":18916:18940   */\n      tag_455\n        /* \"#utility.yul\":18934:18939   */\n      dup3\n        /* \"#utility.yul\":18916:18940   */\n      tag_369\n      jump\t// in\n    tag_455:\n        /* \"#utility.yul\":18907:18940   */\n      swap2\n      pop\n        /* \"#utility.yul\":18962:18966   */\n      0x00\n        /* \"#utility.yul\":18955:18960   */\n      dup3\n        /* \"#utility.yul\":18952:18967   */\n      eq\n        /* \"#utility.yul\":18949:18990   */\n      iszero\n      tag_456\n      jumpi\n        /* \"#utility.yul\":18970:18988   */\n      tag_457\n      tag_429\n      jump\t// in\n    tag_457:\n        /* \"#utility.yul\":18949:18990   */\n    tag_456:\n        /* \"#utility.yul\":19017:19018   */\n      0x01\n        /* \"#utility.yul\":19010:19015   */\n      dup3\n        /* \"#utility.yul\":19006:19019   */\n      sub\n        /* \"#utility.yul\":18999:19019   */\n      swap1\n      pop\n        /* \"#utility.yul\":18854:19025   */\n      swap2\n      swap1\n      pop\n      jump\t// out\n        /* \"#utility.yul\":19031:19351   */\n    tag_115:\n        /* \"#utility.yul\":19075:19081   */\n      0x00\n        /* \"#utility.yul\":19112:19113   */\n      0x02\n        /* \"#utility.yul\":19106:19110   */\n      dup3\n        /* \"#utility.yul\":19102:19114   */\n      div\n        /* \"#utility.yul\":19092:19114   */\n      swap1\n      pop\n        /* \"#utility.yul\":19159:19160   */\n      0x01\n        /* \"#utility.yul\":19153:19157   */\n      dup3\n        /* \"#utility.yul\":19149:19161   */\n      and\n        /* \"#utility.yul\":19180:19198   */\n      dup1\n        /* \"#utility.yul\":19170:19251   */\n      tag_459\n      jumpi\n        /* \"#utility.yul\":19236:19240   */\n      0x7f\n        /* \"#utility.yul\":19228:19234   */\n      dup3\n        /* \"#utility.yul\":19224:19241   */\n      and\n        /* \"#utility.yul\":19214:19241   */\n      swap2\n      pop\n        /* \"#utility.yul\":19170:19251   */\n    tag_459:\n        /* \"#utility.yul\":19298:19300   */\n      0x20\n        /* \"#utility.yul\":19290:19296   */\n      dup3\n        /* \"#utility.yul\":19287:19301   */\n      lt\n        /* \"#utility.yul\":19267:19285   */\n      dup2\n        /* \"#utility.yul\":19264:19302   */\n      eq\n        /* \"#utility.yul\":19261:19345   */\n      iszero\n      tag_460\n      jumpi\n        /* \"#utility.yul\":19317:19335   */\n      tag_461\n      tag_462\n      jump\t// in\n    tag_461:\n        /* \"#utility.yul\":19261:19345   */\n    tag_460:\n        /* \"#utility.yul\":19082:19351   */\n      pop\n        /* \"#utility.yul\":19031:19351   */\n      swap2\n      swap1\n      pop\n      jump\t// out\n        /* \"#utility.yul\":19357:19638   */\n    tag_415:\n        /* \"#utility.yul\":19440:19467   */\n      tag_464\n        /* \"#utility.yul\":19462:19466   */\n      dup3\n        /* \"#utility.yul\":19440:19467   */\n      tag_314\n      jump\t// in\n    tag_464:\n        /* \"#utility.yul\":19432:19438   */\n      dup2\n        /* \"#utility.yul\":19428:19468   */\n      add\n        /* \"#utility.yul\":19570:19576   */\n      dup2\n        /* \"#utility.yul\":19558:19568   */\n      dup2\n        /* \"#utility.yul\":19555:19577   */\n      lt\n        /* \"#utility.yul\":19534:19552   */\n      0xffffffffffffffff\n        /* \"#utility.yul\":19522:19532   */\n      dup3\n        /* \"#utility.yul\":19519:19553   */\n      gt\n        /* \"#utility.yul\":19516:19578   */\n      or\n        /* \"#utility.yul\":19513:19601   */\n      iszero\n      tag_465\n      jumpi\n        /* \"#utility.yul\":19581:19599   */\n      tag_466\n      tag_186\n      jump\t// in\n    tag_466:\n        /* \"#utility.yul\":19513:19601   */\n    tag_465:\n        /* \"#utility.yul\":19621:19631   */\n      dup1\n        /* \"#utility.yul\":19617:19619   */\n      0x40\n        /* \"#utility.yul\":19610:19632   */\n      mstore\n        /* \"#utility.yul\":19400:19638   */\n      pop\n        /* \"#utility.yul\":19357:19638   */\n      pop\n      pop\n      jump\t// out\n        /* \"#utility.yul\":19644:19877   */\n    tag_146:\n        /* \"#utility.yul\":19683:19686   */\n      0x00\n        /* \"#utility.yul\":19706:19730   */\n      tag_468\n        /* \"#utility.yul\":19724:19729   */\n      dup3\n        /* \"#utility.yul\":19706:19730   */\n      tag_369\n      jump\t// in\n    tag_468:\n        /* \"#utility.yul\":19697:19730   */\n      swap2\n      pop\n        /* \"#utility.yul\":19752:19818   */\n      0xffffffffffffffffffffffffffffffffffffffffffffffffffffffffffffffff\n        /* \"#utility.yul\":19745:19750   */\n      dup3\n        /* \"#utility.yul\":19742:19819   */\n      eq\n        /* \"#utility.yul\":19739:19842   */\n      iszero\n      tag_469\n      jumpi\n        /* \"#utility.yul\":19822:19840   */\n      tag_470\n      tag_429\n      jump\t// in\n    tag_470:\n        /* \"#utility.yul\":19739:19842   */\n    tag_469:\n        /* \"#utility.yul\":19869:19870   */\n      0x01\n        /* \"#utility.yul\":19862:19867   */\n      dup3\n        /* \"#utility.yul\":19858:19871   */\n      add\n        /* \"#utility.yul\":19851:19871   */\n      swap1\n      pop\n        /* \"#utility.yul\":19644:19877   */\n      swap2\n      swap1\n      pop\n      jump\t// out\n        /* \"#utility.yul\":19883:20063   */\n    tag_429:\n        /* \"#utility.yul\":19931:20008   */\n      0x4e487b7100000000000000000000000000000000000000000000000000000000\n        /* \"#utility.yul\":19928:19929   */\n      0x00\n        /* \"#utility.yul\":19921:20009   */\n      mstore\n        /* \"#utility.yul\":20028:20032   */\n      0x11\n        /* \"#utility.yul\":20025:20026   */\n      0x04\n        /* \"#utility.yul\":20018:20033   */\n      mstore\n        /* \"#utility.yul\":20052:20056   */\n      0x24\n        /* \"#utility.yul\":20049:20050   */\n      0x00\n        /* \"#utility.yul\":20042:20057   */\n      revert\n        /* \"#utility.yul\":20069:20249   */\n    tag_462:\n        /* \"#utility.yul\":20117:20194   */\n      0x4e487b7100000000000000000000000000000000000000000000000000000000\n        /* \"#utility.yul\":20114:20115   */\n      0x00\n        /* \"#utility.yul\":20107:20195   */\n      mstore\n        /* \"#utility.yul\":20214:20218   */\n      0x22\n        /* \"#utility.yul\":20211:20212   */\n      0x04\n        /* \"#utility.yul\":20204:20219   */\n      mstore\n        /* \"#utility.yul\":20238:20242   */\n      0x24\n        /* \"#utility.yul\":20235:20236   */\n      0x00\n        /* \"#utility.yul\":20228:20243   */\n      revert\n        /* \"#utility.yul\":20255:20435   */\n    tag_190:\n        /* \"#utility.yul\":20303:20380   */\n      0x4e487b7100000000000000000000000000000000000000000000000000000000\n        /* \"#utility.yul\":20300:20301   */\n      0x00\n        /* \"#utility.yul\":20293:20381   */\n      mstore\n        /* \"#utility.yul\":20400:20404   */\n      0x32\n        /* \"#utility.yul\":20397:20398   */\n      0x04\n        /* \"#utility.yul\":20390:20405   */\n      mstore\n        /* \"#utility.yul\":20424:20428   */\n      0x24\n        /* \"#utility.yul\":20421:20422   */\n      0x00\n        /* \"#utility.yul\":20414:20429   */\n      revert\n        /* \"#utility.yul\":20441:20621   */\n    tag_186:\n        /* \"#utility.yul\":20489:20566   */\n      0x4e487b7100000000000000000000000000000000000000000000000000000000\n        /* \"#utility.yul\":20486:20487   */\n      0x00\n        /* \"#utility.yul\":20479:20567   */\n      mstore\n        /* \"#utility.yul\":20586:20590   */\n      0x41\n        /* \"#utility.yul\":20583:20584   */\n      0x04\n        /* \"#utility.yul\":20576:20591   */\n      mstore\n        /* \"#utility.yul\":20610:20614   */\n      0x24\n        /* \"#utility.yul\":20607:20608   */\n      0x00\n        /* \"#utility.yul\":20600:20615   */\n      revert\n        /* \"#utility.yul\":20627:20744   */\n    tag_249:\n        /* \"#utility.yul\":20736:20737   */\n      0x00\n        /* \"#utility.yul\":20733:20734   */\n      dup1\n        /* \"#utility.yul\":20726:20738   */\n      revert\n        /* \"#utility.yul\":20750:20867   */\n    tag_226:\n        /* \"#utility.yul\":20859:20860   */\n      0x00\n        /* \"#utility.yul\":20856:20857   */\n      dup1\n        /* \"#utility.yul\":20849:20861   */\n      revert\n        /* \"#utility.yul\":20873:20990   */\n    tag_278:\n        /* \"#utility.yul\":20982:20983   */\n      0x00\n        /* \"#utility.yul\":20979:20980   */\n      dup1\n        /* \"#utility.yul\":20972:20984   */\n      revert\n        /* \"#utility.yul\":20996:21113   */\n    tag_262:\n        /* \"#utility.yul\":21105:21106   */\n      0x00\n        /* \"#utility.yul\":21102:21103   */\n      dup1\n        /* \"#utility.yul\":21095:21107   */\n      revert\n        /* \"#utility.yul\":21119:21221   */\n    tag_314:\n        /* \"#utility.yul\":21160:21166   */\n      0x00\n        /* \"#utility.yul\":21211:21213   */\n      0x1f\n        /* \"#utility.yul\":21207:21214   */\n      not\n        /* \"#utility.yul\":21202:21204   */\n      0x1f\n        /* \"#utility.yul\":21195:21200   */\n      dup4\n        /* \"#utility.yul\":21191:21205   */\n      add\n        /* \"#utility.yul\":21187:21215   */\n      and\n        /* \"#utility.yul\":21177:21215   */\n      swap1\n      pop\n        /* \"#utility.yul\":21119:21221   */\n      swap2\n      swap1\n      pop\n      jump\t// out\n        /* \"#utility.yul\":21227:21409   */\n    tag_325:\n        /* \"#utility.yul\":21367:21401   */\n      0x537472696e67733a20686578206c656e67746820696e73756666696369656e74\n        /* \"#utility.yul\":21363:21364   */\n      0x00\n        /* \"#utility.yul\":21355:21361   */\n      dup3\n        /* \"#utility.yul\":21351:21365   */\n      add\n        /* \"#utility.yul\":21344:21402   */\n      mstore\n        /* \"#utility.yul\":21227:21409   */\n      pop\n      jump\t// out\n        /* \"#utility.yul\":21415:21585   */\n    tag_330:\n        /* \"#utility.yul\":21555:21577   */\n      0x507269636520646f6573206e6f74206d61746368000000000000000000000000\n        /* \"#utility.yul\":21551:21552   */\n      0x00\n        /* \"#utility.yul\":21543:21549   */\n      dup3\n        /* \"#utility.yul\":21539:21553   */\n      add\n        /* \"#utility.yul\":21532:21578   */\n      mstore\n        /* \"#utility.yul\":21415:21585   */\n      pop\n      jump\t// out\n        /* \"#utility.yul\":21591:21761   */\n    tag_335:\n        /* \"#utility.yul\":21731:21753   */\n      0x4974656d20697320616c726561647920736f6c64000000000000000000000000\n        /* \"#utility.yul\":21727:21728   */\n      0x00\n        /* \"#utility.yul\":21719:21725   */\n      dup3\n        /* \"#utility.yul\":21715:21729   */\n      add\n        /* \"#utility.yul\":21708:21754   */\n      mstore\n        /* \"#utility.yul\":21591:21761   */\n      pop\n      jump\t// out\n        /* \"#utility.yul\":21767:21994   */\n    tag_340:\n        /* \"#utility.yul\":21907:21941   */\n      0x4f6e6c79207468652073656c6c65722063616e206372656174652061206d6172\n        /* \"#utility.yul\":21903:21904   */\n      0x00\n        /* \"#utility.yul\":21895:21901   */\n      dup3\n        /* \"#utility.yul\":21891:21905   */\n      add\n        /* \"#utility.yul\":21884:21942   */\n      mstore\n        /* \"#utility.yul\":21976:21986   */\n      0x6b6574206974656d000000000000000000000000000000000000000000000000\n        /* \"#utility.yul\":21971:21973   */\n      0x20\n        /* \"#utility.yul\":21963:21969   */\n      dup3\n        /* \"#utility.yul\":21959:21974   */\n      add\n        /* \"#utility.yul\":21952:21987   */\n      mstore\n        /* \"#utility.yul\":21767:21994   */\n      pop\n      jump\t// out\n        /* \"#utility.yul\":22000:22173   */\n    tag_345:\n        /* \"#utility.yul\":22140:22165   */\n      0x416363657373436f6e74726f6c3a206163636f756e7420000000000000000000\n        /* \"#utility.yul\":22136:22137   */\n      0x00\n        /* \"#utility.yul\":22128:22134   */\n      dup3\n        /* \"#utility.yul\":22124:22138   */\n      add\n        /* \"#utility.yul\":22117:22166   */\n      mstore\n        /* \"#utility.yul\":22000:22173   */\n      pop\n      jump\t// out\n        /* \"#utility.yul\":22179:22346   */\n    tag_350:\n        /* \"#utility.yul\":22319:22338   */\n      0x4974656d20616c726561647920736f6c64000000000000000000000000000000\n        /* \"#utility.yul\":22315:22316   */\n      0x00\n        /* \"#utility.yul\":22307:22313   */\n      dup3\n        /* \"#utility.yul\":22303:22317   */\n      add\n        /* \"#utility.yul\":22296:22339   */\n      mstore\n        /* \"#utility.yul\":22179:22346   */\n      pop\n      jump\t// out\n        /* \"#utility.yul\":22352:22530   */\n    tag_355:\n        /* \"#utility.yul\":22492:22522   */\n      0x5072696365206d7573742062652067726561746572207468616e203000000000\n        /* \"#utility.yul\":22488:22489   */\n      0x00\n        /* \"#utility.yul\":22480:22486   */\n      dup3\n        /* \"#utility.yul\":22476:22490   */\n      add\n        /* \"#utility.yul\":22469:22523   */\n      mstore\n        /* \"#utility.yul\":22352:22530   */\n      pop\n      jump\t// out\n        /* \"#utility.yul\":22536:22703   */\n    tag_360:\n        /* \"#utility.yul\":22676:22695   */\n      0x206973206d697373696e6720726f6c6520000000000000000000000000000000\n        /* \"#utility.yul\":22672:22673   */\n      0x00\n        /* \"#utility.yul\":22664:22670   */\n      dup3\n        /* \"#utility.yul\":22660:22674   */\n      add\n        /* \"#utility.yul\":22653:22696   */\n      mstore\n        /* \"#utility.yul\":22536:22703   */\n      pop\n      jump\t// out\n        /* \"#utility.yul\":22709:22943   */\n    tag_365:\n        /* \"#utility.yul\":22849:22883   */\n      0x416363657373436f6e74726f6c3a2063616e206f6e6c792072656e6f756e6365\n        /* \"#utility.yul\":22845:22846   */\n      0x00\n        /* \"#utility.yul\":22837:22843   */\n      dup3\n        /* \"#utility.yul\":22833:22847   */\n      add\n        /* \"#utility.yul\":22826:22884   */\n      mstore\n        /* \"#utility.yul\":22918:22935   */\n      0x20726f6c657320666f722073656c660000000000000000000000000000000000\n        /* \"#utility.yul\":22913:22915   */\n      0x20\n        /* \"#utility.yul\":22905:22911   */\n      dup3\n        /* \"#utility.yul\":22901:22916   */\n      add\n        /* \"#utility.yul\":22894:22936   */\n      mstore\n        /* \"#utility.yul\":22709:22943   */\n      pop\n      jump\t// out\n        /* \"#utility.yul\":22949:23071   */\n    tag_232:\n        /* \"#utility.yul\":23022:23046   */\n      tag_490\n        /* \"#utility.yul\":23040:23045   */\n      dup2\n        /* \"#utility.yul\":23022:23046   */\n      tag_435\n      jump\t// in\n    tag_490:\n        /* \"#utility.yul\":23015:23020   */\n      dup2\n        /* \"#utility.yul\":23012:23047   */\n      eq\n        /* \"#utility.yul\":23002:23065   */\n      tag_491\n      jumpi\n        /* \"#utility.yul\":23061:23062   */\n      0x00\n        /* \"#utility.yul\":23058:23059   */\n      dup1\n        /* \"#utility.yul\":23051:23063   */\n      revert\n        /* \"#utility.yul\":23002:23065   */\n    tag_491:\n        /* \"#utility.yul\":22949:23071   */\n      pop\n      jump\t// out\n        /* \"#utility.yul\":23077:23215   */\n    tag_236:\n        /* \"#utility.yul\":23158:23190   */\n      tag_493\n        /* \"#utility.yul\":23184:23189   */\n      dup2\n        /* \"#utility.yul\":23158:23190   */\n      tag_296\n      jump\t// in\n    tag_493:\n        /* \"#utility.yul\":23151:23156   */\n      dup2\n        /* \"#utility.yul\":23148:23191   */\n      eq\n        /* \"#utility.yul\":23138:23209   */\n      tag_494\n      jumpi\n        /* \"#utility.yul\":23205:23206   */\n      0x00\n        /* \"#utility.yul\":23202:23203   */\n      dup1\n        /* \"#utility.yul\":23195:23207   */\n      revert\n        /* \"#utility.yul\":23138:23209   */\n    tag_494:\n        /* \"#utility.yul\":23077:23215   */\n      pop\n      jump\t// out\n        /* \"#utility.yul\":23221:23343   */\n    tag_240:\n        /* \"#utility.yul\":23294:23318   */\n      tag_496\n        /* \"#utility.yul\":23312:23317   */\n      dup2\n        /* \"#utility.yul\":23294:23318   */\n      tag_304\n      jump\t// in\n    tag_496:\n        /* \"#utility.yul\":23287:23292   */\n      dup2\n        /* \"#utility.yul\":23284:23319   */\n      eq\n        /* \"#utility.yul\":23274:23337   */\n      tag_497\n      jumpi\n        /* \"#utility.yul\":23333:23334   */\n      0x00\n        /* \"#utility.yul\":23330:23331   */\n      dup1\n        /* \"#utility.yul\":23323:23335   */\n      revert\n        /* \"#utility.yul\":23274:23337   */\n    tag_497:\n        /* \"#utility.yul\":23221:23343   */\n      pop\n      jump\t// out\n        /* \"#utility.yul\":23349:23469   */\n    tag_244:\n        /* \"#utility.yul\":23421:23444   */\n      tag_499\n        /* \"#utility.yul\":23438:23443   */\n      dup2\n        /* \"#utility.yul\":23421:23444   */\n      tag_443\n      jump\t// in\n    tag_499:\n        /* \"#utility.yul\":23414:23419   */\n      dup2\n        /* \"#utility.yul\":23411:23445   */\n      eq\n        /* \"#utility.yul\":23401:23463   */\n      tag_500\n      jumpi\n        /* \"#utility.yul\":23459:23460   */\n      0x00\n        /* \"#utility.yul\":23456:23457   */\n      dup1\n        /* \"#utility.yul\":23449:23461   */\n      revert\n        /* \"#utility.yul\":23401:23463   */\n    tag_500:\n        /* \"#utility.yul\":23349:23469   */\n      pop\n      jump\t// out\n        /* \"#utility.yul\":23475:23597   */\n    tag_254:\n        /* \"#utility.yul\":23548:23572   */\n      tag_502\n        /* \"#utility.yul\":23566:23571   */\n      dup2\n        /* \"#utility.yul\":23548:23572   */\n      tag_369\n      jump\t// in\n    tag_502:\n        /* \"#utility.yul\":23541:23546   */\n      dup2\n        /* \"#utility.yul\":23538:23573   */\n      eq\n        /* \"#utility.yul\":23528:23591   */\n      tag_503\n      jumpi\n        /* \"#utility.yul\":23587:23588   */\n      0x00\n        /* \"#utility.yul\":23584:23585   */\n      dup1\n        /* \"#utility.yul\":23577:23589   */\n      revert\n        /* \"#utility.yul\":23528:23591   */\n    tag_503:\n        /* \"#utility.yul\":23475:23597   */\n      pop\n      jump\t// out\n        /* \"#utility.yul\":23603:23721   */\n    tag_258:\n        /* \"#utility.yul\":23674:23696   */\n      tag_505\n        /* \"#utility.yul\":23690:23695   */\n      dup2\n        /* \"#utility.yul\":23674:23696   */\n      tag_373\n      jump\t// in\n    tag_505:\n        /* \"#utility.yul\":23667:23672   */\n      dup2\n        /* \"#utility.yul\":23664:23697   */\n      eq\n        /* \"#utility.yul\":23654:23715   */\n      tag_506\n      jumpi\n        /* \"#utility.yul\":23711:23712   */\n      0x00\n        /* \"#utility.yul\":23708:23709   */\n      dup1\n        /* \"#utility.yul\":23701:23713   */\n      revert\n        /* \"#utility.yul\":23654:23715   */\n    tag_506:\n        /* \"#utility.yul\":23603:23721   */\n      pop\n      jump\t// out\n\n    auxdata: 0xa2646970667358221220374b942500aa06105294b82c39b3177f67138c6db7594eaf5ef3fff7d146d64564736f6c63430008070033\n}\n",
				"bytecode": {
					"linkReferences": {},
					"object": "608060405260006001553480156200001657600080fd5b50620000497f1f9ca85e780b3b3cfbe1334ca9dd68802db7860f692bd163c796bb76d464edc0336200004f60201b60201c565b620001b2565b6200006182826200014060201b60201c565b6200013c57600160008084815260200190815260200160002060000160008373ffffffffffffffffffffffffffffffffffffffff1673ffffffffffffffffffffffffffffffffffffffff16815260200190815260200160002060006101000a81548160ff021916908315150217905550620000e1620001aa60201b60201c565b73ffffffffffffffffffffffffffffffffffffffff168173ffffffffffffffffffffffffffffffffffffffff16837f2f8788117e7eff1d82e926ec794901d17c78024a50270940304540a733656f0d60405160405180910390a45b5050565b600080600084815260200190815260200160002060000160008373ffffffffffffffffffffffffffffffffffffffff1673ffffffffffffffffffffffffffffffffffffffff16815260200190815260200160002060009054906101000a900460ff16905092915050565b600033905090565b61200d80620001c26000396000f3fe6080604052600436106100c25760003560e01c806388d9e84c1161007f578063a6667d0611610059578063a6667d0614610282578063b491efa0146102ab578063c7be7a49146102d6578063d547741f14610316576100c2565b806388d9e84c146101da57806391d148541461021a578063a217fddf14610257576100c2565b806301ffc9a7146100c7578063248a9ca3146101045780632f2ff15d14610141578063351901c31461016a57806336568abe146101865780636a868974146101af575b600080fd5b3480156100d357600080fd5b506100ee60048036038101906100e99190611476565b61033f565b6040516100fb91906117db565b60405180910390f35b34801561011057600080fd5b5061012b60048036038101906101269190611409565b6103b9565b60405161013891906117f6565b60405180910390f35b34801561014d57600080fd5b5061016860048036038101906101639190611436565b6103d8565b005b610184600480360381019061017f9190611584565b610401565b005b34801561019257600080fd5b506101ad60048036038101906101a89190611436565b610572565b005b3480156101bb57600080fd5b506101c46105f5565b6040516101d191906119b2565b60405180910390f35b3480156101e657600080fd5b5061020160048036038101906101fc9190611584565b6105fb565b604051610211949392919061187f565b60405180910390f35b34801561022657600080fd5b50610241600480360381019061023c9190611436565b6108be565b60405161024e91906117db565b60405180910390f35b34801561026357600080fd5b5061026c610928565b60405161027991906117f6565b60405180910390f35b34801561028e57600080fd5b506102a960048036038101906102a491906114a3565b61092f565b005b3480156102b757600080fd5b506102c0610bf5565b6040516102cd91906117f6565b60405180910390f35b3480156102e257600080fd5b506102fd60048036038101906102f89190611584565b610c19565b60405161030d9493929190611833565b60405180910390f35b34801561032257600080fd5b5061033d60048036038101906103389190611436565b610d43565b005b60007f7965db0b000000000000000000000000000000000000000000000000000000007bffffffffffffffffffffffffffffffffffffffffffffffffffffffff1916827bffffffffffffffffffffffffffffffffffffffffffffffffffffffff191614806103b257506103b182610d6c565b5b9050919050565b6000806000838152602001908152602001600020600101549050919050565b6103e1826103b9565b6103f2816103ed610dd6565b610dde565b6103fc8383610e7b565b505050565b600015156002600083815260200190815260200160002060040160149054906101000a900460ff1615151461046b576040517f08c379a000000000000000000000000000000000000000000000000000000000815260040161046290611912565b60405180910390fd5b346002600083815260200190815260200160002060030154146104c3576040517f08c379a00000000000000000000000000000000000000000000000000000000081526004016104ba906118f2565b60405180910390fd5b60016002600083815260200190815260200160002060040160146101000a81548160ff0219169083151502179055506002600082815260200190815260200160002060040160009054906101000a900473ffffffffffffffffffffffffffffffffffffffff1673ffffffffffffffffffffffffffffffffffffffff166108fc349081150290604051600060405180830381858888f1935050505015801561056e573d6000803e3d6000fd5b5050565b61057a610dd6565b73ffffffffffffffffffffffffffffffffffffffff168173ffffffffffffffffffffffffffffffffffffffff16146105e7576040517f08c379a00000000000000000000000000000000000000000000000000000000081526004016105de90611992565b60405180910390fd5b6105f18282610f5b565b5050565b60015481565b606080600080600060026000878152602001908152602001600020604051806101200160405290816000820154815260200160018201805461063c90611c03565b80601f016020809104026020016040519081016040528092919081815260200182805461066890611c03565b80156106b55780601f1061068a576101008083540402835291602001916106b5565b820191906000526020600020905b81548152906001019060200180831161069857829003601f168201915b505050505081526020016002820180546106ce90611c03565b80601f01602080910402602001604051908101604052809291908181526020018280546106fa90611c03565b80156107475780601f1061071c57610100808354040283529160200191610747565b820191906000526020600020905b81548152906001019060200180831161072a57829003601f168201915b50505050508152602001600382015481526020016004820160009054906101000a900473ffffffffffffffffffffffffffffffffffffffff1673ffffffffffffffffffffffffffffffffffffffff1673ffffffffffffffffffffffffffffffffffffffff1681526020016004820160149054906101000a900460ff161515151581526020016005820180546107db90611c03565b80601f016020809104026020016040519081016040528092919081815260200182805461080790611c03565b80156108545780601f1061082957610100808354040283529160200191610854565b820191906000526020600020905b81548152906001019060200180831161083757829003601f168201915b505050505081526020016006820160009054906101000a900460ff1660ff1660ff1681526020016006820160019054906101000a900460ff1660ff1660ff1681525050905080604001518160c001518260e001518361010001519450945094509450509193509193565b600080600084815260200190815260200160002060000160008373ffffffffffffffffffffffffffffffffffffffff1673ffffffffffffffffffffffffffffffffffffffff16815260200190815260200160002060009054906101000a900460ff16905092915050565b6000801b81565b8373ffffffffffffffffffffffffffffffffffffffff163373ffffffffffffffffffffffffffffffffffffffff161461099d576040517f08c379a000000000000000000000000000000000000000000000000000000000815260040161099490611932565b60405180910390fd5b600083116109e0576040517f08c379a00000000000000000000000000000000000000000000000000000000081526004016109d790611972565b60405180910390fd5b60026000600154815260200190815260200160002060040160149054906101000a900460ff1615610a46576040517f08c379a0000000000000000000000000000000000000000000000000000000008152600401610a3d90611952565b60405180910390fd5b60405180610120016040528060015481526020018781526020018681526020018481526020018573ffffffffffffffffffffffffffffffffffffffff168152602001600015158152602001838152602001600060ff1681526020018260ff16815250600260006001548152602001908152602001600020600082015181600001556020820151816001019080519060200190610ae3929190611278565b506040820151816002019080519060200190610b00929190611278565b506060820151816003015560808201518160040160006101000a81548173ffffffffffffffffffffffffffffffffffffffff021916908373ffffffffffffffffffffffffffffffffffffffff16021790555060a08201518160040160146101000a81548160ff02191690831515021790555060c0820151816005019080519060200190610b8e929190611278565b5060e08201518160060160006101000a81548160ff021916908360ff1602179055506101008201518160060160016101000a81548160ff021916908360ff16021790555090505060016000815480929190610be890611c66565b9190505550505050505050565b7f1f9ca85e780b3b3cfbe1334ca9dd68802db7860f692bd163c796bb76d464edc081565b60606000806000600260008681526020019081526020016000206001016002600087815260200190815260200160002060040160009054906101000a900473ffffffffffffffffffffffffffffffffffffffff1660026000888152602001908152602001600020600301546002600089815260200190815260200160002060040160149054906101000a900460ff16838054610cb490611c03565b80601f0160208091040260200160405190810160405280929190818152602001828054610ce090611c03565b8015610d2d5780601f10610d0257610100808354040283529160200191610d2d565b820191906000526020600020905b815481529060010190602001808311610d1057829003601f168201915b5050505050935093509350935093509193509193565b610d4c826103b9565b610d5d81610d58610dd6565b610dde565b610d678383610f5b565b505050565b60007f01ffc9a7000000000000000000000000000000000000000000000000000000007bffffffffffffffffffffffffffffffffffffffffffffffffffffffff1916827bffffffffffffffffffffffffffffffffffffffffffffffffffffffff1916149050919050565b600033905090565b610de882826108be565b610e7757610e0d8173ffffffffffffffffffffffffffffffffffffffff16601461103c565b610e1b8360001c602061103c565b604051602001610e2c9291906117a1565b6040516020818303038152906040526040517f08c379a0000000000000000000000000000000000000000000000000000000008152600401610e6e9190611811565b60405180910390fd5b5050565b610e8582826108be565b610f5757600160008084815260200190815260200160002060000160008373ffffffffffffffffffffffffffffffffffffffff1673ffffffffffffffffffffffffffffffffffffffff16815260200190815260200160002060006101000a81548160ff021916908315150217905550610efc610dd6565b73ffffffffffffffffffffffffffffffffffffffff168173ffffffffffffffffffffffffffffffffffffffff16837f2f8788117e7eff1d82e926ec794901d17c78024a50270940304540a733656f0d60405160405180910390a45b5050565b610f6582826108be565b1561103857600080600084815260200190815260200160002060000160008373ffffffffffffffffffffffffffffffffffffffff1673ffffffffffffffffffffffffffffffffffffffff16815260200190815260200160002060006101000a81548160ff021916908315150217905550610fdd610dd6565b73ffffffffffffffffffffffffffffffffffffffff168173ffffffffffffffffffffffffffffffffffffffff16837ff6391f5c32d9c69d2a47ea670b442974b53935d1edc7fd64eb21e047a839171b60405160405180910390a45b5050565b60606000600283600261104f9190611aa0565b6110599190611a4a565b67ffffffffffffffff81111561107257611071611d3c565b5b6040519080825280601f01601f1916602001820160405280156110a45781602001600182028036833780820191505090505b5090507f3000000000000000000000000000000000000000000000000000000000000000816000815181106110dc576110db611d0d565b5b60200101907effffffffffffffffffffffffffffffffffffffffffffffffffffffffffffff1916908160001a9053507f7800000000000000000000000000000000000000000000000000000000000000816001815181106111405761113f611d0d565b5b60200101907effffffffffffffffffffffffffffffffffffffffffffffffffffffffffffff1916908160001a905350600060018460026111809190611aa0565b61118a9190611a4a565b90505b600181111561122a577f3031323334353637383961626364656600000000000000000000000000000000600f8616601081106111cc576111cb611d0d565b5b1a60f81b8282815181106111e3576111e2611d0d565b5b60200101907effffffffffffffffffffffffffffffffffffffffffffffffffffffffffffff1916908160001a905350600485901c94508061122390611bd9565b905061118d565b506000841461126e576040517f08c379a0000000000000000000000000000000000000000000000000000000008152600401611265906118d2565b60405180910390fd5b8091505092915050565b82805461128490611c03565b90600052602060002090601f0160209004810192826112a657600085556112ed565b82601f106112bf57805160ff19168380011785556112ed565b828001600101855582156112ed579182015b828111156112ec5782518255916020019190600101906112d1565b5b5090506112fa91906112fe565b5090565b5b808211156113175760008160009055506001016112ff565b5090565b600061132e611329846119f2565b6119cd565b90508281526020810184848401111561134a57611349611d70565b5b611355848285611b97565b509392505050565b60008135905061136c81611f4d565b92915050565b60008135905061138181611f64565b92915050565b60008135905061139681611f7b565b92915050565b6000813590506113ab81611f92565b92915050565b600082601f8301126113c6576113c5611d6b565b5b81356113d684826020860161131b565b91505092915050565b6000813590506113ee81611fa9565b92915050565b60008135905061140381611fc0565b92915050565b60006020828403121561141f5761141e611d7a565b5b600061142d84828501611387565b91505092915050565b6000806040838503121561144d5761144c611d7a565b5b600061145b85828601611387565b925050602061146c8582860161135d565b9150509250929050565b60006020828403121561148c5761148b611d7a565b5b600061149a8482850161139c565b91505092915050565b60008060008060008060c087890312156114c0576114bf611d7a565b5b600087013567ffffffffffffffff8111156114de576114dd611d75565b5b6114ea89828a016113b1565b965050602087013567ffffffffffffffff81111561150b5761150a611d75565b5b61151789828a016113b1565b955050604061152889828a01611372565b945050606061153989828a016113df565b935050608087013567ffffffffffffffff81111561155a57611559611d75565b5b61156689828a016113b1565b92505060a061157789828a016113f4565b9150509295509295509295565b60006020828403121561159a57611599611d7a565b5b60006115a8848285016113df565b91505092915050565b6115ba81611b0c565b82525050565b6115c981611b1e565b82525050565b6115d881611b2a565b82525050565b60006115e982611a23565b6115f38185611a2e565b9350611603818560208601611ba6565b61160c81611d7f565b840191505092915050565b600061162282611a23565b61162c8185611a3f565b935061163c818560208601611ba6565b80840191505092915050565b6000611655602083611a2e565b915061166082611d90565b602082019050919050565b6000611678601483611a2e565b915061168382611db9565b602082019050919050565b600061169b601483611a2e565b91506116a682611de2565b602082019050919050565b60006116be602883611a2e565b91506116c982611e0b565b604082019050919050565b60006116e1601783611a3f565b91506116ec82611e5a565b601782019050919050565b6000611704601183611a2e565b915061170f82611e83565b602082019050919050565b6000611727601c83611a2e565b915061173282611eac565b602082019050919050565b600061174a601183611a3f565b915061175582611ed5565b601182019050919050565b600061176d602f83611a2e565b915061177882611efe565b604082019050919050565b61178c81611b80565b82525050565b61179b81611b8a565b82525050565b60006117ac826116d4565b91506117b88285611617565b91506117c38261173d565b91506117cf8284611617565b91508190509392505050565b60006020820190506117f060008301846115c0565b92915050565b600060208201905061180b60008301846115cf565b92915050565b6000602082019050818103600083015261182b81846115de565b905092915050565b6000608082019050818103600083015261184d81876115de565b905061185c60208301866115b1565b6118696040830185611783565b61187660608301846115c0565b95945050505050565b6000608082019050818103600083015261189981876115de565b905081810360208301526118ad81866115de565b90506118bc6040830185611792565b6118c96060830184611792565b95945050505050565b600060208201905081810360008301526118eb81611648565b9050919050565b6000602082019050818103600083015261190b8161166b565b9050919050565b6000602082019050818103600083015261192b8161168e565b9050919050565b6000602082019050818103600083015261194b816116b1565b9050919050565b6000602082019050818103600083015261196b816116f7565b9050919050565b6000602082019050818103600083015261198b8161171a565b9050919050565b600060208201905081810360008301526119ab81611760565b9050919050565b60006020820190506119c76000830184611783565b92915050565b60006119d76119e8565b90506119e38282611c35565b919050565b6000604051905090565b600067ffffffffffffffff821115611a0d57611a0c611d3c565b5b611a1682611d7f565b9050602081019050919050565b600081519050919050565b600082825260208201905092915050565b600081905092915050565b6000611a5582611b80565b9150611a6083611b80565b9250827fffffffffffffffffffffffffffffffffffffffffffffffffffffffffffffffff03821115611a9557611a94611caf565b5b828201905092915050565b6000611aab82611b80565b9150611ab683611b80565b9250817fffffffffffffffffffffffffffffffffffffffffffffffffffffffffffffffff0483118215151615611aef57611aee611caf565b5b828202905092915050565b6000611b0582611b60565b9050919050565b6000611b1782611b60565b9050919050565b60008115159050919050565b6000819050919050565b60007fffffffff0000000000000000000000000000000000000000000000000000000082169050919050565b600073ffffffffffffffffffffffffffffffffffffffff82169050919050565b6000819050919050565b600060ff82169050919050565b82818337600083830152505050565b60005b83811015611bc4578082015181840152602081019050611ba9565b83811115611bd3576000848401525b50505050565b6000611be482611b80565b91506000821415611bf857611bf7611caf565b5b600182039050919050565b60006002820490506001821680611c1b57607f821691505b60208210811415611c2f57611c2e611cde565b5b50919050565b611c3e82611d7f565b810181811067ffffffffffffffff82111715611c5d57611c5c611d3c565b5b80604052505050565b6000611c7182611b80565b91507fffffffffffffffffffffffffffffffffffffffffffffffffffffffffffffffff821415611ca457611ca3611caf565b5b600182019050919050565b7f4e487b7100000000000000000000000000000000000000000000000000000000600052601160045260246000fd5b7f4e487b7100000000000000000000000000000000000000000000000000000000600052602260045260246000fd5b7f4e487b7100000000000000000000000000000000000000000000000000000000600052603260045260246000fd5b7f4e487b7100000000000000000000000000000000000000000000000000000000600052604160045260246000fd5b600080fd5b600080fd5b600080fd5b600080fd5b6000601f19601f8301169050919050565b7f537472696e67733a20686578206c656e67746820696e73756666696369656e74600082015250565b7f507269636520646f6573206e6f74206d61746368000000000000000000000000600082015250565b7f4974656d20697320616c726561647920736f6c64000000000000000000000000600082015250565b7f4f6e6c79207468652073656c6c65722063616e206372656174652061206d617260008201527f6b6574206974656d000000000000000000000000000000000000000000000000602082015250565b7f416363657373436f6e74726f6c3a206163636f756e7420000000000000000000600082015250565b7f4974656d20616c726561647920736f6c64000000000000000000000000000000600082015250565b7f5072696365206d7573742062652067726561746572207468616e203000000000600082015250565b7f206973206d697373696e6720726f6c6520000000000000000000000000000000600082015250565b7f416363657373436f6e74726f6c3a2063616e206f6e6c792072656e6f756e636560008201527f20726f6c657320666f722073656c660000000000000000000000000000000000602082015250565b611f5681611afa565b8114611f6157600080fd5b50565b611f6d81611b0c565b8114611f7857600080fd5b50565b611f8481611b2a565b8114611f8f57600080fd5b50565b611f9b81611b34565b8114611fa657600080fd5b50565b611fb281611b80565b8114611fbd57600080fd5b50565b611fc981611b8a565b8114611fd457600080fd5b5056fea2646970667358221220374b942500aa06105294b82c39b3177f67138c6db7594eaf5ef3fff7d146d64564736f6c63430008070033",
					"opcodes": "PUSH1 0x80 PUSH1 0x40 MSTORE PUSH1 0x0 PUSH1 0x1 SSTORE CALLVALUE DUP1 ISZERO PUSH3 0x16 JUMPI PUSH1 0x0 DUP1 REVERT JUMPDEST POP PUSH3 0x49 PUSH32 0x1F9CA85E780B3B3CFBE1334CA9DD68802DB7860F692BD163C796BB76D464EDC0 CALLER PUSH3 0x4F PUSH1 0x20 SHL PUSH1 0x20 SHR JUMP JUMPDEST PUSH3 0x1B2 JUMP JUMPDEST PUSH3 0x61 DUP3 DUP3 PUSH3 0x140 PUSH1 0x20 SHL PUSH1 0x20 SHR JUMP JUMPDEST PUSH3 0x13C JUMPI PUSH1 0x1 PUSH1 0x0 DUP1 DUP5 DUP2 MSTORE PUSH1 0x20 ADD SWAP1 DUP2 MSTORE PUSH1 0x20 ADD PUSH1 0x0 KECCAK256 PUSH1 0x0 ADD PUSH1 0x0 DUP4 PUSH20 0xFFFFFFFFFFFFFFFFFFFFFFFFFFFFFFFFFFFFFFFF AND PUSH20 0xFFFFFFFFFFFFFFFFFFFFFFFFFFFFFFFFFFFFFFFF AND DUP2 MSTORE PUSH1 0x20 ADD SWAP1 DUP2 MSTORE PUSH1 0x20 ADD PUSH1 0x0 KECCAK256 PUSH1 0x0 PUSH2 0x100 EXP DUP2 SLOAD DUP2 PUSH1 0xFF MUL NOT AND SWAP1 DUP4 ISZERO ISZERO MUL OR SWAP1 SSTORE POP PUSH3 0xE1 PUSH3 0x1AA PUSH1 0x20 SHL PUSH1 0x20 SHR JUMP JUMPDEST PUSH20 0xFFFFFFFFFFFFFFFFFFFFFFFFFFFFFFFFFFFFFFFF AND DUP2 PUSH20 0xFFFFFFFFFFFFFFFFFFFFFFFFFFFFFFFFFFFFFFFF AND DUP4 PUSH32 0x2F8788117E7EFF1D82E926EC794901D17C78024A50270940304540A733656F0D PUSH1 0x40 MLOAD PUSH1 0x40 MLOAD DUP1 SWAP2 SUB SWAP1 LOG4 JUMPDEST POP POP JUMP JUMPDEST PUSH1 0x0 DUP1 PUSH1 0x0 DUP5 DUP2 MSTORE PUSH1 0x20 ADD SWAP1 DUP2 MSTORE PUSH1 0x20 ADD PUSH1 0x0 KECCAK256 PUSH1 0x0 ADD PUSH1 0x0 DUP4 PUSH20 0xFFFFFFFFFFFFFFFFFFFFFFFFFFFFFFFFFFFFFFFF AND PUSH20 0xFFFFFFFFFFFFFFFFFFFFFFFFFFFFFFFFFFFFFFFF AND DUP2 MSTORE PUSH1 0x20 ADD SWAP1 DUP2 MSTORE PUSH1 0x20 ADD PUSH1 0x0 KECCAK256 PUSH1 0x0 SWAP1 SLOAD SWAP1 PUSH2 0x100 EXP SWAP1 DIV PUSH1 0xFF AND SWAP1 POP SWAP3 SWAP2 POP POP JUMP JUMPDEST PUSH1 0x0 CALLER SWAP1 POP SWAP1 JUMP JUMPDEST PUSH2 0x200D DUP1 PUSH3 0x1C2 PUSH1 0x0 CODECOPY PUSH1 0x0 RETURN INVALID PUSH1 0x80 PUSH1 0x40 MSTORE PUSH1 0x4 CALLDATASIZE LT PUSH2 0xC2 JUMPI PUSH1 0x0 CALLDATALOAD PUSH1 0xE0 SHR DUP1 PUSH4 0x88D9E84C GT PUSH2 0x7F JUMPI DUP1 PUSH4 0xA6667D06 GT PUSH2 0x59 JUMPI DUP1 PUSH4 0xA6667D06 EQ PUSH2 0x282 JUMPI DUP1 PUSH4 0xB491EFA0 EQ PUSH2 0x2AB JUMPI DUP1 PUSH4 0xC7BE7A49 EQ PUSH2 0x2D6 JUMPI DUP1 PUSH4 0xD547741F EQ PUSH2 0x316 JUMPI PUSH2 0xC2 JUMP JUMPDEST DUP1 PUSH4 0x88D9E84C EQ PUSH2 0x1DA JUMPI DUP1 PUSH4 0x91D14854 EQ PUSH2 0x21A JUMPI DUP1 PUSH4 0xA217FDDF EQ PUSH2 0x257 JUMPI PUSH2 0xC2 JUMP JUMPDEST DUP1 PUSH4 0x1FFC9A7 EQ PUSH2 0xC7 JUMPI DUP1 PUSH4 0x248A9CA3 EQ PUSH2 0x104 JUMPI DUP1 PUSH4 0x2F2FF15D EQ PUSH2 0x141 JUMPI DUP1 PUSH4 0x351901C3 EQ PUSH2 0x16A JUMPI DUP1 PUSH4 0x36568ABE EQ PUSH2 0x186 JUMPI DUP1 PUSH4 0x6A868974 EQ PUSH2 0x1AF JUMPI JUMPDEST PUSH1 0x0 DUP1 REVERT JUMPDEST CALLVALUE DUP1 ISZERO PUSH2 0xD3 JUMPI PUSH1 0x0 DUP1 REVERT JUMPDEST POP PUSH2 0xEE PUSH1 0x4 DUP1 CALLDATASIZE SUB DUP2 ADD SWAP1 PUSH2 0xE9 SWAP2 SWAP1 PUSH2 0x1476 JUMP JUMPDEST PUSH2 0x33F JUMP JUMPDEST PUSH1 0x40 MLOAD PUSH2 0xFB SWAP2 SWAP1 PUSH2 0x17DB JUMP JUMPDEST PUSH1 0x40 MLOAD DUP1 SWAP2 SUB SWAP1 RETURN JUMPDEST CALLVALUE DUP1 ISZERO PUSH2 0x110 JUMPI PUSH1 0x0 DUP1 REVERT JUMPDEST POP PUSH2 0x12B PUSH1 0x4 DUP1 CALLDATASIZE SUB DUP2 ADD SWAP1 PUSH2 0x126 SWAP2 SWAP1 PUSH2 0x1409 JUMP JUMPDEST PUSH2 0x3B9 JUMP JUMPDEST PUSH1 0x40 MLOAD PUSH2 0x138 SWAP2 SWAP1 PUSH2 0x17F6 JUMP JUMPDEST PUSH1 0x40 MLOAD DUP1 SWAP2 SUB SWAP1 RETURN JUMPDEST CALLVALUE DUP1 ISZERO PUSH2 0x14D JUMPI PUSH1 0x0 DUP1 REVERT JUMPDEST POP PUSH2 0x168 PUSH1 0x4 DUP1 CALLDATASIZE SUB DUP2 ADD SWAP1 PUSH2 0x163 SWAP2 SWAP1 PUSH2 0x1436 JUMP JUMPDEST PUSH2 0x3D8 JUMP JUMPDEST STOP JUMPDEST PUSH2 0x184 PUSH1 0x4 DUP1 CALLDATASIZE SUB DUP2 ADD SWAP1 PUSH2 0x17F SWAP2 SWAP1 PUSH2 0x1584 JUMP JUMPDEST PUSH2 0x401 JUMP JUMPDEST STOP JUMPDEST CALLVALUE DUP1 ISZERO PUSH2 0x192 JUMPI PUSH1 0x0 DUP1 REVERT JUMPDEST POP PUSH2 0x1AD PUSH1 0x4 DUP1 CALLDATASIZE SUB DUP2 ADD SWAP1 PUSH2 0x1A8 SWAP2 SWAP1 PUSH2 0x1436 JUMP JUMPDEST PUSH2 0x572 JUMP JUMPDEST STOP JUMPDEST CALLVALUE DUP1 ISZERO PUSH2 0x1BB JUMPI PUSH1 0x0 DUP1 REVERT JUMPDEST POP PUSH2 0x1C4 PUSH2 0x5F5 JUMP JUMPDEST PUSH1 0x40 MLOAD PUSH2 0x1D1 SWAP2 SWAP1 PUSH2 0x19B2 JUMP JUMPDEST PUSH1 0x40 MLOAD DUP1 SWAP2 SUB SWAP1 RETURN JUMPDEST CALLVALUE DUP1 ISZERO PUSH2 0x1E6 JUMPI PUSH1 0x0 DUP1 REVERT JUMPDEST POP PUSH2 0x201 PUSH1 0x4 DUP1 CALLDATASIZE SUB DUP2 ADD SWAP1 PUSH2 0x1FC SWAP2 SWAP1 PUSH2 0x1584 JUMP JUMPDEST PUSH2 0x5FB JUMP JUMPDEST PUSH1 0x40 MLOAD PUSH2 0x211 SWAP5 SWAP4 SWAP3 SWAP2 SWAP1 PUSH2 0x187F JUMP JUMPDEST PUSH1 0x40 MLOAD DUP1 SWAP2 SUB SWAP1 RETURN JUMPDEST CALLVALUE DUP1 ISZERO PUSH2 0x226 JUMPI PUSH1 0x0 DUP1 REVERT JUMPDEST POP PUSH2 0x241 PUSH1 0x4 DUP1 CALLDATASIZE SUB DUP2 ADD SWAP1 PUSH2 0x23C SWAP2 SWAP1 PUSH2 0x1436 JUMP JUMPDEST PUSH2 0x8BE JUMP JUMPDEST PUSH1 0x40 MLOAD PUSH2 0x24E SWAP2 SWAP1 PUSH2 0x17DB JUMP JUMPDEST PUSH1 0x40 MLOAD DUP1 SWAP2 SUB SWAP1 RETURN JUMPDEST CALLVALUE DUP1 ISZERO PUSH2 0x263 JUMPI PUSH1 0x0 DUP1 REVERT JUMPDEST POP PUSH2 0x26C PUSH2 0x928 JUMP JUMPDEST PUSH1 0x40 MLOAD PUSH2 0x279 SWAP2 SWAP1 PUSH2 0x17F6 JUMP JUMPDEST PUSH1 0x40 MLOAD DUP1 SWAP2 SUB SWAP1 RETURN JUMPDEST CALLVALUE DUP1 ISZERO PUSH2 0x28E JUMPI PUSH1 0x0 DUP1 REVERT JUMPDEST POP PUSH2 0x2A9 PUSH1 0x4 DUP1 CALLDATASIZE SUB DUP2 ADD SWAP1 PUSH2 0x2A4 SWAP2 SWAP1 PUSH2 0x14A3 JUMP JUMPDEST PUSH2 0x92F JUMP JUMPDEST STOP JUMPDEST CALLVALUE DUP1 ISZERO PUSH2 0x2B7 JUMPI PUSH1 0x0 DUP1 REVERT JUMPDEST POP PUSH2 0x2C0 PUSH2 0xBF5 JUMP JUMPDEST PUSH1 0x40 MLOAD PUSH2 0x2CD SWAP2 SWAP1 PUSH2 0x17F6 JUMP JUMPDEST PUSH1 0x40 MLOAD DUP1 SWAP2 SUB SWAP1 RETURN JUMPDEST CALLVALUE DUP1 ISZERO PUSH2 0x2E2 JUMPI PUSH1 0x0 DUP1 REVERT JUMPDEST POP PUSH2 0x2FD PUSH1 0x4 DUP1 CALLDATASIZE SUB DUP2 ADD SWAP1 PUSH2 0x2F8 SWAP2 SWAP1 PUSH2 0x1584 JUMP JUMPDEST PUSH2 0xC19 JUMP JUMPDEST PUSH1 0x40 MLOAD PUSH2 0x30D SWAP5 SWAP4 SWAP3 SWAP2 SWAP1 PUSH2 0x1833 JUMP JUMPDEST PUSH1 0x40 MLOAD DUP1 SWAP2 SUB SWAP1 RETURN JUMPDEST CALLVALUE DUP1 ISZERO PUSH2 0x322 JUMPI PUSH1 0x0 DUP1 REVERT JUMPDEST POP PUSH2 0x33D PUSH1 0x4 DUP1 CALLDATASIZE SUB DUP2 ADD SWAP1 PUSH2 0x338 SWAP2 SWAP1 PUSH2 0x1436 JUMP JUMPDEST PUSH2 0xD43 JUMP JUMPDEST STOP JUMPDEST PUSH1 0x0 PUSH32 0x7965DB0B00000000000000000000000000000000000000000000000000000000 PUSH28 0xFFFFFFFFFFFFFFFFFFFFFFFFFFFFFFFFFFFFFFFFFFFFFFFFFFFFFFFF NOT AND DUP3 PUSH28 0xFFFFFFFFFFFFFFFFFFFFFFFFFFFFFFFFFFFFFFFFFFFFFFFFFFFFFFFF NOT AND EQ DUP1 PUSH2 0x3B2 JUMPI POP PUSH2 0x3B1 DUP3 PUSH2 0xD6C JUMP JUMPDEST JUMPDEST SWAP1 POP SWAP2 SWAP1 POP JUMP JUMPDEST PUSH1 0x0 DUP1 PUSH1 0x0 DUP4 DUP2 MSTORE PUSH1 0x20 ADD SWAP1 DUP2 MSTORE PUSH1 0x20 ADD PUSH1 0x0 KECCAK256 PUSH1 0x1 ADD SLOAD SWAP1 POP SWAP2 SWAP1 POP JUMP JUMPDEST PUSH2 0x3E1 DUP3 PUSH2 0x3B9 JUMP JUMPDEST PUSH2 0x3F2 DUP2 PUSH2 0x3ED PUSH2 0xDD6 JUMP JUMPDEST PUSH2 0xDDE JUMP JUMPDEST PUSH2 0x3FC DUP4 DUP4 PUSH2 0xE7B JUMP JUMPDEST POP POP POP JUMP JUMPDEST PUSH1 0x0 ISZERO ISZERO PUSH1 0x2 PUSH1 0x0 DUP4 DUP2 MSTORE PUSH1 0x20 ADD SWAP1 DUP2 MSTORE PUSH1 0x20 ADD PUSH1 0x0 KECCAK256 PUSH1 0x4 ADD PUSH1 0x14 SWAP1 SLOAD SWAP1 PUSH2 0x100 EXP SWAP1 DIV PUSH1 0xFF AND ISZERO ISZERO EQ PUSH2 0x46B JUMPI PUSH1 0x40 MLOAD PUSH32 0x8C379A000000000000000000000000000000000000000000000000000000000 DUP2 MSTORE PUSH1 0x4 ADD PUSH2 0x462 SWAP1 PUSH2 0x1912 JUMP JUMPDEST PUSH1 0x40 MLOAD DUP1 SWAP2 SUB SWAP1 REVERT JUMPDEST CALLVALUE PUSH1 0x2 PUSH1 0x0 DUP4 DUP2 MSTORE PUSH1 0x20 ADD SWAP1 DUP2 MSTORE PUSH1 0x20 ADD PUSH1 0x0 KECCAK256 PUSH1 0x3 ADD SLOAD EQ PUSH2 0x4C3 JUMPI PUSH1 0x40 MLOAD PUSH32 0x8C379A000000000000000000000000000000000000000000000000000000000 DUP2 MSTORE PUSH1 0x4 ADD PUSH2 0x4BA SWAP1 PUSH2 0x18F2 JUMP JUMPDEST PUSH1 0x40 MLOAD DUP1 SWAP2 SUB SWAP1 REVERT JUMPDEST PUSH1 0x1 PUSH1 0x2 PUSH1 0x0 DUP4 DUP2 MSTORE PUSH1 0x20 ADD SWAP1 DUP2 MSTORE PUSH1 0x20 ADD PUSH1 0x0 KECCAK256 PUSH1 0x4 ADD PUSH1 0x14 PUSH2 0x100 EXP DUP2 SLOAD DUP2 PUSH1 0xFF MUL NOT AND SWAP1 DUP4 ISZERO ISZERO MUL OR SWAP1 SSTORE POP PUSH1 0x2 PUSH1 0x0 DUP3 DUP2 MSTORE PUSH1 0x20 ADD SWAP1 DUP2 MSTORE PUSH1 0x20 ADD PUSH1 0x0 KECCAK256 PUSH1 0x4 ADD PUSH1 0x0 SWAP1 SLOAD SWAP1 PUSH2 0x100 EXP SWAP1 DIV PUSH20 0xFFFFFFFFFFFFFFFFFFFFFFFFFFFFFFFFFFFFFFFF AND PUSH20 0xFFFFFFFFFFFFFFFFFFFFFFFFFFFFFFFFFFFFFFFF AND PUSH2 0x8FC CALLVALUE SWAP1 DUP2 ISZERO MUL SWAP1 PUSH1 0x40 MLOAD PUSH1 0x0 PUSH1 0x40 MLOAD DUP1 DUP4 SUB DUP2 DUP6 DUP9 DUP9 CALL SWAP4 POP POP POP POP ISZERO DUP1 ISZERO PUSH2 0x56E JUMPI RETURNDATASIZE PUSH1 0x0 DUP1 RETURNDATACOPY RETURNDATASIZE PUSH1 0x0 REVERT JUMPDEST POP POP JUMP JUMPDEST PUSH2 0x57A PUSH2 0xDD6 JUMP JUMPDEST PUSH20 0xFFFFFFFFFFFFFFFFFFFFFFFFFFFFFFFFFFFFFFFF AND DUP2 PUSH20 0xFFFFFFFFFFFFFFFFFFFFFFFFFFFFFFFFFFFFFFFF AND EQ PUSH2 0x5E7 JUMPI PUSH1 0x40 MLOAD PUSH32 0x8C379A000000000000000000000000000000000000000000000000000000000 DUP2 MSTORE PUSH1 0x4 ADD PUSH2 0x5DE SWAP1 PUSH2 0x1992 JUMP JUMPDEST PUSH1 0x40 MLOAD DUP1 SWAP2 SUB SWAP1 REVERT JUMPDEST PUSH2 0x5F1 DUP3 DUP3 PUSH2 0xF5B JUMP JUMPDEST POP POP JUMP JUMPDEST PUSH1 0x1 SLOAD DUP2 JUMP JUMPDEST PUSH1 0x60 DUP1 PUSH1 0x0 DUP1 PUSH1 0x0 PUSH1 0x2 PUSH1 0x0 DUP8 DUP2 MSTORE PUSH1 0x20 ADD SWAP1 DUP2 MSTORE PUSH1 0x20 ADD PUSH1 0x0 KECCAK256 PUSH1 0x40 MLOAD DUP1 PUSH2 0x120 ADD PUSH1 0x40 MSTORE SWAP1 DUP2 PUSH1 0x0 DUP3 ADD SLOAD DUP2 MSTORE PUSH1 0x20 ADD PUSH1 0x1 DUP3 ADD DUP1 SLOAD PUSH2 0x63C SWAP1 PUSH2 0x1C03 JUMP JUMPDEST DUP1 PUSH1 0x1F ADD PUSH1 0x20 DUP1 SWAP2 DIV MUL PUSH1 0x20 ADD PUSH1 0x40 MLOAD SWAP1 DUP2 ADD PUSH1 0x40 MSTORE DUP1 SWAP3 SWAP2 SWAP1 DUP2 DUP2 MSTORE PUSH1 0x20 ADD DUP3 DUP1 SLOAD PUSH2 0x668 SWAP1 PUSH2 0x1C03 JUMP JUMPDEST DUP1 ISZERO PUSH2 0x6B5 JUMPI DUP1 PUSH1 0x1F LT PUSH2 0x68A JUMPI PUSH2 0x100 DUP1 DUP4 SLOAD DIV MUL DUP4 MSTORE SWAP2 PUSH1 0x20 ADD SWAP2 PUSH2 0x6B5 JUMP JUMPDEST DUP3 ADD SWAP2 SWAP1 PUSH1 0x0 MSTORE PUSH1 0x20 PUSH1 0x0 KECCAK256 SWAP1 JUMPDEST DUP2 SLOAD DUP2 MSTORE SWAP1 PUSH1 0x1 ADD SWAP1 PUSH1 0x20 ADD DUP1 DUP4 GT PUSH2 0x698 JUMPI DUP3 SWAP1 SUB PUSH1 0x1F AND DUP3 ADD SWAP2 JUMPDEST POP POP POP POP POP DUP2 MSTORE PUSH1 0x20 ADD PUSH1 0x2 DUP3 ADD DUP1 SLOAD PUSH2 0x6CE SWAP1 PUSH2 0x1C03 JUMP JUMPDEST DUP1 PUSH1 0x1F ADD PUSH1 0x20 DUP1 SWAP2 DIV MUL PUSH1 0x20 ADD PUSH1 0x40 MLOAD SWAP1 DUP2 ADD PUSH1 0x40 MSTORE DUP1 SWAP3 SWAP2 SWAP1 DUP2 DUP2 MSTORE PUSH1 0x20 ADD DUP3 DUP1 SLOAD PUSH2 0x6FA SWAP1 PUSH2 0x1C03 JUMP JUMPDEST DUP1 ISZERO PUSH2 0x747 JUMPI DUP1 PUSH1 0x1F LT PUSH2 0x71C JUMPI PUSH2 0x100 DUP1 DUP4 SLOAD DIV MUL DUP4 MSTORE SWAP2 PUSH1 0x20 ADD SWAP2 PUSH2 0x747 JUMP JUMPDEST DUP3 ADD SWAP2 SWAP1 PUSH1 0x0 MSTORE PUSH1 0x20 PUSH1 0x0 KECCAK256 SWAP1 JUMPDEST DUP2 SLOAD DUP2 MSTORE SWAP1 PUSH1 0x1 ADD SWAP1 PUSH1 0x20 ADD DUP1 DUP4 GT PUSH2 0x72A JUMPI DUP3 SWAP1 SUB PUSH1 0x1F AND DUP3 ADD SWAP2 JUMPDEST POP POP POP POP POP DUP2 MSTORE PUSH1 0x20 ADD PUSH1 0x3 DUP3 ADD SLOAD DUP2 MSTORE PUSH1 0x20 ADD PUSH1 0x4 DUP3 ADD PUSH1 0x0 SWAP1 SLOAD SWAP1 PUSH2 0x100 EXP SWAP1 DIV PUSH20 0xFFFFFFFFFFFFFFFFFFFFFFFFFFFFFFFFFFFFFFFF AND PUSH20 0xFFFFFFFFFFFFFFFFFFFFFFFFFFFFFFFFFFFFFFFF AND PUSH20 0xFFFFFFFFFFFFFFFFFFFFFFFFFFFFFFFFFFFFFFFF AND DUP2 MSTORE PUSH1 0x20 ADD PUSH1 0x4 DUP3 ADD PUSH1 0x14 SWAP1 SLOAD SWAP1 PUSH2 0x100 EXP SWAP1 DIV PUSH1 0xFF AND ISZERO ISZERO ISZERO ISZERO DUP2 MSTORE PUSH1 0x20 ADD PUSH1 0x5 DUP3 ADD DUP1 SLOAD PUSH2 0x7DB SWAP1 PUSH2 0x1C03 JUMP JUMPDEST DUP1 PUSH1 0x1F ADD PUSH1 0x20 DUP1 SWAP2 DIV MUL PUSH1 0x20 ADD PUSH1 0x40 MLOAD SWAP1 DUP2 ADD PUSH1 0x40 MSTORE DUP1 SWAP3 SWAP2 SWAP1 DUP2 DUP2 MSTORE PUSH1 0x20 ADD DUP3 DUP1 SLOAD PUSH2 0x807 SWAP1 PUSH2 0x1C03 JUMP JUMPDEST DUP1 ISZERO PUSH2 0x854 JUMPI DUP1 PUSH1 0x1F LT PUSH2 0x829 JUMPI PUSH2 0x100 DUP1 DUP4 SLOAD DIV MUL DUP4 MSTORE SWAP2 PUSH1 0x20 ADD SWAP2 PUSH2 0x854 JUMP JUMPDEST DUP3 ADD SWAP2 SWAP1 PUSH1 0x0 MSTORE PUSH1 0x20 PUSH1 0x0 KECCAK256 SWAP1 JUMPDEST DUP2 SLOAD DUP2 MSTORE SWAP1 PUSH1 0x1 ADD SWAP1 PUSH1 0x20 ADD DUP1 DUP4 GT PUSH2 0x837 JUMPI DUP3 SWAP1 SUB PUSH1 0x1F AND DUP3 ADD SWAP2 JUMPDEST POP POP POP POP POP DUP2 MSTORE PUSH1 0x20 ADD PUSH1 0x6 DUP3 ADD PUSH1 0x0 SWAP1 SLOAD SWAP1 PUSH2 0x100 EXP SWAP1 DIV PUSH1 0xFF AND PUSH1 0xFF AND PUSH1 0xFF AND DUP2 MSTORE PUSH1 0x20 ADD PUSH1 0x6 DUP3 ADD PUSH1 0x1 SWAP1 SLOAD SWAP1 PUSH2 0x100 EXP SWAP1 DIV PUSH1 0xFF AND PUSH1 0xFF AND PUSH1 0xFF AND DUP2 MSTORE POP POP SWAP1 POP DUP1 PUSH1 0x40 ADD MLOAD DUP2 PUSH1 0xC0 ADD MLOAD DUP3 PUSH1 0xE0 ADD MLOAD DUP4 PUSH2 0x100 ADD MLOAD SWAP5 POP SWAP5 POP SWAP5 POP SWAP5 POP POP SWAP2 SWAP4 POP SWAP2 SWAP4 JUMP JUMPDEST PUSH1 0x0 DUP1 PUSH1 0x0 DUP5 DUP2 MSTORE PUSH1 0x20 ADD SWAP1 DUP2 MSTORE PUSH1 0x20 ADD PUSH1 0x0 KECCAK256 PUSH1 0x0 ADD PUSH1 0x0 DUP4 PUSH20 0xFFFFFFFFFFFFFFFFFFFFFFFFFFFFFFFFFFFFFFFF AND PUSH20 0xFFFFFFFFFFFFFFFFFFFFFFFFFFFFFFFFFFFFFFFF AND DUP2 MSTORE PUSH1 0x20 ADD SWAP1 DUP2 MSTORE PUSH1 0x20 ADD PUSH1 0x0 KECCAK256 PUSH1 0x0 SWAP1 SLOAD SWAP1 PUSH2 0x100 EXP SWAP1 DIV PUSH1 0xFF AND SWAP1 POP SWAP3 SWAP2 POP POP JUMP JUMPDEST PUSH1 0x0 DUP1 SHL DUP2 JUMP JUMPDEST DUP4 PUSH20 0xFFFFFFFFFFFFFFFFFFFFFFFFFFFFFFFFFFFFFFFF AND CALLER PUSH20 0xFFFFFFFFFFFFFFFFFFFFFFFFFFFFFFFFFFFFFFFF AND EQ PUSH2 0x99D JUMPI PUSH1 0x40 MLOAD PUSH32 0x8C379A000000000000000000000000000000000000000000000000000000000 DUP2 MSTORE PUSH1 0x4 ADD PUSH2 0x994 SWAP1 PUSH2 0x1932 JUMP JUMPDEST PUSH1 0x40 MLOAD DUP1 SWAP2 SUB SWAP1 REVERT JUMPDEST PUSH1 0x0 DUP4 GT PUSH2 0x9E0 JUMPI PUSH1 0x40 MLOAD PUSH32 0x8C379A000000000000000000000000000000000000000000000000000000000 DUP2 MSTORE PUSH1 0x4 ADD PUSH2 0x9D7 SWAP1 PUSH2 0x1972 JUMP JUMPDEST PUSH1 0x40 MLOAD DUP1 SWAP2 SUB SWAP1 REVERT JUMPDEST PUSH1 0x2 PUSH1 0x0 PUSH1 0x1 SLOAD DUP2 MSTORE PUSH1 0x20 ADD SWAP1 DUP2 MSTORE PUSH1 0x20 ADD PUSH1 0x0 KECCAK256 PUSH1 0x4 ADD PUSH1 0x14 SWAP1 SLOAD SWAP1 PUSH2 0x100 EXP SWAP1 DIV PUSH1 0xFF AND ISZERO PUSH2 0xA46 JUMPI PUSH1 0x40 MLOAD PUSH32 0x8C379A000000000000000000000000000000000000000000000000000000000 DUP2 MSTORE PUSH1 0x4 ADD PUSH2 0xA3D SWAP1 PUSH2 0x1952 JUMP JUMPDEST PUSH1 0x40 MLOAD DUP1 SWAP2 SUB SWAP1 REVERT JUMPDEST PUSH1 0x40 MLOAD DUP1 PUSH2 0x120 ADD PUSH1 0x40 MSTORE DUP1 PUSH1 0x1 SLOAD DUP2 MSTORE PUSH1 0x20 ADD DUP8 DUP2 MSTORE PUSH1 0x20 ADD DUP7 DUP2 MSTORE PUSH1 0x20 ADD DUP5 DUP2 MSTORE PUSH1 0x20 ADD DUP6 PUSH20 0xFFFFFFFFFFFFFFFFFFFFFFFFFFFFFFFFFFFFFFFF AND DUP2 MSTORE PUSH1 0x20 ADD PUSH1 0x0 ISZERO ISZERO DUP2 MSTORE PUSH1 0x20 ADD DUP4 DUP2 MSTORE PUSH1 0x20 ADD PUSH1 0x0 PUSH1 0xFF AND DUP2 MSTORE PUSH1 0x20 ADD DUP3 PUSH1 0xFF AND DUP2 MSTORE POP PUSH1 0x2 PUSH1 0x0 PUSH1 0x1 SLOAD DUP2 MSTORE PUSH1 0x20 ADD SWAP1 DUP2 MSTORE PUSH1 0x20 ADD PUSH1 0x0 KECCAK256 PUSH1 0x0 DUP3 ADD MLOAD DUP2 PUSH1 0x0 ADD SSTORE PUSH1 0x20 DUP3 ADD MLOAD DUP2 PUSH1 0x1 ADD SWAP1 DUP1 MLOAD SWAP1 PUSH1 0x20 ADD SWAP1 PUSH2 0xAE3 SWAP3 SWAP2 SWAP1 PUSH2 0x1278 JUMP JUMPDEST POP PUSH1 0x40 DUP3 ADD MLOAD DUP2 PUSH1 0x2 ADD SWAP1 DUP1 MLOAD SWAP1 PUSH1 0x20 ADD SWAP1 PUSH2 0xB00 SWAP3 SWAP2 SWAP1 PUSH2 0x1278 JUMP JUMPDEST POP PUSH1 0x60 DUP3 ADD MLOAD DUP2 PUSH1 0x3 ADD SSTORE PUSH1 0x80 DUP3 ADD MLOAD DUP2 PUSH1 0x4 ADD PUSH1 0x0 PUSH2 0x100 EXP DUP2 SLOAD DUP2 PUSH20 0xFFFFFFFFFFFFFFFFFFFFFFFFFFFFFFFFFFFFFFFF MUL NOT AND SWAP1 DUP4 PUSH20 0xFFFFFFFFFFFFFFFFFFFFFFFFFFFFFFFFFFFFFFFF AND MUL OR SWAP1 SSTORE POP PUSH1 0xA0 DUP3 ADD MLOAD DUP2 PUSH1 0x4 ADD PUSH1 0x14 PUSH2 0x100 EXP DUP2 SLOAD DUP2 PUSH1 0xFF MUL NOT AND SWAP1 DUP4 ISZERO ISZERO MUL OR SWAP1 SSTORE POP PUSH1 0xC0 DUP3 ADD MLOAD DUP2 PUSH1 0x5 ADD SWAP1 DUP1 MLOAD SWAP1 PUSH1 0x20 ADD SWAP1 PUSH2 0xB8E SWAP3 SWAP2 SWAP1 PUSH2 0x1278 JUMP JUMPDEST POP PUSH1 0xE0 DUP3 ADD MLOAD DUP2 PUSH1 0x6 ADD PUSH1 0x0 PUSH2 0x100 EXP DUP2 SLOAD DUP2 PUSH1 0xFF MUL NOT AND SWAP1 DUP4 PUSH1 0xFF AND MUL OR SWAP1 SSTORE POP PUSH2 0x100 DUP3 ADD MLOAD DUP2 PUSH1 0x6 ADD PUSH1 0x1 PUSH2 0x100 EXP DUP2 SLOAD DUP2 PUSH1 0xFF MUL NOT AND SWAP1 DUP4 PUSH1 0xFF AND MUL OR SWAP1 SSTORE POP SWAP1 POP POP PUSH1 0x1 PUSH1 0x0 DUP2 SLOAD DUP1 SWAP3 SWAP2 SWAP1 PUSH2 0xBE8 SWAP1 PUSH2 0x1C66 JUMP JUMPDEST SWAP2 SWAP1 POP SSTORE POP POP POP POP POP POP POP JUMP JUMPDEST PUSH32 0x1F9CA85E780B3B3CFBE1334CA9DD68802DB7860F692BD163C796BB76D464EDC0 DUP2 JUMP JUMPDEST PUSH1 0x60 PUSH1 0x0 DUP1 PUSH1 0x0 PUSH1 0x2 PUSH1 0x0 DUP7 DUP2 MSTORE PUSH1 0x20 ADD SWAP1 DUP2 MSTORE PUSH1 0x20 ADD PUSH1 0x0 KECCAK256 PUSH1 0x1 ADD PUSH1 0x2 PUSH1 0x0 DUP8 DUP2 MSTORE PUSH1 0x20 ADD SWAP1 DUP2 MSTORE PUSH1 0x20 ADD PUSH1 0x0 KECCAK256 PUSH1 0x4 ADD PUSH1 0x0 SWAP1 SLOAD SWAP1 PUSH2 0x100 EXP SWAP1 DIV PUSH20 0xFFFFFFFFFFFFFFFFFFFFFFFFFFFFFFFFFFFFFFFF AND PUSH1 0x2 PUSH1 0x0 DUP9 DUP2 MSTORE PUSH1 0x20 ADD SWAP1 DUP2 MSTORE PUSH1 0x20 ADD PUSH1 0x0 KECCAK256 PUSH1 0x3 ADD SLOAD PUSH1 0x2 PUSH1 0x0 DUP10 DUP2 MSTORE PUSH1 0x20 ADD SWAP1 DUP2 MSTORE PUSH1 0x20 ADD PUSH1 0x0 KECCAK256 PUSH1 0x4 ADD PUSH1 0x14 SWAP1 SLOAD SWAP1 PUSH2 0x100 EXP SWAP1 DIV PUSH1 0xFF AND DUP4 DUP1 SLOAD PUSH2 0xCB4 SWAP1 PUSH2 0x1C03 JUMP JUMPDEST DUP1 PUSH1 0x1F ADD PUSH1 0x20 DUP1 SWAP2 DIV MUL PUSH1 0x20 ADD PUSH1 0x40 MLOAD SWAP1 DUP2 ADD PUSH1 0x40 MSTORE DUP1 SWAP3 SWAP2 SWAP1 DUP2 DUP2 MSTORE PUSH1 0x20 ADD DUP3 DUP1 SLOAD PUSH2 0xCE0 SWAP1 PUSH2 0x1C03 JUMP JUMPDEST DUP1 ISZERO PUSH2 0xD2D JUMPI DUP1 PUSH1 0x1F LT PUSH2 0xD02 JUMPI PUSH2 0x100 DUP1 DUP4 SLOAD DIV MUL DUP4 MSTORE SWAP2 PUSH1 0x20 ADD SWAP2 PUSH2 0xD2D JUMP JUMPDEST DUP3 ADD SWAP2 SWAP1 PUSH1 0x0 MSTORE PUSH1 0x20 PUSH1 0x0 KECCAK256 SWAP1 JUMPDEST DUP2 SLOAD DUP2 MSTORE SWAP1 PUSH1 0x1 ADD SWAP1 PUSH1 0x20 ADD DUP1 DUP4 GT PUSH2 0xD10 JUMPI DUP3 SWAP1 SUB PUSH1 0x1F AND DUP3 ADD SWAP2 JUMPDEST POP POP POP POP POP SWAP4 POP SWAP4 POP SWAP4 POP SWAP4 POP SWAP4 POP SWAP2 SWAP4 POP SWAP2 SWAP4 JUMP JUMPDEST PUSH2 0xD4C DUP3 PUSH2 0x3B9 JUMP JUMPDEST PUSH2 0xD5D DUP2 PUSH2 0xD58 PUSH2 0xDD6 JUMP JUMPDEST PUSH2 0xDDE JUMP JUMPDEST PUSH2 0xD67 DUP4 DUP4 PUSH2 0xF5B JUMP JUMPDEST POP POP POP JUMP JUMPDEST PUSH1 0x0 PUSH32 0x1FFC9A700000000000000000000000000000000000000000000000000000000 PUSH28 0xFFFFFFFFFFFFFFFFFFFFFFFFFFFFFFFFFFFFFFFFFFFFFFFFFFFFFFFF NOT AND DUP3 PUSH28 0xFFFFFFFFFFFFFFFFFFFFFFFFFFFFFFFFFFFFFFFFFFFFFFFFFFFFFFFF NOT AND EQ SWAP1 POP SWAP2 SWAP1 POP JUMP JUMPDEST PUSH1 0x0 CALLER SWAP1 POP SWAP1 JUMP JUMPDEST PUSH2 0xDE8 DUP3 DUP3 PUSH2 0x8BE JUMP JUMPDEST PUSH2 0xE77 JUMPI PUSH2 0xE0D DUP2 PUSH20 0xFFFFFFFFFFFFFFFFFFFFFFFFFFFFFFFFFFFFFFFF AND PUSH1 0x14 PUSH2 0x103C JUMP JUMPDEST PUSH2 0xE1B DUP4 PUSH1 0x0 SHR PUSH1 0x20 PUSH2 0x103C JUMP JUMPDEST PUSH1 0x40 MLOAD PUSH1 0x20 ADD PUSH2 0xE2C SWAP3 SWAP2 SWAP1 PUSH2 0x17A1 JUMP JUMPDEST PUSH1 0x40 MLOAD PUSH1 0x20 DUP2 DUP4 SUB SUB DUP2 MSTORE SWAP1 PUSH1 0x40 MSTORE PUSH1 0x40 MLOAD PUSH32 0x8C379A000000000000000000000000000000000000000000000000000000000 DUP2 MSTORE PUSH1 0x4 ADD PUSH2 0xE6E SWAP2 SWAP1 PUSH2 0x1811 JUMP JUMPDEST PUSH1 0x40 MLOAD DUP1 SWAP2 SUB SWAP1 REVERT JUMPDEST POP POP JUMP JUMPDEST PUSH2 0xE85 DUP3 DUP3 PUSH2 0x8BE JUMP JUMPDEST PUSH2 0xF57 JUMPI PUSH1 0x1 PUSH1 0x0 DUP1 DUP5 DUP2 MSTORE PUSH1 0x20 ADD SWAP1 DUP2 MSTORE PUSH1 0x20 ADD PUSH1 0x0 KECCAK256 PUSH1 0x0 ADD PUSH1 0x0 DUP4 PUSH20 0xFFFFFFFFFFFFFFFFFFFFFFFFFFFFFFFFFFFFFFFF AND PUSH20 0xFFFFFFFFFFFFFFFFFFFFFFFFFFFFFFFFFFFFFFFF AND DUP2 MSTORE PUSH1 0x20 ADD SWAP1 DUP2 MSTORE PUSH1 0x20 ADD PUSH1 0x0 KECCAK256 PUSH1 0x0 PUSH2 0x100 EXP DUP2 SLOAD DUP2 PUSH1 0xFF MUL NOT AND SWAP1 DUP4 ISZERO ISZERO MUL OR SWAP1 SSTORE POP PUSH2 0xEFC PUSH2 0xDD6 JUMP JUMPDEST PUSH20 0xFFFFFFFFFFFFFFFFFFFFFFFFFFFFFFFFFFFFFFFF AND DUP2 PUSH20 0xFFFFFFFFFFFFFFFFFFFFFFFFFFFFFFFFFFFFFFFF AND DUP4 PUSH32 0x2F8788117E7EFF1D82E926EC794901D17C78024A50270940304540A733656F0D PUSH1 0x40 MLOAD PUSH1 0x40 MLOAD DUP1 SWAP2 SUB SWAP1 LOG4 JUMPDEST POP POP JUMP JUMPDEST PUSH2 0xF65 DUP3 DUP3 PUSH2 0x8BE JUMP JUMPDEST ISZERO PUSH2 0x1038 JUMPI PUSH1 0x0 DUP1 PUSH1 0x0 DUP5 DUP2 MSTORE PUSH1 0x20 ADD SWAP1 DUP2 MSTORE PUSH1 0x20 ADD PUSH1 0x0 KECCAK256 PUSH1 0x0 ADD PUSH1 0x0 DUP4 PUSH20 0xFFFFFFFFFFFFFFFFFFFFFFFFFFFFFFFFFFFFFFFF AND PUSH20 0xFFFFFFFFFFFFFFFFFFFFFFFFFFFFFFFFFFFFFFFF AND DUP2 MSTORE PUSH1 0x20 ADD SWAP1 DUP2 MSTORE PUSH1 0x20 ADD PUSH1 0x0 KECCAK256 PUSH1 0x0 PUSH2 0x100 EXP DUP2 SLOAD DUP2 PUSH1 0xFF MUL NOT AND SWAP1 DUP4 ISZERO ISZERO MUL OR SWAP1 SSTORE POP PUSH2 0xFDD PUSH2 0xDD6 JUMP JUMPDEST PUSH20 0xFFFFFFFFFFFFFFFFFFFFFFFFFFFFFFFFFFFFFFFF AND DUP2 PUSH20 0xFFFFFFFFFFFFFFFFFFFFFFFFFFFFFFFFFFFFFFFF AND DUP4 PUSH32 0xF6391F5C32D9C69D2A47EA670B442974B53935D1EDC7FD64EB21E047A839171B PUSH1 0x40 MLOAD PUSH1 0x40 MLOAD DUP1 SWAP2 SUB SWAP1 LOG4 JUMPDEST POP POP JUMP JUMPDEST PUSH1 0x60 PUSH1 0x0 PUSH1 0x2 DUP4 PUSH1 0x2 PUSH2 0x104F SWAP2 SWAP1 PUSH2 0x1AA0 JUMP JUMPDEST PUSH2 0x1059 SWAP2 SWAP1 PUSH2 0x1A4A JUMP JUMPDEST PUSH8 0xFFFFFFFFFFFFFFFF DUP2 GT ISZERO PUSH2 0x1072 JUMPI PUSH2 0x1071 PUSH2 0x1D3C JUMP JUMPDEST JUMPDEST PUSH1 0x40 MLOAD SWAP1 DUP1 DUP3 MSTORE DUP1 PUSH1 0x1F ADD PUSH1 0x1F NOT AND PUSH1 0x20 ADD DUP3 ADD PUSH1 0x40 MSTORE DUP1 ISZERO PUSH2 0x10A4 JUMPI DUP2 PUSH1 0x20 ADD PUSH1 0x1 DUP3 MUL DUP1 CALLDATASIZE DUP4 CALLDATACOPY DUP1 DUP3 ADD SWAP2 POP POP SWAP1 POP JUMPDEST POP SWAP1 POP PUSH32 0x3000000000000000000000000000000000000000000000000000000000000000 DUP2 PUSH1 0x0 DUP2 MLOAD DUP2 LT PUSH2 0x10DC JUMPI PUSH2 0x10DB PUSH2 0x1D0D JUMP JUMPDEST JUMPDEST PUSH1 0x20 ADD ADD SWAP1 PUSH31 0xFFFFFFFFFFFFFFFFFFFFFFFFFFFFFFFFFFFFFFFFFFFFFFFFFFFFFFFFFFFFFF NOT AND SWAP1 DUP2 PUSH1 0x0 BYTE SWAP1 MSTORE8 POP PUSH32 0x7800000000000000000000000000000000000000000000000000000000000000 DUP2 PUSH1 0x1 DUP2 MLOAD DUP2 LT PUSH2 0x1140 JUMPI PUSH2 0x113F PUSH2 0x1D0D JUMP JUMPDEST JUMPDEST PUSH1 0x20 ADD ADD SWAP1 PUSH31 0xFFFFFFFFFFFFFFFFFFFFFFFFFFFFFFFFFFFFFFFFFFFFFFFFFFFFFFFFFFFFFF NOT AND SWAP1 DUP2 PUSH1 0x0 BYTE SWAP1 MSTORE8 POP PUSH1 0x0 PUSH1 0x1 DUP5 PUSH1 0x2 PUSH2 0x1180 SWAP2 SWAP1 PUSH2 0x1AA0 JUMP JUMPDEST PUSH2 0x118A SWAP2 SWAP1 PUSH2 0x1A4A JUMP JUMPDEST SWAP1 POP JUMPDEST PUSH1 0x1 DUP2 GT ISZERO PUSH2 0x122A JUMPI PUSH32 0x3031323334353637383961626364656600000000000000000000000000000000 PUSH1 0xF DUP7 AND PUSH1 0x10 DUP2 LT PUSH2 0x11CC JUMPI PUSH2 0x11CB PUSH2 0x1D0D JUMP JUMPDEST JUMPDEST BYTE PUSH1 0xF8 SHL DUP3 DUP3 DUP2 MLOAD DUP2 LT PUSH2 0x11E3 JUMPI PUSH2 0x11E2 PUSH2 0x1D0D JUMP JUMPDEST JUMPDEST PUSH1 0x20 ADD ADD SWAP1 PUSH31 0xFFFFFFFFFFFFFFFFFFFFFFFFFFFFFFFFFFFFFFFFFFFFFFFFFFFFFFFFFFFFFF NOT AND SWAP1 DUP2 PUSH1 0x0 BYTE SWAP1 MSTORE8 POP PUSH1 0x4 DUP6 SWAP1 SHR SWAP5 POP DUP1 PUSH2 0x1223 SWAP1 PUSH2 0x1BD9 JUMP JUMPDEST SWAP1 POP PUSH2 0x118D JUMP JUMPDEST POP PUSH1 0x0 DUP5 EQ PUSH2 0x126E JUMPI PUSH1 0x40 MLOAD PUSH32 0x8C379A000000000000000000000000000000000000000000000000000000000 DUP2 MSTORE PUSH1 0x4 ADD PUSH2 0x1265 SWAP1 PUSH2 0x18D2 JUMP JUMPDEST PUSH1 0x40 MLOAD DUP1 SWAP2 SUB SWAP1 REVERT JUMPDEST DUP1 SWAP2 POP POP SWAP3 SWAP2 POP POP JUMP JUMPDEST DUP3 DUP1 SLOAD PUSH2 0x1284 SWAP1 PUSH2 0x1C03 JUMP JUMPDEST SWAP1 PUSH1 0x0 MSTORE PUSH1 0x20 PUSH1 0x0 KECCAK256 SWAP1 PUSH1 0x1F ADD PUSH1 0x20 SWAP1 DIV DUP2 ADD SWAP3 DUP3 PUSH2 0x12A6 JUMPI PUSH1 0x0 DUP6 SSTORE PUSH2 0x12ED JUMP JUMPDEST DUP3 PUSH1 0x1F LT PUSH2 0x12BF JUMPI DUP1 MLOAD PUSH1 0xFF NOT AND DUP4 DUP1 ADD OR DUP6 SSTORE PUSH2 0x12ED JUMP JUMPDEST DUP3 DUP1 ADD PUSH1 0x1 ADD DUP6 SSTORE DUP3 ISZERO PUSH2 0x12ED JUMPI SWAP2 DUP3 ADD JUMPDEST DUP3 DUP2 GT ISZERO PUSH2 0x12EC JUMPI DUP3 MLOAD DUP3 SSTORE SWAP2 PUSH1 0x20 ADD SWAP2 SWAP1 PUSH1 0x1 ADD SWAP1 PUSH2 0x12D1 JUMP JUMPDEST JUMPDEST POP SWAP1 POP PUSH2 0x12FA SWAP2 SWAP1 PUSH2 0x12FE JUMP JUMPDEST POP SWAP1 JUMP JUMPDEST JUMPDEST DUP1 DUP3 GT ISZERO PUSH2 0x1317 JUMPI PUSH1 0x0 DUP2 PUSH1 0x0 SWAP1 SSTORE POP PUSH1 0x1 ADD PUSH2 0x12FF JUMP JUMPDEST POP SWAP1 JUMP JUMPDEST PUSH1 0x0 PUSH2 0x132E PUSH2 0x1329 DUP5 PUSH2 0x19F2 JUMP JUMPDEST PUSH2 0x19CD JUMP JUMPDEST SWAP1 POP DUP3 DUP2 MSTORE PUSH1 0x20 DUP2 ADD DUP5 DUP5 DUP5 ADD GT ISZERO PUSH2 0x134A JUMPI PUSH2 0x1349 PUSH2 0x1D70 JUMP JUMPDEST JUMPDEST PUSH2 0x1355 DUP5 DUP3 DUP6 PUSH2 0x1B97 JUMP JUMPDEST POP SWAP4 SWAP3 POP POP POP JUMP JUMPDEST PUSH1 0x0 DUP2 CALLDATALOAD SWAP1 POP PUSH2 0x136C DUP2 PUSH2 0x1F4D JUMP JUMPDEST SWAP3 SWAP2 POP POP JUMP JUMPDEST PUSH1 0x0 DUP2 CALLDATALOAD SWAP1 POP PUSH2 0x1381 DUP2 PUSH2 0x1F64 JUMP JUMPDEST SWAP3 SWAP2 POP POP JUMP JUMPDEST PUSH1 0x0 DUP2 CALLDATALOAD SWAP1 POP PUSH2 0x1396 DUP2 PUSH2 0x1F7B JUMP JUMPDEST SWAP3 SWAP2 POP POP JUMP JUMPDEST PUSH1 0x0 DUP2 CALLDATALOAD SWAP1 POP PUSH2 0x13AB DUP2 PUSH2 0x1F92 JUMP JUMPDEST SWAP3 SWAP2 POP POP JUMP JUMPDEST PUSH1 0x0 DUP3 PUSH1 0x1F DUP4 ADD SLT PUSH2 0x13C6 JUMPI PUSH2 0x13C5 PUSH2 0x1D6B JUMP JUMPDEST JUMPDEST DUP2 CALLDATALOAD PUSH2 0x13D6 DUP5 DUP3 PUSH1 0x20 DUP7 ADD PUSH2 0x131B JUMP JUMPDEST SWAP2 POP POP SWAP3 SWAP2 POP POP JUMP JUMPDEST PUSH1 0x0 DUP2 CALLDATALOAD SWAP1 POP PUSH2 0x13EE DUP2 PUSH2 0x1FA9 JUMP JUMPDEST SWAP3 SWAP2 POP POP JUMP JUMPDEST PUSH1 0x0 DUP2 CALLDATALOAD SWAP1 POP PUSH2 0x1403 DUP2 PUSH2 0x1FC0 JUMP JUMPDEST SWAP3 SWAP2 POP POP JUMP JUMPDEST PUSH1 0x0 PUSH1 0x20 DUP3 DUP5 SUB SLT ISZERO PUSH2 0x141F JUMPI PUSH2 0x141E PUSH2 0x1D7A JUMP JUMPDEST JUMPDEST PUSH1 0x0 PUSH2 0x142D DUP5 DUP3 DUP6 ADD PUSH2 0x1387 JUMP JUMPDEST SWAP2 POP POP SWAP3 SWAP2 POP POP JUMP JUMPDEST PUSH1 0x0 DUP1 PUSH1 0x40 DUP4 DUP6 SUB SLT ISZERO PUSH2 0x144D JUMPI PUSH2 0x144C PUSH2 0x1D7A JUMP JUMPDEST JUMPDEST PUSH1 0x0 PUSH2 0x145B DUP6 DUP3 DUP7 ADD PUSH2 0x1387 JUMP JUMPDEST SWAP3 POP POP PUSH1 0x20 PUSH2 0x146C DUP6 DUP3 DUP7 ADD PUSH2 0x135D JUMP JUMPDEST SWAP2 POP POP SWAP3 POP SWAP3 SWAP1 POP JUMP JUMPDEST PUSH1 0x0 PUSH1 0x20 DUP3 DUP5 SUB SLT ISZERO PUSH2 0x148C JUMPI PUSH2 0x148B PUSH2 0x1D7A JUMP JUMPDEST JUMPDEST PUSH1 0x0 PUSH2 0x149A DUP5 DUP3 DUP6 ADD PUSH2 0x139C JUMP JUMPDEST SWAP2 POP POP SWAP3 SWAP2 POP POP JUMP JUMPDEST PUSH1 0x0 DUP1 PUSH1 0x0 DUP1 PUSH1 0x0 DUP1 PUSH1 0xC0 DUP8 DUP10 SUB SLT ISZERO PUSH2 0x14C0 JUMPI PUSH2 0x14BF PUSH2 0x1D7A JUMP JUMPDEST JUMPDEST PUSH1 0x0 DUP8 ADD CALLDATALOAD PUSH8 0xFFFFFFFFFFFFFFFF DUP2 GT ISZERO PUSH2 0x14DE JUMPI PUSH2 0x14DD PUSH2 0x1D75 JUMP JUMPDEST JUMPDEST PUSH2 0x14EA DUP10 DUP3 DUP11 ADD PUSH2 0x13B1 JUMP JUMPDEST SWAP7 POP POP PUSH1 0x20 DUP8 ADD CALLDATALOAD PUSH8 0xFFFFFFFFFFFFFFFF DUP2 GT ISZERO PUSH2 0x150B JUMPI PUSH2 0x150A PUSH2 0x1D75 JUMP JUMPDEST JUMPDEST PUSH2 0x1517 DUP10 DUP3 DUP11 ADD PUSH2 0x13B1 JUMP JUMPDEST SWAP6 POP POP PUSH1 0x40 PUSH2 0x1528 DUP10 DUP3 DUP11 ADD PUSH2 0x1372 JUMP JUMPDEST SWAP5 POP POP PUSH1 0x60 PUSH2 0x1539 DUP10 DUP3 DUP11 ADD PUSH2 0x13DF JUMP JUMPDEST SWAP4 POP POP PUSH1 0x80 DUP8 ADD CALLDATALOAD PUSH8 0xFFFFFFFFFFFFFFFF DUP2 GT ISZERO PUSH2 0x155A JUMPI PUSH2 0x1559 PUSH2 0x1D75 JUMP JUMPDEST JUMPDEST PUSH2 0x1566 DUP10 DUP3 DUP11 ADD PUSH2 0x13B1 JUMP JUMPDEST SWAP3 POP POP PUSH1 0xA0 PUSH2 0x1577 DUP10 DUP3 DUP11 ADD PUSH2 0x13F4 JUMP JUMPDEST SWAP2 POP POP SWAP3 SWAP6 POP SWAP3 SWAP6 POP SWAP3 SWAP6 JUMP JUMPDEST PUSH1 0x0 PUSH1 0x20 DUP3 DUP5 SUB SLT ISZERO PUSH2 0x159A JUMPI PUSH2 0x1599 PUSH2 0x1D7A JUMP JUMPDEST JUMPDEST PUSH1 0x0 PUSH2 0x15A8 DUP5 DUP3 DUP6 ADD PUSH2 0x13DF JUMP JUMPDEST SWAP2 POP POP SWAP3 SWAP2 POP POP JUMP JUMPDEST PUSH2 0x15BA DUP2 PUSH2 0x1B0C JUMP JUMPDEST DUP3 MSTORE POP POP JUMP JUMPDEST PUSH2 0x15C9 DUP2 PUSH2 0x1B1E JUMP JUMPDEST DUP3 MSTORE POP POP JUMP JUMPDEST PUSH2 0x15D8 DUP2 PUSH2 0x1B2A JUMP JUMPDEST DUP3 MSTORE POP POP JUMP JUMPDEST PUSH1 0x0 PUSH2 0x15E9 DUP3 PUSH2 0x1A23 JUMP JUMPDEST PUSH2 0x15F3 DUP2 DUP6 PUSH2 0x1A2E JUMP JUMPDEST SWAP4 POP PUSH2 0x1603 DUP2 DUP6 PUSH1 0x20 DUP7 ADD PUSH2 0x1BA6 JUMP JUMPDEST PUSH2 0x160C DUP2 PUSH2 0x1D7F JUMP JUMPDEST DUP5 ADD SWAP2 POP POP SWAP3 SWAP2 POP POP JUMP JUMPDEST PUSH1 0x0 PUSH2 0x1622 DUP3 PUSH2 0x1A23 JUMP JUMPDEST PUSH2 0x162C DUP2 DUP6 PUSH2 0x1A3F JUMP JUMPDEST SWAP4 POP PUSH2 0x163C DUP2 DUP6 PUSH1 0x20 DUP7 ADD PUSH2 0x1BA6 JUMP JUMPDEST DUP1 DUP5 ADD SWAP2 POP POP SWAP3 SWAP2 POP POP JUMP JUMPDEST PUSH1 0x0 PUSH2 0x1655 PUSH1 0x20 DUP4 PUSH2 0x1A2E JUMP JUMPDEST SWAP2 POP PUSH2 0x1660 DUP3 PUSH2 0x1D90 JUMP JUMPDEST PUSH1 0x20 DUP3 ADD SWAP1 POP SWAP2 SWAP1 POP JUMP JUMPDEST PUSH1 0x0 PUSH2 0x1678 PUSH1 0x14 DUP4 PUSH2 0x1A2E JUMP JUMPDEST SWAP2 POP PUSH2 0x1683 DUP3 PUSH2 0x1DB9 JUMP JUMPDEST PUSH1 0x20 DUP3 ADD SWAP1 POP SWAP2 SWAP1 POP JUMP JUMPDEST PUSH1 0x0 PUSH2 0x169B PUSH1 0x14 DUP4 PUSH2 0x1A2E JUMP JUMPDEST SWAP2 POP PUSH2 0x16A6 DUP3 PUSH2 0x1DE2 JUMP JUMPDEST PUSH1 0x20 DUP3 ADD SWAP1 POP SWAP2 SWAP1 POP JUMP JUMPDEST PUSH1 0x0 PUSH2 0x16BE PUSH1 0x28 DUP4 PUSH2 0x1A2E JUMP JUMPDEST SWAP2 POP PUSH2 0x16C9 DUP3 PUSH2 0x1E0B JUMP JUMPDEST PUSH1 0x40 DUP3 ADD SWAP1 POP SWAP2 SWAP1 POP JUMP JUMPDEST PUSH1 0x0 PUSH2 0x16E1 PUSH1 0x17 DUP4 PUSH2 0x1A3F JUMP JUMPDEST SWAP2 POP PUSH2 0x16EC DUP3 PUSH2 0x1E5A JUMP JUMPDEST PUSH1 0x17 DUP3 ADD SWAP1 POP SWAP2 SWAP1 POP JUMP JUMPDEST PUSH1 0x0 PUSH2 0x1704 PUSH1 0x11 DUP4 PUSH2 0x1A2E JUMP JUMPDEST SWAP2 POP PUSH2 0x170F DUP3 PUSH2 0x1E83 JUMP JUMPDEST PUSH1 0x20 DUP3 ADD SWAP1 POP SWAP2 SWAP1 POP JUMP JUMPDEST PUSH1 0x0 PUSH2 0x1727 PUSH1 0x1C DUP4 PUSH2 0x1A2E JUMP JUMPDEST SWAP2 POP PUSH2 0x1732 DUP3 PUSH2 0x1EAC JUMP JUMPDEST PUSH1 0x20 DUP3 ADD SWAP1 POP SWAP2 SWAP1 POP JUMP JUMPDEST PUSH1 0x0 PUSH2 0x174A PUSH1 0x11 DUP4 PUSH2 0x1A3F JUMP JUMPDEST SWAP2 POP PUSH2 0x1755 DUP3 PUSH2 0x1ED5 JUMP JUMPDEST PUSH1 0x11 DUP3 ADD SWAP1 POP SWAP2 SWAP1 POP JUMP JUMPDEST PUSH1 0x0 PUSH2 0x176D PUSH1 0x2F DUP4 PUSH2 0x1A2E JUMP JUMPDEST SWAP2 POP PUSH2 0x1778 DUP3 PUSH2 0x1EFE JUMP JUMPDEST PUSH1 0x40 DUP3 ADD SWAP1 POP SWAP2 SWAP1 POP JUMP JUMPDEST PUSH2 0x178C DUP2 PUSH2 0x1B80 JUMP JUMPDEST DUP3 MSTORE POP POP JUMP JUMPDEST PUSH2 0x179B DUP2 PUSH2 0x1B8A JUMP JUMPDEST DUP3 MSTORE POP POP JUMP JUMPDEST PUSH1 0x0 PUSH2 0x17AC DUP3 PUSH2 0x16D4 JUMP JUMPDEST SWAP2 POP PUSH2 0x17B8 DUP3 DUP6 PUSH2 0x1617 JUMP JUMPDEST SWAP2 POP PUSH2 0x17C3 DUP3 PUSH2 0x173D JUMP JUMPDEST SWAP2 POP PUSH2 0x17CF DUP3 DUP5 PUSH2 0x1617 JUMP JUMPDEST SWAP2 POP DUP2 SWAP1 POP SWAP4 SWAP3 POP POP POP JUMP JUMPDEST PUSH1 0x0 PUSH1 0x20 DUP3 ADD SWAP1 POP PUSH2 0x17F0 PUSH1 0x0 DUP4 ADD DUP5 PUSH2 0x15C0 JUMP JUMPDEST SWAP3 SWAP2 POP POP JUMP JUMPDEST PUSH1 0x0 PUSH1 0x20 DUP3 ADD SWAP1 POP PUSH2 0x180B PUSH1 0x0 DUP4 ADD DUP5 PUSH2 0x15CF JUMP JUMPDEST SWAP3 SWAP2 POP POP JUMP JUMPDEST PUSH1 0x0 PUSH1 0x20 DUP3 ADD SWAP1 POP DUP2 DUP2 SUB PUSH1 0x0 DUP4 ADD MSTORE PUSH2 0x182B DUP2 DUP5 PUSH2 0x15DE JUMP JUMPDEST SWAP1 POP SWAP3 SWAP2 POP POP JUMP JUMPDEST PUSH1 0x0 PUSH1 0x80 DUP3 ADD SWAP1 POP DUP2 DUP2 SUB PUSH1 0x0 DUP4 ADD MSTORE PUSH2 0x184D DUP2 DUP8 PUSH2 0x15DE JUMP JUMPDEST SWAP1 POP PUSH2 0x185C PUSH1 0x20 DUP4 ADD DUP7 PUSH2 0x15B1 JUMP JUMPDEST PUSH2 0x1869 PUSH1 0x40 DUP4 ADD DUP6 PUSH2 0x1783 JUMP JUMPDEST PUSH2 0x1876 PUSH1 0x60 DUP4 ADD DUP5 PUSH2 0x15C0 JUMP JUMPDEST SWAP6 SWAP5 POP POP POP POP POP JUMP JUMPDEST PUSH1 0x0 PUSH1 0x80 DUP3 ADD SWAP1 POP DUP2 DUP2 SUB PUSH1 0x0 DUP4 ADD MSTORE PUSH2 0x1899 DUP2 DUP8 PUSH2 0x15DE JUMP JUMPDEST SWAP1 POP DUP2 DUP2 SUB PUSH1 0x20 DUP4 ADD MSTORE PUSH2 0x18AD DUP2 DUP7 PUSH2 0x15DE JUMP JUMPDEST SWAP1 POP PUSH2 0x18BC PUSH1 0x40 DUP4 ADD DUP6 PUSH2 0x1792 JUMP JUMPDEST PUSH2 0x18C9 PUSH1 0x60 DUP4 ADD DUP5 PUSH2 0x1792 JUMP JUMPDEST SWAP6 SWAP5 POP POP POP POP POP JUMP JUMPDEST PUSH1 0x0 PUSH1 0x20 DUP3 ADD SWAP1 POP DUP2 DUP2 SUB PUSH1 0x0 DUP4 ADD MSTORE PUSH2 0x18EB DUP2 PUSH2 0x1648 JUMP JUMPDEST SWAP1 POP SWAP2 SWAP1 POP JUMP JUMPDEST PUSH1 0x0 PUSH1 0x20 DUP3 ADD SWAP1 POP DUP2 DUP2 SUB PUSH1 0x0 DUP4 ADD MSTORE PUSH2 0x190B DUP2 PUSH2 0x166B JUMP JUMPDEST SWAP1 POP SWAP2 SWAP1 POP JUMP JUMPDEST PUSH1 0x0 PUSH1 0x20 DUP3 ADD SWAP1 POP DUP2 DUP2 SUB PUSH1 0x0 DUP4 ADD MSTORE PUSH2 0x192B DUP2 PUSH2 0x168E JUMP JUMPDEST SWAP1 POP SWAP2 SWAP1 POP JUMP JUMPDEST PUSH1 0x0 PUSH1 0x20 DUP3 ADD SWAP1 POP DUP2 DUP2 SUB PUSH1 0x0 DUP4 ADD MSTORE PUSH2 0x194B DUP2 PUSH2 0x16B1 JUMP JUMPDEST SWAP1 POP SWAP2 SWAP1 POP JUMP JUMPDEST PUSH1 0x0 PUSH1 0x20 DUP3 ADD SWAP1 POP DUP2 DUP2 SUB PUSH1 0x0 DUP4 ADD MSTORE PUSH2 0x196B DUP2 PUSH2 0x16F7 JUMP JUMPDEST SWAP1 POP SWAP2 SWAP1 POP JUMP JUMPDEST PUSH1 0x0 PUSH1 0x20 DUP3 ADD SWAP1 POP DUP2 DUP2 SUB PUSH1 0x0 DUP4 ADD MSTORE PUSH2 0x198B DUP2 PUSH2 0x171A JUMP JUMPDEST SWAP1 POP SWAP2 SWAP1 POP JUMP JUMPDEST PUSH1 0x0 PUSH1 0x20 DUP3 ADD SWAP1 POP DUP2 DUP2 SUB PUSH1 0x0 DUP4 ADD MSTORE PUSH2 0x19AB DUP2 PUSH2 0x1760 JUMP JUMPDEST SWAP1 POP SWAP2 SWAP1 POP JUMP JUMPDEST PUSH1 0x0 PUSH1 0x20 DUP3 ADD SWAP1 POP PUSH2 0x19C7 PUSH1 0x0 DUP4 ADD DUP5 PUSH2 0x1783 JUMP JUMPDEST SWAP3 SWAP2 POP POP JUMP JUMPDEST PUSH1 0x0 PUSH2 0x19D7 PUSH2 0x19E8 JUMP JUMPDEST SWAP1 POP PUSH2 0x19E3 DUP3 DUP3 PUSH2 0x1C35 JUMP JUMPDEST SWAP2 SWAP1 POP JUMP JUMPDEST PUSH1 0x0 PUSH1 0x40 MLOAD SWAP1 POP SWAP1 JUMP JUMPDEST PUSH1 0x0 PUSH8 0xFFFFFFFFFFFFFFFF DUP3 GT ISZERO PUSH2 0x1A0D JUMPI PUSH2 0x1A0C PUSH2 0x1D3C JUMP JUMPDEST JUMPDEST PUSH2 0x1A16 DUP3 PUSH2 0x1D7F JUMP JUMPDEST SWAP1 POP PUSH1 0x20 DUP2 ADD SWAP1 POP SWAP2 SWAP1 POP JUMP JUMPDEST PUSH1 0x0 DUP2 MLOAD SWAP1 POP SWAP2 SWAP1 POP JUMP JUMPDEST PUSH1 0x0 DUP3 DUP3 MSTORE PUSH1 0x20 DUP3 ADD SWAP1 POP SWAP3 SWAP2 POP POP JUMP JUMPDEST PUSH1 0x0 DUP2 SWAP1 POP SWAP3 SWAP2 POP POP JUMP JUMPDEST PUSH1 0x0 PUSH2 0x1A55 DUP3 PUSH2 0x1B80 JUMP JUMPDEST SWAP2 POP PUSH2 0x1A60 DUP4 PUSH2 0x1B80 JUMP JUMPDEST SWAP3 POP DUP3 PUSH32 0xFFFFFFFFFFFFFFFFFFFFFFFFFFFFFFFFFFFFFFFFFFFFFFFFFFFFFFFFFFFFFFFF SUB DUP3 GT ISZERO PUSH2 0x1A95 JUMPI PUSH2 0x1A94 PUSH2 0x1CAF JUMP JUMPDEST JUMPDEST DUP3 DUP3 ADD SWAP1 POP SWAP3 SWAP2 POP POP JUMP JUMPDEST PUSH1 0x0 PUSH2 0x1AAB DUP3 PUSH2 0x1B80 JUMP JUMPDEST SWAP2 POP PUSH2 0x1AB6 DUP4 PUSH2 0x1B80 JUMP JUMPDEST SWAP3 POP DUP2 PUSH32 0xFFFFFFFFFFFFFFFFFFFFFFFFFFFFFFFFFFFFFFFFFFFFFFFFFFFFFFFFFFFFFFFF DIV DUP4 GT DUP3 ISZERO ISZERO AND ISZERO PUSH2 0x1AEF JUMPI PUSH2 0x1AEE PUSH2 0x1CAF JUMP JUMPDEST JUMPDEST DUP3 DUP3 MUL SWAP1 POP SWAP3 SWAP2 POP POP JUMP JUMPDEST PUSH1 0x0 PUSH2 0x1B05 DUP3 PUSH2 0x1B60 JUMP JUMPDEST SWAP1 POP SWAP2 SWAP1 POP JUMP JUMPDEST PUSH1 0x0 PUSH2 0x1B17 DUP3 PUSH2 0x1B60 JUMP JUMPDEST SWAP1 POP SWAP2 SWAP1 POP JUMP JUMPDEST PUSH1 0x0 DUP2 ISZERO ISZERO SWAP1 POP SWAP2 SWAP1 POP JUMP JUMPDEST PUSH1 0x0 DUP2 SWAP1 POP SWAP2 SWAP1 POP JUMP JUMPDEST PUSH1 0x0 PUSH32 0xFFFFFFFF00000000000000000000000000000000000000000000000000000000 DUP3 AND SWAP1 POP SWAP2 SWAP1 POP JUMP JUMPDEST PUSH1 0x0 PUSH20 0xFFFFFFFFFFFFFFFFFFFFFFFFFFFFFFFFFFFFFFFF DUP3 AND SWAP1 POP SWAP2 SWAP1 POP JUMP JUMPDEST PUSH1 0x0 DUP2 SWAP1 POP SWAP2 SWAP1 POP JUMP JUMPDEST PUSH1 0x0 PUSH1 0xFF DUP3 AND SWAP1 POP SWAP2 SWAP1 POP JUMP JUMPDEST DUP3 DUP2 DUP4 CALLDATACOPY PUSH1 0x0 DUP4 DUP4 ADD MSTORE POP POP POP JUMP JUMPDEST PUSH1 0x0 JUMPDEST DUP4 DUP2 LT ISZERO PUSH2 0x1BC4 JUMPI DUP1 DUP3 ADD MLOAD DUP2 DUP5 ADD MSTORE PUSH1 0x20 DUP2 ADD SWAP1 POP PUSH2 0x1BA9 JUMP JUMPDEST DUP4 DUP2 GT ISZERO PUSH2 0x1BD3 JUMPI PUSH1 0x0 DUP5 DUP5 ADD MSTORE JUMPDEST POP POP POP POP JUMP JUMPDEST PUSH1 0x0 PUSH2 0x1BE4 DUP3 PUSH2 0x1B80 JUMP JUMPDEST SWAP2 POP PUSH1 0x0 DUP3 EQ ISZERO PUSH2 0x1BF8 JUMPI PUSH2 0x1BF7 PUSH2 0x1CAF JUMP JUMPDEST JUMPDEST PUSH1 0x1 DUP3 SUB SWAP1 POP SWAP2 SWAP1 POP JUMP JUMPDEST PUSH1 0x0 PUSH1 0x2 DUP3 DIV SWAP1 POP PUSH1 0x1 DUP3 AND DUP1 PUSH2 0x1C1B JUMPI PUSH1 0x7F DUP3 AND SWAP2 POP JUMPDEST PUSH1 0x20 DUP3 LT DUP2 EQ ISZERO PUSH2 0x1C2F JUMPI PUSH2 0x1C2E PUSH2 0x1CDE JUMP JUMPDEST JUMPDEST POP SWAP2 SWAP1 POP JUMP JUMPDEST PUSH2 0x1C3E DUP3 PUSH2 0x1D7F JUMP JUMPDEST DUP2 ADD DUP2 DUP2 LT PUSH8 0xFFFFFFFFFFFFFFFF DUP3 GT OR ISZERO PUSH2 0x1C5D JUMPI PUSH2 0x1C5C PUSH2 0x1D3C JUMP JUMPDEST JUMPDEST DUP1 PUSH1 0x40 MSTORE POP POP POP JUMP JUMPDEST PUSH1 0x0 PUSH2 0x1C71 DUP3 PUSH2 0x1B80 JUMP JUMPDEST SWAP2 POP PUSH32 0xFFFFFFFFFFFFFFFFFFFFFFFFFFFFFFFFFFFFFFFFFFFFFFFFFFFFFFFFFFFFFFFF DUP3 EQ ISZERO PUSH2 0x1CA4 JUMPI PUSH2 0x1CA3 PUSH2 0x1CAF JUMP JUMPDEST JUMPDEST PUSH1 0x1 DUP3 ADD SWAP1 POP SWAP2 SWAP1 POP JUMP JUMPDEST PUSH32 0x4E487B7100000000000000000000000000000000000000000000000000000000 PUSH1 0x0 MSTORE PUSH1 0x11 PUSH1 0x4 MSTORE PUSH1 0x24 PUSH1 0x0 REVERT JUMPDEST PUSH32 0x4E487B7100000000000000000000000000000000000000000000000000000000 PUSH1 0x0 MSTORE PUSH1 0x22 PUSH1 0x4 MSTORE PUSH1 0x24 PUSH1 0x0 REVERT JUMPDEST PUSH32 0x4E487B7100000000000000000000000000000000000000000000000000000000 PUSH1 0x0 MSTORE PUSH1 0x32 PUSH1 0x4 MSTORE PUSH1 0x24 PUSH1 0x0 REVERT JUMPDEST PUSH32 0x4E487B7100000000000000000000000000000000000000000000000000000000 PUSH1 0x0 MSTORE PUSH1 0x41 PUSH1 0x4 MSTORE PUSH1 0x24 PUSH1 0x0 REVERT JUMPDEST PUSH1 0x0 DUP1 REVERT JUMPDEST PUSH1 0x0 DUP1 REVERT JUMPDEST PUSH1 0x0 DUP1 REVERT JUMPDEST PUSH1 0x0 DUP1 REVERT JUMPDEST PUSH1 0x0 PUSH1 0x1F NOT PUSH1 0x1F DUP4 ADD AND SWAP1 POP SWAP2 SWAP1 POP JUMP JUMPDEST PUSH32 0x537472696E67733A20686578206C656E67746820696E73756666696369656E74 PUSH1 0x0 DUP3 ADD MSTORE POP JUMP JUMPDEST PUSH32 0x507269636520646F6573206E6F74206D61746368000000000000000000000000 PUSH1 0x0 DUP3 ADD MSTORE POP JUMP JUMPDEST PUSH32 0x4974656D20697320616C726561647920736F6C64000000000000000000000000 PUSH1 0x0 DUP3 ADD MSTORE POP JUMP JUMPDEST PUSH32 0x4F6E6C79207468652073656C6C65722063616E206372656174652061206D6172 PUSH1 0x0 DUP3 ADD MSTORE PUSH32 0x6B6574206974656D000000000000000000000000000000000000000000000000 PUSH1 0x20 DUP3 ADD MSTORE POP JUMP JUMPDEST PUSH32 0x416363657373436F6E74726F6C3A206163636F756E7420000000000000000000 PUSH1 0x0 DUP3 ADD MSTORE POP JUMP JUMPDEST PUSH32 0x4974656D20616C726561647920736F6C64000000000000000000000000000000 PUSH1 0x0 DUP3 ADD MSTORE POP JUMP JUMPDEST PUSH32 0x5072696365206D7573742062652067726561746572207468616E203000000000 PUSH1 0x0 DUP3 ADD MSTORE POP JUMP JUMPDEST PUSH32 0x206973206D697373696E6720726F6C6520000000000000000000000000000000 PUSH1 0x0 DUP3 ADD MSTORE POP JUMP JUMPDEST PUSH32 0x416363657373436F6E74726F6C3A2063616E206F6E6C792072656E6F756E6365 PUSH1 0x0 DUP3 ADD MSTORE PUSH32 0x20726F6C657320666F722073656C660000000000000000000000000000000000 PUSH1 0x20 DUP3 ADD MSTORE POP JUMP JUMPDEST PUSH2 0x1F56 DUP2 PUSH2 0x1AFA JUMP JUMPDEST DUP2 EQ PUSH2 0x1F61 JUMPI PUSH1 0x0 DUP1 REVERT JUMPDEST POP JUMP JUMPDEST PUSH2 0x1F6D DUP2 PUSH2 0x1B0C JUMP JUMPDEST DUP2 EQ PUSH2 0x1F78 JUMPI PUSH1 0x0 DUP1 REVERT JUMPDEST POP JUMP JUMPDEST PUSH2 0x1F84 DUP2 PUSH2 0x1B2A JUMP JUMPDEST DUP2 EQ PUSH2 0x1F8F JUMPI PUSH1 0x0 DUP1 REVERT JUMPDEST POP JUMP JUMPDEST PUSH2 0x1F9B DUP2 PUSH2 0x1B34 JUMP JUMPDEST DUP2 EQ PUSH2 0x1FA6 JUMPI PUSH1 0x0 DUP1 REVERT JUMPDEST POP JUMP JUMPDEST PUSH2 0x1FB2 DUP2 PUSH2 0x1B80 JUMP JUMPDEST DUP2 EQ PUSH2 0x1FBD JUMPI PUSH1 0x0 DUP1 REVERT JUMPDEST POP JUMP JUMPDEST PUSH2 0x1FC9 DUP2 PUSH2 0x1B8A JUMP JUMPDEST DUP2 EQ PUSH2 0x1FD4 JUMPI PUSH1 0x0 DUP1 REVERT JUMPDEST POP JUMP INVALID LOG2 PUSH5 0x6970667358 0x22 SLT KECCAK256 CALLDATACOPY 0x4B SWAP5 0x25 STOP 0xAA MOD LT MSTORE SWAP5 0xB8 0x2C CODECOPY 0xB3 OR PUSH32 0x67138C6DB7594EAF5EF3FFF7D146D64564736F6C634300080700330000000000 "
				},
				"gasEstimates": {
					"creation": {
						"codeDepositCost": "1641000",
						"executionCost": "infinite",
						"totalCost": "infinite"
					},
					"external": {
						"DEFAULT_ADMIN_ROLE()": "402",
						"MARKETPLACE_OWNER()": "373",
						"buyMarketItem(uint256)": "infinite",
						"createMarketItem(string,string,address,uint256,string,uint8)": "infinite",
						"getMarketItem(uint256)": "infinite",
						"getMarketItemDetails(uint256)": "infinite",
						"getRoleAdmin(bytes32)": "infinite",
						"grantRole(bytes32,address)": "infinite",
						"hasRole(bytes32,address)": "3185",
						"nextItemId()": "2540",
						"renounceRole(bytes32,address)": "infinite",
						"revokeRole(bytes32,address)": "infinite",
						"supportsInterface(bytes4)": "728"
					}
				},
				"methodIdentifiers": {
					"DEFAULT_ADMIN_ROLE()": "a217fddf",
					"MARKETPLACE_OWNER()": "b491efa0",
					"buyMarketItem(uint256)": "351901c3",
					"createMarketItem(string,string,address,uint256,string,uint8)": "a6667d06",
					"getMarketItem(uint256)": "c7be7a49",
					"getMarketItemDetails(uint256)": "88d9e84c",
					"getRoleAdmin(bytes32)": "248a9ca3",
					"grantRole(bytes32,address)": "2f2ff15d",
					"hasRole(bytes32,address)": "91d14854",
					"nextItemId()": "6a868974",
					"renounceRole(bytes32,address)": "36568abe",
					"revokeRole(bytes32,address)": "d547741f",
					"supportsInterface(bytes4)": "01ffc9a7"
				}
			},
			"userdoc": {
				"kind": "user",
				"methods": {},
				"version": 1
			}
		}
	}
}