{
	"Marketplace.sol": {
		"Marketplace": {
			"abi": [
				{
					"inputs": [],
					"stateMutability": "nonpayable",
					"type": "constructor"
				},
				{
					"anonymous": false,
					"inputs": [
						{
							"indexed": true,
							"internalType": "bytes32",
							"name": "role",
							"type": "bytes32"
						},
						{
							"indexed": true,
							"internalType": "bytes32",
							"name": "previousAdminRole",
							"type": "bytes32"
						},
						{
							"indexed": true,
							"internalType": "bytes32",
							"name": "newAdminRole",
							"type": "bytes32"
						}
					],
					"name": "RoleAdminChanged",
					"type": "event"
				},
				{
					"anonymous": false,
					"inputs": [
						{
							"indexed": true,
							"internalType": "bytes32",
							"name": "role",
							"type": "bytes32"
						},
						{
							"indexed": true,
							"internalType": "address",
							"name": "account",
							"type": "address"
						},
						{
							"indexed": true,
							"internalType": "address",
							"name": "sender",
							"type": "address"
						}
					],
					"name": "RoleGranted",
					"type": "event"
				},
				{
					"anonymous": false,
					"inputs": [
						{
							"indexed": true,
							"internalType": "bytes32",
							"name": "role",
							"type": "bytes32"
						},
						{
							"indexed": true,
							"internalType": "address",
							"name": "account",
							"type": "address"
						},
						{
							"indexed": true,
							"internalType": "address",
							"name": "sender",
							"type": "address"
						}
					],
					"name": "RoleRevoked",
					"type": "event"
				},
				{
					"inputs": [],
					"name": "DEFAULT_ADMIN_ROLE",
					"outputs": [
						{
							"internalType": "bytes32",
							"name": "",
							"type": "bytes32"
						}
					],
					"stateMutability": "view",
					"type": "function"
				},
				{
					"inputs": [],
					"name": "MARKETPLACE_OWNER",
					"outputs": [
						{
							"internalType": "bytes32",
							"name": "",
							"type": "bytes32"
						}
					],
					"stateMutability": "view",
					"type": "function"
				},
				{
					"inputs": [
						{
							"internalType": "uint256",
							"name": "_itemId",
							"type": "uint256"
						}
					],
					"name": "buyMarketItem",
					"outputs": [],
					"stateMutability": "payable",
					"type": "function"
				},
				{
					"inputs": [
						{
							"internalType": "address payable",
							"name": "_seller",
							"type": "address"
						},
						{
							"internalType": "uint256",
							"name": "_price",
							"type": "uint256"
						}
					],
					"name": "createMarketItem",
					"outputs": [],
					"stateMutability": "nonpayable",
					"type": "function"
				},
				{
					"inputs": [
						{
							"internalType": "uint256",
							"name": "_itemId",
							"type": "uint256"
						}
					],
					"name": "getMarketItem",
					"outputs": [
						{
							"internalType": "address payable",
							"name": "seller",
							"type": "address"
						},
						{
							"internalType": "uint256",
							"name": "price",
							"type": "uint256"
						},
						{
							"internalType": "bool",
							"name": "sold",
							"type": "bool"
						}
					],
					"stateMutability": "view",
					"type": "function"
				},
				{
					"inputs": [
						{
							"internalType": "bytes32",
							"name": "role",
							"type": "bytes32"
						}
					],
					"name": "getRoleAdmin",
					"outputs": [
						{
							"internalType": "bytes32",
							"name": "",
							"type": "bytes32"
						}
					],
					"stateMutability": "view",
					"type": "function"
				},
				{
					"inputs": [
						{
							"internalType": "bytes32",
							"name": "role",
							"type": "bytes32"
						},
						{
							"internalType": "address",
							"name": "account",
							"type": "address"
						}
					],
					"name": "grantRole",
					"outputs": [],
					"stateMutability": "nonpayable",
					"type": "function"
				},
				{
					"inputs": [
						{
							"internalType": "bytes32",
							"name": "role",
							"type": "bytes32"
						},
						{
							"internalType": "address",
							"name": "account",
							"type": "address"
						}
					],
					"name": "hasRole",
					"outputs": [
						{
							"internalType": "bool",
							"name": "",
							"type": "bool"
						}
					],
					"stateMutability": "view",
					"type": "function"
				},
				{
					"inputs": [],
					"name": "nextItemId",
					"outputs": [
						{
							"internalType": "uint256",
							"name": "",
							"type": "uint256"
						}
					],
					"stateMutability": "view",
					"type": "function"
				},
				{
					"inputs": [
						{
							"internalType": "bytes32",
							"name": "role",
							"type": "bytes32"
						},
						{
							"internalType": "address",
							"name": "account",
							"type": "address"
						}
					],
					"name": "renounceRole",
					"outputs": [],
					"stateMutability": "nonpayable",
					"type": "function"
				},
				{
					"inputs": [
						{
							"internalType": "bytes32",
							"name": "role",
							"type": "bytes32"
						},
						{
							"internalType": "address",
							"name": "account",
							"type": "address"
						}
					],
					"name": "revokeRole",
					"outputs": [],
					"stateMutability": "nonpayable",
					"type": "function"
				},
				{
					"inputs": [
						{
							"internalType": "bytes4",
							"name": "interfaceId",
							"type": "bytes4"
						}
					],
					"name": "supportsInterface",
					"outputs": [
						{
							"internalType": "bool",
							"name": "",
							"type": "bool"
						}
					],
					"stateMutability": "view",
					"type": "function"
				}
			],
			"devdoc": {
				"kind": "dev",
				"methods": {
					"getRoleAdmin(bytes32)": {
						"details": "Returns the admin role that controls `role`. See {grantRole} and {revokeRole}. To change a role's admin, use {_setRoleAdmin}."
					},
					"grantRole(bytes32,address)": {
						"details": "Grants `role` to `account`. If `account` had not been already granted `role`, emits a {RoleGranted} event. Requirements: - the caller must have ``role``'s admin role."
					},
					"hasRole(bytes32,address)": {
						"details": "Returns `true` if `account` has been granted `role`."
					},
					"renounceRole(bytes32,address)": {
						"details": "Revokes `role` from the calling account. Roles are often managed via {grantRole} and {revokeRole}: this function's purpose is to provide a mechanism for accounts to lose their privileges if they are compromised (such as when a trusted device is misplaced). If the calling account had been revoked `role`, emits a {RoleRevoked} event. Requirements: - the caller must be `account`."
					},
					"revokeRole(bytes32,address)": {
						"details": "Revokes `role` from `account`. If `account` had been granted `role`, emits a {RoleRevoked} event. Requirements: - the caller must have ``role``'s admin role."
					},
					"supportsInterface(bytes4)": {
						"details": "See {IERC165-supportsInterface}."
					}
				},
				"version": 1
			},
			"evm": {
				"assembly": "    /* \"Marketplace.sol\":122:1570  contract Marketplace is  AccessControl {\r... */\n  mstore(0x40, 0x80)\n    /* \"Marketplace.sol\":277:278  0 */\n  0x00\n    /* \"Marketplace.sol\":249:278  uint256 public nextItemId = 0 */\n  0x01\n  sstore\n    /* \"Marketplace.sol\":489:563  constructor() {\r... */\n  callvalue\n  dup1\n  iszero\n  tag_1\n  jumpi\n  0x00\n  dup1\n  revert\ntag_1:\n  pop\n    /* \"Marketplace.sol\":514:555  _grantRole(MARKETPLACE_OWNER, msg.sender) */\n  tag_4\n    /* \"Marketplace.sol\":212:242  keccak256(\"MARKETPLACE_OWNER\") */\n  0x1f9ca85e780b3b3cfbe1334ca9dd68802db7860f692bd163c796bb76d464edc0\n    /* \"Marketplace.sol\":544:554  msg.sender */\n  caller\n    /* \"Marketplace.sol\":514:524  _grantRole */\n  shl(0x20, tag_5)\n    /* \"Marketplace.sol\":514:555  _grantRole(MARKETPLACE_OWNER, msg.sender) */\n  0x20\n  shr\n  jump\t// in\ntag_4:\n    /* \"Marketplace.sol\":122:1570  contract Marketplace is  AccessControl {\r... */\n  jump(tag_6)\n    /* \"@openzeppelin/contracts/access/AccessControl.sol\":6861:7094  function _grantRole(bytes32 role, address account) internal virtual {... */\ntag_5:\n    /* \"@openzeppelin/contracts/access/AccessControl.sol\":6944:6966  hasRole(role, account) */\n  tag_8\n    /* \"@openzeppelin/contracts/access/AccessControl.sol\":6952:6956  role */\n  dup3\n    /* \"@openzeppelin/contracts/access/AccessControl.sol\":6958:6965  account */\n  dup3\n    /* \"@openzeppelin/contracts/access/AccessControl.sol\":6944:6951  hasRole */\n  shl(0x20, tag_9)\n    /* \"@openzeppelin/contracts/access/AccessControl.sol\":6944:6966  hasRole(role, account) */\n  0x20\n  shr\n  jump\t// in\ntag_8:\n    /* \"@openzeppelin/contracts/access/AccessControl.sol\":6939:7088  if (!hasRole(role, account)) {... */\n  tag_10\n  jumpi\n    /* \"@openzeppelin/contracts/access/AccessControl.sol\":7014:7018  true */\n  0x01\n    /* \"@openzeppelin/contracts/access/AccessControl.sol\":6982:6988  _roles */\n  0x00\n    /* \"@openzeppelin/contracts/access/AccessControl.sol\":6982:6994  _roles[role] */\n  dup1\n    /* \"@openzeppelin/contracts/access/AccessControl.sol\":6989:6993  role */\n  dup5\n    /* \"@openzeppelin/contracts/access/AccessControl.sol\":6982:6994  _roles[role] */\n  dup2\n  mstore\n  0x20\n  add\n  swap1\n  dup2\n  mstore\n  0x20\n  add\n  0x00\n  keccak256\n    /* \"@openzeppelin/contracts/access/AccessControl.sol\":6982:7002  _roles[role].members */\n  0x00\n  add\n    /* \"@openzeppelin/contracts/access/AccessControl.sol\":6982:7011  _roles[role].members[account] */\n  0x00\n    /* \"@openzeppelin/contracts/access/AccessControl.sol\":7003:7010  account */\n  dup4\n    /* \"@openzeppelin/contracts/access/AccessControl.sol\":6982:7011  _roles[role].members[account] */\n  0xffffffffffffffffffffffffffffffffffffffff\n  and\n  0xffffffffffffffffffffffffffffffffffffffff\n  and\n  dup2\n  mstore\n  0x20\n  add\n  swap1\n  dup2\n  mstore\n  0x20\n  add\n  0x00\n  keccak256\n  0x00\n    /* \"@openzeppelin/contracts/access/AccessControl.sol\":6982:7018  _roles[role].members[account] = true */\n  0x0100\n  exp\n  dup2\n  sload\n  dup2\n  0xff\n  mul\n  not\n  and\n  swap1\n  dup4\n  iszero\n  iszero\n  mul\n  or\n  swap1\n  sstore\n  pop\n    /* \"@openzeppelin/contracts/access/AccessControl.sol\":7064:7076  _msgSender() */\n  tag_11\n    /* \"@openzeppelin/contracts/access/AccessControl.sol\":7064:7074  _msgSender */\n  shl(0x20, tag_12)\n    /* \"@openzeppelin/contracts/access/AccessControl.sol\":7064:7076  _msgSender() */\n  0x20\n  shr\n  jump\t// in\ntag_11:\n    /* \"@openzeppelin/contracts/access/AccessControl.sol\":7037:7077  RoleGranted(role, account, _msgSender()) */\n  0xffffffffffffffffffffffffffffffffffffffff\n  and\n    /* \"@openzeppelin/contracts/access/AccessControl.sol\":7055:7062  account */\n  dup2\n    /* \"@openzeppelin/contracts/access/AccessControl.sol\":7037:7077  RoleGranted(role, account, _msgSender()) */\n  0xffffffffffffffffffffffffffffffffffffffff\n  and\n    /* \"@openzeppelin/contracts/access/AccessControl.sol\":7049:7053  role */\n  dup4\n    /* \"@openzeppelin/contracts/access/AccessControl.sol\":7037:7077  RoleGranted(role, account, _msgSender()) */\n  0x2f8788117e7eff1d82e926ec794901d17c78024a50270940304540a733656f0d\n  mload(0x40)\n  mload(0x40)\n  dup1\n  swap2\n  sub\n  swap1\n  log4\n    /* \"@openzeppelin/contracts/access/AccessControl.sol\":6939:7088  if (!hasRole(role, account)) {... */\ntag_10:\n    /* \"@openzeppelin/contracts/access/AccessControl.sol\":6861:7094  function _grantRole(bytes32 role, address account) internal virtual {... */\n  pop\n  pop\n  jump\t// out\n    /* \"@openzeppelin/contracts/access/AccessControl.sol\":2909:3054  function hasRole(bytes32 role, address account) public view virtual override returns (bool) {... */\ntag_9:\n    /* \"@openzeppelin/contracts/access/AccessControl.sol\":2995:2999  bool */\n  0x00\n    /* \"@openzeppelin/contracts/access/AccessControl.sol\":3018:3024  _roles */\n  dup1\n    /* \"@openzeppelin/contracts/access/AccessControl.sol\":3018:3030  _roles[role] */\n  0x00\n    /* \"@openzeppelin/contracts/access/AccessControl.sol\":3025:3029  role */\n  dup5\n    /* \"@openzeppelin/contracts/access/AccessControl.sol\":3018:3030  _roles[role] */\n  dup2\n  mstore\n  0x20\n  add\n  swap1\n  dup2\n  mstore\n  0x20\n  add\n  0x00\n  keccak256\n    /* \"@openzeppelin/contracts/access/AccessControl.sol\":3018:3038  _roles[role].members */\n  0x00\n  add\n    /* \"@openzeppelin/contracts/access/AccessControl.sol\":3018:3047  _roles[role].members[account] */\n  0x00\n    /* \"@openzeppelin/contracts/access/AccessControl.sol\":3039:3046  account */\n  dup4\n    /* \"@openzeppelin/contracts/access/AccessControl.sol\":3018:3047  _roles[role].members[account] */\n  0xffffffffffffffffffffffffffffffffffffffff\n  and\n  0xffffffffffffffffffffffffffffffffffffffff\n  and\n  dup2\n  mstore\n  0x20\n  add\n  swap1\n  dup2\n  mstore\n  0x20\n  add\n  0x00\n  keccak256\n  0x00\n  swap1\n  sload\n  swap1\n  0x0100\n  exp\n  swap1\n  div\n  0xff\n  and\n    /* \"@openzeppelin/contracts/access/AccessControl.sol\":3011:3047  return _roles[role].members[account] */\n  swap1\n  pop\n    /* \"@openzeppelin/contracts/access/AccessControl.sol\":2909:3054  function hasRole(bytes32 role, address account) public view virtual override returns (bool) {... */\n  swap3\n  swap2\n  pop\n  pop\n  jump\t// out\n    /* \"@openzeppelin/contracts/utils/Context.sol\":640:736  function _msgSender() internal view virtual returns (address) {... */\ntag_12:\n    /* \"@openzeppelin/contracts/utils/Context.sol\":693:700  address */\n  0x00\n    /* \"@openzeppelin/contracts/utils/Context.sol\":719:729  msg.sender */\n  caller\n    /* \"@openzeppelin/contracts/utils/Context.sol\":712:729  return msg.sender */\n  swap1\n  pop\n    /* \"@openzeppelin/contracts/utils/Context.sol\":640:736  function _msgSender() internal view virtual returns (address) {... */\n  swap1\n  jump\t// out\n    /* \"Marketplace.sol\":122:1570  contract Marketplace is  AccessControl {\r... */\ntag_6:\n  dataSize(sub_0)\n  dup1\n  dataOffset(sub_0)\n  0x00\n  codecopy\n  0x00\n  return\nstop\n\nsub_0: assembly {\n        /* \"Marketplace.sol\":122:1570  contract Marketplace is  AccessControl {\r... */\n      mstore(0x40, 0x80)\n      jumpi(tag_1, lt(calldatasize, 0x04))\n      shr(0xe0, calldataload(0x00))\n      dup1\n      0x91d14854\n      gt\n      tag_14\n      jumpi\n      dup1\n      0x91d14854\n      eq\n      tag_8\n      jumpi\n      dup1\n      0xa217fddf\n      eq\n      tag_9\n      jumpi\n      dup1\n      0xb491efa0\n      eq\n      tag_10\n      jumpi\n      dup1\n      0xc7be7a49\n      eq\n      tag_11\n      jumpi\n      dup1\n      0xd547741f\n      eq\n      tag_12\n      jumpi\n      dup1\n      0xdd5f8518\n      eq\n      tag_13\n      jumpi\n      jump(tag_1)\n    tag_14:\n      dup1\n      0x01ffc9a7\n      eq\n      tag_2\n      jumpi\n      dup1\n      0x248a9ca3\n      eq\n      tag_3\n      jumpi\n      dup1\n      0x2f2ff15d\n      eq\n      tag_4\n      jumpi\n      dup1\n      0x351901c3\n      eq\n      tag_5\n      jumpi\n      dup1\n      0x36568abe\n      eq\n      tag_6\n      jumpi\n      dup1\n      0x6a868974\n      eq\n      tag_7\n      jumpi\n    tag_1:\n      0x00\n      dup1\n      revert\n        /* \"@openzeppelin/contracts/access/AccessControl.sol\":2620:2822  function supportsInterface(bytes4 interfaceId) public view virtual override returns (bool) {... */\n    tag_2:\n      callvalue\n      dup1\n      iszero\n      tag_15\n      jumpi\n      0x00\n      dup1\n      revert\n    tag_15:\n      pop\n      tag_16\n      0x04\n      dup1\n      calldatasize\n      sub\n      dup2\n      add\n      swap1\n      tag_17\n      swap2\n      swap1\n      tag_18\n      jump\t// in\n    tag_17:\n      tag_19\n      jump\t// in\n    tag_16:\n      mload(0x40)\n      tag_20\n      swap2\n      swap1\n      tag_21\n      jump\t// in\n    tag_20:\n      mload(0x40)\n      dup1\n      swap2\n      sub\n      swap1\n      return\n        /* \"@openzeppelin/contracts/access/AccessControl.sol\":4008:4137  function getRoleAdmin(bytes32 role) public view virtual override returns (bytes32) {... */\n    tag_3:\n      callvalue\n      dup1\n      iszero\n      tag_22\n      jumpi\n      0x00\n      dup1\n      revert\n    tag_22:\n      pop\n      tag_23\n      0x04\n      dup1\n      calldatasize\n      sub\n      dup2\n      add\n      swap1\n      tag_24\n      swap2\n      swap1\n      tag_25\n      jump\t// in\n    tag_24:\n      tag_26\n      jump\t// in\n    tag_23:\n      mload(0x40)\n      tag_27\n      swap2\n      swap1\n      tag_28\n      jump\t// in\n    tag_27:\n      mload(0x40)\n      dup1\n      swap2\n      sub\n      swap1\n      return\n        /* \"@openzeppelin/contracts/access/AccessControl.sol\":4387:4532  function grantRole(bytes32 role, address account) public virtual override onlyRole(getRoleAdmin(role)) {... */\n    tag_4:\n      callvalue\n      dup1\n      iszero\n      tag_29\n      jumpi\n      0x00\n      dup1\n      revert\n    tag_29:\n      pop\n      tag_30\n      0x04\n      dup1\n      calldatasize\n      sub\n      dup2\n      add\n      swap1\n      tag_31\n      swap2\n      swap1\n      tag_32\n      jump\t// in\n    tag_31:\n      tag_33\n      jump\t// in\n    tag_30:\n      stop\n        /* \"Marketplace.sol\":990:1327  function buyMarketItem(uint256 _itemId) public payable {\r... */\n    tag_5:\n      tag_34\n      0x04\n      dup1\n      calldatasize\n      sub\n      dup2\n      add\n      swap1\n      tag_35\n      swap2\n      swap1\n      tag_36\n      jump\t// in\n    tag_35:\n      tag_37\n      jump\t// in\n    tag_34:\n      stop\n        /* \"@openzeppelin/contracts/access/AccessControl.sol\":5404:5618  function renounceRole(bytes32 role, address account) public virtual override {... */\n    tag_6:\n      callvalue\n      dup1\n      iszero\n      tag_38\n      jumpi\n      0x00\n      dup1\n      revert\n    tag_38:\n      pop\n      tag_39\n      0x04\n      dup1\n      calldatasize\n      sub\n      dup2\n      add\n      swap1\n      tag_40\n      swap2\n      swap1\n      tag_32\n      jump\t// in\n    tag_40:\n      tag_41\n      jump\t// in\n    tag_39:\n      stop\n        /* \"Marketplace.sol\":249:278  uint256 public nextItemId = 0 */\n    tag_7:\n      callvalue\n      dup1\n      iszero\n      tag_42\n      jumpi\n      0x00\n      dup1\n      revert\n    tag_42:\n      pop\n      tag_43\n      tag_44\n      jump\t// in\n    tag_43:\n      mload(0x40)\n      tag_45\n      swap2\n      swap1\n      tag_46\n      jump\t// in\n    tag_45:\n      mload(0x40)\n      dup1\n      swap2\n      sub\n      swap1\n      return\n        /* \"@openzeppelin/contracts/access/AccessControl.sol\":2909:3054  function hasRole(bytes32 role, address account) public view virtual override returns (bool) {... */\n    tag_8:\n      callvalue\n      dup1\n      iszero\n      tag_47\n      jumpi\n      0x00\n      dup1\n      revert\n    tag_47:\n      pop\n      tag_48\n      0x04\n      dup1\n      calldatasize\n      sub\n      dup2\n      add\n      swap1\n      tag_49\n      swap2\n      swap1\n      tag_32\n      jump\t// in\n    tag_49:\n      tag_50\n      jump\t// in\n    tag_48:\n      mload(0x40)\n      tag_51\n      swap2\n      swap1\n      tag_21\n      jump\t// in\n    tag_51:\n      mload(0x40)\n      dup1\n      swap2\n      sub\n      swap1\n      return\n        /* \"@openzeppelin/contracts/access/AccessControl.sol\":2027:2076  bytes32 public constant DEFAULT_ADMIN_ROLE = 0x00 */\n    tag_9:\n      callvalue\n      dup1\n      iszero\n      tag_52\n      jumpi\n      0x00\n      dup1\n      revert\n    tag_52:\n      pop\n      tag_53\n      tag_54\n      jump\t// in\n    tag_53:\n      mload(0x40)\n      tag_55\n      swap2\n      swap1\n      tag_28\n      jump\t// in\n    tag_55:\n      mload(0x40)\n      dup1\n      swap2\n      sub\n      swap1\n      return\n        /* \"Marketplace.sol\":168:242  bytes32 public constant MARKETPLACE_OWNER = keccak256(\"MARKETPLACE_OWNER\") */\n    tag_10:\n      callvalue\n      dup1\n      iszero\n      tag_56\n      jumpi\n      0x00\n      dup1\n      revert\n    tag_56:\n      pop\n      tag_57\n      tag_58\n      jump\t// in\n    tag_57:\n      mload(0x40)\n      tag_59\n      swap2\n      swap1\n      tag_28\n      jump\t// in\n    tag_59:\n      mload(0x40)\n      dup1\n      swap2\n      sub\n      swap1\n      return\n        /* \"Marketplace.sol\":1335:1565  function getMarketItem(uint256 _itemId) public view returns (address payable seller, uint256 price, bool sold) {\r... */\n    tag_11:\n      callvalue\n      dup1\n      iszero\n      tag_60\n      jumpi\n      0x00\n      dup1\n      revert\n    tag_60:\n      pop\n      tag_61\n      0x04\n      dup1\n      calldatasize\n      sub\n      dup2\n      add\n      swap1\n      tag_62\n      swap2\n      swap1\n      tag_36\n      jump\t// in\n    tag_62:\n      tag_63\n      jump\t// in\n    tag_61:\n      mload(0x40)\n      tag_64\n      swap4\n      swap3\n      swap2\n      swap1\n      tag_65\n      jump\t// in\n    tag_64:\n      mload(0x40)\n      dup1\n      swap2\n      sub\n      swap1\n      return\n        /* \"@openzeppelin/contracts/access/AccessControl.sol\":4766:4913  function revokeRole(bytes32 role, address account) public virtual override onlyRole(getRoleAdmin(role)) {... */\n    tag_12:\n      callvalue\n      dup1\n      iszero\n      tag_66\n      jumpi\n      0x00\n      dup1\n      revert\n    tag_66:\n      pop\n      tag_67\n      0x04\n      dup1\n      calldatasize\n      sub\n      dup2\n      add\n      swap1\n      tag_68\n      swap2\n      swap1\n      tag_32\n      jump\t// in\n    tag_68:\n      tag_69\n      jump\t// in\n    tag_67:\n      stop\n        /* \"Marketplace.sol\":571:982  function createMarketItem(address payable _seller, uint256 _price) public {\r... */\n    tag_13:\n      callvalue\n      dup1\n      iszero\n      tag_70\n      jumpi\n      0x00\n      dup1\n      revert\n    tag_70:\n      pop\n      tag_71\n      0x04\n      dup1\n      calldatasize\n      sub\n      dup2\n      add\n      swap1\n      tag_72\n      swap2\n      swap1\n      tag_73\n      jump\t// in\n    tag_72:\n      tag_74\n      jump\t// in\n    tag_71:\n      stop\n        /* \"@openzeppelin/contracts/access/AccessControl.sol\":2620:2822  function supportsInterface(bytes4 interfaceId) public view virtual override returns (bool) {... */\n    tag_19:\n        /* \"@openzeppelin/contracts/access/AccessControl.sol\":2705:2709  bool */\n      0x00\n        /* \"@openzeppelin/contracts/access/AccessControl.sol\":2743:2775  type(IAccessControl).interfaceId */\n      0x7965db0b00000000000000000000000000000000000000000000000000000000\n        /* \"@openzeppelin/contracts/access/AccessControl.sol\":2728:2775  interfaceId == type(IAccessControl).interfaceId */\n      not(0xffffffffffffffffffffffffffffffffffffffffffffffffffffffff)\n      and\n        /* \"@openzeppelin/contracts/access/AccessControl.sol\":2728:2739  interfaceId */\n      dup3\n        /* \"@openzeppelin/contracts/access/AccessControl.sol\":2728:2775  interfaceId == type(IAccessControl).interfaceId */\n      not(0xffffffffffffffffffffffffffffffffffffffffffffffffffffffff)\n      and\n      eq\n        /* \"@openzeppelin/contracts/access/AccessControl.sol\":2728:2815  interfaceId == type(IAccessControl).interfaceId || super.supportsInterface(interfaceId) */\n      dup1\n      tag_76\n      jumpi\n      pop\n        /* \"@openzeppelin/contracts/access/AccessControl.sol\":2779:2815  super.supportsInterface(interfaceId) */\n      tag_77\n        /* \"@openzeppelin/contracts/access/AccessControl.sol\":2803:2814  interfaceId */\n      dup3\n        /* \"@openzeppelin/contracts/access/AccessControl.sol\":2779:2802  super.supportsInterface */\n      tag_78\n        /* \"@openzeppelin/contracts/access/AccessControl.sol\":2779:2815  super.supportsInterface(interfaceId) */\n      jump\t// in\n    tag_77:\n        /* \"@openzeppelin/contracts/access/AccessControl.sol\":2728:2815  interfaceId == type(IAccessControl).interfaceId || super.supportsInterface(interfaceId) */\n    tag_76:\n        /* \"@openzeppelin/contracts/access/AccessControl.sol\":2721:2815  return interfaceId == type(IAccessControl).interfaceId || super.supportsInterface(interfaceId) */\n      swap1\n      pop\n        /* \"@openzeppelin/contracts/access/AccessControl.sol\":2620:2822  function supportsInterface(bytes4 interfaceId) public view virtual override returns (bool) {... */\n      swap2\n      swap1\n      pop\n      jump\t// out\n        /* \"@openzeppelin/contracts/access/AccessControl.sol\":4008:4137  function getRoleAdmin(bytes32 role) public view virtual override returns (bytes32) {... */\n    tag_26:\n        /* \"@openzeppelin/contracts/access/AccessControl.sol\":4082:4089  bytes32 */\n      0x00\n        /* \"@openzeppelin/contracts/access/AccessControl.sol\":4108:4114  _roles */\n      dup1\n        /* \"@openzeppelin/contracts/access/AccessControl.sol\":4108:4120  _roles[role] */\n      0x00\n        /* \"@openzeppelin/contracts/access/AccessControl.sol\":4115:4119  role */\n      dup4\n        /* \"@openzeppelin/contracts/access/AccessControl.sol\":4108:4120  _roles[role] */\n      dup2\n      mstore\n      0x20\n      add\n      swap1\n      dup2\n      mstore\n      0x20\n      add\n      0x00\n      keccak256\n        /* \"@openzeppelin/contracts/access/AccessControl.sol\":4108:4130  _roles[role].adminRole */\n      0x01\n      add\n      sload\n        /* \"@openzeppelin/contracts/access/AccessControl.sol\":4101:4130  return _roles[role].adminRole */\n      swap1\n      pop\n        /* \"@openzeppelin/contracts/access/AccessControl.sol\":4008:4137  function getRoleAdmin(bytes32 role) public view virtual override returns (bytes32) {... */\n      swap2\n      swap1\n      pop\n      jump\t// out\n        /* \"@openzeppelin/contracts/access/AccessControl.sol\":4387:4532  function grantRole(bytes32 role, address account) public virtual override onlyRole(getRoleAdmin(role)) {... */\n    tag_33:\n        /* \"@openzeppelin/contracts/access/AccessControl.sol\":4470:4488  getRoleAdmin(role) */\n      tag_80\n        /* \"@openzeppelin/contracts/access/AccessControl.sol\":4483:4487  role */\n      dup3\n        /* \"@openzeppelin/contracts/access/AccessControl.sol\":4470:4482  getRoleAdmin */\n      tag_26\n        /* \"@openzeppelin/contracts/access/AccessControl.sol\":4470:4488  getRoleAdmin(role) */\n      jump\t// in\n    tag_80:\n        /* \"@openzeppelin/contracts/access/AccessControl.sol\":2505:2535  _checkRole(role, _msgSender()) */\n      tag_82\n        /* \"@openzeppelin/contracts/access/AccessControl.sol\":2516:2520  role */\n      dup2\n        /* \"@openzeppelin/contracts/access/AccessControl.sol\":2522:2534  _msgSender() */\n      tag_83\n        /* \"@openzeppelin/contracts/access/AccessControl.sol\":2522:2532  _msgSender */\n      tag_84\n        /* \"@openzeppelin/contracts/access/AccessControl.sol\":2522:2534  _msgSender() */\n      jump\t// in\n    tag_83:\n        /* \"@openzeppelin/contracts/access/AccessControl.sol\":2505:2515  _checkRole */\n      tag_85\n        /* \"@openzeppelin/contracts/access/AccessControl.sol\":2505:2535  _checkRole(role, _msgSender()) */\n      jump\t// in\n    tag_82:\n        /* \"@openzeppelin/contracts/access/AccessControl.sol\":4500:4525  _grantRole(role, account) */\n      tag_87\n        /* \"@openzeppelin/contracts/access/AccessControl.sol\":4511:4515  role */\n      dup4\n        /* \"@openzeppelin/contracts/access/AccessControl.sol\":4517:4524  account */\n      dup4\n        /* \"@openzeppelin/contracts/access/AccessControl.sol\":4500:4510  _grantRole */\n      tag_88\n        /* \"@openzeppelin/contracts/access/AccessControl.sol\":4500:4525  _grantRole(role, account) */\n      jump\t// in\n    tag_87:\n        /* \"@openzeppelin/contracts/access/AccessControl.sol\":4387:4532  function grantRole(bytes32 role, address account) public virtual override onlyRole(getRoleAdmin(role)) {... */\n      pop\n      pop\n      pop\n      jump\t// out\n        /* \"Marketplace.sol\":990:1327  function buyMarketItem(uint256 _itemId) public payable {\r... */\n    tag_37:\n        /* \"Marketplace.sol\":1096:1101  false */\n      0x00\n        /* \"Marketplace.sol\":1064:1101  idToMarketItem[_itemId].sold == false */\n      iszero\n      iszero\n        /* \"Marketplace.sol\":1064:1078  idToMarketItem */\n      0x02\n        /* \"Marketplace.sol\":1064:1087  idToMarketItem[_itemId] */\n      0x00\n        /* \"Marketplace.sol\":1079:1086  _itemId */\n      dup4\n        /* \"Marketplace.sol\":1064:1087  idToMarketItem[_itemId] */\n      dup2\n      mstore\n      0x20\n      add\n      swap1\n      dup2\n      mstore\n      0x20\n      add\n      0x00\n      keccak256\n        /* \"Marketplace.sol\":1064:1092  idToMarketItem[_itemId].sold */\n      0x03\n      add\n      0x00\n      swap1\n      sload\n      swap1\n      0x0100\n      exp\n      swap1\n      div\n      0xff\n      and\n        /* \"Marketplace.sol\":1064:1101  idToMarketItem[_itemId].sold == false */\n      iszero\n      iszero\n      eq\n        /* \"Marketplace.sol\":1056:1126  require(idToMarketItem[_itemId].sold == false, \"Item is already sold\") */\n      tag_90\n      jumpi\n      mload(0x40)\n      0x08c379a000000000000000000000000000000000000000000000000000000000\n      dup2\n      mstore\n      0x04\n      add\n      tag_91\n      swap1\n      tag_92\n      jump\t// in\n    tag_91:\n      mload(0x40)\n      dup1\n      swap2\n      sub\n      swap1\n      revert\n    tag_90:\n        /* \"Marketplace.sol\":1178:1187  msg.value */\n      callvalue\n        /* \"Marketplace.sol\":1145:1159  idToMarketItem */\n      0x02\n        /* \"Marketplace.sol\":1145:1168  idToMarketItem[_itemId] */\n      0x00\n        /* \"Marketplace.sol\":1160:1167  _itemId */\n      dup4\n        /* \"Marketplace.sol\":1145:1168  idToMarketItem[_itemId] */\n      dup2\n      mstore\n      0x20\n      add\n      swap1\n      dup2\n      mstore\n      0x20\n      add\n      0x00\n      keccak256\n        /* \"Marketplace.sol\":1145:1174  idToMarketItem[_itemId].price */\n      0x02\n      add\n      sload\n        /* \"Marketplace.sol\":1145:1187  idToMarketItem[_itemId].price == msg.value */\n      eq\n        /* \"Marketplace.sol\":1137:1212  require(idToMarketItem[_itemId].price == msg.value, \"Price does not match\") */\n      tag_93\n      jumpi\n      mload(0x40)\n      0x08c379a000000000000000000000000000000000000000000000000000000000\n      dup2\n      mstore\n      0x04\n      add\n      tag_94\n      swap1\n      tag_95\n      jump\t// in\n    tag_94:\n      mload(0x40)\n      dup1\n      swap2\n      sub\n      swap1\n      revert\n    tag_93:\n        /* \"Marketplace.sol\":1254:1258  true */\n      0x01\n        /* \"Marketplace.sol\":1223:1237  idToMarketItem */\n      0x02\n        /* \"Marketplace.sol\":1223:1246  idToMarketItem[_itemId] */\n      0x00\n        /* \"Marketplace.sol\":1238:1245  _itemId */\n      dup4\n        /* \"Marketplace.sol\":1223:1246  idToMarketItem[_itemId] */\n      dup2\n      mstore\n      0x20\n      add\n      swap1\n      dup2\n      mstore\n      0x20\n      add\n      0x00\n      keccak256\n        /* \"Marketplace.sol\":1223:1251  idToMarketItem[_itemId].sold */\n      0x03\n      add\n      0x00\n        /* \"Marketplace.sol\":1223:1258  idToMarketItem[_itemId].sold = true */\n      0x0100\n      exp\n      dup2\n      sload\n      dup2\n      0xff\n      mul\n      not\n      and\n      swap1\n      dup4\n      iszero\n      iszero\n      mul\n      or\n      swap1\n      sstore\n      pop\n        /* \"Marketplace.sol\":1269:1283  idToMarketItem */\n      0x02\n        /* \"Marketplace.sol\":1269:1292  idToMarketItem[_itemId] */\n      0x00\n        /* \"Marketplace.sol\":1284:1291  _itemId */\n      dup3\n        /* \"Marketplace.sol\":1269:1292  idToMarketItem[_itemId] */\n      dup2\n      mstore\n      0x20\n      add\n      swap1\n      dup2\n      mstore\n      0x20\n      add\n      0x00\n      keccak256\n        /* \"Marketplace.sol\":1269:1299  idToMarketItem[_itemId].seller */\n      0x01\n      add\n      0x00\n      swap1\n      sload\n      swap1\n      0x0100\n      exp\n      swap1\n      div\n      0xffffffffffffffffffffffffffffffffffffffff\n      and\n        /* \"Marketplace.sol\":1269:1308  idToMarketItem[_itemId].seller.transfer */\n      0xffffffffffffffffffffffffffffffffffffffff\n      and\n        /* \"Marketplace.sol\":1269:1319  idToMarketItem[_itemId].seller.transfer(msg.value) */\n      0x08fc\n        /* \"Marketplace.sol\":1309:1318  msg.value */\n      callvalue\n        /* \"Marketplace.sol\":1269:1319  idToMarketItem[_itemId].seller.transfer(msg.value) */\n      swap1\n      dup2\n      iszero\n      mul\n      swap1\n      mload(0x40)\n      0x00\n      mload(0x40)\n      dup1\n      dup4\n      sub\n      dup2\n      dup6\n      dup9\n      dup9\n      call\n      swap4\n      pop\n      pop\n      pop\n      pop\n      iszero\n      dup1\n      iszero\n      tag_97\n      jumpi\n      returndatasize\n      0x00\n      dup1\n      returndatacopy\n      revert(0x00, returndatasize)\n    tag_97:\n      pop\n        /* \"Marketplace.sol\":990:1327  function buyMarketItem(uint256 _itemId) public payable {\r... */\n      pop\n      jump\t// out\n        /* \"@openzeppelin/contracts/access/AccessControl.sol\":5404:5618  function renounceRole(bytes32 role, address account) public virtual override {... */\n    tag_41:\n        /* \"@openzeppelin/contracts/access/AccessControl.sol\":5510:5522  _msgSender() */\n      tag_99\n        /* \"@openzeppelin/contracts/access/AccessControl.sol\":5510:5520  _msgSender */\n      tag_84\n        /* \"@openzeppelin/contracts/access/AccessControl.sol\":5510:5522  _msgSender() */\n      jump\t// in\n    tag_99:\n        /* \"@openzeppelin/contracts/access/AccessControl.sol\":5499:5522  account == _msgSender() */\n      0xffffffffffffffffffffffffffffffffffffffff\n      and\n        /* \"@openzeppelin/contracts/access/AccessControl.sol\":5499:5506  account */\n      dup2\n        /* \"@openzeppelin/contracts/access/AccessControl.sol\":5499:5522  account == _msgSender() */\n      0xffffffffffffffffffffffffffffffffffffffff\n      and\n      eq\n        /* \"@openzeppelin/contracts/access/AccessControl.sol\":5491:5574  require(account == _msgSender(), \"AccessControl: can only renounce roles for self\") */\n      tag_100\n      jumpi\n      mload(0x40)\n      0x08c379a000000000000000000000000000000000000000000000000000000000\n      dup2\n      mstore\n      0x04\n      add\n      tag_101\n      swap1\n      tag_102\n      jump\t// in\n    tag_101:\n      mload(0x40)\n      dup1\n      swap2\n      sub\n      swap1\n      revert\n    tag_100:\n        /* \"@openzeppelin/contracts/access/AccessControl.sol\":5585:5611  _revokeRole(role, account) */\n      tag_103\n        /* \"@openzeppelin/contracts/access/AccessControl.sol\":5597:5601  role */\n      dup3\n        /* \"@openzeppelin/contracts/access/AccessControl.sol\":5603:5610  account */\n      dup3\n        /* \"@openzeppelin/contracts/access/AccessControl.sol\":5585:5596  _revokeRole */\n      tag_104\n        /* \"@openzeppelin/contracts/access/AccessControl.sol\":5585:5611  _revokeRole(role, account) */\n      jump\t// in\n    tag_103:\n        /* \"@openzeppelin/contracts/access/AccessControl.sol\":5404:5618  function renounceRole(bytes32 role, address account) public virtual override {... */\n      pop\n      pop\n      jump\t// out\n        /* \"Marketplace.sol\":249:278  uint256 public nextItemId = 0 */\n    tag_44:\n      sload(0x01)\n      dup2\n      jump\t// out\n        /* \"@openzeppelin/contracts/access/AccessControl.sol\":2909:3054  function hasRole(bytes32 role, address account) public view virtual override returns (bool) {... */\n    tag_50:\n        /* \"@openzeppelin/contracts/access/AccessControl.sol\":2995:2999  bool */\n      0x00\n        /* \"@openzeppelin/contracts/access/AccessControl.sol\":3018:3024  _roles */\n      dup1\n        /* \"@openzeppelin/contracts/access/AccessControl.sol\":3018:3030  _roles[role] */\n      0x00\n        /* \"@openzeppelin/contracts/access/AccessControl.sol\":3025:3029  role */\n      dup5\n        /* \"@openzeppelin/contracts/access/AccessControl.sol\":3018:3030  _roles[role] */\n      dup2\n      mstore\n      0x20\n      add\n      swap1\n      dup2\n      mstore\n      0x20\n      add\n      0x00\n      keccak256\n        /* \"@openzeppelin/contracts/access/AccessControl.sol\":3018:3038  _roles[role].members */\n      0x00\n      add\n        /* \"@openzeppelin/contracts/access/AccessControl.sol\":3018:3047  _roles[role].members[account] */\n      0x00\n        /* \"@openzeppelin/contracts/access/AccessControl.sol\":3039:3046  account */\n      dup4\n        /* \"@openzeppelin/contracts/access/AccessControl.sol\":3018:3047  _roles[role].members[account] */\n      0xffffffffffffffffffffffffffffffffffffffff\n      and\n      0xffffffffffffffffffffffffffffffffffffffff\n      and\n      dup2\n      mstore\n      0x20\n      add\n      swap1\n      dup2\n      mstore\n      0x20\n      add\n      0x00\n      keccak256\n      0x00\n      swap1\n      sload\n      swap1\n      0x0100\n      exp\n      swap1\n      div\n      0xff\n      and\n        /* \"@openzeppelin/contracts/access/AccessControl.sol\":3011:3047  return _roles[role].members[account] */\n      swap1\n      pop\n        /* \"@openzeppelin/contracts/access/AccessControl.sol\":2909:3054  function hasRole(bytes32 role, address account) public view virtual override returns (bool) {... */\n      swap3\n      swap2\n      pop\n      pop\n      jump\t// out\n        /* \"@openzeppelin/contracts/access/AccessControl.sol\":2027:2076  bytes32 public constant DEFAULT_ADMIN_ROLE = 0x00 */\n    tag_54:\n        /* \"@openzeppelin/contracts/access/AccessControl.sol\":2072:2076  0x00 */\n      0x00\n        /* \"@openzeppelin/contracts/access/AccessControl.sol\":2027:2076  bytes32 public constant DEFAULT_ADMIN_ROLE = 0x00 */\n      dup1\n      shl\n      dup2\n      jump\t// out\n        /* \"Marketplace.sol\":168:242  bytes32 public constant MARKETPLACE_OWNER = keccak256(\"MARKETPLACE_OWNER\") */\n    tag_58:\n        /* \"Marketplace.sol\":212:242  keccak256(\"MARKETPLACE_OWNER\") */\n      0x1f9ca85e780b3b3cfbe1334ca9dd68802db7860f692bd163c796bb76d464edc0\n        /* \"Marketplace.sol\":168:242  bytes32 public constant MARKETPLACE_OWNER = keccak256(\"MARKETPLACE_OWNER\") */\n      dup2\n      jump\t// out\n        /* \"Marketplace.sol\":1335:1565  function getMarketItem(uint256 _itemId) public view returns (address payable seller, uint256 price, bool sold) {\r... */\n    tag_63:\n        /* \"Marketplace.sol\":1396:1418  address payable seller */\n      0x00\n        /* \"Marketplace.sol\":1420:1433  uint256 price */\n      dup1\n        /* \"Marketplace.sol\":1435:1444  bool sold */\n      0x00\n        /* \"Marketplace.sol\":1465:1479  idToMarketItem */\n      0x02\n        /* \"Marketplace.sol\":1465:1488  idToMarketItem[_itemId] */\n      0x00\n        /* \"Marketplace.sol\":1480:1487  _itemId */\n      dup6\n        /* \"Marketplace.sol\":1465:1488  idToMarketItem[_itemId] */\n      dup2\n      mstore\n      0x20\n      add\n      swap1\n      dup2\n      mstore\n      0x20\n      add\n      0x00\n      keccak256\n        /* \"Marketplace.sol\":1465:1495  idToMarketItem[_itemId].seller */\n      0x01\n      add\n      0x00\n      swap1\n      sload\n      swap1\n      0x0100\n      exp\n      swap1\n      div\n      0xffffffffffffffffffffffffffffffffffffffff\n      and\n        /* \"Marketplace.sol\":1497:1511  idToMarketItem */\n      0x02\n        /* \"Marketplace.sol\":1497:1520  idToMarketItem[_itemId] */\n      0x00\n        /* \"Marketplace.sol\":1512:1519  _itemId */\n      dup7\n        /* \"Marketplace.sol\":1497:1520  idToMarketItem[_itemId] */\n      dup2\n      mstore\n      0x20\n      add\n      swap1\n      dup2\n      mstore\n      0x20\n      add\n      0x00\n      keccak256\n        /* \"Marketplace.sol\":1497:1526  idToMarketItem[_itemId].price */\n      0x02\n      add\n      sload\n        /* \"Marketplace.sol\":1528:1542  idToMarketItem */\n      0x02\n        /* \"Marketplace.sol\":1528:1551  idToMarketItem[_itemId] */\n      0x00\n        /* \"Marketplace.sol\":1543:1550  _itemId */\n      dup8\n        /* \"Marketplace.sol\":1528:1551  idToMarketItem[_itemId] */\n      dup2\n      mstore\n      0x20\n      add\n      swap1\n      dup2\n      mstore\n      0x20\n      add\n      0x00\n      keccak256\n        /* \"Marketplace.sol\":1528:1556  idToMarketItem[_itemId].sold */\n      0x03\n      add\n      0x00\n      swap1\n      sload\n      swap1\n      0x0100\n      exp\n      swap1\n      div\n      0xff\n      and\n        /* \"Marketplace.sol\":1457:1557  return (idToMarketItem[_itemId].seller, idToMarketItem[_itemId].price, idToMarketItem[_itemId].sold) */\n      swap3\n      pop\n      swap3\n      pop\n      swap3\n      pop\n        /* \"Marketplace.sol\":1335:1565  function getMarketItem(uint256 _itemId) public view returns (address payable seller, uint256 price, bool sold) {\r... */\n      swap2\n      swap4\n      swap1\n      swap3\n      pop\n      jump\t// out\n        /* \"@openzeppelin/contracts/access/AccessControl.sol\":4766:4913  function revokeRole(bytes32 role, address account) public virtual override onlyRole(getRoleAdmin(role)) {... */\n    tag_69:\n        /* \"@openzeppelin/contracts/access/AccessControl.sol\":4850:4868  getRoleAdmin(role) */\n      tag_107\n        /* \"@openzeppelin/contracts/access/AccessControl.sol\":4863:4867  role */\n      dup3\n        /* \"@openzeppelin/contracts/access/AccessControl.sol\":4850:4862  getRoleAdmin */\n      tag_26\n        /* \"@openzeppelin/contracts/access/AccessControl.sol\":4850:4868  getRoleAdmin(role) */\n      jump\t// in\n    tag_107:\n        /* \"@openzeppelin/contracts/access/AccessControl.sol\":2505:2535  _checkRole(role, _msgSender()) */\n      tag_109\n        /* \"@openzeppelin/contracts/access/AccessControl.sol\":2516:2520  role */\n      dup2\n        /* \"@openzeppelin/contracts/access/AccessControl.sol\":2522:2534  _msgSender() */\n      tag_110\n        /* \"@openzeppelin/contracts/access/AccessControl.sol\":2522:2532  _msgSender */\n      tag_84\n        /* \"@openzeppelin/contracts/access/AccessControl.sol\":2522:2534  _msgSender() */\n      jump\t// in\n    tag_110:\n        /* \"@openzeppelin/contracts/access/AccessControl.sol\":2505:2515  _checkRole */\n      tag_85\n        /* \"@openzeppelin/contracts/access/AccessControl.sol\":2505:2535  _checkRole(role, _msgSender()) */\n      jump\t// in\n    tag_109:\n        /* \"@openzeppelin/contracts/access/AccessControl.sol\":4880:4906  _revokeRole(role, account) */\n      tag_112\n        /* \"@openzeppelin/contracts/access/AccessControl.sol\":4892:4896  role */\n      dup4\n        /* \"@openzeppelin/contracts/access/AccessControl.sol\":4898:4905  account */\n      dup4\n        /* \"@openzeppelin/contracts/access/AccessControl.sol\":4880:4891  _revokeRole */\n      tag_104\n        /* \"@openzeppelin/contracts/access/AccessControl.sol\":4880:4906  _revokeRole(role, account) */\n      jump\t// in\n    tag_112:\n        /* \"@openzeppelin/contracts/access/AccessControl.sol\":4766:4913  function revokeRole(bytes32 role, address account) public virtual override onlyRole(getRoleAdmin(role)) {... */\n      pop\n      pop\n      pop\n      jump\t// out\n        /* \"Marketplace.sol\":571:982  function createMarketItem(address payable _seller, uint256 _price) public {\r... */\n    tag_74:\n        /* \"Marketplace.sol\":678:685  _seller */\n      dup2\n        /* \"Marketplace.sol\":664:685  msg.sender == _seller */\n      0xffffffffffffffffffffffffffffffffffffffff\n      and\n        /* \"Marketplace.sol\":664:674  msg.sender */\n      caller\n        /* \"Marketplace.sol\":664:685  msg.sender == _seller */\n      0xffffffffffffffffffffffffffffffffffffffff\n      and\n      eq\n        /* \"Marketplace.sol\":656:730  require(msg.sender == _seller, \"Only the seller can create a market item\") */\n      tag_114\n      jumpi\n      mload(0x40)\n      0x08c379a000000000000000000000000000000000000000000000000000000000\n      dup2\n      mstore\n      0x04\n      add\n      tag_115\n      swap1\n      tag_116\n      jump\t// in\n    tag_115:\n      mload(0x40)\n      dup1\n      swap2\n      sub\n      swap1\n      revert\n    tag_114:\n        /* \"Marketplace.sol\":758:759  0 */\n      0x00\n        /* \"Marketplace.sol\":749:755  _price */\n      dup2\n        /* \"Marketplace.sol\":749:759  _price > 0 */\n      gt\n        /* \"Marketplace.sol\":741:792  require(_price > 0, \"Price must be greater than 0\") */\n      tag_117\n      jumpi\n      mload(0x40)\n      0x08c379a000000000000000000000000000000000000000000000000000000000\n      dup2\n      mstore\n      0x04\n      add\n      tag_118\n      swap1\n      tag_119\n      jump\t// in\n    tag_118:\n      mload(0x40)\n      dup1\n      swap2\n      sub\n      swap1\n      revert\n    tag_117:\n        /* \"Marketplace.sol\":812:826  idToMarketItem */\n      0x02\n        /* \"Marketplace.sol\":812:838  idToMarketItem[nextItemId] */\n      0x00\n        /* \"Marketplace.sol\":827:837  nextItemId */\n      sload(0x01)\n        /* \"Marketplace.sol\":812:838  idToMarketItem[nextItemId] */\n      dup2\n      mstore\n      0x20\n      add\n      swap1\n      dup2\n      mstore\n      0x20\n      add\n      0x00\n      keccak256\n        /* \"Marketplace.sol\":812:843  idToMarketItem[nextItemId].sold */\n      0x03\n      add\n      0x00\n      swap1\n      sload\n      swap1\n      0x0100\n      exp\n      swap1\n      div\n      0xff\n      and\n        /* \"Marketplace.sol\":811:843  !idToMarketItem[nextItemId].sold */\n      iszero\n        /* \"Marketplace.sol\":803:865  require(!idToMarketItem[nextItemId].sold, \"Item already sold\") */\n      tag_120\n      jumpi\n      mload(0x40)\n      0x08c379a000000000000000000000000000000000000000000000000000000000\n      dup2\n      mstore\n      0x04\n      add\n      tag_121\n      swap1\n      tag_122\n      jump\t// in\n    tag_121:\n      mload(0x40)\n      dup1\n      swap2\n      sub\n      swap1\n      revert\n    tag_120:\n        /* \"Marketplace.sol\":905:951  MarketItem(nextItemId, _seller, _price, false) */\n      mload(0x40)\n      dup1\n      0x80\n      add\n      0x40\n      mstore\n      dup1\n        /* \"Marketplace.sol\":916:926  nextItemId */\n      sload(0x01)\n        /* \"Marketplace.sol\":905:951  MarketItem(nextItemId, _seller, _price, false) */\n      dup2\n      mstore\n      0x20\n      add\n        /* \"Marketplace.sol\":928:935  _seller */\n      dup4\n        /* \"Marketplace.sol\":905:951  MarketItem(nextItemId, _seller, _price, false) */\n      0xffffffffffffffffffffffffffffffffffffffff\n      and\n      dup2\n      mstore\n      0x20\n      add\n        /* \"Marketplace.sol\":937:943  _price */\n      dup3\n        /* \"Marketplace.sol\":905:951  MarketItem(nextItemId, _seller, _price, false) */\n      dup2\n      mstore\n      0x20\n      add\n        /* \"Marketplace.sol\":945:950  false */\n      0x00\n        /* \"Marketplace.sol\":905:951  MarketItem(nextItemId, _seller, _price, false) */\n      iszero\n      iszero\n      dup2\n      mstore\n      pop\n        /* \"Marketplace.sol\":876:890  idToMarketItem */\n      0x02\n        /* \"Marketplace.sol\":876:902  idToMarketItem[nextItemId] */\n      0x00\n        /* \"Marketplace.sol\":891:901  nextItemId */\n      sload(0x01)\n        /* \"Marketplace.sol\":876:902  idToMarketItem[nextItemId] */\n      dup2\n      mstore\n      0x20\n      add\n      swap1\n      dup2\n      mstore\n      0x20\n      add\n      0x00\n      keccak256\n        /* \"Marketplace.sol\":876:951  idToMarketItem[nextItemId] = MarketItem(nextItemId, _seller, _price, false) */\n      0x00\n      dup3\n      add\n      mload\n      dup2\n      0x00\n      add\n      sstore\n      0x20\n      dup3\n      add\n      mload\n      dup2\n      0x01\n      add\n      exp(0x0100, 0x00)\n      dup2\n      sload\n      dup2\n      0xffffffffffffffffffffffffffffffffffffffff\n      mul\n      not\n      and\n      swap1\n      dup4\n      0xffffffffffffffffffffffffffffffffffffffff\n      and\n      mul\n      or\n      swap1\n      sstore\n      pop\n      0x40\n      dup3\n      add\n      mload\n      dup2\n      0x02\n      add\n      sstore\n      0x60\n      dup3\n      add\n      mload\n      dup2\n      0x03\n      add\n      exp(0x0100, 0x00)\n      dup2\n      sload\n      dup2\n      0xff\n      mul\n      not\n      and\n      swap1\n      dup4\n      iszero\n      iszero\n      mul\n      or\n      swap1\n      sstore\n      pop\n      swap1\n      pop\n      pop\n        /* \"Marketplace.sol\":962:972  nextItemId */\n      0x01\n      0x00\n        /* \"Marketplace.sol\":962:974  nextItemId++ */\n      dup2\n      sload\n      dup1\n      swap3\n      swap2\n      swap1\n      tag_123\n      swap1\n      tag_124\n      jump\t// in\n    tag_123:\n      swap2\n      swap1\n      pop\n      sstore\n      pop\n        /* \"Marketplace.sol\":571:982  function createMarketItem(address payable _seller, uint256 _price) public {\r... */\n      pop\n      pop\n      jump\t// out\n        /* \"@openzeppelin/contracts/utils/introspection/ERC165.sol\":829:984  function supportsInterface(bytes4 interfaceId) public view virtual override returns (bool) {... */\n    tag_78:\n        /* \"@openzeppelin/contracts/utils/introspection/ERC165.sol\":914:918  bool */\n      0x00\n        /* \"@openzeppelin/contracts/utils/introspection/ERC165.sol\":952:977  type(IERC165).interfaceId */\n      0x01ffc9a700000000000000000000000000000000000000000000000000000000\n        /* \"@openzeppelin/contracts/utils/introspection/ERC165.sol\":937:977  interfaceId == type(IERC165).interfaceId */\n      not(0xffffffffffffffffffffffffffffffffffffffffffffffffffffffff)\n      and\n        /* \"@openzeppelin/contracts/utils/introspection/ERC165.sol\":937:948  interfaceId */\n      dup3\n        /* \"@openzeppelin/contracts/utils/introspection/ERC165.sol\":937:977  interfaceId == type(IERC165).interfaceId */\n      not(0xffffffffffffffffffffffffffffffffffffffffffffffffffffffff)\n      and\n      eq\n        /* \"@openzeppelin/contracts/utils/introspection/ERC165.sol\":930:977  return interfaceId == type(IERC165).interfaceId */\n      swap1\n      pop\n        /* \"@openzeppelin/contracts/utils/introspection/ERC165.sol\":829:984  function supportsInterface(bytes4 interfaceId) public view virtual override returns (bool) {... */\n      swap2\n      swap1\n      pop\n      jump\t// out\n        /* \"@openzeppelin/contracts/utils/Context.sol\":640:736  function _msgSender() internal view virtual returns (address) {... */\n    tag_84:\n        /* \"@openzeppelin/contracts/utils/Context.sol\":693:700  address */\n      0x00\n        /* \"@openzeppelin/contracts/utils/Context.sol\":719:729  msg.sender */\n      caller\n        /* \"@openzeppelin/contracts/utils/Context.sol\":712:729  return msg.sender */\n      swap1\n      pop\n        /* \"@openzeppelin/contracts/utils/Context.sol\":640:736  function _msgSender() internal view virtual returns (address) {... */\n      swap1\n      jump\t// out\n        /* \"@openzeppelin/contracts/access/AccessControl.sol\":3335:3827  function _checkRole(bytes32 role, address account) internal view virtual {... */\n    tag_85:\n        /* \"@openzeppelin/contracts/access/AccessControl.sol\":3423:3445  hasRole(role, account) */\n      tag_128\n        /* \"@openzeppelin/contracts/access/AccessControl.sol\":3431:3435  role */\n      dup3\n        /* \"@openzeppelin/contracts/access/AccessControl.sol\":3437:3444  account */\n      dup3\n        /* \"@openzeppelin/contracts/access/AccessControl.sol\":3423:3430  hasRole */\n      tag_50\n        /* \"@openzeppelin/contracts/access/AccessControl.sol\":3423:3445  hasRole(role, account) */\n      jump\t// in\n    tag_128:\n        /* \"@openzeppelin/contracts/access/AccessControl.sol\":3418:3821  if (!hasRole(role, account)) {... */\n      tag_129\n      jumpi\n        /* \"@openzeppelin/contracts/access/AccessControl.sol\":3606:3647  Strings.toHexString(uint160(account), 20) */\n      tag_130\n        /* \"@openzeppelin/contracts/access/AccessControl.sol\":3634:3641  account */\n      dup2\n        /* \"@openzeppelin/contracts/access/AccessControl.sol\":3606:3647  Strings.toHexString(uint160(account), 20) */\n      0xffffffffffffffffffffffffffffffffffffffff\n      and\n        /* \"@openzeppelin/contracts/access/AccessControl.sol\":3644:3646  20 */\n      0x14\n        /* \"@openzeppelin/contracts/access/AccessControl.sol\":3606:3625  Strings.toHexString */\n      tag_131\n        /* \"@openzeppelin/contracts/access/AccessControl.sol\":3606:3647  Strings.toHexString(uint160(account), 20) */\n      jump\t// in\n    tag_130:\n        /* \"@openzeppelin/contracts/access/AccessControl.sol\":3718:3756  Strings.toHexString(uint256(role), 32) */\n      tag_132\n        /* \"@openzeppelin/contracts/access/AccessControl.sol\":3746:3750  role */\n      dup4\n        /* \"@openzeppelin/contracts/access/AccessControl.sol\":3738:3751  uint256(role) */\n      0x00\n      shr\n        /* \"@openzeppelin/contracts/access/AccessControl.sol\":3753:3755  32 */\n      0x20\n        /* \"@openzeppelin/contracts/access/AccessControl.sol\":3718:3737  Strings.toHexString */\n      tag_131\n        /* \"@openzeppelin/contracts/access/AccessControl.sol\":3718:3756  Strings.toHexString(uint256(role), 32) */\n      jump\t// in\n    tag_132:\n        /* \"@openzeppelin/contracts/access/AccessControl.sol\":3513:3778  abi.encodePacked(... */\n      add(0x20, mload(0x40))\n      tag_133\n      swap3\n      swap2\n      swap1\n      tag_134\n      jump\t// in\n    tag_133:\n      mload(0x40)\n      0x20\n      dup2\n      dup4\n      sub\n      sub\n      dup2\n      mstore\n      swap1\n      0x40\n      mstore\n        /* \"@openzeppelin/contracts/access/AccessControl.sol\":3461:3810  revert(... */\n      mload(0x40)\n      0x08c379a000000000000000000000000000000000000000000000000000000000\n      dup2\n      mstore\n      0x04\n      add\n      tag_135\n      swap2\n      swap1\n      tag_136\n      jump\t// in\n    tag_135:\n      mload(0x40)\n      dup1\n      swap2\n      sub\n      swap1\n      revert\n        /* \"@openzeppelin/contracts/access/AccessControl.sol\":3418:3821  if (!hasRole(role, account)) {... */\n    tag_129:\n        /* \"@openzeppelin/contracts/access/AccessControl.sol\":3335:3827  function _checkRole(bytes32 role, address account) internal view virtual {... */\n      pop\n      pop\n      jump\t// out\n        /* \"@openzeppelin/contracts/access/AccessControl.sol\":6861:7094  function _grantRole(bytes32 role, address account) internal virtual {... */\n    tag_88:\n        /* \"@openzeppelin/contracts/access/AccessControl.sol\":6944:6966  hasRole(role, account) */\n      tag_138\n        /* \"@openzeppelin/contracts/access/AccessControl.sol\":6952:6956  role */\n      dup3\n        /* \"@openzeppelin/contracts/access/AccessControl.sol\":6958:6965  account */\n      dup3\n        /* \"@openzeppelin/contracts/access/AccessControl.sol\":6944:6951  hasRole */\n      tag_50\n        /* \"@openzeppelin/contracts/access/AccessControl.sol\":6944:6966  hasRole(role, account) */\n      jump\t// in\n    tag_138:\n        /* \"@openzeppelin/contracts/access/AccessControl.sol\":6939:7088  if (!hasRole(role, account)) {... */\n      tag_139\n      jumpi\n        /* \"@openzeppelin/contracts/access/AccessControl.sol\":7014:7018  true */\n      0x01\n        /* \"@openzeppelin/contracts/access/AccessControl.sol\":6982:6988  _roles */\n      0x00\n        /* \"@openzeppelin/contracts/access/AccessControl.sol\":6982:6994  _roles[role] */\n      dup1\n        /* \"@openzeppelin/contracts/access/AccessControl.sol\":6989:6993  role */\n      dup5\n        /* \"@openzeppelin/contracts/access/AccessControl.sol\":6982:6994  _roles[role] */\n      dup2\n      mstore\n      0x20\n      add\n      swap1\n      dup2\n      mstore\n      0x20\n      add\n      0x00\n      keccak256\n        /* \"@openzeppelin/contracts/access/AccessControl.sol\":6982:7002  _roles[role].members */\n      0x00\n      add\n        /* \"@openzeppelin/contracts/access/AccessControl.sol\":6982:7011  _roles[role].members[account] */\n      0x00\n        /* \"@openzeppelin/contracts/access/AccessControl.sol\":7003:7010  account */\n      dup4\n        /* \"@openzeppelin/contracts/access/AccessControl.sol\":6982:7011  _roles[role].members[account] */\n      0xffffffffffffffffffffffffffffffffffffffff\n      and\n      0xffffffffffffffffffffffffffffffffffffffff\n      and\n      dup2\n      mstore\n      0x20\n      add\n      swap1\n      dup2\n      mstore\n      0x20\n      add\n      0x00\n      keccak256\n      0x00\n        /* \"@openzeppelin/contracts/access/AccessControl.sol\":6982:7018  _roles[role].members[account] = true */\n      0x0100\n      exp\n      dup2\n      sload\n      dup2\n      0xff\n      mul\n      not\n      and\n      swap1\n      dup4\n      iszero\n      iszero\n      mul\n      or\n      swap1\n      sstore\n      pop\n        /* \"@openzeppelin/contracts/access/AccessControl.sol\":7064:7076  _msgSender() */\n      tag_140\n        /* \"@openzeppelin/contracts/access/AccessControl.sol\":7064:7074  _msgSender */\n      tag_84\n        /* \"@openzeppelin/contracts/access/AccessControl.sol\":7064:7076  _msgSender() */\n      jump\t// in\n    tag_140:\n        /* \"@openzeppelin/contracts/access/AccessControl.sol\":7037:7077  RoleGranted(role, account, _msgSender()) */\n      0xffffffffffffffffffffffffffffffffffffffff\n      and\n        /* \"@openzeppelin/contracts/access/AccessControl.sol\":7055:7062  account */\n      dup2\n        /* \"@openzeppelin/contracts/access/AccessControl.sol\":7037:7077  RoleGranted(role, account, _msgSender()) */\n      0xffffffffffffffffffffffffffffffffffffffff\n      and\n        /* \"@openzeppelin/contracts/access/AccessControl.sol\":7049:7053  role */\n      dup4\n        /* \"@openzeppelin/contracts/access/AccessControl.sol\":7037:7077  RoleGranted(role, account, _msgSender()) */\n      0x2f8788117e7eff1d82e926ec794901d17c78024a50270940304540a733656f0d\n      mload(0x40)\n      mload(0x40)\n      dup1\n      swap2\n      sub\n      swap1\n      log4\n        /* \"@openzeppelin/contracts/access/AccessControl.sol\":6939:7088  if (!hasRole(role, account)) {... */\n    tag_139:\n        /* \"@openzeppelin/contracts/access/AccessControl.sol\":6861:7094  function _grantRole(bytes32 role, address account) internal virtual {... */\n      pop\n      pop\n      jump\t// out\n        /* \"@openzeppelin/contracts/access/AccessControl.sol\":7219:7453  function _revokeRole(bytes32 role, address account) internal virtual {... */\n    tag_104:\n        /* \"@openzeppelin/contracts/access/AccessControl.sol\":7302:7324  hasRole(role, account) */\n      tag_142\n        /* \"@openzeppelin/contracts/access/AccessControl.sol\":7310:7314  role */\n      dup3\n        /* \"@openzeppelin/contracts/access/AccessControl.sol\":7316:7323  account */\n      dup3\n        /* \"@openzeppelin/contracts/access/AccessControl.sol\":7302:7309  hasRole */\n      tag_50\n        /* \"@openzeppelin/contracts/access/AccessControl.sol\":7302:7324  hasRole(role, account) */\n      jump\t// in\n    tag_142:\n        /* \"@openzeppelin/contracts/access/AccessControl.sol\":7298:7447  if (hasRole(role, account)) {... */\n      iszero\n      tag_143\n      jumpi\n        /* \"@openzeppelin/contracts/access/AccessControl.sol\":7372:7377  false */\n      0x00\n        /* \"@openzeppelin/contracts/access/AccessControl.sol\":7340:7346  _roles */\n      dup1\n        /* \"@openzeppelin/contracts/access/AccessControl.sol\":7340:7352  _roles[role] */\n      0x00\n        /* \"@openzeppelin/contracts/access/AccessControl.sol\":7347:7351  role */\n      dup5\n        /* \"@openzeppelin/contracts/access/AccessControl.sol\":7340:7352  _roles[role] */\n      dup2\n      mstore\n      0x20\n      add\n      swap1\n      dup2\n      mstore\n      0x20\n      add\n      0x00\n      keccak256\n        /* \"@openzeppelin/contracts/access/AccessControl.sol\":7340:7360  _roles[role].members */\n      0x00\n      add\n        /* \"@openzeppelin/contracts/access/AccessControl.sol\":7340:7369  _roles[role].members[account] */\n      0x00\n        /* \"@openzeppelin/contracts/access/AccessControl.sol\":7361:7368  account */\n      dup4\n        /* \"@openzeppelin/contracts/access/AccessControl.sol\":7340:7369  _roles[role].members[account] */\n      0xffffffffffffffffffffffffffffffffffffffff\n      and\n      0xffffffffffffffffffffffffffffffffffffffff\n      and\n      dup2\n      mstore\n      0x20\n      add\n      swap1\n      dup2\n      mstore\n      0x20\n      add\n      0x00\n      keccak256\n      0x00\n        /* \"@openzeppelin/contracts/access/AccessControl.sol\":7340:7377  _roles[role].members[account] = false */\n      0x0100\n      exp\n      dup2\n      sload\n      dup2\n      0xff\n      mul\n      not\n      and\n      swap1\n      dup4\n      iszero\n      iszero\n      mul\n      or\n      swap1\n      sstore\n      pop\n        /* \"@openzeppelin/contracts/access/AccessControl.sol\":7423:7435  _msgSender() */\n      tag_144\n        /* \"@openzeppelin/contracts/access/AccessControl.sol\":7423:7433  _msgSender */\n      tag_84\n        /* \"@openzeppelin/contracts/access/AccessControl.sol\":7423:7435  _msgSender() */\n      jump\t// in\n    tag_144:\n        /* \"@openzeppelin/contracts/access/AccessControl.sol\":7396:7436  RoleRevoked(role, account, _msgSender()) */\n      0xffffffffffffffffffffffffffffffffffffffff\n      and\n        /* \"@openzeppelin/contracts/access/AccessControl.sol\":7414:7421  account */\n      dup2\n        /* \"@openzeppelin/contracts/access/AccessControl.sol\":7396:7436  RoleRevoked(role, account, _msgSender()) */\n      0xffffffffffffffffffffffffffffffffffffffff\n      and\n        /* \"@openzeppelin/contracts/access/AccessControl.sol\":7408:7412  role */\n      dup4\n        /* \"@openzeppelin/contracts/access/AccessControl.sol\":7396:7436  RoleRevoked(role, account, _msgSender()) */\n      0xf6391f5c32d9c69d2a47ea670b442974b53935d1edc7fd64eb21e047a839171b\n      mload(0x40)\n      mload(0x40)\n      dup1\n      swap2\n      sub\n      swap1\n      log4\n        /* \"@openzeppelin/contracts/access/AccessControl.sol\":7298:7447  if (hasRole(role, account)) {... */\n    tag_143:\n        /* \"@openzeppelin/contracts/access/AccessControl.sol\":7219:7453  function _revokeRole(bytes32 role, address account) internal virtual {... */\n      pop\n      pop\n      jump\t// out\n        /* \"@openzeppelin/contracts/utils/Strings.sol\":1588:2029  function toHexString(uint256 value, uint256 length) internal pure returns (string memory) {... */\n    tag_131:\n        /* \"@openzeppelin/contracts/utils/Strings.sol\":1663:1676  string memory */\n      0x60\n        /* \"@openzeppelin/contracts/utils/Strings.sol\":1688:1707  bytes memory buffer */\n      0x00\n        /* \"@openzeppelin/contracts/utils/Strings.sol\":1733:1734  2 */\n      0x02\n        /* \"@openzeppelin/contracts/utils/Strings.sol\":1724:1730  length */\n      dup4\n        /* \"@openzeppelin/contracts/utils/Strings.sol\":1720:1721  2 */\n      0x02\n        /* \"@openzeppelin/contracts/utils/Strings.sol\":1720:1730  2 * length */\n      tag_146\n      swap2\n      swap1\n      tag_147\n      jump\t// in\n    tag_146:\n        /* \"@openzeppelin/contracts/utils/Strings.sol\":1720:1734  2 * length + 2 */\n      tag_148\n      swap2\n      swap1\n      tag_149\n      jump\t// in\n    tag_148:\n        /* \"@openzeppelin/contracts/utils/Strings.sol\":1710:1735  new bytes(2 * length + 2) */\n      0xffffffffffffffff\n      dup2\n      gt\n      iszero\n      tag_150\n      jumpi\n      tag_151\n      tag_152\n      jump\t// in\n    tag_151:\n    tag_150:\n      mload(0x40)\n      swap1\n      dup1\n      dup3\n      mstore\n      dup1\n      0x1f\n      add\n      not(0x1f)\n      and\n      0x20\n      add\n      dup3\n      add\n      0x40\n      mstore\n      dup1\n      iszero\n      tag_153\n      jumpi\n      dup2\n      0x20\n      add\n      0x01\n      dup3\n      mul\n      dup1\n      calldatasize\n      dup4\n      calldatacopy\n      dup1\n      dup3\n      add\n      swap2\n      pop\n      pop\n      swap1\n      pop\n    tag_153:\n      pop\n        /* \"@openzeppelin/contracts/utils/Strings.sol\":1688:1735  bytes memory buffer = new bytes(2 * length + 2) */\n      swap1\n      pop\n        /* \"@openzeppelin/contracts/utils/Strings.sol\":1745:1760  buffer[0] = \"0\" */\n      0x3000000000000000000000000000000000000000000000000000000000000000\n        /* \"@openzeppelin/contracts/utils/Strings.sol\":1745:1751  buffer */\n      dup2\n        /* \"@openzeppelin/contracts/utils/Strings.sol\":1752:1753  0 */\n      0x00\n        /* \"@openzeppelin/contracts/utils/Strings.sol\":1745:1754  buffer[0] */\n      dup2\n      mload\n      dup2\n      lt\n      tag_154\n      jumpi\n      tag_155\n      tag_156\n      jump\t// in\n    tag_155:\n    tag_154:\n      0x20\n      add\n      add\n        /* \"@openzeppelin/contracts/utils/Strings.sol\":1745:1760  buffer[0] = \"0\" */\n      swap1\n      not(0xffffffffffffffffffffffffffffffffffffffffffffffffffffffffffffff)\n      and\n      swap1\n      dup2\n      0x00\n      byte\n      swap1\n      mstore8\n      pop\n        /* \"@openzeppelin/contracts/utils/Strings.sol\":1770:1785  buffer[1] = \"x\" */\n      0x7800000000000000000000000000000000000000000000000000000000000000\n        /* \"@openzeppelin/contracts/utils/Strings.sol\":1770:1776  buffer */\n      dup2\n        /* \"@openzeppelin/contracts/utils/Strings.sol\":1777:1778  1 */\n      0x01\n        /* \"@openzeppelin/contracts/utils/Strings.sol\":1770:1779  buffer[1] */\n      dup2\n      mload\n      dup2\n      lt\n      tag_157\n      jumpi\n      tag_158\n      tag_156\n      jump\t// in\n    tag_158:\n    tag_157:\n      0x20\n      add\n      add\n        /* \"@openzeppelin/contracts/utils/Strings.sol\":1770:1785  buffer[1] = \"x\" */\n      swap1\n      not(0xffffffffffffffffffffffffffffffffffffffffffffffffffffffffffffff)\n      and\n      swap1\n      dup2\n      0x00\n      byte\n      swap1\n      mstore8\n      pop\n        /* \"@openzeppelin/contracts/utils/Strings.sol\":1800:1809  uint256 i */\n      0x00\n        /* \"@openzeppelin/contracts/utils/Strings.sol\":1825:1826  1 */\n      0x01\n        /* \"@openzeppelin/contracts/utils/Strings.sol\":1816:1822  length */\n      dup5\n        /* \"@openzeppelin/contracts/utils/Strings.sol\":1812:1813  2 */\n      0x02\n        /* \"@openzeppelin/contracts/utils/Strings.sol\":1812:1822  2 * length */\n      tag_162\n      swap2\n      swap1\n      tag_147\n      jump\t// in\n    tag_162:\n        /* \"@openzeppelin/contracts/utils/Strings.sol\":1812:1826  2 * length + 1 */\n      tag_163\n      swap2\n      swap1\n      tag_149\n      jump\t// in\n    tag_163:\n        /* \"@openzeppelin/contracts/utils/Strings.sol\":1800:1826  uint256 i = 2 * length + 1 */\n      swap1\n      pop\n        /* \"@openzeppelin/contracts/utils/Strings.sol\":1795:1927  for (uint256 i = 2 * length + 1; i > 1; --i) {... */\n    tag_159:\n        /* \"@openzeppelin/contracts/utils/Strings.sol\":1832:1833  1 */\n      0x01\n        /* \"@openzeppelin/contracts/utils/Strings.sol\":1828:1829  i */\n      dup2\n        /* \"@openzeppelin/contracts/utils/Strings.sol\":1828:1833  i > 1 */\n      gt\n        /* \"@openzeppelin/contracts/utils/Strings.sol\":1795:1927  for (uint256 i = 2 * length + 1; i > 1; --i) {... */\n      iszero\n      tag_160\n      jumpi\n        /* \"@openzeppelin/contracts/utils/Strings.sol\":1866:1878  _HEX_SYMBOLS */\n      0x3031323334353637383961626364656600000000000000000000000000000000\n        /* \"@openzeppelin/contracts/utils/Strings.sol\":1887:1890  0xf */\n      0x0f\n        /* \"@openzeppelin/contracts/utils/Strings.sol\":1879:1884  value */\n      dup7\n        /* \"@openzeppelin/contracts/utils/Strings.sol\":1879:1890  value & 0xf */\n      and\n        /* \"@openzeppelin/contracts/utils/Strings.sol\":1866:1891  _HEX_SYMBOLS[value & 0xf] */\n      0x10\n      dup2\n      lt\n      tag_164\n      jumpi\n      tag_165\n      tag_156\n      jump\t// in\n    tag_165:\n    tag_164:\n      byte\n      0xf8\n      shl\n        /* \"@openzeppelin/contracts/utils/Strings.sol\":1854:1860  buffer */\n      dup3\n        /* \"@openzeppelin/contracts/utils/Strings.sol\":1861:1862  i */\n      dup3\n        /* \"@openzeppelin/contracts/utils/Strings.sol\":1854:1863  buffer[i] */\n      dup2\n      mload\n      dup2\n      lt\n      tag_166\n      jumpi\n      tag_167\n      tag_156\n      jump\t// in\n    tag_167:\n    tag_166:\n      0x20\n      add\n      add\n        /* \"@openzeppelin/contracts/utils/Strings.sol\":1854:1891  buffer[i] = _HEX_SYMBOLS[value & 0xf] */\n      swap1\n      not(0xffffffffffffffffffffffffffffffffffffffffffffffffffffffffffffff)\n      and\n      swap1\n      dup2\n      0x00\n      byte\n      swap1\n      mstore8\n      pop\n        /* \"@openzeppelin/contracts/utils/Strings.sol\":1915:1916  4 */\n      0x04\n        /* \"@openzeppelin/contracts/utils/Strings.sol\":1905:1916  value >>= 4 */\n      dup6\n      swap1\n      shr\n      swap5\n      pop\n        /* \"@openzeppelin/contracts/utils/Strings.sol\":1835:1838  --i */\n      dup1\n      tag_168\n      swap1\n      tag_169\n      jump\t// in\n    tag_168:\n      swap1\n      pop\n        /* \"@openzeppelin/contracts/utils/Strings.sol\":1795:1927  for (uint256 i = 2 * length + 1; i > 1; --i) {... */\n      jump(tag_159)\n    tag_160:\n      pop\n        /* \"@openzeppelin/contracts/utils/Strings.sol\":1953:1954  0 */\n      0x00\n        /* \"@openzeppelin/contracts/utils/Strings.sol\":1944:1949  value */\n      dup5\n        /* \"@openzeppelin/contracts/utils/Strings.sol\":1944:1954  value == 0 */\n      eq\n        /* \"@openzeppelin/contracts/utils/Strings.sol\":1936:1991  require(value == 0, \"Strings: hex length insufficient\") */\n      tag_170\n      jumpi\n      mload(0x40)\n      0x08c379a000000000000000000000000000000000000000000000000000000000\n      dup2\n      mstore\n      0x04\n      add\n      tag_171\n      swap1\n      tag_172\n      jump\t// in\n    tag_171:\n      mload(0x40)\n      dup1\n      swap2\n      sub\n      swap1\n      revert\n    tag_170:\n        /* \"@openzeppelin/contracts/utils/Strings.sol\":2015:2021  buffer */\n      dup1\n        /* \"@openzeppelin/contracts/utils/Strings.sol\":2001:2022  return string(buffer) */\n      swap2\n      pop\n      pop\n        /* \"@openzeppelin/contracts/utils/Strings.sol\":1588:2029  function toHexString(uint256 value, uint256 length) internal pure returns (string memory) {... */\n      swap3\n      swap2\n      pop\n      pop\n      jump\t// out\n        /* \"#utility.yul\":7:146   */\n    tag_174:\n        /* \"#utility.yul\":53:58   */\n      0x00\n        /* \"#utility.yul\":91:97   */\n      dup2\n        /* \"#utility.yul\":78:98   */\n      calldataload\n        /* \"#utility.yul\":69:98   */\n      swap1\n      pop\n        /* \"#utility.yul\":107:140   */\n      tag_176\n        /* \"#utility.yul\":134:139   */\n      dup2\n        /* \"#utility.yul\":107:140   */\n      tag_177\n      jump\t// in\n    tag_176:\n        /* \"#utility.yul\":7:146   */\n      swap3\n      swap2\n      pop\n      pop\n      jump\t// out\n        /* \"#utility.yul\":152:307   */\n    tag_178:\n        /* \"#utility.yul\":206:211   */\n      0x00\n        /* \"#utility.yul\":244:250   */\n      dup2\n        /* \"#utility.yul\":231:251   */\n      calldataload\n        /* \"#utility.yul\":222:251   */\n      swap1\n      pop\n        /* \"#utility.yul\":260:301   */\n      tag_180\n        /* \"#utility.yul\":295:300   */\n      dup2\n        /* \"#utility.yul\":260:301   */\n      tag_181\n      jump\t// in\n    tag_180:\n        /* \"#utility.yul\":152:307   */\n      swap3\n      swap2\n      pop\n      pop\n      jump\t// out\n        /* \"#utility.yul\":313:452   */\n    tag_182:\n        /* \"#utility.yul\":359:364   */\n      0x00\n        /* \"#utility.yul\":397:403   */\n      dup2\n        /* \"#utility.yul\":384:404   */\n      calldataload\n        /* \"#utility.yul\":375:404   */\n      swap1\n      pop\n        /* \"#utility.yul\":413:446   */\n      tag_184\n        /* \"#utility.yul\":440:445   */\n      dup2\n        /* \"#utility.yul\":413:446   */\n      tag_185\n      jump\t// in\n    tag_184:\n        /* \"#utility.yul\":313:452   */\n      swap3\n      swap2\n      pop\n      pop\n      jump\t// out\n        /* \"#utility.yul\":458:595   */\n    tag_186:\n        /* \"#utility.yul\":503:508   */\n      0x00\n        /* \"#utility.yul\":541:547   */\n      dup2\n        /* \"#utility.yul\":528:548   */\n      calldataload\n        /* \"#utility.yul\":519:548   */\n      swap1\n      pop\n        /* \"#utility.yul\":557:589   */\n      tag_188\n        /* \"#utility.yul\":583:588   */\n      dup2\n        /* \"#utility.yul\":557:589   */\n      tag_189\n      jump\t// in\n    tag_188:\n        /* \"#utility.yul\":458:595   */\n      swap3\n      swap2\n      pop\n      pop\n      jump\t// out\n        /* \"#utility.yul\":601:740   */\n    tag_190:\n        /* \"#utility.yul\":647:652   */\n      0x00\n        /* \"#utility.yul\":685:691   */\n      dup2\n        /* \"#utility.yul\":672:692   */\n      calldataload\n        /* \"#utility.yul\":663:692   */\n      swap1\n      pop\n        /* \"#utility.yul\":701:734   */\n      tag_192\n        /* \"#utility.yul\":728:733   */\n      dup2\n        /* \"#utility.yul\":701:734   */\n      tag_193\n      jump\t// in\n    tag_192:\n        /* \"#utility.yul\":601:740   */\n      swap3\n      swap2\n      pop\n      pop\n      jump\t// out\n        /* \"#utility.yul\":746:1236   */\n    tag_73:\n        /* \"#utility.yul\":822:828   */\n      0x00\n        /* \"#utility.yul\":830:836   */\n      dup1\n        /* \"#utility.yul\":879:881   */\n      0x40\n        /* \"#utility.yul\":867:876   */\n      dup4\n        /* \"#utility.yul\":858:865   */\n      dup6\n        /* \"#utility.yul\":854:877   */\n      sub\n        /* \"#utility.yul\":850:882   */\n      slt\n        /* \"#utility.yul\":847:966   */\n      iszero\n      tag_195\n      jumpi\n        /* \"#utility.yul\":885:964   */\n      tag_196\n      tag_197\n      jump\t// in\n    tag_196:\n        /* \"#utility.yul\":847:966   */\n    tag_195:\n        /* \"#utility.yul\":1005:1006   */\n      0x00\n        /* \"#utility.yul\":1030:1091   */\n      tag_198\n        /* \"#utility.yul\":1083:1090   */\n      dup6\n        /* \"#utility.yul\":1074:1080   */\n      dup3\n        /* \"#utility.yul\":1063:1072   */\n      dup7\n        /* \"#utility.yul\":1059:1081   */\n      add\n        /* \"#utility.yul\":1030:1091   */\n      tag_178\n      jump\t// in\n    tag_198:\n        /* \"#utility.yul\":1020:1091   */\n      swap3\n      pop\n        /* \"#utility.yul\":976:1101   */\n      pop\n        /* \"#utility.yul\":1140:1142   */\n      0x20\n        /* \"#utility.yul\":1166:1219   */\n      tag_199\n        /* \"#utility.yul\":1211:1218   */\n      dup6\n        /* \"#utility.yul\":1202:1208   */\n      dup3\n        /* \"#utility.yul\":1191:1200   */\n      dup7\n        /* \"#utility.yul\":1187:1209   */\n      add\n        /* \"#utility.yul\":1166:1219   */\n      tag_190\n      jump\t// in\n    tag_199:\n        /* \"#utility.yul\":1156:1219   */\n      swap2\n      pop\n        /* \"#utility.yul\":1111:1229   */\n      pop\n        /* \"#utility.yul\":746:1236   */\n      swap3\n      pop\n      swap3\n      swap1\n      pop\n      jump\t// out\n        /* \"#utility.yul\":1242:1571   */\n    tag_25:\n        /* \"#utility.yul\":1301:1307   */\n      0x00\n        /* \"#utility.yul\":1350:1352   */\n      0x20\n        /* \"#utility.yul\":1338:1347   */\n      dup3\n        /* \"#utility.yul\":1329:1336   */\n      dup5\n        /* \"#utility.yul\":1325:1348   */\n      sub\n        /* \"#utility.yul\":1321:1353   */\n      slt\n        /* \"#utility.yul\":1318:1437   */\n      iszero\n      tag_201\n      jumpi\n        /* \"#utility.yul\":1356:1435   */\n      tag_202\n      tag_197\n      jump\t// in\n    tag_202:\n        /* \"#utility.yul\":1318:1437   */\n    tag_201:\n        /* \"#utility.yul\":1476:1477   */\n      0x00\n        /* \"#utility.yul\":1501:1554   */\n      tag_203\n        /* \"#utility.yul\":1546:1553   */\n      dup5\n        /* \"#utility.yul\":1537:1543   */\n      dup3\n        /* \"#utility.yul\":1526:1535   */\n      dup6\n        /* \"#utility.yul\":1522:1544   */\n      add\n        /* \"#utility.yul\":1501:1554   */\n      tag_182\n      jump\t// in\n    tag_203:\n        /* \"#utility.yul\":1491:1554   */\n      swap2\n      pop\n        /* \"#utility.yul\":1447:1564   */\n      pop\n        /* \"#utility.yul\":1242:1571   */\n      swap3\n      swap2\n      pop\n      pop\n      jump\t// out\n        /* \"#utility.yul\":1577:2051   */\n    tag_32:\n        /* \"#utility.yul\":1645:1651   */\n      0x00\n        /* \"#utility.yul\":1653:1659   */\n      dup1\n        /* \"#utility.yul\":1702:1704   */\n      0x40\n        /* \"#utility.yul\":1690:1699   */\n      dup4\n        /* \"#utility.yul\":1681:1688   */\n      dup6\n        /* \"#utility.yul\":1677:1700   */\n      sub\n        /* \"#utility.yul\":1673:1705   */\n      slt\n        /* \"#utility.yul\":1670:1789   */\n      iszero\n      tag_205\n      jumpi\n        /* \"#utility.yul\":1708:1787   */\n      tag_206\n      tag_197\n      jump\t// in\n    tag_206:\n        /* \"#utility.yul\":1670:1789   */\n    tag_205:\n        /* \"#utility.yul\":1828:1829   */\n      0x00\n        /* \"#utility.yul\":1853:1906   */\n      tag_207\n        /* \"#utility.yul\":1898:1905   */\n      dup6\n        /* \"#utility.yul\":1889:1895   */\n      dup3\n        /* \"#utility.yul\":1878:1887   */\n      dup7\n        /* \"#utility.yul\":1874:1896   */\n      add\n        /* \"#utility.yul\":1853:1906   */\n      tag_182\n      jump\t// in\n    tag_207:\n        /* \"#utility.yul\":1843:1906   */\n      swap3\n      pop\n        /* \"#utility.yul\":1799:1916   */\n      pop\n        /* \"#utility.yul\":1955:1957   */\n      0x20\n        /* \"#utility.yul\":1981:2034   */\n      tag_208\n        /* \"#utility.yul\":2026:2033   */\n      dup6\n        /* \"#utility.yul\":2017:2023   */\n      dup3\n        /* \"#utility.yul\":2006:2015   */\n      dup7\n        /* \"#utility.yul\":2002:2024   */\n      add\n        /* \"#utility.yul\":1981:2034   */\n      tag_174\n      jump\t// in\n    tag_208:\n        /* \"#utility.yul\":1971:2034   */\n      swap2\n      pop\n        /* \"#utility.yul\":1926:2044   */\n      pop\n        /* \"#utility.yul\":1577:2051   */\n      swap3\n      pop\n      swap3\n      swap1\n      pop\n      jump\t// out\n        /* \"#utility.yul\":2057:2384   */\n    tag_18:\n        /* \"#utility.yul\":2115:2121   */\n      0x00\n        /* \"#utility.yul\":2164:2166   */\n      0x20\n        /* \"#utility.yul\":2152:2161   */\n      dup3\n        /* \"#utility.yul\":2143:2150   */\n      dup5\n        /* \"#utility.yul\":2139:2162   */\n      sub\n        /* \"#utility.yul\":2135:2167   */\n      slt\n        /* \"#utility.yul\":2132:2251   */\n      iszero\n      tag_210\n      jumpi\n        /* \"#utility.yul\":2170:2249   */\n      tag_211\n      tag_197\n      jump\t// in\n    tag_211:\n        /* \"#utility.yul\":2132:2251   */\n    tag_210:\n        /* \"#utility.yul\":2290:2291   */\n      0x00\n        /* \"#utility.yul\":2315:2367   */\n      tag_212\n        /* \"#utility.yul\":2359:2366   */\n      dup5\n        /* \"#utility.yul\":2350:2356   */\n      dup3\n        /* \"#utility.yul\":2339:2348   */\n      dup6\n        /* \"#utility.yul\":2335:2357   */\n      add\n        /* \"#utility.yul\":2315:2367   */\n      tag_186\n      jump\t// in\n    tag_212:\n        /* \"#utility.yul\":2305:2367   */\n      swap2\n      pop\n        /* \"#utility.yul\":2261:2377   */\n      pop\n        /* \"#utility.yul\":2057:2384   */\n      swap3\n      swap2\n      pop\n      pop\n      jump\t// out\n        /* \"#utility.yul\":2390:2719   */\n    tag_36:\n        /* \"#utility.yul\":2449:2455   */\n      0x00\n        /* \"#utility.yul\":2498:2500   */\n      0x20\n        /* \"#utility.yul\":2486:2495   */\n      dup3\n        /* \"#utility.yul\":2477:2484   */\n      dup5\n        /* \"#utility.yul\":2473:2496   */\n      sub\n        /* \"#utility.yul\":2469:2501   */\n      slt\n        /* \"#utility.yul\":2466:2585   */\n      iszero\n      tag_214\n      jumpi\n        /* \"#utility.yul\":2504:2583   */\n      tag_215\n      tag_197\n      jump\t// in\n    tag_215:\n        /* \"#utility.yul\":2466:2585   */\n    tag_214:\n        /* \"#utility.yul\":2624:2625   */\n      0x00\n        /* \"#utility.yul\":2649:2702   */\n      tag_216\n        /* \"#utility.yul\":2694:2701   */\n      dup5\n        /* \"#utility.yul\":2685:2691   */\n      dup3\n        /* \"#utility.yul\":2674:2683   */\n      dup6\n        /* \"#utility.yul\":2670:2692   */\n      add\n        /* \"#utility.yul\":2649:2702   */\n      tag_190\n      jump\t// in\n    tag_216:\n        /* \"#utility.yul\":2639:2702   */\n      swap2\n      pop\n        /* \"#utility.yul\":2595:2712   */\n      pop\n        /* \"#utility.yul\":2390:2719   */\n      swap3\n      swap2\n      pop\n      pop\n      jump\t// out\n        /* \"#utility.yul\":2725:2867   */\n    tag_217:\n        /* \"#utility.yul\":2828:2860   */\n      tag_219\n        /* \"#utility.yul\":2854:2859   */\n      dup2\n        /* \"#utility.yul\":2828:2860   */\n      tag_220\n      jump\t// in\n    tag_219:\n        /* \"#utility.yul\":2823:2826   */\n      dup3\n        /* \"#utility.yul\":2816:2861   */\n      mstore\n        /* \"#utility.yul\":2725:2867   */\n      pop\n      pop\n      jump\t// out\n        /* \"#utility.yul\":2873:2982   */\n    tag_221:\n        /* \"#utility.yul\":2954:2975   */\n      tag_223\n        /* \"#utility.yul\":2969:2974   */\n      dup2\n        /* \"#utility.yul\":2954:2975   */\n      tag_224\n      jump\t// in\n    tag_223:\n        /* \"#utility.yul\":2949:2952   */\n      dup3\n        /* \"#utility.yul\":2942:2976   */\n      mstore\n        /* \"#utility.yul\":2873:2982   */\n      pop\n      pop\n      jump\t// out\n        /* \"#utility.yul\":2988:3106   */\n    tag_225:\n        /* \"#utility.yul\":3075:3099   */\n      tag_227\n        /* \"#utility.yul\":3093:3098   */\n      dup2\n        /* \"#utility.yul\":3075:3099   */\n      tag_228\n      jump\t// in\n    tag_227:\n        /* \"#utility.yul\":3070:3073   */\n      dup3\n        /* \"#utility.yul\":3063:3100   */\n      mstore\n        /* \"#utility.yul\":2988:3106   */\n      pop\n      pop\n      jump\t// out\n        /* \"#utility.yul\":3112:3476   */\n    tag_229:\n        /* \"#utility.yul\":3200:3203   */\n      0x00\n        /* \"#utility.yul\":3228:3267   */\n      tag_231\n        /* \"#utility.yul\":3261:3266   */\n      dup3\n        /* \"#utility.yul\":3228:3267   */\n      tag_232\n      jump\t// in\n    tag_231:\n        /* \"#utility.yul\":3283:3354   */\n      tag_233\n        /* \"#utility.yul\":3347:3353   */\n      dup2\n        /* \"#utility.yul\":3342:3345   */\n      dup6\n        /* \"#utility.yul\":3283:3354   */\n      tag_234\n      jump\t// in\n    tag_233:\n        /* \"#utility.yul\":3276:3354   */\n      swap4\n      pop\n        /* \"#utility.yul\":3363:3415   */\n      tag_235\n        /* \"#utility.yul\":3408:3414   */\n      dup2\n        /* \"#utility.yul\":3403:3406   */\n      dup6\n        /* \"#utility.yul\":3396:3400   */\n      0x20\n        /* \"#utility.yul\":3389:3394   */\n      dup7\n        /* \"#utility.yul\":3385:3401   */\n      add\n        /* \"#utility.yul\":3363:3415   */\n      tag_236\n      jump\t// in\n    tag_235:\n        /* \"#utility.yul\":3440:3469   */\n      tag_237\n        /* \"#utility.yul\":3462:3468   */\n      dup2\n        /* \"#utility.yul\":3440:3469   */\n      tag_238\n      jump\t// in\n    tag_237:\n        /* \"#utility.yul\":3435:3438   */\n      dup5\n        /* \"#utility.yul\":3431:3470   */\n      add\n        /* \"#utility.yul\":3424:3470   */\n      swap2\n      pop\n        /* \"#utility.yul\":3204:3476   */\n      pop\n        /* \"#utility.yul\":3112:3476   */\n      swap3\n      swap2\n      pop\n      pop\n      jump\t// out\n        /* \"#utility.yul\":3482:3859   */\n    tag_239:\n        /* \"#utility.yul\":3588:3591   */\n      0x00\n        /* \"#utility.yul\":3616:3655   */\n      tag_241\n        /* \"#utility.yul\":3649:3654   */\n      dup3\n        /* \"#utility.yul\":3616:3655   */\n      tag_232\n      jump\t// in\n    tag_241:\n        /* \"#utility.yul\":3671:3760   */\n      tag_242\n        /* \"#utility.yul\":3753:3759   */\n      dup2\n        /* \"#utility.yul\":3748:3751   */\n      dup6\n        /* \"#utility.yul\":3671:3760   */\n      tag_243\n      jump\t// in\n    tag_242:\n        /* \"#utility.yul\":3664:3760   */\n      swap4\n      pop\n        /* \"#utility.yul\":3769:3821   */\n      tag_244\n        /* \"#utility.yul\":3814:3820   */\n      dup2\n        /* \"#utility.yul\":3809:3812   */\n      dup6\n        /* \"#utility.yul\":3802:3806   */\n      0x20\n        /* \"#utility.yul\":3795:3800   */\n      dup7\n        /* \"#utility.yul\":3791:3807   */\n      add\n        /* \"#utility.yul\":3769:3821   */\n      tag_236\n      jump\t// in\n    tag_244:\n        /* \"#utility.yul\":3846:3852   */\n      dup1\n        /* \"#utility.yul\":3841:3844   */\n      dup5\n        /* \"#utility.yul\":3837:3853   */\n      add\n        /* \"#utility.yul\":3830:3853   */\n      swap2\n      pop\n        /* \"#utility.yul\":3592:3859   */\n      pop\n        /* \"#utility.yul\":3482:3859   */\n      swap3\n      swap2\n      pop\n      pop\n      jump\t// out\n        /* \"#utility.yul\":3865:4231   */\n    tag_245:\n        /* \"#utility.yul\":4007:4010   */\n      0x00\n        /* \"#utility.yul\":4028:4095   */\n      tag_247\n        /* \"#utility.yul\":4092:4094   */\n      0x20\n        /* \"#utility.yul\":4087:4090   */\n      dup4\n        /* \"#utility.yul\":4028:4095   */\n      tag_234\n      jump\t// in\n    tag_247:\n        /* \"#utility.yul\":4021:4095   */\n      swap2\n      pop\n        /* \"#utility.yul\":4104:4197   */\n      tag_248\n        /* \"#utility.yul\":4193:4196   */\n      dup3\n        /* \"#utility.yul\":4104:4197   */\n      tag_249\n      jump\t// in\n    tag_248:\n        /* \"#utility.yul\":4222:4224   */\n      0x20\n        /* \"#utility.yul\":4217:4220   */\n      dup3\n        /* \"#utility.yul\":4213:4225   */\n      add\n        /* \"#utility.yul\":4206:4225   */\n      swap1\n      pop\n        /* \"#utility.yul\":3865:4231   */\n      swap2\n      swap1\n      pop\n      jump\t// out\n        /* \"#utility.yul\":4237:4603   */\n    tag_250:\n        /* \"#utility.yul\":4379:4382   */\n      0x00\n        /* \"#utility.yul\":4400:4467   */\n      tag_252\n        /* \"#utility.yul\":4464:4466   */\n      0x14\n        /* \"#utility.yul\":4459:4462   */\n      dup4\n        /* \"#utility.yul\":4400:4467   */\n      tag_234\n      jump\t// in\n    tag_252:\n        /* \"#utility.yul\":4393:4467   */\n      swap2\n      pop\n        /* \"#utility.yul\":4476:4569   */\n      tag_253\n        /* \"#utility.yul\":4565:4568   */\n      dup3\n        /* \"#utility.yul\":4476:4569   */\n      tag_254\n      jump\t// in\n    tag_253:\n        /* \"#utility.yul\":4594:4596   */\n      0x20\n        /* \"#utility.yul\":4589:4592   */\n      dup3\n        /* \"#utility.yul\":4585:4597   */\n      add\n        /* \"#utility.yul\":4578:4597   */\n      swap1\n      pop\n        /* \"#utility.yul\":4237:4603   */\n      swap2\n      swap1\n      pop\n      jump\t// out\n        /* \"#utility.yul\":4609:4975   */\n    tag_255:\n        /* \"#utility.yul\":4751:4754   */\n      0x00\n        /* \"#utility.yul\":4772:4839   */\n      tag_257\n        /* \"#utility.yul\":4836:4838   */\n      0x14\n        /* \"#utility.yul\":4831:4834   */\n      dup4\n        /* \"#utility.yul\":4772:4839   */\n      tag_234\n      jump\t// in\n    tag_257:\n        /* \"#utility.yul\":4765:4839   */\n      swap2\n      pop\n        /* \"#utility.yul\":4848:4941   */\n      tag_258\n        /* \"#utility.yul\":4937:4940   */\n      dup3\n        /* \"#utility.yul\":4848:4941   */\n      tag_259\n      jump\t// in\n    tag_258:\n        /* \"#utility.yul\":4966:4968   */\n      0x20\n        /* \"#utility.yul\":4961:4964   */\n      dup3\n        /* \"#utility.yul\":4957:4969   */\n      add\n        /* \"#utility.yul\":4950:4969   */\n      swap1\n      pop\n        /* \"#utility.yul\":4609:4975   */\n      swap2\n      swap1\n      pop\n      jump\t// out\n        /* \"#utility.yul\":4981:5347   */\n    tag_260:\n        /* \"#utility.yul\":5123:5126   */\n      0x00\n        /* \"#utility.yul\":5144:5211   */\n      tag_262\n        /* \"#utility.yul\":5208:5210   */\n      0x28\n        /* \"#utility.yul\":5203:5206   */\n      dup4\n        /* \"#utility.yul\":5144:5211   */\n      tag_234\n      jump\t// in\n    tag_262:\n        /* \"#utility.yul\":5137:5211   */\n      swap2\n      pop\n        /* \"#utility.yul\":5220:5313   */\n      tag_263\n        /* \"#utility.yul\":5309:5312   */\n      dup3\n        /* \"#utility.yul\":5220:5313   */\n      tag_264\n      jump\t// in\n    tag_263:\n        /* \"#utility.yul\":5338:5340   */\n      0x40\n        /* \"#utility.yul\":5333:5336   */\n      dup3\n        /* \"#utility.yul\":5329:5341   */\n      add\n        /* \"#utility.yul\":5322:5341   */\n      swap1\n      pop\n        /* \"#utility.yul\":4981:5347   */\n      swap2\n      swap1\n      pop\n      jump\t// out\n        /* \"#utility.yul\":5353:5755   */\n    tag_265:\n        /* \"#utility.yul\":5513:5516   */\n      0x00\n        /* \"#utility.yul\":5534:5619   */\n      tag_267\n        /* \"#utility.yul\":5616:5618   */\n      0x17\n        /* \"#utility.yul\":5611:5614   */\n      dup4\n        /* \"#utility.yul\":5534:5619   */\n      tag_243\n      jump\t// in\n    tag_267:\n        /* \"#utility.yul\":5527:5619   */\n      swap2\n      pop\n        /* \"#utility.yul\":5628:5721   */\n      tag_268\n        /* \"#utility.yul\":5717:5720   */\n      dup3\n        /* \"#utility.yul\":5628:5721   */\n      tag_269\n      jump\t// in\n    tag_268:\n        /* \"#utility.yul\":5746:5748   */\n      0x17\n        /* \"#utility.yul\":5741:5744   */\n      dup3\n        /* \"#utility.yul\":5737:5749   */\n      add\n        /* \"#utility.yul\":5730:5749   */\n      swap1\n      pop\n        /* \"#utility.yul\":5353:5755   */\n      swap2\n      swap1\n      pop\n      jump\t// out\n        /* \"#utility.yul\":5761:6127   */\n    tag_270:\n        /* \"#utility.yul\":5903:5906   */\n      0x00\n        /* \"#utility.yul\":5924:5991   */\n      tag_272\n        /* \"#utility.yul\":5988:5990   */\n      0x11\n        /* \"#utility.yul\":5983:5986   */\n      dup4\n        /* \"#utility.yul\":5924:5991   */\n      tag_234\n      jump\t// in\n    tag_272:\n        /* \"#utility.yul\":5917:5991   */\n      swap2\n      pop\n        /* \"#utility.yul\":6000:6093   */\n      tag_273\n        /* \"#utility.yul\":6089:6092   */\n      dup3\n        /* \"#utility.yul\":6000:6093   */\n      tag_274\n      jump\t// in\n    tag_273:\n        /* \"#utility.yul\":6118:6120   */\n      0x20\n        /* \"#utility.yul\":6113:6116   */\n      dup3\n        /* \"#utility.yul\":6109:6121   */\n      add\n        /* \"#utility.yul\":6102:6121   */\n      swap1\n      pop\n        /* \"#utility.yul\":5761:6127   */\n      swap2\n      swap1\n      pop\n      jump\t// out\n        /* \"#utility.yul\":6133:6499   */\n    tag_275:\n        /* \"#utility.yul\":6275:6278   */\n      0x00\n        /* \"#utility.yul\":6296:6363   */\n      tag_277\n        /* \"#utility.yul\":6360:6362   */\n      0x1c\n        /* \"#utility.yul\":6355:6358   */\n      dup4\n        /* \"#utility.yul\":6296:6363   */\n      tag_234\n      jump\t// in\n    tag_277:\n        /* \"#utility.yul\":6289:6363   */\n      swap2\n      pop\n        /* \"#utility.yul\":6372:6465   */\n      tag_278\n        /* \"#utility.yul\":6461:6464   */\n      dup3\n        /* \"#utility.yul\":6372:6465   */\n      tag_279\n      jump\t// in\n    tag_278:\n        /* \"#utility.yul\":6490:6492   */\n      0x20\n        /* \"#utility.yul\":6485:6488   */\n      dup3\n        /* \"#utility.yul\":6481:6493   */\n      add\n        /* \"#utility.yul\":6474:6493   */\n      swap1\n      pop\n        /* \"#utility.yul\":6133:6499   */\n      swap2\n      swap1\n      pop\n      jump\t// out\n        /* \"#utility.yul\":6505:6907   */\n    tag_280:\n        /* \"#utility.yul\":6665:6668   */\n      0x00\n        /* \"#utility.yul\":6686:6771   */\n      tag_282\n        /* \"#utility.yul\":6768:6770   */\n      0x11\n        /* \"#utility.yul\":6763:6766   */\n      dup4\n        /* \"#utility.yul\":6686:6771   */\n      tag_243\n      jump\t// in\n    tag_282:\n        /* \"#utility.yul\":6679:6771   */\n      swap2\n      pop\n        /* \"#utility.yul\":6780:6873   */\n      tag_283\n        /* \"#utility.yul\":6869:6872   */\n      dup3\n        /* \"#utility.yul\":6780:6873   */\n      tag_284\n      jump\t// in\n    tag_283:\n        /* \"#utility.yul\":6898:6900   */\n      0x11\n        /* \"#utility.yul\":6893:6896   */\n      dup3\n        /* \"#utility.yul\":6889:6901   */\n      add\n        /* \"#utility.yul\":6882:6901   */\n      swap1\n      pop\n        /* \"#utility.yul\":6505:6907   */\n      swap2\n      swap1\n      pop\n      jump\t// out\n        /* \"#utility.yul\":6913:7279   */\n    tag_285:\n        /* \"#utility.yul\":7055:7058   */\n      0x00\n        /* \"#utility.yul\":7076:7143   */\n      tag_287\n        /* \"#utility.yul\":7140:7142   */\n      0x2f\n        /* \"#utility.yul\":7135:7138   */\n      dup4\n        /* \"#utility.yul\":7076:7143   */\n      tag_234\n      jump\t// in\n    tag_287:\n        /* \"#utility.yul\":7069:7143   */\n      swap2\n      pop\n        /* \"#utility.yul\":7152:7245   */\n      tag_288\n        /* \"#utility.yul\":7241:7244   */\n      dup3\n        /* \"#utility.yul\":7152:7245   */\n      tag_289\n      jump\t// in\n    tag_288:\n        /* \"#utility.yul\":7270:7272   */\n      0x40\n        /* \"#utility.yul\":7265:7268   */\n      dup3\n        /* \"#utility.yul\":7261:7273   */\n      add\n        /* \"#utility.yul\":7254:7273   */\n      swap1\n      pop\n        /* \"#utility.yul\":6913:7279   */\n      swap2\n      swap1\n      pop\n      jump\t// out\n        /* \"#utility.yul\":7285:7403   */\n    tag_290:\n        /* \"#utility.yul\":7372:7396   */\n      tag_292\n        /* \"#utility.yul\":7390:7395   */\n      dup2\n        /* \"#utility.yul\":7372:7396   */\n      tag_293\n      jump\t// in\n    tag_292:\n        /* \"#utility.yul\":7367:7370   */\n      dup3\n        /* \"#utility.yul\":7360:7397   */\n      mstore\n        /* \"#utility.yul\":7285:7403   */\n      pop\n      pop\n      jump\t// out\n        /* \"#utility.yul\":7409:8376   */\n    tag_134:\n        /* \"#utility.yul\":7791:7794   */\n      0x00\n        /* \"#utility.yul\":7813:7961   */\n      tag_295\n        /* \"#utility.yul\":7957:7960   */\n      dup3\n        /* \"#utility.yul\":7813:7961   */\n      tag_265\n      jump\t// in\n    tag_295:\n        /* \"#utility.yul\":7806:7961   */\n      swap2\n      pop\n        /* \"#utility.yul\":7978:8073   */\n      tag_296\n        /* \"#utility.yul\":8069:8072   */\n      dup3\n        /* \"#utility.yul\":8060:8066   */\n      dup6\n        /* \"#utility.yul\":7978:8073   */\n      tag_239\n      jump\t// in\n    tag_296:\n        /* \"#utility.yul\":7971:8073   */\n      swap2\n      pop\n        /* \"#utility.yul\":8090:8238   */\n      tag_297\n        /* \"#utility.yul\":8234:8237   */\n      dup3\n        /* \"#utility.yul\":8090:8238   */\n      tag_280\n      jump\t// in\n    tag_297:\n        /* \"#utility.yul\":8083:8238   */\n      swap2\n      pop\n        /* \"#utility.yul\":8255:8350   */\n      tag_298\n        /* \"#utility.yul\":8346:8349   */\n      dup3\n        /* \"#utility.yul\":8337:8343   */\n      dup5\n        /* \"#utility.yul\":8255:8350   */\n      tag_239\n      jump\t// in\n    tag_298:\n        /* \"#utility.yul\":8248:8350   */\n      swap2\n      pop\n        /* \"#utility.yul\":8367:8370   */\n      dup2\n        /* \"#utility.yul\":8360:8370   */\n      swap1\n      pop\n        /* \"#utility.yul\":7409:8376   */\n      swap4\n      swap3\n      pop\n      pop\n      pop\n      jump\t// out\n        /* \"#utility.yul\":8382:8844   */\n    tag_65:\n        /* \"#utility.yul\":8541:8545   */\n      0x00\n        /* \"#utility.yul\":8579:8581   */\n      0x60\n        /* \"#utility.yul\":8568:8577   */\n      dup3\n        /* \"#utility.yul\":8564:8582   */\n      add\n        /* \"#utility.yul\":8556:8582   */\n      swap1\n      pop\n        /* \"#utility.yul\":8592:8679   */\n      tag_300\n        /* \"#utility.yul\":8676:8677   */\n      0x00\n        /* \"#utility.yul\":8665:8674   */\n      dup4\n        /* \"#utility.yul\":8661:8678   */\n      add\n        /* \"#utility.yul\":8652:8658   */\n      dup7\n        /* \"#utility.yul\":8592:8679   */\n      tag_217\n      jump\t// in\n    tag_300:\n        /* \"#utility.yul\":8689:8761   */\n      tag_301\n        /* \"#utility.yul\":8757:8759   */\n      0x20\n        /* \"#utility.yul\":8746:8755   */\n      dup4\n        /* \"#utility.yul\":8742:8760   */\n      add\n        /* \"#utility.yul\":8733:8739   */\n      dup6\n        /* \"#utility.yul\":8689:8761   */\n      tag_290\n      jump\t// in\n    tag_301:\n        /* \"#utility.yul\":8771:8837   */\n      tag_302\n        /* \"#utility.yul\":8833:8835   */\n      0x40\n        /* \"#utility.yul\":8822:8831   */\n      dup4\n        /* \"#utility.yul\":8818:8836   */\n      add\n        /* \"#utility.yul\":8809:8815   */\n      dup5\n        /* \"#utility.yul\":8771:8837   */\n      tag_221\n      jump\t// in\n    tag_302:\n        /* \"#utility.yul\":8382:8844   */\n      swap5\n      swap4\n      pop\n      pop\n      pop\n      pop\n      jump\t// out\n        /* \"#utility.yul\":8850:9060   */\n    tag_21:\n        /* \"#utility.yul\":8937:8941   */\n      0x00\n        /* \"#utility.yul\":8975:8977   */\n      0x20\n        /* \"#utility.yul\":8964:8973   */\n      dup3\n        /* \"#utility.yul\":8960:8978   */\n      add\n        /* \"#utility.yul\":8952:8978   */\n      swap1\n      pop\n        /* \"#utility.yul\":8988:9053   */\n      tag_304\n        /* \"#utility.yul\":9050:9051   */\n      0x00\n        /* \"#utility.yul\":9039:9048   */\n      dup4\n        /* \"#utility.yul\":9035:9052   */\n      add\n        /* \"#utility.yul\":9026:9032   */\n      dup5\n        /* \"#utility.yul\":8988:9053   */\n      tag_221\n      jump\t// in\n    tag_304:\n        /* \"#utility.yul\":8850:9060   */\n      swap3\n      swap2\n      pop\n      pop\n      jump\t// out\n        /* \"#utility.yul\":9066:9288   */\n    tag_28:\n        /* \"#utility.yul\":9159:9163   */\n      0x00\n        /* \"#utility.yul\":9197:9199   */\n      0x20\n        /* \"#utility.yul\":9186:9195   */\n      dup3\n        /* \"#utility.yul\":9182:9200   */\n      add\n        /* \"#utility.yul\":9174:9200   */\n      swap1\n      pop\n        /* \"#utility.yul\":9210:9281   */\n      tag_306\n        /* \"#utility.yul\":9278:9279   */\n      0x00\n        /* \"#utility.yul\":9267:9276   */\n      dup4\n        /* \"#utility.yul\":9263:9280   */\n      add\n        /* \"#utility.yul\":9254:9260   */\n      dup5\n        /* \"#utility.yul\":9210:9281   */\n      tag_225\n      jump\t// in\n    tag_306:\n        /* \"#utility.yul\":9066:9288   */\n      swap3\n      swap2\n      pop\n      pop\n      jump\t// out\n        /* \"#utility.yul\":9294:9607   */\n    tag_136:\n        /* \"#utility.yul\":9407:9411   */\n      0x00\n        /* \"#utility.yul\":9445:9447   */\n      0x20\n        /* \"#utility.yul\":9434:9443   */\n      dup3\n        /* \"#utility.yul\":9430:9448   */\n      add\n        /* \"#utility.yul\":9422:9448   */\n      swap1\n      pop\n        /* \"#utility.yul\":9494:9503   */\n      dup2\n        /* \"#utility.yul\":9488:9492   */\n      dup2\n        /* \"#utility.yul\":9484:9504   */\n      sub\n        /* \"#utility.yul\":9480:9481   */\n      0x00\n        /* \"#utility.yul\":9469:9478   */\n      dup4\n        /* \"#utility.yul\":9465:9482   */\n      add\n        /* \"#utility.yul\":9458:9505   */\n      mstore\n        /* \"#utility.yul\":9522:9600   */\n      tag_308\n        /* \"#utility.yul\":9595:9599   */\n      dup2\n        /* \"#utility.yul\":9586:9592   */\n      dup5\n        /* \"#utility.yul\":9522:9600   */\n      tag_229\n      jump\t// in\n    tag_308:\n        /* \"#utility.yul\":9514:9600   */\n      swap1\n      pop\n        /* \"#utility.yul\":9294:9607   */\n      swap3\n      swap2\n      pop\n      pop\n      jump\t// out\n        /* \"#utility.yul\":9613:10032   */\n    tag_172:\n        /* \"#utility.yul\":9779:9783   */\n      0x00\n        /* \"#utility.yul\":9817:9819   */\n      0x20\n        /* \"#utility.yul\":9806:9815   */\n      dup3\n        /* \"#utility.yul\":9802:9820   */\n      add\n        /* \"#utility.yul\":9794:9820   */\n      swap1\n      pop\n        /* \"#utility.yul\":9866:9875   */\n      dup2\n        /* \"#utility.yul\":9860:9864   */\n      dup2\n        /* \"#utility.yul\":9856:9876   */\n      sub\n        /* \"#utility.yul\":9852:9853   */\n      0x00\n        /* \"#utility.yul\":9841:9850   */\n      dup4\n        /* \"#utility.yul\":9837:9854   */\n      add\n        /* \"#utility.yul\":9830:9877   */\n      mstore\n        /* \"#utility.yul\":9894:10025   */\n      tag_310\n        /* \"#utility.yul\":10020:10024   */\n      dup2\n        /* \"#utility.yul\":9894:10025   */\n      tag_245\n      jump\t// in\n    tag_310:\n        /* \"#utility.yul\":9886:10025   */\n      swap1\n      pop\n        /* \"#utility.yul\":9613:10032   */\n      swap2\n      swap1\n      pop\n      jump\t// out\n        /* \"#utility.yul\":10038:10457   */\n    tag_95:\n        /* \"#utility.yul\":10204:10208   */\n      0x00\n        /* \"#utility.yul\":10242:10244   */\n      0x20\n        /* \"#utility.yul\":10231:10240   */\n      dup3\n        /* \"#utility.yul\":10227:10245   */\n      add\n        /* \"#utility.yul\":10219:10245   */\n      swap1\n      pop\n        /* \"#utility.yul\":10291:10300   */\n      dup2\n        /* \"#utility.yul\":10285:10289   */\n      dup2\n        /* \"#utility.yul\":10281:10301   */\n      sub\n        /* \"#utility.yul\":10277:10278   */\n      0x00\n        /* \"#utility.yul\":10266:10275   */\n      dup4\n        /* \"#utility.yul\":10262:10279   */\n      add\n        /* \"#utility.yul\":10255:10302   */\n      mstore\n        /* \"#utility.yul\":10319:10450   */\n      tag_312\n        /* \"#utility.yul\":10445:10449   */\n      dup2\n        /* \"#utility.yul\":10319:10450   */\n      tag_250\n      jump\t// in\n    tag_312:\n        /* \"#utility.yul\":10311:10450   */\n      swap1\n      pop\n        /* \"#utility.yul\":10038:10457   */\n      swap2\n      swap1\n      pop\n      jump\t// out\n        /* \"#utility.yul\":10463:10882   */\n    tag_92:\n        /* \"#utility.yul\":10629:10633   */\n      0x00\n        /* \"#utility.yul\":10667:10669   */\n      0x20\n        /* \"#utility.yul\":10656:10665   */\n      dup3\n        /* \"#utility.yul\":10652:10670   */\n      add\n        /* \"#utility.yul\":10644:10670   */\n      swap1\n      pop\n        /* \"#utility.yul\":10716:10725   */\n      dup2\n        /* \"#utility.yul\":10710:10714   */\n      dup2\n        /* \"#utility.yul\":10706:10726   */\n      sub\n        /* \"#utility.yul\":10702:10703   */\n      0x00\n        /* \"#utility.yul\":10691:10700   */\n      dup4\n        /* \"#utility.yul\":10687:10704   */\n      add\n        /* \"#utility.yul\":10680:10727   */\n      mstore\n        /* \"#utility.yul\":10744:10875   */\n      tag_314\n        /* \"#utility.yul\":10870:10874   */\n      dup2\n        /* \"#utility.yul\":10744:10875   */\n      tag_255\n      jump\t// in\n    tag_314:\n        /* \"#utility.yul\":10736:10875   */\n      swap1\n      pop\n        /* \"#utility.yul\":10463:10882   */\n      swap2\n      swap1\n      pop\n      jump\t// out\n        /* \"#utility.yul\":10888:11307   */\n    tag_116:\n        /* \"#utility.yul\":11054:11058   */\n      0x00\n        /* \"#utility.yul\":11092:11094   */\n      0x20\n        /* \"#utility.yul\":11081:11090   */\n      dup3\n        /* \"#utility.yul\":11077:11095   */\n      add\n        /* \"#utility.yul\":11069:11095   */\n      swap1\n      pop\n        /* \"#utility.yul\":11141:11150   */\n      dup2\n        /* \"#utility.yul\":11135:11139   */\n      dup2\n        /* \"#utility.yul\":11131:11151   */\n      sub\n        /* \"#utility.yul\":11127:11128   */\n      0x00\n        /* \"#utility.yul\":11116:11125   */\n      dup4\n        /* \"#utility.yul\":11112:11129   */\n      add\n        /* \"#utility.yul\":11105:11152   */\n      mstore\n        /* \"#utility.yul\":11169:11300   */\n      tag_316\n        /* \"#utility.yul\":11295:11299   */\n      dup2\n        /* \"#utility.yul\":11169:11300   */\n      tag_260\n      jump\t// in\n    tag_316:\n        /* \"#utility.yul\":11161:11300   */\n      swap1\n      pop\n        /* \"#utility.yul\":10888:11307   */\n      swap2\n      swap1\n      pop\n      jump\t// out\n        /* \"#utility.yul\":11313:11732   */\n    tag_122:\n        /* \"#utility.yul\":11479:11483   */\n      0x00\n        /* \"#utility.yul\":11517:11519   */\n      0x20\n        /* \"#utility.yul\":11506:11515   */\n      dup3\n        /* \"#utility.yul\":11502:11520   */\n      add\n        /* \"#utility.yul\":11494:11520   */\n      swap1\n      pop\n        /* \"#utility.yul\":11566:11575   */\n      dup2\n        /* \"#utility.yul\":11560:11564   */\n      dup2\n        /* \"#utility.yul\":11556:11576   */\n      sub\n        /* \"#utility.yul\":11552:11553   */\n      0x00\n        /* \"#utility.yul\":11541:11550   */\n      dup4\n        /* \"#utility.yul\":11537:11554   */\n      add\n        /* \"#utility.yul\":11530:11577   */\n      mstore\n        /* \"#utility.yul\":11594:11725   */\n      tag_318\n        /* \"#utility.yul\":11720:11724   */\n      dup2\n        /* \"#utility.yul\":11594:11725   */\n      tag_270\n      jump\t// in\n    tag_318:\n        /* \"#utility.yul\":11586:11725   */\n      swap1\n      pop\n        /* \"#utility.yul\":11313:11732   */\n      swap2\n      swap1\n      pop\n      jump\t// out\n        /* \"#utility.yul\":11738:12157   */\n    tag_119:\n        /* \"#utility.yul\":11904:11908   */\n      0x00\n        /* \"#utility.yul\":11942:11944   */\n      0x20\n        /* \"#utility.yul\":11931:11940   */\n      dup3\n        /* \"#utility.yul\":11927:11945   */\n      add\n        /* \"#utility.yul\":11919:11945   */\n      swap1\n      pop\n        /* \"#utility.yul\":11991:12000   */\n      dup2\n        /* \"#utility.yul\":11985:11989   */\n      dup2\n        /* \"#utility.yul\":11981:12001   */\n      sub\n        /* \"#utility.yul\":11977:11978   */\n      0x00\n        /* \"#utility.yul\":11966:11975   */\n      dup4\n        /* \"#utility.yul\":11962:11979   */\n      add\n        /* \"#utility.yul\":11955:12002   */\n      mstore\n        /* \"#utility.yul\":12019:12150   */\n      tag_320\n        /* \"#utility.yul\":12145:12149   */\n      dup2\n        /* \"#utility.yul\":12019:12150   */\n      tag_275\n      jump\t// in\n    tag_320:\n        /* \"#utility.yul\":12011:12150   */\n      swap1\n      pop\n        /* \"#utility.yul\":11738:12157   */\n      swap2\n      swap1\n      pop\n      jump\t// out\n        /* \"#utility.yul\":12163:12582   */\n    tag_102:\n        /* \"#utility.yul\":12329:12333   */\n      0x00\n        /* \"#utility.yul\":12367:12369   */\n      0x20\n        /* \"#utility.yul\":12356:12365   */\n      dup3\n        /* \"#utility.yul\":12352:12370   */\n      add\n        /* \"#utility.yul\":12344:12370   */\n      swap1\n      pop\n        /* \"#utility.yul\":12416:12425   */\n      dup2\n        /* \"#utility.yul\":12410:12414   */\n      dup2\n        /* \"#utility.yul\":12406:12426   */\n      sub\n        /* \"#utility.yul\":12402:12403   */\n      0x00\n        /* \"#utility.yul\":12391:12400   */\n      dup4\n        /* \"#utility.yul\":12387:12404   */\n      add\n        /* \"#utility.yul\":12380:12427   */\n      mstore\n        /* \"#utility.yul\":12444:12575   */\n      tag_322\n        /* \"#utility.yul\":12570:12574   */\n      dup2\n        /* \"#utility.yul\":12444:12575   */\n      tag_285\n      jump\t// in\n    tag_322:\n        /* \"#utility.yul\":12436:12575   */\n      swap1\n      pop\n        /* \"#utility.yul\":12163:12582   */\n      swap2\n      swap1\n      pop\n      jump\t// out\n        /* \"#utility.yul\":12588:12810   */\n    tag_46:\n        /* \"#utility.yul\":12681:12685   */\n      0x00\n        /* \"#utility.yul\":12719:12721   */\n      0x20\n        /* \"#utility.yul\":12708:12717   */\n      dup3\n        /* \"#utility.yul\":12704:12722   */\n      add\n        /* \"#utility.yul\":12696:12722   */\n      swap1\n      pop\n        /* \"#utility.yul\":12732:12803   */\n      tag_324\n        /* \"#utility.yul\":12800:12801   */\n      0x00\n        /* \"#utility.yul\":12789:12798   */\n      dup4\n        /* \"#utility.yul\":12785:12802   */\n      add\n        /* \"#utility.yul\":12776:12782   */\n      dup5\n        /* \"#utility.yul\":12732:12803   */\n      tag_290\n      jump\t// in\n    tag_324:\n        /* \"#utility.yul\":12588:12810   */\n      swap3\n      swap2\n      pop\n      pop\n      jump\t// out\n        /* \"#utility.yul\":12897:12996   */\n    tag_232:\n        /* \"#utility.yul\":12949:12955   */\n      0x00\n        /* \"#utility.yul\":12983:12988   */\n      dup2\n        /* \"#utility.yul\":12977:12989   */\n      mload\n        /* \"#utility.yul\":12967:12989   */\n      swap1\n      pop\n        /* \"#utility.yul\":12897:12996   */\n      swap2\n      swap1\n      pop\n      jump\t// out\n        /* \"#utility.yul\":13002:13171   */\n    tag_234:\n        /* \"#utility.yul\":13086:13097   */\n      0x00\n        /* \"#utility.yul\":13120:13126   */\n      dup3\n        /* \"#utility.yul\":13115:13118   */\n      dup3\n        /* \"#utility.yul\":13108:13127   */\n      mstore\n        /* \"#utility.yul\":13160:13164   */\n      0x20\n        /* \"#utility.yul\":13155:13158   */\n      dup3\n        /* \"#utility.yul\":13151:13165   */\n      add\n        /* \"#utility.yul\":13136:13165   */\n      swap1\n      pop\n        /* \"#utility.yul\":13002:13171   */\n      swap3\n      swap2\n      pop\n      pop\n      jump\t// out\n        /* \"#utility.yul\":13177:13325   */\n    tag_243:\n        /* \"#utility.yul\":13279:13290   */\n      0x00\n        /* \"#utility.yul\":13316:13319   */\n      dup2\n        /* \"#utility.yul\":13301:13319   */\n      swap1\n      pop\n        /* \"#utility.yul\":13177:13325   */\n      swap3\n      swap2\n      pop\n      pop\n      jump\t// out\n        /* \"#utility.yul\":13331:13636   */\n    tag_149:\n        /* \"#utility.yul\":13371:13374   */\n      0x00\n        /* \"#utility.yul\":13390:13410   */\n      tag_331\n        /* \"#utility.yul\":13408:13409   */\n      dup3\n        /* \"#utility.yul\":13390:13410   */\n      tag_293\n      jump\t// in\n    tag_331:\n        /* \"#utility.yul\":13385:13410   */\n      swap2\n      pop\n        /* \"#utility.yul\":13424:13444   */\n      tag_332\n        /* \"#utility.yul\":13442:13443   */\n      dup4\n        /* \"#utility.yul\":13424:13444   */\n      tag_293\n      jump\t// in\n    tag_332:\n        /* \"#utility.yul\":13419:13444   */\n      swap3\n      pop\n        /* \"#utility.yul\":13578:13579   */\n      dup3\n        /* \"#utility.yul\":13510:13576   */\n      0xffffffffffffffffffffffffffffffffffffffffffffffffffffffffffffffff\n        /* \"#utility.yul\":13506:13580   */\n      sub\n        /* \"#utility.yul\":13503:13504   */\n      dup3\n        /* \"#utility.yul\":13500:13581   */\n      gt\n        /* \"#utility.yul\":13497:13604   */\n      iszero\n      tag_333\n      jumpi\n        /* \"#utility.yul\":13584:13602   */\n      tag_334\n      tag_335\n      jump\t// in\n    tag_334:\n        /* \"#utility.yul\":13497:13604   */\n    tag_333:\n        /* \"#utility.yul\":13628:13629   */\n      dup3\n        /* \"#utility.yul\":13625:13626   */\n      dup3\n        /* \"#utility.yul\":13621:13630   */\n      add\n        /* \"#utility.yul\":13614:13630   */\n      swap1\n      pop\n        /* \"#utility.yul\":13331:13636   */\n      swap3\n      swap2\n      pop\n      pop\n      jump\t// out\n        /* \"#utility.yul\":13642:13990   */\n    tag_147:\n        /* \"#utility.yul\":13682:13689   */\n      0x00\n        /* \"#utility.yul\":13705:13725   */\n      tag_337\n        /* \"#utility.yul\":13723:13724   */\n      dup3\n        /* \"#utility.yul\":13705:13725   */\n      tag_293\n      jump\t// in\n    tag_337:\n        /* \"#utility.yul\":13700:13725   */\n      swap2\n      pop\n        /* \"#utility.yul\":13739:13759   */\n      tag_338\n        /* \"#utility.yul\":13757:13758   */\n      dup4\n        /* \"#utility.yul\":13739:13759   */\n      tag_293\n      jump\t// in\n    tag_338:\n        /* \"#utility.yul\":13734:13759   */\n      swap3\n      pop\n        /* \"#utility.yul\":13927:13928   */\n      dup2\n        /* \"#utility.yul\":13859:13925   */\n      0xffffffffffffffffffffffffffffffffffffffffffffffffffffffffffffffff\n        /* \"#utility.yul\":13855:13929   */\n      div\n        /* \"#utility.yul\":13852:13853   */\n      dup4\n        /* \"#utility.yul\":13849:13930   */\n      gt\n        /* \"#utility.yul\":13844:13845   */\n      dup3\n        /* \"#utility.yul\":13837:13846   */\n      iszero\n        /* \"#utility.yul\":13830:13847   */\n      iszero\n        /* \"#utility.yul\":13826:13931   */\n      and\n        /* \"#utility.yul\":13823:13954   */\n      iszero\n      tag_339\n      jumpi\n        /* \"#utility.yul\":13934:13952   */\n      tag_340\n      tag_335\n      jump\t// in\n    tag_340:\n        /* \"#utility.yul\":13823:13954   */\n    tag_339:\n        /* \"#utility.yul\":13982:13983   */\n      dup3\n        /* \"#utility.yul\":13979:13980   */\n      dup3\n        /* \"#utility.yul\":13975:13984   */\n      mul\n        /* \"#utility.yul\":13964:13984   */\n      swap1\n      pop\n        /* \"#utility.yul\":13642:13990   */\n      swap3\n      swap2\n      pop\n      pop\n      jump\t// out\n        /* \"#utility.yul\":13996:14092   */\n    tag_341:\n        /* \"#utility.yul\":14033:14040   */\n      0x00\n        /* \"#utility.yul\":14062:14086   */\n      tag_343\n        /* \"#utility.yul\":14080:14085   */\n      dup3\n        /* \"#utility.yul\":14062:14086   */\n      tag_344\n      jump\t// in\n    tag_343:\n        /* \"#utility.yul\":14051:14086   */\n      swap1\n      pop\n        /* \"#utility.yul\":13996:14092   */\n      swap2\n      swap1\n      pop\n      jump\t// out\n        /* \"#utility.yul\":14098:14202   */\n    tag_220:\n        /* \"#utility.yul\":14143:14150   */\n      0x00\n        /* \"#utility.yul\":14172:14196   */\n      tag_346\n        /* \"#utility.yul\":14190:14195   */\n      dup3\n        /* \"#utility.yul\":14172:14196   */\n      tag_344\n      jump\t// in\n    tag_346:\n        /* \"#utility.yul\":14161:14196   */\n      swap1\n      pop\n        /* \"#utility.yul\":14098:14202   */\n      swap2\n      swap1\n      pop\n      jump\t// out\n        /* \"#utility.yul\":14208:14298   */\n    tag_224:\n        /* \"#utility.yul\":14242:14249   */\n      0x00\n        /* \"#utility.yul\":14285:14290   */\n      dup2\n        /* \"#utility.yul\":14278:14291   */\n      iszero\n        /* \"#utility.yul\":14271:14292   */\n      iszero\n        /* \"#utility.yul\":14260:14292   */\n      swap1\n      pop\n        /* \"#utility.yul\":14208:14298   */\n      swap2\n      swap1\n      pop\n      jump\t// out\n        /* \"#utility.yul\":14304:14381   */\n    tag_228:\n        /* \"#utility.yul\":14341:14348   */\n      0x00\n        /* \"#utility.yul\":14370:14375   */\n      dup2\n        /* \"#utility.yul\":14359:14375   */\n      swap1\n      pop\n        /* \"#utility.yul\":14304:14381   */\n      swap2\n      swap1\n      pop\n      jump\t// out\n        /* \"#utility.yul\":14387:14536   */\n    tag_349:\n        /* \"#utility.yul\":14423:14430   */\n      0x00\n        /* \"#utility.yul\":14463:14529   */\n      0xffffffff00000000000000000000000000000000000000000000000000000000\n        /* \"#utility.yul\":14456:14461   */\n      dup3\n        /* \"#utility.yul\":14452:14530   */\n      and\n        /* \"#utility.yul\":14441:14530   */\n      swap1\n      pop\n        /* \"#utility.yul\":14387:14536   */\n      swap2\n      swap1\n      pop\n      jump\t// out\n        /* \"#utility.yul\":14542:14668   */\n    tag_344:\n        /* \"#utility.yul\":14579:14586   */\n      0x00\n        /* \"#utility.yul\":14619:14661   */\n      0xffffffffffffffffffffffffffffffffffffffff\n        /* \"#utility.yul\":14612:14617   */\n      dup3\n        /* \"#utility.yul\":14608:14662   */\n      and\n        /* \"#utility.yul\":14597:14662   */\n      swap1\n      pop\n        /* \"#utility.yul\":14542:14668   */\n      swap2\n      swap1\n      pop\n      jump\t// out\n        /* \"#utility.yul\":14674:14751   */\n    tag_293:\n        /* \"#utility.yul\":14711:14718   */\n      0x00\n        /* \"#utility.yul\":14740:14745   */\n      dup2\n        /* \"#utility.yul\":14729:14745   */\n      swap1\n      pop\n        /* \"#utility.yul\":14674:14751   */\n      swap2\n      swap1\n      pop\n      jump\t// out\n        /* \"#utility.yul\":14757:15064   */\n    tag_236:\n        /* \"#utility.yul\":14825:14826   */\n      0x00\n        /* \"#utility.yul\":14835:14948   */\n    tag_354:\n        /* \"#utility.yul\":14849:14855   */\n      dup4\n        /* \"#utility.yul\":14846:14847   */\n      dup2\n        /* \"#utility.yul\":14843:14856   */\n      lt\n        /* \"#utility.yul\":14835:14948   */\n      iszero\n      tag_356\n      jumpi\n        /* \"#utility.yul\":14934:14935   */\n      dup1\n        /* \"#utility.yul\":14929:14932   */\n      dup3\n        /* \"#utility.yul\":14925:14936   */\n      add\n        /* \"#utility.yul\":14919:14937   */\n      mload\n        /* \"#utility.yul\":14915:14916   */\n      dup2\n        /* \"#utility.yul\":14910:14913   */\n      dup5\n        /* \"#utility.yul\":14906:14917   */\n      add\n        /* \"#utility.yul\":14899:14938   */\n      mstore\n        /* \"#utility.yul\":14871:14873   */\n      0x20\n        /* \"#utility.yul\":14868:14869   */\n      dup2\n        /* \"#utility.yul\":14864:14874   */\n      add\n        /* \"#utility.yul\":14859:14874   */\n      swap1\n      pop\n        /* \"#utility.yul\":14835:14948   */\n      jump(tag_354)\n    tag_356:\n        /* \"#utility.yul\":14966:14972   */\n      dup4\n        /* \"#utility.yul\":14963:14964   */\n      dup2\n        /* \"#utility.yul\":14960:14973   */\n      gt\n        /* \"#utility.yul\":14957:15058   */\n      iszero\n      tag_357\n      jumpi\n        /* \"#utility.yul\":15046:15047   */\n      0x00\n        /* \"#utility.yul\":15037:15043   */\n      dup5\n        /* \"#utility.yul\":15032:15035   */\n      dup5\n        /* \"#utility.yul\":15028:15044   */\n      add\n        /* \"#utility.yul\":15021:15048   */\n      mstore\n        /* \"#utility.yul\":14957:15058   */\n    tag_357:\n        /* \"#utility.yul\":14806:15064   */\n      pop\n        /* \"#utility.yul\":14757:15064   */\n      pop\n      pop\n      pop\n      jump\t// out\n        /* \"#utility.yul\":15070:15241   */\n    tag_169:\n        /* \"#utility.yul\":15109:15112   */\n      0x00\n        /* \"#utility.yul\":15132:15156   */\n      tag_359\n        /* \"#utility.yul\":15150:15155   */\n      dup3\n        /* \"#utility.yul\":15132:15156   */\n      tag_293\n      jump\t// in\n    tag_359:\n        /* \"#utility.yul\":15123:15156   */\n      swap2\n      pop\n        /* \"#utility.yul\":15178:15182   */\n      0x00\n        /* \"#utility.yul\":15171:15176   */\n      dup3\n        /* \"#utility.yul\":15168:15183   */\n      eq\n        /* \"#utility.yul\":15165:15206   */\n      iszero\n      tag_360\n      jumpi\n        /* \"#utility.yul\":15186:15204   */\n      tag_361\n      tag_335\n      jump\t// in\n    tag_361:\n        /* \"#utility.yul\":15165:15206   */\n    tag_360:\n        /* \"#utility.yul\":15233:15234   */\n      0x01\n        /* \"#utility.yul\":15226:15231   */\n      dup3\n        /* \"#utility.yul\":15222:15235   */\n      sub\n        /* \"#utility.yul\":15215:15235   */\n      swap1\n      pop\n        /* \"#utility.yul\":15070:15241   */\n      swap2\n      swap1\n      pop\n      jump\t// out\n        /* \"#utility.yul\":15247:15480   */\n    tag_124:\n        /* \"#utility.yul\":15286:15289   */\n      0x00\n        /* \"#utility.yul\":15309:15333   */\n      tag_363\n        /* \"#utility.yul\":15327:15332   */\n      dup3\n        /* \"#utility.yul\":15309:15333   */\n      tag_293\n      jump\t// in\n    tag_363:\n        /* \"#utility.yul\":15300:15333   */\n      swap2\n      pop\n        /* \"#utility.yul\":15355:15421   */\n      0xffffffffffffffffffffffffffffffffffffffffffffffffffffffffffffffff\n        /* \"#utility.yul\":15348:15353   */\n      dup3\n        /* \"#utility.yul\":15345:15422   */\n      eq\n        /* \"#utility.yul\":15342:15445   */\n      iszero\n      tag_364\n      jumpi\n        /* \"#utility.yul\":15425:15443   */\n      tag_365\n      tag_335\n      jump\t// in\n    tag_365:\n        /* \"#utility.yul\":15342:15445   */\n    tag_364:\n        /* \"#utility.yul\":15472:15473   */\n      0x01\n        /* \"#utility.yul\":15465:15470   */\n      dup3\n        /* \"#utility.yul\":15461:15474   */\n      add\n        /* \"#utility.yul\":15454:15474   */\n      swap1\n      pop\n        /* \"#utility.yul\":15247:15480   */\n      swap2\n      swap1\n      pop\n      jump\t// out\n        /* \"#utility.yul\":15486:15666   */\n    tag_335:\n        /* \"#utility.yul\":15534:15611   */\n      0x4e487b7100000000000000000000000000000000000000000000000000000000\n        /* \"#utility.yul\":15531:15532   */\n      0x00\n        /* \"#utility.yul\":15524:15612   */\n      mstore\n        /* \"#utility.yul\":15631:15635   */\n      0x11\n        /* \"#utility.yul\":15628:15629   */\n      0x04\n        /* \"#utility.yul\":15621:15636   */\n      mstore\n        /* \"#utility.yul\":15655:15659   */\n      0x24\n        /* \"#utility.yul\":15652:15653   */\n      0x00\n        /* \"#utility.yul\":15645:15660   */\n      revert\n        /* \"#utility.yul\":15672:15852   */\n    tag_156:\n        /* \"#utility.yul\":15720:15797   */\n      0x4e487b7100000000000000000000000000000000000000000000000000000000\n        /* \"#utility.yul\":15717:15718   */\n      0x00\n        /* \"#utility.yul\":15710:15798   */\n      mstore\n        /* \"#utility.yul\":15817:15821   */\n      0x32\n        /* \"#utility.yul\":15814:15815   */\n      0x04\n        /* \"#utility.yul\":15807:15822   */\n      mstore\n        /* \"#utility.yul\":15841:15845   */\n      0x24\n        /* \"#utility.yul\":15838:15839   */\n      0x00\n        /* \"#utility.yul\":15831:15846   */\n      revert\n        /* \"#utility.yul\":15858:16038   */\n    tag_152:\n        /* \"#utility.yul\":15906:15983   */\n      0x4e487b7100000000000000000000000000000000000000000000000000000000\n        /* \"#utility.yul\":15903:15904   */\n      0x00\n        /* \"#utility.yul\":15896:15984   */\n      mstore\n        /* \"#utility.yul\":16003:16007   */\n      0x41\n        /* \"#utility.yul\":16000:16001   */\n      0x04\n        /* \"#utility.yul\":15993:16008   */\n      mstore\n        /* \"#utility.yul\":16027:16031   */\n      0x24\n        /* \"#utility.yul\":16024:16025   */\n      0x00\n        /* \"#utility.yul\":16017:16032   */\n      revert\n        /* \"#utility.yul\":16167:16284   */\n    tag_197:\n        /* \"#utility.yul\":16276:16277   */\n      0x00\n        /* \"#utility.yul\":16273:16274   */\n      dup1\n        /* \"#utility.yul\":16266:16278   */\n      revert\n        /* \"#utility.yul\":16290:16392   */\n    tag_238:\n        /* \"#utility.yul\":16331:16337   */\n      0x00\n        /* \"#utility.yul\":16382:16384   */\n      0x1f\n        /* \"#utility.yul\":16378:16385   */\n      not\n        /* \"#utility.yul\":16373:16375   */\n      0x1f\n        /* \"#utility.yul\":16366:16371   */\n      dup4\n        /* \"#utility.yul\":16362:16376   */\n      add\n        /* \"#utility.yul\":16358:16386   */\n      and\n        /* \"#utility.yul\":16348:16386   */\n      swap1\n      pop\n        /* \"#utility.yul\":16290:16392   */\n      swap2\n      swap1\n      pop\n      jump\t// out\n        /* \"#utility.yul\":16398:16580   */\n    tag_249:\n        /* \"#utility.yul\":16538:16572   */\n      0x537472696e67733a20686578206c656e67746820696e73756666696369656e74\n        /* \"#utility.yul\":16534:16535   */\n      0x00\n        /* \"#utility.yul\":16526:16532   */\n      dup3\n        /* \"#utility.yul\":16522:16536   */\n      add\n        /* \"#utility.yul\":16515:16573   */\n      mstore\n        /* \"#utility.yul\":16398:16580   */\n      pop\n      jump\t// out\n        /* \"#utility.yul\":16586:16756   */\n    tag_254:\n        /* \"#utility.yul\":16726:16748   */\n      0x507269636520646f6573206e6f74206d61746368000000000000000000000000\n        /* \"#utility.yul\":16722:16723   */\n      0x00\n        /* \"#utility.yul\":16714:16720   */\n      dup3\n        /* \"#utility.yul\":16710:16724   */\n      add\n        /* \"#utility.yul\":16703:16749   */\n      mstore\n        /* \"#utility.yul\":16586:16756   */\n      pop\n      jump\t// out\n        /* \"#utility.yul\":16762:16932   */\n    tag_259:\n        /* \"#utility.yul\":16902:16924   */\n      0x4974656d20697320616c726561647920736f6c64000000000000000000000000\n        /* \"#utility.yul\":16898:16899   */\n      0x00\n        /* \"#utility.yul\":16890:16896   */\n      dup3\n        /* \"#utility.yul\":16886:16900   */\n      add\n        /* \"#utility.yul\":16879:16925   */\n      mstore\n        /* \"#utility.yul\":16762:16932   */\n      pop\n      jump\t// out\n        /* \"#utility.yul\":16938:17165   */\n    tag_264:\n        /* \"#utility.yul\":17078:17112   */\n      0x4f6e6c79207468652073656c6c65722063616e206372656174652061206d6172\n        /* \"#utility.yul\":17074:17075   */\n      0x00\n        /* \"#utility.yul\":17066:17072   */\n      dup3\n        /* \"#utility.yul\":17062:17076   */\n      add\n        /* \"#utility.yul\":17055:17113   */\n      mstore\n        /* \"#utility.yul\":17147:17157   */\n      0x6b6574206974656d000000000000000000000000000000000000000000000000\n        /* \"#utility.yul\":17142:17144   */\n      0x20\n        /* \"#utility.yul\":17134:17140   */\n      dup3\n        /* \"#utility.yul\":17130:17145   */\n      add\n        /* \"#utility.yul\":17123:17158   */\n      mstore\n        /* \"#utility.yul\":16938:17165   */\n      pop\n      jump\t// out\n        /* \"#utility.yul\":17171:17344   */\n    tag_269:\n        /* \"#utility.yul\":17311:17336   */\n      0x416363657373436f6e74726f6c3a206163636f756e7420000000000000000000\n        /* \"#utility.yul\":17307:17308   */\n      0x00\n        /* \"#utility.yul\":17299:17305   */\n      dup3\n        /* \"#utility.yul\":17295:17309   */\n      add\n        /* \"#utility.yul\":17288:17337   */\n      mstore\n        /* \"#utility.yul\":17171:17344   */\n      pop\n      jump\t// out\n        /* \"#utility.yul\":17350:17517   */\n    tag_274:\n        /* \"#utility.yul\":17490:17509   */\n      0x4974656d20616c726561647920736f6c64000000000000000000000000000000\n        /* \"#utility.yul\":17486:17487   */\n      0x00\n        /* \"#utility.yul\":17478:17484   */\n      dup3\n        /* \"#utility.yul\":17474:17488   */\n      add\n        /* \"#utility.yul\":17467:17510   */\n      mstore\n        /* \"#utility.yul\":17350:17517   */\n      pop\n      jump\t// out\n        /* \"#utility.yul\":17523:17701   */\n    tag_279:\n        /* \"#utility.yul\":17663:17693   */\n      0x5072696365206d7573742062652067726561746572207468616e203000000000\n        /* \"#utility.yul\":17659:17660   */\n      0x00\n        /* \"#utility.yul\":17651:17657   */\n      dup3\n        /* \"#utility.yul\":17647:17661   */\n      add\n        /* \"#utility.yul\":17640:17694   */\n      mstore\n        /* \"#utility.yul\":17523:17701   */\n      pop\n      jump\t// out\n        /* \"#utility.yul\":17707:17874   */\n    tag_284:\n        /* \"#utility.yul\":17847:17866   */\n      0x206973206d697373696e6720726f6c6520000000000000000000000000000000\n        /* \"#utility.yul\":17843:17844   */\n      0x00\n        /* \"#utility.yul\":17835:17841   */\n      dup3\n        /* \"#utility.yul\":17831:17845   */\n      add\n        /* \"#utility.yul\":17824:17867   */\n      mstore\n        /* \"#utility.yul\":17707:17874   */\n      pop\n      jump\t// out\n        /* \"#utility.yul\":17880:18114   */\n    tag_289:\n        /* \"#utility.yul\":18020:18054   */\n      0x416363657373436f6e74726f6c3a2063616e206f6e6c792072656e6f756e6365\n        /* \"#utility.yul\":18016:18017   */\n      0x00\n        /* \"#utility.yul\":18008:18014   */\n      dup3\n        /* \"#utility.yul\":18004:18018   */\n      add\n        /* \"#utility.yul\":17997:18055   */\n      mstore\n        /* \"#utility.yul\":18089:18106   */\n      0x20726f6c657320666f722073656c660000000000000000000000000000000000\n        /* \"#utility.yul\":18084:18086   */\n      0x20\n        /* \"#utility.yul\":18076:18082   */\n      dup3\n        /* \"#utility.yul\":18072:18087   */\n      add\n        /* \"#utility.yul\":18065:18107   */\n      mstore\n        /* \"#utility.yul\":17880:18114   */\n      pop\n      jump\t// out\n        /* \"#utility.yul\":18120:18242   */\n    tag_177:\n        /* \"#utility.yul\":18193:18217   */\n      tag_383\n        /* \"#utility.yul\":18211:18216   */\n      dup2\n        /* \"#utility.yul\":18193:18217   */\n      tag_341\n      jump\t// in\n    tag_383:\n        /* \"#utility.yul\":18186:18191   */\n      dup2\n        /* \"#utility.yul\":18183:18218   */\n      eq\n        /* \"#utility.yul\":18173:18236   */\n      tag_384\n      jumpi\n        /* \"#utility.yul\":18232:18233   */\n      0x00\n        /* \"#utility.yul\":18229:18230   */\n      dup1\n        /* \"#utility.yul\":18222:18234   */\n      revert\n        /* \"#utility.yul\":18173:18236   */\n    tag_384:\n        /* \"#utility.yul\":18120:18242   */\n      pop\n      jump\t// out\n        /* \"#utility.yul\":18248:18386   */\n    tag_181:\n        /* \"#utility.yul\":18329:18361   */\n      tag_386\n        /* \"#utility.yul\":18355:18360   */\n      dup2\n        /* \"#utility.yul\":18329:18361   */\n      tag_220\n      jump\t// in\n    tag_386:\n        /* \"#utility.yul\":18322:18327   */\n      dup2\n        /* \"#utility.yul\":18319:18362   */\n      eq\n        /* \"#utility.yul\":18309:18380   */\n      tag_387\n      jumpi\n        /* \"#utility.yul\":18376:18377   */\n      0x00\n        /* \"#utility.yul\":18373:18374   */\n      dup1\n        /* \"#utility.yul\":18366:18378   */\n      revert\n        /* \"#utility.yul\":18309:18380   */\n    tag_387:\n        /* \"#utility.yul\":18248:18386   */\n      pop\n      jump\t// out\n        /* \"#utility.yul\":18392:18514   */\n    tag_185:\n        /* \"#utility.yul\":18465:18489   */\n      tag_389\n        /* \"#utility.yul\":18483:18488   */\n      dup2\n        /* \"#utility.yul\":18465:18489   */\n      tag_228\n      jump\t// in\n    tag_389:\n        /* \"#utility.yul\":18458:18463   */\n      dup2\n        /* \"#utility.yul\":18455:18490   */\n      eq\n        /* \"#utility.yul\":18445:18508   */\n      tag_390\n      jumpi\n        /* \"#utility.yul\":18504:18505   */\n      0x00\n        /* \"#utility.yul\":18501:18502   */\n      dup1\n        /* \"#utility.yul\":18494:18506   */\n      revert\n        /* \"#utility.yul\":18445:18508   */\n    tag_390:\n        /* \"#utility.yul\":18392:18514   */\n      pop\n      jump\t// out\n        /* \"#utility.yul\":18520:18640   */\n    tag_189:\n        /* \"#utility.yul\":18592:18615   */\n      tag_392\n        /* \"#utility.yul\":18609:18614   */\n      dup2\n        /* \"#utility.yul\":18592:18615   */\n      tag_349\n      jump\t// in\n    tag_392:\n        /* \"#utility.yul\":18585:18590   */\n      dup2\n        /* \"#utility.yul\":18582:18616   */\n      eq\n        /* \"#utility.yul\":18572:18634   */\n      tag_393\n      jumpi\n        /* \"#utility.yul\":18630:18631   */\n      0x00\n        /* \"#utility.yul\":18627:18628   */\n      dup1\n        /* \"#utility.yul\":18620:18632   */\n      revert\n        /* \"#utility.yul\":18572:18634   */\n    tag_393:\n        /* \"#utility.yul\":18520:18640   */\n      pop\n      jump\t// out\n        /* \"#utility.yul\":18646:18768   */\n    tag_193:\n        /* \"#utility.yul\":18719:18743   */\n      tag_395\n        /* \"#utility.yul\":18737:18742   */\n      dup2\n        /* \"#utility.yul\":18719:18743   */\n      tag_293\n      jump\t// in\n    tag_395:\n        /* \"#utility.yul\":18712:18717   */\n      dup2\n        /* \"#utility.yul\":18709:18744   */\n      eq\n        /* \"#utility.yul\":18699:18762   */\n      tag_396\n      jumpi\n        /* \"#utility.yul\":18758:18759   */\n      0x00\n        /* \"#utility.yul\":18755:18756   */\n      dup1\n        /* \"#utility.yul\":18748:18760   */\n      revert\n        /* \"#utility.yul\":18699:18762   */\n    tag_396:\n        /* \"#utility.yul\":18646:18768   */\n      pop\n      jump\t// out\n\n    auxdata: 0xa2646970667358221220c49df44d9e375a006572d55a337a404178f5c60c8c8105d19a800a98a09583bd64736f6c63430008070033\n}\n",
				"bytecode": {
					"linkReferences": {},
					"object": "6080604052600060015534801561001557600080fd5b506100467f1f9ca85e780b3b3cfbe1334ca9dd68802db7860f692bd163c796bb76d464edc03361004b60201b60201c565b6101a9565b61005b828261013760201b60201c565b61013357600160008084815260200190815260200160002060000160008373ffffffffffffffffffffffffffffffffffffffff1673ffffffffffffffffffffffffffffffffffffffff16815260200190815260200160002060006101000a81548160ff0219169083151502179055506100d86101a160201b60201c565b73ffffffffffffffffffffffffffffffffffffffff168173ffffffffffffffffffffffffffffffffffffffff16837f2f8788117e7eff1d82e926ec794901d17c78024a50270940304540a733656f0d60405160405180910390a45b5050565b600080600084815260200190815260200160002060000160008373ffffffffffffffffffffffffffffffffffffffff1673ffffffffffffffffffffffffffffffffffffffff16815260200190815260200160002060009054906101000a900460ff16905092915050565b600033905090565b61181a80620001b96000396000f3fe6080604052600436106100a75760003560e01c806391d148541161006457806391d14854146101bf578063a217fddf146101fc578063b491efa014610227578063c7be7a4914610252578063d547741f14610291578063dd5f8518146102ba576100a7565b806301ffc9a7146100ac578063248a9ca3146100e95780632f2ff15d14610126578063351901c31461014f57806336568abe1461016b5780636a86897414610194575b600080fd5b3480156100b857600080fd5b506100d360048036038101906100ce9190610f05565b6102e3565b6040516100e091906111b1565b60405180910390f35b3480156100f557600080fd5b50610110600480360381019061010b9190610e98565b61035d565b60405161011d91906111cc565b60405180910390f35b34801561013257600080fd5b5061014d60048036038101906101489190610ec5565b61037c565b005b61016960048036038101906101649190610f32565b6103a5565b005b34801561017757600080fd5b50610192600480360381019061018d9190610ec5565b610516565b005b3480156101a057600080fd5b506101a9610599565b6040516101b691906112e9565b60405180910390f35b3480156101cb57600080fd5b506101e660048036038101906101e19190610ec5565b61059f565b6040516101f391906111b1565b60405180910390f35b34801561020857600080fd5b50610211610609565b60405161021e91906111cc565b60405180910390f35b34801561023357600080fd5b5061023c610610565b60405161024991906111cc565b60405180910390f35b34801561025e57600080fd5b5061027960048036038101906102749190610f32565b610634565b6040516102889392919061117a565b60405180910390f35b34801561029d57600080fd5b506102b860048036038101906102b39190610ec5565b6106b8565b005b3480156102c657600080fd5b506102e160048036038101906102dc9190610e58565b6106e1565b005b60007f7965db0b000000000000000000000000000000000000000000000000000000007bffffffffffffffffffffffffffffffffffffffffffffffffffffffff1916827bffffffffffffffffffffffffffffffffffffffffffffffffffffffff191614806103565750610355826108e3565b5b9050919050565b6000806000838152602001908152602001600020600101549050919050565b6103858261035d565b6103968161039161094d565b610955565b6103a083836109f2565b505050565b600015156002600083815260200190815260200160002060030160009054906101000a900460ff1615151461040f576040517f08c379a000000000000000000000000000000000000000000000000000000000815260040161040690611249565b60405180910390fd5b34600260008381526020019081526020016000206002015414610467576040517f08c379a000000000000000000000000000000000000000000000000000000000815260040161045e90611229565b60405180910390fd5b60016002600083815260200190815260200160002060030160006101000a81548160ff0219169083151502179055506002600082815260200190815260200160002060010160009054906101000a900473ffffffffffffffffffffffffffffffffffffffff1673ffffffffffffffffffffffffffffffffffffffff166108fc349081150290604051600060405180830381858888f19350505050158015610512573d6000803e3d6000fd5b5050565b61051e61094d565b73ffffffffffffffffffffffffffffffffffffffff168173ffffffffffffffffffffffffffffffffffffffff161461058b576040517f08c379a0000000000000000000000000000000000000000000000000000000008152600401610582906112c9565b60405180910390fd5b6105958282610ad2565b5050565b60015481565b600080600084815260200190815260200160002060000160008373ffffffffffffffffffffffffffffffffffffffff1673ffffffffffffffffffffffffffffffffffffffff16815260200190815260200160002060009054906101000a900460ff16905092915050565b6000801b81565b7f1f9ca85e780b3b3cfbe1334ca9dd68802db7860f692bd163c796bb76d464edc081565b60008060006002600085815260200190815260200160002060010160009054906101000a900473ffffffffffffffffffffffffffffffffffffffff1660026000868152602001908152602001600020600201546002600087815260200190815260200160002060030160009054906101000a900460ff169250925092509193909250565b6106c18261035d565b6106d2816106cd61094d565b610955565b6106dc8383610ad2565b505050565b8173ffffffffffffffffffffffffffffffffffffffff163373ffffffffffffffffffffffffffffffffffffffff161461074f576040517f08c379a000000000000000000000000000000000000000000000000000000000815260040161074690611269565b60405180910390fd5b60008111610792576040517f08c379a0000000000000000000000000000000000000000000000000000000008152600401610789906112a9565b60405180910390fd5b60026000600154815260200190815260200160002060030160009054906101000a900460ff16156107f8576040517f08c379a00000000000000000000000000000000000000000000000000000000081526004016107ef90611289565b60405180910390fd5b604051806080016040528060015481526020018373ffffffffffffffffffffffffffffffffffffffff168152602001828152602001600015158152506002600060015481526020019081526020016000206000820151816000015560208201518160010160006101000a81548173ffffffffffffffffffffffffffffffffffffffff021916908373ffffffffffffffffffffffffffffffffffffffff1602179055506040820151816002015560608201518160030160006101000a81548160ff021916908315150217905550905050600160008154809291906108da906114c8565b91905055505050565b60007f01ffc9a7000000000000000000000000000000000000000000000000000000007bffffffffffffffffffffffffffffffffffffffffffffffffffffffff1916827bffffffffffffffffffffffffffffffffffffffffffffffffffffffff1916149050919050565b600033905090565b61095f828261059f565b6109ee576109848173ffffffffffffffffffffffffffffffffffffffff166014610bb3565b6109928360001c6020610bb3565b6040516020016109a3929190611140565b6040516020818303038152906040526040517f08c379a00000000000000000000000000000000000000000000000000000000081526004016109e591906111e7565b60405180910390fd5b5050565b6109fc828261059f565b610ace57600160008084815260200190815260200160002060000160008373ffffffffffffffffffffffffffffffffffffffff1673ffffffffffffffffffffffffffffffffffffffff16815260200190815260200160002060006101000a81548160ff021916908315150217905550610a7361094d565b73ffffffffffffffffffffffffffffffffffffffff168173ffffffffffffffffffffffffffffffffffffffff16837f2f8788117e7eff1d82e926ec794901d17c78024a50270940304540a733656f0d60405160405180910390a45b5050565b610adc828261059f565b15610baf57600080600084815260200190815260200160002060000160008373ffffffffffffffffffffffffffffffffffffffff1673ffffffffffffffffffffffffffffffffffffffff16815260200190815260200160002060006101000a81548160ff021916908315150217905550610b5461094d565b73ffffffffffffffffffffffffffffffffffffffff168173ffffffffffffffffffffffffffffffffffffffff16837ff6391f5c32d9c69d2a47ea670b442974b53935d1edc7fd64eb21e047a839171b60405160405180910390a45b5050565b606060006002836002610bc69190611381565b610bd0919061132b565b67ffffffffffffffff811115610be957610be861156f565b5b6040519080825280601f01601f191660200182016040528015610c1b5781602001600182028036833780820191505090505b5090507f300000000000000000000000000000000000000000000000000000000000000081600081518110610c5357610c52611540565b5b60200101907effffffffffffffffffffffffffffffffffffffffffffffffffffffffffffff1916908160001a9053507f780000000000000000000000000000000000000000000000000000000000000081600181518110610cb757610cb6611540565b5b60200101907effffffffffffffffffffffffffffffffffffffffffffffffffffffffffffff1916908160001a90535060006001846002610cf79190611381565b610d01919061132b565b90505b6001811115610da1577f3031323334353637383961626364656600000000000000000000000000000000600f861660108110610d4357610d42611540565b5b1a60f81b828281518110610d5a57610d59611540565b5b60200101907effffffffffffffffffffffffffffffffffffffffffffffffffffffffffffff1916908160001a905350600485901c945080610d9a9061149e565b9050610d04565b5060008414610de5576040517f08c379a0000000000000000000000000000000000000000000000000000000008152600401610ddc90611209565b60405180910390fd5b8091505092915050565b600081359050610dfe81611771565b92915050565b600081359050610e1381611788565b92915050565b600081359050610e288161179f565b92915050565b600081359050610e3d816117b6565b92915050565b600081359050610e52816117cd565b92915050565b60008060408385031215610e6f57610e6e61159e565b5b6000610e7d85828601610e04565b9250506020610e8e85828601610e43565b9150509250929050565b600060208284031215610eae57610ead61159e565b5b6000610ebc84828501610e19565b91505092915050565b60008060408385031215610edc57610edb61159e565b5b6000610eea85828601610e19565b9250506020610efb85828601610def565b9150509250929050565b600060208284031215610f1b57610f1a61159e565b5b6000610f2984828501610e2e565b91505092915050565b600060208284031215610f4857610f4761159e565b5b6000610f5684828501610e43565b91505092915050565b610f68816113ed565b82525050565b610f77816113ff565b82525050565b610f868161140b565b82525050565b6000610f9782611304565b610fa1818561130f565b9350610fb181856020860161146b565b610fba816115a3565b840191505092915050565b6000610fd082611304565b610fda8185611320565b9350610fea81856020860161146b565b80840191505092915050565b600061100360208361130f565b915061100e826115b4565b602082019050919050565b600061102660148361130f565b9150611031826115dd565b602082019050919050565b600061104960148361130f565b915061105482611606565b602082019050919050565b600061106c60288361130f565b91506110778261162f565b604082019050919050565b600061108f601783611320565b915061109a8261167e565b601782019050919050565b60006110b260118361130f565b91506110bd826116a7565b602082019050919050565b60006110d5601c8361130f565b91506110e0826116d0565b602082019050919050565b60006110f8601183611320565b9150611103826116f9565b601182019050919050565b600061111b602f8361130f565b915061112682611722565b604082019050919050565b61113a81611461565b82525050565b600061114b82611082565b91506111578285610fc5565b9150611162826110eb565b915061116e8284610fc5565b91508190509392505050565b600060608201905061118f6000830186610f5f565b61119c6020830185611131565b6111a96040830184610f6e565b949350505050565b60006020820190506111c66000830184610f6e565b92915050565b60006020820190506111e16000830184610f7d565b92915050565b600060208201905081810360008301526112018184610f8c565b905092915050565b6000602082019050818103600083015261122281610ff6565b9050919050565b6000602082019050818103600083015261124281611019565b9050919050565b600060208201905081810360008301526112628161103c565b9050919050565b600060208201905081810360008301526112828161105f565b9050919050565b600060208201905081810360008301526112a2816110a5565b9050919050565b600060208201905081810360008301526112c2816110c8565b9050919050565b600060208201905081810360008301526112e28161110e565b9050919050565b60006020820190506112fe6000830184611131565b92915050565b600081519050919050565b600082825260208201905092915050565b600081905092915050565b600061133682611461565b915061134183611461565b9250827fffffffffffffffffffffffffffffffffffffffffffffffffffffffffffffffff0382111561137657611375611511565b5b828201905092915050565b600061138c82611461565b915061139783611461565b9250817fffffffffffffffffffffffffffffffffffffffffffffffffffffffffffffffff04831182151516156113d0576113cf611511565b5b828202905092915050565b60006113e682611441565b9050919050565b60006113f882611441565b9050919050565b60008115159050919050565b6000819050919050565b60007fffffffff0000000000000000000000000000000000000000000000000000000082169050919050565b600073ffffffffffffffffffffffffffffffffffffffff82169050919050565b6000819050919050565b60005b8381101561148957808201518184015260208101905061146e565b83811115611498576000848401525b50505050565b60006114a982611461565b915060008214156114bd576114bc611511565b5b600182039050919050565b60006114d382611461565b91507fffffffffffffffffffffffffffffffffffffffffffffffffffffffffffffffff82141561150657611505611511565b5b600182019050919050565b7f4e487b7100000000000000000000000000000000000000000000000000000000600052601160045260246000fd5b7f4e487b7100000000000000000000000000000000000000000000000000000000600052603260045260246000fd5b7f4e487b7100000000000000000000000000000000000000000000000000000000600052604160045260246000fd5b600080fd5b6000601f19601f8301169050919050565b7f537472696e67733a20686578206c656e67746820696e73756666696369656e74600082015250565b7f507269636520646f6573206e6f74206d61746368000000000000000000000000600082015250565b7f4974656d20697320616c726561647920736f6c64000000000000000000000000600082015250565b7f4f6e6c79207468652073656c6c65722063616e206372656174652061206d617260008201527f6b6574206974656d000000000000000000000000000000000000000000000000602082015250565b7f416363657373436f6e74726f6c3a206163636f756e7420000000000000000000600082015250565b7f4974656d20616c726561647920736f6c64000000000000000000000000000000600082015250565b7f5072696365206d7573742062652067726561746572207468616e203000000000600082015250565b7f206973206d697373696e6720726f6c6520000000000000000000000000000000600082015250565b7f416363657373436f6e74726f6c3a2063616e206f6e6c792072656e6f756e636560008201527f20726f6c657320666f722073656c660000000000000000000000000000000000602082015250565b61177a816113db565b811461178557600080fd5b50565b611791816113ed565b811461179c57600080fd5b50565b6117a88161140b565b81146117b357600080fd5b50565b6117bf81611415565b81146117ca57600080fd5b50565b6117d681611461565b81146117e157600080fd5b5056fea2646970667358221220c49df44d9e375a006572d55a337a404178f5c60c8c8105d19a800a98a09583bd64736f6c63430008070033",
					"opcodes": "PUSH1 0x80 PUSH1 0x40 MSTORE PUSH1 0x0 PUSH1 0x1 SSTORE CALLVALUE DUP1 ISZERO PUSH2 0x15 JUMPI PUSH1 0x0 DUP1 REVERT JUMPDEST POP PUSH2 0x46 PUSH32 0x1F9CA85E780B3B3CFBE1334CA9DD68802DB7860F692BD163C796BB76D464EDC0 CALLER PUSH2 0x4B PUSH1 0x20 SHL PUSH1 0x20 SHR JUMP JUMPDEST PUSH2 0x1A9 JUMP JUMPDEST PUSH2 0x5B DUP3 DUP3 PUSH2 0x137 PUSH1 0x20 SHL PUSH1 0x20 SHR JUMP JUMPDEST PUSH2 0x133 JUMPI PUSH1 0x1 PUSH1 0x0 DUP1 DUP5 DUP2 MSTORE PUSH1 0x20 ADD SWAP1 DUP2 MSTORE PUSH1 0x20 ADD PUSH1 0x0 KECCAK256 PUSH1 0x0 ADD PUSH1 0x0 DUP4 PUSH20 0xFFFFFFFFFFFFFFFFFFFFFFFFFFFFFFFFFFFFFFFF AND PUSH20 0xFFFFFFFFFFFFFFFFFFFFFFFFFFFFFFFFFFFFFFFF AND DUP2 MSTORE PUSH1 0x20 ADD SWAP1 DUP2 MSTORE PUSH1 0x20 ADD PUSH1 0x0 KECCAK256 PUSH1 0x0 PUSH2 0x100 EXP DUP2 SLOAD DUP2 PUSH1 0xFF MUL NOT AND SWAP1 DUP4 ISZERO ISZERO MUL OR SWAP1 SSTORE POP PUSH2 0xD8 PUSH2 0x1A1 PUSH1 0x20 SHL PUSH1 0x20 SHR JUMP JUMPDEST PUSH20 0xFFFFFFFFFFFFFFFFFFFFFFFFFFFFFFFFFFFFFFFF AND DUP2 PUSH20 0xFFFFFFFFFFFFFFFFFFFFFFFFFFFFFFFFFFFFFFFF AND DUP4 PUSH32 0x2F8788117E7EFF1D82E926EC794901D17C78024A50270940304540A733656F0D PUSH1 0x40 MLOAD PUSH1 0x40 MLOAD DUP1 SWAP2 SUB SWAP1 LOG4 JUMPDEST POP POP JUMP JUMPDEST PUSH1 0x0 DUP1 PUSH1 0x0 DUP5 DUP2 MSTORE PUSH1 0x20 ADD SWAP1 DUP2 MSTORE PUSH1 0x20 ADD PUSH1 0x0 KECCAK256 PUSH1 0x0 ADD PUSH1 0x0 DUP4 PUSH20 0xFFFFFFFFFFFFFFFFFFFFFFFFFFFFFFFFFFFFFFFF AND PUSH20 0xFFFFFFFFFFFFFFFFFFFFFFFFFFFFFFFFFFFFFFFF AND DUP2 MSTORE PUSH1 0x20 ADD SWAP1 DUP2 MSTORE PUSH1 0x20 ADD PUSH1 0x0 KECCAK256 PUSH1 0x0 SWAP1 SLOAD SWAP1 PUSH2 0x100 EXP SWAP1 DIV PUSH1 0xFF AND SWAP1 POP SWAP3 SWAP2 POP POP JUMP JUMPDEST PUSH1 0x0 CALLER SWAP1 POP SWAP1 JUMP JUMPDEST PUSH2 0x181A DUP1 PUSH3 0x1B9 PUSH1 0x0 CODECOPY PUSH1 0x0 RETURN INVALID PUSH1 0x80 PUSH1 0x40 MSTORE PUSH1 0x4 CALLDATASIZE LT PUSH2 0xA7 JUMPI PUSH1 0x0 CALLDATALOAD PUSH1 0xE0 SHR DUP1 PUSH4 0x91D14854 GT PUSH2 0x64 JUMPI DUP1 PUSH4 0x91D14854 EQ PUSH2 0x1BF JUMPI DUP1 PUSH4 0xA217FDDF EQ PUSH2 0x1FC JUMPI DUP1 PUSH4 0xB491EFA0 EQ PUSH2 0x227 JUMPI DUP1 PUSH4 0xC7BE7A49 EQ PUSH2 0x252 JUMPI DUP1 PUSH4 0xD547741F EQ PUSH2 0x291 JUMPI DUP1 PUSH4 0xDD5F8518 EQ PUSH2 0x2BA JUMPI PUSH2 0xA7 JUMP JUMPDEST DUP1 PUSH4 0x1FFC9A7 EQ PUSH2 0xAC JUMPI DUP1 PUSH4 0x248A9CA3 EQ PUSH2 0xE9 JUMPI DUP1 PUSH4 0x2F2FF15D EQ PUSH2 0x126 JUMPI DUP1 PUSH4 0x351901C3 EQ PUSH2 0x14F JUMPI DUP1 PUSH4 0x36568ABE EQ PUSH2 0x16B JUMPI DUP1 PUSH4 0x6A868974 EQ PUSH2 0x194 JUMPI JUMPDEST PUSH1 0x0 DUP1 REVERT JUMPDEST CALLVALUE DUP1 ISZERO PUSH2 0xB8 JUMPI PUSH1 0x0 DUP1 REVERT JUMPDEST POP PUSH2 0xD3 PUSH1 0x4 DUP1 CALLDATASIZE SUB DUP2 ADD SWAP1 PUSH2 0xCE SWAP2 SWAP1 PUSH2 0xF05 JUMP JUMPDEST PUSH2 0x2E3 JUMP JUMPDEST PUSH1 0x40 MLOAD PUSH2 0xE0 SWAP2 SWAP1 PUSH2 0x11B1 JUMP JUMPDEST PUSH1 0x40 MLOAD DUP1 SWAP2 SUB SWAP1 RETURN JUMPDEST CALLVALUE DUP1 ISZERO PUSH2 0xF5 JUMPI PUSH1 0x0 DUP1 REVERT JUMPDEST POP PUSH2 0x110 PUSH1 0x4 DUP1 CALLDATASIZE SUB DUP2 ADD SWAP1 PUSH2 0x10B SWAP2 SWAP1 PUSH2 0xE98 JUMP JUMPDEST PUSH2 0x35D JUMP JUMPDEST PUSH1 0x40 MLOAD PUSH2 0x11D SWAP2 SWAP1 PUSH2 0x11CC JUMP JUMPDEST PUSH1 0x40 MLOAD DUP1 SWAP2 SUB SWAP1 RETURN JUMPDEST CALLVALUE DUP1 ISZERO PUSH2 0x132 JUMPI PUSH1 0x0 DUP1 REVERT JUMPDEST POP PUSH2 0x14D PUSH1 0x4 DUP1 CALLDATASIZE SUB DUP2 ADD SWAP1 PUSH2 0x148 SWAP2 SWAP1 PUSH2 0xEC5 JUMP JUMPDEST PUSH2 0x37C JUMP JUMPDEST STOP JUMPDEST PUSH2 0x169 PUSH1 0x4 DUP1 CALLDATASIZE SUB DUP2 ADD SWAP1 PUSH2 0x164 SWAP2 SWAP1 PUSH2 0xF32 JUMP JUMPDEST PUSH2 0x3A5 JUMP JUMPDEST STOP JUMPDEST CALLVALUE DUP1 ISZERO PUSH2 0x177 JUMPI PUSH1 0x0 DUP1 REVERT JUMPDEST POP PUSH2 0x192 PUSH1 0x4 DUP1 CALLDATASIZE SUB DUP2 ADD SWAP1 PUSH2 0x18D SWAP2 SWAP1 PUSH2 0xEC5 JUMP JUMPDEST PUSH2 0x516 JUMP JUMPDEST STOP JUMPDEST CALLVALUE DUP1 ISZERO PUSH2 0x1A0 JUMPI PUSH1 0x0 DUP1 REVERT JUMPDEST POP PUSH2 0x1A9 PUSH2 0x599 JUMP JUMPDEST PUSH1 0x40 MLOAD PUSH2 0x1B6 SWAP2 SWAP1 PUSH2 0x12E9 JUMP JUMPDEST PUSH1 0x40 MLOAD DUP1 SWAP2 SUB SWAP1 RETURN JUMPDEST CALLVALUE DUP1 ISZERO PUSH2 0x1CB JUMPI PUSH1 0x0 DUP1 REVERT JUMPDEST POP PUSH2 0x1E6 PUSH1 0x4 DUP1 CALLDATASIZE SUB DUP2 ADD SWAP1 PUSH2 0x1E1 SWAP2 SWAP1 PUSH2 0xEC5 JUMP JUMPDEST PUSH2 0x59F JUMP JUMPDEST PUSH1 0x40 MLOAD PUSH2 0x1F3 SWAP2 SWAP1 PUSH2 0x11B1 JUMP JUMPDEST PUSH1 0x40 MLOAD DUP1 SWAP2 SUB SWAP1 RETURN JUMPDEST CALLVALUE DUP1 ISZERO PUSH2 0x208 JUMPI PUSH1 0x0 DUP1 REVERT JUMPDEST POP PUSH2 0x211 PUSH2 0x609 JUMP JUMPDEST PUSH1 0x40 MLOAD PUSH2 0x21E SWAP2 SWAP1 PUSH2 0x11CC JUMP JUMPDEST PUSH1 0x40 MLOAD DUP1 SWAP2 SUB SWAP1 RETURN JUMPDEST CALLVALUE DUP1 ISZERO PUSH2 0x233 JUMPI PUSH1 0x0 DUP1 REVERT JUMPDEST POP PUSH2 0x23C PUSH2 0x610 JUMP JUMPDEST PUSH1 0x40 MLOAD PUSH2 0x249 SWAP2 SWAP1 PUSH2 0x11CC JUMP JUMPDEST PUSH1 0x40 MLOAD DUP1 SWAP2 SUB SWAP1 RETURN JUMPDEST CALLVALUE DUP1 ISZERO PUSH2 0x25E JUMPI PUSH1 0x0 DUP1 REVERT JUMPDEST POP PUSH2 0x279 PUSH1 0x4 DUP1 CALLDATASIZE SUB DUP2 ADD SWAP1 PUSH2 0x274 SWAP2 SWAP1 PUSH2 0xF32 JUMP JUMPDEST PUSH2 0x634 JUMP JUMPDEST PUSH1 0x40 MLOAD PUSH2 0x288 SWAP4 SWAP3 SWAP2 SWAP1 PUSH2 0x117A JUMP JUMPDEST PUSH1 0x40 MLOAD DUP1 SWAP2 SUB SWAP1 RETURN JUMPDEST CALLVALUE DUP1 ISZERO PUSH2 0x29D JUMPI PUSH1 0x0 DUP1 REVERT JUMPDEST POP PUSH2 0x2B8 PUSH1 0x4 DUP1 CALLDATASIZE SUB DUP2 ADD SWAP1 PUSH2 0x2B3 SWAP2 SWAP1 PUSH2 0xEC5 JUMP JUMPDEST PUSH2 0x6B8 JUMP JUMPDEST STOP JUMPDEST CALLVALUE DUP1 ISZERO PUSH2 0x2C6 JUMPI PUSH1 0x0 DUP1 REVERT JUMPDEST POP PUSH2 0x2E1 PUSH1 0x4 DUP1 CALLDATASIZE SUB DUP2 ADD SWAP1 PUSH2 0x2DC SWAP2 SWAP1 PUSH2 0xE58 JUMP JUMPDEST PUSH2 0x6E1 JUMP JUMPDEST STOP JUMPDEST PUSH1 0x0 PUSH32 0x7965DB0B00000000000000000000000000000000000000000000000000000000 PUSH28 0xFFFFFFFFFFFFFFFFFFFFFFFFFFFFFFFFFFFFFFFFFFFFFFFFFFFFFFFF NOT AND DUP3 PUSH28 0xFFFFFFFFFFFFFFFFFFFFFFFFFFFFFFFFFFFFFFFFFFFFFFFFFFFFFFFF NOT AND EQ DUP1 PUSH2 0x356 JUMPI POP PUSH2 0x355 DUP3 PUSH2 0x8E3 JUMP JUMPDEST JUMPDEST SWAP1 POP SWAP2 SWAP1 POP JUMP JUMPDEST PUSH1 0x0 DUP1 PUSH1 0x0 DUP4 DUP2 MSTORE PUSH1 0x20 ADD SWAP1 DUP2 MSTORE PUSH1 0x20 ADD PUSH1 0x0 KECCAK256 PUSH1 0x1 ADD SLOAD SWAP1 POP SWAP2 SWAP1 POP JUMP JUMPDEST PUSH2 0x385 DUP3 PUSH2 0x35D JUMP JUMPDEST PUSH2 0x396 DUP2 PUSH2 0x391 PUSH2 0x94D JUMP JUMPDEST PUSH2 0x955 JUMP JUMPDEST PUSH2 0x3A0 DUP4 DUP4 PUSH2 0x9F2 JUMP JUMPDEST POP POP POP JUMP JUMPDEST PUSH1 0x0 ISZERO ISZERO PUSH1 0x2 PUSH1 0x0 DUP4 DUP2 MSTORE PUSH1 0x20 ADD SWAP1 DUP2 MSTORE PUSH1 0x20 ADD PUSH1 0x0 KECCAK256 PUSH1 0x3 ADD PUSH1 0x0 SWAP1 SLOAD SWAP1 PUSH2 0x100 EXP SWAP1 DIV PUSH1 0xFF AND ISZERO ISZERO EQ PUSH2 0x40F JUMPI PUSH1 0x40 MLOAD PUSH32 0x8C379A000000000000000000000000000000000000000000000000000000000 DUP2 MSTORE PUSH1 0x4 ADD PUSH2 0x406 SWAP1 PUSH2 0x1249 JUMP JUMPDEST PUSH1 0x40 MLOAD DUP1 SWAP2 SUB SWAP1 REVERT JUMPDEST CALLVALUE PUSH1 0x2 PUSH1 0x0 DUP4 DUP2 MSTORE PUSH1 0x20 ADD SWAP1 DUP2 MSTORE PUSH1 0x20 ADD PUSH1 0x0 KECCAK256 PUSH1 0x2 ADD SLOAD EQ PUSH2 0x467 JUMPI PUSH1 0x40 MLOAD PUSH32 0x8C379A000000000000000000000000000000000000000000000000000000000 DUP2 MSTORE PUSH1 0x4 ADD PUSH2 0x45E SWAP1 PUSH2 0x1229 JUMP JUMPDEST PUSH1 0x40 MLOAD DUP1 SWAP2 SUB SWAP1 REVERT JUMPDEST PUSH1 0x1 PUSH1 0x2 PUSH1 0x0 DUP4 DUP2 MSTORE PUSH1 0x20 ADD SWAP1 DUP2 MSTORE PUSH1 0x20 ADD PUSH1 0x0 KECCAK256 PUSH1 0x3 ADD PUSH1 0x0 PUSH2 0x100 EXP DUP2 SLOAD DUP2 PUSH1 0xFF MUL NOT AND SWAP1 DUP4 ISZERO ISZERO MUL OR SWAP1 SSTORE POP PUSH1 0x2 PUSH1 0x0 DUP3 DUP2 MSTORE PUSH1 0x20 ADD SWAP1 DUP2 MSTORE PUSH1 0x20 ADD PUSH1 0x0 KECCAK256 PUSH1 0x1 ADD PUSH1 0x0 SWAP1 SLOAD SWAP1 PUSH2 0x100 EXP SWAP1 DIV PUSH20 0xFFFFFFFFFFFFFFFFFFFFFFFFFFFFFFFFFFFFFFFF AND PUSH20 0xFFFFFFFFFFFFFFFFFFFFFFFFFFFFFFFFFFFFFFFF AND PUSH2 0x8FC CALLVALUE SWAP1 DUP2 ISZERO MUL SWAP1 PUSH1 0x40 MLOAD PUSH1 0x0 PUSH1 0x40 MLOAD DUP1 DUP4 SUB DUP2 DUP6 DUP9 DUP9 CALL SWAP4 POP POP POP POP ISZERO DUP1 ISZERO PUSH2 0x512 JUMPI RETURNDATASIZE PUSH1 0x0 DUP1 RETURNDATACOPY RETURNDATASIZE PUSH1 0x0 REVERT JUMPDEST POP POP JUMP JUMPDEST PUSH2 0x51E PUSH2 0x94D JUMP JUMPDEST PUSH20 0xFFFFFFFFFFFFFFFFFFFFFFFFFFFFFFFFFFFFFFFF AND DUP2 PUSH20 0xFFFFFFFFFFFFFFFFFFFFFFFFFFFFFFFFFFFFFFFF AND EQ PUSH2 0x58B JUMPI PUSH1 0x40 MLOAD PUSH32 0x8C379A000000000000000000000000000000000000000000000000000000000 DUP2 MSTORE PUSH1 0x4 ADD PUSH2 0x582 SWAP1 PUSH2 0x12C9 JUMP JUMPDEST PUSH1 0x40 MLOAD DUP1 SWAP2 SUB SWAP1 REVERT JUMPDEST PUSH2 0x595 DUP3 DUP3 PUSH2 0xAD2 JUMP JUMPDEST POP POP JUMP JUMPDEST PUSH1 0x1 SLOAD DUP2 JUMP JUMPDEST PUSH1 0x0 DUP1 PUSH1 0x0 DUP5 DUP2 MSTORE PUSH1 0x20 ADD SWAP1 DUP2 MSTORE PUSH1 0x20 ADD PUSH1 0x0 KECCAK256 PUSH1 0x0 ADD PUSH1 0x0 DUP4 PUSH20 0xFFFFFFFFFFFFFFFFFFFFFFFFFFFFFFFFFFFFFFFF AND PUSH20 0xFFFFFFFFFFFFFFFFFFFFFFFFFFFFFFFFFFFFFFFF AND DUP2 MSTORE PUSH1 0x20 ADD SWAP1 DUP2 MSTORE PUSH1 0x20 ADD PUSH1 0x0 KECCAK256 PUSH1 0x0 SWAP1 SLOAD SWAP1 PUSH2 0x100 EXP SWAP1 DIV PUSH1 0xFF AND SWAP1 POP SWAP3 SWAP2 POP POP JUMP JUMPDEST PUSH1 0x0 DUP1 SHL DUP2 JUMP JUMPDEST PUSH32 0x1F9CA85E780B3B3CFBE1334CA9DD68802DB7860F692BD163C796BB76D464EDC0 DUP2 JUMP JUMPDEST PUSH1 0x0 DUP1 PUSH1 0x0 PUSH1 0x2 PUSH1 0x0 DUP6 DUP2 MSTORE PUSH1 0x20 ADD SWAP1 DUP2 MSTORE PUSH1 0x20 ADD PUSH1 0x0 KECCAK256 PUSH1 0x1 ADD PUSH1 0x0 SWAP1 SLOAD SWAP1 PUSH2 0x100 EXP SWAP1 DIV PUSH20 0xFFFFFFFFFFFFFFFFFFFFFFFFFFFFFFFFFFFFFFFF AND PUSH1 0x2 PUSH1 0x0 DUP7 DUP2 MSTORE PUSH1 0x20 ADD SWAP1 DUP2 MSTORE PUSH1 0x20 ADD PUSH1 0x0 KECCAK256 PUSH1 0x2 ADD SLOAD PUSH1 0x2 PUSH1 0x0 DUP8 DUP2 MSTORE PUSH1 0x20 ADD SWAP1 DUP2 MSTORE PUSH1 0x20 ADD PUSH1 0x0 KECCAK256 PUSH1 0x3 ADD PUSH1 0x0 SWAP1 SLOAD SWAP1 PUSH2 0x100 EXP SWAP1 DIV PUSH1 0xFF AND SWAP3 POP SWAP3 POP SWAP3 POP SWAP2 SWAP4 SWAP1 SWAP3 POP JUMP JUMPDEST PUSH2 0x6C1 DUP3 PUSH2 0x35D JUMP JUMPDEST PUSH2 0x6D2 DUP2 PUSH2 0x6CD PUSH2 0x94D JUMP JUMPDEST PUSH2 0x955 JUMP JUMPDEST PUSH2 0x6DC DUP4 DUP4 PUSH2 0xAD2 JUMP JUMPDEST POP POP POP JUMP JUMPDEST DUP2 PUSH20 0xFFFFFFFFFFFFFFFFFFFFFFFFFFFFFFFFFFFFFFFF AND CALLER PUSH20 0xFFFFFFFFFFFFFFFFFFFFFFFFFFFFFFFFFFFFFFFF AND EQ PUSH2 0x74F JUMPI PUSH1 0x40 MLOAD PUSH32 0x8C379A000000000000000000000000000000000000000000000000000000000 DUP2 MSTORE PUSH1 0x4 ADD PUSH2 0x746 SWAP1 PUSH2 0x1269 JUMP JUMPDEST PUSH1 0x40 MLOAD DUP1 SWAP2 SUB SWAP1 REVERT JUMPDEST PUSH1 0x0 DUP2 GT PUSH2 0x792 JUMPI PUSH1 0x40 MLOAD PUSH32 0x8C379A000000000000000000000000000000000000000000000000000000000 DUP2 MSTORE PUSH1 0x4 ADD PUSH2 0x789 SWAP1 PUSH2 0x12A9 JUMP JUMPDEST PUSH1 0x40 MLOAD DUP1 SWAP2 SUB SWAP1 REVERT JUMPDEST PUSH1 0x2 PUSH1 0x0 PUSH1 0x1 SLOAD DUP2 MSTORE PUSH1 0x20 ADD SWAP1 DUP2 MSTORE PUSH1 0x20 ADD PUSH1 0x0 KECCAK256 PUSH1 0x3 ADD PUSH1 0x0 SWAP1 SLOAD SWAP1 PUSH2 0x100 EXP SWAP1 DIV PUSH1 0xFF AND ISZERO PUSH2 0x7F8 JUMPI PUSH1 0x40 MLOAD PUSH32 0x8C379A000000000000000000000000000000000000000000000000000000000 DUP2 MSTORE PUSH1 0x4 ADD PUSH2 0x7EF SWAP1 PUSH2 0x1289 JUMP JUMPDEST PUSH1 0x40 MLOAD DUP1 SWAP2 SUB SWAP1 REVERT JUMPDEST PUSH1 0x40 MLOAD DUP1 PUSH1 0x80 ADD PUSH1 0x40 MSTORE DUP1 PUSH1 0x1 SLOAD DUP2 MSTORE PUSH1 0x20 ADD DUP4 PUSH20 0xFFFFFFFFFFFFFFFFFFFFFFFFFFFFFFFFFFFFFFFF AND DUP2 MSTORE PUSH1 0x20 ADD DUP3 DUP2 MSTORE PUSH1 0x20 ADD PUSH1 0x0 ISZERO ISZERO DUP2 MSTORE POP PUSH1 0x2 PUSH1 0x0 PUSH1 0x1 SLOAD DUP2 MSTORE PUSH1 0x20 ADD SWAP1 DUP2 MSTORE PUSH1 0x20 ADD PUSH1 0x0 KECCAK256 PUSH1 0x0 DUP3 ADD MLOAD DUP2 PUSH1 0x0 ADD SSTORE PUSH1 0x20 DUP3 ADD MLOAD DUP2 PUSH1 0x1 ADD PUSH1 0x0 PUSH2 0x100 EXP DUP2 SLOAD DUP2 PUSH20 0xFFFFFFFFFFFFFFFFFFFFFFFFFFFFFFFFFFFFFFFF MUL NOT AND SWAP1 DUP4 PUSH20 0xFFFFFFFFFFFFFFFFFFFFFFFFFFFFFFFFFFFFFFFF AND MUL OR SWAP1 SSTORE POP PUSH1 0x40 DUP3 ADD MLOAD DUP2 PUSH1 0x2 ADD SSTORE PUSH1 0x60 DUP3 ADD MLOAD DUP2 PUSH1 0x3 ADD PUSH1 0x0 PUSH2 0x100 EXP DUP2 SLOAD DUP2 PUSH1 0xFF MUL NOT AND SWAP1 DUP4 ISZERO ISZERO MUL OR SWAP1 SSTORE POP SWAP1 POP POP PUSH1 0x1 PUSH1 0x0 DUP2 SLOAD DUP1 SWAP3 SWAP2 SWAP1 PUSH2 0x8DA SWAP1 PUSH2 0x14C8 JUMP JUMPDEST SWAP2 SWAP1 POP SSTORE POP POP POP JUMP JUMPDEST PUSH1 0x0 PUSH32 0x1FFC9A700000000000000000000000000000000000000000000000000000000 PUSH28 0xFFFFFFFFFFFFFFFFFFFFFFFFFFFFFFFFFFFFFFFFFFFFFFFFFFFFFFFF NOT AND DUP3 PUSH28 0xFFFFFFFFFFFFFFFFFFFFFFFFFFFFFFFFFFFFFFFFFFFFFFFFFFFFFFFF NOT AND EQ SWAP1 POP SWAP2 SWAP1 POP JUMP JUMPDEST PUSH1 0x0 CALLER SWAP1 POP SWAP1 JUMP JUMPDEST PUSH2 0x95F DUP3 DUP3 PUSH2 0x59F JUMP JUMPDEST PUSH2 0x9EE JUMPI PUSH2 0x984 DUP2 PUSH20 0xFFFFFFFFFFFFFFFFFFFFFFFFFFFFFFFFFFFFFFFF AND PUSH1 0x14 PUSH2 0xBB3 JUMP JUMPDEST PUSH2 0x992 DUP4 PUSH1 0x0 SHR PUSH1 0x20 PUSH2 0xBB3 JUMP JUMPDEST PUSH1 0x40 MLOAD PUSH1 0x20 ADD PUSH2 0x9A3 SWAP3 SWAP2 SWAP1 PUSH2 0x1140 JUMP JUMPDEST PUSH1 0x40 MLOAD PUSH1 0x20 DUP2 DUP4 SUB SUB DUP2 MSTORE SWAP1 PUSH1 0x40 MSTORE PUSH1 0x40 MLOAD PUSH32 0x8C379A000000000000000000000000000000000000000000000000000000000 DUP2 MSTORE PUSH1 0x4 ADD PUSH2 0x9E5 SWAP2 SWAP1 PUSH2 0x11E7 JUMP JUMPDEST PUSH1 0x40 MLOAD DUP1 SWAP2 SUB SWAP1 REVERT JUMPDEST POP POP JUMP JUMPDEST PUSH2 0x9FC DUP3 DUP3 PUSH2 0x59F JUMP JUMPDEST PUSH2 0xACE JUMPI PUSH1 0x1 PUSH1 0x0 DUP1 DUP5 DUP2 MSTORE PUSH1 0x20 ADD SWAP1 DUP2 MSTORE PUSH1 0x20 ADD PUSH1 0x0 KECCAK256 PUSH1 0x0 ADD PUSH1 0x0 DUP4 PUSH20 0xFFFFFFFFFFFFFFFFFFFFFFFFFFFFFFFFFFFFFFFF AND PUSH20 0xFFFFFFFFFFFFFFFFFFFFFFFFFFFFFFFFFFFFFFFF AND DUP2 MSTORE PUSH1 0x20 ADD SWAP1 DUP2 MSTORE PUSH1 0x20 ADD PUSH1 0x0 KECCAK256 PUSH1 0x0 PUSH2 0x100 EXP DUP2 SLOAD DUP2 PUSH1 0xFF MUL NOT AND SWAP1 DUP4 ISZERO ISZERO MUL OR SWAP1 SSTORE POP PUSH2 0xA73 PUSH2 0x94D JUMP JUMPDEST PUSH20 0xFFFFFFFFFFFFFFFFFFFFFFFFFFFFFFFFFFFFFFFF AND DUP2 PUSH20 0xFFFFFFFFFFFFFFFFFFFFFFFFFFFFFFFFFFFFFFFF AND DUP4 PUSH32 0x2F8788117E7EFF1D82E926EC794901D17C78024A50270940304540A733656F0D PUSH1 0x40 MLOAD PUSH1 0x40 MLOAD DUP1 SWAP2 SUB SWAP1 LOG4 JUMPDEST POP POP JUMP JUMPDEST PUSH2 0xADC DUP3 DUP3 PUSH2 0x59F JUMP JUMPDEST ISZERO PUSH2 0xBAF JUMPI PUSH1 0x0 DUP1 PUSH1 0x0 DUP5 DUP2 MSTORE PUSH1 0x20 ADD SWAP1 DUP2 MSTORE PUSH1 0x20 ADD PUSH1 0x0 KECCAK256 PUSH1 0x0 ADD PUSH1 0x0 DUP4 PUSH20 0xFFFFFFFFFFFFFFFFFFFFFFFFFFFFFFFFFFFFFFFF AND PUSH20 0xFFFFFFFFFFFFFFFFFFFFFFFFFFFFFFFFFFFFFFFF AND DUP2 MSTORE PUSH1 0x20 ADD SWAP1 DUP2 MSTORE PUSH1 0x20 ADD PUSH1 0x0 KECCAK256 PUSH1 0x0 PUSH2 0x100 EXP DUP2 SLOAD DUP2 PUSH1 0xFF MUL NOT AND SWAP1 DUP4 ISZERO ISZERO MUL OR SWAP1 SSTORE POP PUSH2 0xB54 PUSH2 0x94D JUMP JUMPDEST PUSH20 0xFFFFFFFFFFFFFFFFFFFFFFFFFFFFFFFFFFFFFFFF AND DUP2 PUSH20 0xFFFFFFFFFFFFFFFFFFFFFFFFFFFFFFFFFFFFFFFF AND DUP4 PUSH32 0xF6391F5C32D9C69D2A47EA670B442974B53935D1EDC7FD64EB21E047A839171B PUSH1 0x40 MLOAD PUSH1 0x40 MLOAD DUP1 SWAP2 SUB SWAP1 LOG4 JUMPDEST POP POP JUMP JUMPDEST PUSH1 0x60 PUSH1 0x0 PUSH1 0x2 DUP4 PUSH1 0x2 PUSH2 0xBC6 SWAP2 SWAP1 PUSH2 0x1381 JUMP JUMPDEST PUSH2 0xBD0 SWAP2 SWAP1 PUSH2 0x132B JUMP JUMPDEST PUSH8 0xFFFFFFFFFFFFFFFF DUP2 GT ISZERO PUSH2 0xBE9 JUMPI PUSH2 0xBE8 PUSH2 0x156F JUMP JUMPDEST JUMPDEST PUSH1 0x40 MLOAD SWAP1 DUP1 DUP3 MSTORE DUP1 PUSH1 0x1F ADD PUSH1 0x1F NOT AND PUSH1 0x20 ADD DUP3 ADD PUSH1 0x40 MSTORE DUP1 ISZERO PUSH2 0xC1B JUMPI DUP2 PUSH1 0x20 ADD PUSH1 0x1 DUP3 MUL DUP1 CALLDATASIZE DUP4 CALLDATACOPY DUP1 DUP3 ADD SWAP2 POP POP SWAP1 POP JUMPDEST POP SWAP1 POP PUSH32 0x3000000000000000000000000000000000000000000000000000000000000000 DUP2 PUSH1 0x0 DUP2 MLOAD DUP2 LT PUSH2 0xC53 JUMPI PUSH2 0xC52 PUSH2 0x1540 JUMP JUMPDEST JUMPDEST PUSH1 0x20 ADD ADD SWAP1 PUSH31 0xFFFFFFFFFFFFFFFFFFFFFFFFFFFFFFFFFFFFFFFFFFFFFFFFFFFFFFFFFFFFFF NOT AND SWAP1 DUP2 PUSH1 0x0 BYTE SWAP1 MSTORE8 POP PUSH32 0x7800000000000000000000000000000000000000000000000000000000000000 DUP2 PUSH1 0x1 DUP2 MLOAD DUP2 LT PUSH2 0xCB7 JUMPI PUSH2 0xCB6 PUSH2 0x1540 JUMP JUMPDEST JUMPDEST PUSH1 0x20 ADD ADD SWAP1 PUSH31 0xFFFFFFFFFFFFFFFFFFFFFFFFFFFFFFFFFFFFFFFFFFFFFFFFFFFFFFFFFFFFFF NOT AND SWAP1 DUP2 PUSH1 0x0 BYTE SWAP1 MSTORE8 POP PUSH1 0x0 PUSH1 0x1 DUP5 PUSH1 0x2 PUSH2 0xCF7 SWAP2 SWAP1 PUSH2 0x1381 JUMP JUMPDEST PUSH2 0xD01 SWAP2 SWAP1 PUSH2 0x132B JUMP JUMPDEST SWAP1 POP JUMPDEST PUSH1 0x1 DUP2 GT ISZERO PUSH2 0xDA1 JUMPI PUSH32 0x3031323334353637383961626364656600000000000000000000000000000000 PUSH1 0xF DUP7 AND PUSH1 0x10 DUP2 LT PUSH2 0xD43 JUMPI PUSH2 0xD42 PUSH2 0x1540 JUMP JUMPDEST JUMPDEST BYTE PUSH1 0xF8 SHL DUP3 DUP3 DUP2 MLOAD DUP2 LT PUSH2 0xD5A JUMPI PUSH2 0xD59 PUSH2 0x1540 JUMP JUMPDEST JUMPDEST PUSH1 0x20 ADD ADD SWAP1 PUSH31 0xFFFFFFFFFFFFFFFFFFFFFFFFFFFFFFFFFFFFFFFFFFFFFFFFFFFFFFFFFFFFFF NOT AND SWAP1 DUP2 PUSH1 0x0 BYTE SWAP1 MSTORE8 POP PUSH1 0x4 DUP6 SWAP1 SHR SWAP5 POP DUP1 PUSH2 0xD9A SWAP1 PUSH2 0x149E JUMP JUMPDEST SWAP1 POP PUSH2 0xD04 JUMP JUMPDEST POP PUSH1 0x0 DUP5 EQ PUSH2 0xDE5 JUMPI PUSH1 0x40 MLOAD PUSH32 0x8C379A000000000000000000000000000000000000000000000000000000000 DUP2 MSTORE PUSH1 0x4 ADD PUSH2 0xDDC SWAP1 PUSH2 0x1209 JUMP JUMPDEST PUSH1 0x40 MLOAD DUP1 SWAP2 SUB SWAP1 REVERT JUMPDEST DUP1 SWAP2 POP POP SWAP3 SWAP2 POP POP JUMP JUMPDEST PUSH1 0x0 DUP2 CALLDATALOAD SWAP1 POP PUSH2 0xDFE DUP2 PUSH2 0x1771 JUMP JUMPDEST SWAP3 SWAP2 POP POP JUMP JUMPDEST PUSH1 0x0 DUP2 CALLDATALOAD SWAP1 POP PUSH2 0xE13 DUP2 PUSH2 0x1788 JUMP JUMPDEST SWAP3 SWAP2 POP POP JUMP JUMPDEST PUSH1 0x0 DUP2 CALLDATALOAD SWAP1 POP PUSH2 0xE28 DUP2 PUSH2 0x179F JUMP JUMPDEST SWAP3 SWAP2 POP POP JUMP JUMPDEST PUSH1 0x0 DUP2 CALLDATALOAD SWAP1 POP PUSH2 0xE3D DUP2 PUSH2 0x17B6 JUMP JUMPDEST SWAP3 SWAP2 POP POP JUMP JUMPDEST PUSH1 0x0 DUP2 CALLDATALOAD SWAP1 POP PUSH2 0xE52 DUP2 PUSH2 0x17CD JUMP JUMPDEST SWAP3 SWAP2 POP POP JUMP JUMPDEST PUSH1 0x0 DUP1 PUSH1 0x40 DUP4 DUP6 SUB SLT ISZERO PUSH2 0xE6F JUMPI PUSH2 0xE6E PUSH2 0x159E JUMP JUMPDEST JUMPDEST PUSH1 0x0 PUSH2 0xE7D DUP6 DUP3 DUP7 ADD PUSH2 0xE04 JUMP JUMPDEST SWAP3 POP POP PUSH1 0x20 PUSH2 0xE8E DUP6 DUP3 DUP7 ADD PUSH2 0xE43 JUMP JUMPDEST SWAP2 POP POP SWAP3 POP SWAP3 SWAP1 POP JUMP JUMPDEST PUSH1 0x0 PUSH1 0x20 DUP3 DUP5 SUB SLT ISZERO PUSH2 0xEAE JUMPI PUSH2 0xEAD PUSH2 0x159E JUMP JUMPDEST JUMPDEST PUSH1 0x0 PUSH2 0xEBC DUP5 DUP3 DUP6 ADD PUSH2 0xE19 JUMP JUMPDEST SWAP2 POP POP SWAP3 SWAP2 POP POP JUMP JUMPDEST PUSH1 0x0 DUP1 PUSH1 0x40 DUP4 DUP6 SUB SLT ISZERO PUSH2 0xEDC JUMPI PUSH2 0xEDB PUSH2 0x159E JUMP JUMPDEST JUMPDEST PUSH1 0x0 PUSH2 0xEEA DUP6 DUP3 DUP7 ADD PUSH2 0xE19 JUMP JUMPDEST SWAP3 POP POP PUSH1 0x20 PUSH2 0xEFB DUP6 DUP3 DUP7 ADD PUSH2 0xDEF JUMP JUMPDEST SWAP2 POP POP SWAP3 POP SWAP3 SWAP1 POP JUMP JUMPDEST PUSH1 0x0 PUSH1 0x20 DUP3 DUP5 SUB SLT ISZERO PUSH2 0xF1B JUMPI PUSH2 0xF1A PUSH2 0x159E JUMP JUMPDEST JUMPDEST PUSH1 0x0 PUSH2 0xF29 DUP5 DUP3 DUP6 ADD PUSH2 0xE2E JUMP JUMPDEST SWAP2 POP POP SWAP3 SWAP2 POP POP JUMP JUMPDEST PUSH1 0x0 PUSH1 0x20 DUP3 DUP5 SUB SLT ISZERO PUSH2 0xF48 JUMPI PUSH2 0xF47 PUSH2 0x159E JUMP JUMPDEST JUMPDEST PUSH1 0x0 PUSH2 0xF56 DUP5 DUP3 DUP6 ADD PUSH2 0xE43 JUMP JUMPDEST SWAP2 POP POP SWAP3 SWAP2 POP POP JUMP JUMPDEST PUSH2 0xF68 DUP2 PUSH2 0x13ED JUMP JUMPDEST DUP3 MSTORE POP POP JUMP JUMPDEST PUSH2 0xF77 DUP2 PUSH2 0x13FF JUMP JUMPDEST DUP3 MSTORE POP POP JUMP JUMPDEST PUSH2 0xF86 DUP2 PUSH2 0x140B JUMP JUMPDEST DUP3 MSTORE POP POP JUMP JUMPDEST PUSH1 0x0 PUSH2 0xF97 DUP3 PUSH2 0x1304 JUMP JUMPDEST PUSH2 0xFA1 DUP2 DUP6 PUSH2 0x130F JUMP JUMPDEST SWAP4 POP PUSH2 0xFB1 DUP2 DUP6 PUSH1 0x20 DUP7 ADD PUSH2 0x146B JUMP JUMPDEST PUSH2 0xFBA DUP2 PUSH2 0x15A3 JUMP JUMPDEST DUP5 ADD SWAP2 POP POP SWAP3 SWAP2 POP POP JUMP JUMPDEST PUSH1 0x0 PUSH2 0xFD0 DUP3 PUSH2 0x1304 JUMP JUMPDEST PUSH2 0xFDA DUP2 DUP6 PUSH2 0x1320 JUMP JUMPDEST SWAP4 POP PUSH2 0xFEA DUP2 DUP6 PUSH1 0x20 DUP7 ADD PUSH2 0x146B JUMP JUMPDEST DUP1 DUP5 ADD SWAP2 POP POP SWAP3 SWAP2 POP POP JUMP JUMPDEST PUSH1 0x0 PUSH2 0x1003 PUSH1 0x20 DUP4 PUSH2 0x130F JUMP JUMPDEST SWAP2 POP PUSH2 0x100E DUP3 PUSH2 0x15B4 JUMP JUMPDEST PUSH1 0x20 DUP3 ADD SWAP1 POP SWAP2 SWAP1 POP JUMP JUMPDEST PUSH1 0x0 PUSH2 0x1026 PUSH1 0x14 DUP4 PUSH2 0x130F JUMP JUMPDEST SWAP2 POP PUSH2 0x1031 DUP3 PUSH2 0x15DD JUMP JUMPDEST PUSH1 0x20 DUP3 ADD SWAP1 POP SWAP2 SWAP1 POP JUMP JUMPDEST PUSH1 0x0 PUSH2 0x1049 PUSH1 0x14 DUP4 PUSH2 0x130F JUMP JUMPDEST SWAP2 POP PUSH2 0x1054 DUP3 PUSH2 0x1606 JUMP JUMPDEST PUSH1 0x20 DUP3 ADD SWAP1 POP SWAP2 SWAP1 POP JUMP JUMPDEST PUSH1 0x0 PUSH2 0x106C PUSH1 0x28 DUP4 PUSH2 0x130F JUMP JUMPDEST SWAP2 POP PUSH2 0x1077 DUP3 PUSH2 0x162F JUMP JUMPDEST PUSH1 0x40 DUP3 ADD SWAP1 POP SWAP2 SWAP1 POP JUMP JUMPDEST PUSH1 0x0 PUSH2 0x108F PUSH1 0x17 DUP4 PUSH2 0x1320 JUMP JUMPDEST SWAP2 POP PUSH2 0x109A DUP3 PUSH2 0x167E JUMP JUMPDEST PUSH1 0x17 DUP3 ADD SWAP1 POP SWAP2 SWAP1 POP JUMP JUMPDEST PUSH1 0x0 PUSH2 0x10B2 PUSH1 0x11 DUP4 PUSH2 0x130F JUMP JUMPDEST SWAP2 POP PUSH2 0x10BD DUP3 PUSH2 0x16A7 JUMP JUMPDEST PUSH1 0x20 DUP3 ADD SWAP1 POP SWAP2 SWAP1 POP JUMP JUMPDEST PUSH1 0x0 PUSH2 0x10D5 PUSH1 0x1C DUP4 PUSH2 0x130F JUMP JUMPDEST SWAP2 POP PUSH2 0x10E0 DUP3 PUSH2 0x16D0 JUMP JUMPDEST PUSH1 0x20 DUP3 ADD SWAP1 POP SWAP2 SWAP1 POP JUMP JUMPDEST PUSH1 0x0 PUSH2 0x10F8 PUSH1 0x11 DUP4 PUSH2 0x1320 JUMP JUMPDEST SWAP2 POP PUSH2 0x1103 DUP3 PUSH2 0x16F9 JUMP JUMPDEST PUSH1 0x11 DUP3 ADD SWAP1 POP SWAP2 SWAP1 POP JUMP JUMPDEST PUSH1 0x0 PUSH2 0x111B PUSH1 0x2F DUP4 PUSH2 0x130F JUMP JUMPDEST SWAP2 POP PUSH2 0x1126 DUP3 PUSH2 0x1722 JUMP JUMPDEST PUSH1 0x40 DUP3 ADD SWAP1 POP SWAP2 SWAP1 POP JUMP JUMPDEST PUSH2 0x113A DUP2 PUSH2 0x1461 JUMP JUMPDEST DUP3 MSTORE POP POP JUMP JUMPDEST PUSH1 0x0 PUSH2 0x114B DUP3 PUSH2 0x1082 JUMP JUMPDEST SWAP2 POP PUSH2 0x1157 DUP3 DUP6 PUSH2 0xFC5 JUMP JUMPDEST SWAP2 POP PUSH2 0x1162 DUP3 PUSH2 0x10EB JUMP JUMPDEST SWAP2 POP PUSH2 0x116E DUP3 DUP5 PUSH2 0xFC5 JUMP JUMPDEST SWAP2 POP DUP2 SWAP1 POP SWAP4 SWAP3 POP POP POP JUMP JUMPDEST PUSH1 0x0 PUSH1 0x60 DUP3 ADD SWAP1 POP PUSH2 0x118F PUSH1 0x0 DUP4 ADD DUP7 PUSH2 0xF5F JUMP JUMPDEST PUSH2 0x119C PUSH1 0x20 DUP4 ADD DUP6 PUSH2 0x1131 JUMP JUMPDEST PUSH2 0x11A9 PUSH1 0x40 DUP4 ADD DUP5 PUSH2 0xF6E JUMP JUMPDEST SWAP5 SWAP4 POP POP POP POP JUMP JUMPDEST PUSH1 0x0 PUSH1 0x20 DUP3 ADD SWAP1 POP PUSH2 0x11C6 PUSH1 0x0 DUP4 ADD DUP5 PUSH2 0xF6E JUMP JUMPDEST SWAP3 SWAP2 POP POP JUMP JUMPDEST PUSH1 0x0 PUSH1 0x20 DUP3 ADD SWAP1 POP PUSH2 0x11E1 PUSH1 0x0 DUP4 ADD DUP5 PUSH2 0xF7D JUMP JUMPDEST SWAP3 SWAP2 POP POP JUMP JUMPDEST PUSH1 0x0 PUSH1 0x20 DUP3 ADD SWAP1 POP DUP2 DUP2 SUB PUSH1 0x0 DUP4 ADD MSTORE PUSH2 0x1201 DUP2 DUP5 PUSH2 0xF8C JUMP JUMPDEST SWAP1 POP SWAP3 SWAP2 POP POP JUMP JUMPDEST PUSH1 0x0 PUSH1 0x20 DUP3 ADD SWAP1 POP DUP2 DUP2 SUB PUSH1 0x0 DUP4 ADD MSTORE PUSH2 0x1222 DUP2 PUSH2 0xFF6 JUMP JUMPDEST SWAP1 POP SWAP2 SWAP1 POP JUMP JUMPDEST PUSH1 0x0 PUSH1 0x20 DUP3 ADD SWAP1 POP DUP2 DUP2 SUB PUSH1 0x0 DUP4 ADD MSTORE PUSH2 0x1242 DUP2 PUSH2 0x1019 JUMP JUMPDEST SWAP1 POP SWAP2 SWAP1 POP JUMP JUMPDEST PUSH1 0x0 PUSH1 0x20 DUP3 ADD SWAP1 POP DUP2 DUP2 SUB PUSH1 0x0 DUP4 ADD MSTORE PUSH2 0x1262 DUP2 PUSH2 0x103C JUMP JUMPDEST SWAP1 POP SWAP2 SWAP1 POP JUMP JUMPDEST PUSH1 0x0 PUSH1 0x20 DUP3 ADD SWAP1 POP DUP2 DUP2 SUB PUSH1 0x0 DUP4 ADD MSTORE PUSH2 0x1282 DUP2 PUSH2 0x105F JUMP JUMPDEST SWAP1 POP SWAP2 SWAP1 POP JUMP JUMPDEST PUSH1 0x0 PUSH1 0x20 DUP3 ADD SWAP1 POP DUP2 DUP2 SUB PUSH1 0x0 DUP4 ADD MSTORE PUSH2 0x12A2 DUP2 PUSH2 0x10A5 JUMP JUMPDEST SWAP1 POP SWAP2 SWAP1 POP JUMP JUMPDEST PUSH1 0x0 PUSH1 0x20 DUP3 ADD SWAP1 POP DUP2 DUP2 SUB PUSH1 0x0 DUP4 ADD MSTORE PUSH2 0x12C2 DUP2 PUSH2 0x10C8 JUMP JUMPDEST SWAP1 POP SWAP2 SWAP1 POP JUMP JUMPDEST PUSH1 0x0 PUSH1 0x20 DUP3 ADD SWAP1 POP DUP2 DUP2 SUB PUSH1 0x0 DUP4 ADD MSTORE PUSH2 0x12E2 DUP2 PUSH2 0x110E JUMP JUMPDEST SWAP1 POP SWAP2 SWAP1 POP JUMP JUMPDEST PUSH1 0x0 PUSH1 0x20 DUP3 ADD SWAP1 POP PUSH2 0x12FE PUSH1 0x0 DUP4 ADD DUP5 PUSH2 0x1131 JUMP JUMPDEST SWAP3 SWAP2 POP POP JUMP JUMPDEST PUSH1 0x0 DUP2 MLOAD SWAP1 POP SWAP2 SWAP1 POP JUMP JUMPDEST PUSH1 0x0 DUP3 DUP3 MSTORE PUSH1 0x20 DUP3 ADD SWAP1 POP SWAP3 SWAP2 POP POP JUMP JUMPDEST PUSH1 0x0 DUP2 SWAP1 POP SWAP3 SWAP2 POP POP JUMP JUMPDEST PUSH1 0x0 PUSH2 0x1336 DUP3 PUSH2 0x1461 JUMP JUMPDEST SWAP2 POP PUSH2 0x1341 DUP4 PUSH2 0x1461 JUMP JUMPDEST SWAP3 POP DUP3 PUSH32 0xFFFFFFFFFFFFFFFFFFFFFFFFFFFFFFFFFFFFFFFFFFFFFFFFFFFFFFFFFFFFFFFF SUB DUP3 GT ISZERO PUSH2 0x1376 JUMPI PUSH2 0x1375 PUSH2 0x1511 JUMP JUMPDEST JUMPDEST DUP3 DUP3 ADD SWAP1 POP SWAP3 SWAP2 POP POP JUMP JUMPDEST PUSH1 0x0 PUSH2 0x138C DUP3 PUSH2 0x1461 JUMP JUMPDEST SWAP2 POP PUSH2 0x1397 DUP4 PUSH2 0x1461 JUMP JUMPDEST SWAP3 POP DUP2 PUSH32 0xFFFFFFFFFFFFFFFFFFFFFFFFFFFFFFFFFFFFFFFFFFFFFFFFFFFFFFFFFFFFFFFF DIV DUP4 GT DUP3 ISZERO ISZERO AND ISZERO PUSH2 0x13D0 JUMPI PUSH2 0x13CF PUSH2 0x1511 JUMP JUMPDEST JUMPDEST DUP3 DUP3 MUL SWAP1 POP SWAP3 SWAP2 POP POP JUMP JUMPDEST PUSH1 0x0 PUSH2 0x13E6 DUP3 PUSH2 0x1441 JUMP JUMPDEST SWAP1 POP SWAP2 SWAP1 POP JUMP JUMPDEST PUSH1 0x0 PUSH2 0x13F8 DUP3 PUSH2 0x1441 JUMP JUMPDEST SWAP1 POP SWAP2 SWAP1 POP JUMP JUMPDEST PUSH1 0x0 DUP2 ISZERO ISZERO SWAP1 POP SWAP2 SWAP1 POP JUMP JUMPDEST PUSH1 0x0 DUP2 SWAP1 POP SWAP2 SWAP1 POP JUMP JUMPDEST PUSH1 0x0 PUSH32 0xFFFFFFFF00000000000000000000000000000000000000000000000000000000 DUP3 AND SWAP1 POP SWAP2 SWAP1 POP JUMP JUMPDEST PUSH1 0x0 PUSH20 0xFFFFFFFFFFFFFFFFFFFFFFFFFFFFFFFFFFFFFFFF DUP3 AND SWAP1 POP SWAP2 SWAP1 POP JUMP JUMPDEST PUSH1 0x0 DUP2 SWAP1 POP SWAP2 SWAP1 POP JUMP JUMPDEST PUSH1 0x0 JUMPDEST DUP4 DUP2 LT ISZERO PUSH2 0x1489 JUMPI DUP1 DUP3 ADD MLOAD DUP2 DUP5 ADD MSTORE PUSH1 0x20 DUP2 ADD SWAP1 POP PUSH2 0x146E JUMP JUMPDEST DUP4 DUP2 GT ISZERO PUSH2 0x1498 JUMPI PUSH1 0x0 DUP5 DUP5 ADD MSTORE JUMPDEST POP POP POP POP JUMP JUMPDEST PUSH1 0x0 PUSH2 0x14A9 DUP3 PUSH2 0x1461 JUMP JUMPDEST SWAP2 POP PUSH1 0x0 DUP3 EQ ISZERO PUSH2 0x14BD JUMPI PUSH2 0x14BC PUSH2 0x1511 JUMP JUMPDEST JUMPDEST PUSH1 0x1 DUP3 SUB SWAP1 POP SWAP2 SWAP1 POP JUMP JUMPDEST PUSH1 0x0 PUSH2 0x14D3 DUP3 PUSH2 0x1461 JUMP JUMPDEST SWAP2 POP PUSH32 0xFFFFFFFFFFFFFFFFFFFFFFFFFFFFFFFFFFFFFFFFFFFFFFFFFFFFFFFFFFFFFFFF DUP3 EQ ISZERO PUSH2 0x1506 JUMPI PUSH2 0x1505 PUSH2 0x1511 JUMP JUMPDEST JUMPDEST PUSH1 0x1 DUP3 ADD SWAP1 POP SWAP2 SWAP1 POP JUMP JUMPDEST PUSH32 0x4E487B7100000000000000000000000000000000000000000000000000000000 PUSH1 0x0 MSTORE PUSH1 0x11 PUSH1 0x4 MSTORE PUSH1 0x24 PUSH1 0x0 REVERT JUMPDEST PUSH32 0x4E487B7100000000000000000000000000000000000000000000000000000000 PUSH1 0x0 MSTORE PUSH1 0x32 PUSH1 0x4 MSTORE PUSH1 0x24 PUSH1 0x0 REVERT JUMPDEST PUSH32 0x4E487B7100000000000000000000000000000000000000000000000000000000 PUSH1 0x0 MSTORE PUSH1 0x41 PUSH1 0x4 MSTORE PUSH1 0x24 PUSH1 0x0 REVERT JUMPDEST PUSH1 0x0 DUP1 REVERT JUMPDEST PUSH1 0x0 PUSH1 0x1F NOT PUSH1 0x1F DUP4 ADD AND SWAP1 POP SWAP2 SWAP1 POP JUMP JUMPDEST PUSH32 0x537472696E67733A20686578206C656E67746820696E73756666696369656E74 PUSH1 0x0 DUP3 ADD MSTORE POP JUMP JUMPDEST PUSH32 0x507269636520646F6573206E6F74206D61746368000000000000000000000000 PUSH1 0x0 DUP3 ADD MSTORE POP JUMP JUMPDEST PUSH32 0x4974656D20697320616C726561647920736F6C64000000000000000000000000 PUSH1 0x0 DUP3 ADD MSTORE POP JUMP JUMPDEST PUSH32 0x4F6E6C79207468652073656C6C65722063616E206372656174652061206D6172 PUSH1 0x0 DUP3 ADD MSTORE PUSH32 0x6B6574206974656D000000000000000000000000000000000000000000000000 PUSH1 0x20 DUP3 ADD MSTORE POP JUMP JUMPDEST PUSH32 0x416363657373436F6E74726F6C3A206163636F756E7420000000000000000000 PUSH1 0x0 DUP3 ADD MSTORE POP JUMP JUMPDEST PUSH32 0x4974656D20616C726561647920736F6C64000000000000000000000000000000 PUSH1 0x0 DUP3 ADD MSTORE POP JUMP JUMPDEST PUSH32 0x5072696365206D7573742062652067726561746572207468616E203000000000 PUSH1 0x0 DUP3 ADD MSTORE POP JUMP JUMPDEST PUSH32 0x206973206D697373696E6720726F6C6520000000000000000000000000000000 PUSH1 0x0 DUP3 ADD MSTORE POP JUMP JUMPDEST PUSH32 0x416363657373436F6E74726F6C3A2063616E206F6E6C792072656E6F756E6365 PUSH1 0x0 DUP3 ADD MSTORE PUSH32 0x20726F6C657320666F722073656C660000000000000000000000000000000000 PUSH1 0x20 DUP3 ADD MSTORE POP JUMP JUMPDEST PUSH2 0x177A DUP2 PUSH2 0x13DB JUMP JUMPDEST DUP2 EQ PUSH2 0x1785 JUMPI PUSH1 0x0 DUP1 REVERT JUMPDEST POP JUMP JUMPDEST PUSH2 0x1791 DUP2 PUSH2 0x13ED JUMP JUMPDEST DUP2 EQ PUSH2 0x179C JUMPI PUSH1 0x0 DUP1 REVERT JUMPDEST POP JUMP JUMPDEST PUSH2 0x17A8 DUP2 PUSH2 0x140B JUMP JUMPDEST DUP2 EQ PUSH2 0x17B3 JUMPI PUSH1 0x0 DUP1 REVERT JUMPDEST POP JUMP JUMPDEST PUSH2 0x17BF DUP2 PUSH2 0x1415 JUMP JUMPDEST DUP2 EQ PUSH2 0x17CA JUMPI PUSH1 0x0 DUP1 REVERT JUMPDEST POP JUMP JUMPDEST PUSH2 0x17D6 DUP2 PUSH2 0x1461 JUMP JUMPDEST DUP2 EQ PUSH2 0x17E1 JUMPI PUSH1 0x0 DUP1 REVERT JUMPDEST POP JUMP INVALID LOG2 PUSH5 0x6970667358 0x22 SLT KECCAK256 0xC4 SWAP14 DELEGATECALL 0x4D SWAP15 CALLDATACOPY GAS STOP PUSH6 0x72D55A337A40 COINBASE PUSH25 0xF5C60C8C8105D19A800A98A09583BD64736F6C634300080700 CALLER "
				},
				"gasEstimates": {
					"creation": {
						"codeDepositCost": "1234000",
						"executionCost": "infinite",
						"totalCost": "infinite"
					},
					"external": {
						"DEFAULT_ADMIN_ROLE()": "357",
						"MARKETPLACE_OWNER()": "373",
						"buyMarketItem(uint256)": "infinite",
						"createMarketItem(address,uint256)": "infinite",
						"getMarketItem(uint256)": "infinite",
						"getRoleAdmin(bytes32)": "infinite",
						"grantRole(bytes32,address)": "infinite",
						"hasRole(bytes32,address)": "3140",
						"nextItemId()": "2540",
						"renounceRole(bytes32,address)": "infinite",
						"revokeRole(bytes32,address)": "infinite",
						"supportsInterface(bytes4)": "728"
					}
				},
				"methodIdentifiers": {
					"DEFAULT_ADMIN_ROLE()": "a217fddf",
					"MARKETPLACE_OWNER()": "b491efa0",
					"buyMarketItem(uint256)": "351901c3",
					"createMarketItem(address,uint256)": "dd5f8518",
					"getMarketItem(uint256)": "c7be7a49",
					"getRoleAdmin(bytes32)": "248a9ca3",
					"grantRole(bytes32,address)": "2f2ff15d",
					"hasRole(bytes32,address)": "91d14854",
					"nextItemId()": "6a868974",
					"renounceRole(bytes32,address)": "36568abe",
					"revokeRole(bytes32,address)": "d547741f",
					"supportsInterface(bytes4)": "01ffc9a7"
				}
			},
			"userdoc": {
				"kind": "user",
				"methods": {},
				"version": 1
			}
		}
	}
}