{
	"Marketplace.sol": {
		"Marketplace": {
			"abi": [
				{
					"inputs": [],
					"stateMutability": "nonpayable",
					"type": "constructor"
				},
				{
					"anonymous": false,
					"inputs": [
						{
							"indexed": false,
							"internalType": "uint256",
							"name": "_itemId",
							"type": "uint256"
						},
						{
							"indexed": false,
							"internalType": "uint256",
							"name": "_price",
							"type": "uint256"
						},
						{
							"indexed": false,
							"internalType": "address",
							"name": "_seller",
							"type": "address"
						},
						{
							"indexed": false,
							"internalType": "address",
							"name": "_buyer",
							"type": "address"
						}
					],
					"name": "BuyItem",
					"type": "event"
				},
				{
					"anonymous": false,
					"inputs": [
						{
							"indexed": true,
							"internalType": "bytes32",
							"name": "role",
							"type": "bytes32"
						},
						{
							"indexed": true,
							"internalType": "bytes32",
							"name": "previousAdminRole",
							"type": "bytes32"
						},
						{
							"indexed": true,
							"internalType": "bytes32",
							"name": "newAdminRole",
							"type": "bytes32"
						}
					],
					"name": "RoleAdminChanged",
					"type": "event"
				},
				{
					"anonymous": false,
					"inputs": [
						{
							"indexed": true,
							"internalType": "bytes32",
							"name": "role",
							"type": "bytes32"
						},
						{
							"indexed": true,
							"internalType": "address",
							"name": "account",
							"type": "address"
						},
						{
							"indexed": true,
							"internalType": "address",
							"name": "sender",
							"type": "address"
						}
					],
					"name": "RoleGranted",
					"type": "event"
				},
				{
					"anonymous": false,
					"inputs": [
						{
							"indexed": true,
							"internalType": "bytes32",
							"name": "role",
							"type": "bytes32"
						},
						{
							"indexed": true,
							"internalType": "address",
							"name": "account",
							"type": "address"
						},
						{
							"indexed": true,
							"internalType": "address",
							"name": "sender",
							"type": "address"
						}
					],
					"name": "RoleRevoked",
					"type": "event"
				},
				{
					"inputs": [],
					"name": "DEFAULT_ADMIN_ROLE",
					"outputs": [
						{
							"internalType": "bytes32",
							"name": "",
							"type": "bytes32"
						}
					],
					"stateMutability": "view",
					"type": "function"
				},
				{
					"inputs": [],
					"name": "MARKETPLACE_OWNER",
					"outputs": [
						{
							"internalType": "bytes32",
							"name": "",
							"type": "bytes32"
						}
					],
					"stateMutability": "view",
					"type": "function"
				},
				{
					"inputs": [
						{
							"internalType": "uint256",
							"name": "_itemId",
							"type": "uint256"
						},
						{
							"internalType": "uint8",
							"name": "_quantity",
							"type": "uint8"
						}
					],
					"name": "buyMarketItem",
					"outputs": [],
					"stateMutability": "payable",
					"type": "function"
				},
				{
					"inputs": [
						{
							"internalType": "uint256",
							"name": "_itemId",
							"type": "uint256"
						},
						{
							"internalType": "address",
							"name": "_buyer",
							"type": "address"
						}
					],
					"name": "checkBuyer",
					"outputs": [
						{
							"internalType": "bool",
							"name": "",
							"type": "bool"
						}
					],
					"stateMutability": "view",
					"type": "function"
				},
				{
					"inputs": [
						{
							"internalType": "string",
							"name": "_title",
							"type": "string"
						},
						{
							"internalType": "string",
							"name": "_description",
							"type": "string"
						},
						{
							"internalType": "address payable",
							"name": "_seller",
							"type": "address"
						},
						{
							"internalType": "uint256",
							"name": "_price",
							"type": "uint256"
						},
						{
							"internalType": "string",
							"name": "_imageUrl",
							"type": "string"
						},
						{
							"internalType": "uint8",
							"name": "_quantity",
							"type": "uint8"
						}
					],
					"name": "createMarketItem",
					"outputs": [],
					"stateMutability": "nonpayable",
					"type": "function"
				},
				{
					"inputs": [
						{
							"internalType": "uint256",
							"name": "_itemId",
							"type": "uint256"
						}
					],
					"name": "getAverageStars",
					"outputs": [
						{
							"internalType": "uint8",
							"name": "",
							"type": "uint8"
						}
					],
					"stateMutability": "view",
					"type": "function"
				},
				{
					"inputs": [
						{
							"internalType": "uint256",
							"name": "_itemId",
							"type": "uint256"
						}
					],
					"name": "getMarketItem",
					"outputs": [
						{
							"internalType": "string",
							"name": "title",
							"type": "string"
						},
						{
							"internalType": "address payable",
							"name": "seller",
							"type": "address"
						},
						{
							"internalType": "uint256",
							"name": "price",
							"type": "uint256"
						}
					],
					"stateMutability": "view",
					"type": "function"
				},
				{
					"inputs": [
						{
							"internalType": "uint256",
							"name": "_itemId",
							"type": "uint256"
						}
					],
					"name": "getMarketItemDetails",
					"outputs": [
						{
							"internalType": "string",
							"name": "description",
							"type": "string"
						},
						{
							"internalType": "string",
							"name": "imageUrl",
							"type": "string"
						},
						{
							"internalType": "uint8",
							"name": "stars",
							"type": "uint8"
						},
						{
							"internalType": "uint8",
							"name": "quantity",
							"type": "uint8"
						},
						{
							"internalType": "uint256",
							"name": "createdAt",
							"type": "uint256"
						},
						{
							"internalType": "uint256",
							"name": "updatedAt",
							"type": "uint256"
						}
					],
					"stateMutability": "view",
					"type": "function"
				},
				{
					"inputs": [
						{
							"internalType": "bytes32",
							"name": "role",
							"type": "bytes32"
						}
					],
					"name": "getRoleAdmin",
					"outputs": [
						{
							"internalType": "bytes32",
							"name": "",
							"type": "bytes32"
						}
					],
					"stateMutability": "view",
					"type": "function"
				},
				{
					"inputs": [
						{
							"internalType": "bytes32",
							"name": "role",
							"type": "bytes32"
						},
						{
							"internalType": "address",
							"name": "account",
							"type": "address"
						}
					],
					"name": "grantRole",
					"outputs": [],
					"stateMutability": "nonpayable",
					"type": "function"
				},
				{
					"inputs": [
						{
							"internalType": "bytes32",
							"name": "role",
							"type": "bytes32"
						},
						{
							"internalType": "address",
							"name": "account",
							"type": "address"
						}
					],
					"name": "hasRole",
					"outputs": [
						{
							"internalType": "bool",
							"name": "",
							"type": "bool"
						}
					],
					"stateMutability": "view",
					"type": "function"
				},
				{
					"inputs": [],
					"name": "nextItemId",
					"outputs": [
						{
							"internalType": "uint256",
							"name": "",
							"type": "uint256"
						}
					],
					"stateMutability": "view",
					"type": "function"
				},
				{
					"inputs": [
						{
							"internalType": "bytes32",
							"name": "role",
							"type": "bytes32"
						},
						{
							"internalType": "address",
							"name": "account",
							"type": "address"
						}
					],
					"name": "renounceRole",
					"outputs": [],
					"stateMutability": "nonpayable",
					"type": "function"
				},
				{
					"inputs": [
						{
							"internalType": "bytes32",
							"name": "role",
							"type": "bytes32"
						},
						{
							"internalType": "address",
							"name": "account",
							"type": "address"
						}
					],
					"name": "revokeRole",
					"outputs": [],
					"stateMutability": "nonpayable",
					"type": "function"
				},
				{
					"inputs": [
						{
							"internalType": "bytes4",
							"name": "interfaceId",
							"type": "bytes4"
						}
					],
					"name": "supportsInterface",
					"outputs": [
						{
							"internalType": "bool",
							"name": "",
							"type": "bool"
						}
					],
					"stateMutability": "view",
					"type": "function"
				},
				{
					"inputs": [
						{
							"internalType": "uint256",
							"name": "_itemId",
							"type": "uint256"
						},
						{
							"internalType": "string",
							"name": "_description",
							"type": "string"
						}
					],
					"name": "updateMarketItemDescription",
					"outputs": [],
					"stateMutability": "nonpayable",
					"type": "function"
				},
				{
					"inputs": [
						{
							"internalType": "uint256",
							"name": "_itemId",
							"type": "uint256"
						},
						{
							"internalType": "string",
							"name": "_imageUrl",
							"type": "string"
						}
					],
					"name": "updateMarketItemImgUrl",
					"outputs": [],
					"stateMutability": "nonpayable",
					"type": "function"
				},
				{
					"inputs": [
						{
							"internalType": "uint256",
							"name": "_itemId",
							"type": "uint256"
						},
						{
							"internalType": "uint256",
							"name": "_price",
							"type": "uint256"
						}
					],
					"name": "updateMarketItemPrice",
					"outputs": [],
					"stateMutability": "nonpayable",
					"type": "function"
				},
				{
					"inputs": [
						{
							"internalType": "uint256",
							"name": "_itemId",
							"type": "uint256"
						},
						{
							"internalType": "uint8",
							"name": "_quantity",
							"type": "uint8"
						}
					],
					"name": "updateMarketItemQuantity",
					"outputs": [],
					"stateMutability": "nonpayable",
					"type": "function"
				},
				{
					"inputs": [
						{
							"internalType": "uint256",
							"name": "_itemId",
							"type": "uint256"
						},
						{
							"internalType": "uint8",
							"name": "_stars",
							"type": "uint8"
						}
					],
					"name": "voteMarketItemStars",
					"outputs": [],
					"stateMutability": "nonpayable",
					"type": "function"
				}
			],
			"devdoc": {
				"kind": "dev",
				"methods": {
					"getRoleAdmin(bytes32)": {
						"details": "Returns the admin role that controls `role`. See {grantRole} and {revokeRole}. To change a role's admin, use {_setRoleAdmin}."
					},
					"grantRole(bytes32,address)": {
						"details": "Grants `role` to `account`. If `account` had not been already granted `role`, emits a {RoleGranted} event. Requirements: - the caller must have ``role``'s admin role."
					},
					"hasRole(bytes32,address)": {
						"details": "Returns `true` if `account` has been granted `role`."
					},
					"renounceRole(bytes32,address)": {
						"details": "Revokes `role` from the calling account. Roles are often managed via {grantRole} and {revokeRole}: this function's purpose is to provide a mechanism for accounts to lose their privileges if they are compromised (such as when a trusted device is misplaced). If the calling account had been revoked `role`, emits a {RoleRevoked} event. Requirements: - the caller must be `account`."
					},
					"revokeRole(bytes32,address)": {
						"details": "Revokes `role` from `account`. If `account` had been granted `role`, emits a {RoleRevoked} event. Requirements: - the caller must have ``role``'s admin role."
					},
					"supportsInterface(bytes4)": {
						"details": "See {IERC165-supportsInterface}."
					}
				},
				"version": 1
			},
			"evm": {
				"assembly": "    /* \"Marketplace.sol\":122:5049  contract Marketplace is  AccessControl {\r... */\n  mstore(0x40, 0x80)\n    /* \"Marketplace.sol\":277:278  0 */\n  0x00\n    /* \"Marketplace.sol\":249:278  uint256 public nextItemId = 0 */\n  0x01\n  sstore\n    /* \"Marketplace.sol\":821:895  constructor() {\r... */\n  callvalue\n  dup1\n  iszero\n  tag_1\n  jumpi\n  0x00\n  dup1\n  revert\ntag_1:\n  pop\n    /* \"Marketplace.sol\":846:887  _grantRole(MARKETPLACE_OWNER, msg.sender) */\n  tag_4\n    /* \"Marketplace.sol\":212:242  keccak256(\"MARKETPLACE_OWNER\") */\n  0x1f9ca85e780b3b3cfbe1334ca9dd68802db7860f692bd163c796bb76d464edc0\n    /* \"Marketplace.sol\":876:886  msg.sender */\n  caller\n    /* \"Marketplace.sol\":846:856  _grantRole */\n  shl(0x20, tag_5)\n    /* \"Marketplace.sol\":846:887  _grantRole(MARKETPLACE_OWNER, msg.sender) */\n  0x20\n  shr\n  jump\t// in\ntag_4:\n    /* \"Marketplace.sol\":122:5049  contract Marketplace is  AccessControl {\r... */\n  jump(tag_6)\n    /* \"@openzeppelin/contracts/access/AccessControl.sol\":6861:7094  function _grantRole(bytes32 role, address account) internal virtual {... */\ntag_5:\n    /* \"@openzeppelin/contracts/access/AccessControl.sol\":6944:6966  hasRole(role, account) */\n  tag_8\n    /* \"@openzeppelin/contracts/access/AccessControl.sol\":6952:6956  role */\n  dup3\n    /* \"@openzeppelin/contracts/access/AccessControl.sol\":6958:6965  account */\n  dup3\n    /* \"@openzeppelin/contracts/access/AccessControl.sol\":6944:6951  hasRole */\n  shl(0x20, tag_9)\n    /* \"@openzeppelin/contracts/access/AccessControl.sol\":6944:6966  hasRole(role, account) */\n  0x20\n  shr\n  jump\t// in\ntag_8:\n    /* \"@openzeppelin/contracts/access/AccessControl.sol\":6939:7088  if (!hasRole(role, account)) {... */\n  tag_10\n  jumpi\n    /* \"@openzeppelin/contracts/access/AccessControl.sol\":7014:7018  true */\n  0x01\n    /* \"@openzeppelin/contracts/access/AccessControl.sol\":6982:6988  _roles */\n  0x00\n    /* \"@openzeppelin/contracts/access/AccessControl.sol\":6982:6994  _roles[role] */\n  dup1\n    /* \"@openzeppelin/contracts/access/AccessControl.sol\":6989:6993  role */\n  dup5\n    /* \"@openzeppelin/contracts/access/AccessControl.sol\":6982:6994  _roles[role] */\n  dup2\n  mstore\n  0x20\n  add\n  swap1\n  dup2\n  mstore\n  0x20\n  add\n  0x00\n  keccak256\n    /* \"@openzeppelin/contracts/access/AccessControl.sol\":6982:7002  _roles[role].members */\n  0x00\n  add\n    /* \"@openzeppelin/contracts/access/AccessControl.sol\":6982:7011  _roles[role].members[account] */\n  0x00\n    /* \"@openzeppelin/contracts/access/AccessControl.sol\":7003:7010  account */\n  dup4\n    /* \"@openzeppelin/contracts/access/AccessControl.sol\":6982:7011  _roles[role].members[account] */\n  0xffffffffffffffffffffffffffffffffffffffff\n  and\n  0xffffffffffffffffffffffffffffffffffffffff\n  and\n  dup2\n  mstore\n  0x20\n  add\n  swap1\n  dup2\n  mstore\n  0x20\n  add\n  0x00\n  keccak256\n  0x00\n    /* \"@openzeppelin/contracts/access/AccessControl.sol\":6982:7018  _roles[role].members[account] = true */\n  0x0100\n  exp\n  dup2\n  sload\n  dup2\n  0xff\n  mul\n  not\n  and\n  swap1\n  dup4\n  iszero\n  iszero\n  mul\n  or\n  swap1\n  sstore\n  pop\n    /* \"@openzeppelin/contracts/access/AccessControl.sol\":7064:7076  _msgSender() */\n  tag_11\n    /* \"@openzeppelin/contracts/access/AccessControl.sol\":7064:7074  _msgSender */\n  shl(0x20, tag_12)\n    /* \"@openzeppelin/contracts/access/AccessControl.sol\":7064:7076  _msgSender() */\n  0x20\n  shr\n  jump\t// in\ntag_11:\n    /* \"@openzeppelin/contracts/access/AccessControl.sol\":7037:7077  RoleGranted(role, account, _msgSender()) */\n  0xffffffffffffffffffffffffffffffffffffffff\n  and\n    /* \"@openzeppelin/contracts/access/AccessControl.sol\":7055:7062  account */\n  dup2\n    /* \"@openzeppelin/contracts/access/AccessControl.sol\":7037:7077  RoleGranted(role, account, _msgSender()) */\n  0xffffffffffffffffffffffffffffffffffffffff\n  and\n    /* \"@openzeppelin/contracts/access/AccessControl.sol\":7049:7053  role */\n  dup4\n    /* \"@openzeppelin/contracts/access/AccessControl.sol\":7037:7077  RoleGranted(role, account, _msgSender()) */\n  0x2f8788117e7eff1d82e926ec794901d17c78024a50270940304540a733656f0d\n  mload(0x40)\n  mload(0x40)\n  dup1\n  swap2\n  sub\n  swap1\n  log4\n    /* \"@openzeppelin/contracts/access/AccessControl.sol\":6939:7088  if (!hasRole(role, account)) {... */\ntag_10:\n    /* \"@openzeppelin/contracts/access/AccessControl.sol\":6861:7094  function _grantRole(bytes32 role, address account) internal virtual {... */\n  pop\n  pop\n  jump\t// out\n    /* \"@openzeppelin/contracts/access/AccessControl.sol\":2909:3054  function hasRole(bytes32 role, address account) public view virtual override returns (bool) {... */\ntag_9:\n    /* \"@openzeppelin/contracts/access/AccessControl.sol\":2995:2999  bool */\n  0x00\n    /* \"@openzeppelin/contracts/access/AccessControl.sol\":3018:3024  _roles */\n  dup1\n    /* \"@openzeppelin/contracts/access/AccessControl.sol\":3018:3030  _roles[role] */\n  0x00\n    /* \"@openzeppelin/contracts/access/AccessControl.sol\":3025:3029  role */\n  dup5\n    /* \"@openzeppelin/contracts/access/AccessControl.sol\":3018:3030  _roles[role] */\n  dup2\n  mstore\n  0x20\n  add\n  swap1\n  dup2\n  mstore\n  0x20\n  add\n  0x00\n  keccak256\n    /* \"@openzeppelin/contracts/access/AccessControl.sol\":3018:3038  _roles[role].members */\n  0x00\n  add\n    /* \"@openzeppelin/contracts/access/AccessControl.sol\":3018:3047  _roles[role].members[account] */\n  0x00\n    /* \"@openzeppelin/contracts/access/AccessControl.sol\":3039:3046  account */\n  dup4\n    /* \"@openzeppelin/contracts/access/AccessControl.sol\":3018:3047  _roles[role].members[account] */\n  0xffffffffffffffffffffffffffffffffffffffff\n  and\n  0xffffffffffffffffffffffffffffffffffffffff\n  and\n  dup2\n  mstore\n  0x20\n  add\n  swap1\n  dup2\n  mstore\n  0x20\n  add\n  0x00\n  keccak256\n  0x00\n  swap1\n  sload\n  swap1\n  0x0100\n  exp\n  swap1\n  div\n  0xff\n  and\n    /* \"@openzeppelin/contracts/access/AccessControl.sol\":3011:3047  return _roles[role].members[account] */\n  swap1\n  pop\n    /* \"@openzeppelin/contracts/access/AccessControl.sol\":2909:3054  function hasRole(bytes32 role, address account) public view virtual override returns (bool) {... */\n  swap3\n  swap2\n  pop\n  pop\n  jump\t// out\n    /* \"@openzeppelin/contracts/utils/Context.sol\":640:736  function _msgSender() internal view virtual returns (address) {... */\ntag_12:\n    /* \"@openzeppelin/contracts/utils/Context.sol\":693:700  address */\n  0x00\n    /* \"@openzeppelin/contracts/utils/Context.sol\":719:729  msg.sender */\n  caller\n    /* \"@openzeppelin/contracts/utils/Context.sol\":712:729  return msg.sender */\n  swap1\n  pop\n    /* \"@openzeppelin/contracts/utils/Context.sol\":640:736  function _msgSender() internal view virtual returns (address) {... */\n  swap1\n  jump\t// out\n    /* \"Marketplace.sol\":122:5049  contract Marketplace is  AccessControl {\r... */\ntag_6:\n  dataSize(sub_0)\n  dup1\n  dataOffset(sub_0)\n  0x00\n  codecopy\n  0x00\n  return\nstop\n\nsub_0: assembly {\n        /* \"Marketplace.sol\":122:5049  contract Marketplace is  AccessControl {\r... */\n      mstore(0x40, 0x80)\n      jumpi(tag_1, lt(calldatasize, 0x04))\n      shr(0xe0, calldataload(0x00))\n      dup1\n      0x91d14854\n      gt\n      tag_22\n      jumpi\n      dup1\n      0xc7be7a49\n      gt\n      tag_23\n      jumpi\n      dup1\n      0xc7be7a49\n      eq\n      tag_17\n      jumpi\n      dup1\n      0xd547741f\n      eq\n      tag_18\n      jumpi\n      dup1\n      0xeca1e6a0\n      eq\n      tag_19\n      jumpi\n      dup1\n      0xf0d2d06d\n      eq\n      tag_20\n      jumpi\n      dup1\n      0xfec4d15d\n      eq\n      tag_21\n      jumpi\n      jump(tag_1)\n    tag_23:\n      dup1\n      0x91d14854\n      eq\n      tag_12\n      jumpi\n      dup1\n      0xa217fddf\n      eq\n      tag_13\n      jumpi\n      dup1\n      0xa6667d06\n      eq\n      tag_14\n      jumpi\n      dup1\n      0xae13a317\n      eq\n      tag_15\n      jumpi\n      dup1\n      0xb491efa0\n      eq\n      tag_16\n      jumpi\n      jump(tag_1)\n    tag_22:\n      dup1\n      0x36568abe\n      gt\n      tag_24\n      jumpi\n      dup1\n      0x36568abe\n      eq\n      tag_7\n      jumpi\n      dup1\n      0x6a868974\n      eq\n      tag_8\n      jumpi\n      dup1\n      0x7735904f\n      eq\n      tag_9\n      jumpi\n      dup1\n      0x88d9e84c\n      eq\n      tag_10\n      jumpi\n      dup1\n      0x8f28afee\n      eq\n      tag_11\n      jumpi\n      jump(tag_1)\n    tag_24:\n      dup1\n      0x01ffc9a7\n      eq\n      tag_2\n      jumpi\n      dup1\n      0x0c3774fc\n      eq\n      tag_3\n      jumpi\n      dup1\n      0x1dfef0eb\n      eq\n      tag_4\n      jumpi\n      dup1\n      0x248a9ca3\n      eq\n      tag_5\n      jumpi\n      dup1\n      0x2f2ff15d\n      eq\n      tag_6\n      jumpi\n    tag_1:\n      0x00\n      dup1\n      revert\n        /* \"@openzeppelin/contracts/access/AccessControl.sol\":2620:2822  function supportsInterface(bytes4 interfaceId) public view virtual override returns (bool) {... */\n    tag_2:\n      callvalue\n      dup1\n      iszero\n      tag_25\n      jumpi\n      0x00\n      dup1\n      revert\n    tag_25:\n      pop\n      tag_26\n      0x04\n      dup1\n      calldatasize\n      sub\n      dup2\n      add\n      swap1\n      tag_27\n      swap2\n      swap1\n      tag_28\n      jump\t// in\n    tag_27:\n      tag_29\n      jump\t// in\n    tag_26:\n      mload(0x40)\n      tag_30\n      swap2\n      swap1\n      tag_31\n      jump\t// in\n    tag_30:\n      mload(0x40)\n      dup1\n      swap2\n      sub\n      swap1\n      return\n        /* \"Marketplace.sol\":4389:4881  function voteMarketItemStars(uint256 _itemId, uint8 _stars) public {\r... */\n    tag_3:\n      callvalue\n      dup1\n      iszero\n      tag_32\n      jumpi\n      0x00\n      dup1\n      revert\n    tag_32:\n      pop\n      tag_33\n      0x04\n      dup1\n      calldatasize\n      sub\n      dup2\n      add\n      swap1\n      tag_34\n      swap2\n      swap1\n      tag_35\n      jump\t// in\n    tag_34:\n      tag_36\n      jump\t// in\n    tag_33:\n      stop\n        /* \"Marketplace.sol\":1418:2059  function buyMarketItem(uint256 _itemId, uint8 _quantity) public payable {\r... */\n    tag_4:\n      tag_37\n      0x04\n      dup1\n      calldatasize\n      sub\n      dup2\n      add\n      swap1\n      tag_38\n      swap2\n      swap1\n      tag_35\n      jump\t// in\n    tag_38:\n      tag_39\n      jump\t// in\n    tag_37:\n      stop\n        /* \"@openzeppelin/contracts/access/AccessControl.sol\":4008:4137  function getRoleAdmin(bytes32 role) public view virtual override returns (bytes32) {... */\n    tag_5:\n      callvalue\n      dup1\n      iszero\n      tag_40\n      jumpi\n      0x00\n      dup1\n      revert\n    tag_40:\n      pop\n      tag_41\n      0x04\n      dup1\n      calldatasize\n      sub\n      dup2\n      add\n      swap1\n      tag_42\n      swap2\n      swap1\n      tag_43\n      jump\t// in\n    tag_42:\n      tag_44\n      jump\t// in\n    tag_41:\n      mload(0x40)\n      tag_45\n      swap2\n      swap1\n      tag_46\n      jump\t// in\n    tag_45:\n      mload(0x40)\n      dup1\n      swap2\n      sub\n      swap1\n      return\n        /* \"@openzeppelin/contracts/access/AccessControl.sol\":4387:4532  function grantRole(bytes32 role, address account) public virtual override onlyRole(getRoleAdmin(role)) {... */\n    tag_6:\n      callvalue\n      dup1\n      iszero\n      tag_47\n      jumpi\n      0x00\n      dup1\n      revert\n    tag_47:\n      pop\n      tag_48\n      0x04\n      dup1\n      calldatasize\n      sub\n      dup2\n      add\n      swap1\n      tag_49\n      swap2\n      swap1\n      tag_50\n      jump\t// in\n    tag_49:\n      tag_51\n      jump\t// in\n    tag_48:\n      stop\n        /* \"@openzeppelin/contracts/access/AccessControl.sol\":5404:5618  function renounceRole(bytes32 role, address account) public virtual override {... */\n    tag_7:\n      callvalue\n      dup1\n      iszero\n      tag_52\n      jumpi\n      0x00\n      dup1\n      revert\n    tag_52:\n      pop\n      tag_53\n      0x04\n      dup1\n      calldatasize\n      sub\n      dup2\n      add\n      swap1\n      tag_54\n      swap2\n      swap1\n      tag_50\n      jump\t// in\n    tag_54:\n      tag_55\n      jump\t// in\n    tag_53:\n      stop\n        /* \"Marketplace.sol\":249:278  uint256 public nextItemId = 0 */\n    tag_8:\n      callvalue\n      dup1\n      iszero\n      tag_56\n      jumpi\n      0x00\n      dup1\n      revert\n    tag_56:\n      pop\n      tag_57\n      tag_58\n      jump\t// in\n    tag_57:\n      mload(0x40)\n      tag_59\n      swap2\n      swap1\n      tag_60\n      jump\t// in\n    tag_59:\n      mload(0x40)\n      dup1\n      swap2\n      sub\n      swap1\n      return\n        /* \"Marketplace.sol\":4889:5046  function getAverageStars(uint256 _itemId) public view returns (uint8) {\r... */\n    tag_9:\n      callvalue\n      dup1\n      iszero\n      tag_61\n      jumpi\n      0x00\n      dup1\n      revert\n    tag_61:\n      pop\n      tag_62\n      0x04\n      dup1\n      calldatasize\n      sub\n      dup2\n      add\n      swap1\n      tag_63\n      swap2\n      swap1\n      tag_64\n      jump\t// in\n    tag_63:\n      tag_65\n      jump\t// in\n    tag_62:\n      mload(0x40)\n      tag_66\n      swap2\n      swap1\n      tag_67\n      jump\t// in\n    tag_66:\n      mload(0x40)\n      dup1\n      swap2\n      sub\n      swap1\n      return\n        /* \"Marketplace.sol\":2316:2679  function getMarketItemDetails(uint256 _itemId) public view returns (string memory description, string memory imageUrl, uint8 stars, uint8 quantity, uint256 createdAt, uint256 updatedAt) {\r... */\n    tag_10:\n      callvalue\n      dup1\n      iszero\n      tag_68\n      jumpi\n      0x00\n      dup1\n      revert\n    tag_68:\n      pop\n      tag_69\n      0x04\n      dup1\n      calldatasize\n      sub\n      dup2\n      add\n      swap1\n      tag_70\n      swap2\n      swap1\n      tag_64\n      jump\t// in\n    tag_70:\n      tag_71\n      jump\t// in\n    tag_69:\n      mload(0x40)\n      tag_72\n      swap7\n      swap6\n      swap5\n      swap4\n      swap3\n      swap2\n      swap1\n      tag_73\n      jump\t// in\n    tag_72:\n      mload(0x40)\n      dup1\n      swap2\n      sub\n      swap1\n      return\n        /* \"Marketplace.sol\":2687:3017  function updateMarketItemDescription(uint256 _itemId, string memory _description) public {\r... */\n    tag_11:\n      callvalue\n      dup1\n      iszero\n      tag_74\n      jumpi\n      0x00\n      dup1\n      revert\n    tag_74:\n      pop\n      tag_75\n      0x04\n      dup1\n      calldatasize\n      sub\n      dup2\n      add\n      swap1\n      tag_76\n      swap2\n      swap1\n      tag_77\n      jump\t// in\n    tag_76:\n      tag_78\n      jump\t// in\n    tag_75:\n      stop\n        /* \"@openzeppelin/contracts/access/AccessControl.sol\":2909:3054  function hasRole(bytes32 role, address account) public view virtual override returns (bool) {... */\n    tag_12:\n      callvalue\n      dup1\n      iszero\n      tag_79\n      jumpi\n      0x00\n      dup1\n      revert\n    tag_79:\n      pop\n      tag_80\n      0x04\n      dup1\n      calldatasize\n      sub\n      dup2\n      add\n      swap1\n      tag_81\n      swap2\n      swap1\n      tag_50\n      jump\t// in\n    tag_81:\n      tag_82\n      jump\t// in\n    tag_80:\n      mload(0x40)\n      tag_83\n      swap2\n      swap1\n      tag_31\n      jump\t// in\n    tag_83:\n      mload(0x40)\n      dup1\n      swap2\n      sub\n      swap1\n      return\n        /* \"@openzeppelin/contracts/access/AccessControl.sol\":2027:2076  bytes32 public constant DEFAULT_ADMIN_ROLE = 0x00 */\n    tag_13:\n      callvalue\n      dup1\n      iszero\n      tag_84\n      jumpi\n      0x00\n      dup1\n      revert\n    tag_84:\n      pop\n      tag_85\n      tag_86\n      jump\t// in\n    tag_85:\n      mload(0x40)\n      tag_87\n      swap2\n      swap1\n      tag_46\n      jump\t// in\n    tag_87:\n      mload(0x40)\n      dup1\n      swap2\n      sub\n      swap1\n      return\n        /* \"Marketplace.sol\":903:1410  function createMarketItem(string memory _title, string memory _description, address payable _seller, uint256 _price, string memory _imageUrl, uint8 _quantity) public {\r... */\n    tag_14:\n      callvalue\n      dup1\n      iszero\n      tag_88\n      jumpi\n      0x00\n      dup1\n      revert\n    tag_88:\n      pop\n      tag_89\n      0x04\n      dup1\n      calldatasize\n      sub\n      dup2\n      add\n      swap1\n      tag_90\n      swap2\n      swap1\n      tag_91\n      jump\t// in\n    tag_90:\n      tag_92\n      jump\t// in\n    tag_89:\n      stop\n        /* \"Marketplace.sol\":3662:3956  function updateMarketItemPrice(uint256 _itemId, uint256 _price) public {\r... */\n    tag_15:\n      callvalue\n      dup1\n      iszero\n      tag_93\n      jumpi\n      0x00\n      dup1\n      revert\n    tag_93:\n      pop\n      tag_94\n      0x04\n      dup1\n      calldatasize\n      sub\n      dup2\n      add\n      swap1\n      tag_95\n      swap2\n      swap1\n      tag_96\n      jump\t// in\n    tag_95:\n      tag_97\n      jump\t// in\n    tag_94:\n      stop\n        /* \"Marketplace.sol\":168:242  bytes32 public constant MARKETPLACE_OWNER = keccak256(\"MARKETPLACE_OWNER\") */\n    tag_16:\n      callvalue\n      dup1\n      iszero\n      tag_98\n      jumpi\n      0x00\n      dup1\n      revert\n    tag_98:\n      pop\n      tag_99\n      tag_100\n      jump\t// in\n    tag_99:\n      mload(0x40)\n      tag_101\n      swap2\n      swap1\n      tag_46\n      jump\t// in\n    tag_101:\n      mload(0x40)\n      dup1\n      swap2\n      sub\n      swap1\n      return\n        /* \"Marketplace.sol\":2067:2308  function getMarketItem(uint256 _itemId) public view returns (string memory title, address payable seller, uint256 price) {\r... */\n    tag_17:\n      callvalue\n      dup1\n      iszero\n      tag_102\n      jumpi\n      0x00\n      dup1\n      revert\n    tag_102:\n      pop\n      tag_103\n      0x04\n      dup1\n      calldatasize\n      sub\n      dup2\n      add\n      swap1\n      tag_104\n      swap2\n      swap1\n      tag_64\n      jump\t// in\n    tag_104:\n      tag_105\n      jump\t// in\n    tag_103:\n      mload(0x40)\n      tag_106\n      swap4\n      swap3\n      swap2\n      swap1\n      tag_107\n      jump\t// in\n    tag_106:\n      mload(0x40)\n      dup1\n      swap2\n      sub\n      swap1\n      return\n        /* \"@openzeppelin/contracts/access/AccessControl.sol\":4766:4913  function revokeRole(bytes32 role, address account) public virtual override onlyRole(getRoleAdmin(role)) {... */\n    tag_18:\n      callvalue\n      dup1\n      iszero\n      tag_108\n      jumpi\n      0x00\n      dup1\n      revert\n    tag_108:\n      pop\n      tag_109\n      0x04\n      dup1\n      calldatasize\n      sub\n      dup2\n      add\n      swap1\n      tag_110\n      swap2\n      swap1\n      tag_50\n      jump\t// in\n    tag_110:\n      tag_111\n      jump\t// in\n    tag_109:\n      stop\n        /* \"Marketplace.sol\":3025:3332  function updateMarketItemQuantity(uint256 _itemId, uint8 _quantity) public {\r... */\n    tag_19:\n      callvalue\n      dup1\n      iszero\n      tag_112\n      jumpi\n      0x00\n      dup1\n      revert\n    tag_112:\n      pop\n      tag_113\n      0x04\n      dup1\n      calldatasize\n      sub\n      dup2\n      add\n      swap1\n      tag_114\n      swap2\n      swap1\n      tag_35\n      jump\t// in\n    tag_114:\n      tag_115\n      jump\t// in\n    tag_113:\n      stop\n        /* \"Marketplace.sol\":3340:3654  function updateMarketItemImgUrl(uint256 _itemId, string memory _imageUrl) public {\r... */\n    tag_20:\n      callvalue\n      dup1\n      iszero\n      tag_116\n      jumpi\n      0x00\n      dup1\n      revert\n    tag_116:\n      pop\n      tag_117\n      0x04\n      dup1\n      calldatasize\n      sub\n      dup2\n      add\n      swap1\n      tag_118\n      swap2\n      swap1\n      tag_77\n      jump\t// in\n    tag_118:\n      tag_119\n      jump\t// in\n    tag_117:\n      stop\n        /* \"Marketplace.sol\":4233:4381  function checkBuyer(uint256 _itemId, address _buyer) public view returns (bool) {\r... */\n    tag_21:\n      callvalue\n      dup1\n      iszero\n      tag_120\n      jumpi\n      0x00\n      dup1\n      revert\n    tag_120:\n      pop\n      tag_121\n      0x04\n      dup1\n      calldatasize\n      sub\n      dup2\n      add\n      swap1\n      tag_122\n      swap2\n      swap1\n      tag_123\n      jump\t// in\n    tag_122:\n      tag_124\n      jump\t// in\n    tag_121:\n      mload(0x40)\n      tag_125\n      swap2\n      swap1\n      tag_31\n      jump\t// in\n    tag_125:\n      mload(0x40)\n      dup1\n      swap2\n      sub\n      swap1\n      return\n        /* \"@openzeppelin/contracts/access/AccessControl.sol\":2620:2822  function supportsInterface(bytes4 interfaceId) public view virtual override returns (bool) {... */\n    tag_29:\n        /* \"@openzeppelin/contracts/access/AccessControl.sol\":2705:2709  bool */\n      0x00\n        /* \"@openzeppelin/contracts/access/AccessControl.sol\":2743:2775  type(IAccessControl).interfaceId */\n      0x7965db0b00000000000000000000000000000000000000000000000000000000\n        /* \"@openzeppelin/contracts/access/AccessControl.sol\":2728:2775  interfaceId == type(IAccessControl).interfaceId */\n      not(0xffffffffffffffffffffffffffffffffffffffffffffffffffffffff)\n      and\n        /* \"@openzeppelin/contracts/access/AccessControl.sol\":2728:2739  interfaceId */\n      dup3\n        /* \"@openzeppelin/contracts/access/AccessControl.sol\":2728:2775  interfaceId == type(IAccessControl).interfaceId */\n      not(0xffffffffffffffffffffffffffffffffffffffffffffffffffffffff)\n      and\n      eq\n        /* \"@openzeppelin/contracts/access/AccessControl.sol\":2728:2815  interfaceId == type(IAccessControl).interfaceId || super.supportsInterface(interfaceId) */\n      dup1\n      tag_127\n      jumpi\n      pop\n        /* \"@openzeppelin/contracts/access/AccessControl.sol\":2779:2815  super.supportsInterface(interfaceId) */\n      tag_128\n        /* \"@openzeppelin/contracts/access/AccessControl.sol\":2803:2814  interfaceId */\n      dup3\n        /* \"@openzeppelin/contracts/access/AccessControl.sol\":2779:2802  super.supportsInterface */\n      tag_129\n        /* \"@openzeppelin/contracts/access/AccessControl.sol\":2779:2815  super.supportsInterface(interfaceId) */\n      jump\t// in\n    tag_128:\n        /* \"@openzeppelin/contracts/access/AccessControl.sol\":2728:2815  interfaceId == type(IAccessControl).interfaceId || super.supportsInterface(interfaceId) */\n    tag_127:\n        /* \"@openzeppelin/contracts/access/AccessControl.sol\":2721:2815  return interfaceId == type(IAccessControl).interfaceId || super.supportsInterface(interfaceId) */\n      swap1\n      pop\n        /* \"@openzeppelin/contracts/access/AccessControl.sol\":2620:2822  function supportsInterface(bytes4 interfaceId) public view virtual override returns (bool) {... */\n      swap2\n      swap1\n      pop\n      jump\t// out\n        /* \"Marketplace.sol\":4389:4881  function voteMarketItemStars(uint256 _itemId, uint8 _stars) public {\r... */\n    tag_36:\n        /* \"Marketplace.sol\":4489:4503  idToMarketItem */\n      0x03\n        /* \"Marketplace.sol\":4489:4512  idToMarketItem[_itemId] */\n      0x00\n        /* \"Marketplace.sol\":4504:4511  _itemId */\n      dup4\n        /* \"Marketplace.sol\":4489:4512  idToMarketItem[_itemId] */\n      dup2\n      mstore\n      0x20\n      add\n      swap1\n      dup2\n      mstore\n      0x20\n      add\n      0x00\n      keccak256\n        /* \"Marketplace.sol\":4489:4519  idToMarketItem[_itemId].seller */\n      0x04\n      add\n      0x00\n      swap1\n      sload\n      swap1\n      0x0100\n      exp\n      swap1\n      div\n      0xffffffffffffffffffffffffffffffffffffffff\n      and\n        /* \"Marketplace.sol\":4475:4519  msg.sender != idToMarketItem[_itemId].seller */\n      0xffffffffffffffffffffffffffffffffffffffff\n      and\n        /* \"Marketplace.sol\":4475:4485  msg.sender */\n      caller\n        /* \"Marketplace.sol\":4475:4519  msg.sender != idToMarketItem[_itemId].seller */\n      0xffffffffffffffffffffffffffffffffffffffff\n      and\n      eq\n      iszero\n        /* \"Marketplace.sol\":4467:4546  require(msg.sender != idToMarketItem[_itemId].seller, \"The seller cannot vote\") */\n      tag_131\n      jumpi\n      mload(0x40)\n      0x08c379a000000000000000000000000000000000000000000000000000000000\n      dup2\n      mstore\n      0x04\n      add\n      tag_132\n      swap1\n      tag_133\n      jump\t// in\n    tag_132:\n      mload(0x40)\n      dup1\n      swap2\n      sub\n      swap1\n      revert\n    tag_131:\n        /* \"Marketplace.sol\":4575:4576  5 */\n      0x05\n        /* \"Marketplace.sol\":4565:4571  _stars */\n      dup2\n        /* \"Marketplace.sol\":4565:4576  _stars <= 5 */\n      0xff\n      and\n      gt\n      iszero\n        /* \"Marketplace.sol\":4557:4618  require(_stars <= 5, \"Stars must be less than or equal to 5\") */\n      tag_134\n      jumpi\n      mload(0x40)\n      0x08c379a000000000000000000000000000000000000000000000000000000000\n      dup2\n      mstore\n      0x04\n      add\n      tag_135\n      swap1\n      tag_136\n      jump\t// in\n    tag_135:\n      mload(0x40)\n      dup1\n      swap2\n      sub\n      swap1\n      revert\n    tag_134:\n        /* \"Marketplace.sol\":4647:4648  1 */\n      0x01\n        /* \"Marketplace.sol\":4637:4643  _stars */\n      dup2\n        /* \"Marketplace.sol\":4637:4648  _stars >= 1 */\n      0xff\n      and\n      lt\n      iszero\n        /* \"Marketplace.sol\":4629:4693  require(_stars >= 1, \"Stars must be greater than or equal to 1\") */\n      tag_137\n      jumpi\n      mload(0x40)\n      0x08c379a000000000000000000000000000000000000000000000000000000000\n      dup2\n      mstore\n      0x04\n      add\n      tag_138\n      swap1\n      tag_139\n      jump\t// in\n    tag_138:\n      mload(0x40)\n      dup1\n      swap2\n      sub\n      swap1\n      revert\n    tag_137:\n        /* \"Marketplace.sol\":4712:4743  checkBuyer(_itemId, msg.sender) */\n      tag_140\n        /* \"Marketplace.sol\":4723:4730  _itemId */\n      dup3\n        /* \"Marketplace.sol\":4732:4742  msg.sender */\n      caller\n        /* \"Marketplace.sol\":4712:4722  checkBuyer */\n      tag_124\n        /* \"Marketplace.sol\":4712:4743  checkBuyer(_itemId, msg.sender) */\n      jump\t// in\n    tag_140:\n        /* \"Marketplace.sol\":4704:4781  require(checkBuyer(_itemId, msg.sender), \"You cannot vote for this product.\") */\n      tag_141\n      jumpi\n      mload(0x40)\n      0x08c379a000000000000000000000000000000000000000000000000000000000\n      dup2\n      mstore\n      0x04\n      add\n      tag_142\n      swap1\n      tag_143\n      jump\t// in\n    tag_142:\n      mload(0x40)\n      dup1\n      swap2\n      sub\n      swap1\n      revert\n    tag_141:\n        /* \"Marketplace.sol\":4825:4831  _stars */\n      dup1\n        /* \"Marketplace.sol\":4792:4806  idToMarketItem */\n      0x03\n        /* \"Marketplace.sol\":4792:4815  idToMarketItem[_itemId] */\n      0x00\n        /* \"Marketplace.sol\":4807:4814  _itemId */\n      dup5\n        /* \"Marketplace.sol\":4792:4815  idToMarketItem[_itemId] */\n      dup2\n      mstore\n      0x20\n      add\n      swap1\n      dup2\n      mstore\n      0x20\n      add\n      0x00\n      keccak256\n        /* \"Marketplace.sol\":4792:4821  idToMarketItem[_itemId].stars */\n      0x06\n      add\n      0x00\n        /* \"Marketplace.sol\":4792:4831  idToMarketItem[_itemId].stars += _stars */\n      dup3\n      dup3\n      dup3\n      swap1\n      sload\n      swap1\n      0x0100\n      exp\n      swap1\n      div\n      0xff\n      and\n      tag_144\n      swap2\n      swap1\n      tag_145\n      jump\t// in\n    tag_144:\n      swap3\n      pop\n      0x0100\n      exp\n      dup2\n      sload\n      dup2\n      0xff\n      mul\n      not\n      and\n      swap1\n      dup4\n      0xff\n      and\n      mul\n      or\n      swap1\n      sstore\n      pop\n        /* \"Marketplace.sol\":4842:4856  idToMarketItem */\n      0x03\n        /* \"Marketplace.sol\":4842:4865  idToMarketItem[_itemId] */\n      0x00\n        /* \"Marketplace.sol\":4857:4864  _itemId */\n      dup4\n        /* \"Marketplace.sol\":4842:4865  idToMarketItem[_itemId] */\n      dup2\n      mstore\n      0x20\n      add\n      swap1\n      dup2\n      mstore\n      0x20\n      add\n      0x00\n      keccak256\n        /* \"Marketplace.sol\":4842:4871  idToMarketItem[_itemId].votes */\n      0x06\n      add\n      0x01\n        /* \"Marketplace.sol\":4842:4873  idToMarketItem[_itemId].votes++ */\n      dup2\n      dup2\n      swap1\n      sload\n      swap1\n      0x0100\n      exp\n      swap1\n      div\n      0xff\n      and\n      dup1\n      swap3\n      swap2\n      swap1\n      tag_146\n      swap1\n      tag_147\n      jump\t// in\n    tag_146:\n      swap2\n      swap1\n      0x0100\n      exp\n      dup2\n      sload\n      dup2\n      0xff\n      mul\n      not\n      and\n      swap1\n      dup4\n      0xff\n      and\n      mul\n      or\n      swap1\n      sstore\n      pop\n      pop\n        /* \"Marketplace.sol\":4389:4881  function voteMarketItemStars(uint256 _itemId, uint8 _stars) public {\r... */\n      pop\n      pop\n      jump\t// out\n        /* \"Marketplace.sol\":1418:2059  function buyMarketItem(uint256 _itemId, uint8 _quantity) public payable {\r... */\n    tag_39:\n        /* \"Marketplace.sol\":1542:1551  msg.value */\n      callvalue\n        /* \"Marketplace.sol\":1509:1523  idToMarketItem */\n      0x03\n        /* \"Marketplace.sol\":1509:1532  idToMarketItem[_itemId] */\n      0x00\n        /* \"Marketplace.sol\":1524:1531  _itemId */\n      dup5\n        /* \"Marketplace.sol\":1509:1532  idToMarketItem[_itemId] */\n      dup2\n      mstore\n      0x20\n      add\n      swap1\n      dup2\n      mstore\n      0x20\n      add\n      0x00\n      keccak256\n        /* \"Marketplace.sol\":1509:1538  idToMarketItem[_itemId].price */\n      0x03\n      add\n      sload\n        /* \"Marketplace.sol\":1509:1551  idToMarketItem[_itemId].price == msg.value */\n      eq\n        /* \"Marketplace.sol\":1501:1576  require(idToMarketItem[_itemId].price == msg.value, \"Price does not match\") */\n      tag_149\n      jumpi\n      mload(0x40)\n      0x08c379a000000000000000000000000000000000000000000000000000000000\n      dup2\n      mstore\n      0x04\n      add\n      tag_150\n      swap1\n      tag_151\n      jump\t// in\n    tag_150:\n      mload(0x40)\n      dup1\n      swap2\n      sub\n      swap1\n      revert\n    tag_149:\n        /* \"Marketplace.sol\":1607:1608  0 */\n      0x00\n        /* \"Marketplace.sol\":1595:1604  _quantity */\n      dup2\n        /* \"Marketplace.sol\":1595:1608  _quantity > 0 */\n      0xff\n      and\n      gt\n        /* \"Marketplace.sol\":1587:1644  require(_quantity > 0, \"Quantity must be greater than 0\") */\n      tag_152\n      jumpi\n      mload(0x40)\n      0x08c379a000000000000000000000000000000000000000000000000000000000\n      dup2\n      mstore\n      0x04\n      add\n      tag_153\n      swap1\n      tag_154\n      jump\t// in\n    tag_153:\n      mload(0x40)\n      dup1\n      swap2\n      sub\n      swap1\n      revert\n    tag_152:\n        /* \"Marketplace.sol\":1676:1690  idToMarketItem */\n      0x03\n        /* \"Marketplace.sol\":1676:1699  idToMarketItem[_itemId] */\n      0x00\n        /* \"Marketplace.sol\":1691:1698  _itemId */\n      dup4\n        /* \"Marketplace.sol\":1676:1699  idToMarketItem[_itemId] */\n      dup2\n      mstore\n      0x20\n      add\n      swap1\n      dup2\n      mstore\n      0x20\n      add\n      0x00\n      keccak256\n        /* \"Marketplace.sol\":1676:1708  idToMarketItem[_itemId].quantity */\n      0x06\n      add\n      0x02\n      swap1\n      sload\n      swap1\n      0x0100\n      exp\n      swap1\n      div\n      0xff\n      and\n        /* \"Marketplace.sol\":1663:1708  _quantity <= idToMarketItem[_itemId].quantity */\n      0xff\n      and\n        /* \"Marketplace.sol\":1663:1672  _quantity */\n      dup2\n        /* \"Marketplace.sol\":1663:1708  _quantity <= idToMarketItem[_itemId].quantity */\n      0xff\n      and\n      gt\n      iszero\n        /* \"Marketplace.sol\":1655:1774  require(_quantity <= idToMarketItem[_itemId].quantity, \"Quantity must be less than or equal to the available quantity\") */\n      tag_155\n      jumpi\n      mload(0x40)\n      0x08c379a000000000000000000000000000000000000000000000000000000000\n      dup2\n      mstore\n      0x04\n      add\n      tag_156\n      swap1\n      tag_157\n      jump\t// in\n    tag_156:\n      mload(0x40)\n      dup1\n      swap2\n      sub\n      swap1\n      revert\n    tag_155:\n        /* \"Marketplace.sol\":1785:1799  idToMarketItem */\n      0x03\n        /* \"Marketplace.sol\":1785:1808  idToMarketItem[_itemId] */\n      0x00\n        /* \"Marketplace.sol\":1800:1807  _itemId */\n      dup4\n        /* \"Marketplace.sol\":1785:1808  idToMarketItem[_itemId] */\n      dup2\n      mstore\n      0x20\n      add\n      swap1\n      dup2\n      mstore\n      0x20\n      add\n      0x00\n      keccak256\n        /* \"Marketplace.sol\":1785:1815  idToMarketItem[_itemId].seller */\n      0x04\n      add\n      0x00\n      swap1\n      sload\n      swap1\n      0x0100\n      exp\n      swap1\n      div\n      0xffffffffffffffffffffffffffffffffffffffff\n      and\n        /* \"Marketplace.sol\":1785:1824  idToMarketItem[_itemId].seller.transfer */\n      0xffffffffffffffffffffffffffffffffffffffff\n      and\n        /* \"Marketplace.sol\":1785:1835  idToMarketItem[_itemId].seller.transfer(msg.value) */\n      0x08fc\n        /* \"Marketplace.sol\":1825:1834  msg.value */\n      callvalue\n        /* \"Marketplace.sol\":1785:1835  idToMarketItem[_itemId].seller.transfer(msg.value) */\n      swap1\n      dup2\n      iszero\n      mul\n      swap1\n      mload(0x40)\n      0x00\n      mload(0x40)\n      dup1\n      dup4\n      sub\n      dup2\n      dup6\n      dup9\n      dup9\n      call\n      swap4\n      pop\n      pop\n      pop\n      pop\n      iszero\n      dup1\n      iszero\n      tag_159\n      jumpi\n      returndatasize\n      0x00\n      dup1\n      returndatacopy\n      revert(0x00, returndatasize)\n    tag_159:\n      pop\n        /* \"Marketplace.sol\":1882:1891  _quantity */\n      dup1\n        /* \"Marketplace.sol\":1846:1860  idToMarketItem */\n      0x03\n        /* \"Marketplace.sol\":1846:1869  idToMarketItem[_itemId] */\n      0x00\n        /* \"Marketplace.sol\":1861:1868  _itemId */\n      dup5\n        /* \"Marketplace.sol\":1846:1869  idToMarketItem[_itemId] */\n      dup2\n      mstore\n      0x20\n      add\n      swap1\n      dup2\n      mstore\n      0x20\n      add\n      0x00\n      keccak256\n        /* \"Marketplace.sol\":1846:1878  idToMarketItem[_itemId].quantity */\n      0x06\n      add\n      0x02\n        /* \"Marketplace.sol\":1846:1891  idToMarketItem[_itemId].quantity -= _quantity */\n      dup3\n      dup3\n      dup3\n      swap1\n      sload\n      swap1\n      0x0100\n      exp\n      swap1\n      div\n      0xff\n      and\n      tag_160\n      swap2\n      swap1\n      tag_161\n      jump\t// in\n    tag_160:\n      swap3\n      pop\n      0x0100\n      exp\n      dup2\n      sload\n      dup2\n      0xff\n      mul\n      not\n      and\n      swap1\n      dup4\n      0xff\n      and\n      mul\n      or\n      swap1\n      sstore\n      pop\n        /* \"Marketplace.sol\":1902:1918  idToBuyerAddress */\n      0x02\n        /* \"Marketplace.sol\":1902:1927  idToBuyerAddress[_itemId] */\n      0x00\n        /* \"Marketplace.sol\":1919:1926  _itemId */\n      dup4\n        /* \"Marketplace.sol\":1902:1927  idToBuyerAddress[_itemId] */\n      dup2\n      mstore\n      0x20\n      add\n      swap1\n      dup2\n      mstore\n      0x20\n      add\n      0x00\n      keccak256\n        /* \"Marketplace.sol\":1933:1943  msg.sender */\n      caller\n        /* \"Marketplace.sol\":1902:1944  idToBuyerAddress[_itemId].push(msg.sender) */\n      swap1\n      dup1\n      0x01\n      dup2\n      sload\n      add\n      dup1\n      dup3\n      sstore\n      dup1\n      swap2\n      pop\n      pop\n      0x01\n      swap1\n      sub\n      swap1\n      0x00\n      mstore\n      keccak256(0x00, 0x20)\n      add\n      0x00\n      swap1\n      swap2\n      swap1\n      swap2\n      swap1\n      swap2\n      0x0100\n      exp\n      dup2\n      sload\n      dup2\n      0xffffffffffffffffffffffffffffffffffffffff\n      mul\n      not\n      and\n      swap1\n      dup4\n      0xffffffffffffffffffffffffffffffffffffffff\n      and\n      mul\n      or\n      swap1\n      sstore\n      pop\n        /* \"Marketplace.sol\":1960:2051  BuyItem(_itemId, idToMarketItem[_itemId].price, idToMarketItem[_itemId].seller, msg.sender) */\n      0xf2f622c4ee3232d0d08c3870751d38ddef2eaf0e7e0c5d38239c7dc8921ca680\n        /* \"Marketplace.sol\":1968:1975  _itemId */\n      dup3\n        /* \"Marketplace.sol\":1977:1991  idToMarketItem */\n      0x03\n        /* \"Marketplace.sol\":1977:2000  idToMarketItem[_itemId] */\n      0x00\n        /* \"Marketplace.sol\":1992:1999  _itemId */\n      dup6\n        /* \"Marketplace.sol\":1977:2000  idToMarketItem[_itemId] */\n      dup2\n      mstore\n      0x20\n      add\n      swap1\n      dup2\n      mstore\n      0x20\n      add\n      0x00\n      keccak256\n        /* \"Marketplace.sol\":1977:2006  idToMarketItem[_itemId].price */\n      0x03\n      add\n      sload\n        /* \"Marketplace.sol\":2008:2022  idToMarketItem */\n      0x03\n        /* \"Marketplace.sol\":2008:2031  idToMarketItem[_itemId] */\n      0x00\n        /* \"Marketplace.sol\":2023:2030  _itemId */\n      dup7\n        /* \"Marketplace.sol\":2008:2031  idToMarketItem[_itemId] */\n      dup2\n      mstore\n      0x20\n      add\n      swap1\n      dup2\n      mstore\n      0x20\n      add\n      0x00\n      keccak256\n        /* \"Marketplace.sol\":2008:2038  idToMarketItem[_itemId].seller */\n      0x04\n      add\n      0x00\n      swap1\n      sload\n      swap1\n      0x0100\n      exp\n      swap1\n      div\n      0xffffffffffffffffffffffffffffffffffffffff\n      and\n        /* \"Marketplace.sol\":2040:2050  msg.sender */\n      caller\n        /* \"Marketplace.sol\":1960:2051  BuyItem(_itemId, idToMarketItem[_itemId].price, idToMarketItem[_itemId].seller, msg.sender) */\n      mload(0x40)\n      tag_163\n      swap5\n      swap4\n      swap3\n      swap2\n      swap1\n      tag_164\n      jump\t// in\n    tag_163:\n      mload(0x40)\n      dup1\n      swap2\n      sub\n      swap1\n      log1\n        /* \"Marketplace.sol\":1418:2059  function buyMarketItem(uint256 _itemId, uint8 _quantity) public payable {\r... */\n      pop\n      pop\n      jump\t// out\n        /* \"@openzeppelin/contracts/access/AccessControl.sol\":4008:4137  function getRoleAdmin(bytes32 role) public view virtual override returns (bytes32) {... */\n    tag_44:\n        /* \"@openzeppelin/contracts/access/AccessControl.sol\":4082:4089  bytes32 */\n      0x00\n        /* \"@openzeppelin/contracts/access/AccessControl.sol\":4108:4114  _roles */\n      dup1\n        /* \"@openzeppelin/contracts/access/AccessControl.sol\":4108:4120  _roles[role] */\n      0x00\n        /* \"@openzeppelin/contracts/access/AccessControl.sol\":4115:4119  role */\n      dup4\n        /* \"@openzeppelin/contracts/access/AccessControl.sol\":4108:4120  _roles[role] */\n      dup2\n      mstore\n      0x20\n      add\n      swap1\n      dup2\n      mstore\n      0x20\n      add\n      0x00\n      keccak256\n        /* \"@openzeppelin/contracts/access/AccessControl.sol\":4108:4130  _roles[role].adminRole */\n      0x01\n      add\n      sload\n        /* \"@openzeppelin/contracts/access/AccessControl.sol\":4101:4130  return _roles[role].adminRole */\n      swap1\n      pop\n        /* \"@openzeppelin/contracts/access/AccessControl.sol\":4008:4137  function getRoleAdmin(bytes32 role) public view virtual override returns (bytes32) {... */\n      swap2\n      swap1\n      pop\n      jump\t// out\n        /* \"@openzeppelin/contracts/access/AccessControl.sol\":4387:4532  function grantRole(bytes32 role, address account) public virtual override onlyRole(getRoleAdmin(role)) {... */\n    tag_51:\n        /* \"@openzeppelin/contracts/access/AccessControl.sol\":4470:4488  getRoleAdmin(role) */\n      tag_166\n        /* \"@openzeppelin/contracts/access/AccessControl.sol\":4483:4487  role */\n      dup3\n        /* \"@openzeppelin/contracts/access/AccessControl.sol\":4470:4482  getRoleAdmin */\n      tag_44\n        /* \"@openzeppelin/contracts/access/AccessControl.sol\":4470:4488  getRoleAdmin(role) */\n      jump\t// in\n    tag_166:\n        /* \"@openzeppelin/contracts/access/AccessControl.sol\":2505:2535  _checkRole(role, _msgSender()) */\n      tag_168\n        /* \"@openzeppelin/contracts/access/AccessControl.sol\":2516:2520  role */\n      dup2\n        /* \"@openzeppelin/contracts/access/AccessControl.sol\":2522:2534  _msgSender() */\n      tag_169\n        /* \"@openzeppelin/contracts/access/AccessControl.sol\":2522:2532  _msgSender */\n      tag_170\n        /* \"@openzeppelin/contracts/access/AccessControl.sol\":2522:2534  _msgSender() */\n      jump\t// in\n    tag_169:\n        /* \"@openzeppelin/contracts/access/AccessControl.sol\":2505:2515  _checkRole */\n      tag_171\n        /* \"@openzeppelin/contracts/access/AccessControl.sol\":2505:2535  _checkRole(role, _msgSender()) */\n      jump\t// in\n    tag_168:\n        /* \"@openzeppelin/contracts/access/AccessControl.sol\":4500:4525  _grantRole(role, account) */\n      tag_173\n        /* \"@openzeppelin/contracts/access/AccessControl.sol\":4511:4515  role */\n      dup4\n        /* \"@openzeppelin/contracts/access/AccessControl.sol\":4517:4524  account */\n      dup4\n        /* \"@openzeppelin/contracts/access/AccessControl.sol\":4500:4510  _grantRole */\n      tag_174\n        /* \"@openzeppelin/contracts/access/AccessControl.sol\":4500:4525  _grantRole(role, account) */\n      jump\t// in\n    tag_173:\n        /* \"@openzeppelin/contracts/access/AccessControl.sol\":4387:4532  function grantRole(bytes32 role, address account) public virtual override onlyRole(getRoleAdmin(role)) {... */\n      pop\n      pop\n      pop\n      jump\t// out\n        /* \"@openzeppelin/contracts/access/AccessControl.sol\":5404:5618  function renounceRole(bytes32 role, address account) public virtual override {... */\n    tag_55:\n        /* \"@openzeppelin/contracts/access/AccessControl.sol\":5510:5522  _msgSender() */\n      tag_176\n        /* \"@openzeppelin/contracts/access/AccessControl.sol\":5510:5520  _msgSender */\n      tag_170\n        /* \"@openzeppelin/contracts/access/AccessControl.sol\":5510:5522  _msgSender() */\n      jump\t// in\n    tag_176:\n        /* \"@openzeppelin/contracts/access/AccessControl.sol\":5499:5522  account == _msgSender() */\n      0xffffffffffffffffffffffffffffffffffffffff\n      and\n        /* \"@openzeppelin/contracts/access/AccessControl.sol\":5499:5506  account */\n      dup2\n        /* \"@openzeppelin/contracts/access/AccessControl.sol\":5499:5522  account == _msgSender() */\n      0xffffffffffffffffffffffffffffffffffffffff\n      and\n      eq\n        /* \"@openzeppelin/contracts/access/AccessControl.sol\":5491:5574  require(account == _msgSender(), \"AccessControl: can only renounce roles for self\") */\n      tag_177\n      jumpi\n      mload(0x40)\n      0x08c379a000000000000000000000000000000000000000000000000000000000\n      dup2\n      mstore\n      0x04\n      add\n      tag_178\n      swap1\n      tag_179\n      jump\t// in\n    tag_178:\n      mload(0x40)\n      dup1\n      swap2\n      sub\n      swap1\n      revert\n    tag_177:\n        /* \"@openzeppelin/contracts/access/AccessControl.sol\":5585:5611  _revokeRole(role, account) */\n      tag_180\n        /* \"@openzeppelin/contracts/access/AccessControl.sol\":5597:5601  role */\n      dup3\n        /* \"@openzeppelin/contracts/access/AccessControl.sol\":5603:5610  account */\n      dup3\n        /* \"@openzeppelin/contracts/access/AccessControl.sol\":5585:5596  _revokeRole */\n      tag_181\n        /* \"@openzeppelin/contracts/access/AccessControl.sol\":5585:5611  _revokeRole(role, account) */\n      jump\t// in\n    tag_180:\n        /* \"@openzeppelin/contracts/access/AccessControl.sol\":5404:5618  function renounceRole(bytes32 role, address account) public virtual override {... */\n      pop\n      pop\n      jump\t// out\n        /* \"Marketplace.sol\":249:278  uint256 public nextItemId = 0 */\n    tag_58:\n      sload(0x01)\n      dup2\n      jump\t// out\n        /* \"Marketplace.sol\":4889:5046  function getAverageStars(uint256 _itemId) public view returns (uint8) {\r... */\n    tag_65:\n        /* \"Marketplace.sol\":4952:4957  uint8 */\n      0x00\n        /* \"Marketplace.sol\":5009:5023  idToMarketItem */\n      0x03\n        /* \"Marketplace.sol\":5009:5032  idToMarketItem[_itemId] */\n      0x00\n        /* \"Marketplace.sol\":5024:5031  _itemId */\n      dup4\n        /* \"Marketplace.sol\":5009:5032  idToMarketItem[_itemId] */\n      dup2\n      mstore\n      0x20\n      add\n      swap1\n      dup2\n      mstore\n      0x20\n      add\n      0x00\n      keccak256\n        /* \"Marketplace.sol\":5009:5038  idToMarketItem[_itemId].votes */\n      0x06\n      add\n      0x01\n      swap1\n      sload\n      swap1\n      0x0100\n      exp\n      swap1\n      div\n      0xff\n      and\n        /* \"Marketplace.sol\":4977:4991  idToMarketItem */\n      0x03\n        /* \"Marketplace.sol\":4977:5000  idToMarketItem[_itemId] */\n      0x00\n        /* \"Marketplace.sol\":4992:4999  _itemId */\n      dup5\n        /* \"Marketplace.sol\":4977:5000  idToMarketItem[_itemId] */\n      dup2\n      mstore\n      0x20\n      add\n      swap1\n      dup2\n      mstore\n      0x20\n      add\n      0x00\n      keccak256\n        /* \"Marketplace.sol\":4977:5006  idToMarketItem[_itemId].stars */\n      0x06\n      add\n      0x00\n      swap1\n      sload\n      swap1\n      0x0100\n      exp\n      swap1\n      div\n      0xff\n      and\n        /* \"Marketplace.sol\":4977:5038  idToMarketItem[_itemId].stars / idToMarketItem[_itemId].votes */\n      tag_183\n      swap2\n      swap1\n      tag_184\n      jump\t// in\n    tag_183:\n        /* \"Marketplace.sol\":4970:5038  return idToMarketItem[_itemId].stars / idToMarketItem[_itemId].votes */\n      swap1\n      pop\n        /* \"Marketplace.sol\":4889:5046  function getAverageStars(uint256 _itemId) public view returns (uint8) {\r... */\n      swap2\n      swap1\n      pop\n      jump\t// out\n        /* \"Marketplace.sol\":2316:2679  function getMarketItemDetails(uint256 _itemId) public view returns (string memory description, string memory imageUrl, uint8 stars, uint8 quantity, uint256 createdAt, uint256 updatedAt) {\r... */\n    tag_71:\n        /* \"Marketplace.sol\":2384:2409  string memory description */\n      0x60\n        /* \"Marketplace.sol\":2411:2433  string memory imageUrl */\n      dup1\n        /* \"Marketplace.sol\":2435:2446  uint8 stars */\n      0x00\n        /* \"Marketplace.sol\":2448:2462  uint8 quantity */\n      dup1\n        /* \"Marketplace.sol\":2464:2481  uint256 createdAt */\n      0x00\n        /* \"Marketplace.sol\":2483:2500  uint256 updatedAt */\n      dup1\n        /* \"Marketplace.sol\":2513:2535  MarketItem memory item */\n      0x00\n        /* \"Marketplace.sol\":2538:2552  idToMarketItem */\n      0x03\n        /* \"Marketplace.sol\":2538:2561  idToMarketItem[_itemId] */\n      0x00\n        /* \"Marketplace.sol\":2553:2560  _itemId */\n      dup10\n        /* \"Marketplace.sol\":2538:2561  idToMarketItem[_itemId] */\n      dup2\n      mstore\n      0x20\n      add\n      swap1\n      dup2\n      mstore\n      0x20\n      add\n      0x00\n      keccak256\n        /* \"Marketplace.sol\":2513:2561  MarketItem memory item = idToMarketItem[_itemId] */\n      mload(0x40)\n      dup1\n      0x0160\n      add\n      0x40\n      mstore\n      swap1\n      dup2\n      0x00\n      dup3\n      add\n      sload\n      dup2\n      mstore\n      0x20\n      add\n      0x01\n      dup3\n      add\n      dup1\n      sload\n      tag_186\n      swap1\n      tag_187\n      jump\t// in\n    tag_186:\n      dup1\n      0x1f\n      add\n      0x20\n      dup1\n      swap2\n      div\n      mul\n      0x20\n      add\n      mload(0x40)\n      swap1\n      dup2\n      add\n      0x40\n      mstore\n      dup1\n      swap3\n      swap2\n      swap1\n      dup2\n      dup2\n      mstore\n      0x20\n      add\n      dup3\n      dup1\n      sload\n      tag_188\n      swap1\n      tag_187\n      jump\t// in\n    tag_188:\n      dup1\n      iszero\n      tag_189\n      jumpi\n      dup1\n      0x1f\n      lt\n      tag_190\n      jumpi\n      0x0100\n      dup1\n      dup4\n      sload\n      div\n      mul\n      dup4\n      mstore\n      swap2\n      0x20\n      add\n      swap2\n      jump(tag_189)\n    tag_190:\n      dup3\n      add\n      swap2\n      swap1\n      0x00\n      mstore\n      keccak256(0x00, 0x20)\n      swap1\n    tag_191:\n      dup2\n      sload\n      dup2\n      mstore\n      swap1\n      0x01\n      add\n      swap1\n      0x20\n      add\n      dup1\n      dup4\n      gt\n      tag_191\n      jumpi\n      dup3\n      swap1\n      sub\n      0x1f\n      and\n      dup3\n      add\n      swap2\n    tag_189:\n      pop\n      pop\n      pop\n      pop\n      pop\n      dup2\n      mstore\n      0x20\n      add\n      0x02\n      dup3\n      add\n      dup1\n      sload\n      tag_192\n      swap1\n      tag_187\n      jump\t// in\n    tag_192:\n      dup1\n      0x1f\n      add\n      0x20\n      dup1\n      swap2\n      div\n      mul\n      0x20\n      add\n      mload(0x40)\n      swap1\n      dup2\n      add\n      0x40\n      mstore\n      dup1\n      swap3\n      swap2\n      swap1\n      dup2\n      dup2\n      mstore\n      0x20\n      add\n      dup3\n      dup1\n      sload\n      tag_193\n      swap1\n      tag_187\n      jump\t// in\n    tag_193:\n      dup1\n      iszero\n      tag_194\n      jumpi\n      dup1\n      0x1f\n      lt\n      tag_195\n      jumpi\n      0x0100\n      dup1\n      dup4\n      sload\n      div\n      mul\n      dup4\n      mstore\n      swap2\n      0x20\n      add\n      swap2\n      jump(tag_194)\n    tag_195:\n      dup3\n      add\n      swap2\n      swap1\n      0x00\n      mstore\n      keccak256(0x00, 0x20)\n      swap1\n    tag_196:\n      dup2\n      sload\n      dup2\n      mstore\n      swap1\n      0x01\n      add\n      swap1\n      0x20\n      add\n      dup1\n      dup4\n      gt\n      tag_196\n      jumpi\n      dup3\n      swap1\n      sub\n      0x1f\n      and\n      dup3\n      add\n      swap2\n    tag_194:\n      pop\n      pop\n      pop\n      pop\n      pop\n      dup2\n      mstore\n      0x20\n      add\n      0x03\n      dup3\n      add\n      sload\n      dup2\n      mstore\n      0x20\n      add\n      0x04\n      dup3\n      add\n      0x00\n      swap1\n      sload\n      swap1\n      0x0100\n      exp\n      swap1\n      div\n      0xffffffffffffffffffffffffffffffffffffffff\n      and\n      0xffffffffffffffffffffffffffffffffffffffff\n      and\n      0xffffffffffffffffffffffffffffffffffffffff\n      and\n      dup2\n      mstore\n      0x20\n      add\n      0x05\n      dup3\n      add\n      dup1\n      sload\n      tag_197\n      swap1\n      tag_187\n      jump\t// in\n    tag_197:\n      dup1\n      0x1f\n      add\n      0x20\n      dup1\n      swap2\n      div\n      mul\n      0x20\n      add\n      mload(0x40)\n      swap1\n      dup2\n      add\n      0x40\n      mstore\n      dup1\n      swap3\n      swap2\n      swap1\n      dup2\n      dup2\n      mstore\n      0x20\n      add\n      dup3\n      dup1\n      sload\n      tag_198\n      swap1\n      tag_187\n      jump\t// in\n    tag_198:\n      dup1\n      iszero\n      tag_199\n      jumpi\n      dup1\n      0x1f\n      lt\n      tag_200\n      jumpi\n      0x0100\n      dup1\n      dup4\n      sload\n      div\n      mul\n      dup4\n      mstore\n      swap2\n      0x20\n      add\n      swap2\n      jump(tag_199)\n    tag_200:\n      dup3\n      add\n      swap2\n      swap1\n      0x00\n      mstore\n      keccak256(0x00, 0x20)\n      swap1\n    tag_201:\n      dup2\n      sload\n      dup2\n      mstore\n      swap1\n      0x01\n      add\n      swap1\n      0x20\n      add\n      dup1\n      dup4\n      gt\n      tag_201\n      jumpi\n      dup3\n      swap1\n      sub\n      0x1f\n      and\n      dup3\n      add\n      swap2\n    tag_199:\n      pop\n      pop\n      pop\n      pop\n      pop\n      dup2\n      mstore\n      0x20\n      add\n      0x06\n      dup3\n      add\n      0x00\n      swap1\n      sload\n      swap1\n      0x0100\n      exp\n      swap1\n      div\n      0xff\n      and\n      0xff\n      and\n      0xff\n      and\n      dup2\n      mstore\n      0x20\n      add\n      0x06\n      dup3\n      add\n      0x01\n      swap1\n      sload\n      swap1\n      0x0100\n      exp\n      swap1\n      div\n      0xff\n      and\n      0xff\n      and\n      0xff\n      and\n      dup2\n      mstore\n      0x20\n      add\n      0x06\n      dup3\n      add\n      0x02\n      swap1\n      sload\n      swap1\n      0x0100\n      exp\n      swap1\n      div\n      0xff\n      and\n      0xff\n      and\n      0xff\n      and\n      dup2\n      mstore\n      0x20\n      add\n      0x07\n      dup3\n      add\n      sload\n      dup2\n      mstore\n      0x20\n      add\n      0x08\n      dup3\n      add\n      sload\n      dup2\n      mstore\n      pop\n      pop\n      swap1\n      pop\n        /* \"Marketplace.sol\":2580:2584  item */\n      dup1\n        /* \"Marketplace.sol\":2580:2596  item.description */\n      0x40\n      add\n      mload\n        /* \"Marketplace.sol\":2598:2602  item */\n      dup2\n        /* \"Marketplace.sol\":2598:2611  item.imageUrl */\n      0xa0\n      add\n      mload\n        /* \"Marketplace.sol\":2613:2617  item */\n      dup3\n        /* \"Marketplace.sol\":2613:2623  item.stars */\n      0xc0\n      add\n      mload\n        /* \"Marketplace.sol\":2625:2629  item */\n      dup4\n        /* \"Marketplace.sol\":2625:2638  item.quantity */\n      0x0100\n      add\n      mload\n        /* \"Marketplace.sol\":2640:2644  item */\n      dup5\n        /* \"Marketplace.sol\":2640:2654  item.createdAt */\n      0x0120\n      add\n      mload\n        /* \"Marketplace.sol\":2656:2660  item */\n      dup6\n        /* \"Marketplace.sol\":2656:2670  item.updatedAt */\n      0x0140\n      add\n      mload\n        /* \"Marketplace.sol\":2572:2671  return (item.description, item.imageUrl, item.stars, item.quantity, item.createdAt, item.updatedAt) */\n      swap7\n      pop\n      swap7\n      pop\n      swap7\n      pop\n      swap7\n      pop\n      swap7\n      pop\n      swap7\n      pop\n      pop\n        /* \"Marketplace.sol\":2316:2679  function getMarketItemDetails(uint256 _itemId) public view returns (string memory description, string memory imageUrl, uint8 stars, uint8 quantity, uint256 createdAt, uint256 updatedAt) {\r... */\n      swap2\n      swap4\n      swap6\n      pop\n      swap2\n      swap4\n      swap6\n      jump\t// out\n        /* \"Marketplace.sol\":2687:3017  function updateMarketItemDescription(uint256 _itemId, string memory _description) public {\r... */\n    tag_78:\n        /* \"Marketplace.sol\":2809:2823  idToMarketItem */\n      0x03\n        /* \"Marketplace.sol\":2809:2832  idToMarketItem[_itemId] */\n      0x00\n        /* \"Marketplace.sol\":2824:2831  _itemId */\n      dup4\n        /* \"Marketplace.sol\":2809:2832  idToMarketItem[_itemId] */\n      dup2\n      mstore\n      0x20\n      add\n      swap1\n      dup2\n      mstore\n      0x20\n      add\n      0x00\n      keccak256\n        /* \"Marketplace.sol\":2809:2839  idToMarketItem[_itemId].seller */\n      0x04\n      add\n      0x00\n      swap1\n      sload\n      swap1\n      0x0100\n      exp\n      swap1\n      div\n      0xffffffffffffffffffffffffffffffffffffffff\n      and\n        /* \"Marketplace.sol\":2795:2839  msg.sender == idToMarketItem[_itemId].seller */\n      0xffffffffffffffffffffffffffffffffffffffff\n      and\n        /* \"Marketplace.sol\":2795:2805  msg.sender */\n      caller\n        /* \"Marketplace.sol\":2795:2839  msg.sender == idToMarketItem[_itemId].seller */\n      0xffffffffffffffffffffffffffffffffffffffff\n      and\n      eq\n        /* \"Marketplace.sol\":2787:2886  require(msg.sender == idToMarketItem[_itemId].seller, \"Only the seller can update the description\") */\n      tag_203\n      jumpi\n      mload(0x40)\n      0x08c379a000000000000000000000000000000000000000000000000000000000\n      dup2\n      mstore\n      0x04\n      add\n      tag_204\n      swap1\n      tag_205\n      jump\t// in\n    tag_204:\n      mload(0x40)\n      dup1\n      swap2\n      sub\n      swap1\n      revert\n    tag_203:\n        /* \"Marketplace.sol\":2935:2947  _description */\n      dup1\n        /* \"Marketplace.sol\":2897:2911  idToMarketItem */\n      0x03\n        /* \"Marketplace.sol\":2897:2920  idToMarketItem[_itemId] */\n      0x00\n        /* \"Marketplace.sol\":2912:2919  _itemId */\n      dup5\n        /* \"Marketplace.sol\":2897:2920  idToMarketItem[_itemId] */\n      dup2\n      mstore\n      0x20\n      add\n      swap1\n      dup2\n      mstore\n      0x20\n      add\n      0x00\n      keccak256\n        /* \"Marketplace.sol\":2897:2932  idToMarketItem[_itemId].description */\n      0x02\n      add\n        /* \"Marketplace.sol\":2897:2947  idToMarketItem[_itemId].description = _description */\n      swap1\n      dup1\n      mload\n      swap1\n      0x20\n      add\n      swap1\n      tag_206\n      swap3\n      swap2\n      swap1\n      tag_207\n      jump\t// in\n    tag_206:\n      pop\n        /* \"Marketplace.sol\":2994:3009  block.timestamp */\n      timestamp\n        /* \"Marketplace.sol\":2958:2972  idToMarketItem */\n      0x03\n        /* \"Marketplace.sol\":2958:2981  idToMarketItem[_itemId] */\n      0x00\n        /* \"Marketplace.sol\":2973:2980  _itemId */\n      dup5\n        /* \"Marketplace.sol\":2958:2981  idToMarketItem[_itemId] */\n      dup2\n      mstore\n      0x20\n      add\n      swap1\n      dup2\n      mstore\n      0x20\n      add\n      0x00\n      keccak256\n        /* \"Marketplace.sol\":2958:2991  idToMarketItem[_itemId].updatedAt */\n      0x08\n      add\n        /* \"Marketplace.sol\":2958:3009  idToMarketItem[_itemId].updatedAt = block.timestamp */\n      dup2\n      swap1\n      sstore\n      pop\n        /* \"Marketplace.sol\":2687:3017  function updateMarketItemDescription(uint256 _itemId, string memory _description) public {\r... */\n      pop\n      pop\n      jump\t// out\n        /* \"@openzeppelin/contracts/access/AccessControl.sol\":2909:3054  function hasRole(bytes32 role, address account) public view virtual override returns (bool) {... */\n    tag_82:\n        /* \"@openzeppelin/contracts/access/AccessControl.sol\":2995:2999  bool */\n      0x00\n        /* \"@openzeppelin/contracts/access/AccessControl.sol\":3018:3024  _roles */\n      dup1\n        /* \"@openzeppelin/contracts/access/AccessControl.sol\":3018:3030  _roles[role] */\n      0x00\n        /* \"@openzeppelin/contracts/access/AccessControl.sol\":3025:3029  role */\n      dup5\n        /* \"@openzeppelin/contracts/access/AccessControl.sol\":3018:3030  _roles[role] */\n      dup2\n      mstore\n      0x20\n      add\n      swap1\n      dup2\n      mstore\n      0x20\n      add\n      0x00\n      keccak256\n        /* \"@openzeppelin/contracts/access/AccessControl.sol\":3018:3038  _roles[role].members */\n      0x00\n      add\n        /* \"@openzeppelin/contracts/access/AccessControl.sol\":3018:3047  _roles[role].members[account] */\n      0x00\n        /* \"@openzeppelin/contracts/access/AccessControl.sol\":3039:3046  account */\n      dup4\n        /* \"@openzeppelin/contracts/access/AccessControl.sol\":3018:3047  _roles[role].members[account] */\n      0xffffffffffffffffffffffffffffffffffffffff\n      and\n      0xffffffffffffffffffffffffffffffffffffffff\n      and\n      dup2\n      mstore\n      0x20\n      add\n      swap1\n      dup2\n      mstore\n      0x20\n      add\n      0x00\n      keccak256\n      0x00\n      swap1\n      sload\n      swap1\n      0x0100\n      exp\n      swap1\n      div\n      0xff\n      and\n        /* \"@openzeppelin/contracts/access/AccessControl.sol\":3011:3047  return _roles[role].members[account] */\n      swap1\n      pop\n        /* \"@openzeppelin/contracts/access/AccessControl.sol\":2909:3054  function hasRole(bytes32 role, address account) public view virtual override returns (bool) {... */\n      swap3\n      swap2\n      pop\n      pop\n      jump\t// out\n        /* \"@openzeppelin/contracts/access/AccessControl.sol\":2027:2076  bytes32 public constant DEFAULT_ADMIN_ROLE = 0x00 */\n    tag_86:\n        /* \"@openzeppelin/contracts/access/AccessControl.sol\":2072:2076  0x00 */\n      0x00\n        /* \"@openzeppelin/contracts/access/AccessControl.sol\":2027:2076  bytes32 public constant DEFAULT_ADMIN_ROLE = 0x00 */\n      dup1\n      shl\n      dup2\n      jump\t// out\n        /* \"Marketplace.sol\":903:1410  function createMarketItem(string memory _title, string memory _description, address payable _seller, uint256 _price, string memory _imageUrl, uint8 _quantity) public {\r... */\n    tag_92:\n        /* \"Marketplace.sol\":1102:1109  _seller */\n      dup4\n        /* \"Marketplace.sol\":1088:1109  msg.sender == _seller */\n      0xffffffffffffffffffffffffffffffffffffffff\n      and\n        /* \"Marketplace.sol\":1088:1098  msg.sender */\n      caller\n        /* \"Marketplace.sol\":1088:1109  msg.sender == _seller */\n      0xffffffffffffffffffffffffffffffffffffffff\n      and\n      eq\n        /* \"Marketplace.sol\":1080:1154  require(msg.sender == _seller, \"Only the seller can create a market item\") */\n      tag_210\n      jumpi\n      mload(0x40)\n      0x08c379a000000000000000000000000000000000000000000000000000000000\n      dup2\n      mstore\n      0x04\n      add\n      tag_211\n      swap1\n      tag_212\n      jump\t// in\n    tag_211:\n      mload(0x40)\n      dup1\n      swap2\n      sub\n      swap1\n      revert\n    tag_210:\n        /* \"Marketplace.sol\":1182:1183  0 */\n      0x00\n        /* \"Marketplace.sol\":1173:1179  _price */\n      dup4\n        /* \"Marketplace.sol\":1173:1183  _price > 0 */\n      gt\n        /* \"Marketplace.sol\":1165:1216  require(_price > 0, \"Price must be greater than 0\") */\n      tag_213\n      jumpi\n      mload(0x40)\n      0x08c379a000000000000000000000000000000000000000000000000000000000\n      dup2\n      mstore\n      0x04\n      add\n      tag_214\n      swap1\n      tag_215\n      jump\t// in\n    tag_214:\n      mload(0x40)\n      dup1\n      swap2\n      sub\n      swap1\n      revert\n    tag_213:\n        /* \"Marketplace.sol\":1256:1379  MarketItem(nextItemId, _title, _description, _price, _seller, _imageUrl, 0, 0, _quantity, block.timestamp, block.timestamp) */\n      mload(0x40)\n      dup1\n      0x0160\n      add\n      0x40\n      mstore\n      dup1\n        /* \"Marketplace.sol\":1267:1277  nextItemId */\n      sload(0x01)\n        /* \"Marketplace.sol\":1256:1379  MarketItem(nextItemId, _title, _description, _price, _seller, _imageUrl, 0, 0, _quantity, block.timestamp, block.timestamp) */\n      dup2\n      mstore\n      0x20\n      add\n        /* \"Marketplace.sol\":1279:1285  _title */\n      dup8\n        /* \"Marketplace.sol\":1256:1379  MarketItem(nextItemId, _title, _description, _price, _seller, _imageUrl, 0, 0, _quantity, block.timestamp, block.timestamp) */\n      dup2\n      mstore\n      0x20\n      add\n        /* \"Marketplace.sol\":1287:1299  _description */\n      dup7\n        /* \"Marketplace.sol\":1256:1379  MarketItem(nextItemId, _title, _description, _price, _seller, _imageUrl, 0, 0, _quantity, block.timestamp, block.timestamp) */\n      dup2\n      mstore\n      0x20\n      add\n        /* \"Marketplace.sol\":1301:1307  _price */\n      dup5\n        /* \"Marketplace.sol\":1256:1379  MarketItem(nextItemId, _title, _description, _price, _seller, _imageUrl, 0, 0, _quantity, block.timestamp, block.timestamp) */\n      dup2\n      mstore\n      0x20\n      add\n        /* \"Marketplace.sol\":1309:1316  _seller */\n      dup6\n        /* \"Marketplace.sol\":1256:1379  MarketItem(nextItemId, _title, _description, _price, _seller, _imageUrl, 0, 0, _quantity, block.timestamp, block.timestamp) */\n      0xffffffffffffffffffffffffffffffffffffffff\n      and\n      dup2\n      mstore\n      0x20\n      add\n        /* \"Marketplace.sol\":1318:1327  _imageUrl */\n      dup4\n        /* \"Marketplace.sol\":1256:1379  MarketItem(nextItemId, _title, _description, _price, _seller, _imageUrl, 0, 0, _quantity, block.timestamp, block.timestamp) */\n      dup2\n      mstore\n      0x20\n      add\n        /* \"Marketplace.sol\":1329:1330  0 */\n      0x00\n        /* \"Marketplace.sol\":1256:1379  MarketItem(nextItemId, _title, _description, _price, _seller, _imageUrl, 0, 0, _quantity, block.timestamp, block.timestamp) */\n      0xff\n      and\n      dup2\n      mstore\n      0x20\n      add\n        /* \"Marketplace.sol\":1332:1333  0 */\n      0x00\n        /* \"Marketplace.sol\":1256:1379  MarketItem(nextItemId, _title, _description, _price, _seller, _imageUrl, 0, 0, _quantity, block.timestamp, block.timestamp) */\n      0xff\n      and\n      dup2\n      mstore\n      0x20\n      add\n        /* \"Marketplace.sol\":1335:1344  _quantity */\n      dup3\n        /* \"Marketplace.sol\":1256:1379  MarketItem(nextItemId, _title, _description, _price, _seller, _imageUrl, 0, 0, _quantity, block.timestamp, block.timestamp) */\n      0xff\n      and\n      dup2\n      mstore\n      0x20\n      add\n        /* \"Marketplace.sol\":1346:1361  block.timestamp */\n      timestamp\n        /* \"Marketplace.sol\":1256:1379  MarketItem(nextItemId, _title, _description, _price, _seller, _imageUrl, 0, 0, _quantity, block.timestamp, block.timestamp) */\n      dup2\n      mstore\n      0x20\n      add\n        /* \"Marketplace.sol\":1363:1378  block.timestamp */\n      timestamp\n        /* \"Marketplace.sol\":1256:1379  MarketItem(nextItemId, _title, _description, _price, _seller, _imageUrl, 0, 0, _quantity, block.timestamp, block.timestamp) */\n      dup2\n      mstore\n      pop\n        /* \"Marketplace.sol\":1227:1241  idToMarketItem */\n      0x03\n        /* \"Marketplace.sol\":1227:1253  idToMarketItem[nextItemId] */\n      0x00\n        /* \"Marketplace.sol\":1242:1252  nextItemId */\n      sload(0x01)\n        /* \"Marketplace.sol\":1227:1253  idToMarketItem[nextItemId] */\n      dup2\n      mstore\n      0x20\n      add\n      swap1\n      dup2\n      mstore\n      0x20\n      add\n      0x00\n      keccak256\n        /* \"Marketplace.sol\":1227:1379  idToMarketItem[nextItemId] = MarketItem(nextItemId, _title, _description, _price, _seller, _imageUrl, 0, 0, _quantity, block.timestamp, block.timestamp) */\n      0x00\n      dup3\n      add\n      mload\n      dup2\n      0x00\n      add\n      sstore\n      0x20\n      dup3\n      add\n      mload\n      dup2\n      0x01\n      add\n      swap1\n      dup1\n      mload\n      swap1\n      0x20\n      add\n      swap1\n      tag_216\n      swap3\n      swap2\n      swap1\n      tag_207\n      jump\t// in\n    tag_216:\n      pop\n      0x40\n      dup3\n      add\n      mload\n      dup2\n      0x02\n      add\n      swap1\n      dup1\n      mload\n      swap1\n      0x20\n      add\n      swap1\n      tag_217\n      swap3\n      swap2\n      swap1\n      tag_207\n      jump\t// in\n    tag_217:\n      pop\n      0x60\n      dup3\n      add\n      mload\n      dup2\n      0x03\n      add\n      sstore\n      0x80\n      dup3\n      add\n      mload\n      dup2\n      0x04\n      add\n      exp(0x0100, 0x00)\n      dup2\n      sload\n      dup2\n      0xffffffffffffffffffffffffffffffffffffffff\n      mul\n      not\n      and\n      swap1\n      dup4\n      0xffffffffffffffffffffffffffffffffffffffff\n      and\n      mul\n      or\n      swap1\n      sstore\n      pop\n      0xa0\n      dup3\n      add\n      mload\n      dup2\n      0x05\n      add\n      swap1\n      dup1\n      mload\n      swap1\n      0x20\n      add\n      swap1\n      tag_218\n      swap3\n      swap2\n      swap1\n      tag_207\n      jump\t// in\n    tag_218:\n      pop\n      0xc0\n      dup3\n      add\n      mload\n      dup2\n      0x06\n      add\n      exp(0x0100, 0x00)\n      dup2\n      sload\n      dup2\n      0xff\n      mul\n      not\n      and\n      swap1\n      dup4\n      0xff\n      and\n      mul\n      or\n      swap1\n      sstore\n      pop\n      0xe0\n      dup3\n      add\n      mload\n      dup2\n      0x06\n      add\n      exp(0x0100, 0x01)\n      dup2\n      sload\n      dup2\n      0xff\n      mul\n      not\n      and\n      swap1\n      dup4\n      0xff\n      and\n      mul\n      or\n      swap1\n      sstore\n      pop\n      0x0100\n      dup3\n      add\n      mload\n      dup2\n      0x06\n      add\n      exp(0x0100, 0x02)\n      dup2\n      sload\n      dup2\n      0xff\n      mul\n      not\n      and\n      swap1\n      dup4\n      0xff\n      and\n      mul\n      or\n      swap1\n      sstore\n      pop\n      0x0120\n      dup3\n      add\n      mload\n      dup2\n      0x07\n      add\n      sstore\n      0x0140\n      dup3\n      add\n      mload\n      dup2\n      0x08\n      add\n      sstore\n      swap1\n      pop\n      pop\n        /* \"Marketplace.sol\":1390:1400  nextItemId */\n      0x01\n      0x00\n        /* \"Marketplace.sol\":1390:1402  nextItemId++ */\n      dup2\n      sload\n      dup1\n      swap3\n      swap2\n      swap1\n      tag_219\n      swap1\n      tag_220\n      jump\t// in\n    tag_219:\n      swap2\n      swap1\n      pop\n      sstore\n      pop\n        /* \"Marketplace.sol\":903:1410  function createMarketItem(string memory _title, string memory _description, address payable _seller, uint256 _price, string memory _imageUrl, uint8 _quantity) public {\r... */\n      pop\n      pop\n      pop\n      pop\n      pop\n      pop\n      jump\t// out\n        /* \"Marketplace.sol\":3662:3956  function updateMarketItemPrice(uint256 _itemId, uint256 _price) public {\r... */\n    tag_97:\n        /* \"Marketplace.sol\":3766:3780  idToMarketItem */\n      0x03\n        /* \"Marketplace.sol\":3766:3789  idToMarketItem[_itemId] */\n      0x00\n        /* \"Marketplace.sol\":3781:3788  _itemId */\n      dup4\n        /* \"Marketplace.sol\":3766:3789  idToMarketItem[_itemId] */\n      dup2\n      mstore\n      0x20\n      add\n      swap1\n      dup2\n      mstore\n      0x20\n      add\n      0x00\n      keccak256\n        /* \"Marketplace.sol\":3766:3796  idToMarketItem[_itemId].seller */\n      0x04\n      add\n      0x00\n      swap1\n      sload\n      swap1\n      0x0100\n      exp\n      swap1\n      div\n      0xffffffffffffffffffffffffffffffffffffffff\n      and\n        /* \"Marketplace.sol\":3752:3796  msg.sender == idToMarketItem[_itemId].seller */\n      0xffffffffffffffffffffffffffffffffffffffff\n      and\n        /* \"Marketplace.sol\":3752:3762  msg.sender */\n      caller\n        /* \"Marketplace.sol\":3752:3796  msg.sender == idToMarketItem[_itemId].seller */\n      0xffffffffffffffffffffffffffffffffffffffff\n      and\n      eq\n        /* \"Marketplace.sol\":3744:3837  require(msg.sender == idToMarketItem[_itemId].seller, \"Only the seller can update the price\") */\n      tag_222\n      jumpi\n      mload(0x40)\n      0x08c379a000000000000000000000000000000000000000000000000000000000\n      dup2\n      mstore\n      0x04\n      add\n      tag_223\n      swap1\n      tag_224\n      jump\t// in\n    tag_223:\n      mload(0x40)\n      dup1\n      swap2\n      sub\n      swap1\n      revert\n    tag_222:\n        /* \"Marketplace.sol\":3880:3886  _price */\n      dup1\n        /* \"Marketplace.sol\":3848:3862  idToMarketItem */\n      0x03\n        /* \"Marketplace.sol\":3848:3871  idToMarketItem[_itemId] */\n      0x00\n        /* \"Marketplace.sol\":3863:3870  _itemId */\n      dup5\n        /* \"Marketplace.sol\":3848:3871  idToMarketItem[_itemId] */\n      dup2\n      mstore\n      0x20\n      add\n      swap1\n      dup2\n      mstore\n      0x20\n      add\n      0x00\n      keccak256\n        /* \"Marketplace.sol\":3848:3877  idToMarketItem[_itemId].price */\n      0x03\n      add\n        /* \"Marketplace.sol\":3848:3886  idToMarketItem[_itemId].price = _price */\n      dup2\n      swap1\n      sstore\n      pop\n        /* \"Marketplace.sol\":3933:3948  block.timestamp */\n      timestamp\n        /* \"Marketplace.sol\":3897:3911  idToMarketItem */\n      0x03\n        /* \"Marketplace.sol\":3897:3920  idToMarketItem[_itemId] */\n      0x00\n        /* \"Marketplace.sol\":3912:3919  _itemId */\n      dup5\n        /* \"Marketplace.sol\":3897:3920  idToMarketItem[_itemId] */\n      dup2\n      mstore\n      0x20\n      add\n      swap1\n      dup2\n      mstore\n      0x20\n      add\n      0x00\n      keccak256\n        /* \"Marketplace.sol\":3897:3930  idToMarketItem[_itemId].updatedAt */\n      0x08\n      add\n        /* \"Marketplace.sol\":3897:3948  idToMarketItem[_itemId].updatedAt = block.timestamp */\n      dup2\n      swap1\n      sstore\n      pop\n        /* \"Marketplace.sol\":3662:3956  function updateMarketItemPrice(uint256 _itemId, uint256 _price) public {\r... */\n      pop\n      pop\n      jump\t// out\n        /* \"Marketplace.sol\":168:242  bytes32 public constant MARKETPLACE_OWNER = keccak256(\"MARKETPLACE_OWNER\") */\n    tag_100:\n        /* \"Marketplace.sol\":212:242  keccak256(\"MARKETPLACE_OWNER\") */\n      0x1f9ca85e780b3b3cfbe1334ca9dd68802db7860f692bd163c796bb76d464edc0\n        /* \"Marketplace.sol\":168:242  bytes32 public constant MARKETPLACE_OWNER = keccak256(\"MARKETPLACE_OWNER\") */\n      dup2\n      jump\t// out\n        /* \"Marketplace.sol\":2067:2308  function getMarketItem(uint256 _itemId) public view returns (string memory title, address payable seller, uint256 price) {\r... */\n    tag_105:\n        /* \"Marketplace.sol\":2128:2147  string memory title */\n      0x60\n        /* \"Marketplace.sol\":2149:2171  address payable seller */\n      0x00\n        /* \"Marketplace.sol\":2173:2186  uint256 price */\n      dup1\n        /* \"Marketplace.sol\":2207:2221  idToMarketItem */\n      0x03\n        /* \"Marketplace.sol\":2207:2230  idToMarketItem[_itemId] */\n      0x00\n        /* \"Marketplace.sol\":2222:2229  _itemId */\n      dup6\n        /* \"Marketplace.sol\":2207:2230  idToMarketItem[_itemId] */\n      dup2\n      mstore\n      0x20\n      add\n      swap1\n      dup2\n      mstore\n      0x20\n      add\n      0x00\n      keccak256\n        /* \"Marketplace.sol\":2207:2236  idToMarketItem[_itemId].title */\n      0x01\n      add\n        /* \"Marketplace.sol\":2238:2252  idToMarketItem */\n      0x03\n        /* \"Marketplace.sol\":2238:2261  idToMarketItem[_itemId] */\n      0x00\n        /* \"Marketplace.sol\":2253:2260  _itemId */\n      dup7\n        /* \"Marketplace.sol\":2238:2261  idToMarketItem[_itemId] */\n      dup2\n      mstore\n      0x20\n      add\n      swap1\n      dup2\n      mstore\n      0x20\n      add\n      0x00\n      keccak256\n        /* \"Marketplace.sol\":2238:2268  idToMarketItem[_itemId].seller */\n      0x04\n      add\n      0x00\n      swap1\n      sload\n      swap1\n      0x0100\n      exp\n      swap1\n      div\n      0xffffffffffffffffffffffffffffffffffffffff\n      and\n        /* \"Marketplace.sol\":2270:2284  idToMarketItem */\n      0x03\n        /* \"Marketplace.sol\":2270:2293  idToMarketItem[_itemId] */\n      0x00\n        /* \"Marketplace.sol\":2285:2292  _itemId */\n      dup8\n        /* \"Marketplace.sol\":2270:2293  idToMarketItem[_itemId] */\n      dup2\n      mstore\n      0x20\n      add\n      swap1\n      dup2\n      mstore\n      0x20\n      add\n      0x00\n      keccak256\n        /* \"Marketplace.sol\":2270:2299  idToMarketItem[_itemId].price */\n      0x03\n      add\n      sload\n        /* \"Marketplace.sol\":2199:2300  return (idToMarketItem[_itemId].title, idToMarketItem[_itemId].seller, idToMarketItem[_itemId].price) */\n      dup3\n      dup1\n      sload\n      tag_226\n      swap1\n      tag_187\n      jump\t// in\n    tag_226:\n      dup1\n      0x1f\n      add\n      0x20\n      dup1\n      swap2\n      div\n      mul\n      0x20\n      add\n      mload(0x40)\n      swap1\n      dup2\n      add\n      0x40\n      mstore\n      dup1\n      swap3\n      swap2\n      swap1\n      dup2\n      dup2\n      mstore\n      0x20\n      add\n      dup3\n      dup1\n      sload\n      tag_227\n      swap1\n      tag_187\n      jump\t// in\n    tag_227:\n      dup1\n      iszero\n      tag_228\n      jumpi\n      dup1\n      0x1f\n      lt\n      tag_229\n      jumpi\n      0x0100\n      dup1\n      dup4\n      sload\n      div\n      mul\n      dup4\n      mstore\n      swap2\n      0x20\n      add\n      swap2\n      jump(tag_228)\n    tag_229:\n      dup3\n      add\n      swap2\n      swap1\n      0x00\n      mstore\n      keccak256(0x00, 0x20)\n      swap1\n    tag_230:\n      dup2\n      sload\n      dup2\n      mstore\n      swap1\n      0x01\n      add\n      swap1\n      0x20\n      add\n      dup1\n      dup4\n      gt\n      tag_230\n      jumpi\n      dup3\n      swap1\n      sub\n      0x1f\n      and\n      dup3\n      add\n      swap2\n    tag_228:\n      pop\n      pop\n      pop\n      pop\n      pop\n      swap3\n      pop\n      swap3\n      pop\n      swap3\n      pop\n      swap3\n      pop\n        /* \"Marketplace.sol\":2067:2308  function getMarketItem(uint256 _itemId) public view returns (string memory title, address payable seller, uint256 price) {\r... */\n      swap2\n      swap4\n      swap1\n      swap3\n      pop\n      jump\t// out\n        /* \"@openzeppelin/contracts/access/AccessControl.sol\":4766:4913  function revokeRole(bytes32 role, address account) public virtual override onlyRole(getRoleAdmin(role)) {... */\n    tag_111:\n        /* \"@openzeppelin/contracts/access/AccessControl.sol\":4850:4868  getRoleAdmin(role) */\n      tag_231\n        /* \"@openzeppelin/contracts/access/AccessControl.sol\":4863:4867  role */\n      dup3\n        /* \"@openzeppelin/contracts/access/AccessControl.sol\":4850:4862  getRoleAdmin */\n      tag_44\n        /* \"@openzeppelin/contracts/access/AccessControl.sol\":4850:4868  getRoleAdmin(role) */\n      jump\t// in\n    tag_231:\n        /* \"@openzeppelin/contracts/access/AccessControl.sol\":2505:2535  _checkRole(role, _msgSender()) */\n      tag_233\n        /* \"@openzeppelin/contracts/access/AccessControl.sol\":2516:2520  role */\n      dup2\n        /* \"@openzeppelin/contracts/access/AccessControl.sol\":2522:2534  _msgSender() */\n      tag_234\n        /* \"@openzeppelin/contracts/access/AccessControl.sol\":2522:2532  _msgSender */\n      tag_170\n        /* \"@openzeppelin/contracts/access/AccessControl.sol\":2522:2534  _msgSender() */\n      jump\t// in\n    tag_234:\n        /* \"@openzeppelin/contracts/access/AccessControl.sol\":2505:2515  _checkRole */\n      tag_171\n        /* \"@openzeppelin/contracts/access/AccessControl.sol\":2505:2535  _checkRole(role, _msgSender()) */\n      jump\t// in\n    tag_233:\n        /* \"@openzeppelin/contracts/access/AccessControl.sol\":4880:4906  _revokeRole(role, account) */\n      tag_236\n        /* \"@openzeppelin/contracts/access/AccessControl.sol\":4892:4896  role */\n      dup4\n        /* \"@openzeppelin/contracts/access/AccessControl.sol\":4898:4905  account */\n      dup4\n        /* \"@openzeppelin/contracts/access/AccessControl.sol\":4880:4891  _revokeRole */\n      tag_181\n        /* \"@openzeppelin/contracts/access/AccessControl.sol\":4880:4906  _revokeRole(role, account) */\n      jump\t// in\n    tag_236:\n        /* \"@openzeppelin/contracts/access/AccessControl.sol\":4766:4913  function revokeRole(bytes32 role, address account) public virtual override onlyRole(getRoleAdmin(role)) {... */\n      pop\n      pop\n      pop\n      jump\t// out\n        /* \"Marketplace.sol\":3025:3332  function updateMarketItemQuantity(uint256 _itemId, uint8 _quantity) public {\r... */\n    tag_115:\n        /* \"Marketplace.sol\":3133:3147  idToMarketItem */\n      0x03\n        /* \"Marketplace.sol\":3133:3156  idToMarketItem[_itemId] */\n      0x00\n        /* \"Marketplace.sol\":3148:3155  _itemId */\n      dup4\n        /* \"Marketplace.sol\":3133:3156  idToMarketItem[_itemId] */\n      dup2\n      mstore\n      0x20\n      add\n      swap1\n      dup2\n      mstore\n      0x20\n      add\n      0x00\n      keccak256\n        /* \"Marketplace.sol\":3133:3163  idToMarketItem[_itemId].seller */\n      0x04\n      add\n      0x00\n      swap1\n      sload\n      swap1\n      0x0100\n      exp\n      swap1\n      div\n      0xffffffffffffffffffffffffffffffffffffffff\n      and\n        /* \"Marketplace.sol\":3119:3163  msg.sender == idToMarketItem[_itemId].seller */\n      0xffffffffffffffffffffffffffffffffffffffff\n      and\n        /* \"Marketplace.sol\":3119:3129  msg.sender */\n      caller\n        /* \"Marketplace.sol\":3119:3163  msg.sender == idToMarketItem[_itemId].seller */\n      0xffffffffffffffffffffffffffffffffffffffff\n      and\n      eq\n        /* \"Marketplace.sol\":3111:3207  require(msg.sender == idToMarketItem[_itemId].seller, \"Only the seller can update the quantity\") */\n      tag_238\n      jumpi\n      mload(0x40)\n      0x08c379a000000000000000000000000000000000000000000000000000000000\n      dup2\n      mstore\n      0x04\n      add\n      tag_239\n      swap1\n      tag_240\n      jump\t// in\n    tag_239:\n      mload(0x40)\n      dup1\n      swap2\n      sub\n      swap1\n      revert\n    tag_238:\n        /* \"Marketplace.sol\":3253:3262  _quantity */\n      dup1\n        /* \"Marketplace.sol\":3218:3232  idToMarketItem */\n      0x03\n        /* \"Marketplace.sol\":3218:3241  idToMarketItem[_itemId] */\n      0x00\n        /* \"Marketplace.sol\":3233:3240  _itemId */\n      dup5\n        /* \"Marketplace.sol\":3218:3241  idToMarketItem[_itemId] */\n      dup2\n      mstore\n      0x20\n      add\n      swap1\n      dup2\n      mstore\n      0x20\n      add\n      0x00\n      keccak256\n        /* \"Marketplace.sol\":3218:3250  idToMarketItem[_itemId].quantity */\n      0x06\n      add\n      0x02\n        /* \"Marketplace.sol\":3218:3262  idToMarketItem[_itemId].quantity = _quantity */\n      0x0100\n      exp\n      dup2\n      sload\n      dup2\n      0xff\n      mul\n      not\n      and\n      swap1\n      dup4\n      0xff\n      and\n      mul\n      or\n      swap1\n      sstore\n      pop\n        /* \"Marketplace.sol\":3309:3324  block.timestamp */\n      timestamp\n        /* \"Marketplace.sol\":3273:3287  idToMarketItem */\n      0x03\n        /* \"Marketplace.sol\":3273:3296  idToMarketItem[_itemId] */\n      0x00\n        /* \"Marketplace.sol\":3288:3295  _itemId */\n      dup5\n        /* \"Marketplace.sol\":3273:3296  idToMarketItem[_itemId] */\n      dup2\n      mstore\n      0x20\n      add\n      swap1\n      dup2\n      mstore\n      0x20\n      add\n      0x00\n      keccak256\n        /* \"Marketplace.sol\":3273:3306  idToMarketItem[_itemId].updatedAt */\n      0x08\n      add\n        /* \"Marketplace.sol\":3273:3324  idToMarketItem[_itemId].updatedAt = block.timestamp */\n      dup2\n      swap1\n      sstore\n      pop\n        /* \"Marketplace.sol\":3025:3332  function updateMarketItemQuantity(uint256 _itemId, uint8 _quantity) public {\r... */\n      pop\n      pop\n      jump\t// out\n        /* \"Marketplace.sol\":3340:3654  function updateMarketItemImgUrl(uint256 _itemId, string memory _imageUrl) public {\r... */\n    tag_119:\n        /* \"Marketplace.sol\":3454:3468  idToMarketItem */\n      0x03\n        /* \"Marketplace.sol\":3454:3477  idToMarketItem[_itemId] */\n      0x00\n        /* \"Marketplace.sol\":3469:3476  _itemId */\n      dup4\n        /* \"Marketplace.sol\":3454:3477  idToMarketItem[_itemId] */\n      dup2\n      mstore\n      0x20\n      add\n      swap1\n      dup2\n      mstore\n      0x20\n      add\n      0x00\n      keccak256\n        /* \"Marketplace.sol\":3454:3484  idToMarketItem[_itemId].seller */\n      0x04\n      add\n      0x00\n      swap1\n      sload\n      swap1\n      0x0100\n      exp\n      swap1\n      div\n      0xffffffffffffffffffffffffffffffffffffffff\n      and\n        /* \"Marketplace.sol\":3440:3484  msg.sender == idToMarketItem[_itemId].seller */\n      0xffffffffffffffffffffffffffffffffffffffff\n      and\n        /* \"Marketplace.sol\":3440:3450  msg.sender */\n      caller\n        /* \"Marketplace.sol\":3440:3484  msg.sender == idToMarketItem[_itemId].seller */\n      0xffffffffffffffffffffffffffffffffffffffff\n      and\n      eq\n        /* \"Marketplace.sol\":3432:3529  require(msg.sender == idToMarketItem[_itemId].seller, \"Only the seller can update the image url\") */\n      tag_242\n      jumpi\n      mload(0x40)\n      0x08c379a000000000000000000000000000000000000000000000000000000000\n      dup2\n      mstore\n      0x04\n      add\n      tag_243\n      swap1\n      tag_244\n      jump\t// in\n    tag_243:\n      mload(0x40)\n      dup1\n      swap2\n      sub\n      swap1\n      revert\n    tag_242:\n        /* \"Marketplace.sol\":3575:3584  _imageUrl */\n      dup1\n        /* \"Marketplace.sol\":3540:3554  idToMarketItem */\n      0x03\n        /* \"Marketplace.sol\":3540:3563  idToMarketItem[_itemId] */\n      0x00\n        /* \"Marketplace.sol\":3555:3562  _itemId */\n      dup5\n        /* \"Marketplace.sol\":3540:3563  idToMarketItem[_itemId] */\n      dup2\n      mstore\n      0x20\n      add\n      swap1\n      dup2\n      mstore\n      0x20\n      add\n      0x00\n      keccak256\n        /* \"Marketplace.sol\":3540:3572  idToMarketItem[_itemId].imageUrl */\n      0x05\n      add\n        /* \"Marketplace.sol\":3540:3584  idToMarketItem[_itemId].imageUrl = _imageUrl */\n      swap1\n      dup1\n      mload\n      swap1\n      0x20\n      add\n      swap1\n      tag_245\n      swap3\n      swap2\n      swap1\n      tag_207\n      jump\t// in\n    tag_245:\n      pop\n        /* \"Marketplace.sol\":3631:3646  block.timestamp */\n      timestamp\n        /* \"Marketplace.sol\":3595:3609  idToMarketItem */\n      0x03\n        /* \"Marketplace.sol\":3595:3618  idToMarketItem[_itemId] */\n      0x00\n        /* \"Marketplace.sol\":3610:3617  _itemId */\n      dup5\n        /* \"Marketplace.sol\":3595:3618  idToMarketItem[_itemId] */\n      dup2\n      mstore\n      0x20\n      add\n      swap1\n      dup2\n      mstore\n      0x20\n      add\n      0x00\n      keccak256\n        /* \"Marketplace.sol\":3595:3628  idToMarketItem[_itemId].updatedAt */\n      0x08\n      add\n        /* \"Marketplace.sol\":3595:3646  idToMarketItem[_itemId].updatedAt = block.timestamp */\n      dup2\n      swap1\n      sstore\n      pop\n        /* \"Marketplace.sol\":3340:3654  function updateMarketItemImgUrl(uint256 _itemId, string memory _imageUrl) public {\r... */\n      pop\n      pop\n      jump\t// out\n        /* \"Marketplace.sol\":4233:4381  function checkBuyer(uint256 _itemId, address _buyer) public view returns (bool) {\r... */\n    tag_124:\n        /* \"Marketplace.sol\":4307:4311  bool */\n      0x00\n        /* \"Marketplace.sol\":4331:4373  indexOf(idToBuyerAddress[_itemId], _buyer) */\n      tag_247\n        /* \"Marketplace.sol\":4339:4355  idToBuyerAddress */\n      0x02\n        /* \"Marketplace.sol\":4339:4364  idToBuyerAddress[_itemId] */\n      0x00\n        /* \"Marketplace.sol\":4356:4363  _itemId */\n      dup6\n        /* \"Marketplace.sol\":4339:4364  idToBuyerAddress[_itemId] */\n      dup2\n      mstore\n      0x20\n      add\n      swap1\n      dup2\n      mstore\n      0x20\n      add\n      0x00\n      keccak256\n        /* \"Marketplace.sol\":4331:4373  indexOf(idToBuyerAddress[_itemId], _buyer) */\n      dup1\n      sload\n      dup1\n      0x20\n      mul\n      0x20\n      add\n      mload(0x40)\n      swap1\n      dup2\n      add\n      0x40\n      mstore\n      dup1\n      swap3\n      swap2\n      swap1\n      dup2\n      dup2\n      mstore\n      0x20\n      add\n      dup3\n      dup1\n      sload\n      dup1\n      iszero\n      tag_248\n      jumpi\n      0x20\n      mul\n      dup3\n      add\n      swap2\n      swap1\n      0x00\n      mstore\n      keccak256(0x00, 0x20)\n      swap1\n    tag_249:\n      dup2\n      0x00\n      swap1\n      sload\n      swap1\n      0x0100\n      exp\n      swap1\n      div\n      0xffffffffffffffffffffffffffffffffffffffff\n      and\n      0xffffffffffffffffffffffffffffffffffffffff\n      and\n      dup2\n      mstore\n      0x20\n      add\n      swap1\n      0x01\n      add\n      swap1\n      dup1\n      dup4\n      gt\n      tag_249\n      jumpi\n    tag_248:\n      pop\n      pop\n      pop\n      pop\n      pop\n        /* \"Marketplace.sol\":4366:4372  _buyer */\n      dup4\n        /* \"Marketplace.sol\":4331:4338  indexOf */\n      tag_250\n        /* \"Marketplace.sol\":4331:4373  indexOf(idToBuyerAddress[_itemId], _buyer) */\n      jump\t// in\n    tag_247:\n        /* \"Marketplace.sol\":4324:4373  return indexOf(idToBuyerAddress[_itemId], _buyer) */\n      swap1\n      pop\n        /* \"Marketplace.sol\":4233:4381  function checkBuyer(uint256 _itemId, address _buyer) public view returns (bool) {\r... */\n      swap3\n      swap2\n      pop\n      pop\n      jump\t// out\n        /* \"@openzeppelin/contracts/utils/introspection/ERC165.sol\":829:984  function supportsInterface(bytes4 interfaceId) public view virtual override returns (bool) {... */\n    tag_129:\n        /* \"@openzeppelin/contracts/utils/introspection/ERC165.sol\":914:918  bool */\n      0x00\n        /* \"@openzeppelin/contracts/utils/introspection/ERC165.sol\":952:977  type(IERC165).interfaceId */\n      0x01ffc9a700000000000000000000000000000000000000000000000000000000\n        /* \"@openzeppelin/contracts/utils/introspection/ERC165.sol\":937:977  interfaceId == type(IERC165).interfaceId */\n      not(0xffffffffffffffffffffffffffffffffffffffffffffffffffffffff)\n      and\n        /* \"@openzeppelin/contracts/utils/introspection/ERC165.sol\":937:948  interfaceId */\n      dup3\n        /* \"@openzeppelin/contracts/utils/introspection/ERC165.sol\":937:977  interfaceId == type(IERC165).interfaceId */\n      not(0xffffffffffffffffffffffffffffffffffffffffffffffffffffffff)\n      and\n      eq\n        /* \"@openzeppelin/contracts/utils/introspection/ERC165.sol\":930:977  return interfaceId == type(IERC165).interfaceId */\n      swap1\n      pop\n        /* \"@openzeppelin/contracts/utils/introspection/ERC165.sol\":829:984  function supportsInterface(bytes4 interfaceId) public view virtual override returns (bool) {... */\n      swap2\n      swap1\n      pop\n      jump\t// out\n        /* \"@openzeppelin/contracts/utils/Context.sol\":640:736  function _msgSender() internal view virtual returns (address) {... */\n    tag_170:\n        /* \"@openzeppelin/contracts/utils/Context.sol\":693:700  address */\n      0x00\n        /* \"@openzeppelin/contracts/utils/Context.sol\":719:729  msg.sender */\n      caller\n        /* \"@openzeppelin/contracts/utils/Context.sol\":712:729  return msg.sender */\n      swap1\n      pop\n        /* \"@openzeppelin/contracts/utils/Context.sol\":640:736  function _msgSender() internal view virtual returns (address) {... */\n      swap1\n      jump\t// out\n        /* \"@openzeppelin/contracts/access/AccessControl.sol\":3335:3827  function _checkRole(bytes32 role, address account) internal view virtual {... */\n    tag_171:\n        /* \"@openzeppelin/contracts/access/AccessControl.sol\":3423:3445  hasRole(role, account) */\n      tag_254\n        /* \"@openzeppelin/contracts/access/AccessControl.sol\":3431:3435  role */\n      dup3\n        /* \"@openzeppelin/contracts/access/AccessControl.sol\":3437:3444  account */\n      dup3\n        /* \"@openzeppelin/contracts/access/AccessControl.sol\":3423:3430  hasRole */\n      tag_82\n        /* \"@openzeppelin/contracts/access/AccessControl.sol\":3423:3445  hasRole(role, account) */\n      jump\t// in\n    tag_254:\n        /* \"@openzeppelin/contracts/access/AccessControl.sol\":3418:3821  if (!hasRole(role, account)) {... */\n      tag_255\n      jumpi\n        /* \"@openzeppelin/contracts/access/AccessControl.sol\":3606:3647  Strings.toHexString(uint160(account), 20) */\n      tag_256\n        /* \"@openzeppelin/contracts/access/AccessControl.sol\":3634:3641  account */\n      dup2\n        /* \"@openzeppelin/contracts/access/AccessControl.sol\":3606:3647  Strings.toHexString(uint160(account), 20) */\n      0xffffffffffffffffffffffffffffffffffffffff\n      and\n        /* \"@openzeppelin/contracts/access/AccessControl.sol\":3644:3646  20 */\n      0x14\n        /* \"@openzeppelin/contracts/access/AccessControl.sol\":3606:3625  Strings.toHexString */\n      tag_257\n        /* \"@openzeppelin/contracts/access/AccessControl.sol\":3606:3647  Strings.toHexString(uint160(account), 20) */\n      jump\t// in\n    tag_256:\n        /* \"@openzeppelin/contracts/access/AccessControl.sol\":3718:3756  Strings.toHexString(uint256(role), 32) */\n      tag_258\n        /* \"@openzeppelin/contracts/access/AccessControl.sol\":3746:3750  role */\n      dup4\n        /* \"@openzeppelin/contracts/access/AccessControl.sol\":3738:3751  uint256(role) */\n      0x00\n      shr\n        /* \"@openzeppelin/contracts/access/AccessControl.sol\":3753:3755  32 */\n      0x20\n        /* \"@openzeppelin/contracts/access/AccessControl.sol\":3718:3737  Strings.toHexString */\n      tag_257\n        /* \"@openzeppelin/contracts/access/AccessControl.sol\":3718:3756  Strings.toHexString(uint256(role), 32) */\n      jump\t// in\n    tag_258:\n        /* \"@openzeppelin/contracts/access/AccessControl.sol\":3513:3778  abi.encodePacked(... */\n      add(0x20, mload(0x40))\n      tag_259\n      swap3\n      swap2\n      swap1\n      tag_260\n      jump\t// in\n    tag_259:\n      mload(0x40)\n      0x20\n      dup2\n      dup4\n      sub\n      sub\n      dup2\n      mstore\n      swap1\n      0x40\n      mstore\n        /* \"@openzeppelin/contracts/access/AccessControl.sol\":3461:3810  revert(... */\n      mload(0x40)\n      0x08c379a000000000000000000000000000000000000000000000000000000000\n      dup2\n      mstore\n      0x04\n      add\n      tag_261\n      swap2\n      swap1\n      tag_262\n      jump\t// in\n    tag_261:\n      mload(0x40)\n      dup1\n      swap2\n      sub\n      swap1\n      revert\n        /* \"@openzeppelin/contracts/access/AccessControl.sol\":3418:3821  if (!hasRole(role, account)) {... */\n    tag_255:\n        /* \"@openzeppelin/contracts/access/AccessControl.sol\":3335:3827  function _checkRole(bytes32 role, address account) internal view virtual {... */\n      pop\n      pop\n      jump\t// out\n        /* \"@openzeppelin/contracts/access/AccessControl.sol\":6861:7094  function _grantRole(bytes32 role, address account) internal virtual {... */\n    tag_174:\n        /* \"@openzeppelin/contracts/access/AccessControl.sol\":6944:6966  hasRole(role, account) */\n      tag_264\n        /* \"@openzeppelin/contracts/access/AccessControl.sol\":6952:6956  role */\n      dup3\n        /* \"@openzeppelin/contracts/access/AccessControl.sol\":6958:6965  account */\n      dup3\n        /* \"@openzeppelin/contracts/access/AccessControl.sol\":6944:6951  hasRole */\n      tag_82\n        /* \"@openzeppelin/contracts/access/AccessControl.sol\":6944:6966  hasRole(role, account) */\n      jump\t// in\n    tag_264:\n        /* \"@openzeppelin/contracts/access/AccessControl.sol\":6939:7088  if (!hasRole(role, account)) {... */\n      tag_265\n      jumpi\n        /* \"@openzeppelin/contracts/access/AccessControl.sol\":7014:7018  true */\n      0x01\n        /* \"@openzeppelin/contracts/access/AccessControl.sol\":6982:6988  _roles */\n      0x00\n        /* \"@openzeppelin/contracts/access/AccessControl.sol\":6982:6994  _roles[role] */\n      dup1\n        /* \"@openzeppelin/contracts/access/AccessControl.sol\":6989:6993  role */\n      dup5\n        /* \"@openzeppelin/contracts/access/AccessControl.sol\":6982:6994  _roles[role] */\n      dup2\n      mstore\n      0x20\n      add\n      swap1\n      dup2\n      mstore\n      0x20\n      add\n      0x00\n      keccak256\n        /* \"@openzeppelin/contracts/access/AccessControl.sol\":6982:7002  _roles[role].members */\n      0x00\n      add\n        /* \"@openzeppelin/contracts/access/AccessControl.sol\":6982:7011  _roles[role].members[account] */\n      0x00\n        /* \"@openzeppelin/contracts/access/AccessControl.sol\":7003:7010  account */\n      dup4\n        /* \"@openzeppelin/contracts/access/AccessControl.sol\":6982:7011  _roles[role].members[account] */\n      0xffffffffffffffffffffffffffffffffffffffff\n      and\n      0xffffffffffffffffffffffffffffffffffffffff\n      and\n      dup2\n      mstore\n      0x20\n      add\n      swap1\n      dup2\n      mstore\n      0x20\n      add\n      0x00\n      keccak256\n      0x00\n        /* \"@openzeppelin/contracts/access/AccessControl.sol\":6982:7018  _roles[role].members[account] = true */\n      0x0100\n      exp\n      dup2\n      sload\n      dup2\n      0xff\n      mul\n      not\n      and\n      swap1\n      dup4\n      iszero\n      iszero\n      mul\n      or\n      swap1\n      sstore\n      pop\n        /* \"@openzeppelin/contracts/access/AccessControl.sol\":7064:7076  _msgSender() */\n      tag_266\n        /* \"@openzeppelin/contracts/access/AccessControl.sol\":7064:7074  _msgSender */\n      tag_170\n        /* \"@openzeppelin/contracts/access/AccessControl.sol\":7064:7076  _msgSender() */\n      jump\t// in\n    tag_266:\n        /* \"@openzeppelin/contracts/access/AccessControl.sol\":7037:7077  RoleGranted(role, account, _msgSender()) */\n      0xffffffffffffffffffffffffffffffffffffffff\n      and\n        /* \"@openzeppelin/contracts/access/AccessControl.sol\":7055:7062  account */\n      dup2\n        /* \"@openzeppelin/contracts/access/AccessControl.sol\":7037:7077  RoleGranted(role, account, _msgSender()) */\n      0xffffffffffffffffffffffffffffffffffffffff\n      and\n        /* \"@openzeppelin/contracts/access/AccessControl.sol\":7049:7053  role */\n      dup4\n        /* \"@openzeppelin/contracts/access/AccessControl.sol\":7037:7077  RoleGranted(role, account, _msgSender()) */\n      0x2f8788117e7eff1d82e926ec794901d17c78024a50270940304540a733656f0d\n      mload(0x40)\n      mload(0x40)\n      dup1\n      swap2\n      sub\n      swap1\n      log4\n        /* \"@openzeppelin/contracts/access/AccessControl.sol\":6939:7088  if (!hasRole(role, account)) {... */\n    tag_265:\n        /* \"@openzeppelin/contracts/access/AccessControl.sol\":6861:7094  function _grantRole(bytes32 role, address account) internal virtual {... */\n      pop\n      pop\n      jump\t// out\n        /* \"@openzeppelin/contracts/access/AccessControl.sol\":7219:7453  function _revokeRole(bytes32 role, address account) internal virtual {... */\n    tag_181:\n        /* \"@openzeppelin/contracts/access/AccessControl.sol\":7302:7324  hasRole(role, account) */\n      tag_268\n        /* \"@openzeppelin/contracts/access/AccessControl.sol\":7310:7314  role */\n      dup3\n        /* \"@openzeppelin/contracts/access/AccessControl.sol\":7316:7323  account */\n      dup3\n        /* \"@openzeppelin/contracts/access/AccessControl.sol\":7302:7309  hasRole */\n      tag_82\n        /* \"@openzeppelin/contracts/access/AccessControl.sol\":7302:7324  hasRole(role, account) */\n      jump\t// in\n    tag_268:\n        /* \"@openzeppelin/contracts/access/AccessControl.sol\":7298:7447  if (hasRole(role, account)) {... */\n      iszero\n      tag_269\n      jumpi\n        /* \"@openzeppelin/contracts/access/AccessControl.sol\":7372:7377  false */\n      0x00\n        /* \"@openzeppelin/contracts/access/AccessControl.sol\":7340:7346  _roles */\n      dup1\n        /* \"@openzeppelin/contracts/access/AccessControl.sol\":7340:7352  _roles[role] */\n      0x00\n        /* \"@openzeppelin/contracts/access/AccessControl.sol\":7347:7351  role */\n      dup5\n        /* \"@openzeppelin/contracts/access/AccessControl.sol\":7340:7352  _roles[role] */\n      dup2\n      mstore\n      0x20\n      add\n      swap1\n      dup2\n      mstore\n      0x20\n      add\n      0x00\n      keccak256\n        /* \"@openzeppelin/contracts/access/AccessControl.sol\":7340:7360  _roles[role].members */\n      0x00\n      add\n        /* \"@openzeppelin/contracts/access/AccessControl.sol\":7340:7369  _roles[role].members[account] */\n      0x00\n        /* \"@openzeppelin/contracts/access/AccessControl.sol\":7361:7368  account */\n      dup4\n        /* \"@openzeppelin/contracts/access/AccessControl.sol\":7340:7369  _roles[role].members[account] */\n      0xffffffffffffffffffffffffffffffffffffffff\n      and\n      0xffffffffffffffffffffffffffffffffffffffff\n      and\n      dup2\n      mstore\n      0x20\n      add\n      swap1\n      dup2\n      mstore\n      0x20\n      add\n      0x00\n      keccak256\n      0x00\n        /* \"@openzeppelin/contracts/access/AccessControl.sol\":7340:7377  _roles[role].members[account] = false */\n      0x0100\n      exp\n      dup2\n      sload\n      dup2\n      0xff\n      mul\n      not\n      and\n      swap1\n      dup4\n      iszero\n      iszero\n      mul\n      or\n      swap1\n      sstore\n      pop\n        /* \"@openzeppelin/contracts/access/AccessControl.sol\":7423:7435  _msgSender() */\n      tag_270\n        /* \"@openzeppelin/contracts/access/AccessControl.sol\":7423:7433  _msgSender */\n      tag_170\n        /* \"@openzeppelin/contracts/access/AccessControl.sol\":7423:7435  _msgSender() */\n      jump\t// in\n    tag_270:\n        /* \"@openzeppelin/contracts/access/AccessControl.sol\":7396:7436  RoleRevoked(role, account, _msgSender()) */\n      0xffffffffffffffffffffffffffffffffffffffff\n      and\n        /* \"@openzeppelin/contracts/access/AccessControl.sol\":7414:7421  account */\n      dup2\n        /* \"@openzeppelin/contracts/access/AccessControl.sol\":7396:7436  RoleRevoked(role, account, _msgSender()) */\n      0xffffffffffffffffffffffffffffffffffffffff\n      and\n        /* \"@openzeppelin/contracts/access/AccessControl.sol\":7408:7412  role */\n      dup4\n        /* \"@openzeppelin/contracts/access/AccessControl.sol\":7396:7436  RoleRevoked(role, account, _msgSender()) */\n      0xf6391f5c32d9c69d2a47ea670b442974b53935d1edc7fd64eb21e047a839171b\n      mload(0x40)\n      mload(0x40)\n      dup1\n      swap2\n      sub\n      swap1\n      log4\n        /* \"@openzeppelin/contracts/access/AccessControl.sol\":7298:7447  if (hasRole(role, account)) {... */\n    tag_269:\n        /* \"@openzeppelin/contracts/access/AccessControl.sol\":7219:7453  function _revokeRole(bytes32 role, address account) internal virtual {... */\n      pop\n      pop\n      jump\t// out\n        /* \"Marketplace.sol\":3964:4225  function indexOf(address[] memory arr, address searchFor) private pure returns (bool) {\r... */\n    tag_250:\n        /* \"Marketplace.sol\":4044:4048  bool */\n      0x00\n        /* \"Marketplace.sol\":4066:4075  uint256 i */\n      dup1\n        /* \"Marketplace.sol\":4078:4079  0 */\n      0x00\n        /* \"Marketplace.sol\":4066:4079  uint256 i = 0 */\n      swap1\n      pop\n        /* \"Marketplace.sol\":4061:4195  for (uint256 i = 0; i < arr.length; i++) {\r... */\n    tag_272:\n        /* \"Marketplace.sol\":4085:4088  arr */\n      dup4\n        /* \"Marketplace.sol\":4085:4095  arr.length */\n      mload\n        /* \"Marketplace.sol\":4081:4082  i */\n      dup2\n        /* \"Marketplace.sol\":4081:4095  i < arr.length */\n      lt\n        /* \"Marketplace.sol\":4061:4195  for (uint256 i = 0; i < arr.length; i++) {\r... */\n      iszero\n      tag_273\n      jumpi\n        /* \"Marketplace.sol\":4131:4140  searchFor */\n      dup3\n        /* \"Marketplace.sol\":4121:4140  arr[i] == searchFor */\n      0xffffffffffffffffffffffffffffffffffffffff\n      and\n        /* \"Marketplace.sol\":4121:4124  arr */\n      dup5\n        /* \"Marketplace.sol\":4125:4126  i */\n      dup3\n        /* \"Marketplace.sol\":4121:4127  arr[i] */\n      dup2\n      mload\n      dup2\n      lt\n      tag_275\n      jumpi\n      tag_276\n      tag_277\n      jump\t// in\n    tag_276:\n    tag_275:\n      0x20\n      mul\n      0x20\n      add\n      add\n      mload\n        /* \"Marketplace.sol\":4121:4140  arr[i] == searchFor */\n      0xffffffffffffffffffffffffffffffffffffffff\n      and\n      eq\n        /* \"Marketplace.sol\":4117:4184  if (arr[i] == searchFor) {\r... */\n      iszero\n      tag_278\n      jumpi\n        /* \"Marketplace.sol\":4164:4168  true */\n      0x01\n        /* \"Marketplace.sol\":4157:4168  return true */\n      swap2\n      pop\n      pop\n      jump(tag_271)\n        /* \"Marketplace.sol\":4117:4184  if (arr[i] == searchFor) {\r... */\n    tag_278:\n        /* \"Marketplace.sol\":4097:4100  i++ */\n      dup1\n      dup1\n      tag_279\n      swap1\n      tag_220\n      jump\t// in\n    tag_279:\n      swap2\n      pop\n      pop\n        /* \"Marketplace.sol\":4061:4195  for (uint256 i = 0; i < arr.length; i++) {\r... */\n      jump(tag_272)\n    tag_273:\n      pop\n        /* \"Marketplace.sol\":4212:4217  false */\n      0x00\n        /* \"Marketplace.sol\":4205:4217  return false */\n      swap1\n      pop\n        /* \"Marketplace.sol\":3964:4225  function indexOf(address[] memory arr, address searchFor) private pure returns (bool) {\r... */\n    tag_271:\n      swap3\n      swap2\n      pop\n      pop\n      jump\t// out\n        /* \"@openzeppelin/contracts/utils/Strings.sol\":1588:2029  function toHexString(uint256 value, uint256 length) internal pure returns (string memory) {... */\n    tag_257:\n        /* \"@openzeppelin/contracts/utils/Strings.sol\":1663:1676  string memory */\n      0x60\n        /* \"@openzeppelin/contracts/utils/Strings.sol\":1688:1707  bytes memory buffer */\n      0x00\n        /* \"@openzeppelin/contracts/utils/Strings.sol\":1733:1734  2 */\n      0x02\n        /* \"@openzeppelin/contracts/utils/Strings.sol\":1724:1730  length */\n      dup4\n        /* \"@openzeppelin/contracts/utils/Strings.sol\":1720:1721  2 */\n      0x02\n        /* \"@openzeppelin/contracts/utils/Strings.sol\":1720:1730  2 * length */\n      tag_281\n      swap2\n      swap1\n      tag_282\n      jump\t// in\n    tag_281:\n        /* \"@openzeppelin/contracts/utils/Strings.sol\":1720:1734  2 * length + 2 */\n      tag_283\n      swap2\n      swap1\n      tag_284\n      jump\t// in\n    tag_283:\n        /* \"@openzeppelin/contracts/utils/Strings.sol\":1710:1735  new bytes(2 * length + 2) */\n      0xffffffffffffffff\n      dup2\n      gt\n      iszero\n      tag_285\n      jumpi\n      tag_286\n      tag_287\n      jump\t// in\n    tag_286:\n    tag_285:\n      mload(0x40)\n      swap1\n      dup1\n      dup3\n      mstore\n      dup1\n      0x1f\n      add\n      not(0x1f)\n      and\n      0x20\n      add\n      dup3\n      add\n      0x40\n      mstore\n      dup1\n      iszero\n      tag_288\n      jumpi\n      dup2\n      0x20\n      add\n      0x01\n      dup3\n      mul\n      dup1\n      calldatasize\n      dup4\n      calldatacopy\n      dup1\n      dup3\n      add\n      swap2\n      pop\n      pop\n      swap1\n      pop\n    tag_288:\n      pop\n        /* \"@openzeppelin/contracts/utils/Strings.sol\":1688:1735  bytes memory buffer = new bytes(2 * length + 2) */\n      swap1\n      pop\n        /* \"@openzeppelin/contracts/utils/Strings.sol\":1745:1760  buffer[0] = \"0\" */\n      0x3000000000000000000000000000000000000000000000000000000000000000\n        /* \"@openzeppelin/contracts/utils/Strings.sol\":1745:1751  buffer */\n      dup2\n        /* \"@openzeppelin/contracts/utils/Strings.sol\":1752:1753  0 */\n      0x00\n        /* \"@openzeppelin/contracts/utils/Strings.sol\":1745:1754  buffer[0] */\n      dup2\n      mload\n      dup2\n      lt\n      tag_289\n      jumpi\n      tag_290\n      tag_277\n      jump\t// in\n    tag_290:\n    tag_289:\n      0x20\n      add\n      add\n        /* \"@openzeppelin/contracts/utils/Strings.sol\":1745:1760  buffer[0] = \"0\" */\n      swap1\n      not(0xffffffffffffffffffffffffffffffffffffffffffffffffffffffffffffff)\n      and\n      swap1\n      dup2\n      0x00\n      byte\n      swap1\n      mstore8\n      pop\n        /* \"@openzeppelin/contracts/utils/Strings.sol\":1770:1785  buffer[1] = \"x\" */\n      0x7800000000000000000000000000000000000000000000000000000000000000\n        /* \"@openzeppelin/contracts/utils/Strings.sol\":1770:1776  buffer */\n      dup2\n        /* \"@openzeppelin/contracts/utils/Strings.sol\":1777:1778  1 */\n      0x01\n        /* \"@openzeppelin/contracts/utils/Strings.sol\":1770:1779  buffer[1] */\n      dup2\n      mload\n      dup2\n      lt\n      tag_291\n      jumpi\n      tag_292\n      tag_277\n      jump\t// in\n    tag_292:\n    tag_291:\n      0x20\n      add\n      add\n        /* \"@openzeppelin/contracts/utils/Strings.sol\":1770:1785  buffer[1] = \"x\" */\n      swap1\n      not(0xffffffffffffffffffffffffffffffffffffffffffffffffffffffffffffff)\n      and\n      swap1\n      dup2\n      0x00\n      byte\n      swap1\n      mstore8\n      pop\n        /* \"@openzeppelin/contracts/utils/Strings.sol\":1800:1809  uint256 i */\n      0x00\n        /* \"@openzeppelin/contracts/utils/Strings.sol\":1825:1826  1 */\n      0x01\n        /* \"@openzeppelin/contracts/utils/Strings.sol\":1816:1822  length */\n      dup5\n        /* \"@openzeppelin/contracts/utils/Strings.sol\":1812:1813  2 */\n      0x02\n        /* \"@openzeppelin/contracts/utils/Strings.sol\":1812:1822  2 * length */\n      tag_296\n      swap2\n      swap1\n      tag_282\n      jump\t// in\n    tag_296:\n        /* \"@openzeppelin/contracts/utils/Strings.sol\":1812:1826  2 * length + 1 */\n      tag_297\n      swap2\n      swap1\n      tag_284\n      jump\t// in\n    tag_297:\n        /* \"@openzeppelin/contracts/utils/Strings.sol\":1800:1826  uint256 i = 2 * length + 1 */\n      swap1\n      pop\n        /* \"@openzeppelin/contracts/utils/Strings.sol\":1795:1927  for (uint256 i = 2 * length + 1; i > 1; --i) {... */\n    tag_293:\n        /* \"@openzeppelin/contracts/utils/Strings.sol\":1832:1833  1 */\n      0x01\n        /* \"@openzeppelin/contracts/utils/Strings.sol\":1828:1829  i */\n      dup2\n        /* \"@openzeppelin/contracts/utils/Strings.sol\":1828:1833  i > 1 */\n      gt\n        /* \"@openzeppelin/contracts/utils/Strings.sol\":1795:1927  for (uint256 i = 2 * length + 1; i > 1; --i) {... */\n      iszero\n      tag_294\n      jumpi\n        /* \"@openzeppelin/contracts/utils/Strings.sol\":1866:1878  _HEX_SYMBOLS */\n      0x3031323334353637383961626364656600000000000000000000000000000000\n        /* \"@openzeppelin/contracts/utils/Strings.sol\":1887:1890  0xf */\n      0x0f\n        /* \"@openzeppelin/contracts/utils/Strings.sol\":1879:1884  value */\n      dup7\n        /* \"@openzeppelin/contracts/utils/Strings.sol\":1879:1890  value & 0xf */\n      and\n        /* \"@openzeppelin/contracts/utils/Strings.sol\":1866:1891  _HEX_SYMBOLS[value & 0xf] */\n      0x10\n      dup2\n      lt\n      tag_298\n      jumpi\n      tag_299\n      tag_277\n      jump\t// in\n    tag_299:\n    tag_298:\n      byte\n      0xf8\n      shl\n        /* \"@openzeppelin/contracts/utils/Strings.sol\":1854:1860  buffer */\n      dup3\n        /* \"@openzeppelin/contracts/utils/Strings.sol\":1861:1862  i */\n      dup3\n        /* \"@openzeppelin/contracts/utils/Strings.sol\":1854:1863  buffer[i] */\n      dup2\n      mload\n      dup2\n      lt\n      tag_300\n      jumpi\n      tag_301\n      tag_277\n      jump\t// in\n    tag_301:\n    tag_300:\n      0x20\n      add\n      add\n        /* \"@openzeppelin/contracts/utils/Strings.sol\":1854:1891  buffer[i] = _HEX_SYMBOLS[value & 0xf] */\n      swap1\n      not(0xffffffffffffffffffffffffffffffffffffffffffffffffffffffffffffff)\n      and\n      swap1\n      dup2\n      0x00\n      byte\n      swap1\n      mstore8\n      pop\n        /* \"@openzeppelin/contracts/utils/Strings.sol\":1915:1916  4 */\n      0x04\n        /* \"@openzeppelin/contracts/utils/Strings.sol\":1905:1916  value >>= 4 */\n      dup6\n      swap1\n      shr\n      swap5\n      pop\n        /* \"@openzeppelin/contracts/utils/Strings.sol\":1835:1838  --i */\n      dup1\n      tag_302\n      swap1\n      tag_303\n      jump\t// in\n    tag_302:\n      swap1\n      pop\n        /* \"@openzeppelin/contracts/utils/Strings.sol\":1795:1927  for (uint256 i = 2 * length + 1; i > 1; --i) {... */\n      jump(tag_293)\n    tag_294:\n      pop\n        /* \"@openzeppelin/contracts/utils/Strings.sol\":1953:1954  0 */\n      0x00\n        /* \"@openzeppelin/contracts/utils/Strings.sol\":1944:1949  value */\n      dup5\n        /* \"@openzeppelin/contracts/utils/Strings.sol\":1944:1954  value == 0 */\n      eq\n        /* \"@openzeppelin/contracts/utils/Strings.sol\":1936:1991  require(value == 0, \"Strings: hex length insufficient\") */\n      tag_304\n      jumpi\n      mload(0x40)\n      0x08c379a000000000000000000000000000000000000000000000000000000000\n      dup2\n      mstore\n      0x04\n      add\n      tag_305\n      swap1\n      tag_306\n      jump\t// in\n    tag_305:\n      mload(0x40)\n      dup1\n      swap2\n      sub\n      swap1\n      revert\n    tag_304:\n        /* \"@openzeppelin/contracts/utils/Strings.sol\":2015:2021  buffer */\n      dup1\n        /* \"@openzeppelin/contracts/utils/Strings.sol\":2001:2022  return string(buffer) */\n      swap2\n      pop\n      pop\n        /* \"@openzeppelin/contracts/utils/Strings.sol\":1588:2029  function toHexString(uint256 value, uint256 length) internal pure returns (string memory) {... */\n      swap3\n      swap2\n      pop\n      pop\n      jump\t// out\n    tag_207:\n      dup3\n      dup1\n      sload\n      tag_307\n      swap1\n      tag_187\n      jump\t// in\n    tag_307:\n      swap1\n      0x00\n      mstore\n      keccak256(0x00, 0x20)\n      swap1\n      0x1f\n      add\n      0x20\n      swap1\n      div\n      dup2\n      add\n      swap3\n      dup3\n      tag_309\n      jumpi\n      0x00\n      dup6\n      sstore\n      jump(tag_308)\n    tag_309:\n      dup3\n      0x1f\n      lt\n      tag_310\n      jumpi\n      dup1\n      mload\n      not(0xff)\n      and\n      dup4\n      dup1\n      add\n      or\n      dup6\n      sstore\n      jump(tag_308)\n    tag_310:\n      dup3\n      dup1\n      add\n      0x01\n      add\n      dup6\n      sstore\n      dup3\n      iszero\n      tag_308\n      jumpi\n      swap2\n      dup3\n      add\n    tag_311:\n      dup3\n      dup2\n      gt\n      iszero\n      tag_312\n      jumpi\n      dup3\n      mload\n      dup3\n      sstore\n      swap2\n      0x20\n      add\n      swap2\n      swap1\n      0x01\n      add\n      swap1\n      jump(tag_311)\n    tag_312:\n    tag_308:\n      pop\n      swap1\n      pop\n      tag_313\n      swap2\n      swap1\n      tag_314\n      jump\t// in\n    tag_313:\n      pop\n      swap1\n      jump\t// out\n    tag_314:\n    tag_315:\n      dup1\n      dup3\n      gt\n      iszero\n      tag_316\n      jumpi\n      0x00\n      dup2\n      0x00\n      swap1\n      sstore\n      pop\n      0x01\n      add\n      jump(tag_315)\n    tag_316:\n      pop\n      swap1\n      jump\t// out\n        /* \"#utility.yul\":7:419   */\n    tag_318:\n        /* \"#utility.yul\":85:90   */\n      0x00\n        /* \"#utility.yul\":110:176   */\n      tag_320\n        /* \"#utility.yul\":126:175   */\n      tag_321\n        /* \"#utility.yul\":168:174   */\n      dup5\n        /* \"#utility.yul\":126:175   */\n      tag_322\n      jump\t// in\n    tag_321:\n        /* \"#utility.yul\":110:176   */\n      tag_323\n      jump\t// in\n    tag_320:\n        /* \"#utility.yul\":101:176   */\n      swap1\n      pop\n        /* \"#utility.yul\":199:205   */\n      dup3\n        /* \"#utility.yul\":192:197   */\n      dup2\n        /* \"#utility.yul\":185:206   */\n      mstore\n        /* \"#utility.yul\":237:241   */\n      0x20\n        /* \"#utility.yul\":230:235   */\n      dup2\n        /* \"#utility.yul\":226:242   */\n      add\n        /* \"#utility.yul\":275:278   */\n      dup5\n        /* \"#utility.yul\":266:272   */\n      dup5\n        /* \"#utility.yul\":261:264   */\n      dup5\n        /* \"#utility.yul\":257:273   */\n      add\n        /* \"#utility.yul\":254:279   */\n      gt\n        /* \"#utility.yul\":251:363   */\n      iszero\n      tag_324\n      jumpi\n        /* \"#utility.yul\":282:361   */\n      tag_325\n      tag_326\n      jump\t// in\n    tag_325:\n        /* \"#utility.yul\":251:363   */\n    tag_324:\n        /* \"#utility.yul\":372:413   */\n      tag_327\n        /* \"#utility.yul\":406:412   */\n      dup5\n        /* \"#utility.yul\":401:404   */\n      dup3\n        /* \"#utility.yul\":396:399   */\n      dup6\n        /* \"#utility.yul\":372:413   */\n      tag_328\n      jump\t// in\n    tag_327:\n        /* \"#utility.yul\":91:419   */\n      pop\n        /* \"#utility.yul\":7:419   */\n      swap4\n      swap3\n      pop\n      pop\n      pop\n      jump\t// out\n        /* \"#utility.yul\":425:564   */\n    tag_329:\n        /* \"#utility.yul\":471:476   */\n      0x00\n        /* \"#utility.yul\":509:515   */\n      dup2\n        /* \"#utility.yul\":496:516   */\n      calldataload\n        /* \"#utility.yul\":487:516   */\n      swap1\n      pop\n        /* \"#utility.yul\":525:558   */\n      tag_331\n        /* \"#utility.yul\":552:557   */\n      dup2\n        /* \"#utility.yul\":525:558   */\n      tag_332\n      jump\t// in\n    tag_331:\n        /* \"#utility.yul\":425:564   */\n      swap3\n      swap2\n      pop\n      pop\n      jump\t// out\n        /* \"#utility.yul\":570:725   */\n    tag_333:\n        /* \"#utility.yul\":624:629   */\n      0x00\n        /* \"#utility.yul\":662:668   */\n      dup2\n        /* \"#utility.yul\":649:669   */\n      calldataload\n        /* \"#utility.yul\":640:669   */\n      swap1\n      pop\n        /* \"#utility.yul\":678:719   */\n      tag_335\n        /* \"#utility.yul\":713:718   */\n      dup2\n        /* \"#utility.yul\":678:719   */\n      tag_336\n      jump\t// in\n    tag_335:\n        /* \"#utility.yul\":570:725   */\n      swap3\n      swap2\n      pop\n      pop\n      jump\t// out\n        /* \"#utility.yul\":731:870   */\n    tag_337:\n        /* \"#utility.yul\":777:782   */\n      0x00\n        /* \"#utility.yul\":815:821   */\n      dup2\n        /* \"#utility.yul\":802:822   */\n      calldataload\n        /* \"#utility.yul\":793:822   */\n      swap1\n      pop\n        /* \"#utility.yul\":831:864   */\n      tag_339\n        /* \"#utility.yul\":858:863   */\n      dup2\n        /* \"#utility.yul\":831:864   */\n      tag_340\n      jump\t// in\n    tag_339:\n        /* \"#utility.yul\":731:870   */\n      swap3\n      swap2\n      pop\n      pop\n      jump\t// out\n        /* \"#utility.yul\":876:1013   */\n    tag_341:\n        /* \"#utility.yul\":921:926   */\n      0x00\n        /* \"#utility.yul\":959:965   */\n      dup2\n        /* \"#utility.yul\":946:966   */\n      calldataload\n        /* \"#utility.yul\":937:966   */\n      swap1\n      pop\n        /* \"#utility.yul\":975:1007   */\n      tag_343\n        /* \"#utility.yul\":1001:1006   */\n      dup2\n        /* \"#utility.yul\":975:1007   */\n      tag_344\n      jump\t// in\n    tag_343:\n        /* \"#utility.yul\":876:1013   */\n      swap3\n      swap2\n      pop\n      pop\n      jump\t// out\n        /* \"#utility.yul\":1033:1373   */\n    tag_345:\n        /* \"#utility.yul\":1089:1094   */\n      0x00\n        /* \"#utility.yul\":1138:1141   */\n      dup3\n        /* \"#utility.yul\":1131:1135   */\n      0x1f\n        /* \"#utility.yul\":1123:1129   */\n      dup4\n        /* \"#utility.yul\":1119:1136   */\n      add\n        /* \"#utility.yul\":1115:1142   */\n      slt\n        /* \"#utility.yul\":1105:1227   */\n      tag_347\n      jumpi\n        /* \"#utility.yul\":1146:1225   */\n      tag_348\n      tag_349\n      jump\t// in\n    tag_348:\n        /* \"#utility.yul\":1105:1227   */\n    tag_347:\n        /* \"#utility.yul\":1263:1269   */\n      dup2\n        /* \"#utility.yul\":1250:1270   */\n      calldataload\n        /* \"#utility.yul\":1288:1367   */\n      tag_350\n        /* \"#utility.yul\":1363:1366   */\n      dup5\n        /* \"#utility.yul\":1355:1361   */\n      dup3\n        /* \"#utility.yul\":1348:1352   */\n      0x20\n        /* \"#utility.yul\":1340:1346   */\n      dup7\n        /* \"#utility.yul\":1336:1353   */\n      add\n        /* \"#utility.yul\":1288:1367   */\n      tag_318\n      jump\t// in\n    tag_350:\n        /* \"#utility.yul\":1279:1367   */\n      swap2\n      pop\n        /* \"#utility.yul\":1095:1373   */\n      pop\n        /* \"#utility.yul\":1033:1373   */\n      swap3\n      swap2\n      pop\n      pop\n      jump\t// out\n        /* \"#utility.yul\":1379:1518   */\n    tag_351:\n        /* \"#utility.yul\":1425:1430   */\n      0x00\n        /* \"#utility.yul\":1463:1469   */\n      dup2\n        /* \"#utility.yul\":1450:1470   */\n      calldataload\n        /* \"#utility.yul\":1441:1470   */\n      swap1\n      pop\n        /* \"#utility.yul\":1479:1512   */\n      tag_353\n        /* \"#utility.yul\":1506:1511   */\n      dup2\n        /* \"#utility.yul\":1479:1512   */\n      tag_354\n      jump\t// in\n    tag_353:\n        /* \"#utility.yul\":1379:1518   */\n      swap3\n      swap2\n      pop\n      pop\n      jump\t// out\n        /* \"#utility.yul\":1524:1659   */\n    tag_355:\n        /* \"#utility.yul\":1568:1573   */\n      0x00\n        /* \"#utility.yul\":1606:1612   */\n      dup2\n        /* \"#utility.yul\":1593:1613   */\n      calldataload\n        /* \"#utility.yul\":1584:1613   */\n      swap1\n      pop\n        /* \"#utility.yul\":1622:1653   */\n      tag_357\n        /* \"#utility.yul\":1647:1652   */\n      dup2\n        /* \"#utility.yul\":1622:1653   */\n      tag_358\n      jump\t// in\n    tag_357:\n        /* \"#utility.yul\":1524:1659   */\n      swap3\n      swap2\n      pop\n      pop\n      jump\t// out\n        /* \"#utility.yul\":1665:1994   */\n    tag_43:\n        /* \"#utility.yul\":1724:1730   */\n      0x00\n        /* \"#utility.yul\":1773:1775   */\n      0x20\n        /* \"#utility.yul\":1761:1770   */\n      dup3\n        /* \"#utility.yul\":1752:1759   */\n      dup5\n        /* \"#utility.yul\":1748:1771   */\n      sub\n        /* \"#utility.yul\":1744:1776   */\n      slt\n        /* \"#utility.yul\":1741:1860   */\n      iszero\n      tag_360\n      jumpi\n        /* \"#utility.yul\":1779:1858   */\n      tag_361\n      tag_362\n      jump\t// in\n    tag_361:\n        /* \"#utility.yul\":1741:1860   */\n    tag_360:\n        /* \"#utility.yul\":1899:1900   */\n      0x00\n        /* \"#utility.yul\":1924:1977   */\n      tag_363\n        /* \"#utility.yul\":1969:1976   */\n      dup5\n        /* \"#utility.yul\":1960:1966   */\n      dup3\n        /* \"#utility.yul\":1949:1958   */\n      dup6\n        /* \"#utility.yul\":1945:1967   */\n      add\n        /* \"#utility.yul\":1924:1977   */\n      tag_337\n      jump\t// in\n    tag_363:\n        /* \"#utility.yul\":1914:1977   */\n      swap2\n      pop\n        /* \"#utility.yul\":1870:1987   */\n      pop\n        /* \"#utility.yul\":1665:1994   */\n      swap3\n      swap2\n      pop\n      pop\n      jump\t// out\n        /* \"#utility.yul\":2000:2474   */\n    tag_50:\n        /* \"#utility.yul\":2068:2074   */\n      0x00\n        /* \"#utility.yul\":2076:2082   */\n      dup1\n        /* \"#utility.yul\":2125:2127   */\n      0x40\n        /* \"#utility.yul\":2113:2122   */\n      dup4\n        /* \"#utility.yul\":2104:2111   */\n      dup6\n        /* \"#utility.yul\":2100:2123   */\n      sub\n        /* \"#utility.yul\":2096:2128   */\n      slt\n        /* \"#utility.yul\":2093:2212   */\n      iszero\n      tag_365\n      jumpi\n        /* \"#utility.yul\":2131:2210   */\n      tag_366\n      tag_362\n      jump\t// in\n    tag_366:\n        /* \"#utility.yul\":2093:2212   */\n    tag_365:\n        /* \"#utility.yul\":2251:2252   */\n      0x00\n        /* \"#utility.yul\":2276:2329   */\n      tag_367\n        /* \"#utility.yul\":2321:2328   */\n      dup6\n        /* \"#utility.yul\":2312:2318   */\n      dup3\n        /* \"#utility.yul\":2301:2310   */\n      dup7\n        /* \"#utility.yul\":2297:2319   */\n      add\n        /* \"#utility.yul\":2276:2329   */\n      tag_337\n      jump\t// in\n    tag_367:\n        /* \"#utility.yul\":2266:2329   */\n      swap3\n      pop\n        /* \"#utility.yul\":2222:2339   */\n      pop\n        /* \"#utility.yul\":2378:2380   */\n      0x20\n        /* \"#utility.yul\":2404:2457   */\n      tag_368\n        /* \"#utility.yul\":2449:2456   */\n      dup6\n        /* \"#utility.yul\":2440:2446   */\n      dup3\n        /* \"#utility.yul\":2429:2438   */\n      dup7\n        /* \"#utility.yul\":2425:2447   */\n      add\n        /* \"#utility.yul\":2404:2457   */\n      tag_329\n      jump\t// in\n    tag_368:\n        /* \"#utility.yul\":2394:2457   */\n      swap2\n      pop\n        /* \"#utility.yul\":2349:2467   */\n      pop\n        /* \"#utility.yul\":2000:2474   */\n      swap3\n      pop\n      swap3\n      swap1\n      pop\n      jump\t// out\n        /* \"#utility.yul\":2480:2807   */\n    tag_28:\n        /* \"#utility.yul\":2538:2544   */\n      0x00\n        /* \"#utility.yul\":2587:2589   */\n      0x20\n        /* \"#utility.yul\":2575:2584   */\n      dup3\n        /* \"#utility.yul\":2566:2573   */\n      dup5\n        /* \"#utility.yul\":2562:2585   */\n      sub\n        /* \"#utility.yul\":2558:2590   */\n      slt\n        /* \"#utility.yul\":2555:2674   */\n      iszero\n      tag_370\n      jumpi\n        /* \"#utility.yul\":2593:2672   */\n      tag_371\n      tag_362\n      jump\t// in\n    tag_371:\n        /* \"#utility.yul\":2555:2674   */\n    tag_370:\n        /* \"#utility.yul\":2713:2714   */\n      0x00\n        /* \"#utility.yul\":2738:2790   */\n      tag_372\n        /* \"#utility.yul\":2782:2789   */\n      dup5\n        /* \"#utility.yul\":2773:2779   */\n      dup3\n        /* \"#utility.yul\":2762:2771   */\n      dup6\n        /* \"#utility.yul\":2758:2780   */\n      add\n        /* \"#utility.yul\":2738:2790   */\n      tag_341\n      jump\t// in\n    tag_372:\n        /* \"#utility.yul\":2728:2790   */\n      swap2\n      pop\n        /* \"#utility.yul\":2684:2800   */\n      pop\n        /* \"#utility.yul\":2480:2807   */\n      swap3\n      swap2\n      pop\n      pop\n      jump\t// out\n        /* \"#utility.yul\":2813:4422   */\n    tag_91:\n        /* \"#utility.yul\":2953:2959   */\n      0x00\n        /* \"#utility.yul\":2961:2967   */\n      dup1\n        /* \"#utility.yul\":2969:2975   */\n      0x00\n        /* \"#utility.yul\":2977:2983   */\n      dup1\n        /* \"#utility.yul\":2985:2991   */\n      0x00\n        /* \"#utility.yul\":2993:2999   */\n      dup1\n        /* \"#utility.yul\":3042:3045   */\n      0xc0\n        /* \"#utility.yul\":3030:3039   */\n      dup8\n        /* \"#utility.yul\":3021:3028   */\n      dup10\n        /* \"#utility.yul\":3017:3040   */\n      sub\n        /* \"#utility.yul\":3013:3046   */\n      slt\n        /* \"#utility.yul\":3010:3130   */\n      iszero\n      tag_374\n      jumpi\n        /* \"#utility.yul\":3049:3128   */\n      tag_375\n      tag_362\n      jump\t// in\n    tag_375:\n        /* \"#utility.yul\":3010:3130   */\n    tag_374:\n        /* \"#utility.yul\":3197:3198   */\n      0x00\n        /* \"#utility.yul\":3186:3195   */\n      dup8\n        /* \"#utility.yul\":3182:3199   */\n      add\n        /* \"#utility.yul\":3169:3200   */\n      calldataload\n        /* \"#utility.yul\":3227:3245   */\n      0xffffffffffffffff\n        /* \"#utility.yul\":3219:3225   */\n      dup2\n        /* \"#utility.yul\":3216:3246   */\n      gt\n        /* \"#utility.yul\":3213:3330   */\n      iszero\n      tag_376\n      jumpi\n        /* \"#utility.yul\":3249:3328   */\n      tag_377\n      tag_378\n      jump\t// in\n    tag_377:\n        /* \"#utility.yul\":3213:3330   */\n    tag_376:\n        /* \"#utility.yul\":3354:3417   */\n      tag_379\n        /* \"#utility.yul\":3409:3416   */\n      dup10\n        /* \"#utility.yul\":3400:3406   */\n      dup3\n        /* \"#utility.yul\":3389:3398   */\n      dup11\n        /* \"#utility.yul\":3385:3407   */\n      add\n        /* \"#utility.yul\":3354:3417   */\n      tag_345\n      jump\t// in\n    tag_379:\n        /* \"#utility.yul\":3344:3417   */\n      swap7\n      pop\n        /* \"#utility.yul\":3140:3427   */\n      pop\n        /* \"#utility.yul\":3494:3496   */\n      0x20\n        /* \"#utility.yul\":3483:3492   */\n      dup8\n        /* \"#utility.yul\":3479:3497   */\n      add\n        /* \"#utility.yul\":3466:3498   */\n      calldataload\n        /* \"#utility.yul\":3525:3543   */\n      0xffffffffffffffff\n        /* \"#utility.yul\":3517:3523   */\n      dup2\n        /* \"#utility.yul\":3514:3544   */\n      gt\n        /* \"#utility.yul\":3511:3628   */\n      iszero\n      tag_380\n      jumpi\n        /* \"#utility.yul\":3547:3626   */\n      tag_381\n      tag_378\n      jump\t// in\n    tag_381:\n        /* \"#utility.yul\":3511:3628   */\n    tag_380:\n        /* \"#utility.yul\":3652:3715   */\n      tag_382\n        /* \"#utility.yul\":3707:3714   */\n      dup10\n        /* \"#utility.yul\":3698:3704   */\n      dup3\n        /* \"#utility.yul\":3687:3696   */\n      dup11\n        /* \"#utility.yul\":3683:3705   */\n      add\n        /* \"#utility.yul\":3652:3715   */\n      tag_345\n      jump\t// in\n    tag_382:\n        /* \"#utility.yul\":3642:3715   */\n      swap6\n      pop\n        /* \"#utility.yul\":3437:3725   */\n      pop\n        /* \"#utility.yul\":3764:3766   */\n      0x40\n        /* \"#utility.yul\":3790:3851   */\n      tag_383\n        /* \"#utility.yul\":3843:3850   */\n      dup10\n        /* \"#utility.yul\":3834:3840   */\n      dup3\n        /* \"#utility.yul\":3823:3832   */\n      dup11\n        /* \"#utility.yul\":3819:3841   */\n      add\n        /* \"#utility.yul\":3790:3851   */\n      tag_333\n      jump\t// in\n    tag_383:\n        /* \"#utility.yul\":3780:3851   */\n      swap5\n      pop\n        /* \"#utility.yul\":3735:3861   */\n      pop\n        /* \"#utility.yul\":3900:3902   */\n      0x60\n        /* \"#utility.yul\":3926:3979   */\n      tag_384\n        /* \"#utility.yul\":3971:3978   */\n      dup10\n        /* \"#utility.yul\":3962:3968   */\n      dup3\n        /* \"#utility.yul\":3951:3960   */\n      dup11\n        /* \"#utility.yul\":3947:3969   */\n      add\n        /* \"#utility.yul\":3926:3979   */\n      tag_351\n      jump\t// in\n    tag_384:\n        /* \"#utility.yul\":3916:3979   */\n      swap4\n      pop\n        /* \"#utility.yul\":3871:3989   */\n      pop\n        /* \"#utility.yul\":4056:4059   */\n      0x80\n        /* \"#utility.yul\":4045:4054   */\n      dup8\n        /* \"#utility.yul\":4041:4060   */\n      add\n        /* \"#utility.yul\":4028:4061   */\n      calldataload\n        /* \"#utility.yul\":4088:4106   */\n      0xffffffffffffffff\n        /* \"#utility.yul\":4080:4086   */\n      dup2\n        /* \"#utility.yul\":4077:4107   */\n      gt\n        /* \"#utility.yul\":4074:4191   */\n      iszero\n      tag_385\n      jumpi\n        /* \"#utility.yul\":4110:4189   */\n      tag_386\n      tag_378\n      jump\t// in\n    tag_386:\n        /* \"#utility.yul\":4074:4191   */\n    tag_385:\n        /* \"#utility.yul\":4215:4278   */\n      tag_387\n        /* \"#utility.yul\":4270:4277   */\n      dup10\n        /* \"#utility.yul\":4261:4267   */\n      dup3\n        /* \"#utility.yul\":4250:4259   */\n      dup11\n        /* \"#utility.yul\":4246:4268   */\n      add\n        /* \"#utility.yul\":4215:4278   */\n      tag_345\n      jump\t// in\n    tag_387:\n        /* \"#utility.yul\":4205:4278   */\n      swap3\n      pop\n        /* \"#utility.yul\":3999:4288   */\n      pop\n        /* \"#utility.yul\":4327:4330   */\n      0xa0\n        /* \"#utility.yul\":4354:4405   */\n      tag_388\n        /* \"#utility.yul\":4397:4404   */\n      dup10\n        /* \"#utility.yul\":4388:4394   */\n      dup3\n        /* \"#utility.yul\":4377:4386   */\n      dup11\n        /* \"#utility.yul\":4373:4395   */\n      add\n        /* \"#utility.yul\":4354:4405   */\n      tag_355\n      jump\t// in\n    tag_388:\n        /* \"#utility.yul\":4344:4405   */\n      swap2\n      pop\n        /* \"#utility.yul\":4298:4415   */\n      pop\n        /* \"#utility.yul\":2813:4422   */\n      swap3\n      swap6\n      pop\n      swap3\n      swap6\n      pop\n      swap3\n      swap6\n      jump\t// out\n        /* \"#utility.yul\":4428:4757   */\n    tag_64:\n        /* \"#utility.yul\":4487:4493   */\n      0x00\n        /* \"#utility.yul\":4536:4538   */\n      0x20\n        /* \"#utility.yul\":4524:4533   */\n      dup3\n        /* \"#utility.yul\":4515:4522   */\n      dup5\n        /* \"#utility.yul\":4511:4534   */\n      sub\n        /* \"#utility.yul\":4507:4539   */\n      slt\n        /* \"#utility.yul\":4504:4623   */\n      iszero\n      tag_390\n      jumpi\n        /* \"#utility.yul\":4542:4621   */\n      tag_391\n      tag_362\n      jump\t// in\n    tag_391:\n        /* \"#utility.yul\":4504:4623   */\n    tag_390:\n        /* \"#utility.yul\":4662:4663   */\n      0x00\n        /* \"#utility.yul\":4687:4740   */\n      tag_392\n        /* \"#utility.yul\":4732:4739   */\n      dup5\n        /* \"#utility.yul\":4723:4729   */\n      dup3\n        /* \"#utility.yul\":4712:4721   */\n      dup6\n        /* \"#utility.yul\":4708:4730   */\n      add\n        /* \"#utility.yul\":4687:4740   */\n      tag_351\n      jump\t// in\n    tag_392:\n        /* \"#utility.yul\":4677:4740   */\n      swap2\n      pop\n        /* \"#utility.yul\":4633:4750   */\n      pop\n        /* \"#utility.yul\":4428:4757   */\n      swap3\n      swap2\n      pop\n      pop\n      jump\t// out\n        /* \"#utility.yul\":4763:5237   */\n    tag_123:\n        /* \"#utility.yul\":4831:4837   */\n      0x00\n        /* \"#utility.yul\":4839:4845   */\n      dup1\n        /* \"#utility.yul\":4888:4890   */\n      0x40\n        /* \"#utility.yul\":4876:4885   */\n      dup4\n        /* \"#utility.yul\":4867:4874   */\n      dup6\n        /* \"#utility.yul\":4863:4886   */\n      sub\n        /* \"#utility.yul\":4859:4891   */\n      slt\n        /* \"#utility.yul\":4856:4975   */\n      iszero\n      tag_394\n      jumpi\n        /* \"#utility.yul\":4894:4973   */\n      tag_395\n      tag_362\n      jump\t// in\n    tag_395:\n        /* \"#utility.yul\":4856:4975   */\n    tag_394:\n        /* \"#utility.yul\":5014:5015   */\n      0x00\n        /* \"#utility.yul\":5039:5092   */\n      tag_396\n        /* \"#utility.yul\":5084:5091   */\n      dup6\n        /* \"#utility.yul\":5075:5081   */\n      dup3\n        /* \"#utility.yul\":5064:5073   */\n      dup7\n        /* \"#utility.yul\":5060:5082   */\n      add\n        /* \"#utility.yul\":5039:5092   */\n      tag_351\n      jump\t// in\n    tag_396:\n        /* \"#utility.yul\":5029:5092   */\n      swap3\n      pop\n        /* \"#utility.yul\":4985:5102   */\n      pop\n        /* \"#utility.yul\":5141:5143   */\n      0x20\n        /* \"#utility.yul\":5167:5220   */\n      tag_397\n        /* \"#utility.yul\":5212:5219   */\n      dup6\n        /* \"#utility.yul\":5203:5209   */\n      dup3\n        /* \"#utility.yul\":5192:5201   */\n      dup7\n        /* \"#utility.yul\":5188:5210   */\n      add\n        /* \"#utility.yul\":5167:5220   */\n      tag_329\n      jump\t// in\n    tag_397:\n        /* \"#utility.yul\":5157:5220   */\n      swap2\n      pop\n        /* \"#utility.yul\":5112:5230   */\n      pop\n        /* \"#utility.yul\":4763:5237   */\n      swap3\n      pop\n      swap3\n      swap1\n      pop\n      jump\t// out\n        /* \"#utility.yul\":5243:5897   */\n    tag_77:\n        /* \"#utility.yul\":5321:5327   */\n      0x00\n        /* \"#utility.yul\":5329:5335   */\n      dup1\n        /* \"#utility.yul\":5378:5380   */\n      0x40\n        /* \"#utility.yul\":5366:5375   */\n      dup4\n        /* \"#utility.yul\":5357:5364   */\n      dup6\n        /* \"#utility.yul\":5353:5376   */\n      sub\n        /* \"#utility.yul\":5349:5381   */\n      slt\n        /* \"#utility.yul\":5346:5465   */\n      iszero\n      tag_399\n      jumpi\n        /* \"#utility.yul\":5384:5463   */\n      tag_400\n      tag_362\n      jump\t// in\n    tag_400:\n        /* \"#utility.yul\":5346:5465   */\n    tag_399:\n        /* \"#utility.yul\":5504:5505   */\n      0x00\n        /* \"#utility.yul\":5529:5582   */\n      tag_401\n        /* \"#utility.yul\":5574:5581   */\n      dup6\n        /* \"#utility.yul\":5565:5571   */\n      dup3\n        /* \"#utility.yul\":5554:5563   */\n      dup7\n        /* \"#utility.yul\":5550:5572   */\n      add\n        /* \"#utility.yul\":5529:5582   */\n      tag_351\n      jump\t// in\n    tag_401:\n        /* \"#utility.yul\":5519:5582   */\n      swap3\n      pop\n        /* \"#utility.yul\":5475:5592   */\n      pop\n        /* \"#utility.yul\":5659:5661   */\n      0x20\n        /* \"#utility.yul\":5648:5657   */\n      dup4\n        /* \"#utility.yul\":5644:5662   */\n      add\n        /* \"#utility.yul\":5631:5663   */\n      calldataload\n        /* \"#utility.yul\":5690:5708   */\n      0xffffffffffffffff\n        /* \"#utility.yul\":5682:5688   */\n      dup2\n        /* \"#utility.yul\":5679:5709   */\n      gt\n        /* \"#utility.yul\":5676:5793   */\n      iszero\n      tag_402\n      jumpi\n        /* \"#utility.yul\":5712:5791   */\n      tag_403\n      tag_378\n      jump\t// in\n    tag_403:\n        /* \"#utility.yul\":5676:5793   */\n    tag_402:\n        /* \"#utility.yul\":5817:5880   */\n      tag_404\n        /* \"#utility.yul\":5872:5879   */\n      dup6\n        /* \"#utility.yul\":5863:5869   */\n      dup3\n        /* \"#utility.yul\":5852:5861   */\n      dup7\n        /* \"#utility.yul\":5848:5870   */\n      add\n        /* \"#utility.yul\":5817:5880   */\n      tag_345\n      jump\t// in\n    tag_404:\n        /* \"#utility.yul\":5807:5880   */\n      swap2\n      pop\n        /* \"#utility.yul\":5602:5890   */\n      pop\n        /* \"#utility.yul\":5243:5897   */\n      swap3\n      pop\n      swap3\n      swap1\n      pop\n      jump\t// out\n        /* \"#utility.yul\":5903:6377   */\n    tag_96:\n        /* \"#utility.yul\":5971:5977   */\n      0x00\n        /* \"#utility.yul\":5979:5985   */\n      dup1\n        /* \"#utility.yul\":6028:6030   */\n      0x40\n        /* \"#utility.yul\":6016:6025   */\n      dup4\n        /* \"#utility.yul\":6007:6014   */\n      dup6\n        /* \"#utility.yul\":6003:6026   */\n      sub\n        /* \"#utility.yul\":5999:6031   */\n      slt\n        /* \"#utility.yul\":5996:6115   */\n      iszero\n      tag_406\n      jumpi\n        /* \"#utility.yul\":6034:6113   */\n      tag_407\n      tag_362\n      jump\t// in\n    tag_407:\n        /* \"#utility.yul\":5996:6115   */\n    tag_406:\n        /* \"#utility.yul\":6154:6155   */\n      0x00\n        /* \"#utility.yul\":6179:6232   */\n      tag_408\n        /* \"#utility.yul\":6224:6231   */\n      dup6\n        /* \"#utility.yul\":6215:6221   */\n      dup3\n        /* \"#utility.yul\":6204:6213   */\n      dup7\n        /* \"#utility.yul\":6200:6222   */\n      add\n        /* \"#utility.yul\":6179:6232   */\n      tag_351\n      jump\t// in\n    tag_408:\n        /* \"#utility.yul\":6169:6232   */\n      swap3\n      pop\n        /* \"#utility.yul\":6125:6242   */\n      pop\n        /* \"#utility.yul\":6281:6283   */\n      0x20\n        /* \"#utility.yul\":6307:6360   */\n      tag_409\n        /* \"#utility.yul\":6352:6359   */\n      dup6\n        /* \"#utility.yul\":6343:6349   */\n      dup3\n        /* \"#utility.yul\":6332:6341   */\n      dup7\n        /* \"#utility.yul\":6328:6350   */\n      add\n        /* \"#utility.yul\":6307:6360   */\n      tag_351\n      jump\t// in\n    tag_409:\n        /* \"#utility.yul\":6297:6360   */\n      swap2\n      pop\n        /* \"#utility.yul\":6252:6370   */\n      pop\n        /* \"#utility.yul\":5903:6377   */\n      swap3\n      pop\n      swap3\n      swap1\n      pop\n      jump\t// out\n        /* \"#utility.yul\":6383:6853   */\n    tag_35:\n        /* \"#utility.yul\":6449:6455   */\n      0x00\n        /* \"#utility.yul\":6457:6463   */\n      dup1\n        /* \"#utility.yul\":6506:6508   */\n      0x40\n        /* \"#utility.yul\":6494:6503   */\n      dup4\n        /* \"#utility.yul\":6485:6492   */\n      dup6\n        /* \"#utility.yul\":6481:6504   */\n      sub\n        /* \"#utility.yul\":6477:6509   */\n      slt\n        /* \"#utility.yul\":6474:6593   */\n      iszero\n      tag_411\n      jumpi\n        /* \"#utility.yul\":6512:6591   */\n      tag_412\n      tag_362\n      jump\t// in\n    tag_412:\n        /* \"#utility.yul\":6474:6593   */\n    tag_411:\n        /* \"#utility.yul\":6632:6633   */\n      0x00\n        /* \"#utility.yul\":6657:6710   */\n      tag_413\n        /* \"#utility.yul\":6702:6709   */\n      dup6\n        /* \"#utility.yul\":6693:6699   */\n      dup3\n        /* \"#utility.yul\":6682:6691   */\n      dup7\n        /* \"#utility.yul\":6678:6700   */\n      add\n        /* \"#utility.yul\":6657:6710   */\n      tag_351\n      jump\t// in\n    tag_413:\n        /* \"#utility.yul\":6647:6710   */\n      swap3\n      pop\n        /* \"#utility.yul\":6603:6720   */\n      pop\n        /* \"#utility.yul\":6759:6761   */\n      0x20\n        /* \"#utility.yul\":6785:6836   */\n      tag_414\n        /* \"#utility.yul\":6828:6835   */\n      dup6\n        /* \"#utility.yul\":6819:6825   */\n      dup3\n        /* \"#utility.yul\":6808:6817   */\n      dup7\n        /* \"#utility.yul\":6804:6826   */\n      add\n        /* \"#utility.yul\":6785:6836   */\n      tag_355\n      jump\t// in\n    tag_414:\n        /* \"#utility.yul\":6775:6836   */\n      swap2\n      pop\n        /* \"#utility.yul\":6730:6846   */\n      pop\n        /* \"#utility.yul\":6383:6853   */\n      swap3\n      pop\n      swap3\n      swap1\n      pop\n      jump\t// out\n        /* \"#utility.yul\":6859:7006   */\n    tag_415:\n        /* \"#utility.yul\":6954:6999   */\n      tag_417\n        /* \"#utility.yul\":6993:6998   */\n      dup2\n        /* \"#utility.yul\":6954:6999   */\n      tag_418\n      jump\t// in\n    tag_417:\n        /* \"#utility.yul\":6949:6952   */\n      dup3\n        /* \"#utility.yul\":6942:7000   */\n      mstore\n        /* \"#utility.yul\":6859:7006   */\n      pop\n      pop\n      jump\t// out\n        /* \"#utility.yul\":7012:7154   */\n    tag_419:\n        /* \"#utility.yul\":7115:7147   */\n      tag_421\n        /* \"#utility.yul\":7141:7146   */\n      dup2\n        /* \"#utility.yul\":7115:7147   */\n      tag_422\n      jump\t// in\n    tag_421:\n        /* \"#utility.yul\":7110:7113   */\n      dup3\n        /* \"#utility.yul\":7103:7148   */\n      mstore\n        /* \"#utility.yul\":7012:7154   */\n      pop\n      pop\n      jump\t// out\n        /* \"#utility.yul\":7160:7278   */\n    tag_423:\n        /* \"#utility.yul\":7247:7271   */\n      tag_425\n        /* \"#utility.yul\":7265:7270   */\n      dup2\n        /* \"#utility.yul\":7247:7271   */\n      tag_426\n      jump\t// in\n    tag_425:\n        /* \"#utility.yul\":7242:7245   */\n      dup3\n        /* \"#utility.yul\":7235:7272   */\n      mstore\n        /* \"#utility.yul\":7160:7278   */\n      pop\n      pop\n      jump\t// out\n        /* \"#utility.yul\":7284:7393   */\n    tag_427:\n        /* \"#utility.yul\":7365:7386   */\n      tag_429\n        /* \"#utility.yul\":7380:7385   */\n      dup2\n        /* \"#utility.yul\":7365:7386   */\n      tag_430\n      jump\t// in\n    tag_429:\n        /* \"#utility.yul\":7360:7363   */\n      dup3\n        /* \"#utility.yul\":7353:7387   */\n      mstore\n        /* \"#utility.yul\":7284:7393   */\n      pop\n      pop\n      jump\t// out\n        /* \"#utility.yul\":7399:7517   */\n    tag_431:\n        /* \"#utility.yul\":7486:7510   */\n      tag_433\n        /* \"#utility.yul\":7504:7509   */\n      dup2\n        /* \"#utility.yul\":7486:7510   */\n      tag_434\n      jump\t// in\n    tag_433:\n        /* \"#utility.yul\":7481:7484   */\n      dup3\n        /* \"#utility.yul\":7474:7511   */\n      mstore\n        /* \"#utility.yul\":7399:7517   */\n      pop\n      pop\n      jump\t// out\n        /* \"#utility.yul\":7523:7887   */\n    tag_435:\n        /* \"#utility.yul\":7611:7614   */\n      0x00\n        /* \"#utility.yul\":7639:7678   */\n      tag_437\n        /* \"#utility.yul\":7672:7677   */\n      dup3\n        /* \"#utility.yul\":7639:7678   */\n      tag_438\n      jump\t// in\n    tag_437:\n        /* \"#utility.yul\":7694:7765   */\n      tag_439\n        /* \"#utility.yul\":7758:7764   */\n      dup2\n        /* \"#utility.yul\":7753:7756   */\n      dup6\n        /* \"#utility.yul\":7694:7765   */\n      tag_440\n      jump\t// in\n    tag_439:\n        /* \"#utility.yul\":7687:7765   */\n      swap4\n      pop\n        /* \"#utility.yul\":7774:7826   */\n      tag_441\n        /* \"#utility.yul\":7819:7825   */\n      dup2\n        /* \"#utility.yul\":7814:7817   */\n      dup6\n        /* \"#utility.yul\":7807:7811   */\n      0x20\n        /* \"#utility.yul\":7800:7805   */\n      dup7\n        /* \"#utility.yul\":7796:7812   */\n      add\n        /* \"#utility.yul\":7774:7826   */\n      tag_442\n      jump\t// in\n    tag_441:\n        /* \"#utility.yul\":7851:7880   */\n      tag_443\n        /* \"#utility.yul\":7873:7879   */\n      dup2\n        /* \"#utility.yul\":7851:7880   */\n      tag_444\n      jump\t// in\n    tag_443:\n        /* \"#utility.yul\":7846:7849   */\n      dup5\n        /* \"#utility.yul\":7842:7881   */\n      add\n        /* \"#utility.yul\":7835:7881   */\n      swap2\n      pop\n        /* \"#utility.yul\":7615:7887   */\n      pop\n        /* \"#utility.yul\":7523:7887   */\n      swap3\n      swap2\n      pop\n      pop\n      jump\t// out\n        /* \"#utility.yul\":7893:8270   */\n    tag_445:\n        /* \"#utility.yul\":7999:8002   */\n      0x00\n        /* \"#utility.yul\":8027:8066   */\n      tag_447\n        /* \"#utility.yul\":8060:8065   */\n      dup3\n        /* \"#utility.yul\":8027:8066   */\n      tag_438\n      jump\t// in\n    tag_447:\n        /* \"#utility.yul\":8082:8171   */\n      tag_448\n        /* \"#utility.yul\":8164:8170   */\n      dup2\n        /* \"#utility.yul\":8159:8162   */\n      dup6\n        /* \"#utility.yul\":8082:8171   */\n      tag_449\n      jump\t// in\n    tag_448:\n        /* \"#utility.yul\":8075:8171   */\n      swap4\n      pop\n        /* \"#utility.yul\":8180:8232   */\n      tag_450\n        /* \"#utility.yul\":8225:8231   */\n      dup2\n        /* \"#utility.yul\":8220:8223   */\n      dup6\n        /* \"#utility.yul\":8213:8217   */\n      0x20\n        /* \"#utility.yul\":8206:8211   */\n      dup7\n        /* \"#utility.yul\":8202:8218   */\n      add\n        /* \"#utility.yul\":8180:8232   */\n      tag_442\n      jump\t// in\n    tag_450:\n        /* \"#utility.yul\":8257:8263   */\n      dup1\n        /* \"#utility.yul\":8252:8255   */\n      dup5\n        /* \"#utility.yul\":8248:8264   */\n      add\n        /* \"#utility.yul\":8241:8264   */\n      swap2\n      pop\n        /* \"#utility.yul\":8003:8270   */\n      pop\n        /* \"#utility.yul\":7893:8270   */\n      swap3\n      swap2\n      pop\n      pop\n      jump\t// out\n        /* \"#utility.yul\":8276:8642   */\n    tag_451:\n        /* \"#utility.yul\":8418:8421   */\n      0x00\n        /* \"#utility.yul\":8439:8506   */\n      tag_453\n        /* \"#utility.yul\":8503:8505   */\n      0x1f\n        /* \"#utility.yul\":8498:8501   */\n      dup4\n        /* \"#utility.yul\":8439:8506   */\n      tag_440\n      jump\t// in\n    tag_453:\n        /* \"#utility.yul\":8432:8506   */\n      swap2\n      pop\n        /* \"#utility.yul\":8515:8608   */\n      tag_454\n        /* \"#utility.yul\":8604:8607   */\n      dup3\n        /* \"#utility.yul\":8515:8608   */\n      tag_455\n      jump\t// in\n    tag_454:\n        /* \"#utility.yul\":8633:8635   */\n      0x20\n        /* \"#utility.yul\":8628:8631   */\n      dup3\n        /* \"#utility.yul\":8624:8636   */\n      add\n        /* \"#utility.yul\":8617:8636   */\n      swap1\n      pop\n        /* \"#utility.yul\":8276:8642   */\n      swap2\n      swap1\n      pop\n      jump\t// out\n        /* \"#utility.yul\":8648:9014   */\n    tag_456:\n        /* \"#utility.yul\":8790:8793   */\n      0x00\n        /* \"#utility.yul\":8811:8878   */\n      tag_458\n        /* \"#utility.yul\":8875:8877   */\n      0x3d\n        /* \"#utility.yul\":8870:8873   */\n      dup4\n        /* \"#utility.yul\":8811:8878   */\n      tag_440\n      jump\t// in\n    tag_458:\n        /* \"#utility.yul\":8804:8878   */\n      swap2\n      pop\n        /* \"#utility.yul\":8887:8980   */\n      tag_459\n        /* \"#utility.yul\":8976:8979   */\n      dup3\n        /* \"#utility.yul\":8887:8980   */\n      tag_460\n      jump\t// in\n    tag_459:\n        /* \"#utility.yul\":9005:9007   */\n      0x40\n        /* \"#utility.yul\":9000:9003   */\n      dup3\n        /* \"#utility.yul\":8996:9008   */\n      add\n        /* \"#utility.yul\":8989:9008   */\n      swap1\n      pop\n        /* \"#utility.yul\":8648:9014   */\n      swap2\n      swap1\n      pop\n      jump\t// out\n        /* \"#utility.yul\":9020:9386   */\n    tag_461:\n        /* \"#utility.yul\":9162:9165   */\n      0x00\n        /* \"#utility.yul\":9183:9250   */\n      tag_463\n        /* \"#utility.yul\":9247:9249   */\n      0x20\n        /* \"#utility.yul\":9242:9245   */\n      dup4\n        /* \"#utility.yul\":9183:9250   */\n      tag_440\n      jump\t// in\n    tag_463:\n        /* \"#utility.yul\":9176:9250   */\n      swap2\n      pop\n        /* \"#utility.yul\":9259:9352   */\n      tag_464\n        /* \"#utility.yul\":9348:9351   */\n      dup3\n        /* \"#utility.yul\":9259:9352   */\n      tag_465\n      jump\t// in\n    tag_464:\n        /* \"#utility.yul\":9377:9379   */\n      0x20\n        /* \"#utility.yul\":9372:9375   */\n      dup3\n        /* \"#utility.yul\":9368:9380   */\n      add\n        /* \"#utility.yul\":9361:9380   */\n      swap1\n      pop\n        /* \"#utility.yul\":9020:9386   */\n      swap2\n      swap1\n      pop\n      jump\t// out\n        /* \"#utility.yul\":9392:9758   */\n    tag_466:\n        /* \"#utility.yul\":9534:9537   */\n      0x00\n        /* \"#utility.yul\":9555:9622   */\n      tag_468\n        /* \"#utility.yul\":9619:9621   */\n      0x14\n        /* \"#utility.yul\":9614:9617   */\n      dup4\n        /* \"#utility.yul\":9555:9622   */\n      tag_440\n      jump\t// in\n    tag_468:\n        /* \"#utility.yul\":9548:9622   */\n      swap2\n      pop\n        /* \"#utility.yul\":9631:9724   */\n      tag_469\n        /* \"#utility.yul\":9720:9723   */\n      dup3\n        /* \"#utility.yul\":9631:9724   */\n      tag_470\n      jump\t// in\n    tag_469:\n        /* \"#utility.yul\":9749:9751   */\n      0x20\n        /* \"#utility.yul\":9744:9747   */\n      dup3\n        /* \"#utility.yul\":9740:9752   */\n      add\n        /* \"#utility.yul\":9733:9752   */\n      swap1\n      pop\n        /* \"#utility.yul\":9392:9758   */\n      swap2\n      swap1\n      pop\n      jump\t// out\n        /* \"#utility.yul\":9764:10130   */\n    tag_471:\n        /* \"#utility.yul\":9906:9909   */\n      0x00\n        /* \"#utility.yul\":9927:9994   */\n      tag_473\n        /* \"#utility.yul\":9991:9993   */\n      0x27\n        /* \"#utility.yul\":9986:9989   */\n      dup4\n        /* \"#utility.yul\":9927:9994   */\n      tag_440\n      jump\t// in\n    tag_473:\n        /* \"#utility.yul\":9920:9994   */\n      swap2\n      pop\n        /* \"#utility.yul\":10003:10096   */\n      tag_474\n        /* \"#utility.yul\":10092:10095   */\n      dup3\n        /* \"#utility.yul\":10003:10096   */\n      tag_475\n      jump\t// in\n    tag_474:\n        /* \"#utility.yul\":10121:10123   */\n      0x40\n        /* \"#utility.yul\":10116:10119   */\n      dup3\n        /* \"#utility.yul\":10112:10124   */\n      add\n        /* \"#utility.yul\":10105:10124   */\n      swap1\n      pop\n        /* \"#utility.yul\":9764:10130   */\n      swap2\n      swap1\n      pop\n      jump\t// out\n        /* \"#utility.yul\":10136:10502   */\n    tag_476:\n        /* \"#utility.yul\":10278:10281   */\n      0x00\n        /* \"#utility.yul\":10299:10366   */\n      tag_478\n        /* \"#utility.yul\":10363:10365   */\n      0x24\n        /* \"#utility.yul\":10358:10361   */\n      dup4\n        /* \"#utility.yul\":10299:10366   */\n      tag_440\n      jump\t// in\n    tag_478:\n        /* \"#utility.yul\":10292:10366   */\n      swap2\n      pop\n        /* \"#utility.yul\":10375:10468   */\n      tag_479\n        /* \"#utility.yul\":10464:10467   */\n      dup3\n        /* \"#utility.yul\":10375:10468   */\n      tag_480\n      jump\t// in\n    tag_479:\n        /* \"#utility.yul\":10493:10495   */\n      0x40\n        /* \"#utility.yul\":10488:10491   */\n      dup3\n        /* \"#utility.yul\":10484:10496   */\n      add\n        /* \"#utility.yul\":10477:10496   */\n      swap1\n      pop\n        /* \"#utility.yul\":10136:10502   */\n      swap2\n      swap1\n      pop\n      jump\t// out\n        /* \"#utility.yul\":10508:10874   */\n    tag_481:\n        /* \"#utility.yul\":10650:10653   */\n      0x00\n        /* \"#utility.yul\":10671:10738   */\n      tag_483\n        /* \"#utility.yul\":10735:10737   */\n      0x2a\n        /* \"#utility.yul\":10730:10733   */\n      dup4\n        /* \"#utility.yul\":10671:10738   */\n      tag_440\n      jump\t// in\n    tag_483:\n        /* \"#utility.yul\":10664:10738   */\n      swap2\n      pop\n        /* \"#utility.yul\":10747:10840   */\n      tag_484\n        /* \"#utility.yul\":10836:10839   */\n      dup3\n        /* \"#utility.yul\":10747:10840   */\n      tag_485\n      jump\t// in\n    tag_484:\n        /* \"#utility.yul\":10865:10867   */\n      0x40\n        /* \"#utility.yul\":10860:10863   */\n      dup3\n        /* \"#utility.yul\":10856:10868   */\n      add\n        /* \"#utility.yul\":10849:10868   */\n      swap1\n      pop\n        /* \"#utility.yul\":10508:10874   */\n      swap2\n      swap1\n      pop\n      jump\t// out\n        /* \"#utility.yul\":10880:11246   */\n    tag_486:\n        /* \"#utility.yul\":11022:11025   */\n      0x00\n        /* \"#utility.yul\":11043:11110   */\n      tag_488\n        /* \"#utility.yul\":11107:11109   */\n      0x21\n        /* \"#utility.yul\":11102:11105   */\n      dup4\n        /* \"#utility.yul\":11043:11110   */\n      tag_440\n      jump\t// in\n    tag_488:\n        /* \"#utility.yul\":11036:11110   */\n      swap2\n      pop\n        /* \"#utility.yul\":11119:11212   */\n      tag_489\n        /* \"#utility.yul\":11208:11211   */\n      dup3\n        /* \"#utility.yul\":11119:11212   */\n      tag_490\n      jump\t// in\n    tag_489:\n        /* \"#utility.yul\":11237:11239   */\n      0x40\n        /* \"#utility.yul\":11232:11235   */\n      dup3\n        /* \"#utility.yul\":11228:11240   */\n      add\n        /* \"#utility.yul\":11221:11240   */\n      swap1\n      pop\n        /* \"#utility.yul\":10880:11246   */\n      swap2\n      swap1\n      pop\n      jump\t// out\n        /* \"#utility.yul\":11252:11618   */\n    tag_491:\n        /* \"#utility.yul\":11394:11397   */\n      0x00\n        /* \"#utility.yul\":11415:11482   */\n      tag_493\n        /* \"#utility.yul\":11479:11481   */\n      0x28\n        /* \"#utility.yul\":11474:11477   */\n      dup4\n        /* \"#utility.yul\":11415:11482   */\n      tag_440\n      jump\t// in\n    tag_493:\n        /* \"#utility.yul\":11408:11482   */\n      swap2\n      pop\n        /* \"#utility.yul\":11491:11584   */\n      tag_494\n        /* \"#utility.yul\":11580:11583   */\n      dup3\n        /* \"#utility.yul\":11491:11584   */\n      tag_495\n      jump\t// in\n    tag_494:\n        /* \"#utility.yul\":11609:11611   */\n      0x40\n        /* \"#utility.yul\":11604:11607   */\n      dup3\n        /* \"#utility.yul\":11600:11612   */\n      add\n        /* \"#utility.yul\":11593:11612   */\n      swap1\n      pop\n        /* \"#utility.yul\":11252:11618   */\n      swap2\n      swap1\n      pop\n      jump\t// out\n        /* \"#utility.yul\":11624:11990   */\n    tag_496:\n        /* \"#utility.yul\":11766:11769   */\n      0x00\n        /* \"#utility.yul\":11787:11854   */\n      tag_498\n        /* \"#utility.yul\":11851:11853   */\n      0x28\n        /* \"#utility.yul\":11846:11849   */\n      dup4\n        /* \"#utility.yul\":11787:11854   */\n      tag_440\n      jump\t// in\n    tag_498:\n        /* \"#utility.yul\":11780:11854   */\n      swap2\n      pop\n        /* \"#utility.yul\":11863:11956   */\n      tag_499\n        /* \"#utility.yul\":11952:11955   */\n      dup3\n        /* \"#utility.yul\":11863:11956   */\n      tag_500\n      jump\t// in\n    tag_499:\n        /* \"#utility.yul\":11981:11983   */\n      0x40\n        /* \"#utility.yul\":11976:11979   */\n      dup3\n        /* \"#utility.yul\":11972:11984   */\n      add\n        /* \"#utility.yul\":11965:11984   */\n      swap1\n      pop\n        /* \"#utility.yul\":11624:11990   */\n      swap2\n      swap1\n      pop\n      jump\t// out\n        /* \"#utility.yul\":11996:12362   */\n    tag_501:\n        /* \"#utility.yul\":12138:12141   */\n      0x00\n        /* \"#utility.yul\":12159:12226   */\n      tag_503\n        /* \"#utility.yul\":12223:12225   */\n      0x28\n        /* \"#utility.yul\":12218:12221   */\n      dup4\n        /* \"#utility.yul\":12159:12226   */\n      tag_440\n      jump\t// in\n    tag_503:\n        /* \"#utility.yul\":12152:12226   */\n      swap2\n      pop\n        /* \"#utility.yul\":12235:12328   */\n      tag_504\n        /* \"#utility.yul\":12324:12327   */\n      dup3\n        /* \"#utility.yul\":12235:12328   */\n      tag_505\n      jump\t// in\n    tag_504:\n        /* \"#utility.yul\":12353:12355   */\n      0x40\n        /* \"#utility.yul\":12348:12351   */\n      dup3\n        /* \"#utility.yul\":12344:12356   */\n      add\n        /* \"#utility.yul\":12337:12356   */\n      swap1\n      pop\n        /* \"#utility.yul\":11996:12362   */\n      swap2\n      swap1\n      pop\n      jump\t// out\n        /* \"#utility.yul\":12368:12734   */\n    tag_506:\n        /* \"#utility.yul\":12510:12513   */\n      0x00\n        /* \"#utility.yul\":12531:12598   */\n      tag_508\n        /* \"#utility.yul\":12595:12597   */\n      0x16\n        /* \"#utility.yul\":12590:12593   */\n      dup4\n        /* \"#utility.yul\":12531:12598   */\n      tag_440\n      jump\t// in\n    tag_508:\n        /* \"#utility.yul\":12524:12598   */\n      swap2\n      pop\n        /* \"#utility.yul\":12607:12700   */\n      tag_509\n        /* \"#utility.yul\":12696:12699   */\n      dup3\n        /* \"#utility.yul\":12607:12700   */\n      tag_510\n      jump\t// in\n    tag_509:\n        /* \"#utility.yul\":12725:12727   */\n      0x20\n        /* \"#utility.yul\":12720:12723   */\n      dup3\n        /* \"#utility.yul\":12716:12728   */\n      add\n        /* \"#utility.yul\":12709:12728   */\n      swap1\n      pop\n        /* \"#utility.yul\":12368:12734   */\n      swap2\n      swap1\n      pop\n      jump\t// out\n        /* \"#utility.yul\":12740:13106   */\n    tag_511:\n        /* \"#utility.yul\":12882:12885   */\n      0x00\n        /* \"#utility.yul\":12903:12970   */\n      tag_513\n        /* \"#utility.yul\":12967:12969   */\n      0x25\n        /* \"#utility.yul\":12962:12965   */\n      dup4\n        /* \"#utility.yul\":12903:12970   */\n      tag_440\n      jump\t// in\n    tag_513:\n        /* \"#utility.yul\":12896:12970   */\n      swap2\n      pop\n        /* \"#utility.yul\":12979:13072   */\n      tag_514\n        /* \"#utility.yul\":13068:13071   */\n      dup3\n        /* \"#utility.yul\":12979:13072   */\n      tag_515\n      jump\t// in\n    tag_514:\n        /* \"#utility.yul\":13097:13099   */\n      0x40\n        /* \"#utility.yul\":13092:13095   */\n      dup3\n        /* \"#utility.yul\":13088:13100   */\n      add\n        /* \"#utility.yul\":13081:13100   */\n      swap1\n      pop\n        /* \"#utility.yul\":12740:13106   */\n      swap2\n      swap1\n      pop\n      jump\t// out\n        /* \"#utility.yul\":13112:13514   */\n    tag_516:\n        /* \"#utility.yul\":13272:13275   */\n      0x00\n        /* \"#utility.yul\":13293:13378   */\n      tag_518\n        /* \"#utility.yul\":13375:13377   */\n      0x17\n        /* \"#utility.yul\":13370:13373   */\n      dup4\n        /* \"#utility.yul\":13293:13378   */\n      tag_449\n      jump\t// in\n    tag_518:\n        /* \"#utility.yul\":13286:13378   */\n      swap2\n      pop\n        /* \"#utility.yul\":13387:13480   */\n      tag_519\n        /* \"#utility.yul\":13476:13479   */\n      dup3\n        /* \"#utility.yul\":13387:13480   */\n      tag_520\n      jump\t// in\n    tag_519:\n        /* \"#utility.yul\":13505:13507   */\n      0x17\n        /* \"#utility.yul\":13500:13503   */\n      dup3\n        /* \"#utility.yul\":13496:13508   */\n      add\n        /* \"#utility.yul\":13489:13508   */\n      swap1\n      pop\n        /* \"#utility.yul\":13112:13514   */\n      swap2\n      swap1\n      pop\n      jump\t// out\n        /* \"#utility.yul\":13520:13886   */\n    tag_521:\n        /* \"#utility.yul\":13662:13665   */\n      0x00\n        /* \"#utility.yul\":13683:13750   */\n      tag_523\n        /* \"#utility.yul\":13747:13749   */\n      0x1c\n        /* \"#utility.yul\":13742:13745   */\n      dup4\n        /* \"#utility.yul\":13683:13750   */\n      tag_440\n      jump\t// in\n    tag_523:\n        /* \"#utility.yul\":13676:13750   */\n      swap2\n      pop\n        /* \"#utility.yul\":13759:13852   */\n      tag_524\n        /* \"#utility.yul\":13848:13851   */\n      dup3\n        /* \"#utility.yul\":13759:13852   */\n      tag_525\n      jump\t// in\n    tag_524:\n        /* \"#utility.yul\":13877:13879   */\n      0x20\n        /* \"#utility.yul\":13872:13875   */\n      dup3\n        /* \"#utility.yul\":13868:13880   */\n      add\n        /* \"#utility.yul\":13861:13880   */\n      swap1\n      pop\n        /* \"#utility.yul\":13520:13886   */\n      swap2\n      swap1\n      pop\n      jump\t// out\n        /* \"#utility.yul\":13892:14294   */\n    tag_526:\n        /* \"#utility.yul\":14052:14055   */\n      0x00\n        /* \"#utility.yul\":14073:14158   */\n      tag_528\n        /* \"#utility.yul\":14155:14157   */\n      0x11\n        /* \"#utility.yul\":14150:14153   */\n      dup4\n        /* \"#utility.yul\":14073:14158   */\n      tag_449\n      jump\t// in\n    tag_528:\n        /* \"#utility.yul\":14066:14158   */\n      swap2\n      pop\n        /* \"#utility.yul\":14167:14260   */\n      tag_529\n        /* \"#utility.yul\":14256:14259   */\n      dup3\n        /* \"#utility.yul\":14167:14260   */\n      tag_530\n      jump\t// in\n    tag_529:\n        /* \"#utility.yul\":14285:14287   */\n      0x11\n        /* \"#utility.yul\":14280:14283   */\n      dup3\n        /* \"#utility.yul\":14276:14288   */\n      add\n        /* \"#utility.yul\":14269:14288   */\n      swap1\n      pop\n        /* \"#utility.yul\":13892:14294   */\n      swap2\n      swap1\n      pop\n      jump\t// out\n        /* \"#utility.yul\":14300:14666   */\n    tag_531:\n        /* \"#utility.yul\":14442:14445   */\n      0x00\n        /* \"#utility.yul\":14463:14530   */\n      tag_533\n        /* \"#utility.yul\":14527:14529   */\n      0x2f\n        /* \"#utility.yul\":14522:14525   */\n      dup4\n        /* \"#utility.yul\":14463:14530   */\n      tag_440\n      jump\t// in\n    tag_533:\n        /* \"#utility.yul\":14456:14530   */\n      swap2\n      pop\n        /* \"#utility.yul\":14539:14632   */\n      tag_534\n        /* \"#utility.yul\":14628:14631   */\n      dup3\n        /* \"#utility.yul\":14539:14632   */\n      tag_535\n      jump\t// in\n    tag_534:\n        /* \"#utility.yul\":14657:14659   */\n      0x40\n        /* \"#utility.yul\":14652:14655   */\n      dup3\n        /* \"#utility.yul\":14648:14660   */\n      add\n        /* \"#utility.yul\":14641:14660   */\n      swap1\n      pop\n        /* \"#utility.yul\":14300:14666   */\n      swap2\n      swap1\n      pop\n      jump\t// out\n        /* \"#utility.yul\":14672:14790   */\n    tag_536:\n        /* \"#utility.yul\":14759:14783   */\n      tag_538\n        /* \"#utility.yul\":14777:14782   */\n      dup2\n        /* \"#utility.yul\":14759:14783   */\n      tag_539\n      jump\t// in\n    tag_538:\n        /* \"#utility.yul\":14754:14757   */\n      dup3\n        /* \"#utility.yul\":14747:14784   */\n      mstore\n        /* \"#utility.yul\":14672:14790   */\n      pop\n      pop\n      jump\t// out\n        /* \"#utility.yul\":14796:14908   */\n    tag_540:\n        /* \"#utility.yul\":14879:14901   */\n      tag_542\n        /* \"#utility.yul\":14895:14900   */\n      dup2\n        /* \"#utility.yul\":14879:14901   */\n      tag_543\n      jump\t// in\n    tag_542:\n        /* \"#utility.yul\":14874:14877   */\n      dup3\n        /* \"#utility.yul\":14867:14902   */\n      mstore\n        /* \"#utility.yul\":14796:14908   */\n      pop\n      pop\n      jump\t// out\n        /* \"#utility.yul\":14914:15881   */\n    tag_260:\n        /* \"#utility.yul\":15296:15299   */\n      0x00\n        /* \"#utility.yul\":15318:15466   */\n      tag_545\n        /* \"#utility.yul\":15462:15465   */\n      dup3\n        /* \"#utility.yul\":15318:15466   */\n      tag_516\n      jump\t// in\n    tag_545:\n        /* \"#utility.yul\":15311:15466   */\n      swap2\n      pop\n        /* \"#utility.yul\":15483:15578   */\n      tag_546\n        /* \"#utility.yul\":15574:15577   */\n      dup3\n        /* \"#utility.yul\":15565:15571   */\n      dup6\n        /* \"#utility.yul\":15483:15578   */\n      tag_445\n      jump\t// in\n    tag_546:\n        /* \"#utility.yul\":15476:15578   */\n      swap2\n      pop\n        /* \"#utility.yul\":15595:15743   */\n      tag_547\n        /* \"#utility.yul\":15739:15742   */\n      dup3\n        /* \"#utility.yul\":15595:15743   */\n      tag_526\n      jump\t// in\n    tag_547:\n        /* \"#utility.yul\":15588:15743   */\n      swap2\n      pop\n        /* \"#utility.yul\":15760:15855   */\n      tag_548\n        /* \"#utility.yul\":15851:15854   */\n      dup3\n        /* \"#utility.yul\":15842:15848   */\n      dup5\n        /* \"#utility.yul\":15760:15855   */\n      tag_445\n      jump\t// in\n    tag_548:\n        /* \"#utility.yul\":15753:15855   */\n      swap2\n      pop\n        /* \"#utility.yul\":15872:15875   */\n      dup2\n        /* \"#utility.yul\":15865:15875   */\n      swap1\n      pop\n        /* \"#utility.yul\":14914:15881   */\n      swap4\n      swap3\n      pop\n      pop\n      pop\n      jump\t// out\n        /* \"#utility.yul\":15887:16097   */\n    tag_31:\n        /* \"#utility.yul\":15974:15978   */\n      0x00\n        /* \"#utility.yul\":16012:16014   */\n      0x20\n        /* \"#utility.yul\":16001:16010   */\n      dup3\n        /* \"#utility.yul\":15997:16015   */\n      add\n        /* \"#utility.yul\":15989:16015   */\n      swap1\n      pop\n        /* \"#utility.yul\":16025:16090   */\n      tag_550\n        /* \"#utility.yul\":16087:16088   */\n      0x00\n        /* \"#utility.yul\":16076:16085   */\n      dup4\n        /* \"#utility.yul\":16072:16089   */\n      add\n        /* \"#utility.yul\":16063:16069   */\n      dup5\n        /* \"#utility.yul\":16025:16090   */\n      tag_427\n      jump\t// in\n    tag_550:\n        /* \"#utility.yul\":15887:16097   */\n      swap3\n      swap2\n      pop\n      pop\n      jump\t// out\n        /* \"#utility.yul\":16103:16325   */\n    tag_46:\n        /* \"#utility.yul\":16196:16200   */\n      0x00\n        /* \"#utility.yul\":16234:16236   */\n      0x20\n        /* \"#utility.yul\":16223:16232   */\n      dup3\n        /* \"#utility.yul\":16219:16237   */\n      add\n        /* \"#utility.yul\":16211:16237   */\n      swap1\n      pop\n        /* \"#utility.yul\":16247:16318   */\n      tag_552\n        /* \"#utility.yul\":16315:16316   */\n      0x00\n        /* \"#utility.yul\":16304:16313   */\n      dup4\n        /* \"#utility.yul\":16300:16317   */\n      add\n        /* \"#utility.yul\":16291:16297   */\n      dup5\n        /* \"#utility.yul\":16247:16318   */\n      tag_431\n      jump\t// in\n    tag_552:\n        /* \"#utility.yul\":16103:16325   */\n      swap3\n      swap2\n      pop\n      pop\n      jump\t// out\n        /* \"#utility.yul\":16331:16644   */\n    tag_262:\n        /* \"#utility.yul\":16444:16448   */\n      0x00\n        /* \"#utility.yul\":16482:16484   */\n      0x20\n        /* \"#utility.yul\":16471:16480   */\n      dup3\n        /* \"#utility.yul\":16467:16485   */\n      add\n        /* \"#utility.yul\":16459:16485   */\n      swap1\n      pop\n        /* \"#utility.yul\":16531:16540   */\n      dup2\n        /* \"#utility.yul\":16525:16529   */\n      dup2\n        /* \"#utility.yul\":16521:16541   */\n      sub\n        /* \"#utility.yul\":16517:16518   */\n      0x00\n        /* \"#utility.yul\":16506:16515   */\n      dup4\n        /* \"#utility.yul\":16502:16519   */\n      add\n        /* \"#utility.yul\":16495:16542   */\n      mstore\n        /* \"#utility.yul\":16559:16637   */\n      tag_554\n        /* \"#utility.yul\":16632:16636   */\n      dup2\n        /* \"#utility.yul\":16623:16629   */\n      dup5\n        /* \"#utility.yul\":16559:16637   */\n      tag_435\n      jump\t// in\n    tag_554:\n        /* \"#utility.yul\":16551:16637   */\n      swap1\n      pop\n        /* \"#utility.yul\":16331:16644   */\n      swap3\n      swap2\n      pop\n      pop\n      jump\t// out\n        /* \"#utility.yul\":16650:17215   */\n    tag_107:\n        /* \"#utility.yul\":16835:16839   */\n      0x00\n        /* \"#utility.yul\":16873:16875   */\n      0x60\n        /* \"#utility.yul\":16862:16871   */\n      dup3\n        /* \"#utility.yul\":16858:16876   */\n      add\n        /* \"#utility.yul\":16850:16876   */\n      swap1\n      pop\n        /* \"#utility.yul\":16922:16931   */\n      dup2\n        /* \"#utility.yul\":16916:16920   */\n      dup2\n        /* \"#utility.yul\":16912:16932   */\n      sub\n        /* \"#utility.yul\":16908:16909   */\n      0x00\n        /* \"#utility.yul\":16897:16906   */\n      dup4\n        /* \"#utility.yul\":16893:16910   */\n      add\n        /* \"#utility.yul\":16886:16933   */\n      mstore\n        /* \"#utility.yul\":16950:17028   */\n      tag_556\n        /* \"#utility.yul\":17023:17027   */\n      dup2\n        /* \"#utility.yul\":17014:17020   */\n      dup7\n        /* \"#utility.yul\":16950:17028   */\n      tag_435\n      jump\t// in\n    tag_556:\n        /* \"#utility.yul\":16942:17028   */\n      swap1\n      pop\n        /* \"#utility.yul\":17038:17126   */\n      tag_557\n        /* \"#utility.yul\":17122:17124   */\n      0x20\n        /* \"#utility.yul\":17111:17120   */\n      dup4\n        /* \"#utility.yul\":17107:17125   */\n      add\n        /* \"#utility.yul\":17098:17104   */\n      dup6\n        /* \"#utility.yul\":17038:17126   */\n      tag_419\n      jump\t// in\n    tag_557:\n        /* \"#utility.yul\":17136:17208   */\n      tag_558\n        /* \"#utility.yul\":17204:17206   */\n      0x40\n        /* \"#utility.yul\":17193:17202   */\n      dup4\n        /* \"#utility.yul\":17189:17207   */\n      add\n        /* \"#utility.yul\":17180:17186   */\n      dup5\n        /* \"#utility.yul\":17136:17208   */\n      tag_536\n      jump\t// in\n    tag_558:\n        /* \"#utility.yul\":16650:17215   */\n      swap5\n      swap4\n      pop\n      pop\n      pop\n      pop\n      jump\t// out\n        /* \"#utility.yul\":17221:18162   */\n    tag_73:\n        /* \"#utility.yul\":17486:17490   */\n      0x00\n        /* \"#utility.yul\":17524:17527   */\n      0xc0\n        /* \"#utility.yul\":17513:17522   */\n      dup3\n        /* \"#utility.yul\":17509:17528   */\n      add\n        /* \"#utility.yul\":17501:17528   */\n      swap1\n      pop\n        /* \"#utility.yul\":17574:17583   */\n      dup2\n        /* \"#utility.yul\":17568:17572   */\n      dup2\n        /* \"#utility.yul\":17564:17584   */\n      sub\n        /* \"#utility.yul\":17560:17561   */\n      0x00\n        /* \"#utility.yul\":17549:17558   */\n      dup4\n        /* \"#utility.yul\":17545:17562   */\n      add\n        /* \"#utility.yul\":17538:17585   */\n      mstore\n        /* \"#utility.yul\":17602:17680   */\n      tag_560\n        /* \"#utility.yul\":17675:17679   */\n      dup2\n        /* \"#utility.yul\":17666:17672   */\n      dup10\n        /* \"#utility.yul\":17602:17680   */\n      tag_435\n      jump\t// in\n    tag_560:\n        /* \"#utility.yul\":17594:17680   */\n      swap1\n      pop\n        /* \"#utility.yul\":17727:17736   */\n      dup2\n        /* \"#utility.yul\":17721:17725   */\n      dup2\n        /* \"#utility.yul\":17717:17737   */\n      sub\n        /* \"#utility.yul\":17712:17714   */\n      0x20\n        /* \"#utility.yul\":17701:17710   */\n      dup4\n        /* \"#utility.yul\":17697:17715   */\n      add\n        /* \"#utility.yul\":17690:17738   */\n      mstore\n        /* \"#utility.yul\":17755:17833   */\n      tag_561\n        /* \"#utility.yul\":17828:17832   */\n      dup2\n        /* \"#utility.yul\":17819:17825   */\n      dup9\n        /* \"#utility.yul\":17755:17833   */\n      tag_435\n      jump\t// in\n    tag_561:\n        /* \"#utility.yul\":17747:17833   */\n      swap1\n      pop\n        /* \"#utility.yul\":17843:17911   */\n      tag_562\n        /* \"#utility.yul\":17907:17909   */\n      0x40\n        /* \"#utility.yul\":17896:17905   */\n      dup4\n        /* \"#utility.yul\":17892:17910   */\n      add\n        /* \"#utility.yul\":17883:17889   */\n      dup8\n        /* \"#utility.yul\":17843:17911   */\n      tag_540\n      jump\t// in\n    tag_562:\n        /* \"#utility.yul\":17921:17989   */\n      tag_563\n        /* \"#utility.yul\":17985:17987   */\n      0x60\n        /* \"#utility.yul\":17974:17983   */\n      dup4\n        /* \"#utility.yul\":17970:17988   */\n      add\n        /* \"#utility.yul\":17961:17967   */\n      dup7\n        /* \"#utility.yul\":17921:17989   */\n      tag_540\n      jump\t// in\n    tag_563:\n        /* \"#utility.yul\":17999:18072   */\n      tag_564\n        /* \"#utility.yul\":18067:18070   */\n      0x80\n        /* \"#utility.yul\":18056:18065   */\n      dup4\n        /* \"#utility.yul\":18052:18071   */\n      add\n        /* \"#utility.yul\":18043:18049   */\n      dup6\n        /* \"#utility.yul\":17999:18072   */\n      tag_536\n      jump\t// in\n    tag_564:\n        /* \"#utility.yul\":18082:18155   */\n      tag_565\n        /* \"#utility.yul\":18150:18153   */\n      0xa0\n        /* \"#utility.yul\":18139:18148   */\n      dup4\n        /* \"#utility.yul\":18135:18154   */\n      add\n        /* \"#utility.yul\":18126:18132   */\n      dup5\n        /* \"#utility.yul\":18082:18155   */\n      tag_536\n      jump\t// in\n    tag_565:\n        /* \"#utility.yul\":17221:18162   */\n      swap8\n      swap7\n      pop\n      pop\n      pop\n      pop\n      pop\n      pop\n      pop\n      jump\t// out\n        /* \"#utility.yul\":18168:18587   */\n    tag_154:\n        /* \"#utility.yul\":18334:18338   */\n      0x00\n        /* \"#utility.yul\":18372:18374   */\n      0x20\n        /* \"#utility.yul\":18361:18370   */\n      dup3\n        /* \"#utility.yul\":18357:18375   */\n      add\n        /* \"#utility.yul\":18349:18375   */\n      swap1\n      pop\n        /* \"#utility.yul\":18421:18430   */\n      dup2\n        /* \"#utility.yul\":18415:18419   */\n      dup2\n        /* \"#utility.yul\":18411:18431   */\n      sub\n        /* \"#utility.yul\":18407:18408   */\n      0x00\n        /* \"#utility.yul\":18396:18405   */\n      dup4\n        /* \"#utility.yul\":18392:18409   */\n      add\n        /* \"#utility.yul\":18385:18432   */\n      mstore\n        /* \"#utility.yul\":18449:18580   */\n      tag_567\n        /* \"#utility.yul\":18575:18579   */\n      dup2\n        /* \"#utility.yul\":18449:18580   */\n      tag_451\n      jump\t// in\n    tag_567:\n        /* \"#utility.yul\":18441:18580   */\n      swap1\n      pop\n        /* \"#utility.yul\":18168:18587   */\n      swap2\n      swap1\n      pop\n      jump\t// out\n        /* \"#utility.yul\":18593:19012   */\n    tag_157:\n        /* \"#utility.yul\":18759:18763   */\n      0x00\n        /* \"#utility.yul\":18797:18799   */\n      0x20\n        /* \"#utility.yul\":18786:18795   */\n      dup3\n        /* \"#utility.yul\":18782:18800   */\n      add\n        /* \"#utility.yul\":18774:18800   */\n      swap1\n      pop\n        /* \"#utility.yul\":18846:18855   */\n      dup2\n        /* \"#utility.yul\":18840:18844   */\n      dup2\n        /* \"#utility.yul\":18836:18856   */\n      sub\n        /* \"#utility.yul\":18832:18833   */\n      0x00\n        /* \"#utility.yul\":18821:18830   */\n      dup4\n        /* \"#utility.yul\":18817:18834   */\n      add\n        /* \"#utility.yul\":18810:18857   */\n      mstore\n        /* \"#utility.yul\":18874:19005   */\n      tag_569\n        /* \"#utility.yul\":19000:19004   */\n      dup2\n        /* \"#utility.yul\":18874:19005   */\n      tag_456\n      jump\t// in\n    tag_569:\n        /* \"#utility.yul\":18866:19005   */\n      swap1\n      pop\n        /* \"#utility.yul\":18593:19012   */\n      swap2\n      swap1\n      pop\n      jump\t// out\n        /* \"#utility.yul\":19018:19437   */\n    tag_306:\n        /* \"#utility.yul\":19184:19188   */\n      0x00\n        /* \"#utility.yul\":19222:19224   */\n      0x20\n        /* \"#utility.yul\":19211:19220   */\n      dup3\n        /* \"#utility.yul\":19207:19225   */\n      add\n        /* \"#utility.yul\":19199:19225   */\n      swap1\n      pop\n        /* \"#utility.yul\":19271:19280   */\n      dup2\n        /* \"#utility.yul\":19265:19269   */\n      dup2\n        /* \"#utility.yul\":19261:19281   */\n      sub\n        /* \"#utility.yul\":19257:19258   */\n      0x00\n        /* \"#utility.yul\":19246:19255   */\n      dup4\n        /* \"#utility.yul\":19242:19259   */\n      add\n        /* \"#utility.yul\":19235:19282   */\n      mstore\n        /* \"#utility.yul\":19299:19430   */\n      tag_571\n        /* \"#utility.yul\":19425:19429   */\n      dup2\n        /* \"#utility.yul\":19299:19430   */\n      tag_461\n      jump\t// in\n    tag_571:\n        /* \"#utility.yul\":19291:19430   */\n      swap1\n      pop\n        /* \"#utility.yul\":19018:19437   */\n      swap2\n      swap1\n      pop\n      jump\t// out\n        /* \"#utility.yul\":19443:19862   */\n    tag_151:\n        /* \"#utility.yul\":19609:19613   */\n      0x00\n        /* \"#utility.yul\":19647:19649   */\n      0x20\n        /* \"#utility.yul\":19636:19645   */\n      dup3\n        /* \"#utility.yul\":19632:19650   */\n      add\n        /* \"#utility.yul\":19624:19650   */\n      swap1\n      pop\n        /* \"#utility.yul\":19696:19705   */\n      dup2\n        /* \"#utility.yul\":19690:19694   */\n      dup2\n        /* \"#utility.yul\":19686:19706   */\n      sub\n        /* \"#utility.yul\":19682:19683   */\n      0x00\n        /* \"#utility.yul\":19671:19680   */\n      dup4\n        /* \"#utility.yul\":19667:19684   */\n      add\n        /* \"#utility.yul\":19660:19707   */\n      mstore\n        /* \"#utility.yul\":19724:19855   */\n      tag_573\n        /* \"#utility.yul\":19850:19854   */\n      dup2\n        /* \"#utility.yul\":19724:19855   */\n      tag_466\n      jump\t// in\n    tag_573:\n        /* \"#utility.yul\":19716:19855   */\n      swap1\n      pop\n        /* \"#utility.yul\":19443:19862   */\n      swap2\n      swap1\n      pop\n      jump\t// out\n        /* \"#utility.yul\":19868:20287   */\n    tag_240:\n        /* \"#utility.yul\":20034:20038   */\n      0x00\n        /* \"#utility.yul\":20072:20074   */\n      0x20\n        /* \"#utility.yul\":20061:20070   */\n      dup3\n        /* \"#utility.yul\":20057:20075   */\n      add\n        /* \"#utility.yul\":20049:20075   */\n      swap1\n      pop\n        /* \"#utility.yul\":20121:20130   */\n      dup2\n        /* \"#utility.yul\":20115:20119   */\n      dup2\n        /* \"#utility.yul\":20111:20131   */\n      sub\n        /* \"#utility.yul\":20107:20108   */\n      0x00\n        /* \"#utility.yul\":20096:20105   */\n      dup4\n        /* \"#utility.yul\":20092:20109   */\n      add\n        /* \"#utility.yul\":20085:20132   */\n      mstore\n        /* \"#utility.yul\":20149:20280   */\n      tag_575\n        /* \"#utility.yul\":20275:20279   */\n      dup2\n        /* \"#utility.yul\":20149:20280   */\n      tag_471\n      jump\t// in\n    tag_575:\n        /* \"#utility.yul\":20141:20280   */\n      swap1\n      pop\n        /* \"#utility.yul\":19868:20287   */\n      swap2\n      swap1\n      pop\n      jump\t// out\n        /* \"#utility.yul\":20293:20712   */\n    tag_224:\n        /* \"#utility.yul\":20459:20463   */\n      0x00\n        /* \"#utility.yul\":20497:20499   */\n      0x20\n        /* \"#utility.yul\":20486:20495   */\n      dup3\n        /* \"#utility.yul\":20482:20500   */\n      add\n        /* \"#utility.yul\":20474:20500   */\n      swap1\n      pop\n        /* \"#utility.yul\":20546:20555   */\n      dup2\n        /* \"#utility.yul\":20540:20544   */\n      dup2\n        /* \"#utility.yul\":20536:20556   */\n      sub\n        /* \"#utility.yul\":20532:20533   */\n      0x00\n        /* \"#utility.yul\":20521:20530   */\n      dup4\n        /* \"#utility.yul\":20517:20534   */\n      add\n        /* \"#utility.yul\":20510:20557   */\n      mstore\n        /* \"#utility.yul\":20574:20705   */\n      tag_577\n        /* \"#utility.yul\":20700:20704   */\n      dup2\n        /* \"#utility.yul\":20574:20705   */\n      tag_476\n      jump\t// in\n    tag_577:\n        /* \"#utility.yul\":20566:20705   */\n      swap1\n      pop\n        /* \"#utility.yul\":20293:20712   */\n      swap2\n      swap1\n      pop\n      jump\t// out\n        /* \"#utility.yul\":20718:21137   */\n    tag_205:\n        /* \"#utility.yul\":20884:20888   */\n      0x00\n        /* \"#utility.yul\":20922:20924   */\n      0x20\n        /* \"#utility.yul\":20911:20920   */\n      dup3\n        /* \"#utility.yul\":20907:20925   */\n      add\n        /* \"#utility.yul\":20899:20925   */\n      swap1\n      pop\n        /* \"#utility.yul\":20971:20980   */\n      dup2\n        /* \"#utility.yul\":20965:20969   */\n      dup2\n        /* \"#utility.yul\":20961:20981   */\n      sub\n        /* \"#utility.yul\":20957:20958   */\n      0x00\n        /* \"#utility.yul\":20946:20955   */\n      dup4\n        /* \"#utility.yul\":20942:20959   */\n      add\n        /* \"#utility.yul\":20935:20982   */\n      mstore\n        /* \"#utility.yul\":20999:21130   */\n      tag_579\n        /* \"#utility.yul\":21125:21129   */\n      dup2\n        /* \"#utility.yul\":20999:21130   */\n      tag_481\n      jump\t// in\n    tag_579:\n        /* \"#utility.yul\":20991:21130   */\n      swap1\n      pop\n        /* \"#utility.yul\":20718:21137   */\n      swap2\n      swap1\n      pop\n      jump\t// out\n        /* \"#utility.yul\":21143:21562   */\n    tag_143:\n        /* \"#utility.yul\":21309:21313   */\n      0x00\n        /* \"#utility.yul\":21347:21349   */\n      0x20\n        /* \"#utility.yul\":21336:21345   */\n      dup3\n        /* \"#utility.yul\":21332:21350   */\n      add\n        /* \"#utility.yul\":21324:21350   */\n      swap1\n      pop\n        /* \"#utility.yul\":21396:21405   */\n      dup2\n        /* \"#utility.yul\":21390:21394   */\n      dup2\n        /* \"#utility.yul\":21386:21406   */\n      sub\n        /* \"#utility.yul\":21382:21383   */\n      0x00\n        /* \"#utility.yul\":21371:21380   */\n      dup4\n        /* \"#utility.yul\":21367:21384   */\n      add\n        /* \"#utility.yul\":21360:21407   */\n      mstore\n        /* \"#utility.yul\":21424:21555   */\n      tag_581\n        /* \"#utility.yul\":21550:21554   */\n      dup2\n        /* \"#utility.yul\":21424:21555   */\n      tag_486\n      jump\t// in\n    tag_581:\n        /* \"#utility.yul\":21416:21555   */\n      swap1\n      pop\n        /* \"#utility.yul\":21143:21562   */\n      swap2\n      swap1\n      pop\n      jump\t// out\n        /* \"#utility.yul\":21568:21987   */\n    tag_244:\n        /* \"#utility.yul\":21734:21738   */\n      0x00\n        /* \"#utility.yul\":21772:21774   */\n      0x20\n        /* \"#utility.yul\":21761:21770   */\n      dup3\n        /* \"#utility.yul\":21757:21775   */\n      add\n        /* \"#utility.yul\":21749:21775   */\n      swap1\n      pop\n        /* \"#utility.yul\":21821:21830   */\n      dup2\n        /* \"#utility.yul\":21815:21819   */\n      dup2\n        /* \"#utility.yul\":21811:21831   */\n      sub\n        /* \"#utility.yul\":21807:21808   */\n      0x00\n        /* \"#utility.yul\":21796:21805   */\n      dup4\n        /* \"#utility.yul\":21792:21809   */\n      add\n        /* \"#utility.yul\":21785:21832   */\n      mstore\n        /* \"#utility.yul\":21849:21980   */\n      tag_583\n        /* \"#utility.yul\":21975:21979   */\n      dup2\n        /* \"#utility.yul\":21849:21980   */\n      tag_491\n      jump\t// in\n    tag_583:\n        /* \"#utility.yul\":21841:21980   */\n      swap1\n      pop\n        /* \"#utility.yul\":21568:21987   */\n      swap2\n      swap1\n      pop\n      jump\t// out\n        /* \"#utility.yul\":21993:22412   */\n    tag_139:\n        /* \"#utility.yul\":22159:22163   */\n      0x00\n        /* \"#utility.yul\":22197:22199   */\n      0x20\n        /* \"#utility.yul\":22186:22195   */\n      dup3\n        /* \"#utility.yul\":22182:22200   */\n      add\n        /* \"#utility.yul\":22174:22200   */\n      swap1\n      pop\n        /* \"#utility.yul\":22246:22255   */\n      dup2\n        /* \"#utility.yul\":22240:22244   */\n      dup2\n        /* \"#utility.yul\":22236:22256   */\n      sub\n        /* \"#utility.yul\":22232:22233   */\n      0x00\n        /* \"#utility.yul\":22221:22230   */\n      dup4\n        /* \"#utility.yul\":22217:22234   */\n      add\n        /* \"#utility.yul\":22210:22257   */\n      mstore\n        /* \"#utility.yul\":22274:22405   */\n      tag_585\n        /* \"#utility.yul\":22400:22404   */\n      dup2\n        /* \"#utility.yul\":22274:22405   */\n      tag_496\n      jump\t// in\n    tag_585:\n        /* \"#utility.yul\":22266:22405   */\n      swap1\n      pop\n        /* \"#utility.yul\":21993:22412   */\n      swap2\n      swap1\n      pop\n      jump\t// out\n        /* \"#utility.yul\":22418:22837   */\n    tag_212:\n        /* \"#utility.yul\":22584:22588   */\n      0x00\n        /* \"#utility.yul\":22622:22624   */\n      0x20\n        /* \"#utility.yul\":22611:22620   */\n      dup3\n        /* \"#utility.yul\":22607:22625   */\n      add\n        /* \"#utility.yul\":22599:22625   */\n      swap1\n      pop\n        /* \"#utility.yul\":22671:22680   */\n      dup2\n        /* \"#utility.yul\":22665:22669   */\n      dup2\n        /* \"#utility.yul\":22661:22681   */\n      sub\n        /* \"#utility.yul\":22657:22658   */\n      0x00\n        /* \"#utility.yul\":22646:22655   */\n      dup4\n        /* \"#utility.yul\":22642:22659   */\n      add\n        /* \"#utility.yul\":22635:22682   */\n      mstore\n        /* \"#utility.yul\":22699:22830   */\n      tag_587\n        /* \"#utility.yul\":22825:22829   */\n      dup2\n        /* \"#utility.yul\":22699:22830   */\n      tag_501\n      jump\t// in\n    tag_587:\n        /* \"#utility.yul\":22691:22830   */\n      swap1\n      pop\n        /* \"#utility.yul\":22418:22837   */\n      swap2\n      swap1\n      pop\n      jump\t// out\n        /* \"#utility.yul\":22843:23262   */\n    tag_133:\n        /* \"#utility.yul\":23009:23013   */\n      0x00\n        /* \"#utility.yul\":23047:23049   */\n      0x20\n        /* \"#utility.yul\":23036:23045   */\n      dup3\n        /* \"#utility.yul\":23032:23050   */\n      add\n        /* \"#utility.yul\":23024:23050   */\n      swap1\n      pop\n        /* \"#utility.yul\":23096:23105   */\n      dup2\n        /* \"#utility.yul\":23090:23094   */\n      dup2\n        /* \"#utility.yul\":23086:23106   */\n      sub\n        /* \"#utility.yul\":23082:23083   */\n      0x00\n        /* \"#utility.yul\":23071:23080   */\n      dup4\n        /* \"#utility.yul\":23067:23084   */\n      add\n        /* \"#utility.yul\":23060:23107   */\n      mstore\n        /* \"#utility.yul\":23124:23255   */\n      tag_589\n        /* \"#utility.yul\":23250:23254   */\n      dup2\n        /* \"#utility.yul\":23124:23255   */\n      tag_506\n      jump\t// in\n    tag_589:\n        /* \"#utility.yul\":23116:23255   */\n      swap1\n      pop\n        /* \"#utility.yul\":22843:23262   */\n      swap2\n      swap1\n      pop\n      jump\t// out\n        /* \"#utility.yul\":23268:23687   */\n    tag_136:\n        /* \"#utility.yul\":23434:23438   */\n      0x00\n        /* \"#utility.yul\":23472:23474   */\n      0x20\n        /* \"#utility.yul\":23461:23470   */\n      dup3\n        /* \"#utility.yul\":23457:23475   */\n      add\n        /* \"#utility.yul\":23449:23475   */\n      swap1\n      pop\n        /* \"#utility.yul\":23521:23530   */\n      dup2\n        /* \"#utility.yul\":23515:23519   */\n      dup2\n        /* \"#utility.yul\":23511:23531   */\n      sub\n        /* \"#utility.yul\":23507:23508   */\n      0x00\n        /* \"#utility.yul\":23496:23505   */\n      dup4\n        /* \"#utility.yul\":23492:23509   */\n      add\n        /* \"#utility.yul\":23485:23532   */\n      mstore\n        /* \"#utility.yul\":23549:23680   */\n      tag_591\n        /* \"#utility.yul\":23675:23679   */\n      dup2\n        /* \"#utility.yul\":23549:23680   */\n      tag_511\n      jump\t// in\n    tag_591:\n        /* \"#utility.yul\":23541:23680   */\n      swap1\n      pop\n        /* \"#utility.yul\":23268:23687   */\n      swap2\n      swap1\n      pop\n      jump\t// out\n        /* \"#utility.yul\":23693:24112   */\n    tag_215:\n        /* \"#utility.yul\":23859:23863   */\n      0x00\n        /* \"#utility.yul\":23897:23899   */\n      0x20\n        /* \"#utility.yul\":23886:23895   */\n      dup3\n        /* \"#utility.yul\":23882:23900   */\n      add\n        /* \"#utility.yul\":23874:23900   */\n      swap1\n      pop\n        /* \"#utility.yul\":23946:23955   */\n      dup2\n        /* \"#utility.yul\":23940:23944   */\n      dup2\n        /* \"#utility.yul\":23936:23956   */\n      sub\n        /* \"#utility.yul\":23932:23933   */\n      0x00\n        /* \"#utility.yul\":23921:23930   */\n      dup4\n        /* \"#utility.yul\":23917:23934   */\n      add\n        /* \"#utility.yul\":23910:23957   */\n      mstore\n        /* \"#utility.yul\":23974:24105   */\n      tag_593\n        /* \"#utility.yul\":24100:24104   */\n      dup2\n        /* \"#utility.yul\":23974:24105   */\n      tag_521\n      jump\t// in\n    tag_593:\n        /* \"#utility.yul\":23966:24105   */\n      swap1\n      pop\n        /* \"#utility.yul\":23693:24112   */\n      swap2\n      swap1\n      pop\n      jump\t// out\n        /* \"#utility.yul\":24118:24537   */\n    tag_179:\n        /* \"#utility.yul\":24284:24288   */\n      0x00\n        /* \"#utility.yul\":24322:24324   */\n      0x20\n        /* \"#utility.yul\":24311:24320   */\n      dup3\n        /* \"#utility.yul\":24307:24325   */\n      add\n        /* \"#utility.yul\":24299:24325   */\n      swap1\n      pop\n        /* \"#utility.yul\":24371:24380   */\n      dup2\n        /* \"#utility.yul\":24365:24369   */\n      dup2\n        /* \"#utility.yul\":24361:24381   */\n      sub\n        /* \"#utility.yul\":24357:24358   */\n      0x00\n        /* \"#utility.yul\":24346:24355   */\n      dup4\n        /* \"#utility.yul\":24342:24359   */\n      add\n        /* \"#utility.yul\":24335:24382   */\n      mstore\n        /* \"#utility.yul\":24399:24530   */\n      tag_595\n        /* \"#utility.yul\":24525:24529   */\n      dup2\n        /* \"#utility.yul\":24399:24530   */\n      tag_531\n      jump\t// in\n    tag_595:\n        /* \"#utility.yul\":24391:24530   */\n      swap1\n      pop\n        /* \"#utility.yul\":24118:24537   */\n      swap2\n      swap1\n      pop\n      jump\t// out\n        /* \"#utility.yul\":24543:24765   */\n    tag_60:\n        /* \"#utility.yul\":24636:24640   */\n      0x00\n        /* \"#utility.yul\":24674:24676   */\n      0x20\n        /* \"#utility.yul\":24663:24672   */\n      dup3\n        /* \"#utility.yul\":24659:24677   */\n      add\n        /* \"#utility.yul\":24651:24677   */\n      swap1\n      pop\n        /* \"#utility.yul\":24687:24758   */\n      tag_597\n        /* \"#utility.yul\":24755:24756   */\n      0x00\n        /* \"#utility.yul\":24744:24753   */\n      dup4\n        /* \"#utility.yul\":24740:24757   */\n      add\n        /* \"#utility.yul\":24731:24737   */\n      dup5\n        /* \"#utility.yul\":24687:24758   */\n      tag_536\n      jump\t// in\n    tag_597:\n        /* \"#utility.yul\":24543:24765   */\n      swap3\n      swap2\n      pop\n      pop\n      jump\t// out\n        /* \"#utility.yul\":24771:25340   */\n    tag_164:\n        /* \"#utility.yul\":24956:24960   */\n      0x00\n        /* \"#utility.yul\":24994:24997   */\n      0x80\n        /* \"#utility.yul\":24983:24992   */\n      dup3\n        /* \"#utility.yul\":24979:24998   */\n      add\n        /* \"#utility.yul\":24971:24998   */\n      swap1\n      pop\n        /* \"#utility.yul\":25008:25079   */\n      tag_599\n        /* \"#utility.yul\":25076:25077   */\n      0x00\n        /* \"#utility.yul\":25065:25074   */\n      dup4\n        /* \"#utility.yul\":25061:25078   */\n      add\n        /* \"#utility.yul\":25052:25058   */\n      dup8\n        /* \"#utility.yul\":25008:25079   */\n      tag_536\n      jump\t// in\n    tag_599:\n        /* \"#utility.yul\":25089:25161   */\n      tag_600\n        /* \"#utility.yul\":25157:25159   */\n      0x20\n        /* \"#utility.yul\":25146:25155   */\n      dup4\n        /* \"#utility.yul\":25142:25160   */\n      add\n        /* \"#utility.yul\":25133:25139   */\n      dup7\n        /* \"#utility.yul\":25089:25161   */\n      tag_536\n      jump\t// in\n    tag_600:\n        /* \"#utility.yul\":25171:25251   */\n      tag_601\n        /* \"#utility.yul\":25247:25249   */\n      0x40\n        /* \"#utility.yul\":25236:25245   */\n      dup4\n        /* \"#utility.yul\":25232:25250   */\n      add\n        /* \"#utility.yul\":25223:25229   */\n      dup6\n        /* \"#utility.yul\":25171:25251   */\n      tag_415\n      jump\t// in\n    tag_601:\n        /* \"#utility.yul\":25261:25333   */\n      tag_602\n        /* \"#utility.yul\":25329:25331   */\n      0x60\n        /* \"#utility.yul\":25318:25327   */\n      dup4\n        /* \"#utility.yul\":25314:25332   */\n      add\n        /* \"#utility.yul\":25305:25311   */\n      dup5\n        /* \"#utility.yul\":25261:25333   */\n      tag_423\n      jump\t// in\n    tag_602:\n        /* \"#utility.yul\":24771:25340   */\n      swap6\n      swap5\n      pop\n      pop\n      pop\n      pop\n      pop\n      jump\t// out\n        /* \"#utility.yul\":25346:25560   */\n    tag_67:\n        /* \"#utility.yul\":25435:25439   */\n      0x00\n        /* \"#utility.yul\":25473:25475   */\n      0x20\n        /* \"#utility.yul\":25462:25471   */\n      dup3\n        /* \"#utility.yul\":25458:25476   */\n      add\n        /* \"#utility.yul\":25450:25476   */\n      swap1\n      pop\n        /* \"#utility.yul\":25486:25553   */\n      tag_604\n        /* \"#utility.yul\":25550:25551   */\n      0x00\n        /* \"#utility.yul\":25539:25548   */\n      dup4\n        /* \"#utility.yul\":25535:25552   */\n      add\n        /* \"#utility.yul\":25526:25532   */\n      dup5\n        /* \"#utility.yul\":25486:25553   */\n      tag_540\n      jump\t// in\n    tag_604:\n        /* \"#utility.yul\":25346:25560   */\n      swap3\n      swap2\n      pop\n      pop\n      jump\t// out\n        /* \"#utility.yul\":25566:25695   */\n    tag_323:\n        /* \"#utility.yul\":25600:25606   */\n      0x00\n        /* \"#utility.yul\":25627:25647   */\n      tag_606\n      tag_607\n      jump\t// in\n    tag_606:\n        /* \"#utility.yul\":25617:25647   */\n      swap1\n      pop\n        /* \"#utility.yul\":25656:25689   */\n      tag_608\n        /* \"#utility.yul\":25684:25688   */\n      dup3\n        /* \"#utility.yul\":25676:25682   */\n      dup3\n        /* \"#utility.yul\":25656:25689   */\n      tag_609\n      jump\t// in\n    tag_608:\n        /* \"#utility.yul\":25566:25695   */\n      swap2\n      swap1\n      pop\n      jump\t// out\n        /* \"#utility.yul\":25701:25776   */\n    tag_607:\n        /* \"#utility.yul\":25734:25740   */\n      0x00\n        /* \"#utility.yul\":25767:25769   */\n      0x40\n        /* \"#utility.yul\":25761:25770   */\n      mload\n        /* \"#utility.yul\":25751:25770   */\n      swap1\n      pop\n        /* \"#utility.yul\":25701:25776   */\n      swap1\n      jump\t// out\n        /* \"#utility.yul\":25782:26090   */\n    tag_322:\n        /* \"#utility.yul\":25844:25848   */\n      0x00\n        /* \"#utility.yul\":25934:25952   */\n      0xffffffffffffffff\n        /* \"#utility.yul\":25926:25932   */\n      dup3\n        /* \"#utility.yul\":25923:25953   */\n      gt\n        /* \"#utility.yul\":25920:25976   */\n      iszero\n      tag_612\n      jumpi\n        /* \"#utility.yul\":25956:25974   */\n      tag_613\n      tag_287\n      jump\t// in\n    tag_613:\n        /* \"#utility.yul\":25920:25976   */\n    tag_612:\n        /* \"#utility.yul\":25994:26023   */\n      tag_614\n        /* \"#utility.yul\":26016:26022   */\n      dup3\n        /* \"#utility.yul\":25994:26023   */\n      tag_444\n      jump\t// in\n    tag_614:\n        /* \"#utility.yul\":25986:26023   */\n      swap1\n      pop\n        /* \"#utility.yul\":26078:26082   */\n      0x20\n        /* \"#utility.yul\":26072:26076   */\n      dup2\n        /* \"#utility.yul\":26068:26083   */\n      add\n        /* \"#utility.yul\":26060:26083   */\n      swap1\n      pop\n        /* \"#utility.yul\":25782:26090   */\n      swap2\n      swap1\n      pop\n      jump\t// out\n        /* \"#utility.yul\":26096:26195   */\n    tag_438:\n        /* \"#utility.yul\":26148:26154   */\n      0x00\n        /* \"#utility.yul\":26182:26187   */\n      dup2\n        /* \"#utility.yul\":26176:26188   */\n      mload\n        /* \"#utility.yul\":26166:26188   */\n      swap1\n      pop\n        /* \"#utility.yul\":26096:26195   */\n      swap2\n      swap1\n      pop\n      jump\t// out\n        /* \"#utility.yul\":26201:26370   */\n    tag_440:\n        /* \"#utility.yul\":26285:26296   */\n      0x00\n        /* \"#utility.yul\":26319:26325   */\n      dup3\n        /* \"#utility.yul\":26314:26317   */\n      dup3\n        /* \"#utility.yul\":26307:26326   */\n      mstore\n        /* \"#utility.yul\":26359:26363   */\n      0x20\n        /* \"#utility.yul\":26354:26357   */\n      dup3\n        /* \"#utility.yul\":26350:26364   */\n      add\n        /* \"#utility.yul\":26335:26364   */\n      swap1\n      pop\n        /* \"#utility.yul\":26201:26370   */\n      swap3\n      swap2\n      pop\n      pop\n      jump\t// out\n        /* \"#utility.yul\":26376:26524   */\n    tag_449:\n        /* \"#utility.yul\":26478:26489   */\n      0x00\n        /* \"#utility.yul\":26515:26518   */\n      dup2\n        /* \"#utility.yul\":26500:26518   */\n      swap1\n      pop\n        /* \"#utility.yul\":26376:26524   */\n      swap3\n      swap2\n      pop\n      pop\n      jump\t// out\n        /* \"#utility.yul\":26530:26835   */\n    tag_284:\n        /* \"#utility.yul\":26570:26573   */\n      0x00\n        /* \"#utility.yul\":26589:26609   */\n      tag_619\n        /* \"#utility.yul\":26607:26608   */\n      dup3\n        /* \"#utility.yul\":26589:26609   */\n      tag_539\n      jump\t// in\n    tag_619:\n        /* \"#utility.yul\":26584:26609   */\n      swap2\n      pop\n        /* \"#utility.yul\":26623:26643   */\n      tag_620\n        /* \"#utility.yul\":26641:26642   */\n      dup4\n        /* \"#utility.yul\":26623:26643   */\n      tag_539\n      jump\t// in\n    tag_620:\n        /* \"#utility.yul\":26618:26643   */\n      swap3\n      pop\n        /* \"#utility.yul\":26777:26778   */\n      dup3\n        /* \"#utility.yul\":26709:26775   */\n      0xffffffffffffffffffffffffffffffffffffffffffffffffffffffffffffffff\n        /* \"#utility.yul\":26705:26779   */\n      sub\n        /* \"#utility.yul\":26702:26703   */\n      dup3\n        /* \"#utility.yul\":26699:26780   */\n      gt\n        /* \"#utility.yul\":26696:26803   */\n      iszero\n      tag_621\n      jumpi\n        /* \"#utility.yul\":26783:26801   */\n      tag_622\n      tag_623\n      jump\t// in\n    tag_622:\n        /* \"#utility.yul\":26696:26803   */\n    tag_621:\n        /* \"#utility.yul\":26827:26828   */\n      dup3\n        /* \"#utility.yul\":26824:26825   */\n      dup3\n        /* \"#utility.yul\":26820:26829   */\n      add\n        /* \"#utility.yul\":26813:26829   */\n      swap1\n      pop\n        /* \"#utility.yul\":26530:26835   */\n      swap3\n      swap2\n      pop\n      pop\n      jump\t// out\n        /* \"#utility.yul\":26841:27078   */\n    tag_145:\n        /* \"#utility.yul\":26879:26882   */\n      0x00\n        /* \"#utility.yul\":26898:26916   */\n      tag_625\n        /* \"#utility.yul\":26914:26915   */\n      dup3\n        /* \"#utility.yul\":26898:26916   */\n      tag_543\n      jump\t// in\n    tag_625:\n        /* \"#utility.yul\":26893:26916   */\n      swap2\n      pop\n        /* \"#utility.yul\":26930:26948   */\n      tag_626\n        /* \"#utility.yul\":26946:26947   */\n      dup4\n        /* \"#utility.yul\":26930:26948   */\n      tag_543\n      jump\t// in\n    tag_626:\n        /* \"#utility.yul\":26925:26948   */\n      swap3\n      pop\n        /* \"#utility.yul\":27020:27021   */\n      dup3\n        /* \"#utility.yul\":27014:27018   */\n      0xff\n        /* \"#utility.yul\":27010:27022   */\n      sub\n        /* \"#utility.yul\":27007:27008   */\n      dup3\n        /* \"#utility.yul\":27004:27023   */\n      gt\n        /* \"#utility.yul\":27001:27046   */\n      iszero\n      tag_627\n      jumpi\n        /* \"#utility.yul\":27026:27044   */\n      tag_628\n      tag_623\n      jump\t// in\n    tag_628:\n        /* \"#utility.yul\":27001:27046   */\n    tag_627:\n        /* \"#utility.yul\":27070:27071   */\n      dup3\n        /* \"#utility.yul\":27067:27068   */\n      dup3\n        /* \"#utility.yul\":27063:27072   */\n      add\n        /* \"#utility.yul\":27056:27072   */\n      swap1\n      pop\n        /* \"#utility.yul\":26841:27078   */\n      swap3\n      swap2\n      pop\n      pop\n      jump\t// out\n        /* \"#utility.yul\":27084:27263   */\n    tag_184:\n        /* \"#utility.yul\":27122:27123   */\n      0x00\n        /* \"#utility.yul\":27139:27157   */\n      tag_630\n        /* \"#utility.yul\":27155:27156   */\n      dup3\n        /* \"#utility.yul\":27139:27157   */\n      tag_543\n      jump\t// in\n    tag_630:\n        /* \"#utility.yul\":27134:27157   */\n      swap2\n      pop\n        /* \"#utility.yul\":27171:27189   */\n      tag_631\n        /* \"#utility.yul\":27187:27188   */\n      dup4\n        /* \"#utility.yul\":27171:27189   */\n      tag_543\n      jump\t// in\n    tag_631:\n        /* \"#utility.yul\":27166:27189   */\n      swap3\n      pop\n        /* \"#utility.yul\":27208:27209   */\n      dup3\n        /* \"#utility.yul\":27198:27233   */\n      tag_632\n      jumpi\n        /* \"#utility.yul\":27213:27231   */\n      tag_633\n      tag_634\n      jump\t// in\n    tag_633:\n        /* \"#utility.yul\":27198:27233   */\n    tag_632:\n        /* \"#utility.yul\":27255:27256   */\n      dup3\n        /* \"#utility.yul\":27252:27253   */\n      dup3\n        /* \"#utility.yul\":27248:27257   */\n      div\n        /* \"#utility.yul\":27243:27257   */\n      swap1\n      pop\n        /* \"#utility.yul\":27084:27263   */\n      swap3\n      swap2\n      pop\n      pop\n      jump\t// out\n        /* \"#utility.yul\":27269:27617   */\n    tag_282:\n        /* \"#utility.yul\":27309:27316   */\n      0x00\n        /* \"#utility.yul\":27332:27352   */\n      tag_636\n        /* \"#utility.yul\":27350:27351   */\n      dup3\n        /* \"#utility.yul\":27332:27352   */\n      tag_539\n      jump\t// in\n    tag_636:\n        /* \"#utility.yul\":27327:27352   */\n      swap2\n      pop\n        /* \"#utility.yul\":27366:27386   */\n      tag_637\n        /* \"#utility.yul\":27384:27385   */\n      dup4\n        /* \"#utility.yul\":27366:27386   */\n      tag_539\n      jump\t// in\n    tag_637:\n        /* \"#utility.yul\":27361:27386   */\n      swap3\n      pop\n        /* \"#utility.yul\":27554:27555   */\n      dup2\n        /* \"#utility.yul\":27486:27552   */\n      0xffffffffffffffffffffffffffffffffffffffffffffffffffffffffffffffff\n        /* \"#utility.yul\":27482:27556   */\n      div\n        /* \"#utility.yul\":27479:27480   */\n      dup4\n        /* \"#utility.yul\":27476:27557   */\n      gt\n        /* \"#utility.yul\":27471:27472   */\n      dup3\n        /* \"#utility.yul\":27464:27473   */\n      iszero\n        /* \"#utility.yul\":27457:27474   */\n      iszero\n        /* \"#utility.yul\":27453:27558   */\n      and\n        /* \"#utility.yul\":27450:27581   */\n      iszero\n      tag_638\n      jumpi\n        /* \"#utility.yul\":27561:27579   */\n      tag_639\n      tag_623\n      jump\t// in\n    tag_639:\n        /* \"#utility.yul\":27450:27581   */\n    tag_638:\n        /* \"#utility.yul\":27609:27610   */\n      dup3\n        /* \"#utility.yul\":27606:27607   */\n      dup3\n        /* \"#utility.yul\":27602:27611   */\n      mul\n        /* \"#utility.yul\":27591:27611   */\n      swap1\n      pop\n        /* \"#utility.yul\":27269:27617   */\n      swap3\n      swap2\n      pop\n      pop\n      jump\t// out\n        /* \"#utility.yul\":27623:27808   */\n    tag_161:\n        /* \"#utility.yul\":27661:27665   */\n      0x00\n        /* \"#utility.yul\":27681:27699   */\n      tag_641\n        /* \"#utility.yul\":27697:27698   */\n      dup3\n        /* \"#utility.yul\":27681:27699   */\n      tag_543\n      jump\t// in\n    tag_641:\n        /* \"#utility.yul\":27676:27699   */\n      swap2\n      pop\n        /* \"#utility.yul\":27713:27731   */\n      tag_642\n        /* \"#utility.yul\":27729:27730   */\n      dup4\n        /* \"#utility.yul\":27713:27731   */\n      tag_543\n      jump\t// in\n    tag_642:\n        /* \"#utility.yul\":27708:27731   */\n      swap3\n      pop\n        /* \"#utility.yul\":27750:27751   */\n      dup3\n        /* \"#utility.yul\":27747:27748   */\n      dup3\n        /* \"#utility.yul\":27744:27752   */\n      lt\n        /* \"#utility.yul\":27741:27775   */\n      iszero\n      tag_643\n      jumpi\n        /* \"#utility.yul\":27755:27773   */\n      tag_644\n      tag_623\n      jump\t// in\n    tag_644:\n        /* \"#utility.yul\":27741:27775   */\n    tag_643:\n        /* \"#utility.yul\":27800:27801   */\n      dup3\n        /* \"#utility.yul\":27797:27798   */\n      dup3\n        /* \"#utility.yul\":27793:27802   */\n      sub\n        /* \"#utility.yul\":27785:27802   */\n      swap1\n      pop\n        /* \"#utility.yul\":27623:27808   */\n      swap3\n      swap2\n      pop\n      pop\n      jump\t// out\n        /* \"#utility.yul\":27814:27910   */\n    tag_426:\n        /* \"#utility.yul\":27851:27858   */\n      0x00\n        /* \"#utility.yul\":27880:27904   */\n      tag_646\n        /* \"#utility.yul\":27898:27903   */\n      dup3\n        /* \"#utility.yul\":27880:27904   */\n      tag_647\n      jump\t// in\n    tag_646:\n        /* \"#utility.yul\":27869:27904   */\n      swap1\n      pop\n        /* \"#utility.yul\":27814:27910   */\n      swap2\n      swap1\n      pop\n      jump\t// out\n        /* \"#utility.yul\":27916:28020   */\n    tag_422:\n        /* \"#utility.yul\":27961:27968   */\n      0x00\n        /* \"#utility.yul\":27990:28014   */\n      tag_649\n        /* \"#utility.yul\":28008:28013   */\n      dup3\n        /* \"#utility.yul\":27990:28014   */\n      tag_647\n      jump\t// in\n    tag_649:\n        /* \"#utility.yul\":27979:28014   */\n      swap1\n      pop\n        /* \"#utility.yul\":27916:28020   */\n      swap2\n      swap1\n      pop\n      jump\t// out\n        /* \"#utility.yul\":28026:28116   */\n    tag_430:\n        /* \"#utility.yul\":28060:28067   */\n      0x00\n        /* \"#utility.yul\":28103:28108   */\n      dup2\n        /* \"#utility.yul\":28096:28109   */\n      iszero\n        /* \"#utility.yul\":28089:28110   */\n      iszero\n        /* \"#utility.yul\":28078:28110   */\n      swap1\n      pop\n        /* \"#utility.yul\":28026:28116   */\n      swap2\n      swap1\n      pop\n      jump\t// out\n        /* \"#utility.yul\":28122:28199   */\n    tag_434:\n        /* \"#utility.yul\":28159:28166   */\n      0x00\n        /* \"#utility.yul\":28188:28193   */\n      dup2\n        /* \"#utility.yul\":28177:28193   */\n      swap1\n      pop\n        /* \"#utility.yul\":28122:28199   */\n      swap2\n      swap1\n      pop\n      jump\t// out\n        /* \"#utility.yul\":28205:28354   */\n    tag_652:\n        /* \"#utility.yul\":28241:28248   */\n      0x00\n        /* \"#utility.yul\":28281:28347   */\n      0xffffffff00000000000000000000000000000000000000000000000000000000\n        /* \"#utility.yul\":28274:28279   */\n      dup3\n        /* \"#utility.yul\":28270:28348   */\n      and\n        /* \"#utility.yul\":28259:28348   */\n      swap1\n      pop\n        /* \"#utility.yul\":28205:28354   */\n      swap2\n      swap1\n      pop\n      jump\t// out\n        /* \"#utility.yul\":28360:28486   */\n    tag_647:\n        /* \"#utility.yul\":28397:28404   */\n      0x00\n        /* \"#utility.yul\":28437:28479   */\n      0xffffffffffffffffffffffffffffffffffffffff\n        /* \"#utility.yul\":28430:28435   */\n      dup3\n        /* \"#utility.yul\":28426:28480   */\n      and\n        /* \"#utility.yul\":28415:28480   */\n      swap1\n      pop\n        /* \"#utility.yul\":28360:28486   */\n      swap2\n      swap1\n      pop\n      jump\t// out\n        /* \"#utility.yul\":28492:28569   */\n    tag_539:\n        /* \"#utility.yul\":28529:28536   */\n      0x00\n        /* \"#utility.yul\":28558:28563   */\n      dup2\n        /* \"#utility.yul\":28547:28563   */\n      swap1\n      pop\n        /* \"#utility.yul\":28492:28569   */\n      swap2\n      swap1\n      pop\n      jump\t// out\n        /* \"#utility.yul\":28575:28661   */\n    tag_543:\n        /* \"#utility.yul\":28610:28617   */\n      0x00\n        /* \"#utility.yul\":28650:28654   */\n      0xff\n        /* \"#utility.yul\":28643:28648   */\n      dup3\n        /* \"#utility.yul\":28639:28655   */\n      and\n        /* \"#utility.yul\":28628:28655   */\n      swap1\n      pop\n        /* \"#utility.yul\":28575:28661   */\n      swap2\n      swap1\n      pop\n      jump\t// out\n        /* \"#utility.yul\":28667:28801   */\n    tag_418:\n        /* \"#utility.yul\":28725:28734   */\n      0x00\n        /* \"#utility.yul\":28758:28795   */\n      tag_658\n        /* \"#utility.yul\":28789:28794   */\n      dup3\n        /* \"#utility.yul\":28758:28795   */\n      tag_659\n      jump\t// in\n    tag_658:\n        /* \"#utility.yul\":28745:28795   */\n      swap1\n      pop\n        /* \"#utility.yul\":28667:28801   */\n      swap2\n      swap1\n      pop\n      jump\t// out\n        /* \"#utility.yul\":28807:28933   */\n    tag_659:\n        /* \"#utility.yul\":28857:28866   */\n      0x00\n        /* \"#utility.yul\":28890:28927   */\n      tag_661\n        /* \"#utility.yul\":28921:28926   */\n      dup3\n        /* \"#utility.yul\":28890:28927   */\n      tag_662\n      jump\t// in\n    tag_661:\n        /* \"#utility.yul\":28877:28927   */\n      swap1\n      pop\n        /* \"#utility.yul\":28807:28933   */\n      swap2\n      swap1\n      pop\n      jump\t// out\n        /* \"#utility.yul\":28939:29052   */\n    tag_662:\n        /* \"#utility.yul\":28989:28998   */\n      0x00\n        /* \"#utility.yul\":29022:29046   */\n      tag_664\n        /* \"#utility.yul\":29040:29045   */\n      dup3\n        /* \"#utility.yul\":29022:29046   */\n      tag_647\n      jump\t// in\n    tag_664:\n        /* \"#utility.yul\":29009:29046   */\n      swap1\n      pop\n        /* \"#utility.yul\":28939:29052   */\n      swap2\n      swap1\n      pop\n      jump\t// out\n        /* \"#utility.yul\":29058:29212   */\n    tag_328:\n        /* \"#utility.yul\":29142:29148   */\n      dup3\n        /* \"#utility.yul\":29137:29140   */\n      dup2\n        /* \"#utility.yul\":29132:29135   */\n      dup4\n        /* \"#utility.yul\":29119:29149   */\n      calldatacopy\n        /* \"#utility.yul\":29204:29205   */\n      0x00\n        /* \"#utility.yul\":29195:29201   */\n      dup4\n        /* \"#utility.yul\":29190:29193   */\n      dup4\n        /* \"#utility.yul\":29186:29202   */\n      add\n        /* \"#utility.yul\":29179:29206   */\n      mstore\n        /* \"#utility.yul\":29058:29212   */\n      pop\n      pop\n      pop\n      jump\t// out\n        /* \"#utility.yul\":29218:29525   */\n    tag_442:\n        /* \"#utility.yul\":29286:29287   */\n      0x00\n        /* \"#utility.yul\":29296:29409   */\n    tag_667:\n        /* \"#utility.yul\":29310:29316   */\n      dup4\n        /* \"#utility.yul\":29307:29308   */\n      dup2\n        /* \"#utility.yul\":29304:29317   */\n      lt\n        /* \"#utility.yul\":29296:29409   */\n      iszero\n      tag_669\n      jumpi\n        /* \"#utility.yul\":29395:29396   */\n      dup1\n        /* \"#utility.yul\":29390:29393   */\n      dup3\n        /* \"#utility.yul\":29386:29397   */\n      add\n        /* \"#utility.yul\":29380:29398   */\n      mload\n        /* \"#utility.yul\":29376:29377   */\n      dup2\n        /* \"#utility.yul\":29371:29374   */\n      dup5\n        /* \"#utility.yul\":29367:29378   */\n      add\n        /* \"#utility.yul\":29360:29399   */\n      mstore\n        /* \"#utility.yul\":29332:29334   */\n      0x20\n        /* \"#utility.yul\":29329:29330   */\n      dup2\n        /* \"#utility.yul\":29325:29335   */\n      add\n        /* \"#utility.yul\":29320:29335   */\n      swap1\n      pop\n        /* \"#utility.yul\":29296:29409   */\n      jump(tag_667)\n    tag_669:\n        /* \"#utility.yul\":29427:29433   */\n      dup4\n        /* \"#utility.yul\":29424:29425   */\n      dup2\n        /* \"#utility.yul\":29421:29434   */\n      gt\n        /* \"#utility.yul\":29418:29519   */\n      iszero\n      tag_670\n      jumpi\n        /* \"#utility.yul\":29507:29508   */\n      0x00\n        /* \"#utility.yul\":29498:29504   */\n      dup5\n        /* \"#utility.yul\":29493:29496   */\n      dup5\n        /* \"#utility.yul\":29489:29505   */\n      add\n        /* \"#utility.yul\":29482:29509   */\n      mstore\n        /* \"#utility.yul\":29418:29519   */\n    tag_670:\n        /* \"#utility.yul\":29267:29525   */\n      pop\n        /* \"#utility.yul\":29218:29525   */\n      pop\n      pop\n      pop\n      jump\t// out\n        /* \"#utility.yul\":29531:29702   */\n    tag_303:\n        /* \"#utility.yul\":29570:29573   */\n      0x00\n        /* \"#utility.yul\":29593:29617   */\n      tag_672\n        /* \"#utility.yul\":29611:29616   */\n      dup3\n        /* \"#utility.yul\":29593:29617   */\n      tag_539\n      jump\t// in\n    tag_672:\n        /* \"#utility.yul\":29584:29617   */\n      swap2\n      pop\n        /* \"#utility.yul\":29639:29643   */\n      0x00\n        /* \"#utility.yul\":29632:29637   */\n      dup3\n        /* \"#utility.yul\":29629:29644   */\n      eq\n        /* \"#utility.yul\":29626:29667   */\n      iszero\n      tag_673\n      jumpi\n        /* \"#utility.yul\":29647:29665   */\n      tag_674\n      tag_623\n      jump\t// in\n    tag_674:\n        /* \"#utility.yul\":29626:29667   */\n    tag_673:\n        /* \"#utility.yul\":29694:29695   */\n      0x01\n        /* \"#utility.yul\":29687:29692   */\n      dup3\n        /* \"#utility.yul\":29683:29696   */\n      sub\n        /* \"#utility.yul\":29676:29696   */\n      swap1\n      pop\n        /* \"#utility.yul\":29531:29702   */\n      swap2\n      swap1\n      pop\n      jump\t// out\n        /* \"#utility.yul\":29708:30028   */\n    tag_187:\n        /* \"#utility.yul\":29752:29758   */\n      0x00\n        /* \"#utility.yul\":29789:29790   */\n      0x02\n        /* \"#utility.yul\":29783:29787   */\n      dup3\n        /* \"#utility.yul\":29779:29791   */\n      div\n        /* \"#utility.yul\":29769:29791   */\n      swap1\n      pop\n        /* \"#utility.yul\":29836:29837   */\n      0x01\n        /* \"#utility.yul\":29830:29834   */\n      dup3\n        /* \"#utility.yul\":29826:29838   */\n      and\n        /* \"#utility.yul\":29857:29875   */\n      dup1\n        /* \"#utility.yul\":29847:29928   */\n      tag_676\n      jumpi\n        /* \"#utility.yul\":29913:29917   */\n      0x7f\n        /* \"#utility.yul\":29905:29911   */\n      dup3\n        /* \"#utility.yul\":29901:29918   */\n      and\n        /* \"#utility.yul\":29891:29918   */\n      swap2\n      pop\n        /* \"#utility.yul\":29847:29928   */\n    tag_676:\n        /* \"#utility.yul\":29975:29977   */\n      0x20\n        /* \"#utility.yul\":29967:29973   */\n      dup3\n        /* \"#utility.yul\":29964:29978   */\n      lt\n        /* \"#utility.yul\":29944:29962   */\n      dup2\n        /* \"#utility.yul\":29941:29979   */\n      eq\n        /* \"#utility.yul\":29938:30022   */\n      iszero\n      tag_677\n      jumpi\n        /* \"#utility.yul\":29994:30012   */\n      tag_678\n      tag_679\n      jump\t// in\n    tag_678:\n        /* \"#utility.yul\":29938:30022   */\n    tag_677:\n        /* \"#utility.yul\":29759:30028   */\n      pop\n        /* \"#utility.yul\":29708:30028   */\n      swap2\n      swap1\n      pop\n      jump\t// out\n        /* \"#utility.yul\":30034:30315   */\n    tag_609:\n        /* \"#utility.yul\":30117:30144   */\n      tag_681\n        /* \"#utility.yul\":30139:30143   */\n      dup3\n        /* \"#utility.yul\":30117:30144   */\n      tag_444\n      jump\t// in\n    tag_681:\n        /* \"#utility.yul\":30109:30115   */\n      dup2\n        /* \"#utility.yul\":30105:30145   */\n      add\n        /* \"#utility.yul\":30247:30253   */\n      dup2\n        /* \"#utility.yul\":30235:30245   */\n      dup2\n        /* \"#utility.yul\":30232:30254   */\n      lt\n        /* \"#utility.yul\":30211:30229   */\n      0xffffffffffffffff\n        /* \"#utility.yul\":30199:30209   */\n      dup3\n        /* \"#utility.yul\":30196:30230   */\n      gt\n        /* \"#utility.yul\":30193:30255   */\n      or\n        /* \"#utility.yul\":30190:30278   */\n      iszero\n      tag_682\n      jumpi\n        /* \"#utility.yul\":30258:30276   */\n      tag_683\n      tag_287\n      jump\t// in\n    tag_683:\n        /* \"#utility.yul\":30190:30278   */\n    tag_682:\n        /* \"#utility.yul\":30298:30308   */\n      dup1\n        /* \"#utility.yul\":30294:30296   */\n      0x40\n        /* \"#utility.yul\":30287:30309   */\n      mstore\n        /* \"#utility.yul\":30077:30315   */\n      pop\n        /* \"#utility.yul\":30034:30315   */\n      pop\n      pop\n      jump\t// out\n        /* \"#utility.yul\":30321:30554   */\n    tag_220:\n        /* \"#utility.yul\":30360:30363   */\n      0x00\n        /* \"#utility.yul\":30383:30407   */\n      tag_685\n        /* \"#utility.yul\":30401:30406   */\n      dup3\n        /* \"#utility.yul\":30383:30407   */\n      tag_539\n      jump\t// in\n    tag_685:\n        /* \"#utility.yul\":30374:30407   */\n      swap2\n      pop\n        /* \"#utility.yul\":30429:30495   */\n      0xffffffffffffffffffffffffffffffffffffffffffffffffffffffffffffffff\n        /* \"#utility.yul\":30422:30427   */\n      dup3\n        /* \"#utility.yul\":30419:30496   */\n      eq\n        /* \"#utility.yul\":30416:30519   */\n      iszero\n      tag_686\n      jumpi\n        /* \"#utility.yul\":30499:30517   */\n      tag_687\n      tag_623\n      jump\t// in\n    tag_687:\n        /* \"#utility.yul\":30416:30519   */\n    tag_686:\n        /* \"#utility.yul\":30546:30547   */\n      0x01\n        /* \"#utility.yul\":30539:30544   */\n      dup3\n        /* \"#utility.yul\":30535:30548   */\n      add\n        /* \"#utility.yul\":30528:30548   */\n      swap1\n      pop\n        /* \"#utility.yul\":30321:30554   */\n      swap2\n      swap1\n      pop\n      jump\t// out\n        /* \"#utility.yul\":30560:30727   */\n    tag_147:\n        /* \"#utility.yul\":30597:30600   */\n      0x00\n        /* \"#utility.yul\":30620:30642   */\n      tag_689\n        /* \"#utility.yul\":30636:30641   */\n      dup3\n        /* \"#utility.yul\":30620:30642   */\n      tag_543\n      jump\t// in\n    tag_689:\n        /* \"#utility.yul\":30611:30642   */\n      swap2\n      pop\n        /* \"#utility.yul\":30664:30668   */\n      0xff\n        /* \"#utility.yul\":30657:30662   */\n      dup3\n        /* \"#utility.yul\":30654:30669   */\n      eq\n        /* \"#utility.yul\":30651:30692   */\n      iszero\n      tag_690\n      jumpi\n        /* \"#utility.yul\":30672:30690   */\n      tag_691\n      tag_623\n      jump\t// in\n    tag_691:\n        /* \"#utility.yul\":30651:30692   */\n    tag_690:\n        /* \"#utility.yul\":30719:30720   */\n      0x01\n        /* \"#utility.yul\":30712:30717   */\n      dup3\n        /* \"#utility.yul\":30708:30721   */\n      add\n        /* \"#utility.yul\":30701:30721   */\n      swap1\n      pop\n        /* \"#utility.yul\":30560:30727   */\n      swap2\n      swap1\n      pop\n      jump\t// out\n        /* \"#utility.yul\":30733:30913   */\n    tag_623:\n        /* \"#utility.yul\":30781:30858   */\n      0x4e487b7100000000000000000000000000000000000000000000000000000000\n        /* \"#utility.yul\":30778:30779   */\n      0x00\n        /* \"#utility.yul\":30771:30859   */\n      mstore\n        /* \"#utility.yul\":30878:30882   */\n      0x11\n        /* \"#utility.yul\":30875:30876   */\n      0x04\n        /* \"#utility.yul\":30868:30883   */\n      mstore\n        /* \"#utility.yul\":30902:30906   */\n      0x24\n        /* \"#utility.yul\":30899:30900   */\n      0x00\n        /* \"#utility.yul\":30892:30907   */\n      revert\n        /* \"#utility.yul\":30919:31099   */\n    tag_634:\n        /* \"#utility.yul\":30967:31044   */\n      0x4e487b7100000000000000000000000000000000000000000000000000000000\n        /* \"#utility.yul\":30964:30965   */\n      0x00\n        /* \"#utility.yul\":30957:31045   */\n      mstore\n        /* \"#utility.yul\":31064:31068   */\n      0x12\n        /* \"#utility.yul\":31061:31062   */\n      0x04\n        /* \"#utility.yul\":31054:31069   */\n      mstore\n        /* \"#utility.yul\":31088:31092   */\n      0x24\n        /* \"#utility.yul\":31085:31086   */\n      0x00\n        /* \"#utility.yul\":31078:31093   */\n      revert\n        /* \"#utility.yul\":31105:31285   */\n    tag_679:\n        /* \"#utility.yul\":31153:31230   */\n      0x4e487b7100000000000000000000000000000000000000000000000000000000\n        /* \"#utility.yul\":31150:31151   */\n      0x00\n        /* \"#utility.yul\":31143:31231   */\n      mstore\n        /* \"#utility.yul\":31250:31254   */\n      0x22\n        /* \"#utility.yul\":31247:31248   */\n      0x04\n        /* \"#utility.yul\":31240:31255   */\n      mstore\n        /* \"#utility.yul\":31274:31278   */\n      0x24\n        /* \"#utility.yul\":31271:31272   */\n      0x00\n        /* \"#utility.yul\":31264:31279   */\n      revert\n        /* \"#utility.yul\":31291:31471   */\n    tag_277:\n        /* \"#utility.yul\":31339:31416   */\n      0x4e487b7100000000000000000000000000000000000000000000000000000000\n        /* \"#utility.yul\":31336:31337   */\n      0x00\n        /* \"#utility.yul\":31329:31417   */\n      mstore\n        /* \"#utility.yul\":31436:31440   */\n      0x32\n        /* \"#utility.yul\":31433:31434   */\n      0x04\n        /* \"#utility.yul\":31426:31441   */\n      mstore\n        /* \"#utility.yul\":31460:31464   */\n      0x24\n        /* \"#utility.yul\":31457:31458   */\n      0x00\n        /* \"#utility.yul\":31450:31465   */\n      revert\n        /* \"#utility.yul\":31477:31657   */\n    tag_287:\n        /* \"#utility.yul\":31525:31602   */\n      0x4e487b7100000000000000000000000000000000000000000000000000000000\n        /* \"#utility.yul\":31522:31523   */\n      0x00\n        /* \"#utility.yul\":31515:31603   */\n      mstore\n        /* \"#utility.yul\":31622:31626   */\n      0x41\n        /* \"#utility.yul\":31619:31620   */\n      0x04\n        /* \"#utility.yul\":31612:31627   */\n      mstore\n        /* \"#utility.yul\":31646:31650   */\n      0x24\n        /* \"#utility.yul\":31643:31644   */\n      0x00\n        /* \"#utility.yul\":31636:31651   */\n      revert\n        /* \"#utility.yul\":31663:31780   */\n    tag_349:\n        /* \"#utility.yul\":31772:31773   */\n      0x00\n        /* \"#utility.yul\":31769:31770   */\n      dup1\n        /* \"#utility.yul\":31762:31774   */\n      revert\n        /* \"#utility.yul\":31786:31903   */\n    tag_326:\n        /* \"#utility.yul\":31895:31896   */\n      0x00\n        /* \"#utility.yul\":31892:31893   */\n      dup1\n        /* \"#utility.yul\":31885:31897   */\n      revert\n        /* \"#utility.yul\":31909:32026   */\n    tag_378:\n        /* \"#utility.yul\":32018:32019   */\n      0x00\n        /* \"#utility.yul\":32015:32016   */\n      dup1\n        /* \"#utility.yul\":32008:32020   */\n      revert\n        /* \"#utility.yul\":32032:32149   */\n    tag_362:\n        /* \"#utility.yul\":32141:32142   */\n      0x00\n        /* \"#utility.yul\":32138:32139   */\n      dup1\n        /* \"#utility.yul\":32131:32143   */\n      revert\n        /* \"#utility.yul\":32155:32257   */\n    tag_444:\n        /* \"#utility.yul\":32196:32202   */\n      0x00\n        /* \"#utility.yul\":32247:32249   */\n      0x1f\n        /* \"#utility.yul\":32243:32250   */\n      not\n        /* \"#utility.yul\":32238:32240   */\n      0x1f\n        /* \"#utility.yul\":32231:32236   */\n      dup4\n        /* \"#utility.yul\":32227:32241   */\n      add\n        /* \"#utility.yul\":32223:32251   */\n      and\n        /* \"#utility.yul\":32213:32251   */\n      swap1\n      pop\n        /* \"#utility.yul\":32155:32257   */\n      swap2\n      swap1\n      pop\n      jump\t// out\n        /* \"#utility.yul\":32263:32444   */\n    tag_455:\n        /* \"#utility.yul\":32403:32436   */\n      0x5175616e74697479206d7573742062652067726561746572207468616e203000\n        /* \"#utility.yul\":32399:32400   */\n      0x00\n        /* \"#utility.yul\":32391:32397   */\n      dup3\n        /* \"#utility.yul\":32387:32401   */\n      add\n        /* \"#utility.yul\":32380:32437   */\n      mstore\n        /* \"#utility.yul\":32263:32444   */\n      pop\n      jump\t// out\n        /* \"#utility.yul\":32450:32698   */\n    tag_460:\n        /* \"#utility.yul\":32590:32624   */\n      0x5175616e74697479206d757374206265206c657373207468616e206f72206571\n        /* \"#utility.yul\":32586:32587   */\n      0x00\n        /* \"#utility.yul\":32578:32584   */\n      dup3\n        /* \"#utility.yul\":32574:32588   */\n      add\n        /* \"#utility.yul\":32567:32625   */\n      mstore\n        /* \"#utility.yul\":32659:32690   */\n      0x75616c20746f2074686520617661696c61626c65207175616e74697479000000\n        /* \"#utility.yul\":32654:32656   */\n      0x20\n        /* \"#utility.yul\":32646:32652   */\n      dup3\n        /* \"#utility.yul\":32642:32657   */\n      add\n        /* \"#utility.yul\":32635:32691   */\n      mstore\n        /* \"#utility.yul\":32450:32698   */\n      pop\n      jump\t// out\n        /* \"#utility.yul\":32704:32886   */\n    tag_465:\n        /* \"#utility.yul\":32844:32878   */\n      0x537472696e67733a20686578206c656e67746820696e73756666696369656e74\n        /* \"#utility.yul\":32840:32841   */\n      0x00\n        /* \"#utility.yul\":32832:32838   */\n      dup3\n        /* \"#utility.yul\":32828:32842   */\n      add\n        /* \"#utility.yul\":32821:32879   */\n      mstore\n        /* \"#utility.yul\":32704:32886   */\n      pop\n      jump\t// out\n        /* \"#utility.yul\":32892:33062   */\n    tag_470:\n        /* \"#utility.yul\":33032:33054   */\n      0x507269636520646f6573206e6f74206d61746368000000000000000000000000\n        /* \"#utility.yul\":33028:33029   */\n      0x00\n        /* \"#utility.yul\":33020:33026   */\n      dup3\n        /* \"#utility.yul\":33016:33030   */\n      add\n        /* \"#utility.yul\":33009:33055   */\n      mstore\n        /* \"#utility.yul\":32892:33062   */\n      pop\n      jump\t// out\n        /* \"#utility.yul\":33068:33294   */\n    tag_475:\n        /* \"#utility.yul\":33208:33242   */\n      0x4f6e6c79207468652073656c6c65722063616e20757064617465207468652071\n        /* \"#utility.yul\":33204:33205   */\n      0x00\n        /* \"#utility.yul\":33196:33202   */\n      dup3\n        /* \"#utility.yul\":33192:33206   */\n      add\n        /* \"#utility.yul\":33185:33243   */\n      mstore\n        /* \"#utility.yul\":33277:33286   */\n      0x75616e7469747900000000000000000000000000000000000000000000000000\n        /* \"#utility.yul\":33272:33274   */\n      0x20\n        /* \"#utility.yul\":33264:33270   */\n      dup3\n        /* \"#utility.yul\":33260:33275   */\n      add\n        /* \"#utility.yul\":33253:33287   */\n      mstore\n        /* \"#utility.yul\":33068:33294   */\n      pop\n      jump\t// out\n        /* \"#utility.yul\":33300:33523   */\n    tag_480:\n        /* \"#utility.yul\":33440:33474   */\n      0x4f6e6c79207468652073656c6c65722063616e20757064617465207468652070\n        /* \"#utility.yul\":33436:33437   */\n      0x00\n        /* \"#utility.yul\":33428:33434   */\n      dup3\n        /* \"#utility.yul\":33424:33438   */\n      add\n        /* \"#utility.yul\":33417:33475   */\n      mstore\n        /* \"#utility.yul\":33509:33515   */\n      0x7269636500000000000000000000000000000000000000000000000000000000\n        /* \"#utility.yul\":33504:33506   */\n      0x20\n        /* \"#utility.yul\":33496:33502   */\n      dup3\n        /* \"#utility.yul\":33492:33507   */\n      add\n        /* \"#utility.yul\":33485:33516   */\n      mstore\n        /* \"#utility.yul\":33300:33523   */\n      pop\n      jump\t// out\n        /* \"#utility.yul\":33529:33758   */\n    tag_485:\n        /* \"#utility.yul\":33669:33703   */\n      0x4f6e6c79207468652073656c6c65722063616e20757064617465207468652064\n        /* \"#utility.yul\":33665:33666   */\n      0x00\n        /* \"#utility.yul\":33657:33663   */\n      dup3\n        /* \"#utility.yul\":33653:33667   */\n      add\n        /* \"#utility.yul\":33646:33704   */\n      mstore\n        /* \"#utility.yul\":33738:33750   */\n      0x65736372697074696f6e00000000000000000000000000000000000000000000\n        /* \"#utility.yul\":33733:33735   */\n      0x20\n        /* \"#utility.yul\":33725:33731   */\n      dup3\n        /* \"#utility.yul\":33721:33736   */\n      add\n        /* \"#utility.yul\":33714:33751   */\n      mstore\n        /* \"#utility.yul\":33529:33758   */\n      pop\n      jump\t// out\n        /* \"#utility.yul\":33764:33984   */\n    tag_490:\n        /* \"#utility.yul\":33904:33938   */\n      0x596f752063616e6e6f7420766f746520666f7220746869732070726f64756374\n        /* \"#utility.yul\":33900:33901   */\n      0x00\n        /* \"#utility.yul\":33892:33898   */\n      dup3\n        /* \"#utility.yul\":33888:33902   */\n      add\n        /* \"#utility.yul\":33881:33939   */\n      mstore\n        /* \"#utility.yul\":33973:33976   */\n      0x2e00000000000000000000000000000000000000000000000000000000000000\n        /* \"#utility.yul\":33968:33970   */\n      0x20\n        /* \"#utility.yul\":33960:33966   */\n      dup3\n        /* \"#utility.yul\":33956:33971   */\n      add\n        /* \"#utility.yul\":33949:33977   */\n      mstore\n        /* \"#utility.yul\":33764:33984   */\n      pop\n      jump\t// out\n        /* \"#utility.yul\":33990:34217   */\n    tag_495:\n        /* \"#utility.yul\":34130:34164   */\n      0x4f6e6c79207468652073656c6c65722063616e20757064617465207468652069\n        /* \"#utility.yul\":34126:34127   */\n      0x00\n        /* \"#utility.yul\":34118:34124   */\n      dup3\n        /* \"#utility.yul\":34114:34128   */\n      add\n        /* \"#utility.yul\":34107:34165   */\n      mstore\n        /* \"#utility.yul\":34199:34209   */\n      0x6d6167652075726c000000000000000000000000000000000000000000000000\n        /* \"#utility.yul\":34194:34196   */\n      0x20\n        /* \"#utility.yul\":34186:34192   */\n      dup3\n        /* \"#utility.yul\":34182:34197   */\n      add\n        /* \"#utility.yul\":34175:34210   */\n      mstore\n        /* \"#utility.yul\":33990:34217   */\n      pop\n      jump\t// out\n        /* \"#utility.yul\":34223:34450   */\n    tag_500:\n        /* \"#utility.yul\":34363:34397   */\n      0x5374617273206d7573742062652067726561746572207468616e206f72206571\n        /* \"#utility.yul\":34359:34360   */\n      0x00\n        /* \"#utility.yul\":34351:34357   */\n      dup3\n        /* \"#utility.yul\":34347:34361   */\n      add\n        /* \"#utility.yul\":34340:34398   */\n      mstore\n        /* \"#utility.yul\":34432:34442   */\n      0x75616c20746f2031000000000000000000000000000000000000000000000000\n        /* \"#utility.yul\":34427:34429   */\n      0x20\n        /* \"#utility.yul\":34419:34425   */\n      dup3\n        /* \"#utility.yul\":34415:34430   */\n      add\n        /* \"#utility.yul\":34408:34443   */\n      mstore\n        /* \"#utility.yul\":34223:34450   */\n      pop\n      jump\t// out\n        /* \"#utility.yul\":34456:34683   */\n    tag_505:\n        /* \"#utility.yul\":34596:34630   */\n      0x4f6e6c79207468652073656c6c65722063616e206372656174652061206d6172\n        /* \"#utility.yul\":34592:34593   */\n      0x00\n        /* \"#utility.yul\":34584:34590   */\n      dup3\n        /* \"#utility.yul\":34580:34594   */\n      add\n        /* \"#utility.yul\":34573:34631   */\n      mstore\n        /* \"#utility.yul\":34665:34675   */\n      0x6b6574206974656d000000000000000000000000000000000000000000000000\n        /* \"#utility.yul\":34660:34662   */\n      0x20\n        /* \"#utility.yul\":34652:34658   */\n      dup3\n        /* \"#utility.yul\":34648:34663   */\n      add\n        /* \"#utility.yul\":34641:34676   */\n      mstore\n        /* \"#utility.yul\":34456:34683   */\n      pop\n      jump\t// out\n        /* \"#utility.yul\":34689:34861   */\n    tag_510:\n        /* \"#utility.yul\":34829:34853   */\n      0x5468652073656c6c65722063616e6e6f7420766f746500000000000000000000\n        /* \"#utility.yul\":34825:34826   */\n      0x00\n        /* \"#utility.yul\":34817:34823   */\n      dup3\n        /* \"#utility.yul\":34813:34827   */\n      add\n        /* \"#utility.yul\":34806:34854   */\n      mstore\n        /* \"#utility.yul\":34689:34861   */\n      pop\n      jump\t// out\n        /* \"#utility.yul\":34867:35091   */\n    tag_515:\n        /* \"#utility.yul\":35007:35041   */\n      0x5374617273206d757374206265206c657373207468616e206f7220657175616c\n        /* \"#utility.yul\":35003:35004   */\n      0x00\n        /* \"#utility.yul\":34995:35001   */\n      dup3\n        /* \"#utility.yul\":34991:35005   */\n      add\n        /* \"#utility.yul\":34984:35042   */\n      mstore\n        /* \"#utility.yul\":35076:35083   */\n      0x20746f2035000000000000000000000000000000000000000000000000000000\n        /* \"#utility.yul\":35071:35073   */\n      0x20\n        /* \"#utility.yul\":35063:35069   */\n      dup3\n        /* \"#utility.yul\":35059:35074   */\n      add\n        /* \"#utility.yul\":35052:35084   */\n      mstore\n        /* \"#utility.yul\":34867:35091   */\n      pop\n      jump\t// out\n        /* \"#utility.yul\":35097:35270   */\n    tag_520:\n        /* \"#utility.yul\":35237:35262   */\n      0x416363657373436f6e74726f6c3a206163636f756e7420000000000000000000\n        /* \"#utility.yul\":35233:35234   */\n      0x00\n        /* \"#utility.yul\":35225:35231   */\n      dup3\n        /* \"#utility.yul\":35221:35235   */\n      add\n        /* \"#utility.yul\":35214:35263   */\n      mstore\n        /* \"#utility.yul\":35097:35270   */\n      pop\n      jump\t// out\n        /* \"#utility.yul\":35276:35454   */\n    tag_525:\n        /* \"#utility.yul\":35416:35446   */\n      0x5072696365206d7573742062652067726561746572207468616e203000000000\n        /* \"#utility.yul\":35412:35413   */\n      0x00\n        /* \"#utility.yul\":35404:35410   */\n      dup3\n        /* \"#utility.yul\":35400:35414   */\n      add\n        /* \"#utility.yul\":35393:35447   */\n      mstore\n        /* \"#utility.yul\":35276:35454   */\n      pop\n      jump\t// out\n        /* \"#utility.yul\":35460:35627   */\n    tag_530:\n        /* \"#utility.yul\":35600:35619   */\n      0x206973206d697373696e6720726f6c6520000000000000000000000000000000\n        /* \"#utility.yul\":35596:35597   */\n      0x00\n        /* \"#utility.yul\":35588:35594   */\n      dup3\n        /* \"#utility.yul\":35584:35598   */\n      add\n        /* \"#utility.yul\":35577:35620   */\n      mstore\n        /* \"#utility.yul\":35460:35627   */\n      pop\n      jump\t// out\n        /* \"#utility.yul\":35633:35867   */\n    tag_535:\n        /* \"#utility.yul\":35773:35807   */\n      0x416363657373436f6e74726f6c3a2063616e206f6e6c792072656e6f756e6365\n        /* \"#utility.yul\":35769:35770   */\n      0x00\n        /* \"#utility.yul\":35761:35767   */\n      dup3\n        /* \"#utility.yul\":35757:35771   */\n      add\n        /* \"#utility.yul\":35750:35808   */\n      mstore\n        /* \"#utility.yul\":35842:35859   */\n      0x20726f6c657320666f722073656c660000000000000000000000000000000000\n        /* \"#utility.yul\":35837:35839   */\n      0x20\n        /* \"#utility.yul\":35829:35835   */\n      dup3\n        /* \"#utility.yul\":35825:35840   */\n      add\n        /* \"#utility.yul\":35818:35860   */\n      mstore\n        /* \"#utility.yul\":35633:35867   */\n      pop\n      jump\t// out\n        /* \"#utility.yul\":35873:35995   */\n    tag_332:\n        /* \"#utility.yul\":35946:35970   */\n      tag_720\n        /* \"#utility.yul\":35964:35969   */\n      dup2\n        /* \"#utility.yul\":35946:35970   */\n      tag_426\n      jump\t// in\n    tag_720:\n        /* \"#utility.yul\":35939:35944   */\n      dup2\n        /* \"#utility.yul\":35936:35971   */\n      eq\n        /* \"#utility.yul\":35926:35989   */\n      tag_721\n      jumpi\n        /* \"#utility.yul\":35985:35986   */\n      0x00\n        /* \"#utility.yul\":35982:35983   */\n      dup1\n        /* \"#utility.yul\":35975:35987   */\n      revert\n        /* \"#utility.yul\":35926:35989   */\n    tag_721:\n        /* \"#utility.yul\":35873:35995   */\n      pop\n      jump\t// out\n        /* \"#utility.yul\":36001:36139   */\n    tag_336:\n        /* \"#utility.yul\":36082:36114   */\n      tag_723\n        /* \"#utility.yul\":36108:36113   */\n      dup2\n        /* \"#utility.yul\":36082:36114   */\n      tag_422\n      jump\t// in\n    tag_723:\n        /* \"#utility.yul\":36075:36080   */\n      dup2\n        /* \"#utility.yul\":36072:36115   */\n      eq\n        /* \"#utility.yul\":36062:36133   */\n      tag_724\n      jumpi\n        /* \"#utility.yul\":36129:36130   */\n      0x00\n        /* \"#utility.yul\":36126:36127   */\n      dup1\n        /* \"#utility.yul\":36119:36131   */\n      revert\n        /* \"#utility.yul\":36062:36133   */\n    tag_724:\n        /* \"#utility.yul\":36001:36139   */\n      pop\n      jump\t// out\n        /* \"#utility.yul\":36145:36267   */\n    tag_340:\n        /* \"#utility.yul\":36218:36242   */\n      tag_726\n        /* \"#utility.yul\":36236:36241   */\n      dup2\n        /* \"#utility.yul\":36218:36242   */\n      tag_434\n      jump\t// in\n    tag_726:\n        /* \"#utility.yul\":36211:36216   */\n      dup2\n        /* \"#utility.yul\":36208:36243   */\n      eq\n        /* \"#utility.yul\":36198:36261   */\n      tag_727\n      jumpi\n        /* \"#utility.yul\":36257:36258   */\n      0x00\n        /* \"#utility.yul\":36254:36255   */\n      dup1\n        /* \"#utility.yul\":36247:36259   */\n      revert\n        /* \"#utility.yul\":36198:36261   */\n    tag_727:\n        /* \"#utility.yul\":36145:36267   */\n      pop\n      jump\t// out\n        /* \"#utility.yul\":36273:36393   */\n    tag_344:\n        /* \"#utility.yul\":36345:36368   */\n      tag_729\n        /* \"#utility.yul\":36362:36367   */\n      dup2\n        /* \"#utility.yul\":36345:36368   */\n      tag_652\n      jump\t// in\n    tag_729:\n        /* \"#utility.yul\":36338:36343   */\n      dup2\n        /* \"#utility.yul\":36335:36369   */\n      eq\n        /* \"#utility.yul\":36325:36387   */\n      tag_730\n      jumpi\n        /* \"#utility.yul\":36383:36384   */\n      0x00\n        /* \"#utility.yul\":36380:36381   */\n      dup1\n        /* \"#utility.yul\":36373:36385   */\n      revert\n        /* \"#utility.yul\":36325:36387   */\n    tag_730:\n        /* \"#utility.yul\":36273:36393   */\n      pop\n      jump\t// out\n        /* \"#utility.yul\":36399:36521   */\n    tag_354:\n        /* \"#utility.yul\":36472:36496   */\n      tag_732\n        /* \"#utility.yul\":36490:36495   */\n      dup2\n        /* \"#utility.yul\":36472:36496   */\n      tag_539\n      jump\t// in\n    tag_732:\n        /* \"#utility.yul\":36465:36470   */\n      dup2\n        /* \"#utility.yul\":36462:36497   */\n      eq\n        /* \"#utility.yul\":36452:36515   */\n      tag_733\n      jumpi\n        /* \"#utility.yul\":36511:36512   */\n      0x00\n        /* \"#utility.yul\":36508:36509   */\n      dup1\n        /* \"#utility.yul\":36501:36513   */\n      revert\n        /* \"#utility.yul\":36452:36515   */\n    tag_733:\n        /* \"#utility.yul\":36399:36521   */\n      pop\n      jump\t// out\n        /* \"#utility.yul\":36527:36645   */\n    tag_358:\n        /* \"#utility.yul\":36598:36620   */\n      tag_735\n        /* \"#utility.yul\":36614:36619   */\n      dup2\n        /* \"#utility.yul\":36598:36620   */\n      tag_543\n      jump\t// in\n    tag_735:\n        /* \"#utility.yul\":36591:36596   */\n      dup2\n        /* \"#utility.yul\":36588:36621   */\n      eq\n        /* \"#utility.yul\":36578:36639   */\n      tag_736\n      jumpi\n        /* \"#utility.yul\":36635:36636   */\n      0x00\n        /* \"#utility.yul\":36632:36633   */\n      dup1\n        /* \"#utility.yul\":36625:36637   */\n      revert\n        /* \"#utility.yul\":36578:36639   */\n    tag_736:\n        /* \"#utility.yul\":36527:36645   */\n      pop\n      jump\t// out\n\n    auxdata: 0xa26469706673582212207b35350635dfd6316125fa64dcf2ac37e755d4c50528d6c2d1b840c99223967164736f6c63430008070033\n}\n",
				"bytecode": {
					"linkReferences": {},
					"object": "608060405260006001553480156200001657600080fd5b50620000497f1f9ca85e780b3b3cfbe1334ca9dd68802db7860f692bd163c796bb76d464edc0336200004f60201b60201c565b620001b2565b6200006182826200014060201b60201c565b6200013c57600160008084815260200190815260200160002060000160008373ffffffffffffffffffffffffffffffffffffffff1673ffffffffffffffffffffffffffffffffffffffff16815260200190815260200160002060006101000a81548160ff021916908315150217905550620000e1620001aa60201b60201c565b73ffffffffffffffffffffffffffffffffffffffff168173ffffffffffffffffffffffffffffffffffffffff16837f2f8788117e7eff1d82e926ec794901d17c78024a50270940304540a733656f0d60405160405180910390a45b5050565b600080600084815260200190815260200160002060000160008373ffffffffffffffffffffffffffffffffffffffff1673ffffffffffffffffffffffffffffffffffffffff16815260200190815260200160002060009054906101000a900460ff16905092915050565b600033905090565b61318780620001c26000396000f3fe60806040526004361061011f5760003560e01c806391d14854116100a0578063c7be7a4911610064578063c7be7a49146103ed578063d547741f1461042c578063eca1e6a014610455578063f0d2d06d1461047e578063fec4d15d146104a75761011f565b806391d1485414610308578063a217fddf14610345578063a6667d0614610370578063ae13a31714610399578063b491efa0146103c25761011f565b806336568abe116100e757806336568abe1461020c5780636a868974146102355780637735904f1461026057806388d9e84c1461029d5780638f28afee146102df5761011f565b806301ffc9a7146101245780630c3774fc146101615780631dfef0eb1461018a578063248a9ca3146101a65780632f2ff15d146101e3575b600080fd5b34801561013057600080fd5b5061014b60048036038101906101469190611e8d565b6104e4565b6040516101589190612444565b60405180910390f35b34801561016d57600080fd5b50610188600480360381019061018391906120a4565b61055e565b005b6101a4600480360381019061019f91906120a4565b610774565b005b3480156101b257600080fd5b506101cd60048036038101906101c89190611e20565b610a46565b6040516101da919061245f565b60405180910390f35b3480156101ef57600080fd5b5061020a60048036038101906102059190611e4d565b610a65565b005b34801561021857600080fd5b50610233600480360381019061022e9190611e4d565b610a8e565b005b34801561024157600080fd5b5061024a610b11565b6040516102579190612729565b60405180910390f35b34801561026c57600080fd5b5061028760048036038101906102829190611f9b565b610b17565b6040516102949190612789565b60405180910390f35b3480156102a957600080fd5b506102c460048036038101906102bf9190611f9b565b610b72565b6040516102d6969594939291906124da565b60405180910390f35b3480156102eb57600080fd5b5061030660048036038101906103019190612008565b610e60565b005b34801561031457600080fd5b5061032f600480360381019061032a9190611e4d565b610f4e565b60405161033c9190612444565b60405180910390f35b34801561035157600080fd5b5061035a610fb8565b604051610367919061245f565b60405180910390f35b34801561037c57600080fd5b5061039760048036038101906103929190611eba565b610fbf565b005b3480156103a557600080fd5b506103c060048036038101906103bb9190612064565b611243565b005b3480156103ce57600080fd5b506103d7611321565b6040516103e4919061245f565b60405180910390f35b3480156103f957600080fd5b50610414600480360381019061040f9190611f9b565b611345565b6040516104239392919061249c565b60405180910390f35b34801561043857600080fd5b50610453600480360381019061044e9190611e4d565b611447565b005b34801561046157600080fd5b5061047c600480360381019061047791906120a4565b611470565b005b34801561048a57600080fd5b506104a560048036038101906104a09190612008565b611562565b005b3480156104b357600080fd5b506104ce60048036038101906104c99190611fc8565b611650565b6040516104db9190612444565b60405180910390f35b60007f7965db0b000000000000000000000000000000000000000000000000000000007bffffffffffffffffffffffffffffffffffffffffffffffffffffffff1916827bffffffffffffffffffffffffffffffffffffffffffffffffffffffff191614806105575750610556826116fb565b5b9050919050565b6003600083815260200190815260200160002060040160009054906101000a900473ffffffffffffffffffffffffffffffffffffffff1673ffffffffffffffffffffffffffffffffffffffff163373ffffffffffffffffffffffffffffffffffffffff161415610603576040517f08c379a00000000000000000000000000000000000000000000000000000000081526004016105fa906126a9565b60405180910390fd5b60058160ff16111561064a576040517f08c379a0000000000000000000000000000000000000000000000000000000008152600401610641906126c9565b60405180910390fd5b60018160ff161015610691576040517f08c379a000000000000000000000000000000000000000000000000000000000815260040161068890612669565b60405180910390fd5b61069b8233611650565b6106da576040517f08c379a00000000000000000000000000000000000000000000000000000000081526004016106d190612629565b60405180910390fd5b806003600084815260200190815260200160002060060160008282829054906101000a900460ff1661070c9190612877565b92506101000a81548160ff021916908360ff16021790555060036000838152602001908152602001600020600601600181819054906101000a900460ff168092919061075790612b58565b91906101000a81548160ff021916908360ff160217905550505050565b346003600084815260200190815260200160002060030154146107cc576040517f08c379a00000000000000000000000000000000000000000000000000000000081526004016107c3906125a9565b60405180910390fd5b60008160ff1611610812576040517f08c379a000000000000000000000000000000000000000000000000000000000815260040161080990612549565b60405180910390fd5b6003600083815260200190815260200160002060060160029054906101000a900460ff1660ff168160ff16111561087e576040517f08c379a000000000000000000000000000000000000000000000000000000000815260040161087590612569565b60405180910390fd5b6003600083815260200190815260200160002060040160009054906101000a900473ffffffffffffffffffffffffffffffffffffffff1673ffffffffffffffffffffffffffffffffffffffff166108fc349081150290604051600060405180830381858888f193505050501580156108fa573d6000803e3d6000fd5b50806003600084815260200190815260200160002060060160028282829054906101000a900460ff1661092d9190612939565b92506101000a81548160ff021916908360ff16021790555060026000838152602001908152602001600020339080600181540180825580915050600190039060005260206000200160009091909190916101000a81548173ffffffffffffffffffffffffffffffffffffffff021916908373ffffffffffffffffffffffffffffffffffffffff1602179055507ff2f622c4ee3232d0d08c3870751d38ddef2eaf0e7e0c5d38239c7dc8921ca6808260036000858152602001908152602001600020600301546003600086815260200190815260200160002060040160009054906101000a900473ffffffffffffffffffffffffffffffffffffffff1633604051610a3a9493929190612744565b60405180910390a15050565b6000806000838152602001908152602001600020600101549050919050565b610a6e82610a46565b610a7f81610a7a611765565b61176d565b610a89838361180a565b505050565b610a96611765565b73ffffffffffffffffffffffffffffffffffffffff168173ffffffffffffffffffffffffffffffffffffffff1614610b03576040517f08c379a0000000000000000000000000000000000000000000000000000000008152600401610afa90612709565b60405180910390fd5b610b0d82826118ea565b5050565b60015481565b60006003600083815260200190815260200160002060060160019054906101000a900460ff166003600084815260200190815260200160002060060160009054906101000a900460ff16610b6b91906128ae565b9050919050565b6060806000806000806000600360008981526020019081526020016000206040518061016001604052908160008201548152602001600182018054610bb690612aac565b80601f0160208091040260200160405190810160405280929190818152602001828054610be290612aac565b8015610c2f5780601f10610c0457610100808354040283529160200191610c2f565b820191906000526020600020905b815481529060010190602001808311610c1257829003601f168201915b50505050508152602001600282018054610c4890612aac565b80601f0160208091040260200160405190810160405280929190818152602001828054610c7490612aac565b8015610cc15780601f10610c9657610100808354040283529160200191610cc1565b820191906000526020600020905b815481529060010190602001808311610ca457829003601f168201915b50505050508152602001600382015481526020016004820160009054906101000a900473ffffffffffffffffffffffffffffffffffffffff1673ffffffffffffffffffffffffffffffffffffffff1673ffffffffffffffffffffffffffffffffffffffff168152602001600582018054610d3a90612aac565b80601f0160208091040260200160405190810160405280929190818152602001828054610d6690612aac565b8015610db35780601f10610d8857610100808354040283529160200191610db3565b820191906000526020600020905b815481529060010190602001808311610d9657829003601f168201915b505050505081526020016006820160009054906101000a900460ff1660ff1660ff1681526020016006820160019054906101000a900460ff1660ff1660ff1681526020016006820160029054906101000a900460ff1660ff1660ff16815260200160078201548152602001600882015481525050905080604001518160a001518260c001518361010001518461012001518561014001519650965096509650965096505091939550919395565b6003600083815260200190815260200160002060040160009054906101000a900473ffffffffffffffffffffffffffffffffffffffff1673ffffffffffffffffffffffffffffffffffffffff163373ffffffffffffffffffffffffffffffffffffffff1614610f04576040517f08c379a0000000000000000000000000000000000000000000000000000000008152600401610efb90612609565b60405180910390fd5b80600360008481526020019081526020016000206002019080519060200190610f2e929190611c8f565b504260036000848152602001908152602001600020600801819055505050565b600080600084815260200190815260200160002060000160008373ffffffffffffffffffffffffffffffffffffffff1673ffffffffffffffffffffffffffffffffffffffff16815260200190815260200160002060009054906101000a900460ff16905092915050565b6000801b81565b8373ffffffffffffffffffffffffffffffffffffffff163373ffffffffffffffffffffffffffffffffffffffff161461102d576040517f08c379a000000000000000000000000000000000000000000000000000000000815260040161102490612689565b60405180910390fd5b60008311611070576040517f08c379a0000000000000000000000000000000000000000000000000000000008152600401611067906126e9565b60405180910390fd5b60405180610160016040528060015481526020018781526020018681526020018481526020018573ffffffffffffffffffffffffffffffffffffffff168152602001838152602001600060ff168152602001600060ff1681526020018260ff1681526020014281526020014281525060036000600154815260200190815260200160002060008201518160000155602082015181600101908051906020019061111a929190611c8f565b506040820151816002019080519060200190611137929190611c8f565b506060820151816003015560808201518160040160006101000a81548173ffffffffffffffffffffffffffffffffffffffff021916908373ffffffffffffffffffffffffffffffffffffffff16021790555060a08201518160050190805190602001906111a5929190611c8f565b5060c08201518160060160006101000a81548160ff021916908360ff16021790555060e08201518160060160016101000a81548160ff021916908360ff1602179055506101008201518160060160026101000a81548160ff021916908360ff160217905550610120820151816007015561014082015181600801559050506001600081548092919061123690612b0f565b9190505550505050505050565b6003600083815260200190815260200160002060040160009054906101000a900473ffffffffffffffffffffffffffffffffffffffff1673ffffffffffffffffffffffffffffffffffffffff163373ffffffffffffffffffffffffffffffffffffffff16146112e7576040517f08c379a00000000000000000000000000000000000000000000000000000000081526004016112de906125e9565b60405180910390fd5b8060036000848152602001908152602001600020600301819055504260036000848152602001908152602001600020600801819055505050565b7f1f9ca85e780b3b3cfbe1334ca9dd68802db7860f692bd163c796bb76d464edc081565b6060600080600360008581526020019081526020016000206001016003600086815260200190815260200160002060040160009054906101000a900473ffffffffffffffffffffffffffffffffffffffff1660036000878152602001908152602001600020600301548280546113ba90612aac565b80601f01602080910402602001604051908101604052809291908181526020018280546113e690612aac565b80156114335780601f1061140857610100808354040283529160200191611433565b820191906000526020600020905b81548152906001019060200180831161141657829003601f168201915b505050505092509250925092509193909250565b61145082610a46565b6114618161145c611765565b61176d565b61146b83836118ea565b505050565b6003600083815260200190815260200160002060040160009054906101000a900473ffffffffffffffffffffffffffffffffffffffff1673ffffffffffffffffffffffffffffffffffffffff163373ffffffffffffffffffffffffffffffffffffffff1614611514576040517f08c379a000000000000000000000000000000000000000000000000000000000815260040161150b906125c9565b60405180910390fd5b806003600084815260200190815260200160002060060160026101000a81548160ff021916908360ff1602179055504260036000848152602001908152602001600020600801819055505050565b6003600083815260200190815260200160002060040160009054906101000a900473ffffffffffffffffffffffffffffffffffffffff1673ffffffffffffffffffffffffffffffffffffffff163373ffffffffffffffffffffffffffffffffffffffff1614611606576040517f08c379a00000000000000000000000000000000000000000000000000000000081526004016115fd90612649565b60405180910390fd5b80600360008481526020019081526020016000206005019080519060200190611630929190611c8f565b504260036000848152602001908152602001600020600801819055505050565b60006116f3600260008581526020019081526020016000208054806020026020016040519081016040528092919081815260200182805480156116e857602002820191906000526020600020905b8160009054906101000a900473ffffffffffffffffffffffffffffffffffffffff1673ffffffffffffffffffffffffffffffffffffffff168152602001906001019080831161169e575b5050505050836119cb565b905092915050565b60007f01ffc9a7000000000000000000000000000000000000000000000000000000007bffffffffffffffffffffffffffffffffffffffffffffffffffffffff1916827bffffffffffffffffffffffffffffffffffffffffffffffffffffffff1916149050919050565b600033905090565b6117778282610f4e565b6118065761179c8173ffffffffffffffffffffffffffffffffffffffff166014611a53565b6117aa8360001c6020611a53565b6040516020016117bb92919061240a565b6040516020818303038152906040526040517f08c379a00000000000000000000000000000000000000000000000000000000081526004016117fd919061247a565b60405180910390fd5b5050565b6118148282610f4e565b6118e657600160008084815260200190815260200160002060000160008373ffffffffffffffffffffffffffffffffffffffff1673ffffffffffffffffffffffffffffffffffffffff16815260200190815260200160002060006101000a81548160ff02191690831515021790555061188b611765565b73ffffffffffffffffffffffffffffffffffffffff168173ffffffffffffffffffffffffffffffffffffffff16837f2f8788117e7eff1d82e926ec794901d17c78024a50270940304540a733656f0d60405160405180910390a45b5050565b6118f48282610f4e565b156119c757600080600084815260200190815260200160002060000160008373ffffffffffffffffffffffffffffffffffffffff1673ffffffffffffffffffffffffffffffffffffffff16815260200190815260200160002060006101000a81548160ff02191690831515021790555061196c611765565b73ffffffffffffffffffffffffffffffffffffffff168173ffffffffffffffffffffffffffffffffffffffff16837ff6391f5c32d9c69d2a47ea670b442974b53935d1edc7fd64eb21e047a839171b60405160405180910390a45b5050565b600080600090505b8351811015611a47578273ffffffffffffffffffffffffffffffffffffffff16848281518110611a0657611a05612c0f565b5b602002602001015173ffffffffffffffffffffffffffffffffffffffff161415611a34576001915050611a4d565b8080611a3f90612b0f565b9150506119d3565b50600090505b92915050565b606060006002836002611a6691906128df565b611a709190612821565b67ffffffffffffffff811115611a8957611a88612c3e565b5b6040519080825280601f01601f191660200182016040528015611abb5781602001600182028036833780820191505090505b5090507f300000000000000000000000000000000000000000000000000000000000000081600081518110611af357611af2612c0f565b5b60200101907effffffffffffffffffffffffffffffffffffffffffffffffffffffffffffff1916908160001a9053507f780000000000000000000000000000000000000000000000000000000000000081600181518110611b5757611b56612c0f565b5b60200101907effffffffffffffffffffffffffffffffffffffffffffffffffffffffffffff1916908160001a90535060006001846002611b9791906128df565b611ba19190612821565b90505b6001811115611c41577f3031323334353637383961626364656600000000000000000000000000000000600f861660108110611be357611be2612c0f565b5b1a60f81b828281518110611bfa57611bf9612c0f565b5b60200101907effffffffffffffffffffffffffffffffffffffffffffffffffffffffffffff1916908160001a905350600485901c945080611c3a90612a82565b9050611ba4565b5060008414611c85576040517f08c379a0000000000000000000000000000000000000000000000000000000008152600401611c7c90612589565b60405180910390fd5b8091505092915050565b828054611c9b90612aac565b90600052602060002090601f016020900481019282611cbd5760008555611d04565b82601f10611cd657805160ff1916838001178555611d04565b82800160010185558215611d04579182015b82811115611d03578251825591602001919060010190611ce8565b5b509050611d119190611d15565b5090565b5b80821115611d2e576000816000905550600101611d16565b5090565b6000611d45611d40846127c9565b6127a4565b905082815260208101848484011115611d6157611d60612c72565b5b611d6c848285612a40565b509392505050565b600081359050611d83816130c7565b92915050565b600081359050611d98816130de565b92915050565b600081359050611dad816130f5565b92915050565b600081359050611dc28161310c565b92915050565b600082601f830112611ddd57611ddc612c6d565b5b8135611ded848260208601611d32565b91505092915050565b600081359050611e0581613123565b92915050565b600081359050611e1a8161313a565b92915050565b600060208284031215611e3657611e35612c7c565b5b6000611e4484828501611d9e565b91505092915050565b60008060408385031215611e6457611e63612c7c565b5b6000611e7285828601611d9e565b9250506020611e8385828601611d74565b9150509250929050565b600060208284031215611ea357611ea2612c7c565b5b6000611eb184828501611db3565b91505092915050565b60008060008060008060c08789031215611ed757611ed6612c7c565b5b600087013567ffffffffffffffff811115611ef557611ef4612c77565b5b611f0189828a01611dc8565b965050602087013567ffffffffffffffff811115611f2257611f21612c77565b5b611f2e89828a01611dc8565b9550506040611f3f89828a01611d89565b9450506060611f5089828a01611df6565b935050608087013567ffffffffffffffff811115611f7157611f70612c77565b5b611f7d89828a01611dc8565b92505060a0611f8e89828a01611e0b565b9150509295509295509295565b600060208284031215611fb157611fb0612c7c565b5b6000611fbf84828501611df6565b91505092915050565b60008060408385031215611fdf57611fde612c7c565b5b6000611fed85828601611df6565b9250506020611ffe85828601611d74565b9150509250929050565b6000806040838503121561201f5761201e612c7c565b5b600061202d85828601611df6565b925050602083013567ffffffffffffffff81111561204e5761204d612c77565b5b61205a85828601611dc8565b9150509250929050565b6000806040838503121561207b5761207a612c7c565b5b600061208985828601611df6565b925050602061209a85828601611df6565b9150509250929050565b600080604083850312156120bb576120ba612c7c565b5b60006120c985828601611df6565b92505060206120da85828601611e0b565b9150509250929050565b6120ed81612a0a565b82525050565b6120fc8161297f565b82525050565b61210b8161296d565b82525050565b61211a81612991565b82525050565b6121298161299d565b82525050565b600061213a826127fa565b6121448185612805565b9350612154818560208601612a4f565b61215d81612c81565b840191505092915050565b6000612173826127fa565b61217d8185612816565b935061218d818560208601612a4f565b80840191505092915050565b60006121a6601f83612805565b91506121b182612c92565b602082019050919050565b60006121c9603d83612805565b91506121d482612cbb565b604082019050919050565b60006121ec602083612805565b91506121f782612d0a565b602082019050919050565b600061220f601483612805565b915061221a82612d33565b602082019050919050565b6000612232602783612805565b915061223d82612d5c565b604082019050919050565b6000612255602483612805565b915061226082612dab565b604082019050919050565b6000612278602a83612805565b915061228382612dfa565b604082019050919050565b600061229b602183612805565b91506122a682612e49565b604082019050919050565b60006122be602883612805565b91506122c982612e98565b604082019050919050565b60006122e1602883612805565b91506122ec82612ee7565b604082019050919050565b6000612304602883612805565b915061230f82612f36565b604082019050919050565b6000612327601683612805565b915061233282612f85565b602082019050919050565b600061234a602583612805565b915061235582612fae565b604082019050919050565b600061236d601783612816565b915061237882612ffd565b601782019050919050565b6000612390601c83612805565b915061239b82613026565b602082019050919050565b60006123b3601183612816565b91506123be8261304f565b601182019050919050565b60006123d6602f83612805565b91506123e182613078565b604082019050919050565b6123f5816129f3565b82525050565b612404816129fd565b82525050565b600061241582612360565b91506124218285612168565b915061242c826123a6565b91506124388284612168565b91508190509392505050565b60006020820190506124596000830184612111565b92915050565b60006020820190506124746000830184612120565b92915050565b60006020820190508181036000830152612494818461212f565b905092915050565b600060608201905081810360008301526124b6818661212f565b90506124c560208301856120f3565b6124d260408301846123ec565b949350505050565b600060c08201905081810360008301526124f4818961212f565b90508181036020830152612508818861212f565b905061251760408301876123fb565b61252460608301866123fb565b61253160808301856123ec565b61253e60a08301846123ec565b979650505050505050565b6000602082019050818103600083015261256281612199565b9050919050565b60006020820190508181036000830152612582816121bc565b9050919050565b600060208201905081810360008301526125a2816121df565b9050919050565b600060208201905081810360008301526125c281612202565b9050919050565b600060208201905081810360008301526125e281612225565b9050919050565b6000602082019050818103600083015261260281612248565b9050919050565b600060208201905081810360008301526126228161226b565b9050919050565b600060208201905081810360008301526126428161228e565b9050919050565b60006020820190508181036000830152612662816122b1565b9050919050565b60006020820190508181036000830152612682816122d4565b9050919050565b600060208201905081810360008301526126a2816122f7565b9050919050565b600060208201905081810360008301526126c28161231a565b9050919050565b600060208201905081810360008301526126e28161233d565b9050919050565b6000602082019050818103600083015261270281612383565b9050919050565b60006020820190508181036000830152612722816123c9565b9050919050565b600060208201905061273e60008301846123ec565b92915050565b600060808201905061275960008301876123ec565b61276660208301866123ec565b61277360408301856120e4565b6127806060830184612102565b95945050505050565b600060208201905061279e60008301846123fb565b92915050565b60006127ae6127bf565b90506127ba8282612ade565b919050565b6000604051905090565b600067ffffffffffffffff8211156127e4576127e3612c3e565b5b6127ed82612c81565b9050602081019050919050565b600081519050919050565b600082825260208201905092915050565b600081905092915050565b600061282c826129f3565b9150612837836129f3565b9250827fffffffffffffffffffffffffffffffffffffffffffffffffffffffffffffffff0382111561286c5761286b612b82565b5b828201905092915050565b6000612882826129fd565b915061288d836129fd565b92508260ff038211156128a3576128a2612b82565b5b828201905092915050565b60006128b9826129fd565b91506128c4836129fd565b9250826128d4576128d3612bb1565b5b828204905092915050565b60006128ea826129f3565b91506128f5836129f3565b9250817fffffffffffffffffffffffffffffffffffffffffffffffffffffffffffffffff048311821515161561292e5761292d612b82565b5b828202905092915050565b6000612944826129fd565b915061294f836129fd565b92508282101561296257612961612b82565b5b828203905092915050565b6000612978826129d3565b9050919050565b600061298a826129d3565b9050919050565b60008115159050919050565b6000819050919050565b60007fffffffff0000000000000000000000000000000000000000000000000000000082169050919050565b600073ffffffffffffffffffffffffffffffffffffffff82169050919050565b6000819050919050565b600060ff82169050919050565b6000612a1582612a1c565b9050919050565b6000612a2782612a2e565b9050919050565b6000612a39826129d3565b9050919050565b82818337600083830152505050565b60005b83811015612a6d578082015181840152602081019050612a52565b83811115612a7c576000848401525b50505050565b6000612a8d826129f3565b91506000821415612aa157612aa0612b82565b5b600182039050919050565b60006002820490506001821680612ac457607f821691505b60208210811415612ad857612ad7612be0565b5b50919050565b612ae782612c81565b810181811067ffffffffffffffff82111715612b0657612b05612c3e565b5b80604052505050565b6000612b1a826129f3565b91507fffffffffffffffffffffffffffffffffffffffffffffffffffffffffffffffff821415612b4d57612b4c612b82565b5b600182019050919050565b6000612b63826129fd565b915060ff821415612b7757612b76612b82565b5b600182019050919050565b7f4e487b7100000000000000000000000000000000000000000000000000000000600052601160045260246000fd5b7f4e487b7100000000000000000000000000000000000000000000000000000000600052601260045260246000fd5b7f4e487b7100000000000000000000000000000000000000000000000000000000600052602260045260246000fd5b7f4e487b7100000000000000000000000000000000000000000000000000000000600052603260045260246000fd5b7f4e487b7100000000000000000000000000000000000000000000000000000000600052604160045260246000fd5b600080fd5b600080fd5b600080fd5b600080fd5b6000601f19601f8301169050919050565b7f5175616e74697479206d7573742062652067726561746572207468616e203000600082015250565b7f5175616e74697479206d757374206265206c657373207468616e206f7220657160008201527f75616c20746f2074686520617661696c61626c65207175616e74697479000000602082015250565b7f537472696e67733a20686578206c656e67746820696e73756666696369656e74600082015250565b7f507269636520646f6573206e6f74206d61746368000000000000000000000000600082015250565b7f4f6e6c79207468652073656c6c65722063616e2075706461746520746865207160008201527f75616e7469747900000000000000000000000000000000000000000000000000602082015250565b7f4f6e6c79207468652073656c6c65722063616e2075706461746520746865207060008201527f7269636500000000000000000000000000000000000000000000000000000000602082015250565b7f4f6e6c79207468652073656c6c65722063616e2075706461746520746865206460008201527f65736372697074696f6e00000000000000000000000000000000000000000000602082015250565b7f596f752063616e6e6f7420766f746520666f7220746869732070726f6475637460008201527f2e00000000000000000000000000000000000000000000000000000000000000602082015250565b7f4f6e6c79207468652073656c6c65722063616e2075706461746520746865206960008201527f6d6167652075726c000000000000000000000000000000000000000000000000602082015250565b7f5374617273206d7573742062652067726561746572207468616e206f7220657160008201527f75616c20746f2031000000000000000000000000000000000000000000000000602082015250565b7f4f6e6c79207468652073656c6c65722063616e206372656174652061206d617260008201527f6b6574206974656d000000000000000000000000000000000000000000000000602082015250565b7f5468652073656c6c65722063616e6e6f7420766f746500000000000000000000600082015250565b7f5374617273206d757374206265206c657373207468616e206f7220657175616c60008201527f20746f2035000000000000000000000000000000000000000000000000000000602082015250565b7f416363657373436f6e74726f6c3a206163636f756e7420000000000000000000600082015250565b7f5072696365206d7573742062652067726561746572207468616e203000000000600082015250565b7f206973206d697373696e6720726f6c6520000000000000000000000000000000600082015250565b7f416363657373436f6e74726f6c3a2063616e206f6e6c792072656e6f756e636560008201527f20726f6c657320666f722073656c660000000000000000000000000000000000602082015250565b6130d08161296d565b81146130db57600080fd5b50565b6130e78161297f565b81146130f257600080fd5b50565b6130fe8161299d565b811461310957600080fd5b50565b613115816129a7565b811461312057600080fd5b50565b61312c816129f3565b811461313757600080fd5b50565b613143816129fd565b811461314e57600080fd5b5056fea26469706673582212207b35350635dfd6316125fa64dcf2ac37e755d4c50528d6c2d1b840c99223967164736f6c63430008070033",
					"opcodes": "PUSH1 0x80 PUSH1 0x40 MSTORE PUSH1 0x0 PUSH1 0x1 SSTORE CALLVALUE DUP1 ISZERO PUSH3 0x16 JUMPI PUSH1 0x0 DUP1 REVERT JUMPDEST POP PUSH3 0x49 PUSH32 0x1F9CA85E780B3B3CFBE1334CA9DD68802DB7860F692BD163C796BB76D464EDC0 CALLER PUSH3 0x4F PUSH1 0x20 SHL PUSH1 0x20 SHR JUMP JUMPDEST PUSH3 0x1B2 JUMP JUMPDEST PUSH3 0x61 DUP3 DUP3 PUSH3 0x140 PUSH1 0x20 SHL PUSH1 0x20 SHR JUMP JUMPDEST PUSH3 0x13C JUMPI PUSH1 0x1 PUSH1 0x0 DUP1 DUP5 DUP2 MSTORE PUSH1 0x20 ADD SWAP1 DUP2 MSTORE PUSH1 0x20 ADD PUSH1 0x0 KECCAK256 PUSH1 0x0 ADD PUSH1 0x0 DUP4 PUSH20 0xFFFFFFFFFFFFFFFFFFFFFFFFFFFFFFFFFFFFFFFF AND PUSH20 0xFFFFFFFFFFFFFFFFFFFFFFFFFFFFFFFFFFFFFFFF AND DUP2 MSTORE PUSH1 0x20 ADD SWAP1 DUP2 MSTORE PUSH1 0x20 ADD PUSH1 0x0 KECCAK256 PUSH1 0x0 PUSH2 0x100 EXP DUP2 SLOAD DUP2 PUSH1 0xFF MUL NOT AND SWAP1 DUP4 ISZERO ISZERO MUL OR SWAP1 SSTORE POP PUSH3 0xE1 PUSH3 0x1AA PUSH1 0x20 SHL PUSH1 0x20 SHR JUMP JUMPDEST PUSH20 0xFFFFFFFFFFFFFFFFFFFFFFFFFFFFFFFFFFFFFFFF AND DUP2 PUSH20 0xFFFFFFFFFFFFFFFFFFFFFFFFFFFFFFFFFFFFFFFF AND DUP4 PUSH32 0x2F8788117E7EFF1D82E926EC794901D17C78024A50270940304540A733656F0D PUSH1 0x40 MLOAD PUSH1 0x40 MLOAD DUP1 SWAP2 SUB SWAP1 LOG4 JUMPDEST POP POP JUMP JUMPDEST PUSH1 0x0 DUP1 PUSH1 0x0 DUP5 DUP2 MSTORE PUSH1 0x20 ADD SWAP1 DUP2 MSTORE PUSH1 0x20 ADD PUSH1 0x0 KECCAK256 PUSH1 0x0 ADD PUSH1 0x0 DUP4 PUSH20 0xFFFFFFFFFFFFFFFFFFFFFFFFFFFFFFFFFFFFFFFF AND PUSH20 0xFFFFFFFFFFFFFFFFFFFFFFFFFFFFFFFFFFFFFFFF AND DUP2 MSTORE PUSH1 0x20 ADD SWAP1 DUP2 MSTORE PUSH1 0x20 ADD PUSH1 0x0 KECCAK256 PUSH1 0x0 SWAP1 SLOAD SWAP1 PUSH2 0x100 EXP SWAP1 DIV PUSH1 0xFF AND SWAP1 POP SWAP3 SWAP2 POP POP JUMP JUMPDEST PUSH1 0x0 CALLER SWAP1 POP SWAP1 JUMP JUMPDEST PUSH2 0x3187 DUP1 PUSH3 0x1C2 PUSH1 0x0 CODECOPY PUSH1 0x0 RETURN INVALID PUSH1 0x80 PUSH1 0x40 MSTORE PUSH1 0x4 CALLDATASIZE LT PUSH2 0x11F JUMPI PUSH1 0x0 CALLDATALOAD PUSH1 0xE0 SHR DUP1 PUSH4 0x91D14854 GT PUSH2 0xA0 JUMPI DUP1 PUSH4 0xC7BE7A49 GT PUSH2 0x64 JUMPI DUP1 PUSH4 0xC7BE7A49 EQ PUSH2 0x3ED JUMPI DUP1 PUSH4 0xD547741F EQ PUSH2 0x42C JUMPI DUP1 PUSH4 0xECA1E6A0 EQ PUSH2 0x455 JUMPI DUP1 PUSH4 0xF0D2D06D EQ PUSH2 0x47E JUMPI DUP1 PUSH4 0xFEC4D15D EQ PUSH2 0x4A7 JUMPI PUSH2 0x11F JUMP JUMPDEST DUP1 PUSH4 0x91D14854 EQ PUSH2 0x308 JUMPI DUP1 PUSH4 0xA217FDDF EQ PUSH2 0x345 JUMPI DUP1 PUSH4 0xA6667D06 EQ PUSH2 0x370 JUMPI DUP1 PUSH4 0xAE13A317 EQ PUSH2 0x399 JUMPI DUP1 PUSH4 0xB491EFA0 EQ PUSH2 0x3C2 JUMPI PUSH2 0x11F JUMP JUMPDEST DUP1 PUSH4 0x36568ABE GT PUSH2 0xE7 JUMPI DUP1 PUSH4 0x36568ABE EQ PUSH2 0x20C JUMPI DUP1 PUSH4 0x6A868974 EQ PUSH2 0x235 JUMPI DUP1 PUSH4 0x7735904F EQ PUSH2 0x260 JUMPI DUP1 PUSH4 0x88D9E84C EQ PUSH2 0x29D JUMPI DUP1 PUSH4 0x8F28AFEE EQ PUSH2 0x2DF JUMPI PUSH2 0x11F JUMP JUMPDEST DUP1 PUSH4 0x1FFC9A7 EQ PUSH2 0x124 JUMPI DUP1 PUSH4 0xC3774FC EQ PUSH2 0x161 JUMPI DUP1 PUSH4 0x1DFEF0EB EQ PUSH2 0x18A JUMPI DUP1 PUSH4 0x248A9CA3 EQ PUSH2 0x1A6 JUMPI DUP1 PUSH4 0x2F2FF15D EQ PUSH2 0x1E3 JUMPI JUMPDEST PUSH1 0x0 DUP1 REVERT JUMPDEST CALLVALUE DUP1 ISZERO PUSH2 0x130 JUMPI PUSH1 0x0 DUP1 REVERT JUMPDEST POP PUSH2 0x14B PUSH1 0x4 DUP1 CALLDATASIZE SUB DUP2 ADD SWAP1 PUSH2 0x146 SWAP2 SWAP1 PUSH2 0x1E8D JUMP JUMPDEST PUSH2 0x4E4 JUMP JUMPDEST PUSH1 0x40 MLOAD PUSH2 0x158 SWAP2 SWAP1 PUSH2 0x2444 JUMP JUMPDEST PUSH1 0x40 MLOAD DUP1 SWAP2 SUB SWAP1 RETURN JUMPDEST CALLVALUE DUP1 ISZERO PUSH2 0x16D JUMPI PUSH1 0x0 DUP1 REVERT JUMPDEST POP PUSH2 0x188 PUSH1 0x4 DUP1 CALLDATASIZE SUB DUP2 ADD SWAP1 PUSH2 0x183 SWAP2 SWAP1 PUSH2 0x20A4 JUMP JUMPDEST PUSH2 0x55E JUMP JUMPDEST STOP JUMPDEST PUSH2 0x1A4 PUSH1 0x4 DUP1 CALLDATASIZE SUB DUP2 ADD SWAP1 PUSH2 0x19F SWAP2 SWAP1 PUSH2 0x20A4 JUMP JUMPDEST PUSH2 0x774 JUMP JUMPDEST STOP JUMPDEST CALLVALUE DUP1 ISZERO PUSH2 0x1B2 JUMPI PUSH1 0x0 DUP1 REVERT JUMPDEST POP PUSH2 0x1CD PUSH1 0x4 DUP1 CALLDATASIZE SUB DUP2 ADD SWAP1 PUSH2 0x1C8 SWAP2 SWAP1 PUSH2 0x1E20 JUMP JUMPDEST PUSH2 0xA46 JUMP JUMPDEST PUSH1 0x40 MLOAD PUSH2 0x1DA SWAP2 SWAP1 PUSH2 0x245F JUMP JUMPDEST PUSH1 0x40 MLOAD DUP1 SWAP2 SUB SWAP1 RETURN JUMPDEST CALLVALUE DUP1 ISZERO PUSH2 0x1EF JUMPI PUSH1 0x0 DUP1 REVERT JUMPDEST POP PUSH2 0x20A PUSH1 0x4 DUP1 CALLDATASIZE SUB DUP2 ADD SWAP1 PUSH2 0x205 SWAP2 SWAP1 PUSH2 0x1E4D JUMP JUMPDEST PUSH2 0xA65 JUMP JUMPDEST STOP JUMPDEST CALLVALUE DUP1 ISZERO PUSH2 0x218 JUMPI PUSH1 0x0 DUP1 REVERT JUMPDEST POP PUSH2 0x233 PUSH1 0x4 DUP1 CALLDATASIZE SUB DUP2 ADD SWAP1 PUSH2 0x22E SWAP2 SWAP1 PUSH2 0x1E4D JUMP JUMPDEST PUSH2 0xA8E JUMP JUMPDEST STOP JUMPDEST CALLVALUE DUP1 ISZERO PUSH2 0x241 JUMPI PUSH1 0x0 DUP1 REVERT JUMPDEST POP PUSH2 0x24A PUSH2 0xB11 JUMP JUMPDEST PUSH1 0x40 MLOAD PUSH2 0x257 SWAP2 SWAP1 PUSH2 0x2729 JUMP JUMPDEST PUSH1 0x40 MLOAD DUP1 SWAP2 SUB SWAP1 RETURN JUMPDEST CALLVALUE DUP1 ISZERO PUSH2 0x26C JUMPI PUSH1 0x0 DUP1 REVERT JUMPDEST POP PUSH2 0x287 PUSH1 0x4 DUP1 CALLDATASIZE SUB DUP2 ADD SWAP1 PUSH2 0x282 SWAP2 SWAP1 PUSH2 0x1F9B JUMP JUMPDEST PUSH2 0xB17 JUMP JUMPDEST PUSH1 0x40 MLOAD PUSH2 0x294 SWAP2 SWAP1 PUSH2 0x2789 JUMP JUMPDEST PUSH1 0x40 MLOAD DUP1 SWAP2 SUB SWAP1 RETURN JUMPDEST CALLVALUE DUP1 ISZERO PUSH2 0x2A9 JUMPI PUSH1 0x0 DUP1 REVERT JUMPDEST POP PUSH2 0x2C4 PUSH1 0x4 DUP1 CALLDATASIZE SUB DUP2 ADD SWAP1 PUSH2 0x2BF SWAP2 SWAP1 PUSH2 0x1F9B JUMP JUMPDEST PUSH2 0xB72 JUMP JUMPDEST PUSH1 0x40 MLOAD PUSH2 0x2D6 SWAP7 SWAP6 SWAP5 SWAP4 SWAP3 SWAP2 SWAP1 PUSH2 0x24DA JUMP JUMPDEST PUSH1 0x40 MLOAD DUP1 SWAP2 SUB SWAP1 RETURN JUMPDEST CALLVALUE DUP1 ISZERO PUSH2 0x2EB JUMPI PUSH1 0x0 DUP1 REVERT JUMPDEST POP PUSH2 0x306 PUSH1 0x4 DUP1 CALLDATASIZE SUB DUP2 ADD SWAP1 PUSH2 0x301 SWAP2 SWAP1 PUSH2 0x2008 JUMP JUMPDEST PUSH2 0xE60 JUMP JUMPDEST STOP JUMPDEST CALLVALUE DUP1 ISZERO PUSH2 0x314 JUMPI PUSH1 0x0 DUP1 REVERT JUMPDEST POP PUSH2 0x32F PUSH1 0x4 DUP1 CALLDATASIZE SUB DUP2 ADD SWAP1 PUSH2 0x32A SWAP2 SWAP1 PUSH2 0x1E4D JUMP JUMPDEST PUSH2 0xF4E JUMP JUMPDEST PUSH1 0x40 MLOAD PUSH2 0x33C SWAP2 SWAP1 PUSH2 0x2444 JUMP JUMPDEST PUSH1 0x40 MLOAD DUP1 SWAP2 SUB SWAP1 RETURN JUMPDEST CALLVALUE DUP1 ISZERO PUSH2 0x351 JUMPI PUSH1 0x0 DUP1 REVERT JUMPDEST POP PUSH2 0x35A PUSH2 0xFB8 JUMP JUMPDEST PUSH1 0x40 MLOAD PUSH2 0x367 SWAP2 SWAP1 PUSH2 0x245F JUMP JUMPDEST PUSH1 0x40 MLOAD DUP1 SWAP2 SUB SWAP1 RETURN JUMPDEST CALLVALUE DUP1 ISZERO PUSH2 0x37C JUMPI PUSH1 0x0 DUP1 REVERT JUMPDEST POP PUSH2 0x397 PUSH1 0x4 DUP1 CALLDATASIZE SUB DUP2 ADD SWAP1 PUSH2 0x392 SWAP2 SWAP1 PUSH2 0x1EBA JUMP JUMPDEST PUSH2 0xFBF JUMP JUMPDEST STOP JUMPDEST CALLVALUE DUP1 ISZERO PUSH2 0x3A5 JUMPI PUSH1 0x0 DUP1 REVERT JUMPDEST POP PUSH2 0x3C0 PUSH1 0x4 DUP1 CALLDATASIZE SUB DUP2 ADD SWAP1 PUSH2 0x3BB SWAP2 SWAP1 PUSH2 0x2064 JUMP JUMPDEST PUSH2 0x1243 JUMP JUMPDEST STOP JUMPDEST CALLVALUE DUP1 ISZERO PUSH2 0x3CE JUMPI PUSH1 0x0 DUP1 REVERT JUMPDEST POP PUSH2 0x3D7 PUSH2 0x1321 JUMP JUMPDEST PUSH1 0x40 MLOAD PUSH2 0x3E4 SWAP2 SWAP1 PUSH2 0x245F JUMP JUMPDEST PUSH1 0x40 MLOAD DUP1 SWAP2 SUB SWAP1 RETURN JUMPDEST CALLVALUE DUP1 ISZERO PUSH2 0x3F9 JUMPI PUSH1 0x0 DUP1 REVERT JUMPDEST POP PUSH2 0x414 PUSH1 0x4 DUP1 CALLDATASIZE SUB DUP2 ADD SWAP1 PUSH2 0x40F SWAP2 SWAP1 PUSH2 0x1F9B JUMP JUMPDEST PUSH2 0x1345 JUMP JUMPDEST PUSH1 0x40 MLOAD PUSH2 0x423 SWAP4 SWAP3 SWAP2 SWAP1 PUSH2 0x249C JUMP JUMPDEST PUSH1 0x40 MLOAD DUP1 SWAP2 SUB SWAP1 RETURN JUMPDEST CALLVALUE DUP1 ISZERO PUSH2 0x438 JUMPI PUSH1 0x0 DUP1 REVERT JUMPDEST POP PUSH2 0x453 PUSH1 0x4 DUP1 CALLDATASIZE SUB DUP2 ADD SWAP1 PUSH2 0x44E SWAP2 SWAP1 PUSH2 0x1E4D JUMP JUMPDEST PUSH2 0x1447 JUMP JUMPDEST STOP JUMPDEST CALLVALUE DUP1 ISZERO PUSH2 0x461 JUMPI PUSH1 0x0 DUP1 REVERT JUMPDEST POP PUSH2 0x47C PUSH1 0x4 DUP1 CALLDATASIZE SUB DUP2 ADD SWAP1 PUSH2 0x477 SWAP2 SWAP1 PUSH2 0x20A4 JUMP JUMPDEST PUSH2 0x1470 JUMP JUMPDEST STOP JUMPDEST CALLVALUE DUP1 ISZERO PUSH2 0x48A JUMPI PUSH1 0x0 DUP1 REVERT JUMPDEST POP PUSH2 0x4A5 PUSH1 0x4 DUP1 CALLDATASIZE SUB DUP2 ADD SWAP1 PUSH2 0x4A0 SWAP2 SWAP1 PUSH2 0x2008 JUMP JUMPDEST PUSH2 0x1562 JUMP JUMPDEST STOP JUMPDEST CALLVALUE DUP1 ISZERO PUSH2 0x4B3 JUMPI PUSH1 0x0 DUP1 REVERT JUMPDEST POP PUSH2 0x4CE PUSH1 0x4 DUP1 CALLDATASIZE SUB DUP2 ADD SWAP1 PUSH2 0x4C9 SWAP2 SWAP1 PUSH2 0x1FC8 JUMP JUMPDEST PUSH2 0x1650 JUMP JUMPDEST PUSH1 0x40 MLOAD PUSH2 0x4DB SWAP2 SWAP1 PUSH2 0x2444 JUMP JUMPDEST PUSH1 0x40 MLOAD DUP1 SWAP2 SUB SWAP1 RETURN JUMPDEST PUSH1 0x0 PUSH32 0x7965DB0B00000000000000000000000000000000000000000000000000000000 PUSH28 0xFFFFFFFFFFFFFFFFFFFFFFFFFFFFFFFFFFFFFFFFFFFFFFFFFFFFFFFF NOT AND DUP3 PUSH28 0xFFFFFFFFFFFFFFFFFFFFFFFFFFFFFFFFFFFFFFFFFFFFFFFFFFFFFFFF NOT AND EQ DUP1 PUSH2 0x557 JUMPI POP PUSH2 0x556 DUP3 PUSH2 0x16FB JUMP JUMPDEST JUMPDEST SWAP1 POP SWAP2 SWAP1 POP JUMP JUMPDEST PUSH1 0x3 PUSH1 0x0 DUP4 DUP2 MSTORE PUSH1 0x20 ADD SWAP1 DUP2 MSTORE PUSH1 0x20 ADD PUSH1 0x0 KECCAK256 PUSH1 0x4 ADD PUSH1 0x0 SWAP1 SLOAD SWAP1 PUSH2 0x100 EXP SWAP1 DIV PUSH20 0xFFFFFFFFFFFFFFFFFFFFFFFFFFFFFFFFFFFFFFFF AND PUSH20 0xFFFFFFFFFFFFFFFFFFFFFFFFFFFFFFFFFFFFFFFF AND CALLER PUSH20 0xFFFFFFFFFFFFFFFFFFFFFFFFFFFFFFFFFFFFFFFF AND EQ ISZERO PUSH2 0x603 JUMPI PUSH1 0x40 MLOAD PUSH32 0x8C379A000000000000000000000000000000000000000000000000000000000 DUP2 MSTORE PUSH1 0x4 ADD PUSH2 0x5FA SWAP1 PUSH2 0x26A9 JUMP JUMPDEST PUSH1 0x40 MLOAD DUP1 SWAP2 SUB SWAP1 REVERT JUMPDEST PUSH1 0x5 DUP2 PUSH1 0xFF AND GT ISZERO PUSH2 0x64A JUMPI PUSH1 0x40 MLOAD PUSH32 0x8C379A000000000000000000000000000000000000000000000000000000000 DUP2 MSTORE PUSH1 0x4 ADD PUSH2 0x641 SWAP1 PUSH2 0x26C9 JUMP JUMPDEST PUSH1 0x40 MLOAD DUP1 SWAP2 SUB SWAP1 REVERT JUMPDEST PUSH1 0x1 DUP2 PUSH1 0xFF AND LT ISZERO PUSH2 0x691 JUMPI PUSH1 0x40 MLOAD PUSH32 0x8C379A000000000000000000000000000000000000000000000000000000000 DUP2 MSTORE PUSH1 0x4 ADD PUSH2 0x688 SWAP1 PUSH2 0x2669 JUMP JUMPDEST PUSH1 0x40 MLOAD DUP1 SWAP2 SUB SWAP1 REVERT JUMPDEST PUSH2 0x69B DUP3 CALLER PUSH2 0x1650 JUMP JUMPDEST PUSH2 0x6DA JUMPI PUSH1 0x40 MLOAD PUSH32 0x8C379A000000000000000000000000000000000000000000000000000000000 DUP2 MSTORE PUSH1 0x4 ADD PUSH2 0x6D1 SWAP1 PUSH2 0x2629 JUMP JUMPDEST PUSH1 0x40 MLOAD DUP1 SWAP2 SUB SWAP1 REVERT JUMPDEST DUP1 PUSH1 0x3 PUSH1 0x0 DUP5 DUP2 MSTORE PUSH1 0x20 ADD SWAP1 DUP2 MSTORE PUSH1 0x20 ADD PUSH1 0x0 KECCAK256 PUSH1 0x6 ADD PUSH1 0x0 DUP3 DUP3 DUP3 SWAP1 SLOAD SWAP1 PUSH2 0x100 EXP SWAP1 DIV PUSH1 0xFF AND PUSH2 0x70C SWAP2 SWAP1 PUSH2 0x2877 JUMP JUMPDEST SWAP3 POP PUSH2 0x100 EXP DUP2 SLOAD DUP2 PUSH1 0xFF MUL NOT AND SWAP1 DUP4 PUSH1 0xFF AND MUL OR SWAP1 SSTORE POP PUSH1 0x3 PUSH1 0x0 DUP4 DUP2 MSTORE PUSH1 0x20 ADD SWAP1 DUP2 MSTORE PUSH1 0x20 ADD PUSH1 0x0 KECCAK256 PUSH1 0x6 ADD PUSH1 0x1 DUP2 DUP2 SWAP1 SLOAD SWAP1 PUSH2 0x100 EXP SWAP1 DIV PUSH1 0xFF AND DUP1 SWAP3 SWAP2 SWAP1 PUSH2 0x757 SWAP1 PUSH2 0x2B58 JUMP JUMPDEST SWAP2 SWAP1 PUSH2 0x100 EXP DUP2 SLOAD DUP2 PUSH1 0xFF MUL NOT AND SWAP1 DUP4 PUSH1 0xFF AND MUL OR SWAP1 SSTORE POP POP POP POP JUMP JUMPDEST CALLVALUE PUSH1 0x3 PUSH1 0x0 DUP5 DUP2 MSTORE PUSH1 0x20 ADD SWAP1 DUP2 MSTORE PUSH1 0x20 ADD PUSH1 0x0 KECCAK256 PUSH1 0x3 ADD SLOAD EQ PUSH2 0x7CC JUMPI PUSH1 0x40 MLOAD PUSH32 0x8C379A000000000000000000000000000000000000000000000000000000000 DUP2 MSTORE PUSH1 0x4 ADD PUSH2 0x7C3 SWAP1 PUSH2 0x25A9 JUMP JUMPDEST PUSH1 0x40 MLOAD DUP1 SWAP2 SUB SWAP1 REVERT JUMPDEST PUSH1 0x0 DUP2 PUSH1 0xFF AND GT PUSH2 0x812 JUMPI PUSH1 0x40 MLOAD PUSH32 0x8C379A000000000000000000000000000000000000000000000000000000000 DUP2 MSTORE PUSH1 0x4 ADD PUSH2 0x809 SWAP1 PUSH2 0x2549 JUMP JUMPDEST PUSH1 0x40 MLOAD DUP1 SWAP2 SUB SWAP1 REVERT JUMPDEST PUSH1 0x3 PUSH1 0x0 DUP4 DUP2 MSTORE PUSH1 0x20 ADD SWAP1 DUP2 MSTORE PUSH1 0x20 ADD PUSH1 0x0 KECCAK256 PUSH1 0x6 ADD PUSH1 0x2 SWAP1 SLOAD SWAP1 PUSH2 0x100 EXP SWAP1 DIV PUSH1 0xFF AND PUSH1 0xFF AND DUP2 PUSH1 0xFF AND GT ISZERO PUSH2 0x87E JUMPI PUSH1 0x40 MLOAD PUSH32 0x8C379A000000000000000000000000000000000000000000000000000000000 DUP2 MSTORE PUSH1 0x4 ADD PUSH2 0x875 SWAP1 PUSH2 0x2569 JUMP JUMPDEST PUSH1 0x40 MLOAD DUP1 SWAP2 SUB SWAP1 REVERT JUMPDEST PUSH1 0x3 PUSH1 0x0 DUP4 DUP2 MSTORE PUSH1 0x20 ADD SWAP1 DUP2 MSTORE PUSH1 0x20 ADD PUSH1 0x0 KECCAK256 PUSH1 0x4 ADD PUSH1 0x0 SWAP1 SLOAD SWAP1 PUSH2 0x100 EXP SWAP1 DIV PUSH20 0xFFFFFFFFFFFFFFFFFFFFFFFFFFFFFFFFFFFFFFFF AND PUSH20 0xFFFFFFFFFFFFFFFFFFFFFFFFFFFFFFFFFFFFFFFF AND PUSH2 0x8FC CALLVALUE SWAP1 DUP2 ISZERO MUL SWAP1 PUSH1 0x40 MLOAD PUSH1 0x0 PUSH1 0x40 MLOAD DUP1 DUP4 SUB DUP2 DUP6 DUP9 DUP9 CALL SWAP4 POP POP POP POP ISZERO DUP1 ISZERO PUSH2 0x8FA JUMPI RETURNDATASIZE PUSH1 0x0 DUP1 RETURNDATACOPY RETURNDATASIZE PUSH1 0x0 REVERT JUMPDEST POP DUP1 PUSH1 0x3 PUSH1 0x0 DUP5 DUP2 MSTORE PUSH1 0x20 ADD SWAP1 DUP2 MSTORE PUSH1 0x20 ADD PUSH1 0x0 KECCAK256 PUSH1 0x6 ADD PUSH1 0x2 DUP3 DUP3 DUP3 SWAP1 SLOAD SWAP1 PUSH2 0x100 EXP SWAP1 DIV PUSH1 0xFF AND PUSH2 0x92D SWAP2 SWAP1 PUSH2 0x2939 JUMP JUMPDEST SWAP3 POP PUSH2 0x100 EXP DUP2 SLOAD DUP2 PUSH1 0xFF MUL NOT AND SWAP1 DUP4 PUSH1 0xFF AND MUL OR SWAP1 SSTORE POP PUSH1 0x2 PUSH1 0x0 DUP4 DUP2 MSTORE PUSH1 0x20 ADD SWAP1 DUP2 MSTORE PUSH1 0x20 ADD PUSH1 0x0 KECCAK256 CALLER SWAP1 DUP1 PUSH1 0x1 DUP2 SLOAD ADD DUP1 DUP3 SSTORE DUP1 SWAP2 POP POP PUSH1 0x1 SWAP1 SUB SWAP1 PUSH1 0x0 MSTORE PUSH1 0x20 PUSH1 0x0 KECCAK256 ADD PUSH1 0x0 SWAP1 SWAP2 SWAP1 SWAP2 SWAP1 SWAP2 PUSH2 0x100 EXP DUP2 SLOAD DUP2 PUSH20 0xFFFFFFFFFFFFFFFFFFFFFFFFFFFFFFFFFFFFFFFF MUL NOT AND SWAP1 DUP4 PUSH20 0xFFFFFFFFFFFFFFFFFFFFFFFFFFFFFFFFFFFFFFFF AND MUL OR SWAP1 SSTORE POP PUSH32 0xF2F622C4EE3232D0D08C3870751D38DDEF2EAF0E7E0C5D38239C7DC8921CA680 DUP3 PUSH1 0x3 PUSH1 0x0 DUP6 DUP2 MSTORE PUSH1 0x20 ADD SWAP1 DUP2 MSTORE PUSH1 0x20 ADD PUSH1 0x0 KECCAK256 PUSH1 0x3 ADD SLOAD PUSH1 0x3 PUSH1 0x0 DUP7 DUP2 MSTORE PUSH1 0x20 ADD SWAP1 DUP2 MSTORE PUSH1 0x20 ADD PUSH1 0x0 KECCAK256 PUSH1 0x4 ADD PUSH1 0x0 SWAP1 SLOAD SWAP1 PUSH2 0x100 EXP SWAP1 DIV PUSH20 0xFFFFFFFFFFFFFFFFFFFFFFFFFFFFFFFFFFFFFFFF AND CALLER PUSH1 0x40 MLOAD PUSH2 0xA3A SWAP5 SWAP4 SWAP3 SWAP2 SWAP1 PUSH2 0x2744 JUMP JUMPDEST PUSH1 0x40 MLOAD DUP1 SWAP2 SUB SWAP1 LOG1 POP POP JUMP JUMPDEST PUSH1 0x0 DUP1 PUSH1 0x0 DUP4 DUP2 MSTORE PUSH1 0x20 ADD SWAP1 DUP2 MSTORE PUSH1 0x20 ADD PUSH1 0x0 KECCAK256 PUSH1 0x1 ADD SLOAD SWAP1 POP SWAP2 SWAP1 POP JUMP JUMPDEST PUSH2 0xA6E DUP3 PUSH2 0xA46 JUMP JUMPDEST PUSH2 0xA7F DUP2 PUSH2 0xA7A PUSH2 0x1765 JUMP JUMPDEST PUSH2 0x176D JUMP JUMPDEST PUSH2 0xA89 DUP4 DUP4 PUSH2 0x180A JUMP JUMPDEST POP POP POP JUMP JUMPDEST PUSH2 0xA96 PUSH2 0x1765 JUMP JUMPDEST PUSH20 0xFFFFFFFFFFFFFFFFFFFFFFFFFFFFFFFFFFFFFFFF AND DUP2 PUSH20 0xFFFFFFFFFFFFFFFFFFFFFFFFFFFFFFFFFFFFFFFF AND EQ PUSH2 0xB03 JUMPI PUSH1 0x40 MLOAD PUSH32 0x8C379A000000000000000000000000000000000000000000000000000000000 DUP2 MSTORE PUSH1 0x4 ADD PUSH2 0xAFA SWAP1 PUSH2 0x2709 JUMP JUMPDEST PUSH1 0x40 MLOAD DUP1 SWAP2 SUB SWAP1 REVERT JUMPDEST PUSH2 0xB0D DUP3 DUP3 PUSH2 0x18EA JUMP JUMPDEST POP POP JUMP JUMPDEST PUSH1 0x1 SLOAD DUP2 JUMP JUMPDEST PUSH1 0x0 PUSH1 0x3 PUSH1 0x0 DUP4 DUP2 MSTORE PUSH1 0x20 ADD SWAP1 DUP2 MSTORE PUSH1 0x20 ADD PUSH1 0x0 KECCAK256 PUSH1 0x6 ADD PUSH1 0x1 SWAP1 SLOAD SWAP1 PUSH2 0x100 EXP SWAP1 DIV PUSH1 0xFF AND PUSH1 0x3 PUSH1 0x0 DUP5 DUP2 MSTORE PUSH1 0x20 ADD SWAP1 DUP2 MSTORE PUSH1 0x20 ADD PUSH1 0x0 KECCAK256 PUSH1 0x6 ADD PUSH1 0x0 SWAP1 SLOAD SWAP1 PUSH2 0x100 EXP SWAP1 DIV PUSH1 0xFF AND PUSH2 0xB6B SWAP2 SWAP1 PUSH2 0x28AE JUMP JUMPDEST SWAP1 POP SWAP2 SWAP1 POP JUMP JUMPDEST PUSH1 0x60 DUP1 PUSH1 0x0 DUP1 PUSH1 0x0 DUP1 PUSH1 0x0 PUSH1 0x3 PUSH1 0x0 DUP10 DUP2 MSTORE PUSH1 0x20 ADD SWAP1 DUP2 MSTORE PUSH1 0x20 ADD PUSH1 0x0 KECCAK256 PUSH1 0x40 MLOAD DUP1 PUSH2 0x160 ADD PUSH1 0x40 MSTORE SWAP1 DUP2 PUSH1 0x0 DUP3 ADD SLOAD DUP2 MSTORE PUSH1 0x20 ADD PUSH1 0x1 DUP3 ADD DUP1 SLOAD PUSH2 0xBB6 SWAP1 PUSH2 0x2AAC JUMP JUMPDEST DUP1 PUSH1 0x1F ADD PUSH1 0x20 DUP1 SWAP2 DIV MUL PUSH1 0x20 ADD PUSH1 0x40 MLOAD SWAP1 DUP2 ADD PUSH1 0x40 MSTORE DUP1 SWAP3 SWAP2 SWAP1 DUP2 DUP2 MSTORE PUSH1 0x20 ADD DUP3 DUP1 SLOAD PUSH2 0xBE2 SWAP1 PUSH2 0x2AAC JUMP JUMPDEST DUP1 ISZERO PUSH2 0xC2F JUMPI DUP1 PUSH1 0x1F LT PUSH2 0xC04 JUMPI PUSH2 0x100 DUP1 DUP4 SLOAD DIV MUL DUP4 MSTORE SWAP2 PUSH1 0x20 ADD SWAP2 PUSH2 0xC2F JUMP JUMPDEST DUP3 ADD SWAP2 SWAP1 PUSH1 0x0 MSTORE PUSH1 0x20 PUSH1 0x0 KECCAK256 SWAP1 JUMPDEST DUP2 SLOAD DUP2 MSTORE SWAP1 PUSH1 0x1 ADD SWAP1 PUSH1 0x20 ADD DUP1 DUP4 GT PUSH2 0xC12 JUMPI DUP3 SWAP1 SUB PUSH1 0x1F AND DUP3 ADD SWAP2 JUMPDEST POP POP POP POP POP DUP2 MSTORE PUSH1 0x20 ADD PUSH1 0x2 DUP3 ADD DUP1 SLOAD PUSH2 0xC48 SWAP1 PUSH2 0x2AAC JUMP JUMPDEST DUP1 PUSH1 0x1F ADD PUSH1 0x20 DUP1 SWAP2 DIV MUL PUSH1 0x20 ADD PUSH1 0x40 MLOAD SWAP1 DUP2 ADD PUSH1 0x40 MSTORE DUP1 SWAP3 SWAP2 SWAP1 DUP2 DUP2 MSTORE PUSH1 0x20 ADD DUP3 DUP1 SLOAD PUSH2 0xC74 SWAP1 PUSH2 0x2AAC JUMP JUMPDEST DUP1 ISZERO PUSH2 0xCC1 JUMPI DUP1 PUSH1 0x1F LT PUSH2 0xC96 JUMPI PUSH2 0x100 DUP1 DUP4 SLOAD DIV MUL DUP4 MSTORE SWAP2 PUSH1 0x20 ADD SWAP2 PUSH2 0xCC1 JUMP JUMPDEST DUP3 ADD SWAP2 SWAP1 PUSH1 0x0 MSTORE PUSH1 0x20 PUSH1 0x0 KECCAK256 SWAP1 JUMPDEST DUP2 SLOAD DUP2 MSTORE SWAP1 PUSH1 0x1 ADD SWAP1 PUSH1 0x20 ADD DUP1 DUP4 GT PUSH2 0xCA4 JUMPI DUP3 SWAP1 SUB PUSH1 0x1F AND DUP3 ADD SWAP2 JUMPDEST POP POP POP POP POP DUP2 MSTORE PUSH1 0x20 ADD PUSH1 0x3 DUP3 ADD SLOAD DUP2 MSTORE PUSH1 0x20 ADD PUSH1 0x4 DUP3 ADD PUSH1 0x0 SWAP1 SLOAD SWAP1 PUSH2 0x100 EXP SWAP1 DIV PUSH20 0xFFFFFFFFFFFFFFFFFFFFFFFFFFFFFFFFFFFFFFFF AND PUSH20 0xFFFFFFFFFFFFFFFFFFFFFFFFFFFFFFFFFFFFFFFF AND PUSH20 0xFFFFFFFFFFFFFFFFFFFFFFFFFFFFFFFFFFFFFFFF AND DUP2 MSTORE PUSH1 0x20 ADD PUSH1 0x5 DUP3 ADD DUP1 SLOAD PUSH2 0xD3A SWAP1 PUSH2 0x2AAC JUMP JUMPDEST DUP1 PUSH1 0x1F ADD PUSH1 0x20 DUP1 SWAP2 DIV MUL PUSH1 0x20 ADD PUSH1 0x40 MLOAD SWAP1 DUP2 ADD PUSH1 0x40 MSTORE DUP1 SWAP3 SWAP2 SWAP1 DUP2 DUP2 MSTORE PUSH1 0x20 ADD DUP3 DUP1 SLOAD PUSH2 0xD66 SWAP1 PUSH2 0x2AAC JUMP JUMPDEST DUP1 ISZERO PUSH2 0xDB3 JUMPI DUP1 PUSH1 0x1F LT PUSH2 0xD88 JUMPI PUSH2 0x100 DUP1 DUP4 SLOAD DIV MUL DUP4 MSTORE SWAP2 PUSH1 0x20 ADD SWAP2 PUSH2 0xDB3 JUMP JUMPDEST DUP3 ADD SWAP2 SWAP1 PUSH1 0x0 MSTORE PUSH1 0x20 PUSH1 0x0 KECCAK256 SWAP1 JUMPDEST DUP2 SLOAD DUP2 MSTORE SWAP1 PUSH1 0x1 ADD SWAP1 PUSH1 0x20 ADD DUP1 DUP4 GT PUSH2 0xD96 JUMPI DUP3 SWAP1 SUB PUSH1 0x1F AND DUP3 ADD SWAP2 JUMPDEST POP POP POP POP POP DUP2 MSTORE PUSH1 0x20 ADD PUSH1 0x6 DUP3 ADD PUSH1 0x0 SWAP1 SLOAD SWAP1 PUSH2 0x100 EXP SWAP1 DIV PUSH1 0xFF AND PUSH1 0xFF AND PUSH1 0xFF AND DUP2 MSTORE PUSH1 0x20 ADD PUSH1 0x6 DUP3 ADD PUSH1 0x1 SWAP1 SLOAD SWAP1 PUSH2 0x100 EXP SWAP1 DIV PUSH1 0xFF AND PUSH1 0xFF AND PUSH1 0xFF AND DUP2 MSTORE PUSH1 0x20 ADD PUSH1 0x6 DUP3 ADD PUSH1 0x2 SWAP1 SLOAD SWAP1 PUSH2 0x100 EXP SWAP1 DIV PUSH1 0xFF AND PUSH1 0xFF AND PUSH1 0xFF AND DUP2 MSTORE PUSH1 0x20 ADD PUSH1 0x7 DUP3 ADD SLOAD DUP2 MSTORE PUSH1 0x20 ADD PUSH1 0x8 DUP3 ADD SLOAD DUP2 MSTORE POP POP SWAP1 POP DUP1 PUSH1 0x40 ADD MLOAD DUP2 PUSH1 0xA0 ADD MLOAD DUP3 PUSH1 0xC0 ADD MLOAD DUP4 PUSH2 0x100 ADD MLOAD DUP5 PUSH2 0x120 ADD MLOAD DUP6 PUSH2 0x140 ADD MLOAD SWAP7 POP SWAP7 POP SWAP7 POP SWAP7 POP SWAP7 POP SWAP7 POP POP SWAP2 SWAP4 SWAP6 POP SWAP2 SWAP4 SWAP6 JUMP JUMPDEST PUSH1 0x3 PUSH1 0x0 DUP4 DUP2 MSTORE PUSH1 0x20 ADD SWAP1 DUP2 MSTORE PUSH1 0x20 ADD PUSH1 0x0 KECCAK256 PUSH1 0x4 ADD PUSH1 0x0 SWAP1 SLOAD SWAP1 PUSH2 0x100 EXP SWAP1 DIV PUSH20 0xFFFFFFFFFFFFFFFFFFFFFFFFFFFFFFFFFFFFFFFF AND PUSH20 0xFFFFFFFFFFFFFFFFFFFFFFFFFFFFFFFFFFFFFFFF AND CALLER PUSH20 0xFFFFFFFFFFFFFFFFFFFFFFFFFFFFFFFFFFFFFFFF AND EQ PUSH2 0xF04 JUMPI PUSH1 0x40 MLOAD PUSH32 0x8C379A000000000000000000000000000000000000000000000000000000000 DUP2 MSTORE PUSH1 0x4 ADD PUSH2 0xEFB SWAP1 PUSH2 0x2609 JUMP JUMPDEST PUSH1 0x40 MLOAD DUP1 SWAP2 SUB SWAP1 REVERT JUMPDEST DUP1 PUSH1 0x3 PUSH1 0x0 DUP5 DUP2 MSTORE PUSH1 0x20 ADD SWAP1 DUP2 MSTORE PUSH1 0x20 ADD PUSH1 0x0 KECCAK256 PUSH1 0x2 ADD SWAP1 DUP1 MLOAD SWAP1 PUSH1 0x20 ADD SWAP1 PUSH2 0xF2E SWAP3 SWAP2 SWAP1 PUSH2 0x1C8F JUMP JUMPDEST POP TIMESTAMP PUSH1 0x3 PUSH1 0x0 DUP5 DUP2 MSTORE PUSH1 0x20 ADD SWAP1 DUP2 MSTORE PUSH1 0x20 ADD PUSH1 0x0 KECCAK256 PUSH1 0x8 ADD DUP2 SWAP1 SSTORE POP POP POP JUMP JUMPDEST PUSH1 0x0 DUP1 PUSH1 0x0 DUP5 DUP2 MSTORE PUSH1 0x20 ADD SWAP1 DUP2 MSTORE PUSH1 0x20 ADD PUSH1 0x0 KECCAK256 PUSH1 0x0 ADD PUSH1 0x0 DUP4 PUSH20 0xFFFFFFFFFFFFFFFFFFFFFFFFFFFFFFFFFFFFFFFF AND PUSH20 0xFFFFFFFFFFFFFFFFFFFFFFFFFFFFFFFFFFFFFFFF AND DUP2 MSTORE PUSH1 0x20 ADD SWAP1 DUP2 MSTORE PUSH1 0x20 ADD PUSH1 0x0 KECCAK256 PUSH1 0x0 SWAP1 SLOAD SWAP1 PUSH2 0x100 EXP SWAP1 DIV PUSH1 0xFF AND SWAP1 POP SWAP3 SWAP2 POP POP JUMP JUMPDEST PUSH1 0x0 DUP1 SHL DUP2 JUMP JUMPDEST DUP4 PUSH20 0xFFFFFFFFFFFFFFFFFFFFFFFFFFFFFFFFFFFFFFFF AND CALLER PUSH20 0xFFFFFFFFFFFFFFFFFFFFFFFFFFFFFFFFFFFFFFFF AND EQ PUSH2 0x102D JUMPI PUSH1 0x40 MLOAD PUSH32 0x8C379A000000000000000000000000000000000000000000000000000000000 DUP2 MSTORE PUSH1 0x4 ADD PUSH2 0x1024 SWAP1 PUSH2 0x2689 JUMP JUMPDEST PUSH1 0x40 MLOAD DUP1 SWAP2 SUB SWAP1 REVERT JUMPDEST PUSH1 0x0 DUP4 GT PUSH2 0x1070 JUMPI PUSH1 0x40 MLOAD PUSH32 0x8C379A000000000000000000000000000000000000000000000000000000000 DUP2 MSTORE PUSH1 0x4 ADD PUSH2 0x1067 SWAP1 PUSH2 0x26E9 JUMP JUMPDEST PUSH1 0x40 MLOAD DUP1 SWAP2 SUB SWAP1 REVERT JUMPDEST PUSH1 0x40 MLOAD DUP1 PUSH2 0x160 ADD PUSH1 0x40 MSTORE DUP1 PUSH1 0x1 SLOAD DUP2 MSTORE PUSH1 0x20 ADD DUP8 DUP2 MSTORE PUSH1 0x20 ADD DUP7 DUP2 MSTORE PUSH1 0x20 ADD DUP5 DUP2 MSTORE PUSH1 0x20 ADD DUP6 PUSH20 0xFFFFFFFFFFFFFFFFFFFFFFFFFFFFFFFFFFFFFFFF AND DUP2 MSTORE PUSH1 0x20 ADD DUP4 DUP2 MSTORE PUSH1 0x20 ADD PUSH1 0x0 PUSH1 0xFF AND DUP2 MSTORE PUSH1 0x20 ADD PUSH1 0x0 PUSH1 0xFF AND DUP2 MSTORE PUSH1 0x20 ADD DUP3 PUSH1 0xFF AND DUP2 MSTORE PUSH1 0x20 ADD TIMESTAMP DUP2 MSTORE PUSH1 0x20 ADD TIMESTAMP DUP2 MSTORE POP PUSH1 0x3 PUSH1 0x0 PUSH1 0x1 SLOAD DUP2 MSTORE PUSH1 0x20 ADD SWAP1 DUP2 MSTORE PUSH1 0x20 ADD PUSH1 0x0 KECCAK256 PUSH1 0x0 DUP3 ADD MLOAD DUP2 PUSH1 0x0 ADD SSTORE PUSH1 0x20 DUP3 ADD MLOAD DUP2 PUSH1 0x1 ADD SWAP1 DUP1 MLOAD SWAP1 PUSH1 0x20 ADD SWAP1 PUSH2 0x111A SWAP3 SWAP2 SWAP1 PUSH2 0x1C8F JUMP JUMPDEST POP PUSH1 0x40 DUP3 ADD MLOAD DUP2 PUSH1 0x2 ADD SWAP1 DUP1 MLOAD SWAP1 PUSH1 0x20 ADD SWAP1 PUSH2 0x1137 SWAP3 SWAP2 SWAP1 PUSH2 0x1C8F JUMP JUMPDEST POP PUSH1 0x60 DUP3 ADD MLOAD DUP2 PUSH1 0x3 ADD SSTORE PUSH1 0x80 DUP3 ADD MLOAD DUP2 PUSH1 0x4 ADD PUSH1 0x0 PUSH2 0x100 EXP DUP2 SLOAD DUP2 PUSH20 0xFFFFFFFFFFFFFFFFFFFFFFFFFFFFFFFFFFFFFFFF MUL NOT AND SWAP1 DUP4 PUSH20 0xFFFFFFFFFFFFFFFFFFFFFFFFFFFFFFFFFFFFFFFF AND MUL OR SWAP1 SSTORE POP PUSH1 0xA0 DUP3 ADD MLOAD DUP2 PUSH1 0x5 ADD SWAP1 DUP1 MLOAD SWAP1 PUSH1 0x20 ADD SWAP1 PUSH2 0x11A5 SWAP3 SWAP2 SWAP1 PUSH2 0x1C8F JUMP JUMPDEST POP PUSH1 0xC0 DUP3 ADD MLOAD DUP2 PUSH1 0x6 ADD PUSH1 0x0 PUSH2 0x100 EXP DUP2 SLOAD DUP2 PUSH1 0xFF MUL NOT AND SWAP1 DUP4 PUSH1 0xFF AND MUL OR SWAP1 SSTORE POP PUSH1 0xE0 DUP3 ADD MLOAD DUP2 PUSH1 0x6 ADD PUSH1 0x1 PUSH2 0x100 EXP DUP2 SLOAD DUP2 PUSH1 0xFF MUL NOT AND SWAP1 DUP4 PUSH1 0xFF AND MUL OR SWAP1 SSTORE POP PUSH2 0x100 DUP3 ADD MLOAD DUP2 PUSH1 0x6 ADD PUSH1 0x2 PUSH2 0x100 EXP DUP2 SLOAD DUP2 PUSH1 0xFF MUL NOT AND SWAP1 DUP4 PUSH1 0xFF AND MUL OR SWAP1 SSTORE POP PUSH2 0x120 DUP3 ADD MLOAD DUP2 PUSH1 0x7 ADD SSTORE PUSH2 0x140 DUP3 ADD MLOAD DUP2 PUSH1 0x8 ADD SSTORE SWAP1 POP POP PUSH1 0x1 PUSH1 0x0 DUP2 SLOAD DUP1 SWAP3 SWAP2 SWAP1 PUSH2 0x1236 SWAP1 PUSH2 0x2B0F JUMP JUMPDEST SWAP2 SWAP1 POP SSTORE POP POP POP POP POP POP POP JUMP JUMPDEST PUSH1 0x3 PUSH1 0x0 DUP4 DUP2 MSTORE PUSH1 0x20 ADD SWAP1 DUP2 MSTORE PUSH1 0x20 ADD PUSH1 0x0 KECCAK256 PUSH1 0x4 ADD PUSH1 0x0 SWAP1 SLOAD SWAP1 PUSH2 0x100 EXP SWAP1 DIV PUSH20 0xFFFFFFFFFFFFFFFFFFFFFFFFFFFFFFFFFFFFFFFF AND PUSH20 0xFFFFFFFFFFFFFFFFFFFFFFFFFFFFFFFFFFFFFFFF AND CALLER PUSH20 0xFFFFFFFFFFFFFFFFFFFFFFFFFFFFFFFFFFFFFFFF AND EQ PUSH2 0x12E7 JUMPI PUSH1 0x40 MLOAD PUSH32 0x8C379A000000000000000000000000000000000000000000000000000000000 DUP2 MSTORE PUSH1 0x4 ADD PUSH2 0x12DE SWAP1 PUSH2 0x25E9 JUMP JUMPDEST PUSH1 0x40 MLOAD DUP1 SWAP2 SUB SWAP1 REVERT JUMPDEST DUP1 PUSH1 0x3 PUSH1 0x0 DUP5 DUP2 MSTORE PUSH1 0x20 ADD SWAP1 DUP2 MSTORE PUSH1 0x20 ADD PUSH1 0x0 KECCAK256 PUSH1 0x3 ADD DUP2 SWAP1 SSTORE POP TIMESTAMP PUSH1 0x3 PUSH1 0x0 DUP5 DUP2 MSTORE PUSH1 0x20 ADD SWAP1 DUP2 MSTORE PUSH1 0x20 ADD PUSH1 0x0 KECCAK256 PUSH1 0x8 ADD DUP2 SWAP1 SSTORE POP POP POP JUMP JUMPDEST PUSH32 0x1F9CA85E780B3B3CFBE1334CA9DD68802DB7860F692BD163C796BB76D464EDC0 DUP2 JUMP JUMPDEST PUSH1 0x60 PUSH1 0x0 DUP1 PUSH1 0x3 PUSH1 0x0 DUP6 DUP2 MSTORE PUSH1 0x20 ADD SWAP1 DUP2 MSTORE PUSH1 0x20 ADD PUSH1 0x0 KECCAK256 PUSH1 0x1 ADD PUSH1 0x3 PUSH1 0x0 DUP7 DUP2 MSTORE PUSH1 0x20 ADD SWAP1 DUP2 MSTORE PUSH1 0x20 ADD PUSH1 0x0 KECCAK256 PUSH1 0x4 ADD PUSH1 0x0 SWAP1 SLOAD SWAP1 PUSH2 0x100 EXP SWAP1 DIV PUSH20 0xFFFFFFFFFFFFFFFFFFFFFFFFFFFFFFFFFFFFFFFF AND PUSH1 0x3 PUSH1 0x0 DUP8 DUP2 MSTORE PUSH1 0x20 ADD SWAP1 DUP2 MSTORE PUSH1 0x20 ADD PUSH1 0x0 KECCAK256 PUSH1 0x3 ADD SLOAD DUP3 DUP1 SLOAD PUSH2 0x13BA SWAP1 PUSH2 0x2AAC JUMP JUMPDEST DUP1 PUSH1 0x1F ADD PUSH1 0x20 DUP1 SWAP2 DIV MUL PUSH1 0x20 ADD PUSH1 0x40 MLOAD SWAP1 DUP2 ADD PUSH1 0x40 MSTORE DUP1 SWAP3 SWAP2 SWAP1 DUP2 DUP2 MSTORE PUSH1 0x20 ADD DUP3 DUP1 SLOAD PUSH2 0x13E6 SWAP1 PUSH2 0x2AAC JUMP JUMPDEST DUP1 ISZERO PUSH2 0x1433 JUMPI DUP1 PUSH1 0x1F LT PUSH2 0x1408 JUMPI PUSH2 0x100 DUP1 DUP4 SLOAD DIV MUL DUP4 MSTORE SWAP2 PUSH1 0x20 ADD SWAP2 PUSH2 0x1433 JUMP JUMPDEST DUP3 ADD SWAP2 SWAP1 PUSH1 0x0 MSTORE PUSH1 0x20 PUSH1 0x0 KECCAK256 SWAP1 JUMPDEST DUP2 SLOAD DUP2 MSTORE SWAP1 PUSH1 0x1 ADD SWAP1 PUSH1 0x20 ADD DUP1 DUP4 GT PUSH2 0x1416 JUMPI DUP3 SWAP1 SUB PUSH1 0x1F AND DUP3 ADD SWAP2 JUMPDEST POP POP POP POP POP SWAP3 POP SWAP3 POP SWAP3 POP SWAP3 POP SWAP2 SWAP4 SWAP1 SWAP3 POP JUMP JUMPDEST PUSH2 0x1450 DUP3 PUSH2 0xA46 JUMP JUMPDEST PUSH2 0x1461 DUP2 PUSH2 0x145C PUSH2 0x1765 JUMP JUMPDEST PUSH2 0x176D JUMP JUMPDEST PUSH2 0x146B DUP4 DUP4 PUSH2 0x18EA JUMP JUMPDEST POP POP POP JUMP JUMPDEST PUSH1 0x3 PUSH1 0x0 DUP4 DUP2 MSTORE PUSH1 0x20 ADD SWAP1 DUP2 MSTORE PUSH1 0x20 ADD PUSH1 0x0 KECCAK256 PUSH1 0x4 ADD PUSH1 0x0 SWAP1 SLOAD SWAP1 PUSH2 0x100 EXP SWAP1 DIV PUSH20 0xFFFFFFFFFFFFFFFFFFFFFFFFFFFFFFFFFFFFFFFF AND PUSH20 0xFFFFFFFFFFFFFFFFFFFFFFFFFFFFFFFFFFFFFFFF AND CALLER PUSH20 0xFFFFFFFFFFFFFFFFFFFFFFFFFFFFFFFFFFFFFFFF AND EQ PUSH2 0x1514 JUMPI PUSH1 0x40 MLOAD PUSH32 0x8C379A000000000000000000000000000000000000000000000000000000000 DUP2 MSTORE PUSH1 0x4 ADD PUSH2 0x150B SWAP1 PUSH2 0x25C9 JUMP JUMPDEST PUSH1 0x40 MLOAD DUP1 SWAP2 SUB SWAP1 REVERT JUMPDEST DUP1 PUSH1 0x3 PUSH1 0x0 DUP5 DUP2 MSTORE PUSH1 0x20 ADD SWAP1 DUP2 MSTORE PUSH1 0x20 ADD PUSH1 0x0 KECCAK256 PUSH1 0x6 ADD PUSH1 0x2 PUSH2 0x100 EXP DUP2 SLOAD DUP2 PUSH1 0xFF MUL NOT AND SWAP1 DUP4 PUSH1 0xFF AND MUL OR SWAP1 SSTORE POP TIMESTAMP PUSH1 0x3 PUSH1 0x0 DUP5 DUP2 MSTORE PUSH1 0x20 ADD SWAP1 DUP2 MSTORE PUSH1 0x20 ADD PUSH1 0x0 KECCAK256 PUSH1 0x8 ADD DUP2 SWAP1 SSTORE POP POP POP JUMP JUMPDEST PUSH1 0x3 PUSH1 0x0 DUP4 DUP2 MSTORE PUSH1 0x20 ADD SWAP1 DUP2 MSTORE PUSH1 0x20 ADD PUSH1 0x0 KECCAK256 PUSH1 0x4 ADD PUSH1 0x0 SWAP1 SLOAD SWAP1 PUSH2 0x100 EXP SWAP1 DIV PUSH20 0xFFFFFFFFFFFFFFFFFFFFFFFFFFFFFFFFFFFFFFFF AND PUSH20 0xFFFFFFFFFFFFFFFFFFFFFFFFFFFFFFFFFFFFFFFF AND CALLER PUSH20 0xFFFFFFFFFFFFFFFFFFFFFFFFFFFFFFFFFFFFFFFF AND EQ PUSH2 0x1606 JUMPI PUSH1 0x40 MLOAD PUSH32 0x8C379A000000000000000000000000000000000000000000000000000000000 DUP2 MSTORE PUSH1 0x4 ADD PUSH2 0x15FD SWAP1 PUSH2 0x2649 JUMP JUMPDEST PUSH1 0x40 MLOAD DUP1 SWAP2 SUB SWAP1 REVERT JUMPDEST DUP1 PUSH1 0x3 PUSH1 0x0 DUP5 DUP2 MSTORE PUSH1 0x20 ADD SWAP1 DUP2 MSTORE PUSH1 0x20 ADD PUSH1 0x0 KECCAK256 PUSH1 0x5 ADD SWAP1 DUP1 MLOAD SWAP1 PUSH1 0x20 ADD SWAP1 PUSH2 0x1630 SWAP3 SWAP2 SWAP1 PUSH2 0x1C8F JUMP JUMPDEST POP TIMESTAMP PUSH1 0x3 PUSH1 0x0 DUP5 DUP2 MSTORE PUSH1 0x20 ADD SWAP1 DUP2 MSTORE PUSH1 0x20 ADD PUSH1 0x0 KECCAK256 PUSH1 0x8 ADD DUP2 SWAP1 SSTORE POP POP POP JUMP JUMPDEST PUSH1 0x0 PUSH2 0x16F3 PUSH1 0x2 PUSH1 0x0 DUP6 DUP2 MSTORE PUSH1 0x20 ADD SWAP1 DUP2 MSTORE PUSH1 0x20 ADD PUSH1 0x0 KECCAK256 DUP1 SLOAD DUP1 PUSH1 0x20 MUL PUSH1 0x20 ADD PUSH1 0x40 MLOAD SWAP1 DUP2 ADD PUSH1 0x40 MSTORE DUP1 SWAP3 SWAP2 SWAP1 DUP2 DUP2 MSTORE PUSH1 0x20 ADD DUP3 DUP1 SLOAD DUP1 ISZERO PUSH2 0x16E8 JUMPI PUSH1 0x20 MUL DUP3 ADD SWAP2 SWAP1 PUSH1 0x0 MSTORE PUSH1 0x20 PUSH1 0x0 KECCAK256 SWAP1 JUMPDEST DUP2 PUSH1 0x0 SWAP1 SLOAD SWAP1 PUSH2 0x100 EXP SWAP1 DIV PUSH20 0xFFFFFFFFFFFFFFFFFFFFFFFFFFFFFFFFFFFFFFFF AND PUSH20 0xFFFFFFFFFFFFFFFFFFFFFFFFFFFFFFFFFFFFFFFF AND DUP2 MSTORE PUSH1 0x20 ADD SWAP1 PUSH1 0x1 ADD SWAP1 DUP1 DUP4 GT PUSH2 0x169E JUMPI JUMPDEST POP POP POP POP POP DUP4 PUSH2 0x19CB JUMP JUMPDEST SWAP1 POP SWAP3 SWAP2 POP POP JUMP JUMPDEST PUSH1 0x0 PUSH32 0x1FFC9A700000000000000000000000000000000000000000000000000000000 PUSH28 0xFFFFFFFFFFFFFFFFFFFFFFFFFFFFFFFFFFFFFFFFFFFFFFFFFFFFFFFF NOT AND DUP3 PUSH28 0xFFFFFFFFFFFFFFFFFFFFFFFFFFFFFFFFFFFFFFFFFFFFFFFFFFFFFFFF NOT AND EQ SWAP1 POP SWAP2 SWAP1 POP JUMP JUMPDEST PUSH1 0x0 CALLER SWAP1 POP SWAP1 JUMP JUMPDEST PUSH2 0x1777 DUP3 DUP3 PUSH2 0xF4E JUMP JUMPDEST PUSH2 0x1806 JUMPI PUSH2 0x179C DUP2 PUSH20 0xFFFFFFFFFFFFFFFFFFFFFFFFFFFFFFFFFFFFFFFF AND PUSH1 0x14 PUSH2 0x1A53 JUMP JUMPDEST PUSH2 0x17AA DUP4 PUSH1 0x0 SHR PUSH1 0x20 PUSH2 0x1A53 JUMP JUMPDEST PUSH1 0x40 MLOAD PUSH1 0x20 ADD PUSH2 0x17BB SWAP3 SWAP2 SWAP1 PUSH2 0x240A JUMP JUMPDEST PUSH1 0x40 MLOAD PUSH1 0x20 DUP2 DUP4 SUB SUB DUP2 MSTORE SWAP1 PUSH1 0x40 MSTORE PUSH1 0x40 MLOAD PUSH32 0x8C379A000000000000000000000000000000000000000000000000000000000 DUP2 MSTORE PUSH1 0x4 ADD PUSH2 0x17FD SWAP2 SWAP1 PUSH2 0x247A JUMP JUMPDEST PUSH1 0x40 MLOAD DUP1 SWAP2 SUB SWAP1 REVERT JUMPDEST POP POP JUMP JUMPDEST PUSH2 0x1814 DUP3 DUP3 PUSH2 0xF4E JUMP JUMPDEST PUSH2 0x18E6 JUMPI PUSH1 0x1 PUSH1 0x0 DUP1 DUP5 DUP2 MSTORE PUSH1 0x20 ADD SWAP1 DUP2 MSTORE PUSH1 0x20 ADD PUSH1 0x0 KECCAK256 PUSH1 0x0 ADD PUSH1 0x0 DUP4 PUSH20 0xFFFFFFFFFFFFFFFFFFFFFFFFFFFFFFFFFFFFFFFF AND PUSH20 0xFFFFFFFFFFFFFFFFFFFFFFFFFFFFFFFFFFFFFFFF AND DUP2 MSTORE PUSH1 0x20 ADD SWAP1 DUP2 MSTORE PUSH1 0x20 ADD PUSH1 0x0 KECCAK256 PUSH1 0x0 PUSH2 0x100 EXP DUP2 SLOAD DUP2 PUSH1 0xFF MUL NOT AND SWAP1 DUP4 ISZERO ISZERO MUL OR SWAP1 SSTORE POP PUSH2 0x188B PUSH2 0x1765 JUMP JUMPDEST PUSH20 0xFFFFFFFFFFFFFFFFFFFFFFFFFFFFFFFFFFFFFFFF AND DUP2 PUSH20 0xFFFFFFFFFFFFFFFFFFFFFFFFFFFFFFFFFFFFFFFF AND DUP4 PUSH32 0x2F8788117E7EFF1D82E926EC794901D17C78024A50270940304540A733656F0D PUSH1 0x40 MLOAD PUSH1 0x40 MLOAD DUP1 SWAP2 SUB SWAP1 LOG4 JUMPDEST POP POP JUMP JUMPDEST PUSH2 0x18F4 DUP3 DUP3 PUSH2 0xF4E JUMP JUMPDEST ISZERO PUSH2 0x19C7 JUMPI PUSH1 0x0 DUP1 PUSH1 0x0 DUP5 DUP2 MSTORE PUSH1 0x20 ADD SWAP1 DUP2 MSTORE PUSH1 0x20 ADD PUSH1 0x0 KECCAK256 PUSH1 0x0 ADD PUSH1 0x0 DUP4 PUSH20 0xFFFFFFFFFFFFFFFFFFFFFFFFFFFFFFFFFFFFFFFF AND PUSH20 0xFFFFFFFFFFFFFFFFFFFFFFFFFFFFFFFFFFFFFFFF AND DUP2 MSTORE PUSH1 0x20 ADD SWAP1 DUP2 MSTORE PUSH1 0x20 ADD PUSH1 0x0 KECCAK256 PUSH1 0x0 PUSH2 0x100 EXP DUP2 SLOAD DUP2 PUSH1 0xFF MUL NOT AND SWAP1 DUP4 ISZERO ISZERO MUL OR SWAP1 SSTORE POP PUSH2 0x196C PUSH2 0x1765 JUMP JUMPDEST PUSH20 0xFFFFFFFFFFFFFFFFFFFFFFFFFFFFFFFFFFFFFFFF AND DUP2 PUSH20 0xFFFFFFFFFFFFFFFFFFFFFFFFFFFFFFFFFFFFFFFF AND DUP4 PUSH32 0xF6391F5C32D9C69D2A47EA670B442974B53935D1EDC7FD64EB21E047A839171B PUSH1 0x40 MLOAD PUSH1 0x40 MLOAD DUP1 SWAP2 SUB SWAP1 LOG4 JUMPDEST POP POP JUMP JUMPDEST PUSH1 0x0 DUP1 PUSH1 0x0 SWAP1 POP JUMPDEST DUP4 MLOAD DUP2 LT ISZERO PUSH2 0x1A47 JUMPI DUP3 PUSH20 0xFFFFFFFFFFFFFFFFFFFFFFFFFFFFFFFFFFFFFFFF AND DUP5 DUP3 DUP2 MLOAD DUP2 LT PUSH2 0x1A06 JUMPI PUSH2 0x1A05 PUSH2 0x2C0F JUMP JUMPDEST JUMPDEST PUSH1 0x20 MUL PUSH1 0x20 ADD ADD MLOAD PUSH20 0xFFFFFFFFFFFFFFFFFFFFFFFFFFFFFFFFFFFFFFFF AND EQ ISZERO PUSH2 0x1A34 JUMPI PUSH1 0x1 SWAP2 POP POP PUSH2 0x1A4D JUMP JUMPDEST DUP1 DUP1 PUSH2 0x1A3F SWAP1 PUSH2 0x2B0F JUMP JUMPDEST SWAP2 POP POP PUSH2 0x19D3 JUMP JUMPDEST POP PUSH1 0x0 SWAP1 POP JUMPDEST SWAP3 SWAP2 POP POP JUMP JUMPDEST PUSH1 0x60 PUSH1 0x0 PUSH1 0x2 DUP4 PUSH1 0x2 PUSH2 0x1A66 SWAP2 SWAP1 PUSH2 0x28DF JUMP JUMPDEST PUSH2 0x1A70 SWAP2 SWAP1 PUSH2 0x2821 JUMP JUMPDEST PUSH8 0xFFFFFFFFFFFFFFFF DUP2 GT ISZERO PUSH2 0x1A89 JUMPI PUSH2 0x1A88 PUSH2 0x2C3E JUMP JUMPDEST JUMPDEST PUSH1 0x40 MLOAD SWAP1 DUP1 DUP3 MSTORE DUP1 PUSH1 0x1F ADD PUSH1 0x1F NOT AND PUSH1 0x20 ADD DUP3 ADD PUSH1 0x40 MSTORE DUP1 ISZERO PUSH2 0x1ABB JUMPI DUP2 PUSH1 0x20 ADD PUSH1 0x1 DUP3 MUL DUP1 CALLDATASIZE DUP4 CALLDATACOPY DUP1 DUP3 ADD SWAP2 POP POP SWAP1 POP JUMPDEST POP SWAP1 POP PUSH32 0x3000000000000000000000000000000000000000000000000000000000000000 DUP2 PUSH1 0x0 DUP2 MLOAD DUP2 LT PUSH2 0x1AF3 JUMPI PUSH2 0x1AF2 PUSH2 0x2C0F JUMP JUMPDEST JUMPDEST PUSH1 0x20 ADD ADD SWAP1 PUSH31 0xFFFFFFFFFFFFFFFFFFFFFFFFFFFFFFFFFFFFFFFFFFFFFFFFFFFFFFFFFFFFFF NOT AND SWAP1 DUP2 PUSH1 0x0 BYTE SWAP1 MSTORE8 POP PUSH32 0x7800000000000000000000000000000000000000000000000000000000000000 DUP2 PUSH1 0x1 DUP2 MLOAD DUP2 LT PUSH2 0x1B57 JUMPI PUSH2 0x1B56 PUSH2 0x2C0F JUMP JUMPDEST JUMPDEST PUSH1 0x20 ADD ADD SWAP1 PUSH31 0xFFFFFFFFFFFFFFFFFFFFFFFFFFFFFFFFFFFFFFFFFFFFFFFFFFFFFFFFFFFFFF NOT AND SWAP1 DUP2 PUSH1 0x0 BYTE SWAP1 MSTORE8 POP PUSH1 0x0 PUSH1 0x1 DUP5 PUSH1 0x2 PUSH2 0x1B97 SWAP2 SWAP1 PUSH2 0x28DF JUMP JUMPDEST PUSH2 0x1BA1 SWAP2 SWAP1 PUSH2 0x2821 JUMP JUMPDEST SWAP1 POP JUMPDEST PUSH1 0x1 DUP2 GT ISZERO PUSH2 0x1C41 JUMPI PUSH32 0x3031323334353637383961626364656600000000000000000000000000000000 PUSH1 0xF DUP7 AND PUSH1 0x10 DUP2 LT PUSH2 0x1BE3 JUMPI PUSH2 0x1BE2 PUSH2 0x2C0F JUMP JUMPDEST JUMPDEST BYTE PUSH1 0xF8 SHL DUP3 DUP3 DUP2 MLOAD DUP2 LT PUSH2 0x1BFA JUMPI PUSH2 0x1BF9 PUSH2 0x2C0F JUMP JUMPDEST JUMPDEST PUSH1 0x20 ADD ADD SWAP1 PUSH31 0xFFFFFFFFFFFFFFFFFFFFFFFFFFFFFFFFFFFFFFFFFFFFFFFFFFFFFFFFFFFFFF NOT AND SWAP1 DUP2 PUSH1 0x0 BYTE SWAP1 MSTORE8 POP PUSH1 0x4 DUP6 SWAP1 SHR SWAP5 POP DUP1 PUSH2 0x1C3A SWAP1 PUSH2 0x2A82 JUMP JUMPDEST SWAP1 POP PUSH2 0x1BA4 JUMP JUMPDEST POP PUSH1 0x0 DUP5 EQ PUSH2 0x1C85 JUMPI PUSH1 0x40 MLOAD PUSH32 0x8C379A000000000000000000000000000000000000000000000000000000000 DUP2 MSTORE PUSH1 0x4 ADD PUSH2 0x1C7C SWAP1 PUSH2 0x2589 JUMP JUMPDEST PUSH1 0x40 MLOAD DUP1 SWAP2 SUB SWAP1 REVERT JUMPDEST DUP1 SWAP2 POP POP SWAP3 SWAP2 POP POP JUMP JUMPDEST DUP3 DUP1 SLOAD PUSH2 0x1C9B SWAP1 PUSH2 0x2AAC JUMP JUMPDEST SWAP1 PUSH1 0x0 MSTORE PUSH1 0x20 PUSH1 0x0 KECCAK256 SWAP1 PUSH1 0x1F ADD PUSH1 0x20 SWAP1 DIV DUP2 ADD SWAP3 DUP3 PUSH2 0x1CBD JUMPI PUSH1 0x0 DUP6 SSTORE PUSH2 0x1D04 JUMP JUMPDEST DUP3 PUSH1 0x1F LT PUSH2 0x1CD6 JUMPI DUP1 MLOAD PUSH1 0xFF NOT AND DUP4 DUP1 ADD OR DUP6 SSTORE PUSH2 0x1D04 JUMP JUMPDEST DUP3 DUP1 ADD PUSH1 0x1 ADD DUP6 SSTORE DUP3 ISZERO PUSH2 0x1D04 JUMPI SWAP2 DUP3 ADD JUMPDEST DUP3 DUP2 GT ISZERO PUSH2 0x1D03 JUMPI DUP3 MLOAD DUP3 SSTORE SWAP2 PUSH1 0x20 ADD SWAP2 SWAP1 PUSH1 0x1 ADD SWAP1 PUSH2 0x1CE8 JUMP JUMPDEST JUMPDEST POP SWAP1 POP PUSH2 0x1D11 SWAP2 SWAP1 PUSH2 0x1D15 JUMP JUMPDEST POP SWAP1 JUMP JUMPDEST JUMPDEST DUP1 DUP3 GT ISZERO PUSH2 0x1D2E JUMPI PUSH1 0x0 DUP2 PUSH1 0x0 SWAP1 SSTORE POP PUSH1 0x1 ADD PUSH2 0x1D16 JUMP JUMPDEST POP SWAP1 JUMP JUMPDEST PUSH1 0x0 PUSH2 0x1D45 PUSH2 0x1D40 DUP5 PUSH2 0x27C9 JUMP JUMPDEST PUSH2 0x27A4 JUMP JUMPDEST SWAP1 POP DUP3 DUP2 MSTORE PUSH1 0x20 DUP2 ADD DUP5 DUP5 DUP5 ADD GT ISZERO PUSH2 0x1D61 JUMPI PUSH2 0x1D60 PUSH2 0x2C72 JUMP JUMPDEST JUMPDEST PUSH2 0x1D6C DUP5 DUP3 DUP6 PUSH2 0x2A40 JUMP JUMPDEST POP SWAP4 SWAP3 POP POP POP JUMP JUMPDEST PUSH1 0x0 DUP2 CALLDATALOAD SWAP1 POP PUSH2 0x1D83 DUP2 PUSH2 0x30C7 JUMP JUMPDEST SWAP3 SWAP2 POP POP JUMP JUMPDEST PUSH1 0x0 DUP2 CALLDATALOAD SWAP1 POP PUSH2 0x1D98 DUP2 PUSH2 0x30DE JUMP JUMPDEST SWAP3 SWAP2 POP POP JUMP JUMPDEST PUSH1 0x0 DUP2 CALLDATALOAD SWAP1 POP PUSH2 0x1DAD DUP2 PUSH2 0x30F5 JUMP JUMPDEST SWAP3 SWAP2 POP POP JUMP JUMPDEST PUSH1 0x0 DUP2 CALLDATALOAD SWAP1 POP PUSH2 0x1DC2 DUP2 PUSH2 0x310C JUMP JUMPDEST SWAP3 SWAP2 POP POP JUMP JUMPDEST PUSH1 0x0 DUP3 PUSH1 0x1F DUP4 ADD SLT PUSH2 0x1DDD JUMPI PUSH2 0x1DDC PUSH2 0x2C6D JUMP JUMPDEST JUMPDEST DUP2 CALLDATALOAD PUSH2 0x1DED DUP5 DUP3 PUSH1 0x20 DUP7 ADD PUSH2 0x1D32 JUMP JUMPDEST SWAP2 POP POP SWAP3 SWAP2 POP POP JUMP JUMPDEST PUSH1 0x0 DUP2 CALLDATALOAD SWAP1 POP PUSH2 0x1E05 DUP2 PUSH2 0x3123 JUMP JUMPDEST SWAP3 SWAP2 POP POP JUMP JUMPDEST PUSH1 0x0 DUP2 CALLDATALOAD SWAP1 POP PUSH2 0x1E1A DUP2 PUSH2 0x313A JUMP JUMPDEST SWAP3 SWAP2 POP POP JUMP JUMPDEST PUSH1 0x0 PUSH1 0x20 DUP3 DUP5 SUB SLT ISZERO PUSH2 0x1E36 JUMPI PUSH2 0x1E35 PUSH2 0x2C7C JUMP JUMPDEST JUMPDEST PUSH1 0x0 PUSH2 0x1E44 DUP5 DUP3 DUP6 ADD PUSH2 0x1D9E JUMP JUMPDEST SWAP2 POP POP SWAP3 SWAP2 POP POP JUMP JUMPDEST PUSH1 0x0 DUP1 PUSH1 0x40 DUP4 DUP6 SUB SLT ISZERO PUSH2 0x1E64 JUMPI PUSH2 0x1E63 PUSH2 0x2C7C JUMP JUMPDEST JUMPDEST PUSH1 0x0 PUSH2 0x1E72 DUP6 DUP3 DUP7 ADD PUSH2 0x1D9E JUMP JUMPDEST SWAP3 POP POP PUSH1 0x20 PUSH2 0x1E83 DUP6 DUP3 DUP7 ADD PUSH2 0x1D74 JUMP JUMPDEST SWAP2 POP POP SWAP3 POP SWAP3 SWAP1 POP JUMP JUMPDEST PUSH1 0x0 PUSH1 0x20 DUP3 DUP5 SUB SLT ISZERO PUSH2 0x1EA3 JUMPI PUSH2 0x1EA2 PUSH2 0x2C7C JUMP JUMPDEST JUMPDEST PUSH1 0x0 PUSH2 0x1EB1 DUP5 DUP3 DUP6 ADD PUSH2 0x1DB3 JUMP JUMPDEST SWAP2 POP POP SWAP3 SWAP2 POP POP JUMP JUMPDEST PUSH1 0x0 DUP1 PUSH1 0x0 DUP1 PUSH1 0x0 DUP1 PUSH1 0xC0 DUP8 DUP10 SUB SLT ISZERO PUSH2 0x1ED7 JUMPI PUSH2 0x1ED6 PUSH2 0x2C7C JUMP JUMPDEST JUMPDEST PUSH1 0x0 DUP8 ADD CALLDATALOAD PUSH8 0xFFFFFFFFFFFFFFFF DUP2 GT ISZERO PUSH2 0x1EF5 JUMPI PUSH2 0x1EF4 PUSH2 0x2C77 JUMP JUMPDEST JUMPDEST PUSH2 0x1F01 DUP10 DUP3 DUP11 ADD PUSH2 0x1DC8 JUMP JUMPDEST SWAP7 POP POP PUSH1 0x20 DUP8 ADD CALLDATALOAD PUSH8 0xFFFFFFFFFFFFFFFF DUP2 GT ISZERO PUSH2 0x1F22 JUMPI PUSH2 0x1F21 PUSH2 0x2C77 JUMP JUMPDEST JUMPDEST PUSH2 0x1F2E DUP10 DUP3 DUP11 ADD PUSH2 0x1DC8 JUMP JUMPDEST SWAP6 POP POP PUSH1 0x40 PUSH2 0x1F3F DUP10 DUP3 DUP11 ADD PUSH2 0x1D89 JUMP JUMPDEST SWAP5 POP POP PUSH1 0x60 PUSH2 0x1F50 DUP10 DUP3 DUP11 ADD PUSH2 0x1DF6 JUMP JUMPDEST SWAP4 POP POP PUSH1 0x80 DUP8 ADD CALLDATALOAD PUSH8 0xFFFFFFFFFFFFFFFF DUP2 GT ISZERO PUSH2 0x1F71 JUMPI PUSH2 0x1F70 PUSH2 0x2C77 JUMP JUMPDEST JUMPDEST PUSH2 0x1F7D DUP10 DUP3 DUP11 ADD PUSH2 0x1DC8 JUMP JUMPDEST SWAP3 POP POP PUSH1 0xA0 PUSH2 0x1F8E DUP10 DUP3 DUP11 ADD PUSH2 0x1E0B JUMP JUMPDEST SWAP2 POP POP SWAP3 SWAP6 POP SWAP3 SWAP6 POP SWAP3 SWAP6 JUMP JUMPDEST PUSH1 0x0 PUSH1 0x20 DUP3 DUP5 SUB SLT ISZERO PUSH2 0x1FB1 JUMPI PUSH2 0x1FB0 PUSH2 0x2C7C JUMP JUMPDEST JUMPDEST PUSH1 0x0 PUSH2 0x1FBF DUP5 DUP3 DUP6 ADD PUSH2 0x1DF6 JUMP JUMPDEST SWAP2 POP POP SWAP3 SWAP2 POP POP JUMP JUMPDEST PUSH1 0x0 DUP1 PUSH1 0x40 DUP4 DUP6 SUB SLT ISZERO PUSH2 0x1FDF JUMPI PUSH2 0x1FDE PUSH2 0x2C7C JUMP JUMPDEST JUMPDEST PUSH1 0x0 PUSH2 0x1FED DUP6 DUP3 DUP7 ADD PUSH2 0x1DF6 JUMP JUMPDEST SWAP3 POP POP PUSH1 0x20 PUSH2 0x1FFE DUP6 DUP3 DUP7 ADD PUSH2 0x1D74 JUMP JUMPDEST SWAP2 POP POP SWAP3 POP SWAP3 SWAP1 POP JUMP JUMPDEST PUSH1 0x0 DUP1 PUSH1 0x40 DUP4 DUP6 SUB SLT ISZERO PUSH2 0x201F JUMPI PUSH2 0x201E PUSH2 0x2C7C JUMP JUMPDEST JUMPDEST PUSH1 0x0 PUSH2 0x202D DUP6 DUP3 DUP7 ADD PUSH2 0x1DF6 JUMP JUMPDEST SWAP3 POP POP PUSH1 0x20 DUP4 ADD CALLDATALOAD PUSH8 0xFFFFFFFFFFFFFFFF DUP2 GT ISZERO PUSH2 0x204E JUMPI PUSH2 0x204D PUSH2 0x2C77 JUMP JUMPDEST JUMPDEST PUSH2 0x205A DUP6 DUP3 DUP7 ADD PUSH2 0x1DC8 JUMP JUMPDEST SWAP2 POP POP SWAP3 POP SWAP3 SWAP1 POP JUMP JUMPDEST PUSH1 0x0 DUP1 PUSH1 0x40 DUP4 DUP6 SUB SLT ISZERO PUSH2 0x207B JUMPI PUSH2 0x207A PUSH2 0x2C7C JUMP JUMPDEST JUMPDEST PUSH1 0x0 PUSH2 0x2089 DUP6 DUP3 DUP7 ADD PUSH2 0x1DF6 JUMP JUMPDEST SWAP3 POP POP PUSH1 0x20 PUSH2 0x209A DUP6 DUP3 DUP7 ADD PUSH2 0x1DF6 JUMP JUMPDEST SWAP2 POP POP SWAP3 POP SWAP3 SWAP1 POP JUMP JUMPDEST PUSH1 0x0 DUP1 PUSH1 0x40 DUP4 DUP6 SUB SLT ISZERO PUSH2 0x20BB JUMPI PUSH2 0x20BA PUSH2 0x2C7C JUMP JUMPDEST JUMPDEST PUSH1 0x0 PUSH2 0x20C9 DUP6 DUP3 DUP7 ADD PUSH2 0x1DF6 JUMP JUMPDEST SWAP3 POP POP PUSH1 0x20 PUSH2 0x20DA DUP6 DUP3 DUP7 ADD PUSH2 0x1E0B JUMP JUMPDEST SWAP2 POP POP SWAP3 POP SWAP3 SWAP1 POP JUMP JUMPDEST PUSH2 0x20ED DUP2 PUSH2 0x2A0A JUMP JUMPDEST DUP3 MSTORE POP POP JUMP JUMPDEST PUSH2 0x20FC DUP2 PUSH2 0x297F JUMP JUMPDEST DUP3 MSTORE POP POP JUMP JUMPDEST PUSH2 0x210B DUP2 PUSH2 0x296D JUMP JUMPDEST DUP3 MSTORE POP POP JUMP JUMPDEST PUSH2 0x211A DUP2 PUSH2 0x2991 JUMP JUMPDEST DUP3 MSTORE POP POP JUMP JUMPDEST PUSH2 0x2129 DUP2 PUSH2 0x299D JUMP JUMPDEST DUP3 MSTORE POP POP JUMP JUMPDEST PUSH1 0x0 PUSH2 0x213A DUP3 PUSH2 0x27FA JUMP JUMPDEST PUSH2 0x2144 DUP2 DUP6 PUSH2 0x2805 JUMP JUMPDEST SWAP4 POP PUSH2 0x2154 DUP2 DUP6 PUSH1 0x20 DUP7 ADD PUSH2 0x2A4F JUMP JUMPDEST PUSH2 0x215D DUP2 PUSH2 0x2C81 JUMP JUMPDEST DUP5 ADD SWAP2 POP POP SWAP3 SWAP2 POP POP JUMP JUMPDEST PUSH1 0x0 PUSH2 0x2173 DUP3 PUSH2 0x27FA JUMP JUMPDEST PUSH2 0x217D DUP2 DUP6 PUSH2 0x2816 JUMP JUMPDEST SWAP4 POP PUSH2 0x218D DUP2 DUP6 PUSH1 0x20 DUP7 ADD PUSH2 0x2A4F JUMP JUMPDEST DUP1 DUP5 ADD SWAP2 POP POP SWAP3 SWAP2 POP POP JUMP JUMPDEST PUSH1 0x0 PUSH2 0x21A6 PUSH1 0x1F DUP4 PUSH2 0x2805 JUMP JUMPDEST SWAP2 POP PUSH2 0x21B1 DUP3 PUSH2 0x2C92 JUMP JUMPDEST PUSH1 0x20 DUP3 ADD SWAP1 POP SWAP2 SWAP1 POP JUMP JUMPDEST PUSH1 0x0 PUSH2 0x21C9 PUSH1 0x3D DUP4 PUSH2 0x2805 JUMP JUMPDEST SWAP2 POP PUSH2 0x21D4 DUP3 PUSH2 0x2CBB JUMP JUMPDEST PUSH1 0x40 DUP3 ADD SWAP1 POP SWAP2 SWAP1 POP JUMP JUMPDEST PUSH1 0x0 PUSH2 0x21EC PUSH1 0x20 DUP4 PUSH2 0x2805 JUMP JUMPDEST SWAP2 POP PUSH2 0x21F7 DUP3 PUSH2 0x2D0A JUMP JUMPDEST PUSH1 0x20 DUP3 ADD SWAP1 POP SWAP2 SWAP1 POP JUMP JUMPDEST PUSH1 0x0 PUSH2 0x220F PUSH1 0x14 DUP4 PUSH2 0x2805 JUMP JUMPDEST SWAP2 POP PUSH2 0x221A DUP3 PUSH2 0x2D33 JUMP JUMPDEST PUSH1 0x20 DUP3 ADD SWAP1 POP SWAP2 SWAP1 POP JUMP JUMPDEST PUSH1 0x0 PUSH2 0x2232 PUSH1 0x27 DUP4 PUSH2 0x2805 JUMP JUMPDEST SWAP2 POP PUSH2 0x223D DUP3 PUSH2 0x2D5C JUMP JUMPDEST PUSH1 0x40 DUP3 ADD SWAP1 POP SWAP2 SWAP1 POP JUMP JUMPDEST PUSH1 0x0 PUSH2 0x2255 PUSH1 0x24 DUP4 PUSH2 0x2805 JUMP JUMPDEST SWAP2 POP PUSH2 0x2260 DUP3 PUSH2 0x2DAB JUMP JUMPDEST PUSH1 0x40 DUP3 ADD SWAP1 POP SWAP2 SWAP1 POP JUMP JUMPDEST PUSH1 0x0 PUSH2 0x2278 PUSH1 0x2A DUP4 PUSH2 0x2805 JUMP JUMPDEST SWAP2 POP PUSH2 0x2283 DUP3 PUSH2 0x2DFA JUMP JUMPDEST PUSH1 0x40 DUP3 ADD SWAP1 POP SWAP2 SWAP1 POP JUMP JUMPDEST PUSH1 0x0 PUSH2 0x229B PUSH1 0x21 DUP4 PUSH2 0x2805 JUMP JUMPDEST SWAP2 POP PUSH2 0x22A6 DUP3 PUSH2 0x2E49 JUMP JUMPDEST PUSH1 0x40 DUP3 ADD SWAP1 POP SWAP2 SWAP1 POP JUMP JUMPDEST PUSH1 0x0 PUSH2 0x22BE PUSH1 0x28 DUP4 PUSH2 0x2805 JUMP JUMPDEST SWAP2 POP PUSH2 0x22C9 DUP3 PUSH2 0x2E98 JUMP JUMPDEST PUSH1 0x40 DUP3 ADD SWAP1 POP SWAP2 SWAP1 POP JUMP JUMPDEST PUSH1 0x0 PUSH2 0x22E1 PUSH1 0x28 DUP4 PUSH2 0x2805 JUMP JUMPDEST SWAP2 POP PUSH2 0x22EC DUP3 PUSH2 0x2EE7 JUMP JUMPDEST PUSH1 0x40 DUP3 ADD SWAP1 POP SWAP2 SWAP1 POP JUMP JUMPDEST PUSH1 0x0 PUSH2 0x2304 PUSH1 0x28 DUP4 PUSH2 0x2805 JUMP JUMPDEST SWAP2 POP PUSH2 0x230F DUP3 PUSH2 0x2F36 JUMP JUMPDEST PUSH1 0x40 DUP3 ADD SWAP1 POP SWAP2 SWAP1 POP JUMP JUMPDEST PUSH1 0x0 PUSH2 0x2327 PUSH1 0x16 DUP4 PUSH2 0x2805 JUMP JUMPDEST SWAP2 POP PUSH2 0x2332 DUP3 PUSH2 0x2F85 JUMP JUMPDEST PUSH1 0x20 DUP3 ADD SWAP1 POP SWAP2 SWAP1 POP JUMP JUMPDEST PUSH1 0x0 PUSH2 0x234A PUSH1 0x25 DUP4 PUSH2 0x2805 JUMP JUMPDEST SWAP2 POP PUSH2 0x2355 DUP3 PUSH2 0x2FAE JUMP JUMPDEST PUSH1 0x40 DUP3 ADD SWAP1 POP SWAP2 SWAP1 POP JUMP JUMPDEST PUSH1 0x0 PUSH2 0x236D PUSH1 0x17 DUP4 PUSH2 0x2816 JUMP JUMPDEST SWAP2 POP PUSH2 0x2378 DUP3 PUSH2 0x2FFD JUMP JUMPDEST PUSH1 0x17 DUP3 ADD SWAP1 POP SWAP2 SWAP1 POP JUMP JUMPDEST PUSH1 0x0 PUSH2 0x2390 PUSH1 0x1C DUP4 PUSH2 0x2805 JUMP JUMPDEST SWAP2 POP PUSH2 0x239B DUP3 PUSH2 0x3026 JUMP JUMPDEST PUSH1 0x20 DUP3 ADD SWAP1 POP SWAP2 SWAP1 POP JUMP JUMPDEST PUSH1 0x0 PUSH2 0x23B3 PUSH1 0x11 DUP4 PUSH2 0x2816 JUMP JUMPDEST SWAP2 POP PUSH2 0x23BE DUP3 PUSH2 0x304F JUMP JUMPDEST PUSH1 0x11 DUP3 ADD SWAP1 POP SWAP2 SWAP1 POP JUMP JUMPDEST PUSH1 0x0 PUSH2 0x23D6 PUSH1 0x2F DUP4 PUSH2 0x2805 JUMP JUMPDEST SWAP2 POP PUSH2 0x23E1 DUP3 PUSH2 0x3078 JUMP JUMPDEST PUSH1 0x40 DUP3 ADD SWAP1 POP SWAP2 SWAP1 POP JUMP JUMPDEST PUSH2 0x23F5 DUP2 PUSH2 0x29F3 JUMP JUMPDEST DUP3 MSTORE POP POP JUMP JUMPDEST PUSH2 0x2404 DUP2 PUSH2 0x29FD JUMP JUMPDEST DUP3 MSTORE POP POP JUMP JUMPDEST PUSH1 0x0 PUSH2 0x2415 DUP3 PUSH2 0x2360 JUMP JUMPDEST SWAP2 POP PUSH2 0x2421 DUP3 DUP6 PUSH2 0x2168 JUMP JUMPDEST SWAP2 POP PUSH2 0x242C DUP3 PUSH2 0x23A6 JUMP JUMPDEST SWAP2 POP PUSH2 0x2438 DUP3 DUP5 PUSH2 0x2168 JUMP JUMPDEST SWAP2 POP DUP2 SWAP1 POP SWAP4 SWAP3 POP POP POP JUMP JUMPDEST PUSH1 0x0 PUSH1 0x20 DUP3 ADD SWAP1 POP PUSH2 0x2459 PUSH1 0x0 DUP4 ADD DUP5 PUSH2 0x2111 JUMP JUMPDEST SWAP3 SWAP2 POP POP JUMP JUMPDEST PUSH1 0x0 PUSH1 0x20 DUP3 ADD SWAP1 POP PUSH2 0x2474 PUSH1 0x0 DUP4 ADD DUP5 PUSH2 0x2120 JUMP JUMPDEST SWAP3 SWAP2 POP POP JUMP JUMPDEST PUSH1 0x0 PUSH1 0x20 DUP3 ADD SWAP1 POP DUP2 DUP2 SUB PUSH1 0x0 DUP4 ADD MSTORE PUSH2 0x2494 DUP2 DUP5 PUSH2 0x212F JUMP JUMPDEST SWAP1 POP SWAP3 SWAP2 POP POP JUMP JUMPDEST PUSH1 0x0 PUSH1 0x60 DUP3 ADD SWAP1 POP DUP2 DUP2 SUB PUSH1 0x0 DUP4 ADD MSTORE PUSH2 0x24B6 DUP2 DUP7 PUSH2 0x212F JUMP JUMPDEST SWAP1 POP PUSH2 0x24C5 PUSH1 0x20 DUP4 ADD DUP6 PUSH2 0x20F3 JUMP JUMPDEST PUSH2 0x24D2 PUSH1 0x40 DUP4 ADD DUP5 PUSH2 0x23EC JUMP JUMPDEST SWAP5 SWAP4 POP POP POP POP JUMP JUMPDEST PUSH1 0x0 PUSH1 0xC0 DUP3 ADD SWAP1 POP DUP2 DUP2 SUB PUSH1 0x0 DUP4 ADD MSTORE PUSH2 0x24F4 DUP2 DUP10 PUSH2 0x212F JUMP JUMPDEST SWAP1 POP DUP2 DUP2 SUB PUSH1 0x20 DUP4 ADD MSTORE PUSH2 0x2508 DUP2 DUP9 PUSH2 0x212F JUMP JUMPDEST SWAP1 POP PUSH2 0x2517 PUSH1 0x40 DUP4 ADD DUP8 PUSH2 0x23FB JUMP JUMPDEST PUSH2 0x2524 PUSH1 0x60 DUP4 ADD DUP7 PUSH2 0x23FB JUMP JUMPDEST PUSH2 0x2531 PUSH1 0x80 DUP4 ADD DUP6 PUSH2 0x23EC JUMP JUMPDEST PUSH2 0x253E PUSH1 0xA0 DUP4 ADD DUP5 PUSH2 0x23EC JUMP JUMPDEST SWAP8 SWAP7 POP POP POP POP POP POP POP JUMP JUMPDEST PUSH1 0x0 PUSH1 0x20 DUP3 ADD SWAP1 POP DUP2 DUP2 SUB PUSH1 0x0 DUP4 ADD MSTORE PUSH2 0x2562 DUP2 PUSH2 0x2199 JUMP JUMPDEST SWAP1 POP SWAP2 SWAP1 POP JUMP JUMPDEST PUSH1 0x0 PUSH1 0x20 DUP3 ADD SWAP1 POP DUP2 DUP2 SUB PUSH1 0x0 DUP4 ADD MSTORE PUSH2 0x2582 DUP2 PUSH2 0x21BC JUMP JUMPDEST SWAP1 POP SWAP2 SWAP1 POP JUMP JUMPDEST PUSH1 0x0 PUSH1 0x20 DUP3 ADD SWAP1 POP DUP2 DUP2 SUB PUSH1 0x0 DUP4 ADD MSTORE PUSH2 0x25A2 DUP2 PUSH2 0x21DF JUMP JUMPDEST SWAP1 POP SWAP2 SWAP1 POP JUMP JUMPDEST PUSH1 0x0 PUSH1 0x20 DUP3 ADD SWAP1 POP DUP2 DUP2 SUB PUSH1 0x0 DUP4 ADD MSTORE PUSH2 0x25C2 DUP2 PUSH2 0x2202 JUMP JUMPDEST SWAP1 POP SWAP2 SWAP1 POP JUMP JUMPDEST PUSH1 0x0 PUSH1 0x20 DUP3 ADD SWAP1 POP DUP2 DUP2 SUB PUSH1 0x0 DUP4 ADD MSTORE PUSH2 0x25E2 DUP2 PUSH2 0x2225 JUMP JUMPDEST SWAP1 POP SWAP2 SWAP1 POP JUMP JUMPDEST PUSH1 0x0 PUSH1 0x20 DUP3 ADD SWAP1 POP DUP2 DUP2 SUB PUSH1 0x0 DUP4 ADD MSTORE PUSH2 0x2602 DUP2 PUSH2 0x2248 JUMP JUMPDEST SWAP1 POP SWAP2 SWAP1 POP JUMP JUMPDEST PUSH1 0x0 PUSH1 0x20 DUP3 ADD SWAP1 POP DUP2 DUP2 SUB PUSH1 0x0 DUP4 ADD MSTORE PUSH2 0x2622 DUP2 PUSH2 0x226B JUMP JUMPDEST SWAP1 POP SWAP2 SWAP1 POP JUMP JUMPDEST PUSH1 0x0 PUSH1 0x20 DUP3 ADD SWAP1 POP DUP2 DUP2 SUB PUSH1 0x0 DUP4 ADD MSTORE PUSH2 0x2642 DUP2 PUSH2 0x228E JUMP JUMPDEST SWAP1 POP SWAP2 SWAP1 POP JUMP JUMPDEST PUSH1 0x0 PUSH1 0x20 DUP3 ADD SWAP1 POP DUP2 DUP2 SUB PUSH1 0x0 DUP4 ADD MSTORE PUSH2 0x2662 DUP2 PUSH2 0x22B1 JUMP JUMPDEST SWAP1 POP SWAP2 SWAP1 POP JUMP JUMPDEST PUSH1 0x0 PUSH1 0x20 DUP3 ADD SWAP1 POP DUP2 DUP2 SUB PUSH1 0x0 DUP4 ADD MSTORE PUSH2 0x2682 DUP2 PUSH2 0x22D4 JUMP JUMPDEST SWAP1 POP SWAP2 SWAP1 POP JUMP JUMPDEST PUSH1 0x0 PUSH1 0x20 DUP3 ADD SWAP1 POP DUP2 DUP2 SUB PUSH1 0x0 DUP4 ADD MSTORE PUSH2 0x26A2 DUP2 PUSH2 0x22F7 JUMP JUMPDEST SWAP1 POP SWAP2 SWAP1 POP JUMP JUMPDEST PUSH1 0x0 PUSH1 0x20 DUP3 ADD SWAP1 POP DUP2 DUP2 SUB PUSH1 0x0 DUP4 ADD MSTORE PUSH2 0x26C2 DUP2 PUSH2 0x231A JUMP JUMPDEST SWAP1 POP SWAP2 SWAP1 POP JUMP JUMPDEST PUSH1 0x0 PUSH1 0x20 DUP3 ADD SWAP1 POP DUP2 DUP2 SUB PUSH1 0x0 DUP4 ADD MSTORE PUSH2 0x26E2 DUP2 PUSH2 0x233D JUMP JUMPDEST SWAP1 POP SWAP2 SWAP1 POP JUMP JUMPDEST PUSH1 0x0 PUSH1 0x20 DUP3 ADD SWAP1 POP DUP2 DUP2 SUB PUSH1 0x0 DUP4 ADD MSTORE PUSH2 0x2702 DUP2 PUSH2 0x2383 JUMP JUMPDEST SWAP1 POP SWAP2 SWAP1 POP JUMP JUMPDEST PUSH1 0x0 PUSH1 0x20 DUP3 ADD SWAP1 POP DUP2 DUP2 SUB PUSH1 0x0 DUP4 ADD MSTORE PUSH2 0x2722 DUP2 PUSH2 0x23C9 JUMP JUMPDEST SWAP1 POP SWAP2 SWAP1 POP JUMP JUMPDEST PUSH1 0x0 PUSH1 0x20 DUP3 ADD SWAP1 POP PUSH2 0x273E PUSH1 0x0 DUP4 ADD DUP5 PUSH2 0x23EC JUMP JUMPDEST SWAP3 SWAP2 POP POP JUMP JUMPDEST PUSH1 0x0 PUSH1 0x80 DUP3 ADD SWAP1 POP PUSH2 0x2759 PUSH1 0x0 DUP4 ADD DUP8 PUSH2 0x23EC JUMP JUMPDEST PUSH2 0x2766 PUSH1 0x20 DUP4 ADD DUP7 PUSH2 0x23EC JUMP JUMPDEST PUSH2 0x2773 PUSH1 0x40 DUP4 ADD DUP6 PUSH2 0x20E4 JUMP JUMPDEST PUSH2 0x2780 PUSH1 0x60 DUP4 ADD DUP5 PUSH2 0x2102 JUMP JUMPDEST SWAP6 SWAP5 POP POP POP POP POP JUMP JUMPDEST PUSH1 0x0 PUSH1 0x20 DUP3 ADD SWAP1 POP PUSH2 0x279E PUSH1 0x0 DUP4 ADD DUP5 PUSH2 0x23FB JUMP JUMPDEST SWAP3 SWAP2 POP POP JUMP JUMPDEST PUSH1 0x0 PUSH2 0x27AE PUSH2 0x27BF JUMP JUMPDEST SWAP1 POP PUSH2 0x27BA DUP3 DUP3 PUSH2 0x2ADE JUMP JUMPDEST SWAP2 SWAP1 POP JUMP JUMPDEST PUSH1 0x0 PUSH1 0x40 MLOAD SWAP1 POP SWAP1 JUMP JUMPDEST PUSH1 0x0 PUSH8 0xFFFFFFFFFFFFFFFF DUP3 GT ISZERO PUSH2 0x27E4 JUMPI PUSH2 0x27E3 PUSH2 0x2C3E JUMP JUMPDEST JUMPDEST PUSH2 0x27ED DUP3 PUSH2 0x2C81 JUMP JUMPDEST SWAP1 POP PUSH1 0x20 DUP2 ADD SWAP1 POP SWAP2 SWAP1 POP JUMP JUMPDEST PUSH1 0x0 DUP2 MLOAD SWAP1 POP SWAP2 SWAP1 POP JUMP JUMPDEST PUSH1 0x0 DUP3 DUP3 MSTORE PUSH1 0x20 DUP3 ADD SWAP1 POP SWAP3 SWAP2 POP POP JUMP JUMPDEST PUSH1 0x0 DUP2 SWAP1 POP SWAP3 SWAP2 POP POP JUMP JUMPDEST PUSH1 0x0 PUSH2 0x282C DUP3 PUSH2 0x29F3 JUMP JUMPDEST SWAP2 POP PUSH2 0x2837 DUP4 PUSH2 0x29F3 JUMP JUMPDEST SWAP3 POP DUP3 PUSH32 0xFFFFFFFFFFFFFFFFFFFFFFFFFFFFFFFFFFFFFFFFFFFFFFFFFFFFFFFFFFFFFFFF SUB DUP3 GT ISZERO PUSH2 0x286C JUMPI PUSH2 0x286B PUSH2 0x2B82 JUMP JUMPDEST JUMPDEST DUP3 DUP3 ADD SWAP1 POP SWAP3 SWAP2 POP POP JUMP JUMPDEST PUSH1 0x0 PUSH2 0x2882 DUP3 PUSH2 0x29FD JUMP JUMPDEST SWAP2 POP PUSH2 0x288D DUP4 PUSH2 0x29FD JUMP JUMPDEST SWAP3 POP DUP3 PUSH1 0xFF SUB DUP3 GT ISZERO PUSH2 0x28A3 JUMPI PUSH2 0x28A2 PUSH2 0x2B82 JUMP JUMPDEST JUMPDEST DUP3 DUP3 ADD SWAP1 POP SWAP3 SWAP2 POP POP JUMP JUMPDEST PUSH1 0x0 PUSH2 0x28B9 DUP3 PUSH2 0x29FD JUMP JUMPDEST SWAP2 POP PUSH2 0x28C4 DUP4 PUSH2 0x29FD JUMP JUMPDEST SWAP3 POP DUP3 PUSH2 0x28D4 JUMPI PUSH2 0x28D3 PUSH2 0x2BB1 JUMP JUMPDEST JUMPDEST DUP3 DUP3 DIV SWAP1 POP SWAP3 SWAP2 POP POP JUMP JUMPDEST PUSH1 0x0 PUSH2 0x28EA DUP3 PUSH2 0x29F3 JUMP JUMPDEST SWAP2 POP PUSH2 0x28F5 DUP4 PUSH2 0x29F3 JUMP JUMPDEST SWAP3 POP DUP2 PUSH32 0xFFFFFFFFFFFFFFFFFFFFFFFFFFFFFFFFFFFFFFFFFFFFFFFFFFFFFFFFFFFFFFFF DIV DUP4 GT DUP3 ISZERO ISZERO AND ISZERO PUSH2 0x292E JUMPI PUSH2 0x292D PUSH2 0x2B82 JUMP JUMPDEST JUMPDEST DUP3 DUP3 MUL SWAP1 POP SWAP3 SWAP2 POP POP JUMP JUMPDEST PUSH1 0x0 PUSH2 0x2944 DUP3 PUSH2 0x29FD JUMP JUMPDEST SWAP2 POP PUSH2 0x294F DUP4 PUSH2 0x29FD JUMP JUMPDEST SWAP3 POP DUP3 DUP3 LT ISZERO PUSH2 0x2962 JUMPI PUSH2 0x2961 PUSH2 0x2B82 JUMP JUMPDEST JUMPDEST DUP3 DUP3 SUB SWAP1 POP SWAP3 SWAP2 POP POP JUMP JUMPDEST PUSH1 0x0 PUSH2 0x2978 DUP3 PUSH2 0x29D3 JUMP JUMPDEST SWAP1 POP SWAP2 SWAP1 POP JUMP JUMPDEST PUSH1 0x0 PUSH2 0x298A DUP3 PUSH2 0x29D3 JUMP JUMPDEST SWAP1 POP SWAP2 SWAP1 POP JUMP JUMPDEST PUSH1 0x0 DUP2 ISZERO ISZERO SWAP1 POP SWAP2 SWAP1 POP JUMP JUMPDEST PUSH1 0x0 DUP2 SWAP1 POP SWAP2 SWAP1 POP JUMP JUMPDEST PUSH1 0x0 PUSH32 0xFFFFFFFF00000000000000000000000000000000000000000000000000000000 DUP3 AND SWAP1 POP SWAP2 SWAP1 POP JUMP JUMPDEST PUSH1 0x0 PUSH20 0xFFFFFFFFFFFFFFFFFFFFFFFFFFFFFFFFFFFFFFFF DUP3 AND SWAP1 POP SWAP2 SWAP1 POP JUMP JUMPDEST PUSH1 0x0 DUP2 SWAP1 POP SWAP2 SWAP1 POP JUMP JUMPDEST PUSH1 0x0 PUSH1 0xFF DUP3 AND SWAP1 POP SWAP2 SWAP1 POP JUMP JUMPDEST PUSH1 0x0 PUSH2 0x2A15 DUP3 PUSH2 0x2A1C JUMP JUMPDEST SWAP1 POP SWAP2 SWAP1 POP JUMP JUMPDEST PUSH1 0x0 PUSH2 0x2A27 DUP3 PUSH2 0x2A2E JUMP JUMPDEST SWAP1 POP SWAP2 SWAP1 POP JUMP JUMPDEST PUSH1 0x0 PUSH2 0x2A39 DUP3 PUSH2 0x29D3 JUMP JUMPDEST SWAP1 POP SWAP2 SWAP1 POP JUMP JUMPDEST DUP3 DUP2 DUP4 CALLDATACOPY PUSH1 0x0 DUP4 DUP4 ADD MSTORE POP POP POP JUMP JUMPDEST PUSH1 0x0 JUMPDEST DUP4 DUP2 LT ISZERO PUSH2 0x2A6D JUMPI DUP1 DUP3 ADD MLOAD DUP2 DUP5 ADD MSTORE PUSH1 0x20 DUP2 ADD SWAP1 POP PUSH2 0x2A52 JUMP JUMPDEST DUP4 DUP2 GT ISZERO PUSH2 0x2A7C JUMPI PUSH1 0x0 DUP5 DUP5 ADD MSTORE JUMPDEST POP POP POP POP JUMP JUMPDEST PUSH1 0x0 PUSH2 0x2A8D DUP3 PUSH2 0x29F3 JUMP JUMPDEST SWAP2 POP PUSH1 0x0 DUP3 EQ ISZERO PUSH2 0x2AA1 JUMPI PUSH2 0x2AA0 PUSH2 0x2B82 JUMP JUMPDEST JUMPDEST PUSH1 0x1 DUP3 SUB SWAP1 POP SWAP2 SWAP1 POP JUMP JUMPDEST PUSH1 0x0 PUSH1 0x2 DUP3 DIV SWAP1 POP PUSH1 0x1 DUP3 AND DUP1 PUSH2 0x2AC4 JUMPI PUSH1 0x7F DUP3 AND SWAP2 POP JUMPDEST PUSH1 0x20 DUP3 LT DUP2 EQ ISZERO PUSH2 0x2AD8 JUMPI PUSH2 0x2AD7 PUSH2 0x2BE0 JUMP JUMPDEST JUMPDEST POP SWAP2 SWAP1 POP JUMP JUMPDEST PUSH2 0x2AE7 DUP3 PUSH2 0x2C81 JUMP JUMPDEST DUP2 ADD DUP2 DUP2 LT PUSH8 0xFFFFFFFFFFFFFFFF DUP3 GT OR ISZERO PUSH2 0x2B06 JUMPI PUSH2 0x2B05 PUSH2 0x2C3E JUMP JUMPDEST JUMPDEST DUP1 PUSH1 0x40 MSTORE POP POP POP JUMP JUMPDEST PUSH1 0x0 PUSH2 0x2B1A DUP3 PUSH2 0x29F3 JUMP JUMPDEST SWAP2 POP PUSH32 0xFFFFFFFFFFFFFFFFFFFFFFFFFFFFFFFFFFFFFFFFFFFFFFFFFFFFFFFFFFFFFFFF DUP3 EQ ISZERO PUSH2 0x2B4D JUMPI PUSH2 0x2B4C PUSH2 0x2B82 JUMP JUMPDEST JUMPDEST PUSH1 0x1 DUP3 ADD SWAP1 POP SWAP2 SWAP1 POP JUMP JUMPDEST PUSH1 0x0 PUSH2 0x2B63 DUP3 PUSH2 0x29FD JUMP JUMPDEST SWAP2 POP PUSH1 0xFF DUP3 EQ ISZERO PUSH2 0x2B77 JUMPI PUSH2 0x2B76 PUSH2 0x2B82 JUMP JUMPDEST JUMPDEST PUSH1 0x1 DUP3 ADD SWAP1 POP SWAP2 SWAP1 POP JUMP JUMPDEST PUSH32 0x4E487B7100000000000000000000000000000000000000000000000000000000 PUSH1 0x0 MSTORE PUSH1 0x11 PUSH1 0x4 MSTORE PUSH1 0x24 PUSH1 0x0 REVERT JUMPDEST PUSH32 0x4E487B7100000000000000000000000000000000000000000000000000000000 PUSH1 0x0 MSTORE PUSH1 0x12 PUSH1 0x4 MSTORE PUSH1 0x24 PUSH1 0x0 REVERT JUMPDEST PUSH32 0x4E487B7100000000000000000000000000000000000000000000000000000000 PUSH1 0x0 MSTORE PUSH1 0x22 PUSH1 0x4 MSTORE PUSH1 0x24 PUSH1 0x0 REVERT JUMPDEST PUSH32 0x4E487B7100000000000000000000000000000000000000000000000000000000 PUSH1 0x0 MSTORE PUSH1 0x32 PUSH1 0x4 MSTORE PUSH1 0x24 PUSH1 0x0 REVERT JUMPDEST PUSH32 0x4E487B7100000000000000000000000000000000000000000000000000000000 PUSH1 0x0 MSTORE PUSH1 0x41 PUSH1 0x4 MSTORE PUSH1 0x24 PUSH1 0x0 REVERT JUMPDEST PUSH1 0x0 DUP1 REVERT JUMPDEST PUSH1 0x0 DUP1 REVERT JUMPDEST PUSH1 0x0 DUP1 REVERT JUMPDEST PUSH1 0x0 DUP1 REVERT JUMPDEST PUSH1 0x0 PUSH1 0x1F NOT PUSH1 0x1F DUP4 ADD AND SWAP1 POP SWAP2 SWAP1 POP JUMP JUMPDEST PUSH32 0x5175616E74697479206D7573742062652067726561746572207468616E203000 PUSH1 0x0 DUP3 ADD MSTORE POP JUMP JUMPDEST PUSH32 0x5175616E74697479206D757374206265206C657373207468616E206F72206571 PUSH1 0x0 DUP3 ADD MSTORE PUSH32 0x75616C20746F2074686520617661696C61626C65207175616E74697479000000 PUSH1 0x20 DUP3 ADD MSTORE POP JUMP JUMPDEST PUSH32 0x537472696E67733A20686578206C656E67746820696E73756666696369656E74 PUSH1 0x0 DUP3 ADD MSTORE POP JUMP JUMPDEST PUSH32 0x507269636520646F6573206E6F74206D61746368000000000000000000000000 PUSH1 0x0 DUP3 ADD MSTORE POP JUMP JUMPDEST PUSH32 0x4F6E6C79207468652073656C6C65722063616E20757064617465207468652071 PUSH1 0x0 DUP3 ADD MSTORE PUSH32 0x75616E7469747900000000000000000000000000000000000000000000000000 PUSH1 0x20 DUP3 ADD MSTORE POP JUMP JUMPDEST PUSH32 0x4F6E6C79207468652073656C6C65722063616E20757064617465207468652070 PUSH1 0x0 DUP3 ADD MSTORE PUSH32 0x7269636500000000000000000000000000000000000000000000000000000000 PUSH1 0x20 DUP3 ADD MSTORE POP JUMP JUMPDEST PUSH32 0x4F6E6C79207468652073656C6C65722063616E20757064617465207468652064 PUSH1 0x0 DUP3 ADD MSTORE PUSH32 0x65736372697074696F6E00000000000000000000000000000000000000000000 PUSH1 0x20 DUP3 ADD MSTORE POP JUMP JUMPDEST PUSH32 0x596F752063616E6E6F7420766F746520666F7220746869732070726F64756374 PUSH1 0x0 DUP3 ADD MSTORE PUSH32 0x2E00000000000000000000000000000000000000000000000000000000000000 PUSH1 0x20 DUP3 ADD MSTORE POP JUMP JUMPDEST PUSH32 0x4F6E6C79207468652073656C6C65722063616E20757064617465207468652069 PUSH1 0x0 DUP3 ADD MSTORE PUSH32 0x6D6167652075726C000000000000000000000000000000000000000000000000 PUSH1 0x20 DUP3 ADD MSTORE POP JUMP JUMPDEST PUSH32 0x5374617273206D7573742062652067726561746572207468616E206F72206571 PUSH1 0x0 DUP3 ADD MSTORE PUSH32 0x75616C20746F2031000000000000000000000000000000000000000000000000 PUSH1 0x20 DUP3 ADD MSTORE POP JUMP JUMPDEST PUSH32 0x4F6E6C79207468652073656C6C65722063616E206372656174652061206D6172 PUSH1 0x0 DUP3 ADD MSTORE PUSH32 0x6B6574206974656D000000000000000000000000000000000000000000000000 PUSH1 0x20 DUP3 ADD MSTORE POP JUMP JUMPDEST PUSH32 0x5468652073656C6C65722063616E6E6F7420766F746500000000000000000000 PUSH1 0x0 DUP3 ADD MSTORE POP JUMP JUMPDEST PUSH32 0x5374617273206D757374206265206C657373207468616E206F7220657175616C PUSH1 0x0 DUP3 ADD MSTORE PUSH32 0x20746F2035000000000000000000000000000000000000000000000000000000 PUSH1 0x20 DUP3 ADD MSTORE POP JUMP JUMPDEST PUSH32 0x416363657373436F6E74726F6C3A206163636F756E7420000000000000000000 PUSH1 0x0 DUP3 ADD MSTORE POP JUMP JUMPDEST PUSH32 0x5072696365206D7573742062652067726561746572207468616E203000000000 PUSH1 0x0 DUP3 ADD MSTORE POP JUMP JUMPDEST PUSH32 0x206973206D697373696E6720726F6C6520000000000000000000000000000000 PUSH1 0x0 DUP3 ADD MSTORE POP JUMP JUMPDEST PUSH32 0x416363657373436F6E74726F6C3A2063616E206F6E6C792072656E6F756E6365 PUSH1 0x0 DUP3 ADD MSTORE PUSH32 0x20726F6C657320666F722073656C660000000000000000000000000000000000 PUSH1 0x20 DUP3 ADD MSTORE POP JUMP JUMPDEST PUSH2 0x30D0 DUP2 PUSH2 0x296D JUMP JUMPDEST DUP2 EQ PUSH2 0x30DB JUMPI PUSH1 0x0 DUP1 REVERT JUMPDEST POP JUMP JUMPDEST PUSH2 0x30E7 DUP2 PUSH2 0x297F JUMP JUMPDEST DUP2 EQ PUSH2 0x30F2 JUMPI PUSH1 0x0 DUP1 REVERT JUMPDEST POP JUMP JUMPDEST PUSH2 0x30FE DUP2 PUSH2 0x299D JUMP JUMPDEST DUP2 EQ PUSH2 0x3109 JUMPI PUSH1 0x0 DUP1 REVERT JUMPDEST POP JUMP JUMPDEST PUSH2 0x3115 DUP2 PUSH2 0x29A7 JUMP JUMPDEST DUP2 EQ PUSH2 0x3120 JUMPI PUSH1 0x0 DUP1 REVERT JUMPDEST POP JUMP JUMPDEST PUSH2 0x312C DUP2 PUSH2 0x29F3 JUMP JUMPDEST DUP2 EQ PUSH2 0x3137 JUMPI PUSH1 0x0 DUP1 REVERT JUMPDEST POP JUMP JUMPDEST PUSH2 0x3143 DUP2 PUSH2 0x29FD JUMP JUMPDEST DUP2 EQ PUSH2 0x314E JUMPI PUSH1 0x0 DUP1 REVERT JUMPDEST POP JUMP INVALID LOG2 PUSH5 0x6970667358 0x22 SLT KECCAK256 PUSH28 0x35350635DFD6316125FA64DCF2AC37E755D4C50528D6C2D1B840C992 0x23 SWAP7 PUSH18 0x64736F6C6343000807003300000000000000 "
				},
				"gasEstimates": {
					"creation": {
						"codeDepositCost": "2535800",
						"executionCost": "infinite",
						"totalCost": "infinite"
					},
					"external": {
						"DEFAULT_ADMIN_ROLE()": "380",
						"MARKETPLACE_OWNER()": "440",
						"buyMarketItem(uint256,uint8)": "infinite",
						"checkBuyer(uint256,address)": "infinite",
						"createMarketItem(string,string,address,uint256,string,uint8)": "infinite",
						"getAverageStars(uint256)": "infinite",
						"getMarketItem(uint256)": "infinite",
						"getMarketItemDetails(uint256)": "infinite",
						"getRoleAdmin(bytes32)": "infinite",
						"grantRole(bytes32,address)": "infinite",
						"hasRole(bytes32,address)": "3163",
						"nextItemId()": "2474",
						"renounceRole(bytes32,address)": "infinite",
						"revokeRole(bytes32,address)": "infinite",
						"supportsInterface(bytes4)": "751",
						"updateMarketItemDescription(uint256,string)": "infinite",
						"updateMarketItemImgUrl(uint256,string)": "infinite",
						"updateMarketItemPrice(uint256,uint256)": "infinite",
						"updateMarketItemQuantity(uint256,uint8)": "49503",
						"voteMarketItemStars(uint256,uint8)": "infinite"
					},
					"internal": {
						"indexOf(address[] memory,address)": "infinite"
					}
				},
				"methodIdentifiers": {
					"DEFAULT_ADMIN_ROLE()": "a217fddf",
					"MARKETPLACE_OWNER()": "b491efa0",
					"buyMarketItem(uint256,uint8)": "1dfef0eb",
					"checkBuyer(uint256,address)": "fec4d15d",
					"createMarketItem(string,string,address,uint256,string,uint8)": "a6667d06",
					"getAverageStars(uint256)": "7735904f",
					"getMarketItem(uint256)": "c7be7a49",
					"getMarketItemDetails(uint256)": "88d9e84c",
					"getRoleAdmin(bytes32)": "248a9ca3",
					"grantRole(bytes32,address)": "2f2ff15d",
					"hasRole(bytes32,address)": "91d14854",
					"nextItemId()": "6a868974",
					"renounceRole(bytes32,address)": "36568abe",
					"revokeRole(bytes32,address)": "d547741f",
					"supportsInterface(bytes4)": "01ffc9a7",
					"updateMarketItemDescription(uint256,string)": "8f28afee",
					"updateMarketItemImgUrl(uint256,string)": "f0d2d06d",
					"updateMarketItemPrice(uint256,uint256)": "ae13a317",
					"updateMarketItemQuantity(uint256,uint8)": "eca1e6a0",
					"voteMarketItemStars(uint256,uint8)": "0c3774fc"
				}
			},
			"userdoc": {
				"kind": "user",
				"methods": {},
				"version": 1
			}
		}
	}
}