{
	"Marketplace.sol": {
		"Marketplace": {
			"abi": [
				{
					"inputs": [],
					"stateMutability": "nonpayable",
					"type": "constructor"
				},
				{
					"anonymous": false,
					"inputs": [
						{
							"indexed": true,
							"internalType": "bytes32",
							"name": "role",
							"type": "bytes32"
						},
						{
							"indexed": true,
							"internalType": "bytes32",
							"name": "previousAdminRole",
							"type": "bytes32"
						},
						{
							"indexed": true,
							"internalType": "bytes32",
							"name": "newAdminRole",
							"type": "bytes32"
						}
					],
					"name": "RoleAdminChanged",
					"type": "event"
				},
				{
					"anonymous": false,
					"inputs": [
						{
							"indexed": true,
							"internalType": "bytes32",
							"name": "role",
							"type": "bytes32"
						},
						{
							"indexed": true,
							"internalType": "address",
							"name": "account",
							"type": "address"
						},
						{
							"indexed": true,
							"internalType": "address",
							"name": "sender",
							"type": "address"
						}
					],
					"name": "RoleGranted",
					"type": "event"
				},
				{
					"anonymous": false,
					"inputs": [
						{
							"indexed": true,
							"internalType": "bytes32",
							"name": "role",
							"type": "bytes32"
						},
						{
							"indexed": true,
							"internalType": "address",
							"name": "account",
							"type": "address"
						},
						{
							"indexed": true,
							"internalType": "address",
							"name": "sender",
							"type": "address"
						}
					],
					"name": "RoleRevoked",
					"type": "event"
				},
				{
					"inputs": [],
					"name": "DEFAULT_ADMIN_ROLE",
					"outputs": [
						{
							"internalType": "bytes32",
							"name": "",
							"type": "bytes32"
						}
					],
					"stateMutability": "view",
					"type": "function"
				},
				{
					"inputs": [],
					"name": "MARKETPLACE_OWNER",
					"outputs": [
						{
							"internalType": "bytes32",
							"name": "",
							"type": "bytes32"
						}
					],
					"stateMutability": "view",
					"type": "function"
				},
				{
					"inputs": [
						{
							"internalType": "uint256",
							"name": "_itemId",
							"type": "uint256"
						}
					],
					"name": "buyMarketItem",
					"outputs": [],
					"stateMutability": "payable",
					"type": "function"
				},
				{
					"inputs": [
						{
							"internalType": "address payable",
							"name": "_seller",
							"type": "address"
						},
						{
							"internalType": "uint256",
							"name": "_price",
							"type": "uint256"
						}
					],
					"name": "createMarketItem",
					"outputs": [],
					"stateMutability": "nonpayable",
					"type": "function"
				},
				{
					"inputs": [
						{
							"internalType": "bytes32",
							"name": "role",
							"type": "bytes32"
						}
					],
					"name": "getRoleAdmin",
					"outputs": [
						{
							"internalType": "bytes32",
							"name": "",
							"type": "bytes32"
						}
					],
					"stateMutability": "view",
					"type": "function"
				},
				{
					"inputs": [
						{
							"internalType": "bytes32",
							"name": "role",
							"type": "bytes32"
						},
						{
							"internalType": "address",
							"name": "account",
							"type": "address"
						}
					],
					"name": "grantRole",
					"outputs": [],
					"stateMutability": "nonpayable",
					"type": "function"
				},
				{
					"inputs": [
						{
							"internalType": "bytes32",
							"name": "role",
							"type": "bytes32"
						},
						{
							"internalType": "address",
							"name": "account",
							"type": "address"
						}
					],
					"name": "hasRole",
					"outputs": [
						{
							"internalType": "bool",
							"name": "",
							"type": "bool"
						}
					],
					"stateMutability": "view",
					"type": "function"
				},
				{
					"inputs": [],
					"name": "nextItemId",
					"outputs": [
						{
							"internalType": "uint256",
							"name": "",
							"type": "uint256"
						}
					],
					"stateMutability": "view",
					"type": "function"
				},
				{
					"inputs": [
						{
							"internalType": "bytes32",
							"name": "role",
							"type": "bytes32"
						},
						{
							"internalType": "address",
							"name": "account",
							"type": "address"
						}
					],
					"name": "renounceRole",
					"outputs": [],
					"stateMutability": "nonpayable",
					"type": "function"
				},
				{
					"inputs": [
						{
							"internalType": "bytes32",
							"name": "role",
							"type": "bytes32"
						},
						{
							"internalType": "address",
							"name": "account",
							"type": "address"
						}
					],
					"name": "revokeRole",
					"outputs": [],
					"stateMutability": "nonpayable",
					"type": "function"
				},
				{
					"inputs": [
						{
							"internalType": "bytes4",
							"name": "interfaceId",
							"type": "bytes4"
						}
					],
					"name": "supportsInterface",
					"outputs": [
						{
							"internalType": "bool",
							"name": "",
							"type": "bool"
						}
					],
					"stateMutability": "view",
					"type": "function"
				}
			],
			"devdoc": {
				"kind": "dev",
				"methods": {
					"getRoleAdmin(bytes32)": {
						"details": "Returns the admin role that controls `role`. See {grantRole} and {revokeRole}. To change a role's admin, use {_setRoleAdmin}."
					},
					"grantRole(bytes32,address)": {
						"details": "Grants `role` to `account`. If `account` had not been already granted `role`, emits a {RoleGranted} event. Requirements: - the caller must have ``role``'s admin role."
					},
					"hasRole(bytes32,address)": {
						"details": "Returns `true` if `account` has been granted `role`."
					},
					"renounceRole(bytes32,address)": {
						"details": "Revokes `role` from the calling account. Roles are often managed via {grantRole} and {revokeRole}: this function's purpose is to provide a mechanism for accounts to lose their privileges if they are compromised (such as when a trusted device is misplaced). If the calling account had been revoked `role`, emits a {RoleRevoked} event. Requirements: - the caller must be `account`."
					},
					"revokeRole(bytes32,address)": {
						"details": "Revokes `role` from `account`. If `account` had been granted `role`, emits a {RoleRevoked} event. Requirements: - the caller must have ``role``'s admin role."
					},
					"supportsInterface(bytes4)": {
						"details": "See {IERC165-supportsInterface}."
					}
				},
				"version": 1
			},
			"evm": {
				"assembly": "    /* \"Marketplace.sol\":122:1332  contract Marketplace is  AccessControl {\r... */\n  mstore(0x40, 0x80)\n    /* \"Marketplace.sol\":277:278  0 */\n  0x00\n    /* \"Marketplace.sol\":249:278  uint256 public nextItemId = 0 */\n  0x01\n  sstore\n    /* \"Marketplace.sol\":489:563  constructor() {\r... */\n  callvalue\n  dup1\n  iszero\n  tag_1\n  jumpi\n  0x00\n  dup1\n  revert\ntag_1:\n  pop\n    /* \"Marketplace.sol\":514:555  _grantRole(MARKETPLACE_OWNER, msg.sender) */\n  tag_4\n    /* \"Marketplace.sol\":212:242  keccak256(\"MARKETPLACE_OWNER\") */\n  0x1f9ca85e780b3b3cfbe1334ca9dd68802db7860f692bd163c796bb76d464edc0\n    /* \"Marketplace.sol\":544:554  msg.sender */\n  caller\n    /* \"Marketplace.sol\":514:524  _grantRole */\n  shl(0x20, tag_5)\n    /* \"Marketplace.sol\":514:555  _grantRole(MARKETPLACE_OWNER, msg.sender) */\n  0x20\n  shr\n  jump\t// in\ntag_4:\n    /* \"Marketplace.sol\":122:1332  contract Marketplace is  AccessControl {\r... */\n  jump(tag_6)\n    /* \"@openzeppelin/contracts/access/AccessControl.sol\":6861:7094  function _grantRole(bytes32 role, address account) internal virtual {... */\ntag_5:\n    /* \"@openzeppelin/contracts/access/AccessControl.sol\":6944:6966  hasRole(role, account) */\n  tag_8\n    /* \"@openzeppelin/contracts/access/AccessControl.sol\":6952:6956  role */\n  dup3\n    /* \"@openzeppelin/contracts/access/AccessControl.sol\":6958:6965  account */\n  dup3\n    /* \"@openzeppelin/contracts/access/AccessControl.sol\":6944:6951  hasRole */\n  shl(0x20, tag_9)\n    /* \"@openzeppelin/contracts/access/AccessControl.sol\":6944:6966  hasRole(role, account) */\n  0x20\n  shr\n  jump\t// in\ntag_8:\n    /* \"@openzeppelin/contracts/access/AccessControl.sol\":6939:7088  if (!hasRole(role, account)) {... */\n  tag_10\n  jumpi\n    /* \"@openzeppelin/contracts/access/AccessControl.sol\":7014:7018  true */\n  0x01\n    /* \"@openzeppelin/contracts/access/AccessControl.sol\":6982:6988  _roles */\n  0x00\n    /* \"@openzeppelin/contracts/access/AccessControl.sol\":6982:6994  _roles[role] */\n  dup1\n    /* \"@openzeppelin/contracts/access/AccessControl.sol\":6989:6993  role */\n  dup5\n    /* \"@openzeppelin/contracts/access/AccessControl.sol\":6982:6994  _roles[role] */\n  dup2\n  mstore\n  0x20\n  add\n  swap1\n  dup2\n  mstore\n  0x20\n  add\n  0x00\n  keccak256\n    /* \"@openzeppelin/contracts/access/AccessControl.sol\":6982:7002  _roles[role].members */\n  0x00\n  add\n    /* \"@openzeppelin/contracts/access/AccessControl.sol\":6982:7011  _roles[role].members[account] */\n  0x00\n    /* \"@openzeppelin/contracts/access/AccessControl.sol\":7003:7010  account */\n  dup4\n    /* \"@openzeppelin/contracts/access/AccessControl.sol\":6982:7011  _roles[role].members[account] */\n  0xffffffffffffffffffffffffffffffffffffffff\n  and\n  0xffffffffffffffffffffffffffffffffffffffff\n  and\n  dup2\n  mstore\n  0x20\n  add\n  swap1\n  dup2\n  mstore\n  0x20\n  add\n  0x00\n  keccak256\n  0x00\n    /* \"@openzeppelin/contracts/access/AccessControl.sol\":6982:7018  _roles[role].members[account] = true */\n  0x0100\n  exp\n  dup2\n  sload\n  dup2\n  0xff\n  mul\n  not\n  and\n  swap1\n  dup4\n  iszero\n  iszero\n  mul\n  or\n  swap1\n  sstore\n  pop\n    /* \"@openzeppelin/contracts/access/AccessControl.sol\":7064:7076  _msgSender() */\n  tag_11\n    /* \"@openzeppelin/contracts/access/AccessControl.sol\":7064:7074  _msgSender */\n  shl(0x20, tag_12)\n    /* \"@openzeppelin/contracts/access/AccessControl.sol\":7064:7076  _msgSender() */\n  0x20\n  shr\n  jump\t// in\ntag_11:\n    /* \"@openzeppelin/contracts/access/AccessControl.sol\":7037:7077  RoleGranted(role, account, _msgSender()) */\n  0xffffffffffffffffffffffffffffffffffffffff\n  and\n    /* \"@openzeppelin/contracts/access/AccessControl.sol\":7055:7062  account */\n  dup2\n    /* \"@openzeppelin/contracts/access/AccessControl.sol\":7037:7077  RoleGranted(role, account, _msgSender()) */\n  0xffffffffffffffffffffffffffffffffffffffff\n  and\n    /* \"@openzeppelin/contracts/access/AccessControl.sol\":7049:7053  role */\n  dup4\n    /* \"@openzeppelin/contracts/access/AccessControl.sol\":7037:7077  RoleGranted(role, account, _msgSender()) */\n  0x2f8788117e7eff1d82e926ec794901d17c78024a50270940304540a733656f0d\n  mload(0x40)\n  mload(0x40)\n  dup1\n  swap2\n  sub\n  swap1\n  log4\n    /* \"@openzeppelin/contracts/access/AccessControl.sol\":6939:7088  if (!hasRole(role, account)) {... */\ntag_10:\n    /* \"@openzeppelin/contracts/access/AccessControl.sol\":6861:7094  function _grantRole(bytes32 role, address account) internal virtual {... */\n  pop\n  pop\n  jump\t// out\n    /* \"@openzeppelin/contracts/access/AccessControl.sol\":2909:3054  function hasRole(bytes32 role, address account) public view virtual override returns (bool) {... */\ntag_9:\n    /* \"@openzeppelin/contracts/access/AccessControl.sol\":2995:2999  bool */\n  0x00\n    /* \"@openzeppelin/contracts/access/AccessControl.sol\":3018:3024  _roles */\n  dup1\n    /* \"@openzeppelin/contracts/access/AccessControl.sol\":3018:3030  _roles[role] */\n  0x00\n    /* \"@openzeppelin/contracts/access/AccessControl.sol\":3025:3029  role */\n  dup5\n    /* \"@openzeppelin/contracts/access/AccessControl.sol\":3018:3030  _roles[role] */\n  dup2\n  mstore\n  0x20\n  add\n  swap1\n  dup2\n  mstore\n  0x20\n  add\n  0x00\n  keccak256\n    /* \"@openzeppelin/contracts/access/AccessControl.sol\":3018:3038  _roles[role].members */\n  0x00\n  add\n    /* \"@openzeppelin/contracts/access/AccessControl.sol\":3018:3047  _roles[role].members[account] */\n  0x00\n    /* \"@openzeppelin/contracts/access/AccessControl.sol\":3039:3046  account */\n  dup4\n    /* \"@openzeppelin/contracts/access/AccessControl.sol\":3018:3047  _roles[role].members[account] */\n  0xffffffffffffffffffffffffffffffffffffffff\n  and\n  0xffffffffffffffffffffffffffffffffffffffff\n  and\n  dup2\n  mstore\n  0x20\n  add\n  swap1\n  dup2\n  mstore\n  0x20\n  add\n  0x00\n  keccak256\n  0x00\n  swap1\n  sload\n  swap1\n  0x0100\n  exp\n  swap1\n  div\n  0xff\n  and\n    /* \"@openzeppelin/contracts/access/AccessControl.sol\":3011:3047  return _roles[role].members[account] */\n  swap1\n  pop\n    /* \"@openzeppelin/contracts/access/AccessControl.sol\":2909:3054  function hasRole(bytes32 role, address account) public view virtual override returns (bool) {... */\n  swap3\n  swap2\n  pop\n  pop\n  jump\t// out\n    /* \"@openzeppelin/contracts/utils/Context.sol\":640:736  function _msgSender() internal view virtual returns (address) {... */\ntag_12:\n    /* \"@openzeppelin/contracts/utils/Context.sol\":693:700  address */\n  0x00\n    /* \"@openzeppelin/contracts/utils/Context.sol\":719:729  msg.sender */\n  caller\n    /* \"@openzeppelin/contracts/utils/Context.sol\":712:729  return msg.sender */\n  swap1\n  pop\n    /* \"@openzeppelin/contracts/utils/Context.sol\":640:736  function _msgSender() internal view virtual returns (address) {... */\n  swap1\n  jump\t// out\n    /* \"Marketplace.sol\":122:1332  contract Marketplace is  AccessControl {\r... */\ntag_6:\n  dataSize(sub_0)\n  dup1\n  dataOffset(sub_0)\n  0x00\n  codecopy\n  0x00\n  return\nstop\n\nsub_0: assembly {\n        /* \"Marketplace.sol\":122:1332  contract Marketplace is  AccessControl {\r... */\n      mstore(0x40, 0x80)\n      jumpi(tag_1, lt(calldatasize, 0x04))\n      shr(0xe0, calldataload(0x00))\n      dup1\n      0x6a868974\n      gt\n      tag_13\n      jumpi\n      dup1\n      0x6a868974\n      eq\n      tag_7\n      jumpi\n      dup1\n      0x91d14854\n      eq\n      tag_8\n      jumpi\n      dup1\n      0xa217fddf\n      eq\n      tag_9\n      jumpi\n      dup1\n      0xb491efa0\n      eq\n      tag_10\n      jumpi\n      dup1\n      0xd547741f\n      eq\n      tag_11\n      jumpi\n      dup1\n      0xdd5f8518\n      eq\n      tag_12\n      jumpi\n      jump(tag_1)\n    tag_13:\n      dup1\n      0x01ffc9a7\n      eq\n      tag_2\n      jumpi\n      dup1\n      0x248a9ca3\n      eq\n      tag_3\n      jumpi\n      dup1\n      0x2f2ff15d\n      eq\n      tag_4\n      jumpi\n      dup1\n      0x351901c3\n      eq\n      tag_5\n      jumpi\n      dup1\n      0x36568abe\n      eq\n      tag_6\n      jumpi\n    tag_1:\n      0x00\n      dup1\n      revert\n        /* \"@openzeppelin/contracts/access/AccessControl.sol\":2620:2822  function supportsInterface(bytes4 interfaceId) public view virtual override returns (bool) {... */\n    tag_2:\n      callvalue\n      dup1\n      iszero\n      tag_14\n      jumpi\n      0x00\n      dup1\n      revert\n    tag_14:\n      pop\n      tag_15\n      0x04\n      dup1\n      calldatasize\n      sub\n      dup2\n      add\n      swap1\n      tag_16\n      swap2\n      swap1\n      tag_17\n      jump\t// in\n    tag_16:\n      tag_18\n      jump\t// in\n    tag_15:\n      mload(0x40)\n      tag_19\n      swap2\n      swap1\n      tag_20\n      jump\t// in\n    tag_19:\n      mload(0x40)\n      dup1\n      swap2\n      sub\n      swap1\n      return\n        /* \"@openzeppelin/contracts/access/AccessControl.sol\":4008:4137  function getRoleAdmin(bytes32 role) public view virtual override returns (bytes32) {... */\n    tag_3:\n      callvalue\n      dup1\n      iszero\n      tag_21\n      jumpi\n      0x00\n      dup1\n      revert\n    tag_21:\n      pop\n      tag_22\n      0x04\n      dup1\n      calldatasize\n      sub\n      dup2\n      add\n      swap1\n      tag_23\n      swap2\n      swap1\n      tag_24\n      jump\t// in\n    tag_23:\n      tag_25\n      jump\t// in\n    tag_22:\n      mload(0x40)\n      tag_26\n      swap2\n      swap1\n      tag_27\n      jump\t// in\n    tag_26:\n      mload(0x40)\n      dup1\n      swap2\n      sub\n      swap1\n      return\n        /* \"@openzeppelin/contracts/access/AccessControl.sol\":4387:4532  function grantRole(bytes32 role, address account) public virtual override onlyRole(getRoleAdmin(role)) {... */\n    tag_4:\n      callvalue\n      dup1\n      iszero\n      tag_28\n      jumpi\n      0x00\n      dup1\n      revert\n    tag_28:\n      pop\n      tag_29\n      0x04\n      dup1\n      calldatasize\n      sub\n      dup2\n      add\n      swap1\n      tag_30\n      swap2\n      swap1\n      tag_31\n      jump\t// in\n    tag_30:\n      tag_32\n      jump\t// in\n    tag_29:\n      stop\n        /* \"Marketplace.sol\":990:1327  function buyMarketItem(uint256 _itemId) public payable {\r... */\n    tag_5:\n      tag_33\n      0x04\n      dup1\n      calldatasize\n      sub\n      dup2\n      add\n      swap1\n      tag_34\n      swap2\n      swap1\n      tag_35\n      jump\t// in\n    tag_34:\n      tag_36\n      jump\t// in\n    tag_33:\n      stop\n        /* \"@openzeppelin/contracts/access/AccessControl.sol\":5404:5618  function renounceRole(bytes32 role, address account) public virtual override {... */\n    tag_6:\n      callvalue\n      dup1\n      iszero\n      tag_37\n      jumpi\n      0x00\n      dup1\n      revert\n    tag_37:\n      pop\n      tag_38\n      0x04\n      dup1\n      calldatasize\n      sub\n      dup2\n      add\n      swap1\n      tag_39\n      swap2\n      swap1\n      tag_31\n      jump\t// in\n    tag_39:\n      tag_40\n      jump\t// in\n    tag_38:\n      stop\n        /* \"Marketplace.sol\":249:278  uint256 public nextItemId = 0 */\n    tag_7:\n      callvalue\n      dup1\n      iszero\n      tag_41\n      jumpi\n      0x00\n      dup1\n      revert\n    tag_41:\n      pop\n      tag_42\n      tag_43\n      jump\t// in\n    tag_42:\n      mload(0x40)\n      tag_44\n      swap2\n      swap1\n      tag_45\n      jump\t// in\n    tag_44:\n      mload(0x40)\n      dup1\n      swap2\n      sub\n      swap1\n      return\n        /* \"@openzeppelin/contracts/access/AccessControl.sol\":2909:3054  function hasRole(bytes32 role, address account) public view virtual override returns (bool) {... */\n    tag_8:\n      callvalue\n      dup1\n      iszero\n      tag_46\n      jumpi\n      0x00\n      dup1\n      revert\n    tag_46:\n      pop\n      tag_47\n      0x04\n      dup1\n      calldatasize\n      sub\n      dup2\n      add\n      swap1\n      tag_48\n      swap2\n      swap1\n      tag_31\n      jump\t// in\n    tag_48:\n      tag_49\n      jump\t// in\n    tag_47:\n      mload(0x40)\n      tag_50\n      swap2\n      swap1\n      tag_20\n      jump\t// in\n    tag_50:\n      mload(0x40)\n      dup1\n      swap2\n      sub\n      swap1\n      return\n        /* \"@openzeppelin/contracts/access/AccessControl.sol\":2027:2076  bytes32 public constant DEFAULT_ADMIN_ROLE = 0x00 */\n    tag_9:\n      callvalue\n      dup1\n      iszero\n      tag_51\n      jumpi\n      0x00\n      dup1\n      revert\n    tag_51:\n      pop\n      tag_52\n      tag_53\n      jump\t// in\n    tag_52:\n      mload(0x40)\n      tag_54\n      swap2\n      swap1\n      tag_27\n      jump\t// in\n    tag_54:\n      mload(0x40)\n      dup1\n      swap2\n      sub\n      swap1\n      return\n        /* \"Marketplace.sol\":168:242  bytes32 public constant MARKETPLACE_OWNER = keccak256(\"MARKETPLACE_OWNER\") */\n    tag_10:\n      callvalue\n      dup1\n      iszero\n      tag_55\n      jumpi\n      0x00\n      dup1\n      revert\n    tag_55:\n      pop\n      tag_56\n      tag_57\n      jump\t// in\n    tag_56:\n      mload(0x40)\n      tag_58\n      swap2\n      swap1\n      tag_27\n      jump\t// in\n    tag_58:\n      mload(0x40)\n      dup1\n      swap2\n      sub\n      swap1\n      return\n        /* \"@openzeppelin/contracts/access/AccessControl.sol\":4766:4913  function revokeRole(bytes32 role, address account) public virtual override onlyRole(getRoleAdmin(role)) {... */\n    tag_11:\n      callvalue\n      dup1\n      iszero\n      tag_59\n      jumpi\n      0x00\n      dup1\n      revert\n    tag_59:\n      pop\n      tag_60\n      0x04\n      dup1\n      calldatasize\n      sub\n      dup2\n      add\n      swap1\n      tag_61\n      swap2\n      swap1\n      tag_31\n      jump\t// in\n    tag_61:\n      tag_62\n      jump\t// in\n    tag_60:\n      stop\n        /* \"Marketplace.sol\":571:982  function createMarketItem(address payable _seller, uint256 _price) public {\r... */\n    tag_12:\n      callvalue\n      dup1\n      iszero\n      tag_63\n      jumpi\n      0x00\n      dup1\n      revert\n    tag_63:\n      pop\n      tag_64\n      0x04\n      dup1\n      calldatasize\n      sub\n      dup2\n      add\n      swap1\n      tag_65\n      swap2\n      swap1\n      tag_66\n      jump\t// in\n    tag_65:\n      tag_67\n      jump\t// in\n    tag_64:\n      stop\n        /* \"@openzeppelin/contracts/access/AccessControl.sol\":2620:2822  function supportsInterface(bytes4 interfaceId) public view virtual override returns (bool) {... */\n    tag_18:\n        /* \"@openzeppelin/contracts/access/AccessControl.sol\":2705:2709  bool */\n      0x00\n        /* \"@openzeppelin/contracts/access/AccessControl.sol\":2743:2775  type(IAccessControl).interfaceId */\n      0x7965db0b00000000000000000000000000000000000000000000000000000000\n        /* \"@openzeppelin/contracts/access/AccessControl.sol\":2728:2775  interfaceId == type(IAccessControl).interfaceId */\n      not(0xffffffffffffffffffffffffffffffffffffffffffffffffffffffff)\n      and\n        /* \"@openzeppelin/contracts/access/AccessControl.sol\":2728:2739  interfaceId */\n      dup3\n        /* \"@openzeppelin/contracts/access/AccessControl.sol\":2728:2775  interfaceId == type(IAccessControl).interfaceId */\n      not(0xffffffffffffffffffffffffffffffffffffffffffffffffffffffff)\n      and\n      eq\n        /* \"@openzeppelin/contracts/access/AccessControl.sol\":2728:2815  interfaceId == type(IAccessControl).interfaceId || super.supportsInterface(interfaceId) */\n      dup1\n      tag_69\n      jumpi\n      pop\n        /* \"@openzeppelin/contracts/access/AccessControl.sol\":2779:2815  super.supportsInterface(interfaceId) */\n      tag_70\n        /* \"@openzeppelin/contracts/access/AccessControl.sol\":2803:2814  interfaceId */\n      dup3\n        /* \"@openzeppelin/contracts/access/AccessControl.sol\":2779:2802  super.supportsInterface */\n      tag_71\n        /* \"@openzeppelin/contracts/access/AccessControl.sol\":2779:2815  super.supportsInterface(interfaceId) */\n      jump\t// in\n    tag_70:\n        /* \"@openzeppelin/contracts/access/AccessControl.sol\":2728:2815  interfaceId == type(IAccessControl).interfaceId || super.supportsInterface(interfaceId) */\n    tag_69:\n        /* \"@openzeppelin/contracts/access/AccessControl.sol\":2721:2815  return interfaceId == type(IAccessControl).interfaceId || super.supportsInterface(interfaceId) */\n      swap1\n      pop\n        /* \"@openzeppelin/contracts/access/AccessControl.sol\":2620:2822  function supportsInterface(bytes4 interfaceId) public view virtual override returns (bool) {... */\n      swap2\n      swap1\n      pop\n      jump\t// out\n        /* \"@openzeppelin/contracts/access/AccessControl.sol\":4008:4137  function getRoleAdmin(bytes32 role) public view virtual override returns (bytes32) {... */\n    tag_25:\n        /* \"@openzeppelin/contracts/access/AccessControl.sol\":4082:4089  bytes32 */\n      0x00\n        /* \"@openzeppelin/contracts/access/AccessControl.sol\":4108:4114  _roles */\n      dup1\n        /* \"@openzeppelin/contracts/access/AccessControl.sol\":4108:4120  _roles[role] */\n      0x00\n        /* \"@openzeppelin/contracts/access/AccessControl.sol\":4115:4119  role */\n      dup4\n        /* \"@openzeppelin/contracts/access/AccessControl.sol\":4108:4120  _roles[role] */\n      dup2\n      mstore\n      0x20\n      add\n      swap1\n      dup2\n      mstore\n      0x20\n      add\n      0x00\n      keccak256\n        /* \"@openzeppelin/contracts/access/AccessControl.sol\":4108:4130  _roles[role].adminRole */\n      0x01\n      add\n      sload\n        /* \"@openzeppelin/contracts/access/AccessControl.sol\":4101:4130  return _roles[role].adminRole */\n      swap1\n      pop\n        /* \"@openzeppelin/contracts/access/AccessControl.sol\":4008:4137  function getRoleAdmin(bytes32 role) public view virtual override returns (bytes32) {... */\n      swap2\n      swap1\n      pop\n      jump\t// out\n        /* \"@openzeppelin/contracts/access/AccessControl.sol\":4387:4532  function grantRole(bytes32 role, address account) public virtual override onlyRole(getRoleAdmin(role)) {... */\n    tag_32:\n        /* \"@openzeppelin/contracts/access/AccessControl.sol\":4470:4488  getRoleAdmin(role) */\n      tag_73\n        /* \"@openzeppelin/contracts/access/AccessControl.sol\":4483:4487  role */\n      dup3\n        /* \"@openzeppelin/contracts/access/AccessControl.sol\":4470:4482  getRoleAdmin */\n      tag_25\n        /* \"@openzeppelin/contracts/access/AccessControl.sol\":4470:4488  getRoleAdmin(role) */\n      jump\t// in\n    tag_73:\n        /* \"@openzeppelin/contracts/access/AccessControl.sol\":2505:2535  _checkRole(role, _msgSender()) */\n      tag_75\n        /* \"@openzeppelin/contracts/access/AccessControl.sol\":2516:2520  role */\n      dup2\n        /* \"@openzeppelin/contracts/access/AccessControl.sol\":2522:2534  _msgSender() */\n      tag_76\n        /* \"@openzeppelin/contracts/access/AccessControl.sol\":2522:2532  _msgSender */\n      tag_77\n        /* \"@openzeppelin/contracts/access/AccessControl.sol\":2522:2534  _msgSender() */\n      jump\t// in\n    tag_76:\n        /* \"@openzeppelin/contracts/access/AccessControl.sol\":2505:2515  _checkRole */\n      tag_78\n        /* \"@openzeppelin/contracts/access/AccessControl.sol\":2505:2535  _checkRole(role, _msgSender()) */\n      jump\t// in\n    tag_75:\n        /* \"@openzeppelin/contracts/access/AccessControl.sol\":4500:4525  _grantRole(role, account) */\n      tag_80\n        /* \"@openzeppelin/contracts/access/AccessControl.sol\":4511:4515  role */\n      dup4\n        /* \"@openzeppelin/contracts/access/AccessControl.sol\":4517:4524  account */\n      dup4\n        /* \"@openzeppelin/contracts/access/AccessControl.sol\":4500:4510  _grantRole */\n      tag_81\n        /* \"@openzeppelin/contracts/access/AccessControl.sol\":4500:4525  _grantRole(role, account) */\n      jump\t// in\n    tag_80:\n        /* \"@openzeppelin/contracts/access/AccessControl.sol\":4387:4532  function grantRole(bytes32 role, address account) public virtual override onlyRole(getRoleAdmin(role)) {... */\n      pop\n      pop\n      pop\n      jump\t// out\n        /* \"Marketplace.sol\":990:1327  function buyMarketItem(uint256 _itemId) public payable {\r... */\n    tag_36:\n        /* \"Marketplace.sol\":1096:1101  false */\n      0x00\n        /* \"Marketplace.sol\":1064:1101  idToMarketItem[_itemId].sold == false */\n      iszero\n      iszero\n        /* \"Marketplace.sol\":1064:1078  idToMarketItem */\n      0x02\n        /* \"Marketplace.sol\":1064:1087  idToMarketItem[_itemId] */\n      0x00\n        /* \"Marketplace.sol\":1079:1086  _itemId */\n      dup4\n        /* \"Marketplace.sol\":1064:1087  idToMarketItem[_itemId] */\n      dup2\n      mstore\n      0x20\n      add\n      swap1\n      dup2\n      mstore\n      0x20\n      add\n      0x00\n      keccak256\n        /* \"Marketplace.sol\":1064:1092  idToMarketItem[_itemId].sold */\n      0x03\n      add\n      0x00\n      swap1\n      sload\n      swap1\n      0x0100\n      exp\n      swap1\n      div\n      0xff\n      and\n        /* \"Marketplace.sol\":1064:1101  idToMarketItem[_itemId].sold == false */\n      iszero\n      iszero\n      eq\n        /* \"Marketplace.sol\":1056:1126  require(idToMarketItem[_itemId].sold == false, \"Item is already sold\") */\n      tag_83\n      jumpi\n      mload(0x40)\n      0x08c379a000000000000000000000000000000000000000000000000000000000\n      dup2\n      mstore\n      0x04\n      add\n      tag_84\n      swap1\n      tag_85\n      jump\t// in\n    tag_84:\n      mload(0x40)\n      dup1\n      swap2\n      sub\n      swap1\n      revert\n    tag_83:\n        /* \"Marketplace.sol\":1178:1187  msg.value */\n      callvalue\n        /* \"Marketplace.sol\":1145:1159  idToMarketItem */\n      0x02\n        /* \"Marketplace.sol\":1145:1168  idToMarketItem[_itemId] */\n      0x00\n        /* \"Marketplace.sol\":1160:1167  _itemId */\n      dup4\n        /* \"Marketplace.sol\":1145:1168  idToMarketItem[_itemId] */\n      dup2\n      mstore\n      0x20\n      add\n      swap1\n      dup2\n      mstore\n      0x20\n      add\n      0x00\n      keccak256\n        /* \"Marketplace.sol\":1145:1174  idToMarketItem[_itemId].price */\n      0x02\n      add\n      sload\n        /* \"Marketplace.sol\":1145:1187  idToMarketItem[_itemId].price == msg.value */\n      eq\n        /* \"Marketplace.sol\":1137:1212  require(idToMarketItem[_itemId].price == msg.value, \"Price does not match\") */\n      tag_86\n      jumpi\n      mload(0x40)\n      0x08c379a000000000000000000000000000000000000000000000000000000000\n      dup2\n      mstore\n      0x04\n      add\n      tag_87\n      swap1\n      tag_88\n      jump\t// in\n    tag_87:\n      mload(0x40)\n      dup1\n      swap2\n      sub\n      swap1\n      revert\n    tag_86:\n        /* \"Marketplace.sol\":1254:1258  true */\n      0x01\n        /* \"Marketplace.sol\":1223:1237  idToMarketItem */\n      0x02\n        /* \"Marketplace.sol\":1223:1246  idToMarketItem[_itemId] */\n      0x00\n        /* \"Marketplace.sol\":1238:1245  _itemId */\n      dup4\n        /* \"Marketplace.sol\":1223:1246  idToMarketItem[_itemId] */\n      dup2\n      mstore\n      0x20\n      add\n      swap1\n      dup2\n      mstore\n      0x20\n      add\n      0x00\n      keccak256\n        /* \"Marketplace.sol\":1223:1251  idToMarketItem[_itemId].sold */\n      0x03\n      add\n      0x00\n        /* \"Marketplace.sol\":1223:1258  idToMarketItem[_itemId].sold = true */\n      0x0100\n      exp\n      dup2\n      sload\n      dup2\n      0xff\n      mul\n      not\n      and\n      swap1\n      dup4\n      iszero\n      iszero\n      mul\n      or\n      swap1\n      sstore\n      pop\n        /* \"Marketplace.sol\":1269:1283  idToMarketItem */\n      0x02\n        /* \"Marketplace.sol\":1269:1292  idToMarketItem[_itemId] */\n      0x00\n        /* \"Marketplace.sol\":1284:1291  _itemId */\n      dup3\n        /* \"Marketplace.sol\":1269:1292  idToMarketItem[_itemId] */\n      dup2\n      mstore\n      0x20\n      add\n      swap1\n      dup2\n      mstore\n      0x20\n      add\n      0x00\n      keccak256\n        /* \"Marketplace.sol\":1269:1299  idToMarketItem[_itemId].seller */\n      0x01\n      add\n      0x00\n      swap1\n      sload\n      swap1\n      0x0100\n      exp\n      swap1\n      div\n      0xffffffffffffffffffffffffffffffffffffffff\n      and\n        /* \"Marketplace.sol\":1269:1308  idToMarketItem[_itemId].seller.transfer */\n      0xffffffffffffffffffffffffffffffffffffffff\n      and\n        /* \"Marketplace.sol\":1269:1319  idToMarketItem[_itemId].seller.transfer(msg.value) */\n      0x08fc\n        /* \"Marketplace.sol\":1309:1318  msg.value */\n      callvalue\n        /* \"Marketplace.sol\":1269:1319  idToMarketItem[_itemId].seller.transfer(msg.value) */\n      swap1\n      dup2\n      iszero\n      mul\n      swap1\n      mload(0x40)\n      0x00\n      mload(0x40)\n      dup1\n      dup4\n      sub\n      dup2\n      dup6\n      dup9\n      dup9\n      call\n      swap4\n      pop\n      pop\n      pop\n      pop\n      iszero\n      dup1\n      iszero\n      tag_90\n      jumpi\n      returndatasize\n      0x00\n      dup1\n      returndatacopy\n      revert(0x00, returndatasize)\n    tag_90:\n      pop\n        /* \"Marketplace.sol\":990:1327  function buyMarketItem(uint256 _itemId) public payable {\r... */\n      pop\n      jump\t// out\n        /* \"@openzeppelin/contracts/access/AccessControl.sol\":5404:5618  function renounceRole(bytes32 role, address account) public virtual override {... */\n    tag_40:\n        /* \"@openzeppelin/contracts/access/AccessControl.sol\":5510:5522  _msgSender() */\n      tag_92\n        /* \"@openzeppelin/contracts/access/AccessControl.sol\":5510:5520  _msgSender */\n      tag_77\n        /* \"@openzeppelin/contracts/access/AccessControl.sol\":5510:5522  _msgSender() */\n      jump\t// in\n    tag_92:\n        /* \"@openzeppelin/contracts/access/AccessControl.sol\":5499:5522  account == _msgSender() */\n      0xffffffffffffffffffffffffffffffffffffffff\n      and\n        /* \"@openzeppelin/contracts/access/AccessControl.sol\":5499:5506  account */\n      dup2\n        /* \"@openzeppelin/contracts/access/AccessControl.sol\":5499:5522  account == _msgSender() */\n      0xffffffffffffffffffffffffffffffffffffffff\n      and\n      eq\n        /* \"@openzeppelin/contracts/access/AccessControl.sol\":5491:5574  require(account == _msgSender(), \"AccessControl: can only renounce roles for self\") */\n      tag_93\n      jumpi\n      mload(0x40)\n      0x08c379a000000000000000000000000000000000000000000000000000000000\n      dup2\n      mstore\n      0x04\n      add\n      tag_94\n      swap1\n      tag_95\n      jump\t// in\n    tag_94:\n      mload(0x40)\n      dup1\n      swap2\n      sub\n      swap1\n      revert\n    tag_93:\n        /* \"@openzeppelin/contracts/access/AccessControl.sol\":5585:5611  _revokeRole(role, account) */\n      tag_96\n        /* \"@openzeppelin/contracts/access/AccessControl.sol\":5597:5601  role */\n      dup3\n        /* \"@openzeppelin/contracts/access/AccessControl.sol\":5603:5610  account */\n      dup3\n        /* \"@openzeppelin/contracts/access/AccessControl.sol\":5585:5596  _revokeRole */\n      tag_97\n        /* \"@openzeppelin/contracts/access/AccessControl.sol\":5585:5611  _revokeRole(role, account) */\n      jump\t// in\n    tag_96:\n        /* \"@openzeppelin/contracts/access/AccessControl.sol\":5404:5618  function renounceRole(bytes32 role, address account) public virtual override {... */\n      pop\n      pop\n      jump\t// out\n        /* \"Marketplace.sol\":249:278  uint256 public nextItemId = 0 */\n    tag_43:\n      sload(0x01)\n      dup2\n      jump\t// out\n        /* \"@openzeppelin/contracts/access/AccessControl.sol\":2909:3054  function hasRole(bytes32 role, address account) public view virtual override returns (bool) {... */\n    tag_49:\n        /* \"@openzeppelin/contracts/access/AccessControl.sol\":2995:2999  bool */\n      0x00\n        /* \"@openzeppelin/contracts/access/AccessControl.sol\":3018:3024  _roles */\n      dup1\n        /* \"@openzeppelin/contracts/access/AccessControl.sol\":3018:3030  _roles[role] */\n      0x00\n        /* \"@openzeppelin/contracts/access/AccessControl.sol\":3025:3029  role */\n      dup5\n        /* \"@openzeppelin/contracts/access/AccessControl.sol\":3018:3030  _roles[role] */\n      dup2\n      mstore\n      0x20\n      add\n      swap1\n      dup2\n      mstore\n      0x20\n      add\n      0x00\n      keccak256\n        /* \"@openzeppelin/contracts/access/AccessControl.sol\":3018:3038  _roles[role].members */\n      0x00\n      add\n        /* \"@openzeppelin/contracts/access/AccessControl.sol\":3018:3047  _roles[role].members[account] */\n      0x00\n        /* \"@openzeppelin/contracts/access/AccessControl.sol\":3039:3046  account */\n      dup4\n        /* \"@openzeppelin/contracts/access/AccessControl.sol\":3018:3047  _roles[role].members[account] */\n      0xffffffffffffffffffffffffffffffffffffffff\n      and\n      0xffffffffffffffffffffffffffffffffffffffff\n      and\n      dup2\n      mstore\n      0x20\n      add\n      swap1\n      dup2\n      mstore\n      0x20\n      add\n      0x00\n      keccak256\n      0x00\n      swap1\n      sload\n      swap1\n      0x0100\n      exp\n      swap1\n      div\n      0xff\n      and\n        /* \"@openzeppelin/contracts/access/AccessControl.sol\":3011:3047  return _roles[role].members[account] */\n      swap1\n      pop\n        /* \"@openzeppelin/contracts/access/AccessControl.sol\":2909:3054  function hasRole(bytes32 role, address account) public view virtual override returns (bool) {... */\n      swap3\n      swap2\n      pop\n      pop\n      jump\t// out\n        /* \"@openzeppelin/contracts/access/AccessControl.sol\":2027:2076  bytes32 public constant DEFAULT_ADMIN_ROLE = 0x00 */\n    tag_53:\n        /* \"@openzeppelin/contracts/access/AccessControl.sol\":2072:2076  0x00 */\n      0x00\n        /* \"@openzeppelin/contracts/access/AccessControl.sol\":2027:2076  bytes32 public constant DEFAULT_ADMIN_ROLE = 0x00 */\n      dup1\n      shl\n      dup2\n      jump\t// out\n        /* \"Marketplace.sol\":168:242  bytes32 public constant MARKETPLACE_OWNER = keccak256(\"MARKETPLACE_OWNER\") */\n    tag_57:\n        /* \"Marketplace.sol\":212:242  keccak256(\"MARKETPLACE_OWNER\") */\n      0x1f9ca85e780b3b3cfbe1334ca9dd68802db7860f692bd163c796bb76d464edc0\n        /* \"Marketplace.sol\":168:242  bytes32 public constant MARKETPLACE_OWNER = keccak256(\"MARKETPLACE_OWNER\") */\n      dup2\n      jump\t// out\n        /* \"@openzeppelin/contracts/access/AccessControl.sol\":4766:4913  function revokeRole(bytes32 role, address account) public virtual override onlyRole(getRoleAdmin(role)) {... */\n    tag_62:\n        /* \"@openzeppelin/contracts/access/AccessControl.sol\":4850:4868  getRoleAdmin(role) */\n      tag_99\n        /* \"@openzeppelin/contracts/access/AccessControl.sol\":4863:4867  role */\n      dup3\n        /* \"@openzeppelin/contracts/access/AccessControl.sol\":4850:4862  getRoleAdmin */\n      tag_25\n        /* \"@openzeppelin/contracts/access/AccessControl.sol\":4850:4868  getRoleAdmin(role) */\n      jump\t// in\n    tag_99:\n        /* \"@openzeppelin/contracts/access/AccessControl.sol\":2505:2535  _checkRole(role, _msgSender()) */\n      tag_101\n        /* \"@openzeppelin/contracts/access/AccessControl.sol\":2516:2520  role */\n      dup2\n        /* \"@openzeppelin/contracts/access/AccessControl.sol\":2522:2534  _msgSender() */\n      tag_102\n        /* \"@openzeppelin/contracts/access/AccessControl.sol\":2522:2532  _msgSender */\n      tag_77\n        /* \"@openzeppelin/contracts/access/AccessControl.sol\":2522:2534  _msgSender() */\n      jump\t// in\n    tag_102:\n        /* \"@openzeppelin/contracts/access/AccessControl.sol\":2505:2515  _checkRole */\n      tag_78\n        /* \"@openzeppelin/contracts/access/AccessControl.sol\":2505:2535  _checkRole(role, _msgSender()) */\n      jump\t// in\n    tag_101:\n        /* \"@openzeppelin/contracts/access/AccessControl.sol\":4880:4906  _revokeRole(role, account) */\n      tag_104\n        /* \"@openzeppelin/contracts/access/AccessControl.sol\":4892:4896  role */\n      dup4\n        /* \"@openzeppelin/contracts/access/AccessControl.sol\":4898:4905  account */\n      dup4\n        /* \"@openzeppelin/contracts/access/AccessControl.sol\":4880:4891  _revokeRole */\n      tag_97\n        /* \"@openzeppelin/contracts/access/AccessControl.sol\":4880:4906  _revokeRole(role, account) */\n      jump\t// in\n    tag_104:\n        /* \"@openzeppelin/contracts/access/AccessControl.sol\":4766:4913  function revokeRole(bytes32 role, address account) public virtual override onlyRole(getRoleAdmin(role)) {... */\n      pop\n      pop\n      pop\n      jump\t// out\n        /* \"Marketplace.sol\":571:982  function createMarketItem(address payable _seller, uint256 _price) public {\r... */\n    tag_67:\n        /* \"Marketplace.sol\":678:685  _seller */\n      dup2\n        /* \"Marketplace.sol\":664:685  msg.sender == _seller */\n      0xffffffffffffffffffffffffffffffffffffffff\n      and\n        /* \"Marketplace.sol\":664:674  msg.sender */\n      caller\n        /* \"Marketplace.sol\":664:685  msg.sender == _seller */\n      0xffffffffffffffffffffffffffffffffffffffff\n      and\n      eq\n        /* \"Marketplace.sol\":656:730  require(msg.sender == _seller, \"Only the seller can create a market item\") */\n      tag_106\n      jumpi\n      mload(0x40)\n      0x08c379a000000000000000000000000000000000000000000000000000000000\n      dup2\n      mstore\n      0x04\n      add\n      tag_107\n      swap1\n      tag_108\n      jump\t// in\n    tag_107:\n      mload(0x40)\n      dup1\n      swap2\n      sub\n      swap1\n      revert\n    tag_106:\n        /* \"Marketplace.sol\":758:759  0 */\n      0x00\n        /* \"Marketplace.sol\":749:755  _price */\n      dup2\n        /* \"Marketplace.sol\":749:759  _price > 0 */\n      gt\n        /* \"Marketplace.sol\":741:792  require(_price > 0, \"Price must be greater than 0\") */\n      tag_109\n      jumpi\n      mload(0x40)\n      0x08c379a000000000000000000000000000000000000000000000000000000000\n      dup2\n      mstore\n      0x04\n      add\n      tag_110\n      swap1\n      tag_111\n      jump\t// in\n    tag_110:\n      mload(0x40)\n      dup1\n      swap2\n      sub\n      swap1\n      revert\n    tag_109:\n        /* \"Marketplace.sol\":812:826  idToMarketItem */\n      0x02\n        /* \"Marketplace.sol\":812:838  idToMarketItem[nextItemId] */\n      0x00\n        /* \"Marketplace.sol\":827:837  nextItemId */\n      sload(0x01)\n        /* \"Marketplace.sol\":812:838  idToMarketItem[nextItemId] */\n      dup2\n      mstore\n      0x20\n      add\n      swap1\n      dup2\n      mstore\n      0x20\n      add\n      0x00\n      keccak256\n        /* \"Marketplace.sol\":812:843  idToMarketItem[nextItemId].sold */\n      0x03\n      add\n      0x00\n      swap1\n      sload\n      swap1\n      0x0100\n      exp\n      swap1\n      div\n      0xff\n      and\n        /* \"Marketplace.sol\":811:843  !idToMarketItem[nextItemId].sold */\n      iszero\n        /* \"Marketplace.sol\":803:865  require(!idToMarketItem[nextItemId].sold, \"Item already sold\") */\n      tag_112\n      jumpi\n      mload(0x40)\n      0x08c379a000000000000000000000000000000000000000000000000000000000\n      dup2\n      mstore\n      0x04\n      add\n      tag_113\n      swap1\n      tag_114\n      jump\t// in\n    tag_113:\n      mload(0x40)\n      dup1\n      swap2\n      sub\n      swap1\n      revert\n    tag_112:\n        /* \"Marketplace.sol\":905:951  MarketItem(nextItemId, _seller, _price, false) */\n      mload(0x40)\n      dup1\n      0x80\n      add\n      0x40\n      mstore\n      dup1\n        /* \"Marketplace.sol\":916:926  nextItemId */\n      sload(0x01)\n        /* \"Marketplace.sol\":905:951  MarketItem(nextItemId, _seller, _price, false) */\n      dup2\n      mstore\n      0x20\n      add\n        /* \"Marketplace.sol\":928:935  _seller */\n      dup4\n        /* \"Marketplace.sol\":905:951  MarketItem(nextItemId, _seller, _price, false) */\n      0xffffffffffffffffffffffffffffffffffffffff\n      and\n      dup2\n      mstore\n      0x20\n      add\n        /* \"Marketplace.sol\":937:943  _price */\n      dup3\n        /* \"Marketplace.sol\":905:951  MarketItem(nextItemId, _seller, _price, false) */\n      dup2\n      mstore\n      0x20\n      add\n        /* \"Marketplace.sol\":945:950  false */\n      0x00\n        /* \"Marketplace.sol\":905:951  MarketItem(nextItemId, _seller, _price, false) */\n      iszero\n      iszero\n      dup2\n      mstore\n      pop\n        /* \"Marketplace.sol\":876:890  idToMarketItem */\n      0x02\n        /* \"Marketplace.sol\":876:902  idToMarketItem[nextItemId] */\n      0x00\n        /* \"Marketplace.sol\":891:901  nextItemId */\n      sload(0x01)\n        /* \"Marketplace.sol\":876:902  idToMarketItem[nextItemId] */\n      dup2\n      mstore\n      0x20\n      add\n      swap1\n      dup2\n      mstore\n      0x20\n      add\n      0x00\n      keccak256\n        /* \"Marketplace.sol\":876:951  idToMarketItem[nextItemId] = MarketItem(nextItemId, _seller, _price, false) */\n      0x00\n      dup3\n      add\n      mload\n      dup2\n      0x00\n      add\n      sstore\n      0x20\n      dup3\n      add\n      mload\n      dup2\n      0x01\n      add\n      exp(0x0100, 0x00)\n      dup2\n      sload\n      dup2\n      0xffffffffffffffffffffffffffffffffffffffff\n      mul\n      not\n      and\n      swap1\n      dup4\n      0xffffffffffffffffffffffffffffffffffffffff\n      and\n      mul\n      or\n      swap1\n      sstore\n      pop\n      0x40\n      dup3\n      add\n      mload\n      dup2\n      0x02\n      add\n      sstore\n      0x60\n      dup3\n      add\n      mload\n      dup2\n      0x03\n      add\n      exp(0x0100, 0x00)\n      dup2\n      sload\n      dup2\n      0xff\n      mul\n      not\n      and\n      swap1\n      dup4\n      iszero\n      iszero\n      mul\n      or\n      swap1\n      sstore\n      pop\n      swap1\n      pop\n      pop\n        /* \"Marketplace.sol\":962:972  nextItemId */\n      0x01\n      0x00\n        /* \"Marketplace.sol\":962:974  nextItemId++ */\n      dup2\n      sload\n      dup1\n      swap3\n      swap2\n      swap1\n      tag_115\n      swap1\n      tag_116\n      jump\t// in\n    tag_115:\n      swap2\n      swap1\n      pop\n      sstore\n      pop\n        /* \"Marketplace.sol\":571:982  function createMarketItem(address payable _seller, uint256 _price) public {\r... */\n      pop\n      pop\n      jump\t// out\n        /* \"@openzeppelin/contracts/utils/introspection/ERC165.sol\":829:984  function supportsInterface(bytes4 interfaceId) public view virtual override returns (bool) {... */\n    tag_71:\n        /* \"@openzeppelin/contracts/utils/introspection/ERC165.sol\":914:918  bool */\n      0x00\n        /* \"@openzeppelin/contracts/utils/introspection/ERC165.sol\":952:977  type(IERC165).interfaceId */\n      0x01ffc9a700000000000000000000000000000000000000000000000000000000\n        /* \"@openzeppelin/contracts/utils/introspection/ERC165.sol\":937:977  interfaceId == type(IERC165).interfaceId */\n      not(0xffffffffffffffffffffffffffffffffffffffffffffffffffffffff)\n      and\n        /* \"@openzeppelin/contracts/utils/introspection/ERC165.sol\":937:948  interfaceId */\n      dup3\n        /* \"@openzeppelin/contracts/utils/introspection/ERC165.sol\":937:977  interfaceId == type(IERC165).interfaceId */\n      not(0xffffffffffffffffffffffffffffffffffffffffffffffffffffffff)\n      and\n      eq\n        /* \"@openzeppelin/contracts/utils/introspection/ERC165.sol\":930:977  return interfaceId == type(IERC165).interfaceId */\n      swap1\n      pop\n        /* \"@openzeppelin/contracts/utils/introspection/ERC165.sol\":829:984  function supportsInterface(bytes4 interfaceId) public view virtual override returns (bool) {... */\n      swap2\n      swap1\n      pop\n      jump\t// out\n        /* \"@openzeppelin/contracts/utils/Context.sol\":640:736  function _msgSender() internal view virtual returns (address) {... */\n    tag_77:\n        /* \"@openzeppelin/contracts/utils/Context.sol\":693:700  address */\n      0x00\n        /* \"@openzeppelin/contracts/utils/Context.sol\":719:729  msg.sender */\n      caller\n        /* \"@openzeppelin/contracts/utils/Context.sol\":712:729  return msg.sender */\n      swap1\n      pop\n        /* \"@openzeppelin/contracts/utils/Context.sol\":640:736  function _msgSender() internal view virtual returns (address) {... */\n      swap1\n      jump\t// out\n        /* \"@openzeppelin/contracts/access/AccessControl.sol\":3335:3827  function _checkRole(bytes32 role, address account) internal view virtual {... */\n    tag_78:\n        /* \"@openzeppelin/contracts/access/AccessControl.sol\":3423:3445  hasRole(role, account) */\n      tag_120\n        /* \"@openzeppelin/contracts/access/AccessControl.sol\":3431:3435  role */\n      dup3\n        /* \"@openzeppelin/contracts/access/AccessControl.sol\":3437:3444  account */\n      dup3\n        /* \"@openzeppelin/contracts/access/AccessControl.sol\":3423:3430  hasRole */\n      tag_49\n        /* \"@openzeppelin/contracts/access/AccessControl.sol\":3423:3445  hasRole(role, account) */\n      jump\t// in\n    tag_120:\n        /* \"@openzeppelin/contracts/access/AccessControl.sol\":3418:3821  if (!hasRole(role, account)) {... */\n      tag_121\n      jumpi\n        /* \"@openzeppelin/contracts/access/AccessControl.sol\":3606:3647  Strings.toHexString(uint160(account), 20) */\n      tag_122\n        /* \"@openzeppelin/contracts/access/AccessControl.sol\":3634:3641  account */\n      dup2\n        /* \"@openzeppelin/contracts/access/AccessControl.sol\":3606:3647  Strings.toHexString(uint160(account), 20) */\n      0xffffffffffffffffffffffffffffffffffffffff\n      and\n        /* \"@openzeppelin/contracts/access/AccessControl.sol\":3644:3646  20 */\n      0x14\n        /* \"@openzeppelin/contracts/access/AccessControl.sol\":3606:3625  Strings.toHexString */\n      tag_123\n        /* \"@openzeppelin/contracts/access/AccessControl.sol\":3606:3647  Strings.toHexString(uint160(account), 20) */\n      jump\t// in\n    tag_122:\n        /* \"@openzeppelin/contracts/access/AccessControl.sol\":3718:3756  Strings.toHexString(uint256(role), 32) */\n      tag_124\n        /* \"@openzeppelin/contracts/access/AccessControl.sol\":3746:3750  role */\n      dup4\n        /* \"@openzeppelin/contracts/access/AccessControl.sol\":3738:3751  uint256(role) */\n      0x00\n      shr\n        /* \"@openzeppelin/contracts/access/AccessControl.sol\":3753:3755  32 */\n      0x20\n        /* \"@openzeppelin/contracts/access/AccessControl.sol\":3718:3737  Strings.toHexString */\n      tag_123\n        /* \"@openzeppelin/contracts/access/AccessControl.sol\":3718:3756  Strings.toHexString(uint256(role), 32) */\n      jump\t// in\n    tag_124:\n        /* \"@openzeppelin/contracts/access/AccessControl.sol\":3513:3778  abi.encodePacked(... */\n      add(0x20, mload(0x40))\n      tag_125\n      swap3\n      swap2\n      swap1\n      tag_126\n      jump\t// in\n    tag_125:\n      mload(0x40)\n      0x20\n      dup2\n      dup4\n      sub\n      sub\n      dup2\n      mstore\n      swap1\n      0x40\n      mstore\n        /* \"@openzeppelin/contracts/access/AccessControl.sol\":3461:3810  revert(... */\n      mload(0x40)\n      0x08c379a000000000000000000000000000000000000000000000000000000000\n      dup2\n      mstore\n      0x04\n      add\n      tag_127\n      swap2\n      swap1\n      tag_128\n      jump\t// in\n    tag_127:\n      mload(0x40)\n      dup1\n      swap2\n      sub\n      swap1\n      revert\n        /* \"@openzeppelin/contracts/access/AccessControl.sol\":3418:3821  if (!hasRole(role, account)) {... */\n    tag_121:\n        /* \"@openzeppelin/contracts/access/AccessControl.sol\":3335:3827  function _checkRole(bytes32 role, address account) internal view virtual {... */\n      pop\n      pop\n      jump\t// out\n        /* \"@openzeppelin/contracts/access/AccessControl.sol\":6861:7094  function _grantRole(bytes32 role, address account) internal virtual {... */\n    tag_81:\n        /* \"@openzeppelin/contracts/access/AccessControl.sol\":6944:6966  hasRole(role, account) */\n      tag_130\n        /* \"@openzeppelin/contracts/access/AccessControl.sol\":6952:6956  role */\n      dup3\n        /* \"@openzeppelin/contracts/access/AccessControl.sol\":6958:6965  account */\n      dup3\n        /* \"@openzeppelin/contracts/access/AccessControl.sol\":6944:6951  hasRole */\n      tag_49\n        /* \"@openzeppelin/contracts/access/AccessControl.sol\":6944:6966  hasRole(role, account) */\n      jump\t// in\n    tag_130:\n        /* \"@openzeppelin/contracts/access/AccessControl.sol\":6939:7088  if (!hasRole(role, account)) {... */\n      tag_131\n      jumpi\n        /* \"@openzeppelin/contracts/access/AccessControl.sol\":7014:7018  true */\n      0x01\n        /* \"@openzeppelin/contracts/access/AccessControl.sol\":6982:6988  _roles */\n      0x00\n        /* \"@openzeppelin/contracts/access/AccessControl.sol\":6982:6994  _roles[role] */\n      dup1\n        /* \"@openzeppelin/contracts/access/AccessControl.sol\":6989:6993  role */\n      dup5\n        /* \"@openzeppelin/contracts/access/AccessControl.sol\":6982:6994  _roles[role] */\n      dup2\n      mstore\n      0x20\n      add\n      swap1\n      dup2\n      mstore\n      0x20\n      add\n      0x00\n      keccak256\n        /* \"@openzeppelin/contracts/access/AccessControl.sol\":6982:7002  _roles[role].members */\n      0x00\n      add\n        /* \"@openzeppelin/contracts/access/AccessControl.sol\":6982:7011  _roles[role].members[account] */\n      0x00\n        /* \"@openzeppelin/contracts/access/AccessControl.sol\":7003:7010  account */\n      dup4\n        /* \"@openzeppelin/contracts/access/AccessControl.sol\":6982:7011  _roles[role].members[account] */\n      0xffffffffffffffffffffffffffffffffffffffff\n      and\n      0xffffffffffffffffffffffffffffffffffffffff\n      and\n      dup2\n      mstore\n      0x20\n      add\n      swap1\n      dup2\n      mstore\n      0x20\n      add\n      0x00\n      keccak256\n      0x00\n        /* \"@openzeppelin/contracts/access/AccessControl.sol\":6982:7018  _roles[role].members[account] = true */\n      0x0100\n      exp\n      dup2\n      sload\n      dup2\n      0xff\n      mul\n      not\n      and\n      swap1\n      dup4\n      iszero\n      iszero\n      mul\n      or\n      swap1\n      sstore\n      pop\n        /* \"@openzeppelin/contracts/access/AccessControl.sol\":7064:7076  _msgSender() */\n      tag_132\n        /* \"@openzeppelin/contracts/access/AccessControl.sol\":7064:7074  _msgSender */\n      tag_77\n        /* \"@openzeppelin/contracts/access/AccessControl.sol\":7064:7076  _msgSender() */\n      jump\t// in\n    tag_132:\n        /* \"@openzeppelin/contracts/access/AccessControl.sol\":7037:7077  RoleGranted(role, account, _msgSender()) */\n      0xffffffffffffffffffffffffffffffffffffffff\n      and\n        /* \"@openzeppelin/contracts/access/AccessControl.sol\":7055:7062  account */\n      dup2\n        /* \"@openzeppelin/contracts/access/AccessControl.sol\":7037:7077  RoleGranted(role, account, _msgSender()) */\n      0xffffffffffffffffffffffffffffffffffffffff\n      and\n        /* \"@openzeppelin/contracts/access/AccessControl.sol\":7049:7053  role */\n      dup4\n        /* \"@openzeppelin/contracts/access/AccessControl.sol\":7037:7077  RoleGranted(role, account, _msgSender()) */\n      0x2f8788117e7eff1d82e926ec794901d17c78024a50270940304540a733656f0d\n      mload(0x40)\n      mload(0x40)\n      dup1\n      swap2\n      sub\n      swap1\n      log4\n        /* \"@openzeppelin/contracts/access/AccessControl.sol\":6939:7088  if (!hasRole(role, account)) {... */\n    tag_131:\n        /* \"@openzeppelin/contracts/access/AccessControl.sol\":6861:7094  function _grantRole(bytes32 role, address account) internal virtual {... */\n      pop\n      pop\n      jump\t// out\n        /* \"@openzeppelin/contracts/access/AccessControl.sol\":7219:7453  function _revokeRole(bytes32 role, address account) internal virtual {... */\n    tag_97:\n        /* \"@openzeppelin/contracts/access/AccessControl.sol\":7302:7324  hasRole(role, account) */\n      tag_134\n        /* \"@openzeppelin/contracts/access/AccessControl.sol\":7310:7314  role */\n      dup3\n        /* \"@openzeppelin/contracts/access/AccessControl.sol\":7316:7323  account */\n      dup3\n        /* \"@openzeppelin/contracts/access/AccessControl.sol\":7302:7309  hasRole */\n      tag_49\n        /* \"@openzeppelin/contracts/access/AccessControl.sol\":7302:7324  hasRole(role, account) */\n      jump\t// in\n    tag_134:\n        /* \"@openzeppelin/contracts/access/AccessControl.sol\":7298:7447  if (hasRole(role, account)) {... */\n      iszero\n      tag_135\n      jumpi\n        /* \"@openzeppelin/contracts/access/AccessControl.sol\":7372:7377  false */\n      0x00\n        /* \"@openzeppelin/contracts/access/AccessControl.sol\":7340:7346  _roles */\n      dup1\n        /* \"@openzeppelin/contracts/access/AccessControl.sol\":7340:7352  _roles[role] */\n      0x00\n        /* \"@openzeppelin/contracts/access/AccessControl.sol\":7347:7351  role */\n      dup5\n        /* \"@openzeppelin/contracts/access/AccessControl.sol\":7340:7352  _roles[role] */\n      dup2\n      mstore\n      0x20\n      add\n      swap1\n      dup2\n      mstore\n      0x20\n      add\n      0x00\n      keccak256\n        /* \"@openzeppelin/contracts/access/AccessControl.sol\":7340:7360  _roles[role].members */\n      0x00\n      add\n        /* \"@openzeppelin/contracts/access/AccessControl.sol\":7340:7369  _roles[role].members[account] */\n      0x00\n        /* \"@openzeppelin/contracts/access/AccessControl.sol\":7361:7368  account */\n      dup4\n        /* \"@openzeppelin/contracts/access/AccessControl.sol\":7340:7369  _roles[role].members[account] */\n      0xffffffffffffffffffffffffffffffffffffffff\n      and\n      0xffffffffffffffffffffffffffffffffffffffff\n      and\n      dup2\n      mstore\n      0x20\n      add\n      swap1\n      dup2\n      mstore\n      0x20\n      add\n      0x00\n      keccak256\n      0x00\n        /* \"@openzeppelin/contracts/access/AccessControl.sol\":7340:7377  _roles[role].members[account] = false */\n      0x0100\n      exp\n      dup2\n      sload\n      dup2\n      0xff\n      mul\n      not\n      and\n      swap1\n      dup4\n      iszero\n      iszero\n      mul\n      or\n      swap1\n      sstore\n      pop\n        /* \"@openzeppelin/contracts/access/AccessControl.sol\":7423:7435  _msgSender() */\n      tag_136\n        /* \"@openzeppelin/contracts/access/AccessControl.sol\":7423:7433  _msgSender */\n      tag_77\n        /* \"@openzeppelin/contracts/access/AccessControl.sol\":7423:7435  _msgSender() */\n      jump\t// in\n    tag_136:\n        /* \"@openzeppelin/contracts/access/AccessControl.sol\":7396:7436  RoleRevoked(role, account, _msgSender()) */\n      0xffffffffffffffffffffffffffffffffffffffff\n      and\n        /* \"@openzeppelin/contracts/access/AccessControl.sol\":7414:7421  account */\n      dup2\n        /* \"@openzeppelin/contracts/access/AccessControl.sol\":7396:7436  RoleRevoked(role, account, _msgSender()) */\n      0xffffffffffffffffffffffffffffffffffffffff\n      and\n        /* \"@openzeppelin/contracts/access/AccessControl.sol\":7408:7412  role */\n      dup4\n        /* \"@openzeppelin/contracts/access/AccessControl.sol\":7396:7436  RoleRevoked(role, account, _msgSender()) */\n      0xf6391f5c32d9c69d2a47ea670b442974b53935d1edc7fd64eb21e047a839171b\n      mload(0x40)\n      mload(0x40)\n      dup1\n      swap2\n      sub\n      swap1\n      log4\n        /* \"@openzeppelin/contracts/access/AccessControl.sol\":7298:7447  if (hasRole(role, account)) {... */\n    tag_135:\n        /* \"@openzeppelin/contracts/access/AccessControl.sol\":7219:7453  function _revokeRole(bytes32 role, address account) internal virtual {... */\n      pop\n      pop\n      jump\t// out\n        /* \"@openzeppelin/contracts/utils/Strings.sol\":1588:2029  function toHexString(uint256 value, uint256 length) internal pure returns (string memory) {... */\n    tag_123:\n        /* \"@openzeppelin/contracts/utils/Strings.sol\":1663:1676  string memory */\n      0x60\n        /* \"@openzeppelin/contracts/utils/Strings.sol\":1688:1707  bytes memory buffer */\n      0x00\n        /* \"@openzeppelin/contracts/utils/Strings.sol\":1733:1734  2 */\n      0x02\n        /* \"@openzeppelin/contracts/utils/Strings.sol\":1724:1730  length */\n      dup4\n        /* \"@openzeppelin/contracts/utils/Strings.sol\":1720:1721  2 */\n      0x02\n        /* \"@openzeppelin/contracts/utils/Strings.sol\":1720:1730  2 * length */\n      tag_138\n      swap2\n      swap1\n      tag_139\n      jump\t// in\n    tag_138:\n        /* \"@openzeppelin/contracts/utils/Strings.sol\":1720:1734  2 * length + 2 */\n      tag_140\n      swap2\n      swap1\n      tag_141\n      jump\t// in\n    tag_140:\n        /* \"@openzeppelin/contracts/utils/Strings.sol\":1710:1735  new bytes(2 * length + 2) */\n      0xffffffffffffffff\n      dup2\n      gt\n      iszero\n      tag_142\n      jumpi\n      tag_143\n      tag_144\n      jump\t// in\n    tag_143:\n    tag_142:\n      mload(0x40)\n      swap1\n      dup1\n      dup3\n      mstore\n      dup1\n      0x1f\n      add\n      not(0x1f)\n      and\n      0x20\n      add\n      dup3\n      add\n      0x40\n      mstore\n      dup1\n      iszero\n      tag_145\n      jumpi\n      dup2\n      0x20\n      add\n      0x01\n      dup3\n      mul\n      dup1\n      calldatasize\n      dup4\n      calldatacopy\n      dup1\n      dup3\n      add\n      swap2\n      pop\n      pop\n      swap1\n      pop\n    tag_145:\n      pop\n        /* \"@openzeppelin/contracts/utils/Strings.sol\":1688:1735  bytes memory buffer = new bytes(2 * length + 2) */\n      swap1\n      pop\n        /* \"@openzeppelin/contracts/utils/Strings.sol\":1745:1760  buffer[0] = \"0\" */\n      0x3000000000000000000000000000000000000000000000000000000000000000\n        /* \"@openzeppelin/contracts/utils/Strings.sol\":1745:1751  buffer */\n      dup2\n        /* \"@openzeppelin/contracts/utils/Strings.sol\":1752:1753  0 */\n      0x00\n        /* \"@openzeppelin/contracts/utils/Strings.sol\":1745:1754  buffer[0] */\n      dup2\n      mload\n      dup2\n      lt\n      tag_146\n      jumpi\n      tag_147\n      tag_148\n      jump\t// in\n    tag_147:\n    tag_146:\n      0x20\n      add\n      add\n        /* \"@openzeppelin/contracts/utils/Strings.sol\":1745:1760  buffer[0] = \"0\" */\n      swap1\n      not(0xffffffffffffffffffffffffffffffffffffffffffffffffffffffffffffff)\n      and\n      swap1\n      dup2\n      0x00\n      byte\n      swap1\n      mstore8\n      pop\n        /* \"@openzeppelin/contracts/utils/Strings.sol\":1770:1785  buffer[1] = \"x\" */\n      0x7800000000000000000000000000000000000000000000000000000000000000\n        /* \"@openzeppelin/contracts/utils/Strings.sol\":1770:1776  buffer */\n      dup2\n        /* \"@openzeppelin/contracts/utils/Strings.sol\":1777:1778  1 */\n      0x01\n        /* \"@openzeppelin/contracts/utils/Strings.sol\":1770:1779  buffer[1] */\n      dup2\n      mload\n      dup2\n      lt\n      tag_149\n      jumpi\n      tag_150\n      tag_148\n      jump\t// in\n    tag_150:\n    tag_149:\n      0x20\n      add\n      add\n        /* \"@openzeppelin/contracts/utils/Strings.sol\":1770:1785  buffer[1] = \"x\" */\n      swap1\n      not(0xffffffffffffffffffffffffffffffffffffffffffffffffffffffffffffff)\n      and\n      swap1\n      dup2\n      0x00\n      byte\n      swap1\n      mstore8\n      pop\n        /* \"@openzeppelin/contracts/utils/Strings.sol\":1800:1809  uint256 i */\n      0x00\n        /* \"@openzeppelin/contracts/utils/Strings.sol\":1825:1826  1 */\n      0x01\n        /* \"@openzeppelin/contracts/utils/Strings.sol\":1816:1822  length */\n      dup5\n        /* \"@openzeppelin/contracts/utils/Strings.sol\":1812:1813  2 */\n      0x02\n        /* \"@openzeppelin/contracts/utils/Strings.sol\":1812:1822  2 * length */\n      tag_154\n      swap2\n      swap1\n      tag_139\n      jump\t// in\n    tag_154:\n        /* \"@openzeppelin/contracts/utils/Strings.sol\":1812:1826  2 * length + 1 */\n      tag_155\n      swap2\n      swap1\n      tag_141\n      jump\t// in\n    tag_155:\n        /* \"@openzeppelin/contracts/utils/Strings.sol\":1800:1826  uint256 i = 2 * length + 1 */\n      swap1\n      pop\n        /* \"@openzeppelin/contracts/utils/Strings.sol\":1795:1927  for (uint256 i = 2 * length + 1; i > 1; --i) {... */\n    tag_151:\n        /* \"@openzeppelin/contracts/utils/Strings.sol\":1832:1833  1 */\n      0x01\n        /* \"@openzeppelin/contracts/utils/Strings.sol\":1828:1829  i */\n      dup2\n        /* \"@openzeppelin/contracts/utils/Strings.sol\":1828:1833  i > 1 */\n      gt\n        /* \"@openzeppelin/contracts/utils/Strings.sol\":1795:1927  for (uint256 i = 2 * length + 1; i > 1; --i) {... */\n      iszero\n      tag_152\n      jumpi\n        /* \"@openzeppelin/contracts/utils/Strings.sol\":1866:1878  _HEX_SYMBOLS */\n      0x3031323334353637383961626364656600000000000000000000000000000000\n        /* \"@openzeppelin/contracts/utils/Strings.sol\":1887:1890  0xf */\n      0x0f\n        /* \"@openzeppelin/contracts/utils/Strings.sol\":1879:1884  value */\n      dup7\n        /* \"@openzeppelin/contracts/utils/Strings.sol\":1879:1890  value & 0xf */\n      and\n        /* \"@openzeppelin/contracts/utils/Strings.sol\":1866:1891  _HEX_SYMBOLS[value & 0xf] */\n      0x10\n      dup2\n      lt\n      tag_156\n      jumpi\n      tag_157\n      tag_148\n      jump\t// in\n    tag_157:\n    tag_156:\n      byte\n      0xf8\n      shl\n        /* \"@openzeppelin/contracts/utils/Strings.sol\":1854:1860  buffer */\n      dup3\n        /* \"@openzeppelin/contracts/utils/Strings.sol\":1861:1862  i */\n      dup3\n        /* \"@openzeppelin/contracts/utils/Strings.sol\":1854:1863  buffer[i] */\n      dup2\n      mload\n      dup2\n      lt\n      tag_158\n      jumpi\n      tag_159\n      tag_148\n      jump\t// in\n    tag_159:\n    tag_158:\n      0x20\n      add\n      add\n        /* \"@openzeppelin/contracts/utils/Strings.sol\":1854:1891  buffer[i] = _HEX_SYMBOLS[value & 0xf] */\n      swap1\n      not(0xffffffffffffffffffffffffffffffffffffffffffffffffffffffffffffff)\n      and\n      swap1\n      dup2\n      0x00\n      byte\n      swap1\n      mstore8\n      pop\n        /* \"@openzeppelin/contracts/utils/Strings.sol\":1915:1916  4 */\n      0x04\n        /* \"@openzeppelin/contracts/utils/Strings.sol\":1905:1916  value >>= 4 */\n      dup6\n      swap1\n      shr\n      swap5\n      pop\n        /* \"@openzeppelin/contracts/utils/Strings.sol\":1835:1838  --i */\n      dup1\n      tag_160\n      swap1\n      tag_161\n      jump\t// in\n    tag_160:\n      swap1\n      pop\n        /* \"@openzeppelin/contracts/utils/Strings.sol\":1795:1927  for (uint256 i = 2 * length + 1; i > 1; --i) {... */\n      jump(tag_151)\n    tag_152:\n      pop\n        /* \"@openzeppelin/contracts/utils/Strings.sol\":1953:1954  0 */\n      0x00\n        /* \"@openzeppelin/contracts/utils/Strings.sol\":1944:1949  value */\n      dup5\n        /* \"@openzeppelin/contracts/utils/Strings.sol\":1944:1954  value == 0 */\n      eq\n        /* \"@openzeppelin/contracts/utils/Strings.sol\":1936:1991  require(value == 0, \"Strings: hex length insufficient\") */\n      tag_162\n      jumpi\n      mload(0x40)\n      0x08c379a000000000000000000000000000000000000000000000000000000000\n      dup2\n      mstore\n      0x04\n      add\n      tag_163\n      swap1\n      tag_164\n      jump\t// in\n    tag_163:\n      mload(0x40)\n      dup1\n      swap2\n      sub\n      swap1\n      revert\n    tag_162:\n        /* \"@openzeppelin/contracts/utils/Strings.sol\":2015:2021  buffer */\n      dup1\n        /* \"@openzeppelin/contracts/utils/Strings.sol\":2001:2022  return string(buffer) */\n      swap2\n      pop\n      pop\n        /* \"@openzeppelin/contracts/utils/Strings.sol\":1588:2029  function toHexString(uint256 value, uint256 length) internal pure returns (string memory) {... */\n      swap3\n      swap2\n      pop\n      pop\n      jump\t// out\n        /* \"#utility.yul\":7:146   */\n    tag_166:\n        /* \"#utility.yul\":53:58   */\n      0x00\n        /* \"#utility.yul\":91:97   */\n      dup2\n        /* \"#utility.yul\":78:98   */\n      calldataload\n        /* \"#utility.yul\":69:98   */\n      swap1\n      pop\n        /* \"#utility.yul\":107:140   */\n      tag_168\n        /* \"#utility.yul\":134:139   */\n      dup2\n        /* \"#utility.yul\":107:140   */\n      tag_169\n      jump\t// in\n    tag_168:\n        /* \"#utility.yul\":7:146   */\n      swap3\n      swap2\n      pop\n      pop\n      jump\t// out\n        /* \"#utility.yul\":152:307   */\n    tag_170:\n        /* \"#utility.yul\":206:211   */\n      0x00\n        /* \"#utility.yul\":244:250   */\n      dup2\n        /* \"#utility.yul\":231:251   */\n      calldataload\n        /* \"#utility.yul\":222:251   */\n      swap1\n      pop\n        /* \"#utility.yul\":260:301   */\n      tag_172\n        /* \"#utility.yul\":295:300   */\n      dup2\n        /* \"#utility.yul\":260:301   */\n      tag_173\n      jump\t// in\n    tag_172:\n        /* \"#utility.yul\":152:307   */\n      swap3\n      swap2\n      pop\n      pop\n      jump\t// out\n        /* \"#utility.yul\":313:452   */\n    tag_174:\n        /* \"#utility.yul\":359:364   */\n      0x00\n        /* \"#utility.yul\":397:403   */\n      dup2\n        /* \"#utility.yul\":384:404   */\n      calldataload\n        /* \"#utility.yul\":375:404   */\n      swap1\n      pop\n        /* \"#utility.yul\":413:446   */\n      tag_176\n        /* \"#utility.yul\":440:445   */\n      dup2\n        /* \"#utility.yul\":413:446   */\n      tag_177\n      jump\t// in\n    tag_176:\n        /* \"#utility.yul\":313:452   */\n      swap3\n      swap2\n      pop\n      pop\n      jump\t// out\n        /* \"#utility.yul\":458:595   */\n    tag_178:\n        /* \"#utility.yul\":503:508   */\n      0x00\n        /* \"#utility.yul\":541:547   */\n      dup2\n        /* \"#utility.yul\":528:548   */\n      calldataload\n        /* \"#utility.yul\":519:548   */\n      swap1\n      pop\n        /* \"#utility.yul\":557:589   */\n      tag_180\n        /* \"#utility.yul\":583:588   */\n      dup2\n        /* \"#utility.yul\":557:589   */\n      tag_181\n      jump\t// in\n    tag_180:\n        /* \"#utility.yul\":458:595   */\n      swap3\n      swap2\n      pop\n      pop\n      jump\t// out\n        /* \"#utility.yul\":601:740   */\n    tag_182:\n        /* \"#utility.yul\":647:652   */\n      0x00\n        /* \"#utility.yul\":685:691   */\n      dup2\n        /* \"#utility.yul\":672:692   */\n      calldataload\n        /* \"#utility.yul\":663:692   */\n      swap1\n      pop\n        /* \"#utility.yul\":701:734   */\n      tag_184\n        /* \"#utility.yul\":728:733   */\n      dup2\n        /* \"#utility.yul\":701:734   */\n      tag_185\n      jump\t// in\n    tag_184:\n        /* \"#utility.yul\":601:740   */\n      swap3\n      swap2\n      pop\n      pop\n      jump\t// out\n        /* \"#utility.yul\":746:1236   */\n    tag_66:\n        /* \"#utility.yul\":822:828   */\n      0x00\n        /* \"#utility.yul\":830:836   */\n      dup1\n        /* \"#utility.yul\":879:881   */\n      0x40\n        /* \"#utility.yul\":867:876   */\n      dup4\n        /* \"#utility.yul\":858:865   */\n      dup6\n        /* \"#utility.yul\":854:877   */\n      sub\n        /* \"#utility.yul\":850:882   */\n      slt\n        /* \"#utility.yul\":847:966   */\n      iszero\n      tag_187\n      jumpi\n        /* \"#utility.yul\":885:964   */\n      tag_188\n      tag_189\n      jump\t// in\n    tag_188:\n        /* \"#utility.yul\":847:966   */\n    tag_187:\n        /* \"#utility.yul\":1005:1006   */\n      0x00\n        /* \"#utility.yul\":1030:1091   */\n      tag_190\n        /* \"#utility.yul\":1083:1090   */\n      dup6\n        /* \"#utility.yul\":1074:1080   */\n      dup3\n        /* \"#utility.yul\":1063:1072   */\n      dup7\n        /* \"#utility.yul\":1059:1081   */\n      add\n        /* \"#utility.yul\":1030:1091   */\n      tag_170\n      jump\t// in\n    tag_190:\n        /* \"#utility.yul\":1020:1091   */\n      swap3\n      pop\n        /* \"#utility.yul\":976:1101   */\n      pop\n        /* \"#utility.yul\":1140:1142   */\n      0x20\n        /* \"#utility.yul\":1166:1219   */\n      tag_191\n        /* \"#utility.yul\":1211:1218   */\n      dup6\n        /* \"#utility.yul\":1202:1208   */\n      dup3\n        /* \"#utility.yul\":1191:1200   */\n      dup7\n        /* \"#utility.yul\":1187:1209   */\n      add\n        /* \"#utility.yul\":1166:1219   */\n      tag_182\n      jump\t// in\n    tag_191:\n        /* \"#utility.yul\":1156:1219   */\n      swap2\n      pop\n        /* \"#utility.yul\":1111:1229   */\n      pop\n        /* \"#utility.yul\":746:1236   */\n      swap3\n      pop\n      swap3\n      swap1\n      pop\n      jump\t// out\n        /* \"#utility.yul\":1242:1571   */\n    tag_24:\n        /* \"#utility.yul\":1301:1307   */\n      0x00\n        /* \"#utility.yul\":1350:1352   */\n      0x20\n        /* \"#utility.yul\":1338:1347   */\n      dup3\n        /* \"#utility.yul\":1329:1336   */\n      dup5\n        /* \"#utility.yul\":1325:1348   */\n      sub\n        /* \"#utility.yul\":1321:1353   */\n      slt\n        /* \"#utility.yul\":1318:1437   */\n      iszero\n      tag_193\n      jumpi\n        /* \"#utility.yul\":1356:1435   */\n      tag_194\n      tag_189\n      jump\t// in\n    tag_194:\n        /* \"#utility.yul\":1318:1437   */\n    tag_193:\n        /* \"#utility.yul\":1476:1477   */\n      0x00\n        /* \"#utility.yul\":1501:1554   */\n      tag_195\n        /* \"#utility.yul\":1546:1553   */\n      dup5\n        /* \"#utility.yul\":1537:1543   */\n      dup3\n        /* \"#utility.yul\":1526:1535   */\n      dup6\n        /* \"#utility.yul\":1522:1544   */\n      add\n        /* \"#utility.yul\":1501:1554   */\n      tag_174\n      jump\t// in\n    tag_195:\n        /* \"#utility.yul\":1491:1554   */\n      swap2\n      pop\n        /* \"#utility.yul\":1447:1564   */\n      pop\n        /* \"#utility.yul\":1242:1571   */\n      swap3\n      swap2\n      pop\n      pop\n      jump\t// out\n        /* \"#utility.yul\":1577:2051   */\n    tag_31:\n        /* \"#utility.yul\":1645:1651   */\n      0x00\n        /* \"#utility.yul\":1653:1659   */\n      dup1\n        /* \"#utility.yul\":1702:1704   */\n      0x40\n        /* \"#utility.yul\":1690:1699   */\n      dup4\n        /* \"#utility.yul\":1681:1688   */\n      dup6\n        /* \"#utility.yul\":1677:1700   */\n      sub\n        /* \"#utility.yul\":1673:1705   */\n      slt\n        /* \"#utility.yul\":1670:1789   */\n      iszero\n      tag_197\n      jumpi\n        /* \"#utility.yul\":1708:1787   */\n      tag_198\n      tag_189\n      jump\t// in\n    tag_198:\n        /* \"#utility.yul\":1670:1789   */\n    tag_197:\n        /* \"#utility.yul\":1828:1829   */\n      0x00\n        /* \"#utility.yul\":1853:1906   */\n      tag_199\n        /* \"#utility.yul\":1898:1905   */\n      dup6\n        /* \"#utility.yul\":1889:1895   */\n      dup3\n        /* \"#utility.yul\":1878:1887   */\n      dup7\n        /* \"#utility.yul\":1874:1896   */\n      add\n        /* \"#utility.yul\":1853:1906   */\n      tag_174\n      jump\t// in\n    tag_199:\n        /* \"#utility.yul\":1843:1906   */\n      swap3\n      pop\n        /* \"#utility.yul\":1799:1916   */\n      pop\n        /* \"#utility.yul\":1955:1957   */\n      0x20\n        /* \"#utility.yul\":1981:2034   */\n      tag_200\n        /* \"#utility.yul\":2026:2033   */\n      dup6\n        /* \"#utility.yul\":2017:2023   */\n      dup3\n        /* \"#utility.yul\":2006:2015   */\n      dup7\n        /* \"#utility.yul\":2002:2024   */\n      add\n        /* \"#utility.yul\":1981:2034   */\n      tag_166\n      jump\t// in\n    tag_200:\n        /* \"#utility.yul\":1971:2034   */\n      swap2\n      pop\n        /* \"#utility.yul\":1926:2044   */\n      pop\n        /* \"#utility.yul\":1577:2051   */\n      swap3\n      pop\n      swap3\n      swap1\n      pop\n      jump\t// out\n        /* \"#utility.yul\":2057:2384   */\n    tag_17:\n        /* \"#utility.yul\":2115:2121   */\n      0x00\n        /* \"#utility.yul\":2164:2166   */\n      0x20\n        /* \"#utility.yul\":2152:2161   */\n      dup3\n        /* \"#utility.yul\":2143:2150   */\n      dup5\n        /* \"#utility.yul\":2139:2162   */\n      sub\n        /* \"#utility.yul\":2135:2167   */\n      slt\n        /* \"#utility.yul\":2132:2251   */\n      iszero\n      tag_202\n      jumpi\n        /* \"#utility.yul\":2170:2249   */\n      tag_203\n      tag_189\n      jump\t// in\n    tag_203:\n        /* \"#utility.yul\":2132:2251   */\n    tag_202:\n        /* \"#utility.yul\":2290:2291   */\n      0x00\n        /* \"#utility.yul\":2315:2367   */\n      tag_204\n        /* \"#utility.yul\":2359:2366   */\n      dup5\n        /* \"#utility.yul\":2350:2356   */\n      dup3\n        /* \"#utility.yul\":2339:2348   */\n      dup6\n        /* \"#utility.yul\":2335:2357   */\n      add\n        /* \"#utility.yul\":2315:2367   */\n      tag_178\n      jump\t// in\n    tag_204:\n        /* \"#utility.yul\":2305:2367   */\n      swap2\n      pop\n        /* \"#utility.yul\":2261:2377   */\n      pop\n        /* \"#utility.yul\":2057:2384   */\n      swap3\n      swap2\n      pop\n      pop\n      jump\t// out\n        /* \"#utility.yul\":2390:2719   */\n    tag_35:\n        /* \"#utility.yul\":2449:2455   */\n      0x00\n        /* \"#utility.yul\":2498:2500   */\n      0x20\n        /* \"#utility.yul\":2486:2495   */\n      dup3\n        /* \"#utility.yul\":2477:2484   */\n      dup5\n        /* \"#utility.yul\":2473:2496   */\n      sub\n        /* \"#utility.yul\":2469:2501   */\n      slt\n        /* \"#utility.yul\":2466:2585   */\n      iszero\n      tag_206\n      jumpi\n        /* \"#utility.yul\":2504:2583   */\n      tag_207\n      tag_189\n      jump\t// in\n    tag_207:\n        /* \"#utility.yul\":2466:2585   */\n    tag_206:\n        /* \"#utility.yul\":2624:2625   */\n      0x00\n        /* \"#utility.yul\":2649:2702   */\n      tag_208\n        /* \"#utility.yul\":2694:2701   */\n      dup5\n        /* \"#utility.yul\":2685:2691   */\n      dup3\n        /* \"#utility.yul\":2674:2683   */\n      dup6\n        /* \"#utility.yul\":2670:2692   */\n      add\n        /* \"#utility.yul\":2649:2702   */\n      tag_182\n      jump\t// in\n    tag_208:\n        /* \"#utility.yul\":2639:2702   */\n      swap2\n      pop\n        /* \"#utility.yul\":2595:2712   */\n      pop\n        /* \"#utility.yul\":2390:2719   */\n      swap3\n      swap2\n      pop\n      pop\n      jump\t// out\n        /* \"#utility.yul\":2725:2834   */\n    tag_209:\n        /* \"#utility.yul\":2806:2827   */\n      tag_211\n        /* \"#utility.yul\":2821:2826   */\n      dup2\n        /* \"#utility.yul\":2806:2827   */\n      tag_212\n      jump\t// in\n    tag_211:\n        /* \"#utility.yul\":2801:2804   */\n      dup3\n        /* \"#utility.yul\":2794:2828   */\n      mstore\n        /* \"#utility.yul\":2725:2834   */\n      pop\n      pop\n      jump\t// out\n        /* \"#utility.yul\":2840:2958   */\n    tag_213:\n        /* \"#utility.yul\":2927:2951   */\n      tag_215\n        /* \"#utility.yul\":2945:2950   */\n      dup2\n        /* \"#utility.yul\":2927:2951   */\n      tag_216\n      jump\t// in\n    tag_215:\n        /* \"#utility.yul\":2922:2925   */\n      dup3\n        /* \"#utility.yul\":2915:2952   */\n      mstore\n        /* \"#utility.yul\":2840:2958   */\n      pop\n      pop\n      jump\t// out\n        /* \"#utility.yul\":2964:3328   */\n    tag_217:\n        /* \"#utility.yul\":3052:3055   */\n      0x00\n        /* \"#utility.yul\":3080:3119   */\n      tag_219\n        /* \"#utility.yul\":3113:3118   */\n      dup3\n        /* \"#utility.yul\":3080:3119   */\n      tag_220\n      jump\t// in\n    tag_219:\n        /* \"#utility.yul\":3135:3206   */\n      tag_221\n        /* \"#utility.yul\":3199:3205   */\n      dup2\n        /* \"#utility.yul\":3194:3197   */\n      dup6\n        /* \"#utility.yul\":3135:3206   */\n      tag_222\n      jump\t// in\n    tag_221:\n        /* \"#utility.yul\":3128:3206   */\n      swap4\n      pop\n        /* \"#utility.yul\":3215:3267   */\n      tag_223\n        /* \"#utility.yul\":3260:3266   */\n      dup2\n        /* \"#utility.yul\":3255:3258   */\n      dup6\n        /* \"#utility.yul\":3248:3252   */\n      0x20\n        /* \"#utility.yul\":3241:3246   */\n      dup7\n        /* \"#utility.yul\":3237:3253   */\n      add\n        /* \"#utility.yul\":3215:3267   */\n      tag_224\n      jump\t// in\n    tag_223:\n        /* \"#utility.yul\":3292:3321   */\n      tag_225\n        /* \"#utility.yul\":3314:3320   */\n      dup2\n        /* \"#utility.yul\":3292:3321   */\n      tag_226\n      jump\t// in\n    tag_225:\n        /* \"#utility.yul\":3287:3290   */\n      dup5\n        /* \"#utility.yul\":3283:3322   */\n      add\n        /* \"#utility.yul\":3276:3322   */\n      swap2\n      pop\n        /* \"#utility.yul\":3056:3328   */\n      pop\n        /* \"#utility.yul\":2964:3328   */\n      swap3\n      swap2\n      pop\n      pop\n      jump\t// out\n        /* \"#utility.yul\":3334:3711   */\n    tag_227:\n        /* \"#utility.yul\":3440:3443   */\n      0x00\n        /* \"#utility.yul\":3468:3507   */\n      tag_229\n        /* \"#utility.yul\":3501:3506   */\n      dup3\n        /* \"#utility.yul\":3468:3507   */\n      tag_220\n      jump\t// in\n    tag_229:\n        /* \"#utility.yul\":3523:3612   */\n      tag_230\n        /* \"#utility.yul\":3605:3611   */\n      dup2\n        /* \"#utility.yul\":3600:3603   */\n      dup6\n        /* \"#utility.yul\":3523:3612   */\n      tag_231\n      jump\t// in\n    tag_230:\n        /* \"#utility.yul\":3516:3612   */\n      swap4\n      pop\n        /* \"#utility.yul\":3621:3673   */\n      tag_232\n        /* \"#utility.yul\":3666:3672   */\n      dup2\n        /* \"#utility.yul\":3661:3664   */\n      dup6\n        /* \"#utility.yul\":3654:3658   */\n      0x20\n        /* \"#utility.yul\":3647:3652   */\n      dup7\n        /* \"#utility.yul\":3643:3659   */\n      add\n        /* \"#utility.yul\":3621:3673   */\n      tag_224\n      jump\t// in\n    tag_232:\n        /* \"#utility.yul\":3698:3704   */\n      dup1\n        /* \"#utility.yul\":3693:3696   */\n      dup5\n        /* \"#utility.yul\":3689:3705   */\n      add\n        /* \"#utility.yul\":3682:3705   */\n      swap2\n      pop\n        /* \"#utility.yul\":3444:3711   */\n      pop\n        /* \"#utility.yul\":3334:3711   */\n      swap3\n      swap2\n      pop\n      pop\n      jump\t// out\n        /* \"#utility.yul\":3717:4083   */\n    tag_233:\n        /* \"#utility.yul\":3859:3862   */\n      0x00\n        /* \"#utility.yul\":3880:3947   */\n      tag_235\n        /* \"#utility.yul\":3944:3946   */\n      0x20\n        /* \"#utility.yul\":3939:3942   */\n      dup4\n        /* \"#utility.yul\":3880:3947   */\n      tag_222\n      jump\t// in\n    tag_235:\n        /* \"#utility.yul\":3873:3947   */\n      swap2\n      pop\n        /* \"#utility.yul\":3956:4049   */\n      tag_236\n        /* \"#utility.yul\":4045:4048   */\n      dup3\n        /* \"#utility.yul\":3956:4049   */\n      tag_237\n      jump\t// in\n    tag_236:\n        /* \"#utility.yul\":4074:4076   */\n      0x20\n        /* \"#utility.yul\":4069:4072   */\n      dup3\n        /* \"#utility.yul\":4065:4077   */\n      add\n        /* \"#utility.yul\":4058:4077   */\n      swap1\n      pop\n        /* \"#utility.yul\":3717:4083   */\n      swap2\n      swap1\n      pop\n      jump\t// out\n        /* \"#utility.yul\":4089:4455   */\n    tag_238:\n        /* \"#utility.yul\":4231:4234   */\n      0x00\n        /* \"#utility.yul\":4252:4319   */\n      tag_240\n        /* \"#utility.yul\":4316:4318   */\n      0x14\n        /* \"#utility.yul\":4311:4314   */\n      dup4\n        /* \"#utility.yul\":4252:4319   */\n      tag_222\n      jump\t// in\n    tag_240:\n        /* \"#utility.yul\":4245:4319   */\n      swap2\n      pop\n        /* \"#utility.yul\":4328:4421   */\n      tag_241\n        /* \"#utility.yul\":4417:4420   */\n      dup3\n        /* \"#utility.yul\":4328:4421   */\n      tag_242\n      jump\t// in\n    tag_241:\n        /* \"#utility.yul\":4446:4448   */\n      0x20\n        /* \"#utility.yul\":4441:4444   */\n      dup3\n        /* \"#utility.yul\":4437:4449   */\n      add\n        /* \"#utility.yul\":4430:4449   */\n      swap1\n      pop\n        /* \"#utility.yul\":4089:4455   */\n      swap2\n      swap1\n      pop\n      jump\t// out\n        /* \"#utility.yul\":4461:4827   */\n    tag_243:\n        /* \"#utility.yul\":4603:4606   */\n      0x00\n        /* \"#utility.yul\":4624:4691   */\n      tag_245\n        /* \"#utility.yul\":4688:4690   */\n      0x14\n        /* \"#utility.yul\":4683:4686   */\n      dup4\n        /* \"#utility.yul\":4624:4691   */\n      tag_222\n      jump\t// in\n    tag_245:\n        /* \"#utility.yul\":4617:4691   */\n      swap2\n      pop\n        /* \"#utility.yul\":4700:4793   */\n      tag_246\n        /* \"#utility.yul\":4789:4792   */\n      dup3\n        /* \"#utility.yul\":4700:4793   */\n      tag_247\n      jump\t// in\n    tag_246:\n        /* \"#utility.yul\":4818:4820   */\n      0x20\n        /* \"#utility.yul\":4813:4816   */\n      dup3\n        /* \"#utility.yul\":4809:4821   */\n      add\n        /* \"#utility.yul\":4802:4821   */\n      swap1\n      pop\n        /* \"#utility.yul\":4461:4827   */\n      swap2\n      swap1\n      pop\n      jump\t// out\n        /* \"#utility.yul\":4833:5199   */\n    tag_248:\n        /* \"#utility.yul\":4975:4978   */\n      0x00\n        /* \"#utility.yul\":4996:5063   */\n      tag_250\n        /* \"#utility.yul\":5060:5062   */\n      0x28\n        /* \"#utility.yul\":5055:5058   */\n      dup4\n        /* \"#utility.yul\":4996:5063   */\n      tag_222\n      jump\t// in\n    tag_250:\n        /* \"#utility.yul\":4989:5063   */\n      swap2\n      pop\n        /* \"#utility.yul\":5072:5165   */\n      tag_251\n        /* \"#utility.yul\":5161:5164   */\n      dup3\n        /* \"#utility.yul\":5072:5165   */\n      tag_252\n      jump\t// in\n    tag_251:\n        /* \"#utility.yul\":5190:5192   */\n      0x40\n        /* \"#utility.yul\":5185:5188   */\n      dup3\n        /* \"#utility.yul\":5181:5193   */\n      add\n        /* \"#utility.yul\":5174:5193   */\n      swap1\n      pop\n        /* \"#utility.yul\":4833:5199   */\n      swap2\n      swap1\n      pop\n      jump\t// out\n        /* \"#utility.yul\":5205:5607   */\n    tag_253:\n        /* \"#utility.yul\":5365:5368   */\n      0x00\n        /* \"#utility.yul\":5386:5471   */\n      tag_255\n        /* \"#utility.yul\":5468:5470   */\n      0x17\n        /* \"#utility.yul\":5463:5466   */\n      dup4\n        /* \"#utility.yul\":5386:5471   */\n      tag_231\n      jump\t// in\n    tag_255:\n        /* \"#utility.yul\":5379:5471   */\n      swap2\n      pop\n        /* \"#utility.yul\":5480:5573   */\n      tag_256\n        /* \"#utility.yul\":5569:5572   */\n      dup3\n        /* \"#utility.yul\":5480:5573   */\n      tag_257\n      jump\t// in\n    tag_256:\n        /* \"#utility.yul\":5598:5600   */\n      0x17\n        /* \"#utility.yul\":5593:5596   */\n      dup3\n        /* \"#utility.yul\":5589:5601   */\n      add\n        /* \"#utility.yul\":5582:5601   */\n      swap1\n      pop\n        /* \"#utility.yul\":5205:5607   */\n      swap2\n      swap1\n      pop\n      jump\t// out\n        /* \"#utility.yul\":5613:5979   */\n    tag_258:\n        /* \"#utility.yul\":5755:5758   */\n      0x00\n        /* \"#utility.yul\":5776:5843   */\n      tag_260\n        /* \"#utility.yul\":5840:5842   */\n      0x11\n        /* \"#utility.yul\":5835:5838   */\n      dup4\n        /* \"#utility.yul\":5776:5843   */\n      tag_222\n      jump\t// in\n    tag_260:\n        /* \"#utility.yul\":5769:5843   */\n      swap2\n      pop\n        /* \"#utility.yul\":5852:5945   */\n      tag_261\n        /* \"#utility.yul\":5941:5944   */\n      dup3\n        /* \"#utility.yul\":5852:5945   */\n      tag_262\n      jump\t// in\n    tag_261:\n        /* \"#utility.yul\":5970:5972   */\n      0x20\n        /* \"#utility.yul\":5965:5968   */\n      dup3\n        /* \"#utility.yul\":5961:5973   */\n      add\n        /* \"#utility.yul\":5954:5973   */\n      swap1\n      pop\n        /* \"#utility.yul\":5613:5979   */\n      swap2\n      swap1\n      pop\n      jump\t// out\n        /* \"#utility.yul\":5985:6351   */\n    tag_263:\n        /* \"#utility.yul\":6127:6130   */\n      0x00\n        /* \"#utility.yul\":6148:6215   */\n      tag_265\n        /* \"#utility.yul\":6212:6214   */\n      0x1c\n        /* \"#utility.yul\":6207:6210   */\n      dup4\n        /* \"#utility.yul\":6148:6215   */\n      tag_222\n      jump\t// in\n    tag_265:\n        /* \"#utility.yul\":6141:6215   */\n      swap2\n      pop\n        /* \"#utility.yul\":6224:6317   */\n      tag_266\n        /* \"#utility.yul\":6313:6316   */\n      dup3\n        /* \"#utility.yul\":6224:6317   */\n      tag_267\n      jump\t// in\n    tag_266:\n        /* \"#utility.yul\":6342:6344   */\n      0x20\n        /* \"#utility.yul\":6337:6340   */\n      dup3\n        /* \"#utility.yul\":6333:6345   */\n      add\n        /* \"#utility.yul\":6326:6345   */\n      swap1\n      pop\n        /* \"#utility.yul\":5985:6351   */\n      swap2\n      swap1\n      pop\n      jump\t// out\n        /* \"#utility.yul\":6357:6759   */\n    tag_268:\n        /* \"#utility.yul\":6517:6520   */\n      0x00\n        /* \"#utility.yul\":6538:6623   */\n      tag_270\n        /* \"#utility.yul\":6620:6622   */\n      0x11\n        /* \"#utility.yul\":6615:6618   */\n      dup4\n        /* \"#utility.yul\":6538:6623   */\n      tag_231\n      jump\t// in\n    tag_270:\n        /* \"#utility.yul\":6531:6623   */\n      swap2\n      pop\n        /* \"#utility.yul\":6632:6725   */\n      tag_271\n        /* \"#utility.yul\":6721:6724   */\n      dup3\n        /* \"#utility.yul\":6632:6725   */\n      tag_272\n      jump\t// in\n    tag_271:\n        /* \"#utility.yul\":6750:6752   */\n      0x11\n        /* \"#utility.yul\":6745:6748   */\n      dup3\n        /* \"#utility.yul\":6741:6753   */\n      add\n        /* \"#utility.yul\":6734:6753   */\n      swap1\n      pop\n        /* \"#utility.yul\":6357:6759   */\n      swap2\n      swap1\n      pop\n      jump\t// out\n        /* \"#utility.yul\":6765:7131   */\n    tag_273:\n        /* \"#utility.yul\":6907:6910   */\n      0x00\n        /* \"#utility.yul\":6928:6995   */\n      tag_275\n        /* \"#utility.yul\":6992:6994   */\n      0x2f\n        /* \"#utility.yul\":6987:6990   */\n      dup4\n        /* \"#utility.yul\":6928:6995   */\n      tag_222\n      jump\t// in\n    tag_275:\n        /* \"#utility.yul\":6921:6995   */\n      swap2\n      pop\n        /* \"#utility.yul\":7004:7097   */\n      tag_276\n        /* \"#utility.yul\":7093:7096   */\n      dup3\n        /* \"#utility.yul\":7004:7097   */\n      tag_277\n      jump\t// in\n    tag_276:\n        /* \"#utility.yul\":7122:7124   */\n      0x40\n        /* \"#utility.yul\":7117:7120   */\n      dup3\n        /* \"#utility.yul\":7113:7125   */\n      add\n        /* \"#utility.yul\":7106:7125   */\n      swap1\n      pop\n        /* \"#utility.yul\":6765:7131   */\n      swap2\n      swap1\n      pop\n      jump\t// out\n        /* \"#utility.yul\":7137:7255   */\n    tag_278:\n        /* \"#utility.yul\":7224:7248   */\n      tag_280\n        /* \"#utility.yul\":7242:7247   */\n      dup2\n        /* \"#utility.yul\":7224:7248   */\n      tag_281\n      jump\t// in\n    tag_280:\n        /* \"#utility.yul\":7219:7222   */\n      dup3\n        /* \"#utility.yul\":7212:7249   */\n      mstore\n        /* \"#utility.yul\":7137:7255   */\n      pop\n      pop\n      jump\t// out\n        /* \"#utility.yul\":7261:8228   */\n    tag_126:\n        /* \"#utility.yul\":7643:7646   */\n      0x00\n        /* \"#utility.yul\":7665:7813   */\n      tag_283\n        /* \"#utility.yul\":7809:7812   */\n      dup3\n        /* \"#utility.yul\":7665:7813   */\n      tag_253\n      jump\t// in\n    tag_283:\n        /* \"#utility.yul\":7658:7813   */\n      swap2\n      pop\n        /* \"#utility.yul\":7830:7925   */\n      tag_284\n        /* \"#utility.yul\":7921:7924   */\n      dup3\n        /* \"#utility.yul\":7912:7918   */\n      dup6\n        /* \"#utility.yul\":7830:7925   */\n      tag_227\n      jump\t// in\n    tag_284:\n        /* \"#utility.yul\":7823:7925   */\n      swap2\n      pop\n        /* \"#utility.yul\":7942:8090   */\n      tag_285\n        /* \"#utility.yul\":8086:8089   */\n      dup3\n        /* \"#utility.yul\":7942:8090   */\n      tag_268\n      jump\t// in\n    tag_285:\n        /* \"#utility.yul\":7935:8090   */\n      swap2\n      pop\n        /* \"#utility.yul\":8107:8202   */\n      tag_286\n        /* \"#utility.yul\":8198:8201   */\n      dup3\n        /* \"#utility.yul\":8189:8195   */\n      dup5\n        /* \"#utility.yul\":8107:8202   */\n      tag_227\n      jump\t// in\n    tag_286:\n        /* \"#utility.yul\":8100:8202   */\n      swap2\n      pop\n        /* \"#utility.yul\":8219:8222   */\n      dup2\n        /* \"#utility.yul\":8212:8222   */\n      swap1\n      pop\n        /* \"#utility.yul\":7261:8228   */\n      swap4\n      swap3\n      pop\n      pop\n      pop\n      jump\t// out\n        /* \"#utility.yul\":8234:8444   */\n    tag_20:\n        /* \"#utility.yul\":8321:8325   */\n      0x00\n        /* \"#utility.yul\":8359:8361   */\n      0x20\n        /* \"#utility.yul\":8348:8357   */\n      dup3\n        /* \"#utility.yul\":8344:8362   */\n      add\n        /* \"#utility.yul\":8336:8362   */\n      swap1\n      pop\n        /* \"#utility.yul\":8372:8437   */\n      tag_288\n        /* \"#utility.yul\":8434:8435   */\n      0x00\n        /* \"#utility.yul\":8423:8432   */\n      dup4\n        /* \"#utility.yul\":8419:8436   */\n      add\n        /* \"#utility.yul\":8410:8416   */\n      dup5\n        /* \"#utility.yul\":8372:8437   */\n      tag_209\n      jump\t// in\n    tag_288:\n        /* \"#utility.yul\":8234:8444   */\n      swap3\n      swap2\n      pop\n      pop\n      jump\t// out\n        /* \"#utility.yul\":8450:8672   */\n    tag_27:\n        /* \"#utility.yul\":8543:8547   */\n      0x00\n        /* \"#utility.yul\":8581:8583   */\n      0x20\n        /* \"#utility.yul\":8570:8579   */\n      dup3\n        /* \"#utility.yul\":8566:8584   */\n      add\n        /* \"#utility.yul\":8558:8584   */\n      swap1\n      pop\n        /* \"#utility.yul\":8594:8665   */\n      tag_290\n        /* \"#utility.yul\":8662:8663   */\n      0x00\n        /* \"#utility.yul\":8651:8660   */\n      dup4\n        /* \"#utility.yul\":8647:8664   */\n      add\n        /* \"#utility.yul\":8638:8644   */\n      dup5\n        /* \"#utility.yul\":8594:8665   */\n      tag_213\n      jump\t// in\n    tag_290:\n        /* \"#utility.yul\":8450:8672   */\n      swap3\n      swap2\n      pop\n      pop\n      jump\t// out\n        /* \"#utility.yul\":8678:8991   */\n    tag_128:\n        /* \"#utility.yul\":8791:8795   */\n      0x00\n        /* \"#utility.yul\":8829:8831   */\n      0x20\n        /* \"#utility.yul\":8818:8827   */\n      dup3\n        /* \"#utility.yul\":8814:8832   */\n      add\n        /* \"#utility.yul\":8806:8832   */\n      swap1\n      pop\n        /* \"#utility.yul\":8878:8887   */\n      dup2\n        /* \"#utility.yul\":8872:8876   */\n      dup2\n        /* \"#utility.yul\":8868:8888   */\n      sub\n        /* \"#utility.yul\":8864:8865   */\n      0x00\n        /* \"#utility.yul\":8853:8862   */\n      dup4\n        /* \"#utility.yul\":8849:8866   */\n      add\n        /* \"#utility.yul\":8842:8889   */\n      mstore\n        /* \"#utility.yul\":8906:8984   */\n      tag_292\n        /* \"#utility.yul\":8979:8983   */\n      dup2\n        /* \"#utility.yul\":8970:8976   */\n      dup5\n        /* \"#utility.yul\":8906:8984   */\n      tag_217\n      jump\t// in\n    tag_292:\n        /* \"#utility.yul\":8898:8984   */\n      swap1\n      pop\n        /* \"#utility.yul\":8678:8991   */\n      swap3\n      swap2\n      pop\n      pop\n      jump\t// out\n        /* \"#utility.yul\":8997:9416   */\n    tag_164:\n        /* \"#utility.yul\":9163:9167   */\n      0x00\n        /* \"#utility.yul\":9201:9203   */\n      0x20\n        /* \"#utility.yul\":9190:9199   */\n      dup3\n        /* \"#utility.yul\":9186:9204   */\n      add\n        /* \"#utility.yul\":9178:9204   */\n      swap1\n      pop\n        /* \"#utility.yul\":9250:9259   */\n      dup2\n        /* \"#utility.yul\":9244:9248   */\n      dup2\n        /* \"#utility.yul\":9240:9260   */\n      sub\n        /* \"#utility.yul\":9236:9237   */\n      0x00\n        /* \"#utility.yul\":9225:9234   */\n      dup4\n        /* \"#utility.yul\":9221:9238   */\n      add\n        /* \"#utility.yul\":9214:9261   */\n      mstore\n        /* \"#utility.yul\":9278:9409   */\n      tag_294\n        /* \"#utility.yul\":9404:9408   */\n      dup2\n        /* \"#utility.yul\":9278:9409   */\n      tag_233\n      jump\t// in\n    tag_294:\n        /* \"#utility.yul\":9270:9409   */\n      swap1\n      pop\n        /* \"#utility.yul\":8997:9416   */\n      swap2\n      swap1\n      pop\n      jump\t// out\n        /* \"#utility.yul\":9422:9841   */\n    tag_88:\n        /* \"#utility.yul\":9588:9592   */\n      0x00\n        /* \"#utility.yul\":9626:9628   */\n      0x20\n        /* \"#utility.yul\":9615:9624   */\n      dup3\n        /* \"#utility.yul\":9611:9629   */\n      add\n        /* \"#utility.yul\":9603:9629   */\n      swap1\n      pop\n        /* \"#utility.yul\":9675:9684   */\n      dup2\n        /* \"#utility.yul\":9669:9673   */\n      dup2\n        /* \"#utility.yul\":9665:9685   */\n      sub\n        /* \"#utility.yul\":9661:9662   */\n      0x00\n        /* \"#utility.yul\":9650:9659   */\n      dup4\n        /* \"#utility.yul\":9646:9663   */\n      add\n        /* \"#utility.yul\":9639:9686   */\n      mstore\n        /* \"#utility.yul\":9703:9834   */\n      tag_296\n        /* \"#utility.yul\":9829:9833   */\n      dup2\n        /* \"#utility.yul\":9703:9834   */\n      tag_238\n      jump\t// in\n    tag_296:\n        /* \"#utility.yul\":9695:9834   */\n      swap1\n      pop\n        /* \"#utility.yul\":9422:9841   */\n      swap2\n      swap1\n      pop\n      jump\t// out\n        /* \"#utility.yul\":9847:10266   */\n    tag_85:\n        /* \"#utility.yul\":10013:10017   */\n      0x00\n        /* \"#utility.yul\":10051:10053   */\n      0x20\n        /* \"#utility.yul\":10040:10049   */\n      dup3\n        /* \"#utility.yul\":10036:10054   */\n      add\n        /* \"#utility.yul\":10028:10054   */\n      swap1\n      pop\n        /* \"#utility.yul\":10100:10109   */\n      dup2\n        /* \"#utility.yul\":10094:10098   */\n      dup2\n        /* \"#utility.yul\":10090:10110   */\n      sub\n        /* \"#utility.yul\":10086:10087   */\n      0x00\n        /* \"#utility.yul\":10075:10084   */\n      dup4\n        /* \"#utility.yul\":10071:10088   */\n      add\n        /* \"#utility.yul\":10064:10111   */\n      mstore\n        /* \"#utility.yul\":10128:10259   */\n      tag_298\n        /* \"#utility.yul\":10254:10258   */\n      dup2\n        /* \"#utility.yul\":10128:10259   */\n      tag_243\n      jump\t// in\n    tag_298:\n        /* \"#utility.yul\":10120:10259   */\n      swap1\n      pop\n        /* \"#utility.yul\":9847:10266   */\n      swap2\n      swap1\n      pop\n      jump\t// out\n        /* \"#utility.yul\":10272:10691   */\n    tag_108:\n        /* \"#utility.yul\":10438:10442   */\n      0x00\n        /* \"#utility.yul\":10476:10478   */\n      0x20\n        /* \"#utility.yul\":10465:10474   */\n      dup3\n        /* \"#utility.yul\":10461:10479   */\n      add\n        /* \"#utility.yul\":10453:10479   */\n      swap1\n      pop\n        /* \"#utility.yul\":10525:10534   */\n      dup2\n        /* \"#utility.yul\":10519:10523   */\n      dup2\n        /* \"#utility.yul\":10515:10535   */\n      sub\n        /* \"#utility.yul\":10511:10512   */\n      0x00\n        /* \"#utility.yul\":10500:10509   */\n      dup4\n        /* \"#utility.yul\":10496:10513   */\n      add\n        /* \"#utility.yul\":10489:10536   */\n      mstore\n        /* \"#utility.yul\":10553:10684   */\n      tag_300\n        /* \"#utility.yul\":10679:10683   */\n      dup2\n        /* \"#utility.yul\":10553:10684   */\n      tag_248\n      jump\t// in\n    tag_300:\n        /* \"#utility.yul\":10545:10684   */\n      swap1\n      pop\n        /* \"#utility.yul\":10272:10691   */\n      swap2\n      swap1\n      pop\n      jump\t// out\n        /* \"#utility.yul\":10697:11116   */\n    tag_114:\n        /* \"#utility.yul\":10863:10867   */\n      0x00\n        /* \"#utility.yul\":10901:10903   */\n      0x20\n        /* \"#utility.yul\":10890:10899   */\n      dup3\n        /* \"#utility.yul\":10886:10904   */\n      add\n        /* \"#utility.yul\":10878:10904   */\n      swap1\n      pop\n        /* \"#utility.yul\":10950:10959   */\n      dup2\n        /* \"#utility.yul\":10944:10948   */\n      dup2\n        /* \"#utility.yul\":10940:10960   */\n      sub\n        /* \"#utility.yul\":10936:10937   */\n      0x00\n        /* \"#utility.yul\":10925:10934   */\n      dup4\n        /* \"#utility.yul\":10921:10938   */\n      add\n        /* \"#utility.yul\":10914:10961   */\n      mstore\n        /* \"#utility.yul\":10978:11109   */\n      tag_302\n        /* \"#utility.yul\":11104:11108   */\n      dup2\n        /* \"#utility.yul\":10978:11109   */\n      tag_258\n      jump\t// in\n    tag_302:\n        /* \"#utility.yul\":10970:11109   */\n      swap1\n      pop\n        /* \"#utility.yul\":10697:11116   */\n      swap2\n      swap1\n      pop\n      jump\t// out\n        /* \"#utility.yul\":11122:11541   */\n    tag_111:\n        /* \"#utility.yul\":11288:11292   */\n      0x00\n        /* \"#utility.yul\":11326:11328   */\n      0x20\n        /* \"#utility.yul\":11315:11324   */\n      dup3\n        /* \"#utility.yul\":11311:11329   */\n      add\n        /* \"#utility.yul\":11303:11329   */\n      swap1\n      pop\n        /* \"#utility.yul\":11375:11384   */\n      dup2\n        /* \"#utility.yul\":11369:11373   */\n      dup2\n        /* \"#utility.yul\":11365:11385   */\n      sub\n        /* \"#utility.yul\":11361:11362   */\n      0x00\n        /* \"#utility.yul\":11350:11359   */\n      dup4\n        /* \"#utility.yul\":11346:11363   */\n      add\n        /* \"#utility.yul\":11339:11386   */\n      mstore\n        /* \"#utility.yul\":11403:11534   */\n      tag_304\n        /* \"#utility.yul\":11529:11533   */\n      dup2\n        /* \"#utility.yul\":11403:11534   */\n      tag_263\n      jump\t// in\n    tag_304:\n        /* \"#utility.yul\":11395:11534   */\n      swap1\n      pop\n        /* \"#utility.yul\":11122:11541   */\n      swap2\n      swap1\n      pop\n      jump\t// out\n        /* \"#utility.yul\":11547:11966   */\n    tag_95:\n        /* \"#utility.yul\":11713:11717   */\n      0x00\n        /* \"#utility.yul\":11751:11753   */\n      0x20\n        /* \"#utility.yul\":11740:11749   */\n      dup3\n        /* \"#utility.yul\":11736:11754   */\n      add\n        /* \"#utility.yul\":11728:11754   */\n      swap1\n      pop\n        /* \"#utility.yul\":11800:11809   */\n      dup2\n        /* \"#utility.yul\":11794:11798   */\n      dup2\n        /* \"#utility.yul\":11790:11810   */\n      sub\n        /* \"#utility.yul\":11786:11787   */\n      0x00\n        /* \"#utility.yul\":11775:11784   */\n      dup4\n        /* \"#utility.yul\":11771:11788   */\n      add\n        /* \"#utility.yul\":11764:11811   */\n      mstore\n        /* \"#utility.yul\":11828:11959   */\n      tag_306\n        /* \"#utility.yul\":11954:11958   */\n      dup2\n        /* \"#utility.yul\":11828:11959   */\n      tag_273\n      jump\t// in\n    tag_306:\n        /* \"#utility.yul\":11820:11959   */\n      swap1\n      pop\n        /* \"#utility.yul\":11547:11966   */\n      swap2\n      swap1\n      pop\n      jump\t// out\n        /* \"#utility.yul\":11972:12194   */\n    tag_45:\n        /* \"#utility.yul\":12065:12069   */\n      0x00\n        /* \"#utility.yul\":12103:12105   */\n      0x20\n        /* \"#utility.yul\":12092:12101   */\n      dup3\n        /* \"#utility.yul\":12088:12106   */\n      add\n        /* \"#utility.yul\":12080:12106   */\n      swap1\n      pop\n        /* \"#utility.yul\":12116:12187   */\n      tag_308\n        /* \"#utility.yul\":12184:12185   */\n      0x00\n        /* \"#utility.yul\":12173:12182   */\n      dup4\n        /* \"#utility.yul\":12169:12186   */\n      add\n        /* \"#utility.yul\":12160:12166   */\n      dup5\n        /* \"#utility.yul\":12116:12187   */\n      tag_278\n      jump\t// in\n    tag_308:\n        /* \"#utility.yul\":11972:12194   */\n      swap3\n      swap2\n      pop\n      pop\n      jump\t// out\n        /* \"#utility.yul\":12281:12380   */\n    tag_220:\n        /* \"#utility.yul\":12333:12339   */\n      0x00\n        /* \"#utility.yul\":12367:12372   */\n      dup2\n        /* \"#utility.yul\":12361:12373   */\n      mload\n        /* \"#utility.yul\":12351:12373   */\n      swap1\n      pop\n        /* \"#utility.yul\":12281:12380   */\n      swap2\n      swap1\n      pop\n      jump\t// out\n        /* \"#utility.yul\":12386:12555   */\n    tag_222:\n        /* \"#utility.yul\":12470:12481   */\n      0x00\n        /* \"#utility.yul\":12504:12510   */\n      dup3\n        /* \"#utility.yul\":12499:12502   */\n      dup3\n        /* \"#utility.yul\":12492:12511   */\n      mstore\n        /* \"#utility.yul\":12544:12548   */\n      0x20\n        /* \"#utility.yul\":12539:12542   */\n      dup3\n        /* \"#utility.yul\":12535:12549   */\n      add\n        /* \"#utility.yul\":12520:12549   */\n      swap1\n      pop\n        /* \"#utility.yul\":12386:12555   */\n      swap3\n      swap2\n      pop\n      pop\n      jump\t// out\n        /* \"#utility.yul\":12561:12709   */\n    tag_231:\n        /* \"#utility.yul\":12663:12674   */\n      0x00\n        /* \"#utility.yul\":12700:12703   */\n      dup2\n        /* \"#utility.yul\":12685:12703   */\n      swap1\n      pop\n        /* \"#utility.yul\":12561:12709   */\n      swap3\n      swap2\n      pop\n      pop\n      jump\t// out\n        /* \"#utility.yul\":12715:13020   */\n    tag_141:\n        /* \"#utility.yul\":12755:12758   */\n      0x00\n        /* \"#utility.yul\":12774:12794   */\n      tag_315\n        /* \"#utility.yul\":12792:12793   */\n      dup3\n        /* \"#utility.yul\":12774:12794   */\n      tag_281\n      jump\t// in\n    tag_315:\n        /* \"#utility.yul\":12769:12794   */\n      swap2\n      pop\n        /* \"#utility.yul\":12808:12828   */\n      tag_316\n        /* \"#utility.yul\":12826:12827   */\n      dup4\n        /* \"#utility.yul\":12808:12828   */\n      tag_281\n      jump\t// in\n    tag_316:\n        /* \"#utility.yul\":12803:12828   */\n      swap3\n      pop\n        /* \"#utility.yul\":12962:12963   */\n      dup3\n        /* \"#utility.yul\":12894:12960   */\n      0xffffffffffffffffffffffffffffffffffffffffffffffffffffffffffffffff\n        /* \"#utility.yul\":12890:12964   */\n      sub\n        /* \"#utility.yul\":12887:12888   */\n      dup3\n        /* \"#utility.yul\":12884:12965   */\n      gt\n        /* \"#utility.yul\":12881:12988   */\n      iszero\n      tag_317\n      jumpi\n        /* \"#utility.yul\":12968:12986   */\n      tag_318\n      tag_319\n      jump\t// in\n    tag_318:\n        /* \"#utility.yul\":12881:12988   */\n    tag_317:\n        /* \"#utility.yul\":13012:13013   */\n      dup3\n        /* \"#utility.yul\":13009:13010   */\n      dup3\n        /* \"#utility.yul\":13005:13014   */\n      add\n        /* \"#utility.yul\":12998:13014   */\n      swap1\n      pop\n        /* \"#utility.yul\":12715:13020   */\n      swap3\n      swap2\n      pop\n      pop\n      jump\t// out\n        /* \"#utility.yul\":13026:13374   */\n    tag_139:\n        /* \"#utility.yul\":13066:13073   */\n      0x00\n        /* \"#utility.yul\":13089:13109   */\n      tag_321\n        /* \"#utility.yul\":13107:13108   */\n      dup3\n        /* \"#utility.yul\":13089:13109   */\n      tag_281\n      jump\t// in\n    tag_321:\n        /* \"#utility.yul\":13084:13109   */\n      swap2\n      pop\n        /* \"#utility.yul\":13123:13143   */\n      tag_322\n        /* \"#utility.yul\":13141:13142   */\n      dup4\n        /* \"#utility.yul\":13123:13143   */\n      tag_281\n      jump\t// in\n    tag_322:\n        /* \"#utility.yul\":13118:13143   */\n      swap3\n      pop\n        /* \"#utility.yul\":13311:13312   */\n      dup2\n        /* \"#utility.yul\":13243:13309   */\n      0xffffffffffffffffffffffffffffffffffffffffffffffffffffffffffffffff\n        /* \"#utility.yul\":13239:13313   */\n      div\n        /* \"#utility.yul\":13236:13237   */\n      dup4\n        /* \"#utility.yul\":13233:13314   */\n      gt\n        /* \"#utility.yul\":13228:13229   */\n      dup3\n        /* \"#utility.yul\":13221:13230   */\n      iszero\n        /* \"#utility.yul\":13214:13231   */\n      iszero\n        /* \"#utility.yul\":13210:13315   */\n      and\n        /* \"#utility.yul\":13207:13338   */\n      iszero\n      tag_323\n      jumpi\n        /* \"#utility.yul\":13318:13336   */\n      tag_324\n      tag_319\n      jump\t// in\n    tag_324:\n        /* \"#utility.yul\":13207:13338   */\n    tag_323:\n        /* \"#utility.yul\":13366:13367   */\n      dup3\n        /* \"#utility.yul\":13363:13364   */\n      dup3\n        /* \"#utility.yul\":13359:13368   */\n      mul\n        /* \"#utility.yul\":13348:13368   */\n      swap1\n      pop\n        /* \"#utility.yul\":13026:13374   */\n      swap3\n      swap2\n      pop\n      pop\n      jump\t// out\n        /* \"#utility.yul\":13380:13476   */\n    tag_325:\n        /* \"#utility.yul\":13417:13424   */\n      0x00\n        /* \"#utility.yul\":13446:13470   */\n      tag_327\n        /* \"#utility.yul\":13464:13469   */\n      dup3\n        /* \"#utility.yul\":13446:13470   */\n      tag_328\n      jump\t// in\n    tag_327:\n        /* \"#utility.yul\":13435:13470   */\n      swap1\n      pop\n        /* \"#utility.yul\":13380:13476   */\n      swap2\n      swap1\n      pop\n      jump\t// out\n        /* \"#utility.yul\":13482:13586   */\n    tag_329:\n        /* \"#utility.yul\":13527:13534   */\n      0x00\n        /* \"#utility.yul\":13556:13580   */\n      tag_331\n        /* \"#utility.yul\":13574:13579   */\n      dup3\n        /* \"#utility.yul\":13556:13580   */\n      tag_328\n      jump\t// in\n    tag_331:\n        /* \"#utility.yul\":13545:13580   */\n      swap1\n      pop\n        /* \"#utility.yul\":13482:13586   */\n      swap2\n      swap1\n      pop\n      jump\t// out\n        /* \"#utility.yul\":13592:13682   */\n    tag_212:\n        /* \"#utility.yul\":13626:13633   */\n      0x00\n        /* \"#utility.yul\":13669:13674   */\n      dup2\n        /* \"#utility.yul\":13662:13675   */\n      iszero\n        /* \"#utility.yul\":13655:13676   */\n      iszero\n        /* \"#utility.yul\":13644:13676   */\n      swap1\n      pop\n        /* \"#utility.yul\":13592:13682   */\n      swap2\n      swap1\n      pop\n      jump\t// out\n        /* \"#utility.yul\":13688:13765   */\n    tag_216:\n        /* \"#utility.yul\":13725:13732   */\n      0x00\n        /* \"#utility.yul\":13754:13759   */\n      dup2\n        /* \"#utility.yul\":13743:13759   */\n      swap1\n      pop\n        /* \"#utility.yul\":13688:13765   */\n      swap2\n      swap1\n      pop\n      jump\t// out\n        /* \"#utility.yul\":13771:13920   */\n    tag_334:\n        /* \"#utility.yul\":13807:13814   */\n      0x00\n        /* \"#utility.yul\":13847:13913   */\n      0xffffffff00000000000000000000000000000000000000000000000000000000\n        /* \"#utility.yul\":13840:13845   */\n      dup3\n        /* \"#utility.yul\":13836:13914   */\n      and\n        /* \"#utility.yul\":13825:13914   */\n      swap1\n      pop\n        /* \"#utility.yul\":13771:13920   */\n      swap2\n      swap1\n      pop\n      jump\t// out\n        /* \"#utility.yul\":13926:14052   */\n    tag_328:\n        /* \"#utility.yul\":13963:13970   */\n      0x00\n        /* \"#utility.yul\":14003:14045   */\n      0xffffffffffffffffffffffffffffffffffffffff\n        /* \"#utility.yul\":13996:14001   */\n      dup3\n        /* \"#utility.yul\":13992:14046   */\n      and\n        /* \"#utility.yul\":13981:14046   */\n      swap1\n      pop\n        /* \"#utility.yul\":13926:14052   */\n      swap2\n      swap1\n      pop\n      jump\t// out\n        /* \"#utility.yul\":14058:14135   */\n    tag_281:\n        /* \"#utility.yul\":14095:14102   */\n      0x00\n        /* \"#utility.yul\":14124:14129   */\n      dup2\n        /* \"#utility.yul\":14113:14129   */\n      swap1\n      pop\n        /* \"#utility.yul\":14058:14135   */\n      swap2\n      swap1\n      pop\n      jump\t// out\n        /* \"#utility.yul\":14141:14448   */\n    tag_224:\n        /* \"#utility.yul\":14209:14210   */\n      0x00\n        /* \"#utility.yul\":14219:14332   */\n    tag_339:\n        /* \"#utility.yul\":14233:14239   */\n      dup4\n        /* \"#utility.yul\":14230:14231   */\n      dup2\n        /* \"#utility.yul\":14227:14240   */\n      lt\n        /* \"#utility.yul\":14219:14332   */\n      iszero\n      tag_341\n      jumpi\n        /* \"#utility.yul\":14318:14319   */\n      dup1\n        /* \"#utility.yul\":14313:14316   */\n      dup3\n        /* \"#utility.yul\":14309:14320   */\n      add\n        /* \"#utility.yul\":14303:14321   */\n      mload\n        /* \"#utility.yul\":14299:14300   */\n      dup2\n        /* \"#utility.yul\":14294:14297   */\n      dup5\n        /* \"#utility.yul\":14290:14301   */\n      add\n        /* \"#utility.yul\":14283:14322   */\n      mstore\n        /* \"#utility.yul\":14255:14257   */\n      0x20\n        /* \"#utility.yul\":14252:14253   */\n      dup2\n        /* \"#utility.yul\":14248:14258   */\n      add\n        /* \"#utility.yul\":14243:14258   */\n      swap1\n      pop\n        /* \"#utility.yul\":14219:14332   */\n      jump(tag_339)\n    tag_341:\n        /* \"#utility.yul\":14350:14356   */\n      dup4\n        /* \"#utility.yul\":14347:14348   */\n      dup2\n        /* \"#utility.yul\":14344:14357   */\n      gt\n        /* \"#utility.yul\":14341:14442   */\n      iszero\n      tag_342\n      jumpi\n        /* \"#utility.yul\":14430:14431   */\n      0x00\n        /* \"#utility.yul\":14421:14427   */\n      dup5\n        /* \"#utility.yul\":14416:14419   */\n      dup5\n        /* \"#utility.yul\":14412:14428   */\n      add\n        /* \"#utility.yul\":14405:14432   */\n      mstore\n        /* \"#utility.yul\":14341:14442   */\n    tag_342:\n        /* \"#utility.yul\":14190:14448   */\n      pop\n        /* \"#utility.yul\":14141:14448   */\n      pop\n      pop\n      pop\n      jump\t// out\n        /* \"#utility.yul\":14454:14625   */\n    tag_161:\n        /* \"#utility.yul\":14493:14496   */\n      0x00\n        /* \"#utility.yul\":14516:14540   */\n      tag_344\n        /* \"#utility.yul\":14534:14539   */\n      dup3\n        /* \"#utility.yul\":14516:14540   */\n      tag_281\n      jump\t// in\n    tag_344:\n        /* \"#utility.yul\":14507:14540   */\n      swap2\n      pop\n        /* \"#utility.yul\":14562:14566   */\n      0x00\n        /* \"#utility.yul\":14555:14560   */\n      dup3\n        /* \"#utility.yul\":14552:14567   */\n      eq\n        /* \"#utility.yul\":14549:14590   */\n      iszero\n      tag_345\n      jumpi\n        /* \"#utility.yul\":14570:14588   */\n      tag_346\n      tag_319\n      jump\t// in\n    tag_346:\n        /* \"#utility.yul\":14549:14590   */\n    tag_345:\n        /* \"#utility.yul\":14617:14618   */\n      0x01\n        /* \"#utility.yul\":14610:14615   */\n      dup3\n        /* \"#utility.yul\":14606:14619   */\n      sub\n        /* \"#utility.yul\":14599:14619   */\n      swap1\n      pop\n        /* \"#utility.yul\":14454:14625   */\n      swap2\n      swap1\n      pop\n      jump\t// out\n        /* \"#utility.yul\":14631:14864   */\n    tag_116:\n        /* \"#utility.yul\":14670:14673   */\n      0x00\n        /* \"#utility.yul\":14693:14717   */\n      tag_348\n        /* \"#utility.yul\":14711:14716   */\n      dup3\n        /* \"#utility.yul\":14693:14717   */\n      tag_281\n      jump\t// in\n    tag_348:\n        /* \"#utility.yul\":14684:14717   */\n      swap2\n      pop\n        /* \"#utility.yul\":14739:14805   */\n      0xffffffffffffffffffffffffffffffffffffffffffffffffffffffffffffffff\n        /* \"#utility.yul\":14732:14737   */\n      dup3\n        /* \"#utility.yul\":14729:14806   */\n      eq\n        /* \"#utility.yul\":14726:14829   */\n      iszero\n      tag_349\n      jumpi\n        /* \"#utility.yul\":14809:14827   */\n      tag_350\n      tag_319\n      jump\t// in\n    tag_350:\n        /* \"#utility.yul\":14726:14829   */\n    tag_349:\n        /* \"#utility.yul\":14856:14857   */\n      0x01\n        /* \"#utility.yul\":14849:14854   */\n      dup3\n        /* \"#utility.yul\":14845:14858   */\n      add\n        /* \"#utility.yul\":14838:14858   */\n      swap1\n      pop\n        /* \"#utility.yul\":14631:14864   */\n      swap2\n      swap1\n      pop\n      jump\t// out\n        /* \"#utility.yul\":14870:15050   */\n    tag_319:\n        /* \"#utility.yul\":14918:14995   */\n      0x4e487b7100000000000000000000000000000000000000000000000000000000\n        /* \"#utility.yul\":14915:14916   */\n      0x00\n        /* \"#utility.yul\":14908:14996   */\n      mstore\n        /* \"#utility.yul\":15015:15019   */\n      0x11\n        /* \"#utility.yul\":15012:15013   */\n      0x04\n        /* \"#utility.yul\":15005:15020   */\n      mstore\n        /* \"#utility.yul\":15039:15043   */\n      0x24\n        /* \"#utility.yul\":15036:15037   */\n      0x00\n        /* \"#utility.yul\":15029:15044   */\n      revert\n        /* \"#utility.yul\":15056:15236   */\n    tag_148:\n        /* \"#utility.yul\":15104:15181   */\n      0x4e487b7100000000000000000000000000000000000000000000000000000000\n        /* \"#utility.yul\":15101:15102   */\n      0x00\n        /* \"#utility.yul\":15094:15182   */\n      mstore\n        /* \"#utility.yul\":15201:15205   */\n      0x32\n        /* \"#utility.yul\":15198:15199   */\n      0x04\n        /* \"#utility.yul\":15191:15206   */\n      mstore\n        /* \"#utility.yul\":15225:15229   */\n      0x24\n        /* \"#utility.yul\":15222:15223   */\n      0x00\n        /* \"#utility.yul\":15215:15230   */\n      revert\n        /* \"#utility.yul\":15242:15422   */\n    tag_144:\n        /* \"#utility.yul\":15290:15367   */\n      0x4e487b7100000000000000000000000000000000000000000000000000000000\n        /* \"#utility.yul\":15287:15288   */\n      0x00\n        /* \"#utility.yul\":15280:15368   */\n      mstore\n        /* \"#utility.yul\":15387:15391   */\n      0x41\n        /* \"#utility.yul\":15384:15385   */\n      0x04\n        /* \"#utility.yul\":15377:15392   */\n      mstore\n        /* \"#utility.yul\":15411:15415   */\n      0x24\n        /* \"#utility.yul\":15408:15409   */\n      0x00\n        /* \"#utility.yul\":15401:15416   */\n      revert\n        /* \"#utility.yul\":15551:15668   */\n    tag_189:\n        /* \"#utility.yul\":15660:15661   */\n      0x00\n        /* \"#utility.yul\":15657:15658   */\n      dup1\n        /* \"#utility.yul\":15650:15662   */\n      revert\n        /* \"#utility.yul\":15674:15776   */\n    tag_226:\n        /* \"#utility.yul\":15715:15721   */\n      0x00\n        /* \"#utility.yul\":15766:15768   */\n      0x1f\n        /* \"#utility.yul\":15762:15769   */\n      not\n        /* \"#utility.yul\":15757:15759   */\n      0x1f\n        /* \"#utility.yul\":15750:15755   */\n      dup4\n        /* \"#utility.yul\":15746:15760   */\n      add\n        /* \"#utility.yul\":15742:15770   */\n      and\n        /* \"#utility.yul\":15732:15770   */\n      swap1\n      pop\n        /* \"#utility.yul\":15674:15776   */\n      swap2\n      swap1\n      pop\n      jump\t// out\n        /* \"#utility.yul\":15782:15964   */\n    tag_237:\n        /* \"#utility.yul\":15922:15956   */\n      0x537472696e67733a20686578206c656e67746820696e73756666696369656e74\n        /* \"#utility.yul\":15918:15919   */\n      0x00\n        /* \"#utility.yul\":15910:15916   */\n      dup3\n        /* \"#utility.yul\":15906:15920   */\n      add\n        /* \"#utility.yul\":15899:15957   */\n      mstore\n        /* \"#utility.yul\":15782:15964   */\n      pop\n      jump\t// out\n        /* \"#utility.yul\":15970:16140   */\n    tag_242:\n        /* \"#utility.yul\":16110:16132   */\n      0x507269636520646f6573206e6f74206d61746368000000000000000000000000\n        /* \"#utility.yul\":16106:16107   */\n      0x00\n        /* \"#utility.yul\":16098:16104   */\n      dup3\n        /* \"#utility.yul\":16094:16108   */\n      add\n        /* \"#utility.yul\":16087:16133   */\n      mstore\n        /* \"#utility.yul\":15970:16140   */\n      pop\n      jump\t// out\n        /* \"#utility.yul\":16146:16316   */\n    tag_247:\n        /* \"#utility.yul\":16286:16308   */\n      0x4974656d20697320616c726561647920736f6c64000000000000000000000000\n        /* \"#utility.yul\":16282:16283   */\n      0x00\n        /* \"#utility.yul\":16274:16280   */\n      dup3\n        /* \"#utility.yul\":16270:16284   */\n      add\n        /* \"#utility.yul\":16263:16309   */\n      mstore\n        /* \"#utility.yul\":16146:16316   */\n      pop\n      jump\t// out\n        /* \"#utility.yul\":16322:16549   */\n    tag_252:\n        /* \"#utility.yul\":16462:16496   */\n      0x4f6e6c79207468652073656c6c65722063616e206372656174652061206d6172\n        /* \"#utility.yul\":16458:16459   */\n      0x00\n        /* \"#utility.yul\":16450:16456   */\n      dup3\n        /* \"#utility.yul\":16446:16460   */\n      add\n        /* \"#utility.yul\":16439:16497   */\n      mstore\n        /* \"#utility.yul\":16531:16541   */\n      0x6b6574206974656d000000000000000000000000000000000000000000000000\n        /* \"#utility.yul\":16526:16528   */\n      0x20\n        /* \"#utility.yul\":16518:16524   */\n      dup3\n        /* \"#utility.yul\":16514:16529   */\n      add\n        /* \"#utility.yul\":16507:16542   */\n      mstore\n        /* \"#utility.yul\":16322:16549   */\n      pop\n      jump\t// out\n        /* \"#utility.yul\":16555:16728   */\n    tag_257:\n        /* \"#utility.yul\":16695:16720   */\n      0x416363657373436f6e74726f6c3a206163636f756e7420000000000000000000\n        /* \"#utility.yul\":16691:16692   */\n      0x00\n        /* \"#utility.yul\":16683:16689   */\n      dup3\n        /* \"#utility.yul\":16679:16693   */\n      add\n        /* \"#utility.yul\":16672:16721   */\n      mstore\n        /* \"#utility.yul\":16555:16728   */\n      pop\n      jump\t// out\n        /* \"#utility.yul\":16734:16901   */\n    tag_262:\n        /* \"#utility.yul\":16874:16893   */\n      0x4974656d20616c726561647920736f6c64000000000000000000000000000000\n        /* \"#utility.yul\":16870:16871   */\n      0x00\n        /* \"#utility.yul\":16862:16868   */\n      dup3\n        /* \"#utility.yul\":16858:16872   */\n      add\n        /* \"#utility.yul\":16851:16894   */\n      mstore\n        /* \"#utility.yul\":16734:16901   */\n      pop\n      jump\t// out\n        /* \"#utility.yul\":16907:17085   */\n    tag_267:\n        /* \"#utility.yul\":17047:17077   */\n      0x5072696365206d7573742062652067726561746572207468616e203000000000\n        /* \"#utility.yul\":17043:17044   */\n      0x00\n        /* \"#utility.yul\":17035:17041   */\n      dup3\n        /* \"#utility.yul\":17031:17045   */\n      add\n        /* \"#utility.yul\":17024:17078   */\n      mstore\n        /* \"#utility.yul\":16907:17085   */\n      pop\n      jump\t// out\n        /* \"#utility.yul\":17091:17258   */\n    tag_272:\n        /* \"#utility.yul\":17231:17250   */\n      0x206973206d697373696e6720726f6c6520000000000000000000000000000000\n        /* \"#utility.yul\":17227:17228   */\n      0x00\n        /* \"#utility.yul\":17219:17225   */\n      dup3\n        /* \"#utility.yul\":17215:17229   */\n      add\n        /* \"#utility.yul\":17208:17251   */\n      mstore\n        /* \"#utility.yul\":17091:17258   */\n      pop\n      jump\t// out\n        /* \"#utility.yul\":17264:17498   */\n    tag_277:\n        /* \"#utility.yul\":17404:17438   */\n      0x416363657373436f6e74726f6c3a2063616e206f6e6c792072656e6f756e6365\n        /* \"#utility.yul\":17400:17401   */\n      0x00\n        /* \"#utility.yul\":17392:17398   */\n      dup3\n        /* \"#utility.yul\":17388:17402   */\n      add\n        /* \"#utility.yul\":17381:17439   */\n      mstore\n        /* \"#utility.yul\":17473:17490   */\n      0x20726f6c657320666f722073656c660000000000000000000000000000000000\n        /* \"#utility.yul\":17468:17470   */\n      0x20\n        /* \"#utility.yul\":17460:17466   */\n      dup3\n        /* \"#utility.yul\":17456:17471   */\n      add\n        /* \"#utility.yul\":17449:17491   */\n      mstore\n        /* \"#utility.yul\":17264:17498   */\n      pop\n      jump\t// out\n        /* \"#utility.yul\":17504:17626   */\n    tag_169:\n        /* \"#utility.yul\":17577:17601   */\n      tag_368\n        /* \"#utility.yul\":17595:17600   */\n      dup2\n        /* \"#utility.yul\":17577:17601   */\n      tag_325\n      jump\t// in\n    tag_368:\n        /* \"#utility.yul\":17570:17575   */\n      dup2\n        /* \"#utility.yul\":17567:17602   */\n      eq\n        /* \"#utility.yul\":17557:17620   */\n      tag_369\n      jumpi\n        /* \"#utility.yul\":17616:17617   */\n      0x00\n        /* \"#utility.yul\":17613:17614   */\n      dup1\n        /* \"#utility.yul\":17606:17618   */\n      revert\n        /* \"#utility.yul\":17557:17620   */\n    tag_369:\n        /* \"#utility.yul\":17504:17626   */\n      pop\n      jump\t// out\n        /* \"#utility.yul\":17632:17770   */\n    tag_173:\n        /* \"#utility.yul\":17713:17745   */\n      tag_371\n        /* \"#utility.yul\":17739:17744   */\n      dup2\n        /* \"#utility.yul\":17713:17745   */\n      tag_329\n      jump\t// in\n    tag_371:\n        /* \"#utility.yul\":17706:17711   */\n      dup2\n        /* \"#utility.yul\":17703:17746   */\n      eq\n        /* \"#utility.yul\":17693:17764   */\n      tag_372\n      jumpi\n        /* \"#utility.yul\":17760:17761   */\n      0x00\n        /* \"#utility.yul\":17757:17758   */\n      dup1\n        /* \"#utility.yul\":17750:17762   */\n      revert\n        /* \"#utility.yul\":17693:17764   */\n    tag_372:\n        /* \"#utility.yul\":17632:17770   */\n      pop\n      jump\t// out\n        /* \"#utility.yul\":17776:17898   */\n    tag_177:\n        /* \"#utility.yul\":17849:17873   */\n      tag_374\n        /* \"#utility.yul\":17867:17872   */\n      dup2\n        /* \"#utility.yul\":17849:17873   */\n      tag_216\n      jump\t// in\n    tag_374:\n        /* \"#utility.yul\":17842:17847   */\n      dup2\n        /* \"#utility.yul\":17839:17874   */\n      eq\n        /* \"#utility.yul\":17829:17892   */\n      tag_375\n      jumpi\n        /* \"#utility.yul\":17888:17889   */\n      0x00\n        /* \"#utility.yul\":17885:17886   */\n      dup1\n        /* \"#utility.yul\":17878:17890   */\n      revert\n        /* \"#utility.yul\":17829:17892   */\n    tag_375:\n        /* \"#utility.yul\":17776:17898   */\n      pop\n      jump\t// out\n        /* \"#utility.yul\":17904:18024   */\n    tag_181:\n        /* \"#utility.yul\":17976:17999   */\n      tag_377\n        /* \"#utility.yul\":17993:17998   */\n      dup2\n        /* \"#utility.yul\":17976:17999   */\n      tag_334\n      jump\t// in\n    tag_377:\n        /* \"#utility.yul\":17969:17974   */\n      dup2\n        /* \"#utility.yul\":17966:18000   */\n      eq\n        /* \"#utility.yul\":17956:18018   */\n      tag_378\n      jumpi\n        /* \"#utility.yul\":18014:18015   */\n      0x00\n        /* \"#utility.yul\":18011:18012   */\n      dup1\n        /* \"#utility.yul\":18004:18016   */\n      revert\n        /* \"#utility.yul\":17956:18018   */\n    tag_378:\n        /* \"#utility.yul\":17904:18024   */\n      pop\n      jump\t// out\n        /* \"#utility.yul\":18030:18152   */\n    tag_185:\n        /* \"#utility.yul\":18103:18127   */\n      tag_380\n        /* \"#utility.yul\":18121:18126   */\n      dup2\n        /* \"#utility.yul\":18103:18127   */\n      tag_281\n      jump\t// in\n    tag_380:\n        /* \"#utility.yul\":18096:18101   */\n      dup2\n        /* \"#utility.yul\":18093:18128   */\n      eq\n        /* \"#utility.yul\":18083:18146   */\n      tag_381\n      jumpi\n        /* \"#utility.yul\":18142:18143   */\n      0x00\n        /* \"#utility.yul\":18139:18140   */\n      dup1\n        /* \"#utility.yul\":18132:18144   */\n      revert\n        /* \"#utility.yul\":18083:18146   */\n    tag_381:\n        /* \"#utility.yul\":18030:18152   */\n      pop\n      jump\t// out\n\n    auxdata: 0xa26469706673582212205ce794c1239f65362354073ab0ae8abc9864c0377cb16069e3a5ef37eadcf35264736f6c63430008070033\n}\n",
				"bytecode": {
					"linkReferences": {},
					"object": "6080604052600060015534801561001557600080fd5b506100467f1f9ca85e780b3b3cfbe1334ca9dd68802db7860f692bd163c796bb76d464edc03361004b60201b60201c565b6101a9565b61005b828261013760201b60201c565b61013357600160008084815260200190815260200160002060000160008373ffffffffffffffffffffffffffffffffffffffff1673ffffffffffffffffffffffffffffffffffffffff16815260200190815260200160002060006101000a81548160ff0219169083151502179055506100d86101a160201b60201c565b73ffffffffffffffffffffffffffffffffffffffff168173ffffffffffffffffffffffffffffffffffffffff16837f2f8788117e7eff1d82e926ec794901d17c78024a50270940304540a733656f0d60405160405180910390a45b5050565b600080600084815260200190815260200160002060000160008373ffffffffffffffffffffffffffffffffffffffff1673ffffffffffffffffffffffffffffffffffffffff16815260200190815260200160002060009054906101000a900460ff16905092915050565b600033905090565b611706806101b86000396000f3fe60806040526004361061009c5760003560e01c80636a868974116100645780636a8689741461018957806391d14854146101b4578063a217fddf146101f1578063b491efa01461021c578063d547741f14610247578063dd5f8518146102705761009c565b806301ffc9a7146100a1578063248a9ca3146100de5780632f2ff15d1461011b578063351901c31461014457806336568abe14610160575b600080fd5b3480156100ad57600080fd5b506100c860048036038101906100c39190610e37565b610299565b6040516100d5919061109d565b60405180910390f35b3480156100ea57600080fd5b5061010560048036038101906101009190610dca565b610313565b60405161011291906110b8565b60405180910390f35b34801561012757600080fd5b50610142600480360381019061013d9190610df7565b610332565b005b61015e60048036038101906101599190610e64565b61035b565b005b34801561016c57600080fd5b5061018760048036038101906101829190610df7565b6104cc565b005b34801561019557600080fd5b5061019e61054f565b6040516101ab91906111d5565b60405180910390f35b3480156101c057600080fd5b506101db60048036038101906101d69190610df7565b610555565b6040516101e8919061109d565b60405180910390f35b3480156101fd57600080fd5b506102066105bf565b60405161021391906110b8565b60405180910390f35b34801561022857600080fd5b506102316105c6565b60405161023e91906110b8565b60405180910390f35b34801561025357600080fd5b5061026e60048036038101906102699190610df7565b6105ea565b005b34801561027c57600080fd5b5061029760048036038101906102929190610d8a565b610613565b005b60007f7965db0b000000000000000000000000000000000000000000000000000000007bffffffffffffffffffffffffffffffffffffffffffffffffffffffff1916827bffffffffffffffffffffffffffffffffffffffffffffffffffffffff1916148061030c575061030b82610815565b5b9050919050565b6000806000838152602001908152602001600020600101549050919050565b61033b82610313565b61034c8161034761087f565b610887565b6103568383610924565b505050565b600015156002600083815260200190815260200160002060030160009054906101000a900460ff161515146103c5576040517f08c379a00000000000000000000000000000000000000000000000000000000081526004016103bc90611135565b60405180910390fd5b3460026000838152602001908152602001600020600201541461041d576040517f08c379a000000000000000000000000000000000000000000000000000000000815260040161041490611115565b60405180910390fd5b60016002600083815260200190815260200160002060030160006101000a81548160ff0219169083151502179055506002600082815260200190815260200160002060010160009054906101000a900473ffffffffffffffffffffffffffffffffffffffff1673ffffffffffffffffffffffffffffffffffffffff166108fc349081150290604051600060405180830381858888f193505050501580156104c8573d6000803e3d6000fd5b5050565b6104d461087f565b73ffffffffffffffffffffffffffffffffffffffff168173ffffffffffffffffffffffffffffffffffffffff1614610541576040517f08c379a0000000000000000000000000000000000000000000000000000000008152600401610538906111b5565b60405180910390fd5b61054b8282610a04565b5050565b60015481565b600080600084815260200190815260200160002060000160008373ffffffffffffffffffffffffffffffffffffffff1673ffffffffffffffffffffffffffffffffffffffff16815260200190815260200160002060009054906101000a900460ff16905092915050565b6000801b81565b7f1f9ca85e780b3b3cfbe1334ca9dd68802db7860f692bd163c796bb76d464edc081565b6105f382610313565b610604816105ff61087f565b610887565b61060e8383610a04565b505050565b8173ffffffffffffffffffffffffffffffffffffffff163373ffffffffffffffffffffffffffffffffffffffff1614610681576040517f08c379a000000000000000000000000000000000000000000000000000000000815260040161067890611155565b60405180910390fd5b600081116106c4576040517f08c379a00000000000000000000000000000000000000000000000000000000081526004016106bb90611195565b60405180910390fd5b60026000600154815260200190815260200160002060030160009054906101000a900460ff161561072a576040517f08c379a000000000000000000000000000000000000000000000000000000000815260040161072190611175565b60405180910390fd5b604051806080016040528060015481526020018373ffffffffffffffffffffffffffffffffffffffff168152602001828152602001600015158152506002600060015481526020019081526020016000206000820151816000015560208201518160010160006101000a81548173ffffffffffffffffffffffffffffffffffffffff021916908373ffffffffffffffffffffffffffffffffffffffff1602179055506040820151816002015560608201518160030160006101000a81548160ff0219169083151502179055509050506001600081548092919061080c906113b4565b91905055505050565b60007f01ffc9a7000000000000000000000000000000000000000000000000000000007bffffffffffffffffffffffffffffffffffffffffffffffffffffffff1916827bffffffffffffffffffffffffffffffffffffffffffffffffffffffff1916149050919050565b600033905090565b6108918282610555565b610920576108b68173ffffffffffffffffffffffffffffffffffffffff166014610ae5565b6108c48360001c6020610ae5565b6040516020016108d5929190611063565b6040516020818303038152906040526040517f08c379a000000000000000000000000000000000000000000000000000000000815260040161091791906110d3565b60405180910390fd5b5050565b61092e8282610555565b610a0057600160008084815260200190815260200160002060000160008373ffffffffffffffffffffffffffffffffffffffff1673ffffffffffffffffffffffffffffffffffffffff16815260200190815260200160002060006101000a81548160ff0219169083151502179055506109a561087f565b73ffffffffffffffffffffffffffffffffffffffff168173ffffffffffffffffffffffffffffffffffffffff16837f2f8788117e7eff1d82e926ec794901d17c78024a50270940304540a733656f0d60405160405180910390a45b5050565b610a0e8282610555565b15610ae157600080600084815260200190815260200160002060000160008373ffffffffffffffffffffffffffffffffffffffff1673ffffffffffffffffffffffffffffffffffffffff16815260200190815260200160002060006101000a81548160ff021916908315150217905550610a8661087f565b73ffffffffffffffffffffffffffffffffffffffff168173ffffffffffffffffffffffffffffffffffffffff16837ff6391f5c32d9c69d2a47ea670b442974b53935d1edc7fd64eb21e047a839171b60405160405180910390a45b5050565b606060006002836002610af8919061126d565b610b029190611217565b67ffffffffffffffff811115610b1b57610b1a61145b565b5b6040519080825280601f01601f191660200182016040528015610b4d5781602001600182028036833780820191505090505b5090507f300000000000000000000000000000000000000000000000000000000000000081600081518110610b8557610b8461142c565b5b60200101907effffffffffffffffffffffffffffffffffffffffffffffffffffffffffffff1916908160001a9053507f780000000000000000000000000000000000000000000000000000000000000081600181518110610be957610be861142c565b5b60200101907effffffffffffffffffffffffffffffffffffffffffffffffffffffffffffff1916908160001a90535060006001846002610c29919061126d565b610c339190611217565b90505b6001811115610cd3577f3031323334353637383961626364656600000000000000000000000000000000600f861660108110610c7557610c7461142c565b5b1a60f81b828281518110610c8c57610c8b61142c565b5b60200101907effffffffffffffffffffffffffffffffffffffffffffffffffffffffffffff1916908160001a905350600485901c945080610ccc9061138a565b9050610c36565b5060008414610d17576040517f08c379a0000000000000000000000000000000000000000000000000000000008152600401610d0e906110f5565b60405180910390fd5b8091505092915050565b600081359050610d308161165d565b92915050565b600081359050610d4581611674565b92915050565b600081359050610d5a8161168b565b92915050565b600081359050610d6f816116a2565b92915050565b600081359050610d84816116b9565b92915050565b60008060408385031215610da157610da061148a565b5b6000610daf85828601610d36565b9250506020610dc085828601610d75565b9150509250929050565b600060208284031215610de057610ddf61148a565b5b6000610dee84828501610d4b565b91505092915050565b60008060408385031215610e0e57610e0d61148a565b5b6000610e1c85828601610d4b565b9250506020610e2d85828601610d21565b9150509250929050565b600060208284031215610e4d57610e4c61148a565b5b6000610e5b84828501610d60565b91505092915050565b600060208284031215610e7a57610e7961148a565b5b6000610e8884828501610d75565b91505092915050565b610e9a816112eb565b82525050565b610ea9816112f7565b82525050565b6000610eba826111f0565b610ec481856111fb565b9350610ed4818560208601611357565b610edd8161148f565b840191505092915050565b6000610ef3826111f0565b610efd818561120c565b9350610f0d818560208601611357565b80840191505092915050565b6000610f266020836111fb565b9150610f31826114a0565b602082019050919050565b6000610f496014836111fb565b9150610f54826114c9565b602082019050919050565b6000610f6c6014836111fb565b9150610f77826114f2565b602082019050919050565b6000610f8f6028836111fb565b9150610f9a8261151b565b604082019050919050565b6000610fb260178361120c565b9150610fbd8261156a565b601782019050919050565b6000610fd56011836111fb565b9150610fe082611593565b602082019050919050565b6000610ff8601c836111fb565b9150611003826115bc565b602082019050919050565b600061101b60118361120c565b9150611026826115e5565b601182019050919050565b600061103e602f836111fb565b91506110498261160e565b604082019050919050565b61105d8161134d565b82525050565b600061106e82610fa5565b915061107a8285610ee8565b91506110858261100e565b91506110918284610ee8565b91508190509392505050565b60006020820190506110b26000830184610e91565b92915050565b60006020820190506110cd6000830184610ea0565b92915050565b600060208201905081810360008301526110ed8184610eaf565b905092915050565b6000602082019050818103600083015261110e81610f19565b9050919050565b6000602082019050818103600083015261112e81610f3c565b9050919050565b6000602082019050818103600083015261114e81610f5f565b9050919050565b6000602082019050818103600083015261116e81610f82565b9050919050565b6000602082019050818103600083015261118e81610fc8565b9050919050565b600060208201905081810360008301526111ae81610feb565b9050919050565b600060208201905081810360008301526111ce81611031565b9050919050565b60006020820190506111ea6000830184611054565b92915050565b600081519050919050565b600082825260208201905092915050565b600081905092915050565b60006112228261134d565b915061122d8361134d565b9250827fffffffffffffffffffffffffffffffffffffffffffffffffffffffffffffffff03821115611262576112616113fd565b5b828201905092915050565b60006112788261134d565b91506112838361134d565b9250817fffffffffffffffffffffffffffffffffffffffffffffffffffffffffffffffff04831182151516156112bc576112bb6113fd565b5b828202905092915050565b60006112d28261132d565b9050919050565b60006112e48261132d565b9050919050565b60008115159050919050565b6000819050919050565b60007fffffffff0000000000000000000000000000000000000000000000000000000082169050919050565b600073ffffffffffffffffffffffffffffffffffffffff82169050919050565b6000819050919050565b60005b8381101561137557808201518184015260208101905061135a565b83811115611384576000848401525b50505050565b60006113958261134d565b915060008214156113a9576113a86113fd565b5b600182039050919050565b60006113bf8261134d565b91507fffffffffffffffffffffffffffffffffffffffffffffffffffffffffffffffff8214156113f2576113f16113fd565b5b600182019050919050565b7f4e487b7100000000000000000000000000000000000000000000000000000000600052601160045260246000fd5b7f4e487b7100000000000000000000000000000000000000000000000000000000600052603260045260246000fd5b7f4e487b7100000000000000000000000000000000000000000000000000000000600052604160045260246000fd5b600080fd5b6000601f19601f8301169050919050565b7f537472696e67733a20686578206c656e67746820696e73756666696369656e74600082015250565b7f507269636520646f6573206e6f74206d61746368000000000000000000000000600082015250565b7f4974656d20697320616c726561647920736f6c64000000000000000000000000600082015250565b7f4f6e6c79207468652073656c6c65722063616e206372656174652061206d617260008201527f6b6574206974656d000000000000000000000000000000000000000000000000602082015250565b7f416363657373436f6e74726f6c3a206163636f756e7420000000000000000000600082015250565b7f4974656d20616c726561647920736f6c64000000000000000000000000000000600082015250565b7f5072696365206d7573742062652067726561746572207468616e203000000000600082015250565b7f206973206d697373696e6720726f6c6520000000000000000000000000000000600082015250565b7f416363657373436f6e74726f6c3a2063616e206f6e6c792072656e6f756e636560008201527f20726f6c657320666f722073656c660000000000000000000000000000000000602082015250565b611666816112c7565b811461167157600080fd5b50565b61167d816112d9565b811461168857600080fd5b50565b611694816112f7565b811461169f57600080fd5b50565b6116ab81611301565b81146116b657600080fd5b50565b6116c28161134d565b81146116cd57600080fd5b5056fea26469706673582212205ce794c1239f65362354073ab0ae8abc9864c0377cb16069e3a5ef37eadcf35264736f6c63430008070033",
					"opcodes": "PUSH1 0x80 PUSH1 0x40 MSTORE PUSH1 0x0 PUSH1 0x1 SSTORE CALLVALUE DUP1 ISZERO PUSH2 0x15 JUMPI PUSH1 0x0 DUP1 REVERT JUMPDEST POP PUSH2 0x46 PUSH32 0x1F9CA85E780B3B3CFBE1334CA9DD68802DB7860F692BD163C796BB76D464EDC0 CALLER PUSH2 0x4B PUSH1 0x20 SHL PUSH1 0x20 SHR JUMP JUMPDEST PUSH2 0x1A9 JUMP JUMPDEST PUSH2 0x5B DUP3 DUP3 PUSH2 0x137 PUSH1 0x20 SHL PUSH1 0x20 SHR JUMP JUMPDEST PUSH2 0x133 JUMPI PUSH1 0x1 PUSH1 0x0 DUP1 DUP5 DUP2 MSTORE PUSH1 0x20 ADD SWAP1 DUP2 MSTORE PUSH1 0x20 ADD PUSH1 0x0 KECCAK256 PUSH1 0x0 ADD PUSH1 0x0 DUP4 PUSH20 0xFFFFFFFFFFFFFFFFFFFFFFFFFFFFFFFFFFFFFFFF AND PUSH20 0xFFFFFFFFFFFFFFFFFFFFFFFFFFFFFFFFFFFFFFFF AND DUP2 MSTORE PUSH1 0x20 ADD SWAP1 DUP2 MSTORE PUSH1 0x20 ADD PUSH1 0x0 KECCAK256 PUSH1 0x0 PUSH2 0x100 EXP DUP2 SLOAD DUP2 PUSH1 0xFF MUL NOT AND SWAP1 DUP4 ISZERO ISZERO MUL OR SWAP1 SSTORE POP PUSH2 0xD8 PUSH2 0x1A1 PUSH1 0x20 SHL PUSH1 0x20 SHR JUMP JUMPDEST PUSH20 0xFFFFFFFFFFFFFFFFFFFFFFFFFFFFFFFFFFFFFFFF AND DUP2 PUSH20 0xFFFFFFFFFFFFFFFFFFFFFFFFFFFFFFFFFFFFFFFF AND DUP4 PUSH32 0x2F8788117E7EFF1D82E926EC794901D17C78024A50270940304540A733656F0D PUSH1 0x40 MLOAD PUSH1 0x40 MLOAD DUP1 SWAP2 SUB SWAP1 LOG4 JUMPDEST POP POP JUMP JUMPDEST PUSH1 0x0 DUP1 PUSH1 0x0 DUP5 DUP2 MSTORE PUSH1 0x20 ADD SWAP1 DUP2 MSTORE PUSH1 0x20 ADD PUSH1 0x0 KECCAK256 PUSH1 0x0 ADD PUSH1 0x0 DUP4 PUSH20 0xFFFFFFFFFFFFFFFFFFFFFFFFFFFFFFFFFFFFFFFF AND PUSH20 0xFFFFFFFFFFFFFFFFFFFFFFFFFFFFFFFFFFFFFFFF AND DUP2 MSTORE PUSH1 0x20 ADD SWAP1 DUP2 MSTORE PUSH1 0x20 ADD PUSH1 0x0 KECCAK256 PUSH1 0x0 SWAP1 SLOAD SWAP1 PUSH2 0x100 EXP SWAP1 DIV PUSH1 0xFF AND SWAP1 POP SWAP3 SWAP2 POP POP JUMP JUMPDEST PUSH1 0x0 CALLER SWAP1 POP SWAP1 JUMP JUMPDEST PUSH2 0x1706 DUP1 PUSH2 0x1B8 PUSH1 0x0 CODECOPY PUSH1 0x0 RETURN INVALID PUSH1 0x80 PUSH1 0x40 MSTORE PUSH1 0x4 CALLDATASIZE LT PUSH2 0x9C JUMPI PUSH1 0x0 CALLDATALOAD PUSH1 0xE0 SHR DUP1 PUSH4 0x6A868974 GT PUSH2 0x64 JUMPI DUP1 PUSH4 0x6A868974 EQ PUSH2 0x189 JUMPI DUP1 PUSH4 0x91D14854 EQ PUSH2 0x1B4 JUMPI DUP1 PUSH4 0xA217FDDF EQ PUSH2 0x1F1 JUMPI DUP1 PUSH4 0xB491EFA0 EQ PUSH2 0x21C JUMPI DUP1 PUSH4 0xD547741F EQ PUSH2 0x247 JUMPI DUP1 PUSH4 0xDD5F8518 EQ PUSH2 0x270 JUMPI PUSH2 0x9C JUMP JUMPDEST DUP1 PUSH4 0x1FFC9A7 EQ PUSH2 0xA1 JUMPI DUP1 PUSH4 0x248A9CA3 EQ PUSH2 0xDE JUMPI DUP1 PUSH4 0x2F2FF15D EQ PUSH2 0x11B JUMPI DUP1 PUSH4 0x351901C3 EQ PUSH2 0x144 JUMPI DUP1 PUSH4 0x36568ABE EQ PUSH2 0x160 JUMPI JUMPDEST PUSH1 0x0 DUP1 REVERT JUMPDEST CALLVALUE DUP1 ISZERO PUSH2 0xAD JUMPI PUSH1 0x0 DUP1 REVERT JUMPDEST POP PUSH2 0xC8 PUSH1 0x4 DUP1 CALLDATASIZE SUB DUP2 ADD SWAP1 PUSH2 0xC3 SWAP2 SWAP1 PUSH2 0xE37 JUMP JUMPDEST PUSH2 0x299 JUMP JUMPDEST PUSH1 0x40 MLOAD PUSH2 0xD5 SWAP2 SWAP1 PUSH2 0x109D JUMP JUMPDEST PUSH1 0x40 MLOAD DUP1 SWAP2 SUB SWAP1 RETURN JUMPDEST CALLVALUE DUP1 ISZERO PUSH2 0xEA JUMPI PUSH1 0x0 DUP1 REVERT JUMPDEST POP PUSH2 0x105 PUSH1 0x4 DUP1 CALLDATASIZE SUB DUP2 ADD SWAP1 PUSH2 0x100 SWAP2 SWAP1 PUSH2 0xDCA JUMP JUMPDEST PUSH2 0x313 JUMP JUMPDEST PUSH1 0x40 MLOAD PUSH2 0x112 SWAP2 SWAP1 PUSH2 0x10B8 JUMP JUMPDEST PUSH1 0x40 MLOAD DUP1 SWAP2 SUB SWAP1 RETURN JUMPDEST CALLVALUE DUP1 ISZERO PUSH2 0x127 JUMPI PUSH1 0x0 DUP1 REVERT JUMPDEST POP PUSH2 0x142 PUSH1 0x4 DUP1 CALLDATASIZE SUB DUP2 ADD SWAP1 PUSH2 0x13D SWAP2 SWAP1 PUSH2 0xDF7 JUMP JUMPDEST PUSH2 0x332 JUMP JUMPDEST STOP JUMPDEST PUSH2 0x15E PUSH1 0x4 DUP1 CALLDATASIZE SUB DUP2 ADD SWAP1 PUSH2 0x159 SWAP2 SWAP1 PUSH2 0xE64 JUMP JUMPDEST PUSH2 0x35B JUMP JUMPDEST STOP JUMPDEST CALLVALUE DUP1 ISZERO PUSH2 0x16C JUMPI PUSH1 0x0 DUP1 REVERT JUMPDEST POP PUSH2 0x187 PUSH1 0x4 DUP1 CALLDATASIZE SUB DUP2 ADD SWAP1 PUSH2 0x182 SWAP2 SWAP1 PUSH2 0xDF7 JUMP JUMPDEST PUSH2 0x4CC JUMP JUMPDEST STOP JUMPDEST CALLVALUE DUP1 ISZERO PUSH2 0x195 JUMPI PUSH1 0x0 DUP1 REVERT JUMPDEST POP PUSH2 0x19E PUSH2 0x54F JUMP JUMPDEST PUSH1 0x40 MLOAD PUSH2 0x1AB SWAP2 SWAP1 PUSH2 0x11D5 JUMP JUMPDEST PUSH1 0x40 MLOAD DUP1 SWAP2 SUB SWAP1 RETURN JUMPDEST CALLVALUE DUP1 ISZERO PUSH2 0x1C0 JUMPI PUSH1 0x0 DUP1 REVERT JUMPDEST POP PUSH2 0x1DB PUSH1 0x4 DUP1 CALLDATASIZE SUB DUP2 ADD SWAP1 PUSH2 0x1D6 SWAP2 SWAP1 PUSH2 0xDF7 JUMP JUMPDEST PUSH2 0x555 JUMP JUMPDEST PUSH1 0x40 MLOAD PUSH2 0x1E8 SWAP2 SWAP1 PUSH2 0x109D JUMP JUMPDEST PUSH1 0x40 MLOAD DUP1 SWAP2 SUB SWAP1 RETURN JUMPDEST CALLVALUE DUP1 ISZERO PUSH2 0x1FD JUMPI PUSH1 0x0 DUP1 REVERT JUMPDEST POP PUSH2 0x206 PUSH2 0x5BF JUMP JUMPDEST PUSH1 0x40 MLOAD PUSH2 0x213 SWAP2 SWAP1 PUSH2 0x10B8 JUMP JUMPDEST PUSH1 0x40 MLOAD DUP1 SWAP2 SUB SWAP1 RETURN JUMPDEST CALLVALUE DUP1 ISZERO PUSH2 0x228 JUMPI PUSH1 0x0 DUP1 REVERT JUMPDEST POP PUSH2 0x231 PUSH2 0x5C6 JUMP JUMPDEST PUSH1 0x40 MLOAD PUSH2 0x23E SWAP2 SWAP1 PUSH2 0x10B8 JUMP JUMPDEST PUSH1 0x40 MLOAD DUP1 SWAP2 SUB SWAP1 RETURN JUMPDEST CALLVALUE DUP1 ISZERO PUSH2 0x253 JUMPI PUSH1 0x0 DUP1 REVERT JUMPDEST POP PUSH2 0x26E PUSH1 0x4 DUP1 CALLDATASIZE SUB DUP2 ADD SWAP1 PUSH2 0x269 SWAP2 SWAP1 PUSH2 0xDF7 JUMP JUMPDEST PUSH2 0x5EA JUMP JUMPDEST STOP JUMPDEST CALLVALUE DUP1 ISZERO PUSH2 0x27C JUMPI PUSH1 0x0 DUP1 REVERT JUMPDEST POP PUSH2 0x297 PUSH1 0x4 DUP1 CALLDATASIZE SUB DUP2 ADD SWAP1 PUSH2 0x292 SWAP2 SWAP1 PUSH2 0xD8A JUMP JUMPDEST PUSH2 0x613 JUMP JUMPDEST STOP JUMPDEST PUSH1 0x0 PUSH32 0x7965DB0B00000000000000000000000000000000000000000000000000000000 PUSH28 0xFFFFFFFFFFFFFFFFFFFFFFFFFFFFFFFFFFFFFFFFFFFFFFFFFFFFFFFF NOT AND DUP3 PUSH28 0xFFFFFFFFFFFFFFFFFFFFFFFFFFFFFFFFFFFFFFFFFFFFFFFFFFFFFFFF NOT AND EQ DUP1 PUSH2 0x30C JUMPI POP PUSH2 0x30B DUP3 PUSH2 0x815 JUMP JUMPDEST JUMPDEST SWAP1 POP SWAP2 SWAP1 POP JUMP JUMPDEST PUSH1 0x0 DUP1 PUSH1 0x0 DUP4 DUP2 MSTORE PUSH1 0x20 ADD SWAP1 DUP2 MSTORE PUSH1 0x20 ADD PUSH1 0x0 KECCAK256 PUSH1 0x1 ADD SLOAD SWAP1 POP SWAP2 SWAP1 POP JUMP JUMPDEST PUSH2 0x33B DUP3 PUSH2 0x313 JUMP JUMPDEST PUSH2 0x34C DUP2 PUSH2 0x347 PUSH2 0x87F JUMP JUMPDEST PUSH2 0x887 JUMP JUMPDEST PUSH2 0x356 DUP4 DUP4 PUSH2 0x924 JUMP JUMPDEST POP POP POP JUMP JUMPDEST PUSH1 0x0 ISZERO ISZERO PUSH1 0x2 PUSH1 0x0 DUP4 DUP2 MSTORE PUSH1 0x20 ADD SWAP1 DUP2 MSTORE PUSH1 0x20 ADD PUSH1 0x0 KECCAK256 PUSH1 0x3 ADD PUSH1 0x0 SWAP1 SLOAD SWAP1 PUSH2 0x100 EXP SWAP1 DIV PUSH1 0xFF AND ISZERO ISZERO EQ PUSH2 0x3C5 JUMPI PUSH1 0x40 MLOAD PUSH32 0x8C379A000000000000000000000000000000000000000000000000000000000 DUP2 MSTORE PUSH1 0x4 ADD PUSH2 0x3BC SWAP1 PUSH2 0x1135 JUMP JUMPDEST PUSH1 0x40 MLOAD DUP1 SWAP2 SUB SWAP1 REVERT JUMPDEST CALLVALUE PUSH1 0x2 PUSH1 0x0 DUP4 DUP2 MSTORE PUSH1 0x20 ADD SWAP1 DUP2 MSTORE PUSH1 0x20 ADD PUSH1 0x0 KECCAK256 PUSH1 0x2 ADD SLOAD EQ PUSH2 0x41D JUMPI PUSH1 0x40 MLOAD PUSH32 0x8C379A000000000000000000000000000000000000000000000000000000000 DUP2 MSTORE PUSH1 0x4 ADD PUSH2 0x414 SWAP1 PUSH2 0x1115 JUMP JUMPDEST PUSH1 0x40 MLOAD DUP1 SWAP2 SUB SWAP1 REVERT JUMPDEST PUSH1 0x1 PUSH1 0x2 PUSH1 0x0 DUP4 DUP2 MSTORE PUSH1 0x20 ADD SWAP1 DUP2 MSTORE PUSH1 0x20 ADD PUSH1 0x0 KECCAK256 PUSH1 0x3 ADD PUSH1 0x0 PUSH2 0x100 EXP DUP2 SLOAD DUP2 PUSH1 0xFF MUL NOT AND SWAP1 DUP4 ISZERO ISZERO MUL OR SWAP1 SSTORE POP PUSH1 0x2 PUSH1 0x0 DUP3 DUP2 MSTORE PUSH1 0x20 ADD SWAP1 DUP2 MSTORE PUSH1 0x20 ADD PUSH1 0x0 KECCAK256 PUSH1 0x1 ADD PUSH1 0x0 SWAP1 SLOAD SWAP1 PUSH2 0x100 EXP SWAP1 DIV PUSH20 0xFFFFFFFFFFFFFFFFFFFFFFFFFFFFFFFFFFFFFFFF AND PUSH20 0xFFFFFFFFFFFFFFFFFFFFFFFFFFFFFFFFFFFFFFFF AND PUSH2 0x8FC CALLVALUE SWAP1 DUP2 ISZERO MUL SWAP1 PUSH1 0x40 MLOAD PUSH1 0x0 PUSH1 0x40 MLOAD DUP1 DUP4 SUB DUP2 DUP6 DUP9 DUP9 CALL SWAP4 POP POP POP POP ISZERO DUP1 ISZERO PUSH2 0x4C8 JUMPI RETURNDATASIZE PUSH1 0x0 DUP1 RETURNDATACOPY RETURNDATASIZE PUSH1 0x0 REVERT JUMPDEST POP POP JUMP JUMPDEST PUSH2 0x4D4 PUSH2 0x87F JUMP JUMPDEST PUSH20 0xFFFFFFFFFFFFFFFFFFFFFFFFFFFFFFFFFFFFFFFF AND DUP2 PUSH20 0xFFFFFFFFFFFFFFFFFFFFFFFFFFFFFFFFFFFFFFFF AND EQ PUSH2 0x541 JUMPI PUSH1 0x40 MLOAD PUSH32 0x8C379A000000000000000000000000000000000000000000000000000000000 DUP2 MSTORE PUSH1 0x4 ADD PUSH2 0x538 SWAP1 PUSH2 0x11B5 JUMP JUMPDEST PUSH1 0x40 MLOAD DUP1 SWAP2 SUB SWAP1 REVERT JUMPDEST PUSH2 0x54B DUP3 DUP3 PUSH2 0xA04 JUMP JUMPDEST POP POP JUMP JUMPDEST PUSH1 0x1 SLOAD DUP2 JUMP JUMPDEST PUSH1 0x0 DUP1 PUSH1 0x0 DUP5 DUP2 MSTORE PUSH1 0x20 ADD SWAP1 DUP2 MSTORE PUSH1 0x20 ADD PUSH1 0x0 KECCAK256 PUSH1 0x0 ADD PUSH1 0x0 DUP4 PUSH20 0xFFFFFFFFFFFFFFFFFFFFFFFFFFFFFFFFFFFFFFFF AND PUSH20 0xFFFFFFFFFFFFFFFFFFFFFFFFFFFFFFFFFFFFFFFF AND DUP2 MSTORE PUSH1 0x20 ADD SWAP1 DUP2 MSTORE PUSH1 0x20 ADD PUSH1 0x0 KECCAK256 PUSH1 0x0 SWAP1 SLOAD SWAP1 PUSH2 0x100 EXP SWAP1 DIV PUSH1 0xFF AND SWAP1 POP SWAP3 SWAP2 POP POP JUMP JUMPDEST PUSH1 0x0 DUP1 SHL DUP2 JUMP JUMPDEST PUSH32 0x1F9CA85E780B3B3CFBE1334CA9DD68802DB7860F692BD163C796BB76D464EDC0 DUP2 JUMP JUMPDEST PUSH2 0x5F3 DUP3 PUSH2 0x313 JUMP JUMPDEST PUSH2 0x604 DUP2 PUSH2 0x5FF PUSH2 0x87F JUMP JUMPDEST PUSH2 0x887 JUMP JUMPDEST PUSH2 0x60E DUP4 DUP4 PUSH2 0xA04 JUMP JUMPDEST POP POP POP JUMP JUMPDEST DUP2 PUSH20 0xFFFFFFFFFFFFFFFFFFFFFFFFFFFFFFFFFFFFFFFF AND CALLER PUSH20 0xFFFFFFFFFFFFFFFFFFFFFFFFFFFFFFFFFFFFFFFF AND EQ PUSH2 0x681 JUMPI PUSH1 0x40 MLOAD PUSH32 0x8C379A000000000000000000000000000000000000000000000000000000000 DUP2 MSTORE PUSH1 0x4 ADD PUSH2 0x678 SWAP1 PUSH2 0x1155 JUMP JUMPDEST PUSH1 0x40 MLOAD DUP1 SWAP2 SUB SWAP1 REVERT JUMPDEST PUSH1 0x0 DUP2 GT PUSH2 0x6C4 JUMPI PUSH1 0x40 MLOAD PUSH32 0x8C379A000000000000000000000000000000000000000000000000000000000 DUP2 MSTORE PUSH1 0x4 ADD PUSH2 0x6BB SWAP1 PUSH2 0x1195 JUMP JUMPDEST PUSH1 0x40 MLOAD DUP1 SWAP2 SUB SWAP1 REVERT JUMPDEST PUSH1 0x2 PUSH1 0x0 PUSH1 0x1 SLOAD DUP2 MSTORE PUSH1 0x20 ADD SWAP1 DUP2 MSTORE PUSH1 0x20 ADD PUSH1 0x0 KECCAK256 PUSH1 0x3 ADD PUSH1 0x0 SWAP1 SLOAD SWAP1 PUSH2 0x100 EXP SWAP1 DIV PUSH1 0xFF AND ISZERO PUSH2 0x72A JUMPI PUSH1 0x40 MLOAD PUSH32 0x8C379A000000000000000000000000000000000000000000000000000000000 DUP2 MSTORE PUSH1 0x4 ADD PUSH2 0x721 SWAP1 PUSH2 0x1175 JUMP JUMPDEST PUSH1 0x40 MLOAD DUP1 SWAP2 SUB SWAP1 REVERT JUMPDEST PUSH1 0x40 MLOAD DUP1 PUSH1 0x80 ADD PUSH1 0x40 MSTORE DUP1 PUSH1 0x1 SLOAD DUP2 MSTORE PUSH1 0x20 ADD DUP4 PUSH20 0xFFFFFFFFFFFFFFFFFFFFFFFFFFFFFFFFFFFFFFFF AND DUP2 MSTORE PUSH1 0x20 ADD DUP3 DUP2 MSTORE PUSH1 0x20 ADD PUSH1 0x0 ISZERO ISZERO DUP2 MSTORE POP PUSH1 0x2 PUSH1 0x0 PUSH1 0x1 SLOAD DUP2 MSTORE PUSH1 0x20 ADD SWAP1 DUP2 MSTORE PUSH1 0x20 ADD PUSH1 0x0 KECCAK256 PUSH1 0x0 DUP3 ADD MLOAD DUP2 PUSH1 0x0 ADD SSTORE PUSH1 0x20 DUP3 ADD MLOAD DUP2 PUSH1 0x1 ADD PUSH1 0x0 PUSH2 0x100 EXP DUP2 SLOAD DUP2 PUSH20 0xFFFFFFFFFFFFFFFFFFFFFFFFFFFFFFFFFFFFFFFF MUL NOT AND SWAP1 DUP4 PUSH20 0xFFFFFFFFFFFFFFFFFFFFFFFFFFFFFFFFFFFFFFFF AND MUL OR SWAP1 SSTORE POP PUSH1 0x40 DUP3 ADD MLOAD DUP2 PUSH1 0x2 ADD SSTORE PUSH1 0x60 DUP3 ADD MLOAD DUP2 PUSH1 0x3 ADD PUSH1 0x0 PUSH2 0x100 EXP DUP2 SLOAD DUP2 PUSH1 0xFF MUL NOT AND SWAP1 DUP4 ISZERO ISZERO MUL OR SWAP1 SSTORE POP SWAP1 POP POP PUSH1 0x1 PUSH1 0x0 DUP2 SLOAD DUP1 SWAP3 SWAP2 SWAP1 PUSH2 0x80C SWAP1 PUSH2 0x13B4 JUMP JUMPDEST SWAP2 SWAP1 POP SSTORE POP POP POP JUMP JUMPDEST PUSH1 0x0 PUSH32 0x1FFC9A700000000000000000000000000000000000000000000000000000000 PUSH28 0xFFFFFFFFFFFFFFFFFFFFFFFFFFFFFFFFFFFFFFFFFFFFFFFFFFFFFFFF NOT AND DUP3 PUSH28 0xFFFFFFFFFFFFFFFFFFFFFFFFFFFFFFFFFFFFFFFFFFFFFFFFFFFFFFFF NOT AND EQ SWAP1 POP SWAP2 SWAP1 POP JUMP JUMPDEST PUSH1 0x0 CALLER SWAP1 POP SWAP1 JUMP JUMPDEST PUSH2 0x891 DUP3 DUP3 PUSH2 0x555 JUMP JUMPDEST PUSH2 0x920 JUMPI PUSH2 0x8B6 DUP2 PUSH20 0xFFFFFFFFFFFFFFFFFFFFFFFFFFFFFFFFFFFFFFFF AND PUSH1 0x14 PUSH2 0xAE5 JUMP JUMPDEST PUSH2 0x8C4 DUP4 PUSH1 0x0 SHR PUSH1 0x20 PUSH2 0xAE5 JUMP JUMPDEST PUSH1 0x40 MLOAD PUSH1 0x20 ADD PUSH2 0x8D5 SWAP3 SWAP2 SWAP1 PUSH2 0x1063 JUMP JUMPDEST PUSH1 0x40 MLOAD PUSH1 0x20 DUP2 DUP4 SUB SUB DUP2 MSTORE SWAP1 PUSH1 0x40 MSTORE PUSH1 0x40 MLOAD PUSH32 0x8C379A000000000000000000000000000000000000000000000000000000000 DUP2 MSTORE PUSH1 0x4 ADD PUSH2 0x917 SWAP2 SWAP1 PUSH2 0x10D3 JUMP JUMPDEST PUSH1 0x40 MLOAD DUP1 SWAP2 SUB SWAP1 REVERT JUMPDEST POP POP JUMP JUMPDEST PUSH2 0x92E DUP3 DUP3 PUSH2 0x555 JUMP JUMPDEST PUSH2 0xA00 JUMPI PUSH1 0x1 PUSH1 0x0 DUP1 DUP5 DUP2 MSTORE PUSH1 0x20 ADD SWAP1 DUP2 MSTORE PUSH1 0x20 ADD PUSH1 0x0 KECCAK256 PUSH1 0x0 ADD PUSH1 0x0 DUP4 PUSH20 0xFFFFFFFFFFFFFFFFFFFFFFFFFFFFFFFFFFFFFFFF AND PUSH20 0xFFFFFFFFFFFFFFFFFFFFFFFFFFFFFFFFFFFFFFFF AND DUP2 MSTORE PUSH1 0x20 ADD SWAP1 DUP2 MSTORE PUSH1 0x20 ADD PUSH1 0x0 KECCAK256 PUSH1 0x0 PUSH2 0x100 EXP DUP2 SLOAD DUP2 PUSH1 0xFF MUL NOT AND SWAP1 DUP4 ISZERO ISZERO MUL OR SWAP1 SSTORE POP PUSH2 0x9A5 PUSH2 0x87F JUMP JUMPDEST PUSH20 0xFFFFFFFFFFFFFFFFFFFFFFFFFFFFFFFFFFFFFFFF AND DUP2 PUSH20 0xFFFFFFFFFFFFFFFFFFFFFFFFFFFFFFFFFFFFFFFF AND DUP4 PUSH32 0x2F8788117E7EFF1D82E926EC794901D17C78024A50270940304540A733656F0D PUSH1 0x40 MLOAD PUSH1 0x40 MLOAD DUP1 SWAP2 SUB SWAP1 LOG4 JUMPDEST POP POP JUMP JUMPDEST PUSH2 0xA0E DUP3 DUP3 PUSH2 0x555 JUMP JUMPDEST ISZERO PUSH2 0xAE1 JUMPI PUSH1 0x0 DUP1 PUSH1 0x0 DUP5 DUP2 MSTORE PUSH1 0x20 ADD SWAP1 DUP2 MSTORE PUSH1 0x20 ADD PUSH1 0x0 KECCAK256 PUSH1 0x0 ADD PUSH1 0x0 DUP4 PUSH20 0xFFFFFFFFFFFFFFFFFFFFFFFFFFFFFFFFFFFFFFFF AND PUSH20 0xFFFFFFFFFFFFFFFFFFFFFFFFFFFFFFFFFFFFFFFF AND DUP2 MSTORE PUSH1 0x20 ADD SWAP1 DUP2 MSTORE PUSH1 0x20 ADD PUSH1 0x0 KECCAK256 PUSH1 0x0 PUSH2 0x100 EXP DUP2 SLOAD DUP2 PUSH1 0xFF MUL NOT AND SWAP1 DUP4 ISZERO ISZERO MUL OR SWAP1 SSTORE POP PUSH2 0xA86 PUSH2 0x87F JUMP JUMPDEST PUSH20 0xFFFFFFFFFFFFFFFFFFFFFFFFFFFFFFFFFFFFFFFF AND DUP2 PUSH20 0xFFFFFFFFFFFFFFFFFFFFFFFFFFFFFFFFFFFFFFFF AND DUP4 PUSH32 0xF6391F5C32D9C69D2A47EA670B442974B53935D1EDC7FD64EB21E047A839171B PUSH1 0x40 MLOAD PUSH1 0x40 MLOAD DUP1 SWAP2 SUB SWAP1 LOG4 JUMPDEST POP POP JUMP JUMPDEST PUSH1 0x60 PUSH1 0x0 PUSH1 0x2 DUP4 PUSH1 0x2 PUSH2 0xAF8 SWAP2 SWAP1 PUSH2 0x126D JUMP JUMPDEST PUSH2 0xB02 SWAP2 SWAP1 PUSH2 0x1217 JUMP JUMPDEST PUSH8 0xFFFFFFFFFFFFFFFF DUP2 GT ISZERO PUSH2 0xB1B JUMPI PUSH2 0xB1A PUSH2 0x145B JUMP JUMPDEST JUMPDEST PUSH1 0x40 MLOAD SWAP1 DUP1 DUP3 MSTORE DUP1 PUSH1 0x1F ADD PUSH1 0x1F NOT AND PUSH1 0x20 ADD DUP3 ADD PUSH1 0x40 MSTORE DUP1 ISZERO PUSH2 0xB4D JUMPI DUP2 PUSH1 0x20 ADD PUSH1 0x1 DUP3 MUL DUP1 CALLDATASIZE DUP4 CALLDATACOPY DUP1 DUP3 ADD SWAP2 POP POP SWAP1 POP JUMPDEST POP SWAP1 POP PUSH32 0x3000000000000000000000000000000000000000000000000000000000000000 DUP2 PUSH1 0x0 DUP2 MLOAD DUP2 LT PUSH2 0xB85 JUMPI PUSH2 0xB84 PUSH2 0x142C JUMP JUMPDEST JUMPDEST PUSH1 0x20 ADD ADD SWAP1 PUSH31 0xFFFFFFFFFFFFFFFFFFFFFFFFFFFFFFFFFFFFFFFFFFFFFFFFFFFFFFFFFFFFFF NOT AND SWAP1 DUP2 PUSH1 0x0 BYTE SWAP1 MSTORE8 POP PUSH32 0x7800000000000000000000000000000000000000000000000000000000000000 DUP2 PUSH1 0x1 DUP2 MLOAD DUP2 LT PUSH2 0xBE9 JUMPI PUSH2 0xBE8 PUSH2 0x142C JUMP JUMPDEST JUMPDEST PUSH1 0x20 ADD ADD SWAP1 PUSH31 0xFFFFFFFFFFFFFFFFFFFFFFFFFFFFFFFFFFFFFFFFFFFFFFFFFFFFFFFFFFFFFF NOT AND SWAP1 DUP2 PUSH1 0x0 BYTE SWAP1 MSTORE8 POP PUSH1 0x0 PUSH1 0x1 DUP5 PUSH1 0x2 PUSH2 0xC29 SWAP2 SWAP1 PUSH2 0x126D JUMP JUMPDEST PUSH2 0xC33 SWAP2 SWAP1 PUSH2 0x1217 JUMP JUMPDEST SWAP1 POP JUMPDEST PUSH1 0x1 DUP2 GT ISZERO PUSH2 0xCD3 JUMPI PUSH32 0x3031323334353637383961626364656600000000000000000000000000000000 PUSH1 0xF DUP7 AND PUSH1 0x10 DUP2 LT PUSH2 0xC75 JUMPI PUSH2 0xC74 PUSH2 0x142C JUMP JUMPDEST JUMPDEST BYTE PUSH1 0xF8 SHL DUP3 DUP3 DUP2 MLOAD DUP2 LT PUSH2 0xC8C JUMPI PUSH2 0xC8B PUSH2 0x142C JUMP JUMPDEST JUMPDEST PUSH1 0x20 ADD ADD SWAP1 PUSH31 0xFFFFFFFFFFFFFFFFFFFFFFFFFFFFFFFFFFFFFFFFFFFFFFFFFFFFFFFFFFFFFF NOT AND SWAP1 DUP2 PUSH1 0x0 BYTE SWAP1 MSTORE8 POP PUSH1 0x4 DUP6 SWAP1 SHR SWAP5 POP DUP1 PUSH2 0xCCC SWAP1 PUSH2 0x138A JUMP JUMPDEST SWAP1 POP PUSH2 0xC36 JUMP JUMPDEST POP PUSH1 0x0 DUP5 EQ PUSH2 0xD17 JUMPI PUSH1 0x40 MLOAD PUSH32 0x8C379A000000000000000000000000000000000000000000000000000000000 DUP2 MSTORE PUSH1 0x4 ADD PUSH2 0xD0E SWAP1 PUSH2 0x10F5 JUMP JUMPDEST PUSH1 0x40 MLOAD DUP1 SWAP2 SUB SWAP1 REVERT JUMPDEST DUP1 SWAP2 POP POP SWAP3 SWAP2 POP POP JUMP JUMPDEST PUSH1 0x0 DUP2 CALLDATALOAD SWAP1 POP PUSH2 0xD30 DUP2 PUSH2 0x165D JUMP JUMPDEST SWAP3 SWAP2 POP POP JUMP JUMPDEST PUSH1 0x0 DUP2 CALLDATALOAD SWAP1 POP PUSH2 0xD45 DUP2 PUSH2 0x1674 JUMP JUMPDEST SWAP3 SWAP2 POP POP JUMP JUMPDEST PUSH1 0x0 DUP2 CALLDATALOAD SWAP1 POP PUSH2 0xD5A DUP2 PUSH2 0x168B JUMP JUMPDEST SWAP3 SWAP2 POP POP JUMP JUMPDEST PUSH1 0x0 DUP2 CALLDATALOAD SWAP1 POP PUSH2 0xD6F DUP2 PUSH2 0x16A2 JUMP JUMPDEST SWAP3 SWAP2 POP POP JUMP JUMPDEST PUSH1 0x0 DUP2 CALLDATALOAD SWAP1 POP PUSH2 0xD84 DUP2 PUSH2 0x16B9 JUMP JUMPDEST SWAP3 SWAP2 POP POP JUMP JUMPDEST PUSH1 0x0 DUP1 PUSH1 0x40 DUP4 DUP6 SUB SLT ISZERO PUSH2 0xDA1 JUMPI PUSH2 0xDA0 PUSH2 0x148A JUMP JUMPDEST JUMPDEST PUSH1 0x0 PUSH2 0xDAF DUP6 DUP3 DUP7 ADD PUSH2 0xD36 JUMP JUMPDEST SWAP3 POP POP PUSH1 0x20 PUSH2 0xDC0 DUP6 DUP3 DUP7 ADD PUSH2 0xD75 JUMP JUMPDEST SWAP2 POP POP SWAP3 POP SWAP3 SWAP1 POP JUMP JUMPDEST PUSH1 0x0 PUSH1 0x20 DUP3 DUP5 SUB SLT ISZERO PUSH2 0xDE0 JUMPI PUSH2 0xDDF PUSH2 0x148A JUMP JUMPDEST JUMPDEST PUSH1 0x0 PUSH2 0xDEE DUP5 DUP3 DUP6 ADD PUSH2 0xD4B JUMP JUMPDEST SWAP2 POP POP SWAP3 SWAP2 POP POP JUMP JUMPDEST PUSH1 0x0 DUP1 PUSH1 0x40 DUP4 DUP6 SUB SLT ISZERO PUSH2 0xE0E JUMPI PUSH2 0xE0D PUSH2 0x148A JUMP JUMPDEST JUMPDEST PUSH1 0x0 PUSH2 0xE1C DUP6 DUP3 DUP7 ADD PUSH2 0xD4B JUMP JUMPDEST SWAP3 POP POP PUSH1 0x20 PUSH2 0xE2D DUP6 DUP3 DUP7 ADD PUSH2 0xD21 JUMP JUMPDEST SWAP2 POP POP SWAP3 POP SWAP3 SWAP1 POP JUMP JUMPDEST PUSH1 0x0 PUSH1 0x20 DUP3 DUP5 SUB SLT ISZERO PUSH2 0xE4D JUMPI PUSH2 0xE4C PUSH2 0x148A JUMP JUMPDEST JUMPDEST PUSH1 0x0 PUSH2 0xE5B DUP5 DUP3 DUP6 ADD PUSH2 0xD60 JUMP JUMPDEST SWAP2 POP POP SWAP3 SWAP2 POP POP JUMP JUMPDEST PUSH1 0x0 PUSH1 0x20 DUP3 DUP5 SUB SLT ISZERO PUSH2 0xE7A JUMPI PUSH2 0xE79 PUSH2 0x148A JUMP JUMPDEST JUMPDEST PUSH1 0x0 PUSH2 0xE88 DUP5 DUP3 DUP6 ADD PUSH2 0xD75 JUMP JUMPDEST SWAP2 POP POP SWAP3 SWAP2 POP POP JUMP JUMPDEST PUSH2 0xE9A DUP2 PUSH2 0x12EB JUMP JUMPDEST DUP3 MSTORE POP POP JUMP JUMPDEST PUSH2 0xEA9 DUP2 PUSH2 0x12F7 JUMP JUMPDEST DUP3 MSTORE POP POP JUMP JUMPDEST PUSH1 0x0 PUSH2 0xEBA DUP3 PUSH2 0x11F0 JUMP JUMPDEST PUSH2 0xEC4 DUP2 DUP6 PUSH2 0x11FB JUMP JUMPDEST SWAP4 POP PUSH2 0xED4 DUP2 DUP6 PUSH1 0x20 DUP7 ADD PUSH2 0x1357 JUMP JUMPDEST PUSH2 0xEDD DUP2 PUSH2 0x148F JUMP JUMPDEST DUP5 ADD SWAP2 POP POP SWAP3 SWAP2 POP POP JUMP JUMPDEST PUSH1 0x0 PUSH2 0xEF3 DUP3 PUSH2 0x11F0 JUMP JUMPDEST PUSH2 0xEFD DUP2 DUP6 PUSH2 0x120C JUMP JUMPDEST SWAP4 POP PUSH2 0xF0D DUP2 DUP6 PUSH1 0x20 DUP7 ADD PUSH2 0x1357 JUMP JUMPDEST DUP1 DUP5 ADD SWAP2 POP POP SWAP3 SWAP2 POP POP JUMP JUMPDEST PUSH1 0x0 PUSH2 0xF26 PUSH1 0x20 DUP4 PUSH2 0x11FB JUMP JUMPDEST SWAP2 POP PUSH2 0xF31 DUP3 PUSH2 0x14A0 JUMP JUMPDEST PUSH1 0x20 DUP3 ADD SWAP1 POP SWAP2 SWAP1 POP JUMP JUMPDEST PUSH1 0x0 PUSH2 0xF49 PUSH1 0x14 DUP4 PUSH2 0x11FB JUMP JUMPDEST SWAP2 POP PUSH2 0xF54 DUP3 PUSH2 0x14C9 JUMP JUMPDEST PUSH1 0x20 DUP3 ADD SWAP1 POP SWAP2 SWAP1 POP JUMP JUMPDEST PUSH1 0x0 PUSH2 0xF6C PUSH1 0x14 DUP4 PUSH2 0x11FB JUMP JUMPDEST SWAP2 POP PUSH2 0xF77 DUP3 PUSH2 0x14F2 JUMP JUMPDEST PUSH1 0x20 DUP3 ADD SWAP1 POP SWAP2 SWAP1 POP JUMP JUMPDEST PUSH1 0x0 PUSH2 0xF8F PUSH1 0x28 DUP4 PUSH2 0x11FB JUMP JUMPDEST SWAP2 POP PUSH2 0xF9A DUP3 PUSH2 0x151B JUMP JUMPDEST PUSH1 0x40 DUP3 ADD SWAP1 POP SWAP2 SWAP1 POP JUMP JUMPDEST PUSH1 0x0 PUSH2 0xFB2 PUSH1 0x17 DUP4 PUSH2 0x120C JUMP JUMPDEST SWAP2 POP PUSH2 0xFBD DUP3 PUSH2 0x156A JUMP JUMPDEST PUSH1 0x17 DUP3 ADD SWAP1 POP SWAP2 SWAP1 POP JUMP JUMPDEST PUSH1 0x0 PUSH2 0xFD5 PUSH1 0x11 DUP4 PUSH2 0x11FB JUMP JUMPDEST SWAP2 POP PUSH2 0xFE0 DUP3 PUSH2 0x1593 JUMP JUMPDEST PUSH1 0x20 DUP3 ADD SWAP1 POP SWAP2 SWAP1 POP JUMP JUMPDEST PUSH1 0x0 PUSH2 0xFF8 PUSH1 0x1C DUP4 PUSH2 0x11FB JUMP JUMPDEST SWAP2 POP PUSH2 0x1003 DUP3 PUSH2 0x15BC JUMP JUMPDEST PUSH1 0x20 DUP3 ADD SWAP1 POP SWAP2 SWAP1 POP JUMP JUMPDEST PUSH1 0x0 PUSH2 0x101B PUSH1 0x11 DUP4 PUSH2 0x120C JUMP JUMPDEST SWAP2 POP PUSH2 0x1026 DUP3 PUSH2 0x15E5 JUMP JUMPDEST PUSH1 0x11 DUP3 ADD SWAP1 POP SWAP2 SWAP1 POP JUMP JUMPDEST PUSH1 0x0 PUSH2 0x103E PUSH1 0x2F DUP4 PUSH2 0x11FB JUMP JUMPDEST SWAP2 POP PUSH2 0x1049 DUP3 PUSH2 0x160E JUMP JUMPDEST PUSH1 0x40 DUP3 ADD SWAP1 POP SWAP2 SWAP1 POP JUMP JUMPDEST PUSH2 0x105D DUP2 PUSH2 0x134D JUMP JUMPDEST DUP3 MSTORE POP POP JUMP JUMPDEST PUSH1 0x0 PUSH2 0x106E DUP3 PUSH2 0xFA5 JUMP JUMPDEST SWAP2 POP PUSH2 0x107A DUP3 DUP6 PUSH2 0xEE8 JUMP JUMPDEST SWAP2 POP PUSH2 0x1085 DUP3 PUSH2 0x100E JUMP JUMPDEST SWAP2 POP PUSH2 0x1091 DUP3 DUP5 PUSH2 0xEE8 JUMP JUMPDEST SWAP2 POP DUP2 SWAP1 POP SWAP4 SWAP3 POP POP POP JUMP JUMPDEST PUSH1 0x0 PUSH1 0x20 DUP3 ADD SWAP1 POP PUSH2 0x10B2 PUSH1 0x0 DUP4 ADD DUP5 PUSH2 0xE91 JUMP JUMPDEST SWAP3 SWAP2 POP POP JUMP JUMPDEST PUSH1 0x0 PUSH1 0x20 DUP3 ADD SWAP1 POP PUSH2 0x10CD PUSH1 0x0 DUP4 ADD DUP5 PUSH2 0xEA0 JUMP JUMPDEST SWAP3 SWAP2 POP POP JUMP JUMPDEST PUSH1 0x0 PUSH1 0x20 DUP3 ADD SWAP1 POP DUP2 DUP2 SUB PUSH1 0x0 DUP4 ADD MSTORE PUSH2 0x10ED DUP2 DUP5 PUSH2 0xEAF JUMP JUMPDEST SWAP1 POP SWAP3 SWAP2 POP POP JUMP JUMPDEST PUSH1 0x0 PUSH1 0x20 DUP3 ADD SWAP1 POP DUP2 DUP2 SUB PUSH1 0x0 DUP4 ADD MSTORE PUSH2 0x110E DUP2 PUSH2 0xF19 JUMP JUMPDEST SWAP1 POP SWAP2 SWAP1 POP JUMP JUMPDEST PUSH1 0x0 PUSH1 0x20 DUP3 ADD SWAP1 POP DUP2 DUP2 SUB PUSH1 0x0 DUP4 ADD MSTORE PUSH2 0x112E DUP2 PUSH2 0xF3C JUMP JUMPDEST SWAP1 POP SWAP2 SWAP1 POP JUMP JUMPDEST PUSH1 0x0 PUSH1 0x20 DUP3 ADD SWAP1 POP DUP2 DUP2 SUB PUSH1 0x0 DUP4 ADD MSTORE PUSH2 0x114E DUP2 PUSH2 0xF5F JUMP JUMPDEST SWAP1 POP SWAP2 SWAP1 POP JUMP JUMPDEST PUSH1 0x0 PUSH1 0x20 DUP3 ADD SWAP1 POP DUP2 DUP2 SUB PUSH1 0x0 DUP4 ADD MSTORE PUSH2 0x116E DUP2 PUSH2 0xF82 JUMP JUMPDEST SWAP1 POP SWAP2 SWAP1 POP JUMP JUMPDEST PUSH1 0x0 PUSH1 0x20 DUP3 ADD SWAP1 POP DUP2 DUP2 SUB PUSH1 0x0 DUP4 ADD MSTORE PUSH2 0x118E DUP2 PUSH2 0xFC8 JUMP JUMPDEST SWAP1 POP SWAP2 SWAP1 POP JUMP JUMPDEST PUSH1 0x0 PUSH1 0x20 DUP3 ADD SWAP1 POP DUP2 DUP2 SUB PUSH1 0x0 DUP4 ADD MSTORE PUSH2 0x11AE DUP2 PUSH2 0xFEB JUMP JUMPDEST SWAP1 POP SWAP2 SWAP1 POP JUMP JUMPDEST PUSH1 0x0 PUSH1 0x20 DUP3 ADD SWAP1 POP DUP2 DUP2 SUB PUSH1 0x0 DUP4 ADD MSTORE PUSH2 0x11CE DUP2 PUSH2 0x1031 JUMP JUMPDEST SWAP1 POP SWAP2 SWAP1 POP JUMP JUMPDEST PUSH1 0x0 PUSH1 0x20 DUP3 ADD SWAP1 POP PUSH2 0x11EA PUSH1 0x0 DUP4 ADD DUP5 PUSH2 0x1054 JUMP JUMPDEST SWAP3 SWAP2 POP POP JUMP JUMPDEST PUSH1 0x0 DUP2 MLOAD SWAP1 POP SWAP2 SWAP1 POP JUMP JUMPDEST PUSH1 0x0 DUP3 DUP3 MSTORE PUSH1 0x20 DUP3 ADD SWAP1 POP SWAP3 SWAP2 POP POP JUMP JUMPDEST PUSH1 0x0 DUP2 SWAP1 POP SWAP3 SWAP2 POP POP JUMP JUMPDEST PUSH1 0x0 PUSH2 0x1222 DUP3 PUSH2 0x134D JUMP JUMPDEST SWAP2 POP PUSH2 0x122D DUP4 PUSH2 0x134D JUMP JUMPDEST SWAP3 POP DUP3 PUSH32 0xFFFFFFFFFFFFFFFFFFFFFFFFFFFFFFFFFFFFFFFFFFFFFFFFFFFFFFFFFFFFFFFF SUB DUP3 GT ISZERO PUSH2 0x1262 JUMPI PUSH2 0x1261 PUSH2 0x13FD JUMP JUMPDEST JUMPDEST DUP3 DUP3 ADD SWAP1 POP SWAP3 SWAP2 POP POP JUMP JUMPDEST PUSH1 0x0 PUSH2 0x1278 DUP3 PUSH2 0x134D JUMP JUMPDEST SWAP2 POP PUSH2 0x1283 DUP4 PUSH2 0x134D JUMP JUMPDEST SWAP3 POP DUP2 PUSH32 0xFFFFFFFFFFFFFFFFFFFFFFFFFFFFFFFFFFFFFFFFFFFFFFFFFFFFFFFFFFFFFFFF DIV DUP4 GT DUP3 ISZERO ISZERO AND ISZERO PUSH2 0x12BC JUMPI PUSH2 0x12BB PUSH2 0x13FD JUMP JUMPDEST JUMPDEST DUP3 DUP3 MUL SWAP1 POP SWAP3 SWAP2 POP POP JUMP JUMPDEST PUSH1 0x0 PUSH2 0x12D2 DUP3 PUSH2 0x132D JUMP JUMPDEST SWAP1 POP SWAP2 SWAP1 POP JUMP JUMPDEST PUSH1 0x0 PUSH2 0x12E4 DUP3 PUSH2 0x132D JUMP JUMPDEST SWAP1 POP SWAP2 SWAP1 POP JUMP JUMPDEST PUSH1 0x0 DUP2 ISZERO ISZERO SWAP1 POP SWAP2 SWAP1 POP JUMP JUMPDEST PUSH1 0x0 DUP2 SWAP1 POP SWAP2 SWAP1 POP JUMP JUMPDEST PUSH1 0x0 PUSH32 0xFFFFFFFF00000000000000000000000000000000000000000000000000000000 DUP3 AND SWAP1 POP SWAP2 SWAP1 POP JUMP JUMPDEST PUSH1 0x0 PUSH20 0xFFFFFFFFFFFFFFFFFFFFFFFFFFFFFFFFFFFFFFFF DUP3 AND SWAP1 POP SWAP2 SWAP1 POP JUMP JUMPDEST PUSH1 0x0 DUP2 SWAP1 POP SWAP2 SWAP1 POP JUMP JUMPDEST PUSH1 0x0 JUMPDEST DUP4 DUP2 LT ISZERO PUSH2 0x1375 JUMPI DUP1 DUP3 ADD MLOAD DUP2 DUP5 ADD MSTORE PUSH1 0x20 DUP2 ADD SWAP1 POP PUSH2 0x135A JUMP JUMPDEST DUP4 DUP2 GT ISZERO PUSH2 0x1384 JUMPI PUSH1 0x0 DUP5 DUP5 ADD MSTORE JUMPDEST POP POP POP POP JUMP JUMPDEST PUSH1 0x0 PUSH2 0x1395 DUP3 PUSH2 0x134D JUMP JUMPDEST SWAP2 POP PUSH1 0x0 DUP3 EQ ISZERO PUSH2 0x13A9 JUMPI PUSH2 0x13A8 PUSH2 0x13FD JUMP JUMPDEST JUMPDEST PUSH1 0x1 DUP3 SUB SWAP1 POP SWAP2 SWAP1 POP JUMP JUMPDEST PUSH1 0x0 PUSH2 0x13BF DUP3 PUSH2 0x134D JUMP JUMPDEST SWAP2 POP PUSH32 0xFFFFFFFFFFFFFFFFFFFFFFFFFFFFFFFFFFFFFFFFFFFFFFFFFFFFFFFFFFFFFFFF DUP3 EQ ISZERO PUSH2 0x13F2 JUMPI PUSH2 0x13F1 PUSH2 0x13FD JUMP JUMPDEST JUMPDEST PUSH1 0x1 DUP3 ADD SWAP1 POP SWAP2 SWAP1 POP JUMP JUMPDEST PUSH32 0x4E487B7100000000000000000000000000000000000000000000000000000000 PUSH1 0x0 MSTORE PUSH1 0x11 PUSH1 0x4 MSTORE PUSH1 0x24 PUSH1 0x0 REVERT JUMPDEST PUSH32 0x4E487B7100000000000000000000000000000000000000000000000000000000 PUSH1 0x0 MSTORE PUSH1 0x32 PUSH1 0x4 MSTORE PUSH1 0x24 PUSH1 0x0 REVERT JUMPDEST PUSH32 0x4E487B7100000000000000000000000000000000000000000000000000000000 PUSH1 0x0 MSTORE PUSH1 0x41 PUSH1 0x4 MSTORE PUSH1 0x24 PUSH1 0x0 REVERT JUMPDEST PUSH1 0x0 DUP1 REVERT JUMPDEST PUSH1 0x0 PUSH1 0x1F NOT PUSH1 0x1F DUP4 ADD AND SWAP1 POP SWAP2 SWAP1 POP JUMP JUMPDEST PUSH32 0x537472696E67733A20686578206C656E67746820696E73756666696369656E74 PUSH1 0x0 DUP3 ADD MSTORE POP JUMP JUMPDEST PUSH32 0x507269636520646F6573206E6F74206D61746368000000000000000000000000 PUSH1 0x0 DUP3 ADD MSTORE POP JUMP JUMPDEST PUSH32 0x4974656D20697320616C726561647920736F6C64000000000000000000000000 PUSH1 0x0 DUP3 ADD MSTORE POP JUMP JUMPDEST PUSH32 0x4F6E6C79207468652073656C6C65722063616E206372656174652061206D6172 PUSH1 0x0 DUP3 ADD MSTORE PUSH32 0x6B6574206974656D000000000000000000000000000000000000000000000000 PUSH1 0x20 DUP3 ADD MSTORE POP JUMP JUMPDEST PUSH32 0x416363657373436F6E74726F6C3A206163636F756E7420000000000000000000 PUSH1 0x0 DUP3 ADD MSTORE POP JUMP JUMPDEST PUSH32 0x4974656D20616C726561647920736F6C64000000000000000000000000000000 PUSH1 0x0 DUP3 ADD MSTORE POP JUMP JUMPDEST PUSH32 0x5072696365206D7573742062652067726561746572207468616E203000000000 PUSH1 0x0 DUP3 ADD MSTORE POP JUMP JUMPDEST PUSH32 0x206973206D697373696E6720726F6C6520000000000000000000000000000000 PUSH1 0x0 DUP3 ADD MSTORE POP JUMP JUMPDEST PUSH32 0x416363657373436F6E74726F6C3A2063616E206F6E6C792072656E6F756E6365 PUSH1 0x0 DUP3 ADD MSTORE PUSH32 0x20726F6C657320666F722073656C660000000000000000000000000000000000 PUSH1 0x20 DUP3 ADD MSTORE POP JUMP JUMPDEST PUSH2 0x1666 DUP2 PUSH2 0x12C7 JUMP JUMPDEST DUP2 EQ PUSH2 0x1671 JUMPI PUSH1 0x0 DUP1 REVERT JUMPDEST POP JUMP JUMPDEST PUSH2 0x167D DUP2 PUSH2 0x12D9 JUMP JUMPDEST DUP2 EQ PUSH2 0x1688 JUMPI PUSH1 0x0 DUP1 REVERT JUMPDEST POP JUMP JUMPDEST PUSH2 0x1694 DUP2 PUSH2 0x12F7 JUMP JUMPDEST DUP2 EQ PUSH2 0x169F JUMPI PUSH1 0x0 DUP1 REVERT JUMPDEST POP JUMP JUMPDEST PUSH2 0x16AB DUP2 PUSH2 0x1301 JUMP JUMPDEST DUP2 EQ PUSH2 0x16B6 JUMPI PUSH1 0x0 DUP1 REVERT JUMPDEST POP JUMP JUMPDEST PUSH2 0x16C2 DUP2 PUSH2 0x134D JUMP JUMPDEST DUP2 EQ PUSH2 0x16CD JUMPI PUSH1 0x0 DUP1 REVERT JUMPDEST POP JUMP INVALID LOG2 PUSH5 0x6970667358 0x22 SLT KECCAK256 0x5C 0xE7 SWAP5 0xC1 0x23 SWAP16 PUSH6 0x362354073AB0 0xAE DUP11 0xBC SWAP9 PUSH5 0xC0377CB160 PUSH10 0xE3A5EF37EADCF3526473 PUSH16 0x6C634300080700330000000000000000 "
				},
				"gasEstimates": {
					"creation": {
						"codeDepositCost": "1178800",
						"executionCost": "infinite",
						"totalCost": "infinite"
					},
					"external": {
						"DEFAULT_ADMIN_ROLE()": "379",
						"MARKETPLACE_OWNER()": "395",
						"buyMarketItem(uint256)": "infinite",
						"createMarketItem(address,uint256)": "infinite",
						"getRoleAdmin(bytes32)": "infinite",
						"grantRole(bytes32,address)": "infinite",
						"hasRole(bytes32,address)": "3162",
						"nextItemId()": "2429",
						"renounceRole(bytes32,address)": "infinite",
						"revokeRole(bytes32,address)": "infinite",
						"supportsInterface(bytes4)": "728"
					}
				},
				"methodIdentifiers": {
					"DEFAULT_ADMIN_ROLE()": "a217fddf",
					"MARKETPLACE_OWNER()": "b491efa0",
					"buyMarketItem(uint256)": "351901c3",
					"createMarketItem(address,uint256)": "dd5f8518",
					"getRoleAdmin(bytes32)": "248a9ca3",
					"grantRole(bytes32,address)": "2f2ff15d",
					"hasRole(bytes32,address)": "91d14854",
					"nextItemId()": "6a868974",
					"renounceRole(bytes32,address)": "36568abe",
					"revokeRole(bytes32,address)": "d547741f",
					"supportsInterface(bytes4)": "01ffc9a7"
				}
			},
			"userdoc": {
				"kind": "user",
				"methods": {},
				"version": 1
			}
		}
	}
}