{
	"Marketplace.sol": {
		"Marketplace": {
			"abi": [
				{
					"inputs": [],
					"stateMutability": "nonpayable",
					"type": "constructor"
				},
				{
					"anonymous": false,
					"inputs": [
						{
							"indexed": false,
							"internalType": "uint256",
							"name": "_itemId",
							"type": "uint256"
						},
						{
							"indexed": false,
							"internalType": "uint256",
							"name": "_price",
							"type": "uint256"
						},
						{
							"indexed": false,
							"internalType": "address",
							"name": "_seller",
							"type": "address"
						},
						{
							"indexed": false,
							"internalType": "address",
							"name": "_buyer",
							"type": "address"
						}
					],
					"name": "BuyItem",
					"type": "event"
				},
				{
					"anonymous": false,
					"inputs": [
						{
							"indexed": true,
							"internalType": "bytes32",
							"name": "role",
							"type": "bytes32"
						},
						{
							"indexed": true,
							"internalType": "bytes32",
							"name": "previousAdminRole",
							"type": "bytes32"
						},
						{
							"indexed": true,
							"internalType": "bytes32",
							"name": "newAdminRole",
							"type": "bytes32"
						}
					],
					"name": "RoleAdminChanged",
					"type": "event"
				},
				{
					"anonymous": false,
					"inputs": [
						{
							"indexed": true,
							"internalType": "bytes32",
							"name": "role",
							"type": "bytes32"
						},
						{
							"indexed": true,
							"internalType": "address",
							"name": "account",
							"type": "address"
						},
						{
							"indexed": true,
							"internalType": "address",
							"name": "sender",
							"type": "address"
						}
					],
					"name": "RoleGranted",
					"type": "event"
				},
				{
					"anonymous": false,
					"inputs": [
						{
							"indexed": true,
							"internalType": "bytes32",
							"name": "role",
							"type": "bytes32"
						},
						{
							"indexed": true,
							"internalType": "address",
							"name": "account",
							"type": "address"
						},
						{
							"indexed": true,
							"internalType": "address",
							"name": "sender",
							"type": "address"
						}
					],
					"name": "RoleRevoked",
					"type": "event"
				},
				{
					"inputs": [],
					"name": "DEFAULT_ADMIN_ROLE",
					"outputs": [
						{
							"internalType": "bytes32",
							"name": "",
							"type": "bytes32"
						}
					],
					"stateMutability": "view",
					"type": "function"
				},
				{
					"inputs": [],
					"name": "MARKETPLACE_OWNER",
					"outputs": [
						{
							"internalType": "bytes32",
							"name": "",
							"type": "bytes32"
						}
					],
					"stateMutability": "view",
					"type": "function"
				},
				{
					"inputs": [
						{
							"internalType": "uint256",
							"name": "_itemId",
							"type": "uint256"
						},
						{
							"internalType": "uint8",
							"name": "_quantity",
							"type": "uint8"
						}
					],
					"name": "buyMarketItem",
					"outputs": [],
					"stateMutability": "payable",
					"type": "function"
				},
				{
					"inputs": [
						{
							"internalType": "uint256",
							"name": "_itemId",
							"type": "uint256"
						},
						{
							"internalType": "address",
							"name": "_buyer",
							"type": "address"
						}
					],
					"name": "checkBuyer",
					"outputs": [
						{
							"internalType": "bool",
							"name": "",
							"type": "bool"
						}
					],
					"stateMutability": "view",
					"type": "function"
				},
				{
					"inputs": [
						{
							"internalType": "string",
							"name": "_title",
							"type": "string"
						},
						{
							"internalType": "string",
							"name": "_description",
							"type": "string"
						},
						{
							"internalType": "address payable",
							"name": "_seller",
							"type": "address"
						},
						{
							"internalType": "uint256",
							"name": "_price",
							"type": "uint256"
						},
						{
							"internalType": "string",
							"name": "_imageUrl",
							"type": "string"
						},
						{
							"internalType": "uint8",
							"name": "_quantity",
							"type": "uint8"
						},
						{
							"internalType": "bool",
							"name": "_isActive",
							"type": "bool"
						}
					],
					"name": "createMarketItem",
					"outputs": [],
					"stateMutability": "nonpayable",
					"type": "function"
				},
				{
					"inputs": [
						{
							"internalType": "uint256",
							"name": "_itemId",
							"type": "uint256"
						}
					],
					"name": "getAverageStars",
					"outputs": [
						{
							"internalType": "uint256",
							"name": "",
							"type": "uint256"
						}
					],
					"stateMutability": "view",
					"type": "function"
				},
				{
					"inputs": [
						{
							"internalType": "uint256",
							"name": "_itemId",
							"type": "uint256"
						}
					],
					"name": "getMarketItem",
					"outputs": [
						{
							"internalType": "string",
							"name": "title",
							"type": "string"
						},
						{
							"internalType": "address payable",
							"name": "seller",
							"type": "address"
						},
						{
							"internalType": "uint256",
							"name": "price",
							"type": "uint256"
						},
						{
							"internalType": "bool",
							"name": "isActive",
							"type": "bool"
						}
					],
					"stateMutability": "view",
					"type": "function"
				},
				{
					"inputs": [
						{
							"internalType": "uint256",
							"name": "_itemId",
							"type": "uint256"
						}
					],
					"name": "getMarketItemDetails",
					"outputs": [
						{
							"internalType": "string",
							"name": "description",
							"type": "string"
						},
						{
							"internalType": "string",
							"name": "imageUrl",
							"type": "string"
						},
						{
							"internalType": "uint8",
							"name": "quantity",
							"type": "uint8"
						},
						{
							"internalType": "uint256",
							"name": "createdAt",
							"type": "uint256"
						},
						{
							"internalType": "uint256",
							"name": "updatedAt",
							"type": "uint256"
						}
					],
					"stateMutability": "view",
					"type": "function"
				},
				{
					"inputs": [
						{
							"internalType": "bytes32",
							"name": "role",
							"type": "bytes32"
						}
					],
					"name": "getRoleAdmin",
					"outputs": [
						{
							"internalType": "bytes32",
							"name": "",
							"type": "bytes32"
						}
					],
					"stateMutability": "view",
					"type": "function"
				},
				{
					"inputs": [
						{
							"internalType": "bytes32",
							"name": "role",
							"type": "bytes32"
						},
						{
							"internalType": "address",
							"name": "account",
							"type": "address"
						}
					],
					"name": "grantRole",
					"outputs": [],
					"stateMutability": "nonpayable",
					"type": "function"
				},
				{
					"inputs": [
						{
							"internalType": "bytes32",
							"name": "role",
							"type": "bytes32"
						},
						{
							"internalType": "address",
							"name": "account",
							"type": "address"
						}
					],
					"name": "hasRole",
					"outputs": [
						{
							"internalType": "bool",
							"name": "",
							"type": "bool"
						}
					],
					"stateMutability": "view",
					"type": "function"
				},
				{
					"inputs": [],
					"name": "nextItemId",
					"outputs": [
						{
							"internalType": "uint256",
							"name": "",
							"type": "uint256"
						}
					],
					"stateMutability": "view",
					"type": "function"
				},
				{
					"inputs": [
						{
							"internalType": "bytes32",
							"name": "role",
							"type": "bytes32"
						},
						{
							"internalType": "address",
							"name": "account",
							"type": "address"
						}
					],
					"name": "renounceRole",
					"outputs": [],
					"stateMutability": "nonpayable",
					"type": "function"
				},
				{
					"inputs": [
						{
							"internalType": "bytes32",
							"name": "role",
							"type": "bytes32"
						},
						{
							"internalType": "address",
							"name": "account",
							"type": "address"
						}
					],
					"name": "revokeRole",
					"outputs": [],
					"stateMutability": "nonpayable",
					"type": "function"
				},
				{
					"inputs": [
						{
							"internalType": "bytes4",
							"name": "interfaceId",
							"type": "bytes4"
						}
					],
					"name": "supportsInterface",
					"outputs": [
						{
							"internalType": "bool",
							"name": "",
							"type": "bool"
						}
					],
					"stateMutability": "view",
					"type": "function"
				},
				{
					"inputs": [
						{
							"internalType": "uint256",
							"name": "_itemId",
							"type": "uint256"
						},
						{
							"internalType": "bool",
							"name": "_isActive",
							"type": "bool"
						}
					],
					"name": "updateMarketItemActive",
					"outputs": [],
					"stateMutability": "nonpayable",
					"type": "function"
				},
				{
					"inputs": [
						{
							"internalType": "uint256",
							"name": "_itemId",
							"type": "uint256"
						},
						{
							"internalType": "string",
							"name": "_description",
							"type": "string"
						}
					],
					"name": "updateMarketItemDescription",
					"outputs": [],
					"stateMutability": "nonpayable",
					"type": "function"
				},
				{
					"inputs": [
						{
							"internalType": "uint256",
							"name": "_itemId",
							"type": "uint256"
						},
						{
							"internalType": "string",
							"name": "_imageUrl",
							"type": "string"
						}
					],
					"name": "updateMarketItemImgUrl",
					"outputs": [],
					"stateMutability": "nonpayable",
					"type": "function"
				},
				{
					"inputs": [
						{
							"internalType": "uint256",
							"name": "_itemId",
							"type": "uint256"
						},
						{
							"internalType": "uint256",
							"name": "_price",
							"type": "uint256"
						}
					],
					"name": "updateMarketItemPrice",
					"outputs": [],
					"stateMutability": "nonpayable",
					"type": "function"
				},
				{
					"inputs": [
						{
							"internalType": "uint256",
							"name": "_itemId",
							"type": "uint256"
						},
						{
							"internalType": "uint8",
							"name": "_quantity",
							"type": "uint8"
						}
					],
					"name": "updateMarketItemQuantity",
					"outputs": [],
					"stateMutability": "nonpayable",
					"type": "function"
				},
				{
					"inputs": [
						{
							"internalType": "uint256",
							"name": "_itemId",
							"type": "uint256"
						},
						{
							"internalType": "uint8",
							"name": "_stars",
							"type": "uint8"
						}
					],
					"name": "voteMarketItemStars",
					"outputs": [],
					"stateMutability": "nonpayable",
					"type": "function"
				}
			],
			"devdoc": {
				"kind": "dev",
				"methods": {
					"getRoleAdmin(bytes32)": {
						"details": "Returns the admin role that controls `role`. See {grantRole} and {revokeRole}. To change a role's admin, use {_setRoleAdmin}."
					},
					"grantRole(bytes32,address)": {
						"details": "Grants `role` to `account`. If `account` had not been already granted `role`, emits a {RoleGranted} event. Requirements: - the caller must have ``role``'s admin role."
					},
					"hasRole(bytes32,address)": {
						"details": "Returns `true` if `account` has been granted `role`."
					},
					"renounceRole(bytes32,address)": {
						"details": "Revokes `role` from the calling account. Roles are often managed via {grantRole} and {revokeRole}: this function's purpose is to provide a mechanism for accounts to lose their privileges if they are compromised (such as when a trusted device is misplaced). If the calling account had been revoked `role`, emits a {RoleRevoked} event. Requirements: - the caller must be `account`."
					},
					"revokeRole(bytes32,address)": {
						"details": "Revokes `role` from `account`. If `account` had been granted `role`, emits a {RoleRevoked} event. Requirements: - the caller must have ``role``'s admin role."
					},
					"supportsInterface(bytes4)": {
						"details": "See {IERC165-supportsInterface}."
					}
				},
				"version": 1
			},
			"evm": {
				"assembly": "    /* \"Marketplace.sol\":122:5727  contract Marketplace is  AccessControl {\r... */\n  mstore(0x40, 0x80)\n    /* \"Marketplace.sol\":277:278  0 */\n  0x00\n    /* \"Marketplace.sol\":249:278  uint256 public nextItemId = 0 */\n  0x01\n  sstore\n    /* \"Marketplace.sol\":891:965  constructor() {\r... */\n  callvalue\n  dup1\n  iszero\n  tag_1\n  jumpi\n  0x00\n  dup1\n  revert\ntag_1:\n  pop\n    /* \"Marketplace.sol\":916:957  _grantRole(MARKETPLACE_OWNER, msg.sender) */\n  tag_4\n    /* \"Marketplace.sol\":212:242  keccak256(\"MARKETPLACE_OWNER\") */\n  0x1f9ca85e780b3b3cfbe1334ca9dd68802db7860f692bd163c796bb76d464edc0\n    /* \"Marketplace.sol\":946:956  msg.sender */\n  caller\n    /* \"Marketplace.sol\":916:926  _grantRole */\n  shl(0x20, tag_5)\n    /* \"Marketplace.sol\":916:957  _grantRole(MARKETPLACE_OWNER, msg.sender) */\n  0x20\n  shr\n  jump\t// in\ntag_4:\n    /* \"Marketplace.sol\":122:5727  contract Marketplace is  AccessControl {\r... */\n  jump(tag_6)\n    /* \"@openzeppelin/contracts/access/AccessControl.sol\":6861:7094  function _grantRole(bytes32 role, address account) internal virtual {... */\ntag_5:\n    /* \"@openzeppelin/contracts/access/AccessControl.sol\":6944:6966  hasRole(role, account) */\n  tag_8\n    /* \"@openzeppelin/contracts/access/AccessControl.sol\":6952:6956  role */\n  dup3\n    /* \"@openzeppelin/contracts/access/AccessControl.sol\":6958:6965  account */\n  dup3\n    /* \"@openzeppelin/contracts/access/AccessControl.sol\":6944:6951  hasRole */\n  shl(0x20, tag_9)\n    /* \"@openzeppelin/contracts/access/AccessControl.sol\":6944:6966  hasRole(role, account) */\n  0x20\n  shr\n  jump\t// in\ntag_8:\n    /* \"@openzeppelin/contracts/access/AccessControl.sol\":6939:7088  if (!hasRole(role, account)) {... */\n  tag_10\n  jumpi\n    /* \"@openzeppelin/contracts/access/AccessControl.sol\":7014:7018  true */\n  0x01\n    /* \"@openzeppelin/contracts/access/AccessControl.sol\":6982:6988  _roles */\n  0x00\n    /* \"@openzeppelin/contracts/access/AccessControl.sol\":6982:6994  _roles[role] */\n  dup1\n    /* \"@openzeppelin/contracts/access/AccessControl.sol\":6989:6993  role */\n  dup5\n    /* \"@openzeppelin/contracts/access/AccessControl.sol\":6982:6994  _roles[role] */\n  dup2\n  mstore\n  0x20\n  add\n  swap1\n  dup2\n  mstore\n  0x20\n  add\n  0x00\n  keccak256\n    /* \"@openzeppelin/contracts/access/AccessControl.sol\":6982:7002  _roles[role].members */\n  0x00\n  add\n    /* \"@openzeppelin/contracts/access/AccessControl.sol\":6982:7011  _roles[role].members[account] */\n  0x00\n    /* \"@openzeppelin/contracts/access/AccessControl.sol\":7003:7010  account */\n  dup4\n    /* \"@openzeppelin/contracts/access/AccessControl.sol\":6982:7011  _roles[role].members[account] */\n  0xffffffffffffffffffffffffffffffffffffffff\n  and\n  0xffffffffffffffffffffffffffffffffffffffff\n  and\n  dup2\n  mstore\n  0x20\n  add\n  swap1\n  dup2\n  mstore\n  0x20\n  add\n  0x00\n  keccak256\n  0x00\n    /* \"@openzeppelin/contracts/access/AccessControl.sol\":6982:7018  _roles[role].members[account] = true */\n  0x0100\n  exp\n  dup2\n  sload\n  dup2\n  0xff\n  mul\n  not\n  and\n  swap1\n  dup4\n  iszero\n  iszero\n  mul\n  or\n  swap1\n  sstore\n  pop\n    /* \"@openzeppelin/contracts/access/AccessControl.sol\":7064:7076  _msgSender() */\n  tag_11\n    /* \"@openzeppelin/contracts/access/AccessControl.sol\":7064:7074  _msgSender */\n  shl(0x20, tag_12)\n    /* \"@openzeppelin/contracts/access/AccessControl.sol\":7064:7076  _msgSender() */\n  0x20\n  shr\n  jump\t// in\ntag_11:\n    /* \"@openzeppelin/contracts/access/AccessControl.sol\":7037:7077  RoleGranted(role, account, _msgSender()) */\n  0xffffffffffffffffffffffffffffffffffffffff\n  and\n    /* \"@openzeppelin/contracts/access/AccessControl.sol\":7055:7062  account */\n  dup2\n    /* \"@openzeppelin/contracts/access/AccessControl.sol\":7037:7077  RoleGranted(role, account, _msgSender()) */\n  0xffffffffffffffffffffffffffffffffffffffff\n  and\n    /* \"@openzeppelin/contracts/access/AccessControl.sol\":7049:7053  role */\n  dup4\n    /* \"@openzeppelin/contracts/access/AccessControl.sol\":7037:7077  RoleGranted(role, account, _msgSender()) */\n  0x2f8788117e7eff1d82e926ec794901d17c78024a50270940304540a733656f0d\n  mload(0x40)\n  mload(0x40)\n  dup1\n  swap2\n  sub\n  swap1\n  log4\n    /* \"@openzeppelin/contracts/access/AccessControl.sol\":6939:7088  if (!hasRole(role, account)) {... */\ntag_10:\n    /* \"@openzeppelin/contracts/access/AccessControl.sol\":6861:7094  function _grantRole(bytes32 role, address account) internal virtual {... */\n  pop\n  pop\n  jump\t// out\n    /* \"@openzeppelin/contracts/access/AccessControl.sol\":2909:3054  function hasRole(bytes32 role, address account) public view virtual override returns (bool) {... */\ntag_9:\n    /* \"@openzeppelin/contracts/access/AccessControl.sol\":2995:2999  bool */\n  0x00\n    /* \"@openzeppelin/contracts/access/AccessControl.sol\":3018:3024  _roles */\n  dup1\n    /* \"@openzeppelin/contracts/access/AccessControl.sol\":3018:3030  _roles[role] */\n  0x00\n    /* \"@openzeppelin/contracts/access/AccessControl.sol\":3025:3029  role */\n  dup5\n    /* \"@openzeppelin/contracts/access/AccessControl.sol\":3018:3030  _roles[role] */\n  dup2\n  mstore\n  0x20\n  add\n  swap1\n  dup2\n  mstore\n  0x20\n  add\n  0x00\n  keccak256\n    /* \"@openzeppelin/contracts/access/AccessControl.sol\":3018:3038  _roles[role].members */\n  0x00\n  add\n    /* \"@openzeppelin/contracts/access/AccessControl.sol\":3018:3047  _roles[role].members[account] */\n  0x00\n    /* \"@openzeppelin/contracts/access/AccessControl.sol\":3039:3046  account */\n  dup4\n    /* \"@openzeppelin/contracts/access/AccessControl.sol\":3018:3047  _roles[role].members[account] */\n  0xffffffffffffffffffffffffffffffffffffffff\n  and\n  0xffffffffffffffffffffffffffffffffffffffff\n  and\n  dup2\n  mstore\n  0x20\n  add\n  swap1\n  dup2\n  mstore\n  0x20\n  add\n  0x00\n  keccak256\n  0x00\n  swap1\n  sload\n  swap1\n  0x0100\n  exp\n  swap1\n  div\n  0xff\n  and\n    /* \"@openzeppelin/contracts/access/AccessControl.sol\":3011:3047  return _roles[role].members[account] */\n  swap1\n  pop\n    /* \"@openzeppelin/contracts/access/AccessControl.sol\":2909:3054  function hasRole(bytes32 role, address account) public view virtual override returns (bool) {... */\n  swap3\n  swap2\n  pop\n  pop\n  jump\t// out\n    /* \"@openzeppelin/contracts/utils/Context.sol\":640:736  function _msgSender() internal view virtual returns (address) {... */\ntag_12:\n    /* \"@openzeppelin/contracts/utils/Context.sol\":693:700  address */\n  0x00\n    /* \"@openzeppelin/contracts/utils/Context.sol\":719:729  msg.sender */\n  caller\n    /* \"@openzeppelin/contracts/utils/Context.sol\":712:729  return msg.sender */\n  swap1\n  pop\n    /* \"@openzeppelin/contracts/utils/Context.sol\":640:736  function _msgSender() internal view virtual returns (address) {... */\n  swap1\n  jump\t// out\n    /* \"Marketplace.sol\":122:5727  contract Marketplace is  AccessControl {\r... */\ntag_6:\n  dataSize(sub_0)\n  dup1\n  dataOffset(sub_0)\n  0x00\n  codecopy\n  0x00\n  return\nstop\n\nsub_0: assembly {\n        /* \"Marketplace.sol\":122:5727  contract Marketplace is  AccessControl {\r... */\n      mstore(0x40, 0x80)\n      jumpi(tag_1, lt(calldatasize, 0x04))\n      shr(0xe0, calldataload(0x00))\n      dup1\n      0x8f28afee\n      gt\n      tag_23\n      jumpi\n      dup1\n      0xbf9c6554\n      gt\n      tag_24\n      jumpi\n      dup1\n      0xbf9c6554\n      eq\n      tag_17\n      jumpi\n      dup1\n      0xc7be7a49\n      eq\n      tag_18\n      jumpi\n      dup1\n      0xd547741f\n      eq\n      tag_19\n      jumpi\n      dup1\n      0xeca1e6a0\n      eq\n      tag_20\n      jumpi\n      dup1\n      0xf0d2d06d\n      eq\n      tag_21\n      jumpi\n      dup1\n      0xfec4d15d\n      eq\n      tag_22\n      jumpi\n      jump(tag_1)\n    tag_24:\n      dup1\n      0x8f28afee\n      eq\n      tag_12\n      jumpi\n      dup1\n      0x91d14854\n      eq\n      tag_13\n      jumpi\n      dup1\n      0xa217fddf\n      eq\n      tag_14\n      jumpi\n      dup1\n      0xae13a317\n      eq\n      tag_15\n      jumpi\n      dup1\n      0xb491efa0\n      eq\n      tag_16\n      jumpi\n      jump(tag_1)\n    tag_23:\n      dup1\n      0x36568abe\n      gt\n      tag_25\n      jumpi\n      dup1\n      0x36568abe\n      eq\n      tag_7\n      jumpi\n      dup1\n      0x4d4c87ea\n      eq\n      tag_8\n      jumpi\n      dup1\n      0x6a868974\n      eq\n      tag_9\n      jumpi\n      dup1\n      0x7735904f\n      eq\n      tag_10\n      jumpi\n      dup1\n      0x88d9e84c\n      eq\n      tag_11\n      jumpi\n      jump(tag_1)\n    tag_25:\n      dup1\n      0x01ffc9a7\n      eq\n      tag_2\n      jumpi\n      dup1\n      0x0c3774fc\n      eq\n      tag_3\n      jumpi\n      dup1\n      0x1dfef0eb\n      eq\n      tag_4\n      jumpi\n      dup1\n      0x248a9ca3\n      eq\n      tag_5\n      jumpi\n      dup1\n      0x2f2ff15d\n      eq\n      tag_6\n      jumpi\n    tag_1:\n      0x00\n      dup1\n      revert\n        /* \"@openzeppelin/contracts/access/AccessControl.sol\":2620:2822  function supportsInterface(bytes4 interfaceId) public view virtual override returns (bool) {... */\n    tag_2:\n      callvalue\n      dup1\n      iszero\n      tag_26\n      jumpi\n      0x00\n      dup1\n      revert\n    tag_26:\n      pop\n      tag_27\n      0x04\n      dup1\n      calldatasize\n      sub\n      dup2\n      add\n      swap1\n      tag_28\n      swap2\n      swap1\n      tag_29\n      jump\t// in\n    tag_28:\n      tag_30\n      jump\t// in\n    tag_27:\n      mload(0x40)\n      tag_31\n      swap2\n      swap1\n      tag_32\n      jump\t// in\n    tag_31:\n      mload(0x40)\n      dup1\n      swap2\n      sub\n      swap1\n      return\n        /* \"Marketplace.sol\":4734:5196  function voteMarketItemStars(uint256 _itemId, uint8 _stars) public {\r... */\n    tag_3:\n      callvalue\n      dup1\n      iszero\n      tag_33\n      jumpi\n      0x00\n      dup1\n      revert\n    tag_33:\n      pop\n      tag_34\n      0x04\n      dup1\n      calldatasize\n      sub\n      dup2\n      add\n      swap1\n      tag_35\n      swap2\n      swap1\n      tag_36\n      jump\t// in\n    tag_35:\n      tag_37\n      jump\t// in\n    tag_34:\n      stop\n        /* \"Marketplace.sol\":1693:2469  function buyMarketItem(uint256 _itemId, uint8 _quantity) public payable {\r... */\n    tag_4:\n      tag_38\n      0x04\n      dup1\n      calldatasize\n      sub\n      dup2\n      add\n      swap1\n      tag_39\n      swap2\n      swap1\n      tag_36\n      jump\t// in\n    tag_39:\n      tag_40\n      jump\t// in\n    tag_38:\n      stop\n        /* \"@openzeppelin/contracts/access/AccessControl.sol\":4008:4137  function getRoleAdmin(bytes32 role) public view virtual override returns (bytes32) {... */\n    tag_5:\n      callvalue\n      dup1\n      iszero\n      tag_41\n      jumpi\n      0x00\n      dup1\n      revert\n    tag_41:\n      pop\n      tag_42\n      0x04\n      dup1\n      calldatasize\n      sub\n      dup2\n      add\n      swap1\n      tag_43\n      swap2\n      swap1\n      tag_44\n      jump\t// in\n    tag_43:\n      tag_45\n      jump\t// in\n    tag_42:\n      mload(0x40)\n      tag_46\n      swap2\n      swap1\n      tag_47\n      jump\t// in\n    tag_46:\n      mload(0x40)\n      dup1\n      swap2\n      sub\n      swap1\n      return\n        /* \"@openzeppelin/contracts/access/AccessControl.sol\":4387:4532  function grantRole(bytes32 role, address account) public virtual override onlyRole(getRoleAdmin(role)) {... */\n    tag_6:\n      callvalue\n      dup1\n      iszero\n      tag_48\n      jumpi\n      0x00\n      dup1\n      revert\n    tag_48:\n      pop\n      tag_49\n      0x04\n      dup1\n      calldatasize\n      sub\n      dup2\n      add\n      swap1\n      tag_50\n      swap2\n      swap1\n      tag_51\n      jump\t// in\n    tag_50:\n      tag_52\n      jump\t// in\n    tag_49:\n      stop\n        /* \"@openzeppelin/contracts/access/AccessControl.sol\":5404:5618  function renounceRole(bytes32 role, address account) public virtual override {... */\n    tag_7:\n      callvalue\n      dup1\n      iszero\n      tag_53\n      jumpi\n      0x00\n      dup1\n      revert\n    tag_53:\n      pop\n      tag_54\n      0x04\n      dup1\n      calldatasize\n      sub\n      dup2\n      add\n      swap1\n      tag_55\n      swap2\n      swap1\n      tag_51\n      jump\t// in\n    tag_55:\n      tag_56\n      jump\t// in\n    tag_54:\n      stop\n        /* \"Marketplace.sol\":1157:1685  function createMarketItem(string memory _title, string memory _description, address payable _seller, uint256 _price, string memory _imageUrl, uint8 _quantity, bool _isActive) public {\r... */\n    tag_8:\n      callvalue\n      dup1\n      iszero\n      tag_57\n      jumpi\n      0x00\n      dup1\n      revert\n    tag_57:\n      pop\n      tag_58\n      0x04\n      dup1\n      calldatasize\n      sub\n      dup2\n      add\n      swap1\n      tag_59\n      swap2\n      swap1\n      tag_60\n      jump\t// in\n    tag_59:\n      tag_61\n      jump\t// in\n    tag_58:\n      stop\n        /* \"Marketplace.sol\":249:278  uint256 public nextItemId = 0 */\n    tag_9:\n      callvalue\n      dup1\n      iszero\n      tag_62\n      jumpi\n      0x00\n      dup1\n      revert\n    tag_62:\n      pop\n      tag_63\n      tag_64\n      jump\t// in\n    tag_63:\n      mload(0x40)\n      tag_65\n      swap2\n      swap1\n      tag_66\n      jump\t// in\n    tag_65:\n      mload(0x40)\n      dup1\n      swap2\n      sub\n      swap1\n      return\n        /* \"Marketplace.sol\":5206:5724  function getAverageStars(uint256 _itemId) public view returns (uint256) {\r... */\n    tag_10:\n      callvalue\n      dup1\n      iszero\n      tag_67\n      jumpi\n      0x00\n      dup1\n      revert\n    tag_67:\n      pop\n      tag_68\n      0x04\n      dup1\n      calldatasize\n      sub\n      dup2\n      add\n      swap1\n      tag_69\n      swap2\n      swap1\n      tag_70\n      jump\t// in\n    tag_69:\n      tag_71\n      jump\t// in\n    tag_68:\n      mload(0x40)\n      tag_72\n      swap2\n      swap1\n      tag_66\n      jump\t// in\n    tag_72:\n      mload(0x40)\n      dup1\n      swap2\n      sub\n      swap1\n      return\n        /* \"Marketplace.sol\":2775:3113  function getMarketItemDetails(uint256 _itemId) public view returns (string memory description, string memory imageUrl, uint8 quantity, uint256 createdAt, uint256 updatedAt) {\r... */\n    tag_11:\n      callvalue\n      dup1\n      iszero\n      tag_73\n      jumpi\n      0x00\n      dup1\n      revert\n    tag_73:\n      pop\n      tag_74\n      0x04\n      dup1\n      calldatasize\n      sub\n      dup2\n      add\n      swap1\n      tag_75\n      swap2\n      swap1\n      tag_70\n      jump\t// in\n    tag_75:\n      tag_76\n      jump\t// in\n    tag_74:\n      mload(0x40)\n      tag_77\n      swap6\n      swap5\n      swap4\n      swap3\n      swap2\n      swap1\n      tag_78\n      jump\t// in\n    tag_77:\n      mload(0x40)\n      dup1\n      swap2\n      sub\n      swap1\n      return\n        /* \"Marketplace.sol\":3121:3368  function updateMarketItemDescription(uint256 _itemId, string memory _description) public onlyProductSeller(_itemId) {\r... */\n    tag_12:\n      callvalue\n      dup1\n      iszero\n      tag_79\n      jumpi\n      0x00\n      dup1\n      revert\n    tag_79:\n      pop\n      tag_80\n      0x04\n      dup1\n      calldatasize\n      sub\n      dup2\n      add\n      swap1\n      tag_81\n      swap2\n      swap1\n      tag_82\n      jump\t// in\n    tag_81:\n      tag_83\n      jump\t// in\n    tag_80:\n      stop\n        /* \"@openzeppelin/contracts/access/AccessControl.sol\":2909:3054  function hasRole(bytes32 role, address account) public view virtual override returns (bool) {... */\n    tag_13:\n      callvalue\n      dup1\n      iszero\n      tag_84\n      jumpi\n      0x00\n      dup1\n      revert\n    tag_84:\n      pop\n      tag_85\n      0x04\n      dup1\n      calldatasize\n      sub\n      dup2\n      add\n      swap1\n      tag_86\n      swap2\n      swap1\n      tag_51\n      jump\t// in\n    tag_86:\n      tag_87\n      jump\t// in\n    tag_85:\n      mload(0x40)\n      tag_88\n      swap2\n      swap1\n      tag_32\n      jump\t// in\n    tag_88:\n      mload(0x40)\n      dup1\n      swap2\n      sub\n      swap1\n      return\n        /* \"@openzeppelin/contracts/access/AccessControl.sol\":2027:2076  bytes32 public constant DEFAULT_ADMIN_ROLE = 0x00 */\n    tag_14:\n      callvalue\n      dup1\n      iszero\n      tag_89\n      jumpi\n      0x00\n      dup1\n      revert\n    tag_89:\n      pop\n      tag_90\n      tag_91\n      jump\t// in\n    tag_90:\n      mload(0x40)\n      tag_92\n      swap2\n      swap1\n      tag_47\n      jump\t// in\n    tag_92:\n      mload(0x40)\n      dup1\n      swap2\n      sub\n      swap1\n      return\n        /* \"Marketplace.sol\":3852:4069  function updateMarketItemPrice(uint256 _itemId, uint256 _price) public onlyProductSeller(_itemId) {\r... */\n    tag_15:\n      callvalue\n      dup1\n      iszero\n      tag_93\n      jumpi\n      0x00\n      dup1\n      revert\n    tag_93:\n      pop\n      tag_94\n      0x04\n      dup1\n      calldatasize\n      sub\n      dup2\n      add\n      swap1\n      tag_95\n      swap2\n      swap1\n      tag_96\n      jump\t// in\n    tag_95:\n      tag_97\n      jump\t// in\n    tag_94:\n      stop\n        /* \"Marketplace.sol\":168:242  bytes32 public constant MARKETPLACE_OWNER = keccak256(\"MARKETPLACE_OWNER\") */\n    tag_16:\n      callvalue\n      dup1\n      iszero\n      tag_98\n      jumpi\n      0x00\n      dup1\n      revert\n    tag_98:\n      pop\n      tag_99\n      tag_100\n      jump\t// in\n    tag_99:\n      mload(0x40)\n      tag_101\n      swap2\n      swap1\n      tag_47\n      jump\t// in\n    tag_101:\n      mload(0x40)\n      dup1\n      swap2\n      sub\n      swap1\n      return\n        /* \"Marketplace.sol\":4077:4301  function updateMarketItemActive(uint256 _itemId, bool _isActive) public onlyProductSeller(_itemId) {\r... */\n    tag_17:\n      callvalue\n      dup1\n      iszero\n      tag_102\n      jumpi\n      0x00\n      dup1\n      revert\n    tag_102:\n      pop\n      tag_103\n      0x04\n      dup1\n      calldatasize\n      sub\n      dup2\n      add\n      swap1\n      tag_104\n      swap2\n      swap1\n      tag_105\n      jump\t// in\n    tag_104:\n      tag_106\n      jump\t// in\n    tag_103:\n      stop\n        /* \"Marketplace.sol\":2477:2767  function getMarketItem(uint256 _itemId) public view returns (string memory title, address payable seller, uint256 price, bool isActive) {\r... */\n    tag_18:\n      callvalue\n      dup1\n      iszero\n      tag_107\n      jumpi\n      0x00\n      dup1\n      revert\n    tag_107:\n      pop\n      tag_108\n      0x04\n      dup1\n      calldatasize\n      sub\n      dup2\n      add\n      swap1\n      tag_109\n      swap2\n      swap1\n      tag_70\n      jump\t// in\n    tag_109:\n      tag_110\n      jump\t// in\n    tag_108:\n      mload(0x40)\n      tag_111\n      swap5\n      swap4\n      swap3\n      swap2\n      swap1\n      tag_112\n      jump\t// in\n    tag_111:\n      mload(0x40)\n      dup1\n      swap2\n      sub\n      swap1\n      return\n        /* \"@openzeppelin/contracts/access/AccessControl.sol\":4766:4913  function revokeRole(bytes32 role, address account) public virtual override onlyRole(getRoleAdmin(role)) {... */\n    tag_19:\n      callvalue\n      dup1\n      iszero\n      tag_113\n      jumpi\n      0x00\n      dup1\n      revert\n    tag_113:\n      pop\n      tag_114\n      0x04\n      dup1\n      calldatasize\n      sub\n      dup2\n      add\n      swap1\n      tag_115\n      swap2\n      swap1\n      tag_51\n      jump\t// in\n    tag_115:\n      tag_116\n      jump\t// in\n    tag_114:\n      stop\n        /* \"Marketplace.sol\":3376:3603  function updateMarketItemQuantity(uint256 _itemId, uint8 _quantity) public onlyProductSeller(_itemId) {\r... */\n    tag_20:\n      callvalue\n      dup1\n      iszero\n      tag_117\n      jumpi\n      0x00\n      dup1\n      revert\n    tag_117:\n      pop\n      tag_118\n      0x04\n      dup1\n      calldatasize\n      sub\n      dup2\n      add\n      swap1\n      tag_119\n      swap2\n      swap1\n      tag_36\n      jump\t// in\n    tag_119:\n      tag_120\n      jump\t// in\n    tag_118:\n      stop\n        /* \"Marketplace.sol\":3611:3844  function updateMarketItemImgUrl(uint256 _itemId, string memory _imageUrl) public onlyProductSeller(_itemId) {\r... */\n    tag_21:\n      callvalue\n      dup1\n      iszero\n      tag_121\n      jumpi\n      0x00\n      dup1\n      revert\n    tag_121:\n      pop\n      tag_122\n      0x04\n      dup1\n      calldatasize\n      sub\n      dup2\n      add\n      swap1\n      tag_123\n      swap2\n      swap1\n      tag_82\n      jump\t// in\n    tag_123:\n      tag_124\n      jump\t// in\n    tag_122:\n      stop\n        /* \"Marketplace.sol\":4578:4726  function checkBuyer(uint256 _itemId, address _buyer) public view returns (bool) {\r... */\n    tag_22:\n      callvalue\n      dup1\n      iszero\n      tag_125\n      jumpi\n      0x00\n      dup1\n      revert\n    tag_125:\n      pop\n      tag_126\n      0x04\n      dup1\n      calldatasize\n      sub\n      dup2\n      add\n      swap1\n      tag_127\n      swap2\n      swap1\n      tag_128\n      jump\t// in\n    tag_127:\n      tag_129\n      jump\t// in\n    tag_126:\n      mload(0x40)\n      tag_130\n      swap2\n      swap1\n      tag_32\n      jump\t// in\n    tag_130:\n      mload(0x40)\n      dup1\n      swap2\n      sub\n      swap1\n      return\n        /* \"@openzeppelin/contracts/access/AccessControl.sol\":2620:2822  function supportsInterface(bytes4 interfaceId) public view virtual override returns (bool) {... */\n    tag_30:\n        /* \"@openzeppelin/contracts/access/AccessControl.sol\":2705:2709  bool */\n      0x00\n        /* \"@openzeppelin/contracts/access/AccessControl.sol\":2743:2775  type(IAccessControl).interfaceId */\n      0x7965db0b00000000000000000000000000000000000000000000000000000000\n        /* \"@openzeppelin/contracts/access/AccessControl.sol\":2728:2775  interfaceId == type(IAccessControl).interfaceId */\n      not(0xffffffffffffffffffffffffffffffffffffffffffffffffffffffff)\n      and\n        /* \"@openzeppelin/contracts/access/AccessControl.sol\":2728:2739  interfaceId */\n      dup3\n        /* \"@openzeppelin/contracts/access/AccessControl.sol\":2728:2775  interfaceId == type(IAccessControl).interfaceId */\n      not(0xffffffffffffffffffffffffffffffffffffffffffffffffffffffff)\n      and\n      eq\n        /* \"@openzeppelin/contracts/access/AccessControl.sol\":2728:2815  interfaceId == type(IAccessControl).interfaceId || super.supportsInterface(interfaceId) */\n      dup1\n      tag_132\n      jumpi\n      pop\n        /* \"@openzeppelin/contracts/access/AccessControl.sol\":2779:2815  super.supportsInterface(interfaceId) */\n      tag_133\n        /* \"@openzeppelin/contracts/access/AccessControl.sol\":2803:2814  interfaceId */\n      dup3\n        /* \"@openzeppelin/contracts/access/AccessControl.sol\":2779:2802  super.supportsInterface */\n      tag_134\n        /* \"@openzeppelin/contracts/access/AccessControl.sol\":2779:2815  super.supportsInterface(interfaceId) */\n      jump\t// in\n    tag_133:\n        /* \"@openzeppelin/contracts/access/AccessControl.sol\":2728:2815  interfaceId == type(IAccessControl).interfaceId || super.supportsInterface(interfaceId) */\n    tag_132:\n        /* \"@openzeppelin/contracts/access/AccessControl.sol\":2721:2815  return interfaceId == type(IAccessControl).interfaceId || super.supportsInterface(interfaceId) */\n      swap1\n      pop\n        /* \"@openzeppelin/contracts/access/AccessControl.sol\":2620:2822  function supportsInterface(bytes4 interfaceId) public view virtual override returns (bool) {... */\n      swap2\n      swap1\n      pop\n      jump\t// out\n        /* \"Marketplace.sol\":4734:5196  function voteMarketItemStars(uint256 _itemId, uint8 _stars) public {\r... */\n    tag_37:\n        /* \"Marketplace.sol\":4834:4848  idToMarketItem */\n      0x03\n        /* \"Marketplace.sol\":4834:4857  idToMarketItem[_itemId] */\n      0x00\n        /* \"Marketplace.sol\":4849:4856  _itemId */\n      dup4\n        /* \"Marketplace.sol\":4834:4857  idToMarketItem[_itemId] */\n      dup2\n      mstore\n      0x20\n      add\n      swap1\n      dup2\n      mstore\n      0x20\n      add\n      0x00\n      keccak256\n        /* \"Marketplace.sol\":4834:4864  idToMarketItem[_itemId].seller */\n      0x04\n      add\n      0x00\n      swap1\n      sload\n      swap1\n      0x0100\n      exp\n      swap1\n      div\n      0xffffffffffffffffffffffffffffffffffffffff\n      and\n        /* \"Marketplace.sol\":4820:4864  msg.sender != idToMarketItem[_itemId].seller */\n      0xffffffffffffffffffffffffffffffffffffffff\n      and\n        /* \"Marketplace.sol\":4820:4830  msg.sender */\n      caller\n        /* \"Marketplace.sol\":4820:4864  msg.sender != idToMarketItem[_itemId].seller */\n      0xffffffffffffffffffffffffffffffffffffffff\n      and\n      eq\n      iszero\n        /* \"Marketplace.sol\":4812:4891  require(msg.sender != idToMarketItem[_itemId].seller, \"The seller cannot vote\") */\n      tag_136\n      jumpi\n      mload(0x40)\n      0x08c379a000000000000000000000000000000000000000000000000000000000\n      dup2\n      mstore\n      0x04\n      add\n      tag_137\n      swap1\n      tag_138\n      jump\t// in\n    tag_137:\n      mload(0x40)\n      dup1\n      swap2\n      sub\n      swap1\n      revert\n    tag_136:\n        /* \"Marketplace.sol\":4920:4921  5 */\n      0x05\n        /* \"Marketplace.sol\":4910:4916  _stars */\n      dup2\n        /* \"Marketplace.sol\":4910:4921  _stars <= 5 */\n      0xff\n      and\n      gt\n      iszero\n        /* \"Marketplace.sol\":4902:4963  require(_stars <= 5, \"Stars must be less than or equal to 5\") */\n      tag_139\n      jumpi\n      mload(0x40)\n      0x08c379a000000000000000000000000000000000000000000000000000000000\n      dup2\n      mstore\n      0x04\n      add\n      tag_140\n      swap1\n      tag_141\n      jump\t// in\n    tag_140:\n      mload(0x40)\n      dup1\n      swap2\n      sub\n      swap1\n      revert\n    tag_139:\n        /* \"Marketplace.sol\":4992:4993  1 */\n      0x01\n        /* \"Marketplace.sol\":4982:4988  _stars */\n      dup2\n        /* \"Marketplace.sol\":4982:4993  _stars >= 1 */\n      0xff\n      and\n      lt\n      iszero\n        /* \"Marketplace.sol\":4974:5038  require(_stars >= 1, \"Stars must be greater than or equal to 1\") */\n      tag_142\n      jumpi\n      mload(0x40)\n      0x08c379a000000000000000000000000000000000000000000000000000000000\n      dup2\n      mstore\n      0x04\n      add\n      tag_143\n      swap1\n      tag_144\n      jump\t// in\n    tag_143:\n      mload(0x40)\n      dup1\n      swap2\n      sub\n      swap1\n      revert\n    tag_142:\n        /* \"Marketplace.sol\":5057:5088  checkBuyer(_itemId, msg.sender) */\n      tag_145\n        /* \"Marketplace.sol\":5068:5075  _itemId */\n      dup3\n        /* \"Marketplace.sol\":5077:5087  msg.sender */\n      caller\n        /* \"Marketplace.sol\":5057:5067  checkBuyer */\n      tag_129\n        /* \"Marketplace.sol\":5057:5088  checkBuyer(_itemId, msg.sender) */\n      jump\t// in\n    tag_145:\n        /* \"Marketplace.sol\":5049:5126  require(checkBuyer(_itemId, msg.sender), \"You cannot vote for this product.\") */\n      tag_146\n      jumpi\n      mload(0x40)\n      0x08c379a000000000000000000000000000000000000000000000000000000000\n      dup2\n      mstore\n      0x04\n      add\n      tag_147\n      swap1\n      tag_148\n      jump\t// in\n    tag_147:\n      mload(0x40)\n      dup1\n      swap2\n      sub\n      swap1\n      revert\n    tag_146:\n        /* \"Marketplace.sol\":5182:5188  _stars */\n      dup1\n        /* \"Marketplace.sol\":5137:5158  addressToProductVotes */\n      0x04\n        /* \"Marketplace.sol\":5137:5170  addressToProductVotes[msg.sender] */\n      0x00\n        /* \"Marketplace.sol\":5159:5169  msg.sender */\n      caller\n        /* \"Marketplace.sol\":5137:5170  addressToProductVotes[msg.sender] */\n      0xffffffffffffffffffffffffffffffffffffffff\n      and\n      0xffffffffffffffffffffffffffffffffffffffff\n      and\n      dup2\n      mstore\n      0x20\n      add\n      swap1\n      dup2\n      mstore\n      0x20\n      add\n      0x00\n      keccak256\n        /* \"Marketplace.sol\":5137:5179  addressToProductVotes[msg.sender][_itemId] */\n      0x00\n        /* \"Marketplace.sol\":5171:5178  _itemId */\n      dup5\n        /* \"Marketplace.sol\":5137:5179  addressToProductVotes[msg.sender][_itemId] */\n      dup2\n      mstore\n      0x20\n      add\n      swap1\n      dup2\n      mstore\n      0x20\n      add\n      0x00\n      keccak256\n      0x00\n        /* \"Marketplace.sol\":5137:5188  addressToProductVotes[msg.sender][_itemId] = _stars */\n      0x0100\n      exp\n      dup2\n      sload\n      dup2\n      0xff\n      mul\n      not\n      and\n      swap1\n      dup4\n      0xff\n      and\n      mul\n      or\n      swap1\n      sstore\n      pop\n        /* \"Marketplace.sol\":4734:5196  function voteMarketItemStars(uint256 _itemId, uint8 _stars) public {\r... */\n      pop\n      pop\n      jump\t// out\n        /* \"Marketplace.sol\":1693:2469  function buyMarketItem(uint256 _itemId, uint8 _quantity) public payable {\r... */\n    tag_40:\n        /* \"Marketplace.sol\":1776:1794  uint256 finalPrice */\n      0x00\n        /* \"Marketplace.sol\":1829:1838  _quantity */\n      dup2\n        /* \"Marketplace.sol\":1797:1838  idToMarketItem[_itemId].price * _quantity */\n      0xff\n      and\n        /* \"Marketplace.sol\":1797:1811  idToMarketItem */\n      0x03\n        /* \"Marketplace.sol\":1797:1820  idToMarketItem[_itemId] */\n      0x00\n        /* \"Marketplace.sol\":1812:1819  _itemId */\n      dup6\n        /* \"Marketplace.sol\":1797:1820  idToMarketItem[_itemId] */\n      dup2\n      mstore\n      0x20\n      add\n      swap1\n      dup2\n      mstore\n      0x20\n      add\n      0x00\n      keccak256\n        /* \"Marketplace.sol\":1797:1826  idToMarketItem[_itemId].price */\n      0x03\n      add\n      sload\n        /* \"Marketplace.sol\":1797:1838  idToMarketItem[_itemId].price * _quantity */\n      tag_150\n      swap2\n      swap1\n      tag_151\n      jump\t// in\n    tag_150:\n        /* \"Marketplace.sol\":1776:1838  uint256 finalPrice = idToMarketItem[_itemId].price * _quantity */\n      swap1\n      pop\n        /* \"Marketplace.sol\":1871:1880  msg.value */\n      callvalue\n        /* \"Marketplace.sol\":1857:1867  finalPrice */\n      dup2\n        /* \"Marketplace.sol\":1857:1880  finalPrice == msg.value */\n      eq\n        /* \"Marketplace.sol\":1849:1905  require(finalPrice == msg.value, \"Price does not match\") */\n      tag_152\n      jumpi\n      mload(0x40)\n      0x08c379a000000000000000000000000000000000000000000000000000000000\n      dup2\n      mstore\n      0x04\n      add\n      tag_153\n      swap1\n      tag_154\n      jump\t// in\n    tag_153:\n      mload(0x40)\n      dup1\n      swap2\n      sub\n      swap1\n      revert\n    tag_152:\n        /* \"Marketplace.sol\":1936:1937  0 */\n      0x00\n        /* \"Marketplace.sol\":1924:1933  _quantity */\n      dup3\n        /* \"Marketplace.sol\":1924:1937  _quantity > 0 */\n      0xff\n      and\n      gt\n        /* \"Marketplace.sol\":1916:1973  require(_quantity > 0, \"Quantity must be greater than 0\") */\n      tag_155\n      jumpi\n      mload(0x40)\n      0x08c379a000000000000000000000000000000000000000000000000000000000\n      dup2\n      mstore\n      0x04\n      add\n      tag_156\n      swap1\n      tag_157\n      jump\t// in\n    tag_156:\n      mload(0x40)\n      dup1\n      swap2\n      sub\n      swap1\n      revert\n    tag_155:\n        /* \"Marketplace.sol\":2005:2019  idToMarketItem */\n      0x03\n        /* \"Marketplace.sol\":2005:2028  idToMarketItem[_itemId] */\n      0x00\n        /* \"Marketplace.sol\":2020:2027  _itemId */\n      dup5\n        /* \"Marketplace.sol\":2005:2028  idToMarketItem[_itemId] */\n      dup2\n      mstore\n      0x20\n      add\n      swap1\n      dup2\n      mstore\n      0x20\n      add\n      0x00\n      keccak256\n        /* \"Marketplace.sol\":2005:2037  idToMarketItem[_itemId].quantity */\n      0x06\n      add\n      0x00\n      swap1\n      sload\n      swap1\n      0x0100\n      exp\n      swap1\n      div\n      0xff\n      and\n        /* \"Marketplace.sol\":1992:2037  _quantity <= idToMarketItem[_itemId].quantity */\n      0xff\n      and\n        /* \"Marketplace.sol\":1992:2001  _quantity */\n      dup3\n        /* \"Marketplace.sol\":1992:2037  _quantity <= idToMarketItem[_itemId].quantity */\n      0xff\n      and\n      gt\n      iszero\n        /* \"Marketplace.sol\":1984:2103  require(_quantity <= idToMarketItem[_itemId].quantity, \"Quantity must be less than or equal to the available quantity\") */\n      tag_158\n      jumpi\n      mload(0x40)\n      0x08c379a000000000000000000000000000000000000000000000000000000000\n      dup2\n      mstore\n      0x04\n      add\n      tag_159\n      swap1\n      tag_160\n      jump\t// in\n    tag_159:\n      mload(0x40)\n      dup1\n      swap2\n      sub\n      swap1\n      revert\n    tag_158:\n        /* \"Marketplace.sol\":2122:2136  idToMarketItem */\n      0x03\n        /* \"Marketplace.sol\":2122:2145  idToMarketItem[_itemId] */\n      0x00\n        /* \"Marketplace.sol\":2137:2144  _itemId */\n      dup5\n        /* \"Marketplace.sol\":2122:2145  idToMarketItem[_itemId] */\n      dup2\n      mstore\n      0x20\n      add\n      swap1\n      dup2\n      mstore\n      0x20\n      add\n      0x00\n      keccak256\n        /* \"Marketplace.sol\":2122:2154  idToMarketItem[_itemId].isActive */\n      0x09\n      add\n      0x00\n      swap1\n      sload\n      swap1\n      0x0100\n      exp\n      swap1\n      div\n      0xff\n      and\n        /* \"Marketplace.sol\":2114:2184  require(idToMarketItem[_itemId].isActive, \"Market item is not active\") */\n      tag_161\n      jumpi\n      mload(0x40)\n      0x08c379a000000000000000000000000000000000000000000000000000000000\n      dup2\n      mstore\n      0x04\n      add\n      tag_162\n      swap1\n      tag_163\n      jump\t// in\n    tag_162:\n      mload(0x40)\n      dup1\n      swap2\n      sub\n      swap1\n      revert\n    tag_161:\n        /* \"Marketplace.sol\":2195:2209  idToMarketItem */\n      0x03\n        /* \"Marketplace.sol\":2195:2218  idToMarketItem[_itemId] */\n      0x00\n        /* \"Marketplace.sol\":2210:2217  _itemId */\n      dup5\n        /* \"Marketplace.sol\":2195:2218  idToMarketItem[_itemId] */\n      dup2\n      mstore\n      0x20\n      add\n      swap1\n      dup2\n      mstore\n      0x20\n      add\n      0x00\n      keccak256\n        /* \"Marketplace.sol\":2195:2225  idToMarketItem[_itemId].seller */\n      0x04\n      add\n      0x00\n      swap1\n      sload\n      swap1\n      0x0100\n      exp\n      swap1\n      div\n      0xffffffffffffffffffffffffffffffffffffffff\n      and\n        /* \"Marketplace.sol\":2195:2234  idToMarketItem[_itemId].seller.transfer */\n      0xffffffffffffffffffffffffffffffffffffffff\n      and\n        /* \"Marketplace.sol\":2195:2245  idToMarketItem[_itemId].seller.transfer(msg.value) */\n      0x08fc\n        /* \"Marketplace.sol\":2235:2244  msg.value */\n      callvalue\n        /* \"Marketplace.sol\":2195:2245  idToMarketItem[_itemId].seller.transfer(msg.value) */\n      swap1\n      dup2\n      iszero\n      mul\n      swap1\n      mload(0x40)\n      0x00\n      mload(0x40)\n      dup1\n      dup4\n      sub\n      dup2\n      dup6\n      dup9\n      dup9\n      call\n      swap4\n      pop\n      pop\n      pop\n      pop\n      iszero\n      dup1\n      iszero\n      tag_165\n      jumpi\n      returndatasize\n      0x00\n      dup1\n      returndatacopy\n      revert(0x00, returndatasize)\n    tag_165:\n      pop\n        /* \"Marketplace.sol\":2292:2301  _quantity */\n      dup2\n        /* \"Marketplace.sol\":2256:2270  idToMarketItem */\n      0x03\n        /* \"Marketplace.sol\":2256:2279  idToMarketItem[_itemId] */\n      0x00\n        /* \"Marketplace.sol\":2271:2278  _itemId */\n      dup6\n        /* \"Marketplace.sol\":2256:2279  idToMarketItem[_itemId] */\n      dup2\n      mstore\n      0x20\n      add\n      swap1\n      dup2\n      mstore\n      0x20\n      add\n      0x00\n      keccak256\n        /* \"Marketplace.sol\":2256:2288  idToMarketItem[_itemId].quantity */\n      0x06\n      add\n      0x00\n        /* \"Marketplace.sol\":2256:2301  idToMarketItem[_itemId].quantity -= _quantity */\n      dup3\n      dup3\n      dup3\n      swap1\n      sload\n      swap1\n      0x0100\n      exp\n      swap1\n      div\n      0xff\n      and\n      tag_166\n      swap2\n      swap1\n      tag_167\n      jump\t// in\n    tag_166:\n      swap3\n      pop\n      0x0100\n      exp\n      dup2\n      sload\n      dup2\n      0xff\n      mul\n      not\n      and\n      swap1\n      dup4\n      0xff\n      and\n      mul\n      or\n      swap1\n      sstore\n      pop\n        /* \"Marketplace.sol\":2312:2328  idToBuyerAddress */\n      0x02\n        /* \"Marketplace.sol\":2312:2337  idToBuyerAddress[_itemId] */\n      0x00\n        /* \"Marketplace.sol\":2329:2336  _itemId */\n      dup5\n        /* \"Marketplace.sol\":2312:2337  idToBuyerAddress[_itemId] */\n      dup2\n      mstore\n      0x20\n      add\n      swap1\n      dup2\n      mstore\n      0x20\n      add\n      0x00\n      keccak256\n        /* \"Marketplace.sol\":2343:2353  msg.sender */\n      caller\n        /* \"Marketplace.sol\":2312:2354  idToBuyerAddress[_itemId].push(msg.sender) */\n      swap1\n      dup1\n      0x01\n      dup2\n      sload\n      add\n      dup1\n      dup3\n      sstore\n      dup1\n      swap2\n      pop\n      pop\n      0x01\n      swap1\n      sub\n      swap1\n      0x00\n      mstore\n      keccak256(0x00, 0x20)\n      add\n      0x00\n      swap1\n      swap2\n      swap1\n      swap2\n      swap1\n      swap2\n      0x0100\n      exp\n      dup2\n      sload\n      dup2\n      0xffffffffffffffffffffffffffffffffffffffff\n      mul\n      not\n      and\n      swap1\n      dup4\n      0xffffffffffffffffffffffffffffffffffffffff\n      and\n      mul\n      or\n      swap1\n      sstore\n      pop\n        /* \"Marketplace.sol\":2370:2461  BuyItem(_itemId, idToMarketItem[_itemId].price, idToMarketItem[_itemId].seller, msg.sender) */\n      0xf2f622c4ee3232d0d08c3870751d38ddef2eaf0e7e0c5d38239c7dc8921ca680\n        /* \"Marketplace.sol\":2378:2385  _itemId */\n      dup4\n        /* \"Marketplace.sol\":2387:2401  idToMarketItem */\n      0x03\n        /* \"Marketplace.sol\":2387:2410  idToMarketItem[_itemId] */\n      0x00\n        /* \"Marketplace.sol\":2402:2409  _itemId */\n      dup7\n        /* \"Marketplace.sol\":2387:2410  idToMarketItem[_itemId] */\n      dup2\n      mstore\n      0x20\n      add\n      swap1\n      dup2\n      mstore\n      0x20\n      add\n      0x00\n      keccak256\n        /* \"Marketplace.sol\":2387:2416  idToMarketItem[_itemId].price */\n      0x03\n      add\n      sload\n        /* \"Marketplace.sol\":2418:2432  idToMarketItem */\n      0x03\n        /* \"Marketplace.sol\":2418:2441  idToMarketItem[_itemId] */\n      0x00\n        /* \"Marketplace.sol\":2433:2440  _itemId */\n      dup8\n        /* \"Marketplace.sol\":2418:2441  idToMarketItem[_itemId] */\n      dup2\n      mstore\n      0x20\n      add\n      swap1\n      dup2\n      mstore\n      0x20\n      add\n      0x00\n      keccak256\n        /* \"Marketplace.sol\":2418:2448  idToMarketItem[_itemId].seller */\n      0x04\n      add\n      0x00\n      swap1\n      sload\n      swap1\n      0x0100\n      exp\n      swap1\n      div\n      0xffffffffffffffffffffffffffffffffffffffff\n      and\n        /* \"Marketplace.sol\":2450:2460  msg.sender */\n      caller\n        /* \"Marketplace.sol\":2370:2461  BuyItem(_itemId, idToMarketItem[_itemId].price, idToMarketItem[_itemId].seller, msg.sender) */\n      mload(0x40)\n      tag_169\n      swap5\n      swap4\n      swap3\n      swap2\n      swap1\n      tag_170\n      jump\t// in\n    tag_169:\n      mload(0x40)\n      dup1\n      swap2\n      sub\n      swap1\n      log1\n        /* \"Marketplace.sol\":1765:2469  {\r... */\n      pop\n        /* \"Marketplace.sol\":1693:2469  function buyMarketItem(uint256 _itemId, uint8 _quantity) public payable {\r... */\n      pop\n      pop\n      jump\t// out\n        /* \"@openzeppelin/contracts/access/AccessControl.sol\":4008:4137  function getRoleAdmin(bytes32 role) public view virtual override returns (bytes32) {... */\n    tag_45:\n        /* \"@openzeppelin/contracts/access/AccessControl.sol\":4082:4089  bytes32 */\n      0x00\n        /* \"@openzeppelin/contracts/access/AccessControl.sol\":4108:4114  _roles */\n      dup1\n        /* \"@openzeppelin/contracts/access/AccessControl.sol\":4108:4120  _roles[role] */\n      0x00\n        /* \"@openzeppelin/contracts/access/AccessControl.sol\":4115:4119  role */\n      dup4\n        /* \"@openzeppelin/contracts/access/AccessControl.sol\":4108:4120  _roles[role] */\n      dup2\n      mstore\n      0x20\n      add\n      swap1\n      dup2\n      mstore\n      0x20\n      add\n      0x00\n      keccak256\n        /* \"@openzeppelin/contracts/access/AccessControl.sol\":4108:4130  _roles[role].adminRole */\n      0x01\n      add\n      sload\n        /* \"@openzeppelin/contracts/access/AccessControl.sol\":4101:4130  return _roles[role].adminRole */\n      swap1\n      pop\n        /* \"@openzeppelin/contracts/access/AccessControl.sol\":4008:4137  function getRoleAdmin(bytes32 role) public view virtual override returns (bytes32) {... */\n      swap2\n      swap1\n      pop\n      jump\t// out\n        /* \"@openzeppelin/contracts/access/AccessControl.sol\":4387:4532  function grantRole(bytes32 role, address account) public virtual override onlyRole(getRoleAdmin(role)) {... */\n    tag_52:\n        /* \"@openzeppelin/contracts/access/AccessControl.sol\":4470:4488  getRoleAdmin(role) */\n      tag_172\n        /* \"@openzeppelin/contracts/access/AccessControl.sol\":4483:4487  role */\n      dup3\n        /* \"@openzeppelin/contracts/access/AccessControl.sol\":4470:4482  getRoleAdmin */\n      tag_45\n        /* \"@openzeppelin/contracts/access/AccessControl.sol\":4470:4488  getRoleAdmin(role) */\n      jump\t// in\n    tag_172:\n        /* \"@openzeppelin/contracts/access/AccessControl.sol\":2505:2535  _checkRole(role, _msgSender()) */\n      tag_174\n        /* \"@openzeppelin/contracts/access/AccessControl.sol\":2516:2520  role */\n      dup2\n        /* \"@openzeppelin/contracts/access/AccessControl.sol\":2522:2534  _msgSender() */\n      tag_175\n        /* \"@openzeppelin/contracts/access/AccessControl.sol\":2522:2532  _msgSender */\n      tag_176\n        /* \"@openzeppelin/contracts/access/AccessControl.sol\":2522:2534  _msgSender() */\n      jump\t// in\n    tag_175:\n        /* \"@openzeppelin/contracts/access/AccessControl.sol\":2505:2515  _checkRole */\n      tag_177\n        /* \"@openzeppelin/contracts/access/AccessControl.sol\":2505:2535  _checkRole(role, _msgSender()) */\n      jump\t// in\n    tag_174:\n        /* \"@openzeppelin/contracts/access/AccessControl.sol\":4500:4525  _grantRole(role, account) */\n      tag_179\n        /* \"@openzeppelin/contracts/access/AccessControl.sol\":4511:4515  role */\n      dup4\n        /* \"@openzeppelin/contracts/access/AccessControl.sol\":4517:4524  account */\n      dup4\n        /* \"@openzeppelin/contracts/access/AccessControl.sol\":4500:4510  _grantRole */\n      tag_180\n        /* \"@openzeppelin/contracts/access/AccessControl.sol\":4500:4525  _grantRole(role, account) */\n      jump\t// in\n    tag_179:\n        /* \"@openzeppelin/contracts/access/AccessControl.sol\":4387:4532  function grantRole(bytes32 role, address account) public virtual override onlyRole(getRoleAdmin(role)) {... */\n      pop\n      pop\n      pop\n      jump\t// out\n        /* \"@openzeppelin/contracts/access/AccessControl.sol\":5404:5618  function renounceRole(bytes32 role, address account) public virtual override {... */\n    tag_56:\n        /* \"@openzeppelin/contracts/access/AccessControl.sol\":5510:5522  _msgSender() */\n      tag_182\n        /* \"@openzeppelin/contracts/access/AccessControl.sol\":5510:5520  _msgSender */\n      tag_176\n        /* \"@openzeppelin/contracts/access/AccessControl.sol\":5510:5522  _msgSender() */\n      jump\t// in\n    tag_182:\n        /* \"@openzeppelin/contracts/access/AccessControl.sol\":5499:5522  account == _msgSender() */\n      0xffffffffffffffffffffffffffffffffffffffff\n      and\n        /* \"@openzeppelin/contracts/access/AccessControl.sol\":5499:5506  account */\n      dup2\n        /* \"@openzeppelin/contracts/access/AccessControl.sol\":5499:5522  account == _msgSender() */\n      0xffffffffffffffffffffffffffffffffffffffff\n      and\n      eq\n        /* \"@openzeppelin/contracts/access/AccessControl.sol\":5491:5574  require(account == _msgSender(), \"AccessControl: can only renounce roles for self\") */\n      tag_183\n      jumpi\n      mload(0x40)\n      0x08c379a000000000000000000000000000000000000000000000000000000000\n      dup2\n      mstore\n      0x04\n      add\n      tag_184\n      swap1\n      tag_185\n      jump\t// in\n    tag_184:\n      mload(0x40)\n      dup1\n      swap2\n      sub\n      swap1\n      revert\n    tag_183:\n        /* \"@openzeppelin/contracts/access/AccessControl.sol\":5585:5611  _revokeRole(role, account) */\n      tag_186\n        /* \"@openzeppelin/contracts/access/AccessControl.sol\":5597:5601  role */\n      dup3\n        /* \"@openzeppelin/contracts/access/AccessControl.sol\":5603:5610  account */\n      dup3\n        /* \"@openzeppelin/contracts/access/AccessControl.sol\":5585:5596  _revokeRole */\n      tag_187\n        /* \"@openzeppelin/contracts/access/AccessControl.sol\":5585:5611  _revokeRole(role, account) */\n      jump\t// in\n    tag_186:\n        /* \"@openzeppelin/contracts/access/AccessControl.sol\":5404:5618  function renounceRole(bytes32 role, address account) public virtual override {... */\n      pop\n      pop\n      jump\t// out\n        /* \"Marketplace.sol\":1157:1685  function createMarketItem(string memory _title, string memory _description, address payable _seller, uint256 _price, string memory _imageUrl, uint8 _quantity, bool _isActive) public {\r... */\n    tag_61:\n        /* \"Marketplace.sol\":1372:1379  _seller */\n      dup5\n        /* \"Marketplace.sol\":1358:1379  msg.sender == _seller */\n      0xffffffffffffffffffffffffffffffffffffffff\n      and\n        /* \"Marketplace.sol\":1358:1368  msg.sender */\n      caller\n        /* \"Marketplace.sol\":1358:1379  msg.sender == _seller */\n      0xffffffffffffffffffffffffffffffffffffffff\n      and\n      eq\n        /* \"Marketplace.sol\":1350:1424  require(msg.sender == _seller, \"Only the seller can create a market item\") */\n      tag_189\n      jumpi\n      mload(0x40)\n      0x08c379a000000000000000000000000000000000000000000000000000000000\n      dup2\n      mstore\n      0x04\n      add\n      tag_190\n      swap1\n      tag_191\n      jump\t// in\n    tag_190:\n      mload(0x40)\n      dup1\n      swap2\n      sub\n      swap1\n      revert\n    tag_189:\n        /* \"Marketplace.sol\":1452:1453  0 */\n      0x00\n        /* \"Marketplace.sol\":1443:1449  _price */\n      dup5\n        /* \"Marketplace.sol\":1443:1453  _price > 0 */\n      gt\n        /* \"Marketplace.sol\":1435:1486  require(_price > 0, \"Price must be greater than 0\") */\n      tag_192\n      jumpi\n      mload(0x40)\n      0x08c379a000000000000000000000000000000000000000000000000000000000\n      dup2\n      mstore\n      0x04\n      add\n      tag_193\n      swap1\n      tag_194\n      jump\t// in\n    tag_193:\n      mload(0x40)\n      dup1\n      swap2\n      sub\n      swap1\n      revert\n    tag_192:\n        /* \"Marketplace.sol\":1526:1654  MarketItem(nextItemId, _title, _description, _price, _seller, _imageUrl, _quantity, block.timestamp, block.timestamp, _isActive) */\n      mload(0x40)\n      dup1\n      0x0140\n      add\n      0x40\n      mstore\n      dup1\n        /* \"Marketplace.sol\":1537:1547  nextItemId */\n      sload(0x01)\n        /* \"Marketplace.sol\":1526:1654  MarketItem(nextItemId, _title, _description, _price, _seller, _imageUrl, _quantity, block.timestamp, block.timestamp, _isActive) */\n      dup2\n      mstore\n      0x20\n      add\n        /* \"Marketplace.sol\":1549:1555  _title */\n      dup9\n        /* \"Marketplace.sol\":1526:1654  MarketItem(nextItemId, _title, _description, _price, _seller, _imageUrl, _quantity, block.timestamp, block.timestamp, _isActive) */\n      dup2\n      mstore\n      0x20\n      add\n        /* \"Marketplace.sol\":1557:1569  _description */\n      dup8\n        /* \"Marketplace.sol\":1526:1654  MarketItem(nextItemId, _title, _description, _price, _seller, _imageUrl, _quantity, block.timestamp, block.timestamp, _isActive) */\n      dup2\n      mstore\n      0x20\n      add\n        /* \"Marketplace.sol\":1571:1577  _price */\n      dup6\n        /* \"Marketplace.sol\":1526:1654  MarketItem(nextItemId, _title, _description, _price, _seller, _imageUrl, _quantity, block.timestamp, block.timestamp, _isActive) */\n      dup2\n      mstore\n      0x20\n      add\n        /* \"Marketplace.sol\":1579:1586  _seller */\n      dup7\n        /* \"Marketplace.sol\":1526:1654  MarketItem(nextItemId, _title, _description, _price, _seller, _imageUrl, _quantity, block.timestamp, block.timestamp, _isActive) */\n      0xffffffffffffffffffffffffffffffffffffffff\n      and\n      dup2\n      mstore\n      0x20\n      add\n        /* \"Marketplace.sol\":1588:1597  _imageUrl */\n      dup5\n        /* \"Marketplace.sol\":1526:1654  MarketItem(nextItemId, _title, _description, _price, _seller, _imageUrl, _quantity, block.timestamp, block.timestamp, _isActive) */\n      dup2\n      mstore\n      0x20\n      add\n        /* \"Marketplace.sol\":1599:1608  _quantity */\n      dup4\n        /* \"Marketplace.sol\":1526:1654  MarketItem(nextItemId, _title, _description, _price, _seller, _imageUrl, _quantity, block.timestamp, block.timestamp, _isActive) */\n      0xff\n      and\n      dup2\n      mstore\n      0x20\n      add\n        /* \"Marketplace.sol\":1610:1625  block.timestamp */\n      timestamp\n        /* \"Marketplace.sol\":1526:1654  MarketItem(nextItemId, _title, _description, _price, _seller, _imageUrl, _quantity, block.timestamp, block.timestamp, _isActive) */\n      dup2\n      mstore\n      0x20\n      add\n        /* \"Marketplace.sol\":1627:1642  block.timestamp */\n      timestamp\n        /* \"Marketplace.sol\":1526:1654  MarketItem(nextItemId, _title, _description, _price, _seller, _imageUrl, _quantity, block.timestamp, block.timestamp, _isActive) */\n      dup2\n      mstore\n      0x20\n      add\n        /* \"Marketplace.sol\":1644:1653  _isActive */\n      dup3\n        /* \"Marketplace.sol\":1526:1654  MarketItem(nextItemId, _title, _description, _price, _seller, _imageUrl, _quantity, block.timestamp, block.timestamp, _isActive) */\n      iszero\n      iszero\n      dup2\n      mstore\n      pop\n        /* \"Marketplace.sol\":1497:1511  idToMarketItem */\n      0x03\n        /* \"Marketplace.sol\":1497:1523  idToMarketItem[nextItemId] */\n      0x00\n        /* \"Marketplace.sol\":1512:1522  nextItemId */\n      sload(0x01)\n        /* \"Marketplace.sol\":1497:1523  idToMarketItem[nextItemId] */\n      dup2\n      mstore\n      0x20\n      add\n      swap1\n      dup2\n      mstore\n      0x20\n      add\n      0x00\n      keccak256\n        /* \"Marketplace.sol\":1497:1654  idToMarketItem[nextItemId] = MarketItem(nextItemId, _title, _description, _price, _seller, _imageUrl, _quantity, block.timestamp, block.timestamp, _isActive) */\n      0x00\n      dup3\n      add\n      mload\n      dup2\n      0x00\n      add\n      sstore\n      0x20\n      dup3\n      add\n      mload\n      dup2\n      0x01\n      add\n      swap1\n      dup1\n      mload\n      swap1\n      0x20\n      add\n      swap1\n      tag_195\n      swap3\n      swap2\n      swap1\n      tag_196\n      jump\t// in\n    tag_195:\n      pop\n      0x40\n      dup3\n      add\n      mload\n      dup2\n      0x02\n      add\n      swap1\n      dup1\n      mload\n      swap1\n      0x20\n      add\n      swap1\n      tag_197\n      swap3\n      swap2\n      swap1\n      tag_196\n      jump\t// in\n    tag_197:\n      pop\n      0x60\n      dup3\n      add\n      mload\n      dup2\n      0x03\n      add\n      sstore\n      0x80\n      dup3\n      add\n      mload\n      dup2\n      0x04\n      add\n      exp(0x0100, 0x00)\n      dup2\n      sload\n      dup2\n      0xffffffffffffffffffffffffffffffffffffffff\n      mul\n      not\n      and\n      swap1\n      dup4\n      0xffffffffffffffffffffffffffffffffffffffff\n      and\n      mul\n      or\n      swap1\n      sstore\n      pop\n      0xa0\n      dup3\n      add\n      mload\n      dup2\n      0x05\n      add\n      swap1\n      dup1\n      mload\n      swap1\n      0x20\n      add\n      swap1\n      tag_198\n      swap3\n      swap2\n      swap1\n      tag_196\n      jump\t// in\n    tag_198:\n      pop\n      0xc0\n      dup3\n      add\n      mload\n      dup2\n      0x06\n      add\n      exp(0x0100, 0x00)\n      dup2\n      sload\n      dup2\n      0xff\n      mul\n      not\n      and\n      swap1\n      dup4\n      0xff\n      and\n      mul\n      or\n      swap1\n      sstore\n      pop\n      0xe0\n      dup3\n      add\n      mload\n      dup2\n      0x07\n      add\n      sstore\n      0x0100\n      dup3\n      add\n      mload\n      dup2\n      0x08\n      add\n      sstore\n      0x0120\n      dup3\n      add\n      mload\n      dup2\n      0x09\n      add\n      exp(0x0100, 0x00)\n      dup2\n      sload\n      dup2\n      0xff\n      mul\n      not\n      and\n      swap1\n      dup4\n      iszero\n      iszero\n      mul\n      or\n      swap1\n      sstore\n      pop\n      swap1\n      pop\n      pop\n        /* \"Marketplace.sol\":1665:1675  nextItemId */\n      0x01\n      0x00\n        /* \"Marketplace.sol\":1665:1677  nextItemId++ */\n      dup2\n      sload\n      dup1\n      swap3\n      swap2\n      swap1\n      tag_199\n      swap1\n      tag_200\n      jump\t// in\n    tag_199:\n      swap2\n      swap1\n      pop\n      sstore\n      pop\n        /* \"Marketplace.sol\":1157:1685  function createMarketItem(string memory _title, string memory _description, address payable _seller, uint256 _price, string memory _imageUrl, uint8 _quantity, bool _isActive) public {\r... */\n      pop\n      pop\n      pop\n      pop\n      pop\n      pop\n      pop\n      jump\t// out\n        /* \"Marketplace.sol\":249:278  uint256 public nextItemId = 0 */\n    tag_64:\n      sload(0x01)\n      dup2\n      jump\t// out\n        /* \"Marketplace.sol\":5206:5724  function getAverageStars(uint256 _itemId) public view returns (uint256) {\r... */\n    tag_71:\n        /* \"Marketplace.sol\":5269:5276  uint256 */\n      0x00\n        /* \"Marketplace.sol\":5289:5304  uint256 voteSum */\n      dup1\n        /* \"Marketplace.sol\":5307:5308  0 */\n      0x00\n        /* \"Marketplace.sol\":5289:5308  uint256 voteSum = 0 */\n      swap1\n      pop\n        /* \"Marketplace.sol\":5319:5336  uint256 voteCount */\n      0x00\n        /* \"Marketplace.sol\":5366:5375  uint256 i */\n      dup1\n        /* \"Marketplace.sol\":5361:5670  for (uint256 i = 0; i < idToBuyerAddress[_itemId].length; i++) {\r... */\n    tag_202:\n        /* \"Marketplace.sol\":5385:5401  idToBuyerAddress */\n      0x02\n        /* \"Marketplace.sol\":5385:5410  idToBuyerAddress[_itemId] */\n      0x00\n        /* \"Marketplace.sol\":5402:5409  _itemId */\n      dup7\n        /* \"Marketplace.sol\":5385:5410  idToBuyerAddress[_itemId] */\n      dup2\n      mstore\n      0x20\n      add\n      swap1\n      dup2\n      mstore\n      0x20\n      add\n      0x00\n      keccak256\n        /* \"Marketplace.sol\":5385:5417  idToBuyerAddress[_itemId].length */\n      dup1\n      sload\n      swap1\n      pop\n        /* \"Marketplace.sol\":5381:5382  i */\n      dup2\n        /* \"Marketplace.sol\":5381:5417  i < idToBuyerAddress[_itemId].length */\n      lt\n        /* \"Marketplace.sol\":5361:5670  for (uint256 i = 0; i < idToBuyerAddress[_itemId].length; i++) {\r... */\n      iszero\n      tag_203\n      jumpi\n        /* \"Marketplace.sol\":5439:5452  address buyer */\n      0x00\n        /* \"Marketplace.sol\":5455:5471  idToBuyerAddress */\n      0x02\n        /* \"Marketplace.sol\":5455:5480  idToBuyerAddress[_itemId] */\n      0x00\n        /* \"Marketplace.sol\":5472:5479  _itemId */\n      dup8\n        /* \"Marketplace.sol\":5455:5480  idToBuyerAddress[_itemId] */\n      dup2\n      mstore\n      0x20\n      add\n      swap1\n      dup2\n      mstore\n      0x20\n      add\n      0x00\n      keccak256\n        /* \"Marketplace.sol\":5481:5482  i */\n      dup3\n        /* \"Marketplace.sol\":5455:5483  idToBuyerAddress[_itemId][i] */\n      dup2\n      sload\n      dup2\n      lt\n      tag_205\n      jumpi\n      tag_206\n      tag_207\n      jump\t// in\n    tag_206:\n    tag_205:\n      swap1\n      0x00\n      mstore\n      keccak256(0x00, 0x20)\n      add\n      0x00\n      swap1\n      sload\n      swap1\n      0x0100\n      exp\n      swap1\n      div\n      0xffffffffffffffffffffffffffffffffffffffff\n      and\n        /* \"Marketplace.sol\":5439:5483  address buyer = idToBuyerAddress[_itemId][i] */\n      swap1\n      pop\n        /* \"Marketplace.sol\":5543:5544  0 */\n      0x00\n        /* \"Marketplace.sol\":5502:5523  addressToProductVotes */\n      0x04\n        /* \"Marketplace.sol\":5502:5530  addressToProductVotes[buyer] */\n      0x00\n        /* \"Marketplace.sol\":5524:5529  buyer */\n      dup4\n        /* \"Marketplace.sol\":5502:5530  addressToProductVotes[buyer] */\n      0xffffffffffffffffffffffffffffffffffffffff\n      and\n      0xffffffffffffffffffffffffffffffffffffffff\n      and\n      dup2\n      mstore\n      0x20\n      add\n      swap1\n      dup2\n      mstore\n      0x20\n      add\n      0x00\n      keccak256\n        /* \"Marketplace.sol\":5502:5539  addressToProductVotes[buyer][_itemId] */\n      0x00\n        /* \"Marketplace.sol\":5531:5538  _itemId */\n      dup9\n        /* \"Marketplace.sol\":5502:5539  addressToProductVotes[buyer][_itemId] */\n      dup2\n      mstore\n      0x20\n      add\n      swap1\n      dup2\n      mstore\n      0x20\n      add\n      0x00\n      keccak256\n      0x00\n      swap1\n      sload\n      swap1\n      0x0100\n      exp\n      swap1\n      div\n      0xff\n      and\n        /* \"Marketplace.sol\":5502:5544  addressToProductVotes[buyer][_itemId] != 0 */\n      0xff\n      and\n      eq\n        /* \"Marketplace.sol\":5498:5659  if (addressToProductVotes[buyer][_itemId] != 0) {\r... */\n      tag_209\n      jumpi\n        /* \"Marketplace.sol\":5576:5597  addressToProductVotes */\n      0x04\n        /* \"Marketplace.sol\":5576:5604  addressToProductVotes[buyer] */\n      0x00\n        /* \"Marketplace.sol\":5598:5603  buyer */\n      dup3\n        /* \"Marketplace.sol\":5576:5604  addressToProductVotes[buyer] */\n      0xffffffffffffffffffffffffffffffffffffffff\n      and\n      0xffffffffffffffffffffffffffffffffffffffff\n      and\n      dup2\n      mstore\n      0x20\n      add\n      swap1\n      dup2\n      mstore\n      0x20\n      add\n      0x00\n      keccak256\n        /* \"Marketplace.sol\":5576:5613  addressToProductVotes[buyer][_itemId] */\n      0x00\n        /* \"Marketplace.sol\":5605:5612  _itemId */\n      dup8\n        /* \"Marketplace.sol\":5576:5613  addressToProductVotes[buyer][_itemId] */\n      dup2\n      mstore\n      0x20\n      add\n      swap1\n      dup2\n      mstore\n      0x20\n      add\n      0x00\n      keccak256\n      0x00\n      swap1\n      sload\n      swap1\n      0x0100\n      exp\n      swap1\n      div\n      0xff\n      and\n        /* \"Marketplace.sol\":5565:5613  voteSum += addressToProductVotes[buyer][_itemId] */\n      0xff\n      and\n      dup5\n      tag_210\n      swap2\n      swap1\n      tag_211\n      jump\t// in\n    tag_210:\n      swap4\n      pop\n        /* \"Marketplace.sol\":5632:5643  voteCount++ */\n      dup3\n      dup1\n      tag_212\n      swap1\n      tag_200\n      jump\t// in\n    tag_212:\n      swap4\n      pop\n      pop\n        /* \"Marketplace.sol\":5498:5659  if (addressToProductVotes[buyer][_itemId] != 0) {\r... */\n    tag_209:\n        /* \"Marketplace.sol\":5424:5670  {\r... */\n      pop\n        /* \"Marketplace.sol\":5419:5422  i++ */\n      dup1\n      dup1\n      tag_213\n      swap1\n      tag_200\n      jump\t// in\n    tag_213:\n      swap2\n      pop\n      pop\n        /* \"Marketplace.sol\":5361:5670  for (uint256 i = 0; i < idToBuyerAddress[_itemId].length; i++) {\r... */\n      jump(tag_202)\n    tag_203:\n      pop\n        /* \"Marketplace.sol\":5707:5716  voteCount */\n      dup1\n        /* \"Marketplace.sol\":5700:5703  100 */\n      0x64\n        /* \"Marketplace.sol\":5690:5697  voteSum */\n      dup4\n        /* \"Marketplace.sol\":5690:5703  voteSum * 100 */\n      tag_214\n      swap2\n      swap1\n      tag_151\n      jump\t// in\n    tag_214:\n        /* \"Marketplace.sol\":5689:5716  (voteSum * 100) / voteCount */\n      tag_215\n      swap2\n      swap1\n      tag_216\n      jump\t// in\n    tag_215:\n        /* \"Marketplace.sol\":5682:5716  return (voteSum * 100) / voteCount */\n      swap3\n      pop\n      pop\n      pop\n        /* \"Marketplace.sol\":5206:5724  function getAverageStars(uint256 _itemId) public view returns (uint256) {\r... */\n      swap2\n      swap1\n      pop\n      jump\t// out\n        /* \"Marketplace.sol\":2775:3113  function getMarketItemDetails(uint256 _itemId) public view returns (string memory description, string memory imageUrl, uint8 quantity, uint256 createdAt, uint256 updatedAt) {\r... */\n    tag_76:\n        /* \"Marketplace.sol\":2843:2868  string memory description */\n      0x60\n        /* \"Marketplace.sol\":2870:2892  string memory imageUrl */\n      dup1\n        /* \"Marketplace.sol\":2894:2908  uint8 quantity */\n      0x00\n        /* \"Marketplace.sol\":2910:2927  uint256 createdAt */\n      dup1\n        /* \"Marketplace.sol\":2929:2946  uint256 updatedAt */\n      0x00\n        /* \"Marketplace.sol\":2959:2981  MarketItem memory item */\n      dup1\n        /* \"Marketplace.sol\":2984:2998  idToMarketItem */\n      0x03\n        /* \"Marketplace.sol\":2984:3007  idToMarketItem[_itemId] */\n      0x00\n        /* \"Marketplace.sol\":2999:3006  _itemId */\n      dup9\n        /* \"Marketplace.sol\":2984:3007  idToMarketItem[_itemId] */\n      dup2\n      mstore\n      0x20\n      add\n      swap1\n      dup2\n      mstore\n      0x20\n      add\n      0x00\n      keccak256\n        /* \"Marketplace.sol\":2959:3007  MarketItem memory item = idToMarketItem[_itemId] */\n      mload(0x40)\n      dup1\n      0x0140\n      add\n      0x40\n      mstore\n      swap1\n      dup2\n      0x00\n      dup3\n      add\n      sload\n      dup2\n      mstore\n      0x20\n      add\n      0x01\n      dup3\n      add\n      dup1\n      sload\n      tag_218\n      swap1\n      tag_219\n      jump\t// in\n    tag_218:\n      dup1\n      0x1f\n      add\n      0x20\n      dup1\n      swap2\n      div\n      mul\n      0x20\n      add\n      mload(0x40)\n      swap1\n      dup2\n      add\n      0x40\n      mstore\n      dup1\n      swap3\n      swap2\n      swap1\n      dup2\n      dup2\n      mstore\n      0x20\n      add\n      dup3\n      dup1\n      sload\n      tag_220\n      swap1\n      tag_219\n      jump\t// in\n    tag_220:\n      dup1\n      iszero\n      tag_221\n      jumpi\n      dup1\n      0x1f\n      lt\n      tag_222\n      jumpi\n      0x0100\n      dup1\n      dup4\n      sload\n      div\n      mul\n      dup4\n      mstore\n      swap2\n      0x20\n      add\n      swap2\n      jump(tag_221)\n    tag_222:\n      dup3\n      add\n      swap2\n      swap1\n      0x00\n      mstore\n      keccak256(0x00, 0x20)\n      swap1\n    tag_223:\n      dup2\n      sload\n      dup2\n      mstore\n      swap1\n      0x01\n      add\n      swap1\n      0x20\n      add\n      dup1\n      dup4\n      gt\n      tag_223\n      jumpi\n      dup3\n      swap1\n      sub\n      0x1f\n      and\n      dup3\n      add\n      swap2\n    tag_221:\n      pop\n      pop\n      pop\n      pop\n      pop\n      dup2\n      mstore\n      0x20\n      add\n      0x02\n      dup3\n      add\n      dup1\n      sload\n      tag_224\n      swap1\n      tag_219\n      jump\t// in\n    tag_224:\n      dup1\n      0x1f\n      add\n      0x20\n      dup1\n      swap2\n      div\n      mul\n      0x20\n      add\n      mload(0x40)\n      swap1\n      dup2\n      add\n      0x40\n      mstore\n      dup1\n      swap3\n      swap2\n      swap1\n      dup2\n      dup2\n      mstore\n      0x20\n      add\n      dup3\n      dup1\n      sload\n      tag_225\n      swap1\n      tag_219\n      jump\t// in\n    tag_225:\n      dup1\n      iszero\n      tag_226\n      jumpi\n      dup1\n      0x1f\n      lt\n      tag_227\n      jumpi\n      0x0100\n      dup1\n      dup4\n      sload\n      div\n      mul\n      dup4\n      mstore\n      swap2\n      0x20\n      add\n      swap2\n      jump(tag_226)\n    tag_227:\n      dup3\n      add\n      swap2\n      swap1\n      0x00\n      mstore\n      keccak256(0x00, 0x20)\n      swap1\n    tag_228:\n      dup2\n      sload\n      dup2\n      mstore\n      swap1\n      0x01\n      add\n      swap1\n      0x20\n      add\n      dup1\n      dup4\n      gt\n      tag_228\n      jumpi\n      dup3\n      swap1\n      sub\n      0x1f\n      and\n      dup3\n      add\n      swap2\n    tag_226:\n      pop\n      pop\n      pop\n      pop\n      pop\n      dup2\n      mstore\n      0x20\n      add\n      0x03\n      dup3\n      add\n      sload\n      dup2\n      mstore\n      0x20\n      add\n      0x04\n      dup3\n      add\n      0x00\n      swap1\n      sload\n      swap1\n      0x0100\n      exp\n      swap1\n      div\n      0xffffffffffffffffffffffffffffffffffffffff\n      and\n      0xffffffffffffffffffffffffffffffffffffffff\n      and\n      0xffffffffffffffffffffffffffffffffffffffff\n      and\n      dup2\n      mstore\n      0x20\n      add\n      0x05\n      dup3\n      add\n      dup1\n      sload\n      tag_229\n      swap1\n      tag_219\n      jump\t// in\n    tag_229:\n      dup1\n      0x1f\n      add\n      0x20\n      dup1\n      swap2\n      div\n      mul\n      0x20\n      add\n      mload(0x40)\n      swap1\n      dup2\n      add\n      0x40\n      mstore\n      dup1\n      swap3\n      swap2\n      swap1\n      dup2\n      dup2\n      mstore\n      0x20\n      add\n      dup3\n      dup1\n      sload\n      tag_230\n      swap1\n      tag_219\n      jump\t// in\n    tag_230:\n      dup1\n      iszero\n      tag_231\n      jumpi\n      dup1\n      0x1f\n      lt\n      tag_232\n      jumpi\n      0x0100\n      dup1\n      dup4\n      sload\n      div\n      mul\n      dup4\n      mstore\n      swap2\n      0x20\n      add\n      swap2\n      jump(tag_231)\n    tag_232:\n      dup3\n      add\n      swap2\n      swap1\n      0x00\n      mstore\n      keccak256(0x00, 0x20)\n      swap1\n    tag_233:\n      dup2\n      sload\n      dup2\n      mstore\n      swap1\n      0x01\n      add\n      swap1\n      0x20\n      add\n      dup1\n      dup4\n      gt\n      tag_233\n      jumpi\n      dup3\n      swap1\n      sub\n      0x1f\n      and\n      dup3\n      add\n      swap2\n    tag_231:\n      pop\n      pop\n      pop\n      pop\n      pop\n      dup2\n      mstore\n      0x20\n      add\n      0x06\n      dup3\n      add\n      0x00\n      swap1\n      sload\n      swap1\n      0x0100\n      exp\n      swap1\n      div\n      0xff\n      and\n      0xff\n      and\n      0xff\n      and\n      dup2\n      mstore\n      0x20\n      add\n      0x07\n      dup3\n      add\n      sload\n      dup2\n      mstore\n      0x20\n      add\n      0x08\n      dup3\n      add\n      sload\n      dup2\n      mstore\n      0x20\n      add\n      0x09\n      dup3\n      add\n      0x00\n      swap1\n      sload\n      swap1\n      0x0100\n      exp\n      swap1\n      div\n      0xff\n      and\n      iszero\n      iszero\n      iszero\n      iszero\n      dup2\n      mstore\n      pop\n      pop\n      swap1\n      pop\n        /* \"Marketplace.sol\":3026:3030  item */\n      dup1\n        /* \"Marketplace.sol\":3026:3042  item.description */\n      0x40\n      add\n      mload\n        /* \"Marketplace.sol\":3044:3048  item */\n      dup2\n        /* \"Marketplace.sol\":3044:3057  item.imageUrl */\n      0xa0\n      add\n      mload\n        /* \"Marketplace.sol\":3059:3063  item */\n      dup3\n        /* \"Marketplace.sol\":3059:3072  item.quantity */\n      0xc0\n      add\n      mload\n        /* \"Marketplace.sol\":3074:3078  item */\n      dup4\n        /* \"Marketplace.sol\":3074:3088  item.createdAt */\n      0xe0\n      add\n      mload\n        /* \"Marketplace.sol\":3090:3094  item */\n      dup5\n        /* \"Marketplace.sol\":3090:3104  item.updatedAt */\n      0x0100\n      add\n      mload\n        /* \"Marketplace.sol\":3018:3105  return (item.description, item.imageUrl, item.quantity, item.createdAt, item.updatedAt) */\n      swap6\n      pop\n      swap6\n      pop\n      swap6\n      pop\n      swap6\n      pop\n      swap6\n      pop\n      pop\n        /* \"Marketplace.sol\":2775:3113  function getMarketItemDetails(uint256 _itemId) public view returns (string memory description, string memory imageUrl, uint8 quantity, uint256 createdAt, uint256 updatedAt) {\r... */\n      swap2\n      swap4\n      swap6\n      swap1\n      swap3\n      swap5\n      pop\n      jump\t// out\n        /* \"Marketplace.sol\":3121:3368  function updateMarketItemDescription(uint256 _itemId, string memory _description) public onlyProductSeller(_itemId) {\r... */\n    tag_83:\n        /* \"Marketplace.sol\":3228:3235  _itemId */\n      dup2\n        /* \"Marketplace.sol\":1050:1064  idToMarketItem */\n      0x03\n        /* \"Marketplace.sol\":1050:1073  idToMarketItem[_itemId] */\n      0x00\n        /* \"Marketplace.sol\":1065:1072  _itemId */\n      dup3\n        /* \"Marketplace.sol\":1050:1073  idToMarketItem[_itemId] */\n      dup2\n      mstore\n      0x20\n      add\n      swap1\n      dup2\n      mstore\n      0x20\n      add\n      0x00\n      keccak256\n        /* \"Marketplace.sol\":1050:1080  idToMarketItem[_itemId].seller */\n      0x04\n      add\n      0x00\n      swap1\n      sload\n      swap1\n      0x0100\n      exp\n      swap1\n      div\n      0xffffffffffffffffffffffffffffffffffffffff\n      and\n        /* \"Marketplace.sol\":1036:1080  msg.sender == idToMarketItem[_itemId].seller */\n      0xffffffffffffffffffffffffffffffffffffffff\n      and\n        /* \"Marketplace.sol\":1036:1046  msg.sender */\n      caller\n        /* \"Marketplace.sol\":1036:1080  msg.sender == idToMarketItem[_itemId].seller */\n      0xffffffffffffffffffffffffffffffffffffffff\n      and\n      eq\n        /* \"Marketplace.sol\":1028:1129  require(msg.sender == idToMarketItem[_itemId].seller, \"Only product seller can execute this action.\") */\n      tag_235\n      jumpi\n      mload(0x40)\n      0x08c379a000000000000000000000000000000000000000000000000000000000\n      dup2\n      mstore\n      0x04\n      add\n      tag_236\n      swap1\n      tag_237\n      jump\t// in\n    tag_236:\n      mload(0x40)\n      dup1\n      swap2\n      sub\n      swap1\n      revert\n    tag_235:\n        /* \"Marketplace.sol\":3286:3298  _description */\n      dup2\n        /* \"Marketplace.sol\":3248:3262  idToMarketItem */\n      0x03\n        /* \"Marketplace.sol\":3248:3271  idToMarketItem[_itemId] */\n      0x00\n        /* \"Marketplace.sol\":3263:3270  _itemId */\n      dup6\n        /* \"Marketplace.sol\":3248:3271  idToMarketItem[_itemId] */\n      dup2\n      mstore\n      0x20\n      add\n      swap1\n      dup2\n      mstore\n      0x20\n      add\n      0x00\n      keccak256\n        /* \"Marketplace.sol\":3248:3283  idToMarketItem[_itemId].description */\n      0x02\n      add\n        /* \"Marketplace.sol\":3248:3298  idToMarketItem[_itemId].description = _description */\n      swap1\n      dup1\n      mload\n      swap1\n      0x20\n      add\n      swap1\n      tag_239\n      swap3\n      swap2\n      swap1\n      tag_196\n      jump\t// in\n    tag_239:\n      pop\n        /* \"Marketplace.sol\":3345:3360  block.timestamp */\n      timestamp\n        /* \"Marketplace.sol\":3309:3323  idToMarketItem */\n      0x03\n        /* \"Marketplace.sol\":3309:3332  idToMarketItem[_itemId] */\n      0x00\n        /* \"Marketplace.sol\":3324:3331  _itemId */\n      dup6\n        /* \"Marketplace.sol\":3309:3332  idToMarketItem[_itemId] */\n      dup2\n      mstore\n      0x20\n      add\n      swap1\n      dup2\n      mstore\n      0x20\n      add\n      0x00\n      keccak256\n        /* \"Marketplace.sol\":3309:3342  idToMarketItem[_itemId].updatedAt */\n      0x08\n      add\n        /* \"Marketplace.sol\":3309:3360  idToMarketItem[_itemId].updatedAt = block.timestamp */\n      dup2\n      swap1\n      sstore\n      pop\n        /* \"Marketplace.sol\":3121:3368  function updateMarketItemDescription(uint256 _itemId, string memory _description) public onlyProductSeller(_itemId) {\r... */\n      pop\n      pop\n      pop\n      jump\t// out\n        /* \"@openzeppelin/contracts/access/AccessControl.sol\":2909:3054  function hasRole(bytes32 role, address account) public view virtual override returns (bool) {... */\n    tag_87:\n        /* \"@openzeppelin/contracts/access/AccessControl.sol\":2995:2999  bool */\n      0x00\n        /* \"@openzeppelin/contracts/access/AccessControl.sol\":3018:3024  _roles */\n      dup1\n        /* \"@openzeppelin/contracts/access/AccessControl.sol\":3018:3030  _roles[role] */\n      0x00\n        /* \"@openzeppelin/contracts/access/AccessControl.sol\":3025:3029  role */\n      dup5\n        /* \"@openzeppelin/contracts/access/AccessControl.sol\":3018:3030  _roles[role] */\n      dup2\n      mstore\n      0x20\n      add\n      swap1\n      dup2\n      mstore\n      0x20\n      add\n      0x00\n      keccak256\n        /* \"@openzeppelin/contracts/access/AccessControl.sol\":3018:3038  _roles[role].members */\n      0x00\n      add\n        /* \"@openzeppelin/contracts/access/AccessControl.sol\":3018:3047  _roles[role].members[account] */\n      0x00\n        /* \"@openzeppelin/contracts/access/AccessControl.sol\":3039:3046  account */\n      dup4\n        /* \"@openzeppelin/contracts/access/AccessControl.sol\":3018:3047  _roles[role].members[account] */\n      0xffffffffffffffffffffffffffffffffffffffff\n      and\n      0xffffffffffffffffffffffffffffffffffffffff\n      and\n      dup2\n      mstore\n      0x20\n      add\n      swap1\n      dup2\n      mstore\n      0x20\n      add\n      0x00\n      keccak256\n      0x00\n      swap1\n      sload\n      swap1\n      0x0100\n      exp\n      swap1\n      div\n      0xff\n      and\n        /* \"@openzeppelin/contracts/access/AccessControl.sol\":3011:3047  return _roles[role].members[account] */\n      swap1\n      pop\n        /* \"@openzeppelin/contracts/access/AccessControl.sol\":2909:3054  function hasRole(bytes32 role, address account) public view virtual override returns (bool) {... */\n      swap3\n      swap2\n      pop\n      pop\n      jump\t// out\n        /* \"@openzeppelin/contracts/access/AccessControl.sol\":2027:2076  bytes32 public constant DEFAULT_ADMIN_ROLE = 0x00 */\n    tag_91:\n        /* \"@openzeppelin/contracts/access/AccessControl.sol\":2072:2076  0x00 */\n      0x00\n        /* \"@openzeppelin/contracts/access/AccessControl.sol\":2027:2076  bytes32 public constant DEFAULT_ADMIN_ROLE = 0x00 */\n      dup1\n      shl\n      dup2\n      jump\t// out\n        /* \"Marketplace.sol\":3852:4069  function updateMarketItemPrice(uint256 _itemId, uint256 _price) public onlyProductSeller(_itemId) {\r... */\n    tag_97:\n        /* \"Marketplace.sol\":3941:3948  _itemId */\n      dup2\n        /* \"Marketplace.sol\":1050:1064  idToMarketItem */\n      0x03\n        /* \"Marketplace.sol\":1050:1073  idToMarketItem[_itemId] */\n      0x00\n        /* \"Marketplace.sol\":1065:1072  _itemId */\n      dup3\n        /* \"Marketplace.sol\":1050:1073  idToMarketItem[_itemId] */\n      dup2\n      mstore\n      0x20\n      add\n      swap1\n      dup2\n      mstore\n      0x20\n      add\n      0x00\n      keccak256\n        /* \"Marketplace.sol\":1050:1080  idToMarketItem[_itemId].seller */\n      0x04\n      add\n      0x00\n      swap1\n      sload\n      swap1\n      0x0100\n      exp\n      swap1\n      div\n      0xffffffffffffffffffffffffffffffffffffffff\n      and\n        /* \"Marketplace.sol\":1036:1080  msg.sender == idToMarketItem[_itemId].seller */\n      0xffffffffffffffffffffffffffffffffffffffff\n      and\n        /* \"Marketplace.sol\":1036:1046  msg.sender */\n      caller\n        /* \"Marketplace.sol\":1036:1080  msg.sender == idToMarketItem[_itemId].seller */\n      0xffffffffffffffffffffffffffffffffffffffff\n      and\n      eq\n        /* \"Marketplace.sol\":1028:1129  require(msg.sender == idToMarketItem[_itemId].seller, \"Only product seller can execute this action.\") */\n      tag_242\n      jumpi\n      mload(0x40)\n      0x08c379a000000000000000000000000000000000000000000000000000000000\n      dup2\n      mstore\n      0x04\n      add\n      tag_243\n      swap1\n      tag_237\n      jump\t// in\n    tag_243:\n      mload(0x40)\n      dup1\n      swap2\n      sub\n      swap1\n      revert\n    tag_242:\n        /* \"Marketplace.sol\":3993:3999  _price */\n      dup2\n        /* \"Marketplace.sol\":3961:3975  idToMarketItem */\n      0x03\n        /* \"Marketplace.sol\":3961:3984  idToMarketItem[_itemId] */\n      0x00\n        /* \"Marketplace.sol\":3976:3983  _itemId */\n      dup6\n        /* \"Marketplace.sol\":3961:3984  idToMarketItem[_itemId] */\n      dup2\n      mstore\n      0x20\n      add\n      swap1\n      dup2\n      mstore\n      0x20\n      add\n      0x00\n      keccak256\n        /* \"Marketplace.sol\":3961:3990  idToMarketItem[_itemId].price */\n      0x03\n      add\n        /* \"Marketplace.sol\":3961:3999  idToMarketItem[_itemId].price = _price */\n      dup2\n      swap1\n      sstore\n      pop\n        /* \"Marketplace.sol\":4046:4061  block.timestamp */\n      timestamp\n        /* \"Marketplace.sol\":4010:4024  idToMarketItem */\n      0x03\n        /* \"Marketplace.sol\":4010:4033  idToMarketItem[_itemId] */\n      0x00\n        /* \"Marketplace.sol\":4025:4032  _itemId */\n      dup6\n        /* \"Marketplace.sol\":4010:4033  idToMarketItem[_itemId] */\n      dup2\n      mstore\n      0x20\n      add\n      swap1\n      dup2\n      mstore\n      0x20\n      add\n      0x00\n      keccak256\n        /* \"Marketplace.sol\":4010:4043  idToMarketItem[_itemId].updatedAt */\n      0x08\n      add\n        /* \"Marketplace.sol\":4010:4061  idToMarketItem[_itemId].updatedAt = block.timestamp */\n      dup2\n      swap1\n      sstore\n      pop\n        /* \"Marketplace.sol\":3852:4069  function updateMarketItemPrice(uint256 _itemId, uint256 _price) public onlyProductSeller(_itemId) {\r... */\n      pop\n      pop\n      pop\n      jump\t// out\n        /* \"Marketplace.sol\":168:242  bytes32 public constant MARKETPLACE_OWNER = keccak256(\"MARKETPLACE_OWNER\") */\n    tag_100:\n        /* \"Marketplace.sol\":212:242  keccak256(\"MARKETPLACE_OWNER\") */\n      0x1f9ca85e780b3b3cfbe1334ca9dd68802db7860f692bd163c796bb76d464edc0\n        /* \"Marketplace.sol\":168:242  bytes32 public constant MARKETPLACE_OWNER = keccak256(\"MARKETPLACE_OWNER\") */\n      dup2\n      jump\t// out\n        /* \"Marketplace.sol\":4077:4301  function updateMarketItemActive(uint256 _itemId, bool _isActive) public onlyProductSeller(_itemId) {\r... */\n    tag_106:\n        /* \"Marketplace.sol\":4167:4174  _itemId */\n      dup2\n        /* \"Marketplace.sol\":1050:1064  idToMarketItem */\n      0x03\n        /* \"Marketplace.sol\":1050:1073  idToMarketItem[_itemId] */\n      0x00\n        /* \"Marketplace.sol\":1065:1072  _itemId */\n      dup3\n        /* \"Marketplace.sol\":1050:1073  idToMarketItem[_itemId] */\n      dup2\n      mstore\n      0x20\n      add\n      swap1\n      dup2\n      mstore\n      0x20\n      add\n      0x00\n      keccak256\n        /* \"Marketplace.sol\":1050:1080  idToMarketItem[_itemId].seller */\n      0x04\n      add\n      0x00\n      swap1\n      sload\n      swap1\n      0x0100\n      exp\n      swap1\n      div\n      0xffffffffffffffffffffffffffffffffffffffff\n      and\n        /* \"Marketplace.sol\":1036:1080  msg.sender == idToMarketItem[_itemId].seller */\n      0xffffffffffffffffffffffffffffffffffffffff\n      and\n        /* \"Marketplace.sol\":1036:1046  msg.sender */\n      caller\n        /* \"Marketplace.sol\":1036:1080  msg.sender == idToMarketItem[_itemId].seller */\n      0xffffffffffffffffffffffffffffffffffffffff\n      and\n      eq\n        /* \"Marketplace.sol\":1028:1129  require(msg.sender == idToMarketItem[_itemId].seller, \"Only product seller can execute this action.\") */\n      tag_246\n      jumpi\n      mload(0x40)\n      0x08c379a000000000000000000000000000000000000000000000000000000000\n      dup2\n      mstore\n      0x04\n      add\n      tag_247\n      swap1\n      tag_237\n      jump\t// in\n    tag_247:\n      mload(0x40)\n      dup1\n      swap2\n      sub\n      swap1\n      revert\n    tag_246:\n        /* \"Marketplace.sol\":4222:4231  _isActive */\n      dup2\n        /* \"Marketplace.sol\":4187:4201  idToMarketItem */\n      0x03\n        /* \"Marketplace.sol\":4187:4210  idToMarketItem[_itemId] */\n      0x00\n        /* \"Marketplace.sol\":4202:4209  _itemId */\n      dup6\n        /* \"Marketplace.sol\":4187:4210  idToMarketItem[_itemId] */\n      dup2\n      mstore\n      0x20\n      add\n      swap1\n      dup2\n      mstore\n      0x20\n      add\n      0x00\n      keccak256\n        /* \"Marketplace.sol\":4187:4219  idToMarketItem[_itemId].isActive */\n      0x09\n      add\n      0x00\n        /* \"Marketplace.sol\":4187:4231  idToMarketItem[_itemId].isActive = _isActive */\n      0x0100\n      exp\n      dup2\n      sload\n      dup2\n      0xff\n      mul\n      not\n      and\n      swap1\n      dup4\n      iszero\n      iszero\n      mul\n      or\n      swap1\n      sstore\n      pop\n        /* \"Marketplace.sol\":4278:4293  block.timestamp */\n      timestamp\n        /* \"Marketplace.sol\":4242:4256  idToMarketItem */\n      0x03\n        /* \"Marketplace.sol\":4242:4265  idToMarketItem[_itemId] */\n      0x00\n        /* \"Marketplace.sol\":4257:4264  _itemId */\n      dup6\n        /* \"Marketplace.sol\":4242:4265  idToMarketItem[_itemId] */\n      dup2\n      mstore\n      0x20\n      add\n      swap1\n      dup2\n      mstore\n      0x20\n      add\n      0x00\n      keccak256\n        /* \"Marketplace.sol\":4242:4275  idToMarketItem[_itemId].updatedAt */\n      0x08\n      add\n        /* \"Marketplace.sol\":4242:4293  idToMarketItem[_itemId].updatedAt = block.timestamp */\n      dup2\n      swap1\n      sstore\n      pop\n        /* \"Marketplace.sol\":4077:4301  function updateMarketItemActive(uint256 _itemId, bool _isActive) public onlyProductSeller(_itemId) {\r... */\n      pop\n      pop\n      pop\n      jump\t// out\n        /* \"Marketplace.sol\":2477:2767  function getMarketItem(uint256 _itemId) public view returns (string memory title, address payable seller, uint256 price, bool isActive) {\r... */\n    tag_110:\n        /* \"Marketplace.sol\":2538:2557  string memory title */\n      0x60\n        /* \"Marketplace.sol\":2559:2581  address payable seller */\n      0x00\n        /* \"Marketplace.sol\":2583:2596  uint256 price */\n      dup1\n        /* \"Marketplace.sol\":2598:2611  bool isActive */\n      0x00\n        /* \"Marketplace.sol\":2632:2646  idToMarketItem */\n      0x03\n        /* \"Marketplace.sol\":2632:2655  idToMarketItem[_itemId] */\n      0x00\n        /* \"Marketplace.sol\":2647:2654  _itemId */\n      dup7\n        /* \"Marketplace.sol\":2632:2655  idToMarketItem[_itemId] */\n      dup2\n      mstore\n      0x20\n      add\n      swap1\n      dup2\n      mstore\n      0x20\n      add\n      0x00\n      keccak256\n        /* \"Marketplace.sol\":2632:2661  idToMarketItem[_itemId].title */\n      0x01\n      add\n        /* \"Marketplace.sol\":2663:2677  idToMarketItem */\n      0x03\n        /* \"Marketplace.sol\":2663:2686  idToMarketItem[_itemId] */\n      0x00\n        /* \"Marketplace.sol\":2678:2685  _itemId */\n      dup8\n        /* \"Marketplace.sol\":2663:2686  idToMarketItem[_itemId] */\n      dup2\n      mstore\n      0x20\n      add\n      swap1\n      dup2\n      mstore\n      0x20\n      add\n      0x00\n      keccak256\n        /* \"Marketplace.sol\":2663:2693  idToMarketItem[_itemId].seller */\n      0x04\n      add\n      0x00\n      swap1\n      sload\n      swap1\n      0x0100\n      exp\n      swap1\n      div\n      0xffffffffffffffffffffffffffffffffffffffff\n      and\n        /* \"Marketplace.sol\":2695:2709  idToMarketItem */\n      0x03\n        /* \"Marketplace.sol\":2695:2718  idToMarketItem[_itemId] */\n      0x00\n        /* \"Marketplace.sol\":2710:2717  _itemId */\n      dup9\n        /* \"Marketplace.sol\":2695:2718  idToMarketItem[_itemId] */\n      dup2\n      mstore\n      0x20\n      add\n      swap1\n      dup2\n      mstore\n      0x20\n      add\n      0x00\n      keccak256\n        /* \"Marketplace.sol\":2695:2724  idToMarketItem[_itemId].price */\n      0x03\n      add\n      sload\n        /* \"Marketplace.sol\":2726:2740  idToMarketItem */\n      0x03\n        /* \"Marketplace.sol\":2726:2749  idToMarketItem[_itemId] */\n      0x00\n        /* \"Marketplace.sol\":2741:2748  _itemId */\n      dup10\n        /* \"Marketplace.sol\":2726:2749  idToMarketItem[_itemId] */\n      dup2\n      mstore\n      0x20\n      add\n      swap1\n      dup2\n      mstore\n      0x20\n      add\n      0x00\n      keccak256\n        /* \"Marketplace.sol\":2726:2758  idToMarketItem[_itemId].isActive */\n      0x09\n      add\n      0x00\n      swap1\n      sload\n      swap1\n      0x0100\n      exp\n      swap1\n      div\n      0xff\n      and\n        /* \"Marketplace.sol\":2624:2759  return (idToMarketItem[_itemId].title, idToMarketItem[_itemId].seller, idToMarketItem[_itemId].price, idToMarketItem[_itemId].isActive) */\n      dup4\n      dup1\n      sload\n      tag_250\n      swap1\n      tag_219\n      jump\t// in\n    tag_250:\n      dup1\n      0x1f\n      add\n      0x20\n      dup1\n      swap2\n      div\n      mul\n      0x20\n      add\n      mload(0x40)\n      swap1\n      dup2\n      add\n      0x40\n      mstore\n      dup1\n      swap3\n      swap2\n      swap1\n      dup2\n      dup2\n      mstore\n      0x20\n      add\n      dup3\n      dup1\n      sload\n      tag_251\n      swap1\n      tag_219\n      jump\t// in\n    tag_251:\n      dup1\n      iszero\n      tag_252\n      jumpi\n      dup1\n      0x1f\n      lt\n      tag_253\n      jumpi\n      0x0100\n      dup1\n      dup4\n      sload\n      div\n      mul\n      dup4\n      mstore\n      swap2\n      0x20\n      add\n      swap2\n      jump(tag_252)\n    tag_253:\n      dup3\n      add\n      swap2\n      swap1\n      0x00\n      mstore\n      keccak256(0x00, 0x20)\n      swap1\n    tag_254:\n      dup2\n      sload\n      dup2\n      mstore\n      swap1\n      0x01\n      add\n      swap1\n      0x20\n      add\n      dup1\n      dup4\n      gt\n      tag_254\n      jumpi\n      dup3\n      swap1\n      sub\n      0x1f\n      and\n      dup3\n      add\n      swap2\n    tag_252:\n      pop\n      pop\n      pop\n      pop\n      pop\n      swap4\n      pop\n      swap4\n      pop\n      swap4\n      pop\n      swap4\n      pop\n      swap4\n      pop\n        /* \"Marketplace.sol\":2477:2767  function getMarketItem(uint256 _itemId) public view returns (string memory title, address payable seller, uint256 price, bool isActive) {\r... */\n      swap2\n      swap4\n      pop\n      swap2\n      swap4\n      jump\t// out\n        /* \"@openzeppelin/contracts/access/AccessControl.sol\":4766:4913  function revokeRole(bytes32 role, address account) public virtual override onlyRole(getRoleAdmin(role)) {... */\n    tag_116:\n        /* \"@openzeppelin/contracts/access/AccessControl.sol\":4850:4868  getRoleAdmin(role) */\n      tag_255\n        /* \"@openzeppelin/contracts/access/AccessControl.sol\":4863:4867  role */\n      dup3\n        /* \"@openzeppelin/contracts/access/AccessControl.sol\":4850:4862  getRoleAdmin */\n      tag_45\n        /* \"@openzeppelin/contracts/access/AccessControl.sol\":4850:4868  getRoleAdmin(role) */\n      jump\t// in\n    tag_255:\n        /* \"@openzeppelin/contracts/access/AccessControl.sol\":2505:2535  _checkRole(role, _msgSender()) */\n      tag_257\n        /* \"@openzeppelin/contracts/access/AccessControl.sol\":2516:2520  role */\n      dup2\n        /* \"@openzeppelin/contracts/access/AccessControl.sol\":2522:2534  _msgSender() */\n      tag_258\n        /* \"@openzeppelin/contracts/access/AccessControl.sol\":2522:2532  _msgSender */\n      tag_176\n        /* \"@openzeppelin/contracts/access/AccessControl.sol\":2522:2534  _msgSender() */\n      jump\t// in\n    tag_258:\n        /* \"@openzeppelin/contracts/access/AccessControl.sol\":2505:2515  _checkRole */\n      tag_177\n        /* \"@openzeppelin/contracts/access/AccessControl.sol\":2505:2535  _checkRole(role, _msgSender()) */\n      jump\t// in\n    tag_257:\n        /* \"@openzeppelin/contracts/access/AccessControl.sol\":4880:4906  _revokeRole(role, account) */\n      tag_260\n        /* \"@openzeppelin/contracts/access/AccessControl.sol\":4892:4896  role */\n      dup4\n        /* \"@openzeppelin/contracts/access/AccessControl.sol\":4898:4905  account */\n      dup4\n        /* \"@openzeppelin/contracts/access/AccessControl.sol\":4880:4891  _revokeRole */\n      tag_187\n        /* \"@openzeppelin/contracts/access/AccessControl.sol\":4880:4906  _revokeRole(role, account) */\n      jump\t// in\n    tag_260:\n        /* \"@openzeppelin/contracts/access/AccessControl.sol\":4766:4913  function revokeRole(bytes32 role, address account) public virtual override onlyRole(getRoleAdmin(role)) {... */\n      pop\n      pop\n      pop\n      jump\t// out\n        /* \"Marketplace.sol\":3376:3603  function updateMarketItemQuantity(uint256 _itemId, uint8 _quantity) public onlyProductSeller(_itemId) {\r... */\n    tag_120:\n        /* \"Marketplace.sol\":3469:3476  _itemId */\n      dup2\n        /* \"Marketplace.sol\":1050:1064  idToMarketItem */\n      0x03\n        /* \"Marketplace.sol\":1050:1073  idToMarketItem[_itemId] */\n      0x00\n        /* \"Marketplace.sol\":1065:1072  _itemId */\n      dup3\n        /* \"Marketplace.sol\":1050:1073  idToMarketItem[_itemId] */\n      dup2\n      mstore\n      0x20\n      add\n      swap1\n      dup2\n      mstore\n      0x20\n      add\n      0x00\n      keccak256\n        /* \"Marketplace.sol\":1050:1080  idToMarketItem[_itemId].seller */\n      0x04\n      add\n      0x00\n      swap1\n      sload\n      swap1\n      0x0100\n      exp\n      swap1\n      div\n      0xffffffffffffffffffffffffffffffffffffffff\n      and\n        /* \"Marketplace.sol\":1036:1080  msg.sender == idToMarketItem[_itemId].seller */\n      0xffffffffffffffffffffffffffffffffffffffff\n      and\n        /* \"Marketplace.sol\":1036:1046  msg.sender */\n      caller\n        /* \"Marketplace.sol\":1036:1080  msg.sender == idToMarketItem[_itemId].seller */\n      0xffffffffffffffffffffffffffffffffffffffff\n      and\n      eq\n        /* \"Marketplace.sol\":1028:1129  require(msg.sender == idToMarketItem[_itemId].seller, \"Only product seller can execute this action.\") */\n      tag_262\n      jumpi\n      mload(0x40)\n      0x08c379a000000000000000000000000000000000000000000000000000000000\n      dup2\n      mstore\n      0x04\n      add\n      tag_263\n      swap1\n      tag_237\n      jump\t// in\n    tag_263:\n      mload(0x40)\n      dup1\n      swap2\n      sub\n      swap1\n      revert\n    tag_262:\n        /* \"Marketplace.sol\":3524:3533  _quantity */\n      dup2\n        /* \"Marketplace.sol\":3489:3503  idToMarketItem */\n      0x03\n        /* \"Marketplace.sol\":3489:3512  idToMarketItem[_itemId] */\n      0x00\n        /* \"Marketplace.sol\":3504:3511  _itemId */\n      dup6\n        /* \"Marketplace.sol\":3489:3512  idToMarketItem[_itemId] */\n      dup2\n      mstore\n      0x20\n      add\n      swap1\n      dup2\n      mstore\n      0x20\n      add\n      0x00\n      keccak256\n        /* \"Marketplace.sol\":3489:3521  idToMarketItem[_itemId].quantity */\n      0x06\n      add\n      0x00\n        /* \"Marketplace.sol\":3489:3533  idToMarketItem[_itemId].quantity = _quantity */\n      0x0100\n      exp\n      dup2\n      sload\n      dup2\n      0xff\n      mul\n      not\n      and\n      swap1\n      dup4\n      0xff\n      and\n      mul\n      or\n      swap1\n      sstore\n      pop\n        /* \"Marketplace.sol\":3580:3595  block.timestamp */\n      timestamp\n        /* \"Marketplace.sol\":3544:3558  idToMarketItem */\n      0x03\n        /* \"Marketplace.sol\":3544:3567  idToMarketItem[_itemId] */\n      0x00\n        /* \"Marketplace.sol\":3559:3566  _itemId */\n      dup6\n        /* \"Marketplace.sol\":3544:3567  idToMarketItem[_itemId] */\n      dup2\n      mstore\n      0x20\n      add\n      swap1\n      dup2\n      mstore\n      0x20\n      add\n      0x00\n      keccak256\n        /* \"Marketplace.sol\":3544:3577  idToMarketItem[_itemId].updatedAt */\n      0x08\n      add\n        /* \"Marketplace.sol\":3544:3595  idToMarketItem[_itemId].updatedAt = block.timestamp */\n      dup2\n      swap1\n      sstore\n      pop\n        /* \"Marketplace.sol\":3376:3603  function updateMarketItemQuantity(uint256 _itemId, uint8 _quantity) public onlyProductSeller(_itemId) {\r... */\n      pop\n      pop\n      pop\n      jump\t// out\n        /* \"Marketplace.sol\":3611:3844  function updateMarketItemImgUrl(uint256 _itemId, string memory _imageUrl) public onlyProductSeller(_itemId) {\r... */\n    tag_124:\n        /* \"Marketplace.sol\":3710:3717  _itemId */\n      dup2\n        /* \"Marketplace.sol\":1050:1064  idToMarketItem */\n      0x03\n        /* \"Marketplace.sol\":1050:1073  idToMarketItem[_itemId] */\n      0x00\n        /* \"Marketplace.sol\":1065:1072  _itemId */\n      dup3\n        /* \"Marketplace.sol\":1050:1073  idToMarketItem[_itemId] */\n      dup2\n      mstore\n      0x20\n      add\n      swap1\n      dup2\n      mstore\n      0x20\n      add\n      0x00\n      keccak256\n        /* \"Marketplace.sol\":1050:1080  idToMarketItem[_itemId].seller */\n      0x04\n      add\n      0x00\n      swap1\n      sload\n      swap1\n      0x0100\n      exp\n      swap1\n      div\n      0xffffffffffffffffffffffffffffffffffffffff\n      and\n        /* \"Marketplace.sol\":1036:1080  msg.sender == idToMarketItem[_itemId].seller */\n      0xffffffffffffffffffffffffffffffffffffffff\n      and\n        /* \"Marketplace.sol\":1036:1046  msg.sender */\n      caller\n        /* \"Marketplace.sol\":1036:1080  msg.sender == idToMarketItem[_itemId].seller */\n      0xffffffffffffffffffffffffffffffffffffffff\n      and\n      eq\n        /* \"Marketplace.sol\":1028:1129  require(msg.sender == idToMarketItem[_itemId].seller, \"Only product seller can execute this action.\") */\n      tag_266\n      jumpi\n      mload(0x40)\n      0x08c379a000000000000000000000000000000000000000000000000000000000\n      dup2\n      mstore\n      0x04\n      add\n      tag_267\n      swap1\n      tag_237\n      jump\t// in\n    tag_267:\n      mload(0x40)\n      dup1\n      swap2\n      sub\n      swap1\n      revert\n    tag_266:\n        /* \"Marketplace.sol\":3765:3774  _imageUrl */\n      dup2\n        /* \"Marketplace.sol\":3730:3744  idToMarketItem */\n      0x03\n        /* \"Marketplace.sol\":3730:3753  idToMarketItem[_itemId] */\n      0x00\n        /* \"Marketplace.sol\":3745:3752  _itemId */\n      dup6\n        /* \"Marketplace.sol\":3730:3753  idToMarketItem[_itemId] */\n      dup2\n      mstore\n      0x20\n      add\n      swap1\n      dup2\n      mstore\n      0x20\n      add\n      0x00\n      keccak256\n        /* \"Marketplace.sol\":3730:3762  idToMarketItem[_itemId].imageUrl */\n      0x05\n      add\n        /* \"Marketplace.sol\":3730:3774  idToMarketItem[_itemId].imageUrl = _imageUrl */\n      swap1\n      dup1\n      mload\n      swap1\n      0x20\n      add\n      swap1\n      tag_269\n      swap3\n      swap2\n      swap1\n      tag_196\n      jump\t// in\n    tag_269:\n      pop\n        /* \"Marketplace.sol\":3821:3836  block.timestamp */\n      timestamp\n        /* \"Marketplace.sol\":3785:3799  idToMarketItem */\n      0x03\n        /* \"Marketplace.sol\":3785:3808  idToMarketItem[_itemId] */\n      0x00\n        /* \"Marketplace.sol\":3800:3807  _itemId */\n      dup6\n        /* \"Marketplace.sol\":3785:3808  idToMarketItem[_itemId] */\n      dup2\n      mstore\n      0x20\n      add\n      swap1\n      dup2\n      mstore\n      0x20\n      add\n      0x00\n      keccak256\n        /* \"Marketplace.sol\":3785:3818  idToMarketItem[_itemId].updatedAt */\n      0x08\n      add\n        /* \"Marketplace.sol\":3785:3836  idToMarketItem[_itemId].updatedAt = block.timestamp */\n      dup2\n      swap1\n      sstore\n      pop\n        /* \"Marketplace.sol\":3611:3844  function updateMarketItemImgUrl(uint256 _itemId, string memory _imageUrl) public onlyProductSeller(_itemId) {\r... */\n      pop\n      pop\n      pop\n      jump\t// out\n        /* \"Marketplace.sol\":4578:4726  function checkBuyer(uint256 _itemId, address _buyer) public view returns (bool) {\r... */\n    tag_129:\n        /* \"Marketplace.sol\":4652:4656  bool */\n      0x00\n        /* \"Marketplace.sol\":4676:4718  indexOf(idToBuyerAddress[_itemId], _buyer) */\n      tag_271\n        /* \"Marketplace.sol\":4684:4700  idToBuyerAddress */\n      0x02\n        /* \"Marketplace.sol\":4684:4709  idToBuyerAddress[_itemId] */\n      0x00\n        /* \"Marketplace.sol\":4701:4708  _itemId */\n      dup6\n        /* \"Marketplace.sol\":4684:4709  idToBuyerAddress[_itemId] */\n      dup2\n      mstore\n      0x20\n      add\n      swap1\n      dup2\n      mstore\n      0x20\n      add\n      0x00\n      keccak256\n        /* \"Marketplace.sol\":4676:4718  indexOf(idToBuyerAddress[_itemId], _buyer) */\n      dup1\n      sload\n      dup1\n      0x20\n      mul\n      0x20\n      add\n      mload(0x40)\n      swap1\n      dup2\n      add\n      0x40\n      mstore\n      dup1\n      swap3\n      swap2\n      swap1\n      dup2\n      dup2\n      mstore\n      0x20\n      add\n      dup3\n      dup1\n      sload\n      dup1\n      iszero\n      tag_272\n      jumpi\n      0x20\n      mul\n      dup3\n      add\n      swap2\n      swap1\n      0x00\n      mstore\n      keccak256(0x00, 0x20)\n      swap1\n    tag_273:\n      dup2\n      0x00\n      swap1\n      sload\n      swap1\n      0x0100\n      exp\n      swap1\n      div\n      0xffffffffffffffffffffffffffffffffffffffff\n      and\n      0xffffffffffffffffffffffffffffffffffffffff\n      and\n      dup2\n      mstore\n      0x20\n      add\n      swap1\n      0x01\n      add\n      swap1\n      dup1\n      dup4\n      gt\n      tag_273\n      jumpi\n    tag_272:\n      pop\n      pop\n      pop\n      pop\n      pop\n        /* \"Marketplace.sol\":4711:4717  _buyer */\n      dup4\n        /* \"Marketplace.sol\":4676:4683  indexOf */\n      tag_274\n        /* \"Marketplace.sol\":4676:4718  indexOf(idToBuyerAddress[_itemId], _buyer) */\n      jump\t// in\n    tag_271:\n        /* \"Marketplace.sol\":4669:4718  return indexOf(idToBuyerAddress[_itemId], _buyer) */\n      swap1\n      pop\n        /* \"Marketplace.sol\":4578:4726  function checkBuyer(uint256 _itemId, address _buyer) public view returns (bool) {\r... */\n      swap3\n      swap2\n      pop\n      pop\n      jump\t// out\n        /* \"@openzeppelin/contracts/utils/introspection/ERC165.sol\":829:984  function supportsInterface(bytes4 interfaceId) public view virtual override returns (bool) {... */\n    tag_134:\n        /* \"@openzeppelin/contracts/utils/introspection/ERC165.sol\":914:918  bool */\n      0x00\n        /* \"@openzeppelin/contracts/utils/introspection/ERC165.sol\":952:977  type(IERC165).interfaceId */\n      0x01ffc9a700000000000000000000000000000000000000000000000000000000\n        /* \"@openzeppelin/contracts/utils/introspection/ERC165.sol\":937:977  interfaceId == type(IERC165).interfaceId */\n      not(0xffffffffffffffffffffffffffffffffffffffffffffffffffffffff)\n      and\n        /* \"@openzeppelin/contracts/utils/introspection/ERC165.sol\":937:948  interfaceId */\n      dup3\n        /* \"@openzeppelin/contracts/utils/introspection/ERC165.sol\":937:977  interfaceId == type(IERC165).interfaceId */\n      not(0xffffffffffffffffffffffffffffffffffffffffffffffffffffffff)\n      and\n      eq\n        /* \"@openzeppelin/contracts/utils/introspection/ERC165.sol\":930:977  return interfaceId == type(IERC165).interfaceId */\n      swap1\n      pop\n        /* \"@openzeppelin/contracts/utils/introspection/ERC165.sol\":829:984  function supportsInterface(bytes4 interfaceId) public view virtual override returns (bool) {... */\n      swap2\n      swap1\n      pop\n      jump\t// out\n        /* \"@openzeppelin/contracts/utils/Context.sol\":640:736  function _msgSender() internal view virtual returns (address) {... */\n    tag_176:\n        /* \"@openzeppelin/contracts/utils/Context.sol\":693:700  address */\n      0x00\n        /* \"@openzeppelin/contracts/utils/Context.sol\":719:729  msg.sender */\n      caller\n        /* \"@openzeppelin/contracts/utils/Context.sol\":712:729  return msg.sender */\n      swap1\n      pop\n        /* \"@openzeppelin/contracts/utils/Context.sol\":640:736  function _msgSender() internal view virtual returns (address) {... */\n      swap1\n      jump\t// out\n        /* \"@openzeppelin/contracts/access/AccessControl.sol\":3335:3827  function _checkRole(bytes32 role, address account) internal view virtual {... */\n    tag_177:\n        /* \"@openzeppelin/contracts/access/AccessControl.sol\":3423:3445  hasRole(role, account) */\n      tag_278\n        /* \"@openzeppelin/contracts/access/AccessControl.sol\":3431:3435  role */\n      dup3\n        /* \"@openzeppelin/contracts/access/AccessControl.sol\":3437:3444  account */\n      dup3\n        /* \"@openzeppelin/contracts/access/AccessControl.sol\":3423:3430  hasRole */\n      tag_87\n        /* \"@openzeppelin/contracts/access/AccessControl.sol\":3423:3445  hasRole(role, account) */\n      jump\t// in\n    tag_278:\n        /* \"@openzeppelin/contracts/access/AccessControl.sol\":3418:3821  if (!hasRole(role, account)) {... */\n      tag_279\n      jumpi\n        /* \"@openzeppelin/contracts/access/AccessControl.sol\":3606:3647  Strings.toHexString(uint160(account), 20) */\n      tag_280\n        /* \"@openzeppelin/contracts/access/AccessControl.sol\":3634:3641  account */\n      dup2\n        /* \"@openzeppelin/contracts/access/AccessControl.sol\":3606:3647  Strings.toHexString(uint160(account), 20) */\n      0xffffffffffffffffffffffffffffffffffffffff\n      and\n        /* \"@openzeppelin/contracts/access/AccessControl.sol\":3644:3646  20 */\n      0x14\n        /* \"@openzeppelin/contracts/access/AccessControl.sol\":3606:3625  Strings.toHexString */\n      tag_281\n        /* \"@openzeppelin/contracts/access/AccessControl.sol\":3606:3647  Strings.toHexString(uint160(account), 20) */\n      jump\t// in\n    tag_280:\n        /* \"@openzeppelin/contracts/access/AccessControl.sol\":3718:3756  Strings.toHexString(uint256(role), 32) */\n      tag_282\n        /* \"@openzeppelin/contracts/access/AccessControl.sol\":3746:3750  role */\n      dup4\n        /* \"@openzeppelin/contracts/access/AccessControl.sol\":3738:3751  uint256(role) */\n      0x00\n      shr\n        /* \"@openzeppelin/contracts/access/AccessControl.sol\":3753:3755  32 */\n      0x20\n        /* \"@openzeppelin/contracts/access/AccessControl.sol\":3718:3737  Strings.toHexString */\n      tag_281\n        /* \"@openzeppelin/contracts/access/AccessControl.sol\":3718:3756  Strings.toHexString(uint256(role), 32) */\n      jump\t// in\n    tag_282:\n        /* \"@openzeppelin/contracts/access/AccessControl.sol\":3513:3778  abi.encodePacked(... */\n      add(0x20, mload(0x40))\n      tag_283\n      swap3\n      swap2\n      swap1\n      tag_284\n      jump\t// in\n    tag_283:\n      mload(0x40)\n      0x20\n      dup2\n      dup4\n      sub\n      sub\n      dup2\n      mstore\n      swap1\n      0x40\n      mstore\n        /* \"@openzeppelin/contracts/access/AccessControl.sol\":3461:3810  revert(... */\n      mload(0x40)\n      0x08c379a000000000000000000000000000000000000000000000000000000000\n      dup2\n      mstore\n      0x04\n      add\n      tag_285\n      swap2\n      swap1\n      tag_286\n      jump\t// in\n    tag_285:\n      mload(0x40)\n      dup1\n      swap2\n      sub\n      swap1\n      revert\n        /* \"@openzeppelin/contracts/access/AccessControl.sol\":3418:3821  if (!hasRole(role, account)) {... */\n    tag_279:\n        /* \"@openzeppelin/contracts/access/AccessControl.sol\":3335:3827  function _checkRole(bytes32 role, address account) internal view virtual {... */\n      pop\n      pop\n      jump\t// out\n        /* \"@openzeppelin/contracts/access/AccessControl.sol\":6861:7094  function _grantRole(bytes32 role, address account) internal virtual {... */\n    tag_180:\n        /* \"@openzeppelin/contracts/access/AccessControl.sol\":6944:6966  hasRole(role, account) */\n      tag_288\n        /* \"@openzeppelin/contracts/access/AccessControl.sol\":6952:6956  role */\n      dup3\n        /* \"@openzeppelin/contracts/access/AccessControl.sol\":6958:6965  account */\n      dup3\n        /* \"@openzeppelin/contracts/access/AccessControl.sol\":6944:6951  hasRole */\n      tag_87\n        /* \"@openzeppelin/contracts/access/AccessControl.sol\":6944:6966  hasRole(role, account) */\n      jump\t// in\n    tag_288:\n        /* \"@openzeppelin/contracts/access/AccessControl.sol\":6939:7088  if (!hasRole(role, account)) {... */\n      tag_289\n      jumpi\n        /* \"@openzeppelin/contracts/access/AccessControl.sol\":7014:7018  true */\n      0x01\n        /* \"@openzeppelin/contracts/access/AccessControl.sol\":6982:6988  _roles */\n      0x00\n        /* \"@openzeppelin/contracts/access/AccessControl.sol\":6982:6994  _roles[role] */\n      dup1\n        /* \"@openzeppelin/contracts/access/AccessControl.sol\":6989:6993  role */\n      dup5\n        /* \"@openzeppelin/contracts/access/AccessControl.sol\":6982:6994  _roles[role] */\n      dup2\n      mstore\n      0x20\n      add\n      swap1\n      dup2\n      mstore\n      0x20\n      add\n      0x00\n      keccak256\n        /* \"@openzeppelin/contracts/access/AccessControl.sol\":6982:7002  _roles[role].members */\n      0x00\n      add\n        /* \"@openzeppelin/contracts/access/AccessControl.sol\":6982:7011  _roles[role].members[account] */\n      0x00\n        /* \"@openzeppelin/contracts/access/AccessControl.sol\":7003:7010  account */\n      dup4\n        /* \"@openzeppelin/contracts/access/AccessControl.sol\":6982:7011  _roles[role].members[account] */\n      0xffffffffffffffffffffffffffffffffffffffff\n      and\n      0xffffffffffffffffffffffffffffffffffffffff\n      and\n      dup2\n      mstore\n      0x20\n      add\n      swap1\n      dup2\n      mstore\n      0x20\n      add\n      0x00\n      keccak256\n      0x00\n        /* \"@openzeppelin/contracts/access/AccessControl.sol\":6982:7018  _roles[role].members[account] = true */\n      0x0100\n      exp\n      dup2\n      sload\n      dup2\n      0xff\n      mul\n      not\n      and\n      swap1\n      dup4\n      iszero\n      iszero\n      mul\n      or\n      swap1\n      sstore\n      pop\n        /* \"@openzeppelin/contracts/access/AccessControl.sol\":7064:7076  _msgSender() */\n      tag_290\n        /* \"@openzeppelin/contracts/access/AccessControl.sol\":7064:7074  _msgSender */\n      tag_176\n        /* \"@openzeppelin/contracts/access/AccessControl.sol\":7064:7076  _msgSender() */\n      jump\t// in\n    tag_290:\n        /* \"@openzeppelin/contracts/access/AccessControl.sol\":7037:7077  RoleGranted(role, account, _msgSender()) */\n      0xffffffffffffffffffffffffffffffffffffffff\n      and\n        /* \"@openzeppelin/contracts/access/AccessControl.sol\":7055:7062  account */\n      dup2\n        /* \"@openzeppelin/contracts/access/AccessControl.sol\":7037:7077  RoleGranted(role, account, _msgSender()) */\n      0xffffffffffffffffffffffffffffffffffffffff\n      and\n        /* \"@openzeppelin/contracts/access/AccessControl.sol\":7049:7053  role */\n      dup4\n        /* \"@openzeppelin/contracts/access/AccessControl.sol\":7037:7077  RoleGranted(role, account, _msgSender()) */\n      0x2f8788117e7eff1d82e926ec794901d17c78024a50270940304540a733656f0d\n      mload(0x40)\n      mload(0x40)\n      dup1\n      swap2\n      sub\n      swap1\n      log4\n        /* \"@openzeppelin/contracts/access/AccessControl.sol\":6939:7088  if (!hasRole(role, account)) {... */\n    tag_289:\n        /* \"@openzeppelin/contracts/access/AccessControl.sol\":6861:7094  function _grantRole(bytes32 role, address account) internal virtual {... */\n      pop\n      pop\n      jump\t// out\n        /* \"@openzeppelin/contracts/access/AccessControl.sol\":7219:7453  function _revokeRole(bytes32 role, address account) internal virtual {... */\n    tag_187:\n        /* \"@openzeppelin/contracts/access/AccessControl.sol\":7302:7324  hasRole(role, account) */\n      tag_292\n        /* \"@openzeppelin/contracts/access/AccessControl.sol\":7310:7314  role */\n      dup3\n        /* \"@openzeppelin/contracts/access/AccessControl.sol\":7316:7323  account */\n      dup3\n        /* \"@openzeppelin/contracts/access/AccessControl.sol\":7302:7309  hasRole */\n      tag_87\n        /* \"@openzeppelin/contracts/access/AccessControl.sol\":7302:7324  hasRole(role, account) */\n      jump\t// in\n    tag_292:\n        /* \"@openzeppelin/contracts/access/AccessControl.sol\":7298:7447  if (hasRole(role, account)) {... */\n      iszero\n      tag_293\n      jumpi\n        /* \"@openzeppelin/contracts/access/AccessControl.sol\":7372:7377  false */\n      0x00\n        /* \"@openzeppelin/contracts/access/AccessControl.sol\":7340:7346  _roles */\n      dup1\n        /* \"@openzeppelin/contracts/access/AccessControl.sol\":7340:7352  _roles[role] */\n      0x00\n        /* \"@openzeppelin/contracts/access/AccessControl.sol\":7347:7351  role */\n      dup5\n        /* \"@openzeppelin/contracts/access/AccessControl.sol\":7340:7352  _roles[role] */\n      dup2\n      mstore\n      0x20\n      add\n      swap1\n      dup2\n      mstore\n      0x20\n      add\n      0x00\n      keccak256\n        /* \"@openzeppelin/contracts/access/AccessControl.sol\":7340:7360  _roles[role].members */\n      0x00\n      add\n        /* \"@openzeppelin/contracts/access/AccessControl.sol\":7340:7369  _roles[role].members[account] */\n      0x00\n        /* \"@openzeppelin/contracts/access/AccessControl.sol\":7361:7368  account */\n      dup4\n        /* \"@openzeppelin/contracts/access/AccessControl.sol\":7340:7369  _roles[role].members[account] */\n      0xffffffffffffffffffffffffffffffffffffffff\n      and\n      0xffffffffffffffffffffffffffffffffffffffff\n      and\n      dup2\n      mstore\n      0x20\n      add\n      swap1\n      dup2\n      mstore\n      0x20\n      add\n      0x00\n      keccak256\n      0x00\n        /* \"@openzeppelin/contracts/access/AccessControl.sol\":7340:7377  _roles[role].members[account] = false */\n      0x0100\n      exp\n      dup2\n      sload\n      dup2\n      0xff\n      mul\n      not\n      and\n      swap1\n      dup4\n      iszero\n      iszero\n      mul\n      or\n      swap1\n      sstore\n      pop\n        /* \"@openzeppelin/contracts/access/AccessControl.sol\":7423:7435  _msgSender() */\n      tag_294\n        /* \"@openzeppelin/contracts/access/AccessControl.sol\":7423:7433  _msgSender */\n      tag_176\n        /* \"@openzeppelin/contracts/access/AccessControl.sol\":7423:7435  _msgSender() */\n      jump\t// in\n    tag_294:\n        /* \"@openzeppelin/contracts/access/AccessControl.sol\":7396:7436  RoleRevoked(role, account, _msgSender()) */\n      0xffffffffffffffffffffffffffffffffffffffff\n      and\n        /* \"@openzeppelin/contracts/access/AccessControl.sol\":7414:7421  account */\n      dup2\n        /* \"@openzeppelin/contracts/access/AccessControl.sol\":7396:7436  RoleRevoked(role, account, _msgSender()) */\n      0xffffffffffffffffffffffffffffffffffffffff\n      and\n        /* \"@openzeppelin/contracts/access/AccessControl.sol\":7408:7412  role */\n      dup4\n        /* \"@openzeppelin/contracts/access/AccessControl.sol\":7396:7436  RoleRevoked(role, account, _msgSender()) */\n      0xf6391f5c32d9c69d2a47ea670b442974b53935d1edc7fd64eb21e047a839171b\n      mload(0x40)\n      mload(0x40)\n      dup1\n      swap2\n      sub\n      swap1\n      log4\n        /* \"@openzeppelin/contracts/access/AccessControl.sol\":7298:7447  if (hasRole(role, account)) {... */\n    tag_293:\n        /* \"@openzeppelin/contracts/access/AccessControl.sol\":7219:7453  function _revokeRole(bytes32 role, address account) internal virtual {... */\n      pop\n      pop\n      jump\t// out\n        /* \"Marketplace.sol\":4309:4570  function indexOf(address[] memory arr, address searchFor) private pure returns (bool) {\r... */\n    tag_274:\n        /* \"Marketplace.sol\":4389:4393  bool */\n      0x00\n        /* \"Marketplace.sol\":4411:4420  uint256 i */\n      dup1\n        /* \"Marketplace.sol\":4423:4424  0 */\n      0x00\n        /* \"Marketplace.sol\":4411:4424  uint256 i = 0 */\n      swap1\n      pop\n        /* \"Marketplace.sol\":4406:4540  for (uint256 i = 0; i < arr.length; i++) {\r... */\n    tag_296:\n        /* \"Marketplace.sol\":4430:4433  arr */\n      dup4\n        /* \"Marketplace.sol\":4430:4440  arr.length */\n      mload\n        /* \"Marketplace.sol\":4426:4427  i */\n      dup2\n        /* \"Marketplace.sol\":4426:4440  i < arr.length */\n      lt\n        /* \"Marketplace.sol\":4406:4540  for (uint256 i = 0; i < arr.length; i++) {\r... */\n      iszero\n      tag_297\n      jumpi\n        /* \"Marketplace.sol\":4476:4485  searchFor */\n      dup3\n        /* \"Marketplace.sol\":4466:4485  arr[i] == searchFor */\n      0xffffffffffffffffffffffffffffffffffffffff\n      and\n        /* \"Marketplace.sol\":4466:4469  arr */\n      dup5\n        /* \"Marketplace.sol\":4470:4471  i */\n      dup3\n        /* \"Marketplace.sol\":4466:4472  arr[i] */\n      dup2\n      mload\n      dup2\n      lt\n      tag_299\n      jumpi\n      tag_300\n      tag_207\n      jump\t// in\n    tag_300:\n    tag_299:\n      0x20\n      mul\n      0x20\n      add\n      add\n      mload\n        /* \"Marketplace.sol\":4466:4485  arr[i] == searchFor */\n      0xffffffffffffffffffffffffffffffffffffffff\n      and\n      eq\n        /* \"Marketplace.sol\":4462:4529  if (arr[i] == searchFor) {\r... */\n      iszero\n      tag_301\n      jumpi\n        /* \"Marketplace.sol\":4509:4513  true */\n      0x01\n        /* \"Marketplace.sol\":4502:4513  return true */\n      swap2\n      pop\n      pop\n      jump(tag_295)\n        /* \"Marketplace.sol\":4462:4529  if (arr[i] == searchFor) {\r... */\n    tag_301:\n        /* \"Marketplace.sol\":4442:4445  i++ */\n      dup1\n      dup1\n      tag_302\n      swap1\n      tag_200\n      jump\t// in\n    tag_302:\n      swap2\n      pop\n      pop\n        /* \"Marketplace.sol\":4406:4540  for (uint256 i = 0; i < arr.length; i++) {\r... */\n      jump(tag_296)\n    tag_297:\n      pop\n        /* \"Marketplace.sol\":4557:4562  false */\n      0x00\n        /* \"Marketplace.sol\":4550:4562  return false */\n      swap1\n      pop\n        /* \"Marketplace.sol\":4309:4570  function indexOf(address[] memory arr, address searchFor) private pure returns (bool) {\r... */\n    tag_295:\n      swap3\n      swap2\n      pop\n      pop\n      jump\t// out\n        /* \"@openzeppelin/contracts/utils/Strings.sol\":1588:2029  function toHexString(uint256 value, uint256 length) internal pure returns (string memory) {... */\n    tag_281:\n        /* \"@openzeppelin/contracts/utils/Strings.sol\":1663:1676  string memory */\n      0x60\n        /* \"@openzeppelin/contracts/utils/Strings.sol\":1688:1707  bytes memory buffer */\n      0x00\n        /* \"@openzeppelin/contracts/utils/Strings.sol\":1733:1734  2 */\n      0x02\n        /* \"@openzeppelin/contracts/utils/Strings.sol\":1724:1730  length */\n      dup4\n        /* \"@openzeppelin/contracts/utils/Strings.sol\":1720:1721  2 */\n      0x02\n        /* \"@openzeppelin/contracts/utils/Strings.sol\":1720:1730  2 * length */\n      tag_304\n      swap2\n      swap1\n      tag_151\n      jump\t// in\n    tag_304:\n        /* \"@openzeppelin/contracts/utils/Strings.sol\":1720:1734  2 * length + 2 */\n      tag_305\n      swap2\n      swap1\n      tag_211\n      jump\t// in\n    tag_305:\n        /* \"@openzeppelin/contracts/utils/Strings.sol\":1710:1735  new bytes(2 * length + 2) */\n      0xffffffffffffffff\n      dup2\n      gt\n      iszero\n      tag_306\n      jumpi\n      tag_307\n      tag_308\n      jump\t// in\n    tag_307:\n    tag_306:\n      mload(0x40)\n      swap1\n      dup1\n      dup3\n      mstore\n      dup1\n      0x1f\n      add\n      not(0x1f)\n      and\n      0x20\n      add\n      dup3\n      add\n      0x40\n      mstore\n      dup1\n      iszero\n      tag_309\n      jumpi\n      dup2\n      0x20\n      add\n      0x01\n      dup3\n      mul\n      dup1\n      calldatasize\n      dup4\n      calldatacopy\n      dup1\n      dup3\n      add\n      swap2\n      pop\n      pop\n      swap1\n      pop\n    tag_309:\n      pop\n        /* \"@openzeppelin/contracts/utils/Strings.sol\":1688:1735  bytes memory buffer = new bytes(2 * length + 2) */\n      swap1\n      pop\n        /* \"@openzeppelin/contracts/utils/Strings.sol\":1745:1760  buffer[0] = \"0\" */\n      0x3000000000000000000000000000000000000000000000000000000000000000\n        /* \"@openzeppelin/contracts/utils/Strings.sol\":1745:1751  buffer */\n      dup2\n        /* \"@openzeppelin/contracts/utils/Strings.sol\":1752:1753  0 */\n      0x00\n        /* \"@openzeppelin/contracts/utils/Strings.sol\":1745:1754  buffer[0] */\n      dup2\n      mload\n      dup2\n      lt\n      tag_310\n      jumpi\n      tag_311\n      tag_207\n      jump\t// in\n    tag_311:\n    tag_310:\n      0x20\n      add\n      add\n        /* \"@openzeppelin/contracts/utils/Strings.sol\":1745:1760  buffer[0] = \"0\" */\n      swap1\n      not(0xffffffffffffffffffffffffffffffffffffffffffffffffffffffffffffff)\n      and\n      swap1\n      dup2\n      0x00\n      byte\n      swap1\n      mstore8\n      pop\n        /* \"@openzeppelin/contracts/utils/Strings.sol\":1770:1785  buffer[1] = \"x\" */\n      0x7800000000000000000000000000000000000000000000000000000000000000\n        /* \"@openzeppelin/contracts/utils/Strings.sol\":1770:1776  buffer */\n      dup2\n        /* \"@openzeppelin/contracts/utils/Strings.sol\":1777:1778  1 */\n      0x01\n        /* \"@openzeppelin/contracts/utils/Strings.sol\":1770:1779  buffer[1] */\n      dup2\n      mload\n      dup2\n      lt\n      tag_312\n      jumpi\n      tag_313\n      tag_207\n      jump\t// in\n    tag_313:\n    tag_312:\n      0x20\n      add\n      add\n        /* \"@openzeppelin/contracts/utils/Strings.sol\":1770:1785  buffer[1] = \"x\" */\n      swap1\n      not(0xffffffffffffffffffffffffffffffffffffffffffffffffffffffffffffff)\n      and\n      swap1\n      dup2\n      0x00\n      byte\n      swap1\n      mstore8\n      pop\n        /* \"@openzeppelin/contracts/utils/Strings.sol\":1800:1809  uint256 i */\n      0x00\n        /* \"@openzeppelin/contracts/utils/Strings.sol\":1825:1826  1 */\n      0x01\n        /* \"@openzeppelin/contracts/utils/Strings.sol\":1816:1822  length */\n      dup5\n        /* \"@openzeppelin/contracts/utils/Strings.sol\":1812:1813  2 */\n      0x02\n        /* \"@openzeppelin/contracts/utils/Strings.sol\":1812:1822  2 * length */\n      tag_317\n      swap2\n      swap1\n      tag_151\n      jump\t// in\n    tag_317:\n        /* \"@openzeppelin/contracts/utils/Strings.sol\":1812:1826  2 * length + 1 */\n      tag_318\n      swap2\n      swap1\n      tag_211\n      jump\t// in\n    tag_318:\n        /* \"@openzeppelin/contracts/utils/Strings.sol\":1800:1826  uint256 i = 2 * length + 1 */\n      swap1\n      pop\n        /* \"@openzeppelin/contracts/utils/Strings.sol\":1795:1927  for (uint256 i = 2 * length + 1; i > 1; --i) {... */\n    tag_314:\n        /* \"@openzeppelin/contracts/utils/Strings.sol\":1832:1833  1 */\n      0x01\n        /* \"@openzeppelin/contracts/utils/Strings.sol\":1828:1829  i */\n      dup2\n        /* \"@openzeppelin/contracts/utils/Strings.sol\":1828:1833  i > 1 */\n      gt\n        /* \"@openzeppelin/contracts/utils/Strings.sol\":1795:1927  for (uint256 i = 2 * length + 1; i > 1; --i) {... */\n      iszero\n      tag_315\n      jumpi\n        /* \"@openzeppelin/contracts/utils/Strings.sol\":1866:1878  _HEX_SYMBOLS */\n      0x3031323334353637383961626364656600000000000000000000000000000000\n        /* \"@openzeppelin/contracts/utils/Strings.sol\":1887:1890  0xf */\n      0x0f\n        /* \"@openzeppelin/contracts/utils/Strings.sol\":1879:1884  value */\n      dup7\n        /* \"@openzeppelin/contracts/utils/Strings.sol\":1879:1890  value & 0xf */\n      and\n        /* \"@openzeppelin/contracts/utils/Strings.sol\":1866:1891  _HEX_SYMBOLS[value & 0xf] */\n      0x10\n      dup2\n      lt\n      tag_319\n      jumpi\n      tag_320\n      tag_207\n      jump\t// in\n    tag_320:\n    tag_319:\n      byte\n      0xf8\n      shl\n        /* \"@openzeppelin/contracts/utils/Strings.sol\":1854:1860  buffer */\n      dup3\n        /* \"@openzeppelin/contracts/utils/Strings.sol\":1861:1862  i */\n      dup3\n        /* \"@openzeppelin/contracts/utils/Strings.sol\":1854:1863  buffer[i] */\n      dup2\n      mload\n      dup2\n      lt\n      tag_321\n      jumpi\n      tag_322\n      tag_207\n      jump\t// in\n    tag_322:\n    tag_321:\n      0x20\n      add\n      add\n        /* \"@openzeppelin/contracts/utils/Strings.sol\":1854:1891  buffer[i] = _HEX_SYMBOLS[value & 0xf] */\n      swap1\n      not(0xffffffffffffffffffffffffffffffffffffffffffffffffffffffffffffff)\n      and\n      swap1\n      dup2\n      0x00\n      byte\n      swap1\n      mstore8\n      pop\n        /* \"@openzeppelin/contracts/utils/Strings.sol\":1915:1916  4 */\n      0x04\n        /* \"@openzeppelin/contracts/utils/Strings.sol\":1905:1916  value >>= 4 */\n      dup6\n      swap1\n      shr\n      swap5\n      pop\n        /* \"@openzeppelin/contracts/utils/Strings.sol\":1835:1838  --i */\n      dup1\n      tag_323\n      swap1\n      tag_324\n      jump\t// in\n    tag_323:\n      swap1\n      pop\n        /* \"@openzeppelin/contracts/utils/Strings.sol\":1795:1927  for (uint256 i = 2 * length + 1; i > 1; --i) {... */\n      jump(tag_314)\n    tag_315:\n      pop\n        /* \"@openzeppelin/contracts/utils/Strings.sol\":1953:1954  0 */\n      0x00\n        /* \"@openzeppelin/contracts/utils/Strings.sol\":1944:1949  value */\n      dup5\n        /* \"@openzeppelin/contracts/utils/Strings.sol\":1944:1954  value == 0 */\n      eq\n        /* \"@openzeppelin/contracts/utils/Strings.sol\":1936:1991  require(value == 0, \"Strings: hex length insufficient\") */\n      tag_325\n      jumpi\n      mload(0x40)\n      0x08c379a000000000000000000000000000000000000000000000000000000000\n      dup2\n      mstore\n      0x04\n      add\n      tag_326\n      swap1\n      tag_327\n      jump\t// in\n    tag_326:\n      mload(0x40)\n      dup1\n      swap2\n      sub\n      swap1\n      revert\n    tag_325:\n        /* \"@openzeppelin/contracts/utils/Strings.sol\":2015:2021  buffer */\n      dup1\n        /* \"@openzeppelin/contracts/utils/Strings.sol\":2001:2022  return string(buffer) */\n      swap2\n      pop\n      pop\n        /* \"@openzeppelin/contracts/utils/Strings.sol\":1588:2029  function toHexString(uint256 value, uint256 length) internal pure returns (string memory) {... */\n      swap3\n      swap2\n      pop\n      pop\n      jump\t// out\n    tag_196:\n      dup3\n      dup1\n      sload\n      tag_328\n      swap1\n      tag_219\n      jump\t// in\n    tag_328:\n      swap1\n      0x00\n      mstore\n      keccak256(0x00, 0x20)\n      swap1\n      0x1f\n      add\n      0x20\n      swap1\n      div\n      dup2\n      add\n      swap3\n      dup3\n      tag_330\n      jumpi\n      0x00\n      dup6\n      sstore\n      jump(tag_329)\n    tag_330:\n      dup3\n      0x1f\n      lt\n      tag_331\n      jumpi\n      dup1\n      mload\n      not(0xff)\n      and\n      dup4\n      dup1\n      add\n      or\n      dup6\n      sstore\n      jump(tag_329)\n    tag_331:\n      dup3\n      dup1\n      add\n      0x01\n      add\n      dup6\n      sstore\n      dup3\n      iszero\n      tag_329\n      jumpi\n      swap2\n      dup3\n      add\n    tag_332:\n      dup3\n      dup2\n      gt\n      iszero\n      tag_333\n      jumpi\n      dup3\n      mload\n      dup3\n      sstore\n      swap2\n      0x20\n      add\n      swap2\n      swap1\n      0x01\n      add\n      swap1\n      jump(tag_332)\n    tag_333:\n    tag_329:\n      pop\n      swap1\n      pop\n      tag_334\n      swap2\n      swap1\n      tag_335\n      jump\t// in\n    tag_334:\n      pop\n      swap1\n      jump\t// out\n    tag_335:\n    tag_336:\n      dup1\n      dup3\n      gt\n      iszero\n      tag_337\n      jumpi\n      0x00\n      dup2\n      0x00\n      swap1\n      sstore\n      pop\n      0x01\n      add\n      jump(tag_336)\n    tag_337:\n      pop\n      swap1\n      jump\t// out\n        /* \"#utility.yul\":7:419   */\n    tag_339:\n        /* \"#utility.yul\":85:90   */\n      0x00\n        /* \"#utility.yul\":110:176   */\n      tag_341\n        /* \"#utility.yul\":126:175   */\n      tag_342\n        /* \"#utility.yul\":168:174   */\n      dup5\n        /* \"#utility.yul\":126:175   */\n      tag_343\n      jump\t// in\n    tag_342:\n        /* \"#utility.yul\":110:176   */\n      tag_344\n      jump\t// in\n    tag_341:\n        /* \"#utility.yul\":101:176   */\n      swap1\n      pop\n        /* \"#utility.yul\":199:205   */\n      dup3\n        /* \"#utility.yul\":192:197   */\n      dup2\n        /* \"#utility.yul\":185:206   */\n      mstore\n        /* \"#utility.yul\":237:241   */\n      0x20\n        /* \"#utility.yul\":230:235   */\n      dup2\n        /* \"#utility.yul\":226:242   */\n      add\n        /* \"#utility.yul\":275:278   */\n      dup5\n        /* \"#utility.yul\":266:272   */\n      dup5\n        /* \"#utility.yul\":261:264   */\n      dup5\n        /* \"#utility.yul\":257:273   */\n      add\n        /* \"#utility.yul\":254:279   */\n      gt\n        /* \"#utility.yul\":251:363   */\n      iszero\n      tag_345\n      jumpi\n        /* \"#utility.yul\":282:361   */\n      tag_346\n      tag_347\n      jump\t// in\n    tag_346:\n        /* \"#utility.yul\":251:363   */\n    tag_345:\n        /* \"#utility.yul\":372:413   */\n      tag_348\n        /* \"#utility.yul\":406:412   */\n      dup5\n        /* \"#utility.yul\":401:404   */\n      dup3\n        /* \"#utility.yul\":396:399   */\n      dup6\n        /* \"#utility.yul\":372:413   */\n      tag_349\n      jump\t// in\n    tag_348:\n        /* \"#utility.yul\":91:419   */\n      pop\n        /* \"#utility.yul\":7:419   */\n      swap4\n      swap3\n      pop\n      pop\n      pop\n      jump\t// out\n        /* \"#utility.yul\":425:564   */\n    tag_350:\n        /* \"#utility.yul\":471:476   */\n      0x00\n        /* \"#utility.yul\":509:515   */\n      dup2\n        /* \"#utility.yul\":496:516   */\n      calldataload\n        /* \"#utility.yul\":487:516   */\n      swap1\n      pop\n        /* \"#utility.yul\":525:558   */\n      tag_352\n        /* \"#utility.yul\":552:557   */\n      dup2\n        /* \"#utility.yul\":525:558   */\n      tag_353\n      jump\t// in\n    tag_352:\n        /* \"#utility.yul\":425:564   */\n      swap3\n      swap2\n      pop\n      pop\n      jump\t// out\n        /* \"#utility.yul\":570:725   */\n    tag_354:\n        /* \"#utility.yul\":624:629   */\n      0x00\n        /* \"#utility.yul\":662:668   */\n      dup2\n        /* \"#utility.yul\":649:669   */\n      calldataload\n        /* \"#utility.yul\":640:669   */\n      swap1\n      pop\n        /* \"#utility.yul\":678:719   */\n      tag_356\n        /* \"#utility.yul\":713:718   */\n      dup2\n        /* \"#utility.yul\":678:719   */\n      tag_357\n      jump\t// in\n    tag_356:\n        /* \"#utility.yul\":570:725   */\n      swap3\n      swap2\n      pop\n      pop\n      jump\t// out\n        /* \"#utility.yul\":731:864   */\n    tag_358:\n        /* \"#utility.yul\":774:779   */\n      0x00\n        /* \"#utility.yul\":812:818   */\n      dup2\n        /* \"#utility.yul\":799:819   */\n      calldataload\n        /* \"#utility.yul\":790:819   */\n      swap1\n      pop\n        /* \"#utility.yul\":828:858   */\n      tag_360\n        /* \"#utility.yul\":852:857   */\n      dup2\n        /* \"#utility.yul\":828:858   */\n      tag_361\n      jump\t// in\n    tag_360:\n        /* \"#utility.yul\":731:864   */\n      swap3\n      swap2\n      pop\n      pop\n      jump\t// out\n        /* \"#utility.yul\":870:1009   */\n    tag_362:\n        /* \"#utility.yul\":916:921   */\n      0x00\n        /* \"#utility.yul\":954:960   */\n      dup2\n        /* \"#utility.yul\":941:961   */\n      calldataload\n        /* \"#utility.yul\":932:961   */\n      swap1\n      pop\n        /* \"#utility.yul\":970:1003   */\n      tag_364\n        /* \"#utility.yul\":997:1002   */\n      dup2\n        /* \"#utility.yul\":970:1003   */\n      tag_365\n      jump\t// in\n    tag_364:\n        /* \"#utility.yul\":870:1009   */\n      swap3\n      swap2\n      pop\n      pop\n      jump\t// out\n        /* \"#utility.yul\":1015:1152   */\n    tag_366:\n        /* \"#utility.yul\":1060:1065   */\n      0x00\n        /* \"#utility.yul\":1098:1104   */\n      dup2\n        /* \"#utility.yul\":1085:1105   */\n      calldataload\n        /* \"#utility.yul\":1076:1105   */\n      swap1\n      pop\n        /* \"#utility.yul\":1114:1146   */\n      tag_368\n        /* \"#utility.yul\":1140:1145   */\n      dup2\n        /* \"#utility.yul\":1114:1146   */\n      tag_369\n      jump\t// in\n    tag_368:\n        /* \"#utility.yul\":1015:1152   */\n      swap3\n      swap2\n      pop\n      pop\n      jump\t// out\n        /* \"#utility.yul\":1172:1512   */\n    tag_370:\n        /* \"#utility.yul\":1228:1233   */\n      0x00\n        /* \"#utility.yul\":1277:1280   */\n      dup3\n        /* \"#utility.yul\":1270:1274   */\n      0x1f\n        /* \"#utility.yul\":1262:1268   */\n      dup4\n        /* \"#utility.yul\":1258:1275   */\n      add\n        /* \"#utility.yul\":1254:1281   */\n      slt\n        /* \"#utility.yul\":1244:1366   */\n      tag_372\n      jumpi\n        /* \"#utility.yul\":1285:1364   */\n      tag_373\n      tag_374\n      jump\t// in\n    tag_373:\n        /* \"#utility.yul\":1244:1366   */\n    tag_372:\n        /* \"#utility.yul\":1402:1408   */\n      dup2\n        /* \"#utility.yul\":1389:1409   */\n      calldataload\n        /* \"#utility.yul\":1427:1506   */\n      tag_375\n        /* \"#utility.yul\":1502:1505   */\n      dup5\n        /* \"#utility.yul\":1494:1500   */\n      dup3\n        /* \"#utility.yul\":1487:1491   */\n      0x20\n        /* \"#utility.yul\":1479:1485   */\n      dup7\n        /* \"#utility.yul\":1475:1492   */\n      add\n        /* \"#utility.yul\":1427:1506   */\n      tag_339\n      jump\t// in\n    tag_375:\n        /* \"#utility.yul\":1418:1506   */\n      swap2\n      pop\n        /* \"#utility.yul\":1234:1512   */\n      pop\n        /* \"#utility.yul\":1172:1512   */\n      swap3\n      swap2\n      pop\n      pop\n      jump\t// out\n        /* \"#utility.yul\":1518:1657   */\n    tag_376:\n        /* \"#utility.yul\":1564:1569   */\n      0x00\n        /* \"#utility.yul\":1602:1608   */\n      dup2\n        /* \"#utility.yul\":1589:1609   */\n      calldataload\n        /* \"#utility.yul\":1580:1609   */\n      swap1\n      pop\n        /* \"#utility.yul\":1618:1651   */\n      tag_378\n        /* \"#utility.yul\":1645:1650   */\n      dup2\n        /* \"#utility.yul\":1618:1651   */\n      tag_379\n      jump\t// in\n    tag_378:\n        /* \"#utility.yul\":1518:1657   */\n      swap3\n      swap2\n      pop\n      pop\n      jump\t// out\n        /* \"#utility.yul\":1663:1798   */\n    tag_380:\n        /* \"#utility.yul\":1707:1712   */\n      0x00\n        /* \"#utility.yul\":1745:1751   */\n      dup2\n        /* \"#utility.yul\":1732:1752   */\n      calldataload\n        /* \"#utility.yul\":1723:1752   */\n      swap1\n      pop\n        /* \"#utility.yul\":1761:1792   */\n      tag_382\n        /* \"#utility.yul\":1786:1791   */\n      dup2\n        /* \"#utility.yul\":1761:1792   */\n      tag_383\n      jump\t// in\n    tag_382:\n        /* \"#utility.yul\":1663:1798   */\n      swap3\n      swap2\n      pop\n      pop\n      jump\t// out\n        /* \"#utility.yul\":1804:2133   */\n    tag_44:\n        /* \"#utility.yul\":1863:1869   */\n      0x00\n        /* \"#utility.yul\":1912:1914   */\n      0x20\n        /* \"#utility.yul\":1900:1909   */\n      dup3\n        /* \"#utility.yul\":1891:1898   */\n      dup5\n        /* \"#utility.yul\":1887:1910   */\n      sub\n        /* \"#utility.yul\":1883:1915   */\n      slt\n        /* \"#utility.yul\":1880:1999   */\n      iszero\n      tag_385\n      jumpi\n        /* \"#utility.yul\":1918:1997   */\n      tag_386\n      tag_387\n      jump\t// in\n    tag_386:\n        /* \"#utility.yul\":1880:1999   */\n    tag_385:\n        /* \"#utility.yul\":2038:2039   */\n      0x00\n        /* \"#utility.yul\":2063:2116   */\n      tag_388\n        /* \"#utility.yul\":2108:2115   */\n      dup5\n        /* \"#utility.yul\":2099:2105   */\n      dup3\n        /* \"#utility.yul\":2088:2097   */\n      dup6\n        /* \"#utility.yul\":2084:2106   */\n      add\n        /* \"#utility.yul\":2063:2116   */\n      tag_362\n      jump\t// in\n    tag_388:\n        /* \"#utility.yul\":2053:2116   */\n      swap2\n      pop\n        /* \"#utility.yul\":2009:2126   */\n      pop\n        /* \"#utility.yul\":1804:2133   */\n      swap3\n      swap2\n      pop\n      pop\n      jump\t// out\n        /* \"#utility.yul\":2139:2613   */\n    tag_51:\n        /* \"#utility.yul\":2207:2213   */\n      0x00\n        /* \"#utility.yul\":2215:2221   */\n      dup1\n        /* \"#utility.yul\":2264:2266   */\n      0x40\n        /* \"#utility.yul\":2252:2261   */\n      dup4\n        /* \"#utility.yul\":2243:2250   */\n      dup6\n        /* \"#utility.yul\":2239:2262   */\n      sub\n        /* \"#utility.yul\":2235:2267   */\n      slt\n        /* \"#utility.yul\":2232:2351   */\n      iszero\n      tag_390\n      jumpi\n        /* \"#utility.yul\":2270:2349   */\n      tag_391\n      tag_387\n      jump\t// in\n    tag_391:\n        /* \"#utility.yul\":2232:2351   */\n    tag_390:\n        /* \"#utility.yul\":2390:2391   */\n      0x00\n        /* \"#utility.yul\":2415:2468   */\n      tag_392\n        /* \"#utility.yul\":2460:2467   */\n      dup6\n        /* \"#utility.yul\":2451:2457   */\n      dup3\n        /* \"#utility.yul\":2440:2449   */\n      dup7\n        /* \"#utility.yul\":2436:2458   */\n      add\n        /* \"#utility.yul\":2415:2468   */\n      tag_362\n      jump\t// in\n    tag_392:\n        /* \"#utility.yul\":2405:2468   */\n      swap3\n      pop\n        /* \"#utility.yul\":2361:2478   */\n      pop\n        /* \"#utility.yul\":2517:2519   */\n      0x20\n        /* \"#utility.yul\":2543:2596   */\n      tag_393\n        /* \"#utility.yul\":2588:2595   */\n      dup6\n        /* \"#utility.yul\":2579:2585   */\n      dup3\n        /* \"#utility.yul\":2568:2577   */\n      dup7\n        /* \"#utility.yul\":2564:2586   */\n      add\n        /* \"#utility.yul\":2543:2596   */\n      tag_350\n      jump\t// in\n    tag_393:\n        /* \"#utility.yul\":2533:2596   */\n      swap2\n      pop\n        /* \"#utility.yul\":2488:2606   */\n      pop\n        /* \"#utility.yul\":2139:2613   */\n      swap3\n      pop\n      swap3\n      swap1\n      pop\n      jump\t// out\n        /* \"#utility.yul\":2619:2946   */\n    tag_29:\n        /* \"#utility.yul\":2677:2683   */\n      0x00\n        /* \"#utility.yul\":2726:2728   */\n      0x20\n        /* \"#utility.yul\":2714:2723   */\n      dup3\n        /* \"#utility.yul\":2705:2712   */\n      dup5\n        /* \"#utility.yul\":2701:2724   */\n      sub\n        /* \"#utility.yul\":2697:2729   */\n      slt\n        /* \"#utility.yul\":2694:2813   */\n      iszero\n      tag_395\n      jumpi\n        /* \"#utility.yul\":2732:2811   */\n      tag_396\n      tag_387\n      jump\t// in\n    tag_396:\n        /* \"#utility.yul\":2694:2813   */\n    tag_395:\n        /* \"#utility.yul\":2852:2853   */\n      0x00\n        /* \"#utility.yul\":2877:2929   */\n      tag_397\n        /* \"#utility.yul\":2921:2928   */\n      dup5\n        /* \"#utility.yul\":2912:2918   */\n      dup3\n        /* \"#utility.yul\":2901:2910   */\n      dup6\n        /* \"#utility.yul\":2897:2919   */\n      add\n        /* \"#utility.yul\":2877:2929   */\n      tag_366\n      jump\t// in\n    tag_397:\n        /* \"#utility.yul\":2867:2929   */\n      swap2\n      pop\n        /* \"#utility.yul\":2823:2939   */\n      pop\n        /* \"#utility.yul\":2619:2946   */\n      swap3\n      swap2\n      pop\n      pop\n      jump\t// out\n        /* \"#utility.yul\":2952:4701   */\n    tag_60:\n        /* \"#utility.yul\":3098:3104   */\n      0x00\n        /* \"#utility.yul\":3106:3112   */\n      dup1\n        /* \"#utility.yul\":3114:3120   */\n      0x00\n        /* \"#utility.yul\":3122:3128   */\n      dup1\n        /* \"#utility.yul\":3130:3136   */\n      0x00\n        /* \"#utility.yul\":3138:3144   */\n      dup1\n        /* \"#utility.yul\":3146:3152   */\n      0x00\n        /* \"#utility.yul\":3195:3198   */\n      0xe0\n        /* \"#utility.yul\":3183:3192   */\n      dup9\n        /* \"#utility.yul\":3174:3181   */\n      dup11\n        /* \"#utility.yul\":3170:3193   */\n      sub\n        /* \"#utility.yul\":3166:3199   */\n      slt\n        /* \"#utility.yul\":3163:3283   */\n      iszero\n      tag_399\n      jumpi\n        /* \"#utility.yul\":3202:3281   */\n      tag_400\n      tag_387\n      jump\t// in\n    tag_400:\n        /* \"#utility.yul\":3163:3283   */\n    tag_399:\n        /* \"#utility.yul\":3350:3351   */\n      0x00\n        /* \"#utility.yul\":3339:3348   */\n      dup9\n        /* \"#utility.yul\":3335:3352   */\n      add\n        /* \"#utility.yul\":3322:3353   */\n      calldataload\n        /* \"#utility.yul\":3380:3398   */\n      0xffffffffffffffff\n        /* \"#utility.yul\":3372:3378   */\n      dup2\n        /* \"#utility.yul\":3369:3399   */\n      gt\n        /* \"#utility.yul\":3366:3483   */\n      iszero\n      tag_401\n      jumpi\n        /* \"#utility.yul\":3402:3481   */\n      tag_402\n      tag_403\n      jump\t// in\n    tag_402:\n        /* \"#utility.yul\":3366:3483   */\n    tag_401:\n        /* \"#utility.yul\":3507:3570   */\n      tag_404\n        /* \"#utility.yul\":3562:3569   */\n      dup11\n        /* \"#utility.yul\":3553:3559   */\n      dup3\n        /* \"#utility.yul\":3542:3551   */\n      dup12\n        /* \"#utility.yul\":3538:3560   */\n      add\n        /* \"#utility.yul\":3507:3570   */\n      tag_370\n      jump\t// in\n    tag_404:\n        /* \"#utility.yul\":3497:3570   */\n      swap8\n      pop\n        /* \"#utility.yul\":3293:3580   */\n      pop\n        /* \"#utility.yul\":3647:3649   */\n      0x20\n        /* \"#utility.yul\":3636:3645   */\n      dup9\n        /* \"#utility.yul\":3632:3650   */\n      add\n        /* \"#utility.yul\":3619:3651   */\n      calldataload\n        /* \"#utility.yul\":3678:3696   */\n      0xffffffffffffffff\n        /* \"#utility.yul\":3670:3676   */\n      dup2\n        /* \"#utility.yul\":3667:3697   */\n      gt\n        /* \"#utility.yul\":3664:3781   */\n      iszero\n      tag_405\n      jumpi\n        /* \"#utility.yul\":3700:3779   */\n      tag_406\n      tag_403\n      jump\t// in\n    tag_406:\n        /* \"#utility.yul\":3664:3781   */\n    tag_405:\n        /* \"#utility.yul\":3805:3868   */\n      tag_407\n        /* \"#utility.yul\":3860:3867   */\n      dup11\n        /* \"#utility.yul\":3851:3857   */\n      dup3\n        /* \"#utility.yul\":3840:3849   */\n      dup12\n        /* \"#utility.yul\":3836:3858   */\n      add\n        /* \"#utility.yul\":3805:3868   */\n      tag_370\n      jump\t// in\n    tag_407:\n        /* \"#utility.yul\":3795:3868   */\n      swap7\n      pop\n        /* \"#utility.yul\":3590:3878   */\n      pop\n        /* \"#utility.yul\":3917:3919   */\n      0x40\n        /* \"#utility.yul\":3943:4004   */\n      tag_408\n        /* \"#utility.yul\":3996:4003   */\n      dup11\n        /* \"#utility.yul\":3987:3993   */\n      dup3\n        /* \"#utility.yul\":3976:3985   */\n      dup12\n        /* \"#utility.yul\":3972:3994   */\n      add\n        /* \"#utility.yul\":3943:4004   */\n      tag_354\n      jump\t// in\n    tag_408:\n        /* \"#utility.yul\":3933:4004   */\n      swap6\n      pop\n        /* \"#utility.yul\":3888:4014   */\n      pop\n        /* \"#utility.yul\":4053:4055   */\n      0x60\n        /* \"#utility.yul\":4079:4132   */\n      tag_409\n        /* \"#utility.yul\":4124:4131   */\n      dup11\n        /* \"#utility.yul\":4115:4121   */\n      dup3\n        /* \"#utility.yul\":4104:4113   */\n      dup12\n        /* \"#utility.yul\":4100:4122   */\n      add\n        /* \"#utility.yul\":4079:4132   */\n      tag_376\n      jump\t// in\n    tag_409:\n        /* \"#utility.yul\":4069:4132   */\n      swap5\n      pop\n        /* \"#utility.yul\":4024:4142   */\n      pop\n        /* \"#utility.yul\":4209:4212   */\n      0x80\n        /* \"#utility.yul\":4198:4207   */\n      dup9\n        /* \"#utility.yul\":4194:4213   */\n      add\n        /* \"#utility.yul\":4181:4214   */\n      calldataload\n        /* \"#utility.yul\":4241:4259   */\n      0xffffffffffffffff\n        /* \"#utility.yul\":4233:4239   */\n      dup2\n        /* \"#utility.yul\":4230:4260   */\n      gt\n        /* \"#utility.yul\":4227:4344   */\n      iszero\n      tag_410\n      jumpi\n        /* \"#utility.yul\":4263:4342   */\n      tag_411\n      tag_403\n      jump\t// in\n    tag_411:\n        /* \"#utility.yul\":4227:4344   */\n    tag_410:\n        /* \"#utility.yul\":4368:4431   */\n      tag_412\n        /* \"#utility.yul\":4423:4430   */\n      dup11\n        /* \"#utility.yul\":4414:4420   */\n      dup3\n        /* \"#utility.yul\":4403:4412   */\n      dup12\n        /* \"#utility.yul\":4399:4421   */\n      add\n        /* \"#utility.yul\":4368:4431   */\n      tag_370\n      jump\t// in\n    tag_412:\n        /* \"#utility.yul\":4358:4431   */\n      swap4\n      pop\n        /* \"#utility.yul\":4152:4441   */\n      pop\n        /* \"#utility.yul\":4480:4483   */\n      0xa0\n        /* \"#utility.yul\":4507:4558   */\n      tag_413\n        /* \"#utility.yul\":4550:4557   */\n      dup11\n        /* \"#utility.yul\":4541:4547   */\n      dup3\n        /* \"#utility.yul\":4530:4539   */\n      dup12\n        /* \"#utility.yul\":4526:4548   */\n      add\n        /* \"#utility.yul\":4507:4558   */\n      tag_380\n      jump\t// in\n    tag_413:\n        /* \"#utility.yul\":4497:4558   */\n      swap3\n      pop\n        /* \"#utility.yul\":4451:4568   */\n      pop\n        /* \"#utility.yul\":4607:4610   */\n      0xc0\n        /* \"#utility.yul\":4634:4684   */\n      tag_414\n        /* \"#utility.yul\":4676:4683   */\n      dup11\n        /* \"#utility.yul\":4667:4673   */\n      dup3\n        /* \"#utility.yul\":4656:4665   */\n      dup12\n        /* \"#utility.yul\":4652:4674   */\n      add\n        /* \"#utility.yul\":4634:4684   */\n      tag_358\n      jump\t// in\n    tag_414:\n        /* \"#utility.yul\":4624:4684   */\n      swap2\n      pop\n        /* \"#utility.yul\":4578:4694   */\n      pop\n        /* \"#utility.yul\":2952:4701   */\n      swap3\n      swap6\n      swap9\n      swap2\n      swap5\n      swap8\n      pop\n      swap3\n      swap6\n      pop\n      jump\t// out\n        /* \"#utility.yul\":4707:5036   */\n    tag_70:\n        /* \"#utility.yul\":4766:4772   */\n      0x00\n        /* \"#utility.yul\":4815:4817   */\n      0x20\n        /* \"#utility.yul\":4803:4812   */\n      dup3\n        /* \"#utility.yul\":4794:4801   */\n      dup5\n        /* \"#utility.yul\":4790:4813   */\n      sub\n        /* \"#utility.yul\":4786:4818   */\n      slt\n        /* \"#utility.yul\":4783:4902   */\n      iszero\n      tag_416\n      jumpi\n        /* \"#utility.yul\":4821:4900   */\n      tag_417\n      tag_387\n      jump\t// in\n    tag_417:\n        /* \"#utility.yul\":4783:4902   */\n    tag_416:\n        /* \"#utility.yul\":4941:4942   */\n      0x00\n        /* \"#utility.yul\":4966:5019   */\n      tag_418\n        /* \"#utility.yul\":5011:5018   */\n      dup5\n        /* \"#utility.yul\":5002:5008   */\n      dup3\n        /* \"#utility.yul\":4991:5000   */\n      dup6\n        /* \"#utility.yul\":4987:5009   */\n      add\n        /* \"#utility.yul\":4966:5019   */\n      tag_376\n      jump\t// in\n    tag_418:\n        /* \"#utility.yul\":4956:5019   */\n      swap2\n      pop\n        /* \"#utility.yul\":4912:5029   */\n      pop\n        /* \"#utility.yul\":4707:5036   */\n      swap3\n      swap2\n      pop\n      pop\n      jump\t// out\n        /* \"#utility.yul\":5042:5516   */\n    tag_128:\n        /* \"#utility.yul\":5110:5116   */\n      0x00\n        /* \"#utility.yul\":5118:5124   */\n      dup1\n        /* \"#utility.yul\":5167:5169   */\n      0x40\n        /* \"#utility.yul\":5155:5164   */\n      dup4\n        /* \"#utility.yul\":5146:5153   */\n      dup6\n        /* \"#utility.yul\":5142:5165   */\n      sub\n        /* \"#utility.yul\":5138:5170   */\n      slt\n        /* \"#utility.yul\":5135:5254   */\n      iszero\n      tag_420\n      jumpi\n        /* \"#utility.yul\":5173:5252   */\n      tag_421\n      tag_387\n      jump\t// in\n    tag_421:\n        /* \"#utility.yul\":5135:5254   */\n    tag_420:\n        /* \"#utility.yul\":5293:5294   */\n      0x00\n        /* \"#utility.yul\":5318:5371   */\n      tag_422\n        /* \"#utility.yul\":5363:5370   */\n      dup6\n        /* \"#utility.yul\":5354:5360   */\n      dup3\n        /* \"#utility.yul\":5343:5352   */\n      dup7\n        /* \"#utility.yul\":5339:5361   */\n      add\n        /* \"#utility.yul\":5318:5371   */\n      tag_376\n      jump\t// in\n    tag_422:\n        /* \"#utility.yul\":5308:5371   */\n      swap3\n      pop\n        /* \"#utility.yul\":5264:5381   */\n      pop\n        /* \"#utility.yul\":5420:5422   */\n      0x20\n        /* \"#utility.yul\":5446:5499   */\n      tag_423\n        /* \"#utility.yul\":5491:5498   */\n      dup6\n        /* \"#utility.yul\":5482:5488   */\n      dup3\n        /* \"#utility.yul\":5471:5480   */\n      dup7\n        /* \"#utility.yul\":5467:5489   */\n      add\n        /* \"#utility.yul\":5446:5499   */\n      tag_350\n      jump\t// in\n    tag_423:\n        /* \"#utility.yul\":5436:5499   */\n      swap2\n      pop\n        /* \"#utility.yul\":5391:5509   */\n      pop\n        /* \"#utility.yul\":5042:5516   */\n      swap3\n      pop\n      swap3\n      swap1\n      pop\n      jump\t// out\n        /* \"#utility.yul\":5522:5990   */\n    tag_105:\n        /* \"#utility.yul\":5587:5593   */\n      0x00\n        /* \"#utility.yul\":5595:5601   */\n      dup1\n        /* \"#utility.yul\":5644:5646   */\n      0x40\n        /* \"#utility.yul\":5632:5641   */\n      dup4\n        /* \"#utility.yul\":5623:5630   */\n      dup6\n        /* \"#utility.yul\":5619:5642   */\n      sub\n        /* \"#utility.yul\":5615:5647   */\n      slt\n        /* \"#utility.yul\":5612:5731   */\n      iszero\n      tag_425\n      jumpi\n        /* \"#utility.yul\":5650:5729   */\n      tag_426\n      tag_387\n      jump\t// in\n    tag_426:\n        /* \"#utility.yul\":5612:5731   */\n    tag_425:\n        /* \"#utility.yul\":5770:5771   */\n      0x00\n        /* \"#utility.yul\":5795:5848   */\n      tag_427\n        /* \"#utility.yul\":5840:5847   */\n      dup6\n        /* \"#utility.yul\":5831:5837   */\n      dup3\n        /* \"#utility.yul\":5820:5829   */\n      dup7\n        /* \"#utility.yul\":5816:5838   */\n      add\n        /* \"#utility.yul\":5795:5848   */\n      tag_376\n      jump\t// in\n    tag_427:\n        /* \"#utility.yul\":5785:5848   */\n      swap3\n      pop\n        /* \"#utility.yul\":5741:5858   */\n      pop\n        /* \"#utility.yul\":5897:5899   */\n      0x20\n        /* \"#utility.yul\":5923:5973   */\n      tag_428\n        /* \"#utility.yul\":5965:5972   */\n      dup6\n        /* \"#utility.yul\":5956:5962   */\n      dup3\n        /* \"#utility.yul\":5945:5954   */\n      dup7\n        /* \"#utility.yul\":5941:5963   */\n      add\n        /* \"#utility.yul\":5923:5973   */\n      tag_358\n      jump\t// in\n    tag_428:\n        /* \"#utility.yul\":5913:5973   */\n      swap2\n      pop\n        /* \"#utility.yul\":5868:5983   */\n      pop\n        /* \"#utility.yul\":5522:5990   */\n      swap3\n      pop\n      swap3\n      swap1\n      pop\n      jump\t// out\n        /* \"#utility.yul\":5996:6650   */\n    tag_82:\n        /* \"#utility.yul\":6074:6080   */\n      0x00\n        /* \"#utility.yul\":6082:6088   */\n      dup1\n        /* \"#utility.yul\":6131:6133   */\n      0x40\n        /* \"#utility.yul\":6119:6128   */\n      dup4\n        /* \"#utility.yul\":6110:6117   */\n      dup6\n        /* \"#utility.yul\":6106:6129   */\n      sub\n        /* \"#utility.yul\":6102:6134   */\n      slt\n        /* \"#utility.yul\":6099:6218   */\n      iszero\n      tag_430\n      jumpi\n        /* \"#utility.yul\":6137:6216   */\n      tag_431\n      tag_387\n      jump\t// in\n    tag_431:\n        /* \"#utility.yul\":6099:6218   */\n    tag_430:\n        /* \"#utility.yul\":6257:6258   */\n      0x00\n        /* \"#utility.yul\":6282:6335   */\n      tag_432\n        /* \"#utility.yul\":6327:6334   */\n      dup6\n        /* \"#utility.yul\":6318:6324   */\n      dup3\n        /* \"#utility.yul\":6307:6316   */\n      dup7\n        /* \"#utility.yul\":6303:6325   */\n      add\n        /* \"#utility.yul\":6282:6335   */\n      tag_376\n      jump\t// in\n    tag_432:\n        /* \"#utility.yul\":6272:6335   */\n      swap3\n      pop\n        /* \"#utility.yul\":6228:6345   */\n      pop\n        /* \"#utility.yul\":6412:6414   */\n      0x20\n        /* \"#utility.yul\":6401:6410   */\n      dup4\n        /* \"#utility.yul\":6397:6415   */\n      add\n        /* \"#utility.yul\":6384:6416   */\n      calldataload\n        /* \"#utility.yul\":6443:6461   */\n      0xffffffffffffffff\n        /* \"#utility.yul\":6435:6441   */\n      dup2\n        /* \"#utility.yul\":6432:6462   */\n      gt\n        /* \"#utility.yul\":6429:6546   */\n      iszero\n      tag_433\n      jumpi\n        /* \"#utility.yul\":6465:6544   */\n      tag_434\n      tag_403\n      jump\t// in\n    tag_434:\n        /* \"#utility.yul\":6429:6546   */\n    tag_433:\n        /* \"#utility.yul\":6570:6633   */\n      tag_435\n        /* \"#utility.yul\":6625:6632   */\n      dup6\n        /* \"#utility.yul\":6616:6622   */\n      dup3\n        /* \"#utility.yul\":6605:6614   */\n      dup7\n        /* \"#utility.yul\":6601:6623   */\n      add\n        /* \"#utility.yul\":6570:6633   */\n      tag_370\n      jump\t// in\n    tag_435:\n        /* \"#utility.yul\":6560:6633   */\n      swap2\n      pop\n        /* \"#utility.yul\":6355:6643   */\n      pop\n        /* \"#utility.yul\":5996:6650   */\n      swap3\n      pop\n      swap3\n      swap1\n      pop\n      jump\t// out\n        /* \"#utility.yul\":6656:7130   */\n    tag_96:\n        /* \"#utility.yul\":6724:6730   */\n      0x00\n        /* \"#utility.yul\":6732:6738   */\n      dup1\n        /* \"#utility.yul\":6781:6783   */\n      0x40\n        /* \"#utility.yul\":6769:6778   */\n      dup4\n        /* \"#utility.yul\":6760:6767   */\n      dup6\n        /* \"#utility.yul\":6756:6779   */\n      sub\n        /* \"#utility.yul\":6752:6784   */\n      slt\n        /* \"#utility.yul\":6749:6868   */\n      iszero\n      tag_437\n      jumpi\n        /* \"#utility.yul\":6787:6866   */\n      tag_438\n      tag_387\n      jump\t// in\n    tag_438:\n        /* \"#utility.yul\":6749:6868   */\n    tag_437:\n        /* \"#utility.yul\":6907:6908   */\n      0x00\n        /* \"#utility.yul\":6932:6985   */\n      tag_439\n        /* \"#utility.yul\":6977:6984   */\n      dup6\n        /* \"#utility.yul\":6968:6974   */\n      dup3\n        /* \"#utility.yul\":6957:6966   */\n      dup7\n        /* \"#utility.yul\":6953:6975   */\n      add\n        /* \"#utility.yul\":6932:6985   */\n      tag_376\n      jump\t// in\n    tag_439:\n        /* \"#utility.yul\":6922:6985   */\n      swap3\n      pop\n        /* \"#utility.yul\":6878:6995   */\n      pop\n        /* \"#utility.yul\":7034:7036   */\n      0x20\n        /* \"#utility.yul\":7060:7113   */\n      tag_440\n        /* \"#utility.yul\":7105:7112   */\n      dup6\n        /* \"#utility.yul\":7096:7102   */\n      dup3\n        /* \"#utility.yul\":7085:7094   */\n      dup7\n        /* \"#utility.yul\":7081:7103   */\n      add\n        /* \"#utility.yul\":7060:7113   */\n      tag_376\n      jump\t// in\n    tag_440:\n        /* \"#utility.yul\":7050:7113   */\n      swap2\n      pop\n        /* \"#utility.yul\":7005:7123   */\n      pop\n        /* \"#utility.yul\":6656:7130   */\n      swap3\n      pop\n      swap3\n      swap1\n      pop\n      jump\t// out\n        /* \"#utility.yul\":7136:7606   */\n    tag_36:\n        /* \"#utility.yul\":7202:7208   */\n      0x00\n        /* \"#utility.yul\":7210:7216   */\n      dup1\n        /* \"#utility.yul\":7259:7261   */\n      0x40\n        /* \"#utility.yul\":7247:7256   */\n      dup4\n        /* \"#utility.yul\":7238:7245   */\n      dup6\n        /* \"#utility.yul\":7234:7257   */\n      sub\n        /* \"#utility.yul\":7230:7262   */\n      slt\n        /* \"#utility.yul\":7227:7346   */\n      iszero\n      tag_442\n      jumpi\n        /* \"#utility.yul\":7265:7344   */\n      tag_443\n      tag_387\n      jump\t// in\n    tag_443:\n        /* \"#utility.yul\":7227:7346   */\n    tag_442:\n        /* \"#utility.yul\":7385:7386   */\n      0x00\n        /* \"#utility.yul\":7410:7463   */\n      tag_444\n        /* \"#utility.yul\":7455:7462   */\n      dup6\n        /* \"#utility.yul\":7446:7452   */\n      dup3\n        /* \"#utility.yul\":7435:7444   */\n      dup7\n        /* \"#utility.yul\":7431:7453   */\n      add\n        /* \"#utility.yul\":7410:7463   */\n      tag_376\n      jump\t// in\n    tag_444:\n        /* \"#utility.yul\":7400:7463   */\n      swap3\n      pop\n        /* \"#utility.yul\":7356:7473   */\n      pop\n        /* \"#utility.yul\":7512:7514   */\n      0x20\n        /* \"#utility.yul\":7538:7589   */\n      tag_445\n        /* \"#utility.yul\":7581:7588   */\n      dup6\n        /* \"#utility.yul\":7572:7578   */\n      dup3\n        /* \"#utility.yul\":7561:7570   */\n      dup7\n        /* \"#utility.yul\":7557:7579   */\n      add\n        /* \"#utility.yul\":7538:7589   */\n      tag_380\n      jump\t// in\n    tag_445:\n        /* \"#utility.yul\":7528:7589   */\n      swap2\n      pop\n        /* \"#utility.yul\":7483:7599   */\n      pop\n        /* \"#utility.yul\":7136:7606   */\n      swap3\n      pop\n      swap3\n      swap1\n      pop\n      jump\t// out\n        /* \"#utility.yul\":7612:7759   */\n    tag_446:\n        /* \"#utility.yul\":7707:7752   */\n      tag_448\n        /* \"#utility.yul\":7746:7751   */\n      dup2\n        /* \"#utility.yul\":7707:7752   */\n      tag_449\n      jump\t// in\n    tag_448:\n        /* \"#utility.yul\":7702:7705   */\n      dup3\n        /* \"#utility.yul\":7695:7753   */\n      mstore\n        /* \"#utility.yul\":7612:7759   */\n      pop\n      pop\n      jump\t// out\n        /* \"#utility.yul\":7765:7907   */\n    tag_450:\n        /* \"#utility.yul\":7868:7900   */\n      tag_452\n        /* \"#utility.yul\":7894:7899   */\n      dup2\n        /* \"#utility.yul\":7868:7900   */\n      tag_453\n      jump\t// in\n    tag_452:\n        /* \"#utility.yul\":7863:7866   */\n      dup3\n        /* \"#utility.yul\":7856:7901   */\n      mstore\n        /* \"#utility.yul\":7765:7907   */\n      pop\n      pop\n      jump\t// out\n        /* \"#utility.yul\":7913:8031   */\n    tag_454:\n        /* \"#utility.yul\":8000:8024   */\n      tag_456\n        /* \"#utility.yul\":8018:8023   */\n      dup2\n        /* \"#utility.yul\":8000:8024   */\n      tag_457\n      jump\t// in\n    tag_456:\n        /* \"#utility.yul\":7995:7998   */\n      dup3\n        /* \"#utility.yul\":7988:8025   */\n      mstore\n        /* \"#utility.yul\":7913:8031   */\n      pop\n      pop\n      jump\t// out\n        /* \"#utility.yul\":8037:8146   */\n    tag_458:\n        /* \"#utility.yul\":8118:8139   */\n      tag_460\n        /* \"#utility.yul\":8133:8138   */\n      dup2\n        /* \"#utility.yul\":8118:8139   */\n      tag_461\n      jump\t// in\n    tag_460:\n        /* \"#utility.yul\":8113:8116   */\n      dup3\n        /* \"#utility.yul\":8106:8140   */\n      mstore\n        /* \"#utility.yul\":8037:8146   */\n      pop\n      pop\n      jump\t// out\n        /* \"#utility.yul\":8152:8270   */\n    tag_462:\n        /* \"#utility.yul\":8239:8263   */\n      tag_464\n        /* \"#utility.yul\":8257:8262   */\n      dup2\n        /* \"#utility.yul\":8239:8263   */\n      tag_465\n      jump\t// in\n    tag_464:\n        /* \"#utility.yul\":8234:8237   */\n      dup3\n        /* \"#utility.yul\":8227:8264   */\n      mstore\n        /* \"#utility.yul\":8152:8270   */\n      pop\n      pop\n      jump\t// out\n        /* \"#utility.yul\":8276:8640   */\n    tag_466:\n        /* \"#utility.yul\":8364:8367   */\n      0x00\n        /* \"#utility.yul\":8392:8431   */\n      tag_468\n        /* \"#utility.yul\":8425:8430   */\n      dup3\n        /* \"#utility.yul\":8392:8431   */\n      tag_469\n      jump\t// in\n    tag_468:\n        /* \"#utility.yul\":8447:8518   */\n      tag_470\n        /* \"#utility.yul\":8511:8517   */\n      dup2\n        /* \"#utility.yul\":8506:8509   */\n      dup6\n        /* \"#utility.yul\":8447:8518   */\n      tag_471\n      jump\t// in\n    tag_470:\n        /* \"#utility.yul\":8440:8518   */\n      swap4\n      pop\n        /* \"#utility.yul\":8527:8579   */\n      tag_472\n        /* \"#utility.yul\":8572:8578   */\n      dup2\n        /* \"#utility.yul\":8567:8570   */\n      dup6\n        /* \"#utility.yul\":8560:8564   */\n      0x20\n        /* \"#utility.yul\":8553:8558   */\n      dup7\n        /* \"#utility.yul\":8549:8565   */\n      add\n        /* \"#utility.yul\":8527:8579   */\n      tag_473\n      jump\t// in\n    tag_472:\n        /* \"#utility.yul\":8604:8633   */\n      tag_474\n        /* \"#utility.yul\":8626:8632   */\n      dup2\n        /* \"#utility.yul\":8604:8633   */\n      tag_475\n      jump\t// in\n    tag_474:\n        /* \"#utility.yul\":8599:8602   */\n      dup5\n        /* \"#utility.yul\":8595:8634   */\n      add\n        /* \"#utility.yul\":8588:8634   */\n      swap2\n      pop\n        /* \"#utility.yul\":8368:8640   */\n      pop\n        /* \"#utility.yul\":8276:8640   */\n      swap3\n      swap2\n      pop\n      pop\n      jump\t// out\n        /* \"#utility.yul\":8646:9023   */\n    tag_476:\n        /* \"#utility.yul\":8752:8755   */\n      0x00\n        /* \"#utility.yul\":8780:8819   */\n      tag_478\n        /* \"#utility.yul\":8813:8818   */\n      dup3\n        /* \"#utility.yul\":8780:8819   */\n      tag_469\n      jump\t// in\n    tag_478:\n        /* \"#utility.yul\":8835:8924   */\n      tag_479\n        /* \"#utility.yul\":8917:8923   */\n      dup2\n        /* \"#utility.yul\":8912:8915   */\n      dup6\n        /* \"#utility.yul\":8835:8924   */\n      tag_480\n      jump\t// in\n    tag_479:\n        /* \"#utility.yul\":8828:8924   */\n      swap4\n      pop\n        /* \"#utility.yul\":8933:8985   */\n      tag_481\n        /* \"#utility.yul\":8978:8984   */\n      dup2\n        /* \"#utility.yul\":8973:8976   */\n      dup6\n        /* \"#utility.yul\":8966:8970   */\n      0x20\n        /* \"#utility.yul\":8959:8964   */\n      dup7\n        /* \"#utility.yul\":8955:8971   */\n      add\n        /* \"#utility.yul\":8933:8985   */\n      tag_473\n      jump\t// in\n    tag_481:\n        /* \"#utility.yul\":9010:9016   */\n      dup1\n        /* \"#utility.yul\":9005:9008   */\n      dup5\n        /* \"#utility.yul\":9001:9017   */\n      add\n        /* \"#utility.yul\":8994:9017   */\n      swap2\n      pop\n        /* \"#utility.yul\":8756:9023   */\n      pop\n        /* \"#utility.yul\":8646:9023   */\n      swap3\n      swap2\n      pop\n      pop\n      jump\t// out\n        /* \"#utility.yul\":9029:9395   */\n    tag_482:\n        /* \"#utility.yul\":9171:9174   */\n      0x00\n        /* \"#utility.yul\":9192:9259   */\n      tag_484\n        /* \"#utility.yul\":9256:9258   */\n      0x1f\n        /* \"#utility.yul\":9251:9254   */\n      dup4\n        /* \"#utility.yul\":9192:9259   */\n      tag_471\n      jump\t// in\n    tag_484:\n        /* \"#utility.yul\":9185:9259   */\n      swap2\n      pop\n        /* \"#utility.yul\":9268:9361   */\n      tag_485\n        /* \"#utility.yul\":9357:9360   */\n      dup3\n        /* \"#utility.yul\":9268:9361   */\n      tag_486\n      jump\t// in\n    tag_485:\n        /* \"#utility.yul\":9386:9388   */\n      0x20\n        /* \"#utility.yul\":9381:9384   */\n      dup3\n        /* \"#utility.yul\":9377:9389   */\n      add\n        /* \"#utility.yul\":9370:9389   */\n      swap1\n      pop\n        /* \"#utility.yul\":9029:9395   */\n      swap2\n      swap1\n      pop\n      jump\t// out\n        /* \"#utility.yul\":9401:9767   */\n    tag_487:\n        /* \"#utility.yul\":9543:9546   */\n      0x00\n        /* \"#utility.yul\":9564:9631   */\n      tag_489\n        /* \"#utility.yul\":9628:9630   */\n      0x3d\n        /* \"#utility.yul\":9623:9626   */\n      dup4\n        /* \"#utility.yul\":9564:9631   */\n      tag_471\n      jump\t// in\n    tag_489:\n        /* \"#utility.yul\":9557:9631   */\n      swap2\n      pop\n        /* \"#utility.yul\":9640:9733   */\n      tag_490\n        /* \"#utility.yul\":9729:9732   */\n      dup3\n        /* \"#utility.yul\":9640:9733   */\n      tag_491\n      jump\t// in\n    tag_490:\n        /* \"#utility.yul\":9758:9760   */\n      0x40\n        /* \"#utility.yul\":9753:9756   */\n      dup3\n        /* \"#utility.yul\":9749:9761   */\n      add\n        /* \"#utility.yul\":9742:9761   */\n      swap1\n      pop\n        /* \"#utility.yul\":9401:9767   */\n      swap2\n      swap1\n      pop\n      jump\t// out\n        /* \"#utility.yul\":9773:10139   */\n    tag_492:\n        /* \"#utility.yul\":9915:9918   */\n      0x00\n        /* \"#utility.yul\":9936:10003   */\n      tag_494\n        /* \"#utility.yul\":10000:10002   */\n      0x20\n        /* \"#utility.yul\":9995:9998   */\n      dup4\n        /* \"#utility.yul\":9936:10003   */\n      tag_471\n      jump\t// in\n    tag_494:\n        /* \"#utility.yul\":9929:10003   */\n      swap2\n      pop\n        /* \"#utility.yul\":10012:10105   */\n      tag_495\n        /* \"#utility.yul\":10101:10104   */\n      dup3\n        /* \"#utility.yul\":10012:10105   */\n      tag_496\n      jump\t// in\n    tag_495:\n        /* \"#utility.yul\":10130:10132   */\n      0x20\n        /* \"#utility.yul\":10125:10128   */\n      dup3\n        /* \"#utility.yul\":10121:10133   */\n      add\n        /* \"#utility.yul\":10114:10133   */\n      swap1\n      pop\n        /* \"#utility.yul\":9773:10139   */\n      swap2\n      swap1\n      pop\n      jump\t// out\n        /* \"#utility.yul\":10145:10511   */\n    tag_497:\n        /* \"#utility.yul\":10287:10290   */\n      0x00\n        /* \"#utility.yul\":10308:10375   */\n      tag_499\n        /* \"#utility.yul\":10372:10374   */\n      0x14\n        /* \"#utility.yul\":10367:10370   */\n      dup4\n        /* \"#utility.yul\":10308:10375   */\n      tag_471\n      jump\t// in\n    tag_499:\n        /* \"#utility.yul\":10301:10375   */\n      swap2\n      pop\n        /* \"#utility.yul\":10384:10477   */\n      tag_500\n        /* \"#utility.yul\":10473:10476   */\n      dup3\n        /* \"#utility.yul\":10384:10477   */\n      tag_501\n      jump\t// in\n    tag_500:\n        /* \"#utility.yul\":10502:10504   */\n      0x20\n        /* \"#utility.yul\":10497:10500   */\n      dup3\n        /* \"#utility.yul\":10493:10505   */\n      add\n        /* \"#utility.yul\":10486:10505   */\n      swap1\n      pop\n        /* \"#utility.yul\":10145:10511   */\n      swap2\n      swap1\n      pop\n      jump\t// out\n        /* \"#utility.yul\":10517:10883   */\n    tag_502:\n        /* \"#utility.yul\":10659:10662   */\n      0x00\n        /* \"#utility.yul\":10680:10747   */\n      tag_504\n        /* \"#utility.yul\":10744:10746   */\n      0x2c\n        /* \"#utility.yul\":10739:10742   */\n      dup4\n        /* \"#utility.yul\":10680:10747   */\n      tag_471\n      jump\t// in\n    tag_504:\n        /* \"#utility.yul\":10673:10747   */\n      swap2\n      pop\n        /* \"#utility.yul\":10756:10849   */\n      tag_505\n        /* \"#utility.yul\":10845:10848   */\n      dup3\n        /* \"#utility.yul\":10756:10849   */\n      tag_506\n      jump\t// in\n    tag_505:\n        /* \"#utility.yul\":10874:10876   */\n      0x40\n        /* \"#utility.yul\":10869:10872   */\n      dup3\n        /* \"#utility.yul\":10865:10877   */\n      add\n        /* \"#utility.yul\":10858:10877   */\n      swap1\n      pop\n        /* \"#utility.yul\":10517:10883   */\n      swap2\n      swap1\n      pop\n      jump\t// out\n        /* \"#utility.yul\":10889:11255   */\n    tag_507:\n        /* \"#utility.yul\":11031:11034   */\n      0x00\n        /* \"#utility.yul\":11052:11119   */\n      tag_509\n        /* \"#utility.yul\":11116:11118   */\n      0x19\n        /* \"#utility.yul\":11111:11114   */\n      dup4\n        /* \"#utility.yul\":11052:11119   */\n      tag_471\n      jump\t// in\n    tag_509:\n        /* \"#utility.yul\":11045:11119   */\n      swap2\n      pop\n        /* \"#utility.yul\":11128:11221   */\n      tag_510\n        /* \"#utility.yul\":11217:11220   */\n      dup3\n        /* \"#utility.yul\":11128:11221   */\n      tag_511\n      jump\t// in\n    tag_510:\n        /* \"#utility.yul\":11246:11248   */\n      0x20\n        /* \"#utility.yul\":11241:11244   */\n      dup3\n        /* \"#utility.yul\":11237:11249   */\n      add\n        /* \"#utility.yul\":11230:11249   */\n      swap1\n      pop\n        /* \"#utility.yul\":10889:11255   */\n      swap2\n      swap1\n      pop\n      jump\t// out\n        /* \"#utility.yul\":11261:11627   */\n    tag_512:\n        /* \"#utility.yul\":11403:11406   */\n      0x00\n        /* \"#utility.yul\":11424:11491   */\n      tag_514\n        /* \"#utility.yul\":11488:11490   */\n      0x21\n        /* \"#utility.yul\":11483:11486   */\n      dup4\n        /* \"#utility.yul\":11424:11491   */\n      tag_471\n      jump\t// in\n    tag_514:\n        /* \"#utility.yul\":11417:11491   */\n      swap2\n      pop\n        /* \"#utility.yul\":11500:11593   */\n      tag_515\n        /* \"#utility.yul\":11589:11592   */\n      dup3\n        /* \"#utility.yul\":11500:11593   */\n      tag_516\n      jump\t// in\n    tag_515:\n        /* \"#utility.yul\":11618:11620   */\n      0x40\n        /* \"#utility.yul\":11613:11616   */\n      dup3\n        /* \"#utility.yul\":11609:11621   */\n      add\n        /* \"#utility.yul\":11602:11621   */\n      swap1\n      pop\n        /* \"#utility.yul\":11261:11627   */\n      swap2\n      swap1\n      pop\n      jump\t// out\n        /* \"#utility.yul\":11633:11999   */\n    tag_517:\n        /* \"#utility.yul\":11775:11778   */\n      0x00\n        /* \"#utility.yul\":11796:11863   */\n      tag_519\n        /* \"#utility.yul\":11860:11862   */\n      0x28\n        /* \"#utility.yul\":11855:11858   */\n      dup4\n        /* \"#utility.yul\":11796:11863   */\n      tag_471\n      jump\t// in\n    tag_519:\n        /* \"#utility.yul\":11789:11863   */\n      swap2\n      pop\n        /* \"#utility.yul\":11872:11965   */\n      tag_520\n        /* \"#utility.yul\":11961:11964   */\n      dup3\n        /* \"#utility.yul\":11872:11965   */\n      tag_521\n      jump\t// in\n    tag_520:\n        /* \"#utility.yul\":11990:11992   */\n      0x40\n        /* \"#utility.yul\":11985:11988   */\n      dup3\n        /* \"#utility.yul\":11981:11993   */\n      add\n        /* \"#utility.yul\":11974:11993   */\n      swap1\n      pop\n        /* \"#utility.yul\":11633:11999   */\n      swap2\n      swap1\n      pop\n      jump\t// out\n        /* \"#utility.yul\":12005:12371   */\n    tag_522:\n        /* \"#utility.yul\":12147:12150   */\n      0x00\n        /* \"#utility.yul\":12168:12235   */\n      tag_524\n        /* \"#utility.yul\":12232:12234   */\n      0x28\n        /* \"#utility.yul\":12227:12230   */\n      dup4\n        /* \"#utility.yul\":12168:12235   */\n      tag_471\n      jump\t// in\n    tag_524:\n        /* \"#utility.yul\":12161:12235   */\n      swap2\n      pop\n        /* \"#utility.yul\":12244:12337   */\n      tag_525\n        /* \"#utility.yul\":12333:12336   */\n      dup3\n        /* \"#utility.yul\":12244:12337   */\n      tag_526\n      jump\t// in\n    tag_525:\n        /* \"#utility.yul\":12362:12364   */\n      0x40\n        /* \"#utility.yul\":12357:12360   */\n      dup3\n        /* \"#utility.yul\":12353:12365   */\n      add\n        /* \"#utility.yul\":12346:12365   */\n      swap1\n      pop\n        /* \"#utility.yul\":12005:12371   */\n      swap2\n      swap1\n      pop\n      jump\t// out\n        /* \"#utility.yul\":12377:12743   */\n    tag_527:\n        /* \"#utility.yul\":12519:12522   */\n      0x00\n        /* \"#utility.yul\":12540:12607   */\n      tag_529\n        /* \"#utility.yul\":12604:12606   */\n      0x16\n        /* \"#utility.yul\":12599:12602   */\n      dup4\n        /* \"#utility.yul\":12540:12607   */\n      tag_471\n      jump\t// in\n    tag_529:\n        /* \"#utility.yul\":12533:12607   */\n      swap2\n      pop\n        /* \"#utility.yul\":12616:12709   */\n      tag_530\n        /* \"#utility.yul\":12705:12708   */\n      dup3\n        /* \"#utility.yul\":12616:12709   */\n      tag_531\n      jump\t// in\n    tag_530:\n        /* \"#utility.yul\":12734:12736   */\n      0x20\n        /* \"#utility.yul\":12729:12732   */\n      dup3\n        /* \"#utility.yul\":12725:12737   */\n      add\n        /* \"#utility.yul\":12718:12737   */\n      swap1\n      pop\n        /* \"#utility.yul\":12377:12743   */\n      swap2\n      swap1\n      pop\n      jump\t// out\n        /* \"#utility.yul\":12749:13115   */\n    tag_532:\n        /* \"#utility.yul\":12891:12894   */\n      0x00\n        /* \"#utility.yul\":12912:12979   */\n      tag_534\n        /* \"#utility.yul\":12976:12978   */\n      0x25\n        /* \"#utility.yul\":12971:12974   */\n      dup4\n        /* \"#utility.yul\":12912:12979   */\n      tag_471\n      jump\t// in\n    tag_534:\n        /* \"#utility.yul\":12905:12979   */\n      swap2\n      pop\n        /* \"#utility.yul\":12988:13081   */\n      tag_535\n        /* \"#utility.yul\":13077:13080   */\n      dup3\n        /* \"#utility.yul\":12988:13081   */\n      tag_536\n      jump\t// in\n    tag_535:\n        /* \"#utility.yul\":13106:13108   */\n      0x40\n        /* \"#utility.yul\":13101:13104   */\n      dup3\n        /* \"#utility.yul\":13097:13109   */\n      add\n        /* \"#utility.yul\":13090:13109   */\n      swap1\n      pop\n        /* \"#utility.yul\":12749:13115   */\n      swap2\n      swap1\n      pop\n      jump\t// out\n        /* \"#utility.yul\":13121:13523   */\n    tag_537:\n        /* \"#utility.yul\":13281:13284   */\n      0x00\n        /* \"#utility.yul\":13302:13387   */\n      tag_539\n        /* \"#utility.yul\":13384:13386   */\n      0x17\n        /* \"#utility.yul\":13379:13382   */\n      dup4\n        /* \"#utility.yul\":13302:13387   */\n      tag_480\n      jump\t// in\n    tag_539:\n        /* \"#utility.yul\":13295:13387   */\n      swap2\n      pop\n        /* \"#utility.yul\":13396:13489   */\n      tag_540\n        /* \"#utility.yul\":13485:13488   */\n      dup3\n        /* \"#utility.yul\":13396:13489   */\n      tag_541\n      jump\t// in\n    tag_540:\n        /* \"#utility.yul\":13514:13516   */\n      0x17\n        /* \"#utility.yul\":13509:13512   */\n      dup3\n        /* \"#utility.yul\":13505:13517   */\n      add\n        /* \"#utility.yul\":13498:13517   */\n      swap1\n      pop\n        /* \"#utility.yul\":13121:13523   */\n      swap2\n      swap1\n      pop\n      jump\t// out\n        /* \"#utility.yul\":13529:13895   */\n    tag_542:\n        /* \"#utility.yul\":13671:13674   */\n      0x00\n        /* \"#utility.yul\":13692:13759   */\n      tag_544\n        /* \"#utility.yul\":13756:13758   */\n      0x1c\n        /* \"#utility.yul\":13751:13754   */\n      dup4\n        /* \"#utility.yul\":13692:13759   */\n      tag_471\n      jump\t// in\n    tag_544:\n        /* \"#utility.yul\":13685:13759   */\n      swap2\n      pop\n        /* \"#utility.yul\":13768:13861   */\n      tag_545\n        /* \"#utility.yul\":13857:13860   */\n      dup3\n        /* \"#utility.yul\":13768:13861   */\n      tag_546\n      jump\t// in\n    tag_545:\n        /* \"#utility.yul\":13886:13888   */\n      0x20\n        /* \"#utility.yul\":13881:13884   */\n      dup3\n        /* \"#utility.yul\":13877:13889   */\n      add\n        /* \"#utility.yul\":13870:13889   */\n      swap1\n      pop\n        /* \"#utility.yul\":13529:13895   */\n      swap2\n      swap1\n      pop\n      jump\t// out\n        /* \"#utility.yul\":13901:14303   */\n    tag_547:\n        /* \"#utility.yul\":14061:14064   */\n      0x00\n        /* \"#utility.yul\":14082:14167   */\n      tag_549\n        /* \"#utility.yul\":14164:14166   */\n      0x11\n        /* \"#utility.yul\":14159:14162   */\n      dup4\n        /* \"#utility.yul\":14082:14167   */\n      tag_480\n      jump\t// in\n    tag_549:\n        /* \"#utility.yul\":14075:14167   */\n      swap2\n      pop\n        /* \"#utility.yul\":14176:14269   */\n      tag_550\n        /* \"#utility.yul\":14265:14268   */\n      dup3\n        /* \"#utility.yul\":14176:14269   */\n      tag_551\n      jump\t// in\n    tag_550:\n        /* \"#utility.yul\":14294:14296   */\n      0x11\n        /* \"#utility.yul\":14289:14292   */\n      dup3\n        /* \"#utility.yul\":14285:14297   */\n      add\n        /* \"#utility.yul\":14278:14297   */\n      swap1\n      pop\n        /* \"#utility.yul\":13901:14303   */\n      swap2\n      swap1\n      pop\n      jump\t// out\n        /* \"#utility.yul\":14309:14675   */\n    tag_552:\n        /* \"#utility.yul\":14451:14454   */\n      0x00\n        /* \"#utility.yul\":14472:14539   */\n      tag_554\n        /* \"#utility.yul\":14536:14538   */\n      0x2f\n        /* \"#utility.yul\":14531:14534   */\n      dup4\n        /* \"#utility.yul\":14472:14539   */\n      tag_471\n      jump\t// in\n    tag_554:\n        /* \"#utility.yul\":14465:14539   */\n      swap2\n      pop\n        /* \"#utility.yul\":14548:14641   */\n      tag_555\n        /* \"#utility.yul\":14637:14640   */\n      dup3\n        /* \"#utility.yul\":14548:14641   */\n      tag_556\n      jump\t// in\n    tag_555:\n        /* \"#utility.yul\":14666:14668   */\n      0x40\n        /* \"#utility.yul\":14661:14664   */\n      dup3\n        /* \"#utility.yul\":14657:14669   */\n      add\n        /* \"#utility.yul\":14650:14669   */\n      swap1\n      pop\n        /* \"#utility.yul\":14309:14675   */\n      swap2\n      swap1\n      pop\n      jump\t// out\n        /* \"#utility.yul\":14681:14799   */\n    tag_557:\n        /* \"#utility.yul\":14768:14792   */\n      tag_559\n        /* \"#utility.yul\":14786:14791   */\n      dup2\n        /* \"#utility.yul\":14768:14792   */\n      tag_560\n      jump\t// in\n    tag_559:\n        /* \"#utility.yul\":14763:14766   */\n      dup3\n        /* \"#utility.yul\":14756:14793   */\n      mstore\n        /* \"#utility.yul\":14681:14799   */\n      pop\n      pop\n      jump\t// out\n        /* \"#utility.yul\":14805:14917   */\n    tag_561:\n        /* \"#utility.yul\":14888:14910   */\n      tag_563\n        /* \"#utility.yul\":14904:14909   */\n      dup2\n        /* \"#utility.yul\":14888:14910   */\n      tag_564\n      jump\t// in\n    tag_563:\n        /* \"#utility.yul\":14883:14886   */\n      dup3\n        /* \"#utility.yul\":14876:14911   */\n      mstore\n        /* \"#utility.yul\":14805:14917   */\n      pop\n      pop\n      jump\t// out\n        /* \"#utility.yul\":14923:15890   */\n    tag_284:\n        /* \"#utility.yul\":15305:15308   */\n      0x00\n        /* \"#utility.yul\":15327:15475   */\n      tag_566\n        /* \"#utility.yul\":15471:15474   */\n      dup3\n        /* \"#utility.yul\":15327:15475   */\n      tag_537\n      jump\t// in\n    tag_566:\n        /* \"#utility.yul\":15320:15475   */\n      swap2\n      pop\n        /* \"#utility.yul\":15492:15587   */\n      tag_567\n        /* \"#utility.yul\":15583:15586   */\n      dup3\n        /* \"#utility.yul\":15574:15580   */\n      dup6\n        /* \"#utility.yul\":15492:15587   */\n      tag_476\n      jump\t// in\n    tag_567:\n        /* \"#utility.yul\":15485:15587   */\n      swap2\n      pop\n        /* \"#utility.yul\":15604:15752   */\n      tag_568\n        /* \"#utility.yul\":15748:15751   */\n      dup3\n        /* \"#utility.yul\":15604:15752   */\n      tag_547\n      jump\t// in\n    tag_568:\n        /* \"#utility.yul\":15597:15752   */\n      swap2\n      pop\n        /* \"#utility.yul\":15769:15864   */\n      tag_569\n        /* \"#utility.yul\":15860:15863   */\n      dup3\n        /* \"#utility.yul\":15851:15857   */\n      dup5\n        /* \"#utility.yul\":15769:15864   */\n      tag_476\n      jump\t// in\n    tag_569:\n        /* \"#utility.yul\":15762:15864   */\n      swap2\n      pop\n        /* \"#utility.yul\":15881:15884   */\n      dup2\n        /* \"#utility.yul\":15874:15884   */\n      swap1\n      pop\n        /* \"#utility.yul\":14923:15890   */\n      swap4\n      swap3\n      pop\n      pop\n      pop\n      jump\t// out\n        /* \"#utility.yul\":15896:16106   */\n    tag_32:\n        /* \"#utility.yul\":15983:15987   */\n      0x00\n        /* \"#utility.yul\":16021:16023   */\n      0x20\n        /* \"#utility.yul\":16010:16019   */\n      dup3\n        /* \"#utility.yul\":16006:16024   */\n      add\n        /* \"#utility.yul\":15998:16024   */\n      swap1\n      pop\n        /* \"#utility.yul\":16034:16099   */\n      tag_571\n        /* \"#utility.yul\":16096:16097   */\n      0x00\n        /* \"#utility.yul\":16085:16094   */\n      dup4\n        /* \"#utility.yul\":16081:16098   */\n      add\n        /* \"#utility.yul\":16072:16078   */\n      dup5\n        /* \"#utility.yul\":16034:16099   */\n      tag_458\n      jump\t// in\n    tag_571:\n        /* \"#utility.yul\":15896:16106   */\n      swap3\n      swap2\n      pop\n      pop\n      jump\t// out\n        /* \"#utility.yul\":16112:16334   */\n    tag_47:\n        /* \"#utility.yul\":16205:16209   */\n      0x00\n        /* \"#utility.yul\":16243:16245   */\n      0x20\n        /* \"#utility.yul\":16232:16241   */\n      dup3\n        /* \"#utility.yul\":16228:16246   */\n      add\n        /* \"#utility.yul\":16220:16246   */\n      swap1\n      pop\n        /* \"#utility.yul\":16256:16327   */\n      tag_573\n        /* \"#utility.yul\":16324:16325   */\n      0x00\n        /* \"#utility.yul\":16313:16322   */\n      dup4\n        /* \"#utility.yul\":16309:16326   */\n      add\n        /* \"#utility.yul\":16300:16306   */\n      dup5\n        /* \"#utility.yul\":16256:16327   */\n      tag_462\n      jump\t// in\n    tag_573:\n        /* \"#utility.yul\":16112:16334   */\n      swap3\n      swap2\n      pop\n      pop\n      jump\t// out\n        /* \"#utility.yul\":16340:16653   */\n    tag_286:\n        /* \"#utility.yul\":16453:16457   */\n      0x00\n        /* \"#utility.yul\":16491:16493   */\n      0x20\n        /* \"#utility.yul\":16480:16489   */\n      dup3\n        /* \"#utility.yul\":16476:16494   */\n      add\n        /* \"#utility.yul\":16468:16494   */\n      swap1\n      pop\n        /* \"#utility.yul\":16540:16549   */\n      dup2\n        /* \"#utility.yul\":16534:16538   */\n      dup2\n        /* \"#utility.yul\":16530:16550   */\n      sub\n        /* \"#utility.yul\":16526:16527   */\n      0x00\n        /* \"#utility.yul\":16515:16524   */\n      dup4\n        /* \"#utility.yul\":16511:16528   */\n      add\n        /* \"#utility.yul\":16504:16551   */\n      mstore\n        /* \"#utility.yul\":16568:16646   */\n      tag_575\n        /* \"#utility.yul\":16641:16645   */\n      dup2\n        /* \"#utility.yul\":16632:16638   */\n      dup5\n        /* \"#utility.yul\":16568:16646   */\n      tag_466\n      jump\t// in\n    tag_575:\n        /* \"#utility.yul\":16560:16646   */\n      swap1\n      pop\n        /* \"#utility.yul\":16340:16653   */\n      swap3\n      swap2\n      pop\n      pop\n      jump\t// out\n        /* \"#utility.yul\":16659:17323   */\n    tag_112:\n        /* \"#utility.yul\":16866:16870   */\n      0x00\n        /* \"#utility.yul\":16904:16907   */\n      0x80\n        /* \"#utility.yul\":16893:16902   */\n      dup3\n        /* \"#utility.yul\":16889:16908   */\n      add\n        /* \"#utility.yul\":16881:16908   */\n      swap1\n      pop\n        /* \"#utility.yul\":16954:16963   */\n      dup2\n        /* \"#utility.yul\":16948:16952   */\n      dup2\n        /* \"#utility.yul\":16944:16964   */\n      sub\n        /* \"#utility.yul\":16940:16941   */\n      0x00\n        /* \"#utility.yul\":16929:16938   */\n      dup4\n        /* \"#utility.yul\":16925:16942   */\n      add\n        /* \"#utility.yul\":16918:16965   */\n      mstore\n        /* \"#utility.yul\":16982:17060   */\n      tag_577\n        /* \"#utility.yul\":17055:17059   */\n      dup2\n        /* \"#utility.yul\":17046:17052   */\n      dup8\n        /* \"#utility.yul\":16982:17060   */\n      tag_466\n      jump\t// in\n    tag_577:\n        /* \"#utility.yul\":16974:17060   */\n      swap1\n      pop\n        /* \"#utility.yul\":17070:17158   */\n      tag_578\n        /* \"#utility.yul\":17154:17156   */\n      0x20\n        /* \"#utility.yul\":17143:17152   */\n      dup4\n        /* \"#utility.yul\":17139:17157   */\n      add\n        /* \"#utility.yul\":17130:17136   */\n      dup7\n        /* \"#utility.yul\":17070:17158   */\n      tag_450\n      jump\t// in\n    tag_578:\n        /* \"#utility.yul\":17168:17240   */\n      tag_579\n        /* \"#utility.yul\":17236:17238   */\n      0x40\n        /* \"#utility.yul\":17225:17234   */\n      dup4\n        /* \"#utility.yul\":17221:17239   */\n      add\n        /* \"#utility.yul\":17212:17218   */\n      dup6\n        /* \"#utility.yul\":17168:17240   */\n      tag_557\n      jump\t// in\n    tag_579:\n        /* \"#utility.yul\":17250:17316   */\n      tag_580\n        /* \"#utility.yul\":17312:17314   */\n      0x60\n        /* \"#utility.yul\":17301:17310   */\n      dup4\n        /* \"#utility.yul\":17297:17315   */\n      add\n        /* \"#utility.yul\":17288:17294   */\n      dup5\n        /* \"#utility.yul\":17250:17316   */\n      tag_458\n      jump\t// in\n    tag_580:\n        /* \"#utility.yul\":16659:17323   */\n      swap6\n      swap5\n      pop\n      pop\n      pop\n      pop\n      pop\n      jump\t// out\n        /* \"#utility.yul\":17329:18167   */\n    tag_78:\n        /* \"#utility.yul\":17570:17574   */\n      0x00\n        /* \"#utility.yul\":17608:17611   */\n      0xa0\n        /* \"#utility.yul\":17597:17606   */\n      dup3\n        /* \"#utility.yul\":17593:17612   */\n      add\n        /* \"#utility.yul\":17585:17612   */\n      swap1\n      pop\n        /* \"#utility.yul\":17658:17667   */\n      dup2\n        /* \"#utility.yul\":17652:17656   */\n      dup2\n        /* \"#utility.yul\":17648:17668   */\n      sub\n        /* \"#utility.yul\":17644:17645   */\n      0x00\n        /* \"#utility.yul\":17633:17642   */\n      dup4\n        /* \"#utility.yul\":17629:17646   */\n      add\n        /* \"#utility.yul\":17622:17669   */\n      mstore\n        /* \"#utility.yul\":17686:17764   */\n      tag_582\n        /* \"#utility.yul\":17759:17763   */\n      dup2\n        /* \"#utility.yul\":17750:17756   */\n      dup9\n        /* \"#utility.yul\":17686:17764   */\n      tag_466\n      jump\t// in\n    tag_582:\n        /* \"#utility.yul\":17678:17764   */\n      swap1\n      pop\n        /* \"#utility.yul\":17811:17820   */\n      dup2\n        /* \"#utility.yul\":17805:17809   */\n      dup2\n        /* \"#utility.yul\":17801:17821   */\n      sub\n        /* \"#utility.yul\":17796:17798   */\n      0x20\n        /* \"#utility.yul\":17785:17794   */\n      dup4\n        /* \"#utility.yul\":17781:17799   */\n      add\n        /* \"#utility.yul\":17774:17822   */\n      mstore\n        /* \"#utility.yul\":17839:17917   */\n      tag_583\n        /* \"#utility.yul\":17912:17916   */\n      dup2\n        /* \"#utility.yul\":17903:17909   */\n      dup8\n        /* \"#utility.yul\":17839:17917   */\n      tag_466\n      jump\t// in\n    tag_583:\n        /* \"#utility.yul\":17831:17917   */\n      swap1\n      pop\n        /* \"#utility.yul\":17927:17995   */\n      tag_584\n        /* \"#utility.yul\":17991:17993   */\n      0x40\n        /* \"#utility.yul\":17980:17989   */\n      dup4\n        /* \"#utility.yul\":17976:17994   */\n      add\n        /* \"#utility.yul\":17967:17973   */\n      dup7\n        /* \"#utility.yul\":17927:17995   */\n      tag_561\n      jump\t// in\n    tag_584:\n        /* \"#utility.yul\":18005:18077   */\n      tag_585\n        /* \"#utility.yul\":18073:18075   */\n      0x60\n        /* \"#utility.yul\":18062:18071   */\n      dup4\n        /* \"#utility.yul\":18058:18076   */\n      add\n        /* \"#utility.yul\":18049:18055   */\n      dup6\n        /* \"#utility.yul\":18005:18077   */\n      tag_557\n      jump\t// in\n    tag_585:\n        /* \"#utility.yul\":18087:18160   */\n      tag_586\n        /* \"#utility.yul\":18155:18158   */\n      0x80\n        /* \"#utility.yul\":18144:18153   */\n      dup4\n        /* \"#utility.yul\":18140:18159   */\n      add\n        /* \"#utility.yul\":18131:18137   */\n      dup5\n        /* \"#utility.yul\":18087:18160   */\n      tag_557\n      jump\t// in\n    tag_586:\n        /* \"#utility.yul\":17329:18167   */\n      swap7\n      swap6\n      pop\n      pop\n      pop\n      pop\n      pop\n      pop\n      jump\t// out\n        /* \"#utility.yul\":18173:18592   */\n    tag_157:\n        /* \"#utility.yul\":18339:18343   */\n      0x00\n        /* \"#utility.yul\":18377:18379   */\n      0x20\n        /* \"#utility.yul\":18366:18375   */\n      dup3\n        /* \"#utility.yul\":18362:18380   */\n      add\n        /* \"#utility.yul\":18354:18380   */\n      swap1\n      pop\n        /* \"#utility.yul\":18426:18435   */\n      dup2\n        /* \"#utility.yul\":18420:18424   */\n      dup2\n        /* \"#utility.yul\":18416:18436   */\n      sub\n        /* \"#utility.yul\":18412:18413   */\n      0x00\n        /* \"#utility.yul\":18401:18410   */\n      dup4\n        /* \"#utility.yul\":18397:18414   */\n      add\n        /* \"#utility.yul\":18390:18437   */\n      mstore\n        /* \"#utility.yul\":18454:18585   */\n      tag_588\n        /* \"#utility.yul\":18580:18584   */\n      dup2\n        /* \"#utility.yul\":18454:18585   */\n      tag_482\n      jump\t// in\n    tag_588:\n        /* \"#utility.yul\":18446:18585   */\n      swap1\n      pop\n        /* \"#utility.yul\":18173:18592   */\n      swap2\n      swap1\n      pop\n      jump\t// out\n        /* \"#utility.yul\":18598:19017   */\n    tag_160:\n        /* \"#utility.yul\":18764:18768   */\n      0x00\n        /* \"#utility.yul\":18802:18804   */\n      0x20\n        /* \"#utility.yul\":18791:18800   */\n      dup3\n        /* \"#utility.yul\":18787:18805   */\n      add\n        /* \"#utility.yul\":18779:18805   */\n      swap1\n      pop\n        /* \"#utility.yul\":18851:18860   */\n      dup2\n        /* \"#utility.yul\":18845:18849   */\n      dup2\n        /* \"#utility.yul\":18841:18861   */\n      sub\n        /* \"#utility.yul\":18837:18838   */\n      0x00\n        /* \"#utility.yul\":18826:18835   */\n      dup4\n        /* \"#utility.yul\":18822:18839   */\n      add\n        /* \"#utility.yul\":18815:18862   */\n      mstore\n        /* \"#utility.yul\":18879:19010   */\n      tag_590\n        /* \"#utility.yul\":19005:19009   */\n      dup2\n        /* \"#utility.yul\":18879:19010   */\n      tag_487\n      jump\t// in\n    tag_590:\n        /* \"#utility.yul\":18871:19010   */\n      swap1\n      pop\n        /* \"#utility.yul\":18598:19017   */\n      swap2\n      swap1\n      pop\n      jump\t// out\n        /* \"#utility.yul\":19023:19442   */\n    tag_327:\n        /* \"#utility.yul\":19189:19193   */\n      0x00\n        /* \"#utility.yul\":19227:19229   */\n      0x20\n        /* \"#utility.yul\":19216:19225   */\n      dup3\n        /* \"#utility.yul\":19212:19230   */\n      add\n        /* \"#utility.yul\":19204:19230   */\n      swap1\n      pop\n        /* \"#utility.yul\":19276:19285   */\n      dup2\n        /* \"#utility.yul\":19270:19274   */\n      dup2\n        /* \"#utility.yul\":19266:19286   */\n      sub\n        /* \"#utility.yul\":19262:19263   */\n      0x00\n        /* \"#utility.yul\":19251:19260   */\n      dup4\n        /* \"#utility.yul\":19247:19264   */\n      add\n        /* \"#utility.yul\":19240:19287   */\n      mstore\n        /* \"#utility.yul\":19304:19435   */\n      tag_592\n        /* \"#utility.yul\":19430:19434   */\n      dup2\n        /* \"#utility.yul\":19304:19435   */\n      tag_492\n      jump\t// in\n    tag_592:\n        /* \"#utility.yul\":19296:19435   */\n      swap1\n      pop\n        /* \"#utility.yul\":19023:19442   */\n      swap2\n      swap1\n      pop\n      jump\t// out\n        /* \"#utility.yul\":19448:19867   */\n    tag_154:\n        /* \"#utility.yul\":19614:19618   */\n      0x00\n        /* \"#utility.yul\":19652:19654   */\n      0x20\n        /* \"#utility.yul\":19641:19650   */\n      dup3\n        /* \"#utility.yul\":19637:19655   */\n      add\n        /* \"#utility.yul\":19629:19655   */\n      swap1\n      pop\n        /* \"#utility.yul\":19701:19710   */\n      dup2\n        /* \"#utility.yul\":19695:19699   */\n      dup2\n        /* \"#utility.yul\":19691:19711   */\n      sub\n        /* \"#utility.yul\":19687:19688   */\n      0x00\n        /* \"#utility.yul\":19676:19685   */\n      dup4\n        /* \"#utility.yul\":19672:19689   */\n      add\n        /* \"#utility.yul\":19665:19712   */\n      mstore\n        /* \"#utility.yul\":19729:19860   */\n      tag_594\n        /* \"#utility.yul\":19855:19859   */\n      dup2\n        /* \"#utility.yul\":19729:19860   */\n      tag_497\n      jump\t// in\n    tag_594:\n        /* \"#utility.yul\":19721:19860   */\n      swap1\n      pop\n        /* \"#utility.yul\":19448:19867   */\n      swap2\n      swap1\n      pop\n      jump\t// out\n        /* \"#utility.yul\":19873:20292   */\n    tag_237:\n        /* \"#utility.yul\":20039:20043   */\n      0x00\n        /* \"#utility.yul\":20077:20079   */\n      0x20\n        /* \"#utility.yul\":20066:20075   */\n      dup3\n        /* \"#utility.yul\":20062:20080   */\n      add\n        /* \"#utility.yul\":20054:20080   */\n      swap1\n      pop\n        /* \"#utility.yul\":20126:20135   */\n      dup2\n        /* \"#utility.yul\":20120:20124   */\n      dup2\n        /* \"#utility.yul\":20116:20136   */\n      sub\n        /* \"#utility.yul\":20112:20113   */\n      0x00\n        /* \"#utility.yul\":20101:20110   */\n      dup4\n        /* \"#utility.yul\":20097:20114   */\n      add\n        /* \"#utility.yul\":20090:20137   */\n      mstore\n        /* \"#utility.yul\":20154:20285   */\n      tag_596\n        /* \"#utility.yul\":20280:20284   */\n      dup2\n        /* \"#utility.yul\":20154:20285   */\n      tag_502\n      jump\t// in\n    tag_596:\n        /* \"#utility.yul\":20146:20285   */\n      swap1\n      pop\n        /* \"#utility.yul\":19873:20292   */\n      swap2\n      swap1\n      pop\n      jump\t// out\n        /* \"#utility.yul\":20298:20717   */\n    tag_163:\n        /* \"#utility.yul\":20464:20468   */\n      0x00\n        /* \"#utility.yul\":20502:20504   */\n      0x20\n        /* \"#utility.yul\":20491:20500   */\n      dup3\n        /* \"#utility.yul\":20487:20505   */\n      add\n        /* \"#utility.yul\":20479:20505   */\n      swap1\n      pop\n        /* \"#utility.yul\":20551:20560   */\n      dup2\n        /* \"#utility.yul\":20545:20549   */\n      dup2\n        /* \"#utility.yul\":20541:20561   */\n      sub\n        /* \"#utility.yul\":20537:20538   */\n      0x00\n        /* \"#utility.yul\":20526:20535   */\n      dup4\n        /* \"#utility.yul\":20522:20539   */\n      add\n        /* \"#utility.yul\":20515:20562   */\n      mstore\n        /* \"#utility.yul\":20579:20710   */\n      tag_598\n        /* \"#utility.yul\":20705:20709   */\n      dup2\n        /* \"#utility.yul\":20579:20710   */\n      tag_507\n      jump\t// in\n    tag_598:\n        /* \"#utility.yul\":20571:20710   */\n      swap1\n      pop\n        /* \"#utility.yul\":20298:20717   */\n      swap2\n      swap1\n      pop\n      jump\t// out\n        /* \"#utility.yul\":20723:21142   */\n    tag_148:\n        /* \"#utility.yul\":20889:20893   */\n      0x00\n        /* \"#utility.yul\":20927:20929   */\n      0x20\n        /* \"#utility.yul\":20916:20925   */\n      dup3\n        /* \"#utility.yul\":20912:20930   */\n      add\n        /* \"#utility.yul\":20904:20930   */\n      swap1\n      pop\n        /* \"#utility.yul\":20976:20985   */\n      dup2\n        /* \"#utility.yul\":20970:20974   */\n      dup2\n        /* \"#utility.yul\":20966:20986   */\n      sub\n        /* \"#utility.yul\":20962:20963   */\n      0x00\n        /* \"#utility.yul\":20951:20960   */\n      dup4\n        /* \"#utility.yul\":20947:20964   */\n      add\n        /* \"#utility.yul\":20940:20987   */\n      mstore\n        /* \"#utility.yul\":21004:21135   */\n      tag_600\n        /* \"#utility.yul\":21130:21134   */\n      dup2\n        /* \"#utility.yul\":21004:21135   */\n      tag_512\n      jump\t// in\n    tag_600:\n        /* \"#utility.yul\":20996:21135   */\n      swap1\n      pop\n        /* \"#utility.yul\":20723:21142   */\n      swap2\n      swap1\n      pop\n      jump\t// out\n        /* \"#utility.yul\":21148:21567   */\n    tag_144:\n        /* \"#utility.yul\":21314:21318   */\n      0x00\n        /* \"#utility.yul\":21352:21354   */\n      0x20\n        /* \"#utility.yul\":21341:21350   */\n      dup3\n        /* \"#utility.yul\":21337:21355   */\n      add\n        /* \"#utility.yul\":21329:21355   */\n      swap1\n      pop\n        /* \"#utility.yul\":21401:21410   */\n      dup2\n        /* \"#utility.yul\":21395:21399   */\n      dup2\n        /* \"#utility.yul\":21391:21411   */\n      sub\n        /* \"#utility.yul\":21387:21388   */\n      0x00\n        /* \"#utility.yul\":21376:21385   */\n      dup4\n        /* \"#utility.yul\":21372:21389   */\n      add\n        /* \"#utility.yul\":21365:21412   */\n      mstore\n        /* \"#utility.yul\":21429:21560   */\n      tag_602\n        /* \"#utility.yul\":21555:21559   */\n      dup2\n        /* \"#utility.yul\":21429:21560   */\n      tag_517\n      jump\t// in\n    tag_602:\n        /* \"#utility.yul\":21421:21560   */\n      swap1\n      pop\n        /* \"#utility.yul\":21148:21567   */\n      swap2\n      swap1\n      pop\n      jump\t// out\n        /* \"#utility.yul\":21573:21992   */\n    tag_191:\n        /* \"#utility.yul\":21739:21743   */\n      0x00\n        /* \"#utility.yul\":21777:21779   */\n      0x20\n        /* \"#utility.yul\":21766:21775   */\n      dup3\n        /* \"#utility.yul\":21762:21780   */\n      add\n        /* \"#utility.yul\":21754:21780   */\n      swap1\n      pop\n        /* \"#utility.yul\":21826:21835   */\n      dup2\n        /* \"#utility.yul\":21820:21824   */\n      dup2\n        /* \"#utility.yul\":21816:21836   */\n      sub\n        /* \"#utility.yul\":21812:21813   */\n      0x00\n        /* \"#utility.yul\":21801:21810   */\n      dup4\n        /* \"#utility.yul\":21797:21814   */\n      add\n        /* \"#utility.yul\":21790:21837   */\n      mstore\n        /* \"#utility.yul\":21854:21985   */\n      tag_604\n        /* \"#utility.yul\":21980:21984   */\n      dup2\n        /* \"#utility.yul\":21854:21985   */\n      tag_522\n      jump\t// in\n    tag_604:\n        /* \"#utility.yul\":21846:21985   */\n      swap1\n      pop\n        /* \"#utility.yul\":21573:21992   */\n      swap2\n      swap1\n      pop\n      jump\t// out\n        /* \"#utility.yul\":21998:22417   */\n    tag_138:\n        /* \"#utility.yul\":22164:22168   */\n      0x00\n        /* \"#utility.yul\":22202:22204   */\n      0x20\n        /* \"#utility.yul\":22191:22200   */\n      dup3\n        /* \"#utility.yul\":22187:22205   */\n      add\n        /* \"#utility.yul\":22179:22205   */\n      swap1\n      pop\n        /* \"#utility.yul\":22251:22260   */\n      dup2\n        /* \"#utility.yul\":22245:22249   */\n      dup2\n        /* \"#utility.yul\":22241:22261   */\n      sub\n        /* \"#utility.yul\":22237:22238   */\n      0x00\n        /* \"#utility.yul\":22226:22235   */\n      dup4\n        /* \"#utility.yul\":22222:22239   */\n      add\n        /* \"#utility.yul\":22215:22262   */\n      mstore\n        /* \"#utility.yul\":22279:22410   */\n      tag_606\n        /* \"#utility.yul\":22405:22409   */\n      dup2\n        /* \"#utility.yul\":22279:22410   */\n      tag_527\n      jump\t// in\n    tag_606:\n        /* \"#utility.yul\":22271:22410   */\n      swap1\n      pop\n        /* \"#utility.yul\":21998:22417   */\n      swap2\n      swap1\n      pop\n      jump\t// out\n        /* \"#utility.yul\":22423:22842   */\n    tag_141:\n        /* \"#utility.yul\":22589:22593   */\n      0x00\n        /* \"#utility.yul\":22627:22629   */\n      0x20\n        /* \"#utility.yul\":22616:22625   */\n      dup3\n        /* \"#utility.yul\":22612:22630   */\n      add\n        /* \"#utility.yul\":22604:22630   */\n      swap1\n      pop\n        /* \"#utility.yul\":22676:22685   */\n      dup2\n        /* \"#utility.yul\":22670:22674   */\n      dup2\n        /* \"#utility.yul\":22666:22686   */\n      sub\n        /* \"#utility.yul\":22662:22663   */\n      0x00\n        /* \"#utility.yul\":22651:22660   */\n      dup4\n        /* \"#utility.yul\":22647:22664   */\n      add\n        /* \"#utility.yul\":22640:22687   */\n      mstore\n        /* \"#utility.yul\":22704:22835   */\n      tag_608\n        /* \"#utility.yul\":22830:22834   */\n      dup2\n        /* \"#utility.yul\":22704:22835   */\n      tag_532\n      jump\t// in\n    tag_608:\n        /* \"#utility.yul\":22696:22835   */\n      swap1\n      pop\n        /* \"#utility.yul\":22423:22842   */\n      swap2\n      swap1\n      pop\n      jump\t// out\n        /* \"#utility.yul\":22848:23267   */\n    tag_194:\n        /* \"#utility.yul\":23014:23018   */\n      0x00\n        /* \"#utility.yul\":23052:23054   */\n      0x20\n        /* \"#utility.yul\":23041:23050   */\n      dup3\n        /* \"#utility.yul\":23037:23055   */\n      add\n        /* \"#utility.yul\":23029:23055   */\n      swap1\n      pop\n        /* \"#utility.yul\":23101:23110   */\n      dup2\n        /* \"#utility.yul\":23095:23099   */\n      dup2\n        /* \"#utility.yul\":23091:23111   */\n      sub\n        /* \"#utility.yul\":23087:23088   */\n      0x00\n        /* \"#utility.yul\":23076:23085   */\n      dup4\n        /* \"#utility.yul\":23072:23089   */\n      add\n        /* \"#utility.yul\":23065:23112   */\n      mstore\n        /* \"#utility.yul\":23129:23260   */\n      tag_610\n        /* \"#utility.yul\":23255:23259   */\n      dup2\n        /* \"#utility.yul\":23129:23260   */\n      tag_542\n      jump\t// in\n    tag_610:\n        /* \"#utility.yul\":23121:23260   */\n      swap1\n      pop\n        /* \"#utility.yul\":22848:23267   */\n      swap2\n      swap1\n      pop\n      jump\t// out\n        /* \"#utility.yul\":23273:23692   */\n    tag_185:\n        /* \"#utility.yul\":23439:23443   */\n      0x00\n        /* \"#utility.yul\":23477:23479   */\n      0x20\n        /* \"#utility.yul\":23466:23475   */\n      dup3\n        /* \"#utility.yul\":23462:23480   */\n      add\n        /* \"#utility.yul\":23454:23480   */\n      swap1\n      pop\n        /* \"#utility.yul\":23526:23535   */\n      dup2\n        /* \"#utility.yul\":23520:23524   */\n      dup2\n        /* \"#utility.yul\":23516:23536   */\n      sub\n        /* \"#utility.yul\":23512:23513   */\n      0x00\n        /* \"#utility.yul\":23501:23510   */\n      dup4\n        /* \"#utility.yul\":23497:23514   */\n      add\n        /* \"#utility.yul\":23490:23537   */\n      mstore\n        /* \"#utility.yul\":23554:23685   */\n      tag_612\n        /* \"#utility.yul\":23680:23684   */\n      dup2\n        /* \"#utility.yul\":23554:23685   */\n      tag_552\n      jump\t// in\n    tag_612:\n        /* \"#utility.yul\":23546:23685   */\n      swap1\n      pop\n        /* \"#utility.yul\":23273:23692   */\n      swap2\n      swap1\n      pop\n      jump\t// out\n        /* \"#utility.yul\":23698:23920   */\n    tag_66:\n        /* \"#utility.yul\":23791:23795   */\n      0x00\n        /* \"#utility.yul\":23829:23831   */\n      0x20\n        /* \"#utility.yul\":23818:23827   */\n      dup3\n        /* \"#utility.yul\":23814:23832   */\n      add\n        /* \"#utility.yul\":23806:23832   */\n      swap1\n      pop\n        /* \"#utility.yul\":23842:23913   */\n      tag_614\n        /* \"#utility.yul\":23910:23911   */\n      0x00\n        /* \"#utility.yul\":23899:23908   */\n      dup4\n        /* \"#utility.yul\":23895:23912   */\n      add\n        /* \"#utility.yul\":23886:23892   */\n      dup5\n        /* \"#utility.yul\":23842:23913   */\n      tag_557\n      jump\t// in\n    tag_614:\n        /* \"#utility.yul\":23698:23920   */\n      swap3\n      swap2\n      pop\n      pop\n      jump\t// out\n        /* \"#utility.yul\":23926:24495   */\n    tag_170:\n        /* \"#utility.yul\":24111:24115   */\n      0x00\n        /* \"#utility.yul\":24149:24152   */\n      0x80\n        /* \"#utility.yul\":24138:24147   */\n      dup3\n        /* \"#utility.yul\":24134:24153   */\n      add\n        /* \"#utility.yul\":24126:24153   */\n      swap1\n      pop\n        /* \"#utility.yul\":24163:24234   */\n      tag_616\n        /* \"#utility.yul\":24231:24232   */\n      0x00\n        /* \"#utility.yul\":24220:24229   */\n      dup4\n        /* \"#utility.yul\":24216:24233   */\n      add\n        /* \"#utility.yul\":24207:24213   */\n      dup8\n        /* \"#utility.yul\":24163:24234   */\n      tag_557\n      jump\t// in\n    tag_616:\n        /* \"#utility.yul\":24244:24316   */\n      tag_617\n        /* \"#utility.yul\":24312:24314   */\n      0x20\n        /* \"#utility.yul\":24301:24310   */\n      dup4\n        /* \"#utility.yul\":24297:24315   */\n      add\n        /* \"#utility.yul\":24288:24294   */\n      dup7\n        /* \"#utility.yul\":24244:24316   */\n      tag_557\n      jump\t// in\n    tag_617:\n        /* \"#utility.yul\":24326:24406   */\n      tag_618\n        /* \"#utility.yul\":24402:24404   */\n      0x40\n        /* \"#utility.yul\":24391:24400   */\n      dup4\n        /* \"#utility.yul\":24387:24405   */\n      add\n        /* \"#utility.yul\":24378:24384   */\n      dup6\n        /* \"#utility.yul\":24326:24406   */\n      tag_446\n      jump\t// in\n    tag_618:\n        /* \"#utility.yul\":24416:24488   */\n      tag_619\n        /* \"#utility.yul\":24484:24486   */\n      0x60\n        /* \"#utility.yul\":24473:24482   */\n      dup4\n        /* \"#utility.yul\":24469:24487   */\n      add\n        /* \"#utility.yul\":24460:24466   */\n      dup5\n        /* \"#utility.yul\":24416:24488   */\n      tag_454\n      jump\t// in\n    tag_619:\n        /* \"#utility.yul\":23926:24495   */\n      swap6\n      swap5\n      pop\n      pop\n      pop\n      pop\n      pop\n      jump\t// out\n        /* \"#utility.yul\":24501:24630   */\n    tag_344:\n        /* \"#utility.yul\":24535:24541   */\n      0x00\n        /* \"#utility.yul\":24562:24582   */\n      tag_621\n      tag_622\n      jump\t// in\n    tag_621:\n        /* \"#utility.yul\":24552:24582   */\n      swap1\n      pop\n        /* \"#utility.yul\":24591:24624   */\n      tag_623\n        /* \"#utility.yul\":24619:24623   */\n      dup3\n        /* \"#utility.yul\":24611:24617   */\n      dup3\n        /* \"#utility.yul\":24591:24624   */\n      tag_624\n      jump\t// in\n    tag_623:\n        /* \"#utility.yul\":24501:24630   */\n      swap2\n      swap1\n      pop\n      jump\t// out\n        /* \"#utility.yul\":24636:24711   */\n    tag_622:\n        /* \"#utility.yul\":24669:24675   */\n      0x00\n        /* \"#utility.yul\":24702:24704   */\n      0x40\n        /* \"#utility.yul\":24696:24705   */\n      mload\n        /* \"#utility.yul\":24686:24705   */\n      swap1\n      pop\n        /* \"#utility.yul\":24636:24711   */\n      swap1\n      jump\t// out\n        /* \"#utility.yul\":24717:25025   */\n    tag_343:\n        /* \"#utility.yul\":24779:24783   */\n      0x00\n        /* \"#utility.yul\":24869:24887   */\n      0xffffffffffffffff\n        /* \"#utility.yul\":24861:24867   */\n      dup3\n        /* \"#utility.yul\":24858:24888   */\n      gt\n        /* \"#utility.yul\":24855:24911   */\n      iszero\n      tag_627\n      jumpi\n        /* \"#utility.yul\":24891:24909   */\n      tag_628\n      tag_308\n      jump\t// in\n    tag_628:\n        /* \"#utility.yul\":24855:24911   */\n    tag_627:\n        /* \"#utility.yul\":24929:24958   */\n      tag_629\n        /* \"#utility.yul\":24951:24957   */\n      dup3\n        /* \"#utility.yul\":24929:24958   */\n      tag_475\n      jump\t// in\n    tag_629:\n        /* \"#utility.yul\":24921:24958   */\n      swap1\n      pop\n        /* \"#utility.yul\":25013:25017   */\n      0x20\n        /* \"#utility.yul\":25007:25011   */\n      dup2\n        /* \"#utility.yul\":25003:25018   */\n      add\n        /* \"#utility.yul\":24995:25018   */\n      swap1\n      pop\n        /* \"#utility.yul\":24717:25025   */\n      swap2\n      swap1\n      pop\n      jump\t// out\n        /* \"#utility.yul\":25031:25130   */\n    tag_469:\n        /* \"#utility.yul\":25083:25089   */\n      0x00\n        /* \"#utility.yul\":25117:25122   */\n      dup2\n        /* \"#utility.yul\":25111:25123   */\n      mload\n        /* \"#utility.yul\":25101:25123   */\n      swap1\n      pop\n        /* \"#utility.yul\":25031:25130   */\n      swap2\n      swap1\n      pop\n      jump\t// out\n        /* \"#utility.yul\":25136:25305   */\n    tag_471:\n        /* \"#utility.yul\":25220:25231   */\n      0x00\n        /* \"#utility.yul\":25254:25260   */\n      dup3\n        /* \"#utility.yul\":25249:25252   */\n      dup3\n        /* \"#utility.yul\":25242:25261   */\n      mstore\n        /* \"#utility.yul\":25294:25298   */\n      0x20\n        /* \"#utility.yul\":25289:25292   */\n      dup3\n        /* \"#utility.yul\":25285:25299   */\n      add\n        /* \"#utility.yul\":25270:25299   */\n      swap1\n      pop\n        /* \"#utility.yul\":25136:25305   */\n      swap3\n      swap2\n      pop\n      pop\n      jump\t// out\n        /* \"#utility.yul\":25311:25459   */\n    tag_480:\n        /* \"#utility.yul\":25413:25424   */\n      0x00\n        /* \"#utility.yul\":25450:25453   */\n      dup2\n        /* \"#utility.yul\":25435:25453   */\n      swap1\n      pop\n        /* \"#utility.yul\":25311:25459   */\n      swap3\n      swap2\n      pop\n      pop\n      jump\t// out\n        /* \"#utility.yul\":25465:25770   */\n    tag_211:\n        /* \"#utility.yul\":25505:25508   */\n      0x00\n        /* \"#utility.yul\":25524:25544   */\n      tag_634\n        /* \"#utility.yul\":25542:25543   */\n      dup3\n        /* \"#utility.yul\":25524:25544   */\n      tag_560\n      jump\t// in\n    tag_634:\n        /* \"#utility.yul\":25519:25544   */\n      swap2\n      pop\n        /* \"#utility.yul\":25558:25578   */\n      tag_635\n        /* \"#utility.yul\":25576:25577   */\n      dup4\n        /* \"#utility.yul\":25558:25578   */\n      tag_560\n      jump\t// in\n    tag_635:\n        /* \"#utility.yul\":25553:25578   */\n      swap3\n      pop\n        /* \"#utility.yul\":25712:25713   */\n      dup3\n        /* \"#utility.yul\":25644:25710   */\n      0xffffffffffffffffffffffffffffffffffffffffffffffffffffffffffffffff\n        /* \"#utility.yul\":25640:25714   */\n      sub\n        /* \"#utility.yul\":25637:25638   */\n      dup3\n        /* \"#utility.yul\":25634:25715   */\n      gt\n        /* \"#utility.yul\":25631:25738   */\n      iszero\n      tag_636\n      jumpi\n        /* \"#utility.yul\":25718:25736   */\n      tag_637\n      tag_638\n      jump\t// in\n    tag_637:\n        /* \"#utility.yul\":25631:25738   */\n    tag_636:\n        /* \"#utility.yul\":25762:25763   */\n      dup3\n        /* \"#utility.yul\":25759:25760   */\n      dup3\n        /* \"#utility.yul\":25755:25764   */\n      add\n        /* \"#utility.yul\":25748:25764   */\n      swap1\n      pop\n        /* \"#utility.yul\":25465:25770   */\n      swap3\n      swap2\n      pop\n      pop\n      jump\t// out\n        /* \"#utility.yul\":25776:25961   */\n    tag_216:\n        /* \"#utility.yul\":25816:25817   */\n      0x00\n        /* \"#utility.yul\":25833:25853   */\n      tag_640\n        /* \"#utility.yul\":25851:25852   */\n      dup3\n        /* \"#utility.yul\":25833:25853   */\n      tag_560\n      jump\t// in\n    tag_640:\n        /* \"#utility.yul\":25828:25853   */\n      swap2\n      pop\n        /* \"#utility.yul\":25867:25887   */\n      tag_641\n        /* \"#utility.yul\":25885:25886   */\n      dup4\n        /* \"#utility.yul\":25867:25887   */\n      tag_560\n      jump\t// in\n    tag_641:\n        /* \"#utility.yul\":25862:25887   */\n      swap3\n      pop\n        /* \"#utility.yul\":25906:25907   */\n      dup3\n        /* \"#utility.yul\":25896:25931   */\n      tag_642\n      jumpi\n        /* \"#utility.yul\":25911:25929   */\n      tag_643\n      tag_644\n      jump\t// in\n    tag_643:\n        /* \"#utility.yul\":25896:25931   */\n    tag_642:\n        /* \"#utility.yul\":25953:25954   */\n      dup3\n        /* \"#utility.yul\":25950:25951   */\n      dup3\n        /* \"#utility.yul\":25946:25955   */\n      div\n        /* \"#utility.yul\":25941:25955   */\n      swap1\n      pop\n        /* \"#utility.yul\":25776:25961   */\n      swap3\n      swap2\n      pop\n      pop\n      jump\t// out\n        /* \"#utility.yul\":25967:26315   */\n    tag_151:\n        /* \"#utility.yul\":26007:26014   */\n      0x00\n        /* \"#utility.yul\":26030:26050   */\n      tag_646\n        /* \"#utility.yul\":26048:26049   */\n      dup3\n        /* \"#utility.yul\":26030:26050   */\n      tag_560\n      jump\t// in\n    tag_646:\n        /* \"#utility.yul\":26025:26050   */\n      swap2\n      pop\n        /* \"#utility.yul\":26064:26084   */\n      tag_647\n        /* \"#utility.yul\":26082:26083   */\n      dup4\n        /* \"#utility.yul\":26064:26084   */\n      tag_560\n      jump\t// in\n    tag_647:\n        /* \"#utility.yul\":26059:26084   */\n      swap3\n      pop\n        /* \"#utility.yul\":26252:26253   */\n      dup2\n        /* \"#utility.yul\":26184:26250   */\n      0xffffffffffffffffffffffffffffffffffffffffffffffffffffffffffffffff\n        /* \"#utility.yul\":26180:26254   */\n      div\n        /* \"#utility.yul\":26177:26178   */\n      dup4\n        /* \"#utility.yul\":26174:26255   */\n      gt\n        /* \"#utility.yul\":26169:26170   */\n      dup3\n        /* \"#utility.yul\":26162:26171   */\n      iszero\n        /* \"#utility.yul\":26155:26172   */\n      iszero\n        /* \"#utility.yul\":26151:26256   */\n      and\n        /* \"#utility.yul\":26148:26279   */\n      iszero\n      tag_648\n      jumpi\n        /* \"#utility.yul\":26259:26277   */\n      tag_649\n      tag_638\n      jump\t// in\n    tag_649:\n        /* \"#utility.yul\":26148:26279   */\n    tag_648:\n        /* \"#utility.yul\":26307:26308   */\n      dup3\n        /* \"#utility.yul\":26304:26305   */\n      dup3\n        /* \"#utility.yul\":26300:26309   */\n      mul\n        /* \"#utility.yul\":26289:26309   */\n      swap1\n      pop\n        /* \"#utility.yul\":25967:26315   */\n      swap3\n      swap2\n      pop\n      pop\n      jump\t// out\n        /* \"#utility.yul\":26321:26506   */\n    tag_167:\n        /* \"#utility.yul\":26359:26363   */\n      0x00\n        /* \"#utility.yul\":26379:26397   */\n      tag_651\n        /* \"#utility.yul\":26395:26396   */\n      dup3\n        /* \"#utility.yul\":26379:26397   */\n      tag_564\n      jump\t// in\n    tag_651:\n        /* \"#utility.yul\":26374:26397   */\n      swap2\n      pop\n        /* \"#utility.yul\":26411:26429   */\n      tag_652\n        /* \"#utility.yul\":26427:26428   */\n      dup4\n        /* \"#utility.yul\":26411:26429   */\n      tag_564\n      jump\t// in\n    tag_652:\n        /* \"#utility.yul\":26406:26429   */\n      swap3\n      pop\n        /* \"#utility.yul\":26448:26449   */\n      dup3\n        /* \"#utility.yul\":26445:26446   */\n      dup3\n        /* \"#utility.yul\":26442:26450   */\n      lt\n        /* \"#utility.yul\":26439:26473   */\n      iszero\n      tag_653\n      jumpi\n        /* \"#utility.yul\":26453:26471   */\n      tag_654\n      tag_638\n      jump\t// in\n    tag_654:\n        /* \"#utility.yul\":26439:26473   */\n    tag_653:\n        /* \"#utility.yul\":26498:26499   */\n      dup3\n        /* \"#utility.yul\":26495:26496   */\n      dup3\n        /* \"#utility.yul\":26491:26500   */\n      sub\n        /* \"#utility.yul\":26483:26500   */\n      swap1\n      pop\n        /* \"#utility.yul\":26321:26506   */\n      swap3\n      swap2\n      pop\n      pop\n      jump\t// out\n        /* \"#utility.yul\":26512:26608   */\n    tag_457:\n        /* \"#utility.yul\":26549:26556   */\n      0x00\n        /* \"#utility.yul\":26578:26602   */\n      tag_656\n        /* \"#utility.yul\":26596:26601   */\n      dup3\n        /* \"#utility.yul\":26578:26602   */\n      tag_657\n      jump\t// in\n    tag_656:\n        /* \"#utility.yul\":26567:26602   */\n      swap1\n      pop\n        /* \"#utility.yul\":26512:26608   */\n      swap2\n      swap1\n      pop\n      jump\t// out\n        /* \"#utility.yul\":26614:26718   */\n    tag_453:\n        /* \"#utility.yul\":26659:26666   */\n      0x00\n        /* \"#utility.yul\":26688:26712   */\n      tag_659\n        /* \"#utility.yul\":26706:26711   */\n      dup3\n        /* \"#utility.yul\":26688:26712   */\n      tag_657\n      jump\t// in\n    tag_659:\n        /* \"#utility.yul\":26677:26712   */\n      swap1\n      pop\n        /* \"#utility.yul\":26614:26718   */\n      swap2\n      swap1\n      pop\n      jump\t// out\n        /* \"#utility.yul\":26724:26814   */\n    tag_461:\n        /* \"#utility.yul\":26758:26765   */\n      0x00\n        /* \"#utility.yul\":26801:26806   */\n      dup2\n        /* \"#utility.yul\":26794:26807   */\n      iszero\n        /* \"#utility.yul\":26787:26808   */\n      iszero\n        /* \"#utility.yul\":26776:26808   */\n      swap1\n      pop\n        /* \"#utility.yul\":26724:26814   */\n      swap2\n      swap1\n      pop\n      jump\t// out\n        /* \"#utility.yul\":26820:26897   */\n    tag_465:\n        /* \"#utility.yul\":26857:26864   */\n      0x00\n        /* \"#utility.yul\":26886:26891   */\n      dup2\n        /* \"#utility.yul\":26875:26891   */\n      swap1\n      pop\n        /* \"#utility.yul\":26820:26897   */\n      swap2\n      swap1\n      pop\n      jump\t// out\n        /* \"#utility.yul\":26903:27052   */\n    tag_662:\n        /* \"#utility.yul\":26939:26946   */\n      0x00\n        /* \"#utility.yul\":26979:27045   */\n      0xffffffff00000000000000000000000000000000000000000000000000000000\n        /* \"#utility.yul\":26972:26977   */\n      dup3\n        /* \"#utility.yul\":26968:27046   */\n      and\n        /* \"#utility.yul\":26957:27046   */\n      swap1\n      pop\n        /* \"#utility.yul\":26903:27052   */\n      swap2\n      swap1\n      pop\n      jump\t// out\n        /* \"#utility.yul\":27058:27184   */\n    tag_657:\n        /* \"#utility.yul\":27095:27102   */\n      0x00\n        /* \"#utility.yul\":27135:27177   */\n      0xffffffffffffffffffffffffffffffffffffffff\n        /* \"#utility.yul\":27128:27133   */\n      dup3\n        /* \"#utility.yul\":27124:27178   */\n      and\n        /* \"#utility.yul\":27113:27178   */\n      swap1\n      pop\n        /* \"#utility.yul\":27058:27184   */\n      swap2\n      swap1\n      pop\n      jump\t// out\n        /* \"#utility.yul\":27190:27267   */\n    tag_560:\n        /* \"#utility.yul\":27227:27234   */\n      0x00\n        /* \"#utility.yul\":27256:27261   */\n      dup2\n        /* \"#utility.yul\":27245:27261   */\n      swap1\n      pop\n        /* \"#utility.yul\":27190:27267   */\n      swap2\n      swap1\n      pop\n      jump\t// out\n        /* \"#utility.yul\":27273:27359   */\n    tag_564:\n        /* \"#utility.yul\":27308:27315   */\n      0x00\n        /* \"#utility.yul\":27348:27352   */\n      0xff\n        /* \"#utility.yul\":27341:27346   */\n      dup3\n        /* \"#utility.yul\":27337:27353   */\n      and\n        /* \"#utility.yul\":27326:27353   */\n      swap1\n      pop\n        /* \"#utility.yul\":27273:27359   */\n      swap2\n      swap1\n      pop\n      jump\t// out\n        /* \"#utility.yul\":27365:27499   */\n    tag_449:\n        /* \"#utility.yul\":27423:27432   */\n      0x00\n        /* \"#utility.yul\":27456:27493   */\n      tag_668\n        /* \"#utility.yul\":27487:27492   */\n      dup3\n        /* \"#utility.yul\":27456:27493   */\n      tag_669\n      jump\t// in\n    tag_668:\n        /* \"#utility.yul\":27443:27493   */\n      swap1\n      pop\n        /* \"#utility.yul\":27365:27499   */\n      swap2\n      swap1\n      pop\n      jump\t// out\n        /* \"#utility.yul\":27505:27631   */\n    tag_669:\n        /* \"#utility.yul\":27555:27564   */\n      0x00\n        /* \"#utility.yul\":27588:27625   */\n      tag_671\n        /* \"#utility.yul\":27619:27624   */\n      dup3\n        /* \"#utility.yul\":27588:27625   */\n      tag_672\n      jump\t// in\n    tag_671:\n        /* \"#utility.yul\":27575:27625   */\n      swap1\n      pop\n        /* \"#utility.yul\":27505:27631   */\n      swap2\n      swap1\n      pop\n      jump\t// out\n        /* \"#utility.yul\":27637:27750   */\n    tag_672:\n        /* \"#utility.yul\":27687:27696   */\n      0x00\n        /* \"#utility.yul\":27720:27744   */\n      tag_674\n        /* \"#utility.yul\":27738:27743   */\n      dup3\n        /* \"#utility.yul\":27720:27744   */\n      tag_657\n      jump\t// in\n    tag_674:\n        /* \"#utility.yul\":27707:27744   */\n      swap1\n      pop\n        /* \"#utility.yul\":27637:27750   */\n      swap2\n      swap1\n      pop\n      jump\t// out\n        /* \"#utility.yul\":27756:27910   */\n    tag_349:\n        /* \"#utility.yul\":27840:27846   */\n      dup3\n        /* \"#utility.yul\":27835:27838   */\n      dup2\n        /* \"#utility.yul\":27830:27833   */\n      dup4\n        /* \"#utility.yul\":27817:27847   */\n      calldatacopy\n        /* \"#utility.yul\":27902:27903   */\n      0x00\n        /* \"#utility.yul\":27893:27899   */\n      dup4\n        /* \"#utility.yul\":27888:27891   */\n      dup4\n        /* \"#utility.yul\":27884:27900   */\n      add\n        /* \"#utility.yul\":27877:27904   */\n      mstore\n        /* \"#utility.yul\":27756:27910   */\n      pop\n      pop\n      pop\n      jump\t// out\n        /* \"#utility.yul\":27916:28223   */\n    tag_473:\n        /* \"#utility.yul\":27984:27985   */\n      0x00\n        /* \"#utility.yul\":27994:28107   */\n    tag_677:\n        /* \"#utility.yul\":28008:28014   */\n      dup4\n        /* \"#utility.yul\":28005:28006   */\n      dup2\n        /* \"#utility.yul\":28002:28015   */\n      lt\n        /* \"#utility.yul\":27994:28107   */\n      iszero\n      tag_679\n      jumpi\n        /* \"#utility.yul\":28093:28094   */\n      dup1\n        /* \"#utility.yul\":28088:28091   */\n      dup3\n        /* \"#utility.yul\":28084:28095   */\n      add\n        /* \"#utility.yul\":28078:28096   */\n      mload\n        /* \"#utility.yul\":28074:28075   */\n      dup2\n        /* \"#utility.yul\":28069:28072   */\n      dup5\n        /* \"#utility.yul\":28065:28076   */\n      add\n        /* \"#utility.yul\":28058:28097   */\n      mstore\n        /* \"#utility.yul\":28030:28032   */\n      0x20\n        /* \"#utility.yul\":28027:28028   */\n      dup2\n        /* \"#utility.yul\":28023:28033   */\n      add\n        /* \"#utility.yul\":28018:28033   */\n      swap1\n      pop\n        /* \"#utility.yul\":27994:28107   */\n      jump(tag_677)\n    tag_679:\n        /* \"#utility.yul\":28125:28131   */\n      dup4\n        /* \"#utility.yul\":28122:28123   */\n      dup2\n        /* \"#utility.yul\":28119:28132   */\n      gt\n        /* \"#utility.yul\":28116:28217   */\n      iszero\n      tag_680\n      jumpi\n        /* \"#utility.yul\":28205:28206   */\n      0x00\n        /* \"#utility.yul\":28196:28202   */\n      dup5\n        /* \"#utility.yul\":28191:28194   */\n      dup5\n        /* \"#utility.yul\":28187:28203   */\n      add\n        /* \"#utility.yul\":28180:28207   */\n      mstore\n        /* \"#utility.yul\":28116:28217   */\n    tag_680:\n        /* \"#utility.yul\":27965:28223   */\n      pop\n        /* \"#utility.yul\":27916:28223   */\n      pop\n      pop\n      pop\n      jump\t// out\n        /* \"#utility.yul\":28229:28400   */\n    tag_324:\n        /* \"#utility.yul\":28268:28271   */\n      0x00\n        /* \"#utility.yul\":28291:28315   */\n      tag_682\n        /* \"#utility.yul\":28309:28314   */\n      dup3\n        /* \"#utility.yul\":28291:28315   */\n      tag_560\n      jump\t// in\n    tag_682:\n        /* \"#utility.yul\":28282:28315   */\n      swap2\n      pop\n        /* \"#utility.yul\":28337:28341   */\n      0x00\n        /* \"#utility.yul\":28330:28335   */\n      dup3\n        /* \"#utility.yul\":28327:28342   */\n      eq\n        /* \"#utility.yul\":28324:28365   */\n      iszero\n      tag_683\n      jumpi\n        /* \"#utility.yul\":28345:28363   */\n      tag_684\n      tag_638\n      jump\t// in\n    tag_684:\n        /* \"#utility.yul\":28324:28365   */\n    tag_683:\n        /* \"#utility.yul\":28392:28393   */\n      0x01\n        /* \"#utility.yul\":28385:28390   */\n      dup3\n        /* \"#utility.yul\":28381:28394   */\n      sub\n        /* \"#utility.yul\":28374:28394   */\n      swap1\n      pop\n        /* \"#utility.yul\":28229:28400   */\n      swap2\n      swap1\n      pop\n      jump\t// out\n        /* \"#utility.yul\":28406:28726   */\n    tag_219:\n        /* \"#utility.yul\":28450:28456   */\n      0x00\n        /* \"#utility.yul\":28487:28488   */\n      0x02\n        /* \"#utility.yul\":28481:28485   */\n      dup3\n        /* \"#utility.yul\":28477:28489   */\n      div\n        /* \"#utility.yul\":28467:28489   */\n      swap1\n      pop\n        /* \"#utility.yul\":28534:28535   */\n      0x01\n        /* \"#utility.yul\":28528:28532   */\n      dup3\n        /* \"#utility.yul\":28524:28536   */\n      and\n        /* \"#utility.yul\":28555:28573   */\n      dup1\n        /* \"#utility.yul\":28545:28626   */\n      tag_686\n      jumpi\n        /* \"#utility.yul\":28611:28615   */\n      0x7f\n        /* \"#utility.yul\":28603:28609   */\n      dup3\n        /* \"#utility.yul\":28599:28616   */\n      and\n        /* \"#utility.yul\":28589:28616   */\n      swap2\n      pop\n        /* \"#utility.yul\":28545:28626   */\n    tag_686:\n        /* \"#utility.yul\":28673:28675   */\n      0x20\n        /* \"#utility.yul\":28665:28671   */\n      dup3\n        /* \"#utility.yul\":28662:28676   */\n      lt\n        /* \"#utility.yul\":28642:28660   */\n      dup2\n        /* \"#utility.yul\":28639:28677   */\n      eq\n        /* \"#utility.yul\":28636:28720   */\n      iszero\n      tag_687\n      jumpi\n        /* \"#utility.yul\":28692:28710   */\n      tag_688\n      tag_689\n      jump\t// in\n    tag_688:\n        /* \"#utility.yul\":28636:28720   */\n    tag_687:\n        /* \"#utility.yul\":28457:28726   */\n      pop\n        /* \"#utility.yul\":28406:28726   */\n      swap2\n      swap1\n      pop\n      jump\t// out\n        /* \"#utility.yul\":28732:29013   */\n    tag_624:\n        /* \"#utility.yul\":28815:28842   */\n      tag_691\n        /* \"#utility.yul\":28837:28841   */\n      dup3\n        /* \"#utility.yul\":28815:28842   */\n      tag_475\n      jump\t// in\n    tag_691:\n        /* \"#utility.yul\":28807:28813   */\n      dup2\n        /* \"#utility.yul\":28803:28843   */\n      add\n        /* \"#utility.yul\":28945:28951   */\n      dup2\n        /* \"#utility.yul\":28933:28943   */\n      dup2\n        /* \"#utility.yul\":28930:28952   */\n      lt\n        /* \"#utility.yul\":28909:28927   */\n      0xffffffffffffffff\n        /* \"#utility.yul\":28897:28907   */\n      dup3\n        /* \"#utility.yul\":28894:28928   */\n      gt\n        /* \"#utility.yul\":28891:28953   */\n      or\n        /* \"#utility.yul\":28888:28976   */\n      iszero\n      tag_692\n      jumpi\n        /* \"#utility.yul\":28956:28974   */\n      tag_693\n      tag_308\n      jump\t// in\n    tag_693:\n        /* \"#utility.yul\":28888:28976   */\n    tag_692:\n        /* \"#utility.yul\":28996:29006   */\n      dup1\n        /* \"#utility.yul\":28992:28994   */\n      0x40\n        /* \"#utility.yul\":28985:29007   */\n      mstore\n        /* \"#utility.yul\":28775:29013   */\n      pop\n        /* \"#utility.yul\":28732:29013   */\n      pop\n      pop\n      jump\t// out\n        /* \"#utility.yul\":29019:29252   */\n    tag_200:\n        /* \"#utility.yul\":29058:29061   */\n      0x00\n        /* \"#utility.yul\":29081:29105   */\n      tag_695\n        /* \"#utility.yul\":29099:29104   */\n      dup3\n        /* \"#utility.yul\":29081:29105   */\n      tag_560\n      jump\t// in\n    tag_695:\n        /* \"#utility.yul\":29072:29105   */\n      swap2\n      pop\n        /* \"#utility.yul\":29127:29193   */\n      0xffffffffffffffffffffffffffffffffffffffffffffffffffffffffffffffff\n        /* \"#utility.yul\":29120:29125   */\n      dup3\n        /* \"#utility.yul\":29117:29194   */\n      eq\n        /* \"#utility.yul\":29114:29217   */\n      iszero\n      tag_696\n      jumpi\n        /* \"#utility.yul\":29197:29215   */\n      tag_697\n      tag_638\n      jump\t// in\n    tag_697:\n        /* \"#utility.yul\":29114:29217   */\n    tag_696:\n        /* \"#utility.yul\":29244:29245   */\n      0x01\n        /* \"#utility.yul\":29237:29242   */\n      dup3\n        /* \"#utility.yul\":29233:29246   */\n      add\n        /* \"#utility.yul\":29226:29246   */\n      swap1\n      pop\n        /* \"#utility.yul\":29019:29252   */\n      swap2\n      swap1\n      pop\n      jump\t// out\n        /* \"#utility.yul\":29258:29438   */\n    tag_638:\n        /* \"#utility.yul\":29306:29383   */\n      0x4e487b7100000000000000000000000000000000000000000000000000000000\n        /* \"#utility.yul\":29303:29304   */\n      0x00\n        /* \"#utility.yul\":29296:29384   */\n      mstore\n        /* \"#utility.yul\":29403:29407   */\n      0x11\n        /* \"#utility.yul\":29400:29401   */\n      0x04\n        /* \"#utility.yul\":29393:29408   */\n      mstore\n        /* \"#utility.yul\":29427:29431   */\n      0x24\n        /* \"#utility.yul\":29424:29425   */\n      0x00\n        /* \"#utility.yul\":29417:29432   */\n      revert\n        /* \"#utility.yul\":29444:29624   */\n    tag_644:\n        /* \"#utility.yul\":29492:29569   */\n      0x4e487b7100000000000000000000000000000000000000000000000000000000\n        /* \"#utility.yul\":29489:29490   */\n      0x00\n        /* \"#utility.yul\":29482:29570   */\n      mstore\n        /* \"#utility.yul\":29589:29593   */\n      0x12\n        /* \"#utility.yul\":29586:29587   */\n      0x04\n        /* \"#utility.yul\":29579:29594   */\n      mstore\n        /* \"#utility.yul\":29613:29617   */\n      0x24\n        /* \"#utility.yul\":29610:29611   */\n      0x00\n        /* \"#utility.yul\":29603:29618   */\n      revert\n        /* \"#utility.yul\":29630:29810   */\n    tag_689:\n        /* \"#utility.yul\":29678:29755   */\n      0x4e487b7100000000000000000000000000000000000000000000000000000000\n        /* \"#utility.yul\":29675:29676   */\n      0x00\n        /* \"#utility.yul\":29668:29756   */\n      mstore\n        /* \"#utility.yul\":29775:29779   */\n      0x22\n        /* \"#utility.yul\":29772:29773   */\n      0x04\n        /* \"#utility.yul\":29765:29780   */\n      mstore\n        /* \"#utility.yul\":29799:29803   */\n      0x24\n        /* \"#utility.yul\":29796:29797   */\n      0x00\n        /* \"#utility.yul\":29789:29804   */\n      revert\n        /* \"#utility.yul\":29816:29996   */\n    tag_207:\n        /* \"#utility.yul\":29864:29941   */\n      0x4e487b7100000000000000000000000000000000000000000000000000000000\n        /* \"#utility.yul\":29861:29862   */\n      0x00\n        /* \"#utility.yul\":29854:29942   */\n      mstore\n        /* \"#utility.yul\":29961:29965   */\n      0x32\n        /* \"#utility.yul\":29958:29959   */\n      0x04\n        /* \"#utility.yul\":29951:29966   */\n      mstore\n        /* \"#utility.yul\":29985:29989   */\n      0x24\n        /* \"#utility.yul\":29982:29983   */\n      0x00\n        /* \"#utility.yul\":29975:29990   */\n      revert\n        /* \"#utility.yul\":30002:30182   */\n    tag_308:\n        /* \"#utility.yul\":30050:30127   */\n      0x4e487b7100000000000000000000000000000000000000000000000000000000\n        /* \"#utility.yul\":30047:30048   */\n      0x00\n        /* \"#utility.yul\":30040:30128   */\n      mstore\n        /* \"#utility.yul\":30147:30151   */\n      0x41\n        /* \"#utility.yul\":30144:30145   */\n      0x04\n        /* \"#utility.yul\":30137:30152   */\n      mstore\n        /* \"#utility.yul\":30171:30175   */\n      0x24\n        /* \"#utility.yul\":30168:30169   */\n      0x00\n        /* \"#utility.yul\":30161:30176   */\n      revert\n        /* \"#utility.yul\":30188:30305   */\n    tag_374:\n        /* \"#utility.yul\":30297:30298   */\n      0x00\n        /* \"#utility.yul\":30294:30295   */\n      dup1\n        /* \"#utility.yul\":30287:30299   */\n      revert\n        /* \"#utility.yul\":30311:30428   */\n    tag_347:\n        /* \"#utility.yul\":30420:30421   */\n      0x00\n        /* \"#utility.yul\":30417:30418   */\n      dup1\n        /* \"#utility.yul\":30410:30422   */\n      revert\n        /* \"#utility.yul\":30434:30551   */\n    tag_403:\n        /* \"#utility.yul\":30543:30544   */\n      0x00\n        /* \"#utility.yul\":30540:30541   */\n      dup1\n        /* \"#utility.yul\":30533:30545   */\n      revert\n        /* \"#utility.yul\":30557:30674   */\n    tag_387:\n        /* \"#utility.yul\":30666:30667   */\n      0x00\n        /* \"#utility.yul\":30663:30664   */\n      dup1\n        /* \"#utility.yul\":30656:30668   */\n      revert\n        /* \"#utility.yul\":30680:30782   */\n    tag_475:\n        /* \"#utility.yul\":30721:30727   */\n      0x00\n        /* \"#utility.yul\":30772:30774   */\n      0x1f\n        /* \"#utility.yul\":30768:30775   */\n      not\n        /* \"#utility.yul\":30763:30765   */\n      0x1f\n        /* \"#utility.yul\":30756:30761   */\n      dup4\n        /* \"#utility.yul\":30752:30766   */\n      add\n        /* \"#utility.yul\":30748:30776   */\n      and\n        /* \"#utility.yul\":30738:30776   */\n      swap1\n      pop\n        /* \"#utility.yul\":30680:30782   */\n      swap2\n      swap1\n      pop\n      jump\t// out\n        /* \"#utility.yul\":30788:30969   */\n    tag_486:\n        /* \"#utility.yul\":30928:30961   */\n      0x5175616e74697479206d7573742062652067726561746572207468616e203000\n        /* \"#utility.yul\":30924:30925   */\n      0x00\n        /* \"#utility.yul\":30916:30922   */\n      dup3\n        /* \"#utility.yul\":30912:30926   */\n      add\n        /* \"#utility.yul\":30905:30962   */\n      mstore\n        /* \"#utility.yul\":30788:30969   */\n      pop\n      jump\t// out\n        /* \"#utility.yul\":30975:31223   */\n    tag_491:\n        /* \"#utility.yul\":31115:31149   */\n      0x5175616e74697479206d757374206265206c657373207468616e206f72206571\n        /* \"#utility.yul\":31111:31112   */\n      0x00\n        /* \"#utility.yul\":31103:31109   */\n      dup3\n        /* \"#utility.yul\":31099:31113   */\n      add\n        /* \"#utility.yul\":31092:31150   */\n      mstore\n        /* \"#utility.yul\":31184:31215   */\n      0x75616c20746f2074686520617661696c61626c65207175616e74697479000000\n        /* \"#utility.yul\":31179:31181   */\n      0x20\n        /* \"#utility.yul\":31171:31177   */\n      dup3\n        /* \"#utility.yul\":31167:31182   */\n      add\n        /* \"#utility.yul\":31160:31216   */\n      mstore\n        /* \"#utility.yul\":30975:31223   */\n      pop\n      jump\t// out\n        /* \"#utility.yul\":31229:31411   */\n    tag_496:\n        /* \"#utility.yul\":31369:31403   */\n      0x537472696e67733a20686578206c656e67746820696e73756666696369656e74\n        /* \"#utility.yul\":31365:31366   */\n      0x00\n        /* \"#utility.yul\":31357:31363   */\n      dup3\n        /* \"#utility.yul\":31353:31367   */\n      add\n        /* \"#utility.yul\":31346:31404   */\n      mstore\n        /* \"#utility.yul\":31229:31411   */\n      pop\n      jump\t// out\n        /* \"#utility.yul\":31417:31587   */\n    tag_501:\n        /* \"#utility.yul\":31557:31579   */\n      0x507269636520646f6573206e6f74206d61746368000000000000000000000000\n        /* \"#utility.yul\":31553:31554   */\n      0x00\n        /* \"#utility.yul\":31545:31551   */\n      dup3\n        /* \"#utility.yul\":31541:31555   */\n      add\n        /* \"#utility.yul\":31534:31580   */\n      mstore\n        /* \"#utility.yul\":31417:31587   */\n      pop\n      jump\t// out\n        /* \"#utility.yul\":31593:31824   */\n    tag_506:\n        /* \"#utility.yul\":31733:31767   */\n      0x4f6e6c792070726f647563742073656c6c65722063616e206578656375746520\n        /* \"#utility.yul\":31729:31730   */\n      0x00\n        /* \"#utility.yul\":31721:31727   */\n      dup3\n        /* \"#utility.yul\":31717:31731   */\n      add\n        /* \"#utility.yul\":31710:31768   */\n      mstore\n        /* \"#utility.yul\":31802:31816   */\n      0x7468697320616374696f6e2e0000000000000000000000000000000000000000\n        /* \"#utility.yul\":31797:31799   */\n      0x20\n        /* \"#utility.yul\":31789:31795   */\n      dup3\n        /* \"#utility.yul\":31785:31800   */\n      add\n        /* \"#utility.yul\":31778:31817   */\n      mstore\n        /* \"#utility.yul\":31593:31824   */\n      pop\n      jump\t// out\n        /* \"#utility.yul\":31830:32005   */\n    tag_511:\n        /* \"#utility.yul\":31970:31997   */\n      0x4d61726b6574206974656d206973206e6f742061637469766500000000000000\n        /* \"#utility.yul\":31966:31967   */\n      0x00\n        /* \"#utility.yul\":31958:31964   */\n      dup3\n        /* \"#utility.yul\":31954:31968   */\n      add\n        /* \"#utility.yul\":31947:31998   */\n      mstore\n        /* \"#utility.yul\":31830:32005   */\n      pop\n      jump\t// out\n        /* \"#utility.yul\":32011:32231   */\n    tag_516:\n        /* \"#utility.yul\":32151:32185   */\n      0x596f752063616e6e6f7420766f746520666f7220746869732070726f64756374\n        /* \"#utility.yul\":32147:32148   */\n      0x00\n        /* \"#utility.yul\":32139:32145   */\n      dup3\n        /* \"#utility.yul\":32135:32149   */\n      add\n        /* \"#utility.yul\":32128:32186   */\n      mstore\n        /* \"#utility.yul\":32220:32223   */\n      0x2e00000000000000000000000000000000000000000000000000000000000000\n        /* \"#utility.yul\":32215:32217   */\n      0x20\n        /* \"#utility.yul\":32207:32213   */\n      dup3\n        /* \"#utility.yul\":32203:32218   */\n      add\n        /* \"#utility.yul\":32196:32224   */\n      mstore\n        /* \"#utility.yul\":32011:32231   */\n      pop\n      jump\t// out\n        /* \"#utility.yul\":32237:32464   */\n    tag_521:\n        /* \"#utility.yul\":32377:32411   */\n      0x5374617273206d7573742062652067726561746572207468616e206f72206571\n        /* \"#utility.yul\":32373:32374   */\n      0x00\n        /* \"#utility.yul\":32365:32371   */\n      dup3\n        /* \"#utility.yul\":32361:32375   */\n      add\n        /* \"#utility.yul\":32354:32412   */\n      mstore\n        /* \"#utility.yul\":32446:32456   */\n      0x75616c20746f2031000000000000000000000000000000000000000000000000\n        /* \"#utility.yul\":32441:32443   */\n      0x20\n        /* \"#utility.yul\":32433:32439   */\n      dup3\n        /* \"#utility.yul\":32429:32444   */\n      add\n        /* \"#utility.yul\":32422:32457   */\n      mstore\n        /* \"#utility.yul\":32237:32464   */\n      pop\n      jump\t// out\n        /* \"#utility.yul\":32470:32697   */\n    tag_526:\n        /* \"#utility.yul\":32610:32644   */\n      0x4f6e6c79207468652073656c6c65722063616e206372656174652061206d6172\n        /* \"#utility.yul\":32606:32607   */\n      0x00\n        /* \"#utility.yul\":32598:32604   */\n      dup3\n        /* \"#utility.yul\":32594:32608   */\n      add\n        /* \"#utility.yul\":32587:32645   */\n      mstore\n        /* \"#utility.yul\":32679:32689   */\n      0x6b6574206974656d000000000000000000000000000000000000000000000000\n        /* \"#utility.yul\":32674:32676   */\n      0x20\n        /* \"#utility.yul\":32666:32672   */\n      dup3\n        /* \"#utility.yul\":32662:32677   */\n      add\n        /* \"#utility.yul\":32655:32690   */\n      mstore\n        /* \"#utility.yul\":32470:32697   */\n      pop\n      jump\t// out\n        /* \"#utility.yul\":32703:32875   */\n    tag_531:\n        /* \"#utility.yul\":32843:32867   */\n      0x5468652073656c6c65722063616e6e6f7420766f746500000000000000000000\n        /* \"#utility.yul\":32839:32840   */\n      0x00\n        /* \"#utility.yul\":32831:32837   */\n      dup3\n        /* \"#utility.yul\":32827:32841   */\n      add\n        /* \"#utility.yul\":32820:32868   */\n      mstore\n        /* \"#utility.yul\":32703:32875   */\n      pop\n      jump\t// out\n        /* \"#utility.yul\":32881:33105   */\n    tag_536:\n        /* \"#utility.yul\":33021:33055   */\n      0x5374617273206d757374206265206c657373207468616e206f7220657175616c\n        /* \"#utility.yul\":33017:33018   */\n      0x00\n        /* \"#utility.yul\":33009:33015   */\n      dup3\n        /* \"#utility.yul\":33005:33019   */\n      add\n        /* \"#utility.yul\":32998:33056   */\n      mstore\n        /* \"#utility.yul\":33090:33097   */\n      0x20746f2035000000000000000000000000000000000000000000000000000000\n        /* \"#utility.yul\":33085:33087   */\n      0x20\n        /* \"#utility.yul\":33077:33083   */\n      dup3\n        /* \"#utility.yul\":33073:33088   */\n      add\n        /* \"#utility.yul\":33066:33098   */\n      mstore\n        /* \"#utility.yul\":32881:33105   */\n      pop\n      jump\t// out\n        /* \"#utility.yul\":33111:33284   */\n    tag_541:\n        /* \"#utility.yul\":33251:33276   */\n      0x416363657373436f6e74726f6c3a206163636f756e7420000000000000000000\n        /* \"#utility.yul\":33247:33248   */\n      0x00\n        /* \"#utility.yul\":33239:33245   */\n      dup3\n        /* \"#utility.yul\":33235:33249   */\n      add\n        /* \"#utility.yul\":33228:33277   */\n      mstore\n        /* \"#utility.yul\":33111:33284   */\n      pop\n      jump\t// out\n        /* \"#utility.yul\":33290:33468   */\n    tag_546:\n        /* \"#utility.yul\":33430:33460   */\n      0x5072696365206d7573742062652067726561746572207468616e203000000000\n        /* \"#utility.yul\":33426:33427   */\n      0x00\n        /* \"#utility.yul\":33418:33424   */\n      dup3\n        /* \"#utility.yul\":33414:33428   */\n      add\n        /* \"#utility.yul\":33407:33461   */\n      mstore\n        /* \"#utility.yul\":33290:33468   */\n      pop\n      jump\t// out\n        /* \"#utility.yul\":33474:33641   */\n    tag_551:\n        /* \"#utility.yul\":33614:33633   */\n      0x206973206d697373696e6720726f6c6520000000000000000000000000000000\n        /* \"#utility.yul\":33610:33611   */\n      0x00\n        /* \"#utility.yul\":33602:33608   */\n      dup3\n        /* \"#utility.yul\":33598:33612   */\n      add\n        /* \"#utility.yul\":33591:33634   */\n      mstore\n        /* \"#utility.yul\":33474:33641   */\n      pop\n      jump\t// out\n        /* \"#utility.yul\":33647:33881   */\n    tag_556:\n        /* \"#utility.yul\":33787:33821   */\n      0x416363657373436f6e74726f6c3a2063616e206f6e6c792072656e6f756e6365\n        /* \"#utility.yul\":33783:33784   */\n      0x00\n        /* \"#utility.yul\":33775:33781   */\n      dup3\n        /* \"#utility.yul\":33771:33785   */\n      add\n        /* \"#utility.yul\":33764:33822   */\n      mstore\n        /* \"#utility.yul\":33856:33873   */\n      0x20726f6c657320666f722073656c660000000000000000000000000000000000\n        /* \"#utility.yul\":33851:33853   */\n      0x20\n        /* \"#utility.yul\":33843:33849   */\n      dup3\n        /* \"#utility.yul\":33839:33854   */\n      add\n        /* \"#utility.yul\":33832:33874   */\n      mstore\n        /* \"#utility.yul\":33647:33881   */\n      pop\n      jump\t// out\n        /* \"#utility.yul\":33887:34009   */\n    tag_353:\n        /* \"#utility.yul\":33960:33984   */\n      tag_724\n        /* \"#utility.yul\":33978:33983   */\n      dup2\n        /* \"#utility.yul\":33960:33984   */\n      tag_457\n      jump\t// in\n    tag_724:\n        /* \"#utility.yul\":33953:33958   */\n      dup2\n        /* \"#utility.yul\":33950:33985   */\n      eq\n        /* \"#utility.yul\":33940:34003   */\n      tag_725\n      jumpi\n        /* \"#utility.yul\":33999:34000   */\n      0x00\n        /* \"#utility.yul\":33996:33997   */\n      dup1\n        /* \"#utility.yul\":33989:34001   */\n      revert\n        /* \"#utility.yul\":33940:34003   */\n    tag_725:\n        /* \"#utility.yul\":33887:34009   */\n      pop\n      jump\t// out\n        /* \"#utility.yul\":34015:34153   */\n    tag_357:\n        /* \"#utility.yul\":34096:34128   */\n      tag_727\n        /* \"#utility.yul\":34122:34127   */\n      dup2\n        /* \"#utility.yul\":34096:34128   */\n      tag_453\n      jump\t// in\n    tag_727:\n        /* \"#utility.yul\":34089:34094   */\n      dup2\n        /* \"#utility.yul\":34086:34129   */\n      eq\n        /* \"#utility.yul\":34076:34147   */\n      tag_728\n      jumpi\n        /* \"#utility.yul\":34143:34144   */\n      0x00\n        /* \"#utility.yul\":34140:34141   */\n      dup1\n        /* \"#utility.yul\":34133:34145   */\n      revert\n        /* \"#utility.yul\":34076:34147   */\n    tag_728:\n        /* \"#utility.yul\":34015:34153   */\n      pop\n      jump\t// out\n        /* \"#utility.yul\":34159:34275   */\n    tag_361:\n        /* \"#utility.yul\":34229:34250   */\n      tag_730\n        /* \"#utility.yul\":34244:34249   */\n      dup2\n        /* \"#utility.yul\":34229:34250   */\n      tag_461\n      jump\t// in\n    tag_730:\n        /* \"#utility.yul\":34222:34227   */\n      dup2\n        /* \"#utility.yul\":34219:34251   */\n      eq\n        /* \"#utility.yul\":34209:34269   */\n      tag_731\n      jumpi\n        /* \"#utility.yul\":34265:34266   */\n      0x00\n        /* \"#utility.yul\":34262:34263   */\n      dup1\n        /* \"#utility.yul\":34255:34267   */\n      revert\n        /* \"#utility.yul\":34209:34269   */\n    tag_731:\n        /* \"#utility.yul\":34159:34275   */\n      pop\n      jump\t// out\n        /* \"#utility.yul\":34281:34403   */\n    tag_365:\n        /* \"#utility.yul\":34354:34378   */\n      tag_733\n        /* \"#utility.yul\":34372:34377   */\n      dup2\n        /* \"#utility.yul\":34354:34378   */\n      tag_465\n      jump\t// in\n    tag_733:\n        /* \"#utility.yul\":34347:34352   */\n      dup2\n        /* \"#utility.yul\":34344:34379   */\n      eq\n        /* \"#utility.yul\":34334:34397   */\n      tag_734\n      jumpi\n        /* \"#utility.yul\":34393:34394   */\n      0x00\n        /* \"#utility.yul\":34390:34391   */\n      dup1\n        /* \"#utility.yul\":34383:34395   */\n      revert\n        /* \"#utility.yul\":34334:34397   */\n    tag_734:\n        /* \"#utility.yul\":34281:34403   */\n      pop\n      jump\t// out\n        /* \"#utility.yul\":34409:34529   */\n    tag_369:\n        /* \"#utility.yul\":34481:34504   */\n      tag_736\n        /* \"#utility.yul\":34498:34503   */\n      dup2\n        /* \"#utility.yul\":34481:34504   */\n      tag_662\n      jump\t// in\n    tag_736:\n        /* \"#utility.yul\":34474:34479   */\n      dup2\n        /* \"#utility.yul\":34471:34505   */\n      eq\n        /* \"#utility.yul\":34461:34523   */\n      tag_737\n      jumpi\n        /* \"#utility.yul\":34519:34520   */\n      0x00\n        /* \"#utility.yul\":34516:34517   */\n      dup1\n        /* \"#utility.yul\":34509:34521   */\n      revert\n        /* \"#utility.yul\":34461:34523   */\n    tag_737:\n        /* \"#utility.yul\":34409:34529   */\n      pop\n      jump\t// out\n        /* \"#utility.yul\":34535:34657   */\n    tag_379:\n        /* \"#utility.yul\":34608:34632   */\n      tag_739\n        /* \"#utility.yul\":34626:34631   */\n      dup2\n        /* \"#utility.yul\":34608:34632   */\n      tag_560\n      jump\t// in\n    tag_739:\n        /* \"#utility.yul\":34601:34606   */\n      dup2\n        /* \"#utility.yul\":34598:34633   */\n      eq\n        /* \"#utility.yul\":34588:34651   */\n      tag_740\n      jumpi\n        /* \"#utility.yul\":34647:34648   */\n      0x00\n        /* \"#utility.yul\":34644:34645   */\n      dup1\n        /* \"#utility.yul\":34637:34649   */\n      revert\n        /* \"#utility.yul\":34588:34651   */\n    tag_740:\n        /* \"#utility.yul\":34535:34657   */\n      pop\n      jump\t// out\n        /* \"#utility.yul\":34663:34781   */\n    tag_383:\n        /* \"#utility.yul\":34734:34756   */\n      tag_742\n        /* \"#utility.yul\":34750:34755   */\n      dup2\n        /* \"#utility.yul\":34734:34756   */\n      tag_564\n      jump\t// in\n    tag_742:\n        /* \"#utility.yul\":34727:34732   */\n      dup2\n        /* \"#utility.yul\":34724:34757   */\n      eq\n        /* \"#utility.yul\":34714:34775   */\n      tag_743\n      jumpi\n        /* \"#utility.yul\":34771:34772   */\n      0x00\n        /* \"#utility.yul\":34768:34769   */\n      dup1\n        /* \"#utility.yul\":34761:34773   */\n      revert\n        /* \"#utility.yul\":34714:34775   */\n    tag_743:\n        /* \"#utility.yul\":34663:34781   */\n      pop\n      jump\t// out\n\n    auxdata: 0xa2646970667358221220462752c3c5f10bb5103ed0de9a935ff8f6ab9ba6680b73b79abb11de9ec72da164736f6c63430008070033\n}\n",
				"bytecode": {
					"linkReferences": {},
					"object": "608060405260006001553480156200001657600080fd5b50620000497f1f9ca85e780b3b3cfbe1334ca9dd68802db7860f692bd163c796bb76d464edc0336200004f60201b60201c565b620001b2565b6200006182826200014060201b60201c565b6200013c57600160008084815260200190815260200160002060000160008373ffffffffffffffffffffffffffffffffffffffff1673ffffffffffffffffffffffffffffffffffffffff16815260200190815260200160002060006101000a81548160ff021916908315150217905550620000e1620001aa60201b60201c565b73ffffffffffffffffffffffffffffffffffffffff168173ffffffffffffffffffffffffffffffffffffffff16837f2f8788117e7eff1d82e926ec794901d17c78024a50270940304540a733656f0d60405160405180910390a45b5050565b600080600084815260200190815260200160002060000160008373ffffffffffffffffffffffffffffffffffffffff1673ffffffffffffffffffffffffffffffffffffffff16815260200190815260200160002060009054906101000a900460ff16905092915050565b600033905090565b6132c880620001c26000396000f3fe60806040526004361061012a5760003560e01c80638f28afee116100ab578063bf9c65541161006f578063bf9c6554146103f7578063c7be7a4914610420578063d547741f14610460578063eca1e6a014610489578063f0d2d06d146104b2578063fec4d15d146104db5761012a565b80638f28afee1461031257806391d148541461033b578063a217fddf14610378578063ae13a317146103a3578063b491efa0146103cc5761012a565b806336568abe116100f257806336568abe146102175780634d4c87ea146102405780636a868974146102695780637735904f1461029457806388d9e84c146102d15761012a565b806301ffc9a71461012f5780630c3774fc1461016c5780631dfef0eb14610195578063248a9ca3146101b15780632f2ff15d146101ee575b600080fd5b34801561013b57600080fd5b5061015660048036038101906101519190612128565b610518565b60405161016391906126ee565b60405180910390f35b34801561017857600080fd5b50610193600480360381019061018e9190612394565b610592565b005b6101af60048036038101906101aa9190612394565b61077b565b005b3480156101bd57600080fd5b506101d860048036038101906101d391906120bb565b610ac4565b6040516101e59190612709565b60405180910390f35b3480156101fa57600080fd5b50610215600480360381019061021091906120e8565b610ae3565b005b34801561022357600080fd5b5061023e600480360381019061023991906120e8565b610b0c565b005b34801561024c57600080fd5b5061026760048036038101906102629190612155565b610b8f565b005b34801561027557600080fd5b5061027e610de5565b60405161028b9190612993565b60405180910390f35b3480156102a057600080fd5b506102bb60048036038101906102b6919061224b565b610deb565b6040516102c89190612993565b60405180910390f35b3480156102dd57600080fd5b506102f860048036038101906102f3919061224b565b610f83565b604051610309959493929190612792565b60405180910390f35b34801561031e57600080fd5b50610339600480360381019061033491906122f8565b611247565b005b34801561034757600080fd5b50610362600480360381019061035d91906120e8565b611337565b60405161036f91906126ee565b60405180910390f35b34801561038457600080fd5b5061038d6113a1565b60405161039a9190612709565b60405180910390f35b3480156103af57600080fd5b506103ca60048036038101906103c59190612354565b6113a8565b005b3480156103d857600080fd5b506103e1611488565b6040516103ee9190612709565b60405180910390f35b34801561040357600080fd5b5061041e600480360381019061041991906122b8565b6114ac565b005b34801561042c57600080fd5b506104476004803603810190610442919061224b565b61159f565b6040516104579493929190612746565b60405180910390f35b34801561046c57600080fd5b50610487600480360381019061048291906120e8565b6116c9565b005b34801561049557600080fd5b506104b060048036038101906104ab9190612394565b6116f2565b005b3480156104be57600080fd5b506104d960048036038101906104d491906122f8565b6117e6565b005b3480156104e757600080fd5b5061050260048036038101906104fd9190612278565b6118d6565b60405161050f91906126ee565b60405180910390f35b60007f7965db0b000000000000000000000000000000000000000000000000000000007bffffffffffffffffffffffffffffffffffffffffffffffffffffffff1916827bffffffffffffffffffffffffffffffffffffffffffffffffffffffff1916148061058b575061058a82611981565b5b9050919050565b6003600083815260200190815260200160002060040160009054906101000a900473ffffffffffffffffffffffffffffffffffffffff1673ffffffffffffffffffffffffffffffffffffffff163373ffffffffffffffffffffffffffffffffffffffff161415610637576040517f08c379a000000000000000000000000000000000000000000000000000000000815260040161062e90612913565b60405180910390fd5b60058160ff16111561067e576040517f08c379a000000000000000000000000000000000000000000000000000000000815260040161067590612933565b60405180910390fd5b60018160ff1610156106c5576040517f08c379a00000000000000000000000000000000000000000000000000000000081526004016106bc906128d3565b60405180910390fd5b6106cf82336118d6565b61070e576040517f08c379a0000000000000000000000000000000000000000000000000000000008152600401610705906128b3565b60405180910390fd5b80600460003373ffffffffffffffffffffffffffffffffffffffff1673ffffffffffffffffffffffffffffffffffffffff168152602001908152602001600020600084815260200190815260200160002060006101000a81548160ff021916908360ff1602179055505050565b60008160ff1660036000858152602001908152602001600020600301546107a29190612af7565b90503481146107e6576040517f08c379a00000000000000000000000000000000000000000000000000000000081526004016107dd90612853565b60405180910390fd5b60008260ff161161082c576040517f08c379a0000000000000000000000000000000000000000000000000000000008152600401610823906127f3565b60405180910390fd5b6003600084815260200190815260200160002060060160009054906101000a900460ff1660ff168260ff161115610898576040517f08c379a000000000000000000000000000000000000000000000000000000000815260040161088f90612813565b60405180910390fd5b6003600084815260200190815260200160002060090160009054906101000a900460ff166108fb576040517f08c379a00000000000000000000000000000000000000000000000000000000081526004016108f290612893565b60405180910390fd5b6003600084815260200190815260200160002060040160009054906101000a900473ffffffffffffffffffffffffffffffffffffffff1673ffffffffffffffffffffffffffffffffffffffff166108fc349081150290604051600060405180830381858888f19350505050158015610977573d6000803e3d6000fd5b50816003600085815260200190815260200160002060060160008282829054906101000a900460ff166109aa9190612b51565b92506101000a81548160ff021916908360ff16021790555060026000848152602001908152602001600020339080600181540180825580915050600190039060005260206000200160009091909190916101000a81548173ffffffffffffffffffffffffffffffffffffffff021916908373ffffffffffffffffffffffffffffffffffffffff1602179055507ff2f622c4ee3232d0d08c3870751d38ddef2eaf0e7e0c5d38239c7dc8921ca6808360036000868152602001908152602001600020600301546003600087815260200190815260200160002060040160009054906101000a900473ffffffffffffffffffffffffffffffffffffffff1633604051610ab794939291906129ae565b60405180910390a1505050565b6000806000838152602001908152602001600020600101549050919050565b610aec82610ac4565b610afd81610af86119eb565b6119f3565b610b078383611a90565b505050565b610b146119eb565b73ffffffffffffffffffffffffffffffffffffffff168173ffffffffffffffffffffffffffffffffffffffff1614610b81576040517f08c379a0000000000000000000000000000000000000000000000000000000008152600401610b7890612973565b60405180910390fd5b610b8b8282611b70565b5050565b8473ffffffffffffffffffffffffffffffffffffffff163373ffffffffffffffffffffffffffffffffffffffff1614610bfd576040517f08c379a0000000000000000000000000000000000000000000000000000000008152600401610bf4906128f3565b60405180910390fd5b60008411610c40576040517f08c379a0000000000000000000000000000000000000000000000000000000008152600401610c3790612953565b60405180910390fd5b60405180610140016040528060015481526020018881526020018781526020018581526020018673ffffffffffffffffffffffffffffffffffffffff1681526020018481526020018360ff168152602001428152602001428152602001821515815250600360006001548152602001908152602001600020600082015181600001556020820151816001019080519060200190610cde929190611f15565b506040820151816002019080519060200190610cfb929190611f15565b506060820151816003015560808201518160040160006101000a81548173ffffffffffffffffffffffffffffffffffffffff021916908373ffffffffffffffffffffffffffffffffffffffff16021790555060a0820151816005019080519060200190610d69929190611f15565b5060c08201518160060160006101000a81548160ff021916908360ff16021790555060e0820151816007015561010082015181600801556101208201518160090160006101000a81548160ff02191690831515021790555090505060016000815480929190610dd790612d27565b919050555050505050505050565b60015481565b600080600090506000805b6002600086815260200190815260200160002080549050811015610f61576000600260008781526020019081526020016000208281548110610e3b57610e3a612dfd565b5b9060005260206000200160009054906101000a900473ffffffffffffffffffffffffffffffffffffffff1690506000600460008373ffffffffffffffffffffffffffffffffffffffff1673ffffffffffffffffffffffffffffffffffffffff168152602001908152602001600020600088815260200190815260200160002060009054906101000a900460ff1660ff1614610f4d57600460008273ffffffffffffffffffffffffffffffffffffffff1673ffffffffffffffffffffffffffffffffffffffff168152602001908152602001600020600087815260200190815260200160002060009054906101000a900460ff1660ff1684610f3c9190612a70565b93508280610f4990612d27565b9350505b508080610f5990612d27565b915050610df6565b5080606483610f709190612af7565b610f7a9190612ac6565b92505050919050565b606080600080600080600360008881526020019081526020016000206040518061014001604052908160008201548152602001600182018054610fc590612cc4565b80601f0160208091040260200160405190810160405280929190818152602001828054610ff190612cc4565b801561103e5780601f106110135761010080835404028352916020019161103e565b820191906000526020600020905b81548152906001019060200180831161102157829003601f168201915b5050505050815260200160028201805461105790612cc4565b80601f016020809104026020016040519081016040528092919081815260200182805461108390612cc4565b80156110d05780601f106110a5576101008083540402835291602001916110d0565b820191906000526020600020905b8154815290600101906020018083116110b357829003601f168201915b50505050508152602001600382015481526020016004820160009054906101000a900473ffffffffffffffffffffffffffffffffffffffff1673ffffffffffffffffffffffffffffffffffffffff1673ffffffffffffffffffffffffffffffffffffffff16815260200160058201805461114990612cc4565b80601f016020809104026020016040519081016040528092919081815260200182805461117590612cc4565b80156111c25780601f10611197576101008083540402835291602001916111c2565b820191906000526020600020905b8154815290600101906020018083116111a557829003601f168201915b505050505081526020016006820160009054906101000a900460ff1660ff1660ff16815260200160078201548152602001600882015481526020016009820160009054906101000a900460ff161515151581525050905080604001518160a001518260c001518360e00151846101000151955095509550955095505091939590929450565b816003600082815260200190815260200160002060040160009054906101000a900473ffffffffffffffffffffffffffffffffffffffff1673ffffffffffffffffffffffffffffffffffffffff163373ffffffffffffffffffffffffffffffffffffffff16146112ec576040517f08c379a00000000000000000000000000000000000000000000000000000000081526004016112e390612873565b60405180910390fd5b81600360008581526020019081526020016000206002019080519060200190611316929190611f15565b50426003600085815260200190815260200160002060080181905550505050565b600080600084815260200190815260200160002060000160008373ffffffffffffffffffffffffffffffffffffffff1673ffffffffffffffffffffffffffffffffffffffff16815260200190815260200160002060009054906101000a900460ff16905092915050565b6000801b81565b816003600082815260200190815260200160002060040160009054906101000a900473ffffffffffffffffffffffffffffffffffffffff1673ffffffffffffffffffffffffffffffffffffffff163373ffffffffffffffffffffffffffffffffffffffff161461144d576040517f08c379a000000000000000000000000000000000000000000000000000000000815260040161144490612873565b60405180910390fd5b816003600085815260200190815260200160002060030181905550426003600085815260200190815260200160002060080181905550505050565b7f1f9ca85e780b3b3cfbe1334ca9dd68802db7860f692bd163c796bb76d464edc081565b816003600082815260200190815260200160002060040160009054906101000a900473ffffffffffffffffffffffffffffffffffffffff1673ffffffffffffffffffffffffffffffffffffffff163373ffffffffffffffffffffffffffffffffffffffff1614611551576040517f08c379a000000000000000000000000000000000000000000000000000000000815260040161154890612873565b60405180910390fd5b816003600085815260200190815260200160002060090160006101000a81548160ff021916908315150217905550426003600085815260200190815260200160002060080181905550505050565b60606000806000600360008681526020019081526020016000206001016003600087815260200190815260200160002060040160009054906101000a900473ffffffffffffffffffffffffffffffffffffffff1660036000888152602001908152602001600020600301546003600089815260200190815260200160002060090160009054906101000a900460ff1683805461163a90612cc4565b80601f016020809104026020016040519081016040528092919081815260200182805461166690612cc4565b80156116b35780601f10611688576101008083540402835291602001916116b3565b820191906000526020600020905b81548152906001019060200180831161169657829003601f168201915b5050505050935093509350935093509193509193565b6116d282610ac4565b6116e3816116de6119eb565b6119f3565b6116ed8383611b70565b505050565b816003600082815260200190815260200160002060040160009054906101000a900473ffffffffffffffffffffffffffffffffffffffff1673ffffffffffffffffffffffffffffffffffffffff163373ffffffffffffffffffffffffffffffffffffffff1614611797576040517f08c379a000000000000000000000000000000000000000000000000000000000815260040161178e90612873565b60405180910390fd5b816003600085815260200190815260200160002060060160006101000a81548160ff021916908360ff160217905550426003600085815260200190815260200160002060080181905550505050565b816003600082815260200190815260200160002060040160009054906101000a900473ffffffffffffffffffffffffffffffffffffffff1673ffffffffffffffffffffffffffffffffffffffff163373ffffffffffffffffffffffffffffffffffffffff161461188b576040517f08c379a000000000000000000000000000000000000000000000000000000000815260040161188290612873565b60405180910390fd5b816003600085815260200190815260200160002060050190805190602001906118b5929190611f15565b50426003600085815260200190815260200160002060080181905550505050565b60006119796002600085815260200190815260200160002080548060200260200160405190810160405280929190818152602001828054801561196e57602002820191906000526020600020905b8160009054906101000a900473ffffffffffffffffffffffffffffffffffffffff1673ffffffffffffffffffffffffffffffffffffffff1681526020019060010190808311611924575b505050505083611c51565b905092915050565b60007f01ffc9a7000000000000000000000000000000000000000000000000000000007bffffffffffffffffffffffffffffffffffffffffffffffffffffffff1916827bffffffffffffffffffffffffffffffffffffffffffffffffffffffff1916149050919050565b600033905090565b6119fd8282611337565b611a8c57611a228173ffffffffffffffffffffffffffffffffffffffff166014611cd9565b611a308360001c6020611cd9565b604051602001611a419291906126b4565b6040516020818303038152906040526040517f08c379a0000000000000000000000000000000000000000000000000000000008152600401611a839190612724565b60405180910390fd5b5050565b611a9a8282611337565b611b6c57600160008084815260200190815260200160002060000160008373ffffffffffffffffffffffffffffffffffffffff1673ffffffffffffffffffffffffffffffffffffffff16815260200190815260200160002060006101000a81548160ff021916908315150217905550611b116119eb565b73ffffffffffffffffffffffffffffffffffffffff168173ffffffffffffffffffffffffffffffffffffffff16837f2f8788117e7eff1d82e926ec794901d17c78024a50270940304540a733656f0d60405160405180910390a45b5050565b611b7a8282611337565b15611c4d57600080600084815260200190815260200160002060000160008373ffffffffffffffffffffffffffffffffffffffff1673ffffffffffffffffffffffffffffffffffffffff16815260200190815260200160002060006101000a81548160ff021916908315150217905550611bf26119eb565b73ffffffffffffffffffffffffffffffffffffffff168173ffffffffffffffffffffffffffffffffffffffff16837ff6391f5c32d9c69d2a47ea670b442974b53935d1edc7fd64eb21e047a839171b60405160405180910390a45b5050565b600080600090505b8351811015611ccd578273ffffffffffffffffffffffffffffffffffffffff16848281518110611c8c57611c8b612dfd565b5b602002602001015173ffffffffffffffffffffffffffffffffffffffff161415611cba576001915050611cd3565b8080611cc590612d27565b915050611c59565b50600090505b92915050565b606060006002836002611cec9190612af7565b611cf69190612a70565b67ffffffffffffffff811115611d0f57611d0e612e2c565b5b6040519080825280601f01601f191660200182016040528015611d415781602001600182028036833780820191505090505b5090507f300000000000000000000000000000000000000000000000000000000000000081600081518110611d7957611d78612dfd565b5b60200101907effffffffffffffffffffffffffffffffffffffffffffffffffffffffffffff1916908160001a9053507f780000000000000000000000000000000000000000000000000000000000000081600181518110611ddd57611ddc612dfd565b5b60200101907effffffffffffffffffffffffffffffffffffffffffffffffffffffffffffff1916908160001a90535060006001846002611e1d9190612af7565b611e279190612a70565b90505b6001811115611ec7577f3031323334353637383961626364656600000000000000000000000000000000600f861660108110611e6957611e68612dfd565b5b1a60f81b828281518110611e8057611e7f612dfd565b5b60200101907effffffffffffffffffffffffffffffffffffffffffffffffffffffffffffff1916908160001a905350600485901c945080611ec090612c9a565b9050611e2a565b5060008414611f0b576040517f08c379a0000000000000000000000000000000000000000000000000000000008152600401611f0290612833565b60405180910390fd5b8091505092915050565b828054611f2190612cc4565b90600052602060002090601f016020900481019282611f435760008555611f8a565b82601f10611f5c57805160ff1916838001178555611f8a565b82800160010185558215611f8a579182015b82811115611f89578251825591602001919060010190611f6e565b5b509050611f979190611f9b565b5090565b5b80821115611fb4576000816000905550600101611f9c565b5090565b6000611fcb611fc684612a18565b6129f3565b905082815260208101848484011115611fe757611fe6612e60565b5b611ff2848285612c58565b509392505050565b600081359050612009816131f1565b92915050565b60008135905061201e81613208565b92915050565b6000813590506120338161321f565b92915050565b60008135905061204881613236565b92915050565b60008135905061205d8161324d565b92915050565b600082601f83011261207857612077612e5b565b5b8135612088848260208601611fb8565b91505092915050565b6000813590506120a081613264565b92915050565b6000813590506120b58161327b565b92915050565b6000602082840312156120d1576120d0612e6a565b5b60006120df84828501612039565b91505092915050565b600080604083850312156120ff576120fe612e6a565b5b600061210d85828601612039565b925050602061211e85828601611ffa565b9150509250929050565b60006020828403121561213e5761213d612e6a565b5b600061214c8482850161204e565b91505092915050565b600080600080600080600060e0888a03121561217457612173612e6a565b5b600088013567ffffffffffffffff81111561219257612191612e65565b5b61219e8a828b01612063565b975050602088013567ffffffffffffffff8111156121bf576121be612e65565b5b6121cb8a828b01612063565b96505060406121dc8a828b0161200f565b95505060606121ed8a828b01612091565b945050608088013567ffffffffffffffff81111561220e5761220d612e65565b5b61221a8a828b01612063565b93505060a061222b8a828b016120a6565b92505060c061223c8a828b01612024565b91505092959891949750929550565b60006020828403121561226157612260612e6a565b5b600061226f84828501612091565b91505092915050565b6000806040838503121561228f5761228e612e6a565b5b600061229d85828601612091565b92505060206122ae85828601611ffa565b9150509250929050565b600080604083850312156122cf576122ce612e6a565b5b60006122dd85828601612091565b92505060206122ee85828601612024565b9150509250929050565b6000806040838503121561230f5761230e612e6a565b5b600061231d85828601612091565b925050602083013567ffffffffffffffff81111561233e5761233d612e65565b5b61234a85828601612063565b9150509250929050565b6000806040838503121561236b5761236a612e6a565b5b600061237985828601612091565b925050602061238a85828601612091565b9150509250929050565b600080604083850312156123ab576123aa612e6a565b5b60006123b985828601612091565b92505060206123ca858286016120a6565b9150509250929050565b6123dd81612c22565b82525050565b6123ec81612b97565b82525050565b6123fb81612b85565b82525050565b61240a81612ba9565b82525050565b61241981612bb5565b82525050565b600061242a82612a49565b6124348185612a54565b9350612444818560208601612c67565b61244d81612e6f565b840191505092915050565b600061246382612a49565b61246d8185612a65565b935061247d818560208601612c67565b80840191505092915050565b6000612496601f83612a54565b91506124a182612e80565b602082019050919050565b60006124b9603d83612a54565b91506124c482612ea9565b604082019050919050565b60006124dc602083612a54565b91506124e782612ef8565b602082019050919050565b60006124ff601483612a54565b915061250a82612f21565b602082019050919050565b6000612522602c83612a54565b915061252d82612f4a565b604082019050919050565b6000612545601983612a54565b915061255082612f99565b602082019050919050565b6000612568602183612a54565b915061257382612fc2565b604082019050919050565b600061258b602883612a54565b915061259682613011565b604082019050919050565b60006125ae602883612a54565b91506125b982613060565b604082019050919050565b60006125d1601683612a54565b91506125dc826130af565b602082019050919050565b60006125f4602583612a54565b91506125ff826130d8565b604082019050919050565b6000612617601783612a65565b915061262282613127565b601782019050919050565b600061263a601c83612a54565b915061264582613150565b602082019050919050565b600061265d601183612a65565b915061266882613179565b601182019050919050565b6000612680602f83612a54565b915061268b826131a2565b604082019050919050565b61269f81612c0b565b82525050565b6126ae81612c15565b82525050565b60006126bf8261260a565b91506126cb8285612458565b91506126d682612650565b91506126e28284612458565b91508190509392505050565b60006020820190506127036000830184612401565b92915050565b600060208201905061271e6000830184612410565b92915050565b6000602082019050818103600083015261273e818461241f565b905092915050565b60006080820190508181036000830152612760818761241f565b905061276f60208301866123e3565b61277c6040830185612696565b6127896060830184612401565b95945050505050565b600060a08201905081810360008301526127ac818861241f565b905081810360208301526127c0818761241f565b90506127cf60408301866126a5565b6127dc6060830185612696565b6127e96080830184612696565b9695505050505050565b6000602082019050818103600083015261280c81612489565b9050919050565b6000602082019050818103600083015261282c816124ac565b9050919050565b6000602082019050818103600083015261284c816124cf565b9050919050565b6000602082019050818103600083015261286c816124f2565b9050919050565b6000602082019050818103600083015261288c81612515565b9050919050565b600060208201905081810360008301526128ac81612538565b9050919050565b600060208201905081810360008301526128cc8161255b565b9050919050565b600060208201905081810360008301526128ec8161257e565b9050919050565b6000602082019050818103600083015261290c816125a1565b9050919050565b6000602082019050818103600083015261292c816125c4565b9050919050565b6000602082019050818103600083015261294c816125e7565b9050919050565b6000602082019050818103600083015261296c8161262d565b9050919050565b6000602082019050818103600083015261298c81612673565b9050919050565b60006020820190506129a86000830184612696565b92915050565b60006080820190506129c36000830187612696565b6129d06020830186612696565b6129dd60408301856123d4565b6129ea60608301846123f2565b95945050505050565b60006129fd612a0e565b9050612a098282612cf6565b919050565b6000604051905090565b600067ffffffffffffffff821115612a3357612a32612e2c565b5b612a3c82612e6f565b9050602081019050919050565b600081519050919050565b600082825260208201905092915050565b600081905092915050565b6000612a7b82612c0b565b9150612a8683612c0b565b9250827fffffffffffffffffffffffffffffffffffffffffffffffffffffffffffffffff03821115612abb57612aba612d70565b5b828201905092915050565b6000612ad182612c0b565b9150612adc83612c0b565b925082612aec57612aeb612d9f565b5b828204905092915050565b6000612b0282612c0b565b9150612b0d83612c0b565b9250817fffffffffffffffffffffffffffffffffffffffffffffffffffffffffffffffff0483118215151615612b4657612b45612d70565b5b828202905092915050565b6000612b5c82612c15565b9150612b6783612c15565b925082821015612b7a57612b79612d70565b5b828203905092915050565b6000612b9082612beb565b9050919050565b6000612ba282612beb565b9050919050565b60008115159050919050565b6000819050919050565b60007fffffffff0000000000000000000000000000000000000000000000000000000082169050919050565b600073ffffffffffffffffffffffffffffffffffffffff82169050919050565b6000819050919050565b600060ff82169050919050565b6000612c2d82612c34565b9050919050565b6000612c3f82612c46565b9050919050565b6000612c5182612beb565b9050919050565b82818337600083830152505050565b60005b83811015612c85578082015181840152602081019050612c6a565b83811115612c94576000848401525b50505050565b6000612ca582612c0b565b91506000821415612cb957612cb8612d70565b5b600182039050919050565b60006002820490506001821680612cdc57607f821691505b60208210811415612cf057612cef612dce565b5b50919050565b612cff82612e6f565b810181811067ffffffffffffffff82111715612d1e57612d1d612e2c565b5b80604052505050565b6000612d3282612c0b565b91507fffffffffffffffffffffffffffffffffffffffffffffffffffffffffffffffff821415612d6557612d64612d70565b5b600182019050919050565b7f4e487b7100000000000000000000000000000000000000000000000000000000600052601160045260246000fd5b7f4e487b7100000000000000000000000000000000000000000000000000000000600052601260045260246000fd5b7f4e487b7100000000000000000000000000000000000000000000000000000000600052602260045260246000fd5b7f4e487b7100000000000000000000000000000000000000000000000000000000600052603260045260246000fd5b7f4e487b7100000000000000000000000000000000000000000000000000000000600052604160045260246000fd5b600080fd5b600080fd5b600080fd5b600080fd5b6000601f19601f8301169050919050565b7f5175616e74697479206d7573742062652067726561746572207468616e203000600082015250565b7f5175616e74697479206d757374206265206c657373207468616e206f7220657160008201527f75616c20746f2074686520617661696c61626c65207175616e74697479000000602082015250565b7f537472696e67733a20686578206c656e67746820696e73756666696369656e74600082015250565b7f507269636520646f6573206e6f74206d61746368000000000000000000000000600082015250565b7f4f6e6c792070726f647563742073656c6c65722063616e20657865637574652060008201527f7468697320616374696f6e2e0000000000000000000000000000000000000000602082015250565b7f4d61726b6574206974656d206973206e6f742061637469766500000000000000600082015250565b7f596f752063616e6e6f7420766f746520666f7220746869732070726f6475637460008201527f2e00000000000000000000000000000000000000000000000000000000000000602082015250565b7f5374617273206d7573742062652067726561746572207468616e206f7220657160008201527f75616c20746f2031000000000000000000000000000000000000000000000000602082015250565b7f4f6e6c79207468652073656c6c65722063616e206372656174652061206d617260008201527f6b6574206974656d000000000000000000000000000000000000000000000000602082015250565b7f5468652073656c6c65722063616e6e6f7420766f746500000000000000000000600082015250565b7f5374617273206d757374206265206c657373207468616e206f7220657175616c60008201527f20746f2035000000000000000000000000000000000000000000000000000000602082015250565b7f416363657373436f6e74726f6c3a206163636f756e7420000000000000000000600082015250565b7f5072696365206d7573742062652067726561746572207468616e203000000000600082015250565b7f206973206d697373696e6720726f6c6520000000000000000000000000000000600082015250565b7f416363657373436f6e74726f6c3a2063616e206f6e6c792072656e6f756e636560008201527f20726f6c657320666f722073656c660000000000000000000000000000000000602082015250565b6131fa81612b85565b811461320557600080fd5b50565b61321181612b97565b811461321c57600080fd5b50565b61322881612ba9565b811461323357600080fd5b50565b61323f81612bb5565b811461324a57600080fd5b50565b61325681612bbf565b811461326157600080fd5b50565b61326d81612c0b565b811461327857600080fd5b50565b61328481612c15565b811461328f57600080fd5b5056fea2646970667358221220462752c3c5f10bb5103ed0de9a935ff8f6ab9ba6680b73b79abb11de9ec72da164736f6c63430008070033",
					"opcodes": "PUSH1 0x80 PUSH1 0x40 MSTORE PUSH1 0x0 PUSH1 0x1 SSTORE CALLVALUE DUP1 ISZERO PUSH3 0x16 JUMPI PUSH1 0x0 DUP1 REVERT JUMPDEST POP PUSH3 0x49 PUSH32 0x1F9CA85E780B3B3CFBE1334CA9DD68802DB7860F692BD163C796BB76D464EDC0 CALLER PUSH3 0x4F PUSH1 0x20 SHL PUSH1 0x20 SHR JUMP JUMPDEST PUSH3 0x1B2 JUMP JUMPDEST PUSH3 0x61 DUP3 DUP3 PUSH3 0x140 PUSH1 0x20 SHL PUSH1 0x20 SHR JUMP JUMPDEST PUSH3 0x13C JUMPI PUSH1 0x1 PUSH1 0x0 DUP1 DUP5 DUP2 MSTORE PUSH1 0x20 ADD SWAP1 DUP2 MSTORE PUSH1 0x20 ADD PUSH1 0x0 KECCAK256 PUSH1 0x0 ADD PUSH1 0x0 DUP4 PUSH20 0xFFFFFFFFFFFFFFFFFFFFFFFFFFFFFFFFFFFFFFFF AND PUSH20 0xFFFFFFFFFFFFFFFFFFFFFFFFFFFFFFFFFFFFFFFF AND DUP2 MSTORE PUSH1 0x20 ADD SWAP1 DUP2 MSTORE PUSH1 0x20 ADD PUSH1 0x0 KECCAK256 PUSH1 0x0 PUSH2 0x100 EXP DUP2 SLOAD DUP2 PUSH1 0xFF MUL NOT AND SWAP1 DUP4 ISZERO ISZERO MUL OR SWAP1 SSTORE POP PUSH3 0xE1 PUSH3 0x1AA PUSH1 0x20 SHL PUSH1 0x20 SHR JUMP JUMPDEST PUSH20 0xFFFFFFFFFFFFFFFFFFFFFFFFFFFFFFFFFFFFFFFF AND DUP2 PUSH20 0xFFFFFFFFFFFFFFFFFFFFFFFFFFFFFFFFFFFFFFFF AND DUP4 PUSH32 0x2F8788117E7EFF1D82E926EC794901D17C78024A50270940304540A733656F0D PUSH1 0x40 MLOAD PUSH1 0x40 MLOAD DUP1 SWAP2 SUB SWAP1 LOG4 JUMPDEST POP POP JUMP JUMPDEST PUSH1 0x0 DUP1 PUSH1 0x0 DUP5 DUP2 MSTORE PUSH1 0x20 ADD SWAP1 DUP2 MSTORE PUSH1 0x20 ADD PUSH1 0x0 KECCAK256 PUSH1 0x0 ADD PUSH1 0x0 DUP4 PUSH20 0xFFFFFFFFFFFFFFFFFFFFFFFFFFFFFFFFFFFFFFFF AND PUSH20 0xFFFFFFFFFFFFFFFFFFFFFFFFFFFFFFFFFFFFFFFF AND DUP2 MSTORE PUSH1 0x20 ADD SWAP1 DUP2 MSTORE PUSH1 0x20 ADD PUSH1 0x0 KECCAK256 PUSH1 0x0 SWAP1 SLOAD SWAP1 PUSH2 0x100 EXP SWAP1 DIV PUSH1 0xFF AND SWAP1 POP SWAP3 SWAP2 POP POP JUMP JUMPDEST PUSH1 0x0 CALLER SWAP1 POP SWAP1 JUMP JUMPDEST PUSH2 0x32C8 DUP1 PUSH3 0x1C2 PUSH1 0x0 CODECOPY PUSH1 0x0 RETURN INVALID PUSH1 0x80 PUSH1 0x40 MSTORE PUSH1 0x4 CALLDATASIZE LT PUSH2 0x12A JUMPI PUSH1 0x0 CALLDATALOAD PUSH1 0xE0 SHR DUP1 PUSH4 0x8F28AFEE GT PUSH2 0xAB JUMPI DUP1 PUSH4 0xBF9C6554 GT PUSH2 0x6F JUMPI DUP1 PUSH4 0xBF9C6554 EQ PUSH2 0x3F7 JUMPI DUP1 PUSH4 0xC7BE7A49 EQ PUSH2 0x420 JUMPI DUP1 PUSH4 0xD547741F EQ PUSH2 0x460 JUMPI DUP1 PUSH4 0xECA1E6A0 EQ PUSH2 0x489 JUMPI DUP1 PUSH4 0xF0D2D06D EQ PUSH2 0x4B2 JUMPI DUP1 PUSH4 0xFEC4D15D EQ PUSH2 0x4DB JUMPI PUSH2 0x12A JUMP JUMPDEST DUP1 PUSH4 0x8F28AFEE EQ PUSH2 0x312 JUMPI DUP1 PUSH4 0x91D14854 EQ PUSH2 0x33B JUMPI DUP1 PUSH4 0xA217FDDF EQ PUSH2 0x378 JUMPI DUP1 PUSH4 0xAE13A317 EQ PUSH2 0x3A3 JUMPI DUP1 PUSH4 0xB491EFA0 EQ PUSH2 0x3CC JUMPI PUSH2 0x12A JUMP JUMPDEST DUP1 PUSH4 0x36568ABE GT PUSH2 0xF2 JUMPI DUP1 PUSH4 0x36568ABE EQ PUSH2 0x217 JUMPI DUP1 PUSH4 0x4D4C87EA EQ PUSH2 0x240 JUMPI DUP1 PUSH4 0x6A868974 EQ PUSH2 0x269 JUMPI DUP1 PUSH4 0x7735904F EQ PUSH2 0x294 JUMPI DUP1 PUSH4 0x88D9E84C EQ PUSH2 0x2D1 JUMPI PUSH2 0x12A JUMP JUMPDEST DUP1 PUSH4 0x1FFC9A7 EQ PUSH2 0x12F JUMPI DUP1 PUSH4 0xC3774FC EQ PUSH2 0x16C JUMPI DUP1 PUSH4 0x1DFEF0EB EQ PUSH2 0x195 JUMPI DUP1 PUSH4 0x248A9CA3 EQ PUSH2 0x1B1 JUMPI DUP1 PUSH4 0x2F2FF15D EQ PUSH2 0x1EE JUMPI JUMPDEST PUSH1 0x0 DUP1 REVERT JUMPDEST CALLVALUE DUP1 ISZERO PUSH2 0x13B JUMPI PUSH1 0x0 DUP1 REVERT JUMPDEST POP PUSH2 0x156 PUSH1 0x4 DUP1 CALLDATASIZE SUB DUP2 ADD SWAP1 PUSH2 0x151 SWAP2 SWAP1 PUSH2 0x2128 JUMP JUMPDEST PUSH2 0x518 JUMP JUMPDEST PUSH1 0x40 MLOAD PUSH2 0x163 SWAP2 SWAP1 PUSH2 0x26EE JUMP JUMPDEST PUSH1 0x40 MLOAD DUP1 SWAP2 SUB SWAP1 RETURN JUMPDEST CALLVALUE DUP1 ISZERO PUSH2 0x178 JUMPI PUSH1 0x0 DUP1 REVERT JUMPDEST POP PUSH2 0x193 PUSH1 0x4 DUP1 CALLDATASIZE SUB DUP2 ADD SWAP1 PUSH2 0x18E SWAP2 SWAP1 PUSH2 0x2394 JUMP JUMPDEST PUSH2 0x592 JUMP JUMPDEST STOP JUMPDEST PUSH2 0x1AF PUSH1 0x4 DUP1 CALLDATASIZE SUB DUP2 ADD SWAP1 PUSH2 0x1AA SWAP2 SWAP1 PUSH2 0x2394 JUMP JUMPDEST PUSH2 0x77B JUMP JUMPDEST STOP JUMPDEST CALLVALUE DUP1 ISZERO PUSH2 0x1BD JUMPI PUSH1 0x0 DUP1 REVERT JUMPDEST POP PUSH2 0x1D8 PUSH1 0x4 DUP1 CALLDATASIZE SUB DUP2 ADD SWAP1 PUSH2 0x1D3 SWAP2 SWAP1 PUSH2 0x20BB JUMP JUMPDEST PUSH2 0xAC4 JUMP JUMPDEST PUSH1 0x40 MLOAD PUSH2 0x1E5 SWAP2 SWAP1 PUSH2 0x2709 JUMP JUMPDEST PUSH1 0x40 MLOAD DUP1 SWAP2 SUB SWAP1 RETURN JUMPDEST CALLVALUE DUP1 ISZERO PUSH2 0x1FA JUMPI PUSH1 0x0 DUP1 REVERT JUMPDEST POP PUSH2 0x215 PUSH1 0x4 DUP1 CALLDATASIZE SUB DUP2 ADD SWAP1 PUSH2 0x210 SWAP2 SWAP1 PUSH2 0x20E8 JUMP JUMPDEST PUSH2 0xAE3 JUMP JUMPDEST STOP JUMPDEST CALLVALUE DUP1 ISZERO PUSH2 0x223 JUMPI PUSH1 0x0 DUP1 REVERT JUMPDEST POP PUSH2 0x23E PUSH1 0x4 DUP1 CALLDATASIZE SUB DUP2 ADD SWAP1 PUSH2 0x239 SWAP2 SWAP1 PUSH2 0x20E8 JUMP JUMPDEST PUSH2 0xB0C JUMP JUMPDEST STOP JUMPDEST CALLVALUE DUP1 ISZERO PUSH2 0x24C JUMPI PUSH1 0x0 DUP1 REVERT JUMPDEST POP PUSH2 0x267 PUSH1 0x4 DUP1 CALLDATASIZE SUB DUP2 ADD SWAP1 PUSH2 0x262 SWAP2 SWAP1 PUSH2 0x2155 JUMP JUMPDEST PUSH2 0xB8F JUMP JUMPDEST STOP JUMPDEST CALLVALUE DUP1 ISZERO PUSH2 0x275 JUMPI PUSH1 0x0 DUP1 REVERT JUMPDEST POP PUSH2 0x27E PUSH2 0xDE5 JUMP JUMPDEST PUSH1 0x40 MLOAD PUSH2 0x28B SWAP2 SWAP1 PUSH2 0x2993 JUMP JUMPDEST PUSH1 0x40 MLOAD DUP1 SWAP2 SUB SWAP1 RETURN JUMPDEST CALLVALUE DUP1 ISZERO PUSH2 0x2A0 JUMPI PUSH1 0x0 DUP1 REVERT JUMPDEST POP PUSH2 0x2BB PUSH1 0x4 DUP1 CALLDATASIZE SUB DUP2 ADD SWAP1 PUSH2 0x2B6 SWAP2 SWAP1 PUSH2 0x224B JUMP JUMPDEST PUSH2 0xDEB JUMP JUMPDEST PUSH1 0x40 MLOAD PUSH2 0x2C8 SWAP2 SWAP1 PUSH2 0x2993 JUMP JUMPDEST PUSH1 0x40 MLOAD DUP1 SWAP2 SUB SWAP1 RETURN JUMPDEST CALLVALUE DUP1 ISZERO PUSH2 0x2DD JUMPI PUSH1 0x0 DUP1 REVERT JUMPDEST POP PUSH2 0x2F8 PUSH1 0x4 DUP1 CALLDATASIZE SUB DUP2 ADD SWAP1 PUSH2 0x2F3 SWAP2 SWAP1 PUSH2 0x224B JUMP JUMPDEST PUSH2 0xF83 JUMP JUMPDEST PUSH1 0x40 MLOAD PUSH2 0x309 SWAP6 SWAP5 SWAP4 SWAP3 SWAP2 SWAP1 PUSH2 0x2792 JUMP JUMPDEST PUSH1 0x40 MLOAD DUP1 SWAP2 SUB SWAP1 RETURN JUMPDEST CALLVALUE DUP1 ISZERO PUSH2 0x31E JUMPI PUSH1 0x0 DUP1 REVERT JUMPDEST POP PUSH2 0x339 PUSH1 0x4 DUP1 CALLDATASIZE SUB DUP2 ADD SWAP1 PUSH2 0x334 SWAP2 SWAP1 PUSH2 0x22F8 JUMP JUMPDEST PUSH2 0x1247 JUMP JUMPDEST STOP JUMPDEST CALLVALUE DUP1 ISZERO PUSH2 0x347 JUMPI PUSH1 0x0 DUP1 REVERT JUMPDEST POP PUSH2 0x362 PUSH1 0x4 DUP1 CALLDATASIZE SUB DUP2 ADD SWAP1 PUSH2 0x35D SWAP2 SWAP1 PUSH2 0x20E8 JUMP JUMPDEST PUSH2 0x1337 JUMP JUMPDEST PUSH1 0x40 MLOAD PUSH2 0x36F SWAP2 SWAP1 PUSH2 0x26EE JUMP JUMPDEST PUSH1 0x40 MLOAD DUP1 SWAP2 SUB SWAP1 RETURN JUMPDEST CALLVALUE DUP1 ISZERO PUSH2 0x384 JUMPI PUSH1 0x0 DUP1 REVERT JUMPDEST POP PUSH2 0x38D PUSH2 0x13A1 JUMP JUMPDEST PUSH1 0x40 MLOAD PUSH2 0x39A SWAP2 SWAP1 PUSH2 0x2709 JUMP JUMPDEST PUSH1 0x40 MLOAD DUP1 SWAP2 SUB SWAP1 RETURN JUMPDEST CALLVALUE DUP1 ISZERO PUSH2 0x3AF JUMPI PUSH1 0x0 DUP1 REVERT JUMPDEST POP PUSH2 0x3CA PUSH1 0x4 DUP1 CALLDATASIZE SUB DUP2 ADD SWAP1 PUSH2 0x3C5 SWAP2 SWAP1 PUSH2 0x2354 JUMP JUMPDEST PUSH2 0x13A8 JUMP JUMPDEST STOP JUMPDEST CALLVALUE DUP1 ISZERO PUSH2 0x3D8 JUMPI PUSH1 0x0 DUP1 REVERT JUMPDEST POP PUSH2 0x3E1 PUSH2 0x1488 JUMP JUMPDEST PUSH1 0x40 MLOAD PUSH2 0x3EE SWAP2 SWAP1 PUSH2 0x2709 JUMP JUMPDEST PUSH1 0x40 MLOAD DUP1 SWAP2 SUB SWAP1 RETURN JUMPDEST CALLVALUE DUP1 ISZERO PUSH2 0x403 JUMPI PUSH1 0x0 DUP1 REVERT JUMPDEST POP PUSH2 0x41E PUSH1 0x4 DUP1 CALLDATASIZE SUB DUP2 ADD SWAP1 PUSH2 0x419 SWAP2 SWAP1 PUSH2 0x22B8 JUMP JUMPDEST PUSH2 0x14AC JUMP JUMPDEST STOP JUMPDEST CALLVALUE DUP1 ISZERO PUSH2 0x42C JUMPI PUSH1 0x0 DUP1 REVERT JUMPDEST POP PUSH2 0x447 PUSH1 0x4 DUP1 CALLDATASIZE SUB DUP2 ADD SWAP1 PUSH2 0x442 SWAP2 SWAP1 PUSH2 0x224B JUMP JUMPDEST PUSH2 0x159F JUMP JUMPDEST PUSH1 0x40 MLOAD PUSH2 0x457 SWAP5 SWAP4 SWAP3 SWAP2 SWAP1 PUSH2 0x2746 JUMP JUMPDEST PUSH1 0x40 MLOAD DUP1 SWAP2 SUB SWAP1 RETURN JUMPDEST CALLVALUE DUP1 ISZERO PUSH2 0x46C JUMPI PUSH1 0x0 DUP1 REVERT JUMPDEST POP PUSH2 0x487 PUSH1 0x4 DUP1 CALLDATASIZE SUB DUP2 ADD SWAP1 PUSH2 0x482 SWAP2 SWAP1 PUSH2 0x20E8 JUMP JUMPDEST PUSH2 0x16C9 JUMP JUMPDEST STOP JUMPDEST CALLVALUE DUP1 ISZERO PUSH2 0x495 JUMPI PUSH1 0x0 DUP1 REVERT JUMPDEST POP PUSH2 0x4B0 PUSH1 0x4 DUP1 CALLDATASIZE SUB DUP2 ADD SWAP1 PUSH2 0x4AB SWAP2 SWAP1 PUSH2 0x2394 JUMP JUMPDEST PUSH2 0x16F2 JUMP JUMPDEST STOP JUMPDEST CALLVALUE DUP1 ISZERO PUSH2 0x4BE JUMPI PUSH1 0x0 DUP1 REVERT JUMPDEST POP PUSH2 0x4D9 PUSH1 0x4 DUP1 CALLDATASIZE SUB DUP2 ADD SWAP1 PUSH2 0x4D4 SWAP2 SWAP1 PUSH2 0x22F8 JUMP JUMPDEST PUSH2 0x17E6 JUMP JUMPDEST STOP JUMPDEST CALLVALUE DUP1 ISZERO PUSH2 0x4E7 JUMPI PUSH1 0x0 DUP1 REVERT JUMPDEST POP PUSH2 0x502 PUSH1 0x4 DUP1 CALLDATASIZE SUB DUP2 ADD SWAP1 PUSH2 0x4FD SWAP2 SWAP1 PUSH2 0x2278 JUMP JUMPDEST PUSH2 0x18D6 JUMP JUMPDEST PUSH1 0x40 MLOAD PUSH2 0x50F SWAP2 SWAP1 PUSH2 0x26EE JUMP JUMPDEST PUSH1 0x40 MLOAD DUP1 SWAP2 SUB SWAP1 RETURN JUMPDEST PUSH1 0x0 PUSH32 0x7965DB0B00000000000000000000000000000000000000000000000000000000 PUSH28 0xFFFFFFFFFFFFFFFFFFFFFFFFFFFFFFFFFFFFFFFFFFFFFFFFFFFFFFFF NOT AND DUP3 PUSH28 0xFFFFFFFFFFFFFFFFFFFFFFFFFFFFFFFFFFFFFFFFFFFFFFFFFFFFFFFF NOT AND EQ DUP1 PUSH2 0x58B JUMPI POP PUSH2 0x58A DUP3 PUSH2 0x1981 JUMP JUMPDEST JUMPDEST SWAP1 POP SWAP2 SWAP1 POP JUMP JUMPDEST PUSH1 0x3 PUSH1 0x0 DUP4 DUP2 MSTORE PUSH1 0x20 ADD SWAP1 DUP2 MSTORE PUSH1 0x20 ADD PUSH1 0x0 KECCAK256 PUSH1 0x4 ADD PUSH1 0x0 SWAP1 SLOAD SWAP1 PUSH2 0x100 EXP SWAP1 DIV PUSH20 0xFFFFFFFFFFFFFFFFFFFFFFFFFFFFFFFFFFFFFFFF AND PUSH20 0xFFFFFFFFFFFFFFFFFFFFFFFFFFFFFFFFFFFFFFFF AND CALLER PUSH20 0xFFFFFFFFFFFFFFFFFFFFFFFFFFFFFFFFFFFFFFFF AND EQ ISZERO PUSH2 0x637 JUMPI PUSH1 0x40 MLOAD PUSH32 0x8C379A000000000000000000000000000000000000000000000000000000000 DUP2 MSTORE PUSH1 0x4 ADD PUSH2 0x62E SWAP1 PUSH2 0x2913 JUMP JUMPDEST PUSH1 0x40 MLOAD DUP1 SWAP2 SUB SWAP1 REVERT JUMPDEST PUSH1 0x5 DUP2 PUSH1 0xFF AND GT ISZERO PUSH2 0x67E JUMPI PUSH1 0x40 MLOAD PUSH32 0x8C379A000000000000000000000000000000000000000000000000000000000 DUP2 MSTORE PUSH1 0x4 ADD PUSH2 0x675 SWAP1 PUSH2 0x2933 JUMP JUMPDEST PUSH1 0x40 MLOAD DUP1 SWAP2 SUB SWAP1 REVERT JUMPDEST PUSH1 0x1 DUP2 PUSH1 0xFF AND LT ISZERO PUSH2 0x6C5 JUMPI PUSH1 0x40 MLOAD PUSH32 0x8C379A000000000000000000000000000000000000000000000000000000000 DUP2 MSTORE PUSH1 0x4 ADD PUSH2 0x6BC SWAP1 PUSH2 0x28D3 JUMP JUMPDEST PUSH1 0x40 MLOAD DUP1 SWAP2 SUB SWAP1 REVERT JUMPDEST PUSH2 0x6CF DUP3 CALLER PUSH2 0x18D6 JUMP JUMPDEST PUSH2 0x70E JUMPI PUSH1 0x40 MLOAD PUSH32 0x8C379A000000000000000000000000000000000000000000000000000000000 DUP2 MSTORE PUSH1 0x4 ADD PUSH2 0x705 SWAP1 PUSH2 0x28B3 JUMP JUMPDEST PUSH1 0x40 MLOAD DUP1 SWAP2 SUB SWAP1 REVERT JUMPDEST DUP1 PUSH1 0x4 PUSH1 0x0 CALLER PUSH20 0xFFFFFFFFFFFFFFFFFFFFFFFFFFFFFFFFFFFFFFFF AND PUSH20 0xFFFFFFFFFFFFFFFFFFFFFFFFFFFFFFFFFFFFFFFF AND DUP2 MSTORE PUSH1 0x20 ADD SWAP1 DUP2 MSTORE PUSH1 0x20 ADD PUSH1 0x0 KECCAK256 PUSH1 0x0 DUP5 DUP2 MSTORE PUSH1 0x20 ADD SWAP1 DUP2 MSTORE PUSH1 0x20 ADD PUSH1 0x0 KECCAK256 PUSH1 0x0 PUSH2 0x100 EXP DUP2 SLOAD DUP2 PUSH1 0xFF MUL NOT AND SWAP1 DUP4 PUSH1 0xFF AND MUL OR SWAP1 SSTORE POP POP POP JUMP JUMPDEST PUSH1 0x0 DUP2 PUSH1 0xFF AND PUSH1 0x3 PUSH1 0x0 DUP6 DUP2 MSTORE PUSH1 0x20 ADD SWAP1 DUP2 MSTORE PUSH1 0x20 ADD PUSH1 0x0 KECCAK256 PUSH1 0x3 ADD SLOAD PUSH2 0x7A2 SWAP2 SWAP1 PUSH2 0x2AF7 JUMP JUMPDEST SWAP1 POP CALLVALUE DUP2 EQ PUSH2 0x7E6 JUMPI PUSH1 0x40 MLOAD PUSH32 0x8C379A000000000000000000000000000000000000000000000000000000000 DUP2 MSTORE PUSH1 0x4 ADD PUSH2 0x7DD SWAP1 PUSH2 0x2853 JUMP JUMPDEST PUSH1 0x40 MLOAD DUP1 SWAP2 SUB SWAP1 REVERT JUMPDEST PUSH1 0x0 DUP3 PUSH1 0xFF AND GT PUSH2 0x82C JUMPI PUSH1 0x40 MLOAD PUSH32 0x8C379A000000000000000000000000000000000000000000000000000000000 DUP2 MSTORE PUSH1 0x4 ADD PUSH2 0x823 SWAP1 PUSH2 0x27F3 JUMP JUMPDEST PUSH1 0x40 MLOAD DUP1 SWAP2 SUB SWAP1 REVERT JUMPDEST PUSH1 0x3 PUSH1 0x0 DUP5 DUP2 MSTORE PUSH1 0x20 ADD SWAP1 DUP2 MSTORE PUSH1 0x20 ADD PUSH1 0x0 KECCAK256 PUSH1 0x6 ADD PUSH1 0x0 SWAP1 SLOAD SWAP1 PUSH2 0x100 EXP SWAP1 DIV PUSH1 0xFF AND PUSH1 0xFF AND DUP3 PUSH1 0xFF AND GT ISZERO PUSH2 0x898 JUMPI PUSH1 0x40 MLOAD PUSH32 0x8C379A000000000000000000000000000000000000000000000000000000000 DUP2 MSTORE PUSH1 0x4 ADD PUSH2 0x88F SWAP1 PUSH2 0x2813 JUMP JUMPDEST PUSH1 0x40 MLOAD DUP1 SWAP2 SUB SWAP1 REVERT JUMPDEST PUSH1 0x3 PUSH1 0x0 DUP5 DUP2 MSTORE PUSH1 0x20 ADD SWAP1 DUP2 MSTORE PUSH1 0x20 ADD PUSH1 0x0 KECCAK256 PUSH1 0x9 ADD PUSH1 0x0 SWAP1 SLOAD SWAP1 PUSH2 0x100 EXP SWAP1 DIV PUSH1 0xFF AND PUSH2 0x8FB JUMPI PUSH1 0x40 MLOAD PUSH32 0x8C379A000000000000000000000000000000000000000000000000000000000 DUP2 MSTORE PUSH1 0x4 ADD PUSH2 0x8F2 SWAP1 PUSH2 0x2893 JUMP JUMPDEST PUSH1 0x40 MLOAD DUP1 SWAP2 SUB SWAP1 REVERT JUMPDEST PUSH1 0x3 PUSH1 0x0 DUP5 DUP2 MSTORE PUSH1 0x20 ADD SWAP1 DUP2 MSTORE PUSH1 0x20 ADD PUSH1 0x0 KECCAK256 PUSH1 0x4 ADD PUSH1 0x0 SWAP1 SLOAD SWAP1 PUSH2 0x100 EXP SWAP1 DIV PUSH20 0xFFFFFFFFFFFFFFFFFFFFFFFFFFFFFFFFFFFFFFFF AND PUSH20 0xFFFFFFFFFFFFFFFFFFFFFFFFFFFFFFFFFFFFFFFF AND PUSH2 0x8FC CALLVALUE SWAP1 DUP2 ISZERO MUL SWAP1 PUSH1 0x40 MLOAD PUSH1 0x0 PUSH1 0x40 MLOAD DUP1 DUP4 SUB DUP2 DUP6 DUP9 DUP9 CALL SWAP4 POP POP POP POP ISZERO DUP1 ISZERO PUSH2 0x977 JUMPI RETURNDATASIZE PUSH1 0x0 DUP1 RETURNDATACOPY RETURNDATASIZE PUSH1 0x0 REVERT JUMPDEST POP DUP2 PUSH1 0x3 PUSH1 0x0 DUP6 DUP2 MSTORE PUSH1 0x20 ADD SWAP1 DUP2 MSTORE PUSH1 0x20 ADD PUSH1 0x0 KECCAK256 PUSH1 0x6 ADD PUSH1 0x0 DUP3 DUP3 DUP3 SWAP1 SLOAD SWAP1 PUSH2 0x100 EXP SWAP1 DIV PUSH1 0xFF AND PUSH2 0x9AA SWAP2 SWAP1 PUSH2 0x2B51 JUMP JUMPDEST SWAP3 POP PUSH2 0x100 EXP DUP2 SLOAD DUP2 PUSH1 0xFF MUL NOT AND SWAP1 DUP4 PUSH1 0xFF AND MUL OR SWAP1 SSTORE POP PUSH1 0x2 PUSH1 0x0 DUP5 DUP2 MSTORE PUSH1 0x20 ADD SWAP1 DUP2 MSTORE PUSH1 0x20 ADD PUSH1 0x0 KECCAK256 CALLER SWAP1 DUP1 PUSH1 0x1 DUP2 SLOAD ADD DUP1 DUP3 SSTORE DUP1 SWAP2 POP POP PUSH1 0x1 SWAP1 SUB SWAP1 PUSH1 0x0 MSTORE PUSH1 0x20 PUSH1 0x0 KECCAK256 ADD PUSH1 0x0 SWAP1 SWAP2 SWAP1 SWAP2 SWAP1 SWAP2 PUSH2 0x100 EXP DUP2 SLOAD DUP2 PUSH20 0xFFFFFFFFFFFFFFFFFFFFFFFFFFFFFFFFFFFFFFFF MUL NOT AND SWAP1 DUP4 PUSH20 0xFFFFFFFFFFFFFFFFFFFFFFFFFFFFFFFFFFFFFFFF AND MUL OR SWAP1 SSTORE POP PUSH32 0xF2F622C4EE3232D0D08C3870751D38DDEF2EAF0E7E0C5D38239C7DC8921CA680 DUP4 PUSH1 0x3 PUSH1 0x0 DUP7 DUP2 MSTORE PUSH1 0x20 ADD SWAP1 DUP2 MSTORE PUSH1 0x20 ADD PUSH1 0x0 KECCAK256 PUSH1 0x3 ADD SLOAD PUSH1 0x3 PUSH1 0x0 DUP8 DUP2 MSTORE PUSH1 0x20 ADD SWAP1 DUP2 MSTORE PUSH1 0x20 ADD PUSH1 0x0 KECCAK256 PUSH1 0x4 ADD PUSH1 0x0 SWAP1 SLOAD SWAP1 PUSH2 0x100 EXP SWAP1 DIV PUSH20 0xFFFFFFFFFFFFFFFFFFFFFFFFFFFFFFFFFFFFFFFF AND CALLER PUSH1 0x40 MLOAD PUSH2 0xAB7 SWAP5 SWAP4 SWAP3 SWAP2 SWAP1 PUSH2 0x29AE JUMP JUMPDEST PUSH1 0x40 MLOAD DUP1 SWAP2 SUB SWAP1 LOG1 POP POP POP JUMP JUMPDEST PUSH1 0x0 DUP1 PUSH1 0x0 DUP4 DUP2 MSTORE PUSH1 0x20 ADD SWAP1 DUP2 MSTORE PUSH1 0x20 ADD PUSH1 0x0 KECCAK256 PUSH1 0x1 ADD SLOAD SWAP1 POP SWAP2 SWAP1 POP JUMP JUMPDEST PUSH2 0xAEC DUP3 PUSH2 0xAC4 JUMP JUMPDEST PUSH2 0xAFD DUP2 PUSH2 0xAF8 PUSH2 0x19EB JUMP JUMPDEST PUSH2 0x19F3 JUMP JUMPDEST PUSH2 0xB07 DUP4 DUP4 PUSH2 0x1A90 JUMP JUMPDEST POP POP POP JUMP JUMPDEST PUSH2 0xB14 PUSH2 0x19EB JUMP JUMPDEST PUSH20 0xFFFFFFFFFFFFFFFFFFFFFFFFFFFFFFFFFFFFFFFF AND DUP2 PUSH20 0xFFFFFFFFFFFFFFFFFFFFFFFFFFFFFFFFFFFFFFFF AND EQ PUSH2 0xB81 JUMPI PUSH1 0x40 MLOAD PUSH32 0x8C379A000000000000000000000000000000000000000000000000000000000 DUP2 MSTORE PUSH1 0x4 ADD PUSH2 0xB78 SWAP1 PUSH2 0x2973 JUMP JUMPDEST PUSH1 0x40 MLOAD DUP1 SWAP2 SUB SWAP1 REVERT JUMPDEST PUSH2 0xB8B DUP3 DUP3 PUSH2 0x1B70 JUMP JUMPDEST POP POP JUMP JUMPDEST DUP5 PUSH20 0xFFFFFFFFFFFFFFFFFFFFFFFFFFFFFFFFFFFFFFFF AND CALLER PUSH20 0xFFFFFFFFFFFFFFFFFFFFFFFFFFFFFFFFFFFFFFFF AND EQ PUSH2 0xBFD JUMPI PUSH1 0x40 MLOAD PUSH32 0x8C379A000000000000000000000000000000000000000000000000000000000 DUP2 MSTORE PUSH1 0x4 ADD PUSH2 0xBF4 SWAP1 PUSH2 0x28F3 JUMP JUMPDEST PUSH1 0x40 MLOAD DUP1 SWAP2 SUB SWAP1 REVERT JUMPDEST PUSH1 0x0 DUP5 GT PUSH2 0xC40 JUMPI PUSH1 0x40 MLOAD PUSH32 0x8C379A000000000000000000000000000000000000000000000000000000000 DUP2 MSTORE PUSH1 0x4 ADD PUSH2 0xC37 SWAP1 PUSH2 0x2953 JUMP JUMPDEST PUSH1 0x40 MLOAD DUP1 SWAP2 SUB SWAP1 REVERT JUMPDEST PUSH1 0x40 MLOAD DUP1 PUSH2 0x140 ADD PUSH1 0x40 MSTORE DUP1 PUSH1 0x1 SLOAD DUP2 MSTORE PUSH1 0x20 ADD DUP9 DUP2 MSTORE PUSH1 0x20 ADD DUP8 DUP2 MSTORE PUSH1 0x20 ADD DUP6 DUP2 MSTORE PUSH1 0x20 ADD DUP7 PUSH20 0xFFFFFFFFFFFFFFFFFFFFFFFFFFFFFFFFFFFFFFFF AND DUP2 MSTORE PUSH1 0x20 ADD DUP5 DUP2 MSTORE PUSH1 0x20 ADD DUP4 PUSH1 0xFF AND DUP2 MSTORE PUSH1 0x20 ADD TIMESTAMP DUP2 MSTORE PUSH1 0x20 ADD TIMESTAMP DUP2 MSTORE PUSH1 0x20 ADD DUP3 ISZERO ISZERO DUP2 MSTORE POP PUSH1 0x3 PUSH1 0x0 PUSH1 0x1 SLOAD DUP2 MSTORE PUSH1 0x20 ADD SWAP1 DUP2 MSTORE PUSH1 0x20 ADD PUSH1 0x0 KECCAK256 PUSH1 0x0 DUP3 ADD MLOAD DUP2 PUSH1 0x0 ADD SSTORE PUSH1 0x20 DUP3 ADD MLOAD DUP2 PUSH1 0x1 ADD SWAP1 DUP1 MLOAD SWAP1 PUSH1 0x20 ADD SWAP1 PUSH2 0xCDE SWAP3 SWAP2 SWAP1 PUSH2 0x1F15 JUMP JUMPDEST POP PUSH1 0x40 DUP3 ADD MLOAD DUP2 PUSH1 0x2 ADD SWAP1 DUP1 MLOAD SWAP1 PUSH1 0x20 ADD SWAP1 PUSH2 0xCFB SWAP3 SWAP2 SWAP1 PUSH2 0x1F15 JUMP JUMPDEST POP PUSH1 0x60 DUP3 ADD MLOAD DUP2 PUSH1 0x3 ADD SSTORE PUSH1 0x80 DUP3 ADD MLOAD DUP2 PUSH1 0x4 ADD PUSH1 0x0 PUSH2 0x100 EXP DUP2 SLOAD DUP2 PUSH20 0xFFFFFFFFFFFFFFFFFFFFFFFFFFFFFFFFFFFFFFFF MUL NOT AND SWAP1 DUP4 PUSH20 0xFFFFFFFFFFFFFFFFFFFFFFFFFFFFFFFFFFFFFFFF AND MUL OR SWAP1 SSTORE POP PUSH1 0xA0 DUP3 ADD MLOAD DUP2 PUSH1 0x5 ADD SWAP1 DUP1 MLOAD SWAP1 PUSH1 0x20 ADD SWAP1 PUSH2 0xD69 SWAP3 SWAP2 SWAP1 PUSH2 0x1F15 JUMP JUMPDEST POP PUSH1 0xC0 DUP3 ADD MLOAD DUP2 PUSH1 0x6 ADD PUSH1 0x0 PUSH2 0x100 EXP DUP2 SLOAD DUP2 PUSH1 0xFF MUL NOT AND SWAP1 DUP4 PUSH1 0xFF AND MUL OR SWAP1 SSTORE POP PUSH1 0xE0 DUP3 ADD MLOAD DUP2 PUSH1 0x7 ADD SSTORE PUSH2 0x100 DUP3 ADD MLOAD DUP2 PUSH1 0x8 ADD SSTORE PUSH2 0x120 DUP3 ADD MLOAD DUP2 PUSH1 0x9 ADD PUSH1 0x0 PUSH2 0x100 EXP DUP2 SLOAD DUP2 PUSH1 0xFF MUL NOT AND SWAP1 DUP4 ISZERO ISZERO MUL OR SWAP1 SSTORE POP SWAP1 POP POP PUSH1 0x1 PUSH1 0x0 DUP2 SLOAD DUP1 SWAP3 SWAP2 SWAP1 PUSH2 0xDD7 SWAP1 PUSH2 0x2D27 JUMP JUMPDEST SWAP2 SWAP1 POP SSTORE POP POP POP POP POP POP POP POP JUMP JUMPDEST PUSH1 0x1 SLOAD DUP2 JUMP JUMPDEST PUSH1 0x0 DUP1 PUSH1 0x0 SWAP1 POP PUSH1 0x0 DUP1 JUMPDEST PUSH1 0x2 PUSH1 0x0 DUP7 DUP2 MSTORE PUSH1 0x20 ADD SWAP1 DUP2 MSTORE PUSH1 0x20 ADD PUSH1 0x0 KECCAK256 DUP1 SLOAD SWAP1 POP DUP2 LT ISZERO PUSH2 0xF61 JUMPI PUSH1 0x0 PUSH1 0x2 PUSH1 0x0 DUP8 DUP2 MSTORE PUSH1 0x20 ADD SWAP1 DUP2 MSTORE PUSH1 0x20 ADD PUSH1 0x0 KECCAK256 DUP3 DUP2 SLOAD DUP2 LT PUSH2 0xE3B JUMPI PUSH2 0xE3A PUSH2 0x2DFD JUMP JUMPDEST JUMPDEST SWAP1 PUSH1 0x0 MSTORE PUSH1 0x20 PUSH1 0x0 KECCAK256 ADD PUSH1 0x0 SWAP1 SLOAD SWAP1 PUSH2 0x100 EXP SWAP1 DIV PUSH20 0xFFFFFFFFFFFFFFFFFFFFFFFFFFFFFFFFFFFFFFFF AND SWAP1 POP PUSH1 0x0 PUSH1 0x4 PUSH1 0x0 DUP4 PUSH20 0xFFFFFFFFFFFFFFFFFFFFFFFFFFFFFFFFFFFFFFFF AND PUSH20 0xFFFFFFFFFFFFFFFFFFFFFFFFFFFFFFFFFFFFFFFF AND DUP2 MSTORE PUSH1 0x20 ADD SWAP1 DUP2 MSTORE PUSH1 0x20 ADD PUSH1 0x0 KECCAK256 PUSH1 0x0 DUP9 DUP2 MSTORE PUSH1 0x20 ADD SWAP1 DUP2 MSTORE PUSH1 0x20 ADD PUSH1 0x0 KECCAK256 PUSH1 0x0 SWAP1 SLOAD SWAP1 PUSH2 0x100 EXP SWAP1 DIV PUSH1 0xFF AND PUSH1 0xFF AND EQ PUSH2 0xF4D JUMPI PUSH1 0x4 PUSH1 0x0 DUP3 PUSH20 0xFFFFFFFFFFFFFFFFFFFFFFFFFFFFFFFFFFFFFFFF AND PUSH20 0xFFFFFFFFFFFFFFFFFFFFFFFFFFFFFFFFFFFFFFFF AND DUP2 MSTORE PUSH1 0x20 ADD SWAP1 DUP2 MSTORE PUSH1 0x20 ADD PUSH1 0x0 KECCAK256 PUSH1 0x0 DUP8 DUP2 MSTORE PUSH1 0x20 ADD SWAP1 DUP2 MSTORE PUSH1 0x20 ADD PUSH1 0x0 KECCAK256 PUSH1 0x0 SWAP1 SLOAD SWAP1 PUSH2 0x100 EXP SWAP1 DIV PUSH1 0xFF AND PUSH1 0xFF AND DUP5 PUSH2 0xF3C SWAP2 SWAP1 PUSH2 0x2A70 JUMP JUMPDEST SWAP4 POP DUP3 DUP1 PUSH2 0xF49 SWAP1 PUSH2 0x2D27 JUMP JUMPDEST SWAP4 POP POP JUMPDEST POP DUP1 DUP1 PUSH2 0xF59 SWAP1 PUSH2 0x2D27 JUMP JUMPDEST SWAP2 POP POP PUSH2 0xDF6 JUMP JUMPDEST POP DUP1 PUSH1 0x64 DUP4 PUSH2 0xF70 SWAP2 SWAP1 PUSH2 0x2AF7 JUMP JUMPDEST PUSH2 0xF7A SWAP2 SWAP1 PUSH2 0x2AC6 JUMP JUMPDEST SWAP3 POP POP POP SWAP2 SWAP1 POP JUMP JUMPDEST PUSH1 0x60 DUP1 PUSH1 0x0 DUP1 PUSH1 0x0 DUP1 PUSH1 0x3 PUSH1 0x0 DUP9 DUP2 MSTORE PUSH1 0x20 ADD SWAP1 DUP2 MSTORE PUSH1 0x20 ADD PUSH1 0x0 KECCAK256 PUSH1 0x40 MLOAD DUP1 PUSH2 0x140 ADD PUSH1 0x40 MSTORE SWAP1 DUP2 PUSH1 0x0 DUP3 ADD SLOAD DUP2 MSTORE PUSH1 0x20 ADD PUSH1 0x1 DUP3 ADD DUP1 SLOAD PUSH2 0xFC5 SWAP1 PUSH2 0x2CC4 JUMP JUMPDEST DUP1 PUSH1 0x1F ADD PUSH1 0x20 DUP1 SWAP2 DIV MUL PUSH1 0x20 ADD PUSH1 0x40 MLOAD SWAP1 DUP2 ADD PUSH1 0x40 MSTORE DUP1 SWAP3 SWAP2 SWAP1 DUP2 DUP2 MSTORE PUSH1 0x20 ADD DUP3 DUP1 SLOAD PUSH2 0xFF1 SWAP1 PUSH2 0x2CC4 JUMP JUMPDEST DUP1 ISZERO PUSH2 0x103E JUMPI DUP1 PUSH1 0x1F LT PUSH2 0x1013 JUMPI PUSH2 0x100 DUP1 DUP4 SLOAD DIV MUL DUP4 MSTORE SWAP2 PUSH1 0x20 ADD SWAP2 PUSH2 0x103E JUMP JUMPDEST DUP3 ADD SWAP2 SWAP1 PUSH1 0x0 MSTORE PUSH1 0x20 PUSH1 0x0 KECCAK256 SWAP1 JUMPDEST DUP2 SLOAD DUP2 MSTORE SWAP1 PUSH1 0x1 ADD SWAP1 PUSH1 0x20 ADD DUP1 DUP4 GT PUSH2 0x1021 JUMPI DUP3 SWAP1 SUB PUSH1 0x1F AND DUP3 ADD SWAP2 JUMPDEST POP POP POP POP POP DUP2 MSTORE PUSH1 0x20 ADD PUSH1 0x2 DUP3 ADD DUP1 SLOAD PUSH2 0x1057 SWAP1 PUSH2 0x2CC4 JUMP JUMPDEST DUP1 PUSH1 0x1F ADD PUSH1 0x20 DUP1 SWAP2 DIV MUL PUSH1 0x20 ADD PUSH1 0x40 MLOAD SWAP1 DUP2 ADD PUSH1 0x40 MSTORE DUP1 SWAP3 SWAP2 SWAP1 DUP2 DUP2 MSTORE PUSH1 0x20 ADD DUP3 DUP1 SLOAD PUSH2 0x1083 SWAP1 PUSH2 0x2CC4 JUMP JUMPDEST DUP1 ISZERO PUSH2 0x10D0 JUMPI DUP1 PUSH1 0x1F LT PUSH2 0x10A5 JUMPI PUSH2 0x100 DUP1 DUP4 SLOAD DIV MUL DUP4 MSTORE SWAP2 PUSH1 0x20 ADD SWAP2 PUSH2 0x10D0 JUMP JUMPDEST DUP3 ADD SWAP2 SWAP1 PUSH1 0x0 MSTORE PUSH1 0x20 PUSH1 0x0 KECCAK256 SWAP1 JUMPDEST DUP2 SLOAD DUP2 MSTORE SWAP1 PUSH1 0x1 ADD SWAP1 PUSH1 0x20 ADD DUP1 DUP4 GT PUSH2 0x10B3 JUMPI DUP3 SWAP1 SUB PUSH1 0x1F AND DUP3 ADD SWAP2 JUMPDEST POP POP POP POP POP DUP2 MSTORE PUSH1 0x20 ADD PUSH1 0x3 DUP3 ADD SLOAD DUP2 MSTORE PUSH1 0x20 ADD PUSH1 0x4 DUP3 ADD PUSH1 0x0 SWAP1 SLOAD SWAP1 PUSH2 0x100 EXP SWAP1 DIV PUSH20 0xFFFFFFFFFFFFFFFFFFFFFFFFFFFFFFFFFFFFFFFF AND PUSH20 0xFFFFFFFFFFFFFFFFFFFFFFFFFFFFFFFFFFFFFFFF AND PUSH20 0xFFFFFFFFFFFFFFFFFFFFFFFFFFFFFFFFFFFFFFFF AND DUP2 MSTORE PUSH1 0x20 ADD PUSH1 0x5 DUP3 ADD DUP1 SLOAD PUSH2 0x1149 SWAP1 PUSH2 0x2CC4 JUMP JUMPDEST DUP1 PUSH1 0x1F ADD PUSH1 0x20 DUP1 SWAP2 DIV MUL PUSH1 0x20 ADD PUSH1 0x40 MLOAD SWAP1 DUP2 ADD PUSH1 0x40 MSTORE DUP1 SWAP3 SWAP2 SWAP1 DUP2 DUP2 MSTORE PUSH1 0x20 ADD DUP3 DUP1 SLOAD PUSH2 0x1175 SWAP1 PUSH2 0x2CC4 JUMP JUMPDEST DUP1 ISZERO PUSH2 0x11C2 JUMPI DUP1 PUSH1 0x1F LT PUSH2 0x1197 JUMPI PUSH2 0x100 DUP1 DUP4 SLOAD DIV MUL DUP4 MSTORE SWAP2 PUSH1 0x20 ADD SWAP2 PUSH2 0x11C2 JUMP JUMPDEST DUP3 ADD SWAP2 SWAP1 PUSH1 0x0 MSTORE PUSH1 0x20 PUSH1 0x0 KECCAK256 SWAP1 JUMPDEST DUP2 SLOAD DUP2 MSTORE SWAP1 PUSH1 0x1 ADD SWAP1 PUSH1 0x20 ADD DUP1 DUP4 GT PUSH2 0x11A5 JUMPI DUP3 SWAP1 SUB PUSH1 0x1F AND DUP3 ADD SWAP2 JUMPDEST POP POP POP POP POP DUP2 MSTORE PUSH1 0x20 ADD PUSH1 0x6 DUP3 ADD PUSH1 0x0 SWAP1 SLOAD SWAP1 PUSH2 0x100 EXP SWAP1 DIV PUSH1 0xFF AND PUSH1 0xFF AND PUSH1 0xFF AND DUP2 MSTORE PUSH1 0x20 ADD PUSH1 0x7 DUP3 ADD SLOAD DUP2 MSTORE PUSH1 0x20 ADD PUSH1 0x8 DUP3 ADD SLOAD DUP2 MSTORE PUSH1 0x20 ADD PUSH1 0x9 DUP3 ADD PUSH1 0x0 SWAP1 SLOAD SWAP1 PUSH2 0x100 EXP SWAP1 DIV PUSH1 0xFF AND ISZERO ISZERO ISZERO ISZERO DUP2 MSTORE POP POP SWAP1 POP DUP1 PUSH1 0x40 ADD MLOAD DUP2 PUSH1 0xA0 ADD MLOAD DUP3 PUSH1 0xC0 ADD MLOAD DUP4 PUSH1 0xE0 ADD MLOAD DUP5 PUSH2 0x100 ADD MLOAD SWAP6 POP SWAP6 POP SWAP6 POP SWAP6 POP SWAP6 POP POP SWAP2 SWAP4 SWAP6 SWAP1 SWAP3 SWAP5 POP JUMP JUMPDEST DUP2 PUSH1 0x3 PUSH1 0x0 DUP3 DUP2 MSTORE PUSH1 0x20 ADD SWAP1 DUP2 MSTORE PUSH1 0x20 ADD PUSH1 0x0 KECCAK256 PUSH1 0x4 ADD PUSH1 0x0 SWAP1 SLOAD SWAP1 PUSH2 0x100 EXP SWAP1 DIV PUSH20 0xFFFFFFFFFFFFFFFFFFFFFFFFFFFFFFFFFFFFFFFF AND PUSH20 0xFFFFFFFFFFFFFFFFFFFFFFFFFFFFFFFFFFFFFFFF AND CALLER PUSH20 0xFFFFFFFFFFFFFFFFFFFFFFFFFFFFFFFFFFFFFFFF AND EQ PUSH2 0x12EC JUMPI PUSH1 0x40 MLOAD PUSH32 0x8C379A000000000000000000000000000000000000000000000000000000000 DUP2 MSTORE PUSH1 0x4 ADD PUSH2 0x12E3 SWAP1 PUSH2 0x2873 JUMP JUMPDEST PUSH1 0x40 MLOAD DUP1 SWAP2 SUB SWAP1 REVERT JUMPDEST DUP2 PUSH1 0x3 PUSH1 0x0 DUP6 DUP2 MSTORE PUSH1 0x20 ADD SWAP1 DUP2 MSTORE PUSH1 0x20 ADD PUSH1 0x0 KECCAK256 PUSH1 0x2 ADD SWAP1 DUP1 MLOAD SWAP1 PUSH1 0x20 ADD SWAP1 PUSH2 0x1316 SWAP3 SWAP2 SWAP1 PUSH2 0x1F15 JUMP JUMPDEST POP TIMESTAMP PUSH1 0x3 PUSH1 0x0 DUP6 DUP2 MSTORE PUSH1 0x20 ADD SWAP1 DUP2 MSTORE PUSH1 0x20 ADD PUSH1 0x0 KECCAK256 PUSH1 0x8 ADD DUP2 SWAP1 SSTORE POP POP POP POP JUMP JUMPDEST PUSH1 0x0 DUP1 PUSH1 0x0 DUP5 DUP2 MSTORE PUSH1 0x20 ADD SWAP1 DUP2 MSTORE PUSH1 0x20 ADD PUSH1 0x0 KECCAK256 PUSH1 0x0 ADD PUSH1 0x0 DUP4 PUSH20 0xFFFFFFFFFFFFFFFFFFFFFFFFFFFFFFFFFFFFFFFF AND PUSH20 0xFFFFFFFFFFFFFFFFFFFFFFFFFFFFFFFFFFFFFFFF AND DUP2 MSTORE PUSH1 0x20 ADD SWAP1 DUP2 MSTORE PUSH1 0x20 ADD PUSH1 0x0 KECCAK256 PUSH1 0x0 SWAP1 SLOAD SWAP1 PUSH2 0x100 EXP SWAP1 DIV PUSH1 0xFF AND SWAP1 POP SWAP3 SWAP2 POP POP JUMP JUMPDEST PUSH1 0x0 DUP1 SHL DUP2 JUMP JUMPDEST DUP2 PUSH1 0x3 PUSH1 0x0 DUP3 DUP2 MSTORE PUSH1 0x20 ADD SWAP1 DUP2 MSTORE PUSH1 0x20 ADD PUSH1 0x0 KECCAK256 PUSH1 0x4 ADD PUSH1 0x0 SWAP1 SLOAD SWAP1 PUSH2 0x100 EXP SWAP1 DIV PUSH20 0xFFFFFFFFFFFFFFFFFFFFFFFFFFFFFFFFFFFFFFFF AND PUSH20 0xFFFFFFFFFFFFFFFFFFFFFFFFFFFFFFFFFFFFFFFF AND CALLER PUSH20 0xFFFFFFFFFFFFFFFFFFFFFFFFFFFFFFFFFFFFFFFF AND EQ PUSH2 0x144D JUMPI PUSH1 0x40 MLOAD PUSH32 0x8C379A000000000000000000000000000000000000000000000000000000000 DUP2 MSTORE PUSH1 0x4 ADD PUSH2 0x1444 SWAP1 PUSH2 0x2873 JUMP JUMPDEST PUSH1 0x40 MLOAD DUP1 SWAP2 SUB SWAP1 REVERT JUMPDEST DUP2 PUSH1 0x3 PUSH1 0x0 DUP6 DUP2 MSTORE PUSH1 0x20 ADD SWAP1 DUP2 MSTORE PUSH1 0x20 ADD PUSH1 0x0 KECCAK256 PUSH1 0x3 ADD DUP2 SWAP1 SSTORE POP TIMESTAMP PUSH1 0x3 PUSH1 0x0 DUP6 DUP2 MSTORE PUSH1 0x20 ADD SWAP1 DUP2 MSTORE PUSH1 0x20 ADD PUSH1 0x0 KECCAK256 PUSH1 0x8 ADD DUP2 SWAP1 SSTORE POP POP POP POP JUMP JUMPDEST PUSH32 0x1F9CA85E780B3B3CFBE1334CA9DD68802DB7860F692BD163C796BB76D464EDC0 DUP2 JUMP JUMPDEST DUP2 PUSH1 0x3 PUSH1 0x0 DUP3 DUP2 MSTORE PUSH1 0x20 ADD SWAP1 DUP2 MSTORE PUSH1 0x20 ADD PUSH1 0x0 KECCAK256 PUSH1 0x4 ADD PUSH1 0x0 SWAP1 SLOAD SWAP1 PUSH2 0x100 EXP SWAP1 DIV PUSH20 0xFFFFFFFFFFFFFFFFFFFFFFFFFFFFFFFFFFFFFFFF AND PUSH20 0xFFFFFFFFFFFFFFFFFFFFFFFFFFFFFFFFFFFFFFFF AND CALLER PUSH20 0xFFFFFFFFFFFFFFFFFFFFFFFFFFFFFFFFFFFFFFFF AND EQ PUSH2 0x1551 JUMPI PUSH1 0x40 MLOAD PUSH32 0x8C379A000000000000000000000000000000000000000000000000000000000 DUP2 MSTORE PUSH1 0x4 ADD PUSH2 0x1548 SWAP1 PUSH2 0x2873 JUMP JUMPDEST PUSH1 0x40 MLOAD DUP1 SWAP2 SUB SWAP1 REVERT JUMPDEST DUP2 PUSH1 0x3 PUSH1 0x0 DUP6 DUP2 MSTORE PUSH1 0x20 ADD SWAP1 DUP2 MSTORE PUSH1 0x20 ADD PUSH1 0x0 KECCAK256 PUSH1 0x9 ADD PUSH1 0x0 PUSH2 0x100 EXP DUP2 SLOAD DUP2 PUSH1 0xFF MUL NOT AND SWAP1 DUP4 ISZERO ISZERO MUL OR SWAP1 SSTORE POP TIMESTAMP PUSH1 0x3 PUSH1 0x0 DUP6 DUP2 MSTORE PUSH1 0x20 ADD SWAP1 DUP2 MSTORE PUSH1 0x20 ADD PUSH1 0x0 KECCAK256 PUSH1 0x8 ADD DUP2 SWAP1 SSTORE POP POP POP POP JUMP JUMPDEST PUSH1 0x60 PUSH1 0x0 DUP1 PUSH1 0x0 PUSH1 0x3 PUSH1 0x0 DUP7 DUP2 MSTORE PUSH1 0x20 ADD SWAP1 DUP2 MSTORE PUSH1 0x20 ADD PUSH1 0x0 KECCAK256 PUSH1 0x1 ADD PUSH1 0x3 PUSH1 0x0 DUP8 DUP2 MSTORE PUSH1 0x20 ADD SWAP1 DUP2 MSTORE PUSH1 0x20 ADD PUSH1 0x0 KECCAK256 PUSH1 0x4 ADD PUSH1 0x0 SWAP1 SLOAD SWAP1 PUSH2 0x100 EXP SWAP1 DIV PUSH20 0xFFFFFFFFFFFFFFFFFFFFFFFFFFFFFFFFFFFFFFFF AND PUSH1 0x3 PUSH1 0x0 DUP9 DUP2 MSTORE PUSH1 0x20 ADD SWAP1 DUP2 MSTORE PUSH1 0x20 ADD PUSH1 0x0 KECCAK256 PUSH1 0x3 ADD SLOAD PUSH1 0x3 PUSH1 0x0 DUP10 DUP2 MSTORE PUSH1 0x20 ADD SWAP1 DUP2 MSTORE PUSH1 0x20 ADD PUSH1 0x0 KECCAK256 PUSH1 0x9 ADD PUSH1 0x0 SWAP1 SLOAD SWAP1 PUSH2 0x100 EXP SWAP1 DIV PUSH1 0xFF AND DUP4 DUP1 SLOAD PUSH2 0x163A SWAP1 PUSH2 0x2CC4 JUMP JUMPDEST DUP1 PUSH1 0x1F ADD PUSH1 0x20 DUP1 SWAP2 DIV MUL PUSH1 0x20 ADD PUSH1 0x40 MLOAD SWAP1 DUP2 ADD PUSH1 0x40 MSTORE DUP1 SWAP3 SWAP2 SWAP1 DUP2 DUP2 MSTORE PUSH1 0x20 ADD DUP3 DUP1 SLOAD PUSH2 0x1666 SWAP1 PUSH2 0x2CC4 JUMP JUMPDEST DUP1 ISZERO PUSH2 0x16B3 JUMPI DUP1 PUSH1 0x1F LT PUSH2 0x1688 JUMPI PUSH2 0x100 DUP1 DUP4 SLOAD DIV MUL DUP4 MSTORE SWAP2 PUSH1 0x20 ADD SWAP2 PUSH2 0x16B3 JUMP JUMPDEST DUP3 ADD SWAP2 SWAP1 PUSH1 0x0 MSTORE PUSH1 0x20 PUSH1 0x0 KECCAK256 SWAP1 JUMPDEST DUP2 SLOAD DUP2 MSTORE SWAP1 PUSH1 0x1 ADD SWAP1 PUSH1 0x20 ADD DUP1 DUP4 GT PUSH2 0x1696 JUMPI DUP3 SWAP1 SUB PUSH1 0x1F AND DUP3 ADD SWAP2 JUMPDEST POP POP POP POP POP SWAP4 POP SWAP4 POP SWAP4 POP SWAP4 POP SWAP4 POP SWAP2 SWAP4 POP SWAP2 SWAP4 JUMP JUMPDEST PUSH2 0x16D2 DUP3 PUSH2 0xAC4 JUMP JUMPDEST PUSH2 0x16E3 DUP2 PUSH2 0x16DE PUSH2 0x19EB JUMP JUMPDEST PUSH2 0x19F3 JUMP JUMPDEST PUSH2 0x16ED DUP4 DUP4 PUSH2 0x1B70 JUMP JUMPDEST POP POP POP JUMP JUMPDEST DUP2 PUSH1 0x3 PUSH1 0x0 DUP3 DUP2 MSTORE PUSH1 0x20 ADD SWAP1 DUP2 MSTORE PUSH1 0x20 ADD PUSH1 0x0 KECCAK256 PUSH1 0x4 ADD PUSH1 0x0 SWAP1 SLOAD SWAP1 PUSH2 0x100 EXP SWAP1 DIV PUSH20 0xFFFFFFFFFFFFFFFFFFFFFFFFFFFFFFFFFFFFFFFF AND PUSH20 0xFFFFFFFFFFFFFFFFFFFFFFFFFFFFFFFFFFFFFFFF AND CALLER PUSH20 0xFFFFFFFFFFFFFFFFFFFFFFFFFFFFFFFFFFFFFFFF AND EQ PUSH2 0x1797 JUMPI PUSH1 0x40 MLOAD PUSH32 0x8C379A000000000000000000000000000000000000000000000000000000000 DUP2 MSTORE PUSH1 0x4 ADD PUSH2 0x178E SWAP1 PUSH2 0x2873 JUMP JUMPDEST PUSH1 0x40 MLOAD DUP1 SWAP2 SUB SWAP1 REVERT JUMPDEST DUP2 PUSH1 0x3 PUSH1 0x0 DUP6 DUP2 MSTORE PUSH1 0x20 ADD SWAP1 DUP2 MSTORE PUSH1 0x20 ADD PUSH1 0x0 KECCAK256 PUSH1 0x6 ADD PUSH1 0x0 PUSH2 0x100 EXP DUP2 SLOAD DUP2 PUSH1 0xFF MUL NOT AND SWAP1 DUP4 PUSH1 0xFF AND MUL OR SWAP1 SSTORE POP TIMESTAMP PUSH1 0x3 PUSH1 0x0 DUP6 DUP2 MSTORE PUSH1 0x20 ADD SWAP1 DUP2 MSTORE PUSH1 0x20 ADD PUSH1 0x0 KECCAK256 PUSH1 0x8 ADD DUP2 SWAP1 SSTORE POP POP POP POP JUMP JUMPDEST DUP2 PUSH1 0x3 PUSH1 0x0 DUP3 DUP2 MSTORE PUSH1 0x20 ADD SWAP1 DUP2 MSTORE PUSH1 0x20 ADD PUSH1 0x0 KECCAK256 PUSH1 0x4 ADD PUSH1 0x0 SWAP1 SLOAD SWAP1 PUSH2 0x100 EXP SWAP1 DIV PUSH20 0xFFFFFFFFFFFFFFFFFFFFFFFFFFFFFFFFFFFFFFFF AND PUSH20 0xFFFFFFFFFFFFFFFFFFFFFFFFFFFFFFFFFFFFFFFF AND CALLER PUSH20 0xFFFFFFFFFFFFFFFFFFFFFFFFFFFFFFFFFFFFFFFF AND EQ PUSH2 0x188B JUMPI PUSH1 0x40 MLOAD PUSH32 0x8C379A000000000000000000000000000000000000000000000000000000000 DUP2 MSTORE PUSH1 0x4 ADD PUSH2 0x1882 SWAP1 PUSH2 0x2873 JUMP JUMPDEST PUSH1 0x40 MLOAD DUP1 SWAP2 SUB SWAP1 REVERT JUMPDEST DUP2 PUSH1 0x3 PUSH1 0x0 DUP6 DUP2 MSTORE PUSH1 0x20 ADD SWAP1 DUP2 MSTORE PUSH1 0x20 ADD PUSH1 0x0 KECCAK256 PUSH1 0x5 ADD SWAP1 DUP1 MLOAD SWAP1 PUSH1 0x20 ADD SWAP1 PUSH2 0x18B5 SWAP3 SWAP2 SWAP1 PUSH2 0x1F15 JUMP JUMPDEST POP TIMESTAMP PUSH1 0x3 PUSH1 0x0 DUP6 DUP2 MSTORE PUSH1 0x20 ADD SWAP1 DUP2 MSTORE PUSH1 0x20 ADD PUSH1 0x0 KECCAK256 PUSH1 0x8 ADD DUP2 SWAP1 SSTORE POP POP POP POP JUMP JUMPDEST PUSH1 0x0 PUSH2 0x1979 PUSH1 0x2 PUSH1 0x0 DUP6 DUP2 MSTORE PUSH1 0x20 ADD SWAP1 DUP2 MSTORE PUSH1 0x20 ADD PUSH1 0x0 KECCAK256 DUP1 SLOAD DUP1 PUSH1 0x20 MUL PUSH1 0x20 ADD PUSH1 0x40 MLOAD SWAP1 DUP2 ADD PUSH1 0x40 MSTORE DUP1 SWAP3 SWAP2 SWAP1 DUP2 DUP2 MSTORE PUSH1 0x20 ADD DUP3 DUP1 SLOAD DUP1 ISZERO PUSH2 0x196E JUMPI PUSH1 0x20 MUL DUP3 ADD SWAP2 SWAP1 PUSH1 0x0 MSTORE PUSH1 0x20 PUSH1 0x0 KECCAK256 SWAP1 JUMPDEST DUP2 PUSH1 0x0 SWAP1 SLOAD SWAP1 PUSH2 0x100 EXP SWAP1 DIV PUSH20 0xFFFFFFFFFFFFFFFFFFFFFFFFFFFFFFFFFFFFFFFF AND PUSH20 0xFFFFFFFFFFFFFFFFFFFFFFFFFFFFFFFFFFFFFFFF AND DUP2 MSTORE PUSH1 0x20 ADD SWAP1 PUSH1 0x1 ADD SWAP1 DUP1 DUP4 GT PUSH2 0x1924 JUMPI JUMPDEST POP POP POP POP POP DUP4 PUSH2 0x1C51 JUMP JUMPDEST SWAP1 POP SWAP3 SWAP2 POP POP JUMP JUMPDEST PUSH1 0x0 PUSH32 0x1FFC9A700000000000000000000000000000000000000000000000000000000 PUSH28 0xFFFFFFFFFFFFFFFFFFFFFFFFFFFFFFFFFFFFFFFFFFFFFFFFFFFFFFFF NOT AND DUP3 PUSH28 0xFFFFFFFFFFFFFFFFFFFFFFFFFFFFFFFFFFFFFFFFFFFFFFFFFFFFFFFF NOT AND EQ SWAP1 POP SWAP2 SWAP1 POP JUMP JUMPDEST PUSH1 0x0 CALLER SWAP1 POP SWAP1 JUMP JUMPDEST PUSH2 0x19FD DUP3 DUP3 PUSH2 0x1337 JUMP JUMPDEST PUSH2 0x1A8C JUMPI PUSH2 0x1A22 DUP2 PUSH20 0xFFFFFFFFFFFFFFFFFFFFFFFFFFFFFFFFFFFFFFFF AND PUSH1 0x14 PUSH2 0x1CD9 JUMP JUMPDEST PUSH2 0x1A30 DUP4 PUSH1 0x0 SHR PUSH1 0x20 PUSH2 0x1CD9 JUMP JUMPDEST PUSH1 0x40 MLOAD PUSH1 0x20 ADD PUSH2 0x1A41 SWAP3 SWAP2 SWAP1 PUSH2 0x26B4 JUMP JUMPDEST PUSH1 0x40 MLOAD PUSH1 0x20 DUP2 DUP4 SUB SUB DUP2 MSTORE SWAP1 PUSH1 0x40 MSTORE PUSH1 0x40 MLOAD PUSH32 0x8C379A000000000000000000000000000000000000000000000000000000000 DUP2 MSTORE PUSH1 0x4 ADD PUSH2 0x1A83 SWAP2 SWAP1 PUSH2 0x2724 JUMP JUMPDEST PUSH1 0x40 MLOAD DUP1 SWAP2 SUB SWAP1 REVERT JUMPDEST POP POP JUMP JUMPDEST PUSH2 0x1A9A DUP3 DUP3 PUSH2 0x1337 JUMP JUMPDEST PUSH2 0x1B6C JUMPI PUSH1 0x1 PUSH1 0x0 DUP1 DUP5 DUP2 MSTORE PUSH1 0x20 ADD SWAP1 DUP2 MSTORE PUSH1 0x20 ADD PUSH1 0x0 KECCAK256 PUSH1 0x0 ADD PUSH1 0x0 DUP4 PUSH20 0xFFFFFFFFFFFFFFFFFFFFFFFFFFFFFFFFFFFFFFFF AND PUSH20 0xFFFFFFFFFFFFFFFFFFFFFFFFFFFFFFFFFFFFFFFF AND DUP2 MSTORE PUSH1 0x20 ADD SWAP1 DUP2 MSTORE PUSH1 0x20 ADD PUSH1 0x0 KECCAK256 PUSH1 0x0 PUSH2 0x100 EXP DUP2 SLOAD DUP2 PUSH1 0xFF MUL NOT AND SWAP1 DUP4 ISZERO ISZERO MUL OR SWAP1 SSTORE POP PUSH2 0x1B11 PUSH2 0x19EB JUMP JUMPDEST PUSH20 0xFFFFFFFFFFFFFFFFFFFFFFFFFFFFFFFFFFFFFFFF AND DUP2 PUSH20 0xFFFFFFFFFFFFFFFFFFFFFFFFFFFFFFFFFFFFFFFF AND DUP4 PUSH32 0x2F8788117E7EFF1D82E926EC794901D17C78024A50270940304540A733656F0D PUSH1 0x40 MLOAD PUSH1 0x40 MLOAD DUP1 SWAP2 SUB SWAP1 LOG4 JUMPDEST POP POP JUMP JUMPDEST PUSH2 0x1B7A DUP3 DUP3 PUSH2 0x1337 JUMP JUMPDEST ISZERO PUSH2 0x1C4D JUMPI PUSH1 0x0 DUP1 PUSH1 0x0 DUP5 DUP2 MSTORE PUSH1 0x20 ADD SWAP1 DUP2 MSTORE PUSH1 0x20 ADD PUSH1 0x0 KECCAK256 PUSH1 0x0 ADD PUSH1 0x0 DUP4 PUSH20 0xFFFFFFFFFFFFFFFFFFFFFFFFFFFFFFFFFFFFFFFF AND PUSH20 0xFFFFFFFFFFFFFFFFFFFFFFFFFFFFFFFFFFFFFFFF AND DUP2 MSTORE PUSH1 0x20 ADD SWAP1 DUP2 MSTORE PUSH1 0x20 ADD PUSH1 0x0 KECCAK256 PUSH1 0x0 PUSH2 0x100 EXP DUP2 SLOAD DUP2 PUSH1 0xFF MUL NOT AND SWAP1 DUP4 ISZERO ISZERO MUL OR SWAP1 SSTORE POP PUSH2 0x1BF2 PUSH2 0x19EB JUMP JUMPDEST PUSH20 0xFFFFFFFFFFFFFFFFFFFFFFFFFFFFFFFFFFFFFFFF AND DUP2 PUSH20 0xFFFFFFFFFFFFFFFFFFFFFFFFFFFFFFFFFFFFFFFF AND DUP4 PUSH32 0xF6391F5C32D9C69D2A47EA670B442974B53935D1EDC7FD64EB21E047A839171B PUSH1 0x40 MLOAD PUSH1 0x40 MLOAD DUP1 SWAP2 SUB SWAP1 LOG4 JUMPDEST POP POP JUMP JUMPDEST PUSH1 0x0 DUP1 PUSH1 0x0 SWAP1 POP JUMPDEST DUP4 MLOAD DUP2 LT ISZERO PUSH2 0x1CCD JUMPI DUP3 PUSH20 0xFFFFFFFFFFFFFFFFFFFFFFFFFFFFFFFFFFFFFFFF AND DUP5 DUP3 DUP2 MLOAD DUP2 LT PUSH2 0x1C8C JUMPI PUSH2 0x1C8B PUSH2 0x2DFD JUMP JUMPDEST JUMPDEST PUSH1 0x20 MUL PUSH1 0x20 ADD ADD MLOAD PUSH20 0xFFFFFFFFFFFFFFFFFFFFFFFFFFFFFFFFFFFFFFFF AND EQ ISZERO PUSH2 0x1CBA JUMPI PUSH1 0x1 SWAP2 POP POP PUSH2 0x1CD3 JUMP JUMPDEST DUP1 DUP1 PUSH2 0x1CC5 SWAP1 PUSH2 0x2D27 JUMP JUMPDEST SWAP2 POP POP PUSH2 0x1C59 JUMP JUMPDEST POP PUSH1 0x0 SWAP1 POP JUMPDEST SWAP3 SWAP2 POP POP JUMP JUMPDEST PUSH1 0x60 PUSH1 0x0 PUSH1 0x2 DUP4 PUSH1 0x2 PUSH2 0x1CEC SWAP2 SWAP1 PUSH2 0x2AF7 JUMP JUMPDEST PUSH2 0x1CF6 SWAP2 SWAP1 PUSH2 0x2A70 JUMP JUMPDEST PUSH8 0xFFFFFFFFFFFFFFFF DUP2 GT ISZERO PUSH2 0x1D0F JUMPI PUSH2 0x1D0E PUSH2 0x2E2C JUMP JUMPDEST JUMPDEST PUSH1 0x40 MLOAD SWAP1 DUP1 DUP3 MSTORE DUP1 PUSH1 0x1F ADD PUSH1 0x1F NOT AND PUSH1 0x20 ADD DUP3 ADD PUSH1 0x40 MSTORE DUP1 ISZERO PUSH2 0x1D41 JUMPI DUP2 PUSH1 0x20 ADD PUSH1 0x1 DUP3 MUL DUP1 CALLDATASIZE DUP4 CALLDATACOPY DUP1 DUP3 ADD SWAP2 POP POP SWAP1 POP JUMPDEST POP SWAP1 POP PUSH32 0x3000000000000000000000000000000000000000000000000000000000000000 DUP2 PUSH1 0x0 DUP2 MLOAD DUP2 LT PUSH2 0x1D79 JUMPI PUSH2 0x1D78 PUSH2 0x2DFD JUMP JUMPDEST JUMPDEST PUSH1 0x20 ADD ADD SWAP1 PUSH31 0xFFFFFFFFFFFFFFFFFFFFFFFFFFFFFFFFFFFFFFFFFFFFFFFFFFFFFFFFFFFFFF NOT AND SWAP1 DUP2 PUSH1 0x0 BYTE SWAP1 MSTORE8 POP PUSH32 0x7800000000000000000000000000000000000000000000000000000000000000 DUP2 PUSH1 0x1 DUP2 MLOAD DUP2 LT PUSH2 0x1DDD JUMPI PUSH2 0x1DDC PUSH2 0x2DFD JUMP JUMPDEST JUMPDEST PUSH1 0x20 ADD ADD SWAP1 PUSH31 0xFFFFFFFFFFFFFFFFFFFFFFFFFFFFFFFFFFFFFFFFFFFFFFFFFFFFFFFFFFFFFF NOT AND SWAP1 DUP2 PUSH1 0x0 BYTE SWAP1 MSTORE8 POP PUSH1 0x0 PUSH1 0x1 DUP5 PUSH1 0x2 PUSH2 0x1E1D SWAP2 SWAP1 PUSH2 0x2AF7 JUMP JUMPDEST PUSH2 0x1E27 SWAP2 SWAP1 PUSH2 0x2A70 JUMP JUMPDEST SWAP1 POP JUMPDEST PUSH1 0x1 DUP2 GT ISZERO PUSH2 0x1EC7 JUMPI PUSH32 0x3031323334353637383961626364656600000000000000000000000000000000 PUSH1 0xF DUP7 AND PUSH1 0x10 DUP2 LT PUSH2 0x1E69 JUMPI PUSH2 0x1E68 PUSH2 0x2DFD JUMP JUMPDEST JUMPDEST BYTE PUSH1 0xF8 SHL DUP3 DUP3 DUP2 MLOAD DUP2 LT PUSH2 0x1E80 JUMPI PUSH2 0x1E7F PUSH2 0x2DFD JUMP JUMPDEST JUMPDEST PUSH1 0x20 ADD ADD SWAP1 PUSH31 0xFFFFFFFFFFFFFFFFFFFFFFFFFFFFFFFFFFFFFFFFFFFFFFFFFFFFFFFFFFFFFF NOT AND SWAP1 DUP2 PUSH1 0x0 BYTE SWAP1 MSTORE8 POP PUSH1 0x4 DUP6 SWAP1 SHR SWAP5 POP DUP1 PUSH2 0x1EC0 SWAP1 PUSH2 0x2C9A JUMP JUMPDEST SWAP1 POP PUSH2 0x1E2A JUMP JUMPDEST POP PUSH1 0x0 DUP5 EQ PUSH2 0x1F0B JUMPI PUSH1 0x40 MLOAD PUSH32 0x8C379A000000000000000000000000000000000000000000000000000000000 DUP2 MSTORE PUSH1 0x4 ADD PUSH2 0x1F02 SWAP1 PUSH2 0x2833 JUMP JUMPDEST PUSH1 0x40 MLOAD DUP1 SWAP2 SUB SWAP1 REVERT JUMPDEST DUP1 SWAP2 POP POP SWAP3 SWAP2 POP POP JUMP JUMPDEST DUP3 DUP1 SLOAD PUSH2 0x1F21 SWAP1 PUSH2 0x2CC4 JUMP JUMPDEST SWAP1 PUSH1 0x0 MSTORE PUSH1 0x20 PUSH1 0x0 KECCAK256 SWAP1 PUSH1 0x1F ADD PUSH1 0x20 SWAP1 DIV DUP2 ADD SWAP3 DUP3 PUSH2 0x1F43 JUMPI PUSH1 0x0 DUP6 SSTORE PUSH2 0x1F8A JUMP JUMPDEST DUP3 PUSH1 0x1F LT PUSH2 0x1F5C JUMPI DUP1 MLOAD PUSH1 0xFF NOT AND DUP4 DUP1 ADD OR DUP6 SSTORE PUSH2 0x1F8A JUMP JUMPDEST DUP3 DUP1 ADD PUSH1 0x1 ADD DUP6 SSTORE DUP3 ISZERO PUSH2 0x1F8A JUMPI SWAP2 DUP3 ADD JUMPDEST DUP3 DUP2 GT ISZERO PUSH2 0x1F89 JUMPI DUP3 MLOAD DUP3 SSTORE SWAP2 PUSH1 0x20 ADD SWAP2 SWAP1 PUSH1 0x1 ADD SWAP1 PUSH2 0x1F6E JUMP JUMPDEST JUMPDEST POP SWAP1 POP PUSH2 0x1F97 SWAP2 SWAP1 PUSH2 0x1F9B JUMP JUMPDEST POP SWAP1 JUMP JUMPDEST JUMPDEST DUP1 DUP3 GT ISZERO PUSH2 0x1FB4 JUMPI PUSH1 0x0 DUP2 PUSH1 0x0 SWAP1 SSTORE POP PUSH1 0x1 ADD PUSH2 0x1F9C JUMP JUMPDEST POP SWAP1 JUMP JUMPDEST PUSH1 0x0 PUSH2 0x1FCB PUSH2 0x1FC6 DUP5 PUSH2 0x2A18 JUMP JUMPDEST PUSH2 0x29F3 JUMP JUMPDEST SWAP1 POP DUP3 DUP2 MSTORE PUSH1 0x20 DUP2 ADD DUP5 DUP5 DUP5 ADD GT ISZERO PUSH2 0x1FE7 JUMPI PUSH2 0x1FE6 PUSH2 0x2E60 JUMP JUMPDEST JUMPDEST PUSH2 0x1FF2 DUP5 DUP3 DUP6 PUSH2 0x2C58 JUMP JUMPDEST POP SWAP4 SWAP3 POP POP POP JUMP JUMPDEST PUSH1 0x0 DUP2 CALLDATALOAD SWAP1 POP PUSH2 0x2009 DUP2 PUSH2 0x31F1 JUMP JUMPDEST SWAP3 SWAP2 POP POP JUMP JUMPDEST PUSH1 0x0 DUP2 CALLDATALOAD SWAP1 POP PUSH2 0x201E DUP2 PUSH2 0x3208 JUMP JUMPDEST SWAP3 SWAP2 POP POP JUMP JUMPDEST PUSH1 0x0 DUP2 CALLDATALOAD SWAP1 POP PUSH2 0x2033 DUP2 PUSH2 0x321F JUMP JUMPDEST SWAP3 SWAP2 POP POP JUMP JUMPDEST PUSH1 0x0 DUP2 CALLDATALOAD SWAP1 POP PUSH2 0x2048 DUP2 PUSH2 0x3236 JUMP JUMPDEST SWAP3 SWAP2 POP POP JUMP JUMPDEST PUSH1 0x0 DUP2 CALLDATALOAD SWAP1 POP PUSH2 0x205D DUP2 PUSH2 0x324D JUMP JUMPDEST SWAP3 SWAP2 POP POP JUMP JUMPDEST PUSH1 0x0 DUP3 PUSH1 0x1F DUP4 ADD SLT PUSH2 0x2078 JUMPI PUSH2 0x2077 PUSH2 0x2E5B JUMP JUMPDEST JUMPDEST DUP2 CALLDATALOAD PUSH2 0x2088 DUP5 DUP3 PUSH1 0x20 DUP7 ADD PUSH2 0x1FB8 JUMP JUMPDEST SWAP2 POP POP SWAP3 SWAP2 POP POP JUMP JUMPDEST PUSH1 0x0 DUP2 CALLDATALOAD SWAP1 POP PUSH2 0x20A0 DUP2 PUSH2 0x3264 JUMP JUMPDEST SWAP3 SWAP2 POP POP JUMP JUMPDEST PUSH1 0x0 DUP2 CALLDATALOAD SWAP1 POP PUSH2 0x20B5 DUP2 PUSH2 0x327B JUMP JUMPDEST SWAP3 SWAP2 POP POP JUMP JUMPDEST PUSH1 0x0 PUSH1 0x20 DUP3 DUP5 SUB SLT ISZERO PUSH2 0x20D1 JUMPI PUSH2 0x20D0 PUSH2 0x2E6A JUMP JUMPDEST JUMPDEST PUSH1 0x0 PUSH2 0x20DF DUP5 DUP3 DUP6 ADD PUSH2 0x2039 JUMP JUMPDEST SWAP2 POP POP SWAP3 SWAP2 POP POP JUMP JUMPDEST PUSH1 0x0 DUP1 PUSH1 0x40 DUP4 DUP6 SUB SLT ISZERO PUSH2 0x20FF JUMPI PUSH2 0x20FE PUSH2 0x2E6A JUMP JUMPDEST JUMPDEST PUSH1 0x0 PUSH2 0x210D DUP6 DUP3 DUP7 ADD PUSH2 0x2039 JUMP JUMPDEST SWAP3 POP POP PUSH1 0x20 PUSH2 0x211E DUP6 DUP3 DUP7 ADD PUSH2 0x1FFA JUMP JUMPDEST SWAP2 POP POP SWAP3 POP SWAP3 SWAP1 POP JUMP JUMPDEST PUSH1 0x0 PUSH1 0x20 DUP3 DUP5 SUB SLT ISZERO PUSH2 0x213E JUMPI PUSH2 0x213D PUSH2 0x2E6A JUMP JUMPDEST JUMPDEST PUSH1 0x0 PUSH2 0x214C DUP5 DUP3 DUP6 ADD PUSH2 0x204E JUMP JUMPDEST SWAP2 POP POP SWAP3 SWAP2 POP POP JUMP JUMPDEST PUSH1 0x0 DUP1 PUSH1 0x0 DUP1 PUSH1 0x0 DUP1 PUSH1 0x0 PUSH1 0xE0 DUP9 DUP11 SUB SLT ISZERO PUSH2 0x2174 JUMPI PUSH2 0x2173 PUSH2 0x2E6A JUMP JUMPDEST JUMPDEST PUSH1 0x0 DUP9 ADD CALLDATALOAD PUSH8 0xFFFFFFFFFFFFFFFF DUP2 GT ISZERO PUSH2 0x2192 JUMPI PUSH2 0x2191 PUSH2 0x2E65 JUMP JUMPDEST JUMPDEST PUSH2 0x219E DUP11 DUP3 DUP12 ADD PUSH2 0x2063 JUMP JUMPDEST SWAP8 POP POP PUSH1 0x20 DUP9 ADD CALLDATALOAD PUSH8 0xFFFFFFFFFFFFFFFF DUP2 GT ISZERO PUSH2 0x21BF JUMPI PUSH2 0x21BE PUSH2 0x2E65 JUMP JUMPDEST JUMPDEST PUSH2 0x21CB DUP11 DUP3 DUP12 ADD PUSH2 0x2063 JUMP JUMPDEST SWAP7 POP POP PUSH1 0x40 PUSH2 0x21DC DUP11 DUP3 DUP12 ADD PUSH2 0x200F JUMP JUMPDEST SWAP6 POP POP PUSH1 0x60 PUSH2 0x21ED DUP11 DUP3 DUP12 ADD PUSH2 0x2091 JUMP JUMPDEST SWAP5 POP POP PUSH1 0x80 DUP9 ADD CALLDATALOAD PUSH8 0xFFFFFFFFFFFFFFFF DUP2 GT ISZERO PUSH2 0x220E JUMPI PUSH2 0x220D PUSH2 0x2E65 JUMP JUMPDEST JUMPDEST PUSH2 0x221A DUP11 DUP3 DUP12 ADD PUSH2 0x2063 JUMP JUMPDEST SWAP4 POP POP PUSH1 0xA0 PUSH2 0x222B DUP11 DUP3 DUP12 ADD PUSH2 0x20A6 JUMP JUMPDEST SWAP3 POP POP PUSH1 0xC0 PUSH2 0x223C DUP11 DUP3 DUP12 ADD PUSH2 0x2024 JUMP JUMPDEST SWAP2 POP POP SWAP3 SWAP6 SWAP9 SWAP2 SWAP5 SWAP8 POP SWAP3 SWAP6 POP JUMP JUMPDEST PUSH1 0x0 PUSH1 0x20 DUP3 DUP5 SUB SLT ISZERO PUSH2 0x2261 JUMPI PUSH2 0x2260 PUSH2 0x2E6A JUMP JUMPDEST JUMPDEST PUSH1 0x0 PUSH2 0x226F DUP5 DUP3 DUP6 ADD PUSH2 0x2091 JUMP JUMPDEST SWAP2 POP POP SWAP3 SWAP2 POP POP JUMP JUMPDEST PUSH1 0x0 DUP1 PUSH1 0x40 DUP4 DUP6 SUB SLT ISZERO PUSH2 0x228F JUMPI PUSH2 0x228E PUSH2 0x2E6A JUMP JUMPDEST JUMPDEST PUSH1 0x0 PUSH2 0x229D DUP6 DUP3 DUP7 ADD PUSH2 0x2091 JUMP JUMPDEST SWAP3 POP POP PUSH1 0x20 PUSH2 0x22AE DUP6 DUP3 DUP7 ADD PUSH2 0x1FFA JUMP JUMPDEST SWAP2 POP POP SWAP3 POP SWAP3 SWAP1 POP JUMP JUMPDEST PUSH1 0x0 DUP1 PUSH1 0x40 DUP4 DUP6 SUB SLT ISZERO PUSH2 0x22CF JUMPI PUSH2 0x22CE PUSH2 0x2E6A JUMP JUMPDEST JUMPDEST PUSH1 0x0 PUSH2 0x22DD DUP6 DUP3 DUP7 ADD PUSH2 0x2091 JUMP JUMPDEST SWAP3 POP POP PUSH1 0x20 PUSH2 0x22EE DUP6 DUP3 DUP7 ADD PUSH2 0x2024 JUMP JUMPDEST SWAP2 POP POP SWAP3 POP SWAP3 SWAP1 POP JUMP JUMPDEST PUSH1 0x0 DUP1 PUSH1 0x40 DUP4 DUP6 SUB SLT ISZERO PUSH2 0x230F JUMPI PUSH2 0x230E PUSH2 0x2E6A JUMP JUMPDEST JUMPDEST PUSH1 0x0 PUSH2 0x231D DUP6 DUP3 DUP7 ADD PUSH2 0x2091 JUMP JUMPDEST SWAP3 POP POP PUSH1 0x20 DUP4 ADD CALLDATALOAD PUSH8 0xFFFFFFFFFFFFFFFF DUP2 GT ISZERO PUSH2 0x233E JUMPI PUSH2 0x233D PUSH2 0x2E65 JUMP JUMPDEST JUMPDEST PUSH2 0x234A DUP6 DUP3 DUP7 ADD PUSH2 0x2063 JUMP JUMPDEST SWAP2 POP POP SWAP3 POP SWAP3 SWAP1 POP JUMP JUMPDEST PUSH1 0x0 DUP1 PUSH1 0x40 DUP4 DUP6 SUB SLT ISZERO PUSH2 0x236B JUMPI PUSH2 0x236A PUSH2 0x2E6A JUMP JUMPDEST JUMPDEST PUSH1 0x0 PUSH2 0x2379 DUP6 DUP3 DUP7 ADD PUSH2 0x2091 JUMP JUMPDEST SWAP3 POP POP PUSH1 0x20 PUSH2 0x238A DUP6 DUP3 DUP7 ADD PUSH2 0x2091 JUMP JUMPDEST SWAP2 POP POP SWAP3 POP SWAP3 SWAP1 POP JUMP JUMPDEST PUSH1 0x0 DUP1 PUSH1 0x40 DUP4 DUP6 SUB SLT ISZERO PUSH2 0x23AB JUMPI PUSH2 0x23AA PUSH2 0x2E6A JUMP JUMPDEST JUMPDEST PUSH1 0x0 PUSH2 0x23B9 DUP6 DUP3 DUP7 ADD PUSH2 0x2091 JUMP JUMPDEST SWAP3 POP POP PUSH1 0x20 PUSH2 0x23CA DUP6 DUP3 DUP7 ADD PUSH2 0x20A6 JUMP JUMPDEST SWAP2 POP POP SWAP3 POP SWAP3 SWAP1 POP JUMP JUMPDEST PUSH2 0x23DD DUP2 PUSH2 0x2C22 JUMP JUMPDEST DUP3 MSTORE POP POP JUMP JUMPDEST PUSH2 0x23EC DUP2 PUSH2 0x2B97 JUMP JUMPDEST DUP3 MSTORE POP POP JUMP JUMPDEST PUSH2 0x23FB DUP2 PUSH2 0x2B85 JUMP JUMPDEST DUP3 MSTORE POP POP JUMP JUMPDEST PUSH2 0x240A DUP2 PUSH2 0x2BA9 JUMP JUMPDEST DUP3 MSTORE POP POP JUMP JUMPDEST PUSH2 0x2419 DUP2 PUSH2 0x2BB5 JUMP JUMPDEST DUP3 MSTORE POP POP JUMP JUMPDEST PUSH1 0x0 PUSH2 0x242A DUP3 PUSH2 0x2A49 JUMP JUMPDEST PUSH2 0x2434 DUP2 DUP6 PUSH2 0x2A54 JUMP JUMPDEST SWAP4 POP PUSH2 0x2444 DUP2 DUP6 PUSH1 0x20 DUP7 ADD PUSH2 0x2C67 JUMP JUMPDEST PUSH2 0x244D DUP2 PUSH2 0x2E6F JUMP JUMPDEST DUP5 ADD SWAP2 POP POP SWAP3 SWAP2 POP POP JUMP JUMPDEST PUSH1 0x0 PUSH2 0x2463 DUP3 PUSH2 0x2A49 JUMP JUMPDEST PUSH2 0x246D DUP2 DUP6 PUSH2 0x2A65 JUMP JUMPDEST SWAP4 POP PUSH2 0x247D DUP2 DUP6 PUSH1 0x20 DUP7 ADD PUSH2 0x2C67 JUMP JUMPDEST DUP1 DUP5 ADD SWAP2 POP POP SWAP3 SWAP2 POP POP JUMP JUMPDEST PUSH1 0x0 PUSH2 0x2496 PUSH1 0x1F DUP4 PUSH2 0x2A54 JUMP JUMPDEST SWAP2 POP PUSH2 0x24A1 DUP3 PUSH2 0x2E80 JUMP JUMPDEST PUSH1 0x20 DUP3 ADD SWAP1 POP SWAP2 SWAP1 POP JUMP JUMPDEST PUSH1 0x0 PUSH2 0x24B9 PUSH1 0x3D DUP4 PUSH2 0x2A54 JUMP JUMPDEST SWAP2 POP PUSH2 0x24C4 DUP3 PUSH2 0x2EA9 JUMP JUMPDEST PUSH1 0x40 DUP3 ADD SWAP1 POP SWAP2 SWAP1 POP JUMP JUMPDEST PUSH1 0x0 PUSH2 0x24DC PUSH1 0x20 DUP4 PUSH2 0x2A54 JUMP JUMPDEST SWAP2 POP PUSH2 0x24E7 DUP3 PUSH2 0x2EF8 JUMP JUMPDEST PUSH1 0x20 DUP3 ADD SWAP1 POP SWAP2 SWAP1 POP JUMP JUMPDEST PUSH1 0x0 PUSH2 0x24FF PUSH1 0x14 DUP4 PUSH2 0x2A54 JUMP JUMPDEST SWAP2 POP PUSH2 0x250A DUP3 PUSH2 0x2F21 JUMP JUMPDEST PUSH1 0x20 DUP3 ADD SWAP1 POP SWAP2 SWAP1 POP JUMP JUMPDEST PUSH1 0x0 PUSH2 0x2522 PUSH1 0x2C DUP4 PUSH2 0x2A54 JUMP JUMPDEST SWAP2 POP PUSH2 0x252D DUP3 PUSH2 0x2F4A JUMP JUMPDEST PUSH1 0x40 DUP3 ADD SWAP1 POP SWAP2 SWAP1 POP JUMP JUMPDEST PUSH1 0x0 PUSH2 0x2545 PUSH1 0x19 DUP4 PUSH2 0x2A54 JUMP JUMPDEST SWAP2 POP PUSH2 0x2550 DUP3 PUSH2 0x2F99 JUMP JUMPDEST PUSH1 0x20 DUP3 ADD SWAP1 POP SWAP2 SWAP1 POP JUMP JUMPDEST PUSH1 0x0 PUSH2 0x2568 PUSH1 0x21 DUP4 PUSH2 0x2A54 JUMP JUMPDEST SWAP2 POP PUSH2 0x2573 DUP3 PUSH2 0x2FC2 JUMP JUMPDEST PUSH1 0x40 DUP3 ADD SWAP1 POP SWAP2 SWAP1 POP JUMP JUMPDEST PUSH1 0x0 PUSH2 0x258B PUSH1 0x28 DUP4 PUSH2 0x2A54 JUMP JUMPDEST SWAP2 POP PUSH2 0x2596 DUP3 PUSH2 0x3011 JUMP JUMPDEST PUSH1 0x40 DUP3 ADD SWAP1 POP SWAP2 SWAP1 POP JUMP JUMPDEST PUSH1 0x0 PUSH2 0x25AE PUSH1 0x28 DUP4 PUSH2 0x2A54 JUMP JUMPDEST SWAP2 POP PUSH2 0x25B9 DUP3 PUSH2 0x3060 JUMP JUMPDEST PUSH1 0x40 DUP3 ADD SWAP1 POP SWAP2 SWAP1 POP JUMP JUMPDEST PUSH1 0x0 PUSH2 0x25D1 PUSH1 0x16 DUP4 PUSH2 0x2A54 JUMP JUMPDEST SWAP2 POP PUSH2 0x25DC DUP3 PUSH2 0x30AF JUMP JUMPDEST PUSH1 0x20 DUP3 ADD SWAP1 POP SWAP2 SWAP1 POP JUMP JUMPDEST PUSH1 0x0 PUSH2 0x25F4 PUSH1 0x25 DUP4 PUSH2 0x2A54 JUMP JUMPDEST SWAP2 POP PUSH2 0x25FF DUP3 PUSH2 0x30D8 JUMP JUMPDEST PUSH1 0x40 DUP3 ADD SWAP1 POP SWAP2 SWAP1 POP JUMP JUMPDEST PUSH1 0x0 PUSH2 0x2617 PUSH1 0x17 DUP4 PUSH2 0x2A65 JUMP JUMPDEST SWAP2 POP PUSH2 0x2622 DUP3 PUSH2 0x3127 JUMP JUMPDEST PUSH1 0x17 DUP3 ADD SWAP1 POP SWAP2 SWAP1 POP JUMP JUMPDEST PUSH1 0x0 PUSH2 0x263A PUSH1 0x1C DUP4 PUSH2 0x2A54 JUMP JUMPDEST SWAP2 POP PUSH2 0x2645 DUP3 PUSH2 0x3150 JUMP JUMPDEST PUSH1 0x20 DUP3 ADD SWAP1 POP SWAP2 SWAP1 POP JUMP JUMPDEST PUSH1 0x0 PUSH2 0x265D PUSH1 0x11 DUP4 PUSH2 0x2A65 JUMP JUMPDEST SWAP2 POP PUSH2 0x2668 DUP3 PUSH2 0x3179 JUMP JUMPDEST PUSH1 0x11 DUP3 ADD SWAP1 POP SWAP2 SWAP1 POP JUMP JUMPDEST PUSH1 0x0 PUSH2 0x2680 PUSH1 0x2F DUP4 PUSH2 0x2A54 JUMP JUMPDEST SWAP2 POP PUSH2 0x268B DUP3 PUSH2 0x31A2 JUMP JUMPDEST PUSH1 0x40 DUP3 ADD SWAP1 POP SWAP2 SWAP1 POP JUMP JUMPDEST PUSH2 0x269F DUP2 PUSH2 0x2C0B JUMP JUMPDEST DUP3 MSTORE POP POP JUMP JUMPDEST PUSH2 0x26AE DUP2 PUSH2 0x2C15 JUMP JUMPDEST DUP3 MSTORE POP POP JUMP JUMPDEST PUSH1 0x0 PUSH2 0x26BF DUP3 PUSH2 0x260A JUMP JUMPDEST SWAP2 POP PUSH2 0x26CB DUP3 DUP6 PUSH2 0x2458 JUMP JUMPDEST SWAP2 POP PUSH2 0x26D6 DUP3 PUSH2 0x2650 JUMP JUMPDEST SWAP2 POP PUSH2 0x26E2 DUP3 DUP5 PUSH2 0x2458 JUMP JUMPDEST SWAP2 POP DUP2 SWAP1 POP SWAP4 SWAP3 POP POP POP JUMP JUMPDEST PUSH1 0x0 PUSH1 0x20 DUP3 ADD SWAP1 POP PUSH2 0x2703 PUSH1 0x0 DUP4 ADD DUP5 PUSH2 0x2401 JUMP JUMPDEST SWAP3 SWAP2 POP POP JUMP JUMPDEST PUSH1 0x0 PUSH1 0x20 DUP3 ADD SWAP1 POP PUSH2 0x271E PUSH1 0x0 DUP4 ADD DUP5 PUSH2 0x2410 JUMP JUMPDEST SWAP3 SWAP2 POP POP JUMP JUMPDEST PUSH1 0x0 PUSH1 0x20 DUP3 ADD SWAP1 POP DUP2 DUP2 SUB PUSH1 0x0 DUP4 ADD MSTORE PUSH2 0x273E DUP2 DUP5 PUSH2 0x241F JUMP JUMPDEST SWAP1 POP SWAP3 SWAP2 POP POP JUMP JUMPDEST PUSH1 0x0 PUSH1 0x80 DUP3 ADD SWAP1 POP DUP2 DUP2 SUB PUSH1 0x0 DUP4 ADD MSTORE PUSH2 0x2760 DUP2 DUP8 PUSH2 0x241F JUMP JUMPDEST SWAP1 POP PUSH2 0x276F PUSH1 0x20 DUP4 ADD DUP7 PUSH2 0x23E3 JUMP JUMPDEST PUSH2 0x277C PUSH1 0x40 DUP4 ADD DUP6 PUSH2 0x2696 JUMP JUMPDEST PUSH2 0x2789 PUSH1 0x60 DUP4 ADD DUP5 PUSH2 0x2401 JUMP JUMPDEST SWAP6 SWAP5 POP POP POP POP POP JUMP JUMPDEST PUSH1 0x0 PUSH1 0xA0 DUP3 ADD SWAP1 POP DUP2 DUP2 SUB PUSH1 0x0 DUP4 ADD MSTORE PUSH2 0x27AC DUP2 DUP9 PUSH2 0x241F JUMP JUMPDEST SWAP1 POP DUP2 DUP2 SUB PUSH1 0x20 DUP4 ADD MSTORE PUSH2 0x27C0 DUP2 DUP8 PUSH2 0x241F JUMP JUMPDEST SWAP1 POP PUSH2 0x27CF PUSH1 0x40 DUP4 ADD DUP7 PUSH2 0x26A5 JUMP JUMPDEST PUSH2 0x27DC PUSH1 0x60 DUP4 ADD DUP6 PUSH2 0x2696 JUMP JUMPDEST PUSH2 0x27E9 PUSH1 0x80 DUP4 ADD DUP5 PUSH2 0x2696 JUMP JUMPDEST SWAP7 SWAP6 POP POP POP POP POP POP JUMP JUMPDEST PUSH1 0x0 PUSH1 0x20 DUP3 ADD SWAP1 POP DUP2 DUP2 SUB PUSH1 0x0 DUP4 ADD MSTORE PUSH2 0x280C DUP2 PUSH2 0x2489 JUMP JUMPDEST SWAP1 POP SWAP2 SWAP1 POP JUMP JUMPDEST PUSH1 0x0 PUSH1 0x20 DUP3 ADD SWAP1 POP DUP2 DUP2 SUB PUSH1 0x0 DUP4 ADD MSTORE PUSH2 0x282C DUP2 PUSH2 0x24AC JUMP JUMPDEST SWAP1 POP SWAP2 SWAP1 POP JUMP JUMPDEST PUSH1 0x0 PUSH1 0x20 DUP3 ADD SWAP1 POP DUP2 DUP2 SUB PUSH1 0x0 DUP4 ADD MSTORE PUSH2 0x284C DUP2 PUSH2 0x24CF JUMP JUMPDEST SWAP1 POP SWAP2 SWAP1 POP JUMP JUMPDEST PUSH1 0x0 PUSH1 0x20 DUP3 ADD SWAP1 POP DUP2 DUP2 SUB PUSH1 0x0 DUP4 ADD MSTORE PUSH2 0x286C DUP2 PUSH2 0x24F2 JUMP JUMPDEST SWAP1 POP SWAP2 SWAP1 POP JUMP JUMPDEST PUSH1 0x0 PUSH1 0x20 DUP3 ADD SWAP1 POP DUP2 DUP2 SUB PUSH1 0x0 DUP4 ADD MSTORE PUSH2 0x288C DUP2 PUSH2 0x2515 JUMP JUMPDEST SWAP1 POP SWAP2 SWAP1 POP JUMP JUMPDEST PUSH1 0x0 PUSH1 0x20 DUP3 ADD SWAP1 POP DUP2 DUP2 SUB PUSH1 0x0 DUP4 ADD MSTORE PUSH2 0x28AC DUP2 PUSH2 0x2538 JUMP JUMPDEST SWAP1 POP SWAP2 SWAP1 POP JUMP JUMPDEST PUSH1 0x0 PUSH1 0x20 DUP3 ADD SWAP1 POP DUP2 DUP2 SUB PUSH1 0x0 DUP4 ADD MSTORE PUSH2 0x28CC DUP2 PUSH2 0x255B JUMP JUMPDEST SWAP1 POP SWAP2 SWAP1 POP JUMP JUMPDEST PUSH1 0x0 PUSH1 0x20 DUP3 ADD SWAP1 POP DUP2 DUP2 SUB PUSH1 0x0 DUP4 ADD MSTORE PUSH2 0x28EC DUP2 PUSH2 0x257E JUMP JUMPDEST SWAP1 POP SWAP2 SWAP1 POP JUMP JUMPDEST PUSH1 0x0 PUSH1 0x20 DUP3 ADD SWAP1 POP DUP2 DUP2 SUB PUSH1 0x0 DUP4 ADD MSTORE PUSH2 0x290C DUP2 PUSH2 0x25A1 JUMP JUMPDEST SWAP1 POP SWAP2 SWAP1 POP JUMP JUMPDEST PUSH1 0x0 PUSH1 0x20 DUP3 ADD SWAP1 POP DUP2 DUP2 SUB PUSH1 0x0 DUP4 ADD MSTORE PUSH2 0x292C DUP2 PUSH2 0x25C4 JUMP JUMPDEST SWAP1 POP SWAP2 SWAP1 POP JUMP JUMPDEST PUSH1 0x0 PUSH1 0x20 DUP3 ADD SWAP1 POP DUP2 DUP2 SUB PUSH1 0x0 DUP4 ADD MSTORE PUSH2 0x294C DUP2 PUSH2 0x25E7 JUMP JUMPDEST SWAP1 POP SWAP2 SWAP1 POP JUMP JUMPDEST PUSH1 0x0 PUSH1 0x20 DUP3 ADD SWAP1 POP DUP2 DUP2 SUB PUSH1 0x0 DUP4 ADD MSTORE PUSH2 0x296C DUP2 PUSH2 0x262D JUMP JUMPDEST SWAP1 POP SWAP2 SWAP1 POP JUMP JUMPDEST PUSH1 0x0 PUSH1 0x20 DUP3 ADD SWAP1 POP DUP2 DUP2 SUB PUSH1 0x0 DUP4 ADD MSTORE PUSH2 0x298C DUP2 PUSH2 0x2673 JUMP JUMPDEST SWAP1 POP SWAP2 SWAP1 POP JUMP JUMPDEST PUSH1 0x0 PUSH1 0x20 DUP3 ADD SWAP1 POP PUSH2 0x29A8 PUSH1 0x0 DUP4 ADD DUP5 PUSH2 0x2696 JUMP JUMPDEST SWAP3 SWAP2 POP POP JUMP JUMPDEST PUSH1 0x0 PUSH1 0x80 DUP3 ADD SWAP1 POP PUSH2 0x29C3 PUSH1 0x0 DUP4 ADD DUP8 PUSH2 0x2696 JUMP JUMPDEST PUSH2 0x29D0 PUSH1 0x20 DUP4 ADD DUP7 PUSH2 0x2696 JUMP JUMPDEST PUSH2 0x29DD PUSH1 0x40 DUP4 ADD DUP6 PUSH2 0x23D4 JUMP JUMPDEST PUSH2 0x29EA PUSH1 0x60 DUP4 ADD DUP5 PUSH2 0x23F2 JUMP JUMPDEST SWAP6 SWAP5 POP POP POP POP POP JUMP JUMPDEST PUSH1 0x0 PUSH2 0x29FD PUSH2 0x2A0E JUMP JUMPDEST SWAP1 POP PUSH2 0x2A09 DUP3 DUP3 PUSH2 0x2CF6 JUMP JUMPDEST SWAP2 SWAP1 POP JUMP JUMPDEST PUSH1 0x0 PUSH1 0x40 MLOAD SWAP1 POP SWAP1 JUMP JUMPDEST PUSH1 0x0 PUSH8 0xFFFFFFFFFFFFFFFF DUP3 GT ISZERO PUSH2 0x2A33 JUMPI PUSH2 0x2A32 PUSH2 0x2E2C JUMP JUMPDEST JUMPDEST PUSH2 0x2A3C DUP3 PUSH2 0x2E6F JUMP JUMPDEST SWAP1 POP PUSH1 0x20 DUP2 ADD SWAP1 POP SWAP2 SWAP1 POP JUMP JUMPDEST PUSH1 0x0 DUP2 MLOAD SWAP1 POP SWAP2 SWAP1 POP JUMP JUMPDEST PUSH1 0x0 DUP3 DUP3 MSTORE PUSH1 0x20 DUP3 ADD SWAP1 POP SWAP3 SWAP2 POP POP JUMP JUMPDEST PUSH1 0x0 DUP2 SWAP1 POP SWAP3 SWAP2 POP POP JUMP JUMPDEST PUSH1 0x0 PUSH2 0x2A7B DUP3 PUSH2 0x2C0B JUMP JUMPDEST SWAP2 POP PUSH2 0x2A86 DUP4 PUSH2 0x2C0B JUMP JUMPDEST SWAP3 POP DUP3 PUSH32 0xFFFFFFFFFFFFFFFFFFFFFFFFFFFFFFFFFFFFFFFFFFFFFFFFFFFFFFFFFFFFFFFF SUB DUP3 GT ISZERO PUSH2 0x2ABB JUMPI PUSH2 0x2ABA PUSH2 0x2D70 JUMP JUMPDEST JUMPDEST DUP3 DUP3 ADD SWAP1 POP SWAP3 SWAP2 POP POP JUMP JUMPDEST PUSH1 0x0 PUSH2 0x2AD1 DUP3 PUSH2 0x2C0B JUMP JUMPDEST SWAP2 POP PUSH2 0x2ADC DUP4 PUSH2 0x2C0B JUMP JUMPDEST SWAP3 POP DUP3 PUSH2 0x2AEC JUMPI PUSH2 0x2AEB PUSH2 0x2D9F JUMP JUMPDEST JUMPDEST DUP3 DUP3 DIV SWAP1 POP SWAP3 SWAP2 POP POP JUMP JUMPDEST PUSH1 0x0 PUSH2 0x2B02 DUP3 PUSH2 0x2C0B JUMP JUMPDEST SWAP2 POP PUSH2 0x2B0D DUP4 PUSH2 0x2C0B JUMP JUMPDEST SWAP3 POP DUP2 PUSH32 0xFFFFFFFFFFFFFFFFFFFFFFFFFFFFFFFFFFFFFFFFFFFFFFFFFFFFFFFFFFFFFFFF DIV DUP4 GT DUP3 ISZERO ISZERO AND ISZERO PUSH2 0x2B46 JUMPI PUSH2 0x2B45 PUSH2 0x2D70 JUMP JUMPDEST JUMPDEST DUP3 DUP3 MUL SWAP1 POP SWAP3 SWAP2 POP POP JUMP JUMPDEST PUSH1 0x0 PUSH2 0x2B5C DUP3 PUSH2 0x2C15 JUMP JUMPDEST SWAP2 POP PUSH2 0x2B67 DUP4 PUSH2 0x2C15 JUMP JUMPDEST SWAP3 POP DUP3 DUP3 LT ISZERO PUSH2 0x2B7A JUMPI PUSH2 0x2B79 PUSH2 0x2D70 JUMP JUMPDEST JUMPDEST DUP3 DUP3 SUB SWAP1 POP SWAP3 SWAP2 POP POP JUMP JUMPDEST PUSH1 0x0 PUSH2 0x2B90 DUP3 PUSH2 0x2BEB JUMP JUMPDEST SWAP1 POP SWAP2 SWAP1 POP JUMP JUMPDEST PUSH1 0x0 PUSH2 0x2BA2 DUP3 PUSH2 0x2BEB JUMP JUMPDEST SWAP1 POP SWAP2 SWAP1 POP JUMP JUMPDEST PUSH1 0x0 DUP2 ISZERO ISZERO SWAP1 POP SWAP2 SWAP1 POP JUMP JUMPDEST PUSH1 0x0 DUP2 SWAP1 POP SWAP2 SWAP1 POP JUMP JUMPDEST PUSH1 0x0 PUSH32 0xFFFFFFFF00000000000000000000000000000000000000000000000000000000 DUP3 AND SWAP1 POP SWAP2 SWAP1 POP JUMP JUMPDEST PUSH1 0x0 PUSH20 0xFFFFFFFFFFFFFFFFFFFFFFFFFFFFFFFFFFFFFFFF DUP3 AND SWAP1 POP SWAP2 SWAP1 POP JUMP JUMPDEST PUSH1 0x0 DUP2 SWAP1 POP SWAP2 SWAP1 POP JUMP JUMPDEST PUSH1 0x0 PUSH1 0xFF DUP3 AND SWAP1 POP SWAP2 SWAP1 POP JUMP JUMPDEST PUSH1 0x0 PUSH2 0x2C2D DUP3 PUSH2 0x2C34 JUMP JUMPDEST SWAP1 POP SWAP2 SWAP1 POP JUMP JUMPDEST PUSH1 0x0 PUSH2 0x2C3F DUP3 PUSH2 0x2C46 JUMP JUMPDEST SWAP1 POP SWAP2 SWAP1 POP JUMP JUMPDEST PUSH1 0x0 PUSH2 0x2C51 DUP3 PUSH2 0x2BEB JUMP JUMPDEST SWAP1 POP SWAP2 SWAP1 POP JUMP JUMPDEST DUP3 DUP2 DUP4 CALLDATACOPY PUSH1 0x0 DUP4 DUP4 ADD MSTORE POP POP POP JUMP JUMPDEST PUSH1 0x0 JUMPDEST DUP4 DUP2 LT ISZERO PUSH2 0x2C85 JUMPI DUP1 DUP3 ADD MLOAD DUP2 DUP5 ADD MSTORE PUSH1 0x20 DUP2 ADD SWAP1 POP PUSH2 0x2C6A JUMP JUMPDEST DUP4 DUP2 GT ISZERO PUSH2 0x2C94 JUMPI PUSH1 0x0 DUP5 DUP5 ADD MSTORE JUMPDEST POP POP POP POP JUMP JUMPDEST PUSH1 0x0 PUSH2 0x2CA5 DUP3 PUSH2 0x2C0B JUMP JUMPDEST SWAP2 POP PUSH1 0x0 DUP3 EQ ISZERO PUSH2 0x2CB9 JUMPI PUSH2 0x2CB8 PUSH2 0x2D70 JUMP JUMPDEST JUMPDEST PUSH1 0x1 DUP3 SUB SWAP1 POP SWAP2 SWAP1 POP JUMP JUMPDEST PUSH1 0x0 PUSH1 0x2 DUP3 DIV SWAP1 POP PUSH1 0x1 DUP3 AND DUP1 PUSH2 0x2CDC JUMPI PUSH1 0x7F DUP3 AND SWAP2 POP JUMPDEST PUSH1 0x20 DUP3 LT DUP2 EQ ISZERO PUSH2 0x2CF0 JUMPI PUSH2 0x2CEF PUSH2 0x2DCE JUMP JUMPDEST JUMPDEST POP SWAP2 SWAP1 POP JUMP JUMPDEST PUSH2 0x2CFF DUP3 PUSH2 0x2E6F JUMP JUMPDEST DUP2 ADD DUP2 DUP2 LT PUSH8 0xFFFFFFFFFFFFFFFF DUP3 GT OR ISZERO PUSH2 0x2D1E JUMPI PUSH2 0x2D1D PUSH2 0x2E2C JUMP JUMPDEST JUMPDEST DUP1 PUSH1 0x40 MSTORE POP POP POP JUMP JUMPDEST PUSH1 0x0 PUSH2 0x2D32 DUP3 PUSH2 0x2C0B JUMP JUMPDEST SWAP2 POP PUSH32 0xFFFFFFFFFFFFFFFFFFFFFFFFFFFFFFFFFFFFFFFFFFFFFFFFFFFFFFFFFFFFFFFF DUP3 EQ ISZERO PUSH2 0x2D65 JUMPI PUSH2 0x2D64 PUSH2 0x2D70 JUMP JUMPDEST JUMPDEST PUSH1 0x1 DUP3 ADD SWAP1 POP SWAP2 SWAP1 POP JUMP JUMPDEST PUSH32 0x4E487B7100000000000000000000000000000000000000000000000000000000 PUSH1 0x0 MSTORE PUSH1 0x11 PUSH1 0x4 MSTORE PUSH1 0x24 PUSH1 0x0 REVERT JUMPDEST PUSH32 0x4E487B7100000000000000000000000000000000000000000000000000000000 PUSH1 0x0 MSTORE PUSH1 0x12 PUSH1 0x4 MSTORE PUSH1 0x24 PUSH1 0x0 REVERT JUMPDEST PUSH32 0x4E487B7100000000000000000000000000000000000000000000000000000000 PUSH1 0x0 MSTORE PUSH1 0x22 PUSH1 0x4 MSTORE PUSH1 0x24 PUSH1 0x0 REVERT JUMPDEST PUSH32 0x4E487B7100000000000000000000000000000000000000000000000000000000 PUSH1 0x0 MSTORE PUSH1 0x32 PUSH1 0x4 MSTORE PUSH1 0x24 PUSH1 0x0 REVERT JUMPDEST PUSH32 0x4E487B7100000000000000000000000000000000000000000000000000000000 PUSH1 0x0 MSTORE PUSH1 0x41 PUSH1 0x4 MSTORE PUSH1 0x24 PUSH1 0x0 REVERT JUMPDEST PUSH1 0x0 DUP1 REVERT JUMPDEST PUSH1 0x0 DUP1 REVERT JUMPDEST PUSH1 0x0 DUP1 REVERT JUMPDEST PUSH1 0x0 DUP1 REVERT JUMPDEST PUSH1 0x0 PUSH1 0x1F NOT PUSH1 0x1F DUP4 ADD AND SWAP1 POP SWAP2 SWAP1 POP JUMP JUMPDEST PUSH32 0x5175616E74697479206D7573742062652067726561746572207468616E203000 PUSH1 0x0 DUP3 ADD MSTORE POP JUMP JUMPDEST PUSH32 0x5175616E74697479206D757374206265206C657373207468616E206F72206571 PUSH1 0x0 DUP3 ADD MSTORE PUSH32 0x75616C20746F2074686520617661696C61626C65207175616E74697479000000 PUSH1 0x20 DUP3 ADD MSTORE POP JUMP JUMPDEST PUSH32 0x537472696E67733A20686578206C656E67746820696E73756666696369656E74 PUSH1 0x0 DUP3 ADD MSTORE POP JUMP JUMPDEST PUSH32 0x507269636520646F6573206E6F74206D61746368000000000000000000000000 PUSH1 0x0 DUP3 ADD MSTORE POP JUMP JUMPDEST PUSH32 0x4F6E6C792070726F647563742073656C6C65722063616E206578656375746520 PUSH1 0x0 DUP3 ADD MSTORE PUSH32 0x7468697320616374696F6E2E0000000000000000000000000000000000000000 PUSH1 0x20 DUP3 ADD MSTORE POP JUMP JUMPDEST PUSH32 0x4D61726B6574206974656D206973206E6F742061637469766500000000000000 PUSH1 0x0 DUP3 ADD MSTORE POP JUMP JUMPDEST PUSH32 0x596F752063616E6E6F7420766F746520666F7220746869732070726F64756374 PUSH1 0x0 DUP3 ADD MSTORE PUSH32 0x2E00000000000000000000000000000000000000000000000000000000000000 PUSH1 0x20 DUP3 ADD MSTORE POP JUMP JUMPDEST PUSH32 0x5374617273206D7573742062652067726561746572207468616E206F72206571 PUSH1 0x0 DUP3 ADD MSTORE PUSH32 0x75616C20746F2031000000000000000000000000000000000000000000000000 PUSH1 0x20 DUP3 ADD MSTORE POP JUMP JUMPDEST PUSH32 0x4F6E6C79207468652073656C6C65722063616E206372656174652061206D6172 PUSH1 0x0 DUP3 ADD MSTORE PUSH32 0x6B6574206974656D000000000000000000000000000000000000000000000000 PUSH1 0x20 DUP3 ADD MSTORE POP JUMP JUMPDEST PUSH32 0x5468652073656C6C65722063616E6E6F7420766F746500000000000000000000 PUSH1 0x0 DUP3 ADD MSTORE POP JUMP JUMPDEST PUSH32 0x5374617273206D757374206265206C657373207468616E206F7220657175616C PUSH1 0x0 DUP3 ADD MSTORE PUSH32 0x20746F2035000000000000000000000000000000000000000000000000000000 PUSH1 0x20 DUP3 ADD MSTORE POP JUMP JUMPDEST PUSH32 0x416363657373436F6E74726F6C3A206163636F756E7420000000000000000000 PUSH1 0x0 DUP3 ADD MSTORE POP JUMP JUMPDEST PUSH32 0x5072696365206D7573742062652067726561746572207468616E203000000000 PUSH1 0x0 DUP3 ADD MSTORE POP JUMP JUMPDEST PUSH32 0x206973206D697373696E6720726F6C6520000000000000000000000000000000 PUSH1 0x0 DUP3 ADD MSTORE POP JUMP JUMPDEST PUSH32 0x416363657373436F6E74726F6C3A2063616E206F6E6C792072656E6F756E6365 PUSH1 0x0 DUP3 ADD MSTORE PUSH32 0x20726F6C657320666F722073656C660000000000000000000000000000000000 PUSH1 0x20 DUP3 ADD MSTORE POP JUMP JUMPDEST PUSH2 0x31FA DUP2 PUSH2 0x2B85 JUMP JUMPDEST DUP2 EQ PUSH2 0x3205 JUMPI PUSH1 0x0 DUP1 REVERT JUMPDEST POP JUMP JUMPDEST PUSH2 0x3211 DUP2 PUSH2 0x2B97 JUMP JUMPDEST DUP2 EQ PUSH2 0x321C JUMPI PUSH1 0x0 DUP1 REVERT JUMPDEST POP JUMP JUMPDEST PUSH2 0x3228 DUP2 PUSH2 0x2BA9 JUMP JUMPDEST DUP2 EQ PUSH2 0x3233 JUMPI PUSH1 0x0 DUP1 REVERT JUMPDEST POP JUMP JUMPDEST PUSH2 0x323F DUP2 PUSH2 0x2BB5 JUMP JUMPDEST DUP2 EQ PUSH2 0x324A JUMPI PUSH1 0x0 DUP1 REVERT JUMPDEST POP JUMP JUMPDEST PUSH2 0x3256 DUP2 PUSH2 0x2BBF JUMP JUMPDEST DUP2 EQ PUSH2 0x3261 JUMPI PUSH1 0x0 DUP1 REVERT JUMPDEST POP JUMP JUMPDEST PUSH2 0x326D DUP2 PUSH2 0x2C0B JUMP JUMPDEST DUP2 EQ PUSH2 0x3278 JUMPI PUSH1 0x0 DUP1 REVERT JUMPDEST POP JUMP JUMPDEST PUSH2 0x3284 DUP2 PUSH2 0x2C15 JUMP JUMPDEST DUP2 EQ PUSH2 0x328F JUMPI PUSH1 0x0 DUP1 REVERT JUMPDEST POP JUMP INVALID LOG2 PUSH5 0x6970667358 0x22 SLT KECCAK256 CHAINID 0x27 MSTORE 0xC3 0xC5 CALL SIGNEXTEND 0xB5 LT RETURNDATACOPY 0xD0 0xDE SWAP11 SWAP4 0x5F 0xF8 0xF6 0xAB SWAP12 0xA6 PUSH9 0xB73B79ABB11DE9EC7 0x2D LOG1 PUSH5 0x736F6C6343 STOP ADDMOD SMOD STOP CALLER "
				},
				"gasEstimates": {
					"creation": {
						"codeDepositCost": "2600000",
						"executionCost": "infinite",
						"totalCost": "infinite"
					},
					"external": {
						"DEFAULT_ADMIN_ROLE()": "402",
						"MARKETPLACE_OWNER()": "440",
						"buyMarketItem(uint256,uint8)": "infinite",
						"checkBuyer(uint256,address)": "infinite",
						"createMarketItem(string,string,address,uint256,string,uint8,bool)": "infinite",
						"getAverageStars(uint256)": "infinite",
						"getMarketItem(uint256)": "infinite",
						"getMarketItemDetails(uint256)": "infinite",
						"getRoleAdmin(bytes32)": "infinite",
						"grantRole(bytes32,address)": "infinite",
						"hasRole(bytes32,address)": "3185",
						"nextItemId()": "2496",
						"renounceRole(bytes32,address)": "infinite",
						"revokeRole(bytes32,address)": "infinite",
						"supportsInterface(bytes4)": "751",
						"updateMarketItemActive(uint256,bool)": "49414",
						"updateMarketItemDescription(uint256,string)": "infinite",
						"updateMarketItemImgUrl(uint256,string)": "infinite",
						"updateMarketItemPrice(uint256,uint256)": "infinite",
						"updateMarketItemQuantity(uint256,uint8)": "49480",
						"voteMarketItemStars(uint256,uint8)": "infinite"
					},
					"internal": {
						"indexOf(address[] memory,address)": "infinite"
					}
				},
				"methodIdentifiers": {
					"DEFAULT_ADMIN_ROLE()": "a217fddf",
					"MARKETPLACE_OWNER()": "b491efa0",
					"buyMarketItem(uint256,uint8)": "1dfef0eb",
					"checkBuyer(uint256,address)": "fec4d15d",
					"createMarketItem(string,string,address,uint256,string,uint8,bool)": "4d4c87ea",
					"getAverageStars(uint256)": "7735904f",
					"getMarketItem(uint256)": "c7be7a49",
					"getMarketItemDetails(uint256)": "88d9e84c",
					"getRoleAdmin(bytes32)": "248a9ca3",
					"grantRole(bytes32,address)": "2f2ff15d",
					"hasRole(bytes32,address)": "91d14854",
					"nextItemId()": "6a868974",
					"renounceRole(bytes32,address)": "36568abe",
					"revokeRole(bytes32,address)": "d547741f",
					"supportsInterface(bytes4)": "01ffc9a7",
					"updateMarketItemActive(uint256,bool)": "bf9c6554",
					"updateMarketItemDescription(uint256,string)": "8f28afee",
					"updateMarketItemImgUrl(uint256,string)": "f0d2d06d",
					"updateMarketItemPrice(uint256,uint256)": "ae13a317",
					"updateMarketItemQuantity(uint256,uint8)": "eca1e6a0",
					"voteMarketItemStars(uint256,uint8)": "0c3774fc"
				}
			},
			"storageLayout": {
				"storage": [
					{
						"astId": 24,
						"contract": "Marketplace.sol:Marketplace",
						"label": "_roles",
						"offset": 0,
						"slot": "0",
						"type": "t_mapping(t_bytes32,t_struct(RoleData)19_storage)"
					},
					{
						"astId": 655,
						"contract": "Marketplace.sol:Marketplace",
						"label": "nextItemId",
						"offset": 0,
						"slot": "1",
						"type": "t_uint256"
					},
					{
						"astId": 691,
						"contract": "Marketplace.sol:Marketplace",
						"label": "idToBuyerAddress",
						"offset": 0,
						"slot": "2",
						"type": "t_mapping(t_uint256,t_array(t_address)dyn_storage)"
					},
					{
						"astId": 696,
						"contract": "Marketplace.sol:Marketplace",
						"label": "idToMarketItem",
						"offset": 0,
						"slot": "3",
						"type": "t_mapping(t_uint256,t_struct(MarketItem)686_storage)"
					},
					{
						"astId": 702,
						"contract": "Marketplace.sol:Marketplace",
						"label": "addressToProductVotes",
						"offset": 0,
						"slot": "4",
						"type": "t_mapping(t_address,t_mapping(t_uint256,t_uint8))"
					}
				],
				"types": {
					"t_address": {
						"encoding": "inplace",
						"label": "address",
						"numberOfBytes": "20"
					},
					"t_address_payable": {
						"encoding": "inplace",
						"label": "address payable",
						"numberOfBytes": "20"
					},
					"t_array(t_address)dyn_storage": {
						"base": "t_address",
						"encoding": "dynamic_array",
						"label": "address[]",
						"numberOfBytes": "32"
					},
					"t_bool": {
						"encoding": "inplace",
						"label": "bool",
						"numberOfBytes": "1"
					},
					"t_bytes32": {
						"encoding": "inplace",
						"label": "bytes32",
						"numberOfBytes": "32"
					},
					"t_mapping(t_address,t_bool)": {
						"encoding": "mapping",
						"key": "t_address",
						"label": "mapping(address => bool)",
						"numberOfBytes": "32",
						"value": "t_bool"
					},
					"t_mapping(t_address,t_mapping(t_uint256,t_uint8))": {
						"encoding": "mapping",
						"key": "t_address",
						"label": "mapping(address => mapping(uint256 => uint8))",
						"numberOfBytes": "32",
						"value": "t_mapping(t_uint256,t_uint8)"
					},
					"t_mapping(t_bytes32,t_struct(RoleData)19_storage)": {
						"encoding": "mapping",
						"key": "t_bytes32",
						"label": "mapping(bytes32 => struct AccessControl.RoleData)",
						"numberOfBytes": "32",
						"value": "t_struct(RoleData)19_storage"
					},
					"t_mapping(t_uint256,t_array(t_address)dyn_storage)": {
						"encoding": "mapping",
						"key": "t_uint256",
						"label": "mapping(uint256 => address[])",
						"numberOfBytes": "32",
						"value": "t_array(t_address)dyn_storage"
					},
					"t_mapping(t_uint256,t_struct(MarketItem)686_storage)": {
						"encoding": "mapping",
						"key": "t_uint256",
						"label": "mapping(uint256 => struct Marketplace.MarketItem)",
						"numberOfBytes": "32",
						"value": "t_struct(MarketItem)686_storage"
					},
					"t_mapping(t_uint256,t_uint8)": {
						"encoding": "mapping",
						"key": "t_uint256",
						"label": "mapping(uint256 => uint8)",
						"numberOfBytes": "32",
						"value": "t_uint8"
					},
					"t_string_storage": {
						"encoding": "bytes",
						"label": "string",
						"numberOfBytes": "32"
					},
					"t_struct(MarketItem)686_storage": {
						"encoding": "inplace",
						"label": "struct Marketplace.MarketItem",
						"members": [
							{
								"astId": 667,
								"contract": "Marketplace.sol:Marketplace",
								"label": "itemId",
								"offset": 0,
								"slot": "0",
								"type": "t_uint256"
							},
							{
								"astId": 669,
								"contract": "Marketplace.sol:Marketplace",
								"label": "title",
								"offset": 0,
								"slot": "1",
								"type": "t_string_storage"
							},
							{
								"astId": 671,
								"contract": "Marketplace.sol:Marketplace",
								"label": "description",
								"offset": 0,
								"slot": "2",
								"type": "t_string_storage"
							},
							{
								"astId": 673,
								"contract": "Marketplace.sol:Marketplace",
								"label": "price",
								"offset": 0,
								"slot": "3",
								"type": "t_uint256"
							},
							{
								"astId": 675,
								"contract": "Marketplace.sol:Marketplace",
								"label": "seller",
								"offset": 0,
								"slot": "4",
								"type": "t_address_payable"
							},
							{
								"astId": 677,
								"contract": "Marketplace.sol:Marketplace",
								"label": "imageUrl",
								"offset": 0,
								"slot": "5",
								"type": "t_string_storage"
							},
							{
								"astId": 679,
								"contract": "Marketplace.sol:Marketplace",
								"label": "quantity",
								"offset": 0,
								"slot": "6",
								"type": "t_uint8"
							},
							{
								"astId": 681,
								"contract": "Marketplace.sol:Marketplace",
								"label": "createdAt",
								"offset": 0,
								"slot": "7",
								"type": "t_uint256"
							},
							{
								"astId": 683,
								"contract": "Marketplace.sol:Marketplace",
								"label": "updatedAt",
								"offset": 0,
								"slot": "8",
								"type": "t_uint256"
							},
							{
								"astId": 685,
								"contract": "Marketplace.sol:Marketplace",
								"label": "isActive",
								"offset": 0,
								"slot": "9",
								"type": "t_bool"
							}
						],
						"numberOfBytes": "320"
					},
					"t_struct(RoleData)19_storage": {
						"encoding": "inplace",
						"label": "struct AccessControl.RoleData",
						"members": [
							{
								"astId": 16,
								"contract": "Marketplace.sol:Marketplace",
								"label": "members",
								"offset": 0,
								"slot": "0",
								"type": "t_mapping(t_address,t_bool)"
							},
							{
								"astId": 18,
								"contract": "Marketplace.sol:Marketplace",
								"label": "adminRole",
								"offset": 0,
								"slot": "1",
								"type": "t_bytes32"
							}
						],
						"numberOfBytes": "64"
					},
					"t_uint256": {
						"encoding": "inplace",
						"label": "uint256",
						"numberOfBytes": "32"
					},
					"t_uint8": {
						"encoding": "inplace",
						"label": "uint8",
						"numberOfBytes": "1"
					}
				}
			},
			"userdoc": {
				"kind": "user",
				"methods": {},
				"version": 1
			}
		}
	}
}