{
	"Marketplace.sol": {
		"Marketplace": {
			"abi": [
				{
					"inputs": [],
					"stateMutability": "nonpayable",
					"type": "constructor"
				},
				{
					"anonymous": false,
					"inputs": [
						{
							"indexed": false,
							"internalType": "uint256",
							"name": "_itemId",
							"type": "uint256"
						},
						{
							"indexed": false,
							"internalType": "uint256",
							"name": "_price",
							"type": "uint256"
						},
						{
							"indexed": false,
							"internalType": "address",
							"name": "_seller",
							"type": "address"
						},
						{
							"indexed": false,
							"internalType": "address",
							"name": "_buyer",
							"type": "address"
						}
					],
					"name": "BuyItem",
					"type": "event"
				},
				{
					"anonymous": false,
					"inputs": [
						{
							"indexed": true,
							"internalType": "bytes32",
							"name": "role",
							"type": "bytes32"
						},
						{
							"indexed": true,
							"internalType": "bytes32",
							"name": "previousAdminRole",
							"type": "bytes32"
						},
						{
							"indexed": true,
							"internalType": "bytes32",
							"name": "newAdminRole",
							"type": "bytes32"
						}
					],
					"name": "RoleAdminChanged",
					"type": "event"
				},
				{
					"anonymous": false,
					"inputs": [
						{
							"indexed": true,
							"internalType": "bytes32",
							"name": "role",
							"type": "bytes32"
						},
						{
							"indexed": true,
							"internalType": "address",
							"name": "account",
							"type": "address"
						},
						{
							"indexed": true,
							"internalType": "address",
							"name": "sender",
							"type": "address"
						}
					],
					"name": "RoleGranted",
					"type": "event"
				},
				{
					"anonymous": false,
					"inputs": [
						{
							"indexed": true,
							"internalType": "bytes32",
							"name": "role",
							"type": "bytes32"
						},
						{
							"indexed": true,
							"internalType": "address",
							"name": "account",
							"type": "address"
						},
						{
							"indexed": true,
							"internalType": "address",
							"name": "sender",
							"type": "address"
						}
					],
					"name": "RoleRevoked",
					"type": "event"
				},
				{
					"inputs": [],
					"name": "DEFAULT_ADMIN_ROLE",
					"outputs": [
						{
							"internalType": "bytes32",
							"name": "",
							"type": "bytes32"
						}
					],
					"stateMutability": "view",
					"type": "function"
				},
				{
					"inputs": [],
					"name": "MARKETPLACE_OWNER",
					"outputs": [
						{
							"internalType": "bytes32",
							"name": "",
							"type": "bytes32"
						}
					],
					"stateMutability": "view",
					"type": "function"
				},
				{
					"inputs": [
						{
							"internalType": "uint256",
							"name": "_itemId",
							"type": "uint256"
						},
						{
							"internalType": "uint8",
							"name": "_quantity",
							"type": "uint8"
						}
					],
					"name": "buyMarketItem",
					"outputs": [],
					"stateMutability": "payable",
					"type": "function"
				},
				{
					"inputs": [
						{
							"internalType": "uint256",
							"name": "_itemId",
							"type": "uint256"
						},
						{
							"internalType": "address",
							"name": "_buyer",
							"type": "address"
						}
					],
					"name": "checkBuyer",
					"outputs": [
						{
							"internalType": "bool",
							"name": "",
							"type": "bool"
						}
					],
					"stateMutability": "view",
					"type": "function"
				},
				{
					"inputs": [
						{
							"internalType": "string",
							"name": "_title",
							"type": "string"
						},
						{
							"internalType": "string",
							"name": "_description",
							"type": "string"
						},
						{
							"internalType": "address payable",
							"name": "_seller",
							"type": "address"
						},
						{
							"internalType": "uint256",
							"name": "_price",
							"type": "uint256"
						},
						{
							"internalType": "string",
							"name": "_imageUrl",
							"type": "string"
						},
						{
							"internalType": "uint8",
							"name": "_quantity",
							"type": "uint8"
						}
					],
					"name": "createMarketItem",
					"outputs": [],
					"stateMutability": "nonpayable",
					"type": "function"
				},
				{
					"inputs": [
						{
							"internalType": "uint256",
							"name": "_itemId",
							"type": "uint256"
						}
					],
					"name": "getAverageStars",
					"outputs": [
						{
							"internalType": "uint256",
							"name": "",
							"type": "uint256"
						}
					],
					"stateMutability": "view",
					"type": "function"
				},
				{
					"inputs": [
						{
							"internalType": "uint256",
							"name": "_itemId",
							"type": "uint256"
						}
					],
					"name": "getMarketItem",
					"outputs": [
						{
							"internalType": "string",
							"name": "title",
							"type": "string"
						},
						{
							"internalType": "address payable",
							"name": "seller",
							"type": "address"
						},
						{
							"internalType": "uint256",
							"name": "price",
							"type": "uint256"
						}
					],
					"stateMutability": "view",
					"type": "function"
				},
				{
					"inputs": [
						{
							"internalType": "uint256",
							"name": "_itemId",
							"type": "uint256"
						}
					],
					"name": "getMarketItemDetails",
					"outputs": [
						{
							"internalType": "string",
							"name": "description",
							"type": "string"
						},
						{
							"internalType": "string",
							"name": "imageUrl",
							"type": "string"
						},
						{
							"internalType": "uint8",
							"name": "quantity",
							"type": "uint8"
						},
						{
							"internalType": "uint256",
							"name": "createdAt",
							"type": "uint256"
						},
						{
							"internalType": "uint256",
							"name": "updatedAt",
							"type": "uint256"
						}
					],
					"stateMutability": "view",
					"type": "function"
				},
				{
					"inputs": [
						{
							"internalType": "bytes32",
							"name": "role",
							"type": "bytes32"
						}
					],
					"name": "getRoleAdmin",
					"outputs": [
						{
							"internalType": "bytes32",
							"name": "",
							"type": "bytes32"
						}
					],
					"stateMutability": "view",
					"type": "function"
				},
				{
					"inputs": [
						{
							"internalType": "bytes32",
							"name": "role",
							"type": "bytes32"
						},
						{
							"internalType": "address",
							"name": "account",
							"type": "address"
						}
					],
					"name": "grantRole",
					"outputs": [],
					"stateMutability": "nonpayable",
					"type": "function"
				},
				{
					"inputs": [
						{
							"internalType": "bytes32",
							"name": "role",
							"type": "bytes32"
						},
						{
							"internalType": "address",
							"name": "account",
							"type": "address"
						}
					],
					"name": "hasRole",
					"outputs": [
						{
							"internalType": "bool",
							"name": "",
							"type": "bool"
						}
					],
					"stateMutability": "view",
					"type": "function"
				},
				{
					"inputs": [],
					"name": "nextItemId",
					"outputs": [
						{
							"internalType": "uint256",
							"name": "",
							"type": "uint256"
						}
					],
					"stateMutability": "view",
					"type": "function"
				},
				{
					"inputs": [
						{
							"internalType": "bytes32",
							"name": "role",
							"type": "bytes32"
						},
						{
							"internalType": "address",
							"name": "account",
							"type": "address"
						}
					],
					"name": "renounceRole",
					"outputs": [],
					"stateMutability": "nonpayable",
					"type": "function"
				},
				{
					"inputs": [
						{
							"internalType": "bytes32",
							"name": "role",
							"type": "bytes32"
						},
						{
							"internalType": "address",
							"name": "account",
							"type": "address"
						}
					],
					"name": "revokeRole",
					"outputs": [],
					"stateMutability": "nonpayable",
					"type": "function"
				},
				{
					"inputs": [
						{
							"internalType": "bytes4",
							"name": "interfaceId",
							"type": "bytes4"
						}
					],
					"name": "supportsInterface",
					"outputs": [
						{
							"internalType": "bool",
							"name": "",
							"type": "bool"
						}
					],
					"stateMutability": "view",
					"type": "function"
				},
				{
					"inputs": [
						{
							"internalType": "uint256",
							"name": "_itemId",
							"type": "uint256"
						},
						{
							"internalType": "string",
							"name": "_description",
							"type": "string"
						}
					],
					"name": "updateMarketItemDescription",
					"outputs": [],
					"stateMutability": "nonpayable",
					"type": "function"
				},
				{
					"inputs": [
						{
							"internalType": "uint256",
							"name": "_itemId",
							"type": "uint256"
						},
						{
							"internalType": "string",
							"name": "_imageUrl",
							"type": "string"
						}
					],
					"name": "updateMarketItemImgUrl",
					"outputs": [],
					"stateMutability": "nonpayable",
					"type": "function"
				},
				{
					"inputs": [
						{
							"internalType": "uint256",
							"name": "_itemId",
							"type": "uint256"
						},
						{
							"internalType": "uint256",
							"name": "_price",
							"type": "uint256"
						}
					],
					"name": "updateMarketItemPrice",
					"outputs": [],
					"stateMutability": "nonpayable",
					"type": "function"
				},
				{
					"inputs": [
						{
							"internalType": "uint256",
							"name": "_itemId",
							"type": "uint256"
						},
						{
							"internalType": "uint8",
							"name": "_quantity",
							"type": "uint8"
						}
					],
					"name": "updateMarketItemQuantity",
					"outputs": [],
					"stateMutability": "nonpayable",
					"type": "function"
				},
				{
					"inputs": [
						{
							"internalType": "uint256",
							"name": "_itemId",
							"type": "uint256"
						},
						{
							"internalType": "uint8",
							"name": "_stars",
							"type": "uint8"
						}
					],
					"name": "voteMarketItemStars",
					"outputs": [],
					"stateMutability": "nonpayable",
					"type": "function"
				}
			],
			"devdoc": {
				"kind": "dev",
				"methods": {
					"getRoleAdmin(bytes32)": {
						"details": "Returns the admin role that controls `role`. See {grantRole} and {revokeRole}. To change a role's admin, use {_setRoleAdmin}."
					},
					"grantRole(bytes32,address)": {
						"details": "Grants `role` to `account`. If `account` had not been already granted `role`, emits a {RoleGranted} event. Requirements: - the caller must have ``role``'s admin role."
					},
					"hasRole(bytes32,address)": {
						"details": "Returns `true` if `account` has been granted `role`."
					},
					"renounceRole(bytes32,address)": {
						"details": "Revokes `role` from the calling account. Roles are often managed via {grantRole} and {revokeRole}: this function's purpose is to provide a mechanism for accounts to lose their privileges if they are compromised (such as when a trusted device is misplaced). If the calling account had been revoked `role`, emits a {RoleRevoked} event. Requirements: - the caller must be `account`."
					},
					"revokeRole(bytes32,address)": {
						"details": "Revokes `role` from `account`. If `account` had been granted `role`, emits a {RoleRevoked} event. Requirements: - the caller must have ``role``'s admin role."
					},
					"supportsInterface(bytes4)": {
						"details": "See {IERC165-supportsInterface}."
					}
				},
				"version": 1
			},
			"evm": {
				"assembly": "    /* \"Marketplace.sol\":122:5430  contract Marketplace is  AccessControl {\r... */\n  mstore(0x40, 0x80)\n    /* \"Marketplace.sol\":277:278  0 */\n  0x00\n    /* \"Marketplace.sol\":249:278  uint256 public nextItemId = 0 */\n  0x01\n  sstore\n    /* \"Marketplace.sol\":857:931  constructor() {\r... */\n  callvalue\n  dup1\n  iszero\n  tag_1\n  jumpi\n  0x00\n  dup1\n  revert\ntag_1:\n  pop\n    /* \"Marketplace.sol\":882:923  _grantRole(MARKETPLACE_OWNER, msg.sender) */\n  tag_4\n    /* \"Marketplace.sol\":212:242  keccak256(\"MARKETPLACE_OWNER\") */\n  0x1f9ca85e780b3b3cfbe1334ca9dd68802db7860f692bd163c796bb76d464edc0\n    /* \"Marketplace.sol\":912:922  msg.sender */\n  caller\n    /* \"Marketplace.sol\":882:892  _grantRole */\n  shl(0x20, tag_5)\n    /* \"Marketplace.sol\":882:923  _grantRole(MARKETPLACE_OWNER, msg.sender) */\n  0x20\n  shr\n  jump\t// in\ntag_4:\n    /* \"Marketplace.sol\":122:5430  contract Marketplace is  AccessControl {\r... */\n  jump(tag_6)\n    /* \"@openzeppelin/contracts/access/AccessControl.sol\":6861:7094  function _grantRole(bytes32 role, address account) internal virtual {... */\ntag_5:\n    /* \"@openzeppelin/contracts/access/AccessControl.sol\":6944:6966  hasRole(role, account) */\n  tag_8\n    /* \"@openzeppelin/contracts/access/AccessControl.sol\":6952:6956  role */\n  dup3\n    /* \"@openzeppelin/contracts/access/AccessControl.sol\":6958:6965  account */\n  dup3\n    /* \"@openzeppelin/contracts/access/AccessControl.sol\":6944:6951  hasRole */\n  shl(0x20, tag_9)\n    /* \"@openzeppelin/contracts/access/AccessControl.sol\":6944:6966  hasRole(role, account) */\n  0x20\n  shr\n  jump\t// in\ntag_8:\n    /* \"@openzeppelin/contracts/access/AccessControl.sol\":6939:7088  if (!hasRole(role, account)) {... */\n  tag_10\n  jumpi\n    /* \"@openzeppelin/contracts/access/AccessControl.sol\":7014:7018  true */\n  0x01\n    /* \"@openzeppelin/contracts/access/AccessControl.sol\":6982:6988  _roles */\n  0x00\n    /* \"@openzeppelin/contracts/access/AccessControl.sol\":6982:6994  _roles[role] */\n  dup1\n    /* \"@openzeppelin/contracts/access/AccessControl.sol\":6989:6993  role */\n  dup5\n    /* \"@openzeppelin/contracts/access/AccessControl.sol\":6982:6994  _roles[role] */\n  dup2\n  mstore\n  0x20\n  add\n  swap1\n  dup2\n  mstore\n  0x20\n  add\n  0x00\n  keccak256\n    /* \"@openzeppelin/contracts/access/AccessControl.sol\":6982:7002  _roles[role].members */\n  0x00\n  add\n    /* \"@openzeppelin/contracts/access/AccessControl.sol\":6982:7011  _roles[role].members[account] */\n  0x00\n    /* \"@openzeppelin/contracts/access/AccessControl.sol\":7003:7010  account */\n  dup4\n    /* \"@openzeppelin/contracts/access/AccessControl.sol\":6982:7011  _roles[role].members[account] */\n  0xffffffffffffffffffffffffffffffffffffffff\n  and\n  0xffffffffffffffffffffffffffffffffffffffff\n  and\n  dup2\n  mstore\n  0x20\n  add\n  swap1\n  dup2\n  mstore\n  0x20\n  add\n  0x00\n  keccak256\n  0x00\n    /* \"@openzeppelin/contracts/access/AccessControl.sol\":6982:7018  _roles[role].members[account] = true */\n  0x0100\n  exp\n  dup2\n  sload\n  dup2\n  0xff\n  mul\n  not\n  and\n  swap1\n  dup4\n  iszero\n  iszero\n  mul\n  or\n  swap1\n  sstore\n  pop\n    /* \"@openzeppelin/contracts/access/AccessControl.sol\":7064:7076  _msgSender() */\n  tag_11\n    /* \"@openzeppelin/contracts/access/AccessControl.sol\":7064:7074  _msgSender */\n  shl(0x20, tag_12)\n    /* \"@openzeppelin/contracts/access/AccessControl.sol\":7064:7076  _msgSender() */\n  0x20\n  shr\n  jump\t// in\ntag_11:\n    /* \"@openzeppelin/contracts/access/AccessControl.sol\":7037:7077  RoleGranted(role, account, _msgSender()) */\n  0xffffffffffffffffffffffffffffffffffffffff\n  and\n    /* \"@openzeppelin/contracts/access/AccessControl.sol\":7055:7062  account */\n  dup2\n    /* \"@openzeppelin/contracts/access/AccessControl.sol\":7037:7077  RoleGranted(role, account, _msgSender()) */\n  0xffffffffffffffffffffffffffffffffffffffff\n  and\n    /* \"@openzeppelin/contracts/access/AccessControl.sol\":7049:7053  role */\n  dup4\n    /* \"@openzeppelin/contracts/access/AccessControl.sol\":7037:7077  RoleGranted(role, account, _msgSender()) */\n  0x2f8788117e7eff1d82e926ec794901d17c78024a50270940304540a733656f0d\n  mload(0x40)\n  mload(0x40)\n  dup1\n  swap2\n  sub\n  swap1\n  log4\n    /* \"@openzeppelin/contracts/access/AccessControl.sol\":6939:7088  if (!hasRole(role, account)) {... */\ntag_10:\n    /* \"@openzeppelin/contracts/access/AccessControl.sol\":6861:7094  function _grantRole(bytes32 role, address account) internal virtual {... */\n  pop\n  pop\n  jump\t// out\n    /* \"@openzeppelin/contracts/access/AccessControl.sol\":2909:3054  function hasRole(bytes32 role, address account) public view virtual override returns (bool) {... */\ntag_9:\n    /* \"@openzeppelin/contracts/access/AccessControl.sol\":2995:2999  bool */\n  0x00\n    /* \"@openzeppelin/contracts/access/AccessControl.sol\":3018:3024  _roles */\n  dup1\n    /* \"@openzeppelin/contracts/access/AccessControl.sol\":3018:3030  _roles[role] */\n  0x00\n    /* \"@openzeppelin/contracts/access/AccessControl.sol\":3025:3029  role */\n  dup5\n    /* \"@openzeppelin/contracts/access/AccessControl.sol\":3018:3030  _roles[role] */\n  dup2\n  mstore\n  0x20\n  add\n  swap1\n  dup2\n  mstore\n  0x20\n  add\n  0x00\n  keccak256\n    /* \"@openzeppelin/contracts/access/AccessControl.sol\":3018:3038  _roles[role].members */\n  0x00\n  add\n    /* \"@openzeppelin/contracts/access/AccessControl.sol\":3018:3047  _roles[role].members[account] */\n  0x00\n    /* \"@openzeppelin/contracts/access/AccessControl.sol\":3039:3046  account */\n  dup4\n    /* \"@openzeppelin/contracts/access/AccessControl.sol\":3018:3047  _roles[role].members[account] */\n  0xffffffffffffffffffffffffffffffffffffffff\n  and\n  0xffffffffffffffffffffffffffffffffffffffff\n  and\n  dup2\n  mstore\n  0x20\n  add\n  swap1\n  dup2\n  mstore\n  0x20\n  add\n  0x00\n  keccak256\n  0x00\n  swap1\n  sload\n  swap1\n  0x0100\n  exp\n  swap1\n  div\n  0xff\n  and\n    /* \"@openzeppelin/contracts/access/AccessControl.sol\":3011:3047  return _roles[role].members[account] */\n  swap1\n  pop\n    /* \"@openzeppelin/contracts/access/AccessControl.sol\":2909:3054  function hasRole(bytes32 role, address account) public view virtual override returns (bool) {... */\n  swap3\n  swap2\n  pop\n  pop\n  jump\t// out\n    /* \"@openzeppelin/contracts/utils/Context.sol\":640:736  function _msgSender() internal view virtual returns (address) {... */\ntag_12:\n    /* \"@openzeppelin/contracts/utils/Context.sol\":693:700  address */\n  0x00\n    /* \"@openzeppelin/contracts/utils/Context.sol\":719:729  msg.sender */\n  caller\n    /* \"@openzeppelin/contracts/utils/Context.sol\":712:729  return msg.sender */\n  swap1\n  pop\n    /* \"@openzeppelin/contracts/utils/Context.sol\":640:736  function _msgSender() internal view virtual returns (address) {... */\n  swap1\n  jump\t// out\n    /* \"Marketplace.sol\":122:5430  contract Marketplace is  AccessControl {\r... */\ntag_6:\n  dataSize(sub_0)\n  dup1\n  dataOffset(sub_0)\n  0x00\n  codecopy\n  0x00\n  return\nstop\n\nsub_0: assembly {\n        /* \"Marketplace.sol\":122:5430  contract Marketplace is  AccessControl {\r... */\n      mstore(0x40, 0x80)\n      jumpi(tag_1, lt(calldatasize, 0x04))\n      shr(0xe0, calldataload(0x00))\n      dup1\n      0x91d14854\n      gt\n      tag_22\n      jumpi\n      dup1\n      0xc7be7a49\n      gt\n      tag_23\n      jumpi\n      dup1\n      0xc7be7a49\n      eq\n      tag_17\n      jumpi\n      dup1\n      0xd547741f\n      eq\n      tag_18\n      jumpi\n      dup1\n      0xeca1e6a0\n      eq\n      tag_19\n      jumpi\n      dup1\n      0xf0d2d06d\n      eq\n      tag_20\n      jumpi\n      dup1\n      0xfec4d15d\n      eq\n      tag_21\n      jumpi\n      jump(tag_1)\n    tag_23:\n      dup1\n      0x91d14854\n      eq\n      tag_12\n      jumpi\n      dup1\n      0xa217fddf\n      eq\n      tag_13\n      jumpi\n      dup1\n      0xa6667d06\n      eq\n      tag_14\n      jumpi\n      dup1\n      0xae13a317\n      eq\n      tag_15\n      jumpi\n      dup1\n      0xb491efa0\n      eq\n      tag_16\n      jumpi\n      jump(tag_1)\n    tag_22:\n      dup1\n      0x36568abe\n      gt\n      tag_24\n      jumpi\n      dup1\n      0x36568abe\n      eq\n      tag_7\n      jumpi\n      dup1\n      0x6a868974\n      eq\n      tag_8\n      jumpi\n      dup1\n      0x7735904f\n      eq\n      tag_9\n      jumpi\n      dup1\n      0x88d9e84c\n      eq\n      tag_10\n      jumpi\n      dup1\n      0x8f28afee\n      eq\n      tag_11\n      jumpi\n      jump(tag_1)\n    tag_24:\n      dup1\n      0x01ffc9a7\n      eq\n      tag_2\n      jumpi\n      dup1\n      0x0c3774fc\n      eq\n      tag_3\n      jumpi\n      dup1\n      0x1dfef0eb\n      eq\n      tag_4\n      jumpi\n      dup1\n      0x248a9ca3\n      eq\n      tag_5\n      jumpi\n      dup1\n      0x2f2ff15d\n      eq\n      tag_6\n      jumpi\n    tag_1:\n      0x00\n      dup1\n      revert\n        /* \"@openzeppelin/contracts/access/AccessControl.sol\":2620:2822  function supportsInterface(bytes4 interfaceId) public view virtual override returns (bool) {... */\n    tag_2:\n      callvalue\n      dup1\n      iszero\n      tag_25\n      jumpi\n      0x00\n      dup1\n      revert\n    tag_25:\n      pop\n      tag_26\n      0x04\n      dup1\n      calldatasize\n      sub\n      dup2\n      add\n      swap1\n      tag_27\n      swap2\n      swap1\n      tag_28\n      jump\t// in\n    tag_27:\n      tag_29\n      jump\t// in\n    tag_26:\n      mload(0x40)\n      tag_30\n      swap2\n      swap1\n      tag_31\n      jump\t// in\n    tag_30:\n      mload(0x40)\n      dup1\n      swap2\n      sub\n      swap1\n      return\n        /* \"Marketplace.sol\":4448:4909  function voteMarketItemStars(uint256 _itemId, uint8 _stars) public {\r... */\n    tag_3:\n      callvalue\n      dup1\n      iszero\n      tag_32\n      jumpi\n      0x00\n      dup1\n      revert\n    tag_32:\n      pop\n      tag_33\n      0x04\n      dup1\n      calldatasize\n      sub\n      dup2\n      add\n      swap1\n      tag_34\n      swap2\n      swap1\n      tag_35\n      jump\t// in\n    tag_34:\n      tag_36\n      jump\t// in\n    tag_33:\n      stop\n        /* \"Marketplace.sol\":1448:2143  function buyMarketItem(uint256 _itemId, uint8 _quantity) public payable {\r... */\n    tag_4:\n      tag_37\n      0x04\n      dup1\n      calldatasize\n      sub\n      dup2\n      add\n      swap1\n      tag_38\n      swap2\n      swap1\n      tag_35\n      jump\t// in\n    tag_38:\n      tag_39\n      jump\t// in\n    tag_37:\n      stop\n        /* \"@openzeppelin/contracts/access/AccessControl.sol\":4008:4137  function getRoleAdmin(bytes32 role) public view virtual override returns (bytes32) {... */\n    tag_5:\n      callvalue\n      dup1\n      iszero\n      tag_40\n      jumpi\n      0x00\n      dup1\n      revert\n    tag_40:\n      pop\n      tag_41\n      0x04\n      dup1\n      calldatasize\n      sub\n      dup2\n      add\n      swap1\n      tag_42\n      swap2\n      swap1\n      tag_43\n      jump\t// in\n    tag_42:\n      tag_44\n      jump\t// in\n    tag_41:\n      mload(0x40)\n      tag_45\n      swap2\n      swap1\n      tag_46\n      jump\t// in\n    tag_45:\n      mload(0x40)\n      dup1\n      swap2\n      sub\n      swap1\n      return\n        /* \"@openzeppelin/contracts/access/AccessControl.sol\":4387:4532  function grantRole(bytes32 role, address account) public virtual override onlyRole(getRoleAdmin(role)) {... */\n    tag_6:\n      callvalue\n      dup1\n      iszero\n      tag_47\n      jumpi\n      0x00\n      dup1\n      revert\n    tag_47:\n      pop\n      tag_48\n      0x04\n      dup1\n      calldatasize\n      sub\n      dup2\n      add\n      swap1\n      tag_49\n      swap2\n      swap1\n      tag_50\n      jump\t// in\n    tag_49:\n      tag_51\n      jump\t// in\n    tag_48:\n      stop\n        /* \"@openzeppelin/contracts/access/AccessControl.sol\":5404:5618  function renounceRole(bytes32 role, address account) public virtual override {... */\n    tag_7:\n      callvalue\n      dup1\n      iszero\n      tag_52\n      jumpi\n      0x00\n      dup1\n      revert\n    tag_52:\n      pop\n      tag_53\n      0x04\n      dup1\n      calldatasize\n      sub\n      dup2\n      add\n      swap1\n      tag_54\n      swap2\n      swap1\n      tag_50\n      jump\t// in\n    tag_54:\n      tag_55\n      jump\t// in\n    tag_53:\n      stop\n        /* \"Marketplace.sol\":249:278  uint256 public nextItemId = 0 */\n    tag_8:\n      callvalue\n      dup1\n      iszero\n      tag_56\n      jumpi\n      0x00\n      dup1\n      revert\n    tag_56:\n      pop\n      tag_57\n      tag_58\n      jump\t// in\n    tag_57:\n      mload(0x40)\n      tag_59\n      swap2\n      swap1\n      tag_60\n      jump\t// in\n    tag_59:\n      mload(0x40)\n      dup1\n      swap2\n      sub\n      swap1\n      return\n        /* \"Marketplace.sol\":4919:5427  function getAverageStars(uint256 _itemId) public view returns (uint256) {\r... */\n    tag_9:\n      callvalue\n      dup1\n      iszero\n      tag_61\n      jumpi\n      0x00\n      dup1\n      revert\n    tag_61:\n      pop\n      tag_62\n      0x04\n      dup1\n      calldatasize\n      sub\n      dup2\n      add\n      swap1\n      tag_63\n      swap2\n      swap1\n      tag_64\n      jump\t// in\n    tag_63:\n      tag_65\n      jump\t// in\n    tag_62:\n      mload(0x40)\n      tag_66\n      swap2\n      swap1\n      tag_60\n      jump\t// in\n    tag_66:\n      mload(0x40)\n      dup1\n      swap2\n      sub\n      swap1\n      return\n        /* \"Marketplace.sol\":2400:2738  function getMarketItemDetails(uint256 _itemId) public view returns (string memory description, string memory imageUrl, uint8 quantity, uint256 createdAt, uint256 updatedAt) {\r... */\n    tag_10:\n      callvalue\n      dup1\n      iszero\n      tag_67\n      jumpi\n      0x00\n      dup1\n      revert\n    tag_67:\n      pop\n      tag_68\n      0x04\n      dup1\n      calldatasize\n      sub\n      dup2\n      add\n      swap1\n      tag_69\n      swap2\n      swap1\n      tag_64\n      jump\t// in\n    tag_69:\n      tag_70\n      jump\t// in\n    tag_68:\n      mload(0x40)\n      tag_71\n      swap6\n      swap5\n      swap4\n      swap3\n      swap2\n      swap1\n      tag_72\n      jump\t// in\n    tag_71:\n      mload(0x40)\n      dup1\n      swap2\n      sub\n      swap1\n      return\n        /* \"Marketplace.sol\":2746:3076  function updateMarketItemDescription(uint256 _itemId, string memory _description) public {\r... */\n    tag_11:\n      callvalue\n      dup1\n      iszero\n      tag_73\n      jumpi\n      0x00\n      dup1\n      revert\n    tag_73:\n      pop\n      tag_74\n      0x04\n      dup1\n      calldatasize\n      sub\n      dup2\n      add\n      swap1\n      tag_75\n      swap2\n      swap1\n      tag_76\n      jump\t// in\n    tag_75:\n      tag_77\n      jump\t// in\n    tag_74:\n      stop\n        /* \"@openzeppelin/contracts/access/AccessControl.sol\":2909:3054  function hasRole(bytes32 role, address account) public view virtual override returns (bool) {... */\n    tag_12:\n      callvalue\n      dup1\n      iszero\n      tag_78\n      jumpi\n      0x00\n      dup1\n      revert\n    tag_78:\n      pop\n      tag_79\n      0x04\n      dup1\n      calldatasize\n      sub\n      dup2\n      add\n      swap1\n      tag_80\n      swap2\n      swap1\n      tag_50\n      jump\t// in\n    tag_80:\n      tag_81\n      jump\t// in\n    tag_79:\n      mload(0x40)\n      tag_82\n      swap2\n      swap1\n      tag_31\n      jump\t// in\n    tag_82:\n      mload(0x40)\n      dup1\n      swap2\n      sub\n      swap1\n      return\n        /* \"@openzeppelin/contracts/access/AccessControl.sol\":2027:2076  bytes32 public constant DEFAULT_ADMIN_ROLE = 0x00 */\n    tag_13:\n      callvalue\n      dup1\n      iszero\n      tag_83\n      jumpi\n      0x00\n      dup1\n      revert\n    tag_83:\n      pop\n      tag_84\n      tag_85\n      jump\t// in\n    tag_84:\n      mload(0x40)\n      tag_86\n      swap2\n      swap1\n      tag_46\n      jump\t// in\n    tag_86:\n      mload(0x40)\n      dup1\n      swap2\n      sub\n      swap1\n      return\n        /* \"Marketplace.sol\":939:1440  function createMarketItem(string memory _title, string memory _description, address payable _seller, uint256 _price, string memory _imageUrl, uint8 _quantity) public {\r... */\n    tag_14:\n      callvalue\n      dup1\n      iszero\n      tag_87\n      jumpi\n      0x00\n      dup1\n      revert\n    tag_87:\n      pop\n      tag_88\n      0x04\n      dup1\n      calldatasize\n      sub\n      dup2\n      add\n      swap1\n      tag_89\n      swap2\n      swap1\n      tag_90\n      jump\t// in\n    tag_89:\n      tag_91\n      jump\t// in\n    tag_88:\n      stop\n        /* \"Marketplace.sol\":3721:4015  function updateMarketItemPrice(uint256 _itemId, uint256 _price) public {\r... */\n    tag_15:\n      callvalue\n      dup1\n      iszero\n      tag_92\n      jumpi\n      0x00\n      dup1\n      revert\n    tag_92:\n      pop\n      tag_93\n      0x04\n      dup1\n      calldatasize\n      sub\n      dup2\n      add\n      swap1\n      tag_94\n      swap2\n      swap1\n      tag_95\n      jump\t// in\n    tag_94:\n      tag_96\n      jump\t// in\n    tag_93:\n      stop\n        /* \"Marketplace.sol\":168:242  bytes32 public constant MARKETPLACE_OWNER = keccak256(\"MARKETPLACE_OWNER\") */\n    tag_16:\n      callvalue\n      dup1\n      iszero\n      tag_97\n      jumpi\n      0x00\n      dup1\n      revert\n    tag_97:\n      pop\n      tag_98\n      tag_99\n      jump\t// in\n    tag_98:\n      mload(0x40)\n      tag_100\n      swap2\n      swap1\n      tag_46\n      jump\t// in\n    tag_100:\n      mload(0x40)\n      dup1\n      swap2\n      sub\n      swap1\n      return\n        /* \"Marketplace.sol\":2151:2392  function getMarketItem(uint256 _itemId) public view returns (string memory title, address payable seller, uint256 price) {\r... */\n    tag_17:\n      callvalue\n      dup1\n      iszero\n      tag_101\n      jumpi\n      0x00\n      dup1\n      revert\n    tag_101:\n      pop\n      tag_102\n      0x04\n      dup1\n      calldatasize\n      sub\n      dup2\n      add\n      swap1\n      tag_103\n      swap2\n      swap1\n      tag_64\n      jump\t// in\n    tag_103:\n      tag_104\n      jump\t// in\n    tag_102:\n      mload(0x40)\n      tag_105\n      swap4\n      swap3\n      swap2\n      swap1\n      tag_106\n      jump\t// in\n    tag_105:\n      mload(0x40)\n      dup1\n      swap2\n      sub\n      swap1\n      return\n        /* \"@openzeppelin/contracts/access/AccessControl.sol\":4766:4913  function revokeRole(bytes32 role, address account) public virtual override onlyRole(getRoleAdmin(role)) {... */\n    tag_18:\n      callvalue\n      dup1\n      iszero\n      tag_107\n      jumpi\n      0x00\n      dup1\n      revert\n    tag_107:\n      pop\n      tag_108\n      0x04\n      dup1\n      calldatasize\n      sub\n      dup2\n      add\n      swap1\n      tag_109\n      swap2\n      swap1\n      tag_50\n      jump\t// in\n    tag_109:\n      tag_110\n      jump\t// in\n    tag_108:\n      stop\n        /* \"Marketplace.sol\":3084:3391  function updateMarketItemQuantity(uint256 _itemId, uint8 _quantity) public {\r... */\n    tag_19:\n      callvalue\n      dup1\n      iszero\n      tag_111\n      jumpi\n      0x00\n      dup1\n      revert\n    tag_111:\n      pop\n      tag_112\n      0x04\n      dup1\n      calldatasize\n      sub\n      dup2\n      add\n      swap1\n      tag_113\n      swap2\n      swap1\n      tag_35\n      jump\t// in\n    tag_113:\n      tag_114\n      jump\t// in\n    tag_112:\n      stop\n        /* \"Marketplace.sol\":3399:3713  function updateMarketItemImgUrl(uint256 _itemId, string memory _imageUrl) public {\r... */\n    tag_20:\n      callvalue\n      dup1\n      iszero\n      tag_115\n      jumpi\n      0x00\n      dup1\n      revert\n    tag_115:\n      pop\n      tag_116\n      0x04\n      dup1\n      calldatasize\n      sub\n      dup2\n      add\n      swap1\n      tag_117\n      swap2\n      swap1\n      tag_76\n      jump\t// in\n    tag_117:\n      tag_118\n      jump\t// in\n    tag_116:\n      stop\n        /* \"Marketplace.sol\":4292:4440  function checkBuyer(uint256 _itemId, address _buyer) public view returns (bool) {\r... */\n    tag_21:\n      callvalue\n      dup1\n      iszero\n      tag_119\n      jumpi\n      0x00\n      dup1\n      revert\n    tag_119:\n      pop\n      tag_120\n      0x04\n      dup1\n      calldatasize\n      sub\n      dup2\n      add\n      swap1\n      tag_121\n      swap2\n      swap1\n      tag_122\n      jump\t// in\n    tag_121:\n      tag_123\n      jump\t// in\n    tag_120:\n      mload(0x40)\n      tag_124\n      swap2\n      swap1\n      tag_31\n      jump\t// in\n    tag_124:\n      mload(0x40)\n      dup1\n      swap2\n      sub\n      swap1\n      return\n        /* \"@openzeppelin/contracts/access/AccessControl.sol\":2620:2822  function supportsInterface(bytes4 interfaceId) public view virtual override returns (bool) {... */\n    tag_29:\n        /* \"@openzeppelin/contracts/access/AccessControl.sol\":2705:2709  bool */\n      0x00\n        /* \"@openzeppelin/contracts/access/AccessControl.sol\":2743:2775  type(IAccessControl).interfaceId */\n      0x7965db0b00000000000000000000000000000000000000000000000000000000\n        /* \"@openzeppelin/contracts/access/AccessControl.sol\":2728:2775  interfaceId == type(IAccessControl).interfaceId */\n      not(0xffffffffffffffffffffffffffffffffffffffffffffffffffffffff)\n      and\n        /* \"@openzeppelin/contracts/access/AccessControl.sol\":2728:2739  interfaceId */\n      dup3\n        /* \"@openzeppelin/contracts/access/AccessControl.sol\":2728:2775  interfaceId == type(IAccessControl).interfaceId */\n      not(0xffffffffffffffffffffffffffffffffffffffffffffffffffffffff)\n      and\n      eq\n        /* \"@openzeppelin/contracts/access/AccessControl.sol\":2728:2815  interfaceId == type(IAccessControl).interfaceId || super.supportsInterface(interfaceId) */\n      dup1\n      tag_126\n      jumpi\n      pop\n        /* \"@openzeppelin/contracts/access/AccessControl.sol\":2779:2815  super.supportsInterface(interfaceId) */\n      tag_127\n        /* \"@openzeppelin/contracts/access/AccessControl.sol\":2803:2814  interfaceId */\n      dup3\n        /* \"@openzeppelin/contracts/access/AccessControl.sol\":2779:2802  super.supportsInterface */\n      tag_128\n        /* \"@openzeppelin/contracts/access/AccessControl.sol\":2779:2815  super.supportsInterface(interfaceId) */\n      jump\t// in\n    tag_127:\n        /* \"@openzeppelin/contracts/access/AccessControl.sol\":2728:2815  interfaceId == type(IAccessControl).interfaceId || super.supportsInterface(interfaceId) */\n    tag_126:\n        /* \"@openzeppelin/contracts/access/AccessControl.sol\":2721:2815  return interfaceId == type(IAccessControl).interfaceId || super.supportsInterface(interfaceId) */\n      swap1\n      pop\n        /* \"@openzeppelin/contracts/access/AccessControl.sol\":2620:2822  function supportsInterface(bytes4 interfaceId) public view virtual override returns (bool) {... */\n      swap2\n      swap1\n      pop\n      jump\t// out\n        /* \"Marketplace.sol\":4448:4909  function voteMarketItemStars(uint256 _itemId, uint8 _stars) public {\r... */\n    tag_36:\n        /* \"Marketplace.sol\":4548:4562  idToMarketItem */\n      0x04\n        /* \"Marketplace.sol\":4548:4571  idToMarketItem[_itemId] */\n      0x00\n        /* \"Marketplace.sol\":4563:4570  _itemId */\n      dup4\n        /* \"Marketplace.sol\":4548:4571  idToMarketItem[_itemId] */\n      dup2\n      mstore\n      0x20\n      add\n      swap1\n      dup2\n      mstore\n      0x20\n      add\n      0x00\n      keccak256\n        /* \"Marketplace.sol\":4548:4578  idToMarketItem[_itemId].seller */\n      0x04\n      add\n      0x00\n      swap1\n      sload\n      swap1\n      0x0100\n      exp\n      swap1\n      div\n      0xffffffffffffffffffffffffffffffffffffffff\n      and\n        /* \"Marketplace.sol\":4534:4578  msg.sender != idToMarketItem[_itemId].seller */\n      0xffffffffffffffffffffffffffffffffffffffff\n      and\n        /* \"Marketplace.sol\":4534:4544  msg.sender */\n      caller\n        /* \"Marketplace.sol\":4534:4578  msg.sender != idToMarketItem[_itemId].seller */\n      0xffffffffffffffffffffffffffffffffffffffff\n      and\n      eq\n      iszero\n        /* \"Marketplace.sol\":4526:4605  require(msg.sender != idToMarketItem[_itemId].seller, \"The seller cannot vote\") */\n      tag_130\n      jumpi\n      mload(0x40)\n      0x08c379a000000000000000000000000000000000000000000000000000000000\n      dup2\n      mstore\n      0x04\n      add\n      tag_131\n      swap1\n      tag_132\n      jump\t// in\n    tag_131:\n      mload(0x40)\n      dup1\n      swap2\n      sub\n      swap1\n      revert\n    tag_130:\n        /* \"Marketplace.sol\":4634:4635  5 */\n      0x05\n        /* \"Marketplace.sol\":4624:4630  _stars */\n      dup2\n        /* \"Marketplace.sol\":4624:4635  _stars <= 5 */\n      0xff\n      and\n      gt\n      iszero\n        /* \"Marketplace.sol\":4616:4677  require(_stars <= 5, \"Stars must be less than or equal to 5\") */\n      tag_133\n      jumpi\n      mload(0x40)\n      0x08c379a000000000000000000000000000000000000000000000000000000000\n      dup2\n      mstore\n      0x04\n      add\n      tag_134\n      swap1\n      tag_135\n      jump\t// in\n    tag_134:\n      mload(0x40)\n      dup1\n      swap2\n      sub\n      swap1\n      revert\n    tag_133:\n        /* \"Marketplace.sol\":4706:4707  1 */\n      0x01\n        /* \"Marketplace.sol\":4696:4702  _stars */\n      dup2\n        /* \"Marketplace.sol\":4696:4707  _stars >= 1 */\n      0xff\n      and\n      lt\n      iszero\n        /* \"Marketplace.sol\":4688:4752  require(_stars >= 1, \"Stars must be greater than or equal to 1\") */\n      tag_136\n      jumpi\n      mload(0x40)\n      0x08c379a000000000000000000000000000000000000000000000000000000000\n      dup2\n      mstore\n      0x04\n      add\n      tag_137\n      swap1\n      tag_138\n      jump\t// in\n    tag_137:\n      mload(0x40)\n      dup1\n      swap2\n      sub\n      swap1\n      revert\n    tag_136:\n        /* \"Marketplace.sol\":4771:4802  checkBuyer(_itemId, msg.sender) */\n      tag_139\n        /* \"Marketplace.sol\":4782:4789  _itemId */\n      dup3\n        /* \"Marketplace.sol\":4791:4801  msg.sender */\n      caller\n        /* \"Marketplace.sol\":4771:4781  checkBuyer */\n      tag_123\n        /* \"Marketplace.sol\":4771:4802  checkBuyer(_itemId, msg.sender) */\n      jump\t// in\n    tag_139:\n        /* \"Marketplace.sol\":4763:4840  require(checkBuyer(_itemId, msg.sender), \"You cannot vote for this product.\") */\n      tag_140\n      jumpi\n      mload(0x40)\n      0x08c379a000000000000000000000000000000000000000000000000000000000\n      dup2\n      mstore\n      0x04\n      add\n      tag_141\n      swap1\n      tag_142\n      jump\t// in\n    tag_141:\n      mload(0x40)\n      dup1\n      swap2\n      sub\n      swap1\n      revert\n    tag_140:\n        /* \"Marketplace.sol\":4895:4901  _stars */\n      dup1\n        /* \"Marketplace.sol\":4851:4871  addressToProductVote */\n      0x03\n        /* \"Marketplace.sol\":4851:4883  addressToProductVote[msg.sender] */\n      0x00\n        /* \"Marketplace.sol\":4872:4882  msg.sender */\n      caller\n        /* \"Marketplace.sol\":4851:4883  addressToProductVote[msg.sender] */\n      0xffffffffffffffffffffffffffffffffffffffff\n      and\n      0xffffffffffffffffffffffffffffffffffffffff\n      and\n      dup2\n      mstore\n      0x20\n      add\n      swap1\n      dup2\n      mstore\n      0x20\n      add\n      0x00\n      keccak256\n        /* \"Marketplace.sol\":4851:4892  addressToProductVote[msg.sender][_itemId] */\n      0x00\n        /* \"Marketplace.sol\":4884:4891  _itemId */\n      dup5\n        /* \"Marketplace.sol\":4851:4892  addressToProductVote[msg.sender][_itemId] */\n      dup2\n      mstore\n      0x20\n      add\n      swap1\n      dup2\n      mstore\n      0x20\n      add\n      0x00\n      keccak256\n      0x00\n        /* \"Marketplace.sol\":4851:4901  addressToProductVote[msg.sender][_itemId] = _stars */\n      0x0100\n      exp\n      dup2\n      sload\n      dup2\n      0xff\n      mul\n      not\n      and\n      swap1\n      dup4\n      0xff\n      and\n      mul\n      or\n      swap1\n      sstore\n      pop\n        /* \"Marketplace.sol\":4448:4909  function voteMarketItemStars(uint256 _itemId, uint8 _stars) public {\r... */\n      pop\n      pop\n      jump\t// out\n        /* \"Marketplace.sol\":1448:2143  function buyMarketItem(uint256 _itemId, uint8 _quantity) public payable {\r... */\n    tag_39:\n        /* \"Marketplace.sol\":1531:1549  uint256 finalPrice */\n      0x00\n        /* \"Marketplace.sol\":1584:1593  _quantity */\n      dup2\n        /* \"Marketplace.sol\":1552:1593  idToMarketItem[_itemId].price * _quantity */\n      0xff\n      and\n        /* \"Marketplace.sol\":1552:1566  idToMarketItem */\n      0x04\n        /* \"Marketplace.sol\":1552:1575  idToMarketItem[_itemId] */\n      0x00\n        /* \"Marketplace.sol\":1567:1574  _itemId */\n      dup6\n        /* \"Marketplace.sol\":1552:1575  idToMarketItem[_itemId] */\n      dup2\n      mstore\n      0x20\n      add\n      swap1\n      dup2\n      mstore\n      0x20\n      add\n      0x00\n      keccak256\n        /* \"Marketplace.sol\":1552:1581  idToMarketItem[_itemId].price */\n      0x03\n      add\n      sload\n        /* \"Marketplace.sol\":1552:1593  idToMarketItem[_itemId].price * _quantity */\n      tag_144\n      swap2\n      swap1\n      tag_145\n      jump\t// in\n    tag_144:\n        /* \"Marketplace.sol\":1531:1593  uint256 finalPrice = idToMarketItem[_itemId].price * _quantity */\n      swap1\n      pop\n        /* \"Marketplace.sol\":1626:1635  msg.value */\n      callvalue\n        /* \"Marketplace.sol\":1612:1622  finalPrice */\n      dup2\n        /* \"Marketplace.sol\":1612:1635  finalPrice == msg.value */\n      eq\n        /* \"Marketplace.sol\":1604:1660  require(finalPrice == msg.value, \"Price does not match\") */\n      tag_146\n      jumpi\n      mload(0x40)\n      0x08c379a000000000000000000000000000000000000000000000000000000000\n      dup2\n      mstore\n      0x04\n      add\n      tag_147\n      swap1\n      tag_148\n      jump\t// in\n    tag_147:\n      mload(0x40)\n      dup1\n      swap2\n      sub\n      swap1\n      revert\n    tag_146:\n        /* \"Marketplace.sol\":1691:1692  0 */\n      0x00\n        /* \"Marketplace.sol\":1679:1688  _quantity */\n      dup3\n        /* \"Marketplace.sol\":1679:1692  _quantity > 0 */\n      0xff\n      and\n      gt\n        /* \"Marketplace.sol\":1671:1728  require(_quantity > 0, \"Quantity must be greater than 0\") */\n      tag_149\n      jumpi\n      mload(0x40)\n      0x08c379a000000000000000000000000000000000000000000000000000000000\n      dup2\n      mstore\n      0x04\n      add\n      tag_150\n      swap1\n      tag_151\n      jump\t// in\n    tag_150:\n      mload(0x40)\n      dup1\n      swap2\n      sub\n      swap1\n      revert\n    tag_149:\n        /* \"Marketplace.sol\":1760:1774  idToMarketItem */\n      0x04\n        /* \"Marketplace.sol\":1760:1783  idToMarketItem[_itemId] */\n      0x00\n        /* \"Marketplace.sol\":1775:1782  _itemId */\n      dup5\n        /* \"Marketplace.sol\":1760:1783  idToMarketItem[_itemId] */\n      dup2\n      mstore\n      0x20\n      add\n      swap1\n      dup2\n      mstore\n      0x20\n      add\n      0x00\n      keccak256\n        /* \"Marketplace.sol\":1760:1792  idToMarketItem[_itemId].quantity */\n      0x06\n      add\n      0x00\n      swap1\n      sload\n      swap1\n      0x0100\n      exp\n      swap1\n      div\n      0xff\n      and\n        /* \"Marketplace.sol\":1747:1792  _quantity <= idToMarketItem[_itemId].quantity */\n      0xff\n      and\n        /* \"Marketplace.sol\":1747:1756  _quantity */\n      dup3\n        /* \"Marketplace.sol\":1747:1792  _quantity <= idToMarketItem[_itemId].quantity */\n      0xff\n      and\n      gt\n      iszero\n        /* \"Marketplace.sol\":1739:1858  require(_quantity <= idToMarketItem[_itemId].quantity, \"Quantity must be less than or equal to the available quantity\") */\n      tag_152\n      jumpi\n      mload(0x40)\n      0x08c379a000000000000000000000000000000000000000000000000000000000\n      dup2\n      mstore\n      0x04\n      add\n      tag_153\n      swap1\n      tag_154\n      jump\t// in\n    tag_153:\n      mload(0x40)\n      dup1\n      swap2\n      sub\n      swap1\n      revert\n    tag_152:\n        /* \"Marketplace.sol\":1869:1883  idToMarketItem */\n      0x04\n        /* \"Marketplace.sol\":1869:1892  idToMarketItem[_itemId] */\n      0x00\n        /* \"Marketplace.sol\":1884:1891  _itemId */\n      dup5\n        /* \"Marketplace.sol\":1869:1892  idToMarketItem[_itemId] */\n      dup2\n      mstore\n      0x20\n      add\n      swap1\n      dup2\n      mstore\n      0x20\n      add\n      0x00\n      keccak256\n        /* \"Marketplace.sol\":1869:1899  idToMarketItem[_itemId].seller */\n      0x04\n      add\n      0x00\n      swap1\n      sload\n      swap1\n      0x0100\n      exp\n      swap1\n      div\n      0xffffffffffffffffffffffffffffffffffffffff\n      and\n        /* \"Marketplace.sol\":1869:1908  idToMarketItem[_itemId].seller.transfer */\n      0xffffffffffffffffffffffffffffffffffffffff\n      and\n        /* \"Marketplace.sol\":1869:1919  idToMarketItem[_itemId].seller.transfer(msg.value) */\n      0x08fc\n        /* \"Marketplace.sol\":1909:1918  msg.value */\n      callvalue\n        /* \"Marketplace.sol\":1869:1919  idToMarketItem[_itemId].seller.transfer(msg.value) */\n      swap1\n      dup2\n      iszero\n      mul\n      swap1\n      mload(0x40)\n      0x00\n      mload(0x40)\n      dup1\n      dup4\n      sub\n      dup2\n      dup6\n      dup9\n      dup9\n      call\n      swap4\n      pop\n      pop\n      pop\n      pop\n      iszero\n      dup1\n      iszero\n      tag_156\n      jumpi\n      returndatasize\n      0x00\n      dup1\n      returndatacopy\n      revert(0x00, returndatasize)\n    tag_156:\n      pop\n        /* \"Marketplace.sol\":1966:1975  _quantity */\n      dup2\n        /* \"Marketplace.sol\":1930:1944  idToMarketItem */\n      0x04\n        /* \"Marketplace.sol\":1930:1953  idToMarketItem[_itemId] */\n      0x00\n        /* \"Marketplace.sol\":1945:1952  _itemId */\n      dup6\n        /* \"Marketplace.sol\":1930:1953  idToMarketItem[_itemId] */\n      dup2\n      mstore\n      0x20\n      add\n      swap1\n      dup2\n      mstore\n      0x20\n      add\n      0x00\n      keccak256\n        /* \"Marketplace.sol\":1930:1962  idToMarketItem[_itemId].quantity */\n      0x06\n      add\n      0x00\n        /* \"Marketplace.sol\":1930:1975  idToMarketItem[_itemId].quantity -= _quantity */\n      dup3\n      dup3\n      dup3\n      swap1\n      sload\n      swap1\n      0x0100\n      exp\n      swap1\n      div\n      0xff\n      and\n      tag_157\n      swap2\n      swap1\n      tag_158\n      jump\t// in\n    tag_157:\n      swap3\n      pop\n      0x0100\n      exp\n      dup2\n      sload\n      dup2\n      0xff\n      mul\n      not\n      and\n      swap1\n      dup4\n      0xff\n      and\n      mul\n      or\n      swap1\n      sstore\n      pop\n        /* \"Marketplace.sol\":1986:2002  idToBuyerAddress */\n      0x02\n        /* \"Marketplace.sol\":1986:2011  idToBuyerAddress[_itemId] */\n      0x00\n        /* \"Marketplace.sol\":2003:2010  _itemId */\n      dup5\n        /* \"Marketplace.sol\":1986:2011  idToBuyerAddress[_itemId] */\n      dup2\n      mstore\n      0x20\n      add\n      swap1\n      dup2\n      mstore\n      0x20\n      add\n      0x00\n      keccak256\n        /* \"Marketplace.sol\":2017:2027  msg.sender */\n      caller\n        /* \"Marketplace.sol\":1986:2028  idToBuyerAddress[_itemId].push(msg.sender) */\n      swap1\n      dup1\n      0x01\n      dup2\n      sload\n      add\n      dup1\n      dup3\n      sstore\n      dup1\n      swap2\n      pop\n      pop\n      0x01\n      swap1\n      sub\n      swap1\n      0x00\n      mstore\n      keccak256(0x00, 0x20)\n      add\n      0x00\n      swap1\n      swap2\n      swap1\n      swap2\n      swap1\n      swap2\n      0x0100\n      exp\n      dup2\n      sload\n      dup2\n      0xffffffffffffffffffffffffffffffffffffffff\n      mul\n      not\n      and\n      swap1\n      dup4\n      0xffffffffffffffffffffffffffffffffffffffff\n      and\n      mul\n      or\n      swap1\n      sstore\n      pop\n        /* \"Marketplace.sol\":2044:2135  BuyItem(_itemId, idToMarketItem[_itemId].price, idToMarketItem[_itemId].seller, msg.sender) */\n      0xf2f622c4ee3232d0d08c3870751d38ddef2eaf0e7e0c5d38239c7dc8921ca680\n        /* \"Marketplace.sol\":2052:2059  _itemId */\n      dup4\n        /* \"Marketplace.sol\":2061:2075  idToMarketItem */\n      0x04\n        /* \"Marketplace.sol\":2061:2084  idToMarketItem[_itemId] */\n      0x00\n        /* \"Marketplace.sol\":2076:2083  _itemId */\n      dup7\n        /* \"Marketplace.sol\":2061:2084  idToMarketItem[_itemId] */\n      dup2\n      mstore\n      0x20\n      add\n      swap1\n      dup2\n      mstore\n      0x20\n      add\n      0x00\n      keccak256\n        /* \"Marketplace.sol\":2061:2090  idToMarketItem[_itemId].price */\n      0x03\n      add\n      sload\n        /* \"Marketplace.sol\":2092:2106  idToMarketItem */\n      0x04\n        /* \"Marketplace.sol\":2092:2115  idToMarketItem[_itemId] */\n      0x00\n        /* \"Marketplace.sol\":2107:2114  _itemId */\n      dup8\n        /* \"Marketplace.sol\":2092:2115  idToMarketItem[_itemId] */\n      dup2\n      mstore\n      0x20\n      add\n      swap1\n      dup2\n      mstore\n      0x20\n      add\n      0x00\n      keccak256\n        /* \"Marketplace.sol\":2092:2122  idToMarketItem[_itemId].seller */\n      0x04\n      add\n      0x00\n      swap1\n      sload\n      swap1\n      0x0100\n      exp\n      swap1\n      div\n      0xffffffffffffffffffffffffffffffffffffffff\n      and\n        /* \"Marketplace.sol\":2124:2134  msg.sender */\n      caller\n        /* \"Marketplace.sol\":2044:2135  BuyItem(_itemId, idToMarketItem[_itemId].price, idToMarketItem[_itemId].seller, msg.sender) */\n      mload(0x40)\n      tag_160\n      swap5\n      swap4\n      swap3\n      swap2\n      swap1\n      tag_161\n      jump\t// in\n    tag_160:\n      mload(0x40)\n      dup1\n      swap2\n      sub\n      swap1\n      log1\n        /* \"Marketplace.sol\":1520:2143  {\r... */\n      pop\n        /* \"Marketplace.sol\":1448:2143  function buyMarketItem(uint256 _itemId, uint8 _quantity) public payable {\r... */\n      pop\n      pop\n      jump\t// out\n        /* \"@openzeppelin/contracts/access/AccessControl.sol\":4008:4137  function getRoleAdmin(bytes32 role) public view virtual override returns (bytes32) {... */\n    tag_44:\n        /* \"@openzeppelin/contracts/access/AccessControl.sol\":4082:4089  bytes32 */\n      0x00\n        /* \"@openzeppelin/contracts/access/AccessControl.sol\":4108:4114  _roles */\n      dup1\n        /* \"@openzeppelin/contracts/access/AccessControl.sol\":4108:4120  _roles[role] */\n      0x00\n        /* \"@openzeppelin/contracts/access/AccessControl.sol\":4115:4119  role */\n      dup4\n        /* \"@openzeppelin/contracts/access/AccessControl.sol\":4108:4120  _roles[role] */\n      dup2\n      mstore\n      0x20\n      add\n      swap1\n      dup2\n      mstore\n      0x20\n      add\n      0x00\n      keccak256\n        /* \"@openzeppelin/contracts/access/AccessControl.sol\":4108:4130  _roles[role].adminRole */\n      0x01\n      add\n      sload\n        /* \"@openzeppelin/contracts/access/AccessControl.sol\":4101:4130  return _roles[role].adminRole */\n      swap1\n      pop\n        /* \"@openzeppelin/contracts/access/AccessControl.sol\":4008:4137  function getRoleAdmin(bytes32 role) public view virtual override returns (bytes32) {... */\n      swap2\n      swap1\n      pop\n      jump\t// out\n        /* \"@openzeppelin/contracts/access/AccessControl.sol\":4387:4532  function grantRole(bytes32 role, address account) public virtual override onlyRole(getRoleAdmin(role)) {... */\n    tag_51:\n        /* \"@openzeppelin/contracts/access/AccessControl.sol\":4470:4488  getRoleAdmin(role) */\n      tag_163\n        /* \"@openzeppelin/contracts/access/AccessControl.sol\":4483:4487  role */\n      dup3\n        /* \"@openzeppelin/contracts/access/AccessControl.sol\":4470:4482  getRoleAdmin */\n      tag_44\n        /* \"@openzeppelin/contracts/access/AccessControl.sol\":4470:4488  getRoleAdmin(role) */\n      jump\t// in\n    tag_163:\n        /* \"@openzeppelin/contracts/access/AccessControl.sol\":2505:2535  _checkRole(role, _msgSender()) */\n      tag_165\n        /* \"@openzeppelin/contracts/access/AccessControl.sol\":2516:2520  role */\n      dup2\n        /* \"@openzeppelin/contracts/access/AccessControl.sol\":2522:2534  _msgSender() */\n      tag_166\n        /* \"@openzeppelin/contracts/access/AccessControl.sol\":2522:2532  _msgSender */\n      tag_167\n        /* \"@openzeppelin/contracts/access/AccessControl.sol\":2522:2534  _msgSender() */\n      jump\t// in\n    tag_166:\n        /* \"@openzeppelin/contracts/access/AccessControl.sol\":2505:2515  _checkRole */\n      tag_168\n        /* \"@openzeppelin/contracts/access/AccessControl.sol\":2505:2535  _checkRole(role, _msgSender()) */\n      jump\t// in\n    tag_165:\n        /* \"@openzeppelin/contracts/access/AccessControl.sol\":4500:4525  _grantRole(role, account) */\n      tag_170\n        /* \"@openzeppelin/contracts/access/AccessControl.sol\":4511:4515  role */\n      dup4\n        /* \"@openzeppelin/contracts/access/AccessControl.sol\":4517:4524  account */\n      dup4\n        /* \"@openzeppelin/contracts/access/AccessControl.sol\":4500:4510  _grantRole */\n      tag_171\n        /* \"@openzeppelin/contracts/access/AccessControl.sol\":4500:4525  _grantRole(role, account) */\n      jump\t// in\n    tag_170:\n        /* \"@openzeppelin/contracts/access/AccessControl.sol\":4387:4532  function grantRole(bytes32 role, address account) public virtual override onlyRole(getRoleAdmin(role)) {... */\n      pop\n      pop\n      pop\n      jump\t// out\n        /* \"@openzeppelin/contracts/access/AccessControl.sol\":5404:5618  function renounceRole(bytes32 role, address account) public virtual override {... */\n    tag_55:\n        /* \"@openzeppelin/contracts/access/AccessControl.sol\":5510:5522  _msgSender() */\n      tag_173\n        /* \"@openzeppelin/contracts/access/AccessControl.sol\":5510:5520  _msgSender */\n      tag_167\n        /* \"@openzeppelin/contracts/access/AccessControl.sol\":5510:5522  _msgSender() */\n      jump\t// in\n    tag_173:\n        /* \"@openzeppelin/contracts/access/AccessControl.sol\":5499:5522  account == _msgSender() */\n      0xffffffffffffffffffffffffffffffffffffffff\n      and\n        /* \"@openzeppelin/contracts/access/AccessControl.sol\":5499:5506  account */\n      dup2\n        /* \"@openzeppelin/contracts/access/AccessControl.sol\":5499:5522  account == _msgSender() */\n      0xffffffffffffffffffffffffffffffffffffffff\n      and\n      eq\n        /* \"@openzeppelin/contracts/access/AccessControl.sol\":5491:5574  require(account == _msgSender(), \"AccessControl: can only renounce roles for self\") */\n      tag_174\n      jumpi\n      mload(0x40)\n      0x08c379a000000000000000000000000000000000000000000000000000000000\n      dup2\n      mstore\n      0x04\n      add\n      tag_175\n      swap1\n      tag_176\n      jump\t// in\n    tag_175:\n      mload(0x40)\n      dup1\n      swap2\n      sub\n      swap1\n      revert\n    tag_174:\n        /* \"@openzeppelin/contracts/access/AccessControl.sol\":5585:5611  _revokeRole(role, account) */\n      tag_177\n        /* \"@openzeppelin/contracts/access/AccessControl.sol\":5597:5601  role */\n      dup3\n        /* \"@openzeppelin/contracts/access/AccessControl.sol\":5603:5610  account */\n      dup3\n        /* \"@openzeppelin/contracts/access/AccessControl.sol\":5585:5596  _revokeRole */\n      tag_178\n        /* \"@openzeppelin/contracts/access/AccessControl.sol\":5585:5611  _revokeRole(role, account) */\n      jump\t// in\n    tag_177:\n        /* \"@openzeppelin/contracts/access/AccessControl.sol\":5404:5618  function renounceRole(bytes32 role, address account) public virtual override {... */\n      pop\n      pop\n      jump\t// out\n        /* \"Marketplace.sol\":249:278  uint256 public nextItemId = 0 */\n    tag_58:\n      sload(0x01)\n      dup2\n      jump\t// out\n        /* \"Marketplace.sol\":4919:5427  function getAverageStars(uint256 _itemId) public view returns (uint256) {\r... */\n    tag_65:\n        /* \"Marketplace.sol\":4982:4989  uint256 */\n      0x00\n        /* \"Marketplace.sol\":5002:5017  uint256 voteSum */\n      dup1\n        /* \"Marketplace.sol\":5020:5021  0 */\n      0x00\n        /* \"Marketplace.sol\":5002:5021  uint256 voteSum = 0 */\n      swap1\n      pop\n        /* \"Marketplace.sol\":5032:5049  uint256 voteCount */\n      0x00\n        /* \"Marketplace.sol\":5079:5088  uint256 i */\n      dup1\n        /* \"Marketplace.sol\":5074:5381  for (uint256 i = 0; i < idToBuyerAddress[_itemId].length; i++) {\r... */\n    tag_180:\n        /* \"Marketplace.sol\":5098:5114  idToBuyerAddress */\n      0x02\n        /* \"Marketplace.sol\":5098:5123  idToBuyerAddress[_itemId] */\n      0x00\n        /* \"Marketplace.sol\":5115:5122  _itemId */\n      dup7\n        /* \"Marketplace.sol\":5098:5123  idToBuyerAddress[_itemId] */\n      dup2\n      mstore\n      0x20\n      add\n      swap1\n      dup2\n      mstore\n      0x20\n      add\n      0x00\n      keccak256\n        /* \"Marketplace.sol\":5098:5130  idToBuyerAddress[_itemId].length */\n      dup1\n      sload\n      swap1\n      pop\n        /* \"Marketplace.sol\":5094:5095  i */\n      dup2\n        /* \"Marketplace.sol\":5094:5130  i < idToBuyerAddress[_itemId].length */\n      lt\n        /* \"Marketplace.sol\":5074:5381  for (uint256 i = 0; i < idToBuyerAddress[_itemId].length; i++) {\r... */\n      iszero\n      tag_181\n      jumpi\n        /* \"Marketplace.sol\":5152:5165  address buyer */\n      0x00\n        /* \"Marketplace.sol\":5168:5184  idToBuyerAddress */\n      0x02\n        /* \"Marketplace.sol\":5168:5193  idToBuyerAddress[_itemId] */\n      0x00\n        /* \"Marketplace.sol\":5185:5192  _itemId */\n      dup8\n        /* \"Marketplace.sol\":5168:5193  idToBuyerAddress[_itemId] */\n      dup2\n      mstore\n      0x20\n      add\n      swap1\n      dup2\n      mstore\n      0x20\n      add\n      0x00\n      keccak256\n        /* \"Marketplace.sol\":5194:5195  i */\n      dup3\n        /* \"Marketplace.sol\":5168:5196  idToBuyerAddress[_itemId][i] */\n      dup2\n      sload\n      dup2\n      lt\n      tag_183\n      jumpi\n      tag_184\n      tag_185\n      jump\t// in\n    tag_184:\n    tag_183:\n      swap1\n      0x00\n      mstore\n      keccak256(0x00, 0x20)\n      add\n      0x00\n      swap1\n      sload\n      swap1\n      0x0100\n      exp\n      swap1\n      div\n      0xffffffffffffffffffffffffffffffffffffffff\n      and\n        /* \"Marketplace.sol\":5152:5196  address buyer = idToBuyerAddress[_itemId][i] */\n      swap1\n      pop\n        /* \"Marketplace.sol\":5255:5256  0 */\n      0x00\n        /* \"Marketplace.sol\":5215:5235  addressToProductVote */\n      0x03\n        /* \"Marketplace.sol\":5215:5242  addressToProductVote[buyer] */\n      0x00\n        /* \"Marketplace.sol\":5236:5241  buyer */\n      dup4\n        /* \"Marketplace.sol\":5215:5242  addressToProductVote[buyer] */\n      0xffffffffffffffffffffffffffffffffffffffff\n      and\n      0xffffffffffffffffffffffffffffffffffffffff\n      and\n      dup2\n      mstore\n      0x20\n      add\n      swap1\n      dup2\n      mstore\n      0x20\n      add\n      0x00\n      keccak256\n        /* \"Marketplace.sol\":5215:5251  addressToProductVote[buyer][_itemId] */\n      0x00\n        /* \"Marketplace.sol\":5243:5250  _itemId */\n      dup9\n        /* \"Marketplace.sol\":5215:5251  addressToProductVote[buyer][_itemId] */\n      dup2\n      mstore\n      0x20\n      add\n      swap1\n      dup2\n      mstore\n      0x20\n      add\n      0x00\n      keccak256\n      0x00\n      swap1\n      sload\n      swap1\n      0x0100\n      exp\n      swap1\n      div\n      0xff\n      and\n        /* \"Marketplace.sol\":5215:5256  addressToProductVote[buyer][_itemId] != 0 */\n      0xff\n      and\n      eq\n        /* \"Marketplace.sol\":5211:5370  if (addressToProductVote[buyer][_itemId] != 0) {\r... */\n      tag_187\n      jumpi\n        /* \"Marketplace.sol\":5288:5308  addressToProductVote */\n      0x03\n        /* \"Marketplace.sol\":5288:5315  addressToProductVote[buyer] */\n      0x00\n        /* \"Marketplace.sol\":5309:5314  buyer */\n      dup3\n        /* \"Marketplace.sol\":5288:5315  addressToProductVote[buyer] */\n      0xffffffffffffffffffffffffffffffffffffffff\n      and\n      0xffffffffffffffffffffffffffffffffffffffff\n      and\n      dup2\n      mstore\n      0x20\n      add\n      swap1\n      dup2\n      mstore\n      0x20\n      add\n      0x00\n      keccak256\n        /* \"Marketplace.sol\":5288:5324  addressToProductVote[buyer][_itemId] */\n      0x00\n        /* \"Marketplace.sol\":5316:5323  _itemId */\n      dup8\n        /* \"Marketplace.sol\":5288:5324  addressToProductVote[buyer][_itemId] */\n      dup2\n      mstore\n      0x20\n      add\n      swap1\n      dup2\n      mstore\n      0x20\n      add\n      0x00\n      keccak256\n      0x00\n      swap1\n      sload\n      swap1\n      0x0100\n      exp\n      swap1\n      div\n      0xff\n      and\n        /* \"Marketplace.sol\":5277:5324  voteSum += addressToProductVote[buyer][_itemId] */\n      0xff\n      and\n      dup5\n      tag_188\n      swap2\n      swap1\n      tag_189\n      jump\t// in\n    tag_188:\n      swap4\n      pop\n        /* \"Marketplace.sol\":5343:5354  voteCount++ */\n      dup3\n      dup1\n      tag_190\n      swap1\n      tag_191\n      jump\t// in\n    tag_190:\n      swap4\n      pop\n      pop\n        /* \"Marketplace.sol\":5211:5370  if (addressToProductVote[buyer][_itemId] != 0) {\r... */\n    tag_187:\n        /* \"Marketplace.sol\":5137:5381  {\r... */\n      pop\n        /* \"Marketplace.sol\":5132:5135  i++ */\n      dup1\n      dup1\n      tag_192\n      swap1\n      tag_191\n      jump\t// in\n    tag_192:\n      swap2\n      pop\n      pop\n        /* \"Marketplace.sol\":5074:5381  for (uint256 i = 0; i < idToBuyerAddress[_itemId].length; i++) {\r... */\n      jump(tag_180)\n    tag_181:\n      pop\n        /* \"Marketplace.sol\":5410:5419  voteCount */\n      dup1\n        /* \"Marketplace.sol\":5400:5407  voteSum */\n      dup3\n        /* \"Marketplace.sol\":5400:5419  voteSum / voteCount */\n      tag_193\n      swap2\n      swap1\n      tag_194\n      jump\t// in\n    tag_193:\n        /* \"Marketplace.sol\":5393:5419  return voteSum / voteCount */\n      swap3\n      pop\n      pop\n      pop\n        /* \"Marketplace.sol\":4919:5427  function getAverageStars(uint256 _itemId) public view returns (uint256) {\r... */\n      swap2\n      swap1\n      pop\n      jump\t// out\n        /* \"Marketplace.sol\":2400:2738  function getMarketItemDetails(uint256 _itemId) public view returns (string memory description, string memory imageUrl, uint8 quantity, uint256 createdAt, uint256 updatedAt) {\r... */\n    tag_70:\n        /* \"Marketplace.sol\":2468:2493  string memory description */\n      0x60\n        /* \"Marketplace.sol\":2495:2517  string memory imageUrl */\n      dup1\n        /* \"Marketplace.sol\":2519:2533  uint8 quantity */\n      0x00\n        /* \"Marketplace.sol\":2535:2552  uint256 createdAt */\n      dup1\n        /* \"Marketplace.sol\":2554:2571  uint256 updatedAt */\n      0x00\n        /* \"Marketplace.sol\":2584:2606  MarketItem memory item */\n      dup1\n        /* \"Marketplace.sol\":2609:2623  idToMarketItem */\n      0x04\n        /* \"Marketplace.sol\":2609:2632  idToMarketItem[_itemId] */\n      0x00\n        /* \"Marketplace.sol\":2624:2631  _itemId */\n      dup9\n        /* \"Marketplace.sol\":2609:2632  idToMarketItem[_itemId] */\n      dup2\n      mstore\n      0x20\n      add\n      swap1\n      dup2\n      mstore\n      0x20\n      add\n      0x00\n      keccak256\n        /* \"Marketplace.sol\":2584:2632  MarketItem memory item = idToMarketItem[_itemId] */\n      mload(0x40)\n      dup1\n      0x0120\n      add\n      0x40\n      mstore\n      swap1\n      dup2\n      0x00\n      dup3\n      add\n      sload\n      dup2\n      mstore\n      0x20\n      add\n      0x01\n      dup3\n      add\n      dup1\n      sload\n      tag_196\n      swap1\n      tag_197\n      jump\t// in\n    tag_196:\n      dup1\n      0x1f\n      add\n      0x20\n      dup1\n      swap2\n      div\n      mul\n      0x20\n      add\n      mload(0x40)\n      swap1\n      dup2\n      add\n      0x40\n      mstore\n      dup1\n      swap3\n      swap2\n      swap1\n      dup2\n      dup2\n      mstore\n      0x20\n      add\n      dup3\n      dup1\n      sload\n      tag_198\n      swap1\n      tag_197\n      jump\t// in\n    tag_198:\n      dup1\n      iszero\n      tag_199\n      jumpi\n      dup1\n      0x1f\n      lt\n      tag_200\n      jumpi\n      0x0100\n      dup1\n      dup4\n      sload\n      div\n      mul\n      dup4\n      mstore\n      swap2\n      0x20\n      add\n      swap2\n      jump(tag_199)\n    tag_200:\n      dup3\n      add\n      swap2\n      swap1\n      0x00\n      mstore\n      keccak256(0x00, 0x20)\n      swap1\n    tag_201:\n      dup2\n      sload\n      dup2\n      mstore\n      swap1\n      0x01\n      add\n      swap1\n      0x20\n      add\n      dup1\n      dup4\n      gt\n      tag_201\n      jumpi\n      dup3\n      swap1\n      sub\n      0x1f\n      and\n      dup3\n      add\n      swap2\n    tag_199:\n      pop\n      pop\n      pop\n      pop\n      pop\n      dup2\n      mstore\n      0x20\n      add\n      0x02\n      dup3\n      add\n      dup1\n      sload\n      tag_202\n      swap1\n      tag_197\n      jump\t// in\n    tag_202:\n      dup1\n      0x1f\n      add\n      0x20\n      dup1\n      swap2\n      div\n      mul\n      0x20\n      add\n      mload(0x40)\n      swap1\n      dup2\n      add\n      0x40\n      mstore\n      dup1\n      swap3\n      swap2\n      swap1\n      dup2\n      dup2\n      mstore\n      0x20\n      add\n      dup3\n      dup1\n      sload\n      tag_203\n      swap1\n      tag_197\n      jump\t// in\n    tag_203:\n      dup1\n      iszero\n      tag_204\n      jumpi\n      dup1\n      0x1f\n      lt\n      tag_205\n      jumpi\n      0x0100\n      dup1\n      dup4\n      sload\n      div\n      mul\n      dup4\n      mstore\n      swap2\n      0x20\n      add\n      swap2\n      jump(tag_204)\n    tag_205:\n      dup3\n      add\n      swap2\n      swap1\n      0x00\n      mstore\n      keccak256(0x00, 0x20)\n      swap1\n    tag_206:\n      dup2\n      sload\n      dup2\n      mstore\n      swap1\n      0x01\n      add\n      swap1\n      0x20\n      add\n      dup1\n      dup4\n      gt\n      tag_206\n      jumpi\n      dup3\n      swap1\n      sub\n      0x1f\n      and\n      dup3\n      add\n      swap2\n    tag_204:\n      pop\n      pop\n      pop\n      pop\n      pop\n      dup2\n      mstore\n      0x20\n      add\n      0x03\n      dup3\n      add\n      sload\n      dup2\n      mstore\n      0x20\n      add\n      0x04\n      dup3\n      add\n      0x00\n      swap1\n      sload\n      swap1\n      0x0100\n      exp\n      swap1\n      div\n      0xffffffffffffffffffffffffffffffffffffffff\n      and\n      0xffffffffffffffffffffffffffffffffffffffff\n      and\n      0xffffffffffffffffffffffffffffffffffffffff\n      and\n      dup2\n      mstore\n      0x20\n      add\n      0x05\n      dup3\n      add\n      dup1\n      sload\n      tag_207\n      swap1\n      tag_197\n      jump\t// in\n    tag_207:\n      dup1\n      0x1f\n      add\n      0x20\n      dup1\n      swap2\n      div\n      mul\n      0x20\n      add\n      mload(0x40)\n      swap1\n      dup2\n      add\n      0x40\n      mstore\n      dup1\n      swap3\n      swap2\n      swap1\n      dup2\n      dup2\n      mstore\n      0x20\n      add\n      dup3\n      dup1\n      sload\n      tag_208\n      swap1\n      tag_197\n      jump\t// in\n    tag_208:\n      dup1\n      iszero\n      tag_209\n      jumpi\n      dup1\n      0x1f\n      lt\n      tag_210\n      jumpi\n      0x0100\n      dup1\n      dup4\n      sload\n      div\n      mul\n      dup4\n      mstore\n      swap2\n      0x20\n      add\n      swap2\n      jump(tag_209)\n    tag_210:\n      dup3\n      add\n      swap2\n      swap1\n      0x00\n      mstore\n      keccak256(0x00, 0x20)\n      swap1\n    tag_211:\n      dup2\n      sload\n      dup2\n      mstore\n      swap1\n      0x01\n      add\n      swap1\n      0x20\n      add\n      dup1\n      dup4\n      gt\n      tag_211\n      jumpi\n      dup3\n      swap1\n      sub\n      0x1f\n      and\n      dup3\n      add\n      swap2\n    tag_209:\n      pop\n      pop\n      pop\n      pop\n      pop\n      dup2\n      mstore\n      0x20\n      add\n      0x06\n      dup3\n      add\n      0x00\n      swap1\n      sload\n      swap1\n      0x0100\n      exp\n      swap1\n      div\n      0xff\n      and\n      0xff\n      and\n      0xff\n      and\n      dup2\n      mstore\n      0x20\n      add\n      0x07\n      dup3\n      add\n      sload\n      dup2\n      mstore\n      0x20\n      add\n      0x08\n      dup3\n      add\n      sload\n      dup2\n      mstore\n      pop\n      pop\n      swap1\n      pop\n        /* \"Marketplace.sol\":2651:2655  item */\n      dup1\n        /* \"Marketplace.sol\":2651:2667  item.description */\n      0x40\n      add\n      mload\n        /* \"Marketplace.sol\":2669:2673  item */\n      dup2\n        /* \"Marketplace.sol\":2669:2682  item.imageUrl */\n      0xa0\n      add\n      mload\n        /* \"Marketplace.sol\":2684:2688  item */\n      dup3\n        /* \"Marketplace.sol\":2684:2697  item.quantity */\n      0xc0\n      add\n      mload\n        /* \"Marketplace.sol\":2699:2703  item */\n      dup4\n        /* \"Marketplace.sol\":2699:2713  item.createdAt */\n      0xe0\n      add\n      mload\n        /* \"Marketplace.sol\":2715:2719  item */\n      dup5\n        /* \"Marketplace.sol\":2715:2729  item.updatedAt */\n      0x0100\n      add\n      mload\n        /* \"Marketplace.sol\":2643:2730  return (item.description, item.imageUrl, item.quantity, item.createdAt, item.updatedAt) */\n      swap6\n      pop\n      swap6\n      pop\n      swap6\n      pop\n      swap6\n      pop\n      swap6\n      pop\n      pop\n        /* \"Marketplace.sol\":2400:2738  function getMarketItemDetails(uint256 _itemId) public view returns (string memory description, string memory imageUrl, uint8 quantity, uint256 createdAt, uint256 updatedAt) {\r... */\n      swap2\n      swap4\n      swap6\n      swap1\n      swap3\n      swap5\n      pop\n      jump\t// out\n        /* \"Marketplace.sol\":2746:3076  function updateMarketItemDescription(uint256 _itemId, string memory _description) public {\r... */\n    tag_77:\n        /* \"Marketplace.sol\":2868:2882  idToMarketItem */\n      0x04\n        /* \"Marketplace.sol\":2868:2891  idToMarketItem[_itemId] */\n      0x00\n        /* \"Marketplace.sol\":2883:2890  _itemId */\n      dup4\n        /* \"Marketplace.sol\":2868:2891  idToMarketItem[_itemId] */\n      dup2\n      mstore\n      0x20\n      add\n      swap1\n      dup2\n      mstore\n      0x20\n      add\n      0x00\n      keccak256\n        /* \"Marketplace.sol\":2868:2898  idToMarketItem[_itemId].seller */\n      0x04\n      add\n      0x00\n      swap1\n      sload\n      swap1\n      0x0100\n      exp\n      swap1\n      div\n      0xffffffffffffffffffffffffffffffffffffffff\n      and\n        /* \"Marketplace.sol\":2854:2898  msg.sender == idToMarketItem[_itemId].seller */\n      0xffffffffffffffffffffffffffffffffffffffff\n      and\n        /* \"Marketplace.sol\":2854:2864  msg.sender */\n      caller\n        /* \"Marketplace.sol\":2854:2898  msg.sender == idToMarketItem[_itemId].seller */\n      0xffffffffffffffffffffffffffffffffffffffff\n      and\n      eq\n        /* \"Marketplace.sol\":2846:2945  require(msg.sender == idToMarketItem[_itemId].seller, \"Only the seller can update the description\") */\n      tag_213\n      jumpi\n      mload(0x40)\n      0x08c379a000000000000000000000000000000000000000000000000000000000\n      dup2\n      mstore\n      0x04\n      add\n      tag_214\n      swap1\n      tag_215\n      jump\t// in\n    tag_214:\n      mload(0x40)\n      dup1\n      swap2\n      sub\n      swap1\n      revert\n    tag_213:\n        /* \"Marketplace.sol\":2994:3006  _description */\n      dup1\n        /* \"Marketplace.sol\":2956:2970  idToMarketItem */\n      0x04\n        /* \"Marketplace.sol\":2956:2979  idToMarketItem[_itemId] */\n      0x00\n        /* \"Marketplace.sol\":2971:2978  _itemId */\n      dup5\n        /* \"Marketplace.sol\":2956:2979  idToMarketItem[_itemId] */\n      dup2\n      mstore\n      0x20\n      add\n      swap1\n      dup2\n      mstore\n      0x20\n      add\n      0x00\n      keccak256\n        /* \"Marketplace.sol\":2956:2991  idToMarketItem[_itemId].description */\n      0x02\n      add\n        /* \"Marketplace.sol\":2956:3006  idToMarketItem[_itemId].description = _description */\n      swap1\n      dup1\n      mload\n      swap1\n      0x20\n      add\n      swap1\n      tag_216\n      swap3\n      swap2\n      swap1\n      tag_217\n      jump\t// in\n    tag_216:\n      pop\n        /* \"Marketplace.sol\":3053:3068  block.timestamp */\n      timestamp\n        /* \"Marketplace.sol\":3017:3031  idToMarketItem */\n      0x04\n        /* \"Marketplace.sol\":3017:3040  idToMarketItem[_itemId] */\n      0x00\n        /* \"Marketplace.sol\":3032:3039  _itemId */\n      dup5\n        /* \"Marketplace.sol\":3017:3040  idToMarketItem[_itemId] */\n      dup2\n      mstore\n      0x20\n      add\n      swap1\n      dup2\n      mstore\n      0x20\n      add\n      0x00\n      keccak256\n        /* \"Marketplace.sol\":3017:3050  idToMarketItem[_itemId].updatedAt */\n      0x08\n      add\n        /* \"Marketplace.sol\":3017:3068  idToMarketItem[_itemId].updatedAt = block.timestamp */\n      dup2\n      swap1\n      sstore\n      pop\n        /* \"Marketplace.sol\":2746:3076  function updateMarketItemDescription(uint256 _itemId, string memory _description) public {\r... */\n      pop\n      pop\n      jump\t// out\n        /* \"@openzeppelin/contracts/access/AccessControl.sol\":2909:3054  function hasRole(bytes32 role, address account) public view virtual override returns (bool) {... */\n    tag_81:\n        /* \"@openzeppelin/contracts/access/AccessControl.sol\":2995:2999  bool */\n      0x00\n        /* \"@openzeppelin/contracts/access/AccessControl.sol\":3018:3024  _roles */\n      dup1\n        /* \"@openzeppelin/contracts/access/AccessControl.sol\":3018:3030  _roles[role] */\n      0x00\n        /* \"@openzeppelin/contracts/access/AccessControl.sol\":3025:3029  role */\n      dup5\n        /* \"@openzeppelin/contracts/access/AccessControl.sol\":3018:3030  _roles[role] */\n      dup2\n      mstore\n      0x20\n      add\n      swap1\n      dup2\n      mstore\n      0x20\n      add\n      0x00\n      keccak256\n        /* \"@openzeppelin/contracts/access/AccessControl.sol\":3018:3038  _roles[role].members */\n      0x00\n      add\n        /* \"@openzeppelin/contracts/access/AccessControl.sol\":3018:3047  _roles[role].members[account] */\n      0x00\n        /* \"@openzeppelin/contracts/access/AccessControl.sol\":3039:3046  account */\n      dup4\n        /* \"@openzeppelin/contracts/access/AccessControl.sol\":3018:3047  _roles[role].members[account] */\n      0xffffffffffffffffffffffffffffffffffffffff\n      and\n      0xffffffffffffffffffffffffffffffffffffffff\n      and\n      dup2\n      mstore\n      0x20\n      add\n      swap1\n      dup2\n      mstore\n      0x20\n      add\n      0x00\n      keccak256\n      0x00\n      swap1\n      sload\n      swap1\n      0x0100\n      exp\n      swap1\n      div\n      0xff\n      and\n        /* \"@openzeppelin/contracts/access/AccessControl.sol\":3011:3047  return _roles[role].members[account] */\n      swap1\n      pop\n        /* \"@openzeppelin/contracts/access/AccessControl.sol\":2909:3054  function hasRole(bytes32 role, address account) public view virtual override returns (bool) {... */\n      swap3\n      swap2\n      pop\n      pop\n      jump\t// out\n        /* \"@openzeppelin/contracts/access/AccessControl.sol\":2027:2076  bytes32 public constant DEFAULT_ADMIN_ROLE = 0x00 */\n    tag_85:\n        /* \"@openzeppelin/contracts/access/AccessControl.sol\":2072:2076  0x00 */\n      0x00\n        /* \"@openzeppelin/contracts/access/AccessControl.sol\":2027:2076  bytes32 public constant DEFAULT_ADMIN_ROLE = 0x00 */\n      dup1\n      shl\n      dup2\n      jump\t// out\n        /* \"Marketplace.sol\":939:1440  function createMarketItem(string memory _title, string memory _description, address payable _seller, uint256 _price, string memory _imageUrl, uint8 _quantity) public {\r... */\n    tag_91:\n        /* \"Marketplace.sol\":1138:1145  _seller */\n      dup4\n        /* \"Marketplace.sol\":1124:1145  msg.sender == _seller */\n      0xffffffffffffffffffffffffffffffffffffffff\n      and\n        /* \"Marketplace.sol\":1124:1134  msg.sender */\n      caller\n        /* \"Marketplace.sol\":1124:1145  msg.sender == _seller */\n      0xffffffffffffffffffffffffffffffffffffffff\n      and\n      eq\n        /* \"Marketplace.sol\":1116:1190  require(msg.sender == _seller, \"Only the seller can create a market item\") */\n      tag_220\n      jumpi\n      mload(0x40)\n      0x08c379a000000000000000000000000000000000000000000000000000000000\n      dup2\n      mstore\n      0x04\n      add\n      tag_221\n      swap1\n      tag_222\n      jump\t// in\n    tag_221:\n      mload(0x40)\n      dup1\n      swap2\n      sub\n      swap1\n      revert\n    tag_220:\n        /* \"Marketplace.sol\":1218:1219  0 */\n      0x00\n        /* \"Marketplace.sol\":1209:1215  _price */\n      dup4\n        /* \"Marketplace.sol\":1209:1219  _price > 0 */\n      gt\n        /* \"Marketplace.sol\":1201:1252  require(_price > 0, \"Price must be greater than 0\") */\n      tag_223\n      jumpi\n      mload(0x40)\n      0x08c379a000000000000000000000000000000000000000000000000000000000\n      dup2\n      mstore\n      0x04\n      add\n      tag_224\n      swap1\n      tag_225\n      jump\t// in\n    tag_224:\n      mload(0x40)\n      dup1\n      swap2\n      sub\n      swap1\n      revert\n    tag_223:\n        /* \"Marketplace.sol\":1292:1409  MarketItem(nextItemId, _title, _description, _price, _seller, _imageUrl, _quantity, block.timestamp, block.timestamp) */\n      mload(0x40)\n      dup1\n      0x0120\n      add\n      0x40\n      mstore\n      dup1\n        /* \"Marketplace.sol\":1303:1313  nextItemId */\n      sload(0x01)\n        /* \"Marketplace.sol\":1292:1409  MarketItem(nextItemId, _title, _description, _price, _seller, _imageUrl, _quantity, block.timestamp, block.timestamp) */\n      dup2\n      mstore\n      0x20\n      add\n        /* \"Marketplace.sol\":1315:1321  _title */\n      dup8\n        /* \"Marketplace.sol\":1292:1409  MarketItem(nextItemId, _title, _description, _price, _seller, _imageUrl, _quantity, block.timestamp, block.timestamp) */\n      dup2\n      mstore\n      0x20\n      add\n        /* \"Marketplace.sol\":1323:1335  _description */\n      dup7\n        /* \"Marketplace.sol\":1292:1409  MarketItem(nextItemId, _title, _description, _price, _seller, _imageUrl, _quantity, block.timestamp, block.timestamp) */\n      dup2\n      mstore\n      0x20\n      add\n        /* \"Marketplace.sol\":1337:1343  _price */\n      dup5\n        /* \"Marketplace.sol\":1292:1409  MarketItem(nextItemId, _title, _description, _price, _seller, _imageUrl, _quantity, block.timestamp, block.timestamp) */\n      dup2\n      mstore\n      0x20\n      add\n        /* \"Marketplace.sol\":1345:1352  _seller */\n      dup6\n        /* \"Marketplace.sol\":1292:1409  MarketItem(nextItemId, _title, _description, _price, _seller, _imageUrl, _quantity, block.timestamp, block.timestamp) */\n      0xffffffffffffffffffffffffffffffffffffffff\n      and\n      dup2\n      mstore\n      0x20\n      add\n        /* \"Marketplace.sol\":1354:1363  _imageUrl */\n      dup4\n        /* \"Marketplace.sol\":1292:1409  MarketItem(nextItemId, _title, _description, _price, _seller, _imageUrl, _quantity, block.timestamp, block.timestamp) */\n      dup2\n      mstore\n      0x20\n      add\n        /* \"Marketplace.sol\":1365:1374  _quantity */\n      dup3\n        /* \"Marketplace.sol\":1292:1409  MarketItem(nextItemId, _title, _description, _price, _seller, _imageUrl, _quantity, block.timestamp, block.timestamp) */\n      0xff\n      and\n      dup2\n      mstore\n      0x20\n      add\n        /* \"Marketplace.sol\":1376:1391  block.timestamp */\n      timestamp\n        /* \"Marketplace.sol\":1292:1409  MarketItem(nextItemId, _title, _description, _price, _seller, _imageUrl, _quantity, block.timestamp, block.timestamp) */\n      dup2\n      mstore\n      0x20\n      add\n        /* \"Marketplace.sol\":1393:1408  block.timestamp */\n      timestamp\n        /* \"Marketplace.sol\":1292:1409  MarketItem(nextItemId, _title, _description, _price, _seller, _imageUrl, _quantity, block.timestamp, block.timestamp) */\n      dup2\n      mstore\n      pop\n        /* \"Marketplace.sol\":1263:1277  idToMarketItem */\n      0x04\n        /* \"Marketplace.sol\":1263:1289  idToMarketItem[nextItemId] */\n      0x00\n        /* \"Marketplace.sol\":1278:1288  nextItemId */\n      sload(0x01)\n        /* \"Marketplace.sol\":1263:1289  idToMarketItem[nextItemId] */\n      dup2\n      mstore\n      0x20\n      add\n      swap1\n      dup2\n      mstore\n      0x20\n      add\n      0x00\n      keccak256\n        /* \"Marketplace.sol\":1263:1409  idToMarketItem[nextItemId] = MarketItem(nextItemId, _title, _description, _price, _seller, _imageUrl, _quantity, block.timestamp, block.timestamp) */\n      0x00\n      dup3\n      add\n      mload\n      dup2\n      0x00\n      add\n      sstore\n      0x20\n      dup3\n      add\n      mload\n      dup2\n      0x01\n      add\n      swap1\n      dup1\n      mload\n      swap1\n      0x20\n      add\n      swap1\n      tag_226\n      swap3\n      swap2\n      swap1\n      tag_217\n      jump\t// in\n    tag_226:\n      pop\n      0x40\n      dup3\n      add\n      mload\n      dup2\n      0x02\n      add\n      swap1\n      dup1\n      mload\n      swap1\n      0x20\n      add\n      swap1\n      tag_227\n      swap3\n      swap2\n      swap1\n      tag_217\n      jump\t// in\n    tag_227:\n      pop\n      0x60\n      dup3\n      add\n      mload\n      dup2\n      0x03\n      add\n      sstore\n      0x80\n      dup3\n      add\n      mload\n      dup2\n      0x04\n      add\n      exp(0x0100, 0x00)\n      dup2\n      sload\n      dup2\n      0xffffffffffffffffffffffffffffffffffffffff\n      mul\n      not\n      and\n      swap1\n      dup4\n      0xffffffffffffffffffffffffffffffffffffffff\n      and\n      mul\n      or\n      swap1\n      sstore\n      pop\n      0xa0\n      dup3\n      add\n      mload\n      dup2\n      0x05\n      add\n      swap1\n      dup1\n      mload\n      swap1\n      0x20\n      add\n      swap1\n      tag_228\n      swap3\n      swap2\n      swap1\n      tag_217\n      jump\t// in\n    tag_228:\n      pop\n      0xc0\n      dup3\n      add\n      mload\n      dup2\n      0x06\n      add\n      exp(0x0100, 0x00)\n      dup2\n      sload\n      dup2\n      0xff\n      mul\n      not\n      and\n      swap1\n      dup4\n      0xff\n      and\n      mul\n      or\n      swap1\n      sstore\n      pop\n      0xe0\n      dup3\n      add\n      mload\n      dup2\n      0x07\n      add\n      sstore\n      0x0100\n      dup3\n      add\n      mload\n      dup2\n      0x08\n      add\n      sstore\n      swap1\n      pop\n      pop\n        /* \"Marketplace.sol\":1420:1430  nextItemId */\n      0x01\n      0x00\n        /* \"Marketplace.sol\":1420:1432  nextItemId++ */\n      dup2\n      sload\n      dup1\n      swap3\n      swap2\n      swap1\n      tag_229\n      swap1\n      tag_191\n      jump\t// in\n    tag_229:\n      swap2\n      swap1\n      pop\n      sstore\n      pop\n        /* \"Marketplace.sol\":939:1440  function createMarketItem(string memory _title, string memory _description, address payable _seller, uint256 _price, string memory _imageUrl, uint8 _quantity) public {\r... */\n      pop\n      pop\n      pop\n      pop\n      pop\n      pop\n      jump\t// out\n        /* \"Marketplace.sol\":3721:4015  function updateMarketItemPrice(uint256 _itemId, uint256 _price) public {\r... */\n    tag_96:\n        /* \"Marketplace.sol\":3825:3839  idToMarketItem */\n      0x04\n        /* \"Marketplace.sol\":3825:3848  idToMarketItem[_itemId] */\n      0x00\n        /* \"Marketplace.sol\":3840:3847  _itemId */\n      dup4\n        /* \"Marketplace.sol\":3825:3848  idToMarketItem[_itemId] */\n      dup2\n      mstore\n      0x20\n      add\n      swap1\n      dup2\n      mstore\n      0x20\n      add\n      0x00\n      keccak256\n        /* \"Marketplace.sol\":3825:3855  idToMarketItem[_itemId].seller */\n      0x04\n      add\n      0x00\n      swap1\n      sload\n      swap1\n      0x0100\n      exp\n      swap1\n      div\n      0xffffffffffffffffffffffffffffffffffffffff\n      and\n        /* \"Marketplace.sol\":3811:3855  msg.sender == idToMarketItem[_itemId].seller */\n      0xffffffffffffffffffffffffffffffffffffffff\n      and\n        /* \"Marketplace.sol\":3811:3821  msg.sender */\n      caller\n        /* \"Marketplace.sol\":3811:3855  msg.sender == idToMarketItem[_itemId].seller */\n      0xffffffffffffffffffffffffffffffffffffffff\n      and\n      eq\n        /* \"Marketplace.sol\":3803:3896  require(msg.sender == idToMarketItem[_itemId].seller, \"Only the seller can update the price\") */\n      tag_231\n      jumpi\n      mload(0x40)\n      0x08c379a000000000000000000000000000000000000000000000000000000000\n      dup2\n      mstore\n      0x04\n      add\n      tag_232\n      swap1\n      tag_233\n      jump\t// in\n    tag_232:\n      mload(0x40)\n      dup1\n      swap2\n      sub\n      swap1\n      revert\n    tag_231:\n        /* \"Marketplace.sol\":3939:3945  _price */\n      dup1\n        /* \"Marketplace.sol\":3907:3921  idToMarketItem */\n      0x04\n        /* \"Marketplace.sol\":3907:3930  idToMarketItem[_itemId] */\n      0x00\n        /* \"Marketplace.sol\":3922:3929  _itemId */\n      dup5\n        /* \"Marketplace.sol\":3907:3930  idToMarketItem[_itemId] */\n      dup2\n      mstore\n      0x20\n      add\n      swap1\n      dup2\n      mstore\n      0x20\n      add\n      0x00\n      keccak256\n        /* \"Marketplace.sol\":3907:3936  idToMarketItem[_itemId].price */\n      0x03\n      add\n        /* \"Marketplace.sol\":3907:3945  idToMarketItem[_itemId].price = _price */\n      dup2\n      swap1\n      sstore\n      pop\n        /* \"Marketplace.sol\":3992:4007  block.timestamp */\n      timestamp\n        /* \"Marketplace.sol\":3956:3970  idToMarketItem */\n      0x04\n        /* \"Marketplace.sol\":3956:3979  idToMarketItem[_itemId] */\n      0x00\n        /* \"Marketplace.sol\":3971:3978  _itemId */\n      dup5\n        /* \"Marketplace.sol\":3956:3979  idToMarketItem[_itemId] */\n      dup2\n      mstore\n      0x20\n      add\n      swap1\n      dup2\n      mstore\n      0x20\n      add\n      0x00\n      keccak256\n        /* \"Marketplace.sol\":3956:3989  idToMarketItem[_itemId].updatedAt */\n      0x08\n      add\n        /* \"Marketplace.sol\":3956:4007  idToMarketItem[_itemId].updatedAt = block.timestamp */\n      dup2\n      swap1\n      sstore\n      pop\n        /* \"Marketplace.sol\":3721:4015  function updateMarketItemPrice(uint256 _itemId, uint256 _price) public {\r... */\n      pop\n      pop\n      jump\t// out\n        /* \"Marketplace.sol\":168:242  bytes32 public constant MARKETPLACE_OWNER = keccak256(\"MARKETPLACE_OWNER\") */\n    tag_99:\n        /* \"Marketplace.sol\":212:242  keccak256(\"MARKETPLACE_OWNER\") */\n      0x1f9ca85e780b3b3cfbe1334ca9dd68802db7860f692bd163c796bb76d464edc0\n        /* \"Marketplace.sol\":168:242  bytes32 public constant MARKETPLACE_OWNER = keccak256(\"MARKETPLACE_OWNER\") */\n      dup2\n      jump\t// out\n        /* \"Marketplace.sol\":2151:2392  function getMarketItem(uint256 _itemId) public view returns (string memory title, address payable seller, uint256 price) {\r... */\n    tag_104:\n        /* \"Marketplace.sol\":2212:2231  string memory title */\n      0x60\n        /* \"Marketplace.sol\":2233:2255  address payable seller */\n      0x00\n        /* \"Marketplace.sol\":2257:2270  uint256 price */\n      dup1\n        /* \"Marketplace.sol\":2291:2305  idToMarketItem */\n      0x04\n        /* \"Marketplace.sol\":2291:2314  idToMarketItem[_itemId] */\n      0x00\n        /* \"Marketplace.sol\":2306:2313  _itemId */\n      dup6\n        /* \"Marketplace.sol\":2291:2314  idToMarketItem[_itemId] */\n      dup2\n      mstore\n      0x20\n      add\n      swap1\n      dup2\n      mstore\n      0x20\n      add\n      0x00\n      keccak256\n        /* \"Marketplace.sol\":2291:2320  idToMarketItem[_itemId].title */\n      0x01\n      add\n        /* \"Marketplace.sol\":2322:2336  idToMarketItem */\n      0x04\n        /* \"Marketplace.sol\":2322:2345  idToMarketItem[_itemId] */\n      0x00\n        /* \"Marketplace.sol\":2337:2344  _itemId */\n      dup7\n        /* \"Marketplace.sol\":2322:2345  idToMarketItem[_itemId] */\n      dup2\n      mstore\n      0x20\n      add\n      swap1\n      dup2\n      mstore\n      0x20\n      add\n      0x00\n      keccak256\n        /* \"Marketplace.sol\":2322:2352  idToMarketItem[_itemId].seller */\n      0x04\n      add\n      0x00\n      swap1\n      sload\n      swap1\n      0x0100\n      exp\n      swap1\n      div\n      0xffffffffffffffffffffffffffffffffffffffff\n      and\n        /* \"Marketplace.sol\":2354:2368  idToMarketItem */\n      0x04\n        /* \"Marketplace.sol\":2354:2377  idToMarketItem[_itemId] */\n      0x00\n        /* \"Marketplace.sol\":2369:2376  _itemId */\n      dup8\n        /* \"Marketplace.sol\":2354:2377  idToMarketItem[_itemId] */\n      dup2\n      mstore\n      0x20\n      add\n      swap1\n      dup2\n      mstore\n      0x20\n      add\n      0x00\n      keccak256\n        /* \"Marketplace.sol\":2354:2383  idToMarketItem[_itemId].price */\n      0x03\n      add\n      sload\n        /* \"Marketplace.sol\":2283:2384  return (idToMarketItem[_itemId].title, idToMarketItem[_itemId].seller, idToMarketItem[_itemId].price) */\n      dup3\n      dup1\n      sload\n      tag_235\n      swap1\n      tag_197\n      jump\t// in\n    tag_235:\n      dup1\n      0x1f\n      add\n      0x20\n      dup1\n      swap2\n      div\n      mul\n      0x20\n      add\n      mload(0x40)\n      swap1\n      dup2\n      add\n      0x40\n      mstore\n      dup1\n      swap3\n      swap2\n      swap1\n      dup2\n      dup2\n      mstore\n      0x20\n      add\n      dup3\n      dup1\n      sload\n      tag_236\n      swap1\n      tag_197\n      jump\t// in\n    tag_236:\n      dup1\n      iszero\n      tag_237\n      jumpi\n      dup1\n      0x1f\n      lt\n      tag_238\n      jumpi\n      0x0100\n      dup1\n      dup4\n      sload\n      div\n      mul\n      dup4\n      mstore\n      swap2\n      0x20\n      add\n      swap2\n      jump(tag_237)\n    tag_238:\n      dup3\n      add\n      swap2\n      swap1\n      0x00\n      mstore\n      keccak256(0x00, 0x20)\n      swap1\n    tag_239:\n      dup2\n      sload\n      dup2\n      mstore\n      swap1\n      0x01\n      add\n      swap1\n      0x20\n      add\n      dup1\n      dup4\n      gt\n      tag_239\n      jumpi\n      dup3\n      swap1\n      sub\n      0x1f\n      and\n      dup3\n      add\n      swap2\n    tag_237:\n      pop\n      pop\n      pop\n      pop\n      pop\n      swap3\n      pop\n      swap3\n      pop\n      swap3\n      pop\n      swap3\n      pop\n        /* \"Marketplace.sol\":2151:2392  function getMarketItem(uint256 _itemId) public view returns (string memory title, address payable seller, uint256 price) {\r... */\n      swap2\n      swap4\n      swap1\n      swap3\n      pop\n      jump\t// out\n        /* \"@openzeppelin/contracts/access/AccessControl.sol\":4766:4913  function revokeRole(bytes32 role, address account) public virtual override onlyRole(getRoleAdmin(role)) {... */\n    tag_110:\n        /* \"@openzeppelin/contracts/access/AccessControl.sol\":4850:4868  getRoleAdmin(role) */\n      tag_240\n        /* \"@openzeppelin/contracts/access/AccessControl.sol\":4863:4867  role */\n      dup3\n        /* \"@openzeppelin/contracts/access/AccessControl.sol\":4850:4862  getRoleAdmin */\n      tag_44\n        /* \"@openzeppelin/contracts/access/AccessControl.sol\":4850:4868  getRoleAdmin(role) */\n      jump\t// in\n    tag_240:\n        /* \"@openzeppelin/contracts/access/AccessControl.sol\":2505:2535  _checkRole(role, _msgSender()) */\n      tag_242\n        /* \"@openzeppelin/contracts/access/AccessControl.sol\":2516:2520  role */\n      dup2\n        /* \"@openzeppelin/contracts/access/AccessControl.sol\":2522:2534  _msgSender() */\n      tag_243\n        /* \"@openzeppelin/contracts/access/AccessControl.sol\":2522:2532  _msgSender */\n      tag_167\n        /* \"@openzeppelin/contracts/access/AccessControl.sol\":2522:2534  _msgSender() */\n      jump\t// in\n    tag_243:\n        /* \"@openzeppelin/contracts/access/AccessControl.sol\":2505:2515  _checkRole */\n      tag_168\n        /* \"@openzeppelin/contracts/access/AccessControl.sol\":2505:2535  _checkRole(role, _msgSender()) */\n      jump\t// in\n    tag_242:\n        /* \"@openzeppelin/contracts/access/AccessControl.sol\":4880:4906  _revokeRole(role, account) */\n      tag_245\n        /* \"@openzeppelin/contracts/access/AccessControl.sol\":4892:4896  role */\n      dup4\n        /* \"@openzeppelin/contracts/access/AccessControl.sol\":4898:4905  account */\n      dup4\n        /* \"@openzeppelin/contracts/access/AccessControl.sol\":4880:4891  _revokeRole */\n      tag_178\n        /* \"@openzeppelin/contracts/access/AccessControl.sol\":4880:4906  _revokeRole(role, account) */\n      jump\t// in\n    tag_245:\n        /* \"@openzeppelin/contracts/access/AccessControl.sol\":4766:4913  function revokeRole(bytes32 role, address account) public virtual override onlyRole(getRoleAdmin(role)) {... */\n      pop\n      pop\n      pop\n      jump\t// out\n        /* \"Marketplace.sol\":3084:3391  function updateMarketItemQuantity(uint256 _itemId, uint8 _quantity) public {\r... */\n    tag_114:\n        /* \"Marketplace.sol\":3192:3206  idToMarketItem */\n      0x04\n        /* \"Marketplace.sol\":3192:3215  idToMarketItem[_itemId] */\n      0x00\n        /* \"Marketplace.sol\":3207:3214  _itemId */\n      dup4\n        /* \"Marketplace.sol\":3192:3215  idToMarketItem[_itemId] */\n      dup2\n      mstore\n      0x20\n      add\n      swap1\n      dup2\n      mstore\n      0x20\n      add\n      0x00\n      keccak256\n        /* \"Marketplace.sol\":3192:3222  idToMarketItem[_itemId].seller */\n      0x04\n      add\n      0x00\n      swap1\n      sload\n      swap1\n      0x0100\n      exp\n      swap1\n      div\n      0xffffffffffffffffffffffffffffffffffffffff\n      and\n        /* \"Marketplace.sol\":3178:3222  msg.sender == idToMarketItem[_itemId].seller */\n      0xffffffffffffffffffffffffffffffffffffffff\n      and\n        /* \"Marketplace.sol\":3178:3188  msg.sender */\n      caller\n        /* \"Marketplace.sol\":3178:3222  msg.sender == idToMarketItem[_itemId].seller */\n      0xffffffffffffffffffffffffffffffffffffffff\n      and\n      eq\n        /* \"Marketplace.sol\":3170:3266  require(msg.sender == idToMarketItem[_itemId].seller, \"Only the seller can update the quantity\") */\n      tag_247\n      jumpi\n      mload(0x40)\n      0x08c379a000000000000000000000000000000000000000000000000000000000\n      dup2\n      mstore\n      0x04\n      add\n      tag_248\n      swap1\n      tag_249\n      jump\t// in\n    tag_248:\n      mload(0x40)\n      dup1\n      swap2\n      sub\n      swap1\n      revert\n    tag_247:\n        /* \"Marketplace.sol\":3312:3321  _quantity */\n      dup1\n        /* \"Marketplace.sol\":3277:3291  idToMarketItem */\n      0x04\n        /* \"Marketplace.sol\":3277:3300  idToMarketItem[_itemId] */\n      0x00\n        /* \"Marketplace.sol\":3292:3299  _itemId */\n      dup5\n        /* \"Marketplace.sol\":3277:3300  idToMarketItem[_itemId] */\n      dup2\n      mstore\n      0x20\n      add\n      swap1\n      dup2\n      mstore\n      0x20\n      add\n      0x00\n      keccak256\n        /* \"Marketplace.sol\":3277:3309  idToMarketItem[_itemId].quantity */\n      0x06\n      add\n      0x00\n        /* \"Marketplace.sol\":3277:3321  idToMarketItem[_itemId].quantity = _quantity */\n      0x0100\n      exp\n      dup2\n      sload\n      dup2\n      0xff\n      mul\n      not\n      and\n      swap1\n      dup4\n      0xff\n      and\n      mul\n      or\n      swap1\n      sstore\n      pop\n        /* \"Marketplace.sol\":3368:3383  block.timestamp */\n      timestamp\n        /* \"Marketplace.sol\":3332:3346  idToMarketItem */\n      0x04\n        /* \"Marketplace.sol\":3332:3355  idToMarketItem[_itemId] */\n      0x00\n        /* \"Marketplace.sol\":3347:3354  _itemId */\n      dup5\n        /* \"Marketplace.sol\":3332:3355  idToMarketItem[_itemId] */\n      dup2\n      mstore\n      0x20\n      add\n      swap1\n      dup2\n      mstore\n      0x20\n      add\n      0x00\n      keccak256\n        /* \"Marketplace.sol\":3332:3365  idToMarketItem[_itemId].updatedAt */\n      0x08\n      add\n        /* \"Marketplace.sol\":3332:3383  idToMarketItem[_itemId].updatedAt = block.timestamp */\n      dup2\n      swap1\n      sstore\n      pop\n        /* \"Marketplace.sol\":3084:3391  function updateMarketItemQuantity(uint256 _itemId, uint8 _quantity) public {\r... */\n      pop\n      pop\n      jump\t// out\n        /* \"Marketplace.sol\":3399:3713  function updateMarketItemImgUrl(uint256 _itemId, string memory _imageUrl) public {\r... */\n    tag_118:\n        /* \"Marketplace.sol\":3513:3527  idToMarketItem */\n      0x04\n        /* \"Marketplace.sol\":3513:3536  idToMarketItem[_itemId] */\n      0x00\n        /* \"Marketplace.sol\":3528:3535  _itemId */\n      dup4\n        /* \"Marketplace.sol\":3513:3536  idToMarketItem[_itemId] */\n      dup2\n      mstore\n      0x20\n      add\n      swap1\n      dup2\n      mstore\n      0x20\n      add\n      0x00\n      keccak256\n        /* \"Marketplace.sol\":3513:3543  idToMarketItem[_itemId].seller */\n      0x04\n      add\n      0x00\n      swap1\n      sload\n      swap1\n      0x0100\n      exp\n      swap1\n      div\n      0xffffffffffffffffffffffffffffffffffffffff\n      and\n        /* \"Marketplace.sol\":3499:3543  msg.sender == idToMarketItem[_itemId].seller */\n      0xffffffffffffffffffffffffffffffffffffffff\n      and\n        /* \"Marketplace.sol\":3499:3509  msg.sender */\n      caller\n        /* \"Marketplace.sol\":3499:3543  msg.sender == idToMarketItem[_itemId].seller */\n      0xffffffffffffffffffffffffffffffffffffffff\n      and\n      eq\n        /* \"Marketplace.sol\":3491:3588  require(msg.sender == idToMarketItem[_itemId].seller, \"Only the seller can update the image url\") */\n      tag_251\n      jumpi\n      mload(0x40)\n      0x08c379a000000000000000000000000000000000000000000000000000000000\n      dup2\n      mstore\n      0x04\n      add\n      tag_252\n      swap1\n      tag_253\n      jump\t// in\n    tag_252:\n      mload(0x40)\n      dup1\n      swap2\n      sub\n      swap1\n      revert\n    tag_251:\n        /* \"Marketplace.sol\":3634:3643  _imageUrl */\n      dup1\n        /* \"Marketplace.sol\":3599:3613  idToMarketItem */\n      0x04\n        /* \"Marketplace.sol\":3599:3622  idToMarketItem[_itemId] */\n      0x00\n        /* \"Marketplace.sol\":3614:3621  _itemId */\n      dup5\n        /* \"Marketplace.sol\":3599:3622  idToMarketItem[_itemId] */\n      dup2\n      mstore\n      0x20\n      add\n      swap1\n      dup2\n      mstore\n      0x20\n      add\n      0x00\n      keccak256\n        /* \"Marketplace.sol\":3599:3631  idToMarketItem[_itemId].imageUrl */\n      0x05\n      add\n        /* \"Marketplace.sol\":3599:3643  idToMarketItem[_itemId].imageUrl = _imageUrl */\n      swap1\n      dup1\n      mload\n      swap1\n      0x20\n      add\n      swap1\n      tag_254\n      swap3\n      swap2\n      swap1\n      tag_217\n      jump\t// in\n    tag_254:\n      pop\n        /* \"Marketplace.sol\":3690:3705  block.timestamp */\n      timestamp\n        /* \"Marketplace.sol\":3654:3668  idToMarketItem */\n      0x04\n        /* \"Marketplace.sol\":3654:3677  idToMarketItem[_itemId] */\n      0x00\n        /* \"Marketplace.sol\":3669:3676  _itemId */\n      dup5\n        /* \"Marketplace.sol\":3654:3677  idToMarketItem[_itemId] */\n      dup2\n      mstore\n      0x20\n      add\n      swap1\n      dup2\n      mstore\n      0x20\n      add\n      0x00\n      keccak256\n        /* \"Marketplace.sol\":3654:3687  idToMarketItem[_itemId].updatedAt */\n      0x08\n      add\n        /* \"Marketplace.sol\":3654:3705  idToMarketItem[_itemId].updatedAt = block.timestamp */\n      dup2\n      swap1\n      sstore\n      pop\n        /* \"Marketplace.sol\":3399:3713  function updateMarketItemImgUrl(uint256 _itemId, string memory _imageUrl) public {\r... */\n      pop\n      pop\n      jump\t// out\n        /* \"Marketplace.sol\":4292:4440  function checkBuyer(uint256 _itemId, address _buyer) public view returns (bool) {\r... */\n    tag_123:\n        /* \"Marketplace.sol\":4366:4370  bool */\n      0x00\n        /* \"Marketplace.sol\":4390:4432  indexOf(idToBuyerAddress[_itemId], _buyer) */\n      tag_256\n        /* \"Marketplace.sol\":4398:4414  idToBuyerAddress */\n      0x02\n        /* \"Marketplace.sol\":4398:4423  idToBuyerAddress[_itemId] */\n      0x00\n        /* \"Marketplace.sol\":4415:4422  _itemId */\n      dup6\n        /* \"Marketplace.sol\":4398:4423  idToBuyerAddress[_itemId] */\n      dup2\n      mstore\n      0x20\n      add\n      swap1\n      dup2\n      mstore\n      0x20\n      add\n      0x00\n      keccak256\n        /* \"Marketplace.sol\":4390:4432  indexOf(idToBuyerAddress[_itemId], _buyer) */\n      dup1\n      sload\n      dup1\n      0x20\n      mul\n      0x20\n      add\n      mload(0x40)\n      swap1\n      dup2\n      add\n      0x40\n      mstore\n      dup1\n      swap3\n      swap2\n      swap1\n      dup2\n      dup2\n      mstore\n      0x20\n      add\n      dup3\n      dup1\n      sload\n      dup1\n      iszero\n      tag_257\n      jumpi\n      0x20\n      mul\n      dup3\n      add\n      swap2\n      swap1\n      0x00\n      mstore\n      keccak256(0x00, 0x20)\n      swap1\n    tag_258:\n      dup2\n      0x00\n      swap1\n      sload\n      swap1\n      0x0100\n      exp\n      swap1\n      div\n      0xffffffffffffffffffffffffffffffffffffffff\n      and\n      0xffffffffffffffffffffffffffffffffffffffff\n      and\n      dup2\n      mstore\n      0x20\n      add\n      swap1\n      0x01\n      add\n      swap1\n      dup1\n      dup4\n      gt\n      tag_258\n      jumpi\n    tag_257:\n      pop\n      pop\n      pop\n      pop\n      pop\n        /* \"Marketplace.sol\":4425:4431  _buyer */\n      dup4\n        /* \"Marketplace.sol\":4390:4397  indexOf */\n      tag_259\n        /* \"Marketplace.sol\":4390:4432  indexOf(idToBuyerAddress[_itemId], _buyer) */\n      jump\t// in\n    tag_256:\n        /* \"Marketplace.sol\":4383:4432  return indexOf(idToBuyerAddress[_itemId], _buyer) */\n      swap1\n      pop\n        /* \"Marketplace.sol\":4292:4440  function checkBuyer(uint256 _itemId, address _buyer) public view returns (bool) {\r... */\n      swap3\n      swap2\n      pop\n      pop\n      jump\t// out\n        /* \"@openzeppelin/contracts/utils/introspection/ERC165.sol\":829:984  function supportsInterface(bytes4 interfaceId) public view virtual override returns (bool) {... */\n    tag_128:\n        /* \"@openzeppelin/contracts/utils/introspection/ERC165.sol\":914:918  bool */\n      0x00\n        /* \"@openzeppelin/contracts/utils/introspection/ERC165.sol\":952:977  type(IERC165).interfaceId */\n      0x01ffc9a700000000000000000000000000000000000000000000000000000000\n        /* \"@openzeppelin/contracts/utils/introspection/ERC165.sol\":937:977  interfaceId == type(IERC165).interfaceId */\n      not(0xffffffffffffffffffffffffffffffffffffffffffffffffffffffff)\n      and\n        /* \"@openzeppelin/contracts/utils/introspection/ERC165.sol\":937:948  interfaceId */\n      dup3\n        /* \"@openzeppelin/contracts/utils/introspection/ERC165.sol\":937:977  interfaceId == type(IERC165).interfaceId */\n      not(0xffffffffffffffffffffffffffffffffffffffffffffffffffffffff)\n      and\n      eq\n        /* \"@openzeppelin/contracts/utils/introspection/ERC165.sol\":930:977  return interfaceId == type(IERC165).interfaceId */\n      swap1\n      pop\n        /* \"@openzeppelin/contracts/utils/introspection/ERC165.sol\":829:984  function supportsInterface(bytes4 interfaceId) public view virtual override returns (bool) {... */\n      swap2\n      swap1\n      pop\n      jump\t// out\n        /* \"@openzeppelin/contracts/utils/Context.sol\":640:736  function _msgSender() internal view virtual returns (address) {... */\n    tag_167:\n        /* \"@openzeppelin/contracts/utils/Context.sol\":693:700  address */\n      0x00\n        /* \"@openzeppelin/contracts/utils/Context.sol\":719:729  msg.sender */\n      caller\n        /* \"@openzeppelin/contracts/utils/Context.sol\":712:729  return msg.sender */\n      swap1\n      pop\n        /* \"@openzeppelin/contracts/utils/Context.sol\":640:736  function _msgSender() internal view virtual returns (address) {... */\n      swap1\n      jump\t// out\n        /* \"@openzeppelin/contracts/access/AccessControl.sol\":3335:3827  function _checkRole(bytes32 role, address account) internal view virtual {... */\n    tag_168:\n        /* \"@openzeppelin/contracts/access/AccessControl.sol\":3423:3445  hasRole(role, account) */\n      tag_263\n        /* \"@openzeppelin/contracts/access/AccessControl.sol\":3431:3435  role */\n      dup3\n        /* \"@openzeppelin/contracts/access/AccessControl.sol\":3437:3444  account */\n      dup3\n        /* \"@openzeppelin/contracts/access/AccessControl.sol\":3423:3430  hasRole */\n      tag_81\n        /* \"@openzeppelin/contracts/access/AccessControl.sol\":3423:3445  hasRole(role, account) */\n      jump\t// in\n    tag_263:\n        /* \"@openzeppelin/contracts/access/AccessControl.sol\":3418:3821  if (!hasRole(role, account)) {... */\n      tag_264\n      jumpi\n        /* \"@openzeppelin/contracts/access/AccessControl.sol\":3606:3647  Strings.toHexString(uint160(account), 20) */\n      tag_265\n        /* \"@openzeppelin/contracts/access/AccessControl.sol\":3634:3641  account */\n      dup2\n        /* \"@openzeppelin/contracts/access/AccessControl.sol\":3606:3647  Strings.toHexString(uint160(account), 20) */\n      0xffffffffffffffffffffffffffffffffffffffff\n      and\n        /* \"@openzeppelin/contracts/access/AccessControl.sol\":3644:3646  20 */\n      0x14\n        /* \"@openzeppelin/contracts/access/AccessControl.sol\":3606:3625  Strings.toHexString */\n      tag_266\n        /* \"@openzeppelin/contracts/access/AccessControl.sol\":3606:3647  Strings.toHexString(uint160(account), 20) */\n      jump\t// in\n    tag_265:\n        /* \"@openzeppelin/contracts/access/AccessControl.sol\":3718:3756  Strings.toHexString(uint256(role), 32) */\n      tag_267\n        /* \"@openzeppelin/contracts/access/AccessControl.sol\":3746:3750  role */\n      dup4\n        /* \"@openzeppelin/contracts/access/AccessControl.sol\":3738:3751  uint256(role) */\n      0x00\n      shr\n        /* \"@openzeppelin/contracts/access/AccessControl.sol\":3753:3755  32 */\n      0x20\n        /* \"@openzeppelin/contracts/access/AccessControl.sol\":3718:3737  Strings.toHexString */\n      tag_266\n        /* \"@openzeppelin/contracts/access/AccessControl.sol\":3718:3756  Strings.toHexString(uint256(role), 32) */\n      jump\t// in\n    tag_267:\n        /* \"@openzeppelin/contracts/access/AccessControl.sol\":3513:3778  abi.encodePacked(... */\n      add(0x20, mload(0x40))\n      tag_268\n      swap3\n      swap2\n      swap1\n      tag_269\n      jump\t// in\n    tag_268:\n      mload(0x40)\n      0x20\n      dup2\n      dup4\n      sub\n      sub\n      dup2\n      mstore\n      swap1\n      0x40\n      mstore\n        /* \"@openzeppelin/contracts/access/AccessControl.sol\":3461:3810  revert(... */\n      mload(0x40)\n      0x08c379a000000000000000000000000000000000000000000000000000000000\n      dup2\n      mstore\n      0x04\n      add\n      tag_270\n      swap2\n      swap1\n      tag_271\n      jump\t// in\n    tag_270:\n      mload(0x40)\n      dup1\n      swap2\n      sub\n      swap1\n      revert\n        /* \"@openzeppelin/contracts/access/AccessControl.sol\":3418:3821  if (!hasRole(role, account)) {... */\n    tag_264:\n        /* \"@openzeppelin/contracts/access/AccessControl.sol\":3335:3827  function _checkRole(bytes32 role, address account) internal view virtual {... */\n      pop\n      pop\n      jump\t// out\n        /* \"@openzeppelin/contracts/access/AccessControl.sol\":6861:7094  function _grantRole(bytes32 role, address account) internal virtual {... */\n    tag_171:\n        /* \"@openzeppelin/contracts/access/AccessControl.sol\":6944:6966  hasRole(role, account) */\n      tag_273\n        /* \"@openzeppelin/contracts/access/AccessControl.sol\":6952:6956  role */\n      dup3\n        /* \"@openzeppelin/contracts/access/AccessControl.sol\":6958:6965  account */\n      dup3\n        /* \"@openzeppelin/contracts/access/AccessControl.sol\":6944:6951  hasRole */\n      tag_81\n        /* \"@openzeppelin/contracts/access/AccessControl.sol\":6944:6966  hasRole(role, account) */\n      jump\t// in\n    tag_273:\n        /* \"@openzeppelin/contracts/access/AccessControl.sol\":6939:7088  if (!hasRole(role, account)) {... */\n      tag_274\n      jumpi\n        /* \"@openzeppelin/contracts/access/AccessControl.sol\":7014:7018  true */\n      0x01\n        /* \"@openzeppelin/contracts/access/AccessControl.sol\":6982:6988  _roles */\n      0x00\n        /* \"@openzeppelin/contracts/access/AccessControl.sol\":6982:6994  _roles[role] */\n      dup1\n        /* \"@openzeppelin/contracts/access/AccessControl.sol\":6989:6993  role */\n      dup5\n        /* \"@openzeppelin/contracts/access/AccessControl.sol\":6982:6994  _roles[role] */\n      dup2\n      mstore\n      0x20\n      add\n      swap1\n      dup2\n      mstore\n      0x20\n      add\n      0x00\n      keccak256\n        /* \"@openzeppelin/contracts/access/AccessControl.sol\":6982:7002  _roles[role].members */\n      0x00\n      add\n        /* \"@openzeppelin/contracts/access/AccessControl.sol\":6982:7011  _roles[role].members[account] */\n      0x00\n        /* \"@openzeppelin/contracts/access/AccessControl.sol\":7003:7010  account */\n      dup4\n        /* \"@openzeppelin/contracts/access/AccessControl.sol\":6982:7011  _roles[role].members[account] */\n      0xffffffffffffffffffffffffffffffffffffffff\n      and\n      0xffffffffffffffffffffffffffffffffffffffff\n      and\n      dup2\n      mstore\n      0x20\n      add\n      swap1\n      dup2\n      mstore\n      0x20\n      add\n      0x00\n      keccak256\n      0x00\n        /* \"@openzeppelin/contracts/access/AccessControl.sol\":6982:7018  _roles[role].members[account] = true */\n      0x0100\n      exp\n      dup2\n      sload\n      dup2\n      0xff\n      mul\n      not\n      and\n      swap1\n      dup4\n      iszero\n      iszero\n      mul\n      or\n      swap1\n      sstore\n      pop\n        /* \"@openzeppelin/contracts/access/AccessControl.sol\":7064:7076  _msgSender() */\n      tag_275\n        /* \"@openzeppelin/contracts/access/AccessControl.sol\":7064:7074  _msgSender */\n      tag_167\n        /* \"@openzeppelin/contracts/access/AccessControl.sol\":7064:7076  _msgSender() */\n      jump\t// in\n    tag_275:\n        /* \"@openzeppelin/contracts/access/AccessControl.sol\":7037:7077  RoleGranted(role, account, _msgSender()) */\n      0xffffffffffffffffffffffffffffffffffffffff\n      and\n        /* \"@openzeppelin/contracts/access/AccessControl.sol\":7055:7062  account */\n      dup2\n        /* \"@openzeppelin/contracts/access/AccessControl.sol\":7037:7077  RoleGranted(role, account, _msgSender()) */\n      0xffffffffffffffffffffffffffffffffffffffff\n      and\n        /* \"@openzeppelin/contracts/access/AccessControl.sol\":7049:7053  role */\n      dup4\n        /* \"@openzeppelin/contracts/access/AccessControl.sol\":7037:7077  RoleGranted(role, account, _msgSender()) */\n      0x2f8788117e7eff1d82e926ec794901d17c78024a50270940304540a733656f0d\n      mload(0x40)\n      mload(0x40)\n      dup1\n      swap2\n      sub\n      swap1\n      log4\n        /* \"@openzeppelin/contracts/access/AccessControl.sol\":6939:7088  if (!hasRole(role, account)) {... */\n    tag_274:\n        /* \"@openzeppelin/contracts/access/AccessControl.sol\":6861:7094  function _grantRole(bytes32 role, address account) internal virtual {... */\n      pop\n      pop\n      jump\t// out\n        /* \"@openzeppelin/contracts/access/AccessControl.sol\":7219:7453  function _revokeRole(bytes32 role, address account) internal virtual {... */\n    tag_178:\n        /* \"@openzeppelin/contracts/access/AccessControl.sol\":7302:7324  hasRole(role, account) */\n      tag_277\n        /* \"@openzeppelin/contracts/access/AccessControl.sol\":7310:7314  role */\n      dup3\n        /* \"@openzeppelin/contracts/access/AccessControl.sol\":7316:7323  account */\n      dup3\n        /* \"@openzeppelin/contracts/access/AccessControl.sol\":7302:7309  hasRole */\n      tag_81\n        /* \"@openzeppelin/contracts/access/AccessControl.sol\":7302:7324  hasRole(role, account) */\n      jump\t// in\n    tag_277:\n        /* \"@openzeppelin/contracts/access/AccessControl.sol\":7298:7447  if (hasRole(role, account)) {... */\n      iszero\n      tag_278\n      jumpi\n        /* \"@openzeppelin/contracts/access/AccessControl.sol\":7372:7377  false */\n      0x00\n        /* \"@openzeppelin/contracts/access/AccessControl.sol\":7340:7346  _roles */\n      dup1\n        /* \"@openzeppelin/contracts/access/AccessControl.sol\":7340:7352  _roles[role] */\n      0x00\n        /* \"@openzeppelin/contracts/access/AccessControl.sol\":7347:7351  role */\n      dup5\n        /* \"@openzeppelin/contracts/access/AccessControl.sol\":7340:7352  _roles[role] */\n      dup2\n      mstore\n      0x20\n      add\n      swap1\n      dup2\n      mstore\n      0x20\n      add\n      0x00\n      keccak256\n        /* \"@openzeppelin/contracts/access/AccessControl.sol\":7340:7360  _roles[role].members */\n      0x00\n      add\n        /* \"@openzeppelin/contracts/access/AccessControl.sol\":7340:7369  _roles[role].members[account] */\n      0x00\n        /* \"@openzeppelin/contracts/access/AccessControl.sol\":7361:7368  account */\n      dup4\n        /* \"@openzeppelin/contracts/access/AccessControl.sol\":7340:7369  _roles[role].members[account] */\n      0xffffffffffffffffffffffffffffffffffffffff\n      and\n      0xffffffffffffffffffffffffffffffffffffffff\n      and\n      dup2\n      mstore\n      0x20\n      add\n      swap1\n      dup2\n      mstore\n      0x20\n      add\n      0x00\n      keccak256\n      0x00\n        /* \"@openzeppelin/contracts/access/AccessControl.sol\":7340:7377  _roles[role].members[account] = false */\n      0x0100\n      exp\n      dup2\n      sload\n      dup2\n      0xff\n      mul\n      not\n      and\n      swap1\n      dup4\n      iszero\n      iszero\n      mul\n      or\n      swap1\n      sstore\n      pop\n        /* \"@openzeppelin/contracts/access/AccessControl.sol\":7423:7435  _msgSender() */\n      tag_279\n        /* \"@openzeppelin/contracts/access/AccessControl.sol\":7423:7433  _msgSender */\n      tag_167\n        /* \"@openzeppelin/contracts/access/AccessControl.sol\":7423:7435  _msgSender() */\n      jump\t// in\n    tag_279:\n        /* \"@openzeppelin/contracts/access/AccessControl.sol\":7396:7436  RoleRevoked(role, account, _msgSender()) */\n      0xffffffffffffffffffffffffffffffffffffffff\n      and\n        /* \"@openzeppelin/contracts/access/AccessControl.sol\":7414:7421  account */\n      dup2\n        /* \"@openzeppelin/contracts/access/AccessControl.sol\":7396:7436  RoleRevoked(role, account, _msgSender()) */\n      0xffffffffffffffffffffffffffffffffffffffff\n      and\n        /* \"@openzeppelin/contracts/access/AccessControl.sol\":7408:7412  role */\n      dup4\n        /* \"@openzeppelin/contracts/access/AccessControl.sol\":7396:7436  RoleRevoked(role, account, _msgSender()) */\n      0xf6391f5c32d9c69d2a47ea670b442974b53935d1edc7fd64eb21e047a839171b\n      mload(0x40)\n      mload(0x40)\n      dup1\n      swap2\n      sub\n      swap1\n      log4\n        /* \"@openzeppelin/contracts/access/AccessControl.sol\":7298:7447  if (hasRole(role, account)) {... */\n    tag_278:\n        /* \"@openzeppelin/contracts/access/AccessControl.sol\":7219:7453  function _revokeRole(bytes32 role, address account) internal virtual {... */\n      pop\n      pop\n      jump\t// out\n        /* \"Marketplace.sol\":4023:4284  function indexOf(address[] memory arr, address searchFor) private pure returns (bool) {\r... */\n    tag_259:\n        /* \"Marketplace.sol\":4103:4107  bool */\n      0x00\n        /* \"Marketplace.sol\":4125:4134  uint256 i */\n      dup1\n        /* \"Marketplace.sol\":4137:4138  0 */\n      0x00\n        /* \"Marketplace.sol\":4125:4138  uint256 i = 0 */\n      swap1\n      pop\n        /* \"Marketplace.sol\":4120:4254  for (uint256 i = 0; i < arr.length; i++) {\r... */\n    tag_281:\n        /* \"Marketplace.sol\":4144:4147  arr */\n      dup4\n        /* \"Marketplace.sol\":4144:4154  arr.length */\n      mload\n        /* \"Marketplace.sol\":4140:4141  i */\n      dup2\n        /* \"Marketplace.sol\":4140:4154  i < arr.length */\n      lt\n        /* \"Marketplace.sol\":4120:4254  for (uint256 i = 0; i < arr.length; i++) {\r... */\n      iszero\n      tag_282\n      jumpi\n        /* \"Marketplace.sol\":4190:4199  searchFor */\n      dup3\n        /* \"Marketplace.sol\":4180:4199  arr[i] == searchFor */\n      0xffffffffffffffffffffffffffffffffffffffff\n      and\n        /* \"Marketplace.sol\":4180:4183  arr */\n      dup5\n        /* \"Marketplace.sol\":4184:4185  i */\n      dup3\n        /* \"Marketplace.sol\":4180:4186  arr[i] */\n      dup2\n      mload\n      dup2\n      lt\n      tag_284\n      jumpi\n      tag_285\n      tag_185\n      jump\t// in\n    tag_285:\n    tag_284:\n      0x20\n      mul\n      0x20\n      add\n      add\n      mload\n        /* \"Marketplace.sol\":4180:4199  arr[i] == searchFor */\n      0xffffffffffffffffffffffffffffffffffffffff\n      and\n      eq\n        /* \"Marketplace.sol\":4176:4243  if (arr[i] == searchFor) {\r... */\n      iszero\n      tag_286\n      jumpi\n        /* \"Marketplace.sol\":4223:4227  true */\n      0x01\n        /* \"Marketplace.sol\":4216:4227  return true */\n      swap2\n      pop\n      pop\n      jump(tag_280)\n        /* \"Marketplace.sol\":4176:4243  if (arr[i] == searchFor) {\r... */\n    tag_286:\n        /* \"Marketplace.sol\":4156:4159  i++ */\n      dup1\n      dup1\n      tag_287\n      swap1\n      tag_191\n      jump\t// in\n    tag_287:\n      swap2\n      pop\n      pop\n        /* \"Marketplace.sol\":4120:4254  for (uint256 i = 0; i < arr.length; i++) {\r... */\n      jump(tag_281)\n    tag_282:\n      pop\n        /* \"Marketplace.sol\":4271:4276  false */\n      0x00\n        /* \"Marketplace.sol\":4264:4276  return false */\n      swap1\n      pop\n        /* \"Marketplace.sol\":4023:4284  function indexOf(address[] memory arr, address searchFor) private pure returns (bool) {\r... */\n    tag_280:\n      swap3\n      swap2\n      pop\n      pop\n      jump\t// out\n        /* \"@openzeppelin/contracts/utils/Strings.sol\":1588:2029  function toHexString(uint256 value, uint256 length) internal pure returns (string memory) {... */\n    tag_266:\n        /* \"@openzeppelin/contracts/utils/Strings.sol\":1663:1676  string memory */\n      0x60\n        /* \"@openzeppelin/contracts/utils/Strings.sol\":1688:1707  bytes memory buffer */\n      0x00\n        /* \"@openzeppelin/contracts/utils/Strings.sol\":1733:1734  2 */\n      0x02\n        /* \"@openzeppelin/contracts/utils/Strings.sol\":1724:1730  length */\n      dup4\n        /* \"@openzeppelin/contracts/utils/Strings.sol\":1720:1721  2 */\n      0x02\n        /* \"@openzeppelin/contracts/utils/Strings.sol\":1720:1730  2 * length */\n      tag_289\n      swap2\n      swap1\n      tag_145\n      jump\t// in\n    tag_289:\n        /* \"@openzeppelin/contracts/utils/Strings.sol\":1720:1734  2 * length + 2 */\n      tag_290\n      swap2\n      swap1\n      tag_189\n      jump\t// in\n    tag_290:\n        /* \"@openzeppelin/contracts/utils/Strings.sol\":1710:1735  new bytes(2 * length + 2) */\n      0xffffffffffffffff\n      dup2\n      gt\n      iszero\n      tag_291\n      jumpi\n      tag_292\n      tag_293\n      jump\t// in\n    tag_292:\n    tag_291:\n      mload(0x40)\n      swap1\n      dup1\n      dup3\n      mstore\n      dup1\n      0x1f\n      add\n      not(0x1f)\n      and\n      0x20\n      add\n      dup3\n      add\n      0x40\n      mstore\n      dup1\n      iszero\n      tag_294\n      jumpi\n      dup2\n      0x20\n      add\n      0x01\n      dup3\n      mul\n      dup1\n      calldatasize\n      dup4\n      calldatacopy\n      dup1\n      dup3\n      add\n      swap2\n      pop\n      pop\n      swap1\n      pop\n    tag_294:\n      pop\n        /* \"@openzeppelin/contracts/utils/Strings.sol\":1688:1735  bytes memory buffer = new bytes(2 * length + 2) */\n      swap1\n      pop\n        /* \"@openzeppelin/contracts/utils/Strings.sol\":1745:1760  buffer[0] = \"0\" */\n      0x3000000000000000000000000000000000000000000000000000000000000000\n        /* \"@openzeppelin/contracts/utils/Strings.sol\":1745:1751  buffer */\n      dup2\n        /* \"@openzeppelin/contracts/utils/Strings.sol\":1752:1753  0 */\n      0x00\n        /* \"@openzeppelin/contracts/utils/Strings.sol\":1745:1754  buffer[0] */\n      dup2\n      mload\n      dup2\n      lt\n      tag_295\n      jumpi\n      tag_296\n      tag_185\n      jump\t// in\n    tag_296:\n    tag_295:\n      0x20\n      add\n      add\n        /* \"@openzeppelin/contracts/utils/Strings.sol\":1745:1760  buffer[0] = \"0\" */\n      swap1\n      not(0xffffffffffffffffffffffffffffffffffffffffffffffffffffffffffffff)\n      and\n      swap1\n      dup2\n      0x00\n      byte\n      swap1\n      mstore8\n      pop\n        /* \"@openzeppelin/contracts/utils/Strings.sol\":1770:1785  buffer[1] = \"x\" */\n      0x7800000000000000000000000000000000000000000000000000000000000000\n        /* \"@openzeppelin/contracts/utils/Strings.sol\":1770:1776  buffer */\n      dup2\n        /* \"@openzeppelin/contracts/utils/Strings.sol\":1777:1778  1 */\n      0x01\n        /* \"@openzeppelin/contracts/utils/Strings.sol\":1770:1779  buffer[1] */\n      dup2\n      mload\n      dup2\n      lt\n      tag_297\n      jumpi\n      tag_298\n      tag_185\n      jump\t// in\n    tag_298:\n    tag_297:\n      0x20\n      add\n      add\n        /* \"@openzeppelin/contracts/utils/Strings.sol\":1770:1785  buffer[1] = \"x\" */\n      swap1\n      not(0xffffffffffffffffffffffffffffffffffffffffffffffffffffffffffffff)\n      and\n      swap1\n      dup2\n      0x00\n      byte\n      swap1\n      mstore8\n      pop\n        /* \"@openzeppelin/contracts/utils/Strings.sol\":1800:1809  uint256 i */\n      0x00\n        /* \"@openzeppelin/contracts/utils/Strings.sol\":1825:1826  1 */\n      0x01\n        /* \"@openzeppelin/contracts/utils/Strings.sol\":1816:1822  length */\n      dup5\n        /* \"@openzeppelin/contracts/utils/Strings.sol\":1812:1813  2 */\n      0x02\n        /* \"@openzeppelin/contracts/utils/Strings.sol\":1812:1822  2 * length */\n      tag_302\n      swap2\n      swap1\n      tag_145\n      jump\t// in\n    tag_302:\n        /* \"@openzeppelin/contracts/utils/Strings.sol\":1812:1826  2 * length + 1 */\n      tag_303\n      swap2\n      swap1\n      tag_189\n      jump\t// in\n    tag_303:\n        /* \"@openzeppelin/contracts/utils/Strings.sol\":1800:1826  uint256 i = 2 * length + 1 */\n      swap1\n      pop\n        /* \"@openzeppelin/contracts/utils/Strings.sol\":1795:1927  for (uint256 i = 2 * length + 1; i > 1; --i) {... */\n    tag_299:\n        /* \"@openzeppelin/contracts/utils/Strings.sol\":1832:1833  1 */\n      0x01\n        /* \"@openzeppelin/contracts/utils/Strings.sol\":1828:1829  i */\n      dup2\n        /* \"@openzeppelin/contracts/utils/Strings.sol\":1828:1833  i > 1 */\n      gt\n        /* \"@openzeppelin/contracts/utils/Strings.sol\":1795:1927  for (uint256 i = 2 * length + 1; i > 1; --i) {... */\n      iszero\n      tag_300\n      jumpi\n        /* \"@openzeppelin/contracts/utils/Strings.sol\":1866:1878  _HEX_SYMBOLS */\n      0x3031323334353637383961626364656600000000000000000000000000000000\n        /* \"@openzeppelin/contracts/utils/Strings.sol\":1887:1890  0xf */\n      0x0f\n        /* \"@openzeppelin/contracts/utils/Strings.sol\":1879:1884  value */\n      dup7\n        /* \"@openzeppelin/contracts/utils/Strings.sol\":1879:1890  value & 0xf */\n      and\n        /* \"@openzeppelin/contracts/utils/Strings.sol\":1866:1891  _HEX_SYMBOLS[value & 0xf] */\n      0x10\n      dup2\n      lt\n      tag_304\n      jumpi\n      tag_305\n      tag_185\n      jump\t// in\n    tag_305:\n    tag_304:\n      byte\n      0xf8\n      shl\n        /* \"@openzeppelin/contracts/utils/Strings.sol\":1854:1860  buffer */\n      dup3\n        /* \"@openzeppelin/contracts/utils/Strings.sol\":1861:1862  i */\n      dup3\n        /* \"@openzeppelin/contracts/utils/Strings.sol\":1854:1863  buffer[i] */\n      dup2\n      mload\n      dup2\n      lt\n      tag_306\n      jumpi\n      tag_307\n      tag_185\n      jump\t// in\n    tag_307:\n    tag_306:\n      0x20\n      add\n      add\n        /* \"@openzeppelin/contracts/utils/Strings.sol\":1854:1891  buffer[i] = _HEX_SYMBOLS[value & 0xf] */\n      swap1\n      not(0xffffffffffffffffffffffffffffffffffffffffffffffffffffffffffffff)\n      and\n      swap1\n      dup2\n      0x00\n      byte\n      swap1\n      mstore8\n      pop\n        /* \"@openzeppelin/contracts/utils/Strings.sol\":1915:1916  4 */\n      0x04\n        /* \"@openzeppelin/contracts/utils/Strings.sol\":1905:1916  value >>= 4 */\n      dup6\n      swap1\n      shr\n      swap5\n      pop\n        /* \"@openzeppelin/contracts/utils/Strings.sol\":1835:1838  --i */\n      dup1\n      tag_308\n      swap1\n      tag_309\n      jump\t// in\n    tag_308:\n      swap1\n      pop\n        /* \"@openzeppelin/contracts/utils/Strings.sol\":1795:1927  for (uint256 i = 2 * length + 1; i > 1; --i) {... */\n      jump(tag_299)\n    tag_300:\n      pop\n        /* \"@openzeppelin/contracts/utils/Strings.sol\":1953:1954  0 */\n      0x00\n        /* \"@openzeppelin/contracts/utils/Strings.sol\":1944:1949  value */\n      dup5\n        /* \"@openzeppelin/contracts/utils/Strings.sol\":1944:1954  value == 0 */\n      eq\n        /* \"@openzeppelin/contracts/utils/Strings.sol\":1936:1991  require(value == 0, \"Strings: hex length insufficient\") */\n      tag_310\n      jumpi\n      mload(0x40)\n      0x08c379a000000000000000000000000000000000000000000000000000000000\n      dup2\n      mstore\n      0x04\n      add\n      tag_311\n      swap1\n      tag_312\n      jump\t// in\n    tag_311:\n      mload(0x40)\n      dup1\n      swap2\n      sub\n      swap1\n      revert\n    tag_310:\n        /* \"@openzeppelin/contracts/utils/Strings.sol\":2015:2021  buffer */\n      dup1\n        /* \"@openzeppelin/contracts/utils/Strings.sol\":2001:2022  return string(buffer) */\n      swap2\n      pop\n      pop\n        /* \"@openzeppelin/contracts/utils/Strings.sol\":1588:2029  function toHexString(uint256 value, uint256 length) internal pure returns (string memory) {... */\n      swap3\n      swap2\n      pop\n      pop\n      jump\t// out\n    tag_217:\n      dup3\n      dup1\n      sload\n      tag_313\n      swap1\n      tag_197\n      jump\t// in\n    tag_313:\n      swap1\n      0x00\n      mstore\n      keccak256(0x00, 0x20)\n      swap1\n      0x1f\n      add\n      0x20\n      swap1\n      div\n      dup2\n      add\n      swap3\n      dup3\n      tag_315\n      jumpi\n      0x00\n      dup6\n      sstore\n      jump(tag_314)\n    tag_315:\n      dup3\n      0x1f\n      lt\n      tag_316\n      jumpi\n      dup1\n      mload\n      not(0xff)\n      and\n      dup4\n      dup1\n      add\n      or\n      dup6\n      sstore\n      jump(tag_314)\n    tag_316:\n      dup3\n      dup1\n      add\n      0x01\n      add\n      dup6\n      sstore\n      dup3\n      iszero\n      tag_314\n      jumpi\n      swap2\n      dup3\n      add\n    tag_317:\n      dup3\n      dup2\n      gt\n      iszero\n      tag_318\n      jumpi\n      dup3\n      mload\n      dup3\n      sstore\n      swap2\n      0x20\n      add\n      swap2\n      swap1\n      0x01\n      add\n      swap1\n      jump(tag_317)\n    tag_318:\n    tag_314:\n      pop\n      swap1\n      pop\n      tag_319\n      swap2\n      swap1\n      tag_320\n      jump\t// in\n    tag_319:\n      pop\n      swap1\n      jump\t// out\n    tag_320:\n    tag_321:\n      dup1\n      dup3\n      gt\n      iszero\n      tag_322\n      jumpi\n      0x00\n      dup2\n      0x00\n      swap1\n      sstore\n      pop\n      0x01\n      add\n      jump(tag_321)\n    tag_322:\n      pop\n      swap1\n      jump\t// out\n        /* \"#utility.yul\":7:419   */\n    tag_324:\n        /* \"#utility.yul\":85:90   */\n      0x00\n        /* \"#utility.yul\":110:176   */\n      tag_326\n        /* \"#utility.yul\":126:175   */\n      tag_327\n        /* \"#utility.yul\":168:174   */\n      dup5\n        /* \"#utility.yul\":126:175   */\n      tag_328\n      jump\t// in\n    tag_327:\n        /* \"#utility.yul\":110:176   */\n      tag_329\n      jump\t// in\n    tag_326:\n        /* \"#utility.yul\":101:176   */\n      swap1\n      pop\n        /* \"#utility.yul\":199:205   */\n      dup3\n        /* \"#utility.yul\":192:197   */\n      dup2\n        /* \"#utility.yul\":185:206   */\n      mstore\n        /* \"#utility.yul\":237:241   */\n      0x20\n        /* \"#utility.yul\":230:235   */\n      dup2\n        /* \"#utility.yul\":226:242   */\n      add\n        /* \"#utility.yul\":275:278   */\n      dup5\n        /* \"#utility.yul\":266:272   */\n      dup5\n        /* \"#utility.yul\":261:264   */\n      dup5\n        /* \"#utility.yul\":257:273   */\n      add\n        /* \"#utility.yul\":254:279   */\n      gt\n        /* \"#utility.yul\":251:363   */\n      iszero\n      tag_330\n      jumpi\n        /* \"#utility.yul\":282:361   */\n      tag_331\n      tag_332\n      jump\t// in\n    tag_331:\n        /* \"#utility.yul\":251:363   */\n    tag_330:\n        /* \"#utility.yul\":372:413   */\n      tag_333\n        /* \"#utility.yul\":406:412   */\n      dup5\n        /* \"#utility.yul\":401:404   */\n      dup3\n        /* \"#utility.yul\":396:399   */\n      dup6\n        /* \"#utility.yul\":372:413   */\n      tag_334\n      jump\t// in\n    tag_333:\n        /* \"#utility.yul\":91:419   */\n      pop\n        /* \"#utility.yul\":7:419   */\n      swap4\n      swap3\n      pop\n      pop\n      pop\n      jump\t// out\n        /* \"#utility.yul\":425:564   */\n    tag_335:\n        /* \"#utility.yul\":471:476   */\n      0x00\n        /* \"#utility.yul\":509:515   */\n      dup2\n        /* \"#utility.yul\":496:516   */\n      calldataload\n        /* \"#utility.yul\":487:516   */\n      swap1\n      pop\n        /* \"#utility.yul\":525:558   */\n      tag_337\n        /* \"#utility.yul\":552:557   */\n      dup2\n        /* \"#utility.yul\":525:558   */\n      tag_338\n      jump\t// in\n    tag_337:\n        /* \"#utility.yul\":425:564   */\n      swap3\n      swap2\n      pop\n      pop\n      jump\t// out\n        /* \"#utility.yul\":570:725   */\n    tag_339:\n        /* \"#utility.yul\":624:629   */\n      0x00\n        /* \"#utility.yul\":662:668   */\n      dup2\n        /* \"#utility.yul\":649:669   */\n      calldataload\n        /* \"#utility.yul\":640:669   */\n      swap1\n      pop\n        /* \"#utility.yul\":678:719   */\n      tag_341\n        /* \"#utility.yul\":713:718   */\n      dup2\n        /* \"#utility.yul\":678:719   */\n      tag_342\n      jump\t// in\n    tag_341:\n        /* \"#utility.yul\":570:725   */\n      swap3\n      swap2\n      pop\n      pop\n      jump\t// out\n        /* \"#utility.yul\":731:870   */\n    tag_343:\n        /* \"#utility.yul\":777:782   */\n      0x00\n        /* \"#utility.yul\":815:821   */\n      dup2\n        /* \"#utility.yul\":802:822   */\n      calldataload\n        /* \"#utility.yul\":793:822   */\n      swap1\n      pop\n        /* \"#utility.yul\":831:864   */\n      tag_345\n        /* \"#utility.yul\":858:863   */\n      dup2\n        /* \"#utility.yul\":831:864   */\n      tag_346\n      jump\t// in\n    tag_345:\n        /* \"#utility.yul\":731:870   */\n      swap3\n      swap2\n      pop\n      pop\n      jump\t// out\n        /* \"#utility.yul\":876:1013   */\n    tag_347:\n        /* \"#utility.yul\":921:926   */\n      0x00\n        /* \"#utility.yul\":959:965   */\n      dup2\n        /* \"#utility.yul\":946:966   */\n      calldataload\n        /* \"#utility.yul\":937:966   */\n      swap1\n      pop\n        /* \"#utility.yul\":975:1007   */\n      tag_349\n        /* \"#utility.yul\":1001:1006   */\n      dup2\n        /* \"#utility.yul\":975:1007   */\n      tag_350\n      jump\t// in\n    tag_349:\n        /* \"#utility.yul\":876:1013   */\n      swap3\n      swap2\n      pop\n      pop\n      jump\t// out\n        /* \"#utility.yul\":1033:1373   */\n    tag_351:\n        /* \"#utility.yul\":1089:1094   */\n      0x00\n        /* \"#utility.yul\":1138:1141   */\n      dup3\n        /* \"#utility.yul\":1131:1135   */\n      0x1f\n        /* \"#utility.yul\":1123:1129   */\n      dup4\n        /* \"#utility.yul\":1119:1136   */\n      add\n        /* \"#utility.yul\":1115:1142   */\n      slt\n        /* \"#utility.yul\":1105:1227   */\n      tag_353\n      jumpi\n        /* \"#utility.yul\":1146:1225   */\n      tag_354\n      tag_355\n      jump\t// in\n    tag_354:\n        /* \"#utility.yul\":1105:1227   */\n    tag_353:\n        /* \"#utility.yul\":1263:1269   */\n      dup2\n        /* \"#utility.yul\":1250:1270   */\n      calldataload\n        /* \"#utility.yul\":1288:1367   */\n      tag_356\n        /* \"#utility.yul\":1363:1366   */\n      dup5\n        /* \"#utility.yul\":1355:1361   */\n      dup3\n        /* \"#utility.yul\":1348:1352   */\n      0x20\n        /* \"#utility.yul\":1340:1346   */\n      dup7\n        /* \"#utility.yul\":1336:1353   */\n      add\n        /* \"#utility.yul\":1288:1367   */\n      tag_324\n      jump\t// in\n    tag_356:\n        /* \"#utility.yul\":1279:1367   */\n      swap2\n      pop\n        /* \"#utility.yul\":1095:1373   */\n      pop\n        /* \"#utility.yul\":1033:1373   */\n      swap3\n      swap2\n      pop\n      pop\n      jump\t// out\n        /* \"#utility.yul\":1379:1518   */\n    tag_357:\n        /* \"#utility.yul\":1425:1430   */\n      0x00\n        /* \"#utility.yul\":1463:1469   */\n      dup2\n        /* \"#utility.yul\":1450:1470   */\n      calldataload\n        /* \"#utility.yul\":1441:1470   */\n      swap1\n      pop\n        /* \"#utility.yul\":1479:1512   */\n      tag_359\n        /* \"#utility.yul\":1506:1511   */\n      dup2\n        /* \"#utility.yul\":1479:1512   */\n      tag_360\n      jump\t// in\n    tag_359:\n        /* \"#utility.yul\":1379:1518   */\n      swap3\n      swap2\n      pop\n      pop\n      jump\t// out\n        /* \"#utility.yul\":1524:1659   */\n    tag_361:\n        /* \"#utility.yul\":1568:1573   */\n      0x00\n        /* \"#utility.yul\":1606:1612   */\n      dup2\n        /* \"#utility.yul\":1593:1613   */\n      calldataload\n        /* \"#utility.yul\":1584:1613   */\n      swap1\n      pop\n        /* \"#utility.yul\":1622:1653   */\n      tag_363\n        /* \"#utility.yul\":1647:1652   */\n      dup2\n        /* \"#utility.yul\":1622:1653   */\n      tag_364\n      jump\t// in\n    tag_363:\n        /* \"#utility.yul\":1524:1659   */\n      swap3\n      swap2\n      pop\n      pop\n      jump\t// out\n        /* \"#utility.yul\":1665:1994   */\n    tag_43:\n        /* \"#utility.yul\":1724:1730   */\n      0x00\n        /* \"#utility.yul\":1773:1775   */\n      0x20\n        /* \"#utility.yul\":1761:1770   */\n      dup3\n        /* \"#utility.yul\":1752:1759   */\n      dup5\n        /* \"#utility.yul\":1748:1771   */\n      sub\n        /* \"#utility.yul\":1744:1776   */\n      slt\n        /* \"#utility.yul\":1741:1860   */\n      iszero\n      tag_366\n      jumpi\n        /* \"#utility.yul\":1779:1858   */\n      tag_367\n      tag_368\n      jump\t// in\n    tag_367:\n        /* \"#utility.yul\":1741:1860   */\n    tag_366:\n        /* \"#utility.yul\":1899:1900   */\n      0x00\n        /* \"#utility.yul\":1924:1977   */\n      tag_369\n        /* \"#utility.yul\":1969:1976   */\n      dup5\n        /* \"#utility.yul\":1960:1966   */\n      dup3\n        /* \"#utility.yul\":1949:1958   */\n      dup6\n        /* \"#utility.yul\":1945:1967   */\n      add\n        /* \"#utility.yul\":1924:1977   */\n      tag_343\n      jump\t// in\n    tag_369:\n        /* \"#utility.yul\":1914:1977   */\n      swap2\n      pop\n        /* \"#utility.yul\":1870:1987   */\n      pop\n        /* \"#utility.yul\":1665:1994   */\n      swap3\n      swap2\n      pop\n      pop\n      jump\t// out\n        /* \"#utility.yul\":2000:2474   */\n    tag_50:\n        /* \"#utility.yul\":2068:2074   */\n      0x00\n        /* \"#utility.yul\":2076:2082   */\n      dup1\n        /* \"#utility.yul\":2125:2127   */\n      0x40\n        /* \"#utility.yul\":2113:2122   */\n      dup4\n        /* \"#utility.yul\":2104:2111   */\n      dup6\n        /* \"#utility.yul\":2100:2123   */\n      sub\n        /* \"#utility.yul\":2096:2128   */\n      slt\n        /* \"#utility.yul\":2093:2212   */\n      iszero\n      tag_371\n      jumpi\n        /* \"#utility.yul\":2131:2210   */\n      tag_372\n      tag_368\n      jump\t// in\n    tag_372:\n        /* \"#utility.yul\":2093:2212   */\n    tag_371:\n        /* \"#utility.yul\":2251:2252   */\n      0x00\n        /* \"#utility.yul\":2276:2329   */\n      tag_373\n        /* \"#utility.yul\":2321:2328   */\n      dup6\n        /* \"#utility.yul\":2312:2318   */\n      dup3\n        /* \"#utility.yul\":2301:2310   */\n      dup7\n        /* \"#utility.yul\":2297:2319   */\n      add\n        /* \"#utility.yul\":2276:2329   */\n      tag_343\n      jump\t// in\n    tag_373:\n        /* \"#utility.yul\":2266:2329   */\n      swap3\n      pop\n        /* \"#utility.yul\":2222:2339   */\n      pop\n        /* \"#utility.yul\":2378:2380   */\n      0x20\n        /* \"#utility.yul\":2404:2457   */\n      tag_374\n        /* \"#utility.yul\":2449:2456   */\n      dup6\n        /* \"#utility.yul\":2440:2446   */\n      dup3\n        /* \"#utility.yul\":2429:2438   */\n      dup7\n        /* \"#utility.yul\":2425:2447   */\n      add\n        /* \"#utility.yul\":2404:2457   */\n      tag_335\n      jump\t// in\n    tag_374:\n        /* \"#utility.yul\":2394:2457   */\n      swap2\n      pop\n        /* \"#utility.yul\":2349:2467   */\n      pop\n        /* \"#utility.yul\":2000:2474   */\n      swap3\n      pop\n      swap3\n      swap1\n      pop\n      jump\t// out\n        /* \"#utility.yul\":2480:2807   */\n    tag_28:\n        /* \"#utility.yul\":2538:2544   */\n      0x00\n        /* \"#utility.yul\":2587:2589   */\n      0x20\n        /* \"#utility.yul\":2575:2584   */\n      dup3\n        /* \"#utility.yul\":2566:2573   */\n      dup5\n        /* \"#utility.yul\":2562:2585   */\n      sub\n        /* \"#utility.yul\":2558:2590   */\n      slt\n        /* \"#utility.yul\":2555:2674   */\n      iszero\n      tag_376\n      jumpi\n        /* \"#utility.yul\":2593:2672   */\n      tag_377\n      tag_368\n      jump\t// in\n    tag_377:\n        /* \"#utility.yul\":2555:2674   */\n    tag_376:\n        /* \"#utility.yul\":2713:2714   */\n      0x00\n        /* \"#utility.yul\":2738:2790   */\n      tag_378\n        /* \"#utility.yul\":2782:2789   */\n      dup5\n        /* \"#utility.yul\":2773:2779   */\n      dup3\n        /* \"#utility.yul\":2762:2771   */\n      dup6\n        /* \"#utility.yul\":2758:2780   */\n      add\n        /* \"#utility.yul\":2738:2790   */\n      tag_347\n      jump\t// in\n    tag_378:\n        /* \"#utility.yul\":2728:2790   */\n      swap2\n      pop\n        /* \"#utility.yul\":2684:2800   */\n      pop\n        /* \"#utility.yul\":2480:2807   */\n      swap3\n      swap2\n      pop\n      pop\n      jump\t// out\n        /* \"#utility.yul\":2813:4422   */\n    tag_90:\n        /* \"#utility.yul\":2953:2959   */\n      0x00\n        /* \"#utility.yul\":2961:2967   */\n      dup1\n        /* \"#utility.yul\":2969:2975   */\n      0x00\n        /* \"#utility.yul\":2977:2983   */\n      dup1\n        /* \"#utility.yul\":2985:2991   */\n      0x00\n        /* \"#utility.yul\":2993:2999   */\n      dup1\n        /* \"#utility.yul\":3042:3045   */\n      0xc0\n        /* \"#utility.yul\":3030:3039   */\n      dup8\n        /* \"#utility.yul\":3021:3028   */\n      dup10\n        /* \"#utility.yul\":3017:3040   */\n      sub\n        /* \"#utility.yul\":3013:3046   */\n      slt\n        /* \"#utility.yul\":3010:3130   */\n      iszero\n      tag_380\n      jumpi\n        /* \"#utility.yul\":3049:3128   */\n      tag_381\n      tag_368\n      jump\t// in\n    tag_381:\n        /* \"#utility.yul\":3010:3130   */\n    tag_380:\n        /* \"#utility.yul\":3197:3198   */\n      0x00\n        /* \"#utility.yul\":3186:3195   */\n      dup8\n        /* \"#utility.yul\":3182:3199   */\n      add\n        /* \"#utility.yul\":3169:3200   */\n      calldataload\n        /* \"#utility.yul\":3227:3245   */\n      0xffffffffffffffff\n        /* \"#utility.yul\":3219:3225   */\n      dup2\n        /* \"#utility.yul\":3216:3246   */\n      gt\n        /* \"#utility.yul\":3213:3330   */\n      iszero\n      tag_382\n      jumpi\n        /* \"#utility.yul\":3249:3328   */\n      tag_383\n      tag_384\n      jump\t// in\n    tag_383:\n        /* \"#utility.yul\":3213:3330   */\n    tag_382:\n        /* \"#utility.yul\":3354:3417   */\n      tag_385\n        /* \"#utility.yul\":3409:3416   */\n      dup10\n        /* \"#utility.yul\":3400:3406   */\n      dup3\n        /* \"#utility.yul\":3389:3398   */\n      dup11\n        /* \"#utility.yul\":3385:3407   */\n      add\n        /* \"#utility.yul\":3354:3417   */\n      tag_351\n      jump\t// in\n    tag_385:\n        /* \"#utility.yul\":3344:3417   */\n      swap7\n      pop\n        /* \"#utility.yul\":3140:3427   */\n      pop\n        /* \"#utility.yul\":3494:3496   */\n      0x20\n        /* \"#utility.yul\":3483:3492   */\n      dup8\n        /* \"#utility.yul\":3479:3497   */\n      add\n        /* \"#utility.yul\":3466:3498   */\n      calldataload\n        /* \"#utility.yul\":3525:3543   */\n      0xffffffffffffffff\n        /* \"#utility.yul\":3517:3523   */\n      dup2\n        /* \"#utility.yul\":3514:3544   */\n      gt\n        /* \"#utility.yul\":3511:3628   */\n      iszero\n      tag_386\n      jumpi\n        /* \"#utility.yul\":3547:3626   */\n      tag_387\n      tag_384\n      jump\t// in\n    tag_387:\n        /* \"#utility.yul\":3511:3628   */\n    tag_386:\n        /* \"#utility.yul\":3652:3715   */\n      tag_388\n        /* \"#utility.yul\":3707:3714   */\n      dup10\n        /* \"#utility.yul\":3698:3704   */\n      dup3\n        /* \"#utility.yul\":3687:3696   */\n      dup11\n        /* \"#utility.yul\":3683:3705   */\n      add\n        /* \"#utility.yul\":3652:3715   */\n      tag_351\n      jump\t// in\n    tag_388:\n        /* \"#utility.yul\":3642:3715   */\n      swap6\n      pop\n        /* \"#utility.yul\":3437:3725   */\n      pop\n        /* \"#utility.yul\":3764:3766   */\n      0x40\n        /* \"#utility.yul\":3790:3851   */\n      tag_389\n        /* \"#utility.yul\":3843:3850   */\n      dup10\n        /* \"#utility.yul\":3834:3840   */\n      dup3\n        /* \"#utility.yul\":3823:3832   */\n      dup11\n        /* \"#utility.yul\":3819:3841   */\n      add\n        /* \"#utility.yul\":3790:3851   */\n      tag_339\n      jump\t// in\n    tag_389:\n        /* \"#utility.yul\":3780:3851   */\n      swap5\n      pop\n        /* \"#utility.yul\":3735:3861   */\n      pop\n        /* \"#utility.yul\":3900:3902   */\n      0x60\n        /* \"#utility.yul\":3926:3979   */\n      tag_390\n        /* \"#utility.yul\":3971:3978   */\n      dup10\n        /* \"#utility.yul\":3962:3968   */\n      dup3\n        /* \"#utility.yul\":3951:3960   */\n      dup11\n        /* \"#utility.yul\":3947:3969   */\n      add\n        /* \"#utility.yul\":3926:3979   */\n      tag_357\n      jump\t// in\n    tag_390:\n        /* \"#utility.yul\":3916:3979   */\n      swap4\n      pop\n        /* \"#utility.yul\":3871:3989   */\n      pop\n        /* \"#utility.yul\":4056:4059   */\n      0x80\n        /* \"#utility.yul\":4045:4054   */\n      dup8\n        /* \"#utility.yul\":4041:4060   */\n      add\n        /* \"#utility.yul\":4028:4061   */\n      calldataload\n        /* \"#utility.yul\":4088:4106   */\n      0xffffffffffffffff\n        /* \"#utility.yul\":4080:4086   */\n      dup2\n        /* \"#utility.yul\":4077:4107   */\n      gt\n        /* \"#utility.yul\":4074:4191   */\n      iszero\n      tag_391\n      jumpi\n        /* \"#utility.yul\":4110:4189   */\n      tag_392\n      tag_384\n      jump\t// in\n    tag_392:\n        /* \"#utility.yul\":4074:4191   */\n    tag_391:\n        /* \"#utility.yul\":4215:4278   */\n      tag_393\n        /* \"#utility.yul\":4270:4277   */\n      dup10\n        /* \"#utility.yul\":4261:4267   */\n      dup3\n        /* \"#utility.yul\":4250:4259   */\n      dup11\n        /* \"#utility.yul\":4246:4268   */\n      add\n        /* \"#utility.yul\":4215:4278   */\n      tag_351\n      jump\t// in\n    tag_393:\n        /* \"#utility.yul\":4205:4278   */\n      swap3\n      pop\n        /* \"#utility.yul\":3999:4288   */\n      pop\n        /* \"#utility.yul\":4327:4330   */\n      0xa0\n        /* \"#utility.yul\":4354:4405   */\n      tag_394\n        /* \"#utility.yul\":4397:4404   */\n      dup10\n        /* \"#utility.yul\":4388:4394   */\n      dup3\n        /* \"#utility.yul\":4377:4386   */\n      dup11\n        /* \"#utility.yul\":4373:4395   */\n      add\n        /* \"#utility.yul\":4354:4405   */\n      tag_361\n      jump\t// in\n    tag_394:\n        /* \"#utility.yul\":4344:4405   */\n      swap2\n      pop\n        /* \"#utility.yul\":4298:4415   */\n      pop\n        /* \"#utility.yul\":2813:4422   */\n      swap3\n      swap6\n      pop\n      swap3\n      swap6\n      pop\n      swap3\n      swap6\n      jump\t// out\n        /* \"#utility.yul\":4428:4757   */\n    tag_64:\n        /* \"#utility.yul\":4487:4493   */\n      0x00\n        /* \"#utility.yul\":4536:4538   */\n      0x20\n        /* \"#utility.yul\":4524:4533   */\n      dup3\n        /* \"#utility.yul\":4515:4522   */\n      dup5\n        /* \"#utility.yul\":4511:4534   */\n      sub\n        /* \"#utility.yul\":4507:4539   */\n      slt\n        /* \"#utility.yul\":4504:4623   */\n      iszero\n      tag_396\n      jumpi\n        /* \"#utility.yul\":4542:4621   */\n      tag_397\n      tag_368\n      jump\t// in\n    tag_397:\n        /* \"#utility.yul\":4504:4623   */\n    tag_396:\n        /* \"#utility.yul\":4662:4663   */\n      0x00\n        /* \"#utility.yul\":4687:4740   */\n      tag_398\n        /* \"#utility.yul\":4732:4739   */\n      dup5\n        /* \"#utility.yul\":4723:4729   */\n      dup3\n        /* \"#utility.yul\":4712:4721   */\n      dup6\n        /* \"#utility.yul\":4708:4730   */\n      add\n        /* \"#utility.yul\":4687:4740   */\n      tag_357\n      jump\t// in\n    tag_398:\n        /* \"#utility.yul\":4677:4740   */\n      swap2\n      pop\n        /* \"#utility.yul\":4633:4750   */\n      pop\n        /* \"#utility.yul\":4428:4757   */\n      swap3\n      swap2\n      pop\n      pop\n      jump\t// out\n        /* \"#utility.yul\":4763:5237   */\n    tag_122:\n        /* \"#utility.yul\":4831:4837   */\n      0x00\n        /* \"#utility.yul\":4839:4845   */\n      dup1\n        /* \"#utility.yul\":4888:4890   */\n      0x40\n        /* \"#utility.yul\":4876:4885   */\n      dup4\n        /* \"#utility.yul\":4867:4874   */\n      dup6\n        /* \"#utility.yul\":4863:4886   */\n      sub\n        /* \"#utility.yul\":4859:4891   */\n      slt\n        /* \"#utility.yul\":4856:4975   */\n      iszero\n      tag_400\n      jumpi\n        /* \"#utility.yul\":4894:4973   */\n      tag_401\n      tag_368\n      jump\t// in\n    tag_401:\n        /* \"#utility.yul\":4856:4975   */\n    tag_400:\n        /* \"#utility.yul\":5014:5015   */\n      0x00\n        /* \"#utility.yul\":5039:5092   */\n      tag_402\n        /* \"#utility.yul\":5084:5091   */\n      dup6\n        /* \"#utility.yul\":5075:5081   */\n      dup3\n        /* \"#utility.yul\":5064:5073   */\n      dup7\n        /* \"#utility.yul\":5060:5082   */\n      add\n        /* \"#utility.yul\":5039:5092   */\n      tag_357\n      jump\t// in\n    tag_402:\n        /* \"#utility.yul\":5029:5092   */\n      swap3\n      pop\n        /* \"#utility.yul\":4985:5102   */\n      pop\n        /* \"#utility.yul\":5141:5143   */\n      0x20\n        /* \"#utility.yul\":5167:5220   */\n      tag_403\n        /* \"#utility.yul\":5212:5219   */\n      dup6\n        /* \"#utility.yul\":5203:5209   */\n      dup3\n        /* \"#utility.yul\":5192:5201   */\n      dup7\n        /* \"#utility.yul\":5188:5210   */\n      add\n        /* \"#utility.yul\":5167:5220   */\n      tag_335\n      jump\t// in\n    tag_403:\n        /* \"#utility.yul\":5157:5220   */\n      swap2\n      pop\n        /* \"#utility.yul\":5112:5230   */\n      pop\n        /* \"#utility.yul\":4763:5237   */\n      swap3\n      pop\n      swap3\n      swap1\n      pop\n      jump\t// out\n        /* \"#utility.yul\":5243:5897   */\n    tag_76:\n        /* \"#utility.yul\":5321:5327   */\n      0x00\n        /* \"#utility.yul\":5329:5335   */\n      dup1\n        /* \"#utility.yul\":5378:5380   */\n      0x40\n        /* \"#utility.yul\":5366:5375   */\n      dup4\n        /* \"#utility.yul\":5357:5364   */\n      dup6\n        /* \"#utility.yul\":5353:5376   */\n      sub\n        /* \"#utility.yul\":5349:5381   */\n      slt\n        /* \"#utility.yul\":5346:5465   */\n      iszero\n      tag_405\n      jumpi\n        /* \"#utility.yul\":5384:5463   */\n      tag_406\n      tag_368\n      jump\t// in\n    tag_406:\n        /* \"#utility.yul\":5346:5465   */\n    tag_405:\n        /* \"#utility.yul\":5504:5505   */\n      0x00\n        /* \"#utility.yul\":5529:5582   */\n      tag_407\n        /* \"#utility.yul\":5574:5581   */\n      dup6\n        /* \"#utility.yul\":5565:5571   */\n      dup3\n        /* \"#utility.yul\":5554:5563   */\n      dup7\n        /* \"#utility.yul\":5550:5572   */\n      add\n        /* \"#utility.yul\":5529:5582   */\n      tag_357\n      jump\t// in\n    tag_407:\n        /* \"#utility.yul\":5519:5582   */\n      swap3\n      pop\n        /* \"#utility.yul\":5475:5592   */\n      pop\n        /* \"#utility.yul\":5659:5661   */\n      0x20\n        /* \"#utility.yul\":5648:5657   */\n      dup4\n        /* \"#utility.yul\":5644:5662   */\n      add\n        /* \"#utility.yul\":5631:5663   */\n      calldataload\n        /* \"#utility.yul\":5690:5708   */\n      0xffffffffffffffff\n        /* \"#utility.yul\":5682:5688   */\n      dup2\n        /* \"#utility.yul\":5679:5709   */\n      gt\n        /* \"#utility.yul\":5676:5793   */\n      iszero\n      tag_408\n      jumpi\n        /* \"#utility.yul\":5712:5791   */\n      tag_409\n      tag_384\n      jump\t// in\n    tag_409:\n        /* \"#utility.yul\":5676:5793   */\n    tag_408:\n        /* \"#utility.yul\":5817:5880   */\n      tag_410\n        /* \"#utility.yul\":5872:5879   */\n      dup6\n        /* \"#utility.yul\":5863:5869   */\n      dup3\n        /* \"#utility.yul\":5852:5861   */\n      dup7\n        /* \"#utility.yul\":5848:5870   */\n      add\n        /* \"#utility.yul\":5817:5880   */\n      tag_351\n      jump\t// in\n    tag_410:\n        /* \"#utility.yul\":5807:5880   */\n      swap2\n      pop\n        /* \"#utility.yul\":5602:5890   */\n      pop\n        /* \"#utility.yul\":5243:5897   */\n      swap3\n      pop\n      swap3\n      swap1\n      pop\n      jump\t// out\n        /* \"#utility.yul\":5903:6377   */\n    tag_95:\n        /* \"#utility.yul\":5971:5977   */\n      0x00\n        /* \"#utility.yul\":5979:5985   */\n      dup1\n        /* \"#utility.yul\":6028:6030   */\n      0x40\n        /* \"#utility.yul\":6016:6025   */\n      dup4\n        /* \"#utility.yul\":6007:6014   */\n      dup6\n        /* \"#utility.yul\":6003:6026   */\n      sub\n        /* \"#utility.yul\":5999:6031   */\n      slt\n        /* \"#utility.yul\":5996:6115   */\n      iszero\n      tag_412\n      jumpi\n        /* \"#utility.yul\":6034:6113   */\n      tag_413\n      tag_368\n      jump\t// in\n    tag_413:\n        /* \"#utility.yul\":5996:6115   */\n    tag_412:\n        /* \"#utility.yul\":6154:6155   */\n      0x00\n        /* \"#utility.yul\":6179:6232   */\n      tag_414\n        /* \"#utility.yul\":6224:6231   */\n      dup6\n        /* \"#utility.yul\":6215:6221   */\n      dup3\n        /* \"#utility.yul\":6204:6213   */\n      dup7\n        /* \"#utility.yul\":6200:6222   */\n      add\n        /* \"#utility.yul\":6179:6232   */\n      tag_357\n      jump\t// in\n    tag_414:\n        /* \"#utility.yul\":6169:6232   */\n      swap3\n      pop\n        /* \"#utility.yul\":6125:6242   */\n      pop\n        /* \"#utility.yul\":6281:6283   */\n      0x20\n        /* \"#utility.yul\":6307:6360   */\n      tag_415\n        /* \"#utility.yul\":6352:6359   */\n      dup6\n        /* \"#utility.yul\":6343:6349   */\n      dup3\n        /* \"#utility.yul\":6332:6341   */\n      dup7\n        /* \"#utility.yul\":6328:6350   */\n      add\n        /* \"#utility.yul\":6307:6360   */\n      tag_357\n      jump\t// in\n    tag_415:\n        /* \"#utility.yul\":6297:6360   */\n      swap2\n      pop\n        /* \"#utility.yul\":6252:6370   */\n      pop\n        /* \"#utility.yul\":5903:6377   */\n      swap3\n      pop\n      swap3\n      swap1\n      pop\n      jump\t// out\n        /* \"#utility.yul\":6383:6853   */\n    tag_35:\n        /* \"#utility.yul\":6449:6455   */\n      0x00\n        /* \"#utility.yul\":6457:6463   */\n      dup1\n        /* \"#utility.yul\":6506:6508   */\n      0x40\n        /* \"#utility.yul\":6494:6503   */\n      dup4\n        /* \"#utility.yul\":6485:6492   */\n      dup6\n        /* \"#utility.yul\":6481:6504   */\n      sub\n        /* \"#utility.yul\":6477:6509   */\n      slt\n        /* \"#utility.yul\":6474:6593   */\n      iszero\n      tag_417\n      jumpi\n        /* \"#utility.yul\":6512:6591   */\n      tag_418\n      tag_368\n      jump\t// in\n    tag_418:\n        /* \"#utility.yul\":6474:6593   */\n    tag_417:\n        /* \"#utility.yul\":6632:6633   */\n      0x00\n        /* \"#utility.yul\":6657:6710   */\n      tag_419\n        /* \"#utility.yul\":6702:6709   */\n      dup6\n        /* \"#utility.yul\":6693:6699   */\n      dup3\n        /* \"#utility.yul\":6682:6691   */\n      dup7\n        /* \"#utility.yul\":6678:6700   */\n      add\n        /* \"#utility.yul\":6657:6710   */\n      tag_357\n      jump\t// in\n    tag_419:\n        /* \"#utility.yul\":6647:6710   */\n      swap3\n      pop\n        /* \"#utility.yul\":6603:6720   */\n      pop\n        /* \"#utility.yul\":6759:6761   */\n      0x20\n        /* \"#utility.yul\":6785:6836   */\n      tag_420\n        /* \"#utility.yul\":6828:6835   */\n      dup6\n        /* \"#utility.yul\":6819:6825   */\n      dup3\n        /* \"#utility.yul\":6808:6817   */\n      dup7\n        /* \"#utility.yul\":6804:6826   */\n      add\n        /* \"#utility.yul\":6785:6836   */\n      tag_361\n      jump\t// in\n    tag_420:\n        /* \"#utility.yul\":6775:6836   */\n      swap2\n      pop\n        /* \"#utility.yul\":6730:6846   */\n      pop\n        /* \"#utility.yul\":6383:6853   */\n      swap3\n      pop\n      swap3\n      swap1\n      pop\n      jump\t// out\n        /* \"#utility.yul\":6859:7006   */\n    tag_421:\n        /* \"#utility.yul\":6954:6999   */\n      tag_423\n        /* \"#utility.yul\":6993:6998   */\n      dup2\n        /* \"#utility.yul\":6954:6999   */\n      tag_424\n      jump\t// in\n    tag_423:\n        /* \"#utility.yul\":6949:6952   */\n      dup3\n        /* \"#utility.yul\":6942:7000   */\n      mstore\n        /* \"#utility.yul\":6859:7006   */\n      pop\n      pop\n      jump\t// out\n        /* \"#utility.yul\":7012:7154   */\n    tag_425:\n        /* \"#utility.yul\":7115:7147   */\n      tag_427\n        /* \"#utility.yul\":7141:7146   */\n      dup2\n        /* \"#utility.yul\":7115:7147   */\n      tag_428\n      jump\t// in\n    tag_427:\n        /* \"#utility.yul\":7110:7113   */\n      dup3\n        /* \"#utility.yul\":7103:7148   */\n      mstore\n        /* \"#utility.yul\":7012:7154   */\n      pop\n      pop\n      jump\t// out\n        /* \"#utility.yul\":7160:7278   */\n    tag_429:\n        /* \"#utility.yul\":7247:7271   */\n      tag_431\n        /* \"#utility.yul\":7265:7270   */\n      dup2\n        /* \"#utility.yul\":7247:7271   */\n      tag_432\n      jump\t// in\n    tag_431:\n        /* \"#utility.yul\":7242:7245   */\n      dup3\n        /* \"#utility.yul\":7235:7272   */\n      mstore\n        /* \"#utility.yul\":7160:7278   */\n      pop\n      pop\n      jump\t// out\n        /* \"#utility.yul\":7284:7393   */\n    tag_433:\n        /* \"#utility.yul\":7365:7386   */\n      tag_435\n        /* \"#utility.yul\":7380:7385   */\n      dup2\n        /* \"#utility.yul\":7365:7386   */\n      tag_436\n      jump\t// in\n    tag_435:\n        /* \"#utility.yul\":7360:7363   */\n      dup3\n        /* \"#utility.yul\":7353:7387   */\n      mstore\n        /* \"#utility.yul\":7284:7393   */\n      pop\n      pop\n      jump\t// out\n        /* \"#utility.yul\":7399:7517   */\n    tag_437:\n        /* \"#utility.yul\":7486:7510   */\n      tag_439\n        /* \"#utility.yul\":7504:7509   */\n      dup2\n        /* \"#utility.yul\":7486:7510   */\n      tag_440\n      jump\t// in\n    tag_439:\n        /* \"#utility.yul\":7481:7484   */\n      dup3\n        /* \"#utility.yul\":7474:7511   */\n      mstore\n        /* \"#utility.yul\":7399:7517   */\n      pop\n      pop\n      jump\t// out\n        /* \"#utility.yul\":7523:7887   */\n    tag_441:\n        /* \"#utility.yul\":7611:7614   */\n      0x00\n        /* \"#utility.yul\":7639:7678   */\n      tag_443\n        /* \"#utility.yul\":7672:7677   */\n      dup3\n        /* \"#utility.yul\":7639:7678   */\n      tag_444\n      jump\t// in\n    tag_443:\n        /* \"#utility.yul\":7694:7765   */\n      tag_445\n        /* \"#utility.yul\":7758:7764   */\n      dup2\n        /* \"#utility.yul\":7753:7756   */\n      dup6\n        /* \"#utility.yul\":7694:7765   */\n      tag_446\n      jump\t// in\n    tag_445:\n        /* \"#utility.yul\":7687:7765   */\n      swap4\n      pop\n        /* \"#utility.yul\":7774:7826   */\n      tag_447\n        /* \"#utility.yul\":7819:7825   */\n      dup2\n        /* \"#utility.yul\":7814:7817   */\n      dup6\n        /* \"#utility.yul\":7807:7811   */\n      0x20\n        /* \"#utility.yul\":7800:7805   */\n      dup7\n        /* \"#utility.yul\":7796:7812   */\n      add\n        /* \"#utility.yul\":7774:7826   */\n      tag_448\n      jump\t// in\n    tag_447:\n        /* \"#utility.yul\":7851:7880   */\n      tag_449\n        /* \"#utility.yul\":7873:7879   */\n      dup2\n        /* \"#utility.yul\":7851:7880   */\n      tag_450\n      jump\t// in\n    tag_449:\n        /* \"#utility.yul\":7846:7849   */\n      dup5\n        /* \"#utility.yul\":7842:7881   */\n      add\n        /* \"#utility.yul\":7835:7881   */\n      swap2\n      pop\n        /* \"#utility.yul\":7615:7887   */\n      pop\n        /* \"#utility.yul\":7523:7887   */\n      swap3\n      swap2\n      pop\n      pop\n      jump\t// out\n        /* \"#utility.yul\":7893:8270   */\n    tag_451:\n        /* \"#utility.yul\":7999:8002   */\n      0x00\n        /* \"#utility.yul\":8027:8066   */\n      tag_453\n        /* \"#utility.yul\":8060:8065   */\n      dup3\n        /* \"#utility.yul\":8027:8066   */\n      tag_444\n      jump\t// in\n    tag_453:\n        /* \"#utility.yul\":8082:8171   */\n      tag_454\n        /* \"#utility.yul\":8164:8170   */\n      dup2\n        /* \"#utility.yul\":8159:8162   */\n      dup6\n        /* \"#utility.yul\":8082:8171   */\n      tag_455\n      jump\t// in\n    tag_454:\n        /* \"#utility.yul\":8075:8171   */\n      swap4\n      pop\n        /* \"#utility.yul\":8180:8232   */\n      tag_456\n        /* \"#utility.yul\":8225:8231   */\n      dup2\n        /* \"#utility.yul\":8220:8223   */\n      dup6\n        /* \"#utility.yul\":8213:8217   */\n      0x20\n        /* \"#utility.yul\":8206:8211   */\n      dup7\n        /* \"#utility.yul\":8202:8218   */\n      add\n        /* \"#utility.yul\":8180:8232   */\n      tag_448\n      jump\t// in\n    tag_456:\n        /* \"#utility.yul\":8257:8263   */\n      dup1\n        /* \"#utility.yul\":8252:8255   */\n      dup5\n        /* \"#utility.yul\":8248:8264   */\n      add\n        /* \"#utility.yul\":8241:8264   */\n      swap2\n      pop\n        /* \"#utility.yul\":8003:8270   */\n      pop\n        /* \"#utility.yul\":7893:8270   */\n      swap3\n      swap2\n      pop\n      pop\n      jump\t// out\n        /* \"#utility.yul\":8276:8642   */\n    tag_457:\n        /* \"#utility.yul\":8418:8421   */\n      0x00\n        /* \"#utility.yul\":8439:8506   */\n      tag_459\n        /* \"#utility.yul\":8503:8505   */\n      0x1f\n        /* \"#utility.yul\":8498:8501   */\n      dup4\n        /* \"#utility.yul\":8439:8506   */\n      tag_446\n      jump\t// in\n    tag_459:\n        /* \"#utility.yul\":8432:8506   */\n      swap2\n      pop\n        /* \"#utility.yul\":8515:8608   */\n      tag_460\n        /* \"#utility.yul\":8604:8607   */\n      dup3\n        /* \"#utility.yul\":8515:8608   */\n      tag_461\n      jump\t// in\n    tag_460:\n        /* \"#utility.yul\":8633:8635   */\n      0x20\n        /* \"#utility.yul\":8628:8631   */\n      dup3\n        /* \"#utility.yul\":8624:8636   */\n      add\n        /* \"#utility.yul\":8617:8636   */\n      swap1\n      pop\n        /* \"#utility.yul\":8276:8642   */\n      swap2\n      swap1\n      pop\n      jump\t// out\n        /* \"#utility.yul\":8648:9014   */\n    tag_462:\n        /* \"#utility.yul\":8790:8793   */\n      0x00\n        /* \"#utility.yul\":8811:8878   */\n      tag_464\n        /* \"#utility.yul\":8875:8877   */\n      0x3d\n        /* \"#utility.yul\":8870:8873   */\n      dup4\n        /* \"#utility.yul\":8811:8878   */\n      tag_446\n      jump\t// in\n    tag_464:\n        /* \"#utility.yul\":8804:8878   */\n      swap2\n      pop\n        /* \"#utility.yul\":8887:8980   */\n      tag_465\n        /* \"#utility.yul\":8976:8979   */\n      dup3\n        /* \"#utility.yul\":8887:8980   */\n      tag_466\n      jump\t// in\n    tag_465:\n        /* \"#utility.yul\":9005:9007   */\n      0x40\n        /* \"#utility.yul\":9000:9003   */\n      dup3\n        /* \"#utility.yul\":8996:9008   */\n      add\n        /* \"#utility.yul\":8989:9008   */\n      swap1\n      pop\n        /* \"#utility.yul\":8648:9014   */\n      swap2\n      swap1\n      pop\n      jump\t// out\n        /* \"#utility.yul\":9020:9386   */\n    tag_467:\n        /* \"#utility.yul\":9162:9165   */\n      0x00\n        /* \"#utility.yul\":9183:9250   */\n      tag_469\n        /* \"#utility.yul\":9247:9249   */\n      0x20\n        /* \"#utility.yul\":9242:9245   */\n      dup4\n        /* \"#utility.yul\":9183:9250   */\n      tag_446\n      jump\t// in\n    tag_469:\n        /* \"#utility.yul\":9176:9250   */\n      swap2\n      pop\n        /* \"#utility.yul\":9259:9352   */\n      tag_470\n        /* \"#utility.yul\":9348:9351   */\n      dup3\n        /* \"#utility.yul\":9259:9352   */\n      tag_471\n      jump\t// in\n    tag_470:\n        /* \"#utility.yul\":9377:9379   */\n      0x20\n        /* \"#utility.yul\":9372:9375   */\n      dup3\n        /* \"#utility.yul\":9368:9380   */\n      add\n        /* \"#utility.yul\":9361:9380   */\n      swap1\n      pop\n        /* \"#utility.yul\":9020:9386   */\n      swap2\n      swap1\n      pop\n      jump\t// out\n        /* \"#utility.yul\":9392:9758   */\n    tag_472:\n        /* \"#utility.yul\":9534:9537   */\n      0x00\n        /* \"#utility.yul\":9555:9622   */\n      tag_474\n        /* \"#utility.yul\":9619:9621   */\n      0x14\n        /* \"#utility.yul\":9614:9617   */\n      dup4\n        /* \"#utility.yul\":9555:9622   */\n      tag_446\n      jump\t// in\n    tag_474:\n        /* \"#utility.yul\":9548:9622   */\n      swap2\n      pop\n        /* \"#utility.yul\":9631:9724   */\n      tag_475\n        /* \"#utility.yul\":9720:9723   */\n      dup3\n        /* \"#utility.yul\":9631:9724   */\n      tag_476\n      jump\t// in\n    tag_475:\n        /* \"#utility.yul\":9749:9751   */\n      0x20\n        /* \"#utility.yul\":9744:9747   */\n      dup3\n        /* \"#utility.yul\":9740:9752   */\n      add\n        /* \"#utility.yul\":9733:9752   */\n      swap1\n      pop\n        /* \"#utility.yul\":9392:9758   */\n      swap2\n      swap1\n      pop\n      jump\t// out\n        /* \"#utility.yul\":9764:10130   */\n    tag_477:\n        /* \"#utility.yul\":9906:9909   */\n      0x00\n        /* \"#utility.yul\":9927:9994   */\n      tag_479\n        /* \"#utility.yul\":9991:9993   */\n      0x27\n        /* \"#utility.yul\":9986:9989   */\n      dup4\n        /* \"#utility.yul\":9927:9994   */\n      tag_446\n      jump\t// in\n    tag_479:\n        /* \"#utility.yul\":9920:9994   */\n      swap2\n      pop\n        /* \"#utility.yul\":10003:10096   */\n      tag_480\n        /* \"#utility.yul\":10092:10095   */\n      dup3\n        /* \"#utility.yul\":10003:10096   */\n      tag_481\n      jump\t// in\n    tag_480:\n        /* \"#utility.yul\":10121:10123   */\n      0x40\n        /* \"#utility.yul\":10116:10119   */\n      dup3\n        /* \"#utility.yul\":10112:10124   */\n      add\n        /* \"#utility.yul\":10105:10124   */\n      swap1\n      pop\n        /* \"#utility.yul\":9764:10130   */\n      swap2\n      swap1\n      pop\n      jump\t// out\n        /* \"#utility.yul\":10136:10502   */\n    tag_482:\n        /* \"#utility.yul\":10278:10281   */\n      0x00\n        /* \"#utility.yul\":10299:10366   */\n      tag_484\n        /* \"#utility.yul\":10363:10365   */\n      0x24\n        /* \"#utility.yul\":10358:10361   */\n      dup4\n        /* \"#utility.yul\":10299:10366   */\n      tag_446\n      jump\t// in\n    tag_484:\n        /* \"#utility.yul\":10292:10366   */\n      swap2\n      pop\n        /* \"#utility.yul\":10375:10468   */\n      tag_485\n        /* \"#utility.yul\":10464:10467   */\n      dup3\n        /* \"#utility.yul\":10375:10468   */\n      tag_486\n      jump\t// in\n    tag_485:\n        /* \"#utility.yul\":10493:10495   */\n      0x40\n        /* \"#utility.yul\":10488:10491   */\n      dup3\n        /* \"#utility.yul\":10484:10496   */\n      add\n        /* \"#utility.yul\":10477:10496   */\n      swap1\n      pop\n        /* \"#utility.yul\":10136:10502   */\n      swap2\n      swap1\n      pop\n      jump\t// out\n        /* \"#utility.yul\":10508:10874   */\n    tag_487:\n        /* \"#utility.yul\":10650:10653   */\n      0x00\n        /* \"#utility.yul\":10671:10738   */\n      tag_489\n        /* \"#utility.yul\":10735:10737   */\n      0x2a\n        /* \"#utility.yul\":10730:10733   */\n      dup4\n        /* \"#utility.yul\":10671:10738   */\n      tag_446\n      jump\t// in\n    tag_489:\n        /* \"#utility.yul\":10664:10738   */\n      swap2\n      pop\n        /* \"#utility.yul\":10747:10840   */\n      tag_490\n        /* \"#utility.yul\":10836:10839   */\n      dup3\n        /* \"#utility.yul\":10747:10840   */\n      tag_491\n      jump\t// in\n    tag_490:\n        /* \"#utility.yul\":10865:10867   */\n      0x40\n        /* \"#utility.yul\":10860:10863   */\n      dup3\n        /* \"#utility.yul\":10856:10868   */\n      add\n        /* \"#utility.yul\":10849:10868   */\n      swap1\n      pop\n        /* \"#utility.yul\":10508:10874   */\n      swap2\n      swap1\n      pop\n      jump\t// out\n        /* \"#utility.yul\":10880:11246   */\n    tag_492:\n        /* \"#utility.yul\":11022:11025   */\n      0x00\n        /* \"#utility.yul\":11043:11110   */\n      tag_494\n        /* \"#utility.yul\":11107:11109   */\n      0x21\n        /* \"#utility.yul\":11102:11105   */\n      dup4\n        /* \"#utility.yul\":11043:11110   */\n      tag_446\n      jump\t// in\n    tag_494:\n        /* \"#utility.yul\":11036:11110   */\n      swap2\n      pop\n        /* \"#utility.yul\":11119:11212   */\n      tag_495\n        /* \"#utility.yul\":11208:11211   */\n      dup3\n        /* \"#utility.yul\":11119:11212   */\n      tag_496\n      jump\t// in\n    tag_495:\n        /* \"#utility.yul\":11237:11239   */\n      0x40\n        /* \"#utility.yul\":11232:11235   */\n      dup3\n        /* \"#utility.yul\":11228:11240   */\n      add\n        /* \"#utility.yul\":11221:11240   */\n      swap1\n      pop\n        /* \"#utility.yul\":10880:11246   */\n      swap2\n      swap1\n      pop\n      jump\t// out\n        /* \"#utility.yul\":11252:11618   */\n    tag_497:\n        /* \"#utility.yul\":11394:11397   */\n      0x00\n        /* \"#utility.yul\":11415:11482   */\n      tag_499\n        /* \"#utility.yul\":11479:11481   */\n      0x28\n        /* \"#utility.yul\":11474:11477   */\n      dup4\n        /* \"#utility.yul\":11415:11482   */\n      tag_446\n      jump\t// in\n    tag_499:\n        /* \"#utility.yul\":11408:11482   */\n      swap2\n      pop\n        /* \"#utility.yul\":11491:11584   */\n      tag_500\n        /* \"#utility.yul\":11580:11583   */\n      dup3\n        /* \"#utility.yul\":11491:11584   */\n      tag_501\n      jump\t// in\n    tag_500:\n        /* \"#utility.yul\":11609:11611   */\n      0x40\n        /* \"#utility.yul\":11604:11607   */\n      dup3\n        /* \"#utility.yul\":11600:11612   */\n      add\n        /* \"#utility.yul\":11593:11612   */\n      swap1\n      pop\n        /* \"#utility.yul\":11252:11618   */\n      swap2\n      swap1\n      pop\n      jump\t// out\n        /* \"#utility.yul\":11624:11990   */\n    tag_502:\n        /* \"#utility.yul\":11766:11769   */\n      0x00\n        /* \"#utility.yul\":11787:11854   */\n      tag_504\n        /* \"#utility.yul\":11851:11853   */\n      0x28\n        /* \"#utility.yul\":11846:11849   */\n      dup4\n        /* \"#utility.yul\":11787:11854   */\n      tag_446\n      jump\t// in\n    tag_504:\n        /* \"#utility.yul\":11780:11854   */\n      swap2\n      pop\n        /* \"#utility.yul\":11863:11956   */\n      tag_505\n        /* \"#utility.yul\":11952:11955   */\n      dup3\n        /* \"#utility.yul\":11863:11956   */\n      tag_506\n      jump\t// in\n    tag_505:\n        /* \"#utility.yul\":11981:11983   */\n      0x40\n        /* \"#utility.yul\":11976:11979   */\n      dup3\n        /* \"#utility.yul\":11972:11984   */\n      add\n        /* \"#utility.yul\":11965:11984   */\n      swap1\n      pop\n        /* \"#utility.yul\":11624:11990   */\n      swap2\n      swap1\n      pop\n      jump\t// out\n        /* \"#utility.yul\":11996:12362   */\n    tag_507:\n        /* \"#utility.yul\":12138:12141   */\n      0x00\n        /* \"#utility.yul\":12159:12226   */\n      tag_509\n        /* \"#utility.yul\":12223:12225   */\n      0x28\n        /* \"#utility.yul\":12218:12221   */\n      dup4\n        /* \"#utility.yul\":12159:12226   */\n      tag_446\n      jump\t// in\n    tag_509:\n        /* \"#utility.yul\":12152:12226   */\n      swap2\n      pop\n        /* \"#utility.yul\":12235:12328   */\n      tag_510\n        /* \"#utility.yul\":12324:12327   */\n      dup3\n        /* \"#utility.yul\":12235:12328   */\n      tag_511\n      jump\t// in\n    tag_510:\n        /* \"#utility.yul\":12353:12355   */\n      0x40\n        /* \"#utility.yul\":12348:12351   */\n      dup3\n        /* \"#utility.yul\":12344:12356   */\n      add\n        /* \"#utility.yul\":12337:12356   */\n      swap1\n      pop\n        /* \"#utility.yul\":11996:12362   */\n      swap2\n      swap1\n      pop\n      jump\t// out\n        /* \"#utility.yul\":12368:12734   */\n    tag_512:\n        /* \"#utility.yul\":12510:12513   */\n      0x00\n        /* \"#utility.yul\":12531:12598   */\n      tag_514\n        /* \"#utility.yul\":12595:12597   */\n      0x16\n        /* \"#utility.yul\":12590:12593   */\n      dup4\n        /* \"#utility.yul\":12531:12598   */\n      tag_446\n      jump\t// in\n    tag_514:\n        /* \"#utility.yul\":12524:12598   */\n      swap2\n      pop\n        /* \"#utility.yul\":12607:12700   */\n      tag_515\n        /* \"#utility.yul\":12696:12699   */\n      dup3\n        /* \"#utility.yul\":12607:12700   */\n      tag_516\n      jump\t// in\n    tag_515:\n        /* \"#utility.yul\":12725:12727   */\n      0x20\n        /* \"#utility.yul\":12720:12723   */\n      dup3\n        /* \"#utility.yul\":12716:12728   */\n      add\n        /* \"#utility.yul\":12709:12728   */\n      swap1\n      pop\n        /* \"#utility.yul\":12368:12734   */\n      swap2\n      swap1\n      pop\n      jump\t// out\n        /* \"#utility.yul\":12740:13106   */\n    tag_517:\n        /* \"#utility.yul\":12882:12885   */\n      0x00\n        /* \"#utility.yul\":12903:12970   */\n      tag_519\n        /* \"#utility.yul\":12967:12969   */\n      0x25\n        /* \"#utility.yul\":12962:12965   */\n      dup4\n        /* \"#utility.yul\":12903:12970   */\n      tag_446\n      jump\t// in\n    tag_519:\n        /* \"#utility.yul\":12896:12970   */\n      swap2\n      pop\n        /* \"#utility.yul\":12979:13072   */\n      tag_520\n        /* \"#utility.yul\":13068:13071   */\n      dup3\n        /* \"#utility.yul\":12979:13072   */\n      tag_521\n      jump\t// in\n    tag_520:\n        /* \"#utility.yul\":13097:13099   */\n      0x40\n        /* \"#utility.yul\":13092:13095   */\n      dup3\n        /* \"#utility.yul\":13088:13100   */\n      add\n        /* \"#utility.yul\":13081:13100   */\n      swap1\n      pop\n        /* \"#utility.yul\":12740:13106   */\n      swap2\n      swap1\n      pop\n      jump\t// out\n        /* \"#utility.yul\":13112:13514   */\n    tag_522:\n        /* \"#utility.yul\":13272:13275   */\n      0x00\n        /* \"#utility.yul\":13293:13378   */\n      tag_524\n        /* \"#utility.yul\":13375:13377   */\n      0x17\n        /* \"#utility.yul\":13370:13373   */\n      dup4\n        /* \"#utility.yul\":13293:13378   */\n      tag_455\n      jump\t// in\n    tag_524:\n        /* \"#utility.yul\":13286:13378   */\n      swap2\n      pop\n        /* \"#utility.yul\":13387:13480   */\n      tag_525\n        /* \"#utility.yul\":13476:13479   */\n      dup3\n        /* \"#utility.yul\":13387:13480   */\n      tag_526\n      jump\t// in\n    tag_525:\n        /* \"#utility.yul\":13505:13507   */\n      0x17\n        /* \"#utility.yul\":13500:13503   */\n      dup3\n        /* \"#utility.yul\":13496:13508   */\n      add\n        /* \"#utility.yul\":13489:13508   */\n      swap1\n      pop\n        /* \"#utility.yul\":13112:13514   */\n      swap2\n      swap1\n      pop\n      jump\t// out\n        /* \"#utility.yul\":13520:13886   */\n    tag_527:\n        /* \"#utility.yul\":13662:13665   */\n      0x00\n        /* \"#utility.yul\":13683:13750   */\n      tag_529\n        /* \"#utility.yul\":13747:13749   */\n      0x1c\n        /* \"#utility.yul\":13742:13745   */\n      dup4\n        /* \"#utility.yul\":13683:13750   */\n      tag_446\n      jump\t// in\n    tag_529:\n        /* \"#utility.yul\":13676:13750   */\n      swap2\n      pop\n        /* \"#utility.yul\":13759:13852   */\n      tag_530\n        /* \"#utility.yul\":13848:13851   */\n      dup3\n        /* \"#utility.yul\":13759:13852   */\n      tag_531\n      jump\t// in\n    tag_530:\n        /* \"#utility.yul\":13877:13879   */\n      0x20\n        /* \"#utility.yul\":13872:13875   */\n      dup3\n        /* \"#utility.yul\":13868:13880   */\n      add\n        /* \"#utility.yul\":13861:13880   */\n      swap1\n      pop\n        /* \"#utility.yul\":13520:13886   */\n      swap2\n      swap1\n      pop\n      jump\t// out\n        /* \"#utility.yul\":13892:14294   */\n    tag_532:\n        /* \"#utility.yul\":14052:14055   */\n      0x00\n        /* \"#utility.yul\":14073:14158   */\n      tag_534\n        /* \"#utility.yul\":14155:14157   */\n      0x11\n        /* \"#utility.yul\":14150:14153   */\n      dup4\n        /* \"#utility.yul\":14073:14158   */\n      tag_455\n      jump\t// in\n    tag_534:\n        /* \"#utility.yul\":14066:14158   */\n      swap2\n      pop\n        /* \"#utility.yul\":14167:14260   */\n      tag_535\n        /* \"#utility.yul\":14256:14259   */\n      dup3\n        /* \"#utility.yul\":14167:14260   */\n      tag_536\n      jump\t// in\n    tag_535:\n        /* \"#utility.yul\":14285:14287   */\n      0x11\n        /* \"#utility.yul\":14280:14283   */\n      dup3\n        /* \"#utility.yul\":14276:14288   */\n      add\n        /* \"#utility.yul\":14269:14288   */\n      swap1\n      pop\n        /* \"#utility.yul\":13892:14294   */\n      swap2\n      swap1\n      pop\n      jump\t// out\n        /* \"#utility.yul\":14300:14666   */\n    tag_537:\n        /* \"#utility.yul\":14442:14445   */\n      0x00\n        /* \"#utility.yul\":14463:14530   */\n      tag_539\n        /* \"#utility.yul\":14527:14529   */\n      0x2f\n        /* \"#utility.yul\":14522:14525   */\n      dup4\n        /* \"#utility.yul\":14463:14530   */\n      tag_446\n      jump\t// in\n    tag_539:\n        /* \"#utility.yul\":14456:14530   */\n      swap2\n      pop\n        /* \"#utility.yul\":14539:14632   */\n      tag_540\n        /* \"#utility.yul\":14628:14631   */\n      dup3\n        /* \"#utility.yul\":14539:14632   */\n      tag_541\n      jump\t// in\n    tag_540:\n        /* \"#utility.yul\":14657:14659   */\n      0x40\n        /* \"#utility.yul\":14652:14655   */\n      dup3\n        /* \"#utility.yul\":14648:14660   */\n      add\n        /* \"#utility.yul\":14641:14660   */\n      swap1\n      pop\n        /* \"#utility.yul\":14300:14666   */\n      swap2\n      swap1\n      pop\n      jump\t// out\n        /* \"#utility.yul\":14672:14790   */\n    tag_542:\n        /* \"#utility.yul\":14759:14783   */\n      tag_544\n        /* \"#utility.yul\":14777:14782   */\n      dup2\n        /* \"#utility.yul\":14759:14783   */\n      tag_545\n      jump\t// in\n    tag_544:\n        /* \"#utility.yul\":14754:14757   */\n      dup3\n        /* \"#utility.yul\":14747:14784   */\n      mstore\n        /* \"#utility.yul\":14672:14790   */\n      pop\n      pop\n      jump\t// out\n        /* \"#utility.yul\":14796:14908   */\n    tag_546:\n        /* \"#utility.yul\":14879:14901   */\n      tag_548\n        /* \"#utility.yul\":14895:14900   */\n      dup2\n        /* \"#utility.yul\":14879:14901   */\n      tag_549\n      jump\t// in\n    tag_548:\n        /* \"#utility.yul\":14874:14877   */\n      dup3\n        /* \"#utility.yul\":14867:14902   */\n      mstore\n        /* \"#utility.yul\":14796:14908   */\n      pop\n      pop\n      jump\t// out\n        /* \"#utility.yul\":14914:15881   */\n    tag_269:\n        /* \"#utility.yul\":15296:15299   */\n      0x00\n        /* \"#utility.yul\":15318:15466   */\n      tag_551\n        /* \"#utility.yul\":15462:15465   */\n      dup3\n        /* \"#utility.yul\":15318:15466   */\n      tag_522\n      jump\t// in\n    tag_551:\n        /* \"#utility.yul\":15311:15466   */\n      swap2\n      pop\n        /* \"#utility.yul\":15483:15578   */\n      tag_552\n        /* \"#utility.yul\":15574:15577   */\n      dup3\n        /* \"#utility.yul\":15565:15571   */\n      dup6\n        /* \"#utility.yul\":15483:15578   */\n      tag_451\n      jump\t// in\n    tag_552:\n        /* \"#utility.yul\":15476:15578   */\n      swap2\n      pop\n        /* \"#utility.yul\":15595:15743   */\n      tag_553\n        /* \"#utility.yul\":15739:15742   */\n      dup3\n        /* \"#utility.yul\":15595:15743   */\n      tag_532\n      jump\t// in\n    tag_553:\n        /* \"#utility.yul\":15588:15743   */\n      swap2\n      pop\n        /* \"#utility.yul\":15760:15855   */\n      tag_554\n        /* \"#utility.yul\":15851:15854   */\n      dup3\n        /* \"#utility.yul\":15842:15848   */\n      dup5\n        /* \"#utility.yul\":15760:15855   */\n      tag_451\n      jump\t// in\n    tag_554:\n        /* \"#utility.yul\":15753:15855   */\n      swap2\n      pop\n        /* \"#utility.yul\":15872:15875   */\n      dup2\n        /* \"#utility.yul\":15865:15875   */\n      swap1\n      pop\n        /* \"#utility.yul\":14914:15881   */\n      swap4\n      swap3\n      pop\n      pop\n      pop\n      jump\t// out\n        /* \"#utility.yul\":15887:16097   */\n    tag_31:\n        /* \"#utility.yul\":15974:15978   */\n      0x00\n        /* \"#utility.yul\":16012:16014   */\n      0x20\n        /* \"#utility.yul\":16001:16010   */\n      dup3\n        /* \"#utility.yul\":15997:16015   */\n      add\n        /* \"#utility.yul\":15989:16015   */\n      swap1\n      pop\n        /* \"#utility.yul\":16025:16090   */\n      tag_556\n        /* \"#utility.yul\":16087:16088   */\n      0x00\n        /* \"#utility.yul\":16076:16085   */\n      dup4\n        /* \"#utility.yul\":16072:16089   */\n      add\n        /* \"#utility.yul\":16063:16069   */\n      dup5\n        /* \"#utility.yul\":16025:16090   */\n      tag_433\n      jump\t// in\n    tag_556:\n        /* \"#utility.yul\":15887:16097   */\n      swap3\n      swap2\n      pop\n      pop\n      jump\t// out\n        /* \"#utility.yul\":16103:16325   */\n    tag_46:\n        /* \"#utility.yul\":16196:16200   */\n      0x00\n        /* \"#utility.yul\":16234:16236   */\n      0x20\n        /* \"#utility.yul\":16223:16232   */\n      dup3\n        /* \"#utility.yul\":16219:16237   */\n      add\n        /* \"#utility.yul\":16211:16237   */\n      swap1\n      pop\n        /* \"#utility.yul\":16247:16318   */\n      tag_558\n        /* \"#utility.yul\":16315:16316   */\n      0x00\n        /* \"#utility.yul\":16304:16313   */\n      dup4\n        /* \"#utility.yul\":16300:16317   */\n      add\n        /* \"#utility.yul\":16291:16297   */\n      dup5\n        /* \"#utility.yul\":16247:16318   */\n      tag_437\n      jump\t// in\n    tag_558:\n        /* \"#utility.yul\":16103:16325   */\n      swap3\n      swap2\n      pop\n      pop\n      jump\t// out\n        /* \"#utility.yul\":16331:16644   */\n    tag_271:\n        /* \"#utility.yul\":16444:16448   */\n      0x00\n        /* \"#utility.yul\":16482:16484   */\n      0x20\n        /* \"#utility.yul\":16471:16480   */\n      dup3\n        /* \"#utility.yul\":16467:16485   */\n      add\n        /* \"#utility.yul\":16459:16485   */\n      swap1\n      pop\n        /* \"#utility.yul\":16531:16540   */\n      dup2\n        /* \"#utility.yul\":16525:16529   */\n      dup2\n        /* \"#utility.yul\":16521:16541   */\n      sub\n        /* \"#utility.yul\":16517:16518   */\n      0x00\n        /* \"#utility.yul\":16506:16515   */\n      dup4\n        /* \"#utility.yul\":16502:16519   */\n      add\n        /* \"#utility.yul\":16495:16542   */\n      mstore\n        /* \"#utility.yul\":16559:16637   */\n      tag_560\n        /* \"#utility.yul\":16632:16636   */\n      dup2\n        /* \"#utility.yul\":16623:16629   */\n      dup5\n        /* \"#utility.yul\":16559:16637   */\n      tag_441\n      jump\t// in\n    tag_560:\n        /* \"#utility.yul\":16551:16637   */\n      swap1\n      pop\n        /* \"#utility.yul\":16331:16644   */\n      swap3\n      swap2\n      pop\n      pop\n      jump\t// out\n        /* \"#utility.yul\":16650:17215   */\n    tag_106:\n        /* \"#utility.yul\":16835:16839   */\n      0x00\n        /* \"#utility.yul\":16873:16875   */\n      0x60\n        /* \"#utility.yul\":16862:16871   */\n      dup3\n        /* \"#utility.yul\":16858:16876   */\n      add\n        /* \"#utility.yul\":16850:16876   */\n      swap1\n      pop\n        /* \"#utility.yul\":16922:16931   */\n      dup2\n        /* \"#utility.yul\":16916:16920   */\n      dup2\n        /* \"#utility.yul\":16912:16932   */\n      sub\n        /* \"#utility.yul\":16908:16909   */\n      0x00\n        /* \"#utility.yul\":16897:16906   */\n      dup4\n        /* \"#utility.yul\":16893:16910   */\n      add\n        /* \"#utility.yul\":16886:16933   */\n      mstore\n        /* \"#utility.yul\":16950:17028   */\n      tag_562\n        /* \"#utility.yul\":17023:17027   */\n      dup2\n        /* \"#utility.yul\":17014:17020   */\n      dup7\n        /* \"#utility.yul\":16950:17028   */\n      tag_441\n      jump\t// in\n    tag_562:\n        /* \"#utility.yul\":16942:17028   */\n      swap1\n      pop\n        /* \"#utility.yul\":17038:17126   */\n      tag_563\n        /* \"#utility.yul\":17122:17124   */\n      0x20\n        /* \"#utility.yul\":17111:17120   */\n      dup4\n        /* \"#utility.yul\":17107:17125   */\n      add\n        /* \"#utility.yul\":17098:17104   */\n      dup6\n        /* \"#utility.yul\":17038:17126   */\n      tag_425\n      jump\t// in\n    tag_563:\n        /* \"#utility.yul\":17136:17208   */\n      tag_564\n        /* \"#utility.yul\":17204:17206   */\n      0x40\n        /* \"#utility.yul\":17193:17202   */\n      dup4\n        /* \"#utility.yul\":17189:17207   */\n      add\n        /* \"#utility.yul\":17180:17186   */\n      dup5\n        /* \"#utility.yul\":17136:17208   */\n      tag_542\n      jump\t// in\n    tag_564:\n        /* \"#utility.yul\":16650:17215   */\n      swap5\n      swap4\n      pop\n      pop\n      pop\n      pop\n      jump\t// out\n        /* \"#utility.yul\":17221:18059   */\n    tag_72:\n        /* \"#utility.yul\":17462:17466   */\n      0x00\n        /* \"#utility.yul\":17500:17503   */\n      0xa0\n        /* \"#utility.yul\":17489:17498   */\n      dup3\n        /* \"#utility.yul\":17485:17504   */\n      add\n        /* \"#utility.yul\":17477:17504   */\n      swap1\n      pop\n        /* \"#utility.yul\":17550:17559   */\n      dup2\n        /* \"#utility.yul\":17544:17548   */\n      dup2\n        /* \"#utility.yul\":17540:17560   */\n      sub\n        /* \"#utility.yul\":17536:17537   */\n      0x00\n        /* \"#utility.yul\":17525:17534   */\n      dup4\n        /* \"#utility.yul\":17521:17538   */\n      add\n        /* \"#utility.yul\":17514:17561   */\n      mstore\n        /* \"#utility.yul\":17578:17656   */\n      tag_566\n        /* \"#utility.yul\":17651:17655   */\n      dup2\n        /* \"#utility.yul\":17642:17648   */\n      dup9\n        /* \"#utility.yul\":17578:17656   */\n      tag_441\n      jump\t// in\n    tag_566:\n        /* \"#utility.yul\":17570:17656   */\n      swap1\n      pop\n        /* \"#utility.yul\":17703:17712   */\n      dup2\n        /* \"#utility.yul\":17697:17701   */\n      dup2\n        /* \"#utility.yul\":17693:17713   */\n      sub\n        /* \"#utility.yul\":17688:17690   */\n      0x20\n        /* \"#utility.yul\":17677:17686   */\n      dup4\n        /* \"#utility.yul\":17673:17691   */\n      add\n        /* \"#utility.yul\":17666:17714   */\n      mstore\n        /* \"#utility.yul\":17731:17809   */\n      tag_567\n        /* \"#utility.yul\":17804:17808   */\n      dup2\n        /* \"#utility.yul\":17795:17801   */\n      dup8\n        /* \"#utility.yul\":17731:17809   */\n      tag_441\n      jump\t// in\n    tag_567:\n        /* \"#utility.yul\":17723:17809   */\n      swap1\n      pop\n        /* \"#utility.yul\":17819:17887   */\n      tag_568\n        /* \"#utility.yul\":17883:17885   */\n      0x40\n        /* \"#utility.yul\":17872:17881   */\n      dup4\n        /* \"#utility.yul\":17868:17886   */\n      add\n        /* \"#utility.yul\":17859:17865   */\n      dup7\n        /* \"#utility.yul\":17819:17887   */\n      tag_546\n      jump\t// in\n    tag_568:\n        /* \"#utility.yul\":17897:17969   */\n      tag_569\n        /* \"#utility.yul\":17965:17967   */\n      0x60\n        /* \"#utility.yul\":17954:17963   */\n      dup4\n        /* \"#utility.yul\":17950:17968   */\n      add\n        /* \"#utility.yul\":17941:17947   */\n      dup6\n        /* \"#utility.yul\":17897:17969   */\n      tag_542\n      jump\t// in\n    tag_569:\n        /* \"#utility.yul\":17979:18052   */\n      tag_570\n        /* \"#utility.yul\":18047:18050   */\n      0x80\n        /* \"#utility.yul\":18036:18045   */\n      dup4\n        /* \"#utility.yul\":18032:18051   */\n      add\n        /* \"#utility.yul\":18023:18029   */\n      dup5\n        /* \"#utility.yul\":17979:18052   */\n      tag_542\n      jump\t// in\n    tag_570:\n        /* \"#utility.yul\":17221:18059   */\n      swap7\n      swap6\n      pop\n      pop\n      pop\n      pop\n      pop\n      pop\n      jump\t// out\n        /* \"#utility.yul\":18065:18484   */\n    tag_151:\n        /* \"#utility.yul\":18231:18235   */\n      0x00\n        /* \"#utility.yul\":18269:18271   */\n      0x20\n        /* \"#utility.yul\":18258:18267   */\n      dup3\n        /* \"#utility.yul\":18254:18272   */\n      add\n        /* \"#utility.yul\":18246:18272   */\n      swap1\n      pop\n        /* \"#utility.yul\":18318:18327   */\n      dup2\n        /* \"#utility.yul\":18312:18316   */\n      dup2\n        /* \"#utility.yul\":18308:18328   */\n      sub\n        /* \"#utility.yul\":18304:18305   */\n      0x00\n        /* \"#utility.yul\":18293:18302   */\n      dup4\n        /* \"#utility.yul\":18289:18306   */\n      add\n        /* \"#utility.yul\":18282:18329   */\n      mstore\n        /* \"#utility.yul\":18346:18477   */\n      tag_572\n        /* \"#utility.yul\":18472:18476   */\n      dup2\n        /* \"#utility.yul\":18346:18477   */\n      tag_457\n      jump\t// in\n    tag_572:\n        /* \"#utility.yul\":18338:18477   */\n      swap1\n      pop\n        /* \"#utility.yul\":18065:18484   */\n      swap2\n      swap1\n      pop\n      jump\t// out\n        /* \"#utility.yul\":18490:18909   */\n    tag_154:\n        /* \"#utility.yul\":18656:18660   */\n      0x00\n        /* \"#utility.yul\":18694:18696   */\n      0x20\n        /* \"#utility.yul\":18683:18692   */\n      dup3\n        /* \"#utility.yul\":18679:18697   */\n      add\n        /* \"#utility.yul\":18671:18697   */\n      swap1\n      pop\n        /* \"#utility.yul\":18743:18752   */\n      dup2\n        /* \"#utility.yul\":18737:18741   */\n      dup2\n        /* \"#utility.yul\":18733:18753   */\n      sub\n        /* \"#utility.yul\":18729:18730   */\n      0x00\n        /* \"#utility.yul\":18718:18727   */\n      dup4\n        /* \"#utility.yul\":18714:18731   */\n      add\n        /* \"#utility.yul\":18707:18754   */\n      mstore\n        /* \"#utility.yul\":18771:18902   */\n      tag_574\n        /* \"#utility.yul\":18897:18901   */\n      dup2\n        /* \"#utility.yul\":18771:18902   */\n      tag_462\n      jump\t// in\n    tag_574:\n        /* \"#utility.yul\":18763:18902   */\n      swap1\n      pop\n        /* \"#utility.yul\":18490:18909   */\n      swap2\n      swap1\n      pop\n      jump\t// out\n        /* \"#utility.yul\":18915:19334   */\n    tag_312:\n        /* \"#utility.yul\":19081:19085   */\n      0x00\n        /* \"#utility.yul\":19119:19121   */\n      0x20\n        /* \"#utility.yul\":19108:19117   */\n      dup3\n        /* \"#utility.yul\":19104:19122   */\n      add\n        /* \"#utility.yul\":19096:19122   */\n      swap1\n      pop\n        /* \"#utility.yul\":19168:19177   */\n      dup2\n        /* \"#utility.yul\":19162:19166   */\n      dup2\n        /* \"#utility.yul\":19158:19178   */\n      sub\n        /* \"#utility.yul\":19154:19155   */\n      0x00\n        /* \"#utility.yul\":19143:19152   */\n      dup4\n        /* \"#utility.yul\":19139:19156   */\n      add\n        /* \"#utility.yul\":19132:19179   */\n      mstore\n        /* \"#utility.yul\":19196:19327   */\n      tag_576\n        /* \"#utility.yul\":19322:19326   */\n      dup2\n        /* \"#utility.yul\":19196:19327   */\n      tag_467\n      jump\t// in\n    tag_576:\n        /* \"#utility.yul\":19188:19327   */\n      swap1\n      pop\n        /* \"#utility.yul\":18915:19334   */\n      swap2\n      swap1\n      pop\n      jump\t// out\n        /* \"#utility.yul\":19340:19759   */\n    tag_148:\n        /* \"#utility.yul\":19506:19510   */\n      0x00\n        /* \"#utility.yul\":19544:19546   */\n      0x20\n        /* \"#utility.yul\":19533:19542   */\n      dup3\n        /* \"#utility.yul\":19529:19547   */\n      add\n        /* \"#utility.yul\":19521:19547   */\n      swap1\n      pop\n        /* \"#utility.yul\":19593:19602   */\n      dup2\n        /* \"#utility.yul\":19587:19591   */\n      dup2\n        /* \"#utility.yul\":19583:19603   */\n      sub\n        /* \"#utility.yul\":19579:19580   */\n      0x00\n        /* \"#utility.yul\":19568:19577   */\n      dup4\n        /* \"#utility.yul\":19564:19581   */\n      add\n        /* \"#utility.yul\":19557:19604   */\n      mstore\n        /* \"#utility.yul\":19621:19752   */\n      tag_578\n        /* \"#utility.yul\":19747:19751   */\n      dup2\n        /* \"#utility.yul\":19621:19752   */\n      tag_472\n      jump\t// in\n    tag_578:\n        /* \"#utility.yul\":19613:19752   */\n      swap1\n      pop\n        /* \"#utility.yul\":19340:19759   */\n      swap2\n      swap1\n      pop\n      jump\t// out\n        /* \"#utility.yul\":19765:20184   */\n    tag_249:\n        /* \"#utility.yul\":19931:19935   */\n      0x00\n        /* \"#utility.yul\":19969:19971   */\n      0x20\n        /* \"#utility.yul\":19958:19967   */\n      dup3\n        /* \"#utility.yul\":19954:19972   */\n      add\n        /* \"#utility.yul\":19946:19972   */\n      swap1\n      pop\n        /* \"#utility.yul\":20018:20027   */\n      dup2\n        /* \"#utility.yul\":20012:20016   */\n      dup2\n        /* \"#utility.yul\":20008:20028   */\n      sub\n        /* \"#utility.yul\":20004:20005   */\n      0x00\n        /* \"#utility.yul\":19993:20002   */\n      dup4\n        /* \"#utility.yul\":19989:20006   */\n      add\n        /* \"#utility.yul\":19982:20029   */\n      mstore\n        /* \"#utility.yul\":20046:20177   */\n      tag_580\n        /* \"#utility.yul\":20172:20176   */\n      dup2\n        /* \"#utility.yul\":20046:20177   */\n      tag_477\n      jump\t// in\n    tag_580:\n        /* \"#utility.yul\":20038:20177   */\n      swap1\n      pop\n        /* \"#utility.yul\":19765:20184   */\n      swap2\n      swap1\n      pop\n      jump\t// out\n        /* \"#utility.yul\":20190:20609   */\n    tag_233:\n        /* \"#utility.yul\":20356:20360   */\n      0x00\n        /* \"#utility.yul\":20394:20396   */\n      0x20\n        /* \"#utility.yul\":20383:20392   */\n      dup3\n        /* \"#utility.yul\":20379:20397   */\n      add\n        /* \"#utility.yul\":20371:20397   */\n      swap1\n      pop\n        /* \"#utility.yul\":20443:20452   */\n      dup2\n        /* \"#utility.yul\":20437:20441   */\n      dup2\n        /* \"#utility.yul\":20433:20453   */\n      sub\n        /* \"#utility.yul\":20429:20430   */\n      0x00\n        /* \"#utility.yul\":20418:20427   */\n      dup4\n        /* \"#utility.yul\":20414:20431   */\n      add\n        /* \"#utility.yul\":20407:20454   */\n      mstore\n        /* \"#utility.yul\":20471:20602   */\n      tag_582\n        /* \"#utility.yul\":20597:20601   */\n      dup2\n        /* \"#utility.yul\":20471:20602   */\n      tag_482\n      jump\t// in\n    tag_582:\n        /* \"#utility.yul\":20463:20602   */\n      swap1\n      pop\n        /* \"#utility.yul\":20190:20609   */\n      swap2\n      swap1\n      pop\n      jump\t// out\n        /* \"#utility.yul\":20615:21034   */\n    tag_215:\n        /* \"#utility.yul\":20781:20785   */\n      0x00\n        /* \"#utility.yul\":20819:20821   */\n      0x20\n        /* \"#utility.yul\":20808:20817   */\n      dup3\n        /* \"#utility.yul\":20804:20822   */\n      add\n        /* \"#utility.yul\":20796:20822   */\n      swap1\n      pop\n        /* \"#utility.yul\":20868:20877   */\n      dup2\n        /* \"#utility.yul\":20862:20866   */\n      dup2\n        /* \"#utility.yul\":20858:20878   */\n      sub\n        /* \"#utility.yul\":20854:20855   */\n      0x00\n        /* \"#utility.yul\":20843:20852   */\n      dup4\n        /* \"#utility.yul\":20839:20856   */\n      add\n        /* \"#utility.yul\":20832:20879   */\n      mstore\n        /* \"#utility.yul\":20896:21027   */\n      tag_584\n        /* \"#utility.yul\":21022:21026   */\n      dup2\n        /* \"#utility.yul\":20896:21027   */\n      tag_487\n      jump\t// in\n    tag_584:\n        /* \"#utility.yul\":20888:21027   */\n      swap1\n      pop\n        /* \"#utility.yul\":20615:21034   */\n      swap2\n      swap1\n      pop\n      jump\t// out\n        /* \"#utility.yul\":21040:21459   */\n    tag_142:\n        /* \"#utility.yul\":21206:21210   */\n      0x00\n        /* \"#utility.yul\":21244:21246   */\n      0x20\n        /* \"#utility.yul\":21233:21242   */\n      dup3\n        /* \"#utility.yul\":21229:21247   */\n      add\n        /* \"#utility.yul\":21221:21247   */\n      swap1\n      pop\n        /* \"#utility.yul\":21293:21302   */\n      dup2\n        /* \"#utility.yul\":21287:21291   */\n      dup2\n        /* \"#utility.yul\":21283:21303   */\n      sub\n        /* \"#utility.yul\":21279:21280   */\n      0x00\n        /* \"#utility.yul\":21268:21277   */\n      dup4\n        /* \"#utility.yul\":21264:21281   */\n      add\n        /* \"#utility.yul\":21257:21304   */\n      mstore\n        /* \"#utility.yul\":21321:21452   */\n      tag_586\n        /* \"#utility.yul\":21447:21451   */\n      dup2\n        /* \"#utility.yul\":21321:21452   */\n      tag_492\n      jump\t// in\n    tag_586:\n        /* \"#utility.yul\":21313:21452   */\n      swap1\n      pop\n        /* \"#utility.yul\":21040:21459   */\n      swap2\n      swap1\n      pop\n      jump\t// out\n        /* \"#utility.yul\":21465:21884   */\n    tag_253:\n        /* \"#utility.yul\":21631:21635   */\n      0x00\n        /* \"#utility.yul\":21669:21671   */\n      0x20\n        /* \"#utility.yul\":21658:21667   */\n      dup3\n        /* \"#utility.yul\":21654:21672   */\n      add\n        /* \"#utility.yul\":21646:21672   */\n      swap1\n      pop\n        /* \"#utility.yul\":21718:21727   */\n      dup2\n        /* \"#utility.yul\":21712:21716   */\n      dup2\n        /* \"#utility.yul\":21708:21728   */\n      sub\n        /* \"#utility.yul\":21704:21705   */\n      0x00\n        /* \"#utility.yul\":21693:21702   */\n      dup4\n        /* \"#utility.yul\":21689:21706   */\n      add\n        /* \"#utility.yul\":21682:21729   */\n      mstore\n        /* \"#utility.yul\":21746:21877   */\n      tag_588\n        /* \"#utility.yul\":21872:21876   */\n      dup2\n        /* \"#utility.yul\":21746:21877   */\n      tag_497\n      jump\t// in\n    tag_588:\n        /* \"#utility.yul\":21738:21877   */\n      swap1\n      pop\n        /* \"#utility.yul\":21465:21884   */\n      swap2\n      swap1\n      pop\n      jump\t// out\n        /* \"#utility.yul\":21890:22309   */\n    tag_138:\n        /* \"#utility.yul\":22056:22060   */\n      0x00\n        /* \"#utility.yul\":22094:22096   */\n      0x20\n        /* \"#utility.yul\":22083:22092   */\n      dup3\n        /* \"#utility.yul\":22079:22097   */\n      add\n        /* \"#utility.yul\":22071:22097   */\n      swap1\n      pop\n        /* \"#utility.yul\":22143:22152   */\n      dup2\n        /* \"#utility.yul\":22137:22141   */\n      dup2\n        /* \"#utility.yul\":22133:22153   */\n      sub\n        /* \"#utility.yul\":22129:22130   */\n      0x00\n        /* \"#utility.yul\":22118:22127   */\n      dup4\n        /* \"#utility.yul\":22114:22131   */\n      add\n        /* \"#utility.yul\":22107:22154   */\n      mstore\n        /* \"#utility.yul\":22171:22302   */\n      tag_590\n        /* \"#utility.yul\":22297:22301   */\n      dup2\n        /* \"#utility.yul\":22171:22302   */\n      tag_502\n      jump\t// in\n    tag_590:\n        /* \"#utility.yul\":22163:22302   */\n      swap1\n      pop\n        /* \"#utility.yul\":21890:22309   */\n      swap2\n      swap1\n      pop\n      jump\t// out\n        /* \"#utility.yul\":22315:22734   */\n    tag_222:\n        /* \"#utility.yul\":22481:22485   */\n      0x00\n        /* \"#utility.yul\":22519:22521   */\n      0x20\n        /* \"#utility.yul\":22508:22517   */\n      dup3\n        /* \"#utility.yul\":22504:22522   */\n      add\n        /* \"#utility.yul\":22496:22522   */\n      swap1\n      pop\n        /* \"#utility.yul\":22568:22577   */\n      dup2\n        /* \"#utility.yul\":22562:22566   */\n      dup2\n        /* \"#utility.yul\":22558:22578   */\n      sub\n        /* \"#utility.yul\":22554:22555   */\n      0x00\n        /* \"#utility.yul\":22543:22552   */\n      dup4\n        /* \"#utility.yul\":22539:22556   */\n      add\n        /* \"#utility.yul\":22532:22579   */\n      mstore\n        /* \"#utility.yul\":22596:22727   */\n      tag_592\n        /* \"#utility.yul\":22722:22726   */\n      dup2\n        /* \"#utility.yul\":22596:22727   */\n      tag_507\n      jump\t// in\n    tag_592:\n        /* \"#utility.yul\":22588:22727   */\n      swap1\n      pop\n        /* \"#utility.yul\":22315:22734   */\n      swap2\n      swap1\n      pop\n      jump\t// out\n        /* \"#utility.yul\":22740:23159   */\n    tag_132:\n        /* \"#utility.yul\":22906:22910   */\n      0x00\n        /* \"#utility.yul\":22944:22946   */\n      0x20\n        /* \"#utility.yul\":22933:22942   */\n      dup3\n        /* \"#utility.yul\":22929:22947   */\n      add\n        /* \"#utility.yul\":22921:22947   */\n      swap1\n      pop\n        /* \"#utility.yul\":22993:23002   */\n      dup2\n        /* \"#utility.yul\":22987:22991   */\n      dup2\n        /* \"#utility.yul\":22983:23003   */\n      sub\n        /* \"#utility.yul\":22979:22980   */\n      0x00\n        /* \"#utility.yul\":22968:22977   */\n      dup4\n        /* \"#utility.yul\":22964:22981   */\n      add\n        /* \"#utility.yul\":22957:23004   */\n      mstore\n        /* \"#utility.yul\":23021:23152   */\n      tag_594\n        /* \"#utility.yul\":23147:23151   */\n      dup2\n        /* \"#utility.yul\":23021:23152   */\n      tag_512\n      jump\t// in\n    tag_594:\n        /* \"#utility.yul\":23013:23152   */\n      swap1\n      pop\n        /* \"#utility.yul\":22740:23159   */\n      swap2\n      swap1\n      pop\n      jump\t// out\n        /* \"#utility.yul\":23165:23584   */\n    tag_135:\n        /* \"#utility.yul\":23331:23335   */\n      0x00\n        /* \"#utility.yul\":23369:23371   */\n      0x20\n        /* \"#utility.yul\":23358:23367   */\n      dup3\n        /* \"#utility.yul\":23354:23372   */\n      add\n        /* \"#utility.yul\":23346:23372   */\n      swap1\n      pop\n        /* \"#utility.yul\":23418:23427   */\n      dup2\n        /* \"#utility.yul\":23412:23416   */\n      dup2\n        /* \"#utility.yul\":23408:23428   */\n      sub\n        /* \"#utility.yul\":23404:23405   */\n      0x00\n        /* \"#utility.yul\":23393:23402   */\n      dup4\n        /* \"#utility.yul\":23389:23406   */\n      add\n        /* \"#utility.yul\":23382:23429   */\n      mstore\n        /* \"#utility.yul\":23446:23577   */\n      tag_596\n        /* \"#utility.yul\":23572:23576   */\n      dup2\n        /* \"#utility.yul\":23446:23577   */\n      tag_517\n      jump\t// in\n    tag_596:\n        /* \"#utility.yul\":23438:23577   */\n      swap1\n      pop\n        /* \"#utility.yul\":23165:23584   */\n      swap2\n      swap1\n      pop\n      jump\t// out\n        /* \"#utility.yul\":23590:24009   */\n    tag_225:\n        /* \"#utility.yul\":23756:23760   */\n      0x00\n        /* \"#utility.yul\":23794:23796   */\n      0x20\n        /* \"#utility.yul\":23783:23792   */\n      dup3\n        /* \"#utility.yul\":23779:23797   */\n      add\n        /* \"#utility.yul\":23771:23797   */\n      swap1\n      pop\n        /* \"#utility.yul\":23843:23852   */\n      dup2\n        /* \"#utility.yul\":23837:23841   */\n      dup2\n        /* \"#utility.yul\":23833:23853   */\n      sub\n        /* \"#utility.yul\":23829:23830   */\n      0x00\n        /* \"#utility.yul\":23818:23827   */\n      dup4\n        /* \"#utility.yul\":23814:23831   */\n      add\n        /* \"#utility.yul\":23807:23854   */\n      mstore\n        /* \"#utility.yul\":23871:24002   */\n      tag_598\n        /* \"#utility.yul\":23997:24001   */\n      dup2\n        /* \"#utility.yul\":23871:24002   */\n      tag_527\n      jump\t// in\n    tag_598:\n        /* \"#utility.yul\":23863:24002   */\n      swap1\n      pop\n        /* \"#utility.yul\":23590:24009   */\n      swap2\n      swap1\n      pop\n      jump\t// out\n        /* \"#utility.yul\":24015:24434   */\n    tag_176:\n        /* \"#utility.yul\":24181:24185   */\n      0x00\n        /* \"#utility.yul\":24219:24221   */\n      0x20\n        /* \"#utility.yul\":24208:24217   */\n      dup3\n        /* \"#utility.yul\":24204:24222   */\n      add\n        /* \"#utility.yul\":24196:24222   */\n      swap1\n      pop\n        /* \"#utility.yul\":24268:24277   */\n      dup2\n        /* \"#utility.yul\":24262:24266   */\n      dup2\n        /* \"#utility.yul\":24258:24278   */\n      sub\n        /* \"#utility.yul\":24254:24255   */\n      0x00\n        /* \"#utility.yul\":24243:24252   */\n      dup4\n        /* \"#utility.yul\":24239:24256   */\n      add\n        /* \"#utility.yul\":24232:24279   */\n      mstore\n        /* \"#utility.yul\":24296:24427   */\n      tag_600\n        /* \"#utility.yul\":24422:24426   */\n      dup2\n        /* \"#utility.yul\":24296:24427   */\n      tag_537\n      jump\t// in\n    tag_600:\n        /* \"#utility.yul\":24288:24427   */\n      swap1\n      pop\n        /* \"#utility.yul\":24015:24434   */\n      swap2\n      swap1\n      pop\n      jump\t// out\n        /* \"#utility.yul\":24440:24662   */\n    tag_60:\n        /* \"#utility.yul\":24533:24537   */\n      0x00\n        /* \"#utility.yul\":24571:24573   */\n      0x20\n        /* \"#utility.yul\":24560:24569   */\n      dup3\n        /* \"#utility.yul\":24556:24574   */\n      add\n        /* \"#utility.yul\":24548:24574   */\n      swap1\n      pop\n        /* \"#utility.yul\":24584:24655   */\n      tag_602\n        /* \"#utility.yul\":24652:24653   */\n      0x00\n        /* \"#utility.yul\":24641:24650   */\n      dup4\n        /* \"#utility.yul\":24637:24654   */\n      add\n        /* \"#utility.yul\":24628:24634   */\n      dup5\n        /* \"#utility.yul\":24584:24655   */\n      tag_542\n      jump\t// in\n    tag_602:\n        /* \"#utility.yul\":24440:24662   */\n      swap3\n      swap2\n      pop\n      pop\n      jump\t// out\n        /* \"#utility.yul\":24668:25237   */\n    tag_161:\n        /* \"#utility.yul\":24853:24857   */\n      0x00\n        /* \"#utility.yul\":24891:24894   */\n      0x80\n        /* \"#utility.yul\":24880:24889   */\n      dup3\n        /* \"#utility.yul\":24876:24895   */\n      add\n        /* \"#utility.yul\":24868:24895   */\n      swap1\n      pop\n        /* \"#utility.yul\":24905:24976   */\n      tag_604\n        /* \"#utility.yul\":24973:24974   */\n      0x00\n        /* \"#utility.yul\":24962:24971   */\n      dup4\n        /* \"#utility.yul\":24958:24975   */\n      add\n        /* \"#utility.yul\":24949:24955   */\n      dup8\n        /* \"#utility.yul\":24905:24976   */\n      tag_542\n      jump\t// in\n    tag_604:\n        /* \"#utility.yul\":24986:25058   */\n      tag_605\n        /* \"#utility.yul\":25054:25056   */\n      0x20\n        /* \"#utility.yul\":25043:25052   */\n      dup4\n        /* \"#utility.yul\":25039:25057   */\n      add\n        /* \"#utility.yul\":25030:25036   */\n      dup7\n        /* \"#utility.yul\":24986:25058   */\n      tag_542\n      jump\t// in\n    tag_605:\n        /* \"#utility.yul\":25068:25148   */\n      tag_606\n        /* \"#utility.yul\":25144:25146   */\n      0x40\n        /* \"#utility.yul\":25133:25142   */\n      dup4\n        /* \"#utility.yul\":25129:25147   */\n      add\n        /* \"#utility.yul\":25120:25126   */\n      dup6\n        /* \"#utility.yul\":25068:25148   */\n      tag_421\n      jump\t// in\n    tag_606:\n        /* \"#utility.yul\":25158:25230   */\n      tag_607\n        /* \"#utility.yul\":25226:25228   */\n      0x60\n        /* \"#utility.yul\":25215:25224   */\n      dup4\n        /* \"#utility.yul\":25211:25229   */\n      add\n        /* \"#utility.yul\":25202:25208   */\n      dup5\n        /* \"#utility.yul\":25158:25230   */\n      tag_429\n      jump\t// in\n    tag_607:\n        /* \"#utility.yul\":24668:25237   */\n      swap6\n      swap5\n      pop\n      pop\n      pop\n      pop\n      pop\n      jump\t// out\n        /* \"#utility.yul\":25243:25372   */\n    tag_329:\n        /* \"#utility.yul\":25277:25283   */\n      0x00\n        /* \"#utility.yul\":25304:25324   */\n      tag_609\n      tag_610\n      jump\t// in\n    tag_609:\n        /* \"#utility.yul\":25294:25324   */\n      swap1\n      pop\n        /* \"#utility.yul\":25333:25366   */\n      tag_611\n        /* \"#utility.yul\":25361:25365   */\n      dup3\n        /* \"#utility.yul\":25353:25359   */\n      dup3\n        /* \"#utility.yul\":25333:25366   */\n      tag_612\n      jump\t// in\n    tag_611:\n        /* \"#utility.yul\":25243:25372   */\n      swap2\n      swap1\n      pop\n      jump\t// out\n        /* \"#utility.yul\":25378:25453   */\n    tag_610:\n        /* \"#utility.yul\":25411:25417   */\n      0x00\n        /* \"#utility.yul\":25444:25446   */\n      0x40\n        /* \"#utility.yul\":25438:25447   */\n      mload\n        /* \"#utility.yul\":25428:25447   */\n      swap1\n      pop\n        /* \"#utility.yul\":25378:25453   */\n      swap1\n      jump\t// out\n        /* \"#utility.yul\":25459:25767   */\n    tag_328:\n        /* \"#utility.yul\":25521:25525   */\n      0x00\n        /* \"#utility.yul\":25611:25629   */\n      0xffffffffffffffff\n        /* \"#utility.yul\":25603:25609   */\n      dup3\n        /* \"#utility.yul\":25600:25630   */\n      gt\n        /* \"#utility.yul\":25597:25653   */\n      iszero\n      tag_615\n      jumpi\n        /* \"#utility.yul\":25633:25651   */\n      tag_616\n      tag_293\n      jump\t// in\n    tag_616:\n        /* \"#utility.yul\":25597:25653   */\n    tag_615:\n        /* \"#utility.yul\":25671:25700   */\n      tag_617\n        /* \"#utility.yul\":25693:25699   */\n      dup3\n        /* \"#utility.yul\":25671:25700   */\n      tag_450\n      jump\t// in\n    tag_617:\n        /* \"#utility.yul\":25663:25700   */\n      swap1\n      pop\n        /* \"#utility.yul\":25755:25759   */\n      0x20\n        /* \"#utility.yul\":25749:25753   */\n      dup2\n        /* \"#utility.yul\":25745:25760   */\n      add\n        /* \"#utility.yul\":25737:25760   */\n      swap1\n      pop\n        /* \"#utility.yul\":25459:25767   */\n      swap2\n      swap1\n      pop\n      jump\t// out\n        /* \"#utility.yul\":25773:25872   */\n    tag_444:\n        /* \"#utility.yul\":25825:25831   */\n      0x00\n        /* \"#utility.yul\":25859:25864   */\n      dup2\n        /* \"#utility.yul\":25853:25865   */\n      mload\n        /* \"#utility.yul\":25843:25865   */\n      swap1\n      pop\n        /* \"#utility.yul\":25773:25872   */\n      swap2\n      swap1\n      pop\n      jump\t// out\n        /* \"#utility.yul\":25878:26047   */\n    tag_446:\n        /* \"#utility.yul\":25962:25973   */\n      0x00\n        /* \"#utility.yul\":25996:26002   */\n      dup3\n        /* \"#utility.yul\":25991:25994   */\n      dup3\n        /* \"#utility.yul\":25984:26003   */\n      mstore\n        /* \"#utility.yul\":26036:26040   */\n      0x20\n        /* \"#utility.yul\":26031:26034   */\n      dup3\n        /* \"#utility.yul\":26027:26041   */\n      add\n        /* \"#utility.yul\":26012:26041   */\n      swap1\n      pop\n        /* \"#utility.yul\":25878:26047   */\n      swap3\n      swap2\n      pop\n      pop\n      jump\t// out\n        /* \"#utility.yul\":26053:26201   */\n    tag_455:\n        /* \"#utility.yul\":26155:26166   */\n      0x00\n        /* \"#utility.yul\":26192:26195   */\n      dup2\n        /* \"#utility.yul\":26177:26195   */\n      swap1\n      pop\n        /* \"#utility.yul\":26053:26201   */\n      swap3\n      swap2\n      pop\n      pop\n      jump\t// out\n        /* \"#utility.yul\":26207:26512   */\n    tag_189:\n        /* \"#utility.yul\":26247:26250   */\n      0x00\n        /* \"#utility.yul\":26266:26286   */\n      tag_622\n        /* \"#utility.yul\":26284:26285   */\n      dup3\n        /* \"#utility.yul\":26266:26286   */\n      tag_545\n      jump\t// in\n    tag_622:\n        /* \"#utility.yul\":26261:26286   */\n      swap2\n      pop\n        /* \"#utility.yul\":26300:26320   */\n      tag_623\n        /* \"#utility.yul\":26318:26319   */\n      dup4\n        /* \"#utility.yul\":26300:26320   */\n      tag_545\n      jump\t// in\n    tag_623:\n        /* \"#utility.yul\":26295:26320   */\n      swap3\n      pop\n        /* \"#utility.yul\":26454:26455   */\n      dup3\n        /* \"#utility.yul\":26386:26452   */\n      0xffffffffffffffffffffffffffffffffffffffffffffffffffffffffffffffff\n        /* \"#utility.yul\":26382:26456   */\n      sub\n        /* \"#utility.yul\":26379:26380   */\n      dup3\n        /* \"#utility.yul\":26376:26457   */\n      gt\n        /* \"#utility.yul\":26373:26480   */\n      iszero\n      tag_624\n      jumpi\n        /* \"#utility.yul\":26460:26478   */\n      tag_625\n      tag_626\n      jump\t// in\n    tag_625:\n        /* \"#utility.yul\":26373:26480   */\n    tag_624:\n        /* \"#utility.yul\":26504:26505   */\n      dup3\n        /* \"#utility.yul\":26501:26502   */\n      dup3\n        /* \"#utility.yul\":26497:26506   */\n      add\n        /* \"#utility.yul\":26490:26506   */\n      swap1\n      pop\n        /* \"#utility.yul\":26207:26512   */\n      swap3\n      swap2\n      pop\n      pop\n      jump\t// out\n        /* \"#utility.yul\":26518:26703   */\n    tag_194:\n        /* \"#utility.yul\":26558:26559   */\n      0x00\n        /* \"#utility.yul\":26575:26595   */\n      tag_628\n        /* \"#utility.yul\":26593:26594   */\n      dup3\n        /* \"#utility.yul\":26575:26595   */\n      tag_545\n      jump\t// in\n    tag_628:\n        /* \"#utility.yul\":26570:26595   */\n      swap2\n      pop\n        /* \"#utility.yul\":26609:26629   */\n      tag_629\n        /* \"#utility.yul\":26627:26628   */\n      dup4\n        /* \"#utility.yul\":26609:26629   */\n      tag_545\n      jump\t// in\n    tag_629:\n        /* \"#utility.yul\":26604:26629   */\n      swap3\n      pop\n        /* \"#utility.yul\":26648:26649   */\n      dup3\n        /* \"#utility.yul\":26638:26673   */\n      tag_630\n      jumpi\n        /* \"#utility.yul\":26653:26671   */\n      tag_631\n      tag_632\n      jump\t// in\n    tag_631:\n        /* \"#utility.yul\":26638:26673   */\n    tag_630:\n        /* \"#utility.yul\":26695:26696   */\n      dup3\n        /* \"#utility.yul\":26692:26693   */\n      dup3\n        /* \"#utility.yul\":26688:26697   */\n      div\n        /* \"#utility.yul\":26683:26697   */\n      swap1\n      pop\n        /* \"#utility.yul\":26518:26703   */\n      swap3\n      swap2\n      pop\n      pop\n      jump\t// out\n        /* \"#utility.yul\":26709:27057   */\n    tag_145:\n        /* \"#utility.yul\":26749:26756   */\n      0x00\n        /* \"#utility.yul\":26772:26792   */\n      tag_634\n        /* \"#utility.yul\":26790:26791   */\n      dup3\n        /* \"#utility.yul\":26772:26792   */\n      tag_545\n      jump\t// in\n    tag_634:\n        /* \"#utility.yul\":26767:26792   */\n      swap2\n      pop\n        /* \"#utility.yul\":26806:26826   */\n      tag_635\n        /* \"#utility.yul\":26824:26825   */\n      dup4\n        /* \"#utility.yul\":26806:26826   */\n      tag_545\n      jump\t// in\n    tag_635:\n        /* \"#utility.yul\":26801:26826   */\n      swap3\n      pop\n        /* \"#utility.yul\":26994:26995   */\n      dup2\n        /* \"#utility.yul\":26926:26992   */\n      0xffffffffffffffffffffffffffffffffffffffffffffffffffffffffffffffff\n        /* \"#utility.yul\":26922:26996   */\n      div\n        /* \"#utility.yul\":26919:26920   */\n      dup4\n        /* \"#utility.yul\":26916:26997   */\n      gt\n        /* \"#utility.yul\":26911:26912   */\n      dup3\n        /* \"#utility.yul\":26904:26913   */\n      iszero\n        /* \"#utility.yul\":26897:26914   */\n      iszero\n        /* \"#utility.yul\":26893:26998   */\n      and\n        /* \"#utility.yul\":26890:27021   */\n      iszero\n      tag_636\n      jumpi\n        /* \"#utility.yul\":27001:27019   */\n      tag_637\n      tag_626\n      jump\t// in\n    tag_637:\n        /* \"#utility.yul\":26890:27021   */\n    tag_636:\n        /* \"#utility.yul\":27049:27050   */\n      dup3\n        /* \"#utility.yul\":27046:27047   */\n      dup3\n        /* \"#utility.yul\":27042:27051   */\n      mul\n        /* \"#utility.yul\":27031:27051   */\n      swap1\n      pop\n        /* \"#utility.yul\":26709:27057   */\n      swap3\n      swap2\n      pop\n      pop\n      jump\t// out\n        /* \"#utility.yul\":27063:27248   */\n    tag_158:\n        /* \"#utility.yul\":27101:27105   */\n      0x00\n        /* \"#utility.yul\":27121:27139   */\n      tag_639\n        /* \"#utility.yul\":27137:27138   */\n      dup3\n        /* \"#utility.yul\":27121:27139   */\n      tag_549\n      jump\t// in\n    tag_639:\n        /* \"#utility.yul\":27116:27139   */\n      swap2\n      pop\n        /* \"#utility.yul\":27153:27171   */\n      tag_640\n        /* \"#utility.yul\":27169:27170   */\n      dup4\n        /* \"#utility.yul\":27153:27171   */\n      tag_549\n      jump\t// in\n    tag_640:\n        /* \"#utility.yul\":27148:27171   */\n      swap3\n      pop\n        /* \"#utility.yul\":27190:27191   */\n      dup3\n        /* \"#utility.yul\":27187:27188   */\n      dup3\n        /* \"#utility.yul\":27184:27192   */\n      lt\n        /* \"#utility.yul\":27181:27215   */\n      iszero\n      tag_641\n      jumpi\n        /* \"#utility.yul\":27195:27213   */\n      tag_642\n      tag_626\n      jump\t// in\n    tag_642:\n        /* \"#utility.yul\":27181:27215   */\n    tag_641:\n        /* \"#utility.yul\":27240:27241   */\n      dup3\n        /* \"#utility.yul\":27237:27238   */\n      dup3\n        /* \"#utility.yul\":27233:27242   */\n      sub\n        /* \"#utility.yul\":27225:27242   */\n      swap1\n      pop\n        /* \"#utility.yul\":27063:27248   */\n      swap3\n      swap2\n      pop\n      pop\n      jump\t// out\n        /* \"#utility.yul\":27254:27350   */\n    tag_432:\n        /* \"#utility.yul\":27291:27298   */\n      0x00\n        /* \"#utility.yul\":27320:27344   */\n      tag_644\n        /* \"#utility.yul\":27338:27343   */\n      dup3\n        /* \"#utility.yul\":27320:27344   */\n      tag_645\n      jump\t// in\n    tag_644:\n        /* \"#utility.yul\":27309:27344   */\n      swap1\n      pop\n        /* \"#utility.yul\":27254:27350   */\n      swap2\n      swap1\n      pop\n      jump\t// out\n        /* \"#utility.yul\":27356:27460   */\n    tag_428:\n        /* \"#utility.yul\":27401:27408   */\n      0x00\n        /* \"#utility.yul\":27430:27454   */\n      tag_647\n        /* \"#utility.yul\":27448:27453   */\n      dup3\n        /* \"#utility.yul\":27430:27454   */\n      tag_645\n      jump\t// in\n    tag_647:\n        /* \"#utility.yul\":27419:27454   */\n      swap1\n      pop\n        /* \"#utility.yul\":27356:27460   */\n      swap2\n      swap1\n      pop\n      jump\t// out\n        /* \"#utility.yul\":27466:27556   */\n    tag_436:\n        /* \"#utility.yul\":27500:27507   */\n      0x00\n        /* \"#utility.yul\":27543:27548   */\n      dup2\n        /* \"#utility.yul\":27536:27549   */\n      iszero\n        /* \"#utility.yul\":27529:27550   */\n      iszero\n        /* \"#utility.yul\":27518:27550   */\n      swap1\n      pop\n        /* \"#utility.yul\":27466:27556   */\n      swap2\n      swap1\n      pop\n      jump\t// out\n        /* \"#utility.yul\":27562:27639   */\n    tag_440:\n        /* \"#utility.yul\":27599:27606   */\n      0x00\n        /* \"#utility.yul\":27628:27633   */\n      dup2\n        /* \"#utility.yul\":27617:27633   */\n      swap1\n      pop\n        /* \"#utility.yul\":27562:27639   */\n      swap2\n      swap1\n      pop\n      jump\t// out\n        /* \"#utility.yul\":27645:27794   */\n    tag_650:\n        /* \"#utility.yul\":27681:27688   */\n      0x00\n        /* \"#utility.yul\":27721:27787   */\n      0xffffffff00000000000000000000000000000000000000000000000000000000\n        /* \"#utility.yul\":27714:27719   */\n      dup3\n        /* \"#utility.yul\":27710:27788   */\n      and\n        /* \"#utility.yul\":27699:27788   */\n      swap1\n      pop\n        /* \"#utility.yul\":27645:27794   */\n      swap2\n      swap1\n      pop\n      jump\t// out\n        /* \"#utility.yul\":27800:27926   */\n    tag_645:\n        /* \"#utility.yul\":27837:27844   */\n      0x00\n        /* \"#utility.yul\":27877:27919   */\n      0xffffffffffffffffffffffffffffffffffffffff\n        /* \"#utility.yul\":27870:27875   */\n      dup3\n        /* \"#utility.yul\":27866:27920   */\n      and\n        /* \"#utility.yul\":27855:27920   */\n      swap1\n      pop\n        /* \"#utility.yul\":27800:27926   */\n      swap2\n      swap1\n      pop\n      jump\t// out\n        /* \"#utility.yul\":27932:28009   */\n    tag_545:\n        /* \"#utility.yul\":27969:27976   */\n      0x00\n        /* \"#utility.yul\":27998:28003   */\n      dup2\n        /* \"#utility.yul\":27987:28003   */\n      swap1\n      pop\n        /* \"#utility.yul\":27932:28009   */\n      swap2\n      swap1\n      pop\n      jump\t// out\n        /* \"#utility.yul\":28015:28101   */\n    tag_549:\n        /* \"#utility.yul\":28050:28057   */\n      0x00\n        /* \"#utility.yul\":28090:28094   */\n      0xff\n        /* \"#utility.yul\":28083:28088   */\n      dup3\n        /* \"#utility.yul\":28079:28095   */\n      and\n        /* \"#utility.yul\":28068:28095   */\n      swap1\n      pop\n        /* \"#utility.yul\":28015:28101   */\n      swap2\n      swap1\n      pop\n      jump\t// out\n        /* \"#utility.yul\":28107:28241   */\n    tag_424:\n        /* \"#utility.yul\":28165:28174   */\n      0x00\n        /* \"#utility.yul\":28198:28235   */\n      tag_656\n        /* \"#utility.yul\":28229:28234   */\n      dup3\n        /* \"#utility.yul\":28198:28235   */\n      tag_657\n      jump\t// in\n    tag_656:\n        /* \"#utility.yul\":28185:28235   */\n      swap1\n      pop\n        /* \"#utility.yul\":28107:28241   */\n      swap2\n      swap1\n      pop\n      jump\t// out\n        /* \"#utility.yul\":28247:28373   */\n    tag_657:\n        /* \"#utility.yul\":28297:28306   */\n      0x00\n        /* \"#utility.yul\":28330:28367   */\n      tag_659\n        /* \"#utility.yul\":28361:28366   */\n      dup3\n        /* \"#utility.yul\":28330:28367   */\n      tag_660\n      jump\t// in\n    tag_659:\n        /* \"#utility.yul\":28317:28367   */\n      swap1\n      pop\n        /* \"#utility.yul\":28247:28373   */\n      swap2\n      swap1\n      pop\n      jump\t// out\n        /* \"#utility.yul\":28379:28492   */\n    tag_660:\n        /* \"#utility.yul\":28429:28438   */\n      0x00\n        /* \"#utility.yul\":28462:28486   */\n      tag_662\n        /* \"#utility.yul\":28480:28485   */\n      dup3\n        /* \"#utility.yul\":28462:28486   */\n      tag_645\n      jump\t// in\n    tag_662:\n        /* \"#utility.yul\":28449:28486   */\n      swap1\n      pop\n        /* \"#utility.yul\":28379:28492   */\n      swap2\n      swap1\n      pop\n      jump\t// out\n        /* \"#utility.yul\":28498:28652   */\n    tag_334:\n        /* \"#utility.yul\":28582:28588   */\n      dup3\n        /* \"#utility.yul\":28577:28580   */\n      dup2\n        /* \"#utility.yul\":28572:28575   */\n      dup4\n        /* \"#utility.yul\":28559:28589   */\n      calldatacopy\n        /* \"#utility.yul\":28644:28645   */\n      0x00\n        /* \"#utility.yul\":28635:28641   */\n      dup4\n        /* \"#utility.yul\":28630:28633   */\n      dup4\n        /* \"#utility.yul\":28626:28642   */\n      add\n        /* \"#utility.yul\":28619:28646   */\n      mstore\n        /* \"#utility.yul\":28498:28652   */\n      pop\n      pop\n      pop\n      jump\t// out\n        /* \"#utility.yul\":28658:28965   */\n    tag_448:\n        /* \"#utility.yul\":28726:28727   */\n      0x00\n        /* \"#utility.yul\":28736:28849   */\n    tag_665:\n        /* \"#utility.yul\":28750:28756   */\n      dup4\n        /* \"#utility.yul\":28747:28748   */\n      dup2\n        /* \"#utility.yul\":28744:28757   */\n      lt\n        /* \"#utility.yul\":28736:28849   */\n      iszero\n      tag_667\n      jumpi\n        /* \"#utility.yul\":28835:28836   */\n      dup1\n        /* \"#utility.yul\":28830:28833   */\n      dup3\n        /* \"#utility.yul\":28826:28837   */\n      add\n        /* \"#utility.yul\":28820:28838   */\n      mload\n        /* \"#utility.yul\":28816:28817   */\n      dup2\n        /* \"#utility.yul\":28811:28814   */\n      dup5\n        /* \"#utility.yul\":28807:28818   */\n      add\n        /* \"#utility.yul\":28800:28839   */\n      mstore\n        /* \"#utility.yul\":28772:28774   */\n      0x20\n        /* \"#utility.yul\":28769:28770   */\n      dup2\n        /* \"#utility.yul\":28765:28775   */\n      add\n        /* \"#utility.yul\":28760:28775   */\n      swap1\n      pop\n        /* \"#utility.yul\":28736:28849   */\n      jump(tag_665)\n    tag_667:\n        /* \"#utility.yul\":28867:28873   */\n      dup4\n        /* \"#utility.yul\":28864:28865   */\n      dup2\n        /* \"#utility.yul\":28861:28874   */\n      gt\n        /* \"#utility.yul\":28858:28959   */\n      iszero\n      tag_668\n      jumpi\n        /* \"#utility.yul\":28947:28948   */\n      0x00\n        /* \"#utility.yul\":28938:28944   */\n      dup5\n        /* \"#utility.yul\":28933:28936   */\n      dup5\n        /* \"#utility.yul\":28929:28945   */\n      add\n        /* \"#utility.yul\":28922:28949   */\n      mstore\n        /* \"#utility.yul\":28858:28959   */\n    tag_668:\n        /* \"#utility.yul\":28707:28965   */\n      pop\n        /* \"#utility.yul\":28658:28965   */\n      pop\n      pop\n      pop\n      jump\t// out\n        /* \"#utility.yul\":28971:29142   */\n    tag_309:\n        /* \"#utility.yul\":29010:29013   */\n      0x00\n        /* \"#utility.yul\":29033:29057   */\n      tag_670\n        /* \"#utility.yul\":29051:29056   */\n      dup3\n        /* \"#utility.yul\":29033:29057   */\n      tag_545\n      jump\t// in\n    tag_670:\n        /* \"#utility.yul\":29024:29057   */\n      swap2\n      pop\n        /* \"#utility.yul\":29079:29083   */\n      0x00\n        /* \"#utility.yul\":29072:29077   */\n      dup3\n        /* \"#utility.yul\":29069:29084   */\n      eq\n        /* \"#utility.yul\":29066:29107   */\n      iszero\n      tag_671\n      jumpi\n        /* \"#utility.yul\":29087:29105   */\n      tag_672\n      tag_626\n      jump\t// in\n    tag_672:\n        /* \"#utility.yul\":29066:29107   */\n    tag_671:\n        /* \"#utility.yul\":29134:29135   */\n      0x01\n        /* \"#utility.yul\":29127:29132   */\n      dup3\n        /* \"#utility.yul\":29123:29136   */\n      sub\n        /* \"#utility.yul\":29116:29136   */\n      swap1\n      pop\n        /* \"#utility.yul\":28971:29142   */\n      swap2\n      swap1\n      pop\n      jump\t// out\n        /* \"#utility.yul\":29148:29468   */\n    tag_197:\n        /* \"#utility.yul\":29192:29198   */\n      0x00\n        /* \"#utility.yul\":29229:29230   */\n      0x02\n        /* \"#utility.yul\":29223:29227   */\n      dup3\n        /* \"#utility.yul\":29219:29231   */\n      div\n        /* \"#utility.yul\":29209:29231   */\n      swap1\n      pop\n        /* \"#utility.yul\":29276:29277   */\n      0x01\n        /* \"#utility.yul\":29270:29274   */\n      dup3\n        /* \"#utility.yul\":29266:29278   */\n      and\n        /* \"#utility.yul\":29297:29315   */\n      dup1\n        /* \"#utility.yul\":29287:29368   */\n      tag_674\n      jumpi\n        /* \"#utility.yul\":29353:29357   */\n      0x7f\n        /* \"#utility.yul\":29345:29351   */\n      dup3\n        /* \"#utility.yul\":29341:29358   */\n      and\n        /* \"#utility.yul\":29331:29358   */\n      swap2\n      pop\n        /* \"#utility.yul\":29287:29368   */\n    tag_674:\n        /* \"#utility.yul\":29415:29417   */\n      0x20\n        /* \"#utility.yul\":29407:29413   */\n      dup3\n        /* \"#utility.yul\":29404:29418   */\n      lt\n        /* \"#utility.yul\":29384:29402   */\n      dup2\n        /* \"#utility.yul\":29381:29419   */\n      eq\n        /* \"#utility.yul\":29378:29462   */\n      iszero\n      tag_675\n      jumpi\n        /* \"#utility.yul\":29434:29452   */\n      tag_676\n      tag_677\n      jump\t// in\n    tag_676:\n        /* \"#utility.yul\":29378:29462   */\n    tag_675:\n        /* \"#utility.yul\":29199:29468   */\n      pop\n        /* \"#utility.yul\":29148:29468   */\n      swap2\n      swap1\n      pop\n      jump\t// out\n        /* \"#utility.yul\":29474:29755   */\n    tag_612:\n        /* \"#utility.yul\":29557:29584   */\n      tag_679\n        /* \"#utility.yul\":29579:29583   */\n      dup3\n        /* \"#utility.yul\":29557:29584   */\n      tag_450\n      jump\t// in\n    tag_679:\n        /* \"#utility.yul\":29549:29555   */\n      dup2\n        /* \"#utility.yul\":29545:29585   */\n      add\n        /* \"#utility.yul\":29687:29693   */\n      dup2\n        /* \"#utility.yul\":29675:29685   */\n      dup2\n        /* \"#utility.yul\":29672:29694   */\n      lt\n        /* \"#utility.yul\":29651:29669   */\n      0xffffffffffffffff\n        /* \"#utility.yul\":29639:29649   */\n      dup3\n        /* \"#utility.yul\":29636:29670   */\n      gt\n        /* \"#utility.yul\":29633:29695   */\n      or\n        /* \"#utility.yul\":29630:29718   */\n      iszero\n      tag_680\n      jumpi\n        /* \"#utility.yul\":29698:29716   */\n      tag_681\n      tag_293\n      jump\t// in\n    tag_681:\n        /* \"#utility.yul\":29630:29718   */\n    tag_680:\n        /* \"#utility.yul\":29738:29748   */\n      dup1\n        /* \"#utility.yul\":29734:29736   */\n      0x40\n        /* \"#utility.yul\":29727:29749   */\n      mstore\n        /* \"#utility.yul\":29517:29755   */\n      pop\n        /* \"#utility.yul\":29474:29755   */\n      pop\n      pop\n      jump\t// out\n        /* \"#utility.yul\":29761:29994   */\n    tag_191:\n        /* \"#utility.yul\":29800:29803   */\n      0x00\n        /* \"#utility.yul\":29823:29847   */\n      tag_683\n        /* \"#utility.yul\":29841:29846   */\n      dup3\n        /* \"#utility.yul\":29823:29847   */\n      tag_545\n      jump\t// in\n    tag_683:\n        /* \"#utility.yul\":29814:29847   */\n      swap2\n      pop\n        /* \"#utility.yul\":29869:29935   */\n      0xffffffffffffffffffffffffffffffffffffffffffffffffffffffffffffffff\n        /* \"#utility.yul\":29862:29867   */\n      dup3\n        /* \"#utility.yul\":29859:29936   */\n      eq\n        /* \"#utility.yul\":29856:29959   */\n      iszero\n      tag_684\n      jumpi\n        /* \"#utility.yul\":29939:29957   */\n      tag_685\n      tag_626\n      jump\t// in\n    tag_685:\n        /* \"#utility.yul\":29856:29959   */\n    tag_684:\n        /* \"#utility.yul\":29986:29987   */\n      0x01\n        /* \"#utility.yul\":29979:29984   */\n      dup3\n        /* \"#utility.yul\":29975:29988   */\n      add\n        /* \"#utility.yul\":29968:29988   */\n      swap1\n      pop\n        /* \"#utility.yul\":29761:29994   */\n      swap2\n      swap1\n      pop\n      jump\t// out\n        /* \"#utility.yul\":30000:30180   */\n    tag_626:\n        /* \"#utility.yul\":30048:30125   */\n      0x4e487b7100000000000000000000000000000000000000000000000000000000\n        /* \"#utility.yul\":30045:30046   */\n      0x00\n        /* \"#utility.yul\":30038:30126   */\n      mstore\n        /* \"#utility.yul\":30145:30149   */\n      0x11\n        /* \"#utility.yul\":30142:30143   */\n      0x04\n        /* \"#utility.yul\":30135:30150   */\n      mstore\n        /* \"#utility.yul\":30169:30173   */\n      0x24\n        /* \"#utility.yul\":30166:30167   */\n      0x00\n        /* \"#utility.yul\":30159:30174   */\n      revert\n        /* \"#utility.yul\":30186:30366   */\n    tag_632:\n        /* \"#utility.yul\":30234:30311   */\n      0x4e487b7100000000000000000000000000000000000000000000000000000000\n        /* \"#utility.yul\":30231:30232   */\n      0x00\n        /* \"#utility.yul\":30224:30312   */\n      mstore\n        /* \"#utility.yul\":30331:30335   */\n      0x12\n        /* \"#utility.yul\":30328:30329   */\n      0x04\n        /* \"#utility.yul\":30321:30336   */\n      mstore\n        /* \"#utility.yul\":30355:30359   */\n      0x24\n        /* \"#utility.yul\":30352:30353   */\n      0x00\n        /* \"#utility.yul\":30345:30360   */\n      revert\n        /* \"#utility.yul\":30372:30552   */\n    tag_677:\n        /* \"#utility.yul\":30420:30497   */\n      0x4e487b7100000000000000000000000000000000000000000000000000000000\n        /* \"#utility.yul\":30417:30418   */\n      0x00\n        /* \"#utility.yul\":30410:30498   */\n      mstore\n        /* \"#utility.yul\":30517:30521   */\n      0x22\n        /* \"#utility.yul\":30514:30515   */\n      0x04\n        /* \"#utility.yul\":30507:30522   */\n      mstore\n        /* \"#utility.yul\":30541:30545   */\n      0x24\n        /* \"#utility.yul\":30538:30539   */\n      0x00\n        /* \"#utility.yul\":30531:30546   */\n      revert\n        /* \"#utility.yul\":30558:30738   */\n    tag_185:\n        /* \"#utility.yul\":30606:30683   */\n      0x4e487b7100000000000000000000000000000000000000000000000000000000\n        /* \"#utility.yul\":30603:30604   */\n      0x00\n        /* \"#utility.yul\":30596:30684   */\n      mstore\n        /* \"#utility.yul\":30703:30707   */\n      0x32\n        /* \"#utility.yul\":30700:30701   */\n      0x04\n        /* \"#utility.yul\":30693:30708   */\n      mstore\n        /* \"#utility.yul\":30727:30731   */\n      0x24\n        /* \"#utility.yul\":30724:30725   */\n      0x00\n        /* \"#utility.yul\":30717:30732   */\n      revert\n        /* \"#utility.yul\":30744:30924   */\n    tag_293:\n        /* \"#utility.yul\":30792:30869   */\n      0x4e487b7100000000000000000000000000000000000000000000000000000000\n        /* \"#utility.yul\":30789:30790   */\n      0x00\n        /* \"#utility.yul\":30782:30870   */\n      mstore\n        /* \"#utility.yul\":30889:30893   */\n      0x41\n        /* \"#utility.yul\":30886:30887   */\n      0x04\n        /* \"#utility.yul\":30879:30894   */\n      mstore\n        /* \"#utility.yul\":30913:30917   */\n      0x24\n        /* \"#utility.yul\":30910:30911   */\n      0x00\n        /* \"#utility.yul\":30903:30918   */\n      revert\n        /* \"#utility.yul\":30930:31047   */\n    tag_355:\n        /* \"#utility.yul\":31039:31040   */\n      0x00\n        /* \"#utility.yul\":31036:31037   */\n      dup1\n        /* \"#utility.yul\":31029:31041   */\n      revert\n        /* \"#utility.yul\":31053:31170   */\n    tag_332:\n        /* \"#utility.yul\":31162:31163   */\n      0x00\n        /* \"#utility.yul\":31159:31160   */\n      dup1\n        /* \"#utility.yul\":31152:31164   */\n      revert\n        /* \"#utility.yul\":31176:31293   */\n    tag_384:\n        /* \"#utility.yul\":31285:31286   */\n      0x00\n        /* \"#utility.yul\":31282:31283   */\n      dup1\n        /* \"#utility.yul\":31275:31287   */\n      revert\n        /* \"#utility.yul\":31299:31416   */\n    tag_368:\n        /* \"#utility.yul\":31408:31409   */\n      0x00\n        /* \"#utility.yul\":31405:31406   */\n      dup1\n        /* \"#utility.yul\":31398:31410   */\n      revert\n        /* \"#utility.yul\":31422:31524   */\n    tag_450:\n        /* \"#utility.yul\":31463:31469   */\n      0x00\n        /* \"#utility.yul\":31514:31516   */\n      0x1f\n        /* \"#utility.yul\":31510:31517   */\n      not\n        /* \"#utility.yul\":31505:31507   */\n      0x1f\n        /* \"#utility.yul\":31498:31503   */\n      dup4\n        /* \"#utility.yul\":31494:31508   */\n      add\n        /* \"#utility.yul\":31490:31518   */\n      and\n        /* \"#utility.yul\":31480:31518   */\n      swap1\n      pop\n        /* \"#utility.yul\":31422:31524   */\n      swap2\n      swap1\n      pop\n      jump\t// out\n        /* \"#utility.yul\":31530:31711   */\n    tag_461:\n        /* \"#utility.yul\":31670:31703   */\n      0x5175616e74697479206d7573742062652067726561746572207468616e203000\n        /* \"#utility.yul\":31666:31667   */\n      0x00\n        /* \"#utility.yul\":31658:31664   */\n      dup3\n        /* \"#utility.yul\":31654:31668   */\n      add\n        /* \"#utility.yul\":31647:31704   */\n      mstore\n        /* \"#utility.yul\":31530:31711   */\n      pop\n      jump\t// out\n        /* \"#utility.yul\":31717:31965   */\n    tag_466:\n        /* \"#utility.yul\":31857:31891   */\n      0x5175616e74697479206d757374206265206c657373207468616e206f72206571\n        /* \"#utility.yul\":31853:31854   */\n      0x00\n        /* \"#utility.yul\":31845:31851   */\n      dup3\n        /* \"#utility.yul\":31841:31855   */\n      add\n        /* \"#utility.yul\":31834:31892   */\n      mstore\n        /* \"#utility.yul\":31926:31957   */\n      0x75616c20746f2074686520617661696c61626c65207175616e74697479000000\n        /* \"#utility.yul\":31921:31923   */\n      0x20\n        /* \"#utility.yul\":31913:31919   */\n      dup3\n        /* \"#utility.yul\":31909:31924   */\n      add\n        /* \"#utility.yul\":31902:31958   */\n      mstore\n        /* \"#utility.yul\":31717:31965   */\n      pop\n      jump\t// out\n        /* \"#utility.yul\":31971:32153   */\n    tag_471:\n        /* \"#utility.yul\":32111:32145   */\n      0x537472696e67733a20686578206c656e67746820696e73756666696369656e74\n        /* \"#utility.yul\":32107:32108   */\n      0x00\n        /* \"#utility.yul\":32099:32105   */\n      dup3\n        /* \"#utility.yul\":32095:32109   */\n      add\n        /* \"#utility.yul\":32088:32146   */\n      mstore\n        /* \"#utility.yul\":31971:32153   */\n      pop\n      jump\t// out\n        /* \"#utility.yul\":32159:32329   */\n    tag_476:\n        /* \"#utility.yul\":32299:32321   */\n      0x507269636520646f6573206e6f74206d61746368000000000000000000000000\n        /* \"#utility.yul\":32295:32296   */\n      0x00\n        /* \"#utility.yul\":32287:32293   */\n      dup3\n        /* \"#utility.yul\":32283:32297   */\n      add\n        /* \"#utility.yul\":32276:32322   */\n      mstore\n        /* \"#utility.yul\":32159:32329   */\n      pop\n      jump\t// out\n        /* \"#utility.yul\":32335:32561   */\n    tag_481:\n        /* \"#utility.yul\":32475:32509   */\n      0x4f6e6c79207468652073656c6c65722063616e20757064617465207468652071\n        /* \"#utility.yul\":32471:32472   */\n      0x00\n        /* \"#utility.yul\":32463:32469   */\n      dup3\n        /* \"#utility.yul\":32459:32473   */\n      add\n        /* \"#utility.yul\":32452:32510   */\n      mstore\n        /* \"#utility.yul\":32544:32553   */\n      0x75616e7469747900000000000000000000000000000000000000000000000000\n        /* \"#utility.yul\":32539:32541   */\n      0x20\n        /* \"#utility.yul\":32531:32537   */\n      dup3\n        /* \"#utility.yul\":32527:32542   */\n      add\n        /* \"#utility.yul\":32520:32554   */\n      mstore\n        /* \"#utility.yul\":32335:32561   */\n      pop\n      jump\t// out\n        /* \"#utility.yul\":32567:32790   */\n    tag_486:\n        /* \"#utility.yul\":32707:32741   */\n      0x4f6e6c79207468652073656c6c65722063616e20757064617465207468652070\n        /* \"#utility.yul\":32703:32704   */\n      0x00\n        /* \"#utility.yul\":32695:32701   */\n      dup3\n        /* \"#utility.yul\":32691:32705   */\n      add\n        /* \"#utility.yul\":32684:32742   */\n      mstore\n        /* \"#utility.yul\":32776:32782   */\n      0x7269636500000000000000000000000000000000000000000000000000000000\n        /* \"#utility.yul\":32771:32773   */\n      0x20\n        /* \"#utility.yul\":32763:32769   */\n      dup3\n        /* \"#utility.yul\":32759:32774   */\n      add\n        /* \"#utility.yul\":32752:32783   */\n      mstore\n        /* \"#utility.yul\":32567:32790   */\n      pop\n      jump\t// out\n        /* \"#utility.yul\":32796:33025   */\n    tag_491:\n        /* \"#utility.yul\":32936:32970   */\n      0x4f6e6c79207468652073656c6c65722063616e20757064617465207468652064\n        /* \"#utility.yul\":32932:32933   */\n      0x00\n        /* \"#utility.yul\":32924:32930   */\n      dup3\n        /* \"#utility.yul\":32920:32934   */\n      add\n        /* \"#utility.yul\":32913:32971   */\n      mstore\n        /* \"#utility.yul\":33005:33017   */\n      0x65736372697074696f6e00000000000000000000000000000000000000000000\n        /* \"#utility.yul\":33000:33002   */\n      0x20\n        /* \"#utility.yul\":32992:32998   */\n      dup3\n        /* \"#utility.yul\":32988:33003   */\n      add\n        /* \"#utility.yul\":32981:33018   */\n      mstore\n        /* \"#utility.yul\":32796:33025   */\n      pop\n      jump\t// out\n        /* \"#utility.yul\":33031:33251   */\n    tag_496:\n        /* \"#utility.yul\":33171:33205   */\n      0x596f752063616e6e6f7420766f746520666f7220746869732070726f64756374\n        /* \"#utility.yul\":33167:33168   */\n      0x00\n        /* \"#utility.yul\":33159:33165   */\n      dup3\n        /* \"#utility.yul\":33155:33169   */\n      add\n        /* \"#utility.yul\":33148:33206   */\n      mstore\n        /* \"#utility.yul\":33240:33243   */\n      0x2e00000000000000000000000000000000000000000000000000000000000000\n        /* \"#utility.yul\":33235:33237   */\n      0x20\n        /* \"#utility.yul\":33227:33233   */\n      dup3\n        /* \"#utility.yul\":33223:33238   */\n      add\n        /* \"#utility.yul\":33216:33244   */\n      mstore\n        /* \"#utility.yul\":33031:33251   */\n      pop\n      jump\t// out\n        /* \"#utility.yul\":33257:33484   */\n    tag_501:\n        /* \"#utility.yul\":33397:33431   */\n      0x4f6e6c79207468652073656c6c65722063616e20757064617465207468652069\n        /* \"#utility.yul\":33393:33394   */\n      0x00\n        /* \"#utility.yul\":33385:33391   */\n      dup3\n        /* \"#utility.yul\":33381:33395   */\n      add\n        /* \"#utility.yul\":33374:33432   */\n      mstore\n        /* \"#utility.yul\":33466:33476   */\n      0x6d6167652075726c000000000000000000000000000000000000000000000000\n        /* \"#utility.yul\":33461:33463   */\n      0x20\n        /* \"#utility.yul\":33453:33459   */\n      dup3\n        /* \"#utility.yul\":33449:33464   */\n      add\n        /* \"#utility.yul\":33442:33477   */\n      mstore\n        /* \"#utility.yul\":33257:33484   */\n      pop\n      jump\t// out\n        /* \"#utility.yul\":33490:33717   */\n    tag_506:\n        /* \"#utility.yul\":33630:33664   */\n      0x5374617273206d7573742062652067726561746572207468616e206f72206571\n        /* \"#utility.yul\":33626:33627   */\n      0x00\n        /* \"#utility.yul\":33618:33624   */\n      dup3\n        /* \"#utility.yul\":33614:33628   */\n      add\n        /* \"#utility.yul\":33607:33665   */\n      mstore\n        /* \"#utility.yul\":33699:33709   */\n      0x75616c20746f2031000000000000000000000000000000000000000000000000\n        /* \"#utility.yul\":33694:33696   */\n      0x20\n        /* \"#utility.yul\":33686:33692   */\n      dup3\n        /* \"#utility.yul\":33682:33697   */\n      add\n        /* \"#utility.yul\":33675:33710   */\n      mstore\n        /* \"#utility.yul\":33490:33717   */\n      pop\n      jump\t// out\n        /* \"#utility.yul\":33723:33950   */\n    tag_511:\n        /* \"#utility.yul\":33863:33897   */\n      0x4f6e6c79207468652073656c6c65722063616e206372656174652061206d6172\n        /* \"#utility.yul\":33859:33860   */\n      0x00\n        /* \"#utility.yul\":33851:33857   */\n      dup3\n        /* \"#utility.yul\":33847:33861   */\n      add\n        /* \"#utility.yul\":33840:33898   */\n      mstore\n        /* \"#utility.yul\":33932:33942   */\n      0x6b6574206974656d000000000000000000000000000000000000000000000000\n        /* \"#utility.yul\":33927:33929   */\n      0x20\n        /* \"#utility.yul\":33919:33925   */\n      dup3\n        /* \"#utility.yul\":33915:33930   */\n      add\n        /* \"#utility.yul\":33908:33943   */\n      mstore\n        /* \"#utility.yul\":33723:33950   */\n      pop\n      jump\t// out\n        /* \"#utility.yul\":33956:34128   */\n    tag_516:\n        /* \"#utility.yul\":34096:34120   */\n      0x5468652073656c6c65722063616e6e6f7420766f746500000000000000000000\n        /* \"#utility.yul\":34092:34093   */\n      0x00\n        /* \"#utility.yul\":34084:34090   */\n      dup3\n        /* \"#utility.yul\":34080:34094   */\n      add\n        /* \"#utility.yul\":34073:34121   */\n      mstore\n        /* \"#utility.yul\":33956:34128   */\n      pop\n      jump\t// out\n        /* \"#utility.yul\":34134:34358   */\n    tag_521:\n        /* \"#utility.yul\":34274:34308   */\n      0x5374617273206d757374206265206c657373207468616e206f7220657175616c\n        /* \"#utility.yul\":34270:34271   */\n      0x00\n        /* \"#utility.yul\":34262:34268   */\n      dup3\n        /* \"#utility.yul\":34258:34272   */\n      add\n        /* \"#utility.yul\":34251:34309   */\n      mstore\n        /* \"#utility.yul\":34343:34350   */\n      0x20746f2035000000000000000000000000000000000000000000000000000000\n        /* \"#utility.yul\":34338:34340   */\n      0x20\n        /* \"#utility.yul\":34330:34336   */\n      dup3\n        /* \"#utility.yul\":34326:34341   */\n      add\n        /* \"#utility.yul\":34319:34351   */\n      mstore\n        /* \"#utility.yul\":34134:34358   */\n      pop\n      jump\t// out\n        /* \"#utility.yul\":34364:34537   */\n    tag_526:\n        /* \"#utility.yul\":34504:34529   */\n      0x416363657373436f6e74726f6c3a206163636f756e7420000000000000000000\n        /* \"#utility.yul\":34500:34501   */\n      0x00\n        /* \"#utility.yul\":34492:34498   */\n      dup3\n        /* \"#utility.yul\":34488:34502   */\n      add\n        /* \"#utility.yul\":34481:34530   */\n      mstore\n        /* \"#utility.yul\":34364:34537   */\n      pop\n      jump\t// out\n        /* \"#utility.yul\":34543:34721   */\n    tag_531:\n        /* \"#utility.yul\":34683:34713   */\n      0x5072696365206d7573742062652067726561746572207468616e203000000000\n        /* \"#utility.yul\":34679:34680   */\n      0x00\n        /* \"#utility.yul\":34671:34677   */\n      dup3\n        /* \"#utility.yul\":34667:34681   */\n      add\n        /* \"#utility.yul\":34660:34714   */\n      mstore\n        /* \"#utility.yul\":34543:34721   */\n      pop\n      jump\t// out\n        /* \"#utility.yul\":34727:34894   */\n    tag_536:\n        /* \"#utility.yul\":34867:34886   */\n      0x206973206d697373696e6720726f6c6520000000000000000000000000000000\n        /* \"#utility.yul\":34863:34864   */\n      0x00\n        /* \"#utility.yul\":34855:34861   */\n      dup3\n        /* \"#utility.yul\":34851:34865   */\n      add\n        /* \"#utility.yul\":34844:34887   */\n      mstore\n        /* \"#utility.yul\":34727:34894   */\n      pop\n      jump\t// out\n        /* \"#utility.yul\":34900:35134   */\n    tag_541:\n        /* \"#utility.yul\":35040:35074   */\n      0x416363657373436f6e74726f6c3a2063616e206f6e6c792072656e6f756e6365\n        /* \"#utility.yul\":35036:35037   */\n      0x00\n        /* \"#utility.yul\":35028:35034   */\n      dup3\n        /* \"#utility.yul\":35024:35038   */\n      add\n        /* \"#utility.yul\":35017:35075   */\n      mstore\n        /* \"#utility.yul\":35109:35126   */\n      0x20726f6c657320666f722073656c660000000000000000000000000000000000\n        /* \"#utility.yul\":35104:35106   */\n      0x20\n        /* \"#utility.yul\":35096:35102   */\n      dup3\n        /* \"#utility.yul\":35092:35107   */\n      add\n        /* \"#utility.yul\":35085:35127   */\n      mstore\n        /* \"#utility.yul\":34900:35134   */\n      pop\n      jump\t// out\n        /* \"#utility.yul\":35140:35262   */\n    tag_338:\n        /* \"#utility.yul\":35213:35237   */\n      tag_714\n        /* \"#utility.yul\":35231:35236   */\n      dup2\n        /* \"#utility.yul\":35213:35237   */\n      tag_432\n      jump\t// in\n    tag_714:\n        /* \"#utility.yul\":35206:35211   */\n      dup2\n        /* \"#utility.yul\":35203:35238   */\n      eq\n        /* \"#utility.yul\":35193:35256   */\n      tag_715\n      jumpi\n        /* \"#utility.yul\":35252:35253   */\n      0x00\n        /* \"#utility.yul\":35249:35250   */\n      dup1\n        /* \"#utility.yul\":35242:35254   */\n      revert\n        /* \"#utility.yul\":35193:35256   */\n    tag_715:\n        /* \"#utility.yul\":35140:35262   */\n      pop\n      jump\t// out\n        /* \"#utility.yul\":35268:35406   */\n    tag_342:\n        /* \"#utility.yul\":35349:35381   */\n      tag_717\n        /* \"#utility.yul\":35375:35380   */\n      dup2\n        /* \"#utility.yul\":35349:35381   */\n      tag_428\n      jump\t// in\n    tag_717:\n        /* \"#utility.yul\":35342:35347   */\n      dup2\n        /* \"#utility.yul\":35339:35382   */\n      eq\n        /* \"#utility.yul\":35329:35400   */\n      tag_718\n      jumpi\n        /* \"#utility.yul\":35396:35397   */\n      0x00\n        /* \"#utility.yul\":35393:35394   */\n      dup1\n        /* \"#utility.yul\":35386:35398   */\n      revert\n        /* \"#utility.yul\":35329:35400   */\n    tag_718:\n        /* \"#utility.yul\":35268:35406   */\n      pop\n      jump\t// out\n        /* \"#utility.yul\":35412:35534   */\n    tag_346:\n        /* \"#utility.yul\":35485:35509   */\n      tag_720\n        /* \"#utility.yul\":35503:35508   */\n      dup2\n        /* \"#utility.yul\":35485:35509   */\n      tag_440\n      jump\t// in\n    tag_720:\n        /* \"#utility.yul\":35478:35483   */\n      dup2\n        /* \"#utility.yul\":35475:35510   */\n      eq\n        /* \"#utility.yul\":35465:35528   */\n      tag_721\n      jumpi\n        /* \"#utility.yul\":35524:35525   */\n      0x00\n        /* \"#utility.yul\":35521:35522   */\n      dup1\n        /* \"#utility.yul\":35514:35526   */\n      revert\n        /* \"#utility.yul\":35465:35528   */\n    tag_721:\n        /* \"#utility.yul\":35412:35534   */\n      pop\n      jump\t// out\n        /* \"#utility.yul\":35540:35660   */\n    tag_350:\n        /* \"#utility.yul\":35612:35635   */\n      tag_723\n        /* \"#utility.yul\":35629:35634   */\n      dup2\n        /* \"#utility.yul\":35612:35635   */\n      tag_650\n      jump\t// in\n    tag_723:\n        /* \"#utility.yul\":35605:35610   */\n      dup2\n        /* \"#utility.yul\":35602:35636   */\n      eq\n        /* \"#utility.yul\":35592:35654   */\n      tag_724\n      jumpi\n        /* \"#utility.yul\":35650:35651   */\n      0x00\n        /* \"#utility.yul\":35647:35648   */\n      dup1\n        /* \"#utility.yul\":35640:35652   */\n      revert\n        /* \"#utility.yul\":35592:35654   */\n    tag_724:\n        /* \"#utility.yul\":35540:35660   */\n      pop\n      jump\t// out\n        /* \"#utility.yul\":35666:35788   */\n    tag_360:\n        /* \"#utility.yul\":35739:35763   */\n      tag_726\n        /* \"#utility.yul\":35757:35762   */\n      dup2\n        /* \"#utility.yul\":35739:35763   */\n      tag_545\n      jump\t// in\n    tag_726:\n        /* \"#utility.yul\":35732:35737   */\n      dup2\n        /* \"#utility.yul\":35729:35764   */\n      eq\n        /* \"#utility.yul\":35719:35782   */\n      tag_727\n      jumpi\n        /* \"#utility.yul\":35778:35779   */\n      0x00\n        /* \"#utility.yul\":35775:35776   */\n      dup1\n        /* \"#utility.yul\":35768:35780   */\n      revert\n        /* \"#utility.yul\":35719:35782   */\n    tag_727:\n        /* \"#utility.yul\":35666:35788   */\n      pop\n      jump\t// out\n        /* \"#utility.yul\":35794:35912   */\n    tag_364:\n        /* \"#utility.yul\":35865:35887   */\n      tag_729\n        /* \"#utility.yul\":35881:35886   */\n      dup2\n        /* \"#utility.yul\":35865:35887   */\n      tag_549\n      jump\t// in\n    tag_729:\n        /* \"#utility.yul\":35858:35863   */\n      dup2\n        /* \"#utility.yul\":35855:35888   */\n      eq\n        /* \"#utility.yul\":35845:35906   */\n      tag_730\n      jumpi\n        /* \"#utility.yul\":35902:35903   */\n      0x00\n        /* \"#utility.yul\":35899:35900   */\n      dup1\n        /* \"#utility.yul\":35892:35904   */\n      revert\n        /* \"#utility.yul\":35845:35906   */\n    tag_730:\n        /* \"#utility.yul\":35794:35912   */\n      pop\n      jump\t// out\n\n    auxdata: 0xa264697066735822122010cf94dc7eb651fbdb7597b1efd9f2ed18b9d8475ba545e3df6e155f34060f4864736f6c63430008070033\n}\n",
				"bytecode": {
					"linkReferences": {},
					"object": "608060405260006001553480156200001657600080fd5b50620000497f1f9ca85e780b3b3cfbe1334ca9dd68802db7860f692bd163c796bb76d464edc0336200004f60201b60201c565b620001b2565b6200006182826200014060201b60201c565b6200013c57600160008084815260200190815260200160002060000160008373ffffffffffffffffffffffffffffffffffffffff1673ffffffffffffffffffffffffffffffffffffffff16815260200190815260200160002060006101000a81548160ff021916908315150217905550620000e1620001aa60201b60201c565b73ffffffffffffffffffffffffffffffffffffffff168173ffffffffffffffffffffffffffffffffffffffff16837f2f8788117e7eff1d82e926ec794901d17c78024a50270940304540a733656f0d60405160405180910390a45b5050565b600080600084815260200190815260200160002060000160008373ffffffffffffffffffffffffffffffffffffffff1673ffffffffffffffffffffffffffffffffffffffff16815260200190815260200160002060009054906101000a900460ff16905092915050565b600033905090565b61317780620001c26000396000f3fe60806040526004361061011f5760003560e01c806391d14854116100a0578063c7be7a4911610064578063c7be7a49146103ec578063d547741f1461042b578063eca1e6a014610454578063f0d2d06d1461047d578063fec4d15d146104a65761011f565b806391d1485414610307578063a217fddf14610344578063a6667d061461036f578063ae13a31714610398578063b491efa0146103c15761011f565b806336568abe116100e757806336568abe1461020c5780636a868974146102355780637735904f1461026057806388d9e84c1461029d5780638f28afee146102de5761011f565b806301ffc9a7146101245780630c3774fc146101615780631dfef0eb1461018a578063248a9ca3146101a65780632f2ff15d146101e3575b600080fd5b34801561013057600080fd5b5061014b60048036038101906101469190611f07565b6104e3565b60405161015891906124be565b60405180910390f35b34801561016d57600080fd5b506101886004803603810190610183919061211e565b61055d565b005b6101a4600480360381019061019f919061211e565b610746565b005b3480156101b257600080fd5b506101cd60048036038101906101c89190611e9a565b610a2c565b6040516101da91906124d9565b60405180910390f35b3480156101ef57600080fd5b5061020a60048036038101906102059190611ec7565b610a4b565b005b34801561021857600080fd5b50610233600480360381019061022e9190611ec7565b610a74565b005b34801561024157600080fd5b5061024a610af7565b6040516102579190612795565b60405180910390f35b34801561026c57600080fd5b5061028760048036038101906102829190612015565b610afd565b6040516102949190612795565b60405180910390f35b3480156102a957600080fd5b506102c460048036038101906102bf9190612015565b610c89565b6040516102d5959493929190612554565b60405180910390f35b3480156102ea57600080fd5b5061030560048036038101906103009190612082565b610f32565b005b34801561031357600080fd5b5061032e60048036038101906103299190611ec7565b611020565b60405161033b91906124be565b60405180910390f35b34801561035057600080fd5b5061035961108a565b60405161036691906124d9565b60405180910390f35b34801561037b57600080fd5b5061039660048036038101906103919190611f34565b611091565b005b3480156103a457600080fd5b506103bf60048036038101906103ba91906120de565b6112bd565b005b3480156103cd57600080fd5b506103d661139b565b6040516103e391906124d9565b60405180910390f35b3480156103f857600080fd5b50610413600480360381019061040e9190612015565b6113bf565b60405161042293929190612516565b60405180910390f35b34801561043757600080fd5b50610452600480360381019061044d9190611ec7565b6114c1565b005b34801561046057600080fd5b5061047b6004803603810190610476919061211e565b6114ea565b005b34801561048957600080fd5b506104a4600480360381019061049f9190612082565b6115dc565b005b3480156104b257600080fd5b506104cd60048036038101906104c89190612042565b6116ca565b6040516104da91906124be565b60405180910390f35b60007f7965db0b000000000000000000000000000000000000000000000000000000007bffffffffffffffffffffffffffffffffffffffffffffffffffffffff1916827bffffffffffffffffffffffffffffffffffffffffffffffffffffffff19161480610556575061055582611775565b5b9050919050565b6004600083815260200190815260200160002060040160009054906101000a900473ffffffffffffffffffffffffffffffffffffffff1673ffffffffffffffffffffffffffffffffffffffff163373ffffffffffffffffffffffffffffffffffffffff161415610602576040517f08c379a00000000000000000000000000000000000000000000000000000000081526004016105f990612715565b60405180910390fd5b60058160ff161115610649576040517f08c379a000000000000000000000000000000000000000000000000000000000815260040161064090612735565b60405180910390fd5b60018160ff161015610690576040517f08c379a0000000000000000000000000000000000000000000000000000000008152600401610687906126d5565b60405180910390fd5b61069a82336116ca565b6106d9576040517f08c379a00000000000000000000000000000000000000000000000000000000081526004016106d090612695565b60405180910390fd5b80600360003373ffffffffffffffffffffffffffffffffffffffff1673ffffffffffffffffffffffffffffffffffffffff168152602001908152602001600020600084815260200190815260200160002060006101000a81548160ff021916908360ff1602179055505050565b60008160ff16600460008581526020019081526020016000206003015461076d91906128f9565b90503481146107b1576040517f08c379a00000000000000000000000000000000000000000000000000000000081526004016107a890612615565b60405180910390fd5b60008260ff16116107f7576040517f08c379a00000000000000000000000000000000000000000000000000000000081526004016107ee906125b5565b60405180910390fd5b6004600084815260200190815260200160002060060160009054906101000a900460ff1660ff168260ff161115610863576040517f08c379a000000000000000000000000000000000000000000000000000000000815260040161085a906125d5565b60405180910390fd5b6004600084815260200190815260200160002060040160009054906101000a900473ffffffffffffffffffffffffffffffffffffffff1673ffffffffffffffffffffffffffffffffffffffff166108fc349081150290604051600060405180830381858888f193505050501580156108df573d6000803e3d6000fd5b50816004600085815260200190815260200160002060060160008282829054906101000a900460ff166109129190612953565b92506101000a81548160ff021916908360ff16021790555060026000848152602001908152602001600020339080600181540180825580915050600190039060005260206000200160009091909190916101000a81548173ffffffffffffffffffffffffffffffffffffffff021916908373ffffffffffffffffffffffffffffffffffffffff1602179055507ff2f622c4ee3232d0d08c3870751d38ddef2eaf0e7e0c5d38239c7dc8921ca6808360046000868152602001908152602001600020600301546004600087815260200190815260200160002060040160009054906101000a900473ffffffffffffffffffffffffffffffffffffffff1633604051610a1f94939291906127b0565b60405180910390a1505050565b6000806000838152602001908152602001600020600101549050919050565b610a5482610a2c565b610a6581610a606117df565b6117e7565b610a6f8383611884565b505050565b610a7c6117df565b73ffffffffffffffffffffffffffffffffffffffff168173ffffffffffffffffffffffffffffffffffffffff1614610ae9576040517f08c379a0000000000000000000000000000000000000000000000000000000008152600401610ae090612775565b60405180910390fd5b610af38282611964565b5050565b60015481565b600080600090506000805b6002600086815260200190815260200160002080549050811015610c73576000600260008781526020019081526020016000208281548110610b4d57610b4c612bff565b5b9060005260206000200160009054906101000a900473ffffffffffffffffffffffffffffffffffffffff1690506000600360008373ffffffffffffffffffffffffffffffffffffffff1673ffffffffffffffffffffffffffffffffffffffff168152602001908152602001600020600088815260200190815260200160002060009054906101000a900460ff1660ff1614610c5f57600360008273ffffffffffffffffffffffffffffffffffffffff1673ffffffffffffffffffffffffffffffffffffffff168152602001908152602001600020600087815260200190815260200160002060009054906101000a900460ff1660ff1684610c4e9190612872565b93508280610c5b90612b29565b9350505b508080610c6b90612b29565b915050610b08565b508082610c8091906128c8565b92505050919050565b606080600080600080600460008881526020019081526020016000206040518061012001604052908160008201548152602001600182018054610ccb90612ac6565b80601f0160208091040260200160405190810160405280929190818152602001828054610cf790612ac6565b8015610d445780601f10610d1957610100808354040283529160200191610d44565b820191906000526020600020905b815481529060010190602001808311610d2757829003601f168201915b50505050508152602001600282018054610d5d90612ac6565b80601f0160208091040260200160405190810160405280929190818152602001828054610d8990612ac6565b8015610dd65780601f10610dab57610100808354040283529160200191610dd6565b820191906000526020600020905b815481529060010190602001808311610db957829003601f168201915b50505050508152602001600382015481526020016004820160009054906101000a900473ffffffffffffffffffffffffffffffffffffffff1673ffffffffffffffffffffffffffffffffffffffff1673ffffffffffffffffffffffffffffffffffffffff168152602001600582018054610e4f90612ac6565b80601f0160208091040260200160405190810160405280929190818152602001828054610e7b90612ac6565b8015610ec85780601f10610e9d57610100808354040283529160200191610ec8565b820191906000526020600020905b815481529060010190602001808311610eab57829003601f168201915b505050505081526020016006820160009054906101000a900460ff1660ff1660ff16815260200160078201548152602001600882015481525050905080604001518160a001518260c001518360e00151846101000151955095509550955095505091939590929450565b6004600083815260200190815260200160002060040160009054906101000a900473ffffffffffffffffffffffffffffffffffffffff1673ffffffffffffffffffffffffffffffffffffffff163373ffffffffffffffffffffffffffffffffffffffff1614610fd6576040517f08c379a0000000000000000000000000000000000000000000000000000000008152600401610fcd90612675565b60405180910390fd5b80600460008481526020019081526020016000206002019080519060200190611000929190611d09565b504260046000848152602001908152602001600020600801819055505050565b600080600084815260200190815260200160002060000160008373ffffffffffffffffffffffffffffffffffffffff1673ffffffffffffffffffffffffffffffffffffffff16815260200190815260200160002060009054906101000a900460ff16905092915050565b6000801b81565b8373ffffffffffffffffffffffffffffffffffffffff163373ffffffffffffffffffffffffffffffffffffffff16146110ff576040517f08c379a00000000000000000000000000000000000000000000000000000000081526004016110f6906126f5565b60405180910390fd5b60008311611142576040517f08c379a000000000000000000000000000000000000000000000000000000000815260040161113990612755565b60405180910390fd5b60405180610120016040528060015481526020018781526020018681526020018481526020018573ffffffffffffffffffffffffffffffffffffffff1681526020018381526020018260ff168152602001428152602001428152506004600060015481526020019081526020016000206000820151816000015560208201518160010190805190602001906111d8929190611d09565b5060408201518160020190805190602001906111f5929190611d09565b506060820151816003015560808201518160040160006101000a81548173ffffffffffffffffffffffffffffffffffffffff021916908373ffffffffffffffffffffffffffffffffffffffff16021790555060a0820151816005019080519060200190611263929190611d09565b5060c08201518160060160006101000a81548160ff021916908360ff16021790555060e082015181600701556101008201518160080155905050600160008154809291906112b090612b29565b9190505550505050505050565b6004600083815260200190815260200160002060040160009054906101000a900473ffffffffffffffffffffffffffffffffffffffff1673ffffffffffffffffffffffffffffffffffffffff163373ffffffffffffffffffffffffffffffffffffffff1614611361576040517f08c379a000000000000000000000000000000000000000000000000000000000815260040161135890612655565b60405180910390fd5b8060046000848152602001908152602001600020600301819055504260046000848152602001908152602001600020600801819055505050565b7f1f9ca85e780b3b3cfbe1334ca9dd68802db7860f692bd163c796bb76d464edc081565b6060600080600460008581526020019081526020016000206001016004600086815260200190815260200160002060040160009054906101000a900473ffffffffffffffffffffffffffffffffffffffff16600460008781526020019081526020016000206003015482805461143490612ac6565b80601f016020809104026020016040519081016040528092919081815260200182805461146090612ac6565b80156114ad5780601f10611482576101008083540402835291602001916114ad565b820191906000526020600020905b81548152906001019060200180831161149057829003601f168201915b505050505092509250925092509193909250565b6114ca82610a2c565b6114db816114d66117df565b6117e7565b6114e58383611964565b505050565b6004600083815260200190815260200160002060040160009054906101000a900473ffffffffffffffffffffffffffffffffffffffff1673ffffffffffffffffffffffffffffffffffffffff163373ffffffffffffffffffffffffffffffffffffffff161461158e576040517f08c379a000000000000000000000000000000000000000000000000000000000815260040161158590612635565b60405180910390fd5b806004600084815260200190815260200160002060060160006101000a81548160ff021916908360ff1602179055504260046000848152602001908152602001600020600801819055505050565b6004600083815260200190815260200160002060040160009054906101000a900473ffffffffffffffffffffffffffffffffffffffff1673ffffffffffffffffffffffffffffffffffffffff163373ffffffffffffffffffffffffffffffffffffffff1614611680576040517f08c379a0000000000000000000000000000000000000000000000000000000008152600401611677906126b5565b60405180910390fd5b806004600084815260200190815260200160002060050190805190602001906116aa929190611d09565b504260046000848152602001908152602001600020600801819055505050565b600061176d6002600085815260200190815260200160002080548060200260200160405190810160405280929190818152602001828054801561176257602002820191906000526020600020905b8160009054906101000a900473ffffffffffffffffffffffffffffffffffffffff1673ffffffffffffffffffffffffffffffffffffffff1681526020019060010190808311611718575b505050505083611a45565b905092915050565b60007f01ffc9a7000000000000000000000000000000000000000000000000000000007bffffffffffffffffffffffffffffffffffffffffffffffffffffffff1916827bffffffffffffffffffffffffffffffffffffffffffffffffffffffff1916149050919050565b600033905090565b6117f18282611020565b611880576118168173ffffffffffffffffffffffffffffffffffffffff166014611acd565b6118248360001c6020611acd565b604051602001611835929190612484565b6040516020818303038152906040526040517f08c379a000000000000000000000000000000000000000000000000000000000815260040161187791906124f4565b60405180910390fd5b5050565b61188e8282611020565b61196057600160008084815260200190815260200160002060000160008373ffffffffffffffffffffffffffffffffffffffff1673ffffffffffffffffffffffffffffffffffffffff16815260200190815260200160002060006101000a81548160ff0219169083151502179055506119056117df565b73ffffffffffffffffffffffffffffffffffffffff168173ffffffffffffffffffffffffffffffffffffffff16837f2f8788117e7eff1d82e926ec794901d17c78024a50270940304540a733656f0d60405160405180910390a45b5050565b61196e8282611020565b15611a4157600080600084815260200190815260200160002060000160008373ffffffffffffffffffffffffffffffffffffffff1673ffffffffffffffffffffffffffffffffffffffff16815260200190815260200160002060006101000a81548160ff0219169083151502179055506119e66117df565b73ffffffffffffffffffffffffffffffffffffffff168173ffffffffffffffffffffffffffffffffffffffff16837ff6391f5c32d9c69d2a47ea670b442974b53935d1edc7fd64eb21e047a839171b60405160405180910390a45b5050565b600080600090505b8351811015611ac1578273ffffffffffffffffffffffffffffffffffffffff16848281518110611a8057611a7f612bff565b5b602002602001015173ffffffffffffffffffffffffffffffffffffffff161415611aae576001915050611ac7565b8080611ab990612b29565b915050611a4d565b50600090505b92915050565b606060006002836002611ae091906128f9565b611aea9190612872565b67ffffffffffffffff811115611b0357611b02612c2e565b5b6040519080825280601f01601f191660200182016040528015611b355781602001600182028036833780820191505090505b5090507f300000000000000000000000000000000000000000000000000000000000000081600081518110611b6d57611b6c612bff565b5b60200101907effffffffffffffffffffffffffffffffffffffffffffffffffffffffffffff1916908160001a9053507f780000000000000000000000000000000000000000000000000000000000000081600181518110611bd157611bd0612bff565b5b60200101907effffffffffffffffffffffffffffffffffffffffffffffffffffffffffffff1916908160001a90535060006001846002611c1191906128f9565b611c1b9190612872565b90505b6001811115611cbb577f3031323334353637383961626364656600000000000000000000000000000000600f861660108110611c5d57611c5c612bff565b5b1a60f81b828281518110611c7457611c73612bff565b5b60200101907effffffffffffffffffffffffffffffffffffffffffffffffffffffffffffff1916908160001a905350600485901c945080611cb490612a9c565b9050611c1e565b5060008414611cff576040517f08c379a0000000000000000000000000000000000000000000000000000000008152600401611cf6906125f5565b60405180910390fd5b8091505092915050565b828054611d1590612ac6565b90600052602060002090601f016020900481019282611d375760008555611d7e565b82601f10611d5057805160ff1916838001178555611d7e565b82800160010185558215611d7e579182015b82811115611d7d578251825591602001919060010190611d62565b5b509050611d8b9190611d8f565b5090565b5b80821115611da8576000816000905550600101611d90565b5090565b6000611dbf611dba8461281a565b6127f5565b905082815260208101848484011115611ddb57611dda612c62565b5b611de6848285612a5a565b509392505050565b600081359050611dfd816130b7565b92915050565b600081359050611e12816130ce565b92915050565b600081359050611e27816130e5565b92915050565b600081359050611e3c816130fc565b92915050565b600082601f830112611e5757611e56612c5d565b5b8135611e67848260208601611dac565b91505092915050565b600081359050611e7f81613113565b92915050565b600081359050611e948161312a565b92915050565b600060208284031215611eb057611eaf612c6c565b5b6000611ebe84828501611e18565b91505092915050565b60008060408385031215611ede57611edd612c6c565b5b6000611eec85828601611e18565b9250506020611efd85828601611dee565b9150509250929050565b600060208284031215611f1d57611f1c612c6c565b5b6000611f2b84828501611e2d565b91505092915050565b60008060008060008060c08789031215611f5157611f50612c6c565b5b600087013567ffffffffffffffff811115611f6f57611f6e612c67565b5b611f7b89828a01611e42565b965050602087013567ffffffffffffffff811115611f9c57611f9b612c67565b5b611fa889828a01611e42565b9550506040611fb989828a01611e03565b9450506060611fca89828a01611e70565b935050608087013567ffffffffffffffff811115611feb57611fea612c67565b5b611ff789828a01611e42565b92505060a061200889828a01611e85565b9150509295509295509295565b60006020828403121561202b5761202a612c6c565b5b600061203984828501611e70565b91505092915050565b6000806040838503121561205957612058612c6c565b5b600061206785828601611e70565b925050602061207885828601611dee565b9150509250929050565b6000806040838503121561209957612098612c6c565b5b60006120a785828601611e70565b925050602083013567ffffffffffffffff8111156120c8576120c7612c67565b5b6120d485828601611e42565b9150509250929050565b600080604083850312156120f5576120f4612c6c565b5b600061210385828601611e70565b925050602061211485828601611e70565b9150509250929050565b6000806040838503121561213557612134612c6c565b5b600061214385828601611e70565b925050602061215485828601611e85565b9150509250929050565b61216781612a24565b82525050565b61217681612999565b82525050565b61218581612987565b82525050565b612194816129ab565b82525050565b6121a3816129b7565b82525050565b60006121b48261284b565b6121be8185612856565b93506121ce818560208601612a69565b6121d781612c71565b840191505092915050565b60006121ed8261284b565b6121f78185612867565b9350612207818560208601612a69565b80840191505092915050565b6000612220601f83612856565b915061222b82612c82565b602082019050919050565b6000612243603d83612856565b915061224e82612cab565b604082019050919050565b6000612266602083612856565b915061227182612cfa565b602082019050919050565b6000612289601483612856565b915061229482612d23565b602082019050919050565b60006122ac602783612856565b91506122b782612d4c565b604082019050919050565b60006122cf602483612856565b91506122da82612d9b565b604082019050919050565b60006122f2602a83612856565b91506122fd82612dea565b604082019050919050565b6000612315602183612856565b915061232082612e39565b604082019050919050565b6000612338602883612856565b915061234382612e88565b604082019050919050565b600061235b602883612856565b915061236682612ed7565b604082019050919050565b600061237e602883612856565b915061238982612f26565b604082019050919050565b60006123a1601683612856565b91506123ac82612f75565b602082019050919050565b60006123c4602583612856565b91506123cf82612f9e565b604082019050919050565b60006123e7601783612867565b91506123f282612fed565b601782019050919050565b600061240a601c83612856565b915061241582613016565b602082019050919050565b600061242d601183612867565b91506124388261303f565b601182019050919050565b6000612450602f83612856565b915061245b82613068565b604082019050919050565b61246f81612a0d565b82525050565b61247e81612a17565b82525050565b600061248f826123da565b915061249b82856121e2565b91506124a682612420565b91506124b282846121e2565b91508190509392505050565b60006020820190506124d3600083018461218b565b92915050565b60006020820190506124ee600083018461219a565b92915050565b6000602082019050818103600083015261250e81846121a9565b905092915050565b6000606082019050818103600083015261253081866121a9565b905061253f602083018561216d565b61254c6040830184612466565b949350505050565b600060a082019050818103600083015261256e81886121a9565b9050818103602083015261258281876121a9565b90506125916040830186612475565b61259e6060830185612466565b6125ab6080830184612466565b9695505050505050565b600060208201905081810360008301526125ce81612213565b9050919050565b600060208201905081810360008301526125ee81612236565b9050919050565b6000602082019050818103600083015261260e81612259565b9050919050565b6000602082019050818103600083015261262e8161227c565b9050919050565b6000602082019050818103600083015261264e8161229f565b9050919050565b6000602082019050818103600083015261266e816122c2565b9050919050565b6000602082019050818103600083015261268e816122e5565b9050919050565b600060208201905081810360008301526126ae81612308565b9050919050565b600060208201905081810360008301526126ce8161232b565b9050919050565b600060208201905081810360008301526126ee8161234e565b9050919050565b6000602082019050818103600083015261270e81612371565b9050919050565b6000602082019050818103600083015261272e81612394565b9050919050565b6000602082019050818103600083015261274e816123b7565b9050919050565b6000602082019050818103600083015261276e816123fd565b9050919050565b6000602082019050818103600083015261278e81612443565b9050919050565b60006020820190506127aa6000830184612466565b92915050565b60006080820190506127c56000830187612466565b6127d26020830186612466565b6127df604083018561215e565b6127ec606083018461217c565b95945050505050565b60006127ff612810565b905061280b8282612af8565b919050565b6000604051905090565b600067ffffffffffffffff82111561283557612834612c2e565b5b61283e82612c71565b9050602081019050919050565b600081519050919050565b600082825260208201905092915050565b600081905092915050565b600061287d82612a0d565b915061288883612a0d565b9250827fffffffffffffffffffffffffffffffffffffffffffffffffffffffffffffffff038211156128bd576128bc612b72565b5b828201905092915050565b60006128d382612a0d565b91506128de83612a0d565b9250826128ee576128ed612ba1565b5b828204905092915050565b600061290482612a0d565b915061290f83612a0d565b9250817fffffffffffffffffffffffffffffffffffffffffffffffffffffffffffffffff048311821515161561294857612947612b72565b5b828202905092915050565b600061295e82612a17565b915061296983612a17565b92508282101561297c5761297b612b72565b5b828203905092915050565b6000612992826129ed565b9050919050565b60006129a4826129ed565b9050919050565b60008115159050919050565b6000819050919050565b60007fffffffff0000000000000000000000000000000000000000000000000000000082169050919050565b600073ffffffffffffffffffffffffffffffffffffffff82169050919050565b6000819050919050565b600060ff82169050919050565b6000612a2f82612a36565b9050919050565b6000612a4182612a48565b9050919050565b6000612a53826129ed565b9050919050565b82818337600083830152505050565b60005b83811015612a87578082015181840152602081019050612a6c565b83811115612a96576000848401525b50505050565b6000612aa782612a0d565b91506000821415612abb57612aba612b72565b5b600182039050919050565b60006002820490506001821680612ade57607f821691505b60208210811415612af257612af1612bd0565b5b50919050565b612b0182612c71565b810181811067ffffffffffffffff82111715612b2057612b1f612c2e565b5b80604052505050565b6000612b3482612a0d565b91507fffffffffffffffffffffffffffffffffffffffffffffffffffffffffffffffff821415612b6757612b66612b72565b5b600182019050919050565b7f4e487b7100000000000000000000000000000000000000000000000000000000600052601160045260246000fd5b7f4e487b7100000000000000000000000000000000000000000000000000000000600052601260045260246000fd5b7f4e487b7100000000000000000000000000000000000000000000000000000000600052602260045260246000fd5b7f4e487b7100000000000000000000000000000000000000000000000000000000600052603260045260246000fd5b7f4e487b7100000000000000000000000000000000000000000000000000000000600052604160045260246000fd5b600080fd5b600080fd5b600080fd5b600080fd5b6000601f19601f8301169050919050565b7f5175616e74697479206d7573742062652067726561746572207468616e203000600082015250565b7f5175616e74697479206d757374206265206c657373207468616e206f7220657160008201527f75616c20746f2074686520617661696c61626c65207175616e74697479000000602082015250565b7f537472696e67733a20686578206c656e67746820696e73756666696369656e74600082015250565b7f507269636520646f6573206e6f74206d61746368000000000000000000000000600082015250565b7f4f6e6c79207468652073656c6c65722063616e2075706461746520746865207160008201527f75616e7469747900000000000000000000000000000000000000000000000000602082015250565b7f4f6e6c79207468652073656c6c65722063616e2075706461746520746865207060008201527f7269636500000000000000000000000000000000000000000000000000000000602082015250565b7f4f6e6c79207468652073656c6c65722063616e2075706461746520746865206460008201527f65736372697074696f6e00000000000000000000000000000000000000000000602082015250565b7f596f752063616e6e6f7420766f746520666f7220746869732070726f6475637460008201527f2e00000000000000000000000000000000000000000000000000000000000000602082015250565b7f4f6e6c79207468652073656c6c65722063616e2075706461746520746865206960008201527f6d6167652075726c000000000000000000000000000000000000000000000000602082015250565b7f5374617273206d7573742062652067726561746572207468616e206f7220657160008201527f75616c20746f2031000000000000000000000000000000000000000000000000602082015250565b7f4f6e6c79207468652073656c6c65722063616e206372656174652061206d617260008201527f6b6574206974656d000000000000000000000000000000000000000000000000602082015250565b7f5468652073656c6c65722063616e6e6f7420766f746500000000000000000000600082015250565b7f5374617273206d757374206265206c657373207468616e206f7220657175616c60008201527f20746f2035000000000000000000000000000000000000000000000000000000602082015250565b7f416363657373436f6e74726f6c3a206163636f756e7420000000000000000000600082015250565b7f5072696365206d7573742062652067726561746572207468616e203000000000600082015250565b7f206973206d697373696e6720726f6c6520000000000000000000000000000000600082015250565b7f416363657373436f6e74726f6c3a2063616e206f6e6c792072656e6f756e636560008201527f20726f6c657320666f722073656c660000000000000000000000000000000000602082015250565b6130c081612987565b81146130cb57600080fd5b50565b6130d781612999565b81146130e257600080fd5b50565b6130ee816129b7565b81146130f957600080fd5b50565b613105816129c1565b811461311057600080fd5b50565b61311c81612a0d565b811461312757600080fd5b50565b61313381612a17565b811461313e57600080fd5b5056fea264697066735822122010cf94dc7eb651fbdb7597b1efd9f2ed18b9d8475ba545e3df6e155f34060f4864736f6c63430008070033",
					"opcodes": "PUSH1 0x80 PUSH1 0x40 MSTORE PUSH1 0x0 PUSH1 0x1 SSTORE CALLVALUE DUP1 ISZERO PUSH3 0x16 JUMPI PUSH1 0x0 DUP1 REVERT JUMPDEST POP PUSH3 0x49 PUSH32 0x1F9CA85E780B3B3CFBE1334CA9DD68802DB7860F692BD163C796BB76D464EDC0 CALLER PUSH3 0x4F PUSH1 0x20 SHL PUSH1 0x20 SHR JUMP JUMPDEST PUSH3 0x1B2 JUMP JUMPDEST PUSH3 0x61 DUP3 DUP3 PUSH3 0x140 PUSH1 0x20 SHL PUSH1 0x20 SHR JUMP JUMPDEST PUSH3 0x13C JUMPI PUSH1 0x1 PUSH1 0x0 DUP1 DUP5 DUP2 MSTORE PUSH1 0x20 ADD SWAP1 DUP2 MSTORE PUSH1 0x20 ADD PUSH1 0x0 KECCAK256 PUSH1 0x0 ADD PUSH1 0x0 DUP4 PUSH20 0xFFFFFFFFFFFFFFFFFFFFFFFFFFFFFFFFFFFFFFFF AND PUSH20 0xFFFFFFFFFFFFFFFFFFFFFFFFFFFFFFFFFFFFFFFF AND DUP2 MSTORE PUSH1 0x20 ADD SWAP1 DUP2 MSTORE PUSH1 0x20 ADD PUSH1 0x0 KECCAK256 PUSH1 0x0 PUSH2 0x100 EXP DUP2 SLOAD DUP2 PUSH1 0xFF MUL NOT AND SWAP1 DUP4 ISZERO ISZERO MUL OR SWAP1 SSTORE POP PUSH3 0xE1 PUSH3 0x1AA PUSH1 0x20 SHL PUSH1 0x20 SHR JUMP JUMPDEST PUSH20 0xFFFFFFFFFFFFFFFFFFFFFFFFFFFFFFFFFFFFFFFF AND DUP2 PUSH20 0xFFFFFFFFFFFFFFFFFFFFFFFFFFFFFFFFFFFFFFFF AND DUP4 PUSH32 0x2F8788117E7EFF1D82E926EC794901D17C78024A50270940304540A733656F0D PUSH1 0x40 MLOAD PUSH1 0x40 MLOAD DUP1 SWAP2 SUB SWAP1 LOG4 JUMPDEST POP POP JUMP JUMPDEST PUSH1 0x0 DUP1 PUSH1 0x0 DUP5 DUP2 MSTORE PUSH1 0x20 ADD SWAP1 DUP2 MSTORE PUSH1 0x20 ADD PUSH1 0x0 KECCAK256 PUSH1 0x0 ADD PUSH1 0x0 DUP4 PUSH20 0xFFFFFFFFFFFFFFFFFFFFFFFFFFFFFFFFFFFFFFFF AND PUSH20 0xFFFFFFFFFFFFFFFFFFFFFFFFFFFFFFFFFFFFFFFF AND DUP2 MSTORE PUSH1 0x20 ADD SWAP1 DUP2 MSTORE PUSH1 0x20 ADD PUSH1 0x0 KECCAK256 PUSH1 0x0 SWAP1 SLOAD SWAP1 PUSH2 0x100 EXP SWAP1 DIV PUSH1 0xFF AND SWAP1 POP SWAP3 SWAP2 POP POP JUMP JUMPDEST PUSH1 0x0 CALLER SWAP1 POP SWAP1 JUMP JUMPDEST PUSH2 0x3177 DUP1 PUSH3 0x1C2 PUSH1 0x0 CODECOPY PUSH1 0x0 RETURN INVALID PUSH1 0x80 PUSH1 0x40 MSTORE PUSH1 0x4 CALLDATASIZE LT PUSH2 0x11F JUMPI PUSH1 0x0 CALLDATALOAD PUSH1 0xE0 SHR DUP1 PUSH4 0x91D14854 GT PUSH2 0xA0 JUMPI DUP1 PUSH4 0xC7BE7A49 GT PUSH2 0x64 JUMPI DUP1 PUSH4 0xC7BE7A49 EQ PUSH2 0x3EC JUMPI DUP1 PUSH4 0xD547741F EQ PUSH2 0x42B JUMPI DUP1 PUSH4 0xECA1E6A0 EQ PUSH2 0x454 JUMPI DUP1 PUSH4 0xF0D2D06D EQ PUSH2 0x47D JUMPI DUP1 PUSH4 0xFEC4D15D EQ PUSH2 0x4A6 JUMPI PUSH2 0x11F JUMP JUMPDEST DUP1 PUSH4 0x91D14854 EQ PUSH2 0x307 JUMPI DUP1 PUSH4 0xA217FDDF EQ PUSH2 0x344 JUMPI DUP1 PUSH4 0xA6667D06 EQ PUSH2 0x36F JUMPI DUP1 PUSH4 0xAE13A317 EQ PUSH2 0x398 JUMPI DUP1 PUSH4 0xB491EFA0 EQ PUSH2 0x3C1 JUMPI PUSH2 0x11F JUMP JUMPDEST DUP1 PUSH4 0x36568ABE GT PUSH2 0xE7 JUMPI DUP1 PUSH4 0x36568ABE EQ PUSH2 0x20C JUMPI DUP1 PUSH4 0x6A868974 EQ PUSH2 0x235 JUMPI DUP1 PUSH4 0x7735904F EQ PUSH2 0x260 JUMPI DUP1 PUSH4 0x88D9E84C EQ PUSH2 0x29D JUMPI DUP1 PUSH4 0x8F28AFEE EQ PUSH2 0x2DE JUMPI PUSH2 0x11F JUMP JUMPDEST DUP1 PUSH4 0x1FFC9A7 EQ PUSH2 0x124 JUMPI DUP1 PUSH4 0xC3774FC EQ PUSH2 0x161 JUMPI DUP1 PUSH4 0x1DFEF0EB EQ PUSH2 0x18A JUMPI DUP1 PUSH4 0x248A9CA3 EQ PUSH2 0x1A6 JUMPI DUP1 PUSH4 0x2F2FF15D EQ PUSH2 0x1E3 JUMPI JUMPDEST PUSH1 0x0 DUP1 REVERT JUMPDEST CALLVALUE DUP1 ISZERO PUSH2 0x130 JUMPI PUSH1 0x0 DUP1 REVERT JUMPDEST POP PUSH2 0x14B PUSH1 0x4 DUP1 CALLDATASIZE SUB DUP2 ADD SWAP1 PUSH2 0x146 SWAP2 SWAP1 PUSH2 0x1F07 JUMP JUMPDEST PUSH2 0x4E3 JUMP JUMPDEST PUSH1 0x40 MLOAD PUSH2 0x158 SWAP2 SWAP1 PUSH2 0x24BE JUMP JUMPDEST PUSH1 0x40 MLOAD DUP1 SWAP2 SUB SWAP1 RETURN JUMPDEST CALLVALUE DUP1 ISZERO PUSH2 0x16D JUMPI PUSH1 0x0 DUP1 REVERT JUMPDEST POP PUSH2 0x188 PUSH1 0x4 DUP1 CALLDATASIZE SUB DUP2 ADD SWAP1 PUSH2 0x183 SWAP2 SWAP1 PUSH2 0x211E JUMP JUMPDEST PUSH2 0x55D JUMP JUMPDEST STOP JUMPDEST PUSH2 0x1A4 PUSH1 0x4 DUP1 CALLDATASIZE SUB DUP2 ADD SWAP1 PUSH2 0x19F SWAP2 SWAP1 PUSH2 0x211E JUMP JUMPDEST PUSH2 0x746 JUMP JUMPDEST STOP JUMPDEST CALLVALUE DUP1 ISZERO PUSH2 0x1B2 JUMPI PUSH1 0x0 DUP1 REVERT JUMPDEST POP PUSH2 0x1CD PUSH1 0x4 DUP1 CALLDATASIZE SUB DUP2 ADD SWAP1 PUSH2 0x1C8 SWAP2 SWAP1 PUSH2 0x1E9A JUMP JUMPDEST PUSH2 0xA2C JUMP JUMPDEST PUSH1 0x40 MLOAD PUSH2 0x1DA SWAP2 SWAP1 PUSH2 0x24D9 JUMP JUMPDEST PUSH1 0x40 MLOAD DUP1 SWAP2 SUB SWAP1 RETURN JUMPDEST CALLVALUE DUP1 ISZERO PUSH2 0x1EF JUMPI PUSH1 0x0 DUP1 REVERT JUMPDEST POP PUSH2 0x20A PUSH1 0x4 DUP1 CALLDATASIZE SUB DUP2 ADD SWAP1 PUSH2 0x205 SWAP2 SWAP1 PUSH2 0x1EC7 JUMP JUMPDEST PUSH2 0xA4B JUMP JUMPDEST STOP JUMPDEST CALLVALUE DUP1 ISZERO PUSH2 0x218 JUMPI PUSH1 0x0 DUP1 REVERT JUMPDEST POP PUSH2 0x233 PUSH1 0x4 DUP1 CALLDATASIZE SUB DUP2 ADD SWAP1 PUSH2 0x22E SWAP2 SWAP1 PUSH2 0x1EC7 JUMP JUMPDEST PUSH2 0xA74 JUMP JUMPDEST STOP JUMPDEST CALLVALUE DUP1 ISZERO PUSH2 0x241 JUMPI PUSH1 0x0 DUP1 REVERT JUMPDEST POP PUSH2 0x24A PUSH2 0xAF7 JUMP JUMPDEST PUSH1 0x40 MLOAD PUSH2 0x257 SWAP2 SWAP1 PUSH2 0x2795 JUMP JUMPDEST PUSH1 0x40 MLOAD DUP1 SWAP2 SUB SWAP1 RETURN JUMPDEST CALLVALUE DUP1 ISZERO PUSH2 0x26C JUMPI PUSH1 0x0 DUP1 REVERT JUMPDEST POP PUSH2 0x287 PUSH1 0x4 DUP1 CALLDATASIZE SUB DUP2 ADD SWAP1 PUSH2 0x282 SWAP2 SWAP1 PUSH2 0x2015 JUMP JUMPDEST PUSH2 0xAFD JUMP JUMPDEST PUSH1 0x40 MLOAD PUSH2 0x294 SWAP2 SWAP1 PUSH2 0x2795 JUMP JUMPDEST PUSH1 0x40 MLOAD DUP1 SWAP2 SUB SWAP1 RETURN JUMPDEST CALLVALUE DUP1 ISZERO PUSH2 0x2A9 JUMPI PUSH1 0x0 DUP1 REVERT JUMPDEST POP PUSH2 0x2C4 PUSH1 0x4 DUP1 CALLDATASIZE SUB DUP2 ADD SWAP1 PUSH2 0x2BF SWAP2 SWAP1 PUSH2 0x2015 JUMP JUMPDEST PUSH2 0xC89 JUMP JUMPDEST PUSH1 0x40 MLOAD PUSH2 0x2D5 SWAP6 SWAP5 SWAP4 SWAP3 SWAP2 SWAP1 PUSH2 0x2554 JUMP JUMPDEST PUSH1 0x40 MLOAD DUP1 SWAP2 SUB SWAP1 RETURN JUMPDEST CALLVALUE DUP1 ISZERO PUSH2 0x2EA JUMPI PUSH1 0x0 DUP1 REVERT JUMPDEST POP PUSH2 0x305 PUSH1 0x4 DUP1 CALLDATASIZE SUB DUP2 ADD SWAP1 PUSH2 0x300 SWAP2 SWAP1 PUSH2 0x2082 JUMP JUMPDEST PUSH2 0xF32 JUMP JUMPDEST STOP JUMPDEST CALLVALUE DUP1 ISZERO PUSH2 0x313 JUMPI PUSH1 0x0 DUP1 REVERT JUMPDEST POP PUSH2 0x32E PUSH1 0x4 DUP1 CALLDATASIZE SUB DUP2 ADD SWAP1 PUSH2 0x329 SWAP2 SWAP1 PUSH2 0x1EC7 JUMP JUMPDEST PUSH2 0x1020 JUMP JUMPDEST PUSH1 0x40 MLOAD PUSH2 0x33B SWAP2 SWAP1 PUSH2 0x24BE JUMP JUMPDEST PUSH1 0x40 MLOAD DUP1 SWAP2 SUB SWAP1 RETURN JUMPDEST CALLVALUE DUP1 ISZERO PUSH2 0x350 JUMPI PUSH1 0x0 DUP1 REVERT JUMPDEST POP PUSH2 0x359 PUSH2 0x108A JUMP JUMPDEST PUSH1 0x40 MLOAD PUSH2 0x366 SWAP2 SWAP1 PUSH2 0x24D9 JUMP JUMPDEST PUSH1 0x40 MLOAD DUP1 SWAP2 SUB SWAP1 RETURN JUMPDEST CALLVALUE DUP1 ISZERO PUSH2 0x37B JUMPI PUSH1 0x0 DUP1 REVERT JUMPDEST POP PUSH2 0x396 PUSH1 0x4 DUP1 CALLDATASIZE SUB DUP2 ADD SWAP1 PUSH2 0x391 SWAP2 SWAP1 PUSH2 0x1F34 JUMP JUMPDEST PUSH2 0x1091 JUMP JUMPDEST STOP JUMPDEST CALLVALUE DUP1 ISZERO PUSH2 0x3A4 JUMPI PUSH1 0x0 DUP1 REVERT JUMPDEST POP PUSH2 0x3BF PUSH1 0x4 DUP1 CALLDATASIZE SUB DUP2 ADD SWAP1 PUSH2 0x3BA SWAP2 SWAP1 PUSH2 0x20DE JUMP JUMPDEST PUSH2 0x12BD JUMP JUMPDEST STOP JUMPDEST CALLVALUE DUP1 ISZERO PUSH2 0x3CD JUMPI PUSH1 0x0 DUP1 REVERT JUMPDEST POP PUSH2 0x3D6 PUSH2 0x139B JUMP JUMPDEST PUSH1 0x40 MLOAD PUSH2 0x3E3 SWAP2 SWAP1 PUSH2 0x24D9 JUMP JUMPDEST PUSH1 0x40 MLOAD DUP1 SWAP2 SUB SWAP1 RETURN JUMPDEST CALLVALUE DUP1 ISZERO PUSH2 0x3F8 JUMPI PUSH1 0x0 DUP1 REVERT JUMPDEST POP PUSH2 0x413 PUSH1 0x4 DUP1 CALLDATASIZE SUB DUP2 ADD SWAP1 PUSH2 0x40E SWAP2 SWAP1 PUSH2 0x2015 JUMP JUMPDEST PUSH2 0x13BF JUMP JUMPDEST PUSH1 0x40 MLOAD PUSH2 0x422 SWAP4 SWAP3 SWAP2 SWAP1 PUSH2 0x2516 JUMP JUMPDEST PUSH1 0x40 MLOAD DUP1 SWAP2 SUB SWAP1 RETURN JUMPDEST CALLVALUE DUP1 ISZERO PUSH2 0x437 JUMPI PUSH1 0x0 DUP1 REVERT JUMPDEST POP PUSH2 0x452 PUSH1 0x4 DUP1 CALLDATASIZE SUB DUP2 ADD SWAP1 PUSH2 0x44D SWAP2 SWAP1 PUSH2 0x1EC7 JUMP JUMPDEST PUSH2 0x14C1 JUMP JUMPDEST STOP JUMPDEST CALLVALUE DUP1 ISZERO PUSH2 0x460 JUMPI PUSH1 0x0 DUP1 REVERT JUMPDEST POP PUSH2 0x47B PUSH1 0x4 DUP1 CALLDATASIZE SUB DUP2 ADD SWAP1 PUSH2 0x476 SWAP2 SWAP1 PUSH2 0x211E JUMP JUMPDEST PUSH2 0x14EA JUMP JUMPDEST STOP JUMPDEST CALLVALUE DUP1 ISZERO PUSH2 0x489 JUMPI PUSH1 0x0 DUP1 REVERT JUMPDEST POP PUSH2 0x4A4 PUSH1 0x4 DUP1 CALLDATASIZE SUB DUP2 ADD SWAP1 PUSH2 0x49F SWAP2 SWAP1 PUSH2 0x2082 JUMP JUMPDEST PUSH2 0x15DC JUMP JUMPDEST STOP JUMPDEST CALLVALUE DUP1 ISZERO PUSH2 0x4B2 JUMPI PUSH1 0x0 DUP1 REVERT JUMPDEST POP PUSH2 0x4CD PUSH1 0x4 DUP1 CALLDATASIZE SUB DUP2 ADD SWAP1 PUSH2 0x4C8 SWAP2 SWAP1 PUSH2 0x2042 JUMP JUMPDEST PUSH2 0x16CA JUMP JUMPDEST PUSH1 0x40 MLOAD PUSH2 0x4DA SWAP2 SWAP1 PUSH2 0x24BE JUMP JUMPDEST PUSH1 0x40 MLOAD DUP1 SWAP2 SUB SWAP1 RETURN JUMPDEST PUSH1 0x0 PUSH32 0x7965DB0B00000000000000000000000000000000000000000000000000000000 PUSH28 0xFFFFFFFFFFFFFFFFFFFFFFFFFFFFFFFFFFFFFFFFFFFFFFFFFFFFFFFF NOT AND DUP3 PUSH28 0xFFFFFFFFFFFFFFFFFFFFFFFFFFFFFFFFFFFFFFFFFFFFFFFFFFFFFFFF NOT AND EQ DUP1 PUSH2 0x556 JUMPI POP PUSH2 0x555 DUP3 PUSH2 0x1775 JUMP JUMPDEST JUMPDEST SWAP1 POP SWAP2 SWAP1 POP JUMP JUMPDEST PUSH1 0x4 PUSH1 0x0 DUP4 DUP2 MSTORE PUSH1 0x20 ADD SWAP1 DUP2 MSTORE PUSH1 0x20 ADD PUSH1 0x0 KECCAK256 PUSH1 0x4 ADD PUSH1 0x0 SWAP1 SLOAD SWAP1 PUSH2 0x100 EXP SWAP1 DIV PUSH20 0xFFFFFFFFFFFFFFFFFFFFFFFFFFFFFFFFFFFFFFFF AND PUSH20 0xFFFFFFFFFFFFFFFFFFFFFFFFFFFFFFFFFFFFFFFF AND CALLER PUSH20 0xFFFFFFFFFFFFFFFFFFFFFFFFFFFFFFFFFFFFFFFF AND EQ ISZERO PUSH2 0x602 JUMPI PUSH1 0x40 MLOAD PUSH32 0x8C379A000000000000000000000000000000000000000000000000000000000 DUP2 MSTORE PUSH1 0x4 ADD PUSH2 0x5F9 SWAP1 PUSH2 0x2715 JUMP JUMPDEST PUSH1 0x40 MLOAD DUP1 SWAP2 SUB SWAP1 REVERT JUMPDEST PUSH1 0x5 DUP2 PUSH1 0xFF AND GT ISZERO PUSH2 0x649 JUMPI PUSH1 0x40 MLOAD PUSH32 0x8C379A000000000000000000000000000000000000000000000000000000000 DUP2 MSTORE PUSH1 0x4 ADD PUSH2 0x640 SWAP1 PUSH2 0x2735 JUMP JUMPDEST PUSH1 0x40 MLOAD DUP1 SWAP2 SUB SWAP1 REVERT JUMPDEST PUSH1 0x1 DUP2 PUSH1 0xFF AND LT ISZERO PUSH2 0x690 JUMPI PUSH1 0x40 MLOAD PUSH32 0x8C379A000000000000000000000000000000000000000000000000000000000 DUP2 MSTORE PUSH1 0x4 ADD PUSH2 0x687 SWAP1 PUSH2 0x26D5 JUMP JUMPDEST PUSH1 0x40 MLOAD DUP1 SWAP2 SUB SWAP1 REVERT JUMPDEST PUSH2 0x69A DUP3 CALLER PUSH2 0x16CA JUMP JUMPDEST PUSH2 0x6D9 JUMPI PUSH1 0x40 MLOAD PUSH32 0x8C379A000000000000000000000000000000000000000000000000000000000 DUP2 MSTORE PUSH1 0x4 ADD PUSH2 0x6D0 SWAP1 PUSH2 0x2695 JUMP JUMPDEST PUSH1 0x40 MLOAD DUP1 SWAP2 SUB SWAP1 REVERT JUMPDEST DUP1 PUSH1 0x3 PUSH1 0x0 CALLER PUSH20 0xFFFFFFFFFFFFFFFFFFFFFFFFFFFFFFFFFFFFFFFF AND PUSH20 0xFFFFFFFFFFFFFFFFFFFFFFFFFFFFFFFFFFFFFFFF AND DUP2 MSTORE PUSH1 0x20 ADD SWAP1 DUP2 MSTORE PUSH1 0x20 ADD PUSH1 0x0 KECCAK256 PUSH1 0x0 DUP5 DUP2 MSTORE PUSH1 0x20 ADD SWAP1 DUP2 MSTORE PUSH1 0x20 ADD PUSH1 0x0 KECCAK256 PUSH1 0x0 PUSH2 0x100 EXP DUP2 SLOAD DUP2 PUSH1 0xFF MUL NOT AND SWAP1 DUP4 PUSH1 0xFF AND MUL OR SWAP1 SSTORE POP POP POP JUMP JUMPDEST PUSH1 0x0 DUP2 PUSH1 0xFF AND PUSH1 0x4 PUSH1 0x0 DUP6 DUP2 MSTORE PUSH1 0x20 ADD SWAP1 DUP2 MSTORE PUSH1 0x20 ADD PUSH1 0x0 KECCAK256 PUSH1 0x3 ADD SLOAD PUSH2 0x76D SWAP2 SWAP1 PUSH2 0x28F9 JUMP JUMPDEST SWAP1 POP CALLVALUE DUP2 EQ PUSH2 0x7B1 JUMPI PUSH1 0x40 MLOAD PUSH32 0x8C379A000000000000000000000000000000000000000000000000000000000 DUP2 MSTORE PUSH1 0x4 ADD PUSH2 0x7A8 SWAP1 PUSH2 0x2615 JUMP JUMPDEST PUSH1 0x40 MLOAD DUP1 SWAP2 SUB SWAP1 REVERT JUMPDEST PUSH1 0x0 DUP3 PUSH1 0xFF AND GT PUSH2 0x7F7 JUMPI PUSH1 0x40 MLOAD PUSH32 0x8C379A000000000000000000000000000000000000000000000000000000000 DUP2 MSTORE PUSH1 0x4 ADD PUSH2 0x7EE SWAP1 PUSH2 0x25B5 JUMP JUMPDEST PUSH1 0x40 MLOAD DUP1 SWAP2 SUB SWAP1 REVERT JUMPDEST PUSH1 0x4 PUSH1 0x0 DUP5 DUP2 MSTORE PUSH1 0x20 ADD SWAP1 DUP2 MSTORE PUSH1 0x20 ADD PUSH1 0x0 KECCAK256 PUSH1 0x6 ADD PUSH1 0x0 SWAP1 SLOAD SWAP1 PUSH2 0x100 EXP SWAP1 DIV PUSH1 0xFF AND PUSH1 0xFF AND DUP3 PUSH1 0xFF AND GT ISZERO PUSH2 0x863 JUMPI PUSH1 0x40 MLOAD PUSH32 0x8C379A000000000000000000000000000000000000000000000000000000000 DUP2 MSTORE PUSH1 0x4 ADD PUSH2 0x85A SWAP1 PUSH2 0x25D5 JUMP JUMPDEST PUSH1 0x40 MLOAD DUP1 SWAP2 SUB SWAP1 REVERT JUMPDEST PUSH1 0x4 PUSH1 0x0 DUP5 DUP2 MSTORE PUSH1 0x20 ADD SWAP1 DUP2 MSTORE PUSH1 0x20 ADD PUSH1 0x0 KECCAK256 PUSH1 0x4 ADD PUSH1 0x0 SWAP1 SLOAD SWAP1 PUSH2 0x100 EXP SWAP1 DIV PUSH20 0xFFFFFFFFFFFFFFFFFFFFFFFFFFFFFFFFFFFFFFFF AND PUSH20 0xFFFFFFFFFFFFFFFFFFFFFFFFFFFFFFFFFFFFFFFF AND PUSH2 0x8FC CALLVALUE SWAP1 DUP2 ISZERO MUL SWAP1 PUSH1 0x40 MLOAD PUSH1 0x0 PUSH1 0x40 MLOAD DUP1 DUP4 SUB DUP2 DUP6 DUP9 DUP9 CALL SWAP4 POP POP POP POP ISZERO DUP1 ISZERO PUSH2 0x8DF JUMPI RETURNDATASIZE PUSH1 0x0 DUP1 RETURNDATACOPY RETURNDATASIZE PUSH1 0x0 REVERT JUMPDEST POP DUP2 PUSH1 0x4 PUSH1 0x0 DUP6 DUP2 MSTORE PUSH1 0x20 ADD SWAP1 DUP2 MSTORE PUSH1 0x20 ADD PUSH1 0x0 KECCAK256 PUSH1 0x6 ADD PUSH1 0x0 DUP3 DUP3 DUP3 SWAP1 SLOAD SWAP1 PUSH2 0x100 EXP SWAP1 DIV PUSH1 0xFF AND PUSH2 0x912 SWAP2 SWAP1 PUSH2 0x2953 JUMP JUMPDEST SWAP3 POP PUSH2 0x100 EXP DUP2 SLOAD DUP2 PUSH1 0xFF MUL NOT AND SWAP1 DUP4 PUSH1 0xFF AND MUL OR SWAP1 SSTORE POP PUSH1 0x2 PUSH1 0x0 DUP5 DUP2 MSTORE PUSH1 0x20 ADD SWAP1 DUP2 MSTORE PUSH1 0x20 ADD PUSH1 0x0 KECCAK256 CALLER SWAP1 DUP1 PUSH1 0x1 DUP2 SLOAD ADD DUP1 DUP3 SSTORE DUP1 SWAP2 POP POP PUSH1 0x1 SWAP1 SUB SWAP1 PUSH1 0x0 MSTORE PUSH1 0x20 PUSH1 0x0 KECCAK256 ADD PUSH1 0x0 SWAP1 SWAP2 SWAP1 SWAP2 SWAP1 SWAP2 PUSH2 0x100 EXP DUP2 SLOAD DUP2 PUSH20 0xFFFFFFFFFFFFFFFFFFFFFFFFFFFFFFFFFFFFFFFF MUL NOT AND SWAP1 DUP4 PUSH20 0xFFFFFFFFFFFFFFFFFFFFFFFFFFFFFFFFFFFFFFFF AND MUL OR SWAP1 SSTORE POP PUSH32 0xF2F622C4EE3232D0D08C3870751D38DDEF2EAF0E7E0C5D38239C7DC8921CA680 DUP4 PUSH1 0x4 PUSH1 0x0 DUP7 DUP2 MSTORE PUSH1 0x20 ADD SWAP1 DUP2 MSTORE PUSH1 0x20 ADD PUSH1 0x0 KECCAK256 PUSH1 0x3 ADD SLOAD PUSH1 0x4 PUSH1 0x0 DUP8 DUP2 MSTORE PUSH1 0x20 ADD SWAP1 DUP2 MSTORE PUSH1 0x20 ADD PUSH1 0x0 KECCAK256 PUSH1 0x4 ADD PUSH1 0x0 SWAP1 SLOAD SWAP1 PUSH2 0x100 EXP SWAP1 DIV PUSH20 0xFFFFFFFFFFFFFFFFFFFFFFFFFFFFFFFFFFFFFFFF AND CALLER PUSH1 0x40 MLOAD PUSH2 0xA1F SWAP5 SWAP4 SWAP3 SWAP2 SWAP1 PUSH2 0x27B0 JUMP JUMPDEST PUSH1 0x40 MLOAD DUP1 SWAP2 SUB SWAP1 LOG1 POP POP POP JUMP JUMPDEST PUSH1 0x0 DUP1 PUSH1 0x0 DUP4 DUP2 MSTORE PUSH1 0x20 ADD SWAP1 DUP2 MSTORE PUSH1 0x20 ADD PUSH1 0x0 KECCAK256 PUSH1 0x1 ADD SLOAD SWAP1 POP SWAP2 SWAP1 POP JUMP JUMPDEST PUSH2 0xA54 DUP3 PUSH2 0xA2C JUMP JUMPDEST PUSH2 0xA65 DUP2 PUSH2 0xA60 PUSH2 0x17DF JUMP JUMPDEST PUSH2 0x17E7 JUMP JUMPDEST PUSH2 0xA6F DUP4 DUP4 PUSH2 0x1884 JUMP JUMPDEST POP POP POP JUMP JUMPDEST PUSH2 0xA7C PUSH2 0x17DF JUMP JUMPDEST PUSH20 0xFFFFFFFFFFFFFFFFFFFFFFFFFFFFFFFFFFFFFFFF AND DUP2 PUSH20 0xFFFFFFFFFFFFFFFFFFFFFFFFFFFFFFFFFFFFFFFF AND EQ PUSH2 0xAE9 JUMPI PUSH1 0x40 MLOAD PUSH32 0x8C379A000000000000000000000000000000000000000000000000000000000 DUP2 MSTORE PUSH1 0x4 ADD PUSH2 0xAE0 SWAP1 PUSH2 0x2775 JUMP JUMPDEST PUSH1 0x40 MLOAD DUP1 SWAP2 SUB SWAP1 REVERT JUMPDEST PUSH2 0xAF3 DUP3 DUP3 PUSH2 0x1964 JUMP JUMPDEST POP POP JUMP JUMPDEST PUSH1 0x1 SLOAD DUP2 JUMP JUMPDEST PUSH1 0x0 DUP1 PUSH1 0x0 SWAP1 POP PUSH1 0x0 DUP1 JUMPDEST PUSH1 0x2 PUSH1 0x0 DUP7 DUP2 MSTORE PUSH1 0x20 ADD SWAP1 DUP2 MSTORE PUSH1 0x20 ADD PUSH1 0x0 KECCAK256 DUP1 SLOAD SWAP1 POP DUP2 LT ISZERO PUSH2 0xC73 JUMPI PUSH1 0x0 PUSH1 0x2 PUSH1 0x0 DUP8 DUP2 MSTORE PUSH1 0x20 ADD SWAP1 DUP2 MSTORE PUSH1 0x20 ADD PUSH1 0x0 KECCAK256 DUP3 DUP2 SLOAD DUP2 LT PUSH2 0xB4D JUMPI PUSH2 0xB4C PUSH2 0x2BFF JUMP JUMPDEST JUMPDEST SWAP1 PUSH1 0x0 MSTORE PUSH1 0x20 PUSH1 0x0 KECCAK256 ADD PUSH1 0x0 SWAP1 SLOAD SWAP1 PUSH2 0x100 EXP SWAP1 DIV PUSH20 0xFFFFFFFFFFFFFFFFFFFFFFFFFFFFFFFFFFFFFFFF AND SWAP1 POP PUSH1 0x0 PUSH1 0x3 PUSH1 0x0 DUP4 PUSH20 0xFFFFFFFFFFFFFFFFFFFFFFFFFFFFFFFFFFFFFFFF AND PUSH20 0xFFFFFFFFFFFFFFFFFFFFFFFFFFFFFFFFFFFFFFFF AND DUP2 MSTORE PUSH1 0x20 ADD SWAP1 DUP2 MSTORE PUSH1 0x20 ADD PUSH1 0x0 KECCAK256 PUSH1 0x0 DUP9 DUP2 MSTORE PUSH1 0x20 ADD SWAP1 DUP2 MSTORE PUSH1 0x20 ADD PUSH1 0x0 KECCAK256 PUSH1 0x0 SWAP1 SLOAD SWAP1 PUSH2 0x100 EXP SWAP1 DIV PUSH1 0xFF AND PUSH1 0xFF AND EQ PUSH2 0xC5F JUMPI PUSH1 0x3 PUSH1 0x0 DUP3 PUSH20 0xFFFFFFFFFFFFFFFFFFFFFFFFFFFFFFFFFFFFFFFF AND PUSH20 0xFFFFFFFFFFFFFFFFFFFFFFFFFFFFFFFFFFFFFFFF AND DUP2 MSTORE PUSH1 0x20 ADD SWAP1 DUP2 MSTORE PUSH1 0x20 ADD PUSH1 0x0 KECCAK256 PUSH1 0x0 DUP8 DUP2 MSTORE PUSH1 0x20 ADD SWAP1 DUP2 MSTORE PUSH1 0x20 ADD PUSH1 0x0 KECCAK256 PUSH1 0x0 SWAP1 SLOAD SWAP1 PUSH2 0x100 EXP SWAP1 DIV PUSH1 0xFF AND PUSH1 0xFF AND DUP5 PUSH2 0xC4E SWAP2 SWAP1 PUSH2 0x2872 JUMP JUMPDEST SWAP4 POP DUP3 DUP1 PUSH2 0xC5B SWAP1 PUSH2 0x2B29 JUMP JUMPDEST SWAP4 POP POP JUMPDEST POP DUP1 DUP1 PUSH2 0xC6B SWAP1 PUSH2 0x2B29 JUMP JUMPDEST SWAP2 POP POP PUSH2 0xB08 JUMP JUMPDEST POP DUP1 DUP3 PUSH2 0xC80 SWAP2 SWAP1 PUSH2 0x28C8 JUMP JUMPDEST SWAP3 POP POP POP SWAP2 SWAP1 POP JUMP JUMPDEST PUSH1 0x60 DUP1 PUSH1 0x0 DUP1 PUSH1 0x0 DUP1 PUSH1 0x4 PUSH1 0x0 DUP9 DUP2 MSTORE PUSH1 0x20 ADD SWAP1 DUP2 MSTORE PUSH1 0x20 ADD PUSH1 0x0 KECCAK256 PUSH1 0x40 MLOAD DUP1 PUSH2 0x120 ADD PUSH1 0x40 MSTORE SWAP1 DUP2 PUSH1 0x0 DUP3 ADD SLOAD DUP2 MSTORE PUSH1 0x20 ADD PUSH1 0x1 DUP3 ADD DUP1 SLOAD PUSH2 0xCCB SWAP1 PUSH2 0x2AC6 JUMP JUMPDEST DUP1 PUSH1 0x1F ADD PUSH1 0x20 DUP1 SWAP2 DIV MUL PUSH1 0x20 ADD PUSH1 0x40 MLOAD SWAP1 DUP2 ADD PUSH1 0x40 MSTORE DUP1 SWAP3 SWAP2 SWAP1 DUP2 DUP2 MSTORE PUSH1 0x20 ADD DUP3 DUP1 SLOAD PUSH2 0xCF7 SWAP1 PUSH2 0x2AC6 JUMP JUMPDEST DUP1 ISZERO PUSH2 0xD44 JUMPI DUP1 PUSH1 0x1F LT PUSH2 0xD19 JUMPI PUSH2 0x100 DUP1 DUP4 SLOAD DIV MUL DUP4 MSTORE SWAP2 PUSH1 0x20 ADD SWAP2 PUSH2 0xD44 JUMP JUMPDEST DUP3 ADD SWAP2 SWAP1 PUSH1 0x0 MSTORE PUSH1 0x20 PUSH1 0x0 KECCAK256 SWAP1 JUMPDEST DUP2 SLOAD DUP2 MSTORE SWAP1 PUSH1 0x1 ADD SWAP1 PUSH1 0x20 ADD DUP1 DUP4 GT PUSH2 0xD27 JUMPI DUP3 SWAP1 SUB PUSH1 0x1F AND DUP3 ADD SWAP2 JUMPDEST POP POP POP POP POP DUP2 MSTORE PUSH1 0x20 ADD PUSH1 0x2 DUP3 ADD DUP1 SLOAD PUSH2 0xD5D SWAP1 PUSH2 0x2AC6 JUMP JUMPDEST DUP1 PUSH1 0x1F ADD PUSH1 0x20 DUP1 SWAP2 DIV MUL PUSH1 0x20 ADD PUSH1 0x40 MLOAD SWAP1 DUP2 ADD PUSH1 0x40 MSTORE DUP1 SWAP3 SWAP2 SWAP1 DUP2 DUP2 MSTORE PUSH1 0x20 ADD DUP3 DUP1 SLOAD PUSH2 0xD89 SWAP1 PUSH2 0x2AC6 JUMP JUMPDEST DUP1 ISZERO PUSH2 0xDD6 JUMPI DUP1 PUSH1 0x1F LT PUSH2 0xDAB JUMPI PUSH2 0x100 DUP1 DUP4 SLOAD DIV MUL DUP4 MSTORE SWAP2 PUSH1 0x20 ADD SWAP2 PUSH2 0xDD6 JUMP JUMPDEST DUP3 ADD SWAP2 SWAP1 PUSH1 0x0 MSTORE PUSH1 0x20 PUSH1 0x0 KECCAK256 SWAP1 JUMPDEST DUP2 SLOAD DUP2 MSTORE SWAP1 PUSH1 0x1 ADD SWAP1 PUSH1 0x20 ADD DUP1 DUP4 GT PUSH2 0xDB9 JUMPI DUP3 SWAP1 SUB PUSH1 0x1F AND DUP3 ADD SWAP2 JUMPDEST POP POP POP POP POP DUP2 MSTORE PUSH1 0x20 ADD PUSH1 0x3 DUP3 ADD SLOAD DUP2 MSTORE PUSH1 0x20 ADD PUSH1 0x4 DUP3 ADD PUSH1 0x0 SWAP1 SLOAD SWAP1 PUSH2 0x100 EXP SWAP1 DIV PUSH20 0xFFFFFFFFFFFFFFFFFFFFFFFFFFFFFFFFFFFFFFFF AND PUSH20 0xFFFFFFFFFFFFFFFFFFFFFFFFFFFFFFFFFFFFFFFF AND PUSH20 0xFFFFFFFFFFFFFFFFFFFFFFFFFFFFFFFFFFFFFFFF AND DUP2 MSTORE PUSH1 0x20 ADD PUSH1 0x5 DUP3 ADD DUP1 SLOAD PUSH2 0xE4F SWAP1 PUSH2 0x2AC6 JUMP JUMPDEST DUP1 PUSH1 0x1F ADD PUSH1 0x20 DUP1 SWAP2 DIV MUL PUSH1 0x20 ADD PUSH1 0x40 MLOAD SWAP1 DUP2 ADD PUSH1 0x40 MSTORE DUP1 SWAP3 SWAP2 SWAP1 DUP2 DUP2 MSTORE PUSH1 0x20 ADD DUP3 DUP1 SLOAD PUSH2 0xE7B SWAP1 PUSH2 0x2AC6 JUMP JUMPDEST DUP1 ISZERO PUSH2 0xEC8 JUMPI DUP1 PUSH1 0x1F LT PUSH2 0xE9D JUMPI PUSH2 0x100 DUP1 DUP4 SLOAD DIV MUL DUP4 MSTORE SWAP2 PUSH1 0x20 ADD SWAP2 PUSH2 0xEC8 JUMP JUMPDEST DUP3 ADD SWAP2 SWAP1 PUSH1 0x0 MSTORE PUSH1 0x20 PUSH1 0x0 KECCAK256 SWAP1 JUMPDEST DUP2 SLOAD DUP2 MSTORE SWAP1 PUSH1 0x1 ADD SWAP1 PUSH1 0x20 ADD DUP1 DUP4 GT PUSH2 0xEAB JUMPI DUP3 SWAP1 SUB PUSH1 0x1F AND DUP3 ADD SWAP2 JUMPDEST POP POP POP POP POP DUP2 MSTORE PUSH1 0x20 ADD PUSH1 0x6 DUP3 ADD PUSH1 0x0 SWAP1 SLOAD SWAP1 PUSH2 0x100 EXP SWAP1 DIV PUSH1 0xFF AND PUSH1 0xFF AND PUSH1 0xFF AND DUP2 MSTORE PUSH1 0x20 ADD PUSH1 0x7 DUP3 ADD SLOAD DUP2 MSTORE PUSH1 0x20 ADD PUSH1 0x8 DUP3 ADD SLOAD DUP2 MSTORE POP POP SWAP1 POP DUP1 PUSH1 0x40 ADD MLOAD DUP2 PUSH1 0xA0 ADD MLOAD DUP3 PUSH1 0xC0 ADD MLOAD DUP4 PUSH1 0xE0 ADD MLOAD DUP5 PUSH2 0x100 ADD MLOAD SWAP6 POP SWAP6 POP SWAP6 POP SWAP6 POP SWAP6 POP POP SWAP2 SWAP4 SWAP6 SWAP1 SWAP3 SWAP5 POP JUMP JUMPDEST PUSH1 0x4 PUSH1 0x0 DUP4 DUP2 MSTORE PUSH1 0x20 ADD SWAP1 DUP2 MSTORE PUSH1 0x20 ADD PUSH1 0x0 KECCAK256 PUSH1 0x4 ADD PUSH1 0x0 SWAP1 SLOAD SWAP1 PUSH2 0x100 EXP SWAP1 DIV PUSH20 0xFFFFFFFFFFFFFFFFFFFFFFFFFFFFFFFFFFFFFFFF AND PUSH20 0xFFFFFFFFFFFFFFFFFFFFFFFFFFFFFFFFFFFFFFFF AND CALLER PUSH20 0xFFFFFFFFFFFFFFFFFFFFFFFFFFFFFFFFFFFFFFFF AND EQ PUSH2 0xFD6 JUMPI PUSH1 0x40 MLOAD PUSH32 0x8C379A000000000000000000000000000000000000000000000000000000000 DUP2 MSTORE PUSH1 0x4 ADD PUSH2 0xFCD SWAP1 PUSH2 0x2675 JUMP JUMPDEST PUSH1 0x40 MLOAD DUP1 SWAP2 SUB SWAP1 REVERT JUMPDEST DUP1 PUSH1 0x4 PUSH1 0x0 DUP5 DUP2 MSTORE PUSH1 0x20 ADD SWAP1 DUP2 MSTORE PUSH1 0x20 ADD PUSH1 0x0 KECCAK256 PUSH1 0x2 ADD SWAP1 DUP1 MLOAD SWAP1 PUSH1 0x20 ADD SWAP1 PUSH2 0x1000 SWAP3 SWAP2 SWAP1 PUSH2 0x1D09 JUMP JUMPDEST POP TIMESTAMP PUSH1 0x4 PUSH1 0x0 DUP5 DUP2 MSTORE PUSH1 0x20 ADD SWAP1 DUP2 MSTORE PUSH1 0x20 ADD PUSH1 0x0 KECCAK256 PUSH1 0x8 ADD DUP2 SWAP1 SSTORE POP POP POP JUMP JUMPDEST PUSH1 0x0 DUP1 PUSH1 0x0 DUP5 DUP2 MSTORE PUSH1 0x20 ADD SWAP1 DUP2 MSTORE PUSH1 0x20 ADD PUSH1 0x0 KECCAK256 PUSH1 0x0 ADD PUSH1 0x0 DUP4 PUSH20 0xFFFFFFFFFFFFFFFFFFFFFFFFFFFFFFFFFFFFFFFF AND PUSH20 0xFFFFFFFFFFFFFFFFFFFFFFFFFFFFFFFFFFFFFFFF AND DUP2 MSTORE PUSH1 0x20 ADD SWAP1 DUP2 MSTORE PUSH1 0x20 ADD PUSH1 0x0 KECCAK256 PUSH1 0x0 SWAP1 SLOAD SWAP1 PUSH2 0x100 EXP SWAP1 DIV PUSH1 0xFF AND SWAP1 POP SWAP3 SWAP2 POP POP JUMP JUMPDEST PUSH1 0x0 DUP1 SHL DUP2 JUMP JUMPDEST DUP4 PUSH20 0xFFFFFFFFFFFFFFFFFFFFFFFFFFFFFFFFFFFFFFFF AND CALLER PUSH20 0xFFFFFFFFFFFFFFFFFFFFFFFFFFFFFFFFFFFFFFFF AND EQ PUSH2 0x10FF JUMPI PUSH1 0x40 MLOAD PUSH32 0x8C379A000000000000000000000000000000000000000000000000000000000 DUP2 MSTORE PUSH1 0x4 ADD PUSH2 0x10F6 SWAP1 PUSH2 0x26F5 JUMP JUMPDEST PUSH1 0x40 MLOAD DUP1 SWAP2 SUB SWAP1 REVERT JUMPDEST PUSH1 0x0 DUP4 GT PUSH2 0x1142 JUMPI PUSH1 0x40 MLOAD PUSH32 0x8C379A000000000000000000000000000000000000000000000000000000000 DUP2 MSTORE PUSH1 0x4 ADD PUSH2 0x1139 SWAP1 PUSH2 0x2755 JUMP JUMPDEST PUSH1 0x40 MLOAD DUP1 SWAP2 SUB SWAP1 REVERT JUMPDEST PUSH1 0x40 MLOAD DUP1 PUSH2 0x120 ADD PUSH1 0x40 MSTORE DUP1 PUSH1 0x1 SLOAD DUP2 MSTORE PUSH1 0x20 ADD DUP8 DUP2 MSTORE PUSH1 0x20 ADD DUP7 DUP2 MSTORE PUSH1 0x20 ADD DUP5 DUP2 MSTORE PUSH1 0x20 ADD DUP6 PUSH20 0xFFFFFFFFFFFFFFFFFFFFFFFFFFFFFFFFFFFFFFFF AND DUP2 MSTORE PUSH1 0x20 ADD DUP4 DUP2 MSTORE PUSH1 0x20 ADD DUP3 PUSH1 0xFF AND DUP2 MSTORE PUSH1 0x20 ADD TIMESTAMP DUP2 MSTORE PUSH1 0x20 ADD TIMESTAMP DUP2 MSTORE POP PUSH1 0x4 PUSH1 0x0 PUSH1 0x1 SLOAD DUP2 MSTORE PUSH1 0x20 ADD SWAP1 DUP2 MSTORE PUSH1 0x20 ADD PUSH1 0x0 KECCAK256 PUSH1 0x0 DUP3 ADD MLOAD DUP2 PUSH1 0x0 ADD SSTORE PUSH1 0x20 DUP3 ADD MLOAD DUP2 PUSH1 0x1 ADD SWAP1 DUP1 MLOAD SWAP1 PUSH1 0x20 ADD SWAP1 PUSH2 0x11D8 SWAP3 SWAP2 SWAP1 PUSH2 0x1D09 JUMP JUMPDEST POP PUSH1 0x40 DUP3 ADD MLOAD DUP2 PUSH1 0x2 ADD SWAP1 DUP1 MLOAD SWAP1 PUSH1 0x20 ADD SWAP1 PUSH2 0x11F5 SWAP3 SWAP2 SWAP1 PUSH2 0x1D09 JUMP JUMPDEST POP PUSH1 0x60 DUP3 ADD MLOAD DUP2 PUSH1 0x3 ADD SSTORE PUSH1 0x80 DUP3 ADD MLOAD DUP2 PUSH1 0x4 ADD PUSH1 0x0 PUSH2 0x100 EXP DUP2 SLOAD DUP2 PUSH20 0xFFFFFFFFFFFFFFFFFFFFFFFFFFFFFFFFFFFFFFFF MUL NOT AND SWAP1 DUP4 PUSH20 0xFFFFFFFFFFFFFFFFFFFFFFFFFFFFFFFFFFFFFFFF AND MUL OR SWAP1 SSTORE POP PUSH1 0xA0 DUP3 ADD MLOAD DUP2 PUSH1 0x5 ADD SWAP1 DUP1 MLOAD SWAP1 PUSH1 0x20 ADD SWAP1 PUSH2 0x1263 SWAP3 SWAP2 SWAP1 PUSH2 0x1D09 JUMP JUMPDEST POP PUSH1 0xC0 DUP3 ADD MLOAD DUP2 PUSH1 0x6 ADD PUSH1 0x0 PUSH2 0x100 EXP DUP2 SLOAD DUP2 PUSH1 0xFF MUL NOT AND SWAP1 DUP4 PUSH1 0xFF AND MUL OR SWAP1 SSTORE POP PUSH1 0xE0 DUP3 ADD MLOAD DUP2 PUSH1 0x7 ADD SSTORE PUSH2 0x100 DUP3 ADD MLOAD DUP2 PUSH1 0x8 ADD SSTORE SWAP1 POP POP PUSH1 0x1 PUSH1 0x0 DUP2 SLOAD DUP1 SWAP3 SWAP2 SWAP1 PUSH2 0x12B0 SWAP1 PUSH2 0x2B29 JUMP JUMPDEST SWAP2 SWAP1 POP SSTORE POP POP POP POP POP POP POP JUMP JUMPDEST PUSH1 0x4 PUSH1 0x0 DUP4 DUP2 MSTORE PUSH1 0x20 ADD SWAP1 DUP2 MSTORE PUSH1 0x20 ADD PUSH1 0x0 KECCAK256 PUSH1 0x4 ADD PUSH1 0x0 SWAP1 SLOAD SWAP1 PUSH2 0x100 EXP SWAP1 DIV PUSH20 0xFFFFFFFFFFFFFFFFFFFFFFFFFFFFFFFFFFFFFFFF AND PUSH20 0xFFFFFFFFFFFFFFFFFFFFFFFFFFFFFFFFFFFFFFFF AND CALLER PUSH20 0xFFFFFFFFFFFFFFFFFFFFFFFFFFFFFFFFFFFFFFFF AND EQ PUSH2 0x1361 JUMPI PUSH1 0x40 MLOAD PUSH32 0x8C379A000000000000000000000000000000000000000000000000000000000 DUP2 MSTORE PUSH1 0x4 ADD PUSH2 0x1358 SWAP1 PUSH2 0x2655 JUMP JUMPDEST PUSH1 0x40 MLOAD DUP1 SWAP2 SUB SWAP1 REVERT JUMPDEST DUP1 PUSH1 0x4 PUSH1 0x0 DUP5 DUP2 MSTORE PUSH1 0x20 ADD SWAP1 DUP2 MSTORE PUSH1 0x20 ADD PUSH1 0x0 KECCAK256 PUSH1 0x3 ADD DUP2 SWAP1 SSTORE POP TIMESTAMP PUSH1 0x4 PUSH1 0x0 DUP5 DUP2 MSTORE PUSH1 0x20 ADD SWAP1 DUP2 MSTORE PUSH1 0x20 ADD PUSH1 0x0 KECCAK256 PUSH1 0x8 ADD DUP2 SWAP1 SSTORE POP POP POP JUMP JUMPDEST PUSH32 0x1F9CA85E780B3B3CFBE1334CA9DD68802DB7860F692BD163C796BB76D464EDC0 DUP2 JUMP JUMPDEST PUSH1 0x60 PUSH1 0x0 DUP1 PUSH1 0x4 PUSH1 0x0 DUP6 DUP2 MSTORE PUSH1 0x20 ADD SWAP1 DUP2 MSTORE PUSH1 0x20 ADD PUSH1 0x0 KECCAK256 PUSH1 0x1 ADD PUSH1 0x4 PUSH1 0x0 DUP7 DUP2 MSTORE PUSH1 0x20 ADD SWAP1 DUP2 MSTORE PUSH1 0x20 ADD PUSH1 0x0 KECCAK256 PUSH1 0x4 ADD PUSH1 0x0 SWAP1 SLOAD SWAP1 PUSH2 0x100 EXP SWAP1 DIV PUSH20 0xFFFFFFFFFFFFFFFFFFFFFFFFFFFFFFFFFFFFFFFF AND PUSH1 0x4 PUSH1 0x0 DUP8 DUP2 MSTORE PUSH1 0x20 ADD SWAP1 DUP2 MSTORE PUSH1 0x20 ADD PUSH1 0x0 KECCAK256 PUSH1 0x3 ADD SLOAD DUP3 DUP1 SLOAD PUSH2 0x1434 SWAP1 PUSH2 0x2AC6 JUMP JUMPDEST DUP1 PUSH1 0x1F ADD PUSH1 0x20 DUP1 SWAP2 DIV MUL PUSH1 0x20 ADD PUSH1 0x40 MLOAD SWAP1 DUP2 ADD PUSH1 0x40 MSTORE DUP1 SWAP3 SWAP2 SWAP1 DUP2 DUP2 MSTORE PUSH1 0x20 ADD DUP3 DUP1 SLOAD PUSH2 0x1460 SWAP1 PUSH2 0x2AC6 JUMP JUMPDEST DUP1 ISZERO PUSH2 0x14AD JUMPI DUP1 PUSH1 0x1F LT PUSH2 0x1482 JUMPI PUSH2 0x100 DUP1 DUP4 SLOAD DIV MUL DUP4 MSTORE SWAP2 PUSH1 0x20 ADD SWAP2 PUSH2 0x14AD JUMP JUMPDEST DUP3 ADD SWAP2 SWAP1 PUSH1 0x0 MSTORE PUSH1 0x20 PUSH1 0x0 KECCAK256 SWAP1 JUMPDEST DUP2 SLOAD DUP2 MSTORE SWAP1 PUSH1 0x1 ADD SWAP1 PUSH1 0x20 ADD DUP1 DUP4 GT PUSH2 0x1490 JUMPI DUP3 SWAP1 SUB PUSH1 0x1F AND DUP3 ADD SWAP2 JUMPDEST POP POP POP POP POP SWAP3 POP SWAP3 POP SWAP3 POP SWAP3 POP SWAP2 SWAP4 SWAP1 SWAP3 POP JUMP JUMPDEST PUSH2 0x14CA DUP3 PUSH2 0xA2C JUMP JUMPDEST PUSH2 0x14DB DUP2 PUSH2 0x14D6 PUSH2 0x17DF JUMP JUMPDEST PUSH2 0x17E7 JUMP JUMPDEST PUSH2 0x14E5 DUP4 DUP4 PUSH2 0x1964 JUMP JUMPDEST POP POP POP JUMP JUMPDEST PUSH1 0x4 PUSH1 0x0 DUP4 DUP2 MSTORE PUSH1 0x20 ADD SWAP1 DUP2 MSTORE PUSH1 0x20 ADD PUSH1 0x0 KECCAK256 PUSH1 0x4 ADD PUSH1 0x0 SWAP1 SLOAD SWAP1 PUSH2 0x100 EXP SWAP1 DIV PUSH20 0xFFFFFFFFFFFFFFFFFFFFFFFFFFFFFFFFFFFFFFFF AND PUSH20 0xFFFFFFFFFFFFFFFFFFFFFFFFFFFFFFFFFFFFFFFF AND CALLER PUSH20 0xFFFFFFFFFFFFFFFFFFFFFFFFFFFFFFFFFFFFFFFF AND EQ PUSH2 0x158E JUMPI PUSH1 0x40 MLOAD PUSH32 0x8C379A000000000000000000000000000000000000000000000000000000000 DUP2 MSTORE PUSH1 0x4 ADD PUSH2 0x1585 SWAP1 PUSH2 0x2635 JUMP JUMPDEST PUSH1 0x40 MLOAD DUP1 SWAP2 SUB SWAP1 REVERT JUMPDEST DUP1 PUSH1 0x4 PUSH1 0x0 DUP5 DUP2 MSTORE PUSH1 0x20 ADD SWAP1 DUP2 MSTORE PUSH1 0x20 ADD PUSH1 0x0 KECCAK256 PUSH1 0x6 ADD PUSH1 0x0 PUSH2 0x100 EXP DUP2 SLOAD DUP2 PUSH1 0xFF MUL NOT AND SWAP1 DUP4 PUSH1 0xFF AND MUL OR SWAP1 SSTORE POP TIMESTAMP PUSH1 0x4 PUSH1 0x0 DUP5 DUP2 MSTORE PUSH1 0x20 ADD SWAP1 DUP2 MSTORE PUSH1 0x20 ADD PUSH1 0x0 KECCAK256 PUSH1 0x8 ADD DUP2 SWAP1 SSTORE POP POP POP JUMP JUMPDEST PUSH1 0x4 PUSH1 0x0 DUP4 DUP2 MSTORE PUSH1 0x20 ADD SWAP1 DUP2 MSTORE PUSH1 0x20 ADD PUSH1 0x0 KECCAK256 PUSH1 0x4 ADD PUSH1 0x0 SWAP1 SLOAD SWAP1 PUSH2 0x100 EXP SWAP1 DIV PUSH20 0xFFFFFFFFFFFFFFFFFFFFFFFFFFFFFFFFFFFFFFFF AND PUSH20 0xFFFFFFFFFFFFFFFFFFFFFFFFFFFFFFFFFFFFFFFF AND CALLER PUSH20 0xFFFFFFFFFFFFFFFFFFFFFFFFFFFFFFFFFFFFFFFF AND EQ PUSH2 0x1680 JUMPI PUSH1 0x40 MLOAD PUSH32 0x8C379A000000000000000000000000000000000000000000000000000000000 DUP2 MSTORE PUSH1 0x4 ADD PUSH2 0x1677 SWAP1 PUSH2 0x26B5 JUMP JUMPDEST PUSH1 0x40 MLOAD DUP1 SWAP2 SUB SWAP1 REVERT JUMPDEST DUP1 PUSH1 0x4 PUSH1 0x0 DUP5 DUP2 MSTORE PUSH1 0x20 ADD SWAP1 DUP2 MSTORE PUSH1 0x20 ADD PUSH1 0x0 KECCAK256 PUSH1 0x5 ADD SWAP1 DUP1 MLOAD SWAP1 PUSH1 0x20 ADD SWAP1 PUSH2 0x16AA SWAP3 SWAP2 SWAP1 PUSH2 0x1D09 JUMP JUMPDEST POP TIMESTAMP PUSH1 0x4 PUSH1 0x0 DUP5 DUP2 MSTORE PUSH1 0x20 ADD SWAP1 DUP2 MSTORE PUSH1 0x20 ADD PUSH1 0x0 KECCAK256 PUSH1 0x8 ADD DUP2 SWAP1 SSTORE POP POP POP JUMP JUMPDEST PUSH1 0x0 PUSH2 0x176D PUSH1 0x2 PUSH1 0x0 DUP6 DUP2 MSTORE PUSH1 0x20 ADD SWAP1 DUP2 MSTORE PUSH1 0x20 ADD PUSH1 0x0 KECCAK256 DUP1 SLOAD DUP1 PUSH1 0x20 MUL PUSH1 0x20 ADD PUSH1 0x40 MLOAD SWAP1 DUP2 ADD PUSH1 0x40 MSTORE DUP1 SWAP3 SWAP2 SWAP1 DUP2 DUP2 MSTORE PUSH1 0x20 ADD DUP3 DUP1 SLOAD DUP1 ISZERO PUSH2 0x1762 JUMPI PUSH1 0x20 MUL DUP3 ADD SWAP2 SWAP1 PUSH1 0x0 MSTORE PUSH1 0x20 PUSH1 0x0 KECCAK256 SWAP1 JUMPDEST DUP2 PUSH1 0x0 SWAP1 SLOAD SWAP1 PUSH2 0x100 EXP SWAP1 DIV PUSH20 0xFFFFFFFFFFFFFFFFFFFFFFFFFFFFFFFFFFFFFFFF AND PUSH20 0xFFFFFFFFFFFFFFFFFFFFFFFFFFFFFFFFFFFFFFFF AND DUP2 MSTORE PUSH1 0x20 ADD SWAP1 PUSH1 0x1 ADD SWAP1 DUP1 DUP4 GT PUSH2 0x1718 JUMPI JUMPDEST POP POP POP POP POP DUP4 PUSH2 0x1A45 JUMP JUMPDEST SWAP1 POP SWAP3 SWAP2 POP POP JUMP JUMPDEST PUSH1 0x0 PUSH32 0x1FFC9A700000000000000000000000000000000000000000000000000000000 PUSH28 0xFFFFFFFFFFFFFFFFFFFFFFFFFFFFFFFFFFFFFFFFFFFFFFFFFFFFFFFF NOT AND DUP3 PUSH28 0xFFFFFFFFFFFFFFFFFFFFFFFFFFFFFFFFFFFFFFFFFFFFFFFFFFFFFFFF NOT AND EQ SWAP1 POP SWAP2 SWAP1 POP JUMP JUMPDEST PUSH1 0x0 CALLER SWAP1 POP SWAP1 JUMP JUMPDEST PUSH2 0x17F1 DUP3 DUP3 PUSH2 0x1020 JUMP JUMPDEST PUSH2 0x1880 JUMPI PUSH2 0x1816 DUP2 PUSH20 0xFFFFFFFFFFFFFFFFFFFFFFFFFFFFFFFFFFFFFFFF AND PUSH1 0x14 PUSH2 0x1ACD JUMP JUMPDEST PUSH2 0x1824 DUP4 PUSH1 0x0 SHR PUSH1 0x20 PUSH2 0x1ACD JUMP JUMPDEST PUSH1 0x40 MLOAD PUSH1 0x20 ADD PUSH2 0x1835 SWAP3 SWAP2 SWAP1 PUSH2 0x2484 JUMP JUMPDEST PUSH1 0x40 MLOAD PUSH1 0x20 DUP2 DUP4 SUB SUB DUP2 MSTORE SWAP1 PUSH1 0x40 MSTORE PUSH1 0x40 MLOAD PUSH32 0x8C379A000000000000000000000000000000000000000000000000000000000 DUP2 MSTORE PUSH1 0x4 ADD PUSH2 0x1877 SWAP2 SWAP1 PUSH2 0x24F4 JUMP JUMPDEST PUSH1 0x40 MLOAD DUP1 SWAP2 SUB SWAP1 REVERT JUMPDEST POP POP JUMP JUMPDEST PUSH2 0x188E DUP3 DUP3 PUSH2 0x1020 JUMP JUMPDEST PUSH2 0x1960 JUMPI PUSH1 0x1 PUSH1 0x0 DUP1 DUP5 DUP2 MSTORE PUSH1 0x20 ADD SWAP1 DUP2 MSTORE PUSH1 0x20 ADD PUSH1 0x0 KECCAK256 PUSH1 0x0 ADD PUSH1 0x0 DUP4 PUSH20 0xFFFFFFFFFFFFFFFFFFFFFFFFFFFFFFFFFFFFFFFF AND PUSH20 0xFFFFFFFFFFFFFFFFFFFFFFFFFFFFFFFFFFFFFFFF AND DUP2 MSTORE PUSH1 0x20 ADD SWAP1 DUP2 MSTORE PUSH1 0x20 ADD PUSH1 0x0 KECCAK256 PUSH1 0x0 PUSH2 0x100 EXP DUP2 SLOAD DUP2 PUSH1 0xFF MUL NOT AND SWAP1 DUP4 ISZERO ISZERO MUL OR SWAP1 SSTORE POP PUSH2 0x1905 PUSH2 0x17DF JUMP JUMPDEST PUSH20 0xFFFFFFFFFFFFFFFFFFFFFFFFFFFFFFFFFFFFFFFF AND DUP2 PUSH20 0xFFFFFFFFFFFFFFFFFFFFFFFFFFFFFFFFFFFFFFFF AND DUP4 PUSH32 0x2F8788117E7EFF1D82E926EC794901D17C78024A50270940304540A733656F0D PUSH1 0x40 MLOAD PUSH1 0x40 MLOAD DUP1 SWAP2 SUB SWAP1 LOG4 JUMPDEST POP POP JUMP JUMPDEST PUSH2 0x196E DUP3 DUP3 PUSH2 0x1020 JUMP JUMPDEST ISZERO PUSH2 0x1A41 JUMPI PUSH1 0x0 DUP1 PUSH1 0x0 DUP5 DUP2 MSTORE PUSH1 0x20 ADD SWAP1 DUP2 MSTORE PUSH1 0x20 ADD PUSH1 0x0 KECCAK256 PUSH1 0x0 ADD PUSH1 0x0 DUP4 PUSH20 0xFFFFFFFFFFFFFFFFFFFFFFFFFFFFFFFFFFFFFFFF AND PUSH20 0xFFFFFFFFFFFFFFFFFFFFFFFFFFFFFFFFFFFFFFFF AND DUP2 MSTORE PUSH1 0x20 ADD SWAP1 DUP2 MSTORE PUSH1 0x20 ADD PUSH1 0x0 KECCAK256 PUSH1 0x0 PUSH2 0x100 EXP DUP2 SLOAD DUP2 PUSH1 0xFF MUL NOT AND SWAP1 DUP4 ISZERO ISZERO MUL OR SWAP1 SSTORE POP PUSH2 0x19E6 PUSH2 0x17DF JUMP JUMPDEST PUSH20 0xFFFFFFFFFFFFFFFFFFFFFFFFFFFFFFFFFFFFFFFF AND DUP2 PUSH20 0xFFFFFFFFFFFFFFFFFFFFFFFFFFFFFFFFFFFFFFFF AND DUP4 PUSH32 0xF6391F5C32D9C69D2A47EA670B442974B53935D1EDC7FD64EB21E047A839171B PUSH1 0x40 MLOAD PUSH1 0x40 MLOAD DUP1 SWAP2 SUB SWAP1 LOG4 JUMPDEST POP POP JUMP JUMPDEST PUSH1 0x0 DUP1 PUSH1 0x0 SWAP1 POP JUMPDEST DUP4 MLOAD DUP2 LT ISZERO PUSH2 0x1AC1 JUMPI DUP3 PUSH20 0xFFFFFFFFFFFFFFFFFFFFFFFFFFFFFFFFFFFFFFFF AND DUP5 DUP3 DUP2 MLOAD DUP2 LT PUSH2 0x1A80 JUMPI PUSH2 0x1A7F PUSH2 0x2BFF JUMP JUMPDEST JUMPDEST PUSH1 0x20 MUL PUSH1 0x20 ADD ADD MLOAD PUSH20 0xFFFFFFFFFFFFFFFFFFFFFFFFFFFFFFFFFFFFFFFF AND EQ ISZERO PUSH2 0x1AAE JUMPI PUSH1 0x1 SWAP2 POP POP PUSH2 0x1AC7 JUMP JUMPDEST DUP1 DUP1 PUSH2 0x1AB9 SWAP1 PUSH2 0x2B29 JUMP JUMPDEST SWAP2 POP POP PUSH2 0x1A4D JUMP JUMPDEST POP PUSH1 0x0 SWAP1 POP JUMPDEST SWAP3 SWAP2 POP POP JUMP JUMPDEST PUSH1 0x60 PUSH1 0x0 PUSH1 0x2 DUP4 PUSH1 0x2 PUSH2 0x1AE0 SWAP2 SWAP1 PUSH2 0x28F9 JUMP JUMPDEST PUSH2 0x1AEA SWAP2 SWAP1 PUSH2 0x2872 JUMP JUMPDEST PUSH8 0xFFFFFFFFFFFFFFFF DUP2 GT ISZERO PUSH2 0x1B03 JUMPI PUSH2 0x1B02 PUSH2 0x2C2E JUMP JUMPDEST JUMPDEST PUSH1 0x40 MLOAD SWAP1 DUP1 DUP3 MSTORE DUP1 PUSH1 0x1F ADD PUSH1 0x1F NOT AND PUSH1 0x20 ADD DUP3 ADD PUSH1 0x40 MSTORE DUP1 ISZERO PUSH2 0x1B35 JUMPI DUP2 PUSH1 0x20 ADD PUSH1 0x1 DUP3 MUL DUP1 CALLDATASIZE DUP4 CALLDATACOPY DUP1 DUP3 ADD SWAP2 POP POP SWAP1 POP JUMPDEST POP SWAP1 POP PUSH32 0x3000000000000000000000000000000000000000000000000000000000000000 DUP2 PUSH1 0x0 DUP2 MLOAD DUP2 LT PUSH2 0x1B6D JUMPI PUSH2 0x1B6C PUSH2 0x2BFF JUMP JUMPDEST JUMPDEST PUSH1 0x20 ADD ADD SWAP1 PUSH31 0xFFFFFFFFFFFFFFFFFFFFFFFFFFFFFFFFFFFFFFFFFFFFFFFFFFFFFFFFFFFFFF NOT AND SWAP1 DUP2 PUSH1 0x0 BYTE SWAP1 MSTORE8 POP PUSH32 0x7800000000000000000000000000000000000000000000000000000000000000 DUP2 PUSH1 0x1 DUP2 MLOAD DUP2 LT PUSH2 0x1BD1 JUMPI PUSH2 0x1BD0 PUSH2 0x2BFF JUMP JUMPDEST JUMPDEST PUSH1 0x20 ADD ADD SWAP1 PUSH31 0xFFFFFFFFFFFFFFFFFFFFFFFFFFFFFFFFFFFFFFFFFFFFFFFFFFFFFFFFFFFFFF NOT AND SWAP1 DUP2 PUSH1 0x0 BYTE SWAP1 MSTORE8 POP PUSH1 0x0 PUSH1 0x1 DUP5 PUSH1 0x2 PUSH2 0x1C11 SWAP2 SWAP1 PUSH2 0x28F9 JUMP JUMPDEST PUSH2 0x1C1B SWAP2 SWAP1 PUSH2 0x2872 JUMP JUMPDEST SWAP1 POP JUMPDEST PUSH1 0x1 DUP2 GT ISZERO PUSH2 0x1CBB JUMPI PUSH32 0x3031323334353637383961626364656600000000000000000000000000000000 PUSH1 0xF DUP7 AND PUSH1 0x10 DUP2 LT PUSH2 0x1C5D JUMPI PUSH2 0x1C5C PUSH2 0x2BFF JUMP JUMPDEST JUMPDEST BYTE PUSH1 0xF8 SHL DUP3 DUP3 DUP2 MLOAD DUP2 LT PUSH2 0x1C74 JUMPI PUSH2 0x1C73 PUSH2 0x2BFF JUMP JUMPDEST JUMPDEST PUSH1 0x20 ADD ADD SWAP1 PUSH31 0xFFFFFFFFFFFFFFFFFFFFFFFFFFFFFFFFFFFFFFFFFFFFFFFFFFFFFFFFFFFFFF NOT AND SWAP1 DUP2 PUSH1 0x0 BYTE SWAP1 MSTORE8 POP PUSH1 0x4 DUP6 SWAP1 SHR SWAP5 POP DUP1 PUSH2 0x1CB4 SWAP1 PUSH2 0x2A9C JUMP JUMPDEST SWAP1 POP PUSH2 0x1C1E JUMP JUMPDEST POP PUSH1 0x0 DUP5 EQ PUSH2 0x1CFF JUMPI PUSH1 0x40 MLOAD PUSH32 0x8C379A000000000000000000000000000000000000000000000000000000000 DUP2 MSTORE PUSH1 0x4 ADD PUSH2 0x1CF6 SWAP1 PUSH2 0x25F5 JUMP JUMPDEST PUSH1 0x40 MLOAD DUP1 SWAP2 SUB SWAP1 REVERT JUMPDEST DUP1 SWAP2 POP POP SWAP3 SWAP2 POP POP JUMP JUMPDEST DUP3 DUP1 SLOAD PUSH2 0x1D15 SWAP1 PUSH2 0x2AC6 JUMP JUMPDEST SWAP1 PUSH1 0x0 MSTORE PUSH1 0x20 PUSH1 0x0 KECCAK256 SWAP1 PUSH1 0x1F ADD PUSH1 0x20 SWAP1 DIV DUP2 ADD SWAP3 DUP3 PUSH2 0x1D37 JUMPI PUSH1 0x0 DUP6 SSTORE PUSH2 0x1D7E JUMP JUMPDEST DUP3 PUSH1 0x1F LT PUSH2 0x1D50 JUMPI DUP1 MLOAD PUSH1 0xFF NOT AND DUP4 DUP1 ADD OR DUP6 SSTORE PUSH2 0x1D7E JUMP JUMPDEST DUP3 DUP1 ADD PUSH1 0x1 ADD DUP6 SSTORE DUP3 ISZERO PUSH2 0x1D7E JUMPI SWAP2 DUP3 ADD JUMPDEST DUP3 DUP2 GT ISZERO PUSH2 0x1D7D JUMPI DUP3 MLOAD DUP3 SSTORE SWAP2 PUSH1 0x20 ADD SWAP2 SWAP1 PUSH1 0x1 ADD SWAP1 PUSH2 0x1D62 JUMP JUMPDEST JUMPDEST POP SWAP1 POP PUSH2 0x1D8B SWAP2 SWAP1 PUSH2 0x1D8F JUMP JUMPDEST POP SWAP1 JUMP JUMPDEST JUMPDEST DUP1 DUP3 GT ISZERO PUSH2 0x1DA8 JUMPI PUSH1 0x0 DUP2 PUSH1 0x0 SWAP1 SSTORE POP PUSH1 0x1 ADD PUSH2 0x1D90 JUMP JUMPDEST POP SWAP1 JUMP JUMPDEST PUSH1 0x0 PUSH2 0x1DBF PUSH2 0x1DBA DUP5 PUSH2 0x281A JUMP JUMPDEST PUSH2 0x27F5 JUMP JUMPDEST SWAP1 POP DUP3 DUP2 MSTORE PUSH1 0x20 DUP2 ADD DUP5 DUP5 DUP5 ADD GT ISZERO PUSH2 0x1DDB JUMPI PUSH2 0x1DDA PUSH2 0x2C62 JUMP JUMPDEST JUMPDEST PUSH2 0x1DE6 DUP5 DUP3 DUP6 PUSH2 0x2A5A JUMP JUMPDEST POP SWAP4 SWAP3 POP POP POP JUMP JUMPDEST PUSH1 0x0 DUP2 CALLDATALOAD SWAP1 POP PUSH2 0x1DFD DUP2 PUSH2 0x30B7 JUMP JUMPDEST SWAP3 SWAP2 POP POP JUMP JUMPDEST PUSH1 0x0 DUP2 CALLDATALOAD SWAP1 POP PUSH2 0x1E12 DUP2 PUSH2 0x30CE JUMP JUMPDEST SWAP3 SWAP2 POP POP JUMP JUMPDEST PUSH1 0x0 DUP2 CALLDATALOAD SWAP1 POP PUSH2 0x1E27 DUP2 PUSH2 0x30E5 JUMP JUMPDEST SWAP3 SWAP2 POP POP JUMP JUMPDEST PUSH1 0x0 DUP2 CALLDATALOAD SWAP1 POP PUSH2 0x1E3C DUP2 PUSH2 0x30FC JUMP JUMPDEST SWAP3 SWAP2 POP POP JUMP JUMPDEST PUSH1 0x0 DUP3 PUSH1 0x1F DUP4 ADD SLT PUSH2 0x1E57 JUMPI PUSH2 0x1E56 PUSH2 0x2C5D JUMP JUMPDEST JUMPDEST DUP2 CALLDATALOAD PUSH2 0x1E67 DUP5 DUP3 PUSH1 0x20 DUP7 ADD PUSH2 0x1DAC JUMP JUMPDEST SWAP2 POP POP SWAP3 SWAP2 POP POP JUMP JUMPDEST PUSH1 0x0 DUP2 CALLDATALOAD SWAP1 POP PUSH2 0x1E7F DUP2 PUSH2 0x3113 JUMP JUMPDEST SWAP3 SWAP2 POP POP JUMP JUMPDEST PUSH1 0x0 DUP2 CALLDATALOAD SWAP1 POP PUSH2 0x1E94 DUP2 PUSH2 0x312A JUMP JUMPDEST SWAP3 SWAP2 POP POP JUMP JUMPDEST PUSH1 0x0 PUSH1 0x20 DUP3 DUP5 SUB SLT ISZERO PUSH2 0x1EB0 JUMPI PUSH2 0x1EAF PUSH2 0x2C6C JUMP JUMPDEST JUMPDEST PUSH1 0x0 PUSH2 0x1EBE DUP5 DUP3 DUP6 ADD PUSH2 0x1E18 JUMP JUMPDEST SWAP2 POP POP SWAP3 SWAP2 POP POP JUMP JUMPDEST PUSH1 0x0 DUP1 PUSH1 0x40 DUP4 DUP6 SUB SLT ISZERO PUSH2 0x1EDE JUMPI PUSH2 0x1EDD PUSH2 0x2C6C JUMP JUMPDEST JUMPDEST PUSH1 0x0 PUSH2 0x1EEC DUP6 DUP3 DUP7 ADD PUSH2 0x1E18 JUMP JUMPDEST SWAP3 POP POP PUSH1 0x20 PUSH2 0x1EFD DUP6 DUP3 DUP7 ADD PUSH2 0x1DEE JUMP JUMPDEST SWAP2 POP POP SWAP3 POP SWAP3 SWAP1 POP JUMP JUMPDEST PUSH1 0x0 PUSH1 0x20 DUP3 DUP5 SUB SLT ISZERO PUSH2 0x1F1D JUMPI PUSH2 0x1F1C PUSH2 0x2C6C JUMP JUMPDEST JUMPDEST PUSH1 0x0 PUSH2 0x1F2B DUP5 DUP3 DUP6 ADD PUSH2 0x1E2D JUMP JUMPDEST SWAP2 POP POP SWAP3 SWAP2 POP POP JUMP JUMPDEST PUSH1 0x0 DUP1 PUSH1 0x0 DUP1 PUSH1 0x0 DUP1 PUSH1 0xC0 DUP8 DUP10 SUB SLT ISZERO PUSH2 0x1F51 JUMPI PUSH2 0x1F50 PUSH2 0x2C6C JUMP JUMPDEST JUMPDEST PUSH1 0x0 DUP8 ADD CALLDATALOAD PUSH8 0xFFFFFFFFFFFFFFFF DUP2 GT ISZERO PUSH2 0x1F6F JUMPI PUSH2 0x1F6E PUSH2 0x2C67 JUMP JUMPDEST JUMPDEST PUSH2 0x1F7B DUP10 DUP3 DUP11 ADD PUSH2 0x1E42 JUMP JUMPDEST SWAP7 POP POP PUSH1 0x20 DUP8 ADD CALLDATALOAD PUSH8 0xFFFFFFFFFFFFFFFF DUP2 GT ISZERO PUSH2 0x1F9C JUMPI PUSH2 0x1F9B PUSH2 0x2C67 JUMP JUMPDEST JUMPDEST PUSH2 0x1FA8 DUP10 DUP3 DUP11 ADD PUSH2 0x1E42 JUMP JUMPDEST SWAP6 POP POP PUSH1 0x40 PUSH2 0x1FB9 DUP10 DUP3 DUP11 ADD PUSH2 0x1E03 JUMP JUMPDEST SWAP5 POP POP PUSH1 0x60 PUSH2 0x1FCA DUP10 DUP3 DUP11 ADD PUSH2 0x1E70 JUMP JUMPDEST SWAP4 POP POP PUSH1 0x80 DUP8 ADD CALLDATALOAD PUSH8 0xFFFFFFFFFFFFFFFF DUP2 GT ISZERO PUSH2 0x1FEB JUMPI PUSH2 0x1FEA PUSH2 0x2C67 JUMP JUMPDEST JUMPDEST PUSH2 0x1FF7 DUP10 DUP3 DUP11 ADD PUSH2 0x1E42 JUMP JUMPDEST SWAP3 POP POP PUSH1 0xA0 PUSH2 0x2008 DUP10 DUP3 DUP11 ADD PUSH2 0x1E85 JUMP JUMPDEST SWAP2 POP POP SWAP3 SWAP6 POP SWAP3 SWAP6 POP SWAP3 SWAP6 JUMP JUMPDEST PUSH1 0x0 PUSH1 0x20 DUP3 DUP5 SUB SLT ISZERO PUSH2 0x202B JUMPI PUSH2 0x202A PUSH2 0x2C6C JUMP JUMPDEST JUMPDEST PUSH1 0x0 PUSH2 0x2039 DUP5 DUP3 DUP6 ADD PUSH2 0x1E70 JUMP JUMPDEST SWAP2 POP POP SWAP3 SWAP2 POP POP JUMP JUMPDEST PUSH1 0x0 DUP1 PUSH1 0x40 DUP4 DUP6 SUB SLT ISZERO PUSH2 0x2059 JUMPI PUSH2 0x2058 PUSH2 0x2C6C JUMP JUMPDEST JUMPDEST PUSH1 0x0 PUSH2 0x2067 DUP6 DUP3 DUP7 ADD PUSH2 0x1E70 JUMP JUMPDEST SWAP3 POP POP PUSH1 0x20 PUSH2 0x2078 DUP6 DUP3 DUP7 ADD PUSH2 0x1DEE JUMP JUMPDEST SWAP2 POP POP SWAP3 POP SWAP3 SWAP1 POP JUMP JUMPDEST PUSH1 0x0 DUP1 PUSH1 0x40 DUP4 DUP6 SUB SLT ISZERO PUSH2 0x2099 JUMPI PUSH2 0x2098 PUSH2 0x2C6C JUMP JUMPDEST JUMPDEST PUSH1 0x0 PUSH2 0x20A7 DUP6 DUP3 DUP7 ADD PUSH2 0x1E70 JUMP JUMPDEST SWAP3 POP POP PUSH1 0x20 DUP4 ADD CALLDATALOAD PUSH8 0xFFFFFFFFFFFFFFFF DUP2 GT ISZERO PUSH2 0x20C8 JUMPI PUSH2 0x20C7 PUSH2 0x2C67 JUMP JUMPDEST JUMPDEST PUSH2 0x20D4 DUP6 DUP3 DUP7 ADD PUSH2 0x1E42 JUMP JUMPDEST SWAP2 POP POP SWAP3 POP SWAP3 SWAP1 POP JUMP JUMPDEST PUSH1 0x0 DUP1 PUSH1 0x40 DUP4 DUP6 SUB SLT ISZERO PUSH2 0x20F5 JUMPI PUSH2 0x20F4 PUSH2 0x2C6C JUMP JUMPDEST JUMPDEST PUSH1 0x0 PUSH2 0x2103 DUP6 DUP3 DUP7 ADD PUSH2 0x1E70 JUMP JUMPDEST SWAP3 POP POP PUSH1 0x20 PUSH2 0x2114 DUP6 DUP3 DUP7 ADD PUSH2 0x1E70 JUMP JUMPDEST SWAP2 POP POP SWAP3 POP SWAP3 SWAP1 POP JUMP JUMPDEST PUSH1 0x0 DUP1 PUSH1 0x40 DUP4 DUP6 SUB SLT ISZERO PUSH2 0x2135 JUMPI PUSH2 0x2134 PUSH2 0x2C6C JUMP JUMPDEST JUMPDEST PUSH1 0x0 PUSH2 0x2143 DUP6 DUP3 DUP7 ADD PUSH2 0x1E70 JUMP JUMPDEST SWAP3 POP POP PUSH1 0x20 PUSH2 0x2154 DUP6 DUP3 DUP7 ADD PUSH2 0x1E85 JUMP JUMPDEST SWAP2 POP POP SWAP3 POP SWAP3 SWAP1 POP JUMP JUMPDEST PUSH2 0x2167 DUP2 PUSH2 0x2A24 JUMP JUMPDEST DUP3 MSTORE POP POP JUMP JUMPDEST PUSH2 0x2176 DUP2 PUSH2 0x2999 JUMP JUMPDEST DUP3 MSTORE POP POP JUMP JUMPDEST PUSH2 0x2185 DUP2 PUSH2 0x2987 JUMP JUMPDEST DUP3 MSTORE POP POP JUMP JUMPDEST PUSH2 0x2194 DUP2 PUSH2 0x29AB JUMP JUMPDEST DUP3 MSTORE POP POP JUMP JUMPDEST PUSH2 0x21A3 DUP2 PUSH2 0x29B7 JUMP JUMPDEST DUP3 MSTORE POP POP JUMP JUMPDEST PUSH1 0x0 PUSH2 0x21B4 DUP3 PUSH2 0x284B JUMP JUMPDEST PUSH2 0x21BE DUP2 DUP6 PUSH2 0x2856 JUMP JUMPDEST SWAP4 POP PUSH2 0x21CE DUP2 DUP6 PUSH1 0x20 DUP7 ADD PUSH2 0x2A69 JUMP JUMPDEST PUSH2 0x21D7 DUP2 PUSH2 0x2C71 JUMP JUMPDEST DUP5 ADD SWAP2 POP POP SWAP3 SWAP2 POP POP JUMP JUMPDEST PUSH1 0x0 PUSH2 0x21ED DUP3 PUSH2 0x284B JUMP JUMPDEST PUSH2 0x21F7 DUP2 DUP6 PUSH2 0x2867 JUMP JUMPDEST SWAP4 POP PUSH2 0x2207 DUP2 DUP6 PUSH1 0x20 DUP7 ADD PUSH2 0x2A69 JUMP JUMPDEST DUP1 DUP5 ADD SWAP2 POP POP SWAP3 SWAP2 POP POP JUMP JUMPDEST PUSH1 0x0 PUSH2 0x2220 PUSH1 0x1F DUP4 PUSH2 0x2856 JUMP JUMPDEST SWAP2 POP PUSH2 0x222B DUP3 PUSH2 0x2C82 JUMP JUMPDEST PUSH1 0x20 DUP3 ADD SWAP1 POP SWAP2 SWAP1 POP JUMP JUMPDEST PUSH1 0x0 PUSH2 0x2243 PUSH1 0x3D DUP4 PUSH2 0x2856 JUMP JUMPDEST SWAP2 POP PUSH2 0x224E DUP3 PUSH2 0x2CAB JUMP JUMPDEST PUSH1 0x40 DUP3 ADD SWAP1 POP SWAP2 SWAP1 POP JUMP JUMPDEST PUSH1 0x0 PUSH2 0x2266 PUSH1 0x20 DUP4 PUSH2 0x2856 JUMP JUMPDEST SWAP2 POP PUSH2 0x2271 DUP3 PUSH2 0x2CFA JUMP JUMPDEST PUSH1 0x20 DUP3 ADD SWAP1 POP SWAP2 SWAP1 POP JUMP JUMPDEST PUSH1 0x0 PUSH2 0x2289 PUSH1 0x14 DUP4 PUSH2 0x2856 JUMP JUMPDEST SWAP2 POP PUSH2 0x2294 DUP3 PUSH2 0x2D23 JUMP JUMPDEST PUSH1 0x20 DUP3 ADD SWAP1 POP SWAP2 SWAP1 POP JUMP JUMPDEST PUSH1 0x0 PUSH2 0x22AC PUSH1 0x27 DUP4 PUSH2 0x2856 JUMP JUMPDEST SWAP2 POP PUSH2 0x22B7 DUP3 PUSH2 0x2D4C JUMP JUMPDEST PUSH1 0x40 DUP3 ADD SWAP1 POP SWAP2 SWAP1 POP JUMP JUMPDEST PUSH1 0x0 PUSH2 0x22CF PUSH1 0x24 DUP4 PUSH2 0x2856 JUMP JUMPDEST SWAP2 POP PUSH2 0x22DA DUP3 PUSH2 0x2D9B JUMP JUMPDEST PUSH1 0x40 DUP3 ADD SWAP1 POP SWAP2 SWAP1 POP JUMP JUMPDEST PUSH1 0x0 PUSH2 0x22F2 PUSH1 0x2A DUP4 PUSH2 0x2856 JUMP JUMPDEST SWAP2 POP PUSH2 0x22FD DUP3 PUSH2 0x2DEA JUMP JUMPDEST PUSH1 0x40 DUP3 ADD SWAP1 POP SWAP2 SWAP1 POP JUMP JUMPDEST PUSH1 0x0 PUSH2 0x2315 PUSH1 0x21 DUP4 PUSH2 0x2856 JUMP JUMPDEST SWAP2 POP PUSH2 0x2320 DUP3 PUSH2 0x2E39 JUMP JUMPDEST PUSH1 0x40 DUP3 ADD SWAP1 POP SWAP2 SWAP1 POP JUMP JUMPDEST PUSH1 0x0 PUSH2 0x2338 PUSH1 0x28 DUP4 PUSH2 0x2856 JUMP JUMPDEST SWAP2 POP PUSH2 0x2343 DUP3 PUSH2 0x2E88 JUMP JUMPDEST PUSH1 0x40 DUP3 ADD SWAP1 POP SWAP2 SWAP1 POP JUMP JUMPDEST PUSH1 0x0 PUSH2 0x235B PUSH1 0x28 DUP4 PUSH2 0x2856 JUMP JUMPDEST SWAP2 POP PUSH2 0x2366 DUP3 PUSH2 0x2ED7 JUMP JUMPDEST PUSH1 0x40 DUP3 ADD SWAP1 POP SWAP2 SWAP1 POP JUMP JUMPDEST PUSH1 0x0 PUSH2 0x237E PUSH1 0x28 DUP4 PUSH2 0x2856 JUMP JUMPDEST SWAP2 POP PUSH2 0x2389 DUP3 PUSH2 0x2F26 JUMP JUMPDEST PUSH1 0x40 DUP3 ADD SWAP1 POP SWAP2 SWAP1 POP JUMP JUMPDEST PUSH1 0x0 PUSH2 0x23A1 PUSH1 0x16 DUP4 PUSH2 0x2856 JUMP JUMPDEST SWAP2 POP PUSH2 0x23AC DUP3 PUSH2 0x2F75 JUMP JUMPDEST PUSH1 0x20 DUP3 ADD SWAP1 POP SWAP2 SWAP1 POP JUMP JUMPDEST PUSH1 0x0 PUSH2 0x23C4 PUSH1 0x25 DUP4 PUSH2 0x2856 JUMP JUMPDEST SWAP2 POP PUSH2 0x23CF DUP3 PUSH2 0x2F9E JUMP JUMPDEST PUSH1 0x40 DUP3 ADD SWAP1 POP SWAP2 SWAP1 POP JUMP JUMPDEST PUSH1 0x0 PUSH2 0x23E7 PUSH1 0x17 DUP4 PUSH2 0x2867 JUMP JUMPDEST SWAP2 POP PUSH2 0x23F2 DUP3 PUSH2 0x2FED JUMP JUMPDEST PUSH1 0x17 DUP3 ADD SWAP1 POP SWAP2 SWAP1 POP JUMP JUMPDEST PUSH1 0x0 PUSH2 0x240A PUSH1 0x1C DUP4 PUSH2 0x2856 JUMP JUMPDEST SWAP2 POP PUSH2 0x2415 DUP3 PUSH2 0x3016 JUMP JUMPDEST PUSH1 0x20 DUP3 ADD SWAP1 POP SWAP2 SWAP1 POP JUMP JUMPDEST PUSH1 0x0 PUSH2 0x242D PUSH1 0x11 DUP4 PUSH2 0x2867 JUMP JUMPDEST SWAP2 POP PUSH2 0x2438 DUP3 PUSH2 0x303F JUMP JUMPDEST PUSH1 0x11 DUP3 ADD SWAP1 POP SWAP2 SWAP1 POP JUMP JUMPDEST PUSH1 0x0 PUSH2 0x2450 PUSH1 0x2F DUP4 PUSH2 0x2856 JUMP JUMPDEST SWAP2 POP PUSH2 0x245B DUP3 PUSH2 0x3068 JUMP JUMPDEST PUSH1 0x40 DUP3 ADD SWAP1 POP SWAP2 SWAP1 POP JUMP JUMPDEST PUSH2 0x246F DUP2 PUSH2 0x2A0D JUMP JUMPDEST DUP3 MSTORE POP POP JUMP JUMPDEST PUSH2 0x247E DUP2 PUSH2 0x2A17 JUMP JUMPDEST DUP3 MSTORE POP POP JUMP JUMPDEST PUSH1 0x0 PUSH2 0x248F DUP3 PUSH2 0x23DA JUMP JUMPDEST SWAP2 POP PUSH2 0x249B DUP3 DUP6 PUSH2 0x21E2 JUMP JUMPDEST SWAP2 POP PUSH2 0x24A6 DUP3 PUSH2 0x2420 JUMP JUMPDEST SWAP2 POP PUSH2 0x24B2 DUP3 DUP5 PUSH2 0x21E2 JUMP JUMPDEST SWAP2 POP DUP2 SWAP1 POP SWAP4 SWAP3 POP POP POP JUMP JUMPDEST PUSH1 0x0 PUSH1 0x20 DUP3 ADD SWAP1 POP PUSH2 0x24D3 PUSH1 0x0 DUP4 ADD DUP5 PUSH2 0x218B JUMP JUMPDEST SWAP3 SWAP2 POP POP JUMP JUMPDEST PUSH1 0x0 PUSH1 0x20 DUP3 ADD SWAP1 POP PUSH2 0x24EE PUSH1 0x0 DUP4 ADD DUP5 PUSH2 0x219A JUMP JUMPDEST SWAP3 SWAP2 POP POP JUMP JUMPDEST PUSH1 0x0 PUSH1 0x20 DUP3 ADD SWAP1 POP DUP2 DUP2 SUB PUSH1 0x0 DUP4 ADD MSTORE PUSH2 0x250E DUP2 DUP5 PUSH2 0x21A9 JUMP JUMPDEST SWAP1 POP SWAP3 SWAP2 POP POP JUMP JUMPDEST PUSH1 0x0 PUSH1 0x60 DUP3 ADD SWAP1 POP DUP2 DUP2 SUB PUSH1 0x0 DUP4 ADD MSTORE PUSH2 0x2530 DUP2 DUP7 PUSH2 0x21A9 JUMP JUMPDEST SWAP1 POP PUSH2 0x253F PUSH1 0x20 DUP4 ADD DUP6 PUSH2 0x216D JUMP JUMPDEST PUSH2 0x254C PUSH1 0x40 DUP4 ADD DUP5 PUSH2 0x2466 JUMP JUMPDEST SWAP5 SWAP4 POP POP POP POP JUMP JUMPDEST PUSH1 0x0 PUSH1 0xA0 DUP3 ADD SWAP1 POP DUP2 DUP2 SUB PUSH1 0x0 DUP4 ADD MSTORE PUSH2 0x256E DUP2 DUP9 PUSH2 0x21A9 JUMP JUMPDEST SWAP1 POP DUP2 DUP2 SUB PUSH1 0x20 DUP4 ADD MSTORE PUSH2 0x2582 DUP2 DUP8 PUSH2 0x21A9 JUMP JUMPDEST SWAP1 POP PUSH2 0x2591 PUSH1 0x40 DUP4 ADD DUP7 PUSH2 0x2475 JUMP JUMPDEST PUSH2 0x259E PUSH1 0x60 DUP4 ADD DUP6 PUSH2 0x2466 JUMP JUMPDEST PUSH2 0x25AB PUSH1 0x80 DUP4 ADD DUP5 PUSH2 0x2466 JUMP JUMPDEST SWAP7 SWAP6 POP POP POP POP POP POP JUMP JUMPDEST PUSH1 0x0 PUSH1 0x20 DUP3 ADD SWAP1 POP DUP2 DUP2 SUB PUSH1 0x0 DUP4 ADD MSTORE PUSH2 0x25CE DUP2 PUSH2 0x2213 JUMP JUMPDEST SWAP1 POP SWAP2 SWAP1 POP JUMP JUMPDEST PUSH1 0x0 PUSH1 0x20 DUP3 ADD SWAP1 POP DUP2 DUP2 SUB PUSH1 0x0 DUP4 ADD MSTORE PUSH2 0x25EE DUP2 PUSH2 0x2236 JUMP JUMPDEST SWAP1 POP SWAP2 SWAP1 POP JUMP JUMPDEST PUSH1 0x0 PUSH1 0x20 DUP3 ADD SWAP1 POP DUP2 DUP2 SUB PUSH1 0x0 DUP4 ADD MSTORE PUSH2 0x260E DUP2 PUSH2 0x2259 JUMP JUMPDEST SWAP1 POP SWAP2 SWAP1 POP JUMP JUMPDEST PUSH1 0x0 PUSH1 0x20 DUP3 ADD SWAP1 POP DUP2 DUP2 SUB PUSH1 0x0 DUP4 ADD MSTORE PUSH2 0x262E DUP2 PUSH2 0x227C JUMP JUMPDEST SWAP1 POP SWAP2 SWAP1 POP JUMP JUMPDEST PUSH1 0x0 PUSH1 0x20 DUP3 ADD SWAP1 POP DUP2 DUP2 SUB PUSH1 0x0 DUP4 ADD MSTORE PUSH2 0x264E DUP2 PUSH2 0x229F JUMP JUMPDEST SWAP1 POP SWAP2 SWAP1 POP JUMP JUMPDEST PUSH1 0x0 PUSH1 0x20 DUP3 ADD SWAP1 POP DUP2 DUP2 SUB PUSH1 0x0 DUP4 ADD MSTORE PUSH2 0x266E DUP2 PUSH2 0x22C2 JUMP JUMPDEST SWAP1 POP SWAP2 SWAP1 POP JUMP JUMPDEST PUSH1 0x0 PUSH1 0x20 DUP3 ADD SWAP1 POP DUP2 DUP2 SUB PUSH1 0x0 DUP4 ADD MSTORE PUSH2 0x268E DUP2 PUSH2 0x22E5 JUMP JUMPDEST SWAP1 POP SWAP2 SWAP1 POP JUMP JUMPDEST PUSH1 0x0 PUSH1 0x20 DUP3 ADD SWAP1 POP DUP2 DUP2 SUB PUSH1 0x0 DUP4 ADD MSTORE PUSH2 0x26AE DUP2 PUSH2 0x2308 JUMP JUMPDEST SWAP1 POP SWAP2 SWAP1 POP JUMP JUMPDEST PUSH1 0x0 PUSH1 0x20 DUP3 ADD SWAP1 POP DUP2 DUP2 SUB PUSH1 0x0 DUP4 ADD MSTORE PUSH2 0x26CE DUP2 PUSH2 0x232B JUMP JUMPDEST SWAP1 POP SWAP2 SWAP1 POP JUMP JUMPDEST PUSH1 0x0 PUSH1 0x20 DUP3 ADD SWAP1 POP DUP2 DUP2 SUB PUSH1 0x0 DUP4 ADD MSTORE PUSH2 0x26EE DUP2 PUSH2 0x234E JUMP JUMPDEST SWAP1 POP SWAP2 SWAP1 POP JUMP JUMPDEST PUSH1 0x0 PUSH1 0x20 DUP3 ADD SWAP1 POP DUP2 DUP2 SUB PUSH1 0x0 DUP4 ADD MSTORE PUSH2 0x270E DUP2 PUSH2 0x2371 JUMP JUMPDEST SWAP1 POP SWAP2 SWAP1 POP JUMP JUMPDEST PUSH1 0x0 PUSH1 0x20 DUP3 ADD SWAP1 POP DUP2 DUP2 SUB PUSH1 0x0 DUP4 ADD MSTORE PUSH2 0x272E DUP2 PUSH2 0x2394 JUMP JUMPDEST SWAP1 POP SWAP2 SWAP1 POP JUMP JUMPDEST PUSH1 0x0 PUSH1 0x20 DUP3 ADD SWAP1 POP DUP2 DUP2 SUB PUSH1 0x0 DUP4 ADD MSTORE PUSH2 0x274E DUP2 PUSH2 0x23B7 JUMP JUMPDEST SWAP1 POP SWAP2 SWAP1 POP JUMP JUMPDEST PUSH1 0x0 PUSH1 0x20 DUP3 ADD SWAP1 POP DUP2 DUP2 SUB PUSH1 0x0 DUP4 ADD MSTORE PUSH2 0x276E DUP2 PUSH2 0x23FD JUMP JUMPDEST SWAP1 POP SWAP2 SWAP1 POP JUMP JUMPDEST PUSH1 0x0 PUSH1 0x20 DUP3 ADD SWAP1 POP DUP2 DUP2 SUB PUSH1 0x0 DUP4 ADD MSTORE PUSH2 0x278E DUP2 PUSH2 0x2443 JUMP JUMPDEST SWAP1 POP SWAP2 SWAP1 POP JUMP JUMPDEST PUSH1 0x0 PUSH1 0x20 DUP3 ADD SWAP1 POP PUSH2 0x27AA PUSH1 0x0 DUP4 ADD DUP5 PUSH2 0x2466 JUMP JUMPDEST SWAP3 SWAP2 POP POP JUMP JUMPDEST PUSH1 0x0 PUSH1 0x80 DUP3 ADD SWAP1 POP PUSH2 0x27C5 PUSH1 0x0 DUP4 ADD DUP8 PUSH2 0x2466 JUMP JUMPDEST PUSH2 0x27D2 PUSH1 0x20 DUP4 ADD DUP7 PUSH2 0x2466 JUMP JUMPDEST PUSH2 0x27DF PUSH1 0x40 DUP4 ADD DUP6 PUSH2 0x215E JUMP JUMPDEST PUSH2 0x27EC PUSH1 0x60 DUP4 ADD DUP5 PUSH2 0x217C JUMP JUMPDEST SWAP6 SWAP5 POP POP POP POP POP JUMP JUMPDEST PUSH1 0x0 PUSH2 0x27FF PUSH2 0x2810 JUMP JUMPDEST SWAP1 POP PUSH2 0x280B DUP3 DUP3 PUSH2 0x2AF8 JUMP JUMPDEST SWAP2 SWAP1 POP JUMP JUMPDEST PUSH1 0x0 PUSH1 0x40 MLOAD SWAP1 POP SWAP1 JUMP JUMPDEST PUSH1 0x0 PUSH8 0xFFFFFFFFFFFFFFFF DUP3 GT ISZERO PUSH2 0x2835 JUMPI PUSH2 0x2834 PUSH2 0x2C2E JUMP JUMPDEST JUMPDEST PUSH2 0x283E DUP3 PUSH2 0x2C71 JUMP JUMPDEST SWAP1 POP PUSH1 0x20 DUP2 ADD SWAP1 POP SWAP2 SWAP1 POP JUMP JUMPDEST PUSH1 0x0 DUP2 MLOAD SWAP1 POP SWAP2 SWAP1 POP JUMP JUMPDEST PUSH1 0x0 DUP3 DUP3 MSTORE PUSH1 0x20 DUP3 ADD SWAP1 POP SWAP3 SWAP2 POP POP JUMP JUMPDEST PUSH1 0x0 DUP2 SWAP1 POP SWAP3 SWAP2 POP POP JUMP JUMPDEST PUSH1 0x0 PUSH2 0x287D DUP3 PUSH2 0x2A0D JUMP JUMPDEST SWAP2 POP PUSH2 0x2888 DUP4 PUSH2 0x2A0D JUMP JUMPDEST SWAP3 POP DUP3 PUSH32 0xFFFFFFFFFFFFFFFFFFFFFFFFFFFFFFFFFFFFFFFFFFFFFFFFFFFFFFFFFFFFFFFF SUB DUP3 GT ISZERO PUSH2 0x28BD JUMPI PUSH2 0x28BC PUSH2 0x2B72 JUMP JUMPDEST JUMPDEST DUP3 DUP3 ADD SWAP1 POP SWAP3 SWAP2 POP POP JUMP JUMPDEST PUSH1 0x0 PUSH2 0x28D3 DUP3 PUSH2 0x2A0D JUMP JUMPDEST SWAP2 POP PUSH2 0x28DE DUP4 PUSH2 0x2A0D JUMP JUMPDEST SWAP3 POP DUP3 PUSH2 0x28EE JUMPI PUSH2 0x28ED PUSH2 0x2BA1 JUMP JUMPDEST JUMPDEST DUP3 DUP3 DIV SWAP1 POP SWAP3 SWAP2 POP POP JUMP JUMPDEST PUSH1 0x0 PUSH2 0x2904 DUP3 PUSH2 0x2A0D JUMP JUMPDEST SWAP2 POP PUSH2 0x290F DUP4 PUSH2 0x2A0D JUMP JUMPDEST SWAP3 POP DUP2 PUSH32 0xFFFFFFFFFFFFFFFFFFFFFFFFFFFFFFFFFFFFFFFFFFFFFFFFFFFFFFFFFFFFFFFF DIV DUP4 GT DUP3 ISZERO ISZERO AND ISZERO PUSH2 0x2948 JUMPI PUSH2 0x2947 PUSH2 0x2B72 JUMP JUMPDEST JUMPDEST DUP3 DUP3 MUL SWAP1 POP SWAP3 SWAP2 POP POP JUMP JUMPDEST PUSH1 0x0 PUSH2 0x295E DUP3 PUSH2 0x2A17 JUMP JUMPDEST SWAP2 POP PUSH2 0x2969 DUP4 PUSH2 0x2A17 JUMP JUMPDEST SWAP3 POP DUP3 DUP3 LT ISZERO PUSH2 0x297C JUMPI PUSH2 0x297B PUSH2 0x2B72 JUMP JUMPDEST JUMPDEST DUP3 DUP3 SUB SWAP1 POP SWAP3 SWAP2 POP POP JUMP JUMPDEST PUSH1 0x0 PUSH2 0x2992 DUP3 PUSH2 0x29ED JUMP JUMPDEST SWAP1 POP SWAP2 SWAP1 POP JUMP JUMPDEST PUSH1 0x0 PUSH2 0x29A4 DUP3 PUSH2 0x29ED JUMP JUMPDEST SWAP1 POP SWAP2 SWAP1 POP JUMP JUMPDEST PUSH1 0x0 DUP2 ISZERO ISZERO SWAP1 POP SWAP2 SWAP1 POP JUMP JUMPDEST PUSH1 0x0 DUP2 SWAP1 POP SWAP2 SWAP1 POP JUMP JUMPDEST PUSH1 0x0 PUSH32 0xFFFFFFFF00000000000000000000000000000000000000000000000000000000 DUP3 AND SWAP1 POP SWAP2 SWAP1 POP JUMP JUMPDEST PUSH1 0x0 PUSH20 0xFFFFFFFFFFFFFFFFFFFFFFFFFFFFFFFFFFFFFFFF DUP3 AND SWAP1 POP SWAP2 SWAP1 POP JUMP JUMPDEST PUSH1 0x0 DUP2 SWAP1 POP SWAP2 SWAP1 POP JUMP JUMPDEST PUSH1 0x0 PUSH1 0xFF DUP3 AND SWAP1 POP SWAP2 SWAP1 POP JUMP JUMPDEST PUSH1 0x0 PUSH2 0x2A2F DUP3 PUSH2 0x2A36 JUMP JUMPDEST SWAP1 POP SWAP2 SWAP1 POP JUMP JUMPDEST PUSH1 0x0 PUSH2 0x2A41 DUP3 PUSH2 0x2A48 JUMP JUMPDEST SWAP1 POP SWAP2 SWAP1 POP JUMP JUMPDEST PUSH1 0x0 PUSH2 0x2A53 DUP3 PUSH2 0x29ED JUMP JUMPDEST SWAP1 POP SWAP2 SWAP1 POP JUMP JUMPDEST DUP3 DUP2 DUP4 CALLDATACOPY PUSH1 0x0 DUP4 DUP4 ADD MSTORE POP POP POP JUMP JUMPDEST PUSH1 0x0 JUMPDEST DUP4 DUP2 LT ISZERO PUSH2 0x2A87 JUMPI DUP1 DUP3 ADD MLOAD DUP2 DUP5 ADD MSTORE PUSH1 0x20 DUP2 ADD SWAP1 POP PUSH2 0x2A6C JUMP JUMPDEST DUP4 DUP2 GT ISZERO PUSH2 0x2A96 JUMPI PUSH1 0x0 DUP5 DUP5 ADD MSTORE JUMPDEST POP POP POP POP JUMP JUMPDEST PUSH1 0x0 PUSH2 0x2AA7 DUP3 PUSH2 0x2A0D JUMP JUMPDEST SWAP2 POP PUSH1 0x0 DUP3 EQ ISZERO PUSH2 0x2ABB JUMPI PUSH2 0x2ABA PUSH2 0x2B72 JUMP JUMPDEST JUMPDEST PUSH1 0x1 DUP3 SUB SWAP1 POP SWAP2 SWAP1 POP JUMP JUMPDEST PUSH1 0x0 PUSH1 0x2 DUP3 DIV SWAP1 POP PUSH1 0x1 DUP3 AND DUP1 PUSH2 0x2ADE JUMPI PUSH1 0x7F DUP3 AND SWAP2 POP JUMPDEST PUSH1 0x20 DUP3 LT DUP2 EQ ISZERO PUSH2 0x2AF2 JUMPI PUSH2 0x2AF1 PUSH2 0x2BD0 JUMP JUMPDEST JUMPDEST POP SWAP2 SWAP1 POP JUMP JUMPDEST PUSH2 0x2B01 DUP3 PUSH2 0x2C71 JUMP JUMPDEST DUP2 ADD DUP2 DUP2 LT PUSH8 0xFFFFFFFFFFFFFFFF DUP3 GT OR ISZERO PUSH2 0x2B20 JUMPI PUSH2 0x2B1F PUSH2 0x2C2E JUMP JUMPDEST JUMPDEST DUP1 PUSH1 0x40 MSTORE POP POP POP JUMP JUMPDEST PUSH1 0x0 PUSH2 0x2B34 DUP3 PUSH2 0x2A0D JUMP JUMPDEST SWAP2 POP PUSH32 0xFFFFFFFFFFFFFFFFFFFFFFFFFFFFFFFFFFFFFFFFFFFFFFFFFFFFFFFFFFFFFFFF DUP3 EQ ISZERO PUSH2 0x2B67 JUMPI PUSH2 0x2B66 PUSH2 0x2B72 JUMP JUMPDEST JUMPDEST PUSH1 0x1 DUP3 ADD SWAP1 POP SWAP2 SWAP1 POP JUMP JUMPDEST PUSH32 0x4E487B7100000000000000000000000000000000000000000000000000000000 PUSH1 0x0 MSTORE PUSH1 0x11 PUSH1 0x4 MSTORE PUSH1 0x24 PUSH1 0x0 REVERT JUMPDEST PUSH32 0x4E487B7100000000000000000000000000000000000000000000000000000000 PUSH1 0x0 MSTORE PUSH1 0x12 PUSH1 0x4 MSTORE PUSH1 0x24 PUSH1 0x0 REVERT JUMPDEST PUSH32 0x4E487B7100000000000000000000000000000000000000000000000000000000 PUSH1 0x0 MSTORE PUSH1 0x22 PUSH1 0x4 MSTORE PUSH1 0x24 PUSH1 0x0 REVERT JUMPDEST PUSH32 0x4E487B7100000000000000000000000000000000000000000000000000000000 PUSH1 0x0 MSTORE PUSH1 0x32 PUSH1 0x4 MSTORE PUSH1 0x24 PUSH1 0x0 REVERT JUMPDEST PUSH32 0x4E487B7100000000000000000000000000000000000000000000000000000000 PUSH1 0x0 MSTORE PUSH1 0x41 PUSH1 0x4 MSTORE PUSH1 0x24 PUSH1 0x0 REVERT JUMPDEST PUSH1 0x0 DUP1 REVERT JUMPDEST PUSH1 0x0 DUP1 REVERT JUMPDEST PUSH1 0x0 DUP1 REVERT JUMPDEST PUSH1 0x0 DUP1 REVERT JUMPDEST PUSH1 0x0 PUSH1 0x1F NOT PUSH1 0x1F DUP4 ADD AND SWAP1 POP SWAP2 SWAP1 POP JUMP JUMPDEST PUSH32 0x5175616E74697479206D7573742062652067726561746572207468616E203000 PUSH1 0x0 DUP3 ADD MSTORE POP JUMP JUMPDEST PUSH32 0x5175616E74697479206D757374206265206C657373207468616E206F72206571 PUSH1 0x0 DUP3 ADD MSTORE PUSH32 0x75616C20746F2074686520617661696C61626C65207175616E74697479000000 PUSH1 0x20 DUP3 ADD MSTORE POP JUMP JUMPDEST PUSH32 0x537472696E67733A20686578206C656E67746820696E73756666696369656E74 PUSH1 0x0 DUP3 ADD MSTORE POP JUMP JUMPDEST PUSH32 0x507269636520646F6573206E6F74206D61746368000000000000000000000000 PUSH1 0x0 DUP3 ADD MSTORE POP JUMP JUMPDEST PUSH32 0x4F6E6C79207468652073656C6C65722063616E20757064617465207468652071 PUSH1 0x0 DUP3 ADD MSTORE PUSH32 0x75616E7469747900000000000000000000000000000000000000000000000000 PUSH1 0x20 DUP3 ADD MSTORE POP JUMP JUMPDEST PUSH32 0x4F6E6C79207468652073656C6C65722063616E20757064617465207468652070 PUSH1 0x0 DUP3 ADD MSTORE PUSH32 0x7269636500000000000000000000000000000000000000000000000000000000 PUSH1 0x20 DUP3 ADD MSTORE POP JUMP JUMPDEST PUSH32 0x4F6E6C79207468652073656C6C65722063616E20757064617465207468652064 PUSH1 0x0 DUP3 ADD MSTORE PUSH32 0x65736372697074696F6E00000000000000000000000000000000000000000000 PUSH1 0x20 DUP3 ADD MSTORE POP JUMP JUMPDEST PUSH32 0x596F752063616E6E6F7420766F746520666F7220746869732070726F64756374 PUSH1 0x0 DUP3 ADD MSTORE PUSH32 0x2E00000000000000000000000000000000000000000000000000000000000000 PUSH1 0x20 DUP3 ADD MSTORE POP JUMP JUMPDEST PUSH32 0x4F6E6C79207468652073656C6C65722063616E20757064617465207468652069 PUSH1 0x0 DUP3 ADD MSTORE PUSH32 0x6D6167652075726C000000000000000000000000000000000000000000000000 PUSH1 0x20 DUP3 ADD MSTORE POP JUMP JUMPDEST PUSH32 0x5374617273206D7573742062652067726561746572207468616E206F72206571 PUSH1 0x0 DUP3 ADD MSTORE PUSH32 0x75616C20746F2031000000000000000000000000000000000000000000000000 PUSH1 0x20 DUP3 ADD MSTORE POP JUMP JUMPDEST PUSH32 0x4F6E6C79207468652073656C6C65722063616E206372656174652061206D6172 PUSH1 0x0 DUP3 ADD MSTORE PUSH32 0x6B6574206974656D000000000000000000000000000000000000000000000000 PUSH1 0x20 DUP3 ADD MSTORE POP JUMP JUMPDEST PUSH32 0x5468652073656C6C65722063616E6E6F7420766F746500000000000000000000 PUSH1 0x0 DUP3 ADD MSTORE POP JUMP JUMPDEST PUSH32 0x5374617273206D757374206265206C657373207468616E206F7220657175616C PUSH1 0x0 DUP3 ADD MSTORE PUSH32 0x20746F2035000000000000000000000000000000000000000000000000000000 PUSH1 0x20 DUP3 ADD MSTORE POP JUMP JUMPDEST PUSH32 0x416363657373436F6E74726F6C3A206163636F756E7420000000000000000000 PUSH1 0x0 DUP3 ADD MSTORE POP JUMP JUMPDEST PUSH32 0x5072696365206D7573742062652067726561746572207468616E203000000000 PUSH1 0x0 DUP3 ADD MSTORE POP JUMP JUMPDEST PUSH32 0x206973206D697373696E6720726F6C6520000000000000000000000000000000 PUSH1 0x0 DUP3 ADD MSTORE POP JUMP JUMPDEST PUSH32 0x416363657373436F6E74726F6C3A2063616E206F6E6C792072656E6F756E6365 PUSH1 0x0 DUP3 ADD MSTORE PUSH32 0x20726F6C657320666F722073656C660000000000000000000000000000000000 PUSH1 0x20 DUP3 ADD MSTORE POP JUMP JUMPDEST PUSH2 0x30C0 DUP2 PUSH2 0x2987 JUMP JUMPDEST DUP2 EQ PUSH2 0x30CB JUMPI PUSH1 0x0 DUP1 REVERT JUMPDEST POP JUMP JUMPDEST PUSH2 0x30D7 DUP2 PUSH2 0x2999 JUMP JUMPDEST DUP2 EQ PUSH2 0x30E2 JUMPI PUSH1 0x0 DUP1 REVERT JUMPDEST POP JUMP JUMPDEST PUSH2 0x30EE DUP2 PUSH2 0x29B7 JUMP JUMPDEST DUP2 EQ PUSH2 0x30F9 JUMPI PUSH1 0x0 DUP1 REVERT JUMPDEST POP JUMP JUMPDEST PUSH2 0x3105 DUP2 PUSH2 0x29C1 JUMP JUMPDEST DUP2 EQ PUSH2 0x3110 JUMPI PUSH1 0x0 DUP1 REVERT JUMPDEST POP JUMP JUMPDEST PUSH2 0x311C DUP2 PUSH2 0x2A0D JUMP JUMPDEST DUP2 EQ PUSH2 0x3127 JUMPI PUSH1 0x0 DUP1 REVERT JUMPDEST POP JUMP JUMPDEST PUSH2 0x3133 DUP2 PUSH2 0x2A17 JUMP JUMPDEST DUP2 EQ PUSH2 0x313E JUMPI PUSH1 0x0 DUP1 REVERT JUMPDEST POP JUMP INVALID LOG2 PUSH5 0x6970667358 0x22 SLT KECCAK256 LT 0xCF SWAP5 0xDC PUSH31 0xB651FBDB7597B1EFD9F2ED18B9D8475BA545E3DF6E155F34060F4864736F6C PUSH4 0x43000807 STOP CALLER "
				},
				"gasEstimates": {
					"creation": {
						"codeDepositCost": "2532600",
						"executionCost": "infinite",
						"totalCost": "infinite"
					},
					"external": {
						"DEFAULT_ADMIN_ROLE()": "380",
						"MARKETPLACE_OWNER()": "440",
						"buyMarketItem(uint256,uint8)": "infinite",
						"checkBuyer(uint256,address)": "infinite",
						"createMarketItem(string,string,address,uint256,string,uint8)": "infinite",
						"getAverageStars(uint256)": "infinite",
						"getMarketItem(uint256)": "infinite",
						"getMarketItemDetails(uint256)": "infinite",
						"getRoleAdmin(bytes32)": "infinite",
						"grantRole(bytes32,address)": "infinite",
						"hasRole(bytes32,address)": "3163",
						"nextItemId()": "2474",
						"renounceRole(bytes32,address)": "infinite",
						"revokeRole(bytes32,address)": "infinite",
						"supportsInterface(bytes4)": "751",
						"updateMarketItemDescription(uint256,string)": "infinite",
						"updateMarketItemImgUrl(uint256,string)": "infinite",
						"updateMarketItemPrice(uint256,uint256)": "infinite",
						"updateMarketItemQuantity(uint256,uint8)": "49453",
						"voteMarketItemStars(uint256,uint8)": "infinite"
					},
					"internal": {
						"indexOf(address[] memory,address)": "infinite"
					}
				},
				"methodIdentifiers": {
					"DEFAULT_ADMIN_ROLE()": "a217fddf",
					"MARKETPLACE_OWNER()": "b491efa0",
					"buyMarketItem(uint256,uint8)": "1dfef0eb",
					"checkBuyer(uint256,address)": "fec4d15d",
					"createMarketItem(string,string,address,uint256,string,uint8)": "a6667d06",
					"getAverageStars(uint256)": "7735904f",
					"getMarketItem(uint256)": "c7be7a49",
					"getMarketItemDetails(uint256)": "88d9e84c",
					"getRoleAdmin(bytes32)": "248a9ca3",
					"grantRole(bytes32,address)": "2f2ff15d",
					"hasRole(bytes32,address)": "91d14854",
					"nextItemId()": "6a868974",
					"renounceRole(bytes32,address)": "36568abe",
					"revokeRole(bytes32,address)": "d547741f",
					"supportsInterface(bytes4)": "01ffc9a7",
					"updateMarketItemDescription(uint256,string)": "8f28afee",
					"updateMarketItemImgUrl(uint256,string)": "f0d2d06d",
					"updateMarketItemPrice(uint256,uint256)": "ae13a317",
					"updateMarketItemQuantity(uint256,uint8)": "eca1e6a0",
					"voteMarketItemStars(uint256,uint8)": "0c3774fc"
				}
			},
			"storageLayout": {
				"storage": [
					{
						"astId": 24,
						"contract": "Marketplace.sol:Marketplace",
						"label": "_roles",
						"offset": 0,
						"slot": "0",
						"type": "t_mapping(t_bytes32,t_struct(RoleData)19_storage)"
					},
					{
						"astId": 655,
						"contract": "Marketplace.sol:Marketplace",
						"label": "nextItemId",
						"offset": 0,
						"slot": "1",
						"type": "t_uint256"
					},
					{
						"astId": 689,
						"contract": "Marketplace.sol:Marketplace",
						"label": "idToBuyerAddress",
						"offset": 0,
						"slot": "2",
						"type": "t_mapping(t_uint256,t_array(t_address)dyn_storage)"
					},
					{
						"astId": 695,
						"contract": "Marketplace.sol:Marketplace",
						"label": "addressToProductVote",
						"offset": 0,
						"slot": "3",
						"type": "t_mapping(t_address,t_mapping(t_uint256,t_uint8))"
					},
					{
						"astId": 700,
						"contract": "Marketplace.sol:Marketplace",
						"label": "idToMarketItem",
						"offset": 0,
						"slot": "4",
						"type": "t_mapping(t_uint256,t_struct(MarketItem)684_storage)"
					}
				],
				"types": {
					"t_address": {
						"encoding": "inplace",
						"label": "address",
						"numberOfBytes": "20"
					},
					"t_address_payable": {
						"encoding": "inplace",
						"label": "address payable",
						"numberOfBytes": "20"
					},
					"t_array(t_address)dyn_storage": {
						"base": "t_address",
						"encoding": "dynamic_array",
						"label": "address[]",
						"numberOfBytes": "32"
					},
					"t_bool": {
						"encoding": "inplace",
						"label": "bool",
						"numberOfBytes": "1"
					},
					"t_bytes32": {
						"encoding": "inplace",
						"label": "bytes32",
						"numberOfBytes": "32"
					},
					"t_mapping(t_address,t_bool)": {
						"encoding": "mapping",
						"key": "t_address",
						"label": "mapping(address => bool)",
						"numberOfBytes": "32",
						"value": "t_bool"
					},
					"t_mapping(t_address,t_mapping(t_uint256,t_uint8))": {
						"encoding": "mapping",
						"key": "t_address",
						"label": "mapping(address => mapping(uint256 => uint8))",
						"numberOfBytes": "32",
						"value": "t_mapping(t_uint256,t_uint8)"
					},
					"t_mapping(t_bytes32,t_struct(RoleData)19_storage)": {
						"encoding": "mapping",
						"key": "t_bytes32",
						"label": "mapping(bytes32 => struct AccessControl.RoleData)",
						"numberOfBytes": "32",
						"value": "t_struct(RoleData)19_storage"
					},
					"t_mapping(t_uint256,t_array(t_address)dyn_storage)": {
						"encoding": "mapping",
						"key": "t_uint256",
						"label": "mapping(uint256 => address[])",
						"numberOfBytes": "32",
						"value": "t_array(t_address)dyn_storage"
					},
					"t_mapping(t_uint256,t_struct(MarketItem)684_storage)": {
						"encoding": "mapping",
						"key": "t_uint256",
						"label": "mapping(uint256 => struct Marketplace.MarketItem)",
						"numberOfBytes": "32",
						"value": "t_struct(MarketItem)684_storage"
					},
					"t_mapping(t_uint256,t_uint8)": {
						"encoding": "mapping",
						"key": "t_uint256",
						"label": "mapping(uint256 => uint8)",
						"numberOfBytes": "32",
						"value": "t_uint8"
					},
					"t_string_storage": {
						"encoding": "bytes",
						"label": "string",
						"numberOfBytes": "32"
					},
					"t_struct(MarketItem)684_storage": {
						"encoding": "inplace",
						"label": "struct Marketplace.MarketItem",
						"members": [
							{
								"astId": 667,
								"contract": "Marketplace.sol:Marketplace",
								"label": "itemId",
								"offset": 0,
								"slot": "0",
								"type": "t_uint256"
							},
							{
								"astId": 669,
								"contract": "Marketplace.sol:Marketplace",
								"label": "title",
								"offset": 0,
								"slot": "1",
								"type": "t_string_storage"
							},
							{
								"astId": 671,
								"contract": "Marketplace.sol:Marketplace",
								"label": "description",
								"offset": 0,
								"slot": "2",
								"type": "t_string_storage"
							},
							{
								"astId": 673,
								"contract": "Marketplace.sol:Marketplace",
								"label": "price",
								"offset": 0,
								"slot": "3",
								"type": "t_uint256"
							},
							{
								"astId": 675,
								"contract": "Marketplace.sol:Marketplace",
								"label": "seller",
								"offset": 0,
								"slot": "4",
								"type": "t_address_payable"
							},
							{
								"astId": 677,
								"contract": "Marketplace.sol:Marketplace",
								"label": "imageUrl",
								"offset": 0,
								"slot": "5",
								"type": "t_string_storage"
							},
							{
								"astId": 679,
								"contract": "Marketplace.sol:Marketplace",
								"label": "quantity",
								"offset": 0,
								"slot": "6",
								"type": "t_uint8"
							},
							{
								"astId": 681,
								"contract": "Marketplace.sol:Marketplace",
								"label": "createdAt",
								"offset": 0,
								"slot": "7",
								"type": "t_uint256"
							},
							{
								"astId": 683,
								"contract": "Marketplace.sol:Marketplace",
								"label": "updatedAt",
								"offset": 0,
								"slot": "8",
								"type": "t_uint256"
							}
						],
						"numberOfBytes": "288"
					},
					"t_struct(RoleData)19_storage": {
						"encoding": "inplace",
						"label": "struct AccessControl.RoleData",
						"members": [
							{
								"astId": 16,
								"contract": "Marketplace.sol:Marketplace",
								"label": "members",
								"offset": 0,
								"slot": "0",
								"type": "t_mapping(t_address,t_bool)"
							},
							{
								"astId": 18,
								"contract": "Marketplace.sol:Marketplace",
								"label": "adminRole",
								"offset": 0,
								"slot": "1",
								"type": "t_bytes32"
							}
						],
						"numberOfBytes": "64"
					},
					"t_uint256": {
						"encoding": "inplace",
						"label": "uint256",
						"numberOfBytes": "32"
					},
					"t_uint8": {
						"encoding": "inplace",
						"label": "uint8",
						"numberOfBytes": "1"
					}
				}
			},
			"userdoc": {
				"kind": "user",
				"methods": {},
				"version": 1
			}
		}
	}
}