{
	"Marketplace.sol": {
		"Marketplace": {
			"abi": [
				{
					"inputs": [],
					"stateMutability": "nonpayable",
					"type": "constructor"
				},
				{
					"anonymous": false,
					"inputs": [
						{
							"indexed": true,
							"internalType": "bytes32",
							"name": "role",
							"type": "bytes32"
						},
						{
							"indexed": true,
							"internalType": "bytes32",
							"name": "previousAdminRole",
							"type": "bytes32"
						},
						{
							"indexed": true,
							"internalType": "bytes32",
							"name": "newAdminRole",
							"type": "bytes32"
						}
					],
					"name": "RoleAdminChanged",
					"type": "event"
				},
				{
					"anonymous": false,
					"inputs": [
						{
							"indexed": true,
							"internalType": "bytes32",
							"name": "role",
							"type": "bytes32"
						},
						{
							"indexed": true,
							"internalType": "address",
							"name": "account",
							"type": "address"
						},
						{
							"indexed": true,
							"internalType": "address",
							"name": "sender",
							"type": "address"
						}
					],
					"name": "RoleGranted",
					"type": "event"
				},
				{
					"anonymous": false,
					"inputs": [
						{
							"indexed": true,
							"internalType": "bytes32",
							"name": "role",
							"type": "bytes32"
						},
						{
							"indexed": true,
							"internalType": "address",
							"name": "account",
							"type": "address"
						},
						{
							"indexed": true,
							"internalType": "address",
							"name": "sender",
							"type": "address"
						}
					],
					"name": "RoleRevoked",
					"type": "event"
				},
				{
					"inputs": [],
					"name": "DEFAULT_ADMIN_ROLE",
					"outputs": [
						{
							"internalType": "bytes32",
							"name": "",
							"type": "bytes32"
						}
					],
					"stateMutability": "view",
					"type": "function"
				},
				{
					"inputs": [],
					"name": "MARKETPLACE_OWNER",
					"outputs": [
						{
							"internalType": "bytes32",
							"name": "",
							"type": "bytes32"
						}
					],
					"stateMutability": "view",
					"type": "function"
				},
				{
					"inputs": [
						{
							"internalType": "uint256",
							"name": "_itemId",
							"type": "uint256"
						}
					],
					"name": "buyMarketItem",
					"outputs": [],
					"stateMutability": "payable",
					"type": "function"
				},
				{
					"inputs": [
						{
							"internalType": "string",
							"name": "_title",
							"type": "string"
						},
						{
							"internalType": "string",
							"name": "_description",
							"type": "string"
						},
						{
							"internalType": "address payable",
							"name": "_seller",
							"type": "address"
						},
						{
							"internalType": "uint256",
							"name": "_price",
							"type": "uint256"
						},
						{
							"internalType": "string",
							"name": "_imageUrl",
							"type": "string"
						},
						{
							"internalType": "uint256",
							"name": "_quantity",
							"type": "uint256"
						}
					],
					"name": "createMarketItem",
					"outputs": [],
					"stateMutability": "nonpayable",
					"type": "function"
				},
				{
					"inputs": [
						{
							"internalType": "uint256",
							"name": "_itemId",
							"type": "uint256"
						}
					],
					"name": "getMarketItem",
					"outputs": [
						{
							"internalType": "string",
							"name": "title",
							"type": "string"
						},
						{
							"internalType": "string",
							"name": "description",
							"type": "string"
						},
						{
							"internalType": "address payable",
							"name": "seller",
							"type": "address"
						},
						{
							"internalType": "uint256",
							"name": "price",
							"type": "uint256"
						},
						{
							"internalType": "bool",
							"name": "sold",
							"type": "bool"
						},
						{
							"internalType": "string",
							"name": "imageUrl",
							"type": "string"
						},
						{
							"internalType": "uint256",
							"name": "stars",
							"type": "uint256"
						},
						{
							"internalType": "uint256",
							"name": "quantity",
							"type": "uint256"
						}
					],
					"stateMutability": "view",
					"type": "function"
				},
				{
					"inputs": [
						{
							"internalType": "bytes32",
							"name": "role",
							"type": "bytes32"
						}
					],
					"name": "getRoleAdmin",
					"outputs": [
						{
							"internalType": "bytes32",
							"name": "",
							"type": "bytes32"
						}
					],
					"stateMutability": "view",
					"type": "function"
				},
				{
					"inputs": [
						{
							"internalType": "bytes32",
							"name": "role",
							"type": "bytes32"
						},
						{
							"internalType": "address",
							"name": "account",
							"type": "address"
						}
					],
					"name": "grantRole",
					"outputs": [],
					"stateMutability": "nonpayable",
					"type": "function"
				},
				{
					"inputs": [
						{
							"internalType": "bytes32",
							"name": "role",
							"type": "bytes32"
						},
						{
							"internalType": "address",
							"name": "account",
							"type": "address"
						}
					],
					"name": "hasRole",
					"outputs": [
						{
							"internalType": "bool",
							"name": "",
							"type": "bool"
						}
					],
					"stateMutability": "view",
					"type": "function"
				},
				{
					"inputs": [],
					"name": "nextItemId",
					"outputs": [
						{
							"internalType": "uint256",
							"name": "",
							"type": "uint256"
						}
					],
					"stateMutability": "view",
					"type": "function"
				},
				{
					"inputs": [
						{
							"internalType": "bytes32",
							"name": "role",
							"type": "bytes32"
						},
						{
							"internalType": "address",
							"name": "account",
							"type": "address"
						}
					],
					"name": "renounceRole",
					"outputs": [],
					"stateMutability": "nonpayable",
					"type": "function"
				},
				{
					"inputs": [
						{
							"internalType": "bytes32",
							"name": "role",
							"type": "bytes32"
						},
						{
							"internalType": "address",
							"name": "account",
							"type": "address"
						}
					],
					"name": "revokeRole",
					"outputs": [],
					"stateMutability": "nonpayable",
					"type": "function"
				},
				{
					"inputs": [
						{
							"internalType": "bytes4",
							"name": "interfaceId",
							"type": "bytes4"
						}
					],
					"name": "supportsInterface",
					"outputs": [
						{
							"internalType": "bool",
							"name": "",
							"type": "bool"
						}
					],
					"stateMutability": "view",
					"type": "function"
				}
			],
			"devdoc": {
				"kind": "dev",
				"methods": {
					"getRoleAdmin(bytes32)": {
						"details": "Returns the admin role that controls `role`. See {grantRole} and {revokeRole}. To change a role's admin, use {_setRoleAdmin}."
					},
					"grantRole(bytes32,address)": {
						"details": "Grants `role` to `account`. If `account` had not been already granted `role`, emits a {RoleGranted} event. Requirements: - the caller must have ``role``'s admin role."
					},
					"hasRole(bytes32,address)": {
						"details": "Returns `true` if `account` has been granted `role`."
					},
					"renounceRole(bytes32,address)": {
						"details": "Revokes `role` from the calling account. Roles are often managed via {grantRole} and {revokeRole}: this function's purpose is to provide a mechanism for accounts to lose their privileges if they are compromised (such as when a trusted device is misplaced). If the calling account had been revoked `role`, emits a {RoleRevoked} event. Requirements: - the caller must be `account`."
					},
					"revokeRole(bytes32,address)": {
						"details": "Revokes `role` from `account`. If `account` had been granted `role`, emits a {RoleRevoked} event. Requirements: - the caller must have ``role``'s admin role."
					},
					"supportsInterface(bytes4)": {
						"details": "See {IERC165-supportsInterface}."
					}
				},
				"version": 1
			},
			"evm": {
				"assembly": "    /* \"Marketplace.sol\":122:2009  contract Marketplace is  AccessControl {\r... */\n  mstore(0x40, 0x80)\n    /* \"Marketplace.sol\":277:278  0 */\n  0x00\n    /* \"Marketplace.sol\":249:278  uint256 public nextItemId = 0 */\n  0x01\n  sstore\n    /* \"Marketplace.sol\":617:691  constructor() {\r... */\n  callvalue\n  dup1\n  iszero\n  tag_1\n  jumpi\n  0x00\n  dup1\n  revert\ntag_1:\n  pop\n    /* \"Marketplace.sol\":642:683  _grantRole(MARKETPLACE_OWNER, msg.sender) */\n  tag_4\n    /* \"Marketplace.sol\":212:242  keccak256(\"MARKETPLACE_OWNER\") */\n  0x1f9ca85e780b3b3cfbe1334ca9dd68802db7860f692bd163c796bb76d464edc0\n    /* \"Marketplace.sol\":672:682  msg.sender */\n  caller\n    /* \"Marketplace.sol\":642:652  _grantRole */\n  shl(0x20, tag_5)\n    /* \"Marketplace.sol\":642:683  _grantRole(MARKETPLACE_OWNER, msg.sender) */\n  0x20\n  shr\n  jump\t// in\ntag_4:\n    /* \"Marketplace.sol\":122:2009  contract Marketplace is  AccessControl {\r... */\n  jump(tag_6)\n    /* \"@openzeppelin/contracts/access/AccessControl.sol\":6861:7094  function _grantRole(bytes32 role, address account) internal virtual {... */\ntag_5:\n    /* \"@openzeppelin/contracts/access/AccessControl.sol\":6944:6966  hasRole(role, account) */\n  tag_8\n    /* \"@openzeppelin/contracts/access/AccessControl.sol\":6952:6956  role */\n  dup3\n    /* \"@openzeppelin/contracts/access/AccessControl.sol\":6958:6965  account */\n  dup3\n    /* \"@openzeppelin/contracts/access/AccessControl.sol\":6944:6951  hasRole */\n  shl(0x20, tag_9)\n    /* \"@openzeppelin/contracts/access/AccessControl.sol\":6944:6966  hasRole(role, account) */\n  0x20\n  shr\n  jump\t// in\ntag_8:\n    /* \"@openzeppelin/contracts/access/AccessControl.sol\":6939:7088  if (!hasRole(role, account)) {... */\n  tag_10\n  jumpi\n    /* \"@openzeppelin/contracts/access/AccessControl.sol\":7014:7018  true */\n  0x01\n    /* \"@openzeppelin/contracts/access/AccessControl.sol\":6982:6988  _roles */\n  0x00\n    /* \"@openzeppelin/contracts/access/AccessControl.sol\":6982:6994  _roles[role] */\n  dup1\n    /* \"@openzeppelin/contracts/access/AccessControl.sol\":6989:6993  role */\n  dup5\n    /* \"@openzeppelin/contracts/access/AccessControl.sol\":6982:6994  _roles[role] */\n  dup2\n  mstore\n  0x20\n  add\n  swap1\n  dup2\n  mstore\n  0x20\n  add\n  0x00\n  keccak256\n    /* \"@openzeppelin/contracts/access/AccessControl.sol\":6982:7002  _roles[role].members */\n  0x00\n  add\n    /* \"@openzeppelin/contracts/access/AccessControl.sol\":6982:7011  _roles[role].members[account] */\n  0x00\n    /* \"@openzeppelin/contracts/access/AccessControl.sol\":7003:7010  account */\n  dup4\n    /* \"@openzeppelin/contracts/access/AccessControl.sol\":6982:7011  _roles[role].members[account] */\n  0xffffffffffffffffffffffffffffffffffffffff\n  and\n  0xffffffffffffffffffffffffffffffffffffffff\n  and\n  dup2\n  mstore\n  0x20\n  add\n  swap1\n  dup2\n  mstore\n  0x20\n  add\n  0x00\n  keccak256\n  0x00\n    /* \"@openzeppelin/contracts/access/AccessControl.sol\":6982:7018  _roles[role].members[account] = true */\n  0x0100\n  exp\n  dup2\n  sload\n  dup2\n  0xff\n  mul\n  not\n  and\n  swap1\n  dup4\n  iszero\n  iszero\n  mul\n  or\n  swap1\n  sstore\n  pop\n    /* \"@openzeppelin/contracts/access/AccessControl.sol\":7064:7076  _msgSender() */\n  tag_11\n    /* \"@openzeppelin/contracts/access/AccessControl.sol\":7064:7074  _msgSender */\n  shl(0x20, tag_12)\n    /* \"@openzeppelin/contracts/access/AccessControl.sol\":7064:7076  _msgSender() */\n  0x20\n  shr\n  jump\t// in\ntag_11:\n    /* \"@openzeppelin/contracts/access/AccessControl.sol\":7037:7077  RoleGranted(role, account, _msgSender()) */\n  0xffffffffffffffffffffffffffffffffffffffff\n  and\n    /* \"@openzeppelin/contracts/access/AccessControl.sol\":7055:7062  account */\n  dup2\n    /* \"@openzeppelin/contracts/access/AccessControl.sol\":7037:7077  RoleGranted(role, account, _msgSender()) */\n  0xffffffffffffffffffffffffffffffffffffffff\n  and\n    /* \"@openzeppelin/contracts/access/AccessControl.sol\":7049:7053  role */\n  dup4\n    /* \"@openzeppelin/contracts/access/AccessControl.sol\":7037:7077  RoleGranted(role, account, _msgSender()) */\n  0x2f8788117e7eff1d82e926ec794901d17c78024a50270940304540a733656f0d\n  mload(0x40)\n  mload(0x40)\n  dup1\n  swap2\n  sub\n  swap1\n  log4\n    /* \"@openzeppelin/contracts/access/AccessControl.sol\":6939:7088  if (!hasRole(role, account)) {... */\ntag_10:\n    /* \"@openzeppelin/contracts/access/AccessControl.sol\":6861:7094  function _grantRole(bytes32 role, address account) internal virtual {... */\n  pop\n  pop\n  jump\t// out\n    /* \"@openzeppelin/contracts/access/AccessControl.sol\":2909:3054  function hasRole(bytes32 role, address account) public view virtual override returns (bool) {... */\ntag_9:\n    /* \"@openzeppelin/contracts/access/AccessControl.sol\":2995:2999  bool */\n  0x00\n    /* \"@openzeppelin/contracts/access/AccessControl.sol\":3018:3024  _roles */\n  dup1\n    /* \"@openzeppelin/contracts/access/AccessControl.sol\":3018:3030  _roles[role] */\n  0x00\n    /* \"@openzeppelin/contracts/access/AccessControl.sol\":3025:3029  role */\n  dup5\n    /* \"@openzeppelin/contracts/access/AccessControl.sol\":3018:3030  _roles[role] */\n  dup2\n  mstore\n  0x20\n  add\n  swap1\n  dup2\n  mstore\n  0x20\n  add\n  0x00\n  keccak256\n    /* \"@openzeppelin/contracts/access/AccessControl.sol\":3018:3038  _roles[role].members */\n  0x00\n  add\n    /* \"@openzeppelin/contracts/access/AccessControl.sol\":3018:3047  _roles[role].members[account] */\n  0x00\n    /* \"@openzeppelin/contracts/access/AccessControl.sol\":3039:3046  account */\n  dup4\n    /* \"@openzeppelin/contracts/access/AccessControl.sol\":3018:3047  _roles[role].members[account] */\n  0xffffffffffffffffffffffffffffffffffffffff\n  and\n  0xffffffffffffffffffffffffffffffffffffffff\n  and\n  dup2\n  mstore\n  0x20\n  add\n  swap1\n  dup2\n  mstore\n  0x20\n  add\n  0x00\n  keccak256\n  0x00\n  swap1\n  sload\n  swap1\n  0x0100\n  exp\n  swap1\n  div\n  0xff\n  and\n    /* \"@openzeppelin/contracts/access/AccessControl.sol\":3011:3047  return _roles[role].members[account] */\n  swap1\n  pop\n    /* \"@openzeppelin/contracts/access/AccessControl.sol\":2909:3054  function hasRole(bytes32 role, address account) public view virtual override returns (bool) {... */\n  swap3\n  swap2\n  pop\n  pop\n  jump\t// out\n    /* \"@openzeppelin/contracts/utils/Context.sol\":640:736  function _msgSender() internal view virtual returns (address) {... */\ntag_12:\n    /* \"@openzeppelin/contracts/utils/Context.sol\":693:700  address */\n  0x00\n    /* \"@openzeppelin/contracts/utils/Context.sol\":719:729  msg.sender */\n  caller\n    /* \"@openzeppelin/contracts/utils/Context.sol\":712:729  return msg.sender */\n  swap1\n  pop\n    /* \"@openzeppelin/contracts/utils/Context.sol\":640:736  function _msgSender() internal view virtual returns (address) {... */\n  swap1\n  jump\t// out\n    /* \"Marketplace.sol\":122:2009  contract Marketplace is  AccessControl {\r... */\ntag_6:\n  dataSize(sub_0)\n  dup1\n  dataOffset(sub_0)\n  0x00\n  codecopy\n  0x00\n  return\nstop\n\nsub_0: assembly {\n        /* \"Marketplace.sol\":122:2009  contract Marketplace is  AccessControl {\r... */\n      mstore(0x40, 0x80)\n      jumpi(tag_1, lt(calldatasize, 0x04))\n      shr(0xe0, calldataload(0x00))\n      dup1\n      0x91d14854\n      gt\n      tag_14\n      jumpi\n      dup1\n      0x91d14854\n      eq\n      tag_8\n      jumpi\n      dup1\n      0xa217fddf\n      eq\n      tag_9\n      jumpi\n      dup1\n      0xb491efa0\n      eq\n      tag_10\n      jumpi\n      dup1\n      0xc7be7a49\n      eq\n      tag_11\n      jumpi\n      dup1\n      0xd547741f\n      eq\n      tag_12\n      jumpi\n      dup1\n      0xdbf58e86\n      eq\n      tag_13\n      jumpi\n      jump(tag_1)\n    tag_14:\n      dup1\n      0x01ffc9a7\n      eq\n      tag_2\n      jumpi\n      dup1\n      0x248a9ca3\n      eq\n      tag_3\n      jumpi\n      dup1\n      0x2f2ff15d\n      eq\n      tag_4\n      jumpi\n      dup1\n      0x351901c3\n      eq\n      tag_5\n      jumpi\n      dup1\n      0x36568abe\n      eq\n      tag_6\n      jumpi\n      dup1\n      0x6a868974\n      eq\n      tag_7\n      jumpi\n    tag_1:\n      0x00\n      dup1\n      revert\n        /* \"@openzeppelin/contracts/access/AccessControl.sol\":2620:2822  function supportsInterface(bytes4 interfaceId) public view virtual override returns (bool) {... */\n    tag_2:\n      callvalue\n      dup1\n      iszero\n      tag_15\n      jumpi\n      0x00\n      dup1\n      revert\n    tag_15:\n      pop\n      tag_16\n      0x04\n      dup1\n      calldatasize\n      sub\n      dup2\n      add\n      swap1\n      tag_17\n      swap2\n      swap1\n      tag_18\n      jump\t// in\n    tag_17:\n      tag_19\n      jump\t// in\n    tag_16:\n      mload(0x40)\n      tag_20\n      swap2\n      swap1\n      tag_21\n      jump\t// in\n    tag_20:\n      mload(0x40)\n      dup1\n      swap2\n      sub\n      swap1\n      return\n        /* \"@openzeppelin/contracts/access/AccessControl.sol\":4008:4137  function getRoleAdmin(bytes32 role) public view virtual override returns (bytes32) {... */\n    tag_3:\n      callvalue\n      dup1\n      iszero\n      tag_22\n      jumpi\n      0x00\n      dup1\n      revert\n    tag_22:\n      pop\n      tag_23\n      0x04\n      dup1\n      calldatasize\n      sub\n      dup2\n      add\n      swap1\n      tag_24\n      swap2\n      swap1\n      tag_25\n      jump\t// in\n    tag_24:\n      tag_26\n      jump\t// in\n    tag_23:\n      mload(0x40)\n      tag_27\n      swap2\n      swap1\n      tag_28\n      jump\t// in\n    tag_27:\n      mload(0x40)\n      dup1\n      swap2\n      sub\n      swap1\n      return\n        /* \"@openzeppelin/contracts/access/AccessControl.sol\":4387:4532  function grantRole(bytes32 role, address account) public virtual override onlyRole(getRoleAdmin(role)) {... */\n    tag_4:\n      callvalue\n      dup1\n      iszero\n      tag_29\n      jumpi\n      0x00\n      dup1\n      revert\n    tag_29:\n      pop\n      tag_30\n      0x04\n      dup1\n      calldatasize\n      sub\n      dup2\n      add\n      swap1\n      tag_31\n      swap2\n      swap1\n      tag_32\n      jump\t// in\n    tag_31:\n      tag_33\n      jump\t// in\n    tag_30:\n      stop\n        /* \"Marketplace.sol\":1256:1593  function buyMarketItem(uint256 _itemId) public payable {\r... */\n    tag_5:\n      tag_34\n      0x04\n      dup1\n      calldatasize\n      sub\n      dup2\n      add\n      swap1\n      tag_35\n      swap2\n      swap1\n      tag_36\n      jump\t// in\n    tag_35:\n      tag_37\n      jump\t// in\n    tag_34:\n      stop\n        /* \"@openzeppelin/contracts/access/AccessControl.sol\":5404:5618  function renounceRole(bytes32 role, address account) public virtual override {... */\n    tag_6:\n      callvalue\n      dup1\n      iszero\n      tag_38\n      jumpi\n      0x00\n      dup1\n      revert\n    tag_38:\n      pop\n      tag_39\n      0x04\n      dup1\n      calldatasize\n      sub\n      dup2\n      add\n      swap1\n      tag_40\n      swap2\n      swap1\n      tag_32\n      jump\t// in\n    tag_40:\n      tag_41\n      jump\t// in\n    tag_39:\n      stop\n        /* \"Marketplace.sol\":249:278  uint256 public nextItemId = 0 */\n    tag_7:\n      callvalue\n      dup1\n      iszero\n      tag_42\n      jumpi\n      0x00\n      dup1\n      revert\n    tag_42:\n      pop\n      tag_43\n      tag_44\n      jump\t// in\n    tag_43:\n      mload(0x40)\n      tag_45\n      swap2\n      swap1\n      tag_46\n      jump\t// in\n    tag_45:\n      mload(0x40)\n      dup1\n      swap2\n      sub\n      swap1\n      return\n        /* \"@openzeppelin/contracts/access/AccessControl.sol\":2909:3054  function hasRole(bytes32 role, address account) public view virtual override returns (bool) {... */\n    tag_8:\n      callvalue\n      dup1\n      iszero\n      tag_47\n      jumpi\n      0x00\n      dup1\n      revert\n    tag_47:\n      pop\n      tag_48\n      0x04\n      dup1\n      calldatasize\n      sub\n      dup2\n      add\n      swap1\n      tag_49\n      swap2\n      swap1\n      tag_32\n      jump\t// in\n    tag_49:\n      tag_50\n      jump\t// in\n    tag_48:\n      mload(0x40)\n      tag_51\n      swap2\n      swap1\n      tag_21\n      jump\t// in\n    tag_51:\n      mload(0x40)\n      dup1\n      swap2\n      sub\n      swap1\n      return\n        /* \"@openzeppelin/contracts/access/AccessControl.sol\":2027:2076  bytes32 public constant DEFAULT_ADMIN_ROLE = 0x00 */\n    tag_9:\n      callvalue\n      dup1\n      iszero\n      tag_52\n      jumpi\n      0x00\n      dup1\n      revert\n    tag_52:\n      pop\n      tag_53\n      tag_54\n      jump\t// in\n    tag_53:\n      mload(0x40)\n      tag_55\n      swap2\n      swap1\n      tag_28\n      jump\t// in\n    tag_55:\n      mload(0x40)\n      dup1\n      swap2\n      sub\n      swap1\n      return\n        /* \"Marketplace.sol\":168:242  bytes32 public constant MARKETPLACE_OWNER = keccak256(\"MARKETPLACE_OWNER\") */\n    tag_10:\n      callvalue\n      dup1\n      iszero\n      tag_56\n      jumpi\n      0x00\n      dup1\n      revert\n    tag_56:\n      pop\n      tag_57\n      tag_58\n      jump\t// in\n    tag_57:\n      mload(0x40)\n      tag_59\n      swap2\n      swap1\n      tag_28\n      jump\t// in\n    tag_59:\n      mload(0x40)\n      dup1\n      swap2\n      sub\n      swap1\n      return\n        /* \"Marketplace.sol\":1601:2004  function getMarketItem(uint256 _itemId) public view returns (string memory title, string memory description, address payable seller, uint256 price, bool sold, string memory imageUrl, uint stars, uint quantity) {\r... */\n    tag_11:\n      callvalue\n      dup1\n      iszero\n      tag_60\n      jumpi\n      0x00\n      dup1\n      revert\n    tag_60:\n      pop\n      tag_61\n      0x04\n      dup1\n      calldatasize\n      sub\n      dup2\n      add\n      swap1\n      tag_62\n      swap2\n      swap1\n      tag_36\n      jump\t// in\n    tag_62:\n      tag_63\n      jump\t// in\n    tag_61:\n      mload(0x40)\n      tag_64\n      swap9\n      swap8\n      swap7\n      swap6\n      swap5\n      swap4\n      swap3\n      swap2\n      swap1\n      tag_65\n      jump\t// in\n    tag_64:\n      mload(0x40)\n      dup1\n      swap2\n      sub\n      swap1\n      return\n        /* \"@openzeppelin/contracts/access/AccessControl.sol\":4766:4913  function revokeRole(bytes32 role, address account) public virtual override onlyRole(getRoleAdmin(role)) {... */\n    tag_12:\n      callvalue\n      dup1\n      iszero\n      tag_66\n      jumpi\n      0x00\n      dup1\n      revert\n    tag_66:\n      pop\n      tag_67\n      0x04\n      dup1\n      calldatasize\n      sub\n      dup2\n      add\n      swap1\n      tag_68\n      swap2\n      swap1\n      tag_32\n      jump\t// in\n    tag_68:\n      tag_69\n      jump\t// in\n    tag_67:\n      stop\n        /* \"Marketplace.sol\":699:1248  function createMarketItem(string memory _title, string memory _description, address payable _seller, uint256 _price, string memory _imageUrl, uint _quantity) public {\r... */\n    tag_13:\n      callvalue\n      dup1\n      iszero\n      tag_70\n      jumpi\n      0x00\n      dup1\n      revert\n    tag_70:\n      pop\n      tag_71\n      0x04\n      dup1\n      calldatasize\n      sub\n      dup2\n      add\n      swap1\n      tag_72\n      swap2\n      swap1\n      tag_73\n      jump\t// in\n    tag_72:\n      tag_74\n      jump\t// in\n    tag_71:\n      stop\n        /* \"@openzeppelin/contracts/access/AccessControl.sol\":2620:2822  function supportsInterface(bytes4 interfaceId) public view virtual override returns (bool) {... */\n    tag_19:\n        /* \"@openzeppelin/contracts/access/AccessControl.sol\":2705:2709  bool */\n      0x00\n        /* \"@openzeppelin/contracts/access/AccessControl.sol\":2743:2775  type(IAccessControl).interfaceId */\n      0x7965db0b00000000000000000000000000000000000000000000000000000000\n        /* \"@openzeppelin/contracts/access/AccessControl.sol\":2728:2775  interfaceId == type(IAccessControl).interfaceId */\n      not(0xffffffffffffffffffffffffffffffffffffffffffffffffffffffff)\n      and\n        /* \"@openzeppelin/contracts/access/AccessControl.sol\":2728:2739  interfaceId */\n      dup3\n        /* \"@openzeppelin/contracts/access/AccessControl.sol\":2728:2775  interfaceId == type(IAccessControl).interfaceId */\n      not(0xffffffffffffffffffffffffffffffffffffffffffffffffffffffff)\n      and\n      eq\n        /* \"@openzeppelin/contracts/access/AccessControl.sol\":2728:2815  interfaceId == type(IAccessControl).interfaceId || super.supportsInterface(interfaceId) */\n      dup1\n      tag_76\n      jumpi\n      pop\n        /* \"@openzeppelin/contracts/access/AccessControl.sol\":2779:2815  super.supportsInterface(interfaceId) */\n      tag_77\n        /* \"@openzeppelin/contracts/access/AccessControl.sol\":2803:2814  interfaceId */\n      dup3\n        /* \"@openzeppelin/contracts/access/AccessControl.sol\":2779:2802  super.supportsInterface */\n      tag_78\n        /* \"@openzeppelin/contracts/access/AccessControl.sol\":2779:2815  super.supportsInterface(interfaceId) */\n      jump\t// in\n    tag_77:\n        /* \"@openzeppelin/contracts/access/AccessControl.sol\":2728:2815  interfaceId == type(IAccessControl).interfaceId || super.supportsInterface(interfaceId) */\n    tag_76:\n        /* \"@openzeppelin/contracts/access/AccessControl.sol\":2721:2815  return interfaceId == type(IAccessControl).interfaceId || super.supportsInterface(interfaceId) */\n      swap1\n      pop\n        /* \"@openzeppelin/contracts/access/AccessControl.sol\":2620:2822  function supportsInterface(bytes4 interfaceId) public view virtual override returns (bool) {... */\n      swap2\n      swap1\n      pop\n      jump\t// out\n        /* \"@openzeppelin/contracts/access/AccessControl.sol\":4008:4137  function getRoleAdmin(bytes32 role) public view virtual override returns (bytes32) {... */\n    tag_26:\n        /* \"@openzeppelin/contracts/access/AccessControl.sol\":4082:4089  bytes32 */\n      0x00\n        /* \"@openzeppelin/contracts/access/AccessControl.sol\":4108:4114  _roles */\n      dup1\n        /* \"@openzeppelin/contracts/access/AccessControl.sol\":4108:4120  _roles[role] */\n      0x00\n        /* \"@openzeppelin/contracts/access/AccessControl.sol\":4115:4119  role */\n      dup4\n        /* \"@openzeppelin/contracts/access/AccessControl.sol\":4108:4120  _roles[role] */\n      dup2\n      mstore\n      0x20\n      add\n      swap1\n      dup2\n      mstore\n      0x20\n      add\n      0x00\n      keccak256\n        /* \"@openzeppelin/contracts/access/AccessControl.sol\":4108:4130  _roles[role].adminRole */\n      0x01\n      add\n      sload\n        /* \"@openzeppelin/contracts/access/AccessControl.sol\":4101:4130  return _roles[role].adminRole */\n      swap1\n      pop\n        /* \"@openzeppelin/contracts/access/AccessControl.sol\":4008:4137  function getRoleAdmin(bytes32 role) public view virtual override returns (bytes32) {... */\n      swap2\n      swap1\n      pop\n      jump\t// out\n        /* \"@openzeppelin/contracts/access/AccessControl.sol\":4387:4532  function grantRole(bytes32 role, address account) public virtual override onlyRole(getRoleAdmin(role)) {... */\n    tag_33:\n        /* \"@openzeppelin/contracts/access/AccessControl.sol\":4470:4488  getRoleAdmin(role) */\n      tag_80\n        /* \"@openzeppelin/contracts/access/AccessControl.sol\":4483:4487  role */\n      dup3\n        /* \"@openzeppelin/contracts/access/AccessControl.sol\":4470:4482  getRoleAdmin */\n      tag_26\n        /* \"@openzeppelin/contracts/access/AccessControl.sol\":4470:4488  getRoleAdmin(role) */\n      jump\t// in\n    tag_80:\n        /* \"@openzeppelin/contracts/access/AccessControl.sol\":2505:2535  _checkRole(role, _msgSender()) */\n      tag_82\n        /* \"@openzeppelin/contracts/access/AccessControl.sol\":2516:2520  role */\n      dup2\n        /* \"@openzeppelin/contracts/access/AccessControl.sol\":2522:2534  _msgSender() */\n      tag_83\n        /* \"@openzeppelin/contracts/access/AccessControl.sol\":2522:2532  _msgSender */\n      tag_84\n        /* \"@openzeppelin/contracts/access/AccessControl.sol\":2522:2534  _msgSender() */\n      jump\t// in\n    tag_83:\n        /* \"@openzeppelin/contracts/access/AccessControl.sol\":2505:2515  _checkRole */\n      tag_85\n        /* \"@openzeppelin/contracts/access/AccessControl.sol\":2505:2535  _checkRole(role, _msgSender()) */\n      jump\t// in\n    tag_82:\n        /* \"@openzeppelin/contracts/access/AccessControl.sol\":4500:4525  _grantRole(role, account) */\n      tag_87\n        /* \"@openzeppelin/contracts/access/AccessControl.sol\":4511:4515  role */\n      dup4\n        /* \"@openzeppelin/contracts/access/AccessControl.sol\":4517:4524  account */\n      dup4\n        /* \"@openzeppelin/contracts/access/AccessControl.sol\":4500:4510  _grantRole */\n      tag_88\n        /* \"@openzeppelin/contracts/access/AccessControl.sol\":4500:4525  _grantRole(role, account) */\n      jump\t// in\n    tag_87:\n        /* \"@openzeppelin/contracts/access/AccessControl.sol\":4387:4532  function grantRole(bytes32 role, address account) public virtual override onlyRole(getRoleAdmin(role)) {... */\n      pop\n      pop\n      pop\n      jump\t// out\n        /* \"Marketplace.sol\":1256:1593  function buyMarketItem(uint256 _itemId) public payable {\r... */\n    tag_37:\n        /* \"Marketplace.sol\":1362:1367  false */\n      0x00\n        /* \"Marketplace.sol\":1330:1367  idToMarketItem[_itemId].sold == false */\n      iszero\n      iszero\n        /* \"Marketplace.sol\":1330:1344  idToMarketItem */\n      0x02\n        /* \"Marketplace.sol\":1330:1353  idToMarketItem[_itemId] */\n      0x00\n        /* \"Marketplace.sol\":1345:1352  _itemId */\n      dup4\n        /* \"Marketplace.sol\":1330:1353  idToMarketItem[_itemId] */\n      dup2\n      mstore\n      0x20\n      add\n      swap1\n      dup2\n      mstore\n      0x20\n      add\n      0x00\n      keccak256\n        /* \"Marketplace.sol\":1330:1358  idToMarketItem[_itemId].sold */\n      0x04\n      add\n      0x14\n      swap1\n      sload\n      swap1\n      0x0100\n      exp\n      swap1\n      div\n      0xff\n      and\n        /* \"Marketplace.sol\":1330:1367  idToMarketItem[_itemId].sold == false */\n      iszero\n      iszero\n      eq\n        /* \"Marketplace.sol\":1322:1392  require(idToMarketItem[_itemId].sold == false, \"Item is already sold\") */\n      tag_90\n      jumpi\n      mload(0x40)\n      0x08c379a000000000000000000000000000000000000000000000000000000000\n      dup2\n      mstore\n      0x04\n      add\n      tag_91\n      swap1\n      tag_92\n      jump\t// in\n    tag_91:\n      mload(0x40)\n      dup1\n      swap2\n      sub\n      swap1\n      revert\n    tag_90:\n        /* \"Marketplace.sol\":1444:1453  msg.value */\n      callvalue\n        /* \"Marketplace.sol\":1411:1425  idToMarketItem */\n      0x02\n        /* \"Marketplace.sol\":1411:1434  idToMarketItem[_itemId] */\n      0x00\n        /* \"Marketplace.sol\":1426:1433  _itemId */\n      dup4\n        /* \"Marketplace.sol\":1411:1434  idToMarketItem[_itemId] */\n      dup2\n      mstore\n      0x20\n      add\n      swap1\n      dup2\n      mstore\n      0x20\n      add\n      0x00\n      keccak256\n        /* \"Marketplace.sol\":1411:1440  idToMarketItem[_itemId].price */\n      0x03\n      add\n      sload\n        /* \"Marketplace.sol\":1411:1453  idToMarketItem[_itemId].price == msg.value */\n      eq\n        /* \"Marketplace.sol\":1403:1478  require(idToMarketItem[_itemId].price == msg.value, \"Price does not match\") */\n      tag_93\n      jumpi\n      mload(0x40)\n      0x08c379a000000000000000000000000000000000000000000000000000000000\n      dup2\n      mstore\n      0x04\n      add\n      tag_94\n      swap1\n      tag_95\n      jump\t// in\n    tag_94:\n      mload(0x40)\n      dup1\n      swap2\n      sub\n      swap1\n      revert\n    tag_93:\n        /* \"Marketplace.sol\":1520:1524  true */\n      0x01\n        /* \"Marketplace.sol\":1489:1503  idToMarketItem */\n      0x02\n        /* \"Marketplace.sol\":1489:1512  idToMarketItem[_itemId] */\n      0x00\n        /* \"Marketplace.sol\":1504:1511  _itemId */\n      dup4\n        /* \"Marketplace.sol\":1489:1512  idToMarketItem[_itemId] */\n      dup2\n      mstore\n      0x20\n      add\n      swap1\n      dup2\n      mstore\n      0x20\n      add\n      0x00\n      keccak256\n        /* \"Marketplace.sol\":1489:1517  idToMarketItem[_itemId].sold */\n      0x04\n      add\n      0x14\n        /* \"Marketplace.sol\":1489:1524  idToMarketItem[_itemId].sold = true */\n      0x0100\n      exp\n      dup2\n      sload\n      dup2\n      0xff\n      mul\n      not\n      and\n      swap1\n      dup4\n      iszero\n      iszero\n      mul\n      or\n      swap1\n      sstore\n      pop\n        /* \"Marketplace.sol\":1535:1549  idToMarketItem */\n      0x02\n        /* \"Marketplace.sol\":1535:1558  idToMarketItem[_itemId] */\n      0x00\n        /* \"Marketplace.sol\":1550:1557  _itemId */\n      dup3\n        /* \"Marketplace.sol\":1535:1558  idToMarketItem[_itemId] */\n      dup2\n      mstore\n      0x20\n      add\n      swap1\n      dup2\n      mstore\n      0x20\n      add\n      0x00\n      keccak256\n        /* \"Marketplace.sol\":1535:1565  idToMarketItem[_itemId].seller */\n      0x04\n      add\n      0x00\n      swap1\n      sload\n      swap1\n      0x0100\n      exp\n      swap1\n      div\n      0xffffffffffffffffffffffffffffffffffffffff\n      and\n        /* \"Marketplace.sol\":1535:1574  idToMarketItem[_itemId].seller.transfer */\n      0xffffffffffffffffffffffffffffffffffffffff\n      and\n        /* \"Marketplace.sol\":1535:1585  idToMarketItem[_itemId].seller.transfer(msg.value) */\n      0x08fc\n        /* \"Marketplace.sol\":1575:1584  msg.value */\n      callvalue\n        /* \"Marketplace.sol\":1535:1585  idToMarketItem[_itemId].seller.transfer(msg.value) */\n      swap1\n      dup2\n      iszero\n      mul\n      swap1\n      mload(0x40)\n      0x00\n      mload(0x40)\n      dup1\n      dup4\n      sub\n      dup2\n      dup6\n      dup9\n      dup9\n      call\n      swap4\n      pop\n      pop\n      pop\n      pop\n      iszero\n      dup1\n      iszero\n      tag_97\n      jumpi\n      returndatasize\n      0x00\n      dup1\n      returndatacopy\n      revert(0x00, returndatasize)\n    tag_97:\n      pop\n        /* \"Marketplace.sol\":1256:1593  function buyMarketItem(uint256 _itemId) public payable {\r... */\n      pop\n      jump\t// out\n        /* \"@openzeppelin/contracts/access/AccessControl.sol\":5404:5618  function renounceRole(bytes32 role, address account) public virtual override {... */\n    tag_41:\n        /* \"@openzeppelin/contracts/access/AccessControl.sol\":5510:5522  _msgSender() */\n      tag_99\n        /* \"@openzeppelin/contracts/access/AccessControl.sol\":5510:5520  _msgSender */\n      tag_84\n        /* \"@openzeppelin/contracts/access/AccessControl.sol\":5510:5522  _msgSender() */\n      jump\t// in\n    tag_99:\n        /* \"@openzeppelin/contracts/access/AccessControl.sol\":5499:5522  account == _msgSender() */\n      0xffffffffffffffffffffffffffffffffffffffff\n      and\n        /* \"@openzeppelin/contracts/access/AccessControl.sol\":5499:5506  account */\n      dup2\n        /* \"@openzeppelin/contracts/access/AccessControl.sol\":5499:5522  account == _msgSender() */\n      0xffffffffffffffffffffffffffffffffffffffff\n      and\n      eq\n        /* \"@openzeppelin/contracts/access/AccessControl.sol\":5491:5574  require(account == _msgSender(), \"AccessControl: can only renounce roles for self\") */\n      tag_100\n      jumpi\n      mload(0x40)\n      0x08c379a000000000000000000000000000000000000000000000000000000000\n      dup2\n      mstore\n      0x04\n      add\n      tag_101\n      swap1\n      tag_102\n      jump\t// in\n    tag_101:\n      mload(0x40)\n      dup1\n      swap2\n      sub\n      swap1\n      revert\n    tag_100:\n        /* \"@openzeppelin/contracts/access/AccessControl.sol\":5585:5611  _revokeRole(role, account) */\n      tag_103\n        /* \"@openzeppelin/contracts/access/AccessControl.sol\":5597:5601  role */\n      dup3\n        /* \"@openzeppelin/contracts/access/AccessControl.sol\":5603:5610  account */\n      dup3\n        /* \"@openzeppelin/contracts/access/AccessControl.sol\":5585:5596  _revokeRole */\n      tag_104\n        /* \"@openzeppelin/contracts/access/AccessControl.sol\":5585:5611  _revokeRole(role, account) */\n      jump\t// in\n    tag_103:\n        /* \"@openzeppelin/contracts/access/AccessControl.sol\":5404:5618  function renounceRole(bytes32 role, address account) public virtual override {... */\n      pop\n      pop\n      jump\t// out\n        /* \"Marketplace.sol\":249:278  uint256 public nextItemId = 0 */\n    tag_44:\n      sload(0x01)\n      dup2\n      jump\t// out\n        /* \"@openzeppelin/contracts/access/AccessControl.sol\":2909:3054  function hasRole(bytes32 role, address account) public view virtual override returns (bool) {... */\n    tag_50:\n        /* \"@openzeppelin/contracts/access/AccessControl.sol\":2995:2999  bool */\n      0x00\n        /* \"@openzeppelin/contracts/access/AccessControl.sol\":3018:3024  _roles */\n      dup1\n        /* \"@openzeppelin/contracts/access/AccessControl.sol\":3018:3030  _roles[role] */\n      0x00\n        /* \"@openzeppelin/contracts/access/AccessControl.sol\":3025:3029  role */\n      dup5\n        /* \"@openzeppelin/contracts/access/AccessControl.sol\":3018:3030  _roles[role] */\n      dup2\n      mstore\n      0x20\n      add\n      swap1\n      dup2\n      mstore\n      0x20\n      add\n      0x00\n      keccak256\n        /* \"@openzeppelin/contracts/access/AccessControl.sol\":3018:3038  _roles[role].members */\n      0x00\n      add\n        /* \"@openzeppelin/contracts/access/AccessControl.sol\":3018:3047  _roles[role].members[account] */\n      0x00\n        /* \"@openzeppelin/contracts/access/AccessControl.sol\":3039:3046  account */\n      dup4\n        /* \"@openzeppelin/contracts/access/AccessControl.sol\":3018:3047  _roles[role].members[account] */\n      0xffffffffffffffffffffffffffffffffffffffff\n      and\n      0xffffffffffffffffffffffffffffffffffffffff\n      and\n      dup2\n      mstore\n      0x20\n      add\n      swap1\n      dup2\n      mstore\n      0x20\n      add\n      0x00\n      keccak256\n      0x00\n      swap1\n      sload\n      swap1\n      0x0100\n      exp\n      swap1\n      div\n      0xff\n      and\n        /* \"@openzeppelin/contracts/access/AccessControl.sol\":3011:3047  return _roles[role].members[account] */\n      swap1\n      pop\n        /* \"@openzeppelin/contracts/access/AccessControl.sol\":2909:3054  function hasRole(bytes32 role, address account) public view virtual override returns (bool) {... */\n      swap3\n      swap2\n      pop\n      pop\n      jump\t// out\n        /* \"@openzeppelin/contracts/access/AccessControl.sol\":2027:2076  bytes32 public constant DEFAULT_ADMIN_ROLE = 0x00 */\n    tag_54:\n        /* \"@openzeppelin/contracts/access/AccessControl.sol\":2072:2076  0x00 */\n      0x00\n        /* \"@openzeppelin/contracts/access/AccessControl.sol\":2027:2076  bytes32 public constant DEFAULT_ADMIN_ROLE = 0x00 */\n      dup1\n      shl\n      dup2\n      jump\t// out\n        /* \"Marketplace.sol\":168:242  bytes32 public constant MARKETPLACE_OWNER = keccak256(\"MARKETPLACE_OWNER\") */\n    tag_58:\n        /* \"Marketplace.sol\":212:242  keccak256(\"MARKETPLACE_OWNER\") */\n      0x1f9ca85e780b3b3cfbe1334ca9dd68802db7860f692bd163c796bb76d464edc0\n        /* \"Marketplace.sol\":168:242  bytes32 public constant MARKETPLACE_OWNER = keccak256(\"MARKETPLACE_OWNER\") */\n      dup2\n      jump\t// out\n        /* \"Marketplace.sol\":1601:2004  function getMarketItem(uint256 _itemId) public view returns (string memory title, string memory description, address payable seller, uint256 price, bool sold, string memory imageUrl, uint stars, uint quantity) {\r... */\n    tag_63:\n        /* \"Marketplace.sol\":1662:1681  string memory title */\n      0x60\n        /* \"Marketplace.sol\":1683:1708  string memory description */\n      dup1\n        /* \"Marketplace.sol\":1710:1732  address payable seller */\n      0x00\n        /* \"Marketplace.sol\":1734:1747  uint256 price */\n      dup1\n        /* \"Marketplace.sol\":1749:1758  bool sold */\n      0x00\n        /* \"Marketplace.sol\":1760:1782  string memory imageUrl */\n      0x60\n        /* \"Marketplace.sol\":1784:1794  uint stars */\n      0x00\n        /* \"Marketplace.sol\":1796:1809  uint quantity */\n      dup1\n        /* \"Marketplace.sol\":1822:1844  MarketItem memory item */\n      0x00\n        /* \"Marketplace.sol\":1847:1861  idToMarketItem */\n      0x02\n        /* \"Marketplace.sol\":1847:1870  idToMarketItem[_itemId] */\n      0x00\n        /* \"Marketplace.sol\":1862:1869  _itemId */\n      dup12\n        /* \"Marketplace.sol\":1847:1870  idToMarketItem[_itemId] */\n      dup2\n      mstore\n      0x20\n      add\n      swap1\n      dup2\n      mstore\n      0x20\n      add\n      0x00\n      keccak256\n        /* \"Marketplace.sol\":1822:1870  MarketItem memory item = idToMarketItem[_itemId] */\n      mload(0x40)\n      dup1\n      0x0120\n      add\n      0x40\n      mstore\n      swap1\n      dup2\n      0x00\n      dup3\n      add\n      sload\n      dup2\n      mstore\n      0x20\n      add\n      0x01\n      dup3\n      add\n      dup1\n      sload\n      tag_107\n      swap1\n      tag_108\n      jump\t// in\n    tag_107:\n      dup1\n      0x1f\n      add\n      0x20\n      dup1\n      swap2\n      div\n      mul\n      0x20\n      add\n      mload(0x40)\n      swap1\n      dup2\n      add\n      0x40\n      mstore\n      dup1\n      swap3\n      swap2\n      swap1\n      dup2\n      dup2\n      mstore\n      0x20\n      add\n      dup3\n      dup1\n      sload\n      tag_109\n      swap1\n      tag_108\n      jump\t// in\n    tag_109:\n      dup1\n      iszero\n      tag_110\n      jumpi\n      dup1\n      0x1f\n      lt\n      tag_111\n      jumpi\n      0x0100\n      dup1\n      dup4\n      sload\n      div\n      mul\n      dup4\n      mstore\n      swap2\n      0x20\n      add\n      swap2\n      jump(tag_110)\n    tag_111:\n      dup3\n      add\n      swap2\n      swap1\n      0x00\n      mstore\n      keccak256(0x00, 0x20)\n      swap1\n    tag_112:\n      dup2\n      sload\n      dup2\n      mstore\n      swap1\n      0x01\n      add\n      swap1\n      0x20\n      add\n      dup1\n      dup4\n      gt\n      tag_112\n      jumpi\n      dup3\n      swap1\n      sub\n      0x1f\n      and\n      dup3\n      add\n      swap2\n    tag_110:\n      pop\n      pop\n      pop\n      pop\n      pop\n      dup2\n      mstore\n      0x20\n      add\n      0x02\n      dup3\n      add\n      dup1\n      sload\n      tag_113\n      swap1\n      tag_108\n      jump\t// in\n    tag_113:\n      dup1\n      0x1f\n      add\n      0x20\n      dup1\n      swap2\n      div\n      mul\n      0x20\n      add\n      mload(0x40)\n      swap1\n      dup2\n      add\n      0x40\n      mstore\n      dup1\n      swap3\n      swap2\n      swap1\n      dup2\n      dup2\n      mstore\n      0x20\n      add\n      dup3\n      dup1\n      sload\n      tag_114\n      swap1\n      tag_108\n      jump\t// in\n    tag_114:\n      dup1\n      iszero\n      tag_115\n      jumpi\n      dup1\n      0x1f\n      lt\n      tag_116\n      jumpi\n      0x0100\n      dup1\n      dup4\n      sload\n      div\n      mul\n      dup4\n      mstore\n      swap2\n      0x20\n      add\n      swap2\n      jump(tag_115)\n    tag_116:\n      dup3\n      add\n      swap2\n      swap1\n      0x00\n      mstore\n      keccak256(0x00, 0x20)\n      swap1\n    tag_117:\n      dup2\n      sload\n      dup2\n      mstore\n      swap1\n      0x01\n      add\n      swap1\n      0x20\n      add\n      dup1\n      dup4\n      gt\n      tag_117\n      jumpi\n      dup3\n      swap1\n      sub\n      0x1f\n      and\n      dup3\n      add\n      swap2\n    tag_115:\n      pop\n      pop\n      pop\n      pop\n      pop\n      dup2\n      mstore\n      0x20\n      add\n      0x03\n      dup3\n      add\n      sload\n      dup2\n      mstore\n      0x20\n      add\n      0x04\n      dup3\n      add\n      0x00\n      swap1\n      sload\n      swap1\n      0x0100\n      exp\n      swap1\n      div\n      0xffffffffffffffffffffffffffffffffffffffff\n      and\n      0xffffffffffffffffffffffffffffffffffffffff\n      and\n      0xffffffffffffffffffffffffffffffffffffffff\n      and\n      dup2\n      mstore\n      0x20\n      add\n      0x04\n      dup3\n      add\n      0x14\n      swap1\n      sload\n      swap1\n      0x0100\n      exp\n      swap1\n      div\n      0xff\n      and\n      iszero\n      iszero\n      iszero\n      iszero\n      dup2\n      mstore\n      0x20\n      add\n      0x05\n      dup3\n      add\n      dup1\n      sload\n      tag_118\n      swap1\n      tag_108\n      jump\t// in\n    tag_118:\n      dup1\n      0x1f\n      add\n      0x20\n      dup1\n      swap2\n      div\n      mul\n      0x20\n      add\n      mload(0x40)\n      swap1\n      dup2\n      add\n      0x40\n      mstore\n      dup1\n      swap3\n      swap2\n      swap1\n      dup2\n      dup2\n      mstore\n      0x20\n      add\n      dup3\n      dup1\n      sload\n      tag_119\n      swap1\n      tag_108\n      jump\t// in\n    tag_119:\n      dup1\n      iszero\n      tag_120\n      jumpi\n      dup1\n      0x1f\n      lt\n      tag_121\n      jumpi\n      0x0100\n      dup1\n      dup4\n      sload\n      div\n      mul\n      dup4\n      mstore\n      swap2\n      0x20\n      add\n      swap2\n      jump(tag_120)\n    tag_121:\n      dup3\n      add\n      swap2\n      swap1\n      0x00\n      mstore\n      keccak256(0x00, 0x20)\n      swap1\n    tag_122:\n      dup2\n      sload\n      dup2\n      mstore\n      swap1\n      0x01\n      add\n      swap1\n      0x20\n      add\n      dup1\n      dup4\n      gt\n      tag_122\n      jumpi\n      dup3\n      swap1\n      sub\n      0x1f\n      and\n      dup3\n      add\n      swap2\n    tag_120:\n      pop\n      pop\n      pop\n      pop\n      pop\n      dup2\n      mstore\n      0x20\n      add\n      0x06\n      dup3\n      add\n      sload\n      dup2\n      mstore\n      0x20\n      add\n      0x07\n      dup3\n      add\n      sload\n      dup2\n      mstore\n      pop\n      pop\n      swap1\n      pop\n        /* \"Marketplace.sol\":1889:1893  item */\n      dup1\n        /* \"Marketplace.sol\":1889:1899  item.title */\n      0x20\n      add\n      mload\n        /* \"Marketplace.sol\":1901:1905  item */\n      dup2\n        /* \"Marketplace.sol\":1901:1917  item.description */\n      0x40\n      add\n      mload\n        /* \"Marketplace.sol\":1919:1923  item */\n      dup3\n        /* \"Marketplace.sol\":1919:1930  item.seller */\n      0x80\n      add\n      mload\n        /* \"Marketplace.sol\":1932:1936  item */\n      dup4\n        /* \"Marketplace.sol\":1932:1942  item.price */\n      0x60\n      add\n      mload\n        /* \"Marketplace.sol\":1944:1948  item */\n      dup5\n        /* \"Marketplace.sol\":1944:1953  item.sold */\n      0xa0\n      add\n      mload\n        /* \"Marketplace.sol\":1955:1959  item */\n      dup6\n        /* \"Marketplace.sol\":1955:1968  item.imageUrl */\n      0xc0\n      add\n      mload\n        /* \"Marketplace.sol\":1970:1974  item */\n      dup7\n        /* \"Marketplace.sol\":1970:1980  item.stars */\n      0xe0\n      add\n      mload\n        /* \"Marketplace.sol\":1982:1986  item */\n      dup8\n        /* \"Marketplace.sol\":1982:1995  item.quantity */\n      0x0100\n      add\n      mload\n        /* \"Marketplace.sol\":1881:1996  return (item.title, item.description, item.seller, item.price, item.sold, item.imageUrl, item.stars, item.quantity) */\n      swap9\n      pop\n      swap9\n      pop\n      swap9\n      pop\n      swap9\n      pop\n      swap9\n      pop\n      swap9\n      pop\n      swap9\n      pop\n      swap9\n      pop\n      pop\n        /* \"Marketplace.sol\":1601:2004  function getMarketItem(uint256 _itemId) public view returns (string memory title, string memory description, address payable seller, uint256 price, bool sold, string memory imageUrl, uint stars, uint quantity) {\r... */\n      swap2\n      swap4\n      swap6\n      swap8\n      pop\n      swap2\n      swap4\n      swap6\n      swap8\n      jump\t// out\n        /* \"@openzeppelin/contracts/access/AccessControl.sol\":4766:4913  function revokeRole(bytes32 role, address account) public virtual override onlyRole(getRoleAdmin(role)) {... */\n    tag_69:\n        /* \"@openzeppelin/contracts/access/AccessControl.sol\":4850:4868  getRoleAdmin(role) */\n      tag_123\n        /* \"@openzeppelin/contracts/access/AccessControl.sol\":4863:4867  role */\n      dup3\n        /* \"@openzeppelin/contracts/access/AccessControl.sol\":4850:4862  getRoleAdmin */\n      tag_26\n        /* \"@openzeppelin/contracts/access/AccessControl.sol\":4850:4868  getRoleAdmin(role) */\n      jump\t// in\n    tag_123:\n        /* \"@openzeppelin/contracts/access/AccessControl.sol\":2505:2535  _checkRole(role, _msgSender()) */\n      tag_125\n        /* \"@openzeppelin/contracts/access/AccessControl.sol\":2516:2520  role */\n      dup2\n        /* \"@openzeppelin/contracts/access/AccessControl.sol\":2522:2534  _msgSender() */\n      tag_126\n        /* \"@openzeppelin/contracts/access/AccessControl.sol\":2522:2532  _msgSender */\n      tag_84\n        /* \"@openzeppelin/contracts/access/AccessControl.sol\":2522:2534  _msgSender() */\n      jump\t// in\n    tag_126:\n        /* \"@openzeppelin/contracts/access/AccessControl.sol\":2505:2515  _checkRole */\n      tag_85\n        /* \"@openzeppelin/contracts/access/AccessControl.sol\":2505:2535  _checkRole(role, _msgSender()) */\n      jump\t// in\n    tag_125:\n        /* \"@openzeppelin/contracts/access/AccessControl.sol\":4880:4906  _revokeRole(role, account) */\n      tag_128\n        /* \"@openzeppelin/contracts/access/AccessControl.sol\":4892:4896  role */\n      dup4\n        /* \"@openzeppelin/contracts/access/AccessControl.sol\":4898:4905  account */\n      dup4\n        /* \"@openzeppelin/contracts/access/AccessControl.sol\":4880:4891  _revokeRole */\n      tag_104\n        /* \"@openzeppelin/contracts/access/AccessControl.sol\":4880:4906  _revokeRole(role, account) */\n      jump\t// in\n    tag_128:\n        /* \"@openzeppelin/contracts/access/AccessControl.sol\":4766:4913  function revokeRole(bytes32 role, address account) public virtual override onlyRole(getRoleAdmin(role)) {... */\n      pop\n      pop\n      pop\n      jump\t// out\n        /* \"Marketplace.sol\":699:1248  function createMarketItem(string memory _title, string memory _description, address payable _seller, uint256 _price, string memory _imageUrl, uint _quantity) public {\r... */\n    tag_74:\n        /* \"Marketplace.sol\":897:904  _seller */\n      dup4\n        /* \"Marketplace.sol\":883:904  msg.sender == _seller */\n      0xffffffffffffffffffffffffffffffffffffffff\n      and\n        /* \"Marketplace.sol\":883:893  msg.sender */\n      caller\n        /* \"Marketplace.sol\":883:904  msg.sender == _seller */\n      0xffffffffffffffffffffffffffffffffffffffff\n      and\n      eq\n        /* \"Marketplace.sol\":875:949  require(msg.sender == _seller, \"Only the seller can create a market item\") */\n      tag_130\n      jumpi\n      mload(0x40)\n      0x08c379a000000000000000000000000000000000000000000000000000000000\n      dup2\n      mstore\n      0x04\n      add\n      tag_131\n      swap1\n      tag_132\n      jump\t// in\n    tag_131:\n      mload(0x40)\n      dup1\n      swap2\n      sub\n      swap1\n      revert\n    tag_130:\n        /* \"Marketplace.sol\":977:978  0 */\n      0x00\n        /* \"Marketplace.sol\":968:974  _price */\n      dup4\n        /* \"Marketplace.sol\":968:978  _price > 0 */\n      gt\n        /* \"Marketplace.sol\":960:1011  require(_price > 0, \"Price must be greater than 0\") */\n      tag_133\n      jumpi\n      mload(0x40)\n      0x08c379a000000000000000000000000000000000000000000000000000000000\n      dup2\n      mstore\n      0x04\n      add\n      tag_134\n      swap1\n      tag_135\n      jump\t// in\n    tag_134:\n      mload(0x40)\n      dup1\n      swap2\n      sub\n      swap1\n      revert\n    tag_133:\n        /* \"Marketplace.sol\":1031:1045  idToMarketItem */\n      0x02\n        /* \"Marketplace.sol\":1031:1057  idToMarketItem[nextItemId] */\n      0x00\n        /* \"Marketplace.sol\":1046:1056  nextItemId */\n      sload(0x01)\n        /* \"Marketplace.sol\":1031:1057  idToMarketItem[nextItemId] */\n      dup2\n      mstore\n      0x20\n      add\n      swap1\n      dup2\n      mstore\n      0x20\n      add\n      0x00\n      keccak256\n        /* \"Marketplace.sol\":1031:1062  idToMarketItem[nextItemId].sold */\n      0x04\n      add\n      0x14\n      swap1\n      sload\n      swap1\n      0x0100\n      exp\n      swap1\n      div\n      0xff\n      and\n        /* \"Marketplace.sol\":1030:1062  !idToMarketItem[nextItemId].sold */\n      iszero\n        /* \"Marketplace.sol\":1022:1084  require(!idToMarketItem[nextItemId].sold, \"Item already sold\") */\n      tag_136\n      jumpi\n      mload(0x40)\n      0x08c379a000000000000000000000000000000000000000000000000000000000\n      dup2\n      mstore\n      0x04\n      add\n      tag_137\n      swap1\n      tag_138\n      jump\t// in\n    tag_137:\n      mload(0x40)\n      dup1\n      swap2\n      sub\n      swap1\n      revert\n    tag_136:\n        /* \"Marketplace.sol\":1124:1217  MarketItem(nextItemId, _title, _description, _price, _seller, false, _imageUrl, 0, _quantity) */\n      mload(0x40)\n      dup1\n      0x0120\n      add\n      0x40\n      mstore\n      dup1\n        /* \"Marketplace.sol\":1135:1145  nextItemId */\n      sload(0x01)\n        /* \"Marketplace.sol\":1124:1217  MarketItem(nextItemId, _title, _description, _price, _seller, false, _imageUrl, 0, _quantity) */\n      dup2\n      mstore\n      0x20\n      add\n        /* \"Marketplace.sol\":1147:1153  _title */\n      dup8\n        /* \"Marketplace.sol\":1124:1217  MarketItem(nextItemId, _title, _description, _price, _seller, false, _imageUrl, 0, _quantity) */\n      dup2\n      mstore\n      0x20\n      add\n        /* \"Marketplace.sol\":1155:1167  _description */\n      dup7\n        /* \"Marketplace.sol\":1124:1217  MarketItem(nextItemId, _title, _description, _price, _seller, false, _imageUrl, 0, _quantity) */\n      dup2\n      mstore\n      0x20\n      add\n        /* \"Marketplace.sol\":1169:1175  _price */\n      dup5\n        /* \"Marketplace.sol\":1124:1217  MarketItem(nextItemId, _title, _description, _price, _seller, false, _imageUrl, 0, _quantity) */\n      dup2\n      mstore\n      0x20\n      add\n        /* \"Marketplace.sol\":1177:1184  _seller */\n      dup6\n        /* \"Marketplace.sol\":1124:1217  MarketItem(nextItemId, _title, _description, _price, _seller, false, _imageUrl, 0, _quantity) */\n      0xffffffffffffffffffffffffffffffffffffffff\n      and\n      dup2\n      mstore\n      0x20\n      add\n        /* \"Marketplace.sol\":1186:1191  false */\n      0x00\n        /* \"Marketplace.sol\":1124:1217  MarketItem(nextItemId, _title, _description, _price, _seller, false, _imageUrl, 0, _quantity) */\n      iszero\n      iszero\n      dup2\n      mstore\n      0x20\n      add\n        /* \"Marketplace.sol\":1193:1202  _imageUrl */\n      dup4\n        /* \"Marketplace.sol\":1124:1217  MarketItem(nextItemId, _title, _description, _price, _seller, false, _imageUrl, 0, _quantity) */\n      dup2\n      mstore\n      0x20\n      add\n        /* \"Marketplace.sol\":1204:1205  0 */\n      0x00\n        /* \"Marketplace.sol\":1124:1217  MarketItem(nextItemId, _title, _description, _price, _seller, false, _imageUrl, 0, _quantity) */\n      dup2\n      mstore\n      0x20\n      add\n        /* \"Marketplace.sol\":1207:1216  _quantity */\n      dup3\n        /* \"Marketplace.sol\":1124:1217  MarketItem(nextItemId, _title, _description, _price, _seller, false, _imageUrl, 0, _quantity) */\n      dup2\n      mstore\n      pop\n        /* \"Marketplace.sol\":1095:1109  idToMarketItem */\n      0x02\n        /* \"Marketplace.sol\":1095:1121  idToMarketItem[nextItemId] */\n      0x00\n        /* \"Marketplace.sol\":1110:1120  nextItemId */\n      sload(0x01)\n        /* \"Marketplace.sol\":1095:1121  idToMarketItem[nextItemId] */\n      dup2\n      mstore\n      0x20\n      add\n      swap1\n      dup2\n      mstore\n      0x20\n      add\n      0x00\n      keccak256\n        /* \"Marketplace.sol\":1095:1217  idToMarketItem[nextItemId] = MarketItem(nextItemId, _title, _description, _price, _seller, false, _imageUrl, 0, _quantity) */\n      0x00\n      dup3\n      add\n      mload\n      dup2\n      0x00\n      add\n      sstore\n      0x20\n      dup3\n      add\n      mload\n      dup2\n      0x01\n      add\n      swap1\n      dup1\n      mload\n      swap1\n      0x20\n      add\n      swap1\n      tag_139\n      swap3\n      swap2\n      swap1\n      tag_140\n      jump\t// in\n    tag_139:\n      pop\n      0x40\n      dup3\n      add\n      mload\n      dup2\n      0x02\n      add\n      swap1\n      dup1\n      mload\n      swap1\n      0x20\n      add\n      swap1\n      tag_141\n      swap3\n      swap2\n      swap1\n      tag_140\n      jump\t// in\n    tag_141:\n      pop\n      0x60\n      dup3\n      add\n      mload\n      dup2\n      0x03\n      add\n      sstore\n      0x80\n      dup3\n      add\n      mload\n      dup2\n      0x04\n      add\n      exp(0x0100, 0x00)\n      dup2\n      sload\n      dup2\n      0xffffffffffffffffffffffffffffffffffffffff\n      mul\n      not\n      and\n      swap1\n      dup4\n      0xffffffffffffffffffffffffffffffffffffffff\n      and\n      mul\n      or\n      swap1\n      sstore\n      pop\n      0xa0\n      dup3\n      add\n      mload\n      dup2\n      0x04\n      add\n      exp(0x0100, 0x14)\n      dup2\n      sload\n      dup2\n      0xff\n      mul\n      not\n      and\n      swap1\n      dup4\n      iszero\n      iszero\n      mul\n      or\n      swap1\n      sstore\n      pop\n      0xc0\n      dup3\n      add\n      mload\n      dup2\n      0x05\n      add\n      swap1\n      dup1\n      mload\n      swap1\n      0x20\n      add\n      swap1\n      tag_142\n      swap3\n      swap2\n      swap1\n      tag_140\n      jump\t// in\n    tag_142:\n      pop\n      0xe0\n      dup3\n      add\n      mload\n      dup2\n      0x06\n      add\n      sstore\n      0x0100\n      dup3\n      add\n      mload\n      dup2\n      0x07\n      add\n      sstore\n      swap1\n      pop\n      pop\n        /* \"Marketplace.sol\":1228:1238  nextItemId */\n      0x01\n      0x00\n        /* \"Marketplace.sol\":1228:1240  nextItemId++ */\n      dup2\n      sload\n      dup1\n      swap3\n      swap2\n      swap1\n      tag_143\n      swap1\n      tag_144\n      jump\t// in\n    tag_143:\n      swap2\n      swap1\n      pop\n      sstore\n      pop\n        /* \"Marketplace.sol\":699:1248  function createMarketItem(string memory _title, string memory _description, address payable _seller, uint256 _price, string memory _imageUrl, uint _quantity) public {\r... */\n      pop\n      pop\n      pop\n      pop\n      pop\n      pop\n      jump\t// out\n        /* \"@openzeppelin/contracts/utils/introspection/ERC165.sol\":829:984  function supportsInterface(bytes4 interfaceId) public view virtual override returns (bool) {... */\n    tag_78:\n        /* \"@openzeppelin/contracts/utils/introspection/ERC165.sol\":914:918  bool */\n      0x00\n        /* \"@openzeppelin/contracts/utils/introspection/ERC165.sol\":952:977  type(IERC165).interfaceId */\n      0x01ffc9a700000000000000000000000000000000000000000000000000000000\n        /* \"@openzeppelin/contracts/utils/introspection/ERC165.sol\":937:977  interfaceId == type(IERC165).interfaceId */\n      not(0xffffffffffffffffffffffffffffffffffffffffffffffffffffffff)\n      and\n        /* \"@openzeppelin/contracts/utils/introspection/ERC165.sol\":937:948  interfaceId */\n      dup3\n        /* \"@openzeppelin/contracts/utils/introspection/ERC165.sol\":937:977  interfaceId == type(IERC165).interfaceId */\n      not(0xffffffffffffffffffffffffffffffffffffffffffffffffffffffff)\n      and\n      eq\n        /* \"@openzeppelin/contracts/utils/introspection/ERC165.sol\":930:977  return interfaceId == type(IERC165).interfaceId */\n      swap1\n      pop\n        /* \"@openzeppelin/contracts/utils/introspection/ERC165.sol\":829:984  function supportsInterface(bytes4 interfaceId) public view virtual override returns (bool) {... */\n      swap2\n      swap1\n      pop\n      jump\t// out\n        /* \"@openzeppelin/contracts/utils/Context.sol\":640:736  function _msgSender() internal view virtual returns (address) {... */\n    tag_84:\n        /* \"@openzeppelin/contracts/utils/Context.sol\":693:700  address */\n      0x00\n        /* \"@openzeppelin/contracts/utils/Context.sol\":719:729  msg.sender */\n      caller\n        /* \"@openzeppelin/contracts/utils/Context.sol\":712:729  return msg.sender */\n      swap1\n      pop\n        /* \"@openzeppelin/contracts/utils/Context.sol\":640:736  function _msgSender() internal view virtual returns (address) {... */\n      swap1\n      jump\t// out\n        /* \"@openzeppelin/contracts/access/AccessControl.sol\":3335:3827  function _checkRole(bytes32 role, address account) internal view virtual {... */\n    tag_85:\n        /* \"@openzeppelin/contracts/access/AccessControl.sol\":3423:3445  hasRole(role, account) */\n      tag_148\n        /* \"@openzeppelin/contracts/access/AccessControl.sol\":3431:3435  role */\n      dup3\n        /* \"@openzeppelin/contracts/access/AccessControl.sol\":3437:3444  account */\n      dup3\n        /* \"@openzeppelin/contracts/access/AccessControl.sol\":3423:3430  hasRole */\n      tag_50\n        /* \"@openzeppelin/contracts/access/AccessControl.sol\":3423:3445  hasRole(role, account) */\n      jump\t// in\n    tag_148:\n        /* \"@openzeppelin/contracts/access/AccessControl.sol\":3418:3821  if (!hasRole(role, account)) {... */\n      tag_149\n      jumpi\n        /* \"@openzeppelin/contracts/access/AccessControl.sol\":3606:3647  Strings.toHexString(uint160(account), 20) */\n      tag_150\n        /* \"@openzeppelin/contracts/access/AccessControl.sol\":3634:3641  account */\n      dup2\n        /* \"@openzeppelin/contracts/access/AccessControl.sol\":3606:3647  Strings.toHexString(uint160(account), 20) */\n      0xffffffffffffffffffffffffffffffffffffffff\n      and\n        /* \"@openzeppelin/contracts/access/AccessControl.sol\":3644:3646  20 */\n      0x14\n        /* \"@openzeppelin/contracts/access/AccessControl.sol\":3606:3625  Strings.toHexString */\n      tag_151\n        /* \"@openzeppelin/contracts/access/AccessControl.sol\":3606:3647  Strings.toHexString(uint160(account), 20) */\n      jump\t// in\n    tag_150:\n        /* \"@openzeppelin/contracts/access/AccessControl.sol\":3718:3756  Strings.toHexString(uint256(role), 32) */\n      tag_152\n        /* \"@openzeppelin/contracts/access/AccessControl.sol\":3746:3750  role */\n      dup4\n        /* \"@openzeppelin/contracts/access/AccessControl.sol\":3738:3751  uint256(role) */\n      0x00\n      shr\n        /* \"@openzeppelin/contracts/access/AccessControl.sol\":3753:3755  32 */\n      0x20\n        /* \"@openzeppelin/contracts/access/AccessControl.sol\":3718:3737  Strings.toHexString */\n      tag_151\n        /* \"@openzeppelin/contracts/access/AccessControl.sol\":3718:3756  Strings.toHexString(uint256(role), 32) */\n      jump\t// in\n    tag_152:\n        /* \"@openzeppelin/contracts/access/AccessControl.sol\":3513:3778  abi.encodePacked(... */\n      add(0x20, mload(0x40))\n      tag_153\n      swap3\n      swap2\n      swap1\n      tag_154\n      jump\t// in\n    tag_153:\n      mload(0x40)\n      0x20\n      dup2\n      dup4\n      sub\n      sub\n      dup2\n      mstore\n      swap1\n      0x40\n      mstore\n        /* \"@openzeppelin/contracts/access/AccessControl.sol\":3461:3810  revert(... */\n      mload(0x40)\n      0x08c379a000000000000000000000000000000000000000000000000000000000\n      dup2\n      mstore\n      0x04\n      add\n      tag_155\n      swap2\n      swap1\n      tag_156\n      jump\t// in\n    tag_155:\n      mload(0x40)\n      dup1\n      swap2\n      sub\n      swap1\n      revert\n        /* \"@openzeppelin/contracts/access/AccessControl.sol\":3418:3821  if (!hasRole(role, account)) {... */\n    tag_149:\n        /* \"@openzeppelin/contracts/access/AccessControl.sol\":3335:3827  function _checkRole(bytes32 role, address account) internal view virtual {... */\n      pop\n      pop\n      jump\t// out\n        /* \"@openzeppelin/contracts/access/AccessControl.sol\":6861:7094  function _grantRole(bytes32 role, address account) internal virtual {... */\n    tag_88:\n        /* \"@openzeppelin/contracts/access/AccessControl.sol\":6944:6966  hasRole(role, account) */\n      tag_158\n        /* \"@openzeppelin/contracts/access/AccessControl.sol\":6952:6956  role */\n      dup3\n        /* \"@openzeppelin/contracts/access/AccessControl.sol\":6958:6965  account */\n      dup3\n        /* \"@openzeppelin/contracts/access/AccessControl.sol\":6944:6951  hasRole */\n      tag_50\n        /* \"@openzeppelin/contracts/access/AccessControl.sol\":6944:6966  hasRole(role, account) */\n      jump\t// in\n    tag_158:\n        /* \"@openzeppelin/contracts/access/AccessControl.sol\":6939:7088  if (!hasRole(role, account)) {... */\n      tag_159\n      jumpi\n        /* \"@openzeppelin/contracts/access/AccessControl.sol\":7014:7018  true */\n      0x01\n        /* \"@openzeppelin/contracts/access/AccessControl.sol\":6982:6988  _roles */\n      0x00\n        /* \"@openzeppelin/contracts/access/AccessControl.sol\":6982:6994  _roles[role] */\n      dup1\n        /* \"@openzeppelin/contracts/access/AccessControl.sol\":6989:6993  role */\n      dup5\n        /* \"@openzeppelin/contracts/access/AccessControl.sol\":6982:6994  _roles[role] */\n      dup2\n      mstore\n      0x20\n      add\n      swap1\n      dup2\n      mstore\n      0x20\n      add\n      0x00\n      keccak256\n        /* \"@openzeppelin/contracts/access/AccessControl.sol\":6982:7002  _roles[role].members */\n      0x00\n      add\n        /* \"@openzeppelin/contracts/access/AccessControl.sol\":6982:7011  _roles[role].members[account] */\n      0x00\n        /* \"@openzeppelin/contracts/access/AccessControl.sol\":7003:7010  account */\n      dup4\n        /* \"@openzeppelin/contracts/access/AccessControl.sol\":6982:7011  _roles[role].members[account] */\n      0xffffffffffffffffffffffffffffffffffffffff\n      and\n      0xffffffffffffffffffffffffffffffffffffffff\n      and\n      dup2\n      mstore\n      0x20\n      add\n      swap1\n      dup2\n      mstore\n      0x20\n      add\n      0x00\n      keccak256\n      0x00\n        /* \"@openzeppelin/contracts/access/AccessControl.sol\":6982:7018  _roles[role].members[account] = true */\n      0x0100\n      exp\n      dup2\n      sload\n      dup2\n      0xff\n      mul\n      not\n      and\n      swap1\n      dup4\n      iszero\n      iszero\n      mul\n      or\n      swap1\n      sstore\n      pop\n        /* \"@openzeppelin/contracts/access/AccessControl.sol\":7064:7076  _msgSender() */\n      tag_160\n        /* \"@openzeppelin/contracts/access/AccessControl.sol\":7064:7074  _msgSender */\n      tag_84\n        /* \"@openzeppelin/contracts/access/AccessControl.sol\":7064:7076  _msgSender() */\n      jump\t// in\n    tag_160:\n        /* \"@openzeppelin/contracts/access/AccessControl.sol\":7037:7077  RoleGranted(role, account, _msgSender()) */\n      0xffffffffffffffffffffffffffffffffffffffff\n      and\n        /* \"@openzeppelin/contracts/access/AccessControl.sol\":7055:7062  account */\n      dup2\n        /* \"@openzeppelin/contracts/access/AccessControl.sol\":7037:7077  RoleGranted(role, account, _msgSender()) */\n      0xffffffffffffffffffffffffffffffffffffffff\n      and\n        /* \"@openzeppelin/contracts/access/AccessControl.sol\":7049:7053  role */\n      dup4\n        /* \"@openzeppelin/contracts/access/AccessControl.sol\":7037:7077  RoleGranted(role, account, _msgSender()) */\n      0x2f8788117e7eff1d82e926ec794901d17c78024a50270940304540a733656f0d\n      mload(0x40)\n      mload(0x40)\n      dup1\n      swap2\n      sub\n      swap1\n      log4\n        /* \"@openzeppelin/contracts/access/AccessControl.sol\":6939:7088  if (!hasRole(role, account)) {... */\n    tag_159:\n        /* \"@openzeppelin/contracts/access/AccessControl.sol\":6861:7094  function _grantRole(bytes32 role, address account) internal virtual {... */\n      pop\n      pop\n      jump\t// out\n        /* \"@openzeppelin/contracts/access/AccessControl.sol\":7219:7453  function _revokeRole(bytes32 role, address account) internal virtual {... */\n    tag_104:\n        /* \"@openzeppelin/contracts/access/AccessControl.sol\":7302:7324  hasRole(role, account) */\n      tag_162\n        /* \"@openzeppelin/contracts/access/AccessControl.sol\":7310:7314  role */\n      dup3\n        /* \"@openzeppelin/contracts/access/AccessControl.sol\":7316:7323  account */\n      dup3\n        /* \"@openzeppelin/contracts/access/AccessControl.sol\":7302:7309  hasRole */\n      tag_50\n        /* \"@openzeppelin/contracts/access/AccessControl.sol\":7302:7324  hasRole(role, account) */\n      jump\t// in\n    tag_162:\n        /* \"@openzeppelin/contracts/access/AccessControl.sol\":7298:7447  if (hasRole(role, account)) {... */\n      iszero\n      tag_163\n      jumpi\n        /* \"@openzeppelin/contracts/access/AccessControl.sol\":7372:7377  false */\n      0x00\n        /* \"@openzeppelin/contracts/access/AccessControl.sol\":7340:7346  _roles */\n      dup1\n        /* \"@openzeppelin/contracts/access/AccessControl.sol\":7340:7352  _roles[role] */\n      0x00\n        /* \"@openzeppelin/contracts/access/AccessControl.sol\":7347:7351  role */\n      dup5\n        /* \"@openzeppelin/contracts/access/AccessControl.sol\":7340:7352  _roles[role] */\n      dup2\n      mstore\n      0x20\n      add\n      swap1\n      dup2\n      mstore\n      0x20\n      add\n      0x00\n      keccak256\n        /* \"@openzeppelin/contracts/access/AccessControl.sol\":7340:7360  _roles[role].members */\n      0x00\n      add\n        /* \"@openzeppelin/contracts/access/AccessControl.sol\":7340:7369  _roles[role].members[account] */\n      0x00\n        /* \"@openzeppelin/contracts/access/AccessControl.sol\":7361:7368  account */\n      dup4\n        /* \"@openzeppelin/contracts/access/AccessControl.sol\":7340:7369  _roles[role].members[account] */\n      0xffffffffffffffffffffffffffffffffffffffff\n      and\n      0xffffffffffffffffffffffffffffffffffffffff\n      and\n      dup2\n      mstore\n      0x20\n      add\n      swap1\n      dup2\n      mstore\n      0x20\n      add\n      0x00\n      keccak256\n      0x00\n        /* \"@openzeppelin/contracts/access/AccessControl.sol\":7340:7377  _roles[role].members[account] = false */\n      0x0100\n      exp\n      dup2\n      sload\n      dup2\n      0xff\n      mul\n      not\n      and\n      swap1\n      dup4\n      iszero\n      iszero\n      mul\n      or\n      swap1\n      sstore\n      pop\n        /* \"@openzeppelin/contracts/access/AccessControl.sol\":7423:7435  _msgSender() */\n      tag_164\n        /* \"@openzeppelin/contracts/access/AccessControl.sol\":7423:7433  _msgSender */\n      tag_84\n        /* \"@openzeppelin/contracts/access/AccessControl.sol\":7423:7435  _msgSender() */\n      jump\t// in\n    tag_164:\n        /* \"@openzeppelin/contracts/access/AccessControl.sol\":7396:7436  RoleRevoked(role, account, _msgSender()) */\n      0xffffffffffffffffffffffffffffffffffffffff\n      and\n        /* \"@openzeppelin/contracts/access/AccessControl.sol\":7414:7421  account */\n      dup2\n        /* \"@openzeppelin/contracts/access/AccessControl.sol\":7396:7436  RoleRevoked(role, account, _msgSender()) */\n      0xffffffffffffffffffffffffffffffffffffffff\n      and\n        /* \"@openzeppelin/contracts/access/AccessControl.sol\":7408:7412  role */\n      dup4\n        /* \"@openzeppelin/contracts/access/AccessControl.sol\":7396:7436  RoleRevoked(role, account, _msgSender()) */\n      0xf6391f5c32d9c69d2a47ea670b442974b53935d1edc7fd64eb21e047a839171b\n      mload(0x40)\n      mload(0x40)\n      dup1\n      swap2\n      sub\n      swap1\n      log4\n        /* \"@openzeppelin/contracts/access/AccessControl.sol\":7298:7447  if (hasRole(role, account)) {... */\n    tag_163:\n        /* \"@openzeppelin/contracts/access/AccessControl.sol\":7219:7453  function _revokeRole(bytes32 role, address account) internal virtual {... */\n      pop\n      pop\n      jump\t// out\n        /* \"@openzeppelin/contracts/utils/Strings.sol\":1588:2029  function toHexString(uint256 value, uint256 length) internal pure returns (string memory) {... */\n    tag_151:\n        /* \"@openzeppelin/contracts/utils/Strings.sol\":1663:1676  string memory */\n      0x60\n        /* \"@openzeppelin/contracts/utils/Strings.sol\":1688:1707  bytes memory buffer */\n      0x00\n        /* \"@openzeppelin/contracts/utils/Strings.sol\":1733:1734  2 */\n      0x02\n        /* \"@openzeppelin/contracts/utils/Strings.sol\":1724:1730  length */\n      dup4\n        /* \"@openzeppelin/contracts/utils/Strings.sol\":1720:1721  2 */\n      0x02\n        /* \"@openzeppelin/contracts/utils/Strings.sol\":1720:1730  2 * length */\n      tag_166\n      swap2\n      swap1\n      tag_167\n      jump\t// in\n    tag_166:\n        /* \"@openzeppelin/contracts/utils/Strings.sol\":1720:1734  2 * length + 2 */\n      tag_168\n      swap2\n      swap1\n      tag_169\n      jump\t// in\n    tag_168:\n        /* \"@openzeppelin/contracts/utils/Strings.sol\":1710:1735  new bytes(2 * length + 2) */\n      0xffffffffffffffff\n      dup2\n      gt\n      iszero\n      tag_170\n      jumpi\n      tag_171\n      tag_172\n      jump\t// in\n    tag_171:\n    tag_170:\n      mload(0x40)\n      swap1\n      dup1\n      dup3\n      mstore\n      dup1\n      0x1f\n      add\n      not(0x1f)\n      and\n      0x20\n      add\n      dup3\n      add\n      0x40\n      mstore\n      dup1\n      iszero\n      tag_173\n      jumpi\n      dup2\n      0x20\n      add\n      0x01\n      dup3\n      mul\n      dup1\n      calldatasize\n      dup4\n      calldatacopy\n      dup1\n      dup3\n      add\n      swap2\n      pop\n      pop\n      swap1\n      pop\n    tag_173:\n      pop\n        /* \"@openzeppelin/contracts/utils/Strings.sol\":1688:1735  bytes memory buffer = new bytes(2 * length + 2) */\n      swap1\n      pop\n        /* \"@openzeppelin/contracts/utils/Strings.sol\":1745:1760  buffer[0] = \"0\" */\n      0x3000000000000000000000000000000000000000000000000000000000000000\n        /* \"@openzeppelin/contracts/utils/Strings.sol\":1745:1751  buffer */\n      dup2\n        /* \"@openzeppelin/contracts/utils/Strings.sol\":1752:1753  0 */\n      0x00\n        /* \"@openzeppelin/contracts/utils/Strings.sol\":1745:1754  buffer[0] */\n      dup2\n      mload\n      dup2\n      lt\n      tag_174\n      jumpi\n      tag_175\n      tag_176\n      jump\t// in\n    tag_175:\n    tag_174:\n      0x20\n      add\n      add\n        /* \"@openzeppelin/contracts/utils/Strings.sol\":1745:1760  buffer[0] = \"0\" */\n      swap1\n      not(0xffffffffffffffffffffffffffffffffffffffffffffffffffffffffffffff)\n      and\n      swap1\n      dup2\n      0x00\n      byte\n      swap1\n      mstore8\n      pop\n        /* \"@openzeppelin/contracts/utils/Strings.sol\":1770:1785  buffer[1] = \"x\" */\n      0x7800000000000000000000000000000000000000000000000000000000000000\n        /* \"@openzeppelin/contracts/utils/Strings.sol\":1770:1776  buffer */\n      dup2\n        /* \"@openzeppelin/contracts/utils/Strings.sol\":1777:1778  1 */\n      0x01\n        /* \"@openzeppelin/contracts/utils/Strings.sol\":1770:1779  buffer[1] */\n      dup2\n      mload\n      dup2\n      lt\n      tag_177\n      jumpi\n      tag_178\n      tag_176\n      jump\t// in\n    tag_178:\n    tag_177:\n      0x20\n      add\n      add\n        /* \"@openzeppelin/contracts/utils/Strings.sol\":1770:1785  buffer[1] = \"x\" */\n      swap1\n      not(0xffffffffffffffffffffffffffffffffffffffffffffffffffffffffffffff)\n      and\n      swap1\n      dup2\n      0x00\n      byte\n      swap1\n      mstore8\n      pop\n        /* \"@openzeppelin/contracts/utils/Strings.sol\":1800:1809  uint256 i */\n      0x00\n        /* \"@openzeppelin/contracts/utils/Strings.sol\":1825:1826  1 */\n      0x01\n        /* \"@openzeppelin/contracts/utils/Strings.sol\":1816:1822  length */\n      dup5\n        /* \"@openzeppelin/contracts/utils/Strings.sol\":1812:1813  2 */\n      0x02\n        /* \"@openzeppelin/contracts/utils/Strings.sol\":1812:1822  2 * length */\n      tag_182\n      swap2\n      swap1\n      tag_167\n      jump\t// in\n    tag_182:\n        /* \"@openzeppelin/contracts/utils/Strings.sol\":1812:1826  2 * length + 1 */\n      tag_183\n      swap2\n      swap1\n      tag_169\n      jump\t// in\n    tag_183:\n        /* \"@openzeppelin/contracts/utils/Strings.sol\":1800:1826  uint256 i = 2 * length + 1 */\n      swap1\n      pop\n        /* \"@openzeppelin/contracts/utils/Strings.sol\":1795:1927  for (uint256 i = 2 * length + 1; i > 1; --i) {... */\n    tag_179:\n        /* \"@openzeppelin/contracts/utils/Strings.sol\":1832:1833  1 */\n      0x01\n        /* \"@openzeppelin/contracts/utils/Strings.sol\":1828:1829  i */\n      dup2\n        /* \"@openzeppelin/contracts/utils/Strings.sol\":1828:1833  i > 1 */\n      gt\n        /* \"@openzeppelin/contracts/utils/Strings.sol\":1795:1927  for (uint256 i = 2 * length + 1; i > 1; --i) {... */\n      iszero\n      tag_180\n      jumpi\n        /* \"@openzeppelin/contracts/utils/Strings.sol\":1866:1878  _HEX_SYMBOLS */\n      0x3031323334353637383961626364656600000000000000000000000000000000\n        /* \"@openzeppelin/contracts/utils/Strings.sol\":1887:1890  0xf */\n      0x0f\n        /* \"@openzeppelin/contracts/utils/Strings.sol\":1879:1884  value */\n      dup7\n        /* \"@openzeppelin/contracts/utils/Strings.sol\":1879:1890  value & 0xf */\n      and\n        /* \"@openzeppelin/contracts/utils/Strings.sol\":1866:1891  _HEX_SYMBOLS[value & 0xf] */\n      0x10\n      dup2\n      lt\n      tag_184\n      jumpi\n      tag_185\n      tag_176\n      jump\t// in\n    tag_185:\n    tag_184:\n      byte\n      0xf8\n      shl\n        /* \"@openzeppelin/contracts/utils/Strings.sol\":1854:1860  buffer */\n      dup3\n        /* \"@openzeppelin/contracts/utils/Strings.sol\":1861:1862  i */\n      dup3\n        /* \"@openzeppelin/contracts/utils/Strings.sol\":1854:1863  buffer[i] */\n      dup2\n      mload\n      dup2\n      lt\n      tag_186\n      jumpi\n      tag_187\n      tag_176\n      jump\t// in\n    tag_187:\n    tag_186:\n      0x20\n      add\n      add\n        /* \"@openzeppelin/contracts/utils/Strings.sol\":1854:1891  buffer[i] = _HEX_SYMBOLS[value & 0xf] */\n      swap1\n      not(0xffffffffffffffffffffffffffffffffffffffffffffffffffffffffffffff)\n      and\n      swap1\n      dup2\n      0x00\n      byte\n      swap1\n      mstore8\n      pop\n        /* \"@openzeppelin/contracts/utils/Strings.sol\":1915:1916  4 */\n      0x04\n        /* \"@openzeppelin/contracts/utils/Strings.sol\":1905:1916  value >>= 4 */\n      dup6\n      swap1\n      shr\n      swap5\n      pop\n        /* \"@openzeppelin/contracts/utils/Strings.sol\":1835:1838  --i */\n      dup1\n      tag_188\n      swap1\n      tag_189\n      jump\t// in\n    tag_188:\n      swap1\n      pop\n        /* \"@openzeppelin/contracts/utils/Strings.sol\":1795:1927  for (uint256 i = 2 * length + 1; i > 1; --i) {... */\n      jump(tag_179)\n    tag_180:\n      pop\n        /* \"@openzeppelin/contracts/utils/Strings.sol\":1953:1954  0 */\n      0x00\n        /* \"@openzeppelin/contracts/utils/Strings.sol\":1944:1949  value */\n      dup5\n        /* \"@openzeppelin/contracts/utils/Strings.sol\":1944:1954  value == 0 */\n      eq\n        /* \"@openzeppelin/contracts/utils/Strings.sol\":1936:1991  require(value == 0, \"Strings: hex length insufficient\") */\n      tag_190\n      jumpi\n      mload(0x40)\n      0x08c379a000000000000000000000000000000000000000000000000000000000\n      dup2\n      mstore\n      0x04\n      add\n      tag_191\n      swap1\n      tag_192\n      jump\t// in\n    tag_191:\n      mload(0x40)\n      dup1\n      swap2\n      sub\n      swap1\n      revert\n    tag_190:\n        /* \"@openzeppelin/contracts/utils/Strings.sol\":2015:2021  buffer */\n      dup1\n        /* \"@openzeppelin/contracts/utils/Strings.sol\":2001:2022  return string(buffer) */\n      swap2\n      pop\n      pop\n        /* \"@openzeppelin/contracts/utils/Strings.sol\":1588:2029  function toHexString(uint256 value, uint256 length) internal pure returns (string memory) {... */\n      swap3\n      swap2\n      pop\n      pop\n      jump\t// out\n    tag_140:\n      dup3\n      dup1\n      sload\n      tag_193\n      swap1\n      tag_108\n      jump\t// in\n    tag_193:\n      swap1\n      0x00\n      mstore\n      keccak256(0x00, 0x20)\n      swap1\n      0x1f\n      add\n      0x20\n      swap1\n      div\n      dup2\n      add\n      swap3\n      dup3\n      tag_195\n      jumpi\n      0x00\n      dup6\n      sstore\n      jump(tag_194)\n    tag_195:\n      dup3\n      0x1f\n      lt\n      tag_196\n      jumpi\n      dup1\n      mload\n      not(0xff)\n      and\n      dup4\n      dup1\n      add\n      or\n      dup6\n      sstore\n      jump(tag_194)\n    tag_196:\n      dup3\n      dup1\n      add\n      0x01\n      add\n      dup6\n      sstore\n      dup3\n      iszero\n      tag_194\n      jumpi\n      swap2\n      dup3\n      add\n    tag_197:\n      dup3\n      dup2\n      gt\n      iszero\n      tag_198\n      jumpi\n      dup3\n      mload\n      dup3\n      sstore\n      swap2\n      0x20\n      add\n      swap2\n      swap1\n      0x01\n      add\n      swap1\n      jump(tag_197)\n    tag_198:\n    tag_194:\n      pop\n      swap1\n      pop\n      tag_199\n      swap2\n      swap1\n      tag_200\n      jump\t// in\n    tag_199:\n      pop\n      swap1\n      jump\t// out\n    tag_200:\n    tag_201:\n      dup1\n      dup3\n      gt\n      iszero\n      tag_202\n      jumpi\n      0x00\n      dup2\n      0x00\n      swap1\n      sstore\n      pop\n      0x01\n      add\n      jump(tag_201)\n    tag_202:\n      pop\n      swap1\n      jump\t// out\n        /* \"#utility.yul\":7:419   */\n    tag_204:\n        /* \"#utility.yul\":85:90   */\n      0x00\n        /* \"#utility.yul\":110:176   */\n      tag_206\n        /* \"#utility.yul\":126:175   */\n      tag_207\n        /* \"#utility.yul\":168:174   */\n      dup5\n        /* \"#utility.yul\":126:175   */\n      tag_208\n      jump\t// in\n    tag_207:\n        /* \"#utility.yul\":110:176   */\n      tag_209\n      jump\t// in\n    tag_206:\n        /* \"#utility.yul\":101:176   */\n      swap1\n      pop\n        /* \"#utility.yul\":199:205   */\n      dup3\n        /* \"#utility.yul\":192:197   */\n      dup2\n        /* \"#utility.yul\":185:206   */\n      mstore\n        /* \"#utility.yul\":237:241   */\n      0x20\n        /* \"#utility.yul\":230:235   */\n      dup2\n        /* \"#utility.yul\":226:242   */\n      add\n        /* \"#utility.yul\":275:278   */\n      dup5\n        /* \"#utility.yul\":266:272   */\n      dup5\n        /* \"#utility.yul\":261:264   */\n      dup5\n        /* \"#utility.yul\":257:273   */\n      add\n        /* \"#utility.yul\":254:279   */\n      gt\n        /* \"#utility.yul\":251:363   */\n      iszero\n      tag_210\n      jumpi\n        /* \"#utility.yul\":282:361   */\n      tag_211\n      tag_212\n      jump\t// in\n    tag_211:\n        /* \"#utility.yul\":251:363   */\n    tag_210:\n        /* \"#utility.yul\":372:413   */\n      tag_213\n        /* \"#utility.yul\":406:412   */\n      dup5\n        /* \"#utility.yul\":401:404   */\n      dup3\n        /* \"#utility.yul\":396:399   */\n      dup6\n        /* \"#utility.yul\":372:413   */\n      tag_214\n      jump\t// in\n    tag_213:\n        /* \"#utility.yul\":91:419   */\n      pop\n        /* \"#utility.yul\":7:419   */\n      swap4\n      swap3\n      pop\n      pop\n      pop\n      jump\t// out\n        /* \"#utility.yul\":425:564   */\n    tag_215:\n        /* \"#utility.yul\":471:476   */\n      0x00\n        /* \"#utility.yul\":509:515   */\n      dup2\n        /* \"#utility.yul\":496:516   */\n      calldataload\n        /* \"#utility.yul\":487:516   */\n      swap1\n      pop\n        /* \"#utility.yul\":525:558   */\n      tag_217\n        /* \"#utility.yul\":552:557   */\n      dup2\n        /* \"#utility.yul\":525:558   */\n      tag_218\n      jump\t// in\n    tag_217:\n        /* \"#utility.yul\":425:564   */\n      swap3\n      swap2\n      pop\n      pop\n      jump\t// out\n        /* \"#utility.yul\":570:725   */\n    tag_219:\n        /* \"#utility.yul\":624:629   */\n      0x00\n        /* \"#utility.yul\":662:668   */\n      dup2\n        /* \"#utility.yul\":649:669   */\n      calldataload\n        /* \"#utility.yul\":640:669   */\n      swap1\n      pop\n        /* \"#utility.yul\":678:719   */\n      tag_221\n        /* \"#utility.yul\":713:718   */\n      dup2\n        /* \"#utility.yul\":678:719   */\n      tag_222\n      jump\t// in\n    tag_221:\n        /* \"#utility.yul\":570:725   */\n      swap3\n      swap2\n      pop\n      pop\n      jump\t// out\n        /* \"#utility.yul\":731:870   */\n    tag_223:\n        /* \"#utility.yul\":777:782   */\n      0x00\n        /* \"#utility.yul\":815:821   */\n      dup2\n        /* \"#utility.yul\":802:822   */\n      calldataload\n        /* \"#utility.yul\":793:822   */\n      swap1\n      pop\n        /* \"#utility.yul\":831:864   */\n      tag_225\n        /* \"#utility.yul\":858:863   */\n      dup2\n        /* \"#utility.yul\":831:864   */\n      tag_226\n      jump\t// in\n    tag_225:\n        /* \"#utility.yul\":731:870   */\n      swap3\n      swap2\n      pop\n      pop\n      jump\t// out\n        /* \"#utility.yul\":876:1013   */\n    tag_227:\n        /* \"#utility.yul\":921:926   */\n      0x00\n        /* \"#utility.yul\":959:965   */\n      dup2\n        /* \"#utility.yul\":946:966   */\n      calldataload\n        /* \"#utility.yul\":937:966   */\n      swap1\n      pop\n        /* \"#utility.yul\":975:1007   */\n      tag_229\n        /* \"#utility.yul\":1001:1006   */\n      dup2\n        /* \"#utility.yul\":975:1007   */\n      tag_230\n      jump\t// in\n    tag_229:\n        /* \"#utility.yul\":876:1013   */\n      swap3\n      swap2\n      pop\n      pop\n      jump\t// out\n        /* \"#utility.yul\":1033:1373   */\n    tag_231:\n        /* \"#utility.yul\":1089:1094   */\n      0x00\n        /* \"#utility.yul\":1138:1141   */\n      dup3\n        /* \"#utility.yul\":1131:1135   */\n      0x1f\n        /* \"#utility.yul\":1123:1129   */\n      dup4\n        /* \"#utility.yul\":1119:1136   */\n      add\n        /* \"#utility.yul\":1115:1142   */\n      slt\n        /* \"#utility.yul\":1105:1227   */\n      tag_233\n      jumpi\n        /* \"#utility.yul\":1146:1225   */\n      tag_234\n      tag_235\n      jump\t// in\n    tag_234:\n        /* \"#utility.yul\":1105:1227   */\n    tag_233:\n        /* \"#utility.yul\":1263:1269   */\n      dup2\n        /* \"#utility.yul\":1250:1270   */\n      calldataload\n        /* \"#utility.yul\":1288:1367   */\n      tag_236\n        /* \"#utility.yul\":1363:1366   */\n      dup5\n        /* \"#utility.yul\":1355:1361   */\n      dup3\n        /* \"#utility.yul\":1348:1352   */\n      0x20\n        /* \"#utility.yul\":1340:1346   */\n      dup7\n        /* \"#utility.yul\":1336:1353   */\n      add\n        /* \"#utility.yul\":1288:1367   */\n      tag_204\n      jump\t// in\n    tag_236:\n        /* \"#utility.yul\":1279:1367   */\n      swap2\n      pop\n        /* \"#utility.yul\":1095:1373   */\n      pop\n        /* \"#utility.yul\":1033:1373   */\n      swap3\n      swap2\n      pop\n      pop\n      jump\t// out\n        /* \"#utility.yul\":1379:1518   */\n    tag_237:\n        /* \"#utility.yul\":1425:1430   */\n      0x00\n        /* \"#utility.yul\":1463:1469   */\n      dup2\n        /* \"#utility.yul\":1450:1470   */\n      calldataload\n        /* \"#utility.yul\":1441:1470   */\n      swap1\n      pop\n        /* \"#utility.yul\":1479:1512   */\n      tag_239\n        /* \"#utility.yul\":1506:1511   */\n      dup2\n        /* \"#utility.yul\":1479:1512   */\n      tag_240\n      jump\t// in\n    tag_239:\n        /* \"#utility.yul\":1379:1518   */\n      swap3\n      swap2\n      pop\n      pop\n      jump\t// out\n        /* \"#utility.yul\":1524:1853   */\n    tag_25:\n        /* \"#utility.yul\":1583:1589   */\n      0x00\n        /* \"#utility.yul\":1632:1634   */\n      0x20\n        /* \"#utility.yul\":1620:1629   */\n      dup3\n        /* \"#utility.yul\":1611:1618   */\n      dup5\n        /* \"#utility.yul\":1607:1630   */\n      sub\n        /* \"#utility.yul\":1603:1635   */\n      slt\n        /* \"#utility.yul\":1600:1719   */\n      iszero\n      tag_242\n      jumpi\n        /* \"#utility.yul\":1638:1717   */\n      tag_243\n      tag_244\n      jump\t// in\n    tag_243:\n        /* \"#utility.yul\":1600:1719   */\n    tag_242:\n        /* \"#utility.yul\":1758:1759   */\n      0x00\n        /* \"#utility.yul\":1783:1836   */\n      tag_245\n        /* \"#utility.yul\":1828:1835   */\n      dup5\n        /* \"#utility.yul\":1819:1825   */\n      dup3\n        /* \"#utility.yul\":1808:1817   */\n      dup6\n        /* \"#utility.yul\":1804:1826   */\n      add\n        /* \"#utility.yul\":1783:1836   */\n      tag_223\n      jump\t// in\n    tag_245:\n        /* \"#utility.yul\":1773:1836   */\n      swap2\n      pop\n        /* \"#utility.yul\":1729:1846   */\n      pop\n        /* \"#utility.yul\":1524:1853   */\n      swap3\n      swap2\n      pop\n      pop\n      jump\t// out\n        /* \"#utility.yul\":1859:2333   */\n    tag_32:\n        /* \"#utility.yul\":1927:1933   */\n      0x00\n        /* \"#utility.yul\":1935:1941   */\n      dup1\n        /* \"#utility.yul\":1984:1986   */\n      0x40\n        /* \"#utility.yul\":1972:1981   */\n      dup4\n        /* \"#utility.yul\":1963:1970   */\n      dup6\n        /* \"#utility.yul\":1959:1982   */\n      sub\n        /* \"#utility.yul\":1955:1987   */\n      slt\n        /* \"#utility.yul\":1952:2071   */\n      iszero\n      tag_247\n      jumpi\n        /* \"#utility.yul\":1990:2069   */\n      tag_248\n      tag_244\n      jump\t// in\n    tag_248:\n        /* \"#utility.yul\":1952:2071   */\n    tag_247:\n        /* \"#utility.yul\":2110:2111   */\n      0x00\n        /* \"#utility.yul\":2135:2188   */\n      tag_249\n        /* \"#utility.yul\":2180:2187   */\n      dup6\n        /* \"#utility.yul\":2171:2177   */\n      dup3\n        /* \"#utility.yul\":2160:2169   */\n      dup7\n        /* \"#utility.yul\":2156:2178   */\n      add\n        /* \"#utility.yul\":2135:2188   */\n      tag_223\n      jump\t// in\n    tag_249:\n        /* \"#utility.yul\":2125:2188   */\n      swap3\n      pop\n        /* \"#utility.yul\":2081:2198   */\n      pop\n        /* \"#utility.yul\":2237:2239   */\n      0x20\n        /* \"#utility.yul\":2263:2316   */\n      tag_250\n        /* \"#utility.yul\":2308:2315   */\n      dup6\n        /* \"#utility.yul\":2299:2305   */\n      dup3\n        /* \"#utility.yul\":2288:2297   */\n      dup7\n        /* \"#utility.yul\":2284:2306   */\n      add\n        /* \"#utility.yul\":2263:2316   */\n      tag_215\n      jump\t// in\n    tag_250:\n        /* \"#utility.yul\":2253:2316   */\n      swap2\n      pop\n        /* \"#utility.yul\":2208:2326   */\n      pop\n        /* \"#utility.yul\":1859:2333   */\n      swap3\n      pop\n      swap3\n      swap1\n      pop\n      jump\t// out\n        /* \"#utility.yul\":2339:2666   */\n    tag_18:\n        /* \"#utility.yul\":2397:2403   */\n      0x00\n        /* \"#utility.yul\":2446:2448   */\n      0x20\n        /* \"#utility.yul\":2434:2443   */\n      dup3\n        /* \"#utility.yul\":2425:2432   */\n      dup5\n        /* \"#utility.yul\":2421:2444   */\n      sub\n        /* \"#utility.yul\":2417:2449   */\n      slt\n        /* \"#utility.yul\":2414:2533   */\n      iszero\n      tag_252\n      jumpi\n        /* \"#utility.yul\":2452:2531   */\n      tag_253\n      tag_244\n      jump\t// in\n    tag_253:\n        /* \"#utility.yul\":2414:2533   */\n    tag_252:\n        /* \"#utility.yul\":2572:2573   */\n      0x00\n        /* \"#utility.yul\":2597:2649   */\n      tag_254\n        /* \"#utility.yul\":2641:2648   */\n      dup5\n        /* \"#utility.yul\":2632:2638   */\n      dup3\n        /* \"#utility.yul\":2621:2630   */\n      dup6\n        /* \"#utility.yul\":2617:2639   */\n      add\n        /* \"#utility.yul\":2597:2649   */\n      tag_227\n      jump\t// in\n    tag_254:\n        /* \"#utility.yul\":2587:2649   */\n      swap2\n      pop\n        /* \"#utility.yul\":2543:2659   */\n      pop\n        /* \"#utility.yul\":2339:2666   */\n      swap3\n      swap2\n      pop\n      pop\n      jump\t// out\n        /* \"#utility.yul\":2672:4285   */\n    tag_73:\n        /* \"#utility.yul\":2814:2820   */\n      0x00\n        /* \"#utility.yul\":2822:2828   */\n      dup1\n        /* \"#utility.yul\":2830:2836   */\n      0x00\n        /* \"#utility.yul\":2838:2844   */\n      dup1\n        /* \"#utility.yul\":2846:2852   */\n      0x00\n        /* \"#utility.yul\":2854:2860   */\n      dup1\n        /* \"#utility.yul\":2903:2906   */\n      0xc0\n        /* \"#utility.yul\":2891:2900   */\n      dup8\n        /* \"#utility.yul\":2882:2889   */\n      dup10\n        /* \"#utility.yul\":2878:2901   */\n      sub\n        /* \"#utility.yul\":2874:2907   */\n      slt\n        /* \"#utility.yul\":2871:2991   */\n      iszero\n      tag_256\n      jumpi\n        /* \"#utility.yul\":2910:2989   */\n      tag_257\n      tag_244\n      jump\t// in\n    tag_257:\n        /* \"#utility.yul\":2871:2991   */\n    tag_256:\n        /* \"#utility.yul\":3058:3059   */\n      0x00\n        /* \"#utility.yul\":3047:3056   */\n      dup8\n        /* \"#utility.yul\":3043:3060   */\n      add\n        /* \"#utility.yul\":3030:3061   */\n      calldataload\n        /* \"#utility.yul\":3088:3106   */\n      0xffffffffffffffff\n        /* \"#utility.yul\":3080:3086   */\n      dup2\n        /* \"#utility.yul\":3077:3107   */\n      gt\n        /* \"#utility.yul\":3074:3191   */\n      iszero\n      tag_258\n      jumpi\n        /* \"#utility.yul\":3110:3189   */\n      tag_259\n      tag_260\n      jump\t// in\n    tag_259:\n        /* \"#utility.yul\":3074:3191   */\n    tag_258:\n        /* \"#utility.yul\":3215:3278   */\n      tag_261\n        /* \"#utility.yul\":3270:3277   */\n      dup10\n        /* \"#utility.yul\":3261:3267   */\n      dup3\n        /* \"#utility.yul\":3250:3259   */\n      dup11\n        /* \"#utility.yul\":3246:3268   */\n      add\n        /* \"#utility.yul\":3215:3278   */\n      tag_231\n      jump\t// in\n    tag_261:\n        /* \"#utility.yul\":3205:3278   */\n      swap7\n      pop\n        /* \"#utility.yul\":3001:3288   */\n      pop\n        /* \"#utility.yul\":3355:3357   */\n      0x20\n        /* \"#utility.yul\":3344:3353   */\n      dup8\n        /* \"#utility.yul\":3340:3358   */\n      add\n        /* \"#utility.yul\":3327:3359   */\n      calldataload\n        /* \"#utility.yul\":3386:3404   */\n      0xffffffffffffffff\n        /* \"#utility.yul\":3378:3384   */\n      dup2\n        /* \"#utility.yul\":3375:3405   */\n      gt\n        /* \"#utility.yul\":3372:3489   */\n      iszero\n      tag_262\n      jumpi\n        /* \"#utility.yul\":3408:3487   */\n      tag_263\n      tag_260\n      jump\t// in\n    tag_263:\n        /* \"#utility.yul\":3372:3489   */\n    tag_262:\n        /* \"#utility.yul\":3513:3576   */\n      tag_264\n        /* \"#utility.yul\":3568:3575   */\n      dup10\n        /* \"#utility.yul\":3559:3565   */\n      dup3\n        /* \"#utility.yul\":3548:3557   */\n      dup11\n        /* \"#utility.yul\":3544:3566   */\n      add\n        /* \"#utility.yul\":3513:3576   */\n      tag_231\n      jump\t// in\n    tag_264:\n        /* \"#utility.yul\":3503:3576   */\n      swap6\n      pop\n        /* \"#utility.yul\":3298:3586   */\n      pop\n        /* \"#utility.yul\":3625:3627   */\n      0x40\n        /* \"#utility.yul\":3651:3712   */\n      tag_265\n        /* \"#utility.yul\":3704:3711   */\n      dup10\n        /* \"#utility.yul\":3695:3701   */\n      dup3\n        /* \"#utility.yul\":3684:3693   */\n      dup11\n        /* \"#utility.yul\":3680:3702   */\n      add\n        /* \"#utility.yul\":3651:3712   */\n      tag_219\n      jump\t// in\n    tag_265:\n        /* \"#utility.yul\":3641:3712   */\n      swap5\n      pop\n        /* \"#utility.yul\":3596:3722   */\n      pop\n        /* \"#utility.yul\":3761:3763   */\n      0x60\n        /* \"#utility.yul\":3787:3840   */\n      tag_266\n        /* \"#utility.yul\":3832:3839   */\n      dup10\n        /* \"#utility.yul\":3823:3829   */\n      dup3\n        /* \"#utility.yul\":3812:3821   */\n      dup11\n        /* \"#utility.yul\":3808:3830   */\n      add\n        /* \"#utility.yul\":3787:3840   */\n      tag_237\n      jump\t// in\n    tag_266:\n        /* \"#utility.yul\":3777:3840   */\n      swap4\n      pop\n        /* \"#utility.yul\":3732:3850   */\n      pop\n        /* \"#utility.yul\":3917:3920   */\n      0x80\n        /* \"#utility.yul\":3906:3915   */\n      dup8\n        /* \"#utility.yul\":3902:3921   */\n      add\n        /* \"#utility.yul\":3889:3922   */\n      calldataload\n        /* \"#utility.yul\":3949:3967   */\n      0xffffffffffffffff\n        /* \"#utility.yul\":3941:3947   */\n      dup2\n        /* \"#utility.yul\":3938:3968   */\n      gt\n        /* \"#utility.yul\":3935:4052   */\n      iszero\n      tag_267\n      jumpi\n        /* \"#utility.yul\":3971:4050   */\n      tag_268\n      tag_260\n      jump\t// in\n    tag_268:\n        /* \"#utility.yul\":3935:4052   */\n    tag_267:\n        /* \"#utility.yul\":4076:4139   */\n      tag_269\n        /* \"#utility.yul\":4131:4138   */\n      dup10\n        /* \"#utility.yul\":4122:4128   */\n      dup3\n        /* \"#utility.yul\":4111:4120   */\n      dup11\n        /* \"#utility.yul\":4107:4129   */\n      add\n        /* \"#utility.yul\":4076:4139   */\n      tag_231\n      jump\t// in\n    tag_269:\n        /* \"#utility.yul\":4066:4139   */\n      swap3\n      pop\n        /* \"#utility.yul\":3860:4149   */\n      pop\n        /* \"#utility.yul\":4188:4191   */\n      0xa0\n        /* \"#utility.yul\":4215:4268   */\n      tag_270\n        /* \"#utility.yul\":4260:4267   */\n      dup10\n        /* \"#utility.yul\":4251:4257   */\n      dup3\n        /* \"#utility.yul\":4240:4249   */\n      dup11\n        /* \"#utility.yul\":4236:4258   */\n      add\n        /* \"#utility.yul\":4215:4268   */\n      tag_237\n      jump\t// in\n    tag_270:\n        /* \"#utility.yul\":4205:4268   */\n      swap2\n      pop\n        /* \"#utility.yul\":4159:4278   */\n      pop\n        /* \"#utility.yul\":2672:4285   */\n      swap3\n      swap6\n      pop\n      swap3\n      swap6\n      pop\n      swap3\n      swap6\n      jump\t// out\n        /* \"#utility.yul\":4291:4620   */\n    tag_36:\n        /* \"#utility.yul\":4350:4356   */\n      0x00\n        /* \"#utility.yul\":4399:4401   */\n      0x20\n        /* \"#utility.yul\":4387:4396   */\n      dup3\n        /* \"#utility.yul\":4378:4385   */\n      dup5\n        /* \"#utility.yul\":4374:4397   */\n      sub\n        /* \"#utility.yul\":4370:4402   */\n      slt\n        /* \"#utility.yul\":4367:4486   */\n      iszero\n      tag_272\n      jumpi\n        /* \"#utility.yul\":4405:4484   */\n      tag_273\n      tag_244\n      jump\t// in\n    tag_273:\n        /* \"#utility.yul\":4367:4486   */\n    tag_272:\n        /* \"#utility.yul\":4525:4526   */\n      0x00\n        /* \"#utility.yul\":4550:4603   */\n      tag_274\n        /* \"#utility.yul\":4595:4602   */\n      dup5\n        /* \"#utility.yul\":4586:4592   */\n      dup3\n        /* \"#utility.yul\":4575:4584   */\n      dup6\n        /* \"#utility.yul\":4571:4593   */\n      add\n        /* \"#utility.yul\":4550:4603   */\n      tag_237\n      jump\t// in\n    tag_274:\n        /* \"#utility.yul\":4540:4603   */\n      swap2\n      pop\n        /* \"#utility.yul\":4496:4613   */\n      pop\n        /* \"#utility.yul\":4291:4620   */\n      swap3\n      swap2\n      pop\n      pop\n      jump\t// out\n        /* \"#utility.yul\":4626:4768   */\n    tag_275:\n        /* \"#utility.yul\":4729:4761   */\n      tag_277\n        /* \"#utility.yul\":4755:4760   */\n      dup2\n        /* \"#utility.yul\":4729:4761   */\n      tag_278\n      jump\t// in\n    tag_277:\n        /* \"#utility.yul\":4724:4727   */\n      dup3\n        /* \"#utility.yul\":4717:4762   */\n      mstore\n        /* \"#utility.yul\":4626:4768   */\n      pop\n      pop\n      jump\t// out\n        /* \"#utility.yul\":4774:4883   */\n    tag_279:\n        /* \"#utility.yul\":4855:4876   */\n      tag_281\n        /* \"#utility.yul\":4870:4875   */\n      dup2\n        /* \"#utility.yul\":4855:4876   */\n      tag_282\n      jump\t// in\n    tag_281:\n        /* \"#utility.yul\":4850:4853   */\n      dup3\n        /* \"#utility.yul\":4843:4877   */\n      mstore\n        /* \"#utility.yul\":4774:4883   */\n      pop\n      pop\n      jump\t// out\n        /* \"#utility.yul\":4889:5007   */\n    tag_283:\n        /* \"#utility.yul\":4976:5000   */\n      tag_285\n        /* \"#utility.yul\":4994:4999   */\n      dup2\n        /* \"#utility.yul\":4976:5000   */\n      tag_286\n      jump\t// in\n    tag_285:\n        /* \"#utility.yul\":4971:4974   */\n      dup3\n        /* \"#utility.yul\":4964:5001   */\n      mstore\n        /* \"#utility.yul\":4889:5007   */\n      pop\n      pop\n      jump\t// out\n        /* \"#utility.yul\":5013:5377   */\n    tag_287:\n        /* \"#utility.yul\":5101:5104   */\n      0x00\n        /* \"#utility.yul\":5129:5168   */\n      tag_289\n        /* \"#utility.yul\":5162:5167   */\n      dup3\n        /* \"#utility.yul\":5129:5168   */\n      tag_290\n      jump\t// in\n    tag_289:\n        /* \"#utility.yul\":5184:5255   */\n      tag_291\n        /* \"#utility.yul\":5248:5254   */\n      dup2\n        /* \"#utility.yul\":5243:5246   */\n      dup6\n        /* \"#utility.yul\":5184:5255   */\n      tag_292\n      jump\t// in\n    tag_291:\n        /* \"#utility.yul\":5177:5255   */\n      swap4\n      pop\n        /* \"#utility.yul\":5264:5316   */\n      tag_293\n        /* \"#utility.yul\":5309:5315   */\n      dup2\n        /* \"#utility.yul\":5304:5307   */\n      dup6\n        /* \"#utility.yul\":5297:5301   */\n      0x20\n        /* \"#utility.yul\":5290:5295   */\n      dup7\n        /* \"#utility.yul\":5286:5302   */\n      add\n        /* \"#utility.yul\":5264:5316   */\n      tag_294\n      jump\t// in\n    tag_293:\n        /* \"#utility.yul\":5341:5370   */\n      tag_295\n        /* \"#utility.yul\":5363:5369   */\n      dup2\n        /* \"#utility.yul\":5341:5370   */\n      tag_296\n      jump\t// in\n    tag_295:\n        /* \"#utility.yul\":5336:5339   */\n      dup5\n        /* \"#utility.yul\":5332:5371   */\n      add\n        /* \"#utility.yul\":5325:5371   */\n      swap2\n      pop\n        /* \"#utility.yul\":5105:5377   */\n      pop\n        /* \"#utility.yul\":5013:5377   */\n      swap3\n      swap2\n      pop\n      pop\n      jump\t// out\n        /* \"#utility.yul\":5383:5760   */\n    tag_297:\n        /* \"#utility.yul\":5489:5492   */\n      0x00\n        /* \"#utility.yul\":5517:5556   */\n      tag_299\n        /* \"#utility.yul\":5550:5555   */\n      dup3\n        /* \"#utility.yul\":5517:5556   */\n      tag_290\n      jump\t// in\n    tag_299:\n        /* \"#utility.yul\":5572:5661   */\n      tag_300\n        /* \"#utility.yul\":5654:5660   */\n      dup2\n        /* \"#utility.yul\":5649:5652   */\n      dup6\n        /* \"#utility.yul\":5572:5661   */\n      tag_301\n      jump\t// in\n    tag_300:\n        /* \"#utility.yul\":5565:5661   */\n      swap4\n      pop\n        /* \"#utility.yul\":5670:5722   */\n      tag_302\n        /* \"#utility.yul\":5715:5721   */\n      dup2\n        /* \"#utility.yul\":5710:5713   */\n      dup6\n        /* \"#utility.yul\":5703:5707   */\n      0x20\n        /* \"#utility.yul\":5696:5701   */\n      dup7\n        /* \"#utility.yul\":5692:5708   */\n      add\n        /* \"#utility.yul\":5670:5722   */\n      tag_294\n      jump\t// in\n    tag_302:\n        /* \"#utility.yul\":5747:5753   */\n      dup1\n        /* \"#utility.yul\":5742:5745   */\n      dup5\n        /* \"#utility.yul\":5738:5754   */\n      add\n        /* \"#utility.yul\":5731:5754   */\n      swap2\n      pop\n        /* \"#utility.yul\":5493:5760   */\n      pop\n        /* \"#utility.yul\":5383:5760   */\n      swap3\n      swap2\n      pop\n      pop\n      jump\t// out\n        /* \"#utility.yul\":5766:6132   */\n    tag_303:\n        /* \"#utility.yul\":5908:5911   */\n      0x00\n        /* \"#utility.yul\":5929:5996   */\n      tag_305\n        /* \"#utility.yul\":5993:5995   */\n      0x20\n        /* \"#utility.yul\":5988:5991   */\n      dup4\n        /* \"#utility.yul\":5929:5996   */\n      tag_292\n      jump\t// in\n    tag_305:\n        /* \"#utility.yul\":5922:5996   */\n      swap2\n      pop\n        /* \"#utility.yul\":6005:6098   */\n      tag_306\n        /* \"#utility.yul\":6094:6097   */\n      dup3\n        /* \"#utility.yul\":6005:6098   */\n      tag_307\n      jump\t// in\n    tag_306:\n        /* \"#utility.yul\":6123:6125   */\n      0x20\n        /* \"#utility.yul\":6118:6121   */\n      dup3\n        /* \"#utility.yul\":6114:6126   */\n      add\n        /* \"#utility.yul\":6107:6126   */\n      swap1\n      pop\n        /* \"#utility.yul\":5766:6132   */\n      swap2\n      swap1\n      pop\n      jump\t// out\n        /* \"#utility.yul\":6138:6504   */\n    tag_308:\n        /* \"#utility.yul\":6280:6283   */\n      0x00\n        /* \"#utility.yul\":6301:6368   */\n      tag_310\n        /* \"#utility.yul\":6365:6367   */\n      0x14\n        /* \"#utility.yul\":6360:6363   */\n      dup4\n        /* \"#utility.yul\":6301:6368   */\n      tag_292\n      jump\t// in\n    tag_310:\n        /* \"#utility.yul\":6294:6368   */\n      swap2\n      pop\n        /* \"#utility.yul\":6377:6470   */\n      tag_311\n        /* \"#utility.yul\":6466:6469   */\n      dup3\n        /* \"#utility.yul\":6377:6470   */\n      tag_312\n      jump\t// in\n    tag_311:\n        /* \"#utility.yul\":6495:6497   */\n      0x20\n        /* \"#utility.yul\":6490:6493   */\n      dup3\n        /* \"#utility.yul\":6486:6498   */\n      add\n        /* \"#utility.yul\":6479:6498   */\n      swap1\n      pop\n        /* \"#utility.yul\":6138:6504   */\n      swap2\n      swap1\n      pop\n      jump\t// out\n        /* \"#utility.yul\":6510:6876   */\n    tag_313:\n        /* \"#utility.yul\":6652:6655   */\n      0x00\n        /* \"#utility.yul\":6673:6740   */\n      tag_315\n        /* \"#utility.yul\":6737:6739   */\n      0x14\n        /* \"#utility.yul\":6732:6735   */\n      dup4\n        /* \"#utility.yul\":6673:6740   */\n      tag_292\n      jump\t// in\n    tag_315:\n        /* \"#utility.yul\":6666:6740   */\n      swap2\n      pop\n        /* \"#utility.yul\":6749:6842   */\n      tag_316\n        /* \"#utility.yul\":6838:6841   */\n      dup3\n        /* \"#utility.yul\":6749:6842   */\n      tag_317\n      jump\t// in\n    tag_316:\n        /* \"#utility.yul\":6867:6869   */\n      0x20\n        /* \"#utility.yul\":6862:6865   */\n      dup3\n        /* \"#utility.yul\":6858:6870   */\n      add\n        /* \"#utility.yul\":6851:6870   */\n      swap1\n      pop\n        /* \"#utility.yul\":6510:6876   */\n      swap2\n      swap1\n      pop\n      jump\t// out\n        /* \"#utility.yul\":6882:7248   */\n    tag_318:\n        /* \"#utility.yul\":7024:7027   */\n      0x00\n        /* \"#utility.yul\":7045:7112   */\n      tag_320\n        /* \"#utility.yul\":7109:7111   */\n      0x28\n        /* \"#utility.yul\":7104:7107   */\n      dup4\n        /* \"#utility.yul\":7045:7112   */\n      tag_292\n      jump\t// in\n    tag_320:\n        /* \"#utility.yul\":7038:7112   */\n      swap2\n      pop\n        /* \"#utility.yul\":7121:7214   */\n      tag_321\n        /* \"#utility.yul\":7210:7213   */\n      dup3\n        /* \"#utility.yul\":7121:7214   */\n      tag_322\n      jump\t// in\n    tag_321:\n        /* \"#utility.yul\":7239:7241   */\n      0x40\n        /* \"#utility.yul\":7234:7237   */\n      dup3\n        /* \"#utility.yul\":7230:7242   */\n      add\n        /* \"#utility.yul\":7223:7242   */\n      swap1\n      pop\n        /* \"#utility.yul\":6882:7248   */\n      swap2\n      swap1\n      pop\n      jump\t// out\n        /* \"#utility.yul\":7254:7656   */\n    tag_323:\n        /* \"#utility.yul\":7414:7417   */\n      0x00\n        /* \"#utility.yul\":7435:7520   */\n      tag_325\n        /* \"#utility.yul\":7517:7519   */\n      0x17\n        /* \"#utility.yul\":7512:7515   */\n      dup4\n        /* \"#utility.yul\":7435:7520   */\n      tag_301\n      jump\t// in\n    tag_325:\n        /* \"#utility.yul\":7428:7520   */\n      swap2\n      pop\n        /* \"#utility.yul\":7529:7622   */\n      tag_326\n        /* \"#utility.yul\":7618:7621   */\n      dup3\n        /* \"#utility.yul\":7529:7622   */\n      tag_327\n      jump\t// in\n    tag_326:\n        /* \"#utility.yul\":7647:7649   */\n      0x17\n        /* \"#utility.yul\":7642:7645   */\n      dup3\n        /* \"#utility.yul\":7638:7650   */\n      add\n        /* \"#utility.yul\":7631:7650   */\n      swap1\n      pop\n        /* \"#utility.yul\":7254:7656   */\n      swap2\n      swap1\n      pop\n      jump\t// out\n        /* \"#utility.yul\":7662:8028   */\n    tag_328:\n        /* \"#utility.yul\":7804:7807   */\n      0x00\n        /* \"#utility.yul\":7825:7892   */\n      tag_330\n        /* \"#utility.yul\":7889:7891   */\n      0x11\n        /* \"#utility.yul\":7884:7887   */\n      dup4\n        /* \"#utility.yul\":7825:7892   */\n      tag_292\n      jump\t// in\n    tag_330:\n        /* \"#utility.yul\":7818:7892   */\n      swap2\n      pop\n        /* \"#utility.yul\":7901:7994   */\n      tag_331\n        /* \"#utility.yul\":7990:7993   */\n      dup3\n        /* \"#utility.yul\":7901:7994   */\n      tag_332\n      jump\t// in\n    tag_331:\n        /* \"#utility.yul\":8019:8021   */\n      0x20\n        /* \"#utility.yul\":8014:8017   */\n      dup3\n        /* \"#utility.yul\":8010:8022   */\n      add\n        /* \"#utility.yul\":8003:8022   */\n      swap1\n      pop\n        /* \"#utility.yul\":7662:8028   */\n      swap2\n      swap1\n      pop\n      jump\t// out\n        /* \"#utility.yul\":8034:8400   */\n    tag_333:\n        /* \"#utility.yul\":8176:8179   */\n      0x00\n        /* \"#utility.yul\":8197:8264   */\n      tag_335\n        /* \"#utility.yul\":8261:8263   */\n      0x1c\n        /* \"#utility.yul\":8256:8259   */\n      dup4\n        /* \"#utility.yul\":8197:8264   */\n      tag_292\n      jump\t// in\n    tag_335:\n        /* \"#utility.yul\":8190:8264   */\n      swap2\n      pop\n        /* \"#utility.yul\":8273:8366   */\n      tag_336\n        /* \"#utility.yul\":8362:8365   */\n      dup3\n        /* \"#utility.yul\":8273:8366   */\n      tag_337\n      jump\t// in\n    tag_336:\n        /* \"#utility.yul\":8391:8393   */\n      0x20\n        /* \"#utility.yul\":8386:8389   */\n      dup3\n        /* \"#utility.yul\":8382:8394   */\n      add\n        /* \"#utility.yul\":8375:8394   */\n      swap1\n      pop\n        /* \"#utility.yul\":8034:8400   */\n      swap2\n      swap1\n      pop\n      jump\t// out\n        /* \"#utility.yul\":8406:8808   */\n    tag_338:\n        /* \"#utility.yul\":8566:8569   */\n      0x00\n        /* \"#utility.yul\":8587:8672   */\n      tag_340\n        /* \"#utility.yul\":8669:8671   */\n      0x11\n        /* \"#utility.yul\":8664:8667   */\n      dup4\n        /* \"#utility.yul\":8587:8672   */\n      tag_301\n      jump\t// in\n    tag_340:\n        /* \"#utility.yul\":8580:8672   */\n      swap2\n      pop\n        /* \"#utility.yul\":8681:8774   */\n      tag_341\n        /* \"#utility.yul\":8770:8773   */\n      dup3\n        /* \"#utility.yul\":8681:8774   */\n      tag_342\n      jump\t// in\n    tag_341:\n        /* \"#utility.yul\":8799:8801   */\n      0x11\n        /* \"#utility.yul\":8794:8797   */\n      dup3\n        /* \"#utility.yul\":8790:8802   */\n      add\n        /* \"#utility.yul\":8783:8802   */\n      swap1\n      pop\n        /* \"#utility.yul\":8406:8808   */\n      swap2\n      swap1\n      pop\n      jump\t// out\n        /* \"#utility.yul\":8814:9180   */\n    tag_343:\n        /* \"#utility.yul\":8956:8959   */\n      0x00\n        /* \"#utility.yul\":8977:9044   */\n      tag_345\n        /* \"#utility.yul\":9041:9043   */\n      0x2f\n        /* \"#utility.yul\":9036:9039   */\n      dup4\n        /* \"#utility.yul\":8977:9044   */\n      tag_292\n      jump\t// in\n    tag_345:\n        /* \"#utility.yul\":8970:9044   */\n      swap2\n      pop\n        /* \"#utility.yul\":9053:9146   */\n      tag_346\n        /* \"#utility.yul\":9142:9145   */\n      dup3\n        /* \"#utility.yul\":9053:9146   */\n      tag_347\n      jump\t// in\n    tag_346:\n        /* \"#utility.yul\":9171:9173   */\n      0x40\n        /* \"#utility.yul\":9166:9169   */\n      dup3\n        /* \"#utility.yul\":9162:9174   */\n      add\n        /* \"#utility.yul\":9155:9174   */\n      swap1\n      pop\n        /* \"#utility.yul\":8814:9180   */\n      swap2\n      swap1\n      pop\n      jump\t// out\n        /* \"#utility.yul\":9186:9304   */\n    tag_348:\n        /* \"#utility.yul\":9273:9297   */\n      tag_350\n        /* \"#utility.yul\":9291:9296   */\n      dup2\n        /* \"#utility.yul\":9273:9297   */\n      tag_351\n      jump\t// in\n    tag_350:\n        /* \"#utility.yul\":9268:9271   */\n      dup3\n        /* \"#utility.yul\":9261:9298   */\n      mstore\n        /* \"#utility.yul\":9186:9304   */\n      pop\n      pop\n      jump\t// out\n        /* \"#utility.yul\":9310:10277   */\n    tag_154:\n        /* \"#utility.yul\":9692:9695   */\n      0x00\n        /* \"#utility.yul\":9714:9862   */\n      tag_353\n        /* \"#utility.yul\":9858:9861   */\n      dup3\n        /* \"#utility.yul\":9714:9862   */\n      tag_323\n      jump\t// in\n    tag_353:\n        /* \"#utility.yul\":9707:9862   */\n      swap2\n      pop\n        /* \"#utility.yul\":9879:9974   */\n      tag_354\n        /* \"#utility.yul\":9970:9973   */\n      dup3\n        /* \"#utility.yul\":9961:9967   */\n      dup6\n        /* \"#utility.yul\":9879:9974   */\n      tag_297\n      jump\t// in\n    tag_354:\n        /* \"#utility.yul\":9872:9974   */\n      swap2\n      pop\n        /* \"#utility.yul\":9991:10139   */\n      tag_355\n        /* \"#utility.yul\":10135:10138   */\n      dup3\n        /* \"#utility.yul\":9991:10139   */\n      tag_338\n      jump\t// in\n    tag_355:\n        /* \"#utility.yul\":9984:10139   */\n      swap2\n      pop\n        /* \"#utility.yul\":10156:10251   */\n      tag_356\n        /* \"#utility.yul\":10247:10250   */\n      dup3\n        /* \"#utility.yul\":10238:10244   */\n      dup5\n        /* \"#utility.yul\":10156:10251   */\n      tag_297\n      jump\t// in\n    tag_356:\n        /* \"#utility.yul\":10149:10251   */\n      swap2\n      pop\n        /* \"#utility.yul\":10268:10271   */\n      dup2\n        /* \"#utility.yul\":10261:10271   */\n      swap1\n      pop\n        /* \"#utility.yul\":9310:10277   */\n      swap4\n      swap3\n      pop\n      pop\n      pop\n      jump\t// out\n        /* \"#utility.yul\":10283:10493   */\n    tag_21:\n        /* \"#utility.yul\":10370:10374   */\n      0x00\n        /* \"#utility.yul\":10408:10410   */\n      0x20\n        /* \"#utility.yul\":10397:10406   */\n      dup3\n        /* \"#utility.yul\":10393:10411   */\n      add\n        /* \"#utility.yul\":10385:10411   */\n      swap1\n      pop\n        /* \"#utility.yul\":10421:10486   */\n      tag_358\n        /* \"#utility.yul\":10483:10484   */\n      0x00\n        /* \"#utility.yul\":10472:10481   */\n      dup4\n        /* \"#utility.yul\":10468:10485   */\n      add\n        /* \"#utility.yul\":10459:10465   */\n      dup5\n        /* \"#utility.yul\":10421:10486   */\n      tag_279\n      jump\t// in\n    tag_358:\n        /* \"#utility.yul\":10283:10493   */\n      swap3\n      swap2\n      pop\n      pop\n      jump\t// out\n        /* \"#utility.yul\":10499:10721   */\n    tag_28:\n        /* \"#utility.yul\":10592:10596   */\n      0x00\n        /* \"#utility.yul\":10630:10632   */\n      0x20\n        /* \"#utility.yul\":10619:10628   */\n      dup3\n        /* \"#utility.yul\":10615:10633   */\n      add\n        /* \"#utility.yul\":10607:10633   */\n      swap1\n      pop\n        /* \"#utility.yul\":10643:10714   */\n      tag_360\n        /* \"#utility.yul\":10711:10712   */\n      0x00\n        /* \"#utility.yul\":10700:10709   */\n      dup4\n        /* \"#utility.yul\":10696:10713   */\n      add\n        /* \"#utility.yul\":10687:10693   */\n      dup5\n        /* \"#utility.yul\":10643:10714   */\n      tag_283\n      jump\t// in\n    tag_360:\n        /* \"#utility.yul\":10499:10721   */\n      swap3\n      swap2\n      pop\n      pop\n      jump\t// out\n        /* \"#utility.yul\":10727:11040   */\n    tag_156:\n        /* \"#utility.yul\":10840:10844   */\n      0x00\n        /* \"#utility.yul\":10878:10880   */\n      0x20\n        /* \"#utility.yul\":10867:10876   */\n      dup3\n        /* \"#utility.yul\":10863:10881   */\n      add\n        /* \"#utility.yul\":10855:10881   */\n      swap1\n      pop\n        /* \"#utility.yul\":10927:10936   */\n      dup2\n        /* \"#utility.yul\":10921:10925   */\n      dup2\n        /* \"#utility.yul\":10917:10937   */\n      sub\n        /* \"#utility.yul\":10913:10914   */\n      0x00\n        /* \"#utility.yul\":10902:10911   */\n      dup4\n        /* \"#utility.yul\":10898:10915   */\n      add\n        /* \"#utility.yul\":10891:10938   */\n      mstore\n        /* \"#utility.yul\":10955:11033   */\n      tag_362\n        /* \"#utility.yul\":11028:11032   */\n      dup2\n        /* \"#utility.yul\":11019:11025   */\n      dup5\n        /* \"#utility.yul\":10955:11033   */\n      tag_287\n      jump\t// in\n    tag_362:\n        /* \"#utility.yul\":10947:11033   */\n      swap1\n      pop\n        /* \"#utility.yul\":10727:11040   */\n      swap3\n      swap2\n      pop\n      pop\n      jump\t// out\n        /* \"#utility.yul\":11046:12336   */\n    tag_65:\n        /* \"#utility.yul\":11405:11409   */\n      0x00\n        /* \"#utility.yul\":11443:11446   */\n      0x0100\n        /* \"#utility.yul\":11432:11441   */\n      dup3\n        /* \"#utility.yul\":11428:11447   */\n      add\n        /* \"#utility.yul\":11420:11447   */\n      swap1\n      pop\n        /* \"#utility.yul\":11493:11502   */\n      dup2\n        /* \"#utility.yul\":11487:11491   */\n      dup2\n        /* \"#utility.yul\":11483:11503   */\n      sub\n        /* \"#utility.yul\":11479:11480   */\n      0x00\n        /* \"#utility.yul\":11468:11477   */\n      dup4\n        /* \"#utility.yul\":11464:11481   */\n      add\n        /* \"#utility.yul\":11457:11504   */\n      mstore\n        /* \"#utility.yul\":11521:11599   */\n      tag_364\n        /* \"#utility.yul\":11594:11598   */\n      dup2\n        /* \"#utility.yul\":11585:11591   */\n      dup12\n        /* \"#utility.yul\":11521:11599   */\n      tag_287\n      jump\t// in\n    tag_364:\n        /* \"#utility.yul\":11513:11599   */\n      swap1\n      pop\n        /* \"#utility.yul\":11646:11655   */\n      dup2\n        /* \"#utility.yul\":11640:11644   */\n      dup2\n        /* \"#utility.yul\":11636:11656   */\n      sub\n        /* \"#utility.yul\":11631:11633   */\n      0x20\n        /* \"#utility.yul\":11620:11629   */\n      dup4\n        /* \"#utility.yul\":11616:11634   */\n      add\n        /* \"#utility.yul\":11609:11657   */\n      mstore\n        /* \"#utility.yul\":11674:11752   */\n      tag_365\n        /* \"#utility.yul\":11747:11751   */\n      dup2\n        /* \"#utility.yul\":11738:11744   */\n      dup11\n        /* \"#utility.yul\":11674:11752   */\n      tag_287\n      jump\t// in\n    tag_365:\n        /* \"#utility.yul\":11666:11752   */\n      swap1\n      pop\n        /* \"#utility.yul\":11762:11850   */\n      tag_366\n        /* \"#utility.yul\":11846:11848   */\n      0x40\n        /* \"#utility.yul\":11835:11844   */\n      dup4\n        /* \"#utility.yul\":11831:11849   */\n      add\n        /* \"#utility.yul\":11822:11828   */\n      dup10\n        /* \"#utility.yul\":11762:11850   */\n      tag_275\n      jump\t// in\n    tag_366:\n        /* \"#utility.yul\":11860:11932   */\n      tag_367\n        /* \"#utility.yul\":11928:11930   */\n      0x60\n        /* \"#utility.yul\":11917:11926   */\n      dup4\n        /* \"#utility.yul\":11913:11931   */\n      add\n        /* \"#utility.yul\":11904:11910   */\n      dup9\n        /* \"#utility.yul\":11860:11932   */\n      tag_348\n      jump\t// in\n    tag_367:\n        /* \"#utility.yul\":11942:12009   */\n      tag_368\n        /* \"#utility.yul\":12004:12007   */\n      0x80\n        /* \"#utility.yul\":11993:12002   */\n      dup4\n        /* \"#utility.yul\":11989:12008   */\n      add\n        /* \"#utility.yul\":11980:11986   */\n      dup8\n        /* \"#utility.yul\":11942:12009   */\n      tag_279\n      jump\t// in\n    tag_368:\n        /* \"#utility.yul\":12057:12066   */\n      dup2\n        /* \"#utility.yul\":12051:12055   */\n      dup2\n        /* \"#utility.yul\":12047:12067   */\n      sub\n        /* \"#utility.yul\":12041:12044   */\n      0xa0\n        /* \"#utility.yul\":12030:12039   */\n      dup4\n        /* \"#utility.yul\":12026:12045   */\n      add\n        /* \"#utility.yul\":12019:12068   */\n      mstore\n        /* \"#utility.yul\":12085:12163   */\n      tag_369\n        /* \"#utility.yul\":12158:12162   */\n      dup2\n        /* \"#utility.yul\":12149:12155   */\n      dup7\n        /* \"#utility.yul\":12085:12163   */\n      tag_287\n      jump\t// in\n    tag_369:\n        /* \"#utility.yul\":12077:12163   */\n      swap1\n      pop\n        /* \"#utility.yul\":12173:12246   */\n      tag_370\n        /* \"#utility.yul\":12241:12244   */\n      0xc0\n        /* \"#utility.yul\":12230:12239   */\n      dup4\n        /* \"#utility.yul\":12226:12245   */\n      add\n        /* \"#utility.yul\":12217:12223   */\n      dup6\n        /* \"#utility.yul\":12173:12246   */\n      tag_348\n      jump\t// in\n    tag_370:\n        /* \"#utility.yul\":12256:12329   */\n      tag_371\n        /* \"#utility.yul\":12324:12327   */\n      0xe0\n        /* \"#utility.yul\":12313:12322   */\n      dup4\n        /* \"#utility.yul\":12309:12328   */\n      add\n        /* \"#utility.yul\":12300:12306   */\n      dup5\n        /* \"#utility.yul\":12256:12329   */\n      tag_348\n      jump\t// in\n    tag_371:\n        /* \"#utility.yul\":11046:12336   */\n      swap10\n      swap9\n      pop\n      pop\n      pop\n      pop\n      pop\n      pop\n      pop\n      pop\n      pop\n      jump\t// out\n        /* \"#utility.yul\":12342:12761   */\n    tag_192:\n        /* \"#utility.yul\":12508:12512   */\n      0x00\n        /* \"#utility.yul\":12546:12548   */\n      0x20\n        /* \"#utility.yul\":12535:12544   */\n      dup3\n        /* \"#utility.yul\":12531:12549   */\n      add\n        /* \"#utility.yul\":12523:12549   */\n      swap1\n      pop\n        /* \"#utility.yul\":12595:12604   */\n      dup2\n        /* \"#utility.yul\":12589:12593   */\n      dup2\n        /* \"#utility.yul\":12585:12605   */\n      sub\n        /* \"#utility.yul\":12581:12582   */\n      0x00\n        /* \"#utility.yul\":12570:12579   */\n      dup4\n        /* \"#utility.yul\":12566:12583   */\n      add\n        /* \"#utility.yul\":12559:12606   */\n      mstore\n        /* \"#utility.yul\":12623:12754   */\n      tag_373\n        /* \"#utility.yul\":12749:12753   */\n      dup2\n        /* \"#utility.yul\":12623:12754   */\n      tag_303\n      jump\t// in\n    tag_373:\n        /* \"#utility.yul\":12615:12754   */\n      swap1\n      pop\n        /* \"#utility.yul\":12342:12761   */\n      swap2\n      swap1\n      pop\n      jump\t// out\n        /* \"#utility.yul\":12767:13186   */\n    tag_95:\n        /* \"#utility.yul\":12933:12937   */\n      0x00\n        /* \"#utility.yul\":12971:12973   */\n      0x20\n        /* \"#utility.yul\":12960:12969   */\n      dup3\n        /* \"#utility.yul\":12956:12974   */\n      add\n        /* \"#utility.yul\":12948:12974   */\n      swap1\n      pop\n        /* \"#utility.yul\":13020:13029   */\n      dup2\n        /* \"#utility.yul\":13014:13018   */\n      dup2\n        /* \"#utility.yul\":13010:13030   */\n      sub\n        /* \"#utility.yul\":13006:13007   */\n      0x00\n        /* \"#utility.yul\":12995:13004   */\n      dup4\n        /* \"#utility.yul\":12991:13008   */\n      add\n        /* \"#utility.yul\":12984:13031   */\n      mstore\n        /* \"#utility.yul\":13048:13179   */\n      tag_375\n        /* \"#utility.yul\":13174:13178   */\n      dup2\n        /* \"#utility.yul\":13048:13179   */\n      tag_308\n      jump\t// in\n    tag_375:\n        /* \"#utility.yul\":13040:13179   */\n      swap1\n      pop\n        /* \"#utility.yul\":12767:13186   */\n      swap2\n      swap1\n      pop\n      jump\t// out\n        /* \"#utility.yul\":13192:13611   */\n    tag_92:\n        /* \"#utility.yul\":13358:13362   */\n      0x00\n        /* \"#utility.yul\":13396:13398   */\n      0x20\n        /* \"#utility.yul\":13385:13394   */\n      dup3\n        /* \"#utility.yul\":13381:13399   */\n      add\n        /* \"#utility.yul\":13373:13399   */\n      swap1\n      pop\n        /* \"#utility.yul\":13445:13454   */\n      dup2\n        /* \"#utility.yul\":13439:13443   */\n      dup2\n        /* \"#utility.yul\":13435:13455   */\n      sub\n        /* \"#utility.yul\":13431:13432   */\n      0x00\n        /* \"#utility.yul\":13420:13429   */\n      dup4\n        /* \"#utility.yul\":13416:13433   */\n      add\n        /* \"#utility.yul\":13409:13456   */\n      mstore\n        /* \"#utility.yul\":13473:13604   */\n      tag_377\n        /* \"#utility.yul\":13599:13603   */\n      dup2\n        /* \"#utility.yul\":13473:13604   */\n      tag_313\n      jump\t// in\n    tag_377:\n        /* \"#utility.yul\":13465:13604   */\n      swap1\n      pop\n        /* \"#utility.yul\":13192:13611   */\n      swap2\n      swap1\n      pop\n      jump\t// out\n        /* \"#utility.yul\":13617:14036   */\n    tag_132:\n        /* \"#utility.yul\":13783:13787   */\n      0x00\n        /* \"#utility.yul\":13821:13823   */\n      0x20\n        /* \"#utility.yul\":13810:13819   */\n      dup3\n        /* \"#utility.yul\":13806:13824   */\n      add\n        /* \"#utility.yul\":13798:13824   */\n      swap1\n      pop\n        /* \"#utility.yul\":13870:13879   */\n      dup2\n        /* \"#utility.yul\":13864:13868   */\n      dup2\n        /* \"#utility.yul\":13860:13880   */\n      sub\n        /* \"#utility.yul\":13856:13857   */\n      0x00\n        /* \"#utility.yul\":13845:13854   */\n      dup4\n        /* \"#utility.yul\":13841:13858   */\n      add\n        /* \"#utility.yul\":13834:13881   */\n      mstore\n        /* \"#utility.yul\":13898:14029   */\n      tag_379\n        /* \"#utility.yul\":14024:14028   */\n      dup2\n        /* \"#utility.yul\":13898:14029   */\n      tag_318\n      jump\t// in\n    tag_379:\n        /* \"#utility.yul\":13890:14029   */\n      swap1\n      pop\n        /* \"#utility.yul\":13617:14036   */\n      swap2\n      swap1\n      pop\n      jump\t// out\n        /* \"#utility.yul\":14042:14461   */\n    tag_138:\n        /* \"#utility.yul\":14208:14212   */\n      0x00\n        /* \"#utility.yul\":14246:14248   */\n      0x20\n        /* \"#utility.yul\":14235:14244   */\n      dup3\n        /* \"#utility.yul\":14231:14249   */\n      add\n        /* \"#utility.yul\":14223:14249   */\n      swap1\n      pop\n        /* \"#utility.yul\":14295:14304   */\n      dup2\n        /* \"#utility.yul\":14289:14293   */\n      dup2\n        /* \"#utility.yul\":14285:14305   */\n      sub\n        /* \"#utility.yul\":14281:14282   */\n      0x00\n        /* \"#utility.yul\":14270:14279   */\n      dup4\n        /* \"#utility.yul\":14266:14283   */\n      add\n        /* \"#utility.yul\":14259:14306   */\n      mstore\n        /* \"#utility.yul\":14323:14454   */\n      tag_381\n        /* \"#utility.yul\":14449:14453   */\n      dup2\n        /* \"#utility.yul\":14323:14454   */\n      tag_328\n      jump\t// in\n    tag_381:\n        /* \"#utility.yul\":14315:14454   */\n      swap1\n      pop\n        /* \"#utility.yul\":14042:14461   */\n      swap2\n      swap1\n      pop\n      jump\t// out\n        /* \"#utility.yul\":14467:14886   */\n    tag_135:\n        /* \"#utility.yul\":14633:14637   */\n      0x00\n        /* \"#utility.yul\":14671:14673   */\n      0x20\n        /* \"#utility.yul\":14660:14669   */\n      dup3\n        /* \"#utility.yul\":14656:14674   */\n      add\n        /* \"#utility.yul\":14648:14674   */\n      swap1\n      pop\n        /* \"#utility.yul\":14720:14729   */\n      dup2\n        /* \"#utility.yul\":14714:14718   */\n      dup2\n        /* \"#utility.yul\":14710:14730   */\n      sub\n        /* \"#utility.yul\":14706:14707   */\n      0x00\n        /* \"#utility.yul\":14695:14704   */\n      dup4\n        /* \"#utility.yul\":14691:14708   */\n      add\n        /* \"#utility.yul\":14684:14731   */\n      mstore\n        /* \"#utility.yul\":14748:14879   */\n      tag_383\n        /* \"#utility.yul\":14874:14878   */\n      dup2\n        /* \"#utility.yul\":14748:14879   */\n      tag_333\n      jump\t// in\n    tag_383:\n        /* \"#utility.yul\":14740:14879   */\n      swap1\n      pop\n        /* \"#utility.yul\":14467:14886   */\n      swap2\n      swap1\n      pop\n      jump\t// out\n        /* \"#utility.yul\":14892:15311   */\n    tag_102:\n        /* \"#utility.yul\":15058:15062   */\n      0x00\n        /* \"#utility.yul\":15096:15098   */\n      0x20\n        /* \"#utility.yul\":15085:15094   */\n      dup3\n        /* \"#utility.yul\":15081:15099   */\n      add\n        /* \"#utility.yul\":15073:15099   */\n      swap1\n      pop\n        /* \"#utility.yul\":15145:15154   */\n      dup2\n        /* \"#utility.yul\":15139:15143   */\n      dup2\n        /* \"#utility.yul\":15135:15155   */\n      sub\n        /* \"#utility.yul\":15131:15132   */\n      0x00\n        /* \"#utility.yul\":15120:15129   */\n      dup4\n        /* \"#utility.yul\":15116:15133   */\n      add\n        /* \"#utility.yul\":15109:15156   */\n      mstore\n        /* \"#utility.yul\":15173:15304   */\n      tag_385\n        /* \"#utility.yul\":15299:15303   */\n      dup2\n        /* \"#utility.yul\":15173:15304   */\n      tag_343\n      jump\t// in\n    tag_385:\n        /* \"#utility.yul\":15165:15304   */\n      swap1\n      pop\n        /* \"#utility.yul\":14892:15311   */\n      swap2\n      swap1\n      pop\n      jump\t// out\n        /* \"#utility.yul\":15317:15539   */\n    tag_46:\n        /* \"#utility.yul\":15410:15414   */\n      0x00\n        /* \"#utility.yul\":15448:15450   */\n      0x20\n        /* \"#utility.yul\":15437:15446   */\n      dup3\n        /* \"#utility.yul\":15433:15451   */\n      add\n        /* \"#utility.yul\":15425:15451   */\n      swap1\n      pop\n        /* \"#utility.yul\":15461:15532   */\n      tag_387\n        /* \"#utility.yul\":15529:15530   */\n      0x00\n        /* \"#utility.yul\":15518:15527   */\n      dup4\n        /* \"#utility.yul\":15514:15531   */\n      add\n        /* \"#utility.yul\":15505:15511   */\n      dup5\n        /* \"#utility.yul\":15461:15532   */\n      tag_348\n      jump\t// in\n    tag_387:\n        /* \"#utility.yul\":15317:15539   */\n      swap3\n      swap2\n      pop\n      pop\n      jump\t// out\n        /* \"#utility.yul\":15545:15674   */\n    tag_209:\n        /* \"#utility.yul\":15579:15585   */\n      0x00\n        /* \"#utility.yul\":15606:15626   */\n      tag_389\n      tag_390\n      jump\t// in\n    tag_389:\n        /* \"#utility.yul\":15596:15626   */\n      swap1\n      pop\n        /* \"#utility.yul\":15635:15668   */\n      tag_391\n        /* \"#utility.yul\":15663:15667   */\n      dup3\n        /* \"#utility.yul\":15655:15661   */\n      dup3\n        /* \"#utility.yul\":15635:15668   */\n      tag_392\n      jump\t// in\n    tag_391:\n        /* \"#utility.yul\":15545:15674   */\n      swap2\n      swap1\n      pop\n      jump\t// out\n        /* \"#utility.yul\":15680:15755   */\n    tag_390:\n        /* \"#utility.yul\":15713:15719   */\n      0x00\n        /* \"#utility.yul\":15746:15748   */\n      0x40\n        /* \"#utility.yul\":15740:15749   */\n      mload\n        /* \"#utility.yul\":15730:15749   */\n      swap1\n      pop\n        /* \"#utility.yul\":15680:15755   */\n      swap1\n      jump\t// out\n        /* \"#utility.yul\":15761:16069   */\n    tag_208:\n        /* \"#utility.yul\":15823:15827   */\n      0x00\n        /* \"#utility.yul\":15913:15931   */\n      0xffffffffffffffff\n        /* \"#utility.yul\":15905:15911   */\n      dup3\n        /* \"#utility.yul\":15902:15932   */\n      gt\n        /* \"#utility.yul\":15899:15955   */\n      iszero\n      tag_395\n      jumpi\n        /* \"#utility.yul\":15935:15953   */\n      tag_396\n      tag_172\n      jump\t// in\n    tag_396:\n        /* \"#utility.yul\":15899:15955   */\n    tag_395:\n        /* \"#utility.yul\":15973:16002   */\n      tag_397\n        /* \"#utility.yul\":15995:16001   */\n      dup3\n        /* \"#utility.yul\":15973:16002   */\n      tag_296\n      jump\t// in\n    tag_397:\n        /* \"#utility.yul\":15965:16002   */\n      swap1\n      pop\n        /* \"#utility.yul\":16057:16061   */\n      0x20\n        /* \"#utility.yul\":16051:16055   */\n      dup2\n        /* \"#utility.yul\":16047:16062   */\n      add\n        /* \"#utility.yul\":16039:16062   */\n      swap1\n      pop\n        /* \"#utility.yul\":15761:16069   */\n      swap2\n      swap1\n      pop\n      jump\t// out\n        /* \"#utility.yul\":16075:16174   */\n    tag_290:\n        /* \"#utility.yul\":16127:16133   */\n      0x00\n        /* \"#utility.yul\":16161:16166   */\n      dup2\n        /* \"#utility.yul\":16155:16167   */\n      mload\n        /* \"#utility.yul\":16145:16167   */\n      swap1\n      pop\n        /* \"#utility.yul\":16075:16174   */\n      swap2\n      swap1\n      pop\n      jump\t// out\n        /* \"#utility.yul\":16180:16349   */\n    tag_292:\n        /* \"#utility.yul\":16264:16275   */\n      0x00\n        /* \"#utility.yul\":16298:16304   */\n      dup3\n        /* \"#utility.yul\":16293:16296   */\n      dup3\n        /* \"#utility.yul\":16286:16305   */\n      mstore\n        /* \"#utility.yul\":16338:16342   */\n      0x20\n        /* \"#utility.yul\":16333:16336   */\n      dup3\n        /* \"#utility.yul\":16329:16343   */\n      add\n        /* \"#utility.yul\":16314:16343   */\n      swap1\n      pop\n        /* \"#utility.yul\":16180:16349   */\n      swap3\n      swap2\n      pop\n      pop\n      jump\t// out\n        /* \"#utility.yul\":16355:16503   */\n    tag_301:\n        /* \"#utility.yul\":16457:16468   */\n      0x00\n        /* \"#utility.yul\":16494:16497   */\n      dup2\n        /* \"#utility.yul\":16479:16497   */\n      swap1\n      pop\n        /* \"#utility.yul\":16355:16503   */\n      swap3\n      swap2\n      pop\n      pop\n      jump\t// out\n        /* \"#utility.yul\":16509:16814   */\n    tag_169:\n        /* \"#utility.yul\":16549:16552   */\n      0x00\n        /* \"#utility.yul\":16568:16588   */\n      tag_402\n        /* \"#utility.yul\":16586:16587   */\n      dup3\n        /* \"#utility.yul\":16568:16588   */\n      tag_351\n      jump\t// in\n    tag_402:\n        /* \"#utility.yul\":16563:16588   */\n      swap2\n      pop\n        /* \"#utility.yul\":16602:16622   */\n      tag_403\n        /* \"#utility.yul\":16620:16621   */\n      dup4\n        /* \"#utility.yul\":16602:16622   */\n      tag_351\n      jump\t// in\n    tag_403:\n        /* \"#utility.yul\":16597:16622   */\n      swap3\n      pop\n        /* \"#utility.yul\":16756:16757   */\n      dup3\n        /* \"#utility.yul\":16688:16754   */\n      0xffffffffffffffffffffffffffffffffffffffffffffffffffffffffffffffff\n        /* \"#utility.yul\":16684:16758   */\n      sub\n        /* \"#utility.yul\":16681:16682   */\n      dup3\n        /* \"#utility.yul\":16678:16759   */\n      gt\n        /* \"#utility.yul\":16675:16782   */\n      iszero\n      tag_404\n      jumpi\n        /* \"#utility.yul\":16762:16780   */\n      tag_405\n      tag_406\n      jump\t// in\n    tag_405:\n        /* \"#utility.yul\":16675:16782   */\n    tag_404:\n        /* \"#utility.yul\":16806:16807   */\n      dup3\n        /* \"#utility.yul\":16803:16804   */\n      dup3\n        /* \"#utility.yul\":16799:16808   */\n      add\n        /* \"#utility.yul\":16792:16808   */\n      swap1\n      pop\n        /* \"#utility.yul\":16509:16814   */\n      swap3\n      swap2\n      pop\n      pop\n      jump\t// out\n        /* \"#utility.yul\":16820:17168   */\n    tag_167:\n        /* \"#utility.yul\":16860:16867   */\n      0x00\n        /* \"#utility.yul\":16883:16903   */\n      tag_408\n        /* \"#utility.yul\":16901:16902   */\n      dup3\n        /* \"#utility.yul\":16883:16903   */\n      tag_351\n      jump\t// in\n    tag_408:\n        /* \"#utility.yul\":16878:16903   */\n      swap2\n      pop\n        /* \"#utility.yul\":16917:16937   */\n      tag_409\n        /* \"#utility.yul\":16935:16936   */\n      dup4\n        /* \"#utility.yul\":16917:16937   */\n      tag_351\n      jump\t// in\n    tag_409:\n        /* \"#utility.yul\":16912:16937   */\n      swap3\n      pop\n        /* \"#utility.yul\":17105:17106   */\n      dup2\n        /* \"#utility.yul\":17037:17103   */\n      0xffffffffffffffffffffffffffffffffffffffffffffffffffffffffffffffff\n        /* \"#utility.yul\":17033:17107   */\n      div\n        /* \"#utility.yul\":17030:17031   */\n      dup4\n        /* \"#utility.yul\":17027:17108   */\n      gt\n        /* \"#utility.yul\":17022:17023   */\n      dup3\n        /* \"#utility.yul\":17015:17024   */\n      iszero\n        /* \"#utility.yul\":17008:17025   */\n      iszero\n        /* \"#utility.yul\":17004:17109   */\n      and\n        /* \"#utility.yul\":17001:17132   */\n      iszero\n      tag_410\n      jumpi\n        /* \"#utility.yul\":17112:17130   */\n      tag_411\n      tag_406\n      jump\t// in\n    tag_411:\n        /* \"#utility.yul\":17001:17132   */\n    tag_410:\n        /* \"#utility.yul\":17160:17161   */\n      dup3\n        /* \"#utility.yul\":17157:17158   */\n      dup3\n        /* \"#utility.yul\":17153:17162   */\n      mul\n        /* \"#utility.yul\":17142:17162   */\n      swap1\n      pop\n        /* \"#utility.yul\":16820:17168   */\n      swap3\n      swap2\n      pop\n      pop\n      jump\t// out\n        /* \"#utility.yul\":17174:17270   */\n    tag_412:\n        /* \"#utility.yul\":17211:17218   */\n      0x00\n        /* \"#utility.yul\":17240:17264   */\n      tag_414\n        /* \"#utility.yul\":17258:17263   */\n      dup3\n        /* \"#utility.yul\":17240:17264   */\n      tag_415\n      jump\t// in\n    tag_414:\n        /* \"#utility.yul\":17229:17264   */\n      swap1\n      pop\n        /* \"#utility.yul\":17174:17270   */\n      swap2\n      swap1\n      pop\n      jump\t// out\n        /* \"#utility.yul\":17276:17380   */\n    tag_278:\n        /* \"#utility.yul\":17321:17328   */\n      0x00\n        /* \"#utility.yul\":17350:17374   */\n      tag_417\n        /* \"#utility.yul\":17368:17373   */\n      dup3\n        /* \"#utility.yul\":17350:17374   */\n      tag_415\n      jump\t// in\n    tag_417:\n        /* \"#utility.yul\":17339:17374   */\n      swap1\n      pop\n        /* \"#utility.yul\":17276:17380   */\n      swap2\n      swap1\n      pop\n      jump\t// out\n        /* \"#utility.yul\":17386:17476   */\n    tag_282:\n        /* \"#utility.yul\":17420:17427   */\n      0x00\n        /* \"#utility.yul\":17463:17468   */\n      dup2\n        /* \"#utility.yul\":17456:17469   */\n      iszero\n        /* \"#utility.yul\":17449:17470   */\n      iszero\n        /* \"#utility.yul\":17438:17470   */\n      swap1\n      pop\n        /* \"#utility.yul\":17386:17476   */\n      swap2\n      swap1\n      pop\n      jump\t// out\n        /* \"#utility.yul\":17482:17559   */\n    tag_286:\n        /* \"#utility.yul\":17519:17526   */\n      0x00\n        /* \"#utility.yul\":17548:17553   */\n      dup2\n        /* \"#utility.yul\":17537:17553   */\n      swap1\n      pop\n        /* \"#utility.yul\":17482:17559   */\n      swap2\n      swap1\n      pop\n      jump\t// out\n        /* \"#utility.yul\":17565:17714   */\n    tag_420:\n        /* \"#utility.yul\":17601:17608   */\n      0x00\n        /* \"#utility.yul\":17641:17707   */\n      0xffffffff00000000000000000000000000000000000000000000000000000000\n        /* \"#utility.yul\":17634:17639   */\n      dup3\n        /* \"#utility.yul\":17630:17708   */\n      and\n        /* \"#utility.yul\":17619:17708   */\n      swap1\n      pop\n        /* \"#utility.yul\":17565:17714   */\n      swap2\n      swap1\n      pop\n      jump\t// out\n        /* \"#utility.yul\":17720:17846   */\n    tag_415:\n        /* \"#utility.yul\":17757:17764   */\n      0x00\n        /* \"#utility.yul\":17797:17839   */\n      0xffffffffffffffffffffffffffffffffffffffff\n        /* \"#utility.yul\":17790:17795   */\n      dup3\n        /* \"#utility.yul\":17786:17840   */\n      and\n        /* \"#utility.yul\":17775:17840   */\n      swap1\n      pop\n        /* \"#utility.yul\":17720:17846   */\n      swap2\n      swap1\n      pop\n      jump\t// out\n        /* \"#utility.yul\":17852:17929   */\n    tag_351:\n        /* \"#utility.yul\":17889:17896   */\n      0x00\n        /* \"#utility.yul\":17918:17923   */\n      dup2\n        /* \"#utility.yul\":17907:17923   */\n      swap1\n      pop\n        /* \"#utility.yul\":17852:17929   */\n      swap2\n      swap1\n      pop\n      jump\t// out\n        /* \"#utility.yul\":17935:18089   */\n    tag_214:\n        /* \"#utility.yul\":18019:18025   */\n      dup3\n        /* \"#utility.yul\":18014:18017   */\n      dup2\n        /* \"#utility.yul\":18009:18012   */\n      dup4\n        /* \"#utility.yul\":17996:18026   */\n      calldatacopy\n        /* \"#utility.yul\":18081:18082   */\n      0x00\n        /* \"#utility.yul\":18072:18078   */\n      dup4\n        /* \"#utility.yul\":18067:18070   */\n      dup4\n        /* \"#utility.yul\":18063:18079   */\n      add\n        /* \"#utility.yul\":18056:18083   */\n      mstore\n        /* \"#utility.yul\":17935:18089   */\n      pop\n      pop\n      pop\n      jump\t// out\n        /* \"#utility.yul\":18095:18402   */\n    tag_294:\n        /* \"#utility.yul\":18163:18164   */\n      0x00\n        /* \"#utility.yul\":18173:18286   */\n    tag_426:\n        /* \"#utility.yul\":18187:18193   */\n      dup4\n        /* \"#utility.yul\":18184:18185   */\n      dup2\n        /* \"#utility.yul\":18181:18194   */\n      lt\n        /* \"#utility.yul\":18173:18286   */\n      iszero\n      tag_428\n      jumpi\n        /* \"#utility.yul\":18272:18273   */\n      dup1\n        /* \"#utility.yul\":18267:18270   */\n      dup3\n        /* \"#utility.yul\":18263:18274   */\n      add\n        /* \"#utility.yul\":18257:18275   */\n      mload\n        /* \"#utility.yul\":18253:18254   */\n      dup2\n        /* \"#utility.yul\":18248:18251   */\n      dup5\n        /* \"#utility.yul\":18244:18255   */\n      add\n        /* \"#utility.yul\":18237:18276   */\n      mstore\n        /* \"#utility.yul\":18209:18211   */\n      0x20\n        /* \"#utility.yul\":18206:18207   */\n      dup2\n        /* \"#utility.yul\":18202:18212   */\n      add\n        /* \"#utility.yul\":18197:18212   */\n      swap1\n      pop\n        /* \"#utility.yul\":18173:18286   */\n      jump(tag_426)\n    tag_428:\n        /* \"#utility.yul\":18304:18310   */\n      dup4\n        /* \"#utility.yul\":18301:18302   */\n      dup2\n        /* \"#utility.yul\":18298:18311   */\n      gt\n        /* \"#utility.yul\":18295:18396   */\n      iszero\n      tag_429\n      jumpi\n        /* \"#utility.yul\":18384:18385   */\n      0x00\n        /* \"#utility.yul\":18375:18381   */\n      dup5\n        /* \"#utility.yul\":18370:18373   */\n      dup5\n        /* \"#utility.yul\":18366:18382   */\n      add\n        /* \"#utility.yul\":18359:18386   */\n      mstore\n        /* \"#utility.yul\":18295:18396   */\n    tag_429:\n        /* \"#utility.yul\":18144:18402   */\n      pop\n        /* \"#utility.yul\":18095:18402   */\n      pop\n      pop\n      pop\n      jump\t// out\n        /* \"#utility.yul\":18408:18579   */\n    tag_189:\n        /* \"#utility.yul\":18447:18450   */\n      0x00\n        /* \"#utility.yul\":18470:18494   */\n      tag_431\n        /* \"#utility.yul\":18488:18493   */\n      dup3\n        /* \"#utility.yul\":18470:18494   */\n      tag_351\n      jump\t// in\n    tag_431:\n        /* \"#utility.yul\":18461:18494   */\n      swap2\n      pop\n        /* \"#utility.yul\":18516:18520   */\n      0x00\n        /* \"#utility.yul\":18509:18514   */\n      dup3\n        /* \"#utility.yul\":18506:18521   */\n      eq\n        /* \"#utility.yul\":18503:18544   */\n      iszero\n      tag_432\n      jumpi\n        /* \"#utility.yul\":18524:18542   */\n      tag_433\n      tag_406\n      jump\t// in\n    tag_433:\n        /* \"#utility.yul\":18503:18544   */\n    tag_432:\n        /* \"#utility.yul\":18571:18572   */\n      0x01\n        /* \"#utility.yul\":18564:18569   */\n      dup3\n        /* \"#utility.yul\":18560:18573   */\n      sub\n        /* \"#utility.yul\":18553:18573   */\n      swap1\n      pop\n        /* \"#utility.yul\":18408:18579   */\n      swap2\n      swap1\n      pop\n      jump\t// out\n        /* \"#utility.yul\":18585:18905   */\n    tag_108:\n        /* \"#utility.yul\":18629:18635   */\n      0x00\n        /* \"#utility.yul\":18666:18667   */\n      0x02\n        /* \"#utility.yul\":18660:18664   */\n      dup3\n        /* \"#utility.yul\":18656:18668   */\n      div\n        /* \"#utility.yul\":18646:18668   */\n      swap1\n      pop\n        /* \"#utility.yul\":18713:18714   */\n      0x01\n        /* \"#utility.yul\":18707:18711   */\n      dup3\n        /* \"#utility.yul\":18703:18715   */\n      and\n        /* \"#utility.yul\":18734:18752   */\n      dup1\n        /* \"#utility.yul\":18724:18805   */\n      tag_435\n      jumpi\n        /* \"#utility.yul\":18790:18794   */\n      0x7f\n        /* \"#utility.yul\":18782:18788   */\n      dup3\n        /* \"#utility.yul\":18778:18795   */\n      and\n        /* \"#utility.yul\":18768:18795   */\n      swap2\n      pop\n        /* \"#utility.yul\":18724:18805   */\n    tag_435:\n        /* \"#utility.yul\":18852:18854   */\n      0x20\n        /* \"#utility.yul\":18844:18850   */\n      dup3\n        /* \"#utility.yul\":18841:18855   */\n      lt\n        /* \"#utility.yul\":18821:18839   */\n      dup2\n        /* \"#utility.yul\":18818:18856   */\n      eq\n        /* \"#utility.yul\":18815:18899   */\n      iszero\n      tag_436\n      jumpi\n        /* \"#utility.yul\":18871:18889   */\n      tag_437\n      tag_438\n      jump\t// in\n    tag_437:\n        /* \"#utility.yul\":18815:18899   */\n    tag_436:\n        /* \"#utility.yul\":18636:18905   */\n      pop\n        /* \"#utility.yul\":18585:18905   */\n      swap2\n      swap1\n      pop\n      jump\t// out\n        /* \"#utility.yul\":18911:19192   */\n    tag_392:\n        /* \"#utility.yul\":18994:19021   */\n      tag_440\n        /* \"#utility.yul\":19016:19020   */\n      dup3\n        /* \"#utility.yul\":18994:19021   */\n      tag_296\n      jump\t// in\n    tag_440:\n        /* \"#utility.yul\":18986:18992   */\n      dup2\n        /* \"#utility.yul\":18982:19022   */\n      add\n        /* \"#utility.yul\":19124:19130   */\n      dup2\n        /* \"#utility.yul\":19112:19122   */\n      dup2\n        /* \"#utility.yul\":19109:19131   */\n      lt\n        /* \"#utility.yul\":19088:19106   */\n      0xffffffffffffffff\n        /* \"#utility.yul\":19076:19086   */\n      dup3\n        /* \"#utility.yul\":19073:19107   */\n      gt\n        /* \"#utility.yul\":19070:19132   */\n      or\n        /* \"#utility.yul\":19067:19155   */\n      iszero\n      tag_441\n      jumpi\n        /* \"#utility.yul\":19135:19153   */\n      tag_442\n      tag_172\n      jump\t// in\n    tag_442:\n        /* \"#utility.yul\":19067:19155   */\n    tag_441:\n        /* \"#utility.yul\":19175:19185   */\n      dup1\n        /* \"#utility.yul\":19171:19173   */\n      0x40\n        /* \"#utility.yul\":19164:19186   */\n      mstore\n        /* \"#utility.yul\":18954:19192   */\n      pop\n        /* \"#utility.yul\":18911:19192   */\n      pop\n      pop\n      jump\t// out\n        /* \"#utility.yul\":19198:19431   */\n    tag_144:\n        /* \"#utility.yul\":19237:19240   */\n      0x00\n        /* \"#utility.yul\":19260:19284   */\n      tag_444\n        /* \"#utility.yul\":19278:19283   */\n      dup3\n        /* \"#utility.yul\":19260:19284   */\n      tag_351\n      jump\t// in\n    tag_444:\n        /* \"#utility.yul\":19251:19284   */\n      swap2\n      pop\n        /* \"#utility.yul\":19306:19372   */\n      0xffffffffffffffffffffffffffffffffffffffffffffffffffffffffffffffff\n        /* \"#utility.yul\":19299:19304   */\n      dup3\n        /* \"#utility.yul\":19296:19373   */\n      eq\n        /* \"#utility.yul\":19293:19396   */\n      iszero\n      tag_445\n      jumpi\n        /* \"#utility.yul\":19376:19394   */\n      tag_446\n      tag_406\n      jump\t// in\n    tag_446:\n        /* \"#utility.yul\":19293:19396   */\n    tag_445:\n        /* \"#utility.yul\":19423:19424   */\n      0x01\n        /* \"#utility.yul\":19416:19421   */\n      dup3\n        /* \"#utility.yul\":19412:19425   */\n      add\n        /* \"#utility.yul\":19405:19425   */\n      swap1\n      pop\n        /* \"#utility.yul\":19198:19431   */\n      swap2\n      swap1\n      pop\n      jump\t// out\n        /* \"#utility.yul\":19437:19617   */\n    tag_406:\n        /* \"#utility.yul\":19485:19562   */\n      0x4e487b7100000000000000000000000000000000000000000000000000000000\n        /* \"#utility.yul\":19482:19483   */\n      0x00\n        /* \"#utility.yul\":19475:19563   */\n      mstore\n        /* \"#utility.yul\":19582:19586   */\n      0x11\n        /* \"#utility.yul\":19579:19580   */\n      0x04\n        /* \"#utility.yul\":19572:19587   */\n      mstore\n        /* \"#utility.yul\":19606:19610   */\n      0x24\n        /* \"#utility.yul\":19603:19604   */\n      0x00\n        /* \"#utility.yul\":19596:19611   */\n      revert\n        /* \"#utility.yul\":19623:19803   */\n    tag_438:\n        /* \"#utility.yul\":19671:19748   */\n      0x4e487b7100000000000000000000000000000000000000000000000000000000\n        /* \"#utility.yul\":19668:19669   */\n      0x00\n        /* \"#utility.yul\":19661:19749   */\n      mstore\n        /* \"#utility.yul\":19768:19772   */\n      0x22\n        /* \"#utility.yul\":19765:19766   */\n      0x04\n        /* \"#utility.yul\":19758:19773   */\n      mstore\n        /* \"#utility.yul\":19792:19796   */\n      0x24\n        /* \"#utility.yul\":19789:19790   */\n      0x00\n        /* \"#utility.yul\":19782:19797   */\n      revert\n        /* \"#utility.yul\":19809:19989   */\n    tag_176:\n        /* \"#utility.yul\":19857:19934   */\n      0x4e487b7100000000000000000000000000000000000000000000000000000000\n        /* \"#utility.yul\":19854:19855   */\n      0x00\n        /* \"#utility.yul\":19847:19935   */\n      mstore\n        /* \"#utility.yul\":19954:19958   */\n      0x32\n        /* \"#utility.yul\":19951:19952   */\n      0x04\n        /* \"#utility.yul\":19944:19959   */\n      mstore\n        /* \"#utility.yul\":19978:19982   */\n      0x24\n        /* \"#utility.yul\":19975:19976   */\n      0x00\n        /* \"#utility.yul\":19968:19983   */\n      revert\n        /* \"#utility.yul\":19995:20175   */\n    tag_172:\n        /* \"#utility.yul\":20043:20120   */\n      0x4e487b7100000000000000000000000000000000000000000000000000000000\n        /* \"#utility.yul\":20040:20041   */\n      0x00\n        /* \"#utility.yul\":20033:20121   */\n      mstore\n        /* \"#utility.yul\":20140:20144   */\n      0x41\n        /* \"#utility.yul\":20137:20138   */\n      0x04\n        /* \"#utility.yul\":20130:20145   */\n      mstore\n        /* \"#utility.yul\":20164:20168   */\n      0x24\n        /* \"#utility.yul\":20161:20162   */\n      0x00\n        /* \"#utility.yul\":20154:20169   */\n      revert\n        /* \"#utility.yul\":20181:20298   */\n    tag_235:\n        /* \"#utility.yul\":20290:20291   */\n      0x00\n        /* \"#utility.yul\":20287:20288   */\n      dup1\n        /* \"#utility.yul\":20280:20292   */\n      revert\n        /* \"#utility.yul\":20304:20421   */\n    tag_212:\n        /* \"#utility.yul\":20413:20414   */\n      0x00\n        /* \"#utility.yul\":20410:20411   */\n      dup1\n        /* \"#utility.yul\":20403:20415   */\n      revert\n        /* \"#utility.yul\":20427:20544   */\n    tag_260:\n        /* \"#utility.yul\":20536:20537   */\n      0x00\n        /* \"#utility.yul\":20533:20534   */\n      dup1\n        /* \"#utility.yul\":20526:20538   */\n      revert\n        /* \"#utility.yul\":20550:20667   */\n    tag_244:\n        /* \"#utility.yul\":20659:20660   */\n      0x00\n        /* \"#utility.yul\":20656:20657   */\n      dup1\n        /* \"#utility.yul\":20649:20661   */\n      revert\n        /* \"#utility.yul\":20673:20775   */\n    tag_296:\n        /* \"#utility.yul\":20714:20720   */\n      0x00\n        /* \"#utility.yul\":20765:20767   */\n      0x1f\n        /* \"#utility.yul\":20761:20768   */\n      not\n        /* \"#utility.yul\":20756:20758   */\n      0x1f\n        /* \"#utility.yul\":20749:20754   */\n      dup4\n        /* \"#utility.yul\":20745:20759   */\n      add\n        /* \"#utility.yul\":20741:20769   */\n      and\n        /* \"#utility.yul\":20731:20769   */\n      swap1\n      pop\n        /* \"#utility.yul\":20673:20775   */\n      swap2\n      swap1\n      pop\n      jump\t// out\n        /* \"#utility.yul\":20781:20963   */\n    tag_307:\n        /* \"#utility.yul\":20921:20955   */\n      0x537472696e67733a20686578206c656e67746820696e73756666696369656e74\n        /* \"#utility.yul\":20917:20918   */\n      0x00\n        /* \"#utility.yul\":20909:20915   */\n      dup3\n        /* \"#utility.yul\":20905:20919   */\n      add\n        /* \"#utility.yul\":20898:20956   */\n      mstore\n        /* \"#utility.yul\":20781:20963   */\n      pop\n      jump\t// out\n        /* \"#utility.yul\":20969:21139   */\n    tag_312:\n        /* \"#utility.yul\":21109:21131   */\n      0x507269636520646f6573206e6f74206d61746368000000000000000000000000\n        /* \"#utility.yul\":21105:21106   */\n      0x00\n        /* \"#utility.yul\":21097:21103   */\n      dup3\n        /* \"#utility.yul\":21093:21107   */\n      add\n        /* \"#utility.yul\":21086:21132   */\n      mstore\n        /* \"#utility.yul\":20969:21139   */\n      pop\n      jump\t// out\n        /* \"#utility.yul\":21145:21315   */\n    tag_317:\n        /* \"#utility.yul\":21285:21307   */\n      0x4974656d20697320616c726561647920736f6c64000000000000000000000000\n        /* \"#utility.yul\":21281:21282   */\n      0x00\n        /* \"#utility.yul\":21273:21279   */\n      dup3\n        /* \"#utility.yul\":21269:21283   */\n      add\n        /* \"#utility.yul\":21262:21308   */\n      mstore\n        /* \"#utility.yul\":21145:21315   */\n      pop\n      jump\t// out\n        /* \"#utility.yul\":21321:21548   */\n    tag_322:\n        /* \"#utility.yul\":21461:21495   */\n      0x4f6e6c79207468652073656c6c65722063616e206372656174652061206d6172\n        /* \"#utility.yul\":21457:21458   */\n      0x00\n        /* \"#utility.yul\":21449:21455   */\n      dup3\n        /* \"#utility.yul\":21445:21459   */\n      add\n        /* \"#utility.yul\":21438:21496   */\n      mstore\n        /* \"#utility.yul\":21530:21540   */\n      0x6b6574206974656d000000000000000000000000000000000000000000000000\n        /* \"#utility.yul\":21525:21527   */\n      0x20\n        /* \"#utility.yul\":21517:21523   */\n      dup3\n        /* \"#utility.yul\":21513:21528   */\n      add\n        /* \"#utility.yul\":21506:21541   */\n      mstore\n        /* \"#utility.yul\":21321:21548   */\n      pop\n      jump\t// out\n        /* \"#utility.yul\":21554:21727   */\n    tag_327:\n        /* \"#utility.yul\":21694:21719   */\n      0x416363657373436f6e74726f6c3a206163636f756e7420000000000000000000\n        /* \"#utility.yul\":21690:21691   */\n      0x00\n        /* \"#utility.yul\":21682:21688   */\n      dup3\n        /* \"#utility.yul\":21678:21692   */\n      add\n        /* \"#utility.yul\":21671:21720   */\n      mstore\n        /* \"#utility.yul\":21554:21727   */\n      pop\n      jump\t// out\n        /* \"#utility.yul\":21733:21900   */\n    tag_332:\n        /* \"#utility.yul\":21873:21892   */\n      0x4974656d20616c726561647920736f6c64000000000000000000000000000000\n        /* \"#utility.yul\":21869:21870   */\n      0x00\n        /* \"#utility.yul\":21861:21867   */\n      dup3\n        /* \"#utility.yul\":21857:21871   */\n      add\n        /* \"#utility.yul\":21850:21893   */\n      mstore\n        /* \"#utility.yul\":21733:21900   */\n      pop\n      jump\t// out\n        /* \"#utility.yul\":21906:22084   */\n    tag_337:\n        /* \"#utility.yul\":22046:22076   */\n      0x5072696365206d7573742062652067726561746572207468616e203000000000\n        /* \"#utility.yul\":22042:22043   */\n      0x00\n        /* \"#utility.yul\":22034:22040   */\n      dup3\n        /* \"#utility.yul\":22030:22044   */\n      add\n        /* \"#utility.yul\":22023:22077   */\n      mstore\n        /* \"#utility.yul\":21906:22084   */\n      pop\n      jump\t// out\n        /* \"#utility.yul\":22090:22257   */\n    tag_342:\n        /* \"#utility.yul\":22230:22249   */\n      0x206973206d697373696e6720726f6c6520000000000000000000000000000000\n        /* \"#utility.yul\":22226:22227   */\n      0x00\n        /* \"#utility.yul\":22218:22224   */\n      dup3\n        /* \"#utility.yul\":22214:22228   */\n      add\n        /* \"#utility.yul\":22207:22250   */\n      mstore\n        /* \"#utility.yul\":22090:22257   */\n      pop\n      jump\t// out\n        /* \"#utility.yul\":22263:22497   */\n    tag_347:\n        /* \"#utility.yul\":22403:22437   */\n      0x416363657373436f6e74726f6c3a2063616e206f6e6c792072656e6f756e6365\n        /* \"#utility.yul\":22399:22400   */\n      0x00\n        /* \"#utility.yul\":22391:22397   */\n      dup3\n        /* \"#utility.yul\":22387:22401   */\n      add\n        /* \"#utility.yul\":22380:22438   */\n      mstore\n        /* \"#utility.yul\":22472:22489   */\n      0x20726f6c657320666f722073656c660000000000000000000000000000000000\n        /* \"#utility.yul\":22467:22469   */\n      0x20\n        /* \"#utility.yul\":22459:22465   */\n      dup3\n        /* \"#utility.yul\":22455:22470   */\n      add\n        /* \"#utility.yul\":22448:22490   */\n      mstore\n        /* \"#utility.yul\":22263:22497   */\n      pop\n      jump\t// out\n        /* \"#utility.yul\":22503:22625   */\n    tag_218:\n        /* \"#utility.yul\":22576:22600   */\n      tag_466\n        /* \"#utility.yul\":22594:22599   */\n      dup2\n        /* \"#utility.yul\":22576:22600   */\n      tag_412\n      jump\t// in\n    tag_466:\n        /* \"#utility.yul\":22569:22574   */\n      dup2\n        /* \"#utility.yul\":22566:22601   */\n      eq\n        /* \"#utility.yul\":22556:22619   */\n      tag_467\n      jumpi\n        /* \"#utility.yul\":22615:22616   */\n      0x00\n        /* \"#utility.yul\":22612:22613   */\n      dup1\n        /* \"#utility.yul\":22605:22617   */\n      revert\n        /* \"#utility.yul\":22556:22619   */\n    tag_467:\n        /* \"#utility.yul\":22503:22625   */\n      pop\n      jump\t// out\n        /* \"#utility.yul\":22631:22769   */\n    tag_222:\n        /* \"#utility.yul\":22712:22744   */\n      tag_469\n        /* \"#utility.yul\":22738:22743   */\n      dup2\n        /* \"#utility.yul\":22712:22744   */\n      tag_278\n      jump\t// in\n    tag_469:\n        /* \"#utility.yul\":22705:22710   */\n      dup2\n        /* \"#utility.yul\":22702:22745   */\n      eq\n        /* \"#utility.yul\":22692:22763   */\n      tag_470\n      jumpi\n        /* \"#utility.yul\":22759:22760   */\n      0x00\n        /* \"#utility.yul\":22756:22757   */\n      dup1\n        /* \"#utility.yul\":22749:22761   */\n      revert\n        /* \"#utility.yul\":22692:22763   */\n    tag_470:\n        /* \"#utility.yul\":22631:22769   */\n      pop\n      jump\t// out\n        /* \"#utility.yul\":22775:22897   */\n    tag_226:\n        /* \"#utility.yul\":22848:22872   */\n      tag_472\n        /* \"#utility.yul\":22866:22871   */\n      dup2\n        /* \"#utility.yul\":22848:22872   */\n      tag_286\n      jump\t// in\n    tag_472:\n        /* \"#utility.yul\":22841:22846   */\n      dup2\n        /* \"#utility.yul\":22838:22873   */\n      eq\n        /* \"#utility.yul\":22828:22891   */\n      tag_473\n      jumpi\n        /* \"#utility.yul\":22887:22888   */\n      0x00\n        /* \"#utility.yul\":22884:22885   */\n      dup1\n        /* \"#utility.yul\":22877:22889   */\n      revert\n        /* \"#utility.yul\":22828:22891   */\n    tag_473:\n        /* \"#utility.yul\":22775:22897   */\n      pop\n      jump\t// out\n        /* \"#utility.yul\":22903:23023   */\n    tag_230:\n        /* \"#utility.yul\":22975:22998   */\n      tag_475\n        /* \"#utility.yul\":22992:22997   */\n      dup2\n        /* \"#utility.yul\":22975:22998   */\n      tag_420\n      jump\t// in\n    tag_475:\n        /* \"#utility.yul\":22968:22973   */\n      dup2\n        /* \"#utility.yul\":22965:22999   */\n      eq\n        /* \"#utility.yul\":22955:23017   */\n      tag_476\n      jumpi\n        /* \"#utility.yul\":23013:23014   */\n      0x00\n        /* \"#utility.yul\":23010:23011   */\n      dup1\n        /* \"#utility.yul\":23003:23015   */\n      revert\n        /* \"#utility.yul\":22955:23017   */\n    tag_476:\n        /* \"#utility.yul\":22903:23023   */\n      pop\n      jump\t// out\n        /* \"#utility.yul\":23029:23151   */\n    tag_240:\n        /* \"#utility.yul\":23102:23126   */\n      tag_478\n        /* \"#utility.yul\":23120:23125   */\n      dup2\n        /* \"#utility.yul\":23102:23126   */\n      tag_351\n      jump\t// in\n    tag_478:\n        /* \"#utility.yul\":23095:23100   */\n      dup2\n        /* \"#utility.yul\":23092:23127   */\n      eq\n        /* \"#utility.yul\":23082:23145   */\n      tag_479\n      jumpi\n        /* \"#utility.yul\":23141:23142   */\n      0x00\n        /* \"#utility.yul\":23138:23139   */\n      dup1\n        /* \"#utility.yul\":23131:23143   */\n      revert\n        /* \"#utility.yul\":23082:23145   */\n    tag_479:\n        /* \"#utility.yul\":23029:23151   */\n      pop\n      jump\t// out\n\n    auxdata: 0xa264697066735822122070cac15431885dd30f4f3e8f3ecbbaaddcdc4faf64d33ebcb98b5a6ff6e0608e64736f6c63430008070033\n}\n",
				"bytecode": {
					"linkReferences": {},
					"object": "608060405260006001553480156200001657600080fd5b50620000497f1f9ca85e780b3b3cfbe1334ca9dd68802db7860f692bd163c796bb76d464edc0336200004f60201b60201c565b620001b2565b6200006182826200014060201b60201c565b6200013c57600160008084815260200190815260200160002060000160008373ffffffffffffffffffffffffffffffffffffffff1673ffffffffffffffffffffffffffffffffffffffff16815260200190815260200160002060006101000a81548160ff021916908315150217905550620000e1620001aa60201b60201c565b73ffffffffffffffffffffffffffffffffffffffff168173ffffffffffffffffffffffffffffffffffffffff16837f2f8788117e7eff1d82e926ec794901d17c78024a50270940304540a733656f0d60405160405180910390a45b5050565b600080600084815260200190815260200160002060000160008373ffffffffffffffffffffffffffffffffffffffff1673ffffffffffffffffffffffffffffffffffffffff16815260200190815260200160002060009054906101000a900460ff16905092915050565b600033905090565b611e0580620001c26000396000f3fe6080604052600436106100a75760003560e01c806391d148541161006457806391d14854146101bf578063a217fddf146101fc578063b491efa014610227578063c7be7a4914610252578063d547741f14610296578063dbf58e86146102bf576100a7565b806301ffc9a7146100ac578063248a9ca3146100e95780632f2ff15d14610126578063351901c31461014f57806336568abe1461016b5780636a86897414610194575b600080fd5b3480156100b857600080fd5b506100d360048036038101906100ce91906112ad565b6102e8565b6040516100e09190611603565b60405180910390f35b3480156100f557600080fd5b50610110600480360381019061010b9190611240565b610362565b60405161011d919061161e565b60405180910390f35b34801561013257600080fd5b5061014d6004803603810190610148919061126d565b610381565b005b610169600480360381019061016491906113bb565b6103aa565b005b34801561017757600080fd5b50610192600480360381019061018d919061126d565b61051b565b005b3480156101a057600080fd5b506101a961059e565b6040516101b691906117ce565b60405180910390f35b3480156101cb57600080fd5b506101e660048036038101906101e1919061126d565b6105a4565b6040516101f39190611603565b60405180910390f35b34801561020857600080fd5b5061021161060e565b60405161021e919061161e565b60405180910390f35b34801561023357600080fd5b5061023c610615565b604051610249919061161e565b60405180910390f35b34801561025e57600080fd5b50610279600480360381019061027491906113bb565b610639565b60405161028d98979695949392919061165b565b60405180910390f35b3480156102a257600080fd5b506102bd60048036038101906102b8919061126d565b6108fd565b005b3480156102cb57600080fd5b506102e660048036038101906102e191906112da565b610926565b005b60007f7965db0b000000000000000000000000000000000000000000000000000000007bffffffffffffffffffffffffffffffffffffffffffffffffffffffff1916827bffffffffffffffffffffffffffffffffffffffffffffffffffffffff1916148061035b575061035a82610bb8565b5b9050919050565b6000806000838152602001908152602001600020600101549050919050565b61038a82610362565b61039b81610396610c22565b610c2a565b6103a58383610cc7565b505050565b600015156002600083815260200190815260200160002060040160149054906101000a900460ff16151514610414576040517f08c379a000000000000000000000000000000000000000000000000000000000815260040161040b9061172e565b60405180910390fd5b3460026000838152602001908152602001600020600301541461046c576040517f08c379a00000000000000000000000000000000000000000000000000000000081526004016104639061170e565b60405180910390fd5b60016002600083815260200190815260200160002060040160146101000a81548160ff0219169083151502179055506002600082815260200190815260200160002060040160009054906101000a900473ffffffffffffffffffffffffffffffffffffffff1673ffffffffffffffffffffffffffffffffffffffff166108fc349081150290604051600060405180830381858888f19350505050158015610517573d6000803e3d6000fd5b5050565b610523610c22565b73ffffffffffffffffffffffffffffffffffffffff168173ffffffffffffffffffffffffffffffffffffffff1614610590576040517f08c379a0000000000000000000000000000000000000000000000000000000008152600401610587906117ae565b60405180910390fd5b61059a8282610da7565b5050565b60015481565b600080600084815260200190815260200160002060000160008373ffffffffffffffffffffffffffffffffffffffff1673ffffffffffffffffffffffffffffffffffffffff16815260200190815260200160002060009054906101000a900460ff16905092915050565b6000801b81565b7f1f9ca85e780b3b3cfbe1334ca9dd68802db7860f692bd163c796bb76d464edc081565b606080600080600060606000806000600260008b8152602001908152602001600020604051806101200160405290816000820154815260200160018201805461068190611a12565b80601f01602080910402602001604051908101604052809291908181526020018280546106ad90611a12565b80156106fa5780601f106106cf576101008083540402835291602001916106fa565b820191906000526020600020905b8154815290600101906020018083116106dd57829003601f168201915b5050505050815260200160028201805461071390611a12565b80601f016020809104026020016040519081016040528092919081815260200182805461073f90611a12565b801561078c5780601f106107615761010080835404028352916020019161078c565b820191906000526020600020905b81548152906001019060200180831161076f57829003601f168201915b50505050508152602001600382015481526020016004820160009054906101000a900473ffffffffffffffffffffffffffffffffffffffff1673ffffffffffffffffffffffffffffffffffffffff1673ffffffffffffffffffffffffffffffffffffffff1681526020016004820160149054906101000a900460ff1615151515815260200160058201805461082090611a12565b80601f016020809104026020016040519081016040528092919081815260200182805461084c90611a12565b80156108995780601f1061086e57610100808354040283529160200191610899565b820191906000526020600020905b81548152906001019060200180831161087c57829003601f168201915b5050505050815260200160068201548152602001600782015481525050905080602001518160400151826080015183606001518460a001518560c001518660e001518761010001519850985098509850985098509850985050919395975091939597565b61090682610362565b61091781610912610c22565b610c2a565b6109218383610da7565b505050565b8373ffffffffffffffffffffffffffffffffffffffff163373ffffffffffffffffffffffffffffffffffffffff1614610994576040517f08c379a000000000000000000000000000000000000000000000000000000000815260040161098b9061174e565b60405180910390fd5b600083116109d7576040517f08c379a00000000000000000000000000000000000000000000000000000000081526004016109ce9061178e565b60405180910390fd5b60026000600154815260200190815260200160002060040160149054906101000a900460ff1615610a3d576040517f08c379a0000000000000000000000000000000000000000000000000000000008152600401610a349061176e565b60405180910390fd5b60405180610120016040528060015481526020018781526020018681526020018481526020018573ffffffffffffffffffffffffffffffffffffffff1681526020016000151581526020018381526020016000815260200182815250600260006001548152602001908152602001600020600082015181600001556020820151816001019080519060200190610ad49291906110c4565b506040820151816002019080519060200190610af19291906110c4565b506060820151816003015560808201518160040160006101000a81548173ffffffffffffffffffffffffffffffffffffffff021916908373ffffffffffffffffffffffffffffffffffffffff16021790555060a08201518160040160146101000a81548160ff02191690831515021790555060c0820151816005019080519060200190610b7f9291906110c4565b5060e08201518160060155610100820151816007015590505060016000815480929190610bab90611a75565b9190505550505050505050565b60007f01ffc9a7000000000000000000000000000000000000000000000000000000007bffffffffffffffffffffffffffffffffffffffffffffffffffffffff1916827bffffffffffffffffffffffffffffffffffffffffffffffffffffffff1916149050919050565b600033905090565b610c3482826105a4565b610cc357610c598173ffffffffffffffffffffffffffffffffffffffff166014610e88565b610c678360001c6020610e88565b604051602001610c789291906115c9565b6040516020818303038152906040526040517f08c379a0000000000000000000000000000000000000000000000000000000008152600401610cba9190611639565b60405180910390fd5b5050565b610cd182826105a4565b610da357600160008084815260200190815260200160002060000160008373ffffffffffffffffffffffffffffffffffffffff1673ffffffffffffffffffffffffffffffffffffffff16815260200190815260200160002060006101000a81548160ff021916908315150217905550610d48610c22565b73ffffffffffffffffffffffffffffffffffffffff168173ffffffffffffffffffffffffffffffffffffffff16837f2f8788117e7eff1d82e926ec794901d17c78024a50270940304540a733656f0d60405160405180910390a45b5050565b610db182826105a4565b15610e8457600080600084815260200190815260200160002060000160008373ffffffffffffffffffffffffffffffffffffffff1673ffffffffffffffffffffffffffffffffffffffff16815260200190815260200160002060006101000a81548160ff021916908315150217905550610e29610c22565b73ffffffffffffffffffffffffffffffffffffffff168173ffffffffffffffffffffffffffffffffffffffff16837ff6391f5c32d9c69d2a47ea670b442974b53935d1edc7fd64eb21e047a839171b60405160405180910390a45b5050565b606060006002836002610e9b91906118bc565b610ea59190611866565b67ffffffffffffffff811115610ebe57610ebd611b4b565b5b6040519080825280601f01601f191660200182016040528015610ef05781602001600182028036833780820191505090505b5090507f300000000000000000000000000000000000000000000000000000000000000081600081518110610f2857610f27611b1c565b5b60200101907effffffffffffffffffffffffffffffffffffffffffffffffffffffffffffff1916908160001a9053507f780000000000000000000000000000000000000000000000000000000000000081600181518110610f8c57610f8b611b1c565b5b60200101907effffffffffffffffffffffffffffffffffffffffffffffffffffffffffffff1916908160001a90535060006001846002610fcc91906118bc565b610fd69190611866565b90505b6001811115611076577f3031323334353637383961626364656600000000000000000000000000000000600f86166010811061101857611017611b1c565b5b1a60f81b82828151811061102f5761102e611b1c565b5b60200101907effffffffffffffffffffffffffffffffffffffffffffffffffffffffffffff1916908160001a905350600485901c94508061106f906119e8565b9050610fd9565b50600084146110ba576040517f08c379a00000000000000000000000000000000000000000000000000000000081526004016110b1906116ee565b60405180910390fd5b8091505092915050565b8280546110d090611a12565b90600052602060002090601f0160209004810192826110f25760008555611139565b82601f1061110b57805160ff1916838001178555611139565b82800160010185558215611139579182015b8281111561113857825182559160200191906001019061111d565b5b509050611146919061114a565b5090565b5b8082111561116357600081600090555060010161114b565b5090565b600061117a6111758461180e565b6117e9565b90508281526020810184848401111561119657611195611b7f565b5b6111a18482856119a6565b509392505050565b6000813590506111b881611d5c565b92915050565b6000813590506111cd81611d73565b92915050565b6000813590506111e281611d8a565b92915050565b6000813590506111f781611da1565b92915050565b600082601f83011261121257611211611b7a565b5b8135611222848260208601611167565b91505092915050565b60008135905061123a81611db8565b92915050565b60006020828403121561125657611255611b89565b5b6000611264848285016111d3565b91505092915050565b6000806040838503121561128457611283611b89565b5b6000611292858286016111d3565b92505060206112a3858286016111a9565b9150509250929050565b6000602082840312156112c3576112c2611b89565b5b60006112d1848285016111e8565b91505092915050565b60008060008060008060c087890312156112f7576112f6611b89565b5b600087013567ffffffffffffffff81111561131557611314611b84565b5b61132189828a016111fd565b965050602087013567ffffffffffffffff81111561134257611341611b84565b5b61134e89828a016111fd565b955050604061135f89828a016111be565b945050606061137089828a0161122b565b935050608087013567ffffffffffffffff81111561139157611390611b84565b5b61139d89828a016111fd565b92505060a06113ae89828a0161122b565b9150509295509295509295565b6000602082840312156113d1576113d0611b89565b5b60006113df8482850161122b565b91505092915050565b6113f181611928565b82525050565b6114008161193a565b82525050565b61140f81611946565b82525050565b60006114208261183f565b61142a818561184a565b935061143a8185602086016119b5565b61144381611b8e565b840191505092915050565b60006114598261183f565b611463818561185b565b93506114738185602086016119b5565b80840191505092915050565b600061148c60208361184a565b915061149782611b9f565b602082019050919050565b60006114af60148361184a565b91506114ba82611bc8565b602082019050919050565b60006114d260148361184a565b91506114dd82611bf1565b602082019050919050565b60006114f560288361184a565b915061150082611c1a565b604082019050919050565b600061151860178361185b565b915061152382611c69565b601782019050919050565b600061153b60118361184a565b915061154682611c92565b602082019050919050565b600061155e601c8361184a565b915061156982611cbb565b602082019050919050565b600061158160118361185b565b915061158c82611ce4565b601182019050919050565b60006115a4602f8361184a565b91506115af82611d0d565b604082019050919050565b6115c38161199c565b82525050565b60006115d48261150b565b91506115e0828561144e565b91506115eb82611574565b91506115f7828461144e565b91508190509392505050565b600060208201905061161860008301846113f7565b92915050565b60006020820190506116336000830184611406565b92915050565b600060208201905081810360008301526116538184611415565b905092915050565b6000610100820190508181036000830152611676818b611415565b9050818103602083015261168a818a611415565b905061169960408301896113e8565b6116a660608301886115ba565b6116b360808301876113f7565b81810360a08301526116c58186611415565b90506116d460c08301856115ba565b6116e160e08301846115ba565b9998505050505050505050565b600060208201905081810360008301526117078161147f565b9050919050565b60006020820190508181036000830152611727816114a2565b9050919050565b60006020820190508181036000830152611747816114c5565b9050919050565b60006020820190508181036000830152611767816114e8565b9050919050565b600060208201905081810360008301526117878161152e565b9050919050565b600060208201905081810360008301526117a781611551565b9050919050565b600060208201905081810360008301526117c781611597565b9050919050565b60006020820190506117e360008301846115ba565b92915050565b60006117f3611804565b90506117ff8282611a44565b919050565b6000604051905090565b600067ffffffffffffffff82111561182957611828611b4b565b5b61183282611b8e565b9050602081019050919050565b600081519050919050565b600082825260208201905092915050565b600081905092915050565b60006118718261199c565b915061187c8361199c565b9250827fffffffffffffffffffffffffffffffffffffffffffffffffffffffffffffffff038211156118b1576118b0611abe565b5b828201905092915050565b60006118c78261199c565b91506118d28361199c565b9250817fffffffffffffffffffffffffffffffffffffffffffffffffffffffffffffffff048311821515161561190b5761190a611abe565b5b828202905092915050565b60006119218261197c565b9050919050565b60006119338261197c565b9050919050565b60008115159050919050565b6000819050919050565b60007fffffffff0000000000000000000000000000000000000000000000000000000082169050919050565b600073ffffffffffffffffffffffffffffffffffffffff82169050919050565b6000819050919050565b82818337600083830152505050565b60005b838110156119d35780820151818401526020810190506119b8565b838111156119e2576000848401525b50505050565b60006119f38261199c565b91506000821415611a0757611a06611abe565b5b600182039050919050565b60006002820490506001821680611a2a57607f821691505b60208210811415611a3e57611a3d611aed565b5b50919050565b611a4d82611b8e565b810181811067ffffffffffffffff82111715611a6c57611a6b611b4b565b5b80604052505050565b6000611a808261199c565b91507fffffffffffffffffffffffffffffffffffffffffffffffffffffffffffffffff821415611ab357611ab2611abe565b5b600182019050919050565b7f4e487b7100000000000000000000000000000000000000000000000000000000600052601160045260246000fd5b7f4e487b7100000000000000000000000000000000000000000000000000000000600052602260045260246000fd5b7f4e487b7100000000000000000000000000000000000000000000000000000000600052603260045260246000fd5b7f4e487b7100000000000000000000000000000000000000000000000000000000600052604160045260246000fd5b600080fd5b600080fd5b600080fd5b600080fd5b6000601f19601f8301169050919050565b7f537472696e67733a20686578206c656e67746820696e73756666696369656e74600082015250565b7f507269636520646f6573206e6f74206d61746368000000000000000000000000600082015250565b7f4974656d20697320616c726561647920736f6c64000000000000000000000000600082015250565b7f4f6e6c79207468652073656c6c65722063616e206372656174652061206d617260008201527f6b6574206974656d000000000000000000000000000000000000000000000000602082015250565b7f416363657373436f6e74726f6c3a206163636f756e7420000000000000000000600082015250565b7f4974656d20616c726561647920736f6c64000000000000000000000000000000600082015250565b7f5072696365206d7573742062652067726561746572207468616e203000000000600082015250565b7f206973206d697373696e6720726f6c6520000000000000000000000000000000600082015250565b7f416363657373436f6e74726f6c3a2063616e206f6e6c792072656e6f756e636560008201527f20726f6c657320666f722073656c660000000000000000000000000000000000602082015250565b611d6581611916565b8114611d7057600080fd5b50565b611d7c81611928565b8114611d8757600080fd5b50565b611d9381611946565b8114611d9e57600080fd5b50565b611daa81611950565b8114611db557600080fd5b50565b611dc18161199c565b8114611dcc57600080fd5b5056fea264697066735822122070cac15431885dd30f4f3e8f3ecbbaaddcdc4faf64d33ebcb98b5a6ff6e0608e64736f6c63430008070033",
					"opcodes": "PUSH1 0x80 PUSH1 0x40 MSTORE PUSH1 0x0 PUSH1 0x1 SSTORE CALLVALUE DUP1 ISZERO PUSH3 0x16 JUMPI PUSH1 0x0 DUP1 REVERT JUMPDEST POP PUSH3 0x49 PUSH32 0x1F9CA85E780B3B3CFBE1334CA9DD68802DB7860F692BD163C796BB76D464EDC0 CALLER PUSH3 0x4F PUSH1 0x20 SHL PUSH1 0x20 SHR JUMP JUMPDEST PUSH3 0x1B2 JUMP JUMPDEST PUSH3 0x61 DUP3 DUP3 PUSH3 0x140 PUSH1 0x20 SHL PUSH1 0x20 SHR JUMP JUMPDEST PUSH3 0x13C JUMPI PUSH1 0x1 PUSH1 0x0 DUP1 DUP5 DUP2 MSTORE PUSH1 0x20 ADD SWAP1 DUP2 MSTORE PUSH1 0x20 ADD PUSH1 0x0 KECCAK256 PUSH1 0x0 ADD PUSH1 0x0 DUP4 PUSH20 0xFFFFFFFFFFFFFFFFFFFFFFFFFFFFFFFFFFFFFFFF AND PUSH20 0xFFFFFFFFFFFFFFFFFFFFFFFFFFFFFFFFFFFFFFFF AND DUP2 MSTORE PUSH1 0x20 ADD SWAP1 DUP2 MSTORE PUSH1 0x20 ADD PUSH1 0x0 KECCAK256 PUSH1 0x0 PUSH2 0x100 EXP DUP2 SLOAD DUP2 PUSH1 0xFF MUL NOT AND SWAP1 DUP4 ISZERO ISZERO MUL OR SWAP1 SSTORE POP PUSH3 0xE1 PUSH3 0x1AA PUSH1 0x20 SHL PUSH1 0x20 SHR JUMP JUMPDEST PUSH20 0xFFFFFFFFFFFFFFFFFFFFFFFFFFFFFFFFFFFFFFFF AND DUP2 PUSH20 0xFFFFFFFFFFFFFFFFFFFFFFFFFFFFFFFFFFFFFFFF AND DUP4 PUSH32 0x2F8788117E7EFF1D82E926EC794901D17C78024A50270940304540A733656F0D PUSH1 0x40 MLOAD PUSH1 0x40 MLOAD DUP1 SWAP2 SUB SWAP1 LOG4 JUMPDEST POP POP JUMP JUMPDEST PUSH1 0x0 DUP1 PUSH1 0x0 DUP5 DUP2 MSTORE PUSH1 0x20 ADD SWAP1 DUP2 MSTORE PUSH1 0x20 ADD PUSH1 0x0 KECCAK256 PUSH1 0x0 ADD PUSH1 0x0 DUP4 PUSH20 0xFFFFFFFFFFFFFFFFFFFFFFFFFFFFFFFFFFFFFFFF AND PUSH20 0xFFFFFFFFFFFFFFFFFFFFFFFFFFFFFFFFFFFFFFFF AND DUP2 MSTORE PUSH1 0x20 ADD SWAP1 DUP2 MSTORE PUSH1 0x20 ADD PUSH1 0x0 KECCAK256 PUSH1 0x0 SWAP1 SLOAD SWAP1 PUSH2 0x100 EXP SWAP1 DIV PUSH1 0xFF AND SWAP1 POP SWAP3 SWAP2 POP POP JUMP JUMPDEST PUSH1 0x0 CALLER SWAP1 POP SWAP1 JUMP JUMPDEST PUSH2 0x1E05 DUP1 PUSH3 0x1C2 PUSH1 0x0 CODECOPY PUSH1 0x0 RETURN INVALID PUSH1 0x80 PUSH1 0x40 MSTORE PUSH1 0x4 CALLDATASIZE LT PUSH2 0xA7 JUMPI PUSH1 0x0 CALLDATALOAD PUSH1 0xE0 SHR DUP1 PUSH4 0x91D14854 GT PUSH2 0x64 JUMPI DUP1 PUSH4 0x91D14854 EQ PUSH2 0x1BF JUMPI DUP1 PUSH4 0xA217FDDF EQ PUSH2 0x1FC JUMPI DUP1 PUSH4 0xB491EFA0 EQ PUSH2 0x227 JUMPI DUP1 PUSH4 0xC7BE7A49 EQ PUSH2 0x252 JUMPI DUP1 PUSH4 0xD547741F EQ PUSH2 0x296 JUMPI DUP1 PUSH4 0xDBF58E86 EQ PUSH2 0x2BF JUMPI PUSH2 0xA7 JUMP JUMPDEST DUP1 PUSH4 0x1FFC9A7 EQ PUSH2 0xAC JUMPI DUP1 PUSH4 0x248A9CA3 EQ PUSH2 0xE9 JUMPI DUP1 PUSH4 0x2F2FF15D EQ PUSH2 0x126 JUMPI DUP1 PUSH4 0x351901C3 EQ PUSH2 0x14F JUMPI DUP1 PUSH4 0x36568ABE EQ PUSH2 0x16B JUMPI DUP1 PUSH4 0x6A868974 EQ PUSH2 0x194 JUMPI JUMPDEST PUSH1 0x0 DUP1 REVERT JUMPDEST CALLVALUE DUP1 ISZERO PUSH2 0xB8 JUMPI PUSH1 0x0 DUP1 REVERT JUMPDEST POP PUSH2 0xD3 PUSH1 0x4 DUP1 CALLDATASIZE SUB DUP2 ADD SWAP1 PUSH2 0xCE SWAP2 SWAP1 PUSH2 0x12AD JUMP JUMPDEST PUSH2 0x2E8 JUMP JUMPDEST PUSH1 0x40 MLOAD PUSH2 0xE0 SWAP2 SWAP1 PUSH2 0x1603 JUMP JUMPDEST PUSH1 0x40 MLOAD DUP1 SWAP2 SUB SWAP1 RETURN JUMPDEST CALLVALUE DUP1 ISZERO PUSH2 0xF5 JUMPI PUSH1 0x0 DUP1 REVERT JUMPDEST POP PUSH2 0x110 PUSH1 0x4 DUP1 CALLDATASIZE SUB DUP2 ADD SWAP1 PUSH2 0x10B SWAP2 SWAP1 PUSH2 0x1240 JUMP JUMPDEST PUSH2 0x362 JUMP JUMPDEST PUSH1 0x40 MLOAD PUSH2 0x11D SWAP2 SWAP1 PUSH2 0x161E JUMP JUMPDEST PUSH1 0x40 MLOAD DUP1 SWAP2 SUB SWAP1 RETURN JUMPDEST CALLVALUE DUP1 ISZERO PUSH2 0x132 JUMPI PUSH1 0x0 DUP1 REVERT JUMPDEST POP PUSH2 0x14D PUSH1 0x4 DUP1 CALLDATASIZE SUB DUP2 ADD SWAP1 PUSH2 0x148 SWAP2 SWAP1 PUSH2 0x126D JUMP JUMPDEST PUSH2 0x381 JUMP JUMPDEST STOP JUMPDEST PUSH2 0x169 PUSH1 0x4 DUP1 CALLDATASIZE SUB DUP2 ADD SWAP1 PUSH2 0x164 SWAP2 SWAP1 PUSH2 0x13BB JUMP JUMPDEST PUSH2 0x3AA JUMP JUMPDEST STOP JUMPDEST CALLVALUE DUP1 ISZERO PUSH2 0x177 JUMPI PUSH1 0x0 DUP1 REVERT JUMPDEST POP PUSH2 0x192 PUSH1 0x4 DUP1 CALLDATASIZE SUB DUP2 ADD SWAP1 PUSH2 0x18D SWAP2 SWAP1 PUSH2 0x126D JUMP JUMPDEST PUSH2 0x51B JUMP JUMPDEST STOP JUMPDEST CALLVALUE DUP1 ISZERO PUSH2 0x1A0 JUMPI PUSH1 0x0 DUP1 REVERT JUMPDEST POP PUSH2 0x1A9 PUSH2 0x59E JUMP JUMPDEST PUSH1 0x40 MLOAD PUSH2 0x1B6 SWAP2 SWAP1 PUSH2 0x17CE JUMP JUMPDEST PUSH1 0x40 MLOAD DUP1 SWAP2 SUB SWAP1 RETURN JUMPDEST CALLVALUE DUP1 ISZERO PUSH2 0x1CB JUMPI PUSH1 0x0 DUP1 REVERT JUMPDEST POP PUSH2 0x1E6 PUSH1 0x4 DUP1 CALLDATASIZE SUB DUP2 ADD SWAP1 PUSH2 0x1E1 SWAP2 SWAP1 PUSH2 0x126D JUMP JUMPDEST PUSH2 0x5A4 JUMP JUMPDEST PUSH1 0x40 MLOAD PUSH2 0x1F3 SWAP2 SWAP1 PUSH2 0x1603 JUMP JUMPDEST PUSH1 0x40 MLOAD DUP1 SWAP2 SUB SWAP1 RETURN JUMPDEST CALLVALUE DUP1 ISZERO PUSH2 0x208 JUMPI PUSH1 0x0 DUP1 REVERT JUMPDEST POP PUSH2 0x211 PUSH2 0x60E JUMP JUMPDEST PUSH1 0x40 MLOAD PUSH2 0x21E SWAP2 SWAP1 PUSH2 0x161E JUMP JUMPDEST PUSH1 0x40 MLOAD DUP1 SWAP2 SUB SWAP1 RETURN JUMPDEST CALLVALUE DUP1 ISZERO PUSH2 0x233 JUMPI PUSH1 0x0 DUP1 REVERT JUMPDEST POP PUSH2 0x23C PUSH2 0x615 JUMP JUMPDEST PUSH1 0x40 MLOAD PUSH2 0x249 SWAP2 SWAP1 PUSH2 0x161E JUMP JUMPDEST PUSH1 0x40 MLOAD DUP1 SWAP2 SUB SWAP1 RETURN JUMPDEST CALLVALUE DUP1 ISZERO PUSH2 0x25E JUMPI PUSH1 0x0 DUP1 REVERT JUMPDEST POP PUSH2 0x279 PUSH1 0x4 DUP1 CALLDATASIZE SUB DUP2 ADD SWAP1 PUSH2 0x274 SWAP2 SWAP1 PUSH2 0x13BB JUMP JUMPDEST PUSH2 0x639 JUMP JUMPDEST PUSH1 0x40 MLOAD PUSH2 0x28D SWAP9 SWAP8 SWAP7 SWAP6 SWAP5 SWAP4 SWAP3 SWAP2 SWAP1 PUSH2 0x165B JUMP JUMPDEST PUSH1 0x40 MLOAD DUP1 SWAP2 SUB SWAP1 RETURN JUMPDEST CALLVALUE DUP1 ISZERO PUSH2 0x2A2 JUMPI PUSH1 0x0 DUP1 REVERT JUMPDEST POP PUSH2 0x2BD PUSH1 0x4 DUP1 CALLDATASIZE SUB DUP2 ADD SWAP1 PUSH2 0x2B8 SWAP2 SWAP1 PUSH2 0x126D JUMP JUMPDEST PUSH2 0x8FD JUMP JUMPDEST STOP JUMPDEST CALLVALUE DUP1 ISZERO PUSH2 0x2CB JUMPI PUSH1 0x0 DUP1 REVERT JUMPDEST POP PUSH2 0x2E6 PUSH1 0x4 DUP1 CALLDATASIZE SUB DUP2 ADD SWAP1 PUSH2 0x2E1 SWAP2 SWAP1 PUSH2 0x12DA JUMP JUMPDEST PUSH2 0x926 JUMP JUMPDEST STOP JUMPDEST PUSH1 0x0 PUSH32 0x7965DB0B00000000000000000000000000000000000000000000000000000000 PUSH28 0xFFFFFFFFFFFFFFFFFFFFFFFFFFFFFFFFFFFFFFFFFFFFFFFFFFFFFFFF NOT AND DUP3 PUSH28 0xFFFFFFFFFFFFFFFFFFFFFFFFFFFFFFFFFFFFFFFFFFFFFFFFFFFFFFFF NOT AND EQ DUP1 PUSH2 0x35B JUMPI POP PUSH2 0x35A DUP3 PUSH2 0xBB8 JUMP JUMPDEST JUMPDEST SWAP1 POP SWAP2 SWAP1 POP JUMP JUMPDEST PUSH1 0x0 DUP1 PUSH1 0x0 DUP4 DUP2 MSTORE PUSH1 0x20 ADD SWAP1 DUP2 MSTORE PUSH1 0x20 ADD PUSH1 0x0 KECCAK256 PUSH1 0x1 ADD SLOAD SWAP1 POP SWAP2 SWAP1 POP JUMP JUMPDEST PUSH2 0x38A DUP3 PUSH2 0x362 JUMP JUMPDEST PUSH2 0x39B DUP2 PUSH2 0x396 PUSH2 0xC22 JUMP JUMPDEST PUSH2 0xC2A JUMP JUMPDEST PUSH2 0x3A5 DUP4 DUP4 PUSH2 0xCC7 JUMP JUMPDEST POP POP POP JUMP JUMPDEST PUSH1 0x0 ISZERO ISZERO PUSH1 0x2 PUSH1 0x0 DUP4 DUP2 MSTORE PUSH1 0x20 ADD SWAP1 DUP2 MSTORE PUSH1 0x20 ADD PUSH1 0x0 KECCAK256 PUSH1 0x4 ADD PUSH1 0x14 SWAP1 SLOAD SWAP1 PUSH2 0x100 EXP SWAP1 DIV PUSH1 0xFF AND ISZERO ISZERO EQ PUSH2 0x414 JUMPI PUSH1 0x40 MLOAD PUSH32 0x8C379A000000000000000000000000000000000000000000000000000000000 DUP2 MSTORE PUSH1 0x4 ADD PUSH2 0x40B SWAP1 PUSH2 0x172E JUMP JUMPDEST PUSH1 0x40 MLOAD DUP1 SWAP2 SUB SWAP1 REVERT JUMPDEST CALLVALUE PUSH1 0x2 PUSH1 0x0 DUP4 DUP2 MSTORE PUSH1 0x20 ADD SWAP1 DUP2 MSTORE PUSH1 0x20 ADD PUSH1 0x0 KECCAK256 PUSH1 0x3 ADD SLOAD EQ PUSH2 0x46C JUMPI PUSH1 0x40 MLOAD PUSH32 0x8C379A000000000000000000000000000000000000000000000000000000000 DUP2 MSTORE PUSH1 0x4 ADD PUSH2 0x463 SWAP1 PUSH2 0x170E JUMP JUMPDEST PUSH1 0x40 MLOAD DUP1 SWAP2 SUB SWAP1 REVERT JUMPDEST PUSH1 0x1 PUSH1 0x2 PUSH1 0x0 DUP4 DUP2 MSTORE PUSH1 0x20 ADD SWAP1 DUP2 MSTORE PUSH1 0x20 ADD PUSH1 0x0 KECCAK256 PUSH1 0x4 ADD PUSH1 0x14 PUSH2 0x100 EXP DUP2 SLOAD DUP2 PUSH1 0xFF MUL NOT AND SWAP1 DUP4 ISZERO ISZERO MUL OR SWAP1 SSTORE POP PUSH1 0x2 PUSH1 0x0 DUP3 DUP2 MSTORE PUSH1 0x20 ADD SWAP1 DUP2 MSTORE PUSH1 0x20 ADD PUSH1 0x0 KECCAK256 PUSH1 0x4 ADD PUSH1 0x0 SWAP1 SLOAD SWAP1 PUSH2 0x100 EXP SWAP1 DIV PUSH20 0xFFFFFFFFFFFFFFFFFFFFFFFFFFFFFFFFFFFFFFFF AND PUSH20 0xFFFFFFFFFFFFFFFFFFFFFFFFFFFFFFFFFFFFFFFF AND PUSH2 0x8FC CALLVALUE SWAP1 DUP2 ISZERO MUL SWAP1 PUSH1 0x40 MLOAD PUSH1 0x0 PUSH1 0x40 MLOAD DUP1 DUP4 SUB DUP2 DUP6 DUP9 DUP9 CALL SWAP4 POP POP POP POP ISZERO DUP1 ISZERO PUSH2 0x517 JUMPI RETURNDATASIZE PUSH1 0x0 DUP1 RETURNDATACOPY RETURNDATASIZE PUSH1 0x0 REVERT JUMPDEST POP POP JUMP JUMPDEST PUSH2 0x523 PUSH2 0xC22 JUMP JUMPDEST PUSH20 0xFFFFFFFFFFFFFFFFFFFFFFFFFFFFFFFFFFFFFFFF AND DUP2 PUSH20 0xFFFFFFFFFFFFFFFFFFFFFFFFFFFFFFFFFFFFFFFF AND EQ PUSH2 0x590 JUMPI PUSH1 0x40 MLOAD PUSH32 0x8C379A000000000000000000000000000000000000000000000000000000000 DUP2 MSTORE PUSH1 0x4 ADD PUSH2 0x587 SWAP1 PUSH2 0x17AE JUMP JUMPDEST PUSH1 0x40 MLOAD DUP1 SWAP2 SUB SWAP1 REVERT JUMPDEST PUSH2 0x59A DUP3 DUP3 PUSH2 0xDA7 JUMP JUMPDEST POP POP JUMP JUMPDEST PUSH1 0x1 SLOAD DUP2 JUMP JUMPDEST PUSH1 0x0 DUP1 PUSH1 0x0 DUP5 DUP2 MSTORE PUSH1 0x20 ADD SWAP1 DUP2 MSTORE PUSH1 0x20 ADD PUSH1 0x0 KECCAK256 PUSH1 0x0 ADD PUSH1 0x0 DUP4 PUSH20 0xFFFFFFFFFFFFFFFFFFFFFFFFFFFFFFFFFFFFFFFF AND PUSH20 0xFFFFFFFFFFFFFFFFFFFFFFFFFFFFFFFFFFFFFFFF AND DUP2 MSTORE PUSH1 0x20 ADD SWAP1 DUP2 MSTORE PUSH1 0x20 ADD PUSH1 0x0 KECCAK256 PUSH1 0x0 SWAP1 SLOAD SWAP1 PUSH2 0x100 EXP SWAP1 DIV PUSH1 0xFF AND SWAP1 POP SWAP3 SWAP2 POP POP JUMP JUMPDEST PUSH1 0x0 DUP1 SHL DUP2 JUMP JUMPDEST PUSH32 0x1F9CA85E780B3B3CFBE1334CA9DD68802DB7860F692BD163C796BB76D464EDC0 DUP2 JUMP JUMPDEST PUSH1 0x60 DUP1 PUSH1 0x0 DUP1 PUSH1 0x0 PUSH1 0x60 PUSH1 0x0 DUP1 PUSH1 0x0 PUSH1 0x2 PUSH1 0x0 DUP12 DUP2 MSTORE PUSH1 0x20 ADD SWAP1 DUP2 MSTORE PUSH1 0x20 ADD PUSH1 0x0 KECCAK256 PUSH1 0x40 MLOAD DUP1 PUSH2 0x120 ADD PUSH1 0x40 MSTORE SWAP1 DUP2 PUSH1 0x0 DUP3 ADD SLOAD DUP2 MSTORE PUSH1 0x20 ADD PUSH1 0x1 DUP3 ADD DUP1 SLOAD PUSH2 0x681 SWAP1 PUSH2 0x1A12 JUMP JUMPDEST DUP1 PUSH1 0x1F ADD PUSH1 0x20 DUP1 SWAP2 DIV MUL PUSH1 0x20 ADD PUSH1 0x40 MLOAD SWAP1 DUP2 ADD PUSH1 0x40 MSTORE DUP1 SWAP3 SWAP2 SWAP1 DUP2 DUP2 MSTORE PUSH1 0x20 ADD DUP3 DUP1 SLOAD PUSH2 0x6AD SWAP1 PUSH2 0x1A12 JUMP JUMPDEST DUP1 ISZERO PUSH2 0x6FA JUMPI DUP1 PUSH1 0x1F LT PUSH2 0x6CF JUMPI PUSH2 0x100 DUP1 DUP4 SLOAD DIV MUL DUP4 MSTORE SWAP2 PUSH1 0x20 ADD SWAP2 PUSH2 0x6FA JUMP JUMPDEST DUP3 ADD SWAP2 SWAP1 PUSH1 0x0 MSTORE PUSH1 0x20 PUSH1 0x0 KECCAK256 SWAP1 JUMPDEST DUP2 SLOAD DUP2 MSTORE SWAP1 PUSH1 0x1 ADD SWAP1 PUSH1 0x20 ADD DUP1 DUP4 GT PUSH2 0x6DD JUMPI DUP3 SWAP1 SUB PUSH1 0x1F AND DUP3 ADD SWAP2 JUMPDEST POP POP POP POP POP DUP2 MSTORE PUSH1 0x20 ADD PUSH1 0x2 DUP3 ADD DUP1 SLOAD PUSH2 0x713 SWAP1 PUSH2 0x1A12 JUMP JUMPDEST DUP1 PUSH1 0x1F ADD PUSH1 0x20 DUP1 SWAP2 DIV MUL PUSH1 0x20 ADD PUSH1 0x40 MLOAD SWAP1 DUP2 ADD PUSH1 0x40 MSTORE DUP1 SWAP3 SWAP2 SWAP1 DUP2 DUP2 MSTORE PUSH1 0x20 ADD DUP3 DUP1 SLOAD PUSH2 0x73F SWAP1 PUSH2 0x1A12 JUMP JUMPDEST DUP1 ISZERO PUSH2 0x78C JUMPI DUP1 PUSH1 0x1F LT PUSH2 0x761 JUMPI PUSH2 0x100 DUP1 DUP4 SLOAD DIV MUL DUP4 MSTORE SWAP2 PUSH1 0x20 ADD SWAP2 PUSH2 0x78C JUMP JUMPDEST DUP3 ADD SWAP2 SWAP1 PUSH1 0x0 MSTORE PUSH1 0x20 PUSH1 0x0 KECCAK256 SWAP1 JUMPDEST DUP2 SLOAD DUP2 MSTORE SWAP1 PUSH1 0x1 ADD SWAP1 PUSH1 0x20 ADD DUP1 DUP4 GT PUSH2 0x76F JUMPI DUP3 SWAP1 SUB PUSH1 0x1F AND DUP3 ADD SWAP2 JUMPDEST POP POP POP POP POP DUP2 MSTORE PUSH1 0x20 ADD PUSH1 0x3 DUP3 ADD SLOAD DUP2 MSTORE PUSH1 0x20 ADD PUSH1 0x4 DUP3 ADD PUSH1 0x0 SWAP1 SLOAD SWAP1 PUSH2 0x100 EXP SWAP1 DIV PUSH20 0xFFFFFFFFFFFFFFFFFFFFFFFFFFFFFFFFFFFFFFFF AND PUSH20 0xFFFFFFFFFFFFFFFFFFFFFFFFFFFFFFFFFFFFFFFF AND PUSH20 0xFFFFFFFFFFFFFFFFFFFFFFFFFFFFFFFFFFFFFFFF AND DUP2 MSTORE PUSH1 0x20 ADD PUSH1 0x4 DUP3 ADD PUSH1 0x14 SWAP1 SLOAD SWAP1 PUSH2 0x100 EXP SWAP1 DIV PUSH1 0xFF AND ISZERO ISZERO ISZERO ISZERO DUP2 MSTORE PUSH1 0x20 ADD PUSH1 0x5 DUP3 ADD DUP1 SLOAD PUSH2 0x820 SWAP1 PUSH2 0x1A12 JUMP JUMPDEST DUP1 PUSH1 0x1F ADD PUSH1 0x20 DUP1 SWAP2 DIV MUL PUSH1 0x20 ADD PUSH1 0x40 MLOAD SWAP1 DUP2 ADD PUSH1 0x40 MSTORE DUP1 SWAP3 SWAP2 SWAP1 DUP2 DUP2 MSTORE PUSH1 0x20 ADD DUP3 DUP1 SLOAD PUSH2 0x84C SWAP1 PUSH2 0x1A12 JUMP JUMPDEST DUP1 ISZERO PUSH2 0x899 JUMPI DUP1 PUSH1 0x1F LT PUSH2 0x86E JUMPI PUSH2 0x100 DUP1 DUP4 SLOAD DIV MUL DUP4 MSTORE SWAP2 PUSH1 0x20 ADD SWAP2 PUSH2 0x899 JUMP JUMPDEST DUP3 ADD SWAP2 SWAP1 PUSH1 0x0 MSTORE PUSH1 0x20 PUSH1 0x0 KECCAK256 SWAP1 JUMPDEST DUP2 SLOAD DUP2 MSTORE SWAP1 PUSH1 0x1 ADD SWAP1 PUSH1 0x20 ADD DUP1 DUP4 GT PUSH2 0x87C JUMPI DUP3 SWAP1 SUB PUSH1 0x1F AND DUP3 ADD SWAP2 JUMPDEST POP POP POP POP POP DUP2 MSTORE PUSH1 0x20 ADD PUSH1 0x6 DUP3 ADD SLOAD DUP2 MSTORE PUSH1 0x20 ADD PUSH1 0x7 DUP3 ADD SLOAD DUP2 MSTORE POP POP SWAP1 POP DUP1 PUSH1 0x20 ADD MLOAD DUP2 PUSH1 0x40 ADD MLOAD DUP3 PUSH1 0x80 ADD MLOAD DUP4 PUSH1 0x60 ADD MLOAD DUP5 PUSH1 0xA0 ADD MLOAD DUP6 PUSH1 0xC0 ADD MLOAD DUP7 PUSH1 0xE0 ADD MLOAD DUP8 PUSH2 0x100 ADD MLOAD SWAP9 POP SWAP9 POP SWAP9 POP SWAP9 POP SWAP9 POP SWAP9 POP SWAP9 POP SWAP9 POP POP SWAP2 SWAP4 SWAP6 SWAP8 POP SWAP2 SWAP4 SWAP6 SWAP8 JUMP JUMPDEST PUSH2 0x906 DUP3 PUSH2 0x362 JUMP JUMPDEST PUSH2 0x917 DUP2 PUSH2 0x912 PUSH2 0xC22 JUMP JUMPDEST PUSH2 0xC2A JUMP JUMPDEST PUSH2 0x921 DUP4 DUP4 PUSH2 0xDA7 JUMP JUMPDEST POP POP POP JUMP JUMPDEST DUP4 PUSH20 0xFFFFFFFFFFFFFFFFFFFFFFFFFFFFFFFFFFFFFFFF AND CALLER PUSH20 0xFFFFFFFFFFFFFFFFFFFFFFFFFFFFFFFFFFFFFFFF AND EQ PUSH2 0x994 JUMPI PUSH1 0x40 MLOAD PUSH32 0x8C379A000000000000000000000000000000000000000000000000000000000 DUP2 MSTORE PUSH1 0x4 ADD PUSH2 0x98B SWAP1 PUSH2 0x174E JUMP JUMPDEST PUSH1 0x40 MLOAD DUP1 SWAP2 SUB SWAP1 REVERT JUMPDEST PUSH1 0x0 DUP4 GT PUSH2 0x9D7 JUMPI PUSH1 0x40 MLOAD PUSH32 0x8C379A000000000000000000000000000000000000000000000000000000000 DUP2 MSTORE PUSH1 0x4 ADD PUSH2 0x9CE SWAP1 PUSH2 0x178E JUMP JUMPDEST PUSH1 0x40 MLOAD DUP1 SWAP2 SUB SWAP1 REVERT JUMPDEST PUSH1 0x2 PUSH1 0x0 PUSH1 0x1 SLOAD DUP2 MSTORE PUSH1 0x20 ADD SWAP1 DUP2 MSTORE PUSH1 0x20 ADD PUSH1 0x0 KECCAK256 PUSH1 0x4 ADD PUSH1 0x14 SWAP1 SLOAD SWAP1 PUSH2 0x100 EXP SWAP1 DIV PUSH1 0xFF AND ISZERO PUSH2 0xA3D JUMPI PUSH1 0x40 MLOAD PUSH32 0x8C379A000000000000000000000000000000000000000000000000000000000 DUP2 MSTORE PUSH1 0x4 ADD PUSH2 0xA34 SWAP1 PUSH2 0x176E JUMP JUMPDEST PUSH1 0x40 MLOAD DUP1 SWAP2 SUB SWAP1 REVERT JUMPDEST PUSH1 0x40 MLOAD DUP1 PUSH2 0x120 ADD PUSH1 0x40 MSTORE DUP1 PUSH1 0x1 SLOAD DUP2 MSTORE PUSH1 0x20 ADD DUP8 DUP2 MSTORE PUSH1 0x20 ADD DUP7 DUP2 MSTORE PUSH1 0x20 ADD DUP5 DUP2 MSTORE PUSH1 0x20 ADD DUP6 PUSH20 0xFFFFFFFFFFFFFFFFFFFFFFFFFFFFFFFFFFFFFFFF AND DUP2 MSTORE PUSH1 0x20 ADD PUSH1 0x0 ISZERO ISZERO DUP2 MSTORE PUSH1 0x20 ADD DUP4 DUP2 MSTORE PUSH1 0x20 ADD PUSH1 0x0 DUP2 MSTORE PUSH1 0x20 ADD DUP3 DUP2 MSTORE POP PUSH1 0x2 PUSH1 0x0 PUSH1 0x1 SLOAD DUP2 MSTORE PUSH1 0x20 ADD SWAP1 DUP2 MSTORE PUSH1 0x20 ADD PUSH1 0x0 KECCAK256 PUSH1 0x0 DUP3 ADD MLOAD DUP2 PUSH1 0x0 ADD SSTORE PUSH1 0x20 DUP3 ADD MLOAD DUP2 PUSH1 0x1 ADD SWAP1 DUP1 MLOAD SWAP1 PUSH1 0x20 ADD SWAP1 PUSH2 0xAD4 SWAP3 SWAP2 SWAP1 PUSH2 0x10C4 JUMP JUMPDEST POP PUSH1 0x40 DUP3 ADD MLOAD DUP2 PUSH1 0x2 ADD SWAP1 DUP1 MLOAD SWAP1 PUSH1 0x20 ADD SWAP1 PUSH2 0xAF1 SWAP3 SWAP2 SWAP1 PUSH2 0x10C4 JUMP JUMPDEST POP PUSH1 0x60 DUP3 ADD MLOAD DUP2 PUSH1 0x3 ADD SSTORE PUSH1 0x80 DUP3 ADD MLOAD DUP2 PUSH1 0x4 ADD PUSH1 0x0 PUSH2 0x100 EXP DUP2 SLOAD DUP2 PUSH20 0xFFFFFFFFFFFFFFFFFFFFFFFFFFFFFFFFFFFFFFFF MUL NOT AND SWAP1 DUP4 PUSH20 0xFFFFFFFFFFFFFFFFFFFFFFFFFFFFFFFFFFFFFFFF AND MUL OR SWAP1 SSTORE POP PUSH1 0xA0 DUP3 ADD MLOAD DUP2 PUSH1 0x4 ADD PUSH1 0x14 PUSH2 0x100 EXP DUP2 SLOAD DUP2 PUSH1 0xFF MUL NOT AND SWAP1 DUP4 ISZERO ISZERO MUL OR SWAP1 SSTORE POP PUSH1 0xC0 DUP3 ADD MLOAD DUP2 PUSH1 0x5 ADD SWAP1 DUP1 MLOAD SWAP1 PUSH1 0x20 ADD SWAP1 PUSH2 0xB7F SWAP3 SWAP2 SWAP1 PUSH2 0x10C4 JUMP JUMPDEST POP PUSH1 0xE0 DUP3 ADD MLOAD DUP2 PUSH1 0x6 ADD SSTORE PUSH2 0x100 DUP3 ADD MLOAD DUP2 PUSH1 0x7 ADD SSTORE SWAP1 POP POP PUSH1 0x1 PUSH1 0x0 DUP2 SLOAD DUP1 SWAP3 SWAP2 SWAP1 PUSH2 0xBAB SWAP1 PUSH2 0x1A75 JUMP JUMPDEST SWAP2 SWAP1 POP SSTORE POP POP POP POP POP POP POP JUMP JUMPDEST PUSH1 0x0 PUSH32 0x1FFC9A700000000000000000000000000000000000000000000000000000000 PUSH28 0xFFFFFFFFFFFFFFFFFFFFFFFFFFFFFFFFFFFFFFFFFFFFFFFFFFFFFFFF NOT AND DUP3 PUSH28 0xFFFFFFFFFFFFFFFFFFFFFFFFFFFFFFFFFFFFFFFFFFFFFFFFFFFFFFFF NOT AND EQ SWAP1 POP SWAP2 SWAP1 POP JUMP JUMPDEST PUSH1 0x0 CALLER SWAP1 POP SWAP1 JUMP JUMPDEST PUSH2 0xC34 DUP3 DUP3 PUSH2 0x5A4 JUMP JUMPDEST PUSH2 0xCC3 JUMPI PUSH2 0xC59 DUP2 PUSH20 0xFFFFFFFFFFFFFFFFFFFFFFFFFFFFFFFFFFFFFFFF AND PUSH1 0x14 PUSH2 0xE88 JUMP JUMPDEST PUSH2 0xC67 DUP4 PUSH1 0x0 SHR PUSH1 0x20 PUSH2 0xE88 JUMP JUMPDEST PUSH1 0x40 MLOAD PUSH1 0x20 ADD PUSH2 0xC78 SWAP3 SWAP2 SWAP1 PUSH2 0x15C9 JUMP JUMPDEST PUSH1 0x40 MLOAD PUSH1 0x20 DUP2 DUP4 SUB SUB DUP2 MSTORE SWAP1 PUSH1 0x40 MSTORE PUSH1 0x40 MLOAD PUSH32 0x8C379A000000000000000000000000000000000000000000000000000000000 DUP2 MSTORE PUSH1 0x4 ADD PUSH2 0xCBA SWAP2 SWAP1 PUSH2 0x1639 JUMP JUMPDEST PUSH1 0x40 MLOAD DUP1 SWAP2 SUB SWAP1 REVERT JUMPDEST POP POP JUMP JUMPDEST PUSH2 0xCD1 DUP3 DUP3 PUSH2 0x5A4 JUMP JUMPDEST PUSH2 0xDA3 JUMPI PUSH1 0x1 PUSH1 0x0 DUP1 DUP5 DUP2 MSTORE PUSH1 0x20 ADD SWAP1 DUP2 MSTORE PUSH1 0x20 ADD PUSH1 0x0 KECCAK256 PUSH1 0x0 ADD PUSH1 0x0 DUP4 PUSH20 0xFFFFFFFFFFFFFFFFFFFFFFFFFFFFFFFFFFFFFFFF AND PUSH20 0xFFFFFFFFFFFFFFFFFFFFFFFFFFFFFFFFFFFFFFFF AND DUP2 MSTORE PUSH1 0x20 ADD SWAP1 DUP2 MSTORE PUSH1 0x20 ADD PUSH1 0x0 KECCAK256 PUSH1 0x0 PUSH2 0x100 EXP DUP2 SLOAD DUP2 PUSH1 0xFF MUL NOT AND SWAP1 DUP4 ISZERO ISZERO MUL OR SWAP1 SSTORE POP PUSH2 0xD48 PUSH2 0xC22 JUMP JUMPDEST PUSH20 0xFFFFFFFFFFFFFFFFFFFFFFFFFFFFFFFFFFFFFFFF AND DUP2 PUSH20 0xFFFFFFFFFFFFFFFFFFFFFFFFFFFFFFFFFFFFFFFF AND DUP4 PUSH32 0x2F8788117E7EFF1D82E926EC794901D17C78024A50270940304540A733656F0D PUSH1 0x40 MLOAD PUSH1 0x40 MLOAD DUP1 SWAP2 SUB SWAP1 LOG4 JUMPDEST POP POP JUMP JUMPDEST PUSH2 0xDB1 DUP3 DUP3 PUSH2 0x5A4 JUMP JUMPDEST ISZERO PUSH2 0xE84 JUMPI PUSH1 0x0 DUP1 PUSH1 0x0 DUP5 DUP2 MSTORE PUSH1 0x20 ADD SWAP1 DUP2 MSTORE PUSH1 0x20 ADD PUSH1 0x0 KECCAK256 PUSH1 0x0 ADD PUSH1 0x0 DUP4 PUSH20 0xFFFFFFFFFFFFFFFFFFFFFFFFFFFFFFFFFFFFFFFF AND PUSH20 0xFFFFFFFFFFFFFFFFFFFFFFFFFFFFFFFFFFFFFFFF AND DUP2 MSTORE PUSH1 0x20 ADD SWAP1 DUP2 MSTORE PUSH1 0x20 ADD PUSH1 0x0 KECCAK256 PUSH1 0x0 PUSH2 0x100 EXP DUP2 SLOAD DUP2 PUSH1 0xFF MUL NOT AND SWAP1 DUP4 ISZERO ISZERO MUL OR SWAP1 SSTORE POP PUSH2 0xE29 PUSH2 0xC22 JUMP JUMPDEST PUSH20 0xFFFFFFFFFFFFFFFFFFFFFFFFFFFFFFFFFFFFFFFF AND DUP2 PUSH20 0xFFFFFFFFFFFFFFFFFFFFFFFFFFFFFFFFFFFFFFFF AND DUP4 PUSH32 0xF6391F5C32D9C69D2A47EA670B442974B53935D1EDC7FD64EB21E047A839171B PUSH1 0x40 MLOAD PUSH1 0x40 MLOAD DUP1 SWAP2 SUB SWAP1 LOG4 JUMPDEST POP POP JUMP JUMPDEST PUSH1 0x60 PUSH1 0x0 PUSH1 0x2 DUP4 PUSH1 0x2 PUSH2 0xE9B SWAP2 SWAP1 PUSH2 0x18BC JUMP JUMPDEST PUSH2 0xEA5 SWAP2 SWAP1 PUSH2 0x1866 JUMP JUMPDEST PUSH8 0xFFFFFFFFFFFFFFFF DUP2 GT ISZERO PUSH2 0xEBE JUMPI PUSH2 0xEBD PUSH2 0x1B4B JUMP JUMPDEST JUMPDEST PUSH1 0x40 MLOAD SWAP1 DUP1 DUP3 MSTORE DUP1 PUSH1 0x1F ADD PUSH1 0x1F NOT AND PUSH1 0x20 ADD DUP3 ADD PUSH1 0x40 MSTORE DUP1 ISZERO PUSH2 0xEF0 JUMPI DUP2 PUSH1 0x20 ADD PUSH1 0x1 DUP3 MUL DUP1 CALLDATASIZE DUP4 CALLDATACOPY DUP1 DUP3 ADD SWAP2 POP POP SWAP1 POP JUMPDEST POP SWAP1 POP PUSH32 0x3000000000000000000000000000000000000000000000000000000000000000 DUP2 PUSH1 0x0 DUP2 MLOAD DUP2 LT PUSH2 0xF28 JUMPI PUSH2 0xF27 PUSH2 0x1B1C JUMP JUMPDEST JUMPDEST PUSH1 0x20 ADD ADD SWAP1 PUSH31 0xFFFFFFFFFFFFFFFFFFFFFFFFFFFFFFFFFFFFFFFFFFFFFFFFFFFFFFFFFFFFFF NOT AND SWAP1 DUP2 PUSH1 0x0 BYTE SWAP1 MSTORE8 POP PUSH32 0x7800000000000000000000000000000000000000000000000000000000000000 DUP2 PUSH1 0x1 DUP2 MLOAD DUP2 LT PUSH2 0xF8C JUMPI PUSH2 0xF8B PUSH2 0x1B1C JUMP JUMPDEST JUMPDEST PUSH1 0x20 ADD ADD SWAP1 PUSH31 0xFFFFFFFFFFFFFFFFFFFFFFFFFFFFFFFFFFFFFFFFFFFFFFFFFFFFFFFFFFFFFF NOT AND SWAP1 DUP2 PUSH1 0x0 BYTE SWAP1 MSTORE8 POP PUSH1 0x0 PUSH1 0x1 DUP5 PUSH1 0x2 PUSH2 0xFCC SWAP2 SWAP1 PUSH2 0x18BC JUMP JUMPDEST PUSH2 0xFD6 SWAP2 SWAP1 PUSH2 0x1866 JUMP JUMPDEST SWAP1 POP JUMPDEST PUSH1 0x1 DUP2 GT ISZERO PUSH2 0x1076 JUMPI PUSH32 0x3031323334353637383961626364656600000000000000000000000000000000 PUSH1 0xF DUP7 AND PUSH1 0x10 DUP2 LT PUSH2 0x1018 JUMPI PUSH2 0x1017 PUSH2 0x1B1C JUMP JUMPDEST JUMPDEST BYTE PUSH1 0xF8 SHL DUP3 DUP3 DUP2 MLOAD DUP2 LT PUSH2 0x102F JUMPI PUSH2 0x102E PUSH2 0x1B1C JUMP JUMPDEST JUMPDEST PUSH1 0x20 ADD ADD SWAP1 PUSH31 0xFFFFFFFFFFFFFFFFFFFFFFFFFFFFFFFFFFFFFFFFFFFFFFFFFFFFFFFFFFFFFF NOT AND SWAP1 DUP2 PUSH1 0x0 BYTE SWAP1 MSTORE8 POP PUSH1 0x4 DUP6 SWAP1 SHR SWAP5 POP DUP1 PUSH2 0x106F SWAP1 PUSH2 0x19E8 JUMP JUMPDEST SWAP1 POP PUSH2 0xFD9 JUMP JUMPDEST POP PUSH1 0x0 DUP5 EQ PUSH2 0x10BA JUMPI PUSH1 0x40 MLOAD PUSH32 0x8C379A000000000000000000000000000000000000000000000000000000000 DUP2 MSTORE PUSH1 0x4 ADD PUSH2 0x10B1 SWAP1 PUSH2 0x16EE JUMP JUMPDEST PUSH1 0x40 MLOAD DUP1 SWAP2 SUB SWAP1 REVERT JUMPDEST DUP1 SWAP2 POP POP SWAP3 SWAP2 POP POP JUMP JUMPDEST DUP3 DUP1 SLOAD PUSH2 0x10D0 SWAP1 PUSH2 0x1A12 JUMP JUMPDEST SWAP1 PUSH1 0x0 MSTORE PUSH1 0x20 PUSH1 0x0 KECCAK256 SWAP1 PUSH1 0x1F ADD PUSH1 0x20 SWAP1 DIV DUP2 ADD SWAP3 DUP3 PUSH2 0x10F2 JUMPI PUSH1 0x0 DUP6 SSTORE PUSH2 0x1139 JUMP JUMPDEST DUP3 PUSH1 0x1F LT PUSH2 0x110B JUMPI DUP1 MLOAD PUSH1 0xFF NOT AND DUP4 DUP1 ADD OR DUP6 SSTORE PUSH2 0x1139 JUMP JUMPDEST DUP3 DUP1 ADD PUSH1 0x1 ADD DUP6 SSTORE DUP3 ISZERO PUSH2 0x1139 JUMPI SWAP2 DUP3 ADD JUMPDEST DUP3 DUP2 GT ISZERO PUSH2 0x1138 JUMPI DUP3 MLOAD DUP3 SSTORE SWAP2 PUSH1 0x20 ADD SWAP2 SWAP1 PUSH1 0x1 ADD SWAP1 PUSH2 0x111D JUMP JUMPDEST JUMPDEST POP SWAP1 POP PUSH2 0x1146 SWAP2 SWAP1 PUSH2 0x114A JUMP JUMPDEST POP SWAP1 JUMP JUMPDEST JUMPDEST DUP1 DUP3 GT ISZERO PUSH2 0x1163 JUMPI PUSH1 0x0 DUP2 PUSH1 0x0 SWAP1 SSTORE POP PUSH1 0x1 ADD PUSH2 0x114B JUMP JUMPDEST POP SWAP1 JUMP JUMPDEST PUSH1 0x0 PUSH2 0x117A PUSH2 0x1175 DUP5 PUSH2 0x180E JUMP JUMPDEST PUSH2 0x17E9 JUMP JUMPDEST SWAP1 POP DUP3 DUP2 MSTORE PUSH1 0x20 DUP2 ADD DUP5 DUP5 DUP5 ADD GT ISZERO PUSH2 0x1196 JUMPI PUSH2 0x1195 PUSH2 0x1B7F JUMP JUMPDEST JUMPDEST PUSH2 0x11A1 DUP5 DUP3 DUP6 PUSH2 0x19A6 JUMP JUMPDEST POP SWAP4 SWAP3 POP POP POP JUMP JUMPDEST PUSH1 0x0 DUP2 CALLDATALOAD SWAP1 POP PUSH2 0x11B8 DUP2 PUSH2 0x1D5C JUMP JUMPDEST SWAP3 SWAP2 POP POP JUMP JUMPDEST PUSH1 0x0 DUP2 CALLDATALOAD SWAP1 POP PUSH2 0x11CD DUP2 PUSH2 0x1D73 JUMP JUMPDEST SWAP3 SWAP2 POP POP JUMP JUMPDEST PUSH1 0x0 DUP2 CALLDATALOAD SWAP1 POP PUSH2 0x11E2 DUP2 PUSH2 0x1D8A JUMP JUMPDEST SWAP3 SWAP2 POP POP JUMP JUMPDEST PUSH1 0x0 DUP2 CALLDATALOAD SWAP1 POP PUSH2 0x11F7 DUP2 PUSH2 0x1DA1 JUMP JUMPDEST SWAP3 SWAP2 POP POP JUMP JUMPDEST PUSH1 0x0 DUP3 PUSH1 0x1F DUP4 ADD SLT PUSH2 0x1212 JUMPI PUSH2 0x1211 PUSH2 0x1B7A JUMP JUMPDEST JUMPDEST DUP2 CALLDATALOAD PUSH2 0x1222 DUP5 DUP3 PUSH1 0x20 DUP7 ADD PUSH2 0x1167 JUMP JUMPDEST SWAP2 POP POP SWAP3 SWAP2 POP POP JUMP JUMPDEST PUSH1 0x0 DUP2 CALLDATALOAD SWAP1 POP PUSH2 0x123A DUP2 PUSH2 0x1DB8 JUMP JUMPDEST SWAP3 SWAP2 POP POP JUMP JUMPDEST PUSH1 0x0 PUSH1 0x20 DUP3 DUP5 SUB SLT ISZERO PUSH2 0x1256 JUMPI PUSH2 0x1255 PUSH2 0x1B89 JUMP JUMPDEST JUMPDEST PUSH1 0x0 PUSH2 0x1264 DUP5 DUP3 DUP6 ADD PUSH2 0x11D3 JUMP JUMPDEST SWAP2 POP POP SWAP3 SWAP2 POP POP JUMP JUMPDEST PUSH1 0x0 DUP1 PUSH1 0x40 DUP4 DUP6 SUB SLT ISZERO PUSH2 0x1284 JUMPI PUSH2 0x1283 PUSH2 0x1B89 JUMP JUMPDEST JUMPDEST PUSH1 0x0 PUSH2 0x1292 DUP6 DUP3 DUP7 ADD PUSH2 0x11D3 JUMP JUMPDEST SWAP3 POP POP PUSH1 0x20 PUSH2 0x12A3 DUP6 DUP3 DUP7 ADD PUSH2 0x11A9 JUMP JUMPDEST SWAP2 POP POP SWAP3 POP SWAP3 SWAP1 POP JUMP JUMPDEST PUSH1 0x0 PUSH1 0x20 DUP3 DUP5 SUB SLT ISZERO PUSH2 0x12C3 JUMPI PUSH2 0x12C2 PUSH2 0x1B89 JUMP JUMPDEST JUMPDEST PUSH1 0x0 PUSH2 0x12D1 DUP5 DUP3 DUP6 ADD PUSH2 0x11E8 JUMP JUMPDEST SWAP2 POP POP SWAP3 SWAP2 POP POP JUMP JUMPDEST PUSH1 0x0 DUP1 PUSH1 0x0 DUP1 PUSH1 0x0 DUP1 PUSH1 0xC0 DUP8 DUP10 SUB SLT ISZERO PUSH2 0x12F7 JUMPI PUSH2 0x12F6 PUSH2 0x1B89 JUMP JUMPDEST JUMPDEST PUSH1 0x0 DUP8 ADD CALLDATALOAD PUSH8 0xFFFFFFFFFFFFFFFF DUP2 GT ISZERO PUSH2 0x1315 JUMPI PUSH2 0x1314 PUSH2 0x1B84 JUMP JUMPDEST JUMPDEST PUSH2 0x1321 DUP10 DUP3 DUP11 ADD PUSH2 0x11FD JUMP JUMPDEST SWAP7 POP POP PUSH1 0x20 DUP8 ADD CALLDATALOAD PUSH8 0xFFFFFFFFFFFFFFFF DUP2 GT ISZERO PUSH2 0x1342 JUMPI PUSH2 0x1341 PUSH2 0x1B84 JUMP JUMPDEST JUMPDEST PUSH2 0x134E DUP10 DUP3 DUP11 ADD PUSH2 0x11FD JUMP JUMPDEST SWAP6 POP POP PUSH1 0x40 PUSH2 0x135F DUP10 DUP3 DUP11 ADD PUSH2 0x11BE JUMP JUMPDEST SWAP5 POP POP PUSH1 0x60 PUSH2 0x1370 DUP10 DUP3 DUP11 ADD PUSH2 0x122B JUMP JUMPDEST SWAP4 POP POP PUSH1 0x80 DUP8 ADD CALLDATALOAD PUSH8 0xFFFFFFFFFFFFFFFF DUP2 GT ISZERO PUSH2 0x1391 JUMPI PUSH2 0x1390 PUSH2 0x1B84 JUMP JUMPDEST JUMPDEST PUSH2 0x139D DUP10 DUP3 DUP11 ADD PUSH2 0x11FD JUMP JUMPDEST SWAP3 POP POP PUSH1 0xA0 PUSH2 0x13AE DUP10 DUP3 DUP11 ADD PUSH2 0x122B JUMP JUMPDEST SWAP2 POP POP SWAP3 SWAP6 POP SWAP3 SWAP6 POP SWAP3 SWAP6 JUMP JUMPDEST PUSH1 0x0 PUSH1 0x20 DUP3 DUP5 SUB SLT ISZERO PUSH2 0x13D1 JUMPI PUSH2 0x13D0 PUSH2 0x1B89 JUMP JUMPDEST JUMPDEST PUSH1 0x0 PUSH2 0x13DF DUP5 DUP3 DUP6 ADD PUSH2 0x122B JUMP JUMPDEST SWAP2 POP POP SWAP3 SWAP2 POP POP JUMP JUMPDEST PUSH2 0x13F1 DUP2 PUSH2 0x1928 JUMP JUMPDEST DUP3 MSTORE POP POP JUMP JUMPDEST PUSH2 0x1400 DUP2 PUSH2 0x193A JUMP JUMPDEST DUP3 MSTORE POP POP JUMP JUMPDEST PUSH2 0x140F DUP2 PUSH2 0x1946 JUMP JUMPDEST DUP3 MSTORE POP POP JUMP JUMPDEST PUSH1 0x0 PUSH2 0x1420 DUP3 PUSH2 0x183F JUMP JUMPDEST PUSH2 0x142A DUP2 DUP6 PUSH2 0x184A JUMP JUMPDEST SWAP4 POP PUSH2 0x143A DUP2 DUP6 PUSH1 0x20 DUP7 ADD PUSH2 0x19B5 JUMP JUMPDEST PUSH2 0x1443 DUP2 PUSH2 0x1B8E JUMP JUMPDEST DUP5 ADD SWAP2 POP POP SWAP3 SWAP2 POP POP JUMP JUMPDEST PUSH1 0x0 PUSH2 0x1459 DUP3 PUSH2 0x183F JUMP JUMPDEST PUSH2 0x1463 DUP2 DUP6 PUSH2 0x185B JUMP JUMPDEST SWAP4 POP PUSH2 0x1473 DUP2 DUP6 PUSH1 0x20 DUP7 ADD PUSH2 0x19B5 JUMP JUMPDEST DUP1 DUP5 ADD SWAP2 POP POP SWAP3 SWAP2 POP POP JUMP JUMPDEST PUSH1 0x0 PUSH2 0x148C PUSH1 0x20 DUP4 PUSH2 0x184A JUMP JUMPDEST SWAP2 POP PUSH2 0x1497 DUP3 PUSH2 0x1B9F JUMP JUMPDEST PUSH1 0x20 DUP3 ADD SWAP1 POP SWAP2 SWAP1 POP JUMP JUMPDEST PUSH1 0x0 PUSH2 0x14AF PUSH1 0x14 DUP4 PUSH2 0x184A JUMP JUMPDEST SWAP2 POP PUSH2 0x14BA DUP3 PUSH2 0x1BC8 JUMP JUMPDEST PUSH1 0x20 DUP3 ADD SWAP1 POP SWAP2 SWAP1 POP JUMP JUMPDEST PUSH1 0x0 PUSH2 0x14D2 PUSH1 0x14 DUP4 PUSH2 0x184A JUMP JUMPDEST SWAP2 POP PUSH2 0x14DD DUP3 PUSH2 0x1BF1 JUMP JUMPDEST PUSH1 0x20 DUP3 ADD SWAP1 POP SWAP2 SWAP1 POP JUMP JUMPDEST PUSH1 0x0 PUSH2 0x14F5 PUSH1 0x28 DUP4 PUSH2 0x184A JUMP JUMPDEST SWAP2 POP PUSH2 0x1500 DUP3 PUSH2 0x1C1A JUMP JUMPDEST PUSH1 0x40 DUP3 ADD SWAP1 POP SWAP2 SWAP1 POP JUMP JUMPDEST PUSH1 0x0 PUSH2 0x1518 PUSH1 0x17 DUP4 PUSH2 0x185B JUMP JUMPDEST SWAP2 POP PUSH2 0x1523 DUP3 PUSH2 0x1C69 JUMP JUMPDEST PUSH1 0x17 DUP3 ADD SWAP1 POP SWAP2 SWAP1 POP JUMP JUMPDEST PUSH1 0x0 PUSH2 0x153B PUSH1 0x11 DUP4 PUSH2 0x184A JUMP JUMPDEST SWAP2 POP PUSH2 0x1546 DUP3 PUSH2 0x1C92 JUMP JUMPDEST PUSH1 0x20 DUP3 ADD SWAP1 POP SWAP2 SWAP1 POP JUMP JUMPDEST PUSH1 0x0 PUSH2 0x155E PUSH1 0x1C DUP4 PUSH2 0x184A JUMP JUMPDEST SWAP2 POP PUSH2 0x1569 DUP3 PUSH2 0x1CBB JUMP JUMPDEST PUSH1 0x20 DUP3 ADD SWAP1 POP SWAP2 SWAP1 POP JUMP JUMPDEST PUSH1 0x0 PUSH2 0x1581 PUSH1 0x11 DUP4 PUSH2 0x185B JUMP JUMPDEST SWAP2 POP PUSH2 0x158C DUP3 PUSH2 0x1CE4 JUMP JUMPDEST PUSH1 0x11 DUP3 ADD SWAP1 POP SWAP2 SWAP1 POP JUMP JUMPDEST PUSH1 0x0 PUSH2 0x15A4 PUSH1 0x2F DUP4 PUSH2 0x184A JUMP JUMPDEST SWAP2 POP PUSH2 0x15AF DUP3 PUSH2 0x1D0D JUMP JUMPDEST PUSH1 0x40 DUP3 ADD SWAP1 POP SWAP2 SWAP1 POP JUMP JUMPDEST PUSH2 0x15C3 DUP2 PUSH2 0x199C JUMP JUMPDEST DUP3 MSTORE POP POP JUMP JUMPDEST PUSH1 0x0 PUSH2 0x15D4 DUP3 PUSH2 0x150B JUMP JUMPDEST SWAP2 POP PUSH2 0x15E0 DUP3 DUP6 PUSH2 0x144E JUMP JUMPDEST SWAP2 POP PUSH2 0x15EB DUP3 PUSH2 0x1574 JUMP JUMPDEST SWAP2 POP PUSH2 0x15F7 DUP3 DUP5 PUSH2 0x144E JUMP JUMPDEST SWAP2 POP DUP2 SWAP1 POP SWAP4 SWAP3 POP POP POP JUMP JUMPDEST PUSH1 0x0 PUSH1 0x20 DUP3 ADD SWAP1 POP PUSH2 0x1618 PUSH1 0x0 DUP4 ADD DUP5 PUSH2 0x13F7 JUMP JUMPDEST SWAP3 SWAP2 POP POP JUMP JUMPDEST PUSH1 0x0 PUSH1 0x20 DUP3 ADD SWAP1 POP PUSH2 0x1633 PUSH1 0x0 DUP4 ADD DUP5 PUSH2 0x1406 JUMP JUMPDEST SWAP3 SWAP2 POP POP JUMP JUMPDEST PUSH1 0x0 PUSH1 0x20 DUP3 ADD SWAP1 POP DUP2 DUP2 SUB PUSH1 0x0 DUP4 ADD MSTORE PUSH2 0x1653 DUP2 DUP5 PUSH2 0x1415 JUMP JUMPDEST SWAP1 POP SWAP3 SWAP2 POP POP JUMP JUMPDEST PUSH1 0x0 PUSH2 0x100 DUP3 ADD SWAP1 POP DUP2 DUP2 SUB PUSH1 0x0 DUP4 ADD MSTORE PUSH2 0x1676 DUP2 DUP12 PUSH2 0x1415 JUMP JUMPDEST SWAP1 POP DUP2 DUP2 SUB PUSH1 0x20 DUP4 ADD MSTORE PUSH2 0x168A DUP2 DUP11 PUSH2 0x1415 JUMP JUMPDEST SWAP1 POP PUSH2 0x1699 PUSH1 0x40 DUP4 ADD DUP10 PUSH2 0x13E8 JUMP JUMPDEST PUSH2 0x16A6 PUSH1 0x60 DUP4 ADD DUP9 PUSH2 0x15BA JUMP JUMPDEST PUSH2 0x16B3 PUSH1 0x80 DUP4 ADD DUP8 PUSH2 0x13F7 JUMP JUMPDEST DUP2 DUP2 SUB PUSH1 0xA0 DUP4 ADD MSTORE PUSH2 0x16C5 DUP2 DUP7 PUSH2 0x1415 JUMP JUMPDEST SWAP1 POP PUSH2 0x16D4 PUSH1 0xC0 DUP4 ADD DUP6 PUSH2 0x15BA JUMP JUMPDEST PUSH2 0x16E1 PUSH1 0xE0 DUP4 ADD DUP5 PUSH2 0x15BA JUMP JUMPDEST SWAP10 SWAP9 POP POP POP POP POP POP POP POP POP JUMP JUMPDEST PUSH1 0x0 PUSH1 0x20 DUP3 ADD SWAP1 POP DUP2 DUP2 SUB PUSH1 0x0 DUP4 ADD MSTORE PUSH2 0x1707 DUP2 PUSH2 0x147F JUMP JUMPDEST SWAP1 POP SWAP2 SWAP1 POP JUMP JUMPDEST PUSH1 0x0 PUSH1 0x20 DUP3 ADD SWAP1 POP DUP2 DUP2 SUB PUSH1 0x0 DUP4 ADD MSTORE PUSH2 0x1727 DUP2 PUSH2 0x14A2 JUMP JUMPDEST SWAP1 POP SWAP2 SWAP1 POP JUMP JUMPDEST PUSH1 0x0 PUSH1 0x20 DUP3 ADD SWAP1 POP DUP2 DUP2 SUB PUSH1 0x0 DUP4 ADD MSTORE PUSH2 0x1747 DUP2 PUSH2 0x14C5 JUMP JUMPDEST SWAP1 POP SWAP2 SWAP1 POP JUMP JUMPDEST PUSH1 0x0 PUSH1 0x20 DUP3 ADD SWAP1 POP DUP2 DUP2 SUB PUSH1 0x0 DUP4 ADD MSTORE PUSH2 0x1767 DUP2 PUSH2 0x14E8 JUMP JUMPDEST SWAP1 POP SWAP2 SWAP1 POP JUMP JUMPDEST PUSH1 0x0 PUSH1 0x20 DUP3 ADD SWAP1 POP DUP2 DUP2 SUB PUSH1 0x0 DUP4 ADD MSTORE PUSH2 0x1787 DUP2 PUSH2 0x152E JUMP JUMPDEST SWAP1 POP SWAP2 SWAP1 POP JUMP JUMPDEST PUSH1 0x0 PUSH1 0x20 DUP3 ADD SWAP1 POP DUP2 DUP2 SUB PUSH1 0x0 DUP4 ADD MSTORE PUSH2 0x17A7 DUP2 PUSH2 0x1551 JUMP JUMPDEST SWAP1 POP SWAP2 SWAP1 POP JUMP JUMPDEST PUSH1 0x0 PUSH1 0x20 DUP3 ADD SWAP1 POP DUP2 DUP2 SUB PUSH1 0x0 DUP4 ADD MSTORE PUSH2 0x17C7 DUP2 PUSH2 0x1597 JUMP JUMPDEST SWAP1 POP SWAP2 SWAP1 POP JUMP JUMPDEST PUSH1 0x0 PUSH1 0x20 DUP3 ADD SWAP1 POP PUSH2 0x17E3 PUSH1 0x0 DUP4 ADD DUP5 PUSH2 0x15BA JUMP JUMPDEST SWAP3 SWAP2 POP POP JUMP JUMPDEST PUSH1 0x0 PUSH2 0x17F3 PUSH2 0x1804 JUMP JUMPDEST SWAP1 POP PUSH2 0x17FF DUP3 DUP3 PUSH2 0x1A44 JUMP JUMPDEST SWAP2 SWAP1 POP JUMP JUMPDEST PUSH1 0x0 PUSH1 0x40 MLOAD SWAP1 POP SWAP1 JUMP JUMPDEST PUSH1 0x0 PUSH8 0xFFFFFFFFFFFFFFFF DUP3 GT ISZERO PUSH2 0x1829 JUMPI PUSH2 0x1828 PUSH2 0x1B4B JUMP JUMPDEST JUMPDEST PUSH2 0x1832 DUP3 PUSH2 0x1B8E JUMP JUMPDEST SWAP1 POP PUSH1 0x20 DUP2 ADD SWAP1 POP SWAP2 SWAP1 POP JUMP JUMPDEST PUSH1 0x0 DUP2 MLOAD SWAP1 POP SWAP2 SWAP1 POP JUMP JUMPDEST PUSH1 0x0 DUP3 DUP3 MSTORE PUSH1 0x20 DUP3 ADD SWAP1 POP SWAP3 SWAP2 POP POP JUMP JUMPDEST PUSH1 0x0 DUP2 SWAP1 POP SWAP3 SWAP2 POP POP JUMP JUMPDEST PUSH1 0x0 PUSH2 0x1871 DUP3 PUSH2 0x199C JUMP JUMPDEST SWAP2 POP PUSH2 0x187C DUP4 PUSH2 0x199C JUMP JUMPDEST SWAP3 POP DUP3 PUSH32 0xFFFFFFFFFFFFFFFFFFFFFFFFFFFFFFFFFFFFFFFFFFFFFFFFFFFFFFFFFFFFFFFF SUB DUP3 GT ISZERO PUSH2 0x18B1 JUMPI PUSH2 0x18B0 PUSH2 0x1ABE JUMP JUMPDEST JUMPDEST DUP3 DUP3 ADD SWAP1 POP SWAP3 SWAP2 POP POP JUMP JUMPDEST PUSH1 0x0 PUSH2 0x18C7 DUP3 PUSH2 0x199C JUMP JUMPDEST SWAP2 POP PUSH2 0x18D2 DUP4 PUSH2 0x199C JUMP JUMPDEST SWAP3 POP DUP2 PUSH32 0xFFFFFFFFFFFFFFFFFFFFFFFFFFFFFFFFFFFFFFFFFFFFFFFFFFFFFFFFFFFFFFFF DIV DUP4 GT DUP3 ISZERO ISZERO AND ISZERO PUSH2 0x190B JUMPI PUSH2 0x190A PUSH2 0x1ABE JUMP JUMPDEST JUMPDEST DUP3 DUP3 MUL SWAP1 POP SWAP3 SWAP2 POP POP JUMP JUMPDEST PUSH1 0x0 PUSH2 0x1921 DUP3 PUSH2 0x197C JUMP JUMPDEST SWAP1 POP SWAP2 SWAP1 POP JUMP JUMPDEST PUSH1 0x0 PUSH2 0x1933 DUP3 PUSH2 0x197C JUMP JUMPDEST SWAP1 POP SWAP2 SWAP1 POP JUMP JUMPDEST PUSH1 0x0 DUP2 ISZERO ISZERO SWAP1 POP SWAP2 SWAP1 POP JUMP JUMPDEST PUSH1 0x0 DUP2 SWAP1 POP SWAP2 SWAP1 POP JUMP JUMPDEST PUSH1 0x0 PUSH32 0xFFFFFFFF00000000000000000000000000000000000000000000000000000000 DUP3 AND SWAP1 POP SWAP2 SWAP1 POP JUMP JUMPDEST PUSH1 0x0 PUSH20 0xFFFFFFFFFFFFFFFFFFFFFFFFFFFFFFFFFFFFFFFF DUP3 AND SWAP1 POP SWAP2 SWAP1 POP JUMP JUMPDEST PUSH1 0x0 DUP2 SWAP1 POP SWAP2 SWAP1 POP JUMP JUMPDEST DUP3 DUP2 DUP4 CALLDATACOPY PUSH1 0x0 DUP4 DUP4 ADD MSTORE POP POP POP JUMP JUMPDEST PUSH1 0x0 JUMPDEST DUP4 DUP2 LT ISZERO PUSH2 0x19D3 JUMPI DUP1 DUP3 ADD MLOAD DUP2 DUP5 ADD MSTORE PUSH1 0x20 DUP2 ADD SWAP1 POP PUSH2 0x19B8 JUMP JUMPDEST DUP4 DUP2 GT ISZERO PUSH2 0x19E2 JUMPI PUSH1 0x0 DUP5 DUP5 ADD MSTORE JUMPDEST POP POP POP POP JUMP JUMPDEST PUSH1 0x0 PUSH2 0x19F3 DUP3 PUSH2 0x199C JUMP JUMPDEST SWAP2 POP PUSH1 0x0 DUP3 EQ ISZERO PUSH2 0x1A07 JUMPI PUSH2 0x1A06 PUSH2 0x1ABE JUMP JUMPDEST JUMPDEST PUSH1 0x1 DUP3 SUB SWAP1 POP SWAP2 SWAP1 POP JUMP JUMPDEST PUSH1 0x0 PUSH1 0x2 DUP3 DIV SWAP1 POP PUSH1 0x1 DUP3 AND DUP1 PUSH2 0x1A2A JUMPI PUSH1 0x7F DUP3 AND SWAP2 POP JUMPDEST PUSH1 0x20 DUP3 LT DUP2 EQ ISZERO PUSH2 0x1A3E JUMPI PUSH2 0x1A3D PUSH2 0x1AED JUMP JUMPDEST JUMPDEST POP SWAP2 SWAP1 POP JUMP JUMPDEST PUSH2 0x1A4D DUP3 PUSH2 0x1B8E JUMP JUMPDEST DUP2 ADD DUP2 DUP2 LT PUSH8 0xFFFFFFFFFFFFFFFF DUP3 GT OR ISZERO PUSH2 0x1A6C JUMPI PUSH2 0x1A6B PUSH2 0x1B4B JUMP JUMPDEST JUMPDEST DUP1 PUSH1 0x40 MSTORE POP POP POP JUMP JUMPDEST PUSH1 0x0 PUSH2 0x1A80 DUP3 PUSH2 0x199C JUMP JUMPDEST SWAP2 POP PUSH32 0xFFFFFFFFFFFFFFFFFFFFFFFFFFFFFFFFFFFFFFFFFFFFFFFFFFFFFFFFFFFFFFFF DUP3 EQ ISZERO PUSH2 0x1AB3 JUMPI PUSH2 0x1AB2 PUSH2 0x1ABE JUMP JUMPDEST JUMPDEST PUSH1 0x1 DUP3 ADD SWAP1 POP SWAP2 SWAP1 POP JUMP JUMPDEST PUSH32 0x4E487B7100000000000000000000000000000000000000000000000000000000 PUSH1 0x0 MSTORE PUSH1 0x11 PUSH1 0x4 MSTORE PUSH1 0x24 PUSH1 0x0 REVERT JUMPDEST PUSH32 0x4E487B7100000000000000000000000000000000000000000000000000000000 PUSH1 0x0 MSTORE PUSH1 0x22 PUSH1 0x4 MSTORE PUSH1 0x24 PUSH1 0x0 REVERT JUMPDEST PUSH32 0x4E487B7100000000000000000000000000000000000000000000000000000000 PUSH1 0x0 MSTORE PUSH1 0x32 PUSH1 0x4 MSTORE PUSH1 0x24 PUSH1 0x0 REVERT JUMPDEST PUSH32 0x4E487B7100000000000000000000000000000000000000000000000000000000 PUSH1 0x0 MSTORE PUSH1 0x41 PUSH1 0x4 MSTORE PUSH1 0x24 PUSH1 0x0 REVERT JUMPDEST PUSH1 0x0 DUP1 REVERT JUMPDEST PUSH1 0x0 DUP1 REVERT JUMPDEST PUSH1 0x0 DUP1 REVERT JUMPDEST PUSH1 0x0 DUP1 REVERT JUMPDEST PUSH1 0x0 PUSH1 0x1F NOT PUSH1 0x1F DUP4 ADD AND SWAP1 POP SWAP2 SWAP1 POP JUMP JUMPDEST PUSH32 0x537472696E67733A20686578206C656E67746820696E73756666696369656E74 PUSH1 0x0 DUP3 ADD MSTORE POP JUMP JUMPDEST PUSH32 0x507269636520646F6573206E6F74206D61746368000000000000000000000000 PUSH1 0x0 DUP3 ADD MSTORE POP JUMP JUMPDEST PUSH32 0x4974656D20697320616C726561647920736F6C64000000000000000000000000 PUSH1 0x0 DUP3 ADD MSTORE POP JUMP JUMPDEST PUSH32 0x4F6E6C79207468652073656C6C65722063616E206372656174652061206D6172 PUSH1 0x0 DUP3 ADD MSTORE PUSH32 0x6B6574206974656D000000000000000000000000000000000000000000000000 PUSH1 0x20 DUP3 ADD MSTORE POP JUMP JUMPDEST PUSH32 0x416363657373436F6E74726F6C3A206163636F756E7420000000000000000000 PUSH1 0x0 DUP3 ADD MSTORE POP JUMP JUMPDEST PUSH32 0x4974656D20616C726561647920736F6C64000000000000000000000000000000 PUSH1 0x0 DUP3 ADD MSTORE POP JUMP JUMPDEST PUSH32 0x5072696365206D7573742062652067726561746572207468616E203000000000 PUSH1 0x0 DUP3 ADD MSTORE POP JUMP JUMPDEST PUSH32 0x206973206D697373696E6720726F6C6520000000000000000000000000000000 PUSH1 0x0 DUP3 ADD MSTORE POP JUMP JUMPDEST PUSH32 0x416363657373436F6E74726F6C3A2063616E206F6E6C792072656E6F756E6365 PUSH1 0x0 DUP3 ADD MSTORE PUSH32 0x20726F6C657320666F722073656C660000000000000000000000000000000000 PUSH1 0x20 DUP3 ADD MSTORE POP JUMP JUMPDEST PUSH2 0x1D65 DUP2 PUSH2 0x1916 JUMP JUMPDEST DUP2 EQ PUSH2 0x1D70 JUMPI PUSH1 0x0 DUP1 REVERT JUMPDEST POP JUMP JUMPDEST PUSH2 0x1D7C DUP2 PUSH2 0x1928 JUMP JUMPDEST DUP2 EQ PUSH2 0x1D87 JUMPI PUSH1 0x0 DUP1 REVERT JUMPDEST POP JUMP JUMPDEST PUSH2 0x1D93 DUP2 PUSH2 0x1946 JUMP JUMPDEST DUP2 EQ PUSH2 0x1D9E JUMPI PUSH1 0x0 DUP1 REVERT JUMPDEST POP JUMP JUMPDEST PUSH2 0x1DAA DUP2 PUSH2 0x1950 JUMP JUMPDEST DUP2 EQ PUSH2 0x1DB5 JUMPI PUSH1 0x0 DUP1 REVERT JUMPDEST POP JUMP JUMPDEST PUSH2 0x1DC1 DUP2 PUSH2 0x199C JUMP JUMPDEST DUP2 EQ PUSH2 0x1DCC JUMPI PUSH1 0x0 DUP1 REVERT JUMPDEST POP JUMP INVALID LOG2 PUSH5 0x6970667358 0x22 SLT KECCAK256 PUSH17 0xCAC15431885DD30F4F3E8F3ECBBAADDCDC 0x4F 0xAF PUSH5 0xD33EBCB98B GAS PUSH16 0xF6E0608E64736F6C6343000807003300 "
				},
				"gasEstimates": {
					"creation": {
						"codeDepositCost": "1537000",
						"executionCost": "infinite",
						"totalCost": "infinite"
					},
					"external": {
						"DEFAULT_ADMIN_ROLE()": "357",
						"MARKETPLACE_OWNER()": "373",
						"buyMarketItem(uint256)": "infinite",
						"createMarketItem(string,string,address,uint256,string,uint256)": "infinite",
						"getMarketItem(uint256)": "infinite",
						"getRoleAdmin(bytes32)": "infinite",
						"grantRole(bytes32,address)": "infinite",
						"hasRole(bytes32,address)": "3140",
						"nextItemId()": "2540",
						"renounceRole(bytes32,address)": "infinite",
						"revokeRole(bytes32,address)": "infinite",
						"supportsInterface(bytes4)": "728"
					}
				},
				"methodIdentifiers": {
					"DEFAULT_ADMIN_ROLE()": "a217fddf",
					"MARKETPLACE_OWNER()": "b491efa0",
					"buyMarketItem(uint256)": "351901c3",
					"createMarketItem(string,string,address,uint256,string,uint256)": "dbf58e86",
					"getMarketItem(uint256)": "c7be7a49",
					"getRoleAdmin(bytes32)": "248a9ca3",
					"grantRole(bytes32,address)": "2f2ff15d",
					"hasRole(bytes32,address)": "91d14854",
					"nextItemId()": "6a868974",
					"renounceRole(bytes32,address)": "36568abe",
					"revokeRole(bytes32,address)": "d547741f",
					"supportsInterface(bytes4)": "01ffc9a7"
				}
			},
			"userdoc": {
				"kind": "user",
				"methods": {},
				"version": 1
			}
		}
	}
}