{
	"Marketplace.sol": {
		"Marketplace": {
			"abi": [
				{
					"inputs": [],
					"stateMutability": "nonpayable",
					"type": "constructor"
				},
				{
					"anonymous": false,
					"inputs": [
						{
							"indexed": false,
							"internalType": "uint256",
							"name": "_itemId",
							"type": "uint256"
						},
						{
							"indexed": false,
							"internalType": "uint256",
							"name": "_price",
							"type": "uint256"
						},
						{
							"indexed": false,
							"internalType": "address",
							"name": "_seller",
							"type": "address"
						},
						{
							"indexed": false,
							"internalType": "address",
							"name": "_buyer",
							"type": "address"
						}
					],
					"name": "BuyItem",
					"type": "event"
				},
				{
					"anonymous": false,
					"inputs": [
						{
							"indexed": true,
							"internalType": "bytes32",
							"name": "role",
							"type": "bytes32"
						},
						{
							"indexed": true,
							"internalType": "bytes32",
							"name": "previousAdminRole",
							"type": "bytes32"
						},
						{
							"indexed": true,
							"internalType": "bytes32",
							"name": "newAdminRole",
							"type": "bytes32"
						}
					],
					"name": "RoleAdminChanged",
					"type": "event"
				},
				{
					"anonymous": false,
					"inputs": [
						{
							"indexed": true,
							"internalType": "bytes32",
							"name": "role",
							"type": "bytes32"
						},
						{
							"indexed": true,
							"internalType": "address",
							"name": "account",
							"type": "address"
						},
						{
							"indexed": true,
							"internalType": "address",
							"name": "sender",
							"type": "address"
						}
					],
					"name": "RoleGranted",
					"type": "event"
				},
				{
					"anonymous": false,
					"inputs": [
						{
							"indexed": true,
							"internalType": "bytes32",
							"name": "role",
							"type": "bytes32"
						},
						{
							"indexed": true,
							"internalType": "address",
							"name": "account",
							"type": "address"
						},
						{
							"indexed": true,
							"internalType": "address",
							"name": "sender",
							"type": "address"
						}
					],
					"name": "RoleRevoked",
					"type": "event"
				},
				{
					"inputs": [],
					"name": "DEFAULT_ADMIN_ROLE",
					"outputs": [
						{
							"internalType": "bytes32",
							"name": "",
							"type": "bytes32"
						}
					],
					"stateMutability": "view",
					"type": "function"
				},
				{
					"inputs": [],
					"name": "MARKETPLACE_OWNER",
					"outputs": [
						{
							"internalType": "bytes32",
							"name": "",
							"type": "bytes32"
						}
					],
					"stateMutability": "view",
					"type": "function"
				},
				{
					"inputs": [
						{
							"internalType": "uint256",
							"name": "_itemId",
							"type": "uint256"
						},
						{
							"internalType": "uint8",
							"name": "_quantity",
							"type": "uint8"
						}
					],
					"name": "buyMarketItem",
					"outputs": [],
					"stateMutability": "payable",
					"type": "function"
				},
				{
					"inputs": [
						{
							"internalType": "uint256",
							"name": "_itemId",
							"type": "uint256"
						},
						{
							"internalType": "address",
							"name": "_buyer",
							"type": "address"
						}
					],
					"name": "checkBuyer",
					"outputs": [
						{
							"internalType": "bool",
							"name": "",
							"type": "bool"
						}
					],
					"stateMutability": "view",
					"type": "function"
				},
				{
					"inputs": [
						{
							"internalType": "string",
							"name": "_title",
							"type": "string"
						},
						{
							"internalType": "string",
							"name": "_description",
							"type": "string"
						},
						{
							"internalType": "uint256",
							"name": "_price",
							"type": "uint256"
						},
						{
							"internalType": "string",
							"name": "_imageUrl",
							"type": "string"
						},
						{
							"internalType": "uint8",
							"name": "_quantity",
							"type": "uint8"
						},
						{
							"internalType": "bool",
							"name": "_isActive",
							"type": "bool"
						}
					],
					"name": "createMarketItem",
					"outputs": [],
					"stateMutability": "nonpayable",
					"type": "function"
				},
				{
					"inputs": [
						{
							"internalType": "uint256",
							"name": "_itemId",
							"type": "uint256"
						}
					],
					"name": "getAverageStars",
					"outputs": [
						{
							"internalType": "uint256",
							"name": "",
							"type": "uint256"
						}
					],
					"stateMutability": "view",
					"type": "function"
				},
				{
					"inputs": [
						{
							"internalType": "uint256",
							"name": "_itemId",
							"type": "uint256"
						}
					],
					"name": "getMarketItem",
					"outputs": [
						{
							"internalType": "string",
							"name": "title",
							"type": "string"
						},
						{
							"internalType": "address payable",
							"name": "seller",
							"type": "address"
						},
						{
							"internalType": "uint256",
							"name": "price",
							"type": "uint256"
						},
						{
							"internalType": "bool",
							"name": "isActive",
							"type": "bool"
						}
					],
					"stateMutability": "view",
					"type": "function"
				},
				{
					"inputs": [
						{
							"internalType": "uint256",
							"name": "_itemId",
							"type": "uint256"
						}
					],
					"name": "getMarketItemDetails",
					"outputs": [
						{
							"internalType": "string",
							"name": "description",
							"type": "string"
						},
						{
							"internalType": "string",
							"name": "imageUrl",
							"type": "string"
						},
						{
							"internalType": "uint8",
							"name": "quantity",
							"type": "uint8"
						},
						{
							"internalType": "uint256",
							"name": "createdAt",
							"type": "uint256"
						},
						{
							"internalType": "uint256",
							"name": "updatedAt",
							"type": "uint256"
						}
					],
					"stateMutability": "view",
					"type": "function"
				},
				{
					"inputs": [
						{
							"internalType": "bytes32",
							"name": "role",
							"type": "bytes32"
						}
					],
					"name": "getRoleAdmin",
					"outputs": [
						{
							"internalType": "bytes32",
							"name": "",
							"type": "bytes32"
						}
					],
					"stateMutability": "view",
					"type": "function"
				},
				{
					"inputs": [
						{
							"internalType": "bytes32",
							"name": "role",
							"type": "bytes32"
						},
						{
							"internalType": "address",
							"name": "account",
							"type": "address"
						}
					],
					"name": "grantRole",
					"outputs": [],
					"stateMutability": "nonpayable",
					"type": "function"
				},
				{
					"inputs": [
						{
							"internalType": "bytes32",
							"name": "role",
							"type": "bytes32"
						},
						{
							"internalType": "address",
							"name": "account",
							"type": "address"
						}
					],
					"name": "hasRole",
					"outputs": [
						{
							"internalType": "bool",
							"name": "",
							"type": "bool"
						}
					],
					"stateMutability": "view",
					"type": "function"
				},
				{
					"inputs": [],
					"name": "nextItemId",
					"outputs": [
						{
							"internalType": "uint256",
							"name": "",
							"type": "uint256"
						}
					],
					"stateMutability": "view",
					"type": "function"
				},
				{
					"inputs": [
						{
							"internalType": "bytes32",
							"name": "role",
							"type": "bytes32"
						},
						{
							"internalType": "address",
							"name": "account",
							"type": "address"
						}
					],
					"name": "renounceRole",
					"outputs": [],
					"stateMutability": "nonpayable",
					"type": "function"
				},
				{
					"inputs": [
						{
							"internalType": "bytes32",
							"name": "role",
							"type": "bytes32"
						},
						{
							"internalType": "address",
							"name": "account",
							"type": "address"
						}
					],
					"name": "revokeRole",
					"outputs": [],
					"stateMutability": "nonpayable",
					"type": "function"
				},
				{
					"inputs": [
						{
							"internalType": "bytes4",
							"name": "interfaceId",
							"type": "bytes4"
						}
					],
					"name": "supportsInterface",
					"outputs": [
						{
							"internalType": "bool",
							"name": "",
							"type": "bool"
						}
					],
					"stateMutability": "view",
					"type": "function"
				},
				{
					"inputs": [
						{
							"internalType": "uint256",
							"name": "_itemId",
							"type": "uint256"
						},
						{
							"internalType": "bool",
							"name": "_isBlocked",
							"type": "bool"
						}
					],
					"name": "updateBlockMarketItem",
					"outputs": [],
					"stateMutability": "nonpayable",
					"type": "function"
				},
				{
					"inputs": [
						{
							"internalType": "uint256",
							"name": "_itemId",
							"type": "uint256"
						},
						{
							"internalType": "bool",
							"name": "_isActive",
							"type": "bool"
						}
					],
					"name": "updateMarketItemActive",
					"outputs": [],
					"stateMutability": "nonpayable",
					"type": "function"
				},
				{
					"inputs": [
						{
							"internalType": "uint256",
							"name": "_itemId",
							"type": "uint256"
						},
						{
							"internalType": "string",
							"name": "_description",
							"type": "string"
						}
					],
					"name": "updateMarketItemDescription",
					"outputs": [],
					"stateMutability": "nonpayable",
					"type": "function"
				},
				{
					"inputs": [
						{
							"internalType": "uint256",
							"name": "_itemId",
							"type": "uint256"
						},
						{
							"internalType": "string",
							"name": "_imageUrl",
							"type": "string"
						}
					],
					"name": "updateMarketItemImgUrl",
					"outputs": [],
					"stateMutability": "nonpayable",
					"type": "function"
				},
				{
					"inputs": [
						{
							"internalType": "uint256",
							"name": "_itemId",
							"type": "uint256"
						},
						{
							"internalType": "uint256",
							"name": "_price",
							"type": "uint256"
						}
					],
					"name": "updateMarketItemPrice",
					"outputs": [],
					"stateMutability": "nonpayable",
					"type": "function"
				},
				{
					"inputs": [
						{
							"internalType": "uint256",
							"name": "_itemId",
							"type": "uint256"
						},
						{
							"internalType": "uint8",
							"name": "_quantity",
							"type": "uint8"
						}
					],
					"name": "updateMarketItemQuantity",
					"outputs": [],
					"stateMutability": "nonpayable",
					"type": "function"
				},
				{
					"inputs": [
						{
							"internalType": "uint256",
							"name": "_itemId",
							"type": "uint256"
						},
						{
							"internalType": "uint8",
							"name": "_stars",
							"type": "uint8"
						}
					],
					"name": "voteMarketItemStars",
					"outputs": [],
					"stateMutability": "nonpayable",
					"type": "function"
				}
			],
			"devdoc": {
				"kind": "dev",
				"methods": {
					"getRoleAdmin(bytes32)": {
						"details": "Returns the admin role that controls `role`. See {grantRole} and {revokeRole}. To change a role's admin, use {_setRoleAdmin}."
					},
					"grantRole(bytes32,address)": {
						"details": "Grants `role` to `account`. If `account` had not been already granted `role`, emits a {RoleGranted} event. Requirements: - the caller must have ``role``'s admin role."
					},
					"hasRole(bytes32,address)": {
						"details": "Returns `true` if `account` has been granted `role`."
					},
					"renounceRole(bytes32,address)": {
						"details": "Revokes `role` from the calling account. Roles are often managed via {grantRole} and {revokeRole}: this function's purpose is to provide a mechanism for accounts to lose their privileges if they are compromised (such as when a trusted device is misplaced). If the calling account had been revoked `role`, emits a {RoleRevoked} event. Requirements: - the caller must be `account`."
					},
					"revokeRole(bytes32,address)": {
						"details": "Revokes `role` from `account`. If `account` had been granted `role`, emits a {RoleRevoked} event. Requirements: - the caller must have ``role``'s admin role."
					},
					"supportsInterface(bytes4)": {
						"details": "See {IERC165-supportsInterface}."
					}
				},
				"version": 1
			},
			"evm": {
				"assembly": "    /* \"Marketplace.sol\":122:6108  contract Marketplace is  AccessControl {\r... */\n  mstore(0x40, 0x80)\n    /* \"Marketplace.sol\":277:278  0 */\n  0x00\n    /* \"Marketplace.sol\":249:278  uint256 public nextItemId = 0 */\n  0x01\n  sstore\n    /* \"Marketplace.sol\":917:991  constructor() {\r... */\n  callvalue\n  dup1\n  iszero\n  tag_1\n  jumpi\n  0x00\n  dup1\n  revert\ntag_1:\n  pop\n    /* \"Marketplace.sol\":942:983  _grantRole(MARKETPLACE_OWNER, msg.sender) */\n  tag_4\n    /* \"Marketplace.sol\":212:242  keccak256(\"MARKETPLACE_OWNER\") */\n  0x1f9ca85e780b3b3cfbe1334ca9dd68802db7860f692bd163c796bb76d464edc0\n    /* \"Marketplace.sol\":972:982  msg.sender */\n  caller\n    /* \"Marketplace.sol\":942:952  _grantRole */\n  shl(0x20, tag_5)\n    /* \"Marketplace.sol\":942:983  _grantRole(MARKETPLACE_OWNER, msg.sender) */\n  0x20\n  shr\n  jump\t// in\ntag_4:\n    /* \"Marketplace.sol\":122:6108  contract Marketplace is  AccessControl {\r... */\n  jump(tag_6)\n    /* \"@openzeppelin/contracts/access/AccessControl.sol\":6861:7094  function _grantRole(bytes32 role, address account) internal virtual {... */\ntag_5:\n    /* \"@openzeppelin/contracts/access/AccessControl.sol\":6944:6966  hasRole(role, account) */\n  tag_8\n    /* \"@openzeppelin/contracts/access/AccessControl.sol\":6952:6956  role */\n  dup3\n    /* \"@openzeppelin/contracts/access/AccessControl.sol\":6958:6965  account */\n  dup3\n    /* \"@openzeppelin/contracts/access/AccessControl.sol\":6944:6951  hasRole */\n  shl(0x20, tag_9)\n    /* \"@openzeppelin/contracts/access/AccessControl.sol\":6944:6966  hasRole(role, account) */\n  0x20\n  shr\n  jump\t// in\ntag_8:\n    /* \"@openzeppelin/contracts/access/AccessControl.sol\":6939:7088  if (!hasRole(role, account)) {... */\n  tag_10\n  jumpi\n    /* \"@openzeppelin/contracts/access/AccessControl.sol\":7014:7018  true */\n  0x01\n    /* \"@openzeppelin/contracts/access/AccessControl.sol\":6982:6988  _roles */\n  0x00\n    /* \"@openzeppelin/contracts/access/AccessControl.sol\":6982:6994  _roles[role] */\n  dup1\n    /* \"@openzeppelin/contracts/access/AccessControl.sol\":6989:6993  role */\n  dup5\n    /* \"@openzeppelin/contracts/access/AccessControl.sol\":6982:6994  _roles[role] */\n  dup2\n  mstore\n  0x20\n  add\n  swap1\n  dup2\n  mstore\n  0x20\n  add\n  0x00\n  keccak256\n    /* \"@openzeppelin/contracts/access/AccessControl.sol\":6982:7002  _roles[role].members */\n  0x00\n  add\n    /* \"@openzeppelin/contracts/access/AccessControl.sol\":6982:7011  _roles[role].members[account] */\n  0x00\n    /* \"@openzeppelin/contracts/access/AccessControl.sol\":7003:7010  account */\n  dup4\n    /* \"@openzeppelin/contracts/access/AccessControl.sol\":6982:7011  _roles[role].members[account] */\n  0xffffffffffffffffffffffffffffffffffffffff\n  and\n  0xffffffffffffffffffffffffffffffffffffffff\n  and\n  dup2\n  mstore\n  0x20\n  add\n  swap1\n  dup2\n  mstore\n  0x20\n  add\n  0x00\n  keccak256\n  0x00\n    /* \"@openzeppelin/contracts/access/AccessControl.sol\":6982:7018  _roles[role].members[account] = true */\n  0x0100\n  exp\n  dup2\n  sload\n  dup2\n  0xff\n  mul\n  not\n  and\n  swap1\n  dup4\n  iszero\n  iszero\n  mul\n  or\n  swap1\n  sstore\n  pop\n    /* \"@openzeppelin/contracts/access/AccessControl.sol\":7064:7076  _msgSender() */\n  tag_11\n    /* \"@openzeppelin/contracts/access/AccessControl.sol\":7064:7074  _msgSender */\n  shl(0x20, tag_12)\n    /* \"@openzeppelin/contracts/access/AccessControl.sol\":7064:7076  _msgSender() */\n  0x20\n  shr\n  jump\t// in\ntag_11:\n    /* \"@openzeppelin/contracts/access/AccessControl.sol\":7037:7077  RoleGranted(role, account, _msgSender()) */\n  0xffffffffffffffffffffffffffffffffffffffff\n  and\n    /* \"@openzeppelin/contracts/access/AccessControl.sol\":7055:7062  account */\n  dup2\n    /* \"@openzeppelin/contracts/access/AccessControl.sol\":7037:7077  RoleGranted(role, account, _msgSender()) */\n  0xffffffffffffffffffffffffffffffffffffffff\n  and\n    /* \"@openzeppelin/contracts/access/AccessControl.sol\":7049:7053  role */\n  dup4\n    /* \"@openzeppelin/contracts/access/AccessControl.sol\":7037:7077  RoleGranted(role, account, _msgSender()) */\n  0x2f8788117e7eff1d82e926ec794901d17c78024a50270940304540a733656f0d\n  mload(0x40)\n  mload(0x40)\n  dup1\n  swap2\n  sub\n  swap1\n  log4\n    /* \"@openzeppelin/contracts/access/AccessControl.sol\":6939:7088  if (!hasRole(role, account)) {... */\ntag_10:\n    /* \"@openzeppelin/contracts/access/AccessControl.sol\":6861:7094  function _grantRole(bytes32 role, address account) internal virtual {... */\n  pop\n  pop\n  jump\t// out\n    /* \"@openzeppelin/contracts/access/AccessControl.sol\":2909:3054  function hasRole(bytes32 role, address account) public view virtual override returns (bool) {... */\ntag_9:\n    /* \"@openzeppelin/contracts/access/AccessControl.sol\":2995:2999  bool */\n  0x00\n    /* \"@openzeppelin/contracts/access/AccessControl.sol\":3018:3024  _roles */\n  dup1\n    /* \"@openzeppelin/contracts/access/AccessControl.sol\":3018:3030  _roles[role] */\n  0x00\n    /* \"@openzeppelin/contracts/access/AccessControl.sol\":3025:3029  role */\n  dup5\n    /* \"@openzeppelin/contracts/access/AccessControl.sol\":3018:3030  _roles[role] */\n  dup2\n  mstore\n  0x20\n  add\n  swap1\n  dup2\n  mstore\n  0x20\n  add\n  0x00\n  keccak256\n    /* \"@openzeppelin/contracts/access/AccessControl.sol\":3018:3038  _roles[role].members */\n  0x00\n  add\n    /* \"@openzeppelin/contracts/access/AccessControl.sol\":3018:3047  _roles[role].members[account] */\n  0x00\n    /* \"@openzeppelin/contracts/access/AccessControl.sol\":3039:3046  account */\n  dup4\n    /* \"@openzeppelin/contracts/access/AccessControl.sol\":3018:3047  _roles[role].members[account] */\n  0xffffffffffffffffffffffffffffffffffffffff\n  and\n  0xffffffffffffffffffffffffffffffffffffffff\n  and\n  dup2\n  mstore\n  0x20\n  add\n  swap1\n  dup2\n  mstore\n  0x20\n  add\n  0x00\n  keccak256\n  0x00\n  swap1\n  sload\n  swap1\n  0x0100\n  exp\n  swap1\n  div\n  0xff\n  and\n    /* \"@openzeppelin/contracts/access/AccessControl.sol\":3011:3047  return _roles[role].members[account] */\n  swap1\n  pop\n    /* \"@openzeppelin/contracts/access/AccessControl.sol\":2909:3054  function hasRole(bytes32 role, address account) public view virtual override returns (bool) {... */\n  swap3\n  swap2\n  pop\n  pop\n  jump\t// out\n    /* \"@openzeppelin/contracts/utils/Context.sol\":640:736  function _msgSender() internal view virtual returns (address) {... */\ntag_12:\n    /* \"@openzeppelin/contracts/utils/Context.sol\":693:700  address */\n  0x00\n    /* \"@openzeppelin/contracts/utils/Context.sol\":719:729  msg.sender */\n  caller\n    /* \"@openzeppelin/contracts/utils/Context.sol\":712:729  return msg.sender */\n  swap1\n  pop\n    /* \"@openzeppelin/contracts/utils/Context.sol\":640:736  function _msgSender() internal view virtual returns (address) {... */\n  swap1\n  jump\t// out\n    /* \"Marketplace.sol\":122:6108  contract Marketplace is  AccessControl {\r... */\ntag_6:\n  dataSize(sub_0)\n  dup1\n  dataOffset(sub_0)\n  0x00\n  codecopy\n  0x00\n  return\nstop\n\nsub_0: assembly {\n        /* \"Marketplace.sol\":122:6108  contract Marketplace is  AccessControl {\r... */\n      mstore(0x40, 0x80)\n      jumpi(tag_1, lt(calldatasize, 0x04))\n      shr(0xe0, calldataload(0x00))\n      dup1\n      0x91d14854\n      gt\n      tag_24\n      jumpi\n      dup1\n      0xbf9c6554\n      gt\n      tag_25\n      jumpi\n      dup1\n      0xbf9c6554\n      eq\n      tag_18\n      jumpi\n      dup1\n      0xc7be7a49\n      eq\n      tag_19\n      jumpi\n      dup1\n      0xd547741f\n      eq\n      tag_20\n      jumpi\n      dup1\n      0xeca1e6a0\n      eq\n      tag_21\n      jumpi\n      dup1\n      0xf0d2d06d\n      eq\n      tag_22\n      jumpi\n      dup1\n      0xfec4d15d\n      eq\n      tag_23\n      jumpi\n      jump(tag_1)\n    tag_25:\n      dup1\n      0x91d14854\n      eq\n      tag_13\n      jumpi\n      dup1\n      0xa217fddf\n      eq\n      tag_14\n      jumpi\n      dup1\n      0xa63c7020\n      eq\n      tag_15\n      jumpi\n      dup1\n      0xae13a317\n      eq\n      tag_16\n      jumpi\n      dup1\n      0xb491efa0\n      eq\n      tag_17\n      jumpi\n      jump(tag_1)\n    tag_24:\n      dup1\n      0x36568abe\n      gt\n      tag_26\n      jumpi\n      dup1\n      0x36568abe\n      eq\n      tag_7\n      jumpi\n      dup1\n      0x6a868974\n      eq\n      tag_8\n      jumpi\n      dup1\n      0x77247d91\n      eq\n      tag_9\n      jumpi\n      dup1\n      0x7735904f\n      eq\n      tag_10\n      jumpi\n      dup1\n      0x88d9e84c\n      eq\n      tag_11\n      jumpi\n      dup1\n      0x8f28afee\n      eq\n      tag_12\n      jumpi\n      jump(tag_1)\n    tag_26:\n      dup1\n      0x01ffc9a7\n      eq\n      tag_2\n      jumpi\n      dup1\n      0x0c3774fc\n      eq\n      tag_3\n      jumpi\n      dup1\n      0x1dfef0eb\n      eq\n      tag_4\n      jumpi\n      dup1\n      0x248a9ca3\n      eq\n      tag_5\n      jumpi\n      dup1\n      0x2f2ff15d\n      eq\n      tag_6\n      jumpi\n    tag_1:\n      0x00\n      dup1\n      revert\n        /* \"@openzeppelin/contracts/access/AccessControl.sol\":2620:2822  function supportsInterface(bytes4 interfaceId) public view virtual override returns (bool) {... */\n    tag_2:\n      callvalue\n      dup1\n      iszero\n      tag_27\n      jumpi\n      0x00\n      dup1\n      revert\n    tag_27:\n      pop\n      tag_28\n      0x04\n      dup1\n      calldatasize\n      sub\n      dup2\n      add\n      swap1\n      tag_29\n      swap2\n      swap1\n      tag_30\n      jump\t// in\n    tag_29:\n      tag_31\n      jump\t// in\n    tag_28:\n      mload(0x40)\n      tag_32\n      swap2\n      swap1\n      tag_33\n      jump\t// in\n    tag_32:\n      mload(0x40)\n      dup1\n      swap2\n      sub\n      swap1\n      return\n        /* \"Marketplace.sol\":5115:5577  function voteMarketItemStars(uint256 _itemId, uint8 _stars) public {\r... */\n    tag_3:\n      callvalue\n      dup1\n      iszero\n      tag_34\n      jumpi\n      0x00\n      dup1\n      revert\n    tag_34:\n      pop\n      tag_35\n      0x04\n      dup1\n      calldatasize\n      sub\n      dup2\n      add\n      swap1\n      tag_36\n      swap2\n      swap1\n      tag_37\n      jump\t// in\n    tag_36:\n      tag_38\n      jump\t// in\n    tag_35:\n      stop\n        /* \"Marketplace.sol\":2224:2615  function buyMarketItem(uint256 _itemId, uint8 _quantity) public payable canBuyProduct(_itemId, _quantity) {\r... */\n    tag_4:\n      tag_39\n      0x04\n      dup1\n      calldatasize\n      sub\n      dup2\n      add\n      swap1\n      tag_40\n      swap2\n      swap1\n      tag_37\n      jump\t// in\n    tag_40:\n      tag_41\n      jump\t// in\n    tag_39:\n      stop\n        /* \"@openzeppelin/contracts/access/AccessControl.sol\":4008:4137  function getRoleAdmin(bytes32 role) public view virtual override returns (bytes32) {... */\n    tag_5:\n      callvalue\n      dup1\n      iszero\n      tag_42\n      jumpi\n      0x00\n      dup1\n      revert\n    tag_42:\n      pop\n      tag_43\n      0x04\n      dup1\n      calldatasize\n      sub\n      dup2\n      add\n      swap1\n      tag_44\n      swap2\n      swap1\n      tag_45\n      jump\t// in\n    tag_44:\n      tag_46\n      jump\t// in\n    tag_43:\n      mload(0x40)\n      tag_47\n      swap2\n      swap1\n      tag_48\n      jump\t// in\n    tag_47:\n      mload(0x40)\n      dup1\n      swap2\n      sub\n      swap1\n      return\n        /* \"@openzeppelin/contracts/access/AccessControl.sol\":4387:4532  function grantRole(bytes32 role, address account) public virtual override onlyRole(getRoleAdmin(role)) {... */\n    tag_6:\n      callvalue\n      dup1\n      iszero\n      tag_49\n      jumpi\n      0x00\n      dup1\n      revert\n    tag_49:\n      pop\n      tag_50\n      0x04\n      dup1\n      calldatasize\n      sub\n      dup2\n      add\n      swap1\n      tag_51\n      swap2\n      swap1\n      tag_52\n      jump\t// in\n    tag_51:\n      tag_53\n      jump\t// in\n    tag_50:\n      stop\n        /* \"@openzeppelin/contracts/access/AccessControl.sol\":5404:5618  function renounceRole(bytes32 role, address account) public virtual override {... */\n    tag_7:\n      callvalue\n      dup1\n      iszero\n      tag_54\n      jumpi\n      0x00\n      dup1\n      revert\n    tag_54:\n      pop\n      tag_55\n      0x04\n      dup1\n      calldatasize\n      sub\n      dup2\n      add\n      swap1\n      tag_56\n      swap2\n      swap1\n      tag_52\n      jump\t// in\n    tag_56:\n      tag_57\n      jump\t// in\n    tag_55:\n      stop\n        /* \"Marketplace.sol\":249:278  uint256 public nextItemId = 0 */\n    tag_8:\n      callvalue\n      dup1\n      iszero\n      tag_58\n      jumpi\n      0x00\n      dup1\n      revert\n    tag_58:\n      pop\n      tag_59\n      tag_60\n      jump\t// in\n    tag_59:\n      mload(0x40)\n      tag_61\n      swap2\n      swap1\n      tag_62\n      jump\t// in\n    tag_61:\n      mload(0x40)\n      dup1\n      swap2\n      sub\n      swap1\n      return\n        /* \"Marketplace.sol\":1779:2216  function createMarketItem(string memory _title, string memory _description, uint256 _price, string memory _imageUrl, uint8 _quantity, bool _isActive) public {\r... */\n    tag_9:\n      callvalue\n      dup1\n      iszero\n      tag_63\n      jumpi\n      0x00\n      dup1\n      revert\n    tag_63:\n      pop\n      tag_64\n      0x04\n      dup1\n      calldatasize\n      sub\n      dup2\n      add\n      swap1\n      tag_65\n      swap2\n      swap1\n      tag_66\n      jump\t// in\n    tag_65:\n      tag_67\n      jump\t// in\n    tag_64:\n      stop\n        /* \"Marketplace.sol\":5587:6105  function getAverageStars(uint256 _itemId) public view returns (uint256) {\r... */\n    tag_10:\n      callvalue\n      dup1\n      iszero\n      tag_68\n      jumpi\n      0x00\n      dup1\n      revert\n    tag_68:\n      pop\n      tag_69\n      0x04\n      dup1\n      calldatasize\n      sub\n      dup2\n      add\n      swap1\n      tag_70\n      swap2\n      swap1\n      tag_71\n      jump\t// in\n    tag_70:\n      tag_72\n      jump\t// in\n    tag_69:\n      mload(0x40)\n      tag_73\n      swap2\n      swap1\n      tag_62\n      jump\t// in\n    tag_73:\n      mload(0x40)\n      dup1\n      swap2\n      sub\n      swap1\n      return\n        /* \"Marketplace.sol\":2921:3259  function getMarketItemDetails(uint256 _itemId) public view returns (string memory description, string memory imageUrl, uint8 quantity, uint256 createdAt, uint256 updatedAt) {\r... */\n    tag_11:\n      callvalue\n      dup1\n      iszero\n      tag_74\n      jumpi\n      0x00\n      dup1\n      revert\n    tag_74:\n      pop\n      tag_75\n      0x04\n      dup1\n      calldatasize\n      sub\n      dup2\n      add\n      swap1\n      tag_76\n      swap2\n      swap1\n      tag_71\n      jump\t// in\n    tag_76:\n      tag_77\n      jump\t// in\n    tag_75:\n      mload(0x40)\n      tag_78\n      swap6\n      swap5\n      swap4\n      swap3\n      swap2\n      swap1\n      tag_79\n      jump\t// in\n    tag_78:\n      mload(0x40)\n      dup1\n      swap2\n      sub\n      swap1\n      return\n        /* \"Marketplace.sol\":3267:3514  function updateMarketItemDescription(uint256 _itemId, string memory _description) public onlyProductSeller(_itemId) {\r... */\n    tag_12:\n      callvalue\n      dup1\n      iszero\n      tag_80\n      jumpi\n      0x00\n      dup1\n      revert\n    tag_80:\n      pop\n      tag_81\n      0x04\n      dup1\n      calldatasize\n      sub\n      dup2\n      add\n      swap1\n      tag_82\n      swap2\n      swap1\n      tag_83\n      jump\t// in\n    tag_82:\n      tag_84\n      jump\t// in\n    tag_81:\n      stop\n        /* \"@openzeppelin/contracts/access/AccessControl.sol\":2909:3054  function hasRole(bytes32 role, address account) public view virtual override returns (bool) {... */\n    tag_13:\n      callvalue\n      dup1\n      iszero\n      tag_85\n      jumpi\n      0x00\n      dup1\n      revert\n    tag_85:\n      pop\n      tag_86\n      0x04\n      dup1\n      calldatasize\n      sub\n      dup2\n      add\n      swap1\n      tag_87\n      swap2\n      swap1\n      tag_52\n      jump\t// in\n    tag_87:\n      tag_88\n      jump\t// in\n    tag_86:\n      mload(0x40)\n      tag_89\n      swap2\n      swap1\n      tag_33\n      jump\t// in\n    tag_89:\n      mload(0x40)\n      dup1\n      swap2\n      sub\n      swap1\n      return\n        /* \"@openzeppelin/contracts/access/AccessControl.sol\":2027:2076  bytes32 public constant DEFAULT_ADMIN_ROLE = 0x00 */\n    tag_14:\n      callvalue\n      dup1\n      iszero\n      tag_90\n      jumpi\n      0x00\n      dup1\n      revert\n    tag_90:\n      pop\n      tag_91\n      tag_92\n      jump\t// in\n    tag_91:\n      mload(0x40)\n      tag_93\n      swap2\n      swap1\n      tag_48\n      jump\t// in\n    tag_93:\n      mload(0x40)\n      dup1\n      swap2\n      sub\n      swap1\n      return\n        /* \"Marketplace.sol\":4455:4682  function updateBlockMarketItem(uint256 _itemId, bool _isBlocked) public onlyRole(MARKETPLACE_OWNER) {\r... */\n    tag_15:\n      callvalue\n      dup1\n      iszero\n      tag_94\n      jumpi\n      0x00\n      dup1\n      revert\n    tag_94:\n      pop\n      tag_95\n      0x04\n      dup1\n      calldatasize\n      sub\n      dup2\n      add\n      swap1\n      tag_96\n      swap2\n      swap1\n      tag_97\n      jump\t// in\n    tag_96:\n      tag_98\n      jump\t// in\n    tag_95:\n      stop\n        /* \"Marketplace.sol\":3998:4215  function updateMarketItemPrice(uint256 _itemId, uint256 _price) public onlyProductSeller(_itemId) {\r... */\n    tag_16:\n      callvalue\n      dup1\n      iszero\n      tag_99\n      jumpi\n      0x00\n      dup1\n      revert\n    tag_99:\n      pop\n      tag_100\n      0x04\n      dup1\n      calldatasize\n      sub\n      dup2\n      add\n      swap1\n      tag_101\n      swap2\n      swap1\n      tag_102\n      jump\t// in\n    tag_101:\n      tag_103\n      jump\t// in\n    tag_100:\n      stop\n        /* \"Marketplace.sol\":168:242  bytes32 public constant MARKETPLACE_OWNER = keccak256(\"MARKETPLACE_OWNER\") */\n    tag_17:\n      callvalue\n      dup1\n      iszero\n      tag_104\n      jumpi\n      0x00\n      dup1\n      revert\n    tag_104:\n      pop\n      tag_105\n      tag_106\n      jump\t// in\n    tag_105:\n      mload(0x40)\n      tag_107\n      swap2\n      swap1\n      tag_48\n      jump\t// in\n    tag_107:\n      mload(0x40)\n      dup1\n      swap2\n      sub\n      swap1\n      return\n        /* \"Marketplace.sol\":4223:4447  function updateMarketItemActive(uint256 _itemId, bool _isActive) public onlyProductSeller(_itemId) {\r... */\n    tag_18:\n      callvalue\n      dup1\n      iszero\n      tag_108\n      jumpi\n      0x00\n      dup1\n      revert\n    tag_108:\n      pop\n      tag_109\n      0x04\n      dup1\n      calldatasize\n      sub\n      dup2\n      add\n      swap1\n      tag_110\n      swap2\n      swap1\n      tag_97\n      jump\t// in\n    tag_110:\n      tag_111\n      jump\t// in\n    tag_109:\n      stop\n        /* \"Marketplace.sol\":2623:2913  function getMarketItem(uint256 _itemId) public view returns (string memory title, address payable seller, uint256 price, bool isActive) {\r... */\n    tag_19:\n      callvalue\n      dup1\n      iszero\n      tag_112\n      jumpi\n      0x00\n      dup1\n      revert\n    tag_112:\n      pop\n      tag_113\n      0x04\n      dup1\n      calldatasize\n      sub\n      dup2\n      add\n      swap1\n      tag_114\n      swap2\n      swap1\n      tag_71\n      jump\t// in\n    tag_114:\n      tag_115\n      jump\t// in\n    tag_113:\n      mload(0x40)\n      tag_116\n      swap5\n      swap4\n      swap3\n      swap2\n      swap1\n      tag_117\n      jump\t// in\n    tag_116:\n      mload(0x40)\n      dup1\n      swap2\n      sub\n      swap1\n      return\n        /* \"@openzeppelin/contracts/access/AccessControl.sol\":4766:4913  function revokeRole(bytes32 role, address account) public virtual override onlyRole(getRoleAdmin(role)) {... */\n    tag_20:\n      callvalue\n      dup1\n      iszero\n      tag_118\n      jumpi\n      0x00\n      dup1\n      revert\n    tag_118:\n      pop\n      tag_119\n      0x04\n      dup1\n      calldatasize\n      sub\n      dup2\n      add\n      swap1\n      tag_120\n      swap2\n      swap1\n      tag_52\n      jump\t// in\n    tag_120:\n      tag_121\n      jump\t// in\n    tag_119:\n      stop\n        /* \"Marketplace.sol\":3522:3749  function updateMarketItemQuantity(uint256 _itemId, uint8 _quantity) public onlyProductSeller(_itemId) {\r... */\n    tag_21:\n      callvalue\n      dup1\n      iszero\n      tag_122\n      jumpi\n      0x00\n      dup1\n      revert\n    tag_122:\n      pop\n      tag_123\n      0x04\n      dup1\n      calldatasize\n      sub\n      dup2\n      add\n      swap1\n      tag_124\n      swap2\n      swap1\n      tag_37\n      jump\t// in\n    tag_124:\n      tag_125\n      jump\t// in\n    tag_123:\n      stop\n        /* \"Marketplace.sol\":3757:3990  function updateMarketItemImgUrl(uint256 _itemId, string memory _imageUrl) public onlyProductSeller(_itemId) {\r... */\n    tag_22:\n      callvalue\n      dup1\n      iszero\n      tag_126\n      jumpi\n      0x00\n      dup1\n      revert\n    tag_126:\n      pop\n      tag_127\n      0x04\n      dup1\n      calldatasize\n      sub\n      dup2\n      add\n      swap1\n      tag_128\n      swap2\n      swap1\n      tag_83\n      jump\t// in\n    tag_128:\n      tag_129\n      jump\t// in\n    tag_127:\n      stop\n        /* \"Marketplace.sol\":4959:5107  function checkBuyer(uint256 _itemId, address _buyer) public view returns (bool) {\r... */\n    tag_23:\n      callvalue\n      dup1\n      iszero\n      tag_130\n      jumpi\n      0x00\n      dup1\n      revert\n    tag_130:\n      pop\n      tag_131\n      0x04\n      dup1\n      calldatasize\n      sub\n      dup2\n      add\n      swap1\n      tag_132\n      swap2\n      swap1\n      tag_133\n      jump\t// in\n    tag_132:\n      tag_134\n      jump\t// in\n    tag_131:\n      mload(0x40)\n      tag_135\n      swap2\n      swap1\n      tag_33\n      jump\t// in\n    tag_135:\n      mload(0x40)\n      dup1\n      swap2\n      sub\n      swap1\n      return\n        /* \"@openzeppelin/contracts/access/AccessControl.sol\":2620:2822  function supportsInterface(bytes4 interfaceId) public view virtual override returns (bool) {... */\n    tag_31:\n        /* \"@openzeppelin/contracts/access/AccessControl.sol\":2705:2709  bool */\n      0x00\n        /* \"@openzeppelin/contracts/access/AccessControl.sol\":2743:2775  type(IAccessControl).interfaceId */\n      0x7965db0b00000000000000000000000000000000000000000000000000000000\n        /* \"@openzeppelin/contracts/access/AccessControl.sol\":2728:2775  interfaceId == type(IAccessControl).interfaceId */\n      not(0xffffffffffffffffffffffffffffffffffffffffffffffffffffffff)\n      and\n        /* \"@openzeppelin/contracts/access/AccessControl.sol\":2728:2739  interfaceId */\n      dup3\n        /* \"@openzeppelin/contracts/access/AccessControl.sol\":2728:2775  interfaceId == type(IAccessControl).interfaceId */\n      not(0xffffffffffffffffffffffffffffffffffffffffffffffffffffffff)\n      and\n      eq\n        /* \"@openzeppelin/contracts/access/AccessControl.sol\":2728:2815  interfaceId == type(IAccessControl).interfaceId || super.supportsInterface(interfaceId) */\n      dup1\n      tag_137\n      jumpi\n      pop\n        /* \"@openzeppelin/contracts/access/AccessControl.sol\":2779:2815  super.supportsInterface(interfaceId) */\n      tag_138\n        /* \"@openzeppelin/contracts/access/AccessControl.sol\":2803:2814  interfaceId */\n      dup3\n        /* \"@openzeppelin/contracts/access/AccessControl.sol\":2779:2802  super.supportsInterface */\n      tag_139\n        /* \"@openzeppelin/contracts/access/AccessControl.sol\":2779:2815  super.supportsInterface(interfaceId) */\n      jump\t// in\n    tag_138:\n        /* \"@openzeppelin/contracts/access/AccessControl.sol\":2728:2815  interfaceId == type(IAccessControl).interfaceId || super.supportsInterface(interfaceId) */\n    tag_137:\n        /* \"@openzeppelin/contracts/access/AccessControl.sol\":2721:2815  return interfaceId == type(IAccessControl).interfaceId || super.supportsInterface(interfaceId) */\n      swap1\n      pop\n        /* \"@openzeppelin/contracts/access/AccessControl.sol\":2620:2822  function supportsInterface(bytes4 interfaceId) public view virtual override returns (bool) {... */\n      swap2\n      swap1\n      pop\n      jump\t// out\n        /* \"Marketplace.sol\":5115:5577  function voteMarketItemStars(uint256 _itemId, uint8 _stars) public {\r... */\n    tag_38:\n        /* \"Marketplace.sol\":5215:5229  idToMarketItem */\n      0x03\n        /* \"Marketplace.sol\":5215:5238  idToMarketItem[_itemId] */\n      0x00\n        /* \"Marketplace.sol\":5230:5237  _itemId */\n      dup4\n        /* \"Marketplace.sol\":5215:5238  idToMarketItem[_itemId] */\n      dup2\n      mstore\n      0x20\n      add\n      swap1\n      dup2\n      mstore\n      0x20\n      add\n      0x00\n      keccak256\n        /* \"Marketplace.sol\":5215:5245  idToMarketItem[_itemId].seller */\n      0x04\n      add\n      0x00\n      swap1\n      sload\n      swap1\n      0x0100\n      exp\n      swap1\n      div\n      0xffffffffffffffffffffffffffffffffffffffff\n      and\n        /* \"Marketplace.sol\":5201:5245  msg.sender != idToMarketItem[_itemId].seller */\n      0xffffffffffffffffffffffffffffffffffffffff\n      and\n        /* \"Marketplace.sol\":5201:5211  msg.sender */\n      caller\n        /* \"Marketplace.sol\":5201:5245  msg.sender != idToMarketItem[_itemId].seller */\n      0xffffffffffffffffffffffffffffffffffffffff\n      and\n      eq\n      iszero\n        /* \"Marketplace.sol\":5193:5272  require(msg.sender != idToMarketItem[_itemId].seller, \"The seller cannot vote\") */\n      tag_141\n      jumpi\n      mload(0x40)\n      0x08c379a000000000000000000000000000000000000000000000000000000000\n      dup2\n      mstore\n      0x04\n      add\n      tag_142\n      swap1\n      tag_143\n      jump\t// in\n    tag_142:\n      mload(0x40)\n      dup1\n      swap2\n      sub\n      swap1\n      revert\n    tag_141:\n        /* \"Marketplace.sol\":5301:5302  5 */\n      0x05\n        /* \"Marketplace.sol\":5291:5297  _stars */\n      dup2\n        /* \"Marketplace.sol\":5291:5302  _stars <= 5 */\n      0xff\n      and\n      gt\n      iszero\n        /* \"Marketplace.sol\":5283:5344  require(_stars <= 5, \"Stars must be less than or equal to 5\") */\n      tag_144\n      jumpi\n      mload(0x40)\n      0x08c379a000000000000000000000000000000000000000000000000000000000\n      dup2\n      mstore\n      0x04\n      add\n      tag_145\n      swap1\n      tag_146\n      jump\t// in\n    tag_145:\n      mload(0x40)\n      dup1\n      swap2\n      sub\n      swap1\n      revert\n    tag_144:\n        /* \"Marketplace.sol\":5373:5374  1 */\n      0x01\n        /* \"Marketplace.sol\":5363:5369  _stars */\n      dup2\n        /* \"Marketplace.sol\":5363:5374  _stars >= 1 */\n      0xff\n      and\n      lt\n      iszero\n        /* \"Marketplace.sol\":5355:5419  require(_stars >= 1, \"Stars must be greater than or equal to 1\") */\n      tag_147\n      jumpi\n      mload(0x40)\n      0x08c379a000000000000000000000000000000000000000000000000000000000\n      dup2\n      mstore\n      0x04\n      add\n      tag_148\n      swap1\n      tag_149\n      jump\t// in\n    tag_148:\n      mload(0x40)\n      dup1\n      swap2\n      sub\n      swap1\n      revert\n    tag_147:\n        /* \"Marketplace.sol\":5438:5469  checkBuyer(_itemId, msg.sender) */\n      tag_150\n        /* \"Marketplace.sol\":5449:5456  _itemId */\n      dup3\n        /* \"Marketplace.sol\":5458:5468  msg.sender */\n      caller\n        /* \"Marketplace.sol\":5438:5448  checkBuyer */\n      tag_134\n        /* \"Marketplace.sol\":5438:5469  checkBuyer(_itemId, msg.sender) */\n      jump\t// in\n    tag_150:\n        /* \"Marketplace.sol\":5430:5507  require(checkBuyer(_itemId, msg.sender), \"You cannot vote for this product.\") */\n      tag_151\n      jumpi\n      mload(0x40)\n      0x08c379a000000000000000000000000000000000000000000000000000000000\n      dup2\n      mstore\n      0x04\n      add\n      tag_152\n      swap1\n      tag_153\n      jump\t// in\n    tag_152:\n      mload(0x40)\n      dup1\n      swap2\n      sub\n      swap1\n      revert\n    tag_151:\n        /* \"Marketplace.sol\":5563:5569  _stars */\n      dup1\n        /* \"Marketplace.sol\":5518:5539  addressToProductVotes */\n      0x04\n        /* \"Marketplace.sol\":5518:5551  addressToProductVotes[msg.sender] */\n      0x00\n        /* \"Marketplace.sol\":5540:5550  msg.sender */\n      caller\n        /* \"Marketplace.sol\":5518:5551  addressToProductVotes[msg.sender] */\n      0xffffffffffffffffffffffffffffffffffffffff\n      and\n      0xffffffffffffffffffffffffffffffffffffffff\n      and\n      dup2\n      mstore\n      0x20\n      add\n      swap1\n      dup2\n      mstore\n      0x20\n      add\n      0x00\n      keccak256\n        /* \"Marketplace.sol\":5518:5560  addressToProductVotes[msg.sender][_itemId] */\n      0x00\n        /* \"Marketplace.sol\":5552:5559  _itemId */\n      dup5\n        /* \"Marketplace.sol\":5518:5560  addressToProductVotes[msg.sender][_itemId] */\n      dup2\n      mstore\n      0x20\n      add\n      swap1\n      dup2\n      mstore\n      0x20\n      add\n      0x00\n      keccak256\n      0x00\n        /* \"Marketplace.sol\":5518:5569  addressToProductVotes[msg.sender][_itemId] = _stars */\n      0x0100\n      exp\n      dup2\n      sload\n      dup2\n      0xff\n      mul\n      not\n      and\n      swap1\n      dup4\n      0xff\n      and\n      mul\n      or\n      swap1\n      sstore\n      pop\n        /* \"Marketplace.sol\":5115:5577  function voteMarketItemStars(uint256 _itemId, uint8 _stars) public {\r... */\n      pop\n      pop\n      jump\t// out\n        /* \"Marketplace.sol\":2224:2615  function buyMarketItem(uint256 _itemId, uint8 _quantity) public payable canBuyProduct(_itemId, _quantity) {\r... */\n    tag_41:\n        /* \"Marketplace.sol\":2310:2317  _itemId */\n      dup2\n        /* \"Marketplace.sol\":2319:2328  _quantity */\n      dup2\n        /* \"Marketplace.sol\":1259:1273  idToMarketItem */\n      0x03\n        /* \"Marketplace.sol\":1259:1282  idToMarketItem[_itemId] */\n      0x00\n        /* \"Marketplace.sol\":1274:1281  _itemId */\n      dup4\n        /* \"Marketplace.sol\":1259:1282  idToMarketItem[_itemId] */\n      dup2\n      mstore\n      0x20\n      add\n      swap1\n      dup2\n      mstore\n      0x20\n      add\n      0x00\n      keccak256\n        /* \"Marketplace.sol\":1259:1291  idToMarketItem[_itemId].isActive */\n      0x09\n      add\n      0x00\n      swap1\n      sload\n      swap1\n      0x0100\n      exp\n      swap1\n      div\n      0xff\n      and\n        /* \"Marketplace.sol\":1251:1321  require(idToMarketItem[_itemId].isActive, \"Market item is not active\") */\n      tag_155\n      jumpi\n      mload(0x40)\n      0x08c379a000000000000000000000000000000000000000000000000000000000\n      dup2\n      mstore\n      0x04\n      add\n      tag_156\n      swap1\n      tag_157\n      jump\t// in\n    tag_156:\n      mload(0x40)\n      dup1\n      swap2\n      sub\n      swap1\n      revert\n    tag_155:\n        /* \"Marketplace.sol\":1341:1355  idToMarketItem */\n      0x03\n        /* \"Marketplace.sol\":1341:1364  idToMarketItem[_itemId] */\n      0x00\n        /* \"Marketplace.sol\":1356:1363  _itemId */\n      dup4\n        /* \"Marketplace.sol\":1341:1364  idToMarketItem[_itemId] */\n      dup2\n      mstore\n      0x20\n      add\n      swap1\n      dup2\n      mstore\n      0x20\n      add\n      0x00\n      keccak256\n        /* \"Marketplace.sol\":1341:1374  idToMarketItem[_itemId].isBlocked */\n      0x09\n      add\n      0x01\n      swap1\n      sload\n      swap1\n      0x0100\n      exp\n      swap1\n      div\n      0xff\n      and\n        /* \"Marketplace.sol\":1340:1374  !idToMarketItem[_itemId].isBlocked */\n      iszero\n        /* \"Marketplace.sol\":1332:1401  require(!idToMarketItem[_itemId].isBlocked, \"Market item is blocked\") */\n      tag_158\n      jumpi\n      mload(0x40)\n      0x08c379a000000000000000000000000000000000000000000000000000000000\n      dup2\n      mstore\n      0x04\n      add\n      tag_159\n      swap1\n      tag_160\n      jump\t// in\n    tag_159:\n      mload(0x40)\n      dup1\n      swap2\n      sub\n      swap1\n      revert\n    tag_158:\n        /* \"Marketplace.sol\":1432:1433  0 */\n      0x00\n        /* \"Marketplace.sol\":1420:1429  _quantity */\n      dup2\n        /* \"Marketplace.sol\":1420:1433  _quantity > 0 */\n      0xff\n      and\n      gt\n        /* \"Marketplace.sol\":1412:1469  require(_quantity > 0, \"Quantity must be greater than 0\") */\n      tag_161\n      jumpi\n      mload(0x40)\n      0x08c379a000000000000000000000000000000000000000000000000000000000\n      dup2\n      mstore\n      0x04\n      add\n      tag_162\n      swap1\n      tag_163\n      jump\t// in\n    tag_162:\n      mload(0x40)\n      dup1\n      swap2\n      sub\n      swap1\n      revert\n    tag_161:\n        /* \"Marketplace.sol\":1501:1515  idToMarketItem */\n      0x03\n        /* \"Marketplace.sol\":1501:1524  idToMarketItem[_itemId] */\n      0x00\n        /* \"Marketplace.sol\":1516:1523  _itemId */\n      dup4\n        /* \"Marketplace.sol\":1501:1524  idToMarketItem[_itemId] */\n      dup2\n      mstore\n      0x20\n      add\n      swap1\n      dup2\n      mstore\n      0x20\n      add\n      0x00\n      keccak256\n        /* \"Marketplace.sol\":1501:1533  idToMarketItem[_itemId].quantity */\n      0x06\n      add\n      0x00\n      swap1\n      sload\n      swap1\n      0x0100\n      exp\n      swap1\n      div\n      0xff\n      and\n        /* \"Marketplace.sol\":1488:1533  _quantity <= idToMarketItem[_itemId].quantity */\n      0xff\n      and\n        /* \"Marketplace.sol\":1488:1497  _quantity */\n      dup2\n        /* \"Marketplace.sol\":1488:1533  _quantity <= idToMarketItem[_itemId].quantity */\n      0xff\n      and\n      gt\n      iszero\n        /* \"Marketplace.sol\":1480:1599  require(_quantity <= idToMarketItem[_itemId].quantity, \"Quantity must be less than or equal to the available quantity\") */\n      tag_164\n      jumpi\n      mload(0x40)\n      0x08c379a000000000000000000000000000000000000000000000000000000000\n      dup2\n      mstore\n      0x04\n      add\n      tag_165\n      swap1\n      tag_166\n      jump\t// in\n    tag_165:\n      mload(0x40)\n      dup1\n      swap2\n      sub\n      swap1\n      revert\n    tag_164:\n        /* \"Marketplace.sol\":1620:1638  uint256 finalPrice */\n      0x00\n        /* \"Marketplace.sol\":1673:1682  _quantity */\n      dup2\n        /* \"Marketplace.sol\":1641:1682  idToMarketItem[_itemId].price * _quantity */\n      0xff\n      and\n        /* \"Marketplace.sol\":1641:1655  idToMarketItem */\n      0x03\n        /* \"Marketplace.sol\":1641:1664  idToMarketItem[_itemId] */\n      0x00\n        /* \"Marketplace.sol\":1656:1663  _itemId */\n      dup6\n        /* \"Marketplace.sol\":1641:1664  idToMarketItem[_itemId] */\n      dup2\n      mstore\n      0x20\n      add\n      swap1\n      dup2\n      mstore\n      0x20\n      add\n      0x00\n      keccak256\n        /* \"Marketplace.sol\":1641:1670  idToMarketItem[_itemId].price */\n      0x03\n      add\n      sload\n        /* \"Marketplace.sol\":1641:1682  idToMarketItem[_itemId].price * _quantity */\n      tag_167\n      swap2\n      swap1\n      tag_168\n      jump\t// in\n    tag_167:\n        /* \"Marketplace.sol\":1620:1682  uint256 finalPrice = idToMarketItem[_itemId].price * _quantity */\n      swap1\n      pop\n        /* \"Marketplace.sol\":1715:1724  msg.value */\n      callvalue\n        /* \"Marketplace.sol\":1701:1711  finalPrice */\n      dup2\n        /* \"Marketplace.sol\":1701:1724  finalPrice == msg.value */\n      eq\n        /* \"Marketplace.sol\":1693:1749  require(finalPrice == msg.value, \"Price does not match\") */\n      tag_169\n      jumpi\n      mload(0x40)\n      0x08c379a000000000000000000000000000000000000000000000000000000000\n      dup2\n      mstore\n      0x04\n      add\n      tag_170\n      swap1\n      tag_171\n      jump\t// in\n    tag_170:\n      mload(0x40)\n      dup1\n      swap2\n      sub\n      swap1\n      revert\n    tag_169:\n        /* \"Marketplace.sol\":2341:2355  idToMarketItem */\n      0x03\n        /* \"Marketplace.sol\":2341:2364  idToMarketItem[_itemId] */\n      0x00\n        /* \"Marketplace.sol\":2356:2363  _itemId */\n      dup7\n        /* \"Marketplace.sol\":2341:2364  idToMarketItem[_itemId] */\n      dup2\n      mstore\n      0x20\n      add\n      swap1\n      dup2\n      mstore\n      0x20\n      add\n      0x00\n      keccak256\n        /* \"Marketplace.sol\":2341:2371  idToMarketItem[_itemId].seller */\n      0x04\n      add\n      0x00\n      swap1\n      sload\n      swap1\n      0x0100\n      exp\n      swap1\n      div\n      0xffffffffffffffffffffffffffffffffffffffff\n      and\n        /* \"Marketplace.sol\":2341:2380  idToMarketItem[_itemId].seller.transfer */\n      0xffffffffffffffffffffffffffffffffffffffff\n      and\n        /* \"Marketplace.sol\":2341:2391  idToMarketItem[_itemId].seller.transfer(msg.value) */\n      0x08fc\n        /* \"Marketplace.sol\":2381:2390  msg.value */\n      callvalue\n        /* \"Marketplace.sol\":2341:2391  idToMarketItem[_itemId].seller.transfer(msg.value) */\n      swap1\n      dup2\n      iszero\n      mul\n      swap1\n      mload(0x40)\n      0x00\n      mload(0x40)\n      dup1\n      dup4\n      sub\n      dup2\n      dup6\n      dup9\n      dup9\n      call\n      swap4\n      pop\n      pop\n      pop\n      pop\n      iszero\n      dup1\n      iszero\n      tag_174\n      jumpi\n      returndatasize\n      0x00\n      dup1\n      returndatacopy\n      revert(0x00, returndatasize)\n    tag_174:\n      pop\n        /* \"Marketplace.sol\":2438:2447  _quantity */\n      dup4\n        /* \"Marketplace.sol\":2402:2416  idToMarketItem */\n      0x03\n        /* \"Marketplace.sol\":2402:2425  idToMarketItem[_itemId] */\n      0x00\n        /* \"Marketplace.sol\":2417:2424  _itemId */\n      dup8\n        /* \"Marketplace.sol\":2402:2425  idToMarketItem[_itemId] */\n      dup2\n      mstore\n      0x20\n      add\n      swap1\n      dup2\n      mstore\n      0x20\n      add\n      0x00\n      keccak256\n        /* \"Marketplace.sol\":2402:2434  idToMarketItem[_itemId].quantity */\n      0x06\n      add\n      0x00\n        /* \"Marketplace.sol\":2402:2447  idToMarketItem[_itemId].quantity -= _quantity */\n      dup3\n      dup3\n      dup3\n      swap1\n      sload\n      swap1\n      0x0100\n      exp\n      swap1\n      div\n      0xff\n      and\n      tag_175\n      swap2\n      swap1\n      tag_176\n      jump\t// in\n    tag_175:\n      swap3\n      pop\n      0x0100\n      exp\n      dup2\n      sload\n      dup2\n      0xff\n      mul\n      not\n      and\n      swap1\n      dup4\n      0xff\n      and\n      mul\n      or\n      swap1\n      sstore\n      pop\n        /* \"Marketplace.sol\":2458:2474  idToBuyerAddress */\n      0x02\n        /* \"Marketplace.sol\":2458:2483  idToBuyerAddress[_itemId] */\n      0x00\n        /* \"Marketplace.sol\":2475:2482  _itemId */\n      dup7\n        /* \"Marketplace.sol\":2458:2483  idToBuyerAddress[_itemId] */\n      dup2\n      mstore\n      0x20\n      add\n      swap1\n      dup2\n      mstore\n      0x20\n      add\n      0x00\n      keccak256\n        /* \"Marketplace.sol\":2489:2499  msg.sender */\n      caller\n        /* \"Marketplace.sol\":2458:2500  idToBuyerAddress[_itemId].push(msg.sender) */\n      swap1\n      dup1\n      0x01\n      dup2\n      sload\n      add\n      dup1\n      dup3\n      sstore\n      dup1\n      swap2\n      pop\n      pop\n      0x01\n      swap1\n      sub\n      swap1\n      0x00\n      mstore\n      keccak256(0x00, 0x20)\n      add\n      0x00\n      swap1\n      swap2\n      swap1\n      swap2\n      swap1\n      swap2\n      0x0100\n      exp\n      dup2\n      sload\n      dup2\n      0xffffffffffffffffffffffffffffffffffffffff\n      mul\n      not\n      and\n      swap1\n      dup4\n      0xffffffffffffffffffffffffffffffffffffffff\n      and\n      mul\n      or\n      swap1\n      sstore\n      pop\n        /* \"Marketplace.sol\":2516:2607  BuyItem(_itemId, idToMarketItem[_itemId].price, idToMarketItem[_itemId].seller, msg.sender) */\n      0xf2f622c4ee3232d0d08c3870751d38ddef2eaf0e7e0c5d38239c7dc8921ca680\n        /* \"Marketplace.sol\":2524:2531  _itemId */\n      dup6\n        /* \"Marketplace.sol\":2533:2547  idToMarketItem */\n      0x03\n        /* \"Marketplace.sol\":2533:2556  idToMarketItem[_itemId] */\n      0x00\n        /* \"Marketplace.sol\":2548:2555  _itemId */\n      dup9\n        /* \"Marketplace.sol\":2533:2556  idToMarketItem[_itemId] */\n      dup2\n      mstore\n      0x20\n      add\n      swap1\n      dup2\n      mstore\n      0x20\n      add\n      0x00\n      keccak256\n        /* \"Marketplace.sol\":2533:2562  idToMarketItem[_itemId].price */\n      0x03\n      add\n      sload\n        /* \"Marketplace.sol\":2564:2578  idToMarketItem */\n      0x03\n        /* \"Marketplace.sol\":2564:2587  idToMarketItem[_itemId] */\n      0x00\n        /* \"Marketplace.sol\":2579:2586  _itemId */\n      dup10\n        /* \"Marketplace.sol\":2564:2587  idToMarketItem[_itemId] */\n      dup2\n      mstore\n      0x20\n      add\n      swap1\n      dup2\n      mstore\n      0x20\n      add\n      0x00\n      keccak256\n        /* \"Marketplace.sol\":2564:2594  idToMarketItem[_itemId].seller */\n      0x04\n      add\n      0x00\n      swap1\n      sload\n      swap1\n      0x0100\n      exp\n      swap1\n      div\n      0xffffffffffffffffffffffffffffffffffffffff\n      and\n        /* \"Marketplace.sol\":2596:2606  msg.sender */\n      caller\n        /* \"Marketplace.sol\":2516:2607  BuyItem(_itemId, idToMarketItem[_itemId].price, idToMarketItem[_itemId].seller, msg.sender) */\n      mload(0x40)\n      tag_178\n      swap5\n      swap4\n      swap3\n      swap2\n      swap1\n      tag_179\n      jump\t// in\n    tag_178:\n      mload(0x40)\n      dup1\n      swap2\n      sub\n      swap1\n      log1\n        /* \"Marketplace.sol\":1240:1769  {\r... */\n      pop\n        /* \"Marketplace.sol\":2224:2615  function buyMarketItem(uint256 _itemId, uint8 _quantity) public payable canBuyProduct(_itemId, _quantity) {\r... */\n      pop\n      pop\n      pop\n      pop\n      jump\t// out\n        /* \"@openzeppelin/contracts/access/AccessControl.sol\":4008:4137  function getRoleAdmin(bytes32 role) public view virtual override returns (bytes32) {... */\n    tag_46:\n        /* \"@openzeppelin/contracts/access/AccessControl.sol\":4082:4089  bytes32 */\n      0x00\n        /* \"@openzeppelin/contracts/access/AccessControl.sol\":4108:4114  _roles */\n      dup1\n        /* \"@openzeppelin/contracts/access/AccessControl.sol\":4108:4120  _roles[role] */\n      0x00\n        /* \"@openzeppelin/contracts/access/AccessControl.sol\":4115:4119  role */\n      dup4\n        /* \"@openzeppelin/contracts/access/AccessControl.sol\":4108:4120  _roles[role] */\n      dup2\n      mstore\n      0x20\n      add\n      swap1\n      dup2\n      mstore\n      0x20\n      add\n      0x00\n      keccak256\n        /* \"@openzeppelin/contracts/access/AccessControl.sol\":4108:4130  _roles[role].adminRole */\n      0x01\n      add\n      sload\n        /* \"@openzeppelin/contracts/access/AccessControl.sol\":4101:4130  return _roles[role].adminRole */\n      swap1\n      pop\n        /* \"@openzeppelin/contracts/access/AccessControl.sol\":4008:4137  function getRoleAdmin(bytes32 role) public view virtual override returns (bytes32) {... */\n      swap2\n      swap1\n      pop\n      jump\t// out\n        /* \"@openzeppelin/contracts/access/AccessControl.sol\":4387:4532  function grantRole(bytes32 role, address account) public virtual override onlyRole(getRoleAdmin(role)) {... */\n    tag_53:\n        /* \"@openzeppelin/contracts/access/AccessControl.sol\":4470:4488  getRoleAdmin(role) */\n      tag_181\n        /* \"@openzeppelin/contracts/access/AccessControl.sol\":4483:4487  role */\n      dup3\n        /* \"@openzeppelin/contracts/access/AccessControl.sol\":4470:4482  getRoleAdmin */\n      tag_46\n        /* \"@openzeppelin/contracts/access/AccessControl.sol\":4470:4488  getRoleAdmin(role) */\n      jump\t// in\n    tag_181:\n        /* \"@openzeppelin/contracts/access/AccessControl.sol\":2505:2535  _checkRole(role, _msgSender()) */\n      tag_183\n        /* \"@openzeppelin/contracts/access/AccessControl.sol\":2516:2520  role */\n      dup2\n        /* \"@openzeppelin/contracts/access/AccessControl.sol\":2522:2534  _msgSender() */\n      tag_184\n        /* \"@openzeppelin/contracts/access/AccessControl.sol\":2522:2532  _msgSender */\n      tag_185\n        /* \"@openzeppelin/contracts/access/AccessControl.sol\":2522:2534  _msgSender() */\n      jump\t// in\n    tag_184:\n        /* \"@openzeppelin/contracts/access/AccessControl.sol\":2505:2515  _checkRole */\n      tag_186\n        /* \"@openzeppelin/contracts/access/AccessControl.sol\":2505:2535  _checkRole(role, _msgSender()) */\n      jump\t// in\n    tag_183:\n        /* \"@openzeppelin/contracts/access/AccessControl.sol\":4500:4525  _grantRole(role, account) */\n      tag_188\n        /* \"@openzeppelin/contracts/access/AccessControl.sol\":4511:4515  role */\n      dup4\n        /* \"@openzeppelin/contracts/access/AccessControl.sol\":4517:4524  account */\n      dup4\n        /* \"@openzeppelin/contracts/access/AccessControl.sol\":4500:4510  _grantRole */\n      tag_189\n        /* \"@openzeppelin/contracts/access/AccessControl.sol\":4500:4525  _grantRole(role, account) */\n      jump\t// in\n    tag_188:\n        /* \"@openzeppelin/contracts/access/AccessControl.sol\":4387:4532  function grantRole(bytes32 role, address account) public virtual override onlyRole(getRoleAdmin(role)) {... */\n      pop\n      pop\n      pop\n      jump\t// out\n        /* \"@openzeppelin/contracts/access/AccessControl.sol\":5404:5618  function renounceRole(bytes32 role, address account) public virtual override {... */\n    tag_57:\n        /* \"@openzeppelin/contracts/access/AccessControl.sol\":5510:5522  _msgSender() */\n      tag_191\n        /* \"@openzeppelin/contracts/access/AccessControl.sol\":5510:5520  _msgSender */\n      tag_185\n        /* \"@openzeppelin/contracts/access/AccessControl.sol\":5510:5522  _msgSender() */\n      jump\t// in\n    tag_191:\n        /* \"@openzeppelin/contracts/access/AccessControl.sol\":5499:5522  account == _msgSender() */\n      0xffffffffffffffffffffffffffffffffffffffff\n      and\n        /* \"@openzeppelin/contracts/access/AccessControl.sol\":5499:5506  account */\n      dup2\n        /* \"@openzeppelin/contracts/access/AccessControl.sol\":5499:5522  account == _msgSender() */\n      0xffffffffffffffffffffffffffffffffffffffff\n      and\n      eq\n        /* \"@openzeppelin/contracts/access/AccessControl.sol\":5491:5574  require(account == _msgSender(), \"AccessControl: can only renounce roles for self\") */\n      tag_192\n      jumpi\n      mload(0x40)\n      0x08c379a000000000000000000000000000000000000000000000000000000000\n      dup2\n      mstore\n      0x04\n      add\n      tag_193\n      swap1\n      tag_194\n      jump\t// in\n    tag_193:\n      mload(0x40)\n      dup1\n      swap2\n      sub\n      swap1\n      revert\n    tag_192:\n        /* \"@openzeppelin/contracts/access/AccessControl.sol\":5585:5611  _revokeRole(role, account) */\n      tag_195\n        /* \"@openzeppelin/contracts/access/AccessControl.sol\":5597:5601  role */\n      dup3\n        /* \"@openzeppelin/contracts/access/AccessControl.sol\":5603:5610  account */\n      dup3\n        /* \"@openzeppelin/contracts/access/AccessControl.sol\":5585:5596  _revokeRole */\n      tag_196\n        /* \"@openzeppelin/contracts/access/AccessControl.sol\":5585:5611  _revokeRole(role, account) */\n      jump\t// in\n    tag_195:\n        /* \"@openzeppelin/contracts/access/AccessControl.sol\":5404:5618  function renounceRole(bytes32 role, address account) public virtual override {... */\n      pop\n      pop\n      jump\t// out\n        /* \"Marketplace.sol\":249:278  uint256 public nextItemId = 0 */\n    tag_60:\n      sload(0x01)\n      dup2\n      jump\t// out\n        /* \"Marketplace.sol\":1779:2216  function createMarketItem(string memory _title, string memory _description, uint256 _price, string memory _imageUrl, uint8 _quantity, bool _isActive) public {\r... */\n    tag_67:\n        /* \"Marketplace.sol\":1964:1965  0 */\n      0x00\n        /* \"Marketplace.sol\":1955:1961  _price */\n      dup5\n        /* \"Marketplace.sol\":1955:1965  _price > 0 */\n      gt\n        /* \"Marketplace.sol\":1947:1998  require(_price > 0, \"Price must be greater than 0\") */\n      tag_198\n      jumpi\n      mload(0x40)\n      0x08c379a000000000000000000000000000000000000000000000000000000000\n      dup2\n      mstore\n      0x04\n      add\n      tag_199\n      swap1\n      tag_200\n      jump\t// in\n    tag_199:\n      mload(0x40)\n      dup1\n      swap2\n      sub\n      swap1\n      revert\n    tag_198:\n        /* \"Marketplace.sol\":2038:2185  MarketItem(nextItemId, _title, _description, _price, payable(msg.sender), _imageUrl, _quantity, block.timestamp, block.timestamp, _isActive, false) */\n      mload(0x40)\n      dup1\n      0x0160\n      add\n      0x40\n      mstore\n      dup1\n        /* \"Marketplace.sol\":2049:2059  nextItemId */\n      sload(0x01)\n        /* \"Marketplace.sol\":2038:2185  MarketItem(nextItemId, _title, _description, _price, payable(msg.sender), _imageUrl, _quantity, block.timestamp, block.timestamp, _isActive, false) */\n      dup2\n      mstore\n      0x20\n      add\n        /* \"Marketplace.sol\":2061:2067  _title */\n      dup8\n        /* \"Marketplace.sol\":2038:2185  MarketItem(nextItemId, _title, _description, _price, payable(msg.sender), _imageUrl, _quantity, block.timestamp, block.timestamp, _isActive, false) */\n      dup2\n      mstore\n      0x20\n      add\n        /* \"Marketplace.sol\":2069:2081  _description */\n      dup7\n        /* \"Marketplace.sol\":2038:2185  MarketItem(nextItemId, _title, _description, _price, payable(msg.sender), _imageUrl, _quantity, block.timestamp, block.timestamp, _isActive, false) */\n      dup2\n      mstore\n      0x20\n      add\n        /* \"Marketplace.sol\":2083:2089  _price */\n      dup6\n        /* \"Marketplace.sol\":2038:2185  MarketItem(nextItemId, _title, _description, _price, payable(msg.sender), _imageUrl, _quantity, block.timestamp, block.timestamp, _isActive, false) */\n      dup2\n      mstore\n      0x20\n      add\n        /* \"Marketplace.sol\":2099:2109  msg.sender */\n      caller\n        /* \"Marketplace.sol\":2038:2185  MarketItem(nextItemId, _title, _description, _price, payable(msg.sender), _imageUrl, _quantity, block.timestamp, block.timestamp, _isActive, false) */\n      0xffffffffffffffffffffffffffffffffffffffff\n      and\n      dup2\n      mstore\n      0x20\n      add\n        /* \"Marketplace.sol\":2112:2121  _imageUrl */\n      dup5\n        /* \"Marketplace.sol\":2038:2185  MarketItem(nextItemId, _title, _description, _price, payable(msg.sender), _imageUrl, _quantity, block.timestamp, block.timestamp, _isActive, false) */\n      dup2\n      mstore\n      0x20\n      add\n        /* \"Marketplace.sol\":2123:2132  _quantity */\n      dup4\n        /* \"Marketplace.sol\":2038:2185  MarketItem(nextItemId, _title, _description, _price, payable(msg.sender), _imageUrl, _quantity, block.timestamp, block.timestamp, _isActive, false) */\n      0xff\n      and\n      dup2\n      mstore\n      0x20\n      add\n        /* \"Marketplace.sol\":2134:2149  block.timestamp */\n      timestamp\n        /* \"Marketplace.sol\":2038:2185  MarketItem(nextItemId, _title, _description, _price, payable(msg.sender), _imageUrl, _quantity, block.timestamp, block.timestamp, _isActive, false) */\n      dup2\n      mstore\n      0x20\n      add\n        /* \"Marketplace.sol\":2151:2166  block.timestamp */\n      timestamp\n        /* \"Marketplace.sol\":2038:2185  MarketItem(nextItemId, _title, _description, _price, payable(msg.sender), _imageUrl, _quantity, block.timestamp, block.timestamp, _isActive, false) */\n      dup2\n      mstore\n      0x20\n      add\n        /* \"Marketplace.sol\":2168:2177  _isActive */\n      dup3\n        /* \"Marketplace.sol\":2038:2185  MarketItem(nextItemId, _title, _description, _price, payable(msg.sender), _imageUrl, _quantity, block.timestamp, block.timestamp, _isActive, false) */\n      iszero\n      iszero\n      dup2\n      mstore\n      0x20\n      add\n        /* \"Marketplace.sol\":2179:2184  false */\n      0x00\n        /* \"Marketplace.sol\":2038:2185  MarketItem(nextItemId, _title, _description, _price, payable(msg.sender), _imageUrl, _quantity, block.timestamp, block.timestamp, _isActive, false) */\n      iszero\n      iszero\n      dup2\n      mstore\n      pop\n        /* \"Marketplace.sol\":2009:2023  idToMarketItem */\n      0x03\n        /* \"Marketplace.sol\":2009:2035  idToMarketItem[nextItemId] */\n      0x00\n        /* \"Marketplace.sol\":2024:2034  nextItemId */\n      sload(0x01)\n        /* \"Marketplace.sol\":2009:2035  idToMarketItem[nextItemId] */\n      dup2\n      mstore\n      0x20\n      add\n      swap1\n      dup2\n      mstore\n      0x20\n      add\n      0x00\n      keccak256\n        /* \"Marketplace.sol\":2009:2185  idToMarketItem[nextItemId] = MarketItem(nextItemId, _title, _description, _price, payable(msg.sender), _imageUrl, _quantity, block.timestamp, block.timestamp, _isActive, false) */\n      0x00\n      dup3\n      add\n      mload\n      dup2\n      0x00\n      add\n      sstore\n      0x20\n      dup3\n      add\n      mload\n      dup2\n      0x01\n      add\n      swap1\n      dup1\n      mload\n      swap1\n      0x20\n      add\n      swap1\n      tag_201\n      swap3\n      swap2\n      swap1\n      tag_202\n      jump\t// in\n    tag_201:\n      pop\n      0x40\n      dup3\n      add\n      mload\n      dup2\n      0x02\n      add\n      swap1\n      dup1\n      mload\n      swap1\n      0x20\n      add\n      swap1\n      tag_203\n      swap3\n      swap2\n      swap1\n      tag_202\n      jump\t// in\n    tag_203:\n      pop\n      0x60\n      dup3\n      add\n      mload\n      dup2\n      0x03\n      add\n      sstore\n      0x80\n      dup3\n      add\n      mload\n      dup2\n      0x04\n      add\n      exp(0x0100, 0x00)\n      dup2\n      sload\n      dup2\n      0xffffffffffffffffffffffffffffffffffffffff\n      mul\n      not\n      and\n      swap1\n      dup4\n      0xffffffffffffffffffffffffffffffffffffffff\n      and\n      mul\n      or\n      swap1\n      sstore\n      pop\n      0xa0\n      dup3\n      add\n      mload\n      dup2\n      0x05\n      add\n      swap1\n      dup1\n      mload\n      swap1\n      0x20\n      add\n      swap1\n      tag_204\n      swap3\n      swap2\n      swap1\n      tag_202\n      jump\t// in\n    tag_204:\n      pop\n      0xc0\n      dup3\n      add\n      mload\n      dup2\n      0x06\n      add\n      exp(0x0100, 0x00)\n      dup2\n      sload\n      dup2\n      0xff\n      mul\n      not\n      and\n      swap1\n      dup4\n      0xff\n      and\n      mul\n      or\n      swap1\n      sstore\n      pop\n      0xe0\n      dup3\n      add\n      mload\n      dup2\n      0x07\n      add\n      sstore\n      0x0100\n      dup3\n      add\n      mload\n      dup2\n      0x08\n      add\n      sstore\n      0x0120\n      dup3\n      add\n      mload\n      dup2\n      0x09\n      add\n      exp(0x0100, 0x00)\n      dup2\n      sload\n      dup2\n      0xff\n      mul\n      not\n      and\n      swap1\n      dup4\n      iszero\n      iszero\n      mul\n      or\n      swap1\n      sstore\n      pop\n      0x0140\n      dup3\n      add\n      mload\n      dup2\n      0x09\n      add\n      exp(0x0100, 0x01)\n      dup2\n      sload\n      dup2\n      0xff\n      mul\n      not\n      and\n      swap1\n      dup4\n      iszero\n      iszero\n      mul\n      or\n      swap1\n      sstore\n      pop\n      swap1\n      pop\n      pop\n        /* \"Marketplace.sol\":2196:2206  nextItemId */\n      0x01\n      0x00\n        /* \"Marketplace.sol\":2196:2208  nextItemId++ */\n      dup2\n      sload\n      dup1\n      swap3\n      swap2\n      swap1\n      tag_205\n      swap1\n      tag_206\n      jump\t// in\n    tag_205:\n      swap2\n      swap1\n      pop\n      sstore\n      pop\n        /* \"Marketplace.sol\":1779:2216  function createMarketItem(string memory _title, string memory _description, uint256 _price, string memory _imageUrl, uint8 _quantity, bool _isActive) public {\r... */\n      pop\n      pop\n      pop\n      pop\n      pop\n      pop\n      jump\t// out\n        /* \"Marketplace.sol\":5587:6105  function getAverageStars(uint256 _itemId) public view returns (uint256) {\r... */\n    tag_72:\n        /* \"Marketplace.sol\":5650:5657  uint256 */\n      0x00\n        /* \"Marketplace.sol\":5670:5685  uint256 voteSum */\n      dup1\n        /* \"Marketplace.sol\":5688:5689  0 */\n      0x00\n        /* \"Marketplace.sol\":5670:5689  uint256 voteSum = 0 */\n      swap1\n      pop\n        /* \"Marketplace.sol\":5700:5717  uint256 voteCount */\n      0x00\n        /* \"Marketplace.sol\":5747:5756  uint256 i */\n      dup1\n        /* \"Marketplace.sol\":5742:6051  for (uint256 i = 0; i < idToBuyerAddress[_itemId].length; i++) {\r... */\n    tag_208:\n        /* \"Marketplace.sol\":5766:5782  idToBuyerAddress */\n      0x02\n        /* \"Marketplace.sol\":5766:5791  idToBuyerAddress[_itemId] */\n      0x00\n        /* \"Marketplace.sol\":5783:5790  _itemId */\n      dup7\n        /* \"Marketplace.sol\":5766:5791  idToBuyerAddress[_itemId] */\n      dup2\n      mstore\n      0x20\n      add\n      swap1\n      dup2\n      mstore\n      0x20\n      add\n      0x00\n      keccak256\n        /* \"Marketplace.sol\":5766:5798  idToBuyerAddress[_itemId].length */\n      dup1\n      sload\n      swap1\n      pop\n        /* \"Marketplace.sol\":5762:5763  i */\n      dup2\n        /* \"Marketplace.sol\":5762:5798  i < idToBuyerAddress[_itemId].length */\n      lt\n        /* \"Marketplace.sol\":5742:6051  for (uint256 i = 0; i < idToBuyerAddress[_itemId].length; i++) {\r... */\n      iszero\n      tag_209\n      jumpi\n        /* \"Marketplace.sol\":5820:5833  address buyer */\n      0x00\n        /* \"Marketplace.sol\":5836:5852  idToBuyerAddress */\n      0x02\n        /* \"Marketplace.sol\":5836:5861  idToBuyerAddress[_itemId] */\n      0x00\n        /* \"Marketplace.sol\":5853:5860  _itemId */\n      dup8\n        /* \"Marketplace.sol\":5836:5861  idToBuyerAddress[_itemId] */\n      dup2\n      mstore\n      0x20\n      add\n      swap1\n      dup2\n      mstore\n      0x20\n      add\n      0x00\n      keccak256\n        /* \"Marketplace.sol\":5862:5863  i */\n      dup3\n        /* \"Marketplace.sol\":5836:5864  idToBuyerAddress[_itemId][i] */\n      dup2\n      sload\n      dup2\n      lt\n      tag_211\n      jumpi\n      tag_212\n      tag_213\n      jump\t// in\n    tag_212:\n    tag_211:\n      swap1\n      0x00\n      mstore\n      keccak256(0x00, 0x20)\n      add\n      0x00\n      swap1\n      sload\n      swap1\n      0x0100\n      exp\n      swap1\n      div\n      0xffffffffffffffffffffffffffffffffffffffff\n      and\n        /* \"Marketplace.sol\":5820:5864  address buyer = idToBuyerAddress[_itemId][i] */\n      swap1\n      pop\n        /* \"Marketplace.sol\":5924:5925  0 */\n      0x00\n        /* \"Marketplace.sol\":5883:5904  addressToProductVotes */\n      0x04\n        /* \"Marketplace.sol\":5883:5911  addressToProductVotes[buyer] */\n      0x00\n        /* \"Marketplace.sol\":5905:5910  buyer */\n      dup4\n        /* \"Marketplace.sol\":5883:5911  addressToProductVotes[buyer] */\n      0xffffffffffffffffffffffffffffffffffffffff\n      and\n      0xffffffffffffffffffffffffffffffffffffffff\n      and\n      dup2\n      mstore\n      0x20\n      add\n      swap1\n      dup2\n      mstore\n      0x20\n      add\n      0x00\n      keccak256\n        /* \"Marketplace.sol\":5883:5920  addressToProductVotes[buyer][_itemId] */\n      0x00\n        /* \"Marketplace.sol\":5912:5919  _itemId */\n      dup9\n        /* \"Marketplace.sol\":5883:5920  addressToProductVotes[buyer][_itemId] */\n      dup2\n      mstore\n      0x20\n      add\n      swap1\n      dup2\n      mstore\n      0x20\n      add\n      0x00\n      keccak256\n      0x00\n      swap1\n      sload\n      swap1\n      0x0100\n      exp\n      swap1\n      div\n      0xff\n      and\n        /* \"Marketplace.sol\":5883:5925  addressToProductVotes[buyer][_itemId] != 0 */\n      0xff\n      and\n      eq\n        /* \"Marketplace.sol\":5879:6040  if (addressToProductVotes[buyer][_itemId] != 0) {\r... */\n      tag_215\n      jumpi\n        /* \"Marketplace.sol\":5957:5978  addressToProductVotes */\n      0x04\n        /* \"Marketplace.sol\":5957:5985  addressToProductVotes[buyer] */\n      0x00\n        /* \"Marketplace.sol\":5979:5984  buyer */\n      dup3\n        /* \"Marketplace.sol\":5957:5985  addressToProductVotes[buyer] */\n      0xffffffffffffffffffffffffffffffffffffffff\n      and\n      0xffffffffffffffffffffffffffffffffffffffff\n      and\n      dup2\n      mstore\n      0x20\n      add\n      swap1\n      dup2\n      mstore\n      0x20\n      add\n      0x00\n      keccak256\n        /* \"Marketplace.sol\":5957:5994  addressToProductVotes[buyer][_itemId] */\n      0x00\n        /* \"Marketplace.sol\":5986:5993  _itemId */\n      dup8\n        /* \"Marketplace.sol\":5957:5994  addressToProductVotes[buyer][_itemId] */\n      dup2\n      mstore\n      0x20\n      add\n      swap1\n      dup2\n      mstore\n      0x20\n      add\n      0x00\n      keccak256\n      0x00\n      swap1\n      sload\n      swap1\n      0x0100\n      exp\n      swap1\n      div\n      0xff\n      and\n        /* \"Marketplace.sol\":5946:5994  voteSum += addressToProductVotes[buyer][_itemId] */\n      0xff\n      and\n      dup5\n      tag_216\n      swap2\n      swap1\n      tag_217\n      jump\t// in\n    tag_216:\n      swap4\n      pop\n        /* \"Marketplace.sol\":6013:6024  voteCount++ */\n      dup3\n      dup1\n      tag_218\n      swap1\n      tag_206\n      jump\t// in\n    tag_218:\n      swap4\n      pop\n      pop\n        /* \"Marketplace.sol\":5879:6040  if (addressToProductVotes[buyer][_itemId] != 0) {\r... */\n    tag_215:\n        /* \"Marketplace.sol\":5805:6051  {\r... */\n      pop\n        /* \"Marketplace.sol\":5800:5803  i++ */\n      dup1\n      dup1\n      tag_219\n      swap1\n      tag_206\n      jump\t// in\n    tag_219:\n      swap2\n      pop\n      pop\n        /* \"Marketplace.sol\":5742:6051  for (uint256 i = 0; i < idToBuyerAddress[_itemId].length; i++) {\r... */\n      jump(tag_208)\n    tag_209:\n      pop\n        /* \"Marketplace.sol\":6088:6097  voteCount */\n      dup1\n        /* \"Marketplace.sol\":6081:6084  100 */\n      0x64\n        /* \"Marketplace.sol\":6071:6078  voteSum */\n      dup4\n        /* \"Marketplace.sol\":6071:6084  voteSum * 100 */\n      tag_220\n      swap2\n      swap1\n      tag_168\n      jump\t// in\n    tag_220:\n        /* \"Marketplace.sol\":6070:6097  (voteSum * 100) / voteCount */\n      tag_221\n      swap2\n      swap1\n      tag_222\n      jump\t// in\n    tag_221:\n        /* \"Marketplace.sol\":6063:6097  return (voteSum * 100) / voteCount */\n      swap3\n      pop\n      pop\n      pop\n        /* \"Marketplace.sol\":5587:6105  function getAverageStars(uint256 _itemId) public view returns (uint256) {\r... */\n      swap2\n      swap1\n      pop\n      jump\t// out\n        /* \"Marketplace.sol\":2921:3259  function getMarketItemDetails(uint256 _itemId) public view returns (string memory description, string memory imageUrl, uint8 quantity, uint256 createdAt, uint256 updatedAt) {\r... */\n    tag_77:\n        /* \"Marketplace.sol\":2989:3014  string memory description */\n      0x60\n        /* \"Marketplace.sol\":3016:3038  string memory imageUrl */\n      dup1\n        /* \"Marketplace.sol\":3040:3054  uint8 quantity */\n      0x00\n        /* \"Marketplace.sol\":3056:3073  uint256 createdAt */\n      dup1\n        /* \"Marketplace.sol\":3075:3092  uint256 updatedAt */\n      0x00\n        /* \"Marketplace.sol\":3105:3127  MarketItem memory item */\n      dup1\n        /* \"Marketplace.sol\":3130:3144  idToMarketItem */\n      0x03\n        /* \"Marketplace.sol\":3130:3153  idToMarketItem[_itemId] */\n      0x00\n        /* \"Marketplace.sol\":3145:3152  _itemId */\n      dup9\n        /* \"Marketplace.sol\":3130:3153  idToMarketItem[_itemId] */\n      dup2\n      mstore\n      0x20\n      add\n      swap1\n      dup2\n      mstore\n      0x20\n      add\n      0x00\n      keccak256\n        /* \"Marketplace.sol\":3105:3153  MarketItem memory item = idToMarketItem[_itemId] */\n      mload(0x40)\n      dup1\n      0x0160\n      add\n      0x40\n      mstore\n      swap1\n      dup2\n      0x00\n      dup3\n      add\n      sload\n      dup2\n      mstore\n      0x20\n      add\n      0x01\n      dup3\n      add\n      dup1\n      sload\n      tag_224\n      swap1\n      tag_225\n      jump\t// in\n    tag_224:\n      dup1\n      0x1f\n      add\n      0x20\n      dup1\n      swap2\n      div\n      mul\n      0x20\n      add\n      mload(0x40)\n      swap1\n      dup2\n      add\n      0x40\n      mstore\n      dup1\n      swap3\n      swap2\n      swap1\n      dup2\n      dup2\n      mstore\n      0x20\n      add\n      dup3\n      dup1\n      sload\n      tag_226\n      swap1\n      tag_225\n      jump\t// in\n    tag_226:\n      dup1\n      iszero\n      tag_227\n      jumpi\n      dup1\n      0x1f\n      lt\n      tag_228\n      jumpi\n      0x0100\n      dup1\n      dup4\n      sload\n      div\n      mul\n      dup4\n      mstore\n      swap2\n      0x20\n      add\n      swap2\n      jump(tag_227)\n    tag_228:\n      dup3\n      add\n      swap2\n      swap1\n      0x00\n      mstore\n      keccak256(0x00, 0x20)\n      swap1\n    tag_229:\n      dup2\n      sload\n      dup2\n      mstore\n      swap1\n      0x01\n      add\n      swap1\n      0x20\n      add\n      dup1\n      dup4\n      gt\n      tag_229\n      jumpi\n      dup3\n      swap1\n      sub\n      0x1f\n      and\n      dup3\n      add\n      swap2\n    tag_227:\n      pop\n      pop\n      pop\n      pop\n      pop\n      dup2\n      mstore\n      0x20\n      add\n      0x02\n      dup3\n      add\n      dup1\n      sload\n      tag_230\n      swap1\n      tag_225\n      jump\t// in\n    tag_230:\n      dup1\n      0x1f\n      add\n      0x20\n      dup1\n      swap2\n      div\n      mul\n      0x20\n      add\n      mload(0x40)\n      swap1\n      dup2\n      add\n      0x40\n      mstore\n      dup1\n      swap3\n      swap2\n      swap1\n      dup2\n      dup2\n      mstore\n      0x20\n      add\n      dup3\n      dup1\n      sload\n      tag_231\n      swap1\n      tag_225\n      jump\t// in\n    tag_231:\n      dup1\n      iszero\n      tag_232\n      jumpi\n      dup1\n      0x1f\n      lt\n      tag_233\n      jumpi\n      0x0100\n      dup1\n      dup4\n      sload\n      div\n      mul\n      dup4\n      mstore\n      swap2\n      0x20\n      add\n      swap2\n      jump(tag_232)\n    tag_233:\n      dup3\n      add\n      swap2\n      swap1\n      0x00\n      mstore\n      keccak256(0x00, 0x20)\n      swap1\n    tag_234:\n      dup2\n      sload\n      dup2\n      mstore\n      swap1\n      0x01\n      add\n      swap1\n      0x20\n      add\n      dup1\n      dup4\n      gt\n      tag_234\n      jumpi\n      dup3\n      swap1\n      sub\n      0x1f\n      and\n      dup3\n      add\n      swap2\n    tag_232:\n      pop\n      pop\n      pop\n      pop\n      pop\n      dup2\n      mstore\n      0x20\n      add\n      0x03\n      dup3\n      add\n      sload\n      dup2\n      mstore\n      0x20\n      add\n      0x04\n      dup3\n      add\n      0x00\n      swap1\n      sload\n      swap1\n      0x0100\n      exp\n      swap1\n      div\n      0xffffffffffffffffffffffffffffffffffffffff\n      and\n      0xffffffffffffffffffffffffffffffffffffffff\n      and\n      0xffffffffffffffffffffffffffffffffffffffff\n      and\n      dup2\n      mstore\n      0x20\n      add\n      0x05\n      dup3\n      add\n      dup1\n      sload\n      tag_235\n      swap1\n      tag_225\n      jump\t// in\n    tag_235:\n      dup1\n      0x1f\n      add\n      0x20\n      dup1\n      swap2\n      div\n      mul\n      0x20\n      add\n      mload(0x40)\n      swap1\n      dup2\n      add\n      0x40\n      mstore\n      dup1\n      swap3\n      swap2\n      swap1\n      dup2\n      dup2\n      mstore\n      0x20\n      add\n      dup3\n      dup1\n      sload\n      tag_236\n      swap1\n      tag_225\n      jump\t// in\n    tag_236:\n      dup1\n      iszero\n      tag_237\n      jumpi\n      dup1\n      0x1f\n      lt\n      tag_238\n      jumpi\n      0x0100\n      dup1\n      dup4\n      sload\n      div\n      mul\n      dup4\n      mstore\n      swap2\n      0x20\n      add\n      swap2\n      jump(tag_237)\n    tag_238:\n      dup3\n      add\n      swap2\n      swap1\n      0x00\n      mstore\n      keccak256(0x00, 0x20)\n      swap1\n    tag_239:\n      dup2\n      sload\n      dup2\n      mstore\n      swap1\n      0x01\n      add\n      swap1\n      0x20\n      add\n      dup1\n      dup4\n      gt\n      tag_239\n      jumpi\n      dup3\n      swap1\n      sub\n      0x1f\n      and\n      dup3\n      add\n      swap2\n    tag_237:\n      pop\n      pop\n      pop\n      pop\n      pop\n      dup2\n      mstore\n      0x20\n      add\n      0x06\n      dup3\n      add\n      0x00\n      swap1\n      sload\n      swap1\n      0x0100\n      exp\n      swap1\n      div\n      0xff\n      and\n      0xff\n      and\n      0xff\n      and\n      dup2\n      mstore\n      0x20\n      add\n      0x07\n      dup3\n      add\n      sload\n      dup2\n      mstore\n      0x20\n      add\n      0x08\n      dup3\n      add\n      sload\n      dup2\n      mstore\n      0x20\n      add\n      0x09\n      dup3\n      add\n      0x00\n      swap1\n      sload\n      swap1\n      0x0100\n      exp\n      swap1\n      div\n      0xff\n      and\n      iszero\n      iszero\n      iszero\n      iszero\n      dup2\n      mstore\n      0x20\n      add\n      0x09\n      dup3\n      add\n      0x01\n      swap1\n      sload\n      swap1\n      0x0100\n      exp\n      swap1\n      div\n      0xff\n      and\n      iszero\n      iszero\n      iszero\n      iszero\n      dup2\n      mstore\n      pop\n      pop\n      swap1\n      pop\n        /* \"Marketplace.sol\":3172:3176  item */\n      dup1\n        /* \"Marketplace.sol\":3172:3188  item.description */\n      0x40\n      add\n      mload\n        /* \"Marketplace.sol\":3190:3194  item */\n      dup2\n        /* \"Marketplace.sol\":3190:3203  item.imageUrl */\n      0xa0\n      add\n      mload\n        /* \"Marketplace.sol\":3205:3209  item */\n      dup3\n        /* \"Marketplace.sol\":3205:3218  item.quantity */\n      0xc0\n      add\n      mload\n        /* \"Marketplace.sol\":3220:3224  item */\n      dup4\n        /* \"Marketplace.sol\":3220:3234  item.createdAt */\n      0xe0\n      add\n      mload\n        /* \"Marketplace.sol\":3236:3240  item */\n      dup5\n        /* \"Marketplace.sol\":3236:3250  item.updatedAt */\n      0x0100\n      add\n      mload\n        /* \"Marketplace.sol\":3164:3251  return (item.description, item.imageUrl, item.quantity, item.createdAt, item.updatedAt) */\n      swap6\n      pop\n      swap6\n      pop\n      swap6\n      pop\n      swap6\n      pop\n      swap6\n      pop\n      pop\n        /* \"Marketplace.sol\":2921:3259  function getMarketItemDetails(uint256 _itemId) public view returns (string memory description, string memory imageUrl, uint8 quantity, uint256 createdAt, uint256 updatedAt) {\r... */\n      swap2\n      swap4\n      swap6\n      swap1\n      swap3\n      swap5\n      pop\n      jump\t// out\n        /* \"Marketplace.sol\":3267:3514  function updateMarketItemDescription(uint256 _itemId, string memory _description) public onlyProductSeller(_itemId) {\r... */\n    tag_84:\n        /* \"Marketplace.sol\":3374:3381  _itemId */\n      dup2\n        /* \"Marketplace.sol\":1076:1090  idToMarketItem */\n      0x03\n        /* \"Marketplace.sol\":1076:1099  idToMarketItem[_itemId] */\n      0x00\n        /* \"Marketplace.sol\":1091:1098  _itemId */\n      dup3\n        /* \"Marketplace.sol\":1076:1099  idToMarketItem[_itemId] */\n      dup2\n      mstore\n      0x20\n      add\n      swap1\n      dup2\n      mstore\n      0x20\n      add\n      0x00\n      keccak256\n        /* \"Marketplace.sol\":1076:1106  idToMarketItem[_itemId].seller */\n      0x04\n      add\n      0x00\n      swap1\n      sload\n      swap1\n      0x0100\n      exp\n      swap1\n      div\n      0xffffffffffffffffffffffffffffffffffffffff\n      and\n        /* \"Marketplace.sol\":1062:1106  msg.sender == idToMarketItem[_itemId].seller */\n      0xffffffffffffffffffffffffffffffffffffffff\n      and\n        /* \"Marketplace.sol\":1062:1072  msg.sender */\n      caller\n        /* \"Marketplace.sol\":1062:1106  msg.sender == idToMarketItem[_itemId].seller */\n      0xffffffffffffffffffffffffffffffffffffffff\n      and\n      eq\n        /* \"Marketplace.sol\":1054:1155  require(msg.sender == idToMarketItem[_itemId].seller, \"Only product seller can execute this action.\") */\n      tag_241\n      jumpi\n      mload(0x40)\n      0x08c379a000000000000000000000000000000000000000000000000000000000\n      dup2\n      mstore\n      0x04\n      add\n      tag_242\n      swap1\n      tag_243\n      jump\t// in\n    tag_242:\n      mload(0x40)\n      dup1\n      swap2\n      sub\n      swap1\n      revert\n    tag_241:\n        /* \"Marketplace.sol\":3432:3444  _description */\n      dup2\n        /* \"Marketplace.sol\":3394:3408  idToMarketItem */\n      0x03\n        /* \"Marketplace.sol\":3394:3417  idToMarketItem[_itemId] */\n      0x00\n        /* \"Marketplace.sol\":3409:3416  _itemId */\n      dup6\n        /* \"Marketplace.sol\":3394:3417  idToMarketItem[_itemId] */\n      dup2\n      mstore\n      0x20\n      add\n      swap1\n      dup2\n      mstore\n      0x20\n      add\n      0x00\n      keccak256\n        /* \"Marketplace.sol\":3394:3429  idToMarketItem[_itemId].description */\n      0x02\n      add\n        /* \"Marketplace.sol\":3394:3444  idToMarketItem[_itemId].description = _description */\n      swap1\n      dup1\n      mload\n      swap1\n      0x20\n      add\n      swap1\n      tag_245\n      swap3\n      swap2\n      swap1\n      tag_202\n      jump\t// in\n    tag_245:\n      pop\n        /* \"Marketplace.sol\":3491:3506  block.timestamp */\n      timestamp\n        /* \"Marketplace.sol\":3455:3469  idToMarketItem */\n      0x03\n        /* \"Marketplace.sol\":3455:3478  idToMarketItem[_itemId] */\n      0x00\n        /* \"Marketplace.sol\":3470:3477  _itemId */\n      dup6\n        /* \"Marketplace.sol\":3455:3478  idToMarketItem[_itemId] */\n      dup2\n      mstore\n      0x20\n      add\n      swap1\n      dup2\n      mstore\n      0x20\n      add\n      0x00\n      keccak256\n        /* \"Marketplace.sol\":3455:3488  idToMarketItem[_itemId].updatedAt */\n      0x08\n      add\n        /* \"Marketplace.sol\":3455:3506  idToMarketItem[_itemId].updatedAt = block.timestamp */\n      dup2\n      swap1\n      sstore\n      pop\n        /* \"Marketplace.sol\":3267:3514  function updateMarketItemDescription(uint256 _itemId, string memory _description) public onlyProductSeller(_itemId) {\r... */\n      pop\n      pop\n      pop\n      jump\t// out\n        /* \"@openzeppelin/contracts/access/AccessControl.sol\":2909:3054  function hasRole(bytes32 role, address account) public view virtual override returns (bool) {... */\n    tag_88:\n        /* \"@openzeppelin/contracts/access/AccessControl.sol\":2995:2999  bool */\n      0x00\n        /* \"@openzeppelin/contracts/access/AccessControl.sol\":3018:3024  _roles */\n      dup1\n        /* \"@openzeppelin/contracts/access/AccessControl.sol\":3018:3030  _roles[role] */\n      0x00\n        /* \"@openzeppelin/contracts/access/AccessControl.sol\":3025:3029  role */\n      dup5\n        /* \"@openzeppelin/contracts/access/AccessControl.sol\":3018:3030  _roles[role] */\n      dup2\n      mstore\n      0x20\n      add\n      swap1\n      dup2\n      mstore\n      0x20\n      add\n      0x00\n      keccak256\n        /* \"@openzeppelin/contracts/access/AccessControl.sol\":3018:3038  _roles[role].members */\n      0x00\n      add\n        /* \"@openzeppelin/contracts/access/AccessControl.sol\":3018:3047  _roles[role].members[account] */\n      0x00\n        /* \"@openzeppelin/contracts/access/AccessControl.sol\":3039:3046  account */\n      dup4\n        /* \"@openzeppelin/contracts/access/AccessControl.sol\":3018:3047  _roles[role].members[account] */\n      0xffffffffffffffffffffffffffffffffffffffff\n      and\n      0xffffffffffffffffffffffffffffffffffffffff\n      and\n      dup2\n      mstore\n      0x20\n      add\n      swap1\n      dup2\n      mstore\n      0x20\n      add\n      0x00\n      keccak256\n      0x00\n      swap1\n      sload\n      swap1\n      0x0100\n      exp\n      swap1\n      div\n      0xff\n      and\n        /* \"@openzeppelin/contracts/access/AccessControl.sol\":3011:3047  return _roles[role].members[account] */\n      swap1\n      pop\n        /* \"@openzeppelin/contracts/access/AccessControl.sol\":2909:3054  function hasRole(bytes32 role, address account) public view virtual override returns (bool) {... */\n      swap3\n      swap2\n      pop\n      pop\n      jump\t// out\n        /* \"@openzeppelin/contracts/access/AccessControl.sol\":2027:2076  bytes32 public constant DEFAULT_ADMIN_ROLE = 0x00 */\n    tag_92:\n        /* \"@openzeppelin/contracts/access/AccessControl.sol\":2072:2076  0x00 */\n      0x00\n        /* \"@openzeppelin/contracts/access/AccessControl.sol\":2027:2076  bytes32 public constant DEFAULT_ADMIN_ROLE = 0x00 */\n      dup1\n      shl\n      dup2\n      jump\t// out\n        /* \"Marketplace.sol\":4455:4682  function updateBlockMarketItem(uint256 _itemId, bool _isBlocked) public onlyRole(MARKETPLACE_OWNER) {\r... */\n    tag_98:\n        /* \"Marketplace.sol\":212:242  keccak256(\"MARKETPLACE_OWNER\") */\n      0x1f9ca85e780b3b3cfbe1334ca9dd68802db7860f692bd163c796bb76d464edc0\n        /* \"@openzeppelin/contracts/access/AccessControl.sol\":2505:2535  _checkRole(role, _msgSender()) */\n      tag_248\n        /* \"@openzeppelin/contracts/access/AccessControl.sol\":2516:2520  role */\n      dup2\n        /* \"@openzeppelin/contracts/access/AccessControl.sol\":2522:2534  _msgSender() */\n      tag_249\n        /* \"@openzeppelin/contracts/access/AccessControl.sol\":2522:2532  _msgSender */\n      tag_185\n        /* \"@openzeppelin/contracts/access/AccessControl.sol\":2522:2534  _msgSender() */\n      jump\t// in\n    tag_249:\n        /* \"@openzeppelin/contracts/access/AccessControl.sol\":2505:2515  _checkRole */\n      tag_186\n        /* \"@openzeppelin/contracts/access/AccessControl.sol\":2505:2535  _checkRole(role, _msgSender()) */\n      jump\t// in\n    tag_248:\n        /* \"Marketplace.sol\":4602:4612  _isBlocked */\n      dup2\n        /* \"Marketplace.sol\":4566:4580  idToMarketItem */\n      0x03\n        /* \"Marketplace.sol\":4566:4589  idToMarketItem[_itemId] */\n      0x00\n        /* \"Marketplace.sol\":4581:4588  _itemId */\n      dup6\n        /* \"Marketplace.sol\":4566:4589  idToMarketItem[_itemId] */\n      dup2\n      mstore\n      0x20\n      add\n      swap1\n      dup2\n      mstore\n      0x20\n      add\n      0x00\n      keccak256\n        /* \"Marketplace.sol\":4566:4599  idToMarketItem[_itemId].isBlocked */\n      0x09\n      add\n      0x01\n        /* \"Marketplace.sol\":4566:4612  idToMarketItem[_itemId].isBlocked = _isBlocked */\n      0x0100\n      exp\n      dup2\n      sload\n      dup2\n      0xff\n      mul\n      not\n      and\n      swap1\n      dup4\n      iszero\n      iszero\n      mul\n      or\n      swap1\n      sstore\n      pop\n        /* \"Marketplace.sol\":4659:4674  block.timestamp */\n      timestamp\n        /* \"Marketplace.sol\":4623:4637  idToMarketItem */\n      0x03\n        /* \"Marketplace.sol\":4623:4646  idToMarketItem[_itemId] */\n      0x00\n        /* \"Marketplace.sol\":4638:4645  _itemId */\n      dup6\n        /* \"Marketplace.sol\":4623:4646  idToMarketItem[_itemId] */\n      dup2\n      mstore\n      0x20\n      add\n      swap1\n      dup2\n      mstore\n      0x20\n      add\n      0x00\n      keccak256\n        /* \"Marketplace.sol\":4623:4656  idToMarketItem[_itemId].updatedAt */\n      0x08\n      add\n        /* \"Marketplace.sol\":4623:4674  idToMarketItem[_itemId].updatedAt = block.timestamp */\n      dup2\n      swap1\n      sstore\n      pop\n        /* \"Marketplace.sol\":4455:4682  function updateBlockMarketItem(uint256 _itemId, bool _isBlocked) public onlyRole(MARKETPLACE_OWNER) {\r... */\n      pop\n      pop\n      pop\n      jump\t// out\n        /* \"Marketplace.sol\":3998:4215  function updateMarketItemPrice(uint256 _itemId, uint256 _price) public onlyProductSeller(_itemId) {\r... */\n    tag_103:\n        /* \"Marketplace.sol\":4087:4094  _itemId */\n      dup2\n        /* \"Marketplace.sol\":1076:1090  idToMarketItem */\n      0x03\n        /* \"Marketplace.sol\":1076:1099  idToMarketItem[_itemId] */\n      0x00\n        /* \"Marketplace.sol\":1091:1098  _itemId */\n      dup3\n        /* \"Marketplace.sol\":1076:1099  idToMarketItem[_itemId] */\n      dup2\n      mstore\n      0x20\n      add\n      swap1\n      dup2\n      mstore\n      0x20\n      add\n      0x00\n      keccak256\n        /* \"Marketplace.sol\":1076:1106  idToMarketItem[_itemId].seller */\n      0x04\n      add\n      0x00\n      swap1\n      sload\n      swap1\n      0x0100\n      exp\n      swap1\n      div\n      0xffffffffffffffffffffffffffffffffffffffff\n      and\n        /* \"Marketplace.sol\":1062:1106  msg.sender == idToMarketItem[_itemId].seller */\n      0xffffffffffffffffffffffffffffffffffffffff\n      and\n        /* \"Marketplace.sol\":1062:1072  msg.sender */\n      caller\n        /* \"Marketplace.sol\":1062:1106  msg.sender == idToMarketItem[_itemId].seller */\n      0xffffffffffffffffffffffffffffffffffffffff\n      and\n      eq\n        /* \"Marketplace.sol\":1054:1155  require(msg.sender == idToMarketItem[_itemId].seller, \"Only product seller can execute this action.\") */\n      tag_252\n      jumpi\n      mload(0x40)\n      0x08c379a000000000000000000000000000000000000000000000000000000000\n      dup2\n      mstore\n      0x04\n      add\n      tag_253\n      swap1\n      tag_243\n      jump\t// in\n    tag_253:\n      mload(0x40)\n      dup1\n      swap2\n      sub\n      swap1\n      revert\n    tag_252:\n        /* \"Marketplace.sol\":4139:4145  _price */\n      dup2\n        /* \"Marketplace.sol\":4107:4121  idToMarketItem */\n      0x03\n        /* \"Marketplace.sol\":4107:4130  idToMarketItem[_itemId] */\n      0x00\n        /* \"Marketplace.sol\":4122:4129  _itemId */\n      dup6\n        /* \"Marketplace.sol\":4107:4130  idToMarketItem[_itemId] */\n      dup2\n      mstore\n      0x20\n      add\n      swap1\n      dup2\n      mstore\n      0x20\n      add\n      0x00\n      keccak256\n        /* \"Marketplace.sol\":4107:4136  idToMarketItem[_itemId].price */\n      0x03\n      add\n        /* \"Marketplace.sol\":4107:4145  idToMarketItem[_itemId].price = _price */\n      dup2\n      swap1\n      sstore\n      pop\n        /* \"Marketplace.sol\":4192:4207  block.timestamp */\n      timestamp\n        /* \"Marketplace.sol\":4156:4170  idToMarketItem */\n      0x03\n        /* \"Marketplace.sol\":4156:4179  idToMarketItem[_itemId] */\n      0x00\n        /* \"Marketplace.sol\":4171:4178  _itemId */\n      dup6\n        /* \"Marketplace.sol\":4156:4179  idToMarketItem[_itemId] */\n      dup2\n      mstore\n      0x20\n      add\n      swap1\n      dup2\n      mstore\n      0x20\n      add\n      0x00\n      keccak256\n        /* \"Marketplace.sol\":4156:4189  idToMarketItem[_itemId].updatedAt */\n      0x08\n      add\n        /* \"Marketplace.sol\":4156:4207  idToMarketItem[_itemId].updatedAt = block.timestamp */\n      dup2\n      swap1\n      sstore\n      pop\n        /* \"Marketplace.sol\":3998:4215  function updateMarketItemPrice(uint256 _itemId, uint256 _price) public onlyProductSeller(_itemId) {\r... */\n      pop\n      pop\n      pop\n      jump\t// out\n        /* \"Marketplace.sol\":168:242  bytes32 public constant MARKETPLACE_OWNER = keccak256(\"MARKETPLACE_OWNER\") */\n    tag_106:\n        /* \"Marketplace.sol\":212:242  keccak256(\"MARKETPLACE_OWNER\") */\n      0x1f9ca85e780b3b3cfbe1334ca9dd68802db7860f692bd163c796bb76d464edc0\n        /* \"Marketplace.sol\":168:242  bytes32 public constant MARKETPLACE_OWNER = keccak256(\"MARKETPLACE_OWNER\") */\n      dup2\n      jump\t// out\n        /* \"Marketplace.sol\":4223:4447  function updateMarketItemActive(uint256 _itemId, bool _isActive) public onlyProductSeller(_itemId) {\r... */\n    tag_111:\n        /* \"Marketplace.sol\":4313:4320  _itemId */\n      dup2\n        /* \"Marketplace.sol\":1076:1090  idToMarketItem */\n      0x03\n        /* \"Marketplace.sol\":1076:1099  idToMarketItem[_itemId] */\n      0x00\n        /* \"Marketplace.sol\":1091:1098  _itemId */\n      dup3\n        /* \"Marketplace.sol\":1076:1099  idToMarketItem[_itemId] */\n      dup2\n      mstore\n      0x20\n      add\n      swap1\n      dup2\n      mstore\n      0x20\n      add\n      0x00\n      keccak256\n        /* \"Marketplace.sol\":1076:1106  idToMarketItem[_itemId].seller */\n      0x04\n      add\n      0x00\n      swap1\n      sload\n      swap1\n      0x0100\n      exp\n      swap1\n      div\n      0xffffffffffffffffffffffffffffffffffffffff\n      and\n        /* \"Marketplace.sol\":1062:1106  msg.sender == idToMarketItem[_itemId].seller */\n      0xffffffffffffffffffffffffffffffffffffffff\n      and\n        /* \"Marketplace.sol\":1062:1072  msg.sender */\n      caller\n        /* \"Marketplace.sol\":1062:1106  msg.sender == idToMarketItem[_itemId].seller */\n      0xffffffffffffffffffffffffffffffffffffffff\n      and\n      eq\n        /* \"Marketplace.sol\":1054:1155  require(msg.sender == idToMarketItem[_itemId].seller, \"Only product seller can execute this action.\") */\n      tag_256\n      jumpi\n      mload(0x40)\n      0x08c379a000000000000000000000000000000000000000000000000000000000\n      dup2\n      mstore\n      0x04\n      add\n      tag_257\n      swap1\n      tag_243\n      jump\t// in\n    tag_257:\n      mload(0x40)\n      dup1\n      swap2\n      sub\n      swap1\n      revert\n    tag_256:\n        /* \"Marketplace.sol\":4368:4377  _isActive */\n      dup2\n        /* \"Marketplace.sol\":4333:4347  idToMarketItem */\n      0x03\n        /* \"Marketplace.sol\":4333:4356  idToMarketItem[_itemId] */\n      0x00\n        /* \"Marketplace.sol\":4348:4355  _itemId */\n      dup6\n        /* \"Marketplace.sol\":4333:4356  idToMarketItem[_itemId] */\n      dup2\n      mstore\n      0x20\n      add\n      swap1\n      dup2\n      mstore\n      0x20\n      add\n      0x00\n      keccak256\n        /* \"Marketplace.sol\":4333:4365  idToMarketItem[_itemId].isActive */\n      0x09\n      add\n      0x00\n        /* \"Marketplace.sol\":4333:4377  idToMarketItem[_itemId].isActive = _isActive */\n      0x0100\n      exp\n      dup2\n      sload\n      dup2\n      0xff\n      mul\n      not\n      and\n      swap1\n      dup4\n      iszero\n      iszero\n      mul\n      or\n      swap1\n      sstore\n      pop\n        /* \"Marketplace.sol\":4424:4439  block.timestamp */\n      timestamp\n        /* \"Marketplace.sol\":4388:4402  idToMarketItem */\n      0x03\n        /* \"Marketplace.sol\":4388:4411  idToMarketItem[_itemId] */\n      0x00\n        /* \"Marketplace.sol\":4403:4410  _itemId */\n      dup6\n        /* \"Marketplace.sol\":4388:4411  idToMarketItem[_itemId] */\n      dup2\n      mstore\n      0x20\n      add\n      swap1\n      dup2\n      mstore\n      0x20\n      add\n      0x00\n      keccak256\n        /* \"Marketplace.sol\":4388:4421  idToMarketItem[_itemId].updatedAt */\n      0x08\n      add\n        /* \"Marketplace.sol\":4388:4439  idToMarketItem[_itemId].updatedAt = block.timestamp */\n      dup2\n      swap1\n      sstore\n      pop\n        /* \"Marketplace.sol\":4223:4447  function updateMarketItemActive(uint256 _itemId, bool _isActive) public onlyProductSeller(_itemId) {\r... */\n      pop\n      pop\n      pop\n      jump\t// out\n        /* \"Marketplace.sol\":2623:2913  function getMarketItem(uint256 _itemId) public view returns (string memory title, address payable seller, uint256 price, bool isActive) {\r... */\n    tag_115:\n        /* \"Marketplace.sol\":2684:2703  string memory title */\n      0x60\n        /* \"Marketplace.sol\":2705:2727  address payable seller */\n      0x00\n        /* \"Marketplace.sol\":2729:2742  uint256 price */\n      dup1\n        /* \"Marketplace.sol\":2744:2757  bool isActive */\n      0x00\n        /* \"Marketplace.sol\":2778:2792  idToMarketItem */\n      0x03\n        /* \"Marketplace.sol\":2778:2801  idToMarketItem[_itemId] */\n      0x00\n        /* \"Marketplace.sol\":2793:2800  _itemId */\n      dup7\n        /* \"Marketplace.sol\":2778:2801  idToMarketItem[_itemId] */\n      dup2\n      mstore\n      0x20\n      add\n      swap1\n      dup2\n      mstore\n      0x20\n      add\n      0x00\n      keccak256\n        /* \"Marketplace.sol\":2778:2807  idToMarketItem[_itemId].title */\n      0x01\n      add\n        /* \"Marketplace.sol\":2809:2823  idToMarketItem */\n      0x03\n        /* \"Marketplace.sol\":2809:2832  idToMarketItem[_itemId] */\n      0x00\n        /* \"Marketplace.sol\":2824:2831  _itemId */\n      dup8\n        /* \"Marketplace.sol\":2809:2832  idToMarketItem[_itemId] */\n      dup2\n      mstore\n      0x20\n      add\n      swap1\n      dup2\n      mstore\n      0x20\n      add\n      0x00\n      keccak256\n        /* \"Marketplace.sol\":2809:2839  idToMarketItem[_itemId].seller */\n      0x04\n      add\n      0x00\n      swap1\n      sload\n      swap1\n      0x0100\n      exp\n      swap1\n      div\n      0xffffffffffffffffffffffffffffffffffffffff\n      and\n        /* \"Marketplace.sol\":2841:2855  idToMarketItem */\n      0x03\n        /* \"Marketplace.sol\":2841:2864  idToMarketItem[_itemId] */\n      0x00\n        /* \"Marketplace.sol\":2856:2863  _itemId */\n      dup9\n        /* \"Marketplace.sol\":2841:2864  idToMarketItem[_itemId] */\n      dup2\n      mstore\n      0x20\n      add\n      swap1\n      dup2\n      mstore\n      0x20\n      add\n      0x00\n      keccak256\n        /* \"Marketplace.sol\":2841:2870  idToMarketItem[_itemId].price */\n      0x03\n      add\n      sload\n        /* \"Marketplace.sol\":2872:2886  idToMarketItem */\n      0x03\n        /* \"Marketplace.sol\":2872:2895  idToMarketItem[_itemId] */\n      0x00\n        /* \"Marketplace.sol\":2887:2894  _itemId */\n      dup10\n        /* \"Marketplace.sol\":2872:2895  idToMarketItem[_itemId] */\n      dup2\n      mstore\n      0x20\n      add\n      swap1\n      dup2\n      mstore\n      0x20\n      add\n      0x00\n      keccak256\n        /* \"Marketplace.sol\":2872:2904  idToMarketItem[_itemId].isActive */\n      0x09\n      add\n      0x00\n      swap1\n      sload\n      swap1\n      0x0100\n      exp\n      swap1\n      div\n      0xff\n      and\n        /* \"Marketplace.sol\":2770:2905  return (idToMarketItem[_itemId].title, idToMarketItem[_itemId].seller, idToMarketItem[_itemId].price, idToMarketItem[_itemId].isActive) */\n      dup4\n      dup1\n      sload\n      tag_260\n      swap1\n      tag_225\n      jump\t// in\n    tag_260:\n      dup1\n      0x1f\n      add\n      0x20\n      dup1\n      swap2\n      div\n      mul\n      0x20\n      add\n      mload(0x40)\n      swap1\n      dup2\n      add\n      0x40\n      mstore\n      dup1\n      swap3\n      swap2\n      swap1\n      dup2\n      dup2\n      mstore\n      0x20\n      add\n      dup3\n      dup1\n      sload\n      tag_261\n      swap1\n      tag_225\n      jump\t// in\n    tag_261:\n      dup1\n      iszero\n      tag_262\n      jumpi\n      dup1\n      0x1f\n      lt\n      tag_263\n      jumpi\n      0x0100\n      dup1\n      dup4\n      sload\n      div\n      mul\n      dup4\n      mstore\n      swap2\n      0x20\n      add\n      swap2\n      jump(tag_262)\n    tag_263:\n      dup3\n      add\n      swap2\n      swap1\n      0x00\n      mstore\n      keccak256(0x00, 0x20)\n      swap1\n    tag_264:\n      dup2\n      sload\n      dup2\n      mstore\n      swap1\n      0x01\n      add\n      swap1\n      0x20\n      add\n      dup1\n      dup4\n      gt\n      tag_264\n      jumpi\n      dup3\n      swap1\n      sub\n      0x1f\n      and\n      dup3\n      add\n      swap2\n    tag_262:\n      pop\n      pop\n      pop\n      pop\n      pop\n      swap4\n      pop\n      swap4\n      pop\n      swap4\n      pop\n      swap4\n      pop\n      swap4\n      pop\n        /* \"Marketplace.sol\":2623:2913  function getMarketItem(uint256 _itemId) public view returns (string memory title, address payable seller, uint256 price, bool isActive) {\r... */\n      swap2\n      swap4\n      pop\n      swap2\n      swap4\n      jump\t// out\n        /* \"@openzeppelin/contracts/access/AccessControl.sol\":4766:4913  function revokeRole(bytes32 role, address account) public virtual override onlyRole(getRoleAdmin(role)) {... */\n    tag_121:\n        /* \"@openzeppelin/contracts/access/AccessControl.sol\":4850:4868  getRoleAdmin(role) */\n      tag_265\n        /* \"@openzeppelin/contracts/access/AccessControl.sol\":4863:4867  role */\n      dup3\n        /* \"@openzeppelin/contracts/access/AccessControl.sol\":4850:4862  getRoleAdmin */\n      tag_46\n        /* \"@openzeppelin/contracts/access/AccessControl.sol\":4850:4868  getRoleAdmin(role) */\n      jump\t// in\n    tag_265:\n        /* \"@openzeppelin/contracts/access/AccessControl.sol\":2505:2535  _checkRole(role, _msgSender()) */\n      tag_267\n        /* \"@openzeppelin/contracts/access/AccessControl.sol\":2516:2520  role */\n      dup2\n        /* \"@openzeppelin/contracts/access/AccessControl.sol\":2522:2534  _msgSender() */\n      tag_268\n        /* \"@openzeppelin/contracts/access/AccessControl.sol\":2522:2532  _msgSender */\n      tag_185\n        /* \"@openzeppelin/contracts/access/AccessControl.sol\":2522:2534  _msgSender() */\n      jump\t// in\n    tag_268:\n        /* \"@openzeppelin/contracts/access/AccessControl.sol\":2505:2515  _checkRole */\n      tag_186\n        /* \"@openzeppelin/contracts/access/AccessControl.sol\":2505:2535  _checkRole(role, _msgSender()) */\n      jump\t// in\n    tag_267:\n        /* \"@openzeppelin/contracts/access/AccessControl.sol\":4880:4906  _revokeRole(role, account) */\n      tag_270\n        /* \"@openzeppelin/contracts/access/AccessControl.sol\":4892:4896  role */\n      dup4\n        /* \"@openzeppelin/contracts/access/AccessControl.sol\":4898:4905  account */\n      dup4\n        /* \"@openzeppelin/contracts/access/AccessControl.sol\":4880:4891  _revokeRole */\n      tag_196\n        /* \"@openzeppelin/contracts/access/AccessControl.sol\":4880:4906  _revokeRole(role, account) */\n      jump\t// in\n    tag_270:\n        /* \"@openzeppelin/contracts/access/AccessControl.sol\":4766:4913  function revokeRole(bytes32 role, address account) public virtual override onlyRole(getRoleAdmin(role)) {... */\n      pop\n      pop\n      pop\n      jump\t// out\n        /* \"Marketplace.sol\":3522:3749  function updateMarketItemQuantity(uint256 _itemId, uint8 _quantity) public onlyProductSeller(_itemId) {\r... */\n    tag_125:\n        /* \"Marketplace.sol\":3615:3622  _itemId */\n      dup2\n        /* \"Marketplace.sol\":1076:1090  idToMarketItem */\n      0x03\n        /* \"Marketplace.sol\":1076:1099  idToMarketItem[_itemId] */\n      0x00\n        /* \"Marketplace.sol\":1091:1098  _itemId */\n      dup3\n        /* \"Marketplace.sol\":1076:1099  idToMarketItem[_itemId] */\n      dup2\n      mstore\n      0x20\n      add\n      swap1\n      dup2\n      mstore\n      0x20\n      add\n      0x00\n      keccak256\n        /* \"Marketplace.sol\":1076:1106  idToMarketItem[_itemId].seller */\n      0x04\n      add\n      0x00\n      swap1\n      sload\n      swap1\n      0x0100\n      exp\n      swap1\n      div\n      0xffffffffffffffffffffffffffffffffffffffff\n      and\n        /* \"Marketplace.sol\":1062:1106  msg.sender == idToMarketItem[_itemId].seller */\n      0xffffffffffffffffffffffffffffffffffffffff\n      and\n        /* \"Marketplace.sol\":1062:1072  msg.sender */\n      caller\n        /* \"Marketplace.sol\":1062:1106  msg.sender == idToMarketItem[_itemId].seller */\n      0xffffffffffffffffffffffffffffffffffffffff\n      and\n      eq\n        /* \"Marketplace.sol\":1054:1155  require(msg.sender == idToMarketItem[_itemId].seller, \"Only product seller can execute this action.\") */\n      tag_272\n      jumpi\n      mload(0x40)\n      0x08c379a000000000000000000000000000000000000000000000000000000000\n      dup2\n      mstore\n      0x04\n      add\n      tag_273\n      swap1\n      tag_243\n      jump\t// in\n    tag_273:\n      mload(0x40)\n      dup1\n      swap2\n      sub\n      swap1\n      revert\n    tag_272:\n        /* \"Marketplace.sol\":3670:3679  _quantity */\n      dup2\n        /* \"Marketplace.sol\":3635:3649  idToMarketItem */\n      0x03\n        /* \"Marketplace.sol\":3635:3658  idToMarketItem[_itemId] */\n      0x00\n        /* \"Marketplace.sol\":3650:3657  _itemId */\n      dup6\n        /* \"Marketplace.sol\":3635:3658  idToMarketItem[_itemId] */\n      dup2\n      mstore\n      0x20\n      add\n      swap1\n      dup2\n      mstore\n      0x20\n      add\n      0x00\n      keccak256\n        /* \"Marketplace.sol\":3635:3667  idToMarketItem[_itemId].quantity */\n      0x06\n      add\n      0x00\n        /* \"Marketplace.sol\":3635:3679  idToMarketItem[_itemId].quantity = _quantity */\n      0x0100\n      exp\n      dup2\n      sload\n      dup2\n      0xff\n      mul\n      not\n      and\n      swap1\n      dup4\n      0xff\n      and\n      mul\n      or\n      swap1\n      sstore\n      pop\n        /* \"Marketplace.sol\":3726:3741  block.timestamp */\n      timestamp\n        /* \"Marketplace.sol\":3690:3704  idToMarketItem */\n      0x03\n        /* \"Marketplace.sol\":3690:3713  idToMarketItem[_itemId] */\n      0x00\n        /* \"Marketplace.sol\":3705:3712  _itemId */\n      dup6\n        /* \"Marketplace.sol\":3690:3713  idToMarketItem[_itemId] */\n      dup2\n      mstore\n      0x20\n      add\n      swap1\n      dup2\n      mstore\n      0x20\n      add\n      0x00\n      keccak256\n        /* \"Marketplace.sol\":3690:3723  idToMarketItem[_itemId].updatedAt */\n      0x08\n      add\n        /* \"Marketplace.sol\":3690:3741  idToMarketItem[_itemId].updatedAt = block.timestamp */\n      dup2\n      swap1\n      sstore\n      pop\n        /* \"Marketplace.sol\":3522:3749  function updateMarketItemQuantity(uint256 _itemId, uint8 _quantity) public onlyProductSeller(_itemId) {\r... */\n      pop\n      pop\n      pop\n      jump\t// out\n        /* \"Marketplace.sol\":3757:3990  function updateMarketItemImgUrl(uint256 _itemId, string memory _imageUrl) public onlyProductSeller(_itemId) {\r... */\n    tag_129:\n        /* \"Marketplace.sol\":3856:3863  _itemId */\n      dup2\n        /* \"Marketplace.sol\":1076:1090  idToMarketItem */\n      0x03\n        /* \"Marketplace.sol\":1076:1099  idToMarketItem[_itemId] */\n      0x00\n        /* \"Marketplace.sol\":1091:1098  _itemId */\n      dup3\n        /* \"Marketplace.sol\":1076:1099  idToMarketItem[_itemId] */\n      dup2\n      mstore\n      0x20\n      add\n      swap1\n      dup2\n      mstore\n      0x20\n      add\n      0x00\n      keccak256\n        /* \"Marketplace.sol\":1076:1106  idToMarketItem[_itemId].seller */\n      0x04\n      add\n      0x00\n      swap1\n      sload\n      swap1\n      0x0100\n      exp\n      swap1\n      div\n      0xffffffffffffffffffffffffffffffffffffffff\n      and\n        /* \"Marketplace.sol\":1062:1106  msg.sender == idToMarketItem[_itemId].seller */\n      0xffffffffffffffffffffffffffffffffffffffff\n      and\n        /* \"Marketplace.sol\":1062:1072  msg.sender */\n      caller\n        /* \"Marketplace.sol\":1062:1106  msg.sender == idToMarketItem[_itemId].seller */\n      0xffffffffffffffffffffffffffffffffffffffff\n      and\n      eq\n        /* \"Marketplace.sol\":1054:1155  require(msg.sender == idToMarketItem[_itemId].seller, \"Only product seller can execute this action.\") */\n      tag_276\n      jumpi\n      mload(0x40)\n      0x08c379a000000000000000000000000000000000000000000000000000000000\n      dup2\n      mstore\n      0x04\n      add\n      tag_277\n      swap1\n      tag_243\n      jump\t// in\n    tag_277:\n      mload(0x40)\n      dup1\n      swap2\n      sub\n      swap1\n      revert\n    tag_276:\n        /* \"Marketplace.sol\":3911:3920  _imageUrl */\n      dup2\n        /* \"Marketplace.sol\":3876:3890  idToMarketItem */\n      0x03\n        /* \"Marketplace.sol\":3876:3899  idToMarketItem[_itemId] */\n      0x00\n        /* \"Marketplace.sol\":3891:3898  _itemId */\n      dup6\n        /* \"Marketplace.sol\":3876:3899  idToMarketItem[_itemId] */\n      dup2\n      mstore\n      0x20\n      add\n      swap1\n      dup2\n      mstore\n      0x20\n      add\n      0x00\n      keccak256\n        /* \"Marketplace.sol\":3876:3908  idToMarketItem[_itemId].imageUrl */\n      0x05\n      add\n        /* \"Marketplace.sol\":3876:3920  idToMarketItem[_itemId].imageUrl = _imageUrl */\n      swap1\n      dup1\n      mload\n      swap1\n      0x20\n      add\n      swap1\n      tag_279\n      swap3\n      swap2\n      swap1\n      tag_202\n      jump\t// in\n    tag_279:\n      pop\n        /* \"Marketplace.sol\":3967:3982  block.timestamp */\n      timestamp\n        /* \"Marketplace.sol\":3931:3945  idToMarketItem */\n      0x03\n        /* \"Marketplace.sol\":3931:3954  idToMarketItem[_itemId] */\n      0x00\n        /* \"Marketplace.sol\":3946:3953  _itemId */\n      dup6\n        /* \"Marketplace.sol\":3931:3954  idToMarketItem[_itemId] */\n      dup2\n      mstore\n      0x20\n      add\n      swap1\n      dup2\n      mstore\n      0x20\n      add\n      0x00\n      keccak256\n        /* \"Marketplace.sol\":3931:3964  idToMarketItem[_itemId].updatedAt */\n      0x08\n      add\n        /* \"Marketplace.sol\":3931:3982  idToMarketItem[_itemId].updatedAt = block.timestamp */\n      dup2\n      swap1\n      sstore\n      pop\n        /* \"Marketplace.sol\":3757:3990  function updateMarketItemImgUrl(uint256 _itemId, string memory _imageUrl) public onlyProductSeller(_itemId) {\r... */\n      pop\n      pop\n      pop\n      jump\t// out\n        /* \"Marketplace.sol\":4959:5107  function checkBuyer(uint256 _itemId, address _buyer) public view returns (bool) {\r... */\n    tag_134:\n        /* \"Marketplace.sol\":5033:5037  bool */\n      0x00\n        /* \"Marketplace.sol\":5057:5099  indexOf(idToBuyerAddress[_itemId], _buyer) */\n      tag_281\n        /* \"Marketplace.sol\":5065:5081  idToBuyerAddress */\n      0x02\n        /* \"Marketplace.sol\":5065:5090  idToBuyerAddress[_itemId] */\n      0x00\n        /* \"Marketplace.sol\":5082:5089  _itemId */\n      dup6\n        /* \"Marketplace.sol\":5065:5090  idToBuyerAddress[_itemId] */\n      dup2\n      mstore\n      0x20\n      add\n      swap1\n      dup2\n      mstore\n      0x20\n      add\n      0x00\n      keccak256\n        /* \"Marketplace.sol\":5057:5099  indexOf(idToBuyerAddress[_itemId], _buyer) */\n      dup1\n      sload\n      dup1\n      0x20\n      mul\n      0x20\n      add\n      mload(0x40)\n      swap1\n      dup2\n      add\n      0x40\n      mstore\n      dup1\n      swap3\n      swap2\n      swap1\n      dup2\n      dup2\n      mstore\n      0x20\n      add\n      dup3\n      dup1\n      sload\n      dup1\n      iszero\n      tag_282\n      jumpi\n      0x20\n      mul\n      dup3\n      add\n      swap2\n      swap1\n      0x00\n      mstore\n      keccak256(0x00, 0x20)\n      swap1\n    tag_283:\n      dup2\n      0x00\n      swap1\n      sload\n      swap1\n      0x0100\n      exp\n      swap1\n      div\n      0xffffffffffffffffffffffffffffffffffffffff\n      and\n      0xffffffffffffffffffffffffffffffffffffffff\n      and\n      dup2\n      mstore\n      0x20\n      add\n      swap1\n      0x01\n      add\n      swap1\n      dup1\n      dup4\n      gt\n      tag_283\n      jumpi\n    tag_282:\n      pop\n      pop\n      pop\n      pop\n      pop\n        /* \"Marketplace.sol\":5092:5098  _buyer */\n      dup4\n        /* \"Marketplace.sol\":5057:5064  indexOf */\n      tag_284\n        /* \"Marketplace.sol\":5057:5099  indexOf(idToBuyerAddress[_itemId], _buyer) */\n      jump\t// in\n    tag_281:\n        /* \"Marketplace.sol\":5050:5099  return indexOf(idToBuyerAddress[_itemId], _buyer) */\n      swap1\n      pop\n        /* \"Marketplace.sol\":4959:5107  function checkBuyer(uint256 _itemId, address _buyer) public view returns (bool) {\r... */\n      swap3\n      swap2\n      pop\n      pop\n      jump\t// out\n        /* \"@openzeppelin/contracts/utils/introspection/ERC165.sol\":829:984  function supportsInterface(bytes4 interfaceId) public view virtual override returns (bool) {... */\n    tag_139:\n        /* \"@openzeppelin/contracts/utils/introspection/ERC165.sol\":914:918  bool */\n      0x00\n        /* \"@openzeppelin/contracts/utils/introspection/ERC165.sol\":952:977  type(IERC165).interfaceId */\n      0x01ffc9a700000000000000000000000000000000000000000000000000000000\n        /* \"@openzeppelin/contracts/utils/introspection/ERC165.sol\":937:977  interfaceId == type(IERC165).interfaceId */\n      not(0xffffffffffffffffffffffffffffffffffffffffffffffffffffffff)\n      and\n        /* \"@openzeppelin/contracts/utils/introspection/ERC165.sol\":937:948  interfaceId */\n      dup3\n        /* \"@openzeppelin/contracts/utils/introspection/ERC165.sol\":937:977  interfaceId == type(IERC165).interfaceId */\n      not(0xffffffffffffffffffffffffffffffffffffffffffffffffffffffff)\n      and\n      eq\n        /* \"@openzeppelin/contracts/utils/introspection/ERC165.sol\":930:977  return interfaceId == type(IERC165).interfaceId */\n      swap1\n      pop\n        /* \"@openzeppelin/contracts/utils/introspection/ERC165.sol\":829:984  function supportsInterface(bytes4 interfaceId) public view virtual override returns (bool) {... */\n      swap2\n      swap1\n      pop\n      jump\t// out\n        /* \"@openzeppelin/contracts/utils/Context.sol\":640:736  function _msgSender() internal view virtual returns (address) {... */\n    tag_185:\n        /* \"@openzeppelin/contracts/utils/Context.sol\":693:700  address */\n      0x00\n        /* \"@openzeppelin/contracts/utils/Context.sol\":719:729  msg.sender */\n      caller\n        /* \"@openzeppelin/contracts/utils/Context.sol\":712:729  return msg.sender */\n      swap1\n      pop\n        /* \"@openzeppelin/contracts/utils/Context.sol\":640:736  function _msgSender() internal view virtual returns (address) {... */\n      swap1\n      jump\t// out\n        /* \"@openzeppelin/contracts/access/AccessControl.sol\":3335:3827  function _checkRole(bytes32 role, address account) internal view virtual {... */\n    tag_186:\n        /* \"@openzeppelin/contracts/access/AccessControl.sol\":3423:3445  hasRole(role, account) */\n      tag_288\n        /* \"@openzeppelin/contracts/access/AccessControl.sol\":3431:3435  role */\n      dup3\n        /* \"@openzeppelin/contracts/access/AccessControl.sol\":3437:3444  account */\n      dup3\n        /* \"@openzeppelin/contracts/access/AccessControl.sol\":3423:3430  hasRole */\n      tag_88\n        /* \"@openzeppelin/contracts/access/AccessControl.sol\":3423:3445  hasRole(role, account) */\n      jump\t// in\n    tag_288:\n        /* \"@openzeppelin/contracts/access/AccessControl.sol\":3418:3821  if (!hasRole(role, account)) {... */\n      tag_289\n      jumpi\n        /* \"@openzeppelin/contracts/access/AccessControl.sol\":3606:3647  Strings.toHexString(uint160(account), 20) */\n      tag_290\n        /* \"@openzeppelin/contracts/access/AccessControl.sol\":3634:3641  account */\n      dup2\n        /* \"@openzeppelin/contracts/access/AccessControl.sol\":3606:3647  Strings.toHexString(uint160(account), 20) */\n      0xffffffffffffffffffffffffffffffffffffffff\n      and\n        /* \"@openzeppelin/contracts/access/AccessControl.sol\":3644:3646  20 */\n      0x14\n        /* \"@openzeppelin/contracts/access/AccessControl.sol\":3606:3625  Strings.toHexString */\n      tag_291\n        /* \"@openzeppelin/contracts/access/AccessControl.sol\":3606:3647  Strings.toHexString(uint160(account), 20) */\n      jump\t// in\n    tag_290:\n        /* \"@openzeppelin/contracts/access/AccessControl.sol\":3718:3756  Strings.toHexString(uint256(role), 32) */\n      tag_292\n        /* \"@openzeppelin/contracts/access/AccessControl.sol\":3746:3750  role */\n      dup4\n        /* \"@openzeppelin/contracts/access/AccessControl.sol\":3738:3751  uint256(role) */\n      0x00\n      shr\n        /* \"@openzeppelin/contracts/access/AccessControl.sol\":3753:3755  32 */\n      0x20\n        /* \"@openzeppelin/contracts/access/AccessControl.sol\":3718:3737  Strings.toHexString */\n      tag_291\n        /* \"@openzeppelin/contracts/access/AccessControl.sol\":3718:3756  Strings.toHexString(uint256(role), 32) */\n      jump\t// in\n    tag_292:\n        /* \"@openzeppelin/contracts/access/AccessControl.sol\":3513:3778  abi.encodePacked(... */\n      add(0x20, mload(0x40))\n      tag_293\n      swap3\n      swap2\n      swap1\n      tag_294\n      jump\t// in\n    tag_293:\n      mload(0x40)\n      0x20\n      dup2\n      dup4\n      sub\n      sub\n      dup2\n      mstore\n      swap1\n      0x40\n      mstore\n        /* \"@openzeppelin/contracts/access/AccessControl.sol\":3461:3810  revert(... */\n      mload(0x40)\n      0x08c379a000000000000000000000000000000000000000000000000000000000\n      dup2\n      mstore\n      0x04\n      add\n      tag_295\n      swap2\n      swap1\n      tag_296\n      jump\t// in\n    tag_295:\n      mload(0x40)\n      dup1\n      swap2\n      sub\n      swap1\n      revert\n        /* \"@openzeppelin/contracts/access/AccessControl.sol\":3418:3821  if (!hasRole(role, account)) {... */\n    tag_289:\n        /* \"@openzeppelin/contracts/access/AccessControl.sol\":3335:3827  function _checkRole(bytes32 role, address account) internal view virtual {... */\n      pop\n      pop\n      jump\t// out\n        /* \"@openzeppelin/contracts/access/AccessControl.sol\":6861:7094  function _grantRole(bytes32 role, address account) internal virtual {... */\n    tag_189:\n        /* \"@openzeppelin/contracts/access/AccessControl.sol\":6944:6966  hasRole(role, account) */\n      tag_298\n        /* \"@openzeppelin/contracts/access/AccessControl.sol\":6952:6956  role */\n      dup3\n        /* \"@openzeppelin/contracts/access/AccessControl.sol\":6958:6965  account */\n      dup3\n        /* \"@openzeppelin/contracts/access/AccessControl.sol\":6944:6951  hasRole */\n      tag_88\n        /* \"@openzeppelin/contracts/access/AccessControl.sol\":6944:6966  hasRole(role, account) */\n      jump\t// in\n    tag_298:\n        /* \"@openzeppelin/contracts/access/AccessControl.sol\":6939:7088  if (!hasRole(role, account)) {... */\n      tag_299\n      jumpi\n        /* \"@openzeppelin/contracts/access/AccessControl.sol\":7014:7018  true */\n      0x01\n        /* \"@openzeppelin/contracts/access/AccessControl.sol\":6982:6988  _roles */\n      0x00\n        /* \"@openzeppelin/contracts/access/AccessControl.sol\":6982:6994  _roles[role] */\n      dup1\n        /* \"@openzeppelin/contracts/access/AccessControl.sol\":6989:6993  role */\n      dup5\n        /* \"@openzeppelin/contracts/access/AccessControl.sol\":6982:6994  _roles[role] */\n      dup2\n      mstore\n      0x20\n      add\n      swap1\n      dup2\n      mstore\n      0x20\n      add\n      0x00\n      keccak256\n        /* \"@openzeppelin/contracts/access/AccessControl.sol\":6982:7002  _roles[role].members */\n      0x00\n      add\n        /* \"@openzeppelin/contracts/access/AccessControl.sol\":6982:7011  _roles[role].members[account] */\n      0x00\n        /* \"@openzeppelin/contracts/access/AccessControl.sol\":7003:7010  account */\n      dup4\n        /* \"@openzeppelin/contracts/access/AccessControl.sol\":6982:7011  _roles[role].members[account] */\n      0xffffffffffffffffffffffffffffffffffffffff\n      and\n      0xffffffffffffffffffffffffffffffffffffffff\n      and\n      dup2\n      mstore\n      0x20\n      add\n      swap1\n      dup2\n      mstore\n      0x20\n      add\n      0x00\n      keccak256\n      0x00\n        /* \"@openzeppelin/contracts/access/AccessControl.sol\":6982:7018  _roles[role].members[account] = true */\n      0x0100\n      exp\n      dup2\n      sload\n      dup2\n      0xff\n      mul\n      not\n      and\n      swap1\n      dup4\n      iszero\n      iszero\n      mul\n      or\n      swap1\n      sstore\n      pop\n        /* \"@openzeppelin/contracts/access/AccessControl.sol\":7064:7076  _msgSender() */\n      tag_300\n        /* \"@openzeppelin/contracts/access/AccessControl.sol\":7064:7074  _msgSender */\n      tag_185\n        /* \"@openzeppelin/contracts/access/AccessControl.sol\":7064:7076  _msgSender() */\n      jump\t// in\n    tag_300:\n        /* \"@openzeppelin/contracts/access/AccessControl.sol\":7037:7077  RoleGranted(role, account, _msgSender()) */\n      0xffffffffffffffffffffffffffffffffffffffff\n      and\n        /* \"@openzeppelin/contracts/access/AccessControl.sol\":7055:7062  account */\n      dup2\n        /* \"@openzeppelin/contracts/access/AccessControl.sol\":7037:7077  RoleGranted(role, account, _msgSender()) */\n      0xffffffffffffffffffffffffffffffffffffffff\n      and\n        /* \"@openzeppelin/contracts/access/AccessControl.sol\":7049:7053  role */\n      dup4\n        /* \"@openzeppelin/contracts/access/AccessControl.sol\":7037:7077  RoleGranted(role, account, _msgSender()) */\n      0x2f8788117e7eff1d82e926ec794901d17c78024a50270940304540a733656f0d\n      mload(0x40)\n      mload(0x40)\n      dup1\n      swap2\n      sub\n      swap1\n      log4\n        /* \"@openzeppelin/contracts/access/AccessControl.sol\":6939:7088  if (!hasRole(role, account)) {... */\n    tag_299:\n        /* \"@openzeppelin/contracts/access/AccessControl.sol\":6861:7094  function _grantRole(bytes32 role, address account) internal virtual {... */\n      pop\n      pop\n      jump\t// out\n        /* \"@openzeppelin/contracts/access/AccessControl.sol\":7219:7453  function _revokeRole(bytes32 role, address account) internal virtual {... */\n    tag_196:\n        /* \"@openzeppelin/contracts/access/AccessControl.sol\":7302:7324  hasRole(role, account) */\n      tag_302\n        /* \"@openzeppelin/contracts/access/AccessControl.sol\":7310:7314  role */\n      dup3\n        /* \"@openzeppelin/contracts/access/AccessControl.sol\":7316:7323  account */\n      dup3\n        /* \"@openzeppelin/contracts/access/AccessControl.sol\":7302:7309  hasRole */\n      tag_88\n        /* \"@openzeppelin/contracts/access/AccessControl.sol\":7302:7324  hasRole(role, account) */\n      jump\t// in\n    tag_302:\n        /* \"@openzeppelin/contracts/access/AccessControl.sol\":7298:7447  if (hasRole(role, account)) {... */\n      iszero\n      tag_303\n      jumpi\n        /* \"@openzeppelin/contracts/access/AccessControl.sol\":7372:7377  false */\n      0x00\n        /* \"@openzeppelin/contracts/access/AccessControl.sol\":7340:7346  _roles */\n      dup1\n        /* \"@openzeppelin/contracts/access/AccessControl.sol\":7340:7352  _roles[role] */\n      0x00\n        /* \"@openzeppelin/contracts/access/AccessControl.sol\":7347:7351  role */\n      dup5\n        /* \"@openzeppelin/contracts/access/AccessControl.sol\":7340:7352  _roles[role] */\n      dup2\n      mstore\n      0x20\n      add\n      swap1\n      dup2\n      mstore\n      0x20\n      add\n      0x00\n      keccak256\n        /* \"@openzeppelin/contracts/access/AccessControl.sol\":7340:7360  _roles[role].members */\n      0x00\n      add\n        /* \"@openzeppelin/contracts/access/AccessControl.sol\":7340:7369  _roles[role].members[account] */\n      0x00\n        /* \"@openzeppelin/contracts/access/AccessControl.sol\":7361:7368  account */\n      dup4\n        /* \"@openzeppelin/contracts/access/AccessControl.sol\":7340:7369  _roles[role].members[account] */\n      0xffffffffffffffffffffffffffffffffffffffff\n      and\n      0xffffffffffffffffffffffffffffffffffffffff\n      and\n      dup2\n      mstore\n      0x20\n      add\n      swap1\n      dup2\n      mstore\n      0x20\n      add\n      0x00\n      keccak256\n      0x00\n        /* \"@openzeppelin/contracts/access/AccessControl.sol\":7340:7377  _roles[role].members[account] = false */\n      0x0100\n      exp\n      dup2\n      sload\n      dup2\n      0xff\n      mul\n      not\n      and\n      swap1\n      dup4\n      iszero\n      iszero\n      mul\n      or\n      swap1\n      sstore\n      pop\n        /* \"@openzeppelin/contracts/access/AccessControl.sol\":7423:7435  _msgSender() */\n      tag_304\n        /* \"@openzeppelin/contracts/access/AccessControl.sol\":7423:7433  _msgSender */\n      tag_185\n        /* \"@openzeppelin/contracts/access/AccessControl.sol\":7423:7435  _msgSender() */\n      jump\t// in\n    tag_304:\n        /* \"@openzeppelin/contracts/access/AccessControl.sol\":7396:7436  RoleRevoked(role, account, _msgSender()) */\n      0xffffffffffffffffffffffffffffffffffffffff\n      and\n        /* \"@openzeppelin/contracts/access/AccessControl.sol\":7414:7421  account */\n      dup2\n        /* \"@openzeppelin/contracts/access/AccessControl.sol\":7396:7436  RoleRevoked(role, account, _msgSender()) */\n      0xffffffffffffffffffffffffffffffffffffffff\n      and\n        /* \"@openzeppelin/contracts/access/AccessControl.sol\":7408:7412  role */\n      dup4\n        /* \"@openzeppelin/contracts/access/AccessControl.sol\":7396:7436  RoleRevoked(role, account, _msgSender()) */\n      0xf6391f5c32d9c69d2a47ea670b442974b53935d1edc7fd64eb21e047a839171b\n      mload(0x40)\n      mload(0x40)\n      dup1\n      swap2\n      sub\n      swap1\n      log4\n        /* \"@openzeppelin/contracts/access/AccessControl.sol\":7298:7447  if (hasRole(role, account)) {... */\n    tag_303:\n        /* \"@openzeppelin/contracts/access/AccessControl.sol\":7219:7453  function _revokeRole(bytes32 role, address account) internal virtual {... */\n      pop\n      pop\n      jump\t// out\n        /* \"Marketplace.sol\":4690:4951  function indexOf(address[] memory arr, address searchFor) private pure returns (bool) {\r... */\n    tag_284:\n        /* \"Marketplace.sol\":4770:4774  bool */\n      0x00\n        /* \"Marketplace.sol\":4792:4801  uint256 i */\n      dup1\n        /* \"Marketplace.sol\":4804:4805  0 */\n      0x00\n        /* \"Marketplace.sol\":4792:4805  uint256 i = 0 */\n      swap1\n      pop\n        /* \"Marketplace.sol\":4787:4921  for (uint256 i = 0; i < arr.length; i++) {\r... */\n    tag_306:\n        /* \"Marketplace.sol\":4811:4814  arr */\n      dup4\n        /* \"Marketplace.sol\":4811:4821  arr.length */\n      mload\n        /* \"Marketplace.sol\":4807:4808  i */\n      dup2\n        /* \"Marketplace.sol\":4807:4821  i < arr.length */\n      lt\n        /* \"Marketplace.sol\":4787:4921  for (uint256 i = 0; i < arr.length; i++) {\r... */\n      iszero\n      tag_307\n      jumpi\n        /* \"Marketplace.sol\":4857:4866  searchFor */\n      dup3\n        /* \"Marketplace.sol\":4847:4866  arr[i] == searchFor */\n      0xffffffffffffffffffffffffffffffffffffffff\n      and\n        /* \"Marketplace.sol\":4847:4850  arr */\n      dup5\n        /* \"Marketplace.sol\":4851:4852  i */\n      dup3\n        /* \"Marketplace.sol\":4847:4853  arr[i] */\n      dup2\n      mload\n      dup2\n      lt\n      tag_309\n      jumpi\n      tag_310\n      tag_213\n      jump\t// in\n    tag_310:\n    tag_309:\n      0x20\n      mul\n      0x20\n      add\n      add\n      mload\n        /* \"Marketplace.sol\":4847:4866  arr[i] == searchFor */\n      0xffffffffffffffffffffffffffffffffffffffff\n      and\n      eq\n        /* \"Marketplace.sol\":4843:4910  if (arr[i] == searchFor) {\r... */\n      iszero\n      tag_311\n      jumpi\n        /* \"Marketplace.sol\":4890:4894  true */\n      0x01\n        /* \"Marketplace.sol\":4883:4894  return true */\n      swap2\n      pop\n      pop\n      jump(tag_305)\n        /* \"Marketplace.sol\":4843:4910  if (arr[i] == searchFor) {\r... */\n    tag_311:\n        /* \"Marketplace.sol\":4823:4826  i++ */\n      dup1\n      dup1\n      tag_312\n      swap1\n      tag_206\n      jump\t// in\n    tag_312:\n      swap2\n      pop\n      pop\n        /* \"Marketplace.sol\":4787:4921  for (uint256 i = 0; i < arr.length; i++) {\r... */\n      jump(tag_306)\n    tag_307:\n      pop\n        /* \"Marketplace.sol\":4938:4943  false */\n      0x00\n        /* \"Marketplace.sol\":4931:4943  return false */\n      swap1\n      pop\n        /* \"Marketplace.sol\":4690:4951  function indexOf(address[] memory arr, address searchFor) private pure returns (bool) {\r... */\n    tag_305:\n      swap3\n      swap2\n      pop\n      pop\n      jump\t// out\n        /* \"@openzeppelin/contracts/utils/Strings.sol\":1588:2029  function toHexString(uint256 value, uint256 length) internal pure returns (string memory) {... */\n    tag_291:\n        /* \"@openzeppelin/contracts/utils/Strings.sol\":1663:1676  string memory */\n      0x60\n        /* \"@openzeppelin/contracts/utils/Strings.sol\":1688:1707  bytes memory buffer */\n      0x00\n        /* \"@openzeppelin/contracts/utils/Strings.sol\":1733:1734  2 */\n      0x02\n        /* \"@openzeppelin/contracts/utils/Strings.sol\":1724:1730  length */\n      dup4\n        /* \"@openzeppelin/contracts/utils/Strings.sol\":1720:1721  2 */\n      0x02\n        /* \"@openzeppelin/contracts/utils/Strings.sol\":1720:1730  2 * length */\n      tag_314\n      swap2\n      swap1\n      tag_168\n      jump\t// in\n    tag_314:\n        /* \"@openzeppelin/contracts/utils/Strings.sol\":1720:1734  2 * length + 2 */\n      tag_315\n      swap2\n      swap1\n      tag_217\n      jump\t// in\n    tag_315:\n        /* \"@openzeppelin/contracts/utils/Strings.sol\":1710:1735  new bytes(2 * length + 2) */\n      0xffffffffffffffff\n      dup2\n      gt\n      iszero\n      tag_316\n      jumpi\n      tag_317\n      tag_318\n      jump\t// in\n    tag_317:\n    tag_316:\n      mload(0x40)\n      swap1\n      dup1\n      dup3\n      mstore\n      dup1\n      0x1f\n      add\n      not(0x1f)\n      and\n      0x20\n      add\n      dup3\n      add\n      0x40\n      mstore\n      dup1\n      iszero\n      tag_319\n      jumpi\n      dup2\n      0x20\n      add\n      0x01\n      dup3\n      mul\n      dup1\n      calldatasize\n      dup4\n      calldatacopy\n      dup1\n      dup3\n      add\n      swap2\n      pop\n      pop\n      swap1\n      pop\n    tag_319:\n      pop\n        /* \"@openzeppelin/contracts/utils/Strings.sol\":1688:1735  bytes memory buffer = new bytes(2 * length + 2) */\n      swap1\n      pop\n        /* \"@openzeppelin/contracts/utils/Strings.sol\":1745:1760  buffer[0] = \"0\" */\n      0x3000000000000000000000000000000000000000000000000000000000000000\n        /* \"@openzeppelin/contracts/utils/Strings.sol\":1745:1751  buffer */\n      dup2\n        /* \"@openzeppelin/contracts/utils/Strings.sol\":1752:1753  0 */\n      0x00\n        /* \"@openzeppelin/contracts/utils/Strings.sol\":1745:1754  buffer[0] */\n      dup2\n      mload\n      dup2\n      lt\n      tag_320\n      jumpi\n      tag_321\n      tag_213\n      jump\t// in\n    tag_321:\n    tag_320:\n      0x20\n      add\n      add\n        /* \"@openzeppelin/contracts/utils/Strings.sol\":1745:1760  buffer[0] = \"0\" */\n      swap1\n      not(0xffffffffffffffffffffffffffffffffffffffffffffffffffffffffffffff)\n      and\n      swap1\n      dup2\n      0x00\n      byte\n      swap1\n      mstore8\n      pop\n        /* \"@openzeppelin/contracts/utils/Strings.sol\":1770:1785  buffer[1] = \"x\" */\n      0x7800000000000000000000000000000000000000000000000000000000000000\n        /* \"@openzeppelin/contracts/utils/Strings.sol\":1770:1776  buffer */\n      dup2\n        /* \"@openzeppelin/contracts/utils/Strings.sol\":1777:1778  1 */\n      0x01\n        /* \"@openzeppelin/contracts/utils/Strings.sol\":1770:1779  buffer[1] */\n      dup2\n      mload\n      dup2\n      lt\n      tag_322\n      jumpi\n      tag_323\n      tag_213\n      jump\t// in\n    tag_323:\n    tag_322:\n      0x20\n      add\n      add\n        /* \"@openzeppelin/contracts/utils/Strings.sol\":1770:1785  buffer[1] = \"x\" */\n      swap1\n      not(0xffffffffffffffffffffffffffffffffffffffffffffffffffffffffffffff)\n      and\n      swap1\n      dup2\n      0x00\n      byte\n      swap1\n      mstore8\n      pop\n        /* \"@openzeppelin/contracts/utils/Strings.sol\":1800:1809  uint256 i */\n      0x00\n        /* \"@openzeppelin/contracts/utils/Strings.sol\":1825:1826  1 */\n      0x01\n        /* \"@openzeppelin/contracts/utils/Strings.sol\":1816:1822  length */\n      dup5\n        /* \"@openzeppelin/contracts/utils/Strings.sol\":1812:1813  2 */\n      0x02\n        /* \"@openzeppelin/contracts/utils/Strings.sol\":1812:1822  2 * length */\n      tag_327\n      swap2\n      swap1\n      tag_168\n      jump\t// in\n    tag_327:\n        /* \"@openzeppelin/contracts/utils/Strings.sol\":1812:1826  2 * length + 1 */\n      tag_328\n      swap2\n      swap1\n      tag_217\n      jump\t// in\n    tag_328:\n        /* \"@openzeppelin/contracts/utils/Strings.sol\":1800:1826  uint256 i = 2 * length + 1 */\n      swap1\n      pop\n        /* \"@openzeppelin/contracts/utils/Strings.sol\":1795:1927  for (uint256 i = 2 * length + 1; i > 1; --i) {... */\n    tag_324:\n        /* \"@openzeppelin/contracts/utils/Strings.sol\":1832:1833  1 */\n      0x01\n        /* \"@openzeppelin/contracts/utils/Strings.sol\":1828:1829  i */\n      dup2\n        /* \"@openzeppelin/contracts/utils/Strings.sol\":1828:1833  i > 1 */\n      gt\n        /* \"@openzeppelin/contracts/utils/Strings.sol\":1795:1927  for (uint256 i = 2 * length + 1; i > 1; --i) {... */\n      iszero\n      tag_325\n      jumpi\n        /* \"@openzeppelin/contracts/utils/Strings.sol\":1866:1878  _HEX_SYMBOLS */\n      0x3031323334353637383961626364656600000000000000000000000000000000\n        /* \"@openzeppelin/contracts/utils/Strings.sol\":1887:1890  0xf */\n      0x0f\n        /* \"@openzeppelin/contracts/utils/Strings.sol\":1879:1884  value */\n      dup7\n        /* \"@openzeppelin/contracts/utils/Strings.sol\":1879:1890  value & 0xf */\n      and\n        /* \"@openzeppelin/contracts/utils/Strings.sol\":1866:1891  _HEX_SYMBOLS[value & 0xf] */\n      0x10\n      dup2\n      lt\n      tag_329\n      jumpi\n      tag_330\n      tag_213\n      jump\t// in\n    tag_330:\n    tag_329:\n      byte\n      0xf8\n      shl\n        /* \"@openzeppelin/contracts/utils/Strings.sol\":1854:1860  buffer */\n      dup3\n        /* \"@openzeppelin/contracts/utils/Strings.sol\":1861:1862  i */\n      dup3\n        /* \"@openzeppelin/contracts/utils/Strings.sol\":1854:1863  buffer[i] */\n      dup2\n      mload\n      dup2\n      lt\n      tag_331\n      jumpi\n      tag_332\n      tag_213\n      jump\t// in\n    tag_332:\n    tag_331:\n      0x20\n      add\n      add\n        /* \"@openzeppelin/contracts/utils/Strings.sol\":1854:1891  buffer[i] = _HEX_SYMBOLS[value & 0xf] */\n      swap1\n      not(0xffffffffffffffffffffffffffffffffffffffffffffffffffffffffffffff)\n      and\n      swap1\n      dup2\n      0x00\n      byte\n      swap1\n      mstore8\n      pop\n        /* \"@openzeppelin/contracts/utils/Strings.sol\":1915:1916  4 */\n      0x04\n        /* \"@openzeppelin/contracts/utils/Strings.sol\":1905:1916  value >>= 4 */\n      dup6\n      swap1\n      shr\n      swap5\n      pop\n        /* \"@openzeppelin/contracts/utils/Strings.sol\":1835:1838  --i */\n      dup1\n      tag_333\n      swap1\n      tag_334\n      jump\t// in\n    tag_333:\n      swap1\n      pop\n        /* \"@openzeppelin/contracts/utils/Strings.sol\":1795:1927  for (uint256 i = 2 * length + 1; i > 1; --i) {... */\n      jump(tag_324)\n    tag_325:\n      pop\n        /* \"@openzeppelin/contracts/utils/Strings.sol\":1953:1954  0 */\n      0x00\n        /* \"@openzeppelin/contracts/utils/Strings.sol\":1944:1949  value */\n      dup5\n        /* \"@openzeppelin/contracts/utils/Strings.sol\":1944:1954  value == 0 */\n      eq\n        /* \"@openzeppelin/contracts/utils/Strings.sol\":1936:1991  require(value == 0, \"Strings: hex length insufficient\") */\n      tag_335\n      jumpi\n      mload(0x40)\n      0x08c379a000000000000000000000000000000000000000000000000000000000\n      dup2\n      mstore\n      0x04\n      add\n      tag_336\n      swap1\n      tag_337\n      jump\t// in\n    tag_336:\n      mload(0x40)\n      dup1\n      swap2\n      sub\n      swap1\n      revert\n    tag_335:\n        /* \"@openzeppelin/contracts/utils/Strings.sol\":2015:2021  buffer */\n      dup1\n        /* \"@openzeppelin/contracts/utils/Strings.sol\":2001:2022  return string(buffer) */\n      swap2\n      pop\n      pop\n        /* \"@openzeppelin/contracts/utils/Strings.sol\":1588:2029  function toHexString(uint256 value, uint256 length) internal pure returns (string memory) {... */\n      swap3\n      swap2\n      pop\n      pop\n      jump\t// out\n    tag_202:\n      dup3\n      dup1\n      sload\n      tag_338\n      swap1\n      tag_225\n      jump\t// in\n    tag_338:\n      swap1\n      0x00\n      mstore\n      keccak256(0x00, 0x20)\n      swap1\n      0x1f\n      add\n      0x20\n      swap1\n      div\n      dup2\n      add\n      swap3\n      dup3\n      tag_340\n      jumpi\n      0x00\n      dup6\n      sstore\n      jump(tag_339)\n    tag_340:\n      dup3\n      0x1f\n      lt\n      tag_341\n      jumpi\n      dup1\n      mload\n      not(0xff)\n      and\n      dup4\n      dup1\n      add\n      or\n      dup6\n      sstore\n      jump(tag_339)\n    tag_341:\n      dup3\n      dup1\n      add\n      0x01\n      add\n      dup6\n      sstore\n      dup3\n      iszero\n      tag_339\n      jumpi\n      swap2\n      dup3\n      add\n    tag_342:\n      dup3\n      dup2\n      gt\n      iszero\n      tag_343\n      jumpi\n      dup3\n      mload\n      dup3\n      sstore\n      swap2\n      0x20\n      add\n      swap2\n      swap1\n      0x01\n      add\n      swap1\n      jump(tag_342)\n    tag_343:\n    tag_339:\n      pop\n      swap1\n      pop\n      tag_344\n      swap2\n      swap1\n      tag_345\n      jump\t// in\n    tag_344:\n      pop\n      swap1\n      jump\t// out\n    tag_345:\n    tag_346:\n      dup1\n      dup3\n      gt\n      iszero\n      tag_347\n      jumpi\n      0x00\n      dup2\n      0x00\n      swap1\n      sstore\n      pop\n      0x01\n      add\n      jump(tag_346)\n    tag_347:\n      pop\n      swap1\n      jump\t// out\n        /* \"#utility.yul\":7:419   */\n    tag_349:\n        /* \"#utility.yul\":85:90   */\n      0x00\n        /* \"#utility.yul\":110:176   */\n      tag_351\n        /* \"#utility.yul\":126:175   */\n      tag_352\n        /* \"#utility.yul\":168:174   */\n      dup5\n        /* \"#utility.yul\":126:175   */\n      tag_353\n      jump\t// in\n    tag_352:\n        /* \"#utility.yul\":110:176   */\n      tag_354\n      jump\t// in\n    tag_351:\n        /* \"#utility.yul\":101:176   */\n      swap1\n      pop\n        /* \"#utility.yul\":199:205   */\n      dup3\n        /* \"#utility.yul\":192:197   */\n      dup2\n        /* \"#utility.yul\":185:206   */\n      mstore\n        /* \"#utility.yul\":237:241   */\n      0x20\n        /* \"#utility.yul\":230:235   */\n      dup2\n        /* \"#utility.yul\":226:242   */\n      add\n        /* \"#utility.yul\":275:278   */\n      dup5\n        /* \"#utility.yul\":266:272   */\n      dup5\n        /* \"#utility.yul\":261:264   */\n      dup5\n        /* \"#utility.yul\":257:273   */\n      add\n        /* \"#utility.yul\":254:279   */\n      gt\n        /* \"#utility.yul\":251:363   */\n      iszero\n      tag_355\n      jumpi\n        /* \"#utility.yul\":282:361   */\n      tag_356\n      tag_357\n      jump\t// in\n    tag_356:\n        /* \"#utility.yul\":251:363   */\n    tag_355:\n        /* \"#utility.yul\":372:413   */\n      tag_358\n        /* \"#utility.yul\":406:412   */\n      dup5\n        /* \"#utility.yul\":401:404   */\n      dup3\n        /* \"#utility.yul\":396:399   */\n      dup6\n        /* \"#utility.yul\":372:413   */\n      tag_359\n      jump\t// in\n    tag_358:\n        /* \"#utility.yul\":91:419   */\n      pop\n        /* \"#utility.yul\":7:419   */\n      swap4\n      swap3\n      pop\n      pop\n      pop\n      jump\t// out\n        /* \"#utility.yul\":425:564   */\n    tag_360:\n        /* \"#utility.yul\":471:476   */\n      0x00\n        /* \"#utility.yul\":509:515   */\n      dup2\n        /* \"#utility.yul\":496:516   */\n      calldataload\n        /* \"#utility.yul\":487:516   */\n      swap1\n      pop\n        /* \"#utility.yul\":525:558   */\n      tag_362\n        /* \"#utility.yul\":552:557   */\n      dup2\n        /* \"#utility.yul\":525:558   */\n      tag_363\n      jump\t// in\n    tag_362:\n        /* \"#utility.yul\":425:564   */\n      swap3\n      swap2\n      pop\n      pop\n      jump\t// out\n        /* \"#utility.yul\":570:703   */\n    tag_364:\n        /* \"#utility.yul\":613:618   */\n      0x00\n        /* \"#utility.yul\":651:657   */\n      dup2\n        /* \"#utility.yul\":638:658   */\n      calldataload\n        /* \"#utility.yul\":629:658   */\n      swap1\n      pop\n        /* \"#utility.yul\":667:697   */\n      tag_366\n        /* \"#utility.yul\":691:696   */\n      dup2\n        /* \"#utility.yul\":667:697   */\n      tag_367\n      jump\t// in\n    tag_366:\n        /* \"#utility.yul\":570:703   */\n      swap3\n      swap2\n      pop\n      pop\n      jump\t// out\n        /* \"#utility.yul\":709:848   */\n    tag_368:\n        /* \"#utility.yul\":755:760   */\n      0x00\n        /* \"#utility.yul\":793:799   */\n      dup2\n        /* \"#utility.yul\":780:800   */\n      calldataload\n        /* \"#utility.yul\":771:800   */\n      swap1\n      pop\n        /* \"#utility.yul\":809:842   */\n      tag_370\n        /* \"#utility.yul\":836:841   */\n      dup2\n        /* \"#utility.yul\":809:842   */\n      tag_371\n      jump\t// in\n    tag_370:\n        /* \"#utility.yul\":709:848   */\n      swap3\n      swap2\n      pop\n      pop\n      jump\t// out\n        /* \"#utility.yul\":854:991   */\n    tag_372:\n        /* \"#utility.yul\":899:904   */\n      0x00\n        /* \"#utility.yul\":937:943   */\n      dup2\n        /* \"#utility.yul\":924:944   */\n      calldataload\n        /* \"#utility.yul\":915:944   */\n      swap1\n      pop\n        /* \"#utility.yul\":953:985   */\n      tag_374\n        /* \"#utility.yul\":979:984   */\n      dup2\n        /* \"#utility.yul\":953:985   */\n      tag_375\n      jump\t// in\n    tag_374:\n        /* \"#utility.yul\":854:991   */\n      swap3\n      swap2\n      pop\n      pop\n      jump\t// out\n        /* \"#utility.yul\":1011:1351   */\n    tag_376:\n        /* \"#utility.yul\":1067:1072   */\n      0x00\n        /* \"#utility.yul\":1116:1119   */\n      dup3\n        /* \"#utility.yul\":1109:1113   */\n      0x1f\n        /* \"#utility.yul\":1101:1107   */\n      dup4\n        /* \"#utility.yul\":1097:1114   */\n      add\n        /* \"#utility.yul\":1093:1120   */\n      slt\n        /* \"#utility.yul\":1083:1205   */\n      tag_378\n      jumpi\n        /* \"#utility.yul\":1124:1203   */\n      tag_379\n      tag_380\n      jump\t// in\n    tag_379:\n        /* \"#utility.yul\":1083:1205   */\n    tag_378:\n        /* \"#utility.yul\":1241:1247   */\n      dup2\n        /* \"#utility.yul\":1228:1248   */\n      calldataload\n        /* \"#utility.yul\":1266:1345   */\n      tag_381\n        /* \"#utility.yul\":1341:1344   */\n      dup5\n        /* \"#utility.yul\":1333:1339   */\n      dup3\n        /* \"#utility.yul\":1326:1330   */\n      0x20\n        /* \"#utility.yul\":1318:1324   */\n      dup7\n        /* \"#utility.yul\":1314:1331   */\n      add\n        /* \"#utility.yul\":1266:1345   */\n      tag_349\n      jump\t// in\n    tag_381:\n        /* \"#utility.yul\":1257:1345   */\n      swap2\n      pop\n        /* \"#utility.yul\":1073:1351   */\n      pop\n        /* \"#utility.yul\":1011:1351   */\n      swap3\n      swap2\n      pop\n      pop\n      jump\t// out\n        /* \"#utility.yul\":1357:1496   */\n    tag_382:\n        /* \"#utility.yul\":1403:1408   */\n      0x00\n        /* \"#utility.yul\":1441:1447   */\n      dup2\n        /* \"#utility.yul\":1428:1448   */\n      calldataload\n        /* \"#utility.yul\":1419:1448   */\n      swap1\n      pop\n        /* \"#utility.yul\":1457:1490   */\n      tag_384\n        /* \"#utility.yul\":1484:1489   */\n      dup2\n        /* \"#utility.yul\":1457:1490   */\n      tag_385\n      jump\t// in\n    tag_384:\n        /* \"#utility.yul\":1357:1496   */\n      swap3\n      swap2\n      pop\n      pop\n      jump\t// out\n        /* \"#utility.yul\":1502:1637   */\n    tag_386:\n        /* \"#utility.yul\":1546:1551   */\n      0x00\n        /* \"#utility.yul\":1584:1590   */\n      dup2\n        /* \"#utility.yul\":1571:1591   */\n      calldataload\n        /* \"#utility.yul\":1562:1591   */\n      swap1\n      pop\n        /* \"#utility.yul\":1600:1631   */\n      tag_388\n        /* \"#utility.yul\":1625:1630   */\n      dup2\n        /* \"#utility.yul\":1600:1631   */\n      tag_389\n      jump\t// in\n    tag_388:\n        /* \"#utility.yul\":1502:1637   */\n      swap3\n      swap2\n      pop\n      pop\n      jump\t// out\n        /* \"#utility.yul\":1643:1972   */\n    tag_45:\n        /* \"#utility.yul\":1702:1708   */\n      0x00\n        /* \"#utility.yul\":1751:1753   */\n      0x20\n        /* \"#utility.yul\":1739:1748   */\n      dup3\n        /* \"#utility.yul\":1730:1737   */\n      dup5\n        /* \"#utility.yul\":1726:1749   */\n      sub\n        /* \"#utility.yul\":1722:1754   */\n      slt\n        /* \"#utility.yul\":1719:1838   */\n      iszero\n      tag_391\n      jumpi\n        /* \"#utility.yul\":1757:1836   */\n      tag_392\n      tag_393\n      jump\t// in\n    tag_392:\n        /* \"#utility.yul\":1719:1838   */\n    tag_391:\n        /* \"#utility.yul\":1877:1878   */\n      0x00\n        /* \"#utility.yul\":1902:1955   */\n      tag_394\n        /* \"#utility.yul\":1947:1954   */\n      dup5\n        /* \"#utility.yul\":1938:1944   */\n      dup3\n        /* \"#utility.yul\":1927:1936   */\n      dup6\n        /* \"#utility.yul\":1923:1945   */\n      add\n        /* \"#utility.yul\":1902:1955   */\n      tag_368\n      jump\t// in\n    tag_394:\n        /* \"#utility.yul\":1892:1955   */\n      swap2\n      pop\n        /* \"#utility.yul\":1848:1965   */\n      pop\n        /* \"#utility.yul\":1643:1972   */\n      swap3\n      swap2\n      pop\n      pop\n      jump\t// out\n        /* \"#utility.yul\":1978:2452   */\n    tag_52:\n        /* \"#utility.yul\":2046:2052   */\n      0x00\n        /* \"#utility.yul\":2054:2060   */\n      dup1\n        /* \"#utility.yul\":2103:2105   */\n      0x40\n        /* \"#utility.yul\":2091:2100   */\n      dup4\n        /* \"#utility.yul\":2082:2089   */\n      dup6\n        /* \"#utility.yul\":2078:2101   */\n      sub\n        /* \"#utility.yul\":2074:2106   */\n      slt\n        /* \"#utility.yul\":2071:2190   */\n      iszero\n      tag_396\n      jumpi\n        /* \"#utility.yul\":2109:2188   */\n      tag_397\n      tag_393\n      jump\t// in\n    tag_397:\n        /* \"#utility.yul\":2071:2190   */\n    tag_396:\n        /* \"#utility.yul\":2229:2230   */\n      0x00\n        /* \"#utility.yul\":2254:2307   */\n      tag_398\n        /* \"#utility.yul\":2299:2306   */\n      dup6\n        /* \"#utility.yul\":2290:2296   */\n      dup3\n        /* \"#utility.yul\":2279:2288   */\n      dup7\n        /* \"#utility.yul\":2275:2297   */\n      add\n        /* \"#utility.yul\":2254:2307   */\n      tag_368\n      jump\t// in\n    tag_398:\n        /* \"#utility.yul\":2244:2307   */\n      swap3\n      pop\n        /* \"#utility.yul\":2200:2317   */\n      pop\n        /* \"#utility.yul\":2356:2358   */\n      0x20\n        /* \"#utility.yul\":2382:2435   */\n      tag_399\n        /* \"#utility.yul\":2427:2434   */\n      dup6\n        /* \"#utility.yul\":2418:2424   */\n      dup3\n        /* \"#utility.yul\":2407:2416   */\n      dup7\n        /* \"#utility.yul\":2403:2425   */\n      add\n        /* \"#utility.yul\":2382:2435   */\n      tag_360\n      jump\t// in\n    tag_399:\n        /* \"#utility.yul\":2372:2435   */\n      swap2\n      pop\n        /* \"#utility.yul\":2327:2445   */\n      pop\n        /* \"#utility.yul\":1978:2452   */\n      swap3\n      pop\n      swap3\n      swap1\n      pop\n      jump\t// out\n        /* \"#utility.yul\":2458:2785   */\n    tag_30:\n        /* \"#utility.yul\":2516:2522   */\n      0x00\n        /* \"#utility.yul\":2565:2567   */\n      0x20\n        /* \"#utility.yul\":2553:2562   */\n      dup3\n        /* \"#utility.yul\":2544:2551   */\n      dup5\n        /* \"#utility.yul\":2540:2563   */\n      sub\n        /* \"#utility.yul\":2536:2568   */\n      slt\n        /* \"#utility.yul\":2533:2652   */\n      iszero\n      tag_401\n      jumpi\n        /* \"#utility.yul\":2571:2650   */\n      tag_402\n      tag_393\n      jump\t// in\n    tag_402:\n        /* \"#utility.yul\":2533:2652   */\n    tag_401:\n        /* \"#utility.yul\":2691:2692   */\n      0x00\n        /* \"#utility.yul\":2716:2768   */\n      tag_403\n        /* \"#utility.yul\":2760:2767   */\n      dup5\n        /* \"#utility.yul\":2751:2757   */\n      dup3\n        /* \"#utility.yul\":2740:2749   */\n      dup6\n        /* \"#utility.yul\":2736:2758   */\n      add\n        /* \"#utility.yul\":2716:2768   */\n      tag_372\n      jump\t// in\n    tag_403:\n        /* \"#utility.yul\":2706:2768   */\n      swap2\n      pop\n        /* \"#utility.yul\":2662:2778   */\n      pop\n        /* \"#utility.yul\":2458:2785   */\n      swap3\n      swap2\n      pop\n      pop\n      jump\t// out\n        /* \"#utility.yul\":2791:4378   */\n    tag_66:\n        /* \"#utility.yul\":2920:2926   */\n      0x00\n        /* \"#utility.yul\":2928:2934   */\n      dup1\n        /* \"#utility.yul\":2936:2942   */\n      0x00\n        /* \"#utility.yul\":2944:2950   */\n      dup1\n        /* \"#utility.yul\":2952:2958   */\n      0x00\n        /* \"#utility.yul\":2960:2966   */\n      dup1\n        /* \"#utility.yul\":3009:3012   */\n      0xc0\n        /* \"#utility.yul\":2997:3006   */\n      dup8\n        /* \"#utility.yul\":2988:2995   */\n      dup10\n        /* \"#utility.yul\":2984:3007   */\n      sub\n        /* \"#utility.yul\":2980:3013   */\n      slt\n        /* \"#utility.yul\":2977:3097   */\n      iszero\n      tag_405\n      jumpi\n        /* \"#utility.yul\":3016:3095   */\n      tag_406\n      tag_393\n      jump\t// in\n    tag_406:\n        /* \"#utility.yul\":2977:3097   */\n    tag_405:\n        /* \"#utility.yul\":3164:3165   */\n      0x00\n        /* \"#utility.yul\":3153:3162   */\n      dup8\n        /* \"#utility.yul\":3149:3166   */\n      add\n        /* \"#utility.yul\":3136:3167   */\n      calldataload\n        /* \"#utility.yul\":3194:3212   */\n      0xffffffffffffffff\n        /* \"#utility.yul\":3186:3192   */\n      dup2\n        /* \"#utility.yul\":3183:3213   */\n      gt\n        /* \"#utility.yul\":3180:3297   */\n      iszero\n      tag_407\n      jumpi\n        /* \"#utility.yul\":3216:3295   */\n      tag_408\n      tag_409\n      jump\t// in\n    tag_408:\n        /* \"#utility.yul\":3180:3297   */\n    tag_407:\n        /* \"#utility.yul\":3321:3384   */\n      tag_410\n        /* \"#utility.yul\":3376:3383   */\n      dup10\n        /* \"#utility.yul\":3367:3373   */\n      dup3\n        /* \"#utility.yul\":3356:3365   */\n      dup11\n        /* \"#utility.yul\":3352:3374   */\n      add\n        /* \"#utility.yul\":3321:3384   */\n      tag_376\n      jump\t// in\n    tag_410:\n        /* \"#utility.yul\":3311:3384   */\n      swap7\n      pop\n        /* \"#utility.yul\":3107:3394   */\n      pop\n        /* \"#utility.yul\":3461:3463   */\n      0x20\n        /* \"#utility.yul\":3450:3459   */\n      dup8\n        /* \"#utility.yul\":3446:3464   */\n      add\n        /* \"#utility.yul\":3433:3465   */\n      calldataload\n        /* \"#utility.yul\":3492:3510   */\n      0xffffffffffffffff\n        /* \"#utility.yul\":3484:3490   */\n      dup2\n        /* \"#utility.yul\":3481:3511   */\n      gt\n        /* \"#utility.yul\":3478:3595   */\n      iszero\n      tag_411\n      jumpi\n        /* \"#utility.yul\":3514:3593   */\n      tag_412\n      tag_409\n      jump\t// in\n    tag_412:\n        /* \"#utility.yul\":3478:3595   */\n    tag_411:\n        /* \"#utility.yul\":3619:3682   */\n      tag_413\n        /* \"#utility.yul\":3674:3681   */\n      dup10\n        /* \"#utility.yul\":3665:3671   */\n      dup3\n        /* \"#utility.yul\":3654:3663   */\n      dup11\n        /* \"#utility.yul\":3650:3672   */\n      add\n        /* \"#utility.yul\":3619:3682   */\n      tag_376\n      jump\t// in\n    tag_413:\n        /* \"#utility.yul\":3609:3682   */\n      swap6\n      pop\n        /* \"#utility.yul\":3404:3692   */\n      pop\n        /* \"#utility.yul\":3731:3733   */\n      0x40\n        /* \"#utility.yul\":3757:3810   */\n      tag_414\n        /* \"#utility.yul\":3802:3809   */\n      dup10\n        /* \"#utility.yul\":3793:3799   */\n      dup3\n        /* \"#utility.yul\":3782:3791   */\n      dup11\n        /* \"#utility.yul\":3778:3800   */\n      add\n        /* \"#utility.yul\":3757:3810   */\n      tag_382\n      jump\t// in\n    tag_414:\n        /* \"#utility.yul\":3747:3810   */\n      swap5\n      pop\n        /* \"#utility.yul\":3702:3820   */\n      pop\n        /* \"#utility.yul\":3887:3889   */\n      0x60\n        /* \"#utility.yul\":3876:3885   */\n      dup8\n        /* \"#utility.yul\":3872:3890   */\n      add\n        /* \"#utility.yul\":3859:3891   */\n      calldataload\n        /* \"#utility.yul\":3918:3936   */\n      0xffffffffffffffff\n        /* \"#utility.yul\":3910:3916   */\n      dup2\n        /* \"#utility.yul\":3907:3937   */\n      gt\n        /* \"#utility.yul\":3904:4021   */\n      iszero\n      tag_415\n      jumpi\n        /* \"#utility.yul\":3940:4019   */\n      tag_416\n      tag_409\n      jump\t// in\n    tag_416:\n        /* \"#utility.yul\":3904:4021   */\n    tag_415:\n        /* \"#utility.yul\":4045:4108   */\n      tag_417\n        /* \"#utility.yul\":4100:4107   */\n      dup10\n        /* \"#utility.yul\":4091:4097   */\n      dup3\n        /* \"#utility.yul\":4080:4089   */\n      dup11\n        /* \"#utility.yul\":4076:4098   */\n      add\n        /* \"#utility.yul\":4045:4108   */\n      tag_376\n      jump\t// in\n    tag_417:\n        /* \"#utility.yul\":4035:4108   */\n      swap4\n      pop\n        /* \"#utility.yul\":3830:4118   */\n      pop\n        /* \"#utility.yul\":4157:4160   */\n      0x80\n        /* \"#utility.yul\":4184:4235   */\n      tag_418\n        /* \"#utility.yul\":4227:4234   */\n      dup10\n        /* \"#utility.yul\":4218:4224   */\n      dup3\n        /* \"#utility.yul\":4207:4216   */\n      dup11\n        /* \"#utility.yul\":4203:4225   */\n      add\n        /* \"#utility.yul\":4184:4235   */\n      tag_386\n      jump\t// in\n    tag_418:\n        /* \"#utility.yul\":4174:4235   */\n      swap3\n      pop\n        /* \"#utility.yul\":4128:4245   */\n      pop\n        /* \"#utility.yul\":4284:4287   */\n      0xa0\n        /* \"#utility.yul\":4311:4361   */\n      tag_419\n        /* \"#utility.yul\":4353:4360   */\n      dup10\n        /* \"#utility.yul\":4344:4350   */\n      dup3\n        /* \"#utility.yul\":4333:4342   */\n      dup11\n        /* \"#utility.yul\":4329:4351   */\n      add\n        /* \"#utility.yul\":4311:4361   */\n      tag_364\n      jump\t// in\n    tag_419:\n        /* \"#utility.yul\":4301:4361   */\n      swap2\n      pop\n        /* \"#utility.yul\":4255:4371   */\n      pop\n        /* \"#utility.yul\":2791:4378   */\n      swap3\n      swap6\n      pop\n      swap3\n      swap6\n      pop\n      swap3\n      swap6\n      jump\t// out\n        /* \"#utility.yul\":4384:4713   */\n    tag_71:\n        /* \"#utility.yul\":4443:4449   */\n      0x00\n        /* \"#utility.yul\":4492:4494   */\n      0x20\n        /* \"#utility.yul\":4480:4489   */\n      dup3\n        /* \"#utility.yul\":4471:4478   */\n      dup5\n        /* \"#utility.yul\":4467:4490   */\n      sub\n        /* \"#utility.yul\":4463:4495   */\n      slt\n        /* \"#utility.yul\":4460:4579   */\n      iszero\n      tag_421\n      jumpi\n        /* \"#utility.yul\":4498:4577   */\n      tag_422\n      tag_393\n      jump\t// in\n    tag_422:\n        /* \"#utility.yul\":4460:4579   */\n    tag_421:\n        /* \"#utility.yul\":4618:4619   */\n      0x00\n        /* \"#utility.yul\":4643:4696   */\n      tag_423\n        /* \"#utility.yul\":4688:4695   */\n      dup5\n        /* \"#utility.yul\":4679:4685   */\n      dup3\n        /* \"#utility.yul\":4668:4677   */\n      dup6\n        /* \"#utility.yul\":4664:4686   */\n      add\n        /* \"#utility.yul\":4643:4696   */\n      tag_382\n      jump\t// in\n    tag_423:\n        /* \"#utility.yul\":4633:4696   */\n      swap2\n      pop\n        /* \"#utility.yul\":4589:4706   */\n      pop\n        /* \"#utility.yul\":4384:4713   */\n      swap3\n      swap2\n      pop\n      pop\n      jump\t// out\n        /* \"#utility.yul\":4719:5193   */\n    tag_133:\n        /* \"#utility.yul\":4787:4793   */\n      0x00\n        /* \"#utility.yul\":4795:4801   */\n      dup1\n        /* \"#utility.yul\":4844:4846   */\n      0x40\n        /* \"#utility.yul\":4832:4841   */\n      dup4\n        /* \"#utility.yul\":4823:4830   */\n      dup6\n        /* \"#utility.yul\":4819:4842   */\n      sub\n        /* \"#utility.yul\":4815:4847   */\n      slt\n        /* \"#utility.yul\":4812:4931   */\n      iszero\n      tag_425\n      jumpi\n        /* \"#utility.yul\":4850:4929   */\n      tag_426\n      tag_393\n      jump\t// in\n    tag_426:\n        /* \"#utility.yul\":4812:4931   */\n    tag_425:\n        /* \"#utility.yul\":4970:4971   */\n      0x00\n        /* \"#utility.yul\":4995:5048   */\n      tag_427\n        /* \"#utility.yul\":5040:5047   */\n      dup6\n        /* \"#utility.yul\":5031:5037   */\n      dup3\n        /* \"#utility.yul\":5020:5029   */\n      dup7\n        /* \"#utility.yul\":5016:5038   */\n      add\n        /* \"#utility.yul\":4995:5048   */\n      tag_382\n      jump\t// in\n    tag_427:\n        /* \"#utility.yul\":4985:5048   */\n      swap3\n      pop\n        /* \"#utility.yul\":4941:5058   */\n      pop\n        /* \"#utility.yul\":5097:5099   */\n      0x20\n        /* \"#utility.yul\":5123:5176   */\n      tag_428\n        /* \"#utility.yul\":5168:5175   */\n      dup6\n        /* \"#utility.yul\":5159:5165   */\n      dup3\n        /* \"#utility.yul\":5148:5157   */\n      dup7\n        /* \"#utility.yul\":5144:5166   */\n      add\n        /* \"#utility.yul\":5123:5176   */\n      tag_360\n      jump\t// in\n    tag_428:\n        /* \"#utility.yul\":5113:5176   */\n      swap2\n      pop\n        /* \"#utility.yul\":5068:5186   */\n      pop\n        /* \"#utility.yul\":4719:5193   */\n      swap3\n      pop\n      swap3\n      swap1\n      pop\n      jump\t// out\n        /* \"#utility.yul\":5199:5667   */\n    tag_97:\n        /* \"#utility.yul\":5264:5270   */\n      0x00\n        /* \"#utility.yul\":5272:5278   */\n      dup1\n        /* \"#utility.yul\":5321:5323   */\n      0x40\n        /* \"#utility.yul\":5309:5318   */\n      dup4\n        /* \"#utility.yul\":5300:5307   */\n      dup6\n        /* \"#utility.yul\":5296:5319   */\n      sub\n        /* \"#utility.yul\":5292:5324   */\n      slt\n        /* \"#utility.yul\":5289:5408   */\n      iszero\n      tag_430\n      jumpi\n        /* \"#utility.yul\":5327:5406   */\n      tag_431\n      tag_393\n      jump\t// in\n    tag_431:\n        /* \"#utility.yul\":5289:5408   */\n    tag_430:\n        /* \"#utility.yul\":5447:5448   */\n      0x00\n        /* \"#utility.yul\":5472:5525   */\n      tag_432\n        /* \"#utility.yul\":5517:5524   */\n      dup6\n        /* \"#utility.yul\":5508:5514   */\n      dup3\n        /* \"#utility.yul\":5497:5506   */\n      dup7\n        /* \"#utility.yul\":5493:5515   */\n      add\n        /* \"#utility.yul\":5472:5525   */\n      tag_382\n      jump\t// in\n    tag_432:\n        /* \"#utility.yul\":5462:5525   */\n      swap3\n      pop\n        /* \"#utility.yul\":5418:5535   */\n      pop\n        /* \"#utility.yul\":5574:5576   */\n      0x20\n        /* \"#utility.yul\":5600:5650   */\n      tag_433\n        /* \"#utility.yul\":5642:5649   */\n      dup6\n        /* \"#utility.yul\":5633:5639   */\n      dup3\n        /* \"#utility.yul\":5622:5631   */\n      dup7\n        /* \"#utility.yul\":5618:5640   */\n      add\n        /* \"#utility.yul\":5600:5650   */\n      tag_364\n      jump\t// in\n    tag_433:\n        /* \"#utility.yul\":5590:5650   */\n      swap2\n      pop\n        /* \"#utility.yul\":5545:5660   */\n      pop\n        /* \"#utility.yul\":5199:5667   */\n      swap3\n      pop\n      swap3\n      swap1\n      pop\n      jump\t// out\n        /* \"#utility.yul\":5673:6327   */\n    tag_83:\n        /* \"#utility.yul\":5751:5757   */\n      0x00\n        /* \"#utility.yul\":5759:5765   */\n      dup1\n        /* \"#utility.yul\":5808:5810   */\n      0x40\n        /* \"#utility.yul\":5796:5805   */\n      dup4\n        /* \"#utility.yul\":5787:5794   */\n      dup6\n        /* \"#utility.yul\":5783:5806   */\n      sub\n        /* \"#utility.yul\":5779:5811   */\n      slt\n        /* \"#utility.yul\":5776:5895   */\n      iszero\n      tag_435\n      jumpi\n        /* \"#utility.yul\":5814:5893   */\n      tag_436\n      tag_393\n      jump\t// in\n    tag_436:\n        /* \"#utility.yul\":5776:5895   */\n    tag_435:\n        /* \"#utility.yul\":5934:5935   */\n      0x00\n        /* \"#utility.yul\":5959:6012   */\n      tag_437\n        /* \"#utility.yul\":6004:6011   */\n      dup6\n        /* \"#utility.yul\":5995:6001   */\n      dup3\n        /* \"#utility.yul\":5984:5993   */\n      dup7\n        /* \"#utility.yul\":5980:6002   */\n      add\n        /* \"#utility.yul\":5959:6012   */\n      tag_382\n      jump\t// in\n    tag_437:\n        /* \"#utility.yul\":5949:6012   */\n      swap3\n      pop\n        /* \"#utility.yul\":5905:6022   */\n      pop\n        /* \"#utility.yul\":6089:6091   */\n      0x20\n        /* \"#utility.yul\":6078:6087   */\n      dup4\n        /* \"#utility.yul\":6074:6092   */\n      add\n        /* \"#utility.yul\":6061:6093   */\n      calldataload\n        /* \"#utility.yul\":6120:6138   */\n      0xffffffffffffffff\n        /* \"#utility.yul\":6112:6118   */\n      dup2\n        /* \"#utility.yul\":6109:6139   */\n      gt\n        /* \"#utility.yul\":6106:6223   */\n      iszero\n      tag_438\n      jumpi\n        /* \"#utility.yul\":6142:6221   */\n      tag_439\n      tag_409\n      jump\t// in\n    tag_439:\n        /* \"#utility.yul\":6106:6223   */\n    tag_438:\n        /* \"#utility.yul\":6247:6310   */\n      tag_440\n        /* \"#utility.yul\":6302:6309   */\n      dup6\n        /* \"#utility.yul\":6293:6299   */\n      dup3\n        /* \"#utility.yul\":6282:6291   */\n      dup7\n        /* \"#utility.yul\":6278:6300   */\n      add\n        /* \"#utility.yul\":6247:6310   */\n      tag_376\n      jump\t// in\n    tag_440:\n        /* \"#utility.yul\":6237:6310   */\n      swap2\n      pop\n        /* \"#utility.yul\":6032:6320   */\n      pop\n        /* \"#utility.yul\":5673:6327   */\n      swap3\n      pop\n      swap3\n      swap1\n      pop\n      jump\t// out\n        /* \"#utility.yul\":6333:6807   */\n    tag_102:\n        /* \"#utility.yul\":6401:6407   */\n      0x00\n        /* \"#utility.yul\":6409:6415   */\n      dup1\n        /* \"#utility.yul\":6458:6460   */\n      0x40\n        /* \"#utility.yul\":6446:6455   */\n      dup4\n        /* \"#utility.yul\":6437:6444   */\n      dup6\n        /* \"#utility.yul\":6433:6456   */\n      sub\n        /* \"#utility.yul\":6429:6461   */\n      slt\n        /* \"#utility.yul\":6426:6545   */\n      iszero\n      tag_442\n      jumpi\n        /* \"#utility.yul\":6464:6543   */\n      tag_443\n      tag_393\n      jump\t// in\n    tag_443:\n        /* \"#utility.yul\":6426:6545   */\n    tag_442:\n        /* \"#utility.yul\":6584:6585   */\n      0x00\n        /* \"#utility.yul\":6609:6662   */\n      tag_444\n        /* \"#utility.yul\":6654:6661   */\n      dup6\n        /* \"#utility.yul\":6645:6651   */\n      dup3\n        /* \"#utility.yul\":6634:6643   */\n      dup7\n        /* \"#utility.yul\":6630:6652   */\n      add\n        /* \"#utility.yul\":6609:6662   */\n      tag_382\n      jump\t// in\n    tag_444:\n        /* \"#utility.yul\":6599:6662   */\n      swap3\n      pop\n        /* \"#utility.yul\":6555:6672   */\n      pop\n        /* \"#utility.yul\":6711:6713   */\n      0x20\n        /* \"#utility.yul\":6737:6790   */\n      tag_445\n        /* \"#utility.yul\":6782:6789   */\n      dup6\n        /* \"#utility.yul\":6773:6779   */\n      dup3\n        /* \"#utility.yul\":6762:6771   */\n      dup7\n        /* \"#utility.yul\":6758:6780   */\n      add\n        /* \"#utility.yul\":6737:6790   */\n      tag_382\n      jump\t// in\n    tag_445:\n        /* \"#utility.yul\":6727:6790   */\n      swap2\n      pop\n        /* \"#utility.yul\":6682:6800   */\n      pop\n        /* \"#utility.yul\":6333:6807   */\n      swap3\n      pop\n      swap3\n      swap1\n      pop\n      jump\t// out\n        /* \"#utility.yul\":6813:7283   */\n    tag_37:\n        /* \"#utility.yul\":6879:6885   */\n      0x00\n        /* \"#utility.yul\":6887:6893   */\n      dup1\n        /* \"#utility.yul\":6936:6938   */\n      0x40\n        /* \"#utility.yul\":6924:6933   */\n      dup4\n        /* \"#utility.yul\":6915:6922   */\n      dup6\n        /* \"#utility.yul\":6911:6934   */\n      sub\n        /* \"#utility.yul\":6907:6939   */\n      slt\n        /* \"#utility.yul\":6904:7023   */\n      iszero\n      tag_447\n      jumpi\n        /* \"#utility.yul\":6942:7021   */\n      tag_448\n      tag_393\n      jump\t// in\n    tag_448:\n        /* \"#utility.yul\":6904:7023   */\n    tag_447:\n        /* \"#utility.yul\":7062:7063   */\n      0x00\n        /* \"#utility.yul\":7087:7140   */\n      tag_449\n        /* \"#utility.yul\":7132:7139   */\n      dup6\n        /* \"#utility.yul\":7123:7129   */\n      dup3\n        /* \"#utility.yul\":7112:7121   */\n      dup7\n        /* \"#utility.yul\":7108:7130   */\n      add\n        /* \"#utility.yul\":7087:7140   */\n      tag_382\n      jump\t// in\n    tag_449:\n        /* \"#utility.yul\":7077:7140   */\n      swap3\n      pop\n        /* \"#utility.yul\":7033:7150   */\n      pop\n        /* \"#utility.yul\":7189:7191   */\n      0x20\n        /* \"#utility.yul\":7215:7266   */\n      tag_450\n        /* \"#utility.yul\":7258:7265   */\n      dup6\n        /* \"#utility.yul\":7249:7255   */\n      dup3\n        /* \"#utility.yul\":7238:7247   */\n      dup7\n        /* \"#utility.yul\":7234:7256   */\n      add\n        /* \"#utility.yul\":7215:7266   */\n      tag_386\n      jump\t// in\n    tag_450:\n        /* \"#utility.yul\":7205:7266   */\n      swap2\n      pop\n        /* \"#utility.yul\":7160:7276   */\n      pop\n        /* \"#utility.yul\":6813:7283   */\n      swap3\n      pop\n      swap3\n      swap1\n      pop\n      jump\t// out\n        /* \"#utility.yul\":7289:7436   */\n    tag_451:\n        /* \"#utility.yul\":7384:7429   */\n      tag_453\n        /* \"#utility.yul\":7423:7428   */\n      dup2\n        /* \"#utility.yul\":7384:7429   */\n      tag_454\n      jump\t// in\n    tag_453:\n        /* \"#utility.yul\":7379:7382   */\n      dup3\n        /* \"#utility.yul\":7372:7430   */\n      mstore\n        /* \"#utility.yul\":7289:7436   */\n      pop\n      pop\n      jump\t// out\n        /* \"#utility.yul\":7442:7584   */\n    tag_455:\n        /* \"#utility.yul\":7545:7577   */\n      tag_457\n        /* \"#utility.yul\":7571:7576   */\n      dup2\n        /* \"#utility.yul\":7545:7577   */\n      tag_458\n      jump\t// in\n    tag_457:\n        /* \"#utility.yul\":7540:7543   */\n      dup3\n        /* \"#utility.yul\":7533:7578   */\n      mstore\n        /* \"#utility.yul\":7442:7584   */\n      pop\n      pop\n      jump\t// out\n        /* \"#utility.yul\":7590:7708   */\n    tag_459:\n        /* \"#utility.yul\":7677:7701   */\n      tag_461\n        /* \"#utility.yul\":7695:7700   */\n      dup2\n        /* \"#utility.yul\":7677:7701   */\n      tag_462\n      jump\t// in\n    tag_461:\n        /* \"#utility.yul\":7672:7675   */\n      dup3\n        /* \"#utility.yul\":7665:7702   */\n      mstore\n        /* \"#utility.yul\":7590:7708   */\n      pop\n      pop\n      jump\t// out\n        /* \"#utility.yul\":7714:7823   */\n    tag_463:\n        /* \"#utility.yul\":7795:7816   */\n      tag_465\n        /* \"#utility.yul\":7810:7815   */\n      dup2\n        /* \"#utility.yul\":7795:7816   */\n      tag_466\n      jump\t// in\n    tag_465:\n        /* \"#utility.yul\":7790:7793   */\n      dup3\n        /* \"#utility.yul\":7783:7817   */\n      mstore\n        /* \"#utility.yul\":7714:7823   */\n      pop\n      pop\n      jump\t// out\n        /* \"#utility.yul\":7829:7947   */\n    tag_467:\n        /* \"#utility.yul\":7916:7940   */\n      tag_469\n        /* \"#utility.yul\":7934:7939   */\n      dup2\n        /* \"#utility.yul\":7916:7940   */\n      tag_470\n      jump\t// in\n    tag_469:\n        /* \"#utility.yul\":7911:7914   */\n      dup3\n        /* \"#utility.yul\":7904:7941   */\n      mstore\n        /* \"#utility.yul\":7829:7947   */\n      pop\n      pop\n      jump\t// out\n        /* \"#utility.yul\":7953:8317   */\n    tag_471:\n        /* \"#utility.yul\":8041:8044   */\n      0x00\n        /* \"#utility.yul\":8069:8108   */\n      tag_473\n        /* \"#utility.yul\":8102:8107   */\n      dup3\n        /* \"#utility.yul\":8069:8108   */\n      tag_474\n      jump\t// in\n    tag_473:\n        /* \"#utility.yul\":8124:8195   */\n      tag_475\n        /* \"#utility.yul\":8188:8194   */\n      dup2\n        /* \"#utility.yul\":8183:8186   */\n      dup6\n        /* \"#utility.yul\":8124:8195   */\n      tag_476\n      jump\t// in\n    tag_475:\n        /* \"#utility.yul\":8117:8195   */\n      swap4\n      pop\n        /* \"#utility.yul\":8204:8256   */\n      tag_477\n        /* \"#utility.yul\":8249:8255   */\n      dup2\n        /* \"#utility.yul\":8244:8247   */\n      dup6\n        /* \"#utility.yul\":8237:8241   */\n      0x20\n        /* \"#utility.yul\":8230:8235   */\n      dup7\n        /* \"#utility.yul\":8226:8242   */\n      add\n        /* \"#utility.yul\":8204:8256   */\n      tag_478\n      jump\t// in\n    tag_477:\n        /* \"#utility.yul\":8281:8310   */\n      tag_479\n        /* \"#utility.yul\":8303:8309   */\n      dup2\n        /* \"#utility.yul\":8281:8310   */\n      tag_480\n      jump\t// in\n    tag_479:\n        /* \"#utility.yul\":8276:8279   */\n      dup5\n        /* \"#utility.yul\":8272:8311   */\n      add\n        /* \"#utility.yul\":8265:8311   */\n      swap2\n      pop\n        /* \"#utility.yul\":8045:8317   */\n      pop\n        /* \"#utility.yul\":7953:8317   */\n      swap3\n      swap2\n      pop\n      pop\n      jump\t// out\n        /* \"#utility.yul\":8323:8700   */\n    tag_481:\n        /* \"#utility.yul\":8429:8432   */\n      0x00\n        /* \"#utility.yul\":8457:8496   */\n      tag_483\n        /* \"#utility.yul\":8490:8495   */\n      dup3\n        /* \"#utility.yul\":8457:8496   */\n      tag_474\n      jump\t// in\n    tag_483:\n        /* \"#utility.yul\":8512:8601   */\n      tag_484\n        /* \"#utility.yul\":8594:8600   */\n      dup2\n        /* \"#utility.yul\":8589:8592   */\n      dup6\n        /* \"#utility.yul\":8512:8601   */\n      tag_485\n      jump\t// in\n    tag_484:\n        /* \"#utility.yul\":8505:8601   */\n      swap4\n      pop\n        /* \"#utility.yul\":8610:8662   */\n      tag_486\n        /* \"#utility.yul\":8655:8661   */\n      dup2\n        /* \"#utility.yul\":8650:8653   */\n      dup6\n        /* \"#utility.yul\":8643:8647   */\n      0x20\n        /* \"#utility.yul\":8636:8641   */\n      dup7\n        /* \"#utility.yul\":8632:8648   */\n      add\n        /* \"#utility.yul\":8610:8662   */\n      tag_478\n      jump\t// in\n    tag_486:\n        /* \"#utility.yul\":8687:8693   */\n      dup1\n        /* \"#utility.yul\":8682:8685   */\n      dup5\n        /* \"#utility.yul\":8678:8694   */\n      add\n        /* \"#utility.yul\":8671:8694   */\n      swap2\n      pop\n        /* \"#utility.yul\":8433:8700   */\n      pop\n        /* \"#utility.yul\":8323:8700   */\n      swap3\n      swap2\n      pop\n      pop\n      jump\t// out\n        /* \"#utility.yul\":8706:9072   */\n    tag_487:\n        /* \"#utility.yul\":8848:8851   */\n      0x00\n        /* \"#utility.yul\":8869:8936   */\n      tag_489\n        /* \"#utility.yul\":8933:8935   */\n      0x1f\n        /* \"#utility.yul\":8928:8931   */\n      dup4\n        /* \"#utility.yul\":8869:8936   */\n      tag_476\n      jump\t// in\n    tag_489:\n        /* \"#utility.yul\":8862:8936   */\n      swap2\n      pop\n        /* \"#utility.yul\":8945:9038   */\n      tag_490\n        /* \"#utility.yul\":9034:9037   */\n      dup3\n        /* \"#utility.yul\":8945:9038   */\n      tag_491\n      jump\t// in\n    tag_490:\n        /* \"#utility.yul\":9063:9065   */\n      0x20\n        /* \"#utility.yul\":9058:9061   */\n      dup3\n        /* \"#utility.yul\":9054:9066   */\n      add\n        /* \"#utility.yul\":9047:9066   */\n      swap1\n      pop\n        /* \"#utility.yul\":8706:9072   */\n      swap2\n      swap1\n      pop\n      jump\t// out\n        /* \"#utility.yul\":9078:9444   */\n    tag_492:\n        /* \"#utility.yul\":9220:9223   */\n      0x00\n        /* \"#utility.yul\":9241:9308   */\n      tag_494\n        /* \"#utility.yul\":9305:9307   */\n      0x3d\n        /* \"#utility.yul\":9300:9303   */\n      dup4\n        /* \"#utility.yul\":9241:9308   */\n      tag_476\n      jump\t// in\n    tag_494:\n        /* \"#utility.yul\":9234:9308   */\n      swap2\n      pop\n        /* \"#utility.yul\":9317:9410   */\n      tag_495\n        /* \"#utility.yul\":9406:9409   */\n      dup3\n        /* \"#utility.yul\":9317:9410   */\n      tag_496\n      jump\t// in\n    tag_495:\n        /* \"#utility.yul\":9435:9437   */\n      0x40\n        /* \"#utility.yul\":9430:9433   */\n      dup3\n        /* \"#utility.yul\":9426:9438   */\n      add\n        /* \"#utility.yul\":9419:9438   */\n      swap1\n      pop\n        /* \"#utility.yul\":9078:9444   */\n      swap2\n      swap1\n      pop\n      jump\t// out\n        /* \"#utility.yul\":9450:9816   */\n    tag_497:\n        /* \"#utility.yul\":9592:9595   */\n      0x00\n        /* \"#utility.yul\":9613:9680   */\n      tag_499\n        /* \"#utility.yul\":9677:9679   */\n      0x20\n        /* \"#utility.yul\":9672:9675   */\n      dup4\n        /* \"#utility.yul\":9613:9680   */\n      tag_476\n      jump\t// in\n    tag_499:\n        /* \"#utility.yul\":9606:9680   */\n      swap2\n      pop\n        /* \"#utility.yul\":9689:9782   */\n      tag_500\n        /* \"#utility.yul\":9778:9781   */\n      dup3\n        /* \"#utility.yul\":9689:9782   */\n      tag_501\n      jump\t// in\n    tag_500:\n        /* \"#utility.yul\":9807:9809   */\n      0x20\n        /* \"#utility.yul\":9802:9805   */\n      dup3\n        /* \"#utility.yul\":9798:9810   */\n      add\n        /* \"#utility.yul\":9791:9810   */\n      swap1\n      pop\n        /* \"#utility.yul\":9450:9816   */\n      swap2\n      swap1\n      pop\n      jump\t// out\n        /* \"#utility.yul\":9822:10188   */\n    tag_502:\n        /* \"#utility.yul\":9964:9967   */\n      0x00\n        /* \"#utility.yul\":9985:10052   */\n      tag_504\n        /* \"#utility.yul\":10049:10051   */\n      0x14\n        /* \"#utility.yul\":10044:10047   */\n      dup4\n        /* \"#utility.yul\":9985:10052   */\n      tag_476\n      jump\t// in\n    tag_504:\n        /* \"#utility.yul\":9978:10052   */\n      swap2\n      pop\n        /* \"#utility.yul\":10061:10154   */\n      tag_505\n        /* \"#utility.yul\":10150:10153   */\n      dup3\n        /* \"#utility.yul\":10061:10154   */\n      tag_506\n      jump\t// in\n    tag_505:\n        /* \"#utility.yul\":10179:10181   */\n      0x20\n        /* \"#utility.yul\":10174:10177   */\n      dup3\n        /* \"#utility.yul\":10170:10182   */\n      add\n        /* \"#utility.yul\":10163:10182   */\n      swap1\n      pop\n        /* \"#utility.yul\":9822:10188   */\n      swap2\n      swap1\n      pop\n      jump\t// out\n        /* \"#utility.yul\":10194:10560   */\n    tag_507:\n        /* \"#utility.yul\":10336:10339   */\n      0x00\n        /* \"#utility.yul\":10357:10424   */\n      tag_509\n        /* \"#utility.yul\":10421:10423   */\n      0x2c\n        /* \"#utility.yul\":10416:10419   */\n      dup4\n        /* \"#utility.yul\":10357:10424   */\n      tag_476\n      jump\t// in\n    tag_509:\n        /* \"#utility.yul\":10350:10424   */\n      swap2\n      pop\n        /* \"#utility.yul\":10433:10526   */\n      tag_510\n        /* \"#utility.yul\":10522:10525   */\n      dup3\n        /* \"#utility.yul\":10433:10526   */\n      tag_511\n      jump\t// in\n    tag_510:\n        /* \"#utility.yul\":10551:10553   */\n      0x40\n        /* \"#utility.yul\":10546:10549   */\n      dup3\n        /* \"#utility.yul\":10542:10554   */\n      add\n        /* \"#utility.yul\":10535:10554   */\n      swap1\n      pop\n        /* \"#utility.yul\":10194:10560   */\n      swap2\n      swap1\n      pop\n      jump\t// out\n        /* \"#utility.yul\":10566:10932   */\n    tag_512:\n        /* \"#utility.yul\":10708:10711   */\n      0x00\n        /* \"#utility.yul\":10729:10796   */\n      tag_514\n        /* \"#utility.yul\":10793:10795   */\n      0x19\n        /* \"#utility.yul\":10788:10791   */\n      dup4\n        /* \"#utility.yul\":10729:10796   */\n      tag_476\n      jump\t// in\n    tag_514:\n        /* \"#utility.yul\":10722:10796   */\n      swap2\n      pop\n        /* \"#utility.yul\":10805:10898   */\n      tag_515\n        /* \"#utility.yul\":10894:10897   */\n      dup3\n        /* \"#utility.yul\":10805:10898   */\n      tag_516\n      jump\t// in\n    tag_515:\n        /* \"#utility.yul\":10923:10925   */\n      0x20\n        /* \"#utility.yul\":10918:10921   */\n      dup3\n        /* \"#utility.yul\":10914:10926   */\n      add\n        /* \"#utility.yul\":10907:10926   */\n      swap1\n      pop\n        /* \"#utility.yul\":10566:10932   */\n      swap2\n      swap1\n      pop\n      jump\t// out\n        /* \"#utility.yul\":10938:11304   */\n    tag_517:\n        /* \"#utility.yul\":11080:11083   */\n      0x00\n        /* \"#utility.yul\":11101:11168   */\n      tag_519\n        /* \"#utility.yul\":11165:11167   */\n      0x21\n        /* \"#utility.yul\":11160:11163   */\n      dup4\n        /* \"#utility.yul\":11101:11168   */\n      tag_476\n      jump\t// in\n    tag_519:\n        /* \"#utility.yul\":11094:11168   */\n      swap2\n      pop\n        /* \"#utility.yul\":11177:11270   */\n      tag_520\n        /* \"#utility.yul\":11266:11269   */\n      dup3\n        /* \"#utility.yul\":11177:11270   */\n      tag_521\n      jump\t// in\n    tag_520:\n        /* \"#utility.yul\":11295:11297   */\n      0x40\n        /* \"#utility.yul\":11290:11293   */\n      dup3\n        /* \"#utility.yul\":11286:11298   */\n      add\n        /* \"#utility.yul\":11279:11298   */\n      swap1\n      pop\n        /* \"#utility.yul\":10938:11304   */\n      swap2\n      swap1\n      pop\n      jump\t// out\n        /* \"#utility.yul\":11310:11676   */\n    tag_522:\n        /* \"#utility.yul\":11452:11455   */\n      0x00\n        /* \"#utility.yul\":11473:11540   */\n      tag_524\n        /* \"#utility.yul\":11537:11539   */\n      0x16\n        /* \"#utility.yul\":11532:11535   */\n      dup4\n        /* \"#utility.yul\":11473:11540   */\n      tag_476\n      jump\t// in\n    tag_524:\n        /* \"#utility.yul\":11466:11540   */\n      swap2\n      pop\n        /* \"#utility.yul\":11549:11642   */\n      tag_525\n        /* \"#utility.yul\":11638:11641   */\n      dup3\n        /* \"#utility.yul\":11549:11642   */\n      tag_526\n      jump\t// in\n    tag_525:\n        /* \"#utility.yul\":11667:11669   */\n      0x20\n        /* \"#utility.yul\":11662:11665   */\n      dup3\n        /* \"#utility.yul\":11658:11670   */\n      add\n        /* \"#utility.yul\":11651:11670   */\n      swap1\n      pop\n        /* \"#utility.yul\":11310:11676   */\n      swap2\n      swap1\n      pop\n      jump\t// out\n        /* \"#utility.yul\":11682:12048   */\n    tag_527:\n        /* \"#utility.yul\":11824:11827   */\n      0x00\n        /* \"#utility.yul\":11845:11912   */\n      tag_529\n        /* \"#utility.yul\":11909:11911   */\n      0x28\n        /* \"#utility.yul\":11904:11907   */\n      dup4\n        /* \"#utility.yul\":11845:11912   */\n      tag_476\n      jump\t// in\n    tag_529:\n        /* \"#utility.yul\":11838:11912   */\n      swap2\n      pop\n        /* \"#utility.yul\":11921:12014   */\n      tag_530\n        /* \"#utility.yul\":12010:12013   */\n      dup3\n        /* \"#utility.yul\":11921:12014   */\n      tag_531\n      jump\t// in\n    tag_530:\n        /* \"#utility.yul\":12039:12041   */\n      0x40\n        /* \"#utility.yul\":12034:12037   */\n      dup3\n        /* \"#utility.yul\":12030:12042   */\n      add\n        /* \"#utility.yul\":12023:12042   */\n      swap1\n      pop\n        /* \"#utility.yul\":11682:12048   */\n      swap2\n      swap1\n      pop\n      jump\t// out\n        /* \"#utility.yul\":12054:12420   */\n    tag_532:\n        /* \"#utility.yul\":12196:12199   */\n      0x00\n        /* \"#utility.yul\":12217:12284   */\n      tag_534\n        /* \"#utility.yul\":12281:12283   */\n      0x16\n        /* \"#utility.yul\":12276:12279   */\n      dup4\n        /* \"#utility.yul\":12217:12284   */\n      tag_476\n      jump\t// in\n    tag_534:\n        /* \"#utility.yul\":12210:12284   */\n      swap2\n      pop\n        /* \"#utility.yul\":12293:12386   */\n      tag_535\n        /* \"#utility.yul\":12382:12385   */\n      dup3\n        /* \"#utility.yul\":12293:12386   */\n      tag_536\n      jump\t// in\n    tag_535:\n        /* \"#utility.yul\":12411:12413   */\n      0x20\n        /* \"#utility.yul\":12406:12409   */\n      dup3\n        /* \"#utility.yul\":12402:12414   */\n      add\n        /* \"#utility.yul\":12395:12414   */\n      swap1\n      pop\n        /* \"#utility.yul\":12054:12420   */\n      swap2\n      swap1\n      pop\n      jump\t// out\n        /* \"#utility.yul\":12426:12792   */\n    tag_537:\n        /* \"#utility.yul\":12568:12571   */\n      0x00\n        /* \"#utility.yul\":12589:12656   */\n      tag_539\n        /* \"#utility.yul\":12653:12655   */\n      0x25\n        /* \"#utility.yul\":12648:12651   */\n      dup4\n        /* \"#utility.yul\":12589:12656   */\n      tag_476\n      jump\t// in\n    tag_539:\n        /* \"#utility.yul\":12582:12656   */\n      swap2\n      pop\n        /* \"#utility.yul\":12665:12758   */\n      tag_540\n        /* \"#utility.yul\":12754:12757   */\n      dup3\n        /* \"#utility.yul\":12665:12758   */\n      tag_541\n      jump\t// in\n    tag_540:\n        /* \"#utility.yul\":12783:12785   */\n      0x40\n        /* \"#utility.yul\":12778:12781   */\n      dup3\n        /* \"#utility.yul\":12774:12786   */\n      add\n        /* \"#utility.yul\":12767:12786   */\n      swap1\n      pop\n        /* \"#utility.yul\":12426:12792   */\n      swap2\n      swap1\n      pop\n      jump\t// out\n        /* \"#utility.yul\":12798:13200   */\n    tag_542:\n        /* \"#utility.yul\":12958:12961   */\n      0x00\n        /* \"#utility.yul\":12979:13064   */\n      tag_544\n        /* \"#utility.yul\":13061:13063   */\n      0x17\n        /* \"#utility.yul\":13056:13059   */\n      dup4\n        /* \"#utility.yul\":12979:13064   */\n      tag_485\n      jump\t// in\n    tag_544:\n        /* \"#utility.yul\":12972:13064   */\n      swap2\n      pop\n        /* \"#utility.yul\":13073:13166   */\n      tag_545\n        /* \"#utility.yul\":13162:13165   */\n      dup3\n        /* \"#utility.yul\":13073:13166   */\n      tag_546\n      jump\t// in\n    tag_545:\n        /* \"#utility.yul\":13191:13193   */\n      0x17\n        /* \"#utility.yul\":13186:13189   */\n      dup3\n        /* \"#utility.yul\":13182:13194   */\n      add\n        /* \"#utility.yul\":13175:13194   */\n      swap1\n      pop\n        /* \"#utility.yul\":12798:13200   */\n      swap2\n      swap1\n      pop\n      jump\t// out\n        /* \"#utility.yul\":13206:13572   */\n    tag_547:\n        /* \"#utility.yul\":13348:13351   */\n      0x00\n        /* \"#utility.yul\":13369:13436   */\n      tag_549\n        /* \"#utility.yul\":13433:13435   */\n      0x1c\n        /* \"#utility.yul\":13428:13431   */\n      dup4\n        /* \"#utility.yul\":13369:13436   */\n      tag_476\n      jump\t// in\n    tag_549:\n        /* \"#utility.yul\":13362:13436   */\n      swap2\n      pop\n        /* \"#utility.yul\":13445:13538   */\n      tag_550\n        /* \"#utility.yul\":13534:13537   */\n      dup3\n        /* \"#utility.yul\":13445:13538   */\n      tag_551\n      jump\t// in\n    tag_550:\n        /* \"#utility.yul\":13563:13565   */\n      0x20\n        /* \"#utility.yul\":13558:13561   */\n      dup3\n        /* \"#utility.yul\":13554:13566   */\n      add\n        /* \"#utility.yul\":13547:13566   */\n      swap1\n      pop\n        /* \"#utility.yul\":13206:13572   */\n      swap2\n      swap1\n      pop\n      jump\t// out\n        /* \"#utility.yul\":13578:13980   */\n    tag_552:\n        /* \"#utility.yul\":13738:13741   */\n      0x00\n        /* \"#utility.yul\":13759:13844   */\n      tag_554\n        /* \"#utility.yul\":13841:13843   */\n      0x11\n        /* \"#utility.yul\":13836:13839   */\n      dup4\n        /* \"#utility.yul\":13759:13844   */\n      tag_485\n      jump\t// in\n    tag_554:\n        /* \"#utility.yul\":13752:13844   */\n      swap2\n      pop\n        /* \"#utility.yul\":13853:13946   */\n      tag_555\n        /* \"#utility.yul\":13942:13945   */\n      dup3\n        /* \"#utility.yul\":13853:13946   */\n      tag_556\n      jump\t// in\n    tag_555:\n        /* \"#utility.yul\":13971:13973   */\n      0x11\n        /* \"#utility.yul\":13966:13969   */\n      dup3\n        /* \"#utility.yul\":13962:13974   */\n      add\n        /* \"#utility.yul\":13955:13974   */\n      swap1\n      pop\n        /* \"#utility.yul\":13578:13980   */\n      swap2\n      swap1\n      pop\n      jump\t// out\n        /* \"#utility.yul\":13986:14352   */\n    tag_557:\n        /* \"#utility.yul\":14128:14131   */\n      0x00\n        /* \"#utility.yul\":14149:14216   */\n      tag_559\n        /* \"#utility.yul\":14213:14215   */\n      0x2f\n        /* \"#utility.yul\":14208:14211   */\n      dup4\n        /* \"#utility.yul\":14149:14216   */\n      tag_476\n      jump\t// in\n    tag_559:\n        /* \"#utility.yul\":14142:14216   */\n      swap2\n      pop\n        /* \"#utility.yul\":14225:14318   */\n      tag_560\n        /* \"#utility.yul\":14314:14317   */\n      dup3\n        /* \"#utility.yul\":14225:14318   */\n      tag_561\n      jump\t// in\n    tag_560:\n        /* \"#utility.yul\":14343:14345   */\n      0x40\n        /* \"#utility.yul\":14338:14341   */\n      dup3\n        /* \"#utility.yul\":14334:14346   */\n      add\n        /* \"#utility.yul\":14327:14346   */\n      swap1\n      pop\n        /* \"#utility.yul\":13986:14352   */\n      swap2\n      swap1\n      pop\n      jump\t// out\n        /* \"#utility.yul\":14358:14476   */\n    tag_562:\n        /* \"#utility.yul\":14445:14469   */\n      tag_564\n        /* \"#utility.yul\":14463:14468   */\n      dup2\n        /* \"#utility.yul\":14445:14469   */\n      tag_565\n      jump\t// in\n    tag_564:\n        /* \"#utility.yul\":14440:14443   */\n      dup3\n        /* \"#utility.yul\":14433:14470   */\n      mstore\n        /* \"#utility.yul\":14358:14476   */\n      pop\n      pop\n      jump\t// out\n        /* \"#utility.yul\":14482:14594   */\n    tag_566:\n        /* \"#utility.yul\":14565:14587   */\n      tag_568\n        /* \"#utility.yul\":14581:14586   */\n      dup2\n        /* \"#utility.yul\":14565:14587   */\n      tag_569\n      jump\t// in\n    tag_568:\n        /* \"#utility.yul\":14560:14563   */\n      dup3\n        /* \"#utility.yul\":14553:14588   */\n      mstore\n        /* \"#utility.yul\":14482:14594   */\n      pop\n      pop\n      jump\t// out\n        /* \"#utility.yul\":14600:15567   */\n    tag_294:\n        /* \"#utility.yul\":14982:14985   */\n      0x00\n        /* \"#utility.yul\":15004:15152   */\n      tag_571\n        /* \"#utility.yul\":15148:15151   */\n      dup3\n        /* \"#utility.yul\":15004:15152   */\n      tag_542\n      jump\t// in\n    tag_571:\n        /* \"#utility.yul\":14997:15152   */\n      swap2\n      pop\n        /* \"#utility.yul\":15169:15264   */\n      tag_572\n        /* \"#utility.yul\":15260:15263   */\n      dup3\n        /* \"#utility.yul\":15251:15257   */\n      dup6\n        /* \"#utility.yul\":15169:15264   */\n      tag_481\n      jump\t// in\n    tag_572:\n        /* \"#utility.yul\":15162:15264   */\n      swap2\n      pop\n        /* \"#utility.yul\":15281:15429   */\n      tag_573\n        /* \"#utility.yul\":15425:15428   */\n      dup3\n        /* \"#utility.yul\":15281:15429   */\n      tag_552\n      jump\t// in\n    tag_573:\n        /* \"#utility.yul\":15274:15429   */\n      swap2\n      pop\n        /* \"#utility.yul\":15446:15541   */\n      tag_574\n        /* \"#utility.yul\":15537:15540   */\n      dup3\n        /* \"#utility.yul\":15528:15534   */\n      dup5\n        /* \"#utility.yul\":15446:15541   */\n      tag_481\n      jump\t// in\n    tag_574:\n        /* \"#utility.yul\":15439:15541   */\n      swap2\n      pop\n        /* \"#utility.yul\":15558:15561   */\n      dup2\n        /* \"#utility.yul\":15551:15561   */\n      swap1\n      pop\n        /* \"#utility.yul\":14600:15567   */\n      swap4\n      swap3\n      pop\n      pop\n      pop\n      jump\t// out\n        /* \"#utility.yul\":15573:15783   */\n    tag_33:\n        /* \"#utility.yul\":15660:15664   */\n      0x00\n        /* \"#utility.yul\":15698:15700   */\n      0x20\n        /* \"#utility.yul\":15687:15696   */\n      dup3\n        /* \"#utility.yul\":15683:15701   */\n      add\n        /* \"#utility.yul\":15675:15701   */\n      swap1\n      pop\n        /* \"#utility.yul\":15711:15776   */\n      tag_576\n        /* \"#utility.yul\":15773:15774   */\n      0x00\n        /* \"#utility.yul\":15762:15771   */\n      dup4\n        /* \"#utility.yul\":15758:15775   */\n      add\n        /* \"#utility.yul\":15749:15755   */\n      dup5\n        /* \"#utility.yul\":15711:15776   */\n      tag_463\n      jump\t// in\n    tag_576:\n        /* \"#utility.yul\":15573:15783   */\n      swap3\n      swap2\n      pop\n      pop\n      jump\t// out\n        /* \"#utility.yul\":15789:16011   */\n    tag_48:\n        /* \"#utility.yul\":15882:15886   */\n      0x00\n        /* \"#utility.yul\":15920:15922   */\n      0x20\n        /* \"#utility.yul\":15909:15918   */\n      dup3\n        /* \"#utility.yul\":15905:15923   */\n      add\n        /* \"#utility.yul\":15897:15923   */\n      swap1\n      pop\n        /* \"#utility.yul\":15933:16004   */\n      tag_578\n        /* \"#utility.yul\":16001:16002   */\n      0x00\n        /* \"#utility.yul\":15990:15999   */\n      dup4\n        /* \"#utility.yul\":15986:16003   */\n      add\n        /* \"#utility.yul\":15977:15983   */\n      dup5\n        /* \"#utility.yul\":15933:16004   */\n      tag_467\n      jump\t// in\n    tag_578:\n        /* \"#utility.yul\":15789:16011   */\n      swap3\n      swap2\n      pop\n      pop\n      jump\t// out\n        /* \"#utility.yul\":16017:16330   */\n    tag_296:\n        /* \"#utility.yul\":16130:16134   */\n      0x00\n        /* \"#utility.yul\":16168:16170   */\n      0x20\n        /* \"#utility.yul\":16157:16166   */\n      dup3\n        /* \"#utility.yul\":16153:16171   */\n      add\n        /* \"#utility.yul\":16145:16171   */\n      swap1\n      pop\n        /* \"#utility.yul\":16217:16226   */\n      dup2\n        /* \"#utility.yul\":16211:16215   */\n      dup2\n        /* \"#utility.yul\":16207:16227   */\n      sub\n        /* \"#utility.yul\":16203:16204   */\n      0x00\n        /* \"#utility.yul\":16192:16201   */\n      dup4\n        /* \"#utility.yul\":16188:16205   */\n      add\n        /* \"#utility.yul\":16181:16228   */\n      mstore\n        /* \"#utility.yul\":16245:16323   */\n      tag_580\n        /* \"#utility.yul\":16318:16322   */\n      dup2\n        /* \"#utility.yul\":16309:16315   */\n      dup5\n        /* \"#utility.yul\":16245:16323   */\n      tag_471\n      jump\t// in\n    tag_580:\n        /* \"#utility.yul\":16237:16323   */\n      swap1\n      pop\n        /* \"#utility.yul\":16017:16330   */\n      swap3\n      swap2\n      pop\n      pop\n      jump\t// out\n        /* \"#utility.yul\":16336:17000   */\n    tag_117:\n        /* \"#utility.yul\":16543:16547   */\n      0x00\n        /* \"#utility.yul\":16581:16584   */\n      0x80\n        /* \"#utility.yul\":16570:16579   */\n      dup3\n        /* \"#utility.yul\":16566:16585   */\n      add\n        /* \"#utility.yul\":16558:16585   */\n      swap1\n      pop\n        /* \"#utility.yul\":16631:16640   */\n      dup2\n        /* \"#utility.yul\":16625:16629   */\n      dup2\n        /* \"#utility.yul\":16621:16641   */\n      sub\n        /* \"#utility.yul\":16617:16618   */\n      0x00\n        /* \"#utility.yul\":16606:16615   */\n      dup4\n        /* \"#utility.yul\":16602:16619   */\n      add\n        /* \"#utility.yul\":16595:16642   */\n      mstore\n        /* \"#utility.yul\":16659:16737   */\n      tag_582\n        /* \"#utility.yul\":16732:16736   */\n      dup2\n        /* \"#utility.yul\":16723:16729   */\n      dup8\n        /* \"#utility.yul\":16659:16737   */\n      tag_471\n      jump\t// in\n    tag_582:\n        /* \"#utility.yul\":16651:16737   */\n      swap1\n      pop\n        /* \"#utility.yul\":16747:16835   */\n      tag_583\n        /* \"#utility.yul\":16831:16833   */\n      0x20\n        /* \"#utility.yul\":16820:16829   */\n      dup4\n        /* \"#utility.yul\":16816:16834   */\n      add\n        /* \"#utility.yul\":16807:16813   */\n      dup7\n        /* \"#utility.yul\":16747:16835   */\n      tag_455\n      jump\t// in\n    tag_583:\n        /* \"#utility.yul\":16845:16917   */\n      tag_584\n        /* \"#utility.yul\":16913:16915   */\n      0x40\n        /* \"#utility.yul\":16902:16911   */\n      dup4\n        /* \"#utility.yul\":16898:16916   */\n      add\n        /* \"#utility.yul\":16889:16895   */\n      dup6\n        /* \"#utility.yul\":16845:16917   */\n      tag_562\n      jump\t// in\n    tag_584:\n        /* \"#utility.yul\":16927:16993   */\n      tag_585\n        /* \"#utility.yul\":16989:16991   */\n      0x60\n        /* \"#utility.yul\":16978:16987   */\n      dup4\n        /* \"#utility.yul\":16974:16992   */\n      add\n        /* \"#utility.yul\":16965:16971   */\n      dup5\n        /* \"#utility.yul\":16927:16993   */\n      tag_463\n      jump\t// in\n    tag_585:\n        /* \"#utility.yul\":16336:17000   */\n      swap6\n      swap5\n      pop\n      pop\n      pop\n      pop\n      pop\n      jump\t// out\n        /* \"#utility.yul\":17006:17844   */\n    tag_79:\n        /* \"#utility.yul\":17247:17251   */\n      0x00\n        /* \"#utility.yul\":17285:17288   */\n      0xa0\n        /* \"#utility.yul\":17274:17283   */\n      dup3\n        /* \"#utility.yul\":17270:17289   */\n      add\n        /* \"#utility.yul\":17262:17289   */\n      swap1\n      pop\n        /* \"#utility.yul\":17335:17344   */\n      dup2\n        /* \"#utility.yul\":17329:17333   */\n      dup2\n        /* \"#utility.yul\":17325:17345   */\n      sub\n        /* \"#utility.yul\":17321:17322   */\n      0x00\n        /* \"#utility.yul\":17310:17319   */\n      dup4\n        /* \"#utility.yul\":17306:17323   */\n      add\n        /* \"#utility.yul\":17299:17346   */\n      mstore\n        /* \"#utility.yul\":17363:17441   */\n      tag_587\n        /* \"#utility.yul\":17436:17440   */\n      dup2\n        /* \"#utility.yul\":17427:17433   */\n      dup9\n        /* \"#utility.yul\":17363:17441   */\n      tag_471\n      jump\t// in\n    tag_587:\n        /* \"#utility.yul\":17355:17441   */\n      swap1\n      pop\n        /* \"#utility.yul\":17488:17497   */\n      dup2\n        /* \"#utility.yul\":17482:17486   */\n      dup2\n        /* \"#utility.yul\":17478:17498   */\n      sub\n        /* \"#utility.yul\":17473:17475   */\n      0x20\n        /* \"#utility.yul\":17462:17471   */\n      dup4\n        /* \"#utility.yul\":17458:17476   */\n      add\n        /* \"#utility.yul\":17451:17499   */\n      mstore\n        /* \"#utility.yul\":17516:17594   */\n      tag_588\n        /* \"#utility.yul\":17589:17593   */\n      dup2\n        /* \"#utility.yul\":17580:17586   */\n      dup8\n        /* \"#utility.yul\":17516:17594   */\n      tag_471\n      jump\t// in\n    tag_588:\n        /* \"#utility.yul\":17508:17594   */\n      swap1\n      pop\n        /* \"#utility.yul\":17604:17672   */\n      tag_589\n        /* \"#utility.yul\":17668:17670   */\n      0x40\n        /* \"#utility.yul\":17657:17666   */\n      dup4\n        /* \"#utility.yul\":17653:17671   */\n      add\n        /* \"#utility.yul\":17644:17650   */\n      dup7\n        /* \"#utility.yul\":17604:17672   */\n      tag_566\n      jump\t// in\n    tag_589:\n        /* \"#utility.yul\":17682:17754   */\n      tag_590\n        /* \"#utility.yul\":17750:17752   */\n      0x60\n        /* \"#utility.yul\":17739:17748   */\n      dup4\n        /* \"#utility.yul\":17735:17753   */\n      add\n        /* \"#utility.yul\":17726:17732   */\n      dup6\n        /* \"#utility.yul\":17682:17754   */\n      tag_562\n      jump\t// in\n    tag_590:\n        /* \"#utility.yul\":17764:17837   */\n      tag_591\n        /* \"#utility.yul\":17832:17835   */\n      0x80\n        /* \"#utility.yul\":17821:17830   */\n      dup4\n        /* \"#utility.yul\":17817:17836   */\n      add\n        /* \"#utility.yul\":17808:17814   */\n      dup5\n        /* \"#utility.yul\":17764:17837   */\n      tag_562\n      jump\t// in\n    tag_591:\n        /* \"#utility.yul\":17006:17844   */\n      swap7\n      swap6\n      pop\n      pop\n      pop\n      pop\n      pop\n      pop\n      jump\t// out\n        /* \"#utility.yul\":17850:18269   */\n    tag_163:\n        /* \"#utility.yul\":18016:18020   */\n      0x00\n        /* \"#utility.yul\":18054:18056   */\n      0x20\n        /* \"#utility.yul\":18043:18052   */\n      dup3\n        /* \"#utility.yul\":18039:18057   */\n      add\n        /* \"#utility.yul\":18031:18057   */\n      swap1\n      pop\n        /* \"#utility.yul\":18103:18112   */\n      dup2\n        /* \"#utility.yul\":18097:18101   */\n      dup2\n        /* \"#utility.yul\":18093:18113   */\n      sub\n        /* \"#utility.yul\":18089:18090   */\n      0x00\n        /* \"#utility.yul\":18078:18087   */\n      dup4\n        /* \"#utility.yul\":18074:18091   */\n      add\n        /* \"#utility.yul\":18067:18114   */\n      mstore\n        /* \"#utility.yul\":18131:18262   */\n      tag_593\n        /* \"#utility.yul\":18257:18261   */\n      dup2\n        /* \"#utility.yul\":18131:18262   */\n      tag_487\n      jump\t// in\n    tag_593:\n        /* \"#utility.yul\":18123:18262   */\n      swap1\n      pop\n        /* \"#utility.yul\":17850:18269   */\n      swap2\n      swap1\n      pop\n      jump\t// out\n        /* \"#utility.yul\":18275:18694   */\n    tag_166:\n        /* \"#utility.yul\":18441:18445   */\n      0x00\n        /* \"#utility.yul\":18479:18481   */\n      0x20\n        /* \"#utility.yul\":18468:18477   */\n      dup3\n        /* \"#utility.yul\":18464:18482   */\n      add\n        /* \"#utility.yul\":18456:18482   */\n      swap1\n      pop\n        /* \"#utility.yul\":18528:18537   */\n      dup2\n        /* \"#utility.yul\":18522:18526   */\n      dup2\n        /* \"#utility.yul\":18518:18538   */\n      sub\n        /* \"#utility.yul\":18514:18515   */\n      0x00\n        /* \"#utility.yul\":18503:18512   */\n      dup4\n        /* \"#utility.yul\":18499:18516   */\n      add\n        /* \"#utility.yul\":18492:18539   */\n      mstore\n        /* \"#utility.yul\":18556:18687   */\n      tag_595\n        /* \"#utility.yul\":18682:18686   */\n      dup2\n        /* \"#utility.yul\":18556:18687   */\n      tag_492\n      jump\t// in\n    tag_595:\n        /* \"#utility.yul\":18548:18687   */\n      swap1\n      pop\n        /* \"#utility.yul\":18275:18694   */\n      swap2\n      swap1\n      pop\n      jump\t// out\n        /* \"#utility.yul\":18700:19119   */\n    tag_337:\n        /* \"#utility.yul\":18866:18870   */\n      0x00\n        /* \"#utility.yul\":18904:18906   */\n      0x20\n        /* \"#utility.yul\":18893:18902   */\n      dup3\n        /* \"#utility.yul\":18889:18907   */\n      add\n        /* \"#utility.yul\":18881:18907   */\n      swap1\n      pop\n        /* \"#utility.yul\":18953:18962   */\n      dup2\n        /* \"#utility.yul\":18947:18951   */\n      dup2\n        /* \"#utility.yul\":18943:18963   */\n      sub\n        /* \"#utility.yul\":18939:18940   */\n      0x00\n        /* \"#utility.yul\":18928:18937   */\n      dup4\n        /* \"#utility.yul\":18924:18941   */\n      add\n        /* \"#utility.yul\":18917:18964   */\n      mstore\n        /* \"#utility.yul\":18981:19112   */\n      tag_597\n        /* \"#utility.yul\":19107:19111   */\n      dup2\n        /* \"#utility.yul\":18981:19112   */\n      tag_497\n      jump\t// in\n    tag_597:\n        /* \"#utility.yul\":18973:19112   */\n      swap1\n      pop\n        /* \"#utility.yul\":18700:19119   */\n      swap2\n      swap1\n      pop\n      jump\t// out\n        /* \"#utility.yul\":19125:19544   */\n    tag_171:\n        /* \"#utility.yul\":19291:19295   */\n      0x00\n        /* \"#utility.yul\":19329:19331   */\n      0x20\n        /* \"#utility.yul\":19318:19327   */\n      dup3\n        /* \"#utility.yul\":19314:19332   */\n      add\n        /* \"#utility.yul\":19306:19332   */\n      swap1\n      pop\n        /* \"#utility.yul\":19378:19387   */\n      dup2\n        /* \"#utility.yul\":19372:19376   */\n      dup2\n        /* \"#utility.yul\":19368:19388   */\n      sub\n        /* \"#utility.yul\":19364:19365   */\n      0x00\n        /* \"#utility.yul\":19353:19362   */\n      dup4\n        /* \"#utility.yul\":19349:19366   */\n      add\n        /* \"#utility.yul\":19342:19389   */\n      mstore\n        /* \"#utility.yul\":19406:19537   */\n      tag_599\n        /* \"#utility.yul\":19532:19536   */\n      dup2\n        /* \"#utility.yul\":19406:19537   */\n      tag_502\n      jump\t// in\n    tag_599:\n        /* \"#utility.yul\":19398:19537   */\n      swap1\n      pop\n        /* \"#utility.yul\":19125:19544   */\n      swap2\n      swap1\n      pop\n      jump\t// out\n        /* \"#utility.yul\":19550:19969   */\n    tag_243:\n        /* \"#utility.yul\":19716:19720   */\n      0x00\n        /* \"#utility.yul\":19754:19756   */\n      0x20\n        /* \"#utility.yul\":19743:19752   */\n      dup3\n        /* \"#utility.yul\":19739:19757   */\n      add\n        /* \"#utility.yul\":19731:19757   */\n      swap1\n      pop\n        /* \"#utility.yul\":19803:19812   */\n      dup2\n        /* \"#utility.yul\":19797:19801   */\n      dup2\n        /* \"#utility.yul\":19793:19813   */\n      sub\n        /* \"#utility.yul\":19789:19790   */\n      0x00\n        /* \"#utility.yul\":19778:19787   */\n      dup4\n        /* \"#utility.yul\":19774:19791   */\n      add\n        /* \"#utility.yul\":19767:19814   */\n      mstore\n        /* \"#utility.yul\":19831:19962   */\n      tag_601\n        /* \"#utility.yul\":19957:19961   */\n      dup2\n        /* \"#utility.yul\":19831:19962   */\n      tag_507\n      jump\t// in\n    tag_601:\n        /* \"#utility.yul\":19823:19962   */\n      swap1\n      pop\n        /* \"#utility.yul\":19550:19969   */\n      swap2\n      swap1\n      pop\n      jump\t// out\n        /* \"#utility.yul\":19975:20394   */\n    tag_157:\n        /* \"#utility.yul\":20141:20145   */\n      0x00\n        /* \"#utility.yul\":20179:20181   */\n      0x20\n        /* \"#utility.yul\":20168:20177   */\n      dup3\n        /* \"#utility.yul\":20164:20182   */\n      add\n        /* \"#utility.yul\":20156:20182   */\n      swap1\n      pop\n        /* \"#utility.yul\":20228:20237   */\n      dup2\n        /* \"#utility.yul\":20222:20226   */\n      dup2\n        /* \"#utility.yul\":20218:20238   */\n      sub\n        /* \"#utility.yul\":20214:20215   */\n      0x00\n        /* \"#utility.yul\":20203:20212   */\n      dup4\n        /* \"#utility.yul\":20199:20216   */\n      add\n        /* \"#utility.yul\":20192:20239   */\n      mstore\n        /* \"#utility.yul\":20256:20387   */\n      tag_603\n        /* \"#utility.yul\":20382:20386   */\n      dup2\n        /* \"#utility.yul\":20256:20387   */\n      tag_512\n      jump\t// in\n    tag_603:\n        /* \"#utility.yul\":20248:20387   */\n      swap1\n      pop\n        /* \"#utility.yul\":19975:20394   */\n      swap2\n      swap1\n      pop\n      jump\t// out\n        /* \"#utility.yul\":20400:20819   */\n    tag_153:\n        /* \"#utility.yul\":20566:20570   */\n      0x00\n        /* \"#utility.yul\":20604:20606   */\n      0x20\n        /* \"#utility.yul\":20593:20602   */\n      dup3\n        /* \"#utility.yul\":20589:20607   */\n      add\n        /* \"#utility.yul\":20581:20607   */\n      swap1\n      pop\n        /* \"#utility.yul\":20653:20662   */\n      dup2\n        /* \"#utility.yul\":20647:20651   */\n      dup2\n        /* \"#utility.yul\":20643:20663   */\n      sub\n        /* \"#utility.yul\":20639:20640   */\n      0x00\n        /* \"#utility.yul\":20628:20637   */\n      dup4\n        /* \"#utility.yul\":20624:20641   */\n      add\n        /* \"#utility.yul\":20617:20664   */\n      mstore\n        /* \"#utility.yul\":20681:20812   */\n      tag_605\n        /* \"#utility.yul\":20807:20811   */\n      dup2\n        /* \"#utility.yul\":20681:20812   */\n      tag_517\n      jump\t// in\n    tag_605:\n        /* \"#utility.yul\":20673:20812   */\n      swap1\n      pop\n        /* \"#utility.yul\":20400:20819   */\n      swap2\n      swap1\n      pop\n      jump\t// out\n        /* \"#utility.yul\":20825:21244   */\n    tag_160:\n        /* \"#utility.yul\":20991:20995   */\n      0x00\n        /* \"#utility.yul\":21029:21031   */\n      0x20\n        /* \"#utility.yul\":21018:21027   */\n      dup3\n        /* \"#utility.yul\":21014:21032   */\n      add\n        /* \"#utility.yul\":21006:21032   */\n      swap1\n      pop\n        /* \"#utility.yul\":21078:21087   */\n      dup2\n        /* \"#utility.yul\":21072:21076   */\n      dup2\n        /* \"#utility.yul\":21068:21088   */\n      sub\n        /* \"#utility.yul\":21064:21065   */\n      0x00\n        /* \"#utility.yul\":21053:21062   */\n      dup4\n        /* \"#utility.yul\":21049:21066   */\n      add\n        /* \"#utility.yul\":21042:21089   */\n      mstore\n        /* \"#utility.yul\":21106:21237   */\n      tag_607\n        /* \"#utility.yul\":21232:21236   */\n      dup2\n        /* \"#utility.yul\":21106:21237   */\n      tag_522\n      jump\t// in\n    tag_607:\n        /* \"#utility.yul\":21098:21237   */\n      swap1\n      pop\n        /* \"#utility.yul\":20825:21244   */\n      swap2\n      swap1\n      pop\n      jump\t// out\n        /* \"#utility.yul\":21250:21669   */\n    tag_149:\n        /* \"#utility.yul\":21416:21420   */\n      0x00\n        /* \"#utility.yul\":21454:21456   */\n      0x20\n        /* \"#utility.yul\":21443:21452   */\n      dup3\n        /* \"#utility.yul\":21439:21457   */\n      add\n        /* \"#utility.yul\":21431:21457   */\n      swap1\n      pop\n        /* \"#utility.yul\":21503:21512   */\n      dup2\n        /* \"#utility.yul\":21497:21501   */\n      dup2\n        /* \"#utility.yul\":21493:21513   */\n      sub\n        /* \"#utility.yul\":21489:21490   */\n      0x00\n        /* \"#utility.yul\":21478:21487   */\n      dup4\n        /* \"#utility.yul\":21474:21491   */\n      add\n        /* \"#utility.yul\":21467:21514   */\n      mstore\n        /* \"#utility.yul\":21531:21662   */\n      tag_609\n        /* \"#utility.yul\":21657:21661   */\n      dup2\n        /* \"#utility.yul\":21531:21662   */\n      tag_527\n      jump\t// in\n    tag_609:\n        /* \"#utility.yul\":21523:21662   */\n      swap1\n      pop\n        /* \"#utility.yul\":21250:21669   */\n      swap2\n      swap1\n      pop\n      jump\t// out\n        /* \"#utility.yul\":21675:22094   */\n    tag_143:\n        /* \"#utility.yul\":21841:21845   */\n      0x00\n        /* \"#utility.yul\":21879:21881   */\n      0x20\n        /* \"#utility.yul\":21868:21877   */\n      dup3\n        /* \"#utility.yul\":21864:21882   */\n      add\n        /* \"#utility.yul\":21856:21882   */\n      swap1\n      pop\n        /* \"#utility.yul\":21928:21937   */\n      dup2\n        /* \"#utility.yul\":21922:21926   */\n      dup2\n        /* \"#utility.yul\":21918:21938   */\n      sub\n        /* \"#utility.yul\":21914:21915   */\n      0x00\n        /* \"#utility.yul\":21903:21912   */\n      dup4\n        /* \"#utility.yul\":21899:21916   */\n      add\n        /* \"#utility.yul\":21892:21939   */\n      mstore\n        /* \"#utility.yul\":21956:22087   */\n      tag_611\n        /* \"#utility.yul\":22082:22086   */\n      dup2\n        /* \"#utility.yul\":21956:22087   */\n      tag_532\n      jump\t// in\n    tag_611:\n        /* \"#utility.yul\":21948:22087   */\n      swap1\n      pop\n        /* \"#utility.yul\":21675:22094   */\n      swap2\n      swap1\n      pop\n      jump\t// out\n        /* \"#utility.yul\":22100:22519   */\n    tag_146:\n        /* \"#utility.yul\":22266:22270   */\n      0x00\n        /* \"#utility.yul\":22304:22306   */\n      0x20\n        /* \"#utility.yul\":22293:22302   */\n      dup3\n        /* \"#utility.yul\":22289:22307   */\n      add\n        /* \"#utility.yul\":22281:22307   */\n      swap1\n      pop\n        /* \"#utility.yul\":22353:22362   */\n      dup2\n        /* \"#utility.yul\":22347:22351   */\n      dup2\n        /* \"#utility.yul\":22343:22363   */\n      sub\n        /* \"#utility.yul\":22339:22340   */\n      0x00\n        /* \"#utility.yul\":22328:22337   */\n      dup4\n        /* \"#utility.yul\":22324:22341   */\n      add\n        /* \"#utility.yul\":22317:22364   */\n      mstore\n        /* \"#utility.yul\":22381:22512   */\n      tag_613\n        /* \"#utility.yul\":22507:22511   */\n      dup2\n        /* \"#utility.yul\":22381:22512   */\n      tag_537\n      jump\t// in\n    tag_613:\n        /* \"#utility.yul\":22373:22512   */\n      swap1\n      pop\n        /* \"#utility.yul\":22100:22519   */\n      swap2\n      swap1\n      pop\n      jump\t// out\n        /* \"#utility.yul\":22525:22944   */\n    tag_200:\n        /* \"#utility.yul\":22691:22695   */\n      0x00\n        /* \"#utility.yul\":22729:22731   */\n      0x20\n        /* \"#utility.yul\":22718:22727   */\n      dup3\n        /* \"#utility.yul\":22714:22732   */\n      add\n        /* \"#utility.yul\":22706:22732   */\n      swap1\n      pop\n        /* \"#utility.yul\":22778:22787   */\n      dup2\n        /* \"#utility.yul\":22772:22776   */\n      dup2\n        /* \"#utility.yul\":22768:22788   */\n      sub\n        /* \"#utility.yul\":22764:22765   */\n      0x00\n        /* \"#utility.yul\":22753:22762   */\n      dup4\n        /* \"#utility.yul\":22749:22766   */\n      add\n        /* \"#utility.yul\":22742:22789   */\n      mstore\n        /* \"#utility.yul\":22806:22937   */\n      tag_615\n        /* \"#utility.yul\":22932:22936   */\n      dup2\n        /* \"#utility.yul\":22806:22937   */\n      tag_547\n      jump\t// in\n    tag_615:\n        /* \"#utility.yul\":22798:22937   */\n      swap1\n      pop\n        /* \"#utility.yul\":22525:22944   */\n      swap2\n      swap1\n      pop\n      jump\t// out\n        /* \"#utility.yul\":22950:23369   */\n    tag_194:\n        /* \"#utility.yul\":23116:23120   */\n      0x00\n        /* \"#utility.yul\":23154:23156   */\n      0x20\n        /* \"#utility.yul\":23143:23152   */\n      dup3\n        /* \"#utility.yul\":23139:23157   */\n      add\n        /* \"#utility.yul\":23131:23157   */\n      swap1\n      pop\n        /* \"#utility.yul\":23203:23212   */\n      dup2\n        /* \"#utility.yul\":23197:23201   */\n      dup2\n        /* \"#utility.yul\":23193:23213   */\n      sub\n        /* \"#utility.yul\":23189:23190   */\n      0x00\n        /* \"#utility.yul\":23178:23187   */\n      dup4\n        /* \"#utility.yul\":23174:23191   */\n      add\n        /* \"#utility.yul\":23167:23214   */\n      mstore\n        /* \"#utility.yul\":23231:23362   */\n      tag_617\n        /* \"#utility.yul\":23357:23361   */\n      dup2\n        /* \"#utility.yul\":23231:23362   */\n      tag_557\n      jump\t// in\n    tag_617:\n        /* \"#utility.yul\":23223:23362   */\n      swap1\n      pop\n        /* \"#utility.yul\":22950:23369   */\n      swap2\n      swap1\n      pop\n      jump\t// out\n        /* \"#utility.yul\":23375:23597   */\n    tag_62:\n        /* \"#utility.yul\":23468:23472   */\n      0x00\n        /* \"#utility.yul\":23506:23508   */\n      0x20\n        /* \"#utility.yul\":23495:23504   */\n      dup3\n        /* \"#utility.yul\":23491:23509   */\n      add\n        /* \"#utility.yul\":23483:23509   */\n      swap1\n      pop\n        /* \"#utility.yul\":23519:23590   */\n      tag_619\n        /* \"#utility.yul\":23587:23588   */\n      0x00\n        /* \"#utility.yul\":23576:23585   */\n      dup4\n        /* \"#utility.yul\":23572:23589   */\n      add\n        /* \"#utility.yul\":23563:23569   */\n      dup5\n        /* \"#utility.yul\":23519:23590   */\n      tag_562\n      jump\t// in\n    tag_619:\n        /* \"#utility.yul\":23375:23597   */\n      swap3\n      swap2\n      pop\n      pop\n      jump\t// out\n        /* \"#utility.yul\":23603:24172   */\n    tag_179:\n        /* \"#utility.yul\":23788:23792   */\n      0x00\n        /* \"#utility.yul\":23826:23829   */\n      0x80\n        /* \"#utility.yul\":23815:23824   */\n      dup3\n        /* \"#utility.yul\":23811:23830   */\n      add\n        /* \"#utility.yul\":23803:23830   */\n      swap1\n      pop\n        /* \"#utility.yul\":23840:23911   */\n      tag_621\n        /* \"#utility.yul\":23908:23909   */\n      0x00\n        /* \"#utility.yul\":23897:23906   */\n      dup4\n        /* \"#utility.yul\":23893:23910   */\n      add\n        /* \"#utility.yul\":23884:23890   */\n      dup8\n        /* \"#utility.yul\":23840:23911   */\n      tag_562\n      jump\t// in\n    tag_621:\n        /* \"#utility.yul\":23921:23993   */\n      tag_622\n        /* \"#utility.yul\":23989:23991   */\n      0x20\n        /* \"#utility.yul\":23978:23987   */\n      dup4\n        /* \"#utility.yul\":23974:23992   */\n      add\n        /* \"#utility.yul\":23965:23971   */\n      dup7\n        /* \"#utility.yul\":23921:23993   */\n      tag_562\n      jump\t// in\n    tag_622:\n        /* \"#utility.yul\":24003:24083   */\n      tag_623\n        /* \"#utility.yul\":24079:24081   */\n      0x40\n        /* \"#utility.yul\":24068:24077   */\n      dup4\n        /* \"#utility.yul\":24064:24082   */\n      add\n        /* \"#utility.yul\":24055:24061   */\n      dup6\n        /* \"#utility.yul\":24003:24083   */\n      tag_451\n      jump\t// in\n    tag_623:\n        /* \"#utility.yul\":24093:24165   */\n      tag_624\n        /* \"#utility.yul\":24161:24163   */\n      0x60\n        /* \"#utility.yul\":24150:24159   */\n      dup4\n        /* \"#utility.yul\":24146:24164   */\n      add\n        /* \"#utility.yul\":24137:24143   */\n      dup5\n        /* \"#utility.yul\":24093:24165   */\n      tag_459\n      jump\t// in\n    tag_624:\n        /* \"#utility.yul\":23603:24172   */\n      swap6\n      swap5\n      pop\n      pop\n      pop\n      pop\n      pop\n      jump\t// out\n        /* \"#utility.yul\":24178:24307   */\n    tag_354:\n        /* \"#utility.yul\":24212:24218   */\n      0x00\n        /* \"#utility.yul\":24239:24259   */\n      tag_626\n      tag_627\n      jump\t// in\n    tag_626:\n        /* \"#utility.yul\":24229:24259   */\n      swap1\n      pop\n        /* \"#utility.yul\":24268:24301   */\n      tag_628\n        /* \"#utility.yul\":24296:24300   */\n      dup3\n        /* \"#utility.yul\":24288:24294   */\n      dup3\n        /* \"#utility.yul\":24268:24301   */\n      tag_629\n      jump\t// in\n    tag_628:\n        /* \"#utility.yul\":24178:24307   */\n      swap2\n      swap1\n      pop\n      jump\t// out\n        /* \"#utility.yul\":24313:24388   */\n    tag_627:\n        /* \"#utility.yul\":24346:24352   */\n      0x00\n        /* \"#utility.yul\":24379:24381   */\n      0x40\n        /* \"#utility.yul\":24373:24382   */\n      mload\n        /* \"#utility.yul\":24363:24382   */\n      swap1\n      pop\n        /* \"#utility.yul\":24313:24388   */\n      swap1\n      jump\t// out\n        /* \"#utility.yul\":24394:24702   */\n    tag_353:\n        /* \"#utility.yul\":24456:24460   */\n      0x00\n        /* \"#utility.yul\":24546:24564   */\n      0xffffffffffffffff\n        /* \"#utility.yul\":24538:24544   */\n      dup3\n        /* \"#utility.yul\":24535:24565   */\n      gt\n        /* \"#utility.yul\":24532:24588   */\n      iszero\n      tag_632\n      jumpi\n        /* \"#utility.yul\":24568:24586   */\n      tag_633\n      tag_318\n      jump\t// in\n    tag_633:\n        /* \"#utility.yul\":24532:24588   */\n    tag_632:\n        /* \"#utility.yul\":24606:24635   */\n      tag_634\n        /* \"#utility.yul\":24628:24634   */\n      dup3\n        /* \"#utility.yul\":24606:24635   */\n      tag_480\n      jump\t// in\n    tag_634:\n        /* \"#utility.yul\":24598:24635   */\n      swap1\n      pop\n        /* \"#utility.yul\":24690:24694   */\n      0x20\n        /* \"#utility.yul\":24684:24688   */\n      dup2\n        /* \"#utility.yul\":24680:24695   */\n      add\n        /* \"#utility.yul\":24672:24695   */\n      swap1\n      pop\n        /* \"#utility.yul\":24394:24702   */\n      swap2\n      swap1\n      pop\n      jump\t// out\n        /* \"#utility.yul\":24708:24807   */\n    tag_474:\n        /* \"#utility.yul\":24760:24766   */\n      0x00\n        /* \"#utility.yul\":24794:24799   */\n      dup2\n        /* \"#utility.yul\":24788:24800   */\n      mload\n        /* \"#utility.yul\":24778:24800   */\n      swap1\n      pop\n        /* \"#utility.yul\":24708:24807   */\n      swap2\n      swap1\n      pop\n      jump\t// out\n        /* \"#utility.yul\":24813:24982   */\n    tag_476:\n        /* \"#utility.yul\":24897:24908   */\n      0x00\n        /* \"#utility.yul\":24931:24937   */\n      dup3\n        /* \"#utility.yul\":24926:24929   */\n      dup3\n        /* \"#utility.yul\":24919:24938   */\n      mstore\n        /* \"#utility.yul\":24971:24975   */\n      0x20\n        /* \"#utility.yul\":24966:24969   */\n      dup3\n        /* \"#utility.yul\":24962:24976   */\n      add\n        /* \"#utility.yul\":24947:24976   */\n      swap1\n      pop\n        /* \"#utility.yul\":24813:24982   */\n      swap3\n      swap2\n      pop\n      pop\n      jump\t// out\n        /* \"#utility.yul\":24988:25136   */\n    tag_485:\n        /* \"#utility.yul\":25090:25101   */\n      0x00\n        /* \"#utility.yul\":25127:25130   */\n      dup2\n        /* \"#utility.yul\":25112:25130   */\n      swap1\n      pop\n        /* \"#utility.yul\":24988:25136   */\n      swap3\n      swap2\n      pop\n      pop\n      jump\t// out\n        /* \"#utility.yul\":25142:25447   */\n    tag_217:\n        /* \"#utility.yul\":25182:25185   */\n      0x00\n        /* \"#utility.yul\":25201:25221   */\n      tag_639\n        /* \"#utility.yul\":25219:25220   */\n      dup3\n        /* \"#utility.yul\":25201:25221   */\n      tag_565\n      jump\t// in\n    tag_639:\n        /* \"#utility.yul\":25196:25221   */\n      swap2\n      pop\n        /* \"#utility.yul\":25235:25255   */\n      tag_640\n        /* \"#utility.yul\":25253:25254   */\n      dup4\n        /* \"#utility.yul\":25235:25255   */\n      tag_565\n      jump\t// in\n    tag_640:\n        /* \"#utility.yul\":25230:25255   */\n      swap3\n      pop\n        /* \"#utility.yul\":25389:25390   */\n      dup3\n        /* \"#utility.yul\":25321:25387   */\n      0xffffffffffffffffffffffffffffffffffffffffffffffffffffffffffffffff\n        /* \"#utility.yul\":25317:25391   */\n      sub\n        /* \"#utility.yul\":25314:25315   */\n      dup3\n        /* \"#utility.yul\":25311:25392   */\n      gt\n        /* \"#utility.yul\":25308:25415   */\n      iszero\n      tag_641\n      jumpi\n        /* \"#utility.yul\":25395:25413   */\n      tag_642\n      tag_643\n      jump\t// in\n    tag_642:\n        /* \"#utility.yul\":25308:25415   */\n    tag_641:\n        /* \"#utility.yul\":25439:25440   */\n      dup3\n        /* \"#utility.yul\":25436:25437   */\n      dup3\n        /* \"#utility.yul\":25432:25441   */\n      add\n        /* \"#utility.yul\":25425:25441   */\n      swap1\n      pop\n        /* \"#utility.yul\":25142:25447   */\n      swap3\n      swap2\n      pop\n      pop\n      jump\t// out\n        /* \"#utility.yul\":25453:25638   */\n    tag_222:\n        /* \"#utility.yul\":25493:25494   */\n      0x00\n        /* \"#utility.yul\":25510:25530   */\n      tag_645\n        /* \"#utility.yul\":25528:25529   */\n      dup3\n        /* \"#utility.yul\":25510:25530   */\n      tag_565\n      jump\t// in\n    tag_645:\n        /* \"#utility.yul\":25505:25530   */\n      swap2\n      pop\n        /* \"#utility.yul\":25544:25564   */\n      tag_646\n        /* \"#utility.yul\":25562:25563   */\n      dup4\n        /* \"#utility.yul\":25544:25564   */\n      tag_565\n      jump\t// in\n    tag_646:\n        /* \"#utility.yul\":25539:25564   */\n      swap3\n      pop\n        /* \"#utility.yul\":25583:25584   */\n      dup3\n        /* \"#utility.yul\":25573:25608   */\n      tag_647\n      jumpi\n        /* \"#utility.yul\":25588:25606   */\n      tag_648\n      tag_649\n      jump\t// in\n    tag_648:\n        /* \"#utility.yul\":25573:25608   */\n    tag_647:\n        /* \"#utility.yul\":25630:25631   */\n      dup3\n        /* \"#utility.yul\":25627:25628   */\n      dup3\n        /* \"#utility.yul\":25623:25632   */\n      div\n        /* \"#utility.yul\":25618:25632   */\n      swap1\n      pop\n        /* \"#utility.yul\":25453:25638   */\n      swap3\n      swap2\n      pop\n      pop\n      jump\t// out\n        /* \"#utility.yul\":25644:25992   */\n    tag_168:\n        /* \"#utility.yul\":25684:25691   */\n      0x00\n        /* \"#utility.yul\":25707:25727   */\n      tag_651\n        /* \"#utility.yul\":25725:25726   */\n      dup3\n        /* \"#utility.yul\":25707:25727   */\n      tag_565\n      jump\t// in\n    tag_651:\n        /* \"#utility.yul\":25702:25727   */\n      swap2\n      pop\n        /* \"#utility.yul\":25741:25761   */\n      tag_652\n        /* \"#utility.yul\":25759:25760   */\n      dup4\n        /* \"#utility.yul\":25741:25761   */\n      tag_565\n      jump\t// in\n    tag_652:\n        /* \"#utility.yul\":25736:25761   */\n      swap3\n      pop\n        /* \"#utility.yul\":25929:25930   */\n      dup2\n        /* \"#utility.yul\":25861:25927   */\n      0xffffffffffffffffffffffffffffffffffffffffffffffffffffffffffffffff\n        /* \"#utility.yul\":25857:25931   */\n      div\n        /* \"#utility.yul\":25854:25855   */\n      dup4\n        /* \"#utility.yul\":25851:25932   */\n      gt\n        /* \"#utility.yul\":25846:25847   */\n      dup3\n        /* \"#utility.yul\":25839:25848   */\n      iszero\n        /* \"#utility.yul\":25832:25849   */\n      iszero\n        /* \"#utility.yul\":25828:25933   */\n      and\n        /* \"#utility.yul\":25825:25956   */\n      iszero\n      tag_653\n      jumpi\n        /* \"#utility.yul\":25936:25954   */\n      tag_654\n      tag_643\n      jump\t// in\n    tag_654:\n        /* \"#utility.yul\":25825:25956   */\n    tag_653:\n        /* \"#utility.yul\":25984:25985   */\n      dup3\n        /* \"#utility.yul\":25981:25982   */\n      dup3\n        /* \"#utility.yul\":25977:25986   */\n      mul\n        /* \"#utility.yul\":25966:25986   */\n      swap1\n      pop\n        /* \"#utility.yul\":25644:25992   */\n      swap3\n      swap2\n      pop\n      pop\n      jump\t// out\n        /* \"#utility.yul\":25998:26183   */\n    tag_176:\n        /* \"#utility.yul\":26036:26040   */\n      0x00\n        /* \"#utility.yul\":26056:26074   */\n      tag_656\n        /* \"#utility.yul\":26072:26073   */\n      dup3\n        /* \"#utility.yul\":26056:26074   */\n      tag_569\n      jump\t// in\n    tag_656:\n        /* \"#utility.yul\":26051:26074   */\n      swap2\n      pop\n        /* \"#utility.yul\":26088:26106   */\n      tag_657\n        /* \"#utility.yul\":26104:26105   */\n      dup4\n        /* \"#utility.yul\":26088:26106   */\n      tag_569\n      jump\t// in\n    tag_657:\n        /* \"#utility.yul\":26083:26106   */\n      swap3\n      pop\n        /* \"#utility.yul\":26125:26126   */\n      dup3\n        /* \"#utility.yul\":26122:26123   */\n      dup3\n        /* \"#utility.yul\":26119:26127   */\n      lt\n        /* \"#utility.yul\":26116:26150   */\n      iszero\n      tag_658\n      jumpi\n        /* \"#utility.yul\":26130:26148   */\n      tag_659\n      tag_643\n      jump\t// in\n    tag_659:\n        /* \"#utility.yul\":26116:26150   */\n    tag_658:\n        /* \"#utility.yul\":26175:26176   */\n      dup3\n        /* \"#utility.yul\":26172:26173   */\n      dup3\n        /* \"#utility.yul\":26168:26177   */\n      sub\n        /* \"#utility.yul\":26160:26177   */\n      swap1\n      pop\n        /* \"#utility.yul\":25998:26183   */\n      swap3\n      swap2\n      pop\n      pop\n      jump\t// out\n        /* \"#utility.yul\":26189:26285   */\n    tag_462:\n        /* \"#utility.yul\":26226:26233   */\n      0x00\n        /* \"#utility.yul\":26255:26279   */\n      tag_661\n        /* \"#utility.yul\":26273:26278   */\n      dup3\n        /* \"#utility.yul\":26255:26279   */\n      tag_662\n      jump\t// in\n    tag_661:\n        /* \"#utility.yul\":26244:26279   */\n      swap1\n      pop\n        /* \"#utility.yul\":26189:26285   */\n      swap2\n      swap1\n      pop\n      jump\t// out\n        /* \"#utility.yul\":26291:26395   */\n    tag_458:\n        /* \"#utility.yul\":26336:26343   */\n      0x00\n        /* \"#utility.yul\":26365:26389   */\n      tag_664\n        /* \"#utility.yul\":26383:26388   */\n      dup3\n        /* \"#utility.yul\":26365:26389   */\n      tag_662\n      jump\t// in\n    tag_664:\n        /* \"#utility.yul\":26354:26389   */\n      swap1\n      pop\n        /* \"#utility.yul\":26291:26395   */\n      swap2\n      swap1\n      pop\n      jump\t// out\n        /* \"#utility.yul\":26401:26491   */\n    tag_466:\n        /* \"#utility.yul\":26435:26442   */\n      0x00\n        /* \"#utility.yul\":26478:26483   */\n      dup2\n        /* \"#utility.yul\":26471:26484   */\n      iszero\n        /* \"#utility.yul\":26464:26485   */\n      iszero\n        /* \"#utility.yul\":26453:26485   */\n      swap1\n      pop\n        /* \"#utility.yul\":26401:26491   */\n      swap2\n      swap1\n      pop\n      jump\t// out\n        /* \"#utility.yul\":26497:26574   */\n    tag_470:\n        /* \"#utility.yul\":26534:26541   */\n      0x00\n        /* \"#utility.yul\":26563:26568   */\n      dup2\n        /* \"#utility.yul\":26552:26568   */\n      swap1\n      pop\n        /* \"#utility.yul\":26497:26574   */\n      swap2\n      swap1\n      pop\n      jump\t// out\n        /* \"#utility.yul\":26580:26729   */\n    tag_667:\n        /* \"#utility.yul\":26616:26623   */\n      0x00\n        /* \"#utility.yul\":26656:26722   */\n      0xffffffff00000000000000000000000000000000000000000000000000000000\n        /* \"#utility.yul\":26649:26654   */\n      dup3\n        /* \"#utility.yul\":26645:26723   */\n      and\n        /* \"#utility.yul\":26634:26723   */\n      swap1\n      pop\n        /* \"#utility.yul\":26580:26729   */\n      swap2\n      swap1\n      pop\n      jump\t// out\n        /* \"#utility.yul\":26735:26861   */\n    tag_662:\n        /* \"#utility.yul\":26772:26779   */\n      0x00\n        /* \"#utility.yul\":26812:26854   */\n      0xffffffffffffffffffffffffffffffffffffffff\n        /* \"#utility.yul\":26805:26810   */\n      dup3\n        /* \"#utility.yul\":26801:26855   */\n      and\n        /* \"#utility.yul\":26790:26855   */\n      swap1\n      pop\n        /* \"#utility.yul\":26735:26861   */\n      swap2\n      swap1\n      pop\n      jump\t// out\n        /* \"#utility.yul\":26867:26944   */\n    tag_565:\n        /* \"#utility.yul\":26904:26911   */\n      0x00\n        /* \"#utility.yul\":26933:26938   */\n      dup2\n        /* \"#utility.yul\":26922:26938   */\n      swap1\n      pop\n        /* \"#utility.yul\":26867:26944   */\n      swap2\n      swap1\n      pop\n      jump\t// out\n        /* \"#utility.yul\":26950:27036   */\n    tag_569:\n        /* \"#utility.yul\":26985:26992   */\n      0x00\n        /* \"#utility.yul\":27025:27029   */\n      0xff\n        /* \"#utility.yul\":27018:27023   */\n      dup3\n        /* \"#utility.yul\":27014:27030   */\n      and\n        /* \"#utility.yul\":27003:27030   */\n      swap1\n      pop\n        /* \"#utility.yul\":26950:27036   */\n      swap2\n      swap1\n      pop\n      jump\t// out\n        /* \"#utility.yul\":27042:27176   */\n    tag_454:\n        /* \"#utility.yul\":27100:27109   */\n      0x00\n        /* \"#utility.yul\":27133:27170   */\n      tag_673\n        /* \"#utility.yul\":27164:27169   */\n      dup3\n        /* \"#utility.yul\":27133:27170   */\n      tag_674\n      jump\t// in\n    tag_673:\n        /* \"#utility.yul\":27120:27170   */\n      swap1\n      pop\n        /* \"#utility.yul\":27042:27176   */\n      swap2\n      swap1\n      pop\n      jump\t// out\n        /* \"#utility.yul\":27182:27308   */\n    tag_674:\n        /* \"#utility.yul\":27232:27241   */\n      0x00\n        /* \"#utility.yul\":27265:27302   */\n      tag_676\n        /* \"#utility.yul\":27296:27301   */\n      dup3\n        /* \"#utility.yul\":27265:27302   */\n      tag_677\n      jump\t// in\n    tag_676:\n        /* \"#utility.yul\":27252:27302   */\n      swap1\n      pop\n        /* \"#utility.yul\":27182:27308   */\n      swap2\n      swap1\n      pop\n      jump\t// out\n        /* \"#utility.yul\":27314:27427   */\n    tag_677:\n        /* \"#utility.yul\":27364:27373   */\n      0x00\n        /* \"#utility.yul\":27397:27421   */\n      tag_679\n        /* \"#utility.yul\":27415:27420   */\n      dup3\n        /* \"#utility.yul\":27397:27421   */\n      tag_662\n      jump\t// in\n    tag_679:\n        /* \"#utility.yul\":27384:27421   */\n      swap1\n      pop\n        /* \"#utility.yul\":27314:27427   */\n      swap2\n      swap1\n      pop\n      jump\t// out\n        /* \"#utility.yul\":27433:27587   */\n    tag_359:\n        /* \"#utility.yul\":27517:27523   */\n      dup3\n        /* \"#utility.yul\":27512:27515   */\n      dup2\n        /* \"#utility.yul\":27507:27510   */\n      dup4\n        /* \"#utility.yul\":27494:27524   */\n      calldatacopy\n        /* \"#utility.yul\":27579:27580   */\n      0x00\n        /* \"#utility.yul\":27570:27576   */\n      dup4\n        /* \"#utility.yul\":27565:27568   */\n      dup4\n        /* \"#utility.yul\":27561:27577   */\n      add\n        /* \"#utility.yul\":27554:27581   */\n      mstore\n        /* \"#utility.yul\":27433:27587   */\n      pop\n      pop\n      pop\n      jump\t// out\n        /* \"#utility.yul\":27593:27900   */\n    tag_478:\n        /* \"#utility.yul\":27661:27662   */\n      0x00\n        /* \"#utility.yul\":27671:27784   */\n    tag_682:\n        /* \"#utility.yul\":27685:27691   */\n      dup4\n        /* \"#utility.yul\":27682:27683   */\n      dup2\n        /* \"#utility.yul\":27679:27692   */\n      lt\n        /* \"#utility.yul\":27671:27784   */\n      iszero\n      tag_684\n      jumpi\n        /* \"#utility.yul\":27770:27771   */\n      dup1\n        /* \"#utility.yul\":27765:27768   */\n      dup3\n        /* \"#utility.yul\":27761:27772   */\n      add\n        /* \"#utility.yul\":27755:27773   */\n      mload\n        /* \"#utility.yul\":27751:27752   */\n      dup2\n        /* \"#utility.yul\":27746:27749   */\n      dup5\n        /* \"#utility.yul\":27742:27753   */\n      add\n        /* \"#utility.yul\":27735:27774   */\n      mstore\n        /* \"#utility.yul\":27707:27709   */\n      0x20\n        /* \"#utility.yul\":27704:27705   */\n      dup2\n        /* \"#utility.yul\":27700:27710   */\n      add\n        /* \"#utility.yul\":27695:27710   */\n      swap1\n      pop\n        /* \"#utility.yul\":27671:27784   */\n      jump(tag_682)\n    tag_684:\n        /* \"#utility.yul\":27802:27808   */\n      dup4\n        /* \"#utility.yul\":27799:27800   */\n      dup2\n        /* \"#utility.yul\":27796:27809   */\n      gt\n        /* \"#utility.yul\":27793:27894   */\n      iszero\n      tag_685\n      jumpi\n        /* \"#utility.yul\":27882:27883   */\n      0x00\n        /* \"#utility.yul\":27873:27879   */\n      dup5\n        /* \"#utility.yul\":27868:27871   */\n      dup5\n        /* \"#utility.yul\":27864:27880   */\n      add\n        /* \"#utility.yul\":27857:27884   */\n      mstore\n        /* \"#utility.yul\":27793:27894   */\n    tag_685:\n        /* \"#utility.yul\":27642:27900   */\n      pop\n        /* \"#utility.yul\":27593:27900   */\n      pop\n      pop\n      pop\n      jump\t// out\n        /* \"#utility.yul\":27906:28077   */\n    tag_334:\n        /* \"#utility.yul\":27945:27948   */\n      0x00\n        /* \"#utility.yul\":27968:27992   */\n      tag_687\n        /* \"#utility.yul\":27986:27991   */\n      dup3\n        /* \"#utility.yul\":27968:27992   */\n      tag_565\n      jump\t// in\n    tag_687:\n        /* \"#utility.yul\":27959:27992   */\n      swap2\n      pop\n        /* \"#utility.yul\":28014:28018   */\n      0x00\n        /* \"#utility.yul\":28007:28012   */\n      dup3\n        /* \"#utility.yul\":28004:28019   */\n      eq\n        /* \"#utility.yul\":28001:28042   */\n      iszero\n      tag_688\n      jumpi\n        /* \"#utility.yul\":28022:28040   */\n      tag_689\n      tag_643\n      jump\t// in\n    tag_689:\n        /* \"#utility.yul\":28001:28042   */\n    tag_688:\n        /* \"#utility.yul\":28069:28070   */\n      0x01\n        /* \"#utility.yul\":28062:28067   */\n      dup3\n        /* \"#utility.yul\":28058:28071   */\n      sub\n        /* \"#utility.yul\":28051:28071   */\n      swap1\n      pop\n        /* \"#utility.yul\":27906:28077   */\n      swap2\n      swap1\n      pop\n      jump\t// out\n        /* \"#utility.yul\":28083:28403   */\n    tag_225:\n        /* \"#utility.yul\":28127:28133   */\n      0x00\n        /* \"#utility.yul\":28164:28165   */\n      0x02\n        /* \"#utility.yul\":28158:28162   */\n      dup3\n        /* \"#utility.yul\":28154:28166   */\n      div\n        /* \"#utility.yul\":28144:28166   */\n      swap1\n      pop\n        /* \"#utility.yul\":28211:28212   */\n      0x01\n        /* \"#utility.yul\":28205:28209   */\n      dup3\n        /* \"#utility.yul\":28201:28213   */\n      and\n        /* \"#utility.yul\":28232:28250   */\n      dup1\n        /* \"#utility.yul\":28222:28303   */\n      tag_691\n      jumpi\n        /* \"#utility.yul\":28288:28292   */\n      0x7f\n        /* \"#utility.yul\":28280:28286   */\n      dup3\n        /* \"#utility.yul\":28276:28293   */\n      and\n        /* \"#utility.yul\":28266:28293   */\n      swap2\n      pop\n        /* \"#utility.yul\":28222:28303   */\n    tag_691:\n        /* \"#utility.yul\":28350:28352   */\n      0x20\n        /* \"#utility.yul\":28342:28348   */\n      dup3\n        /* \"#utility.yul\":28339:28353   */\n      lt\n        /* \"#utility.yul\":28319:28337   */\n      dup2\n        /* \"#utility.yul\":28316:28354   */\n      eq\n        /* \"#utility.yul\":28313:28397   */\n      iszero\n      tag_692\n      jumpi\n        /* \"#utility.yul\":28369:28387   */\n      tag_693\n      tag_694\n      jump\t// in\n    tag_693:\n        /* \"#utility.yul\":28313:28397   */\n    tag_692:\n        /* \"#utility.yul\":28134:28403   */\n      pop\n        /* \"#utility.yul\":28083:28403   */\n      swap2\n      swap1\n      pop\n      jump\t// out\n        /* \"#utility.yul\":28409:28690   */\n    tag_629:\n        /* \"#utility.yul\":28492:28519   */\n      tag_696\n        /* \"#utility.yul\":28514:28518   */\n      dup3\n        /* \"#utility.yul\":28492:28519   */\n      tag_480\n      jump\t// in\n    tag_696:\n        /* \"#utility.yul\":28484:28490   */\n      dup2\n        /* \"#utility.yul\":28480:28520   */\n      add\n        /* \"#utility.yul\":28622:28628   */\n      dup2\n        /* \"#utility.yul\":28610:28620   */\n      dup2\n        /* \"#utility.yul\":28607:28629   */\n      lt\n        /* \"#utility.yul\":28586:28604   */\n      0xffffffffffffffff\n        /* \"#utility.yul\":28574:28584   */\n      dup3\n        /* \"#utility.yul\":28571:28605   */\n      gt\n        /* \"#utility.yul\":28568:28630   */\n      or\n        /* \"#utility.yul\":28565:28653   */\n      iszero\n      tag_697\n      jumpi\n        /* \"#utility.yul\":28633:28651   */\n      tag_698\n      tag_318\n      jump\t// in\n    tag_698:\n        /* \"#utility.yul\":28565:28653   */\n    tag_697:\n        /* \"#utility.yul\":28673:28683   */\n      dup1\n        /* \"#utility.yul\":28669:28671   */\n      0x40\n        /* \"#utility.yul\":28662:28684   */\n      mstore\n        /* \"#utility.yul\":28452:28690   */\n      pop\n        /* \"#utility.yul\":28409:28690   */\n      pop\n      pop\n      jump\t// out\n        /* \"#utility.yul\":28696:28929   */\n    tag_206:\n        /* \"#utility.yul\":28735:28738   */\n      0x00\n        /* \"#utility.yul\":28758:28782   */\n      tag_700\n        /* \"#utility.yul\":28776:28781   */\n      dup3\n        /* \"#utility.yul\":28758:28782   */\n      tag_565\n      jump\t// in\n    tag_700:\n        /* \"#utility.yul\":28749:28782   */\n      swap2\n      pop\n        /* \"#utility.yul\":28804:28870   */\n      0xffffffffffffffffffffffffffffffffffffffffffffffffffffffffffffffff\n        /* \"#utility.yul\":28797:28802   */\n      dup3\n        /* \"#utility.yul\":28794:28871   */\n      eq\n        /* \"#utility.yul\":28791:28894   */\n      iszero\n      tag_701\n      jumpi\n        /* \"#utility.yul\":28874:28892   */\n      tag_702\n      tag_643\n      jump\t// in\n    tag_702:\n        /* \"#utility.yul\":28791:28894   */\n    tag_701:\n        /* \"#utility.yul\":28921:28922   */\n      0x01\n        /* \"#utility.yul\":28914:28919   */\n      dup3\n        /* \"#utility.yul\":28910:28923   */\n      add\n        /* \"#utility.yul\":28903:28923   */\n      swap1\n      pop\n        /* \"#utility.yul\":28696:28929   */\n      swap2\n      swap1\n      pop\n      jump\t// out\n        /* \"#utility.yul\":28935:29115   */\n    tag_643:\n        /* \"#utility.yul\":28983:29060   */\n      0x4e487b7100000000000000000000000000000000000000000000000000000000\n        /* \"#utility.yul\":28980:28981   */\n      0x00\n        /* \"#utility.yul\":28973:29061   */\n      mstore\n        /* \"#utility.yul\":29080:29084   */\n      0x11\n        /* \"#utility.yul\":29077:29078   */\n      0x04\n        /* \"#utility.yul\":29070:29085   */\n      mstore\n        /* \"#utility.yul\":29104:29108   */\n      0x24\n        /* \"#utility.yul\":29101:29102   */\n      0x00\n        /* \"#utility.yul\":29094:29109   */\n      revert\n        /* \"#utility.yul\":29121:29301   */\n    tag_649:\n        /* \"#utility.yul\":29169:29246   */\n      0x4e487b7100000000000000000000000000000000000000000000000000000000\n        /* \"#utility.yul\":29166:29167   */\n      0x00\n        /* \"#utility.yul\":29159:29247   */\n      mstore\n        /* \"#utility.yul\":29266:29270   */\n      0x12\n        /* \"#utility.yul\":29263:29264   */\n      0x04\n        /* \"#utility.yul\":29256:29271   */\n      mstore\n        /* \"#utility.yul\":29290:29294   */\n      0x24\n        /* \"#utility.yul\":29287:29288   */\n      0x00\n        /* \"#utility.yul\":29280:29295   */\n      revert\n        /* \"#utility.yul\":29307:29487   */\n    tag_694:\n        /* \"#utility.yul\":29355:29432   */\n      0x4e487b7100000000000000000000000000000000000000000000000000000000\n        /* \"#utility.yul\":29352:29353   */\n      0x00\n        /* \"#utility.yul\":29345:29433   */\n      mstore\n        /* \"#utility.yul\":29452:29456   */\n      0x22\n        /* \"#utility.yul\":29449:29450   */\n      0x04\n        /* \"#utility.yul\":29442:29457   */\n      mstore\n        /* \"#utility.yul\":29476:29480   */\n      0x24\n        /* \"#utility.yul\":29473:29474   */\n      0x00\n        /* \"#utility.yul\":29466:29481   */\n      revert\n        /* \"#utility.yul\":29493:29673   */\n    tag_213:\n        /* \"#utility.yul\":29541:29618   */\n      0x4e487b7100000000000000000000000000000000000000000000000000000000\n        /* \"#utility.yul\":29538:29539   */\n      0x00\n        /* \"#utility.yul\":29531:29619   */\n      mstore\n        /* \"#utility.yul\":29638:29642   */\n      0x32\n        /* \"#utility.yul\":29635:29636   */\n      0x04\n        /* \"#utility.yul\":29628:29643   */\n      mstore\n        /* \"#utility.yul\":29662:29666   */\n      0x24\n        /* \"#utility.yul\":29659:29660   */\n      0x00\n        /* \"#utility.yul\":29652:29667   */\n      revert\n        /* \"#utility.yul\":29679:29859   */\n    tag_318:\n        /* \"#utility.yul\":29727:29804   */\n      0x4e487b7100000000000000000000000000000000000000000000000000000000\n        /* \"#utility.yul\":29724:29725   */\n      0x00\n        /* \"#utility.yul\":29717:29805   */\n      mstore\n        /* \"#utility.yul\":29824:29828   */\n      0x41\n        /* \"#utility.yul\":29821:29822   */\n      0x04\n        /* \"#utility.yul\":29814:29829   */\n      mstore\n        /* \"#utility.yul\":29848:29852   */\n      0x24\n        /* \"#utility.yul\":29845:29846   */\n      0x00\n        /* \"#utility.yul\":29838:29853   */\n      revert\n        /* \"#utility.yul\":29865:29982   */\n    tag_380:\n        /* \"#utility.yul\":29974:29975   */\n      0x00\n        /* \"#utility.yul\":29971:29972   */\n      dup1\n        /* \"#utility.yul\":29964:29976   */\n      revert\n        /* \"#utility.yul\":29988:30105   */\n    tag_357:\n        /* \"#utility.yul\":30097:30098   */\n      0x00\n        /* \"#utility.yul\":30094:30095   */\n      dup1\n        /* \"#utility.yul\":30087:30099   */\n      revert\n        /* \"#utility.yul\":30111:30228   */\n    tag_409:\n        /* \"#utility.yul\":30220:30221   */\n      0x00\n        /* \"#utility.yul\":30217:30218   */\n      dup1\n        /* \"#utility.yul\":30210:30222   */\n      revert\n        /* \"#utility.yul\":30234:30351   */\n    tag_393:\n        /* \"#utility.yul\":30343:30344   */\n      0x00\n        /* \"#utility.yul\":30340:30341   */\n      dup1\n        /* \"#utility.yul\":30333:30345   */\n      revert\n        /* \"#utility.yul\":30357:30459   */\n    tag_480:\n        /* \"#utility.yul\":30398:30404   */\n      0x00\n        /* \"#utility.yul\":30449:30451   */\n      0x1f\n        /* \"#utility.yul\":30445:30452   */\n      not\n        /* \"#utility.yul\":30440:30442   */\n      0x1f\n        /* \"#utility.yul\":30433:30438   */\n      dup4\n        /* \"#utility.yul\":30429:30443   */\n      add\n        /* \"#utility.yul\":30425:30453   */\n      and\n        /* \"#utility.yul\":30415:30453   */\n      swap1\n      pop\n        /* \"#utility.yul\":30357:30459   */\n      swap2\n      swap1\n      pop\n      jump\t// out\n        /* \"#utility.yul\":30465:30646   */\n    tag_491:\n        /* \"#utility.yul\":30605:30638   */\n      0x5175616e74697479206d7573742062652067726561746572207468616e203000\n        /* \"#utility.yul\":30601:30602   */\n      0x00\n        /* \"#utility.yul\":30593:30599   */\n      dup3\n        /* \"#utility.yul\":30589:30603   */\n      add\n        /* \"#utility.yul\":30582:30639   */\n      mstore\n        /* \"#utility.yul\":30465:30646   */\n      pop\n      jump\t// out\n        /* \"#utility.yul\":30652:30900   */\n    tag_496:\n        /* \"#utility.yul\":30792:30826   */\n      0x5175616e74697479206d757374206265206c657373207468616e206f72206571\n        /* \"#utility.yul\":30788:30789   */\n      0x00\n        /* \"#utility.yul\":30780:30786   */\n      dup3\n        /* \"#utility.yul\":30776:30790   */\n      add\n        /* \"#utility.yul\":30769:30827   */\n      mstore\n        /* \"#utility.yul\":30861:30892   */\n      0x75616c20746f2074686520617661696c61626c65207175616e74697479000000\n        /* \"#utility.yul\":30856:30858   */\n      0x20\n        /* \"#utility.yul\":30848:30854   */\n      dup3\n        /* \"#utility.yul\":30844:30859   */\n      add\n        /* \"#utility.yul\":30837:30893   */\n      mstore\n        /* \"#utility.yul\":30652:30900   */\n      pop\n      jump\t// out\n        /* \"#utility.yul\":30906:31088   */\n    tag_501:\n        /* \"#utility.yul\":31046:31080   */\n      0x537472696e67733a20686578206c656e67746820696e73756666696369656e74\n        /* \"#utility.yul\":31042:31043   */\n      0x00\n        /* \"#utility.yul\":31034:31040   */\n      dup3\n        /* \"#utility.yul\":31030:31044   */\n      add\n        /* \"#utility.yul\":31023:31081   */\n      mstore\n        /* \"#utility.yul\":30906:31088   */\n      pop\n      jump\t// out\n        /* \"#utility.yul\":31094:31264   */\n    tag_506:\n        /* \"#utility.yul\":31234:31256   */\n      0x507269636520646f6573206e6f74206d61746368000000000000000000000000\n        /* \"#utility.yul\":31230:31231   */\n      0x00\n        /* \"#utility.yul\":31222:31228   */\n      dup3\n        /* \"#utility.yul\":31218:31232   */\n      add\n        /* \"#utility.yul\":31211:31257   */\n      mstore\n        /* \"#utility.yul\":31094:31264   */\n      pop\n      jump\t// out\n        /* \"#utility.yul\":31270:31501   */\n    tag_511:\n        /* \"#utility.yul\":31410:31444   */\n      0x4f6e6c792070726f647563742073656c6c65722063616e206578656375746520\n        /* \"#utility.yul\":31406:31407   */\n      0x00\n        /* \"#utility.yul\":31398:31404   */\n      dup3\n        /* \"#utility.yul\":31394:31408   */\n      add\n        /* \"#utility.yul\":31387:31445   */\n      mstore\n        /* \"#utility.yul\":31479:31493   */\n      0x7468697320616374696f6e2e0000000000000000000000000000000000000000\n        /* \"#utility.yul\":31474:31476   */\n      0x20\n        /* \"#utility.yul\":31466:31472   */\n      dup3\n        /* \"#utility.yul\":31462:31477   */\n      add\n        /* \"#utility.yul\":31455:31494   */\n      mstore\n        /* \"#utility.yul\":31270:31501   */\n      pop\n      jump\t// out\n        /* \"#utility.yul\":31507:31682   */\n    tag_516:\n        /* \"#utility.yul\":31647:31674   */\n      0x4d61726b6574206974656d206973206e6f742061637469766500000000000000\n        /* \"#utility.yul\":31643:31644   */\n      0x00\n        /* \"#utility.yul\":31635:31641   */\n      dup3\n        /* \"#utility.yul\":31631:31645   */\n      add\n        /* \"#utility.yul\":31624:31675   */\n      mstore\n        /* \"#utility.yul\":31507:31682   */\n      pop\n      jump\t// out\n        /* \"#utility.yul\":31688:31908   */\n    tag_521:\n        /* \"#utility.yul\":31828:31862   */\n      0x596f752063616e6e6f7420766f746520666f7220746869732070726f64756374\n        /* \"#utility.yul\":31824:31825   */\n      0x00\n        /* \"#utility.yul\":31816:31822   */\n      dup3\n        /* \"#utility.yul\":31812:31826   */\n      add\n        /* \"#utility.yul\":31805:31863   */\n      mstore\n        /* \"#utility.yul\":31897:31900   */\n      0x2e00000000000000000000000000000000000000000000000000000000000000\n        /* \"#utility.yul\":31892:31894   */\n      0x20\n        /* \"#utility.yul\":31884:31890   */\n      dup3\n        /* \"#utility.yul\":31880:31895   */\n      add\n        /* \"#utility.yul\":31873:31901   */\n      mstore\n        /* \"#utility.yul\":31688:31908   */\n      pop\n      jump\t// out\n        /* \"#utility.yul\":31914:32086   */\n    tag_526:\n        /* \"#utility.yul\":32054:32078   */\n      0x4d61726b6574206974656d20697320626c6f636b656400000000000000000000\n        /* \"#utility.yul\":32050:32051   */\n      0x00\n        /* \"#utility.yul\":32042:32048   */\n      dup3\n        /* \"#utility.yul\":32038:32052   */\n      add\n        /* \"#utility.yul\":32031:32079   */\n      mstore\n        /* \"#utility.yul\":31914:32086   */\n      pop\n      jump\t// out\n        /* \"#utility.yul\":32092:32319   */\n    tag_531:\n        /* \"#utility.yul\":32232:32266   */\n      0x5374617273206d7573742062652067726561746572207468616e206f72206571\n        /* \"#utility.yul\":32228:32229   */\n      0x00\n        /* \"#utility.yul\":32220:32226   */\n      dup3\n        /* \"#utility.yul\":32216:32230   */\n      add\n        /* \"#utility.yul\":32209:32267   */\n      mstore\n        /* \"#utility.yul\":32301:32311   */\n      0x75616c20746f2031000000000000000000000000000000000000000000000000\n        /* \"#utility.yul\":32296:32298   */\n      0x20\n        /* \"#utility.yul\":32288:32294   */\n      dup3\n        /* \"#utility.yul\":32284:32299   */\n      add\n        /* \"#utility.yul\":32277:32312   */\n      mstore\n        /* \"#utility.yul\":32092:32319   */\n      pop\n      jump\t// out\n        /* \"#utility.yul\":32325:32497   */\n    tag_536:\n        /* \"#utility.yul\":32465:32489   */\n      0x5468652073656c6c65722063616e6e6f7420766f746500000000000000000000\n        /* \"#utility.yul\":32461:32462   */\n      0x00\n        /* \"#utility.yul\":32453:32459   */\n      dup3\n        /* \"#utility.yul\":32449:32463   */\n      add\n        /* \"#utility.yul\":32442:32490   */\n      mstore\n        /* \"#utility.yul\":32325:32497   */\n      pop\n      jump\t// out\n        /* \"#utility.yul\":32503:32727   */\n    tag_541:\n        /* \"#utility.yul\":32643:32677   */\n      0x5374617273206d757374206265206c657373207468616e206f7220657175616c\n        /* \"#utility.yul\":32639:32640   */\n      0x00\n        /* \"#utility.yul\":32631:32637   */\n      dup3\n        /* \"#utility.yul\":32627:32641   */\n      add\n        /* \"#utility.yul\":32620:32678   */\n      mstore\n        /* \"#utility.yul\":32712:32719   */\n      0x20746f2035000000000000000000000000000000000000000000000000000000\n        /* \"#utility.yul\":32707:32709   */\n      0x20\n        /* \"#utility.yul\":32699:32705   */\n      dup3\n        /* \"#utility.yul\":32695:32710   */\n      add\n        /* \"#utility.yul\":32688:32720   */\n      mstore\n        /* \"#utility.yul\":32503:32727   */\n      pop\n      jump\t// out\n        /* \"#utility.yul\":32733:32906   */\n    tag_546:\n        /* \"#utility.yul\":32873:32898   */\n      0x416363657373436f6e74726f6c3a206163636f756e7420000000000000000000\n        /* \"#utility.yul\":32869:32870   */\n      0x00\n        /* \"#utility.yul\":32861:32867   */\n      dup3\n        /* \"#utility.yul\":32857:32871   */\n      add\n        /* \"#utility.yul\":32850:32899   */\n      mstore\n        /* \"#utility.yul\":32733:32906   */\n      pop\n      jump\t// out\n        /* \"#utility.yul\":32912:33090   */\n    tag_551:\n        /* \"#utility.yul\":33052:33082   */\n      0x5072696365206d7573742062652067726561746572207468616e203000000000\n        /* \"#utility.yul\":33048:33049   */\n      0x00\n        /* \"#utility.yul\":33040:33046   */\n      dup3\n        /* \"#utility.yul\":33036:33050   */\n      add\n        /* \"#utility.yul\":33029:33083   */\n      mstore\n        /* \"#utility.yul\":32912:33090   */\n      pop\n      jump\t// out\n        /* \"#utility.yul\":33096:33263   */\n    tag_556:\n        /* \"#utility.yul\":33236:33255   */\n      0x206973206d697373696e6720726f6c6520000000000000000000000000000000\n        /* \"#utility.yul\":33232:33233   */\n      0x00\n        /* \"#utility.yul\":33224:33230   */\n      dup3\n        /* \"#utility.yul\":33220:33234   */\n      add\n        /* \"#utility.yul\":33213:33256   */\n      mstore\n        /* \"#utility.yul\":33096:33263   */\n      pop\n      jump\t// out\n        /* \"#utility.yul\":33269:33503   */\n    tag_561:\n        /* \"#utility.yul\":33409:33443   */\n      0x416363657373436f6e74726f6c3a2063616e206f6e6c792072656e6f756e6365\n        /* \"#utility.yul\":33405:33406   */\n      0x00\n        /* \"#utility.yul\":33397:33403   */\n      dup3\n        /* \"#utility.yul\":33393:33407   */\n      add\n        /* \"#utility.yul\":33386:33444   */\n      mstore\n        /* \"#utility.yul\":33478:33495   */\n      0x20726f6c657320666f722073656c660000000000000000000000000000000000\n        /* \"#utility.yul\":33473:33475   */\n      0x20\n        /* \"#utility.yul\":33465:33471   */\n      dup3\n        /* \"#utility.yul\":33461:33476   */\n      add\n        /* \"#utility.yul\":33454:33496   */\n      mstore\n        /* \"#utility.yul\":33269:33503   */\n      pop\n      jump\t// out\n        /* \"#utility.yul\":33509:33631   */\n    tag_363:\n        /* \"#utility.yul\":33582:33606   */\n      tag_729\n        /* \"#utility.yul\":33600:33605   */\n      dup2\n        /* \"#utility.yul\":33582:33606   */\n      tag_462\n      jump\t// in\n    tag_729:\n        /* \"#utility.yul\":33575:33580   */\n      dup2\n        /* \"#utility.yul\":33572:33607   */\n      eq\n        /* \"#utility.yul\":33562:33625   */\n      tag_730\n      jumpi\n        /* \"#utility.yul\":33621:33622   */\n      0x00\n        /* \"#utility.yul\":33618:33619   */\n      dup1\n        /* \"#utility.yul\":33611:33623   */\n      revert\n        /* \"#utility.yul\":33562:33625   */\n    tag_730:\n        /* \"#utility.yul\":33509:33631   */\n      pop\n      jump\t// out\n        /* \"#utility.yul\":33637:33753   */\n    tag_367:\n        /* \"#utility.yul\":33707:33728   */\n      tag_732\n        /* \"#utility.yul\":33722:33727   */\n      dup2\n        /* \"#utility.yul\":33707:33728   */\n      tag_466\n      jump\t// in\n    tag_732:\n        /* \"#utility.yul\":33700:33705   */\n      dup2\n        /* \"#utility.yul\":33697:33729   */\n      eq\n        /* \"#utility.yul\":33687:33747   */\n      tag_733\n      jumpi\n        /* \"#utility.yul\":33743:33744   */\n      0x00\n        /* \"#utility.yul\":33740:33741   */\n      dup1\n        /* \"#utility.yul\":33733:33745   */\n      revert\n        /* \"#utility.yul\":33687:33747   */\n    tag_733:\n        /* \"#utility.yul\":33637:33753   */\n      pop\n      jump\t// out\n        /* \"#utility.yul\":33759:33881   */\n    tag_371:\n        /* \"#utility.yul\":33832:33856   */\n      tag_735\n        /* \"#utility.yul\":33850:33855   */\n      dup2\n        /* \"#utility.yul\":33832:33856   */\n      tag_470\n      jump\t// in\n    tag_735:\n        /* \"#utility.yul\":33825:33830   */\n      dup2\n        /* \"#utility.yul\":33822:33857   */\n      eq\n        /* \"#utility.yul\":33812:33875   */\n      tag_736\n      jumpi\n        /* \"#utility.yul\":33871:33872   */\n      0x00\n        /* \"#utility.yul\":33868:33869   */\n      dup1\n        /* \"#utility.yul\":33861:33873   */\n      revert\n        /* \"#utility.yul\":33812:33875   */\n    tag_736:\n        /* \"#utility.yul\":33759:33881   */\n      pop\n      jump\t// out\n        /* \"#utility.yul\":33887:34007   */\n    tag_375:\n        /* \"#utility.yul\":33959:33982   */\n      tag_738\n        /* \"#utility.yul\":33976:33981   */\n      dup2\n        /* \"#utility.yul\":33959:33982   */\n      tag_667\n      jump\t// in\n    tag_738:\n        /* \"#utility.yul\":33952:33957   */\n      dup2\n        /* \"#utility.yul\":33949:33983   */\n      eq\n        /* \"#utility.yul\":33939:34001   */\n      tag_739\n      jumpi\n        /* \"#utility.yul\":33997:33998   */\n      0x00\n        /* \"#utility.yul\":33994:33995   */\n      dup1\n        /* \"#utility.yul\":33987:33999   */\n      revert\n        /* \"#utility.yul\":33939:34001   */\n    tag_739:\n        /* \"#utility.yul\":33887:34007   */\n      pop\n      jump\t// out\n        /* \"#utility.yul\":34013:34135   */\n    tag_385:\n        /* \"#utility.yul\":34086:34110   */\n      tag_741\n        /* \"#utility.yul\":34104:34109   */\n      dup2\n        /* \"#utility.yul\":34086:34110   */\n      tag_565\n      jump\t// in\n    tag_741:\n        /* \"#utility.yul\":34079:34084   */\n      dup2\n        /* \"#utility.yul\":34076:34111   */\n      eq\n        /* \"#utility.yul\":34066:34129   */\n      tag_742\n      jumpi\n        /* \"#utility.yul\":34125:34126   */\n      0x00\n        /* \"#utility.yul\":34122:34123   */\n      dup1\n        /* \"#utility.yul\":34115:34127   */\n      revert\n        /* \"#utility.yul\":34066:34129   */\n    tag_742:\n        /* \"#utility.yul\":34013:34135   */\n      pop\n      jump\t// out\n        /* \"#utility.yul\":34141:34259   */\n    tag_389:\n        /* \"#utility.yul\":34212:34234   */\n      tag_744\n        /* \"#utility.yul\":34228:34233   */\n      dup2\n        /* \"#utility.yul\":34212:34234   */\n      tag_569\n      jump\t// in\n    tag_744:\n        /* \"#utility.yul\":34205:34210   */\n      dup2\n        /* \"#utility.yul\":34202:34235   */\n      eq\n        /* \"#utility.yul\":34192:34253   */\n      tag_745\n      jumpi\n        /* \"#utility.yul\":34249:34250   */\n      0x00\n        /* \"#utility.yul\":34246:34247   */\n      dup1\n        /* \"#utility.yul\":34239:34251   */\n      revert\n        /* \"#utility.yul\":34192:34253   */\n    tag_745:\n        /* \"#utility.yul\":34141:34259   */\n      pop\n      jump\t// out\n\n    auxdata: 0xa264697066735822122087cc0784702ef51674587f291280c486322b2b2f6a12977a58b0097d2db2a81c64736f6c63430008070033\n}\n",
				"bytecode": {
					"linkReferences": {},
					"object": "608060405260006001553480156200001657600080fd5b50620000497f1f9ca85e780b3b3cfbe1334ca9dd68802db7860f692bd163c796bb76d464edc0336200004f60201b60201c565b620001b2565b6200006182826200014060201b60201c565b6200013c57600160008084815260200190815260200160002060000160008373ffffffffffffffffffffffffffffffffffffffff1673ffffffffffffffffffffffffffffffffffffffff16815260200190815260200160002060006101000a81548160ff021916908315150217905550620000e1620001aa60201b60201c565b73ffffffffffffffffffffffffffffffffffffffff168173ffffffffffffffffffffffffffffffffffffffff16837f2f8788117e7eff1d82e926ec794901d17c78024a50270940304540a733656f0d60405160405180910390a45b5050565b600080600084815260200190815260200160002060000160008373ffffffffffffffffffffffffffffffffffffffff1673ffffffffffffffffffffffffffffffffffffffff16815260200190815260200160002060009054906101000a900460ff16905092915050565b600033905090565b61335380620001c26000396000f3fe6080604052600436106101355760003560e01c806391d14854116100ab578063bf9c65541161006f578063bf9c65541461042b578063c7be7a4914610454578063d547741f14610494578063eca1e6a0146104bd578063f0d2d06d146104e6578063fec4d15d1461050f57610135565b806391d1485414610346578063a217fddf14610383578063a63c7020146103ae578063ae13a317146103d7578063b491efa01461040057610135565b806336568abe116100fd57806336568abe146102225780636a8689741461024b57806377247d91146102765780637735904f1461029f57806388d9e84c146102dc5780638f28afee1461031d57610135565b806301ffc9a71461013a5780630c3774fc146101775780631dfef0eb146101a0578063248a9ca3146101bc5780632f2ff15d146101f9575b600080fd5b34801561014657600080fd5b50610161600480360381019061015c9190612205565b61054c565b60405161016e91906127b6565b60405180910390f35b34801561018357600080fd5b5061019e6004803603810190610199919061245c565b6105c6565b005b6101ba60048036038101906101b5919061245c565b6107af565b005b3480156101c857600080fd5b506101e360048036038101906101de9190612198565b610b60565b6040516101f091906127d1565b60405180910390f35b34801561020557600080fd5b50610220600480360381019061021b91906121c5565b610b7f565b005b34801561022e57600080fd5b50610249600480360381019061024491906121c5565b610ba8565b005b34801561025757600080fd5b50610260610c2b565b60405161026d9190612a5b565b60405180910390f35b34801561028257600080fd5b5061029d60048036038101906102989190612232565b610c31565b005b3480156102ab57600080fd5b506102c660048036038101906102c19190612313565b610e42565b6040516102d39190612a5b565b60405180910390f35b3480156102e857600080fd5b5061030360048036038101906102fe9190612313565b610fda565b60405161031495949392919061285a565b60405180910390f35b34801561032957600080fd5b50610344600480360381019061033f91906123c0565b6112b9565b005b34801561035257600080fd5b5061036d600480360381019061036891906121c5565b6113a9565b60405161037a91906127b6565b60405180910390f35b34801561038f57600080fd5b50610398611413565b6040516103a591906127d1565b60405180910390f35b3480156103ba57600080fd5b506103d560048036038101906103d09190612380565b61141a565b005b3480156103e357600080fd5b506103fe60048036038101906103f9919061241c565b61149a565b005b34801561040c57600080fd5b5061041561157a565b60405161042291906127d1565b60405180910390f35b34801561043757600080fd5b50610452600480360381019061044d9190612380565b61159e565b005b34801561046057600080fd5b5061047b60048036038101906104769190612313565b611691565b60405161048b949392919061280e565b60405180910390f35b3480156104a057600080fd5b506104bb60048036038101906104b691906121c5565b6117bb565b005b3480156104c957600080fd5b506104e460048036038101906104df919061245c565b6117e4565b005b3480156104f257600080fd5b5061050d600480360381019061050891906123c0565b6118d8565b005b34801561051b57600080fd5b5061053660048036038101906105319190612340565b6119c8565b60405161054391906127b6565b60405180910390f35b60007f7965db0b000000000000000000000000000000000000000000000000000000007bffffffffffffffffffffffffffffffffffffffffffffffffffffffff1916827bffffffffffffffffffffffffffffffffffffffffffffffffffffffff191614806105bf57506105be82611a73565b5b9050919050565b6003600083815260200190815260200160002060040160009054906101000a900473ffffffffffffffffffffffffffffffffffffffff1673ffffffffffffffffffffffffffffffffffffffff163373ffffffffffffffffffffffffffffffffffffffff16141561066b576040517f08c379a0000000000000000000000000000000000000000000000000000000008152600401610662906129db565b60405180910390fd5b60058160ff1611156106b2576040517f08c379a00000000000000000000000000000000000000000000000000000000081526004016106a9906129fb565b60405180910390fd5b60018160ff1610156106f9576040517f08c379a00000000000000000000000000000000000000000000000000000000081526004016106f0906129bb565b60405180910390fd5b61070382336119c8565b610742576040517f08c379a00000000000000000000000000000000000000000000000000000000081526004016107399061297b565b60405180910390fd5b80600460003373ffffffffffffffffffffffffffffffffffffffff1673ffffffffffffffffffffffffffffffffffffffff168152602001908152602001600020600084815260200190815260200160002060006101000a81548160ff021916908360ff1602179055505050565b81816003600083815260200190815260200160002060090160009054906101000a900460ff16610814576040517f08c379a000000000000000000000000000000000000000000000000000000000815260040161080b9061295b565b60405180910390fd5b6003600083815260200190815260200160002060090160019054906101000a900460ff1615610878576040517f08c379a000000000000000000000000000000000000000000000000000000000815260040161086f9061299b565b60405180910390fd5b60008160ff16116108be576040517f08c379a00000000000000000000000000000000000000000000000000000000081526004016108b5906128bb565b60405180910390fd5b6003600083815260200190815260200160002060060160009054906101000a900460ff1660ff168160ff16111561092a576040517f08c379a0000000000000000000000000000000000000000000000000000000008152600401610921906128db565b60405180910390fd5b60008160ff1660036000858152602001908152602001600020600301546109519190612bbf565b9050348114610995576040517f08c379a000000000000000000000000000000000000000000000000000000000815260040161098c9061291b565b60405180910390fd5b6003600086815260200190815260200160002060040160009054906101000a900473ffffffffffffffffffffffffffffffffffffffff1673ffffffffffffffffffffffffffffffffffffffff166108fc349081150290604051600060405180830381858888f19350505050158015610a11573d6000803e3d6000fd5b50836003600087815260200190815260200160002060060160008282829054906101000a900460ff16610a449190612c19565b92506101000a81548160ff021916908360ff16021790555060026000868152602001908152602001600020339080600181540180825580915050600190039060005260206000200160009091909190916101000a81548173ffffffffffffffffffffffffffffffffffffffff021916908373ffffffffffffffffffffffffffffffffffffffff1602179055507ff2f622c4ee3232d0d08c3870751d38ddef2eaf0e7e0c5d38239c7dc8921ca6808560036000888152602001908152602001600020600301546003600089815260200190815260200160002060040160009054906101000a900473ffffffffffffffffffffffffffffffffffffffff1633604051610b519493929190612a76565b60405180910390a15050505050565b6000806000838152602001908152602001600020600101549050919050565b610b8882610b60565b610b9981610b94611add565b611ae5565b610ba38383611b82565b505050565b610bb0611add565b73ffffffffffffffffffffffffffffffffffffffff168173ffffffffffffffffffffffffffffffffffffffff1614610c1d576040517f08c379a0000000000000000000000000000000000000000000000000000000008152600401610c1490612a3b565b60405180910390fd5b610c278282611c62565b5050565b60015481565b60008411610c74576040517f08c379a0000000000000000000000000000000000000000000000000000000008152600401610c6b90612a1b565b60405180910390fd5b60405180610160016040528060015481526020018781526020018681526020018581526020013373ffffffffffffffffffffffffffffffffffffffff1681526020018481526020018360ff168152602001428152602001428152602001821515815260200160001515815250600360006001548152602001908152602001600020600082015181600001556020820151816001019080519060200190610d1b929190612007565b506040820151816002019080519060200190610d38929190612007565b506060820151816003015560808201518160040160006101000a81548173ffffffffffffffffffffffffffffffffffffffff021916908373ffffffffffffffffffffffffffffffffffffffff16021790555060a0820151816005019080519060200190610da6929190612007565b5060c08201518160060160006101000a81548160ff021916908360ff16021790555060e0820151816007015561010082015181600801556101208201518160090160006101000a81548160ff0219169083151502179055506101408201518160090160016101000a81548160ff02191690831515021790555090505060016000815480929190610e3590612def565b9190505550505050505050565b600080600090506000805b6002600086815260200190815260200160002080549050811015610fb8576000600260008781526020019081526020016000208281548110610e9257610e91612ec5565b5b9060005260206000200160009054906101000a900473ffffffffffffffffffffffffffffffffffffffff1690506000600460008373ffffffffffffffffffffffffffffffffffffffff1673ffffffffffffffffffffffffffffffffffffffff168152602001908152602001600020600088815260200190815260200160002060009054906101000a900460ff1660ff1614610fa457600460008273ffffffffffffffffffffffffffffffffffffffff1673ffffffffffffffffffffffffffffffffffffffff168152602001908152602001600020600087815260200190815260200160002060009054906101000a900460ff1660ff1684610f939190612b38565b93508280610fa090612def565b9350505b508080610fb090612def565b915050610e4d565b5080606483610fc79190612bbf565b610fd19190612b8e565b92505050919050565b60608060008060008060036000888152602001908152602001600020604051806101600160405290816000820154815260200160018201805461101c90612d8c565b80601f016020809104026020016040519081016040528092919081815260200182805461104890612d8c565b80156110955780601f1061106a57610100808354040283529160200191611095565b820191906000526020600020905b81548152906001019060200180831161107857829003601f168201915b505050505081526020016002820180546110ae90612d8c565b80601f01602080910402602001604051908101604052809291908181526020018280546110da90612d8c565b80156111275780601f106110fc57610100808354040283529160200191611127565b820191906000526020600020905b81548152906001019060200180831161110a57829003601f168201915b50505050508152602001600382015481526020016004820160009054906101000a900473ffffffffffffffffffffffffffffffffffffffff1673ffffffffffffffffffffffffffffffffffffffff1673ffffffffffffffffffffffffffffffffffffffff1681526020016005820180546111a090612d8c565b80601f01602080910402602001604051908101604052809291908181526020018280546111cc90612d8c565b80156112195780601f106111ee57610100808354040283529160200191611219565b820191906000526020600020905b8154815290600101906020018083116111fc57829003601f168201915b505050505081526020016006820160009054906101000a900460ff1660ff1660ff16815260200160078201548152602001600882015481526020016009820160009054906101000a900460ff161515151581526020016009820160019054906101000a900460ff161515151581525050905080604001518160a001518260c001518360e00151846101000151955095509550955095505091939590929450565b816003600082815260200190815260200160002060040160009054906101000a900473ffffffffffffffffffffffffffffffffffffffff1673ffffffffffffffffffffffffffffffffffffffff163373ffffffffffffffffffffffffffffffffffffffff161461135e576040517f08c379a00000000000000000000000000000000000000000000000000000000081526004016113559061293b565b60405180910390fd5b81600360008581526020019081526020016000206002019080519060200190611388929190612007565b50426003600085815260200190815260200160002060080181905550505050565b600080600084815260200190815260200160002060000160008373ffffffffffffffffffffffffffffffffffffffff1673ffffffffffffffffffffffffffffffffffffffff16815260200190815260200160002060009054906101000a900460ff16905092915050565b6000801b81565b7f1f9ca85e780b3b3cfbe1334ca9dd68802db7860f692bd163c796bb76d464edc061144c81611447611add565b611ae5565b816003600085815260200190815260200160002060090160016101000a81548160ff021916908315150217905550426003600085815260200190815260200160002060080181905550505050565b816003600082815260200190815260200160002060040160009054906101000a900473ffffffffffffffffffffffffffffffffffffffff1673ffffffffffffffffffffffffffffffffffffffff163373ffffffffffffffffffffffffffffffffffffffff161461153f576040517f08c379a00000000000000000000000000000000000000000000000000000000081526004016115369061293b565b60405180910390fd5b816003600085815260200190815260200160002060030181905550426003600085815260200190815260200160002060080181905550505050565b7f1f9ca85e780b3b3cfbe1334ca9dd68802db7860f692bd163c796bb76d464edc081565b816003600082815260200190815260200160002060040160009054906101000a900473ffffffffffffffffffffffffffffffffffffffff1673ffffffffffffffffffffffffffffffffffffffff163373ffffffffffffffffffffffffffffffffffffffff1614611643576040517f08c379a000000000000000000000000000000000000000000000000000000000815260040161163a9061293b565b60405180910390fd5b816003600085815260200190815260200160002060090160006101000a81548160ff021916908315150217905550426003600085815260200190815260200160002060080181905550505050565b60606000806000600360008681526020019081526020016000206001016003600087815260200190815260200160002060040160009054906101000a900473ffffffffffffffffffffffffffffffffffffffff1660036000888152602001908152602001600020600301546003600089815260200190815260200160002060090160009054906101000a900460ff1683805461172c90612d8c565b80601f016020809104026020016040519081016040528092919081815260200182805461175890612d8c565b80156117a55780601f1061177a576101008083540402835291602001916117a5565b820191906000526020600020905b81548152906001019060200180831161178857829003601f168201915b5050505050935093509350935093509193509193565b6117c482610b60565b6117d5816117d0611add565b611ae5565b6117df8383611c62565b505050565b816003600082815260200190815260200160002060040160009054906101000a900473ffffffffffffffffffffffffffffffffffffffff1673ffffffffffffffffffffffffffffffffffffffff163373ffffffffffffffffffffffffffffffffffffffff1614611889576040517f08c379a00000000000000000000000000000000000000000000000000000000081526004016118809061293b565b60405180910390fd5b816003600085815260200190815260200160002060060160006101000a81548160ff021916908360ff160217905550426003600085815260200190815260200160002060080181905550505050565b816003600082815260200190815260200160002060040160009054906101000a900473ffffffffffffffffffffffffffffffffffffffff1673ffffffffffffffffffffffffffffffffffffffff163373ffffffffffffffffffffffffffffffffffffffff161461197d576040517f08c379a00000000000000000000000000000000000000000000000000000000081526004016119749061293b565b60405180910390fd5b816003600085815260200190815260200160002060050190805190602001906119a7929190612007565b50426003600085815260200190815260200160002060080181905550505050565b6000611a6b60026000858152602001908152602001600020805480602002602001604051908101604052809291908181526020018280548015611a6057602002820191906000526020600020905b8160009054906101000a900473ffffffffffffffffffffffffffffffffffffffff1673ffffffffffffffffffffffffffffffffffffffff1681526020019060010190808311611a16575b505050505083611d43565b905092915050565b60007f01ffc9a7000000000000000000000000000000000000000000000000000000007bffffffffffffffffffffffffffffffffffffffffffffffffffffffff1916827bffffffffffffffffffffffffffffffffffffffffffffffffffffffff1916149050919050565b600033905090565b611aef82826113a9565b611b7e57611b148173ffffffffffffffffffffffffffffffffffffffff166014611dcb565b611b228360001c6020611dcb565b604051602001611b3392919061277c565b6040516020818303038152906040526040517f08c379a0000000000000000000000000000000000000000000000000000000008152600401611b7591906127ec565b60405180910390fd5b5050565b611b8c82826113a9565b611c5e57600160008084815260200190815260200160002060000160008373ffffffffffffffffffffffffffffffffffffffff1673ffffffffffffffffffffffffffffffffffffffff16815260200190815260200160002060006101000a81548160ff021916908315150217905550611c03611add565b73ffffffffffffffffffffffffffffffffffffffff168173ffffffffffffffffffffffffffffffffffffffff16837f2f8788117e7eff1d82e926ec794901d17c78024a50270940304540a733656f0d60405160405180910390a45b5050565b611c6c82826113a9565b15611d3f57600080600084815260200190815260200160002060000160008373ffffffffffffffffffffffffffffffffffffffff1673ffffffffffffffffffffffffffffffffffffffff16815260200190815260200160002060006101000a81548160ff021916908315150217905550611ce4611add565b73ffffffffffffffffffffffffffffffffffffffff168173ffffffffffffffffffffffffffffffffffffffff16837ff6391f5c32d9c69d2a47ea670b442974b53935d1edc7fd64eb21e047a839171b60405160405180910390a45b5050565b600080600090505b8351811015611dbf578273ffffffffffffffffffffffffffffffffffffffff16848281518110611d7e57611d7d612ec5565b5b602002602001015173ffffffffffffffffffffffffffffffffffffffff161415611dac576001915050611dc5565b8080611db790612def565b915050611d4b565b50600090505b92915050565b606060006002836002611dde9190612bbf565b611de89190612b38565b67ffffffffffffffff811115611e0157611e00612ef4565b5b6040519080825280601f01601f191660200182016040528015611e335781602001600182028036833780820191505090505b5090507f300000000000000000000000000000000000000000000000000000000000000081600081518110611e6b57611e6a612ec5565b5b60200101907effffffffffffffffffffffffffffffffffffffffffffffffffffffffffffff1916908160001a9053507f780000000000000000000000000000000000000000000000000000000000000081600181518110611ecf57611ece612ec5565b5b60200101907effffffffffffffffffffffffffffffffffffffffffffffffffffffffffffff1916908160001a90535060006001846002611f0f9190612bbf565b611f199190612b38565b90505b6001811115611fb9577f3031323334353637383961626364656600000000000000000000000000000000600f861660108110611f5b57611f5a612ec5565b5b1a60f81b828281518110611f7257611f71612ec5565b5b60200101907effffffffffffffffffffffffffffffffffffffffffffffffffffffffffffff1916908160001a905350600485901c945080611fb290612d62565b9050611f1c565b5060008414611ffd576040517f08c379a0000000000000000000000000000000000000000000000000000000008152600401611ff4906128fb565b60405180910390fd5b8091505092915050565b82805461201390612d8c565b90600052602060002090601f016020900481019282612035576000855561207c565b82601f1061204e57805160ff191683800117855561207c565b8280016001018555821561207c579182015b8281111561207b578251825591602001919060010190612060565b5b509050612089919061208d565b5090565b5b808211156120a657600081600090555060010161208e565b5090565b60006120bd6120b884612ae0565b612abb565b9050828152602081018484840111156120d9576120d8612f28565b5b6120e4848285612d20565b509392505050565b6000813590506120fb81613293565b92915050565b600081359050612110816132aa565b92915050565b600081359050612125816132c1565b92915050565b60008135905061213a816132d8565b92915050565b600082601f83011261215557612154612f23565b5b81356121658482602086016120aa565b91505092915050565b60008135905061217d816132ef565b92915050565b60008135905061219281613306565b92915050565b6000602082840312156121ae576121ad612f32565b5b60006121bc84828501612116565b91505092915050565b600080604083850312156121dc576121db612f32565b5b60006121ea85828601612116565b92505060206121fb858286016120ec565b9150509250929050565b60006020828403121561221b5761221a612f32565b5b60006122298482850161212b565b91505092915050565b60008060008060008060c0878903121561224f5761224e612f32565b5b600087013567ffffffffffffffff81111561226d5761226c612f2d565b5b61227989828a01612140565b965050602087013567ffffffffffffffff81111561229a57612299612f2d565b5b6122a689828a01612140565b95505060406122b789828a0161216e565b945050606087013567ffffffffffffffff8111156122d8576122d7612f2d565b5b6122e489828a01612140565b93505060806122f589828a01612183565b92505060a061230689828a01612101565b9150509295509295509295565b60006020828403121561232957612328612f32565b5b60006123378482850161216e565b91505092915050565b6000806040838503121561235757612356612f32565b5b60006123658582860161216e565b9250506020612376858286016120ec565b9150509250929050565b6000806040838503121561239757612396612f32565b5b60006123a58582860161216e565b92505060206123b685828601612101565b9150509250929050565b600080604083850312156123d7576123d6612f32565b5b60006123e58582860161216e565b925050602083013567ffffffffffffffff81111561240657612405612f2d565b5b61241285828601612140565b9150509250929050565b6000806040838503121561243357612432612f32565b5b60006124418582860161216e565b92505060206124528582860161216e565b9150509250929050565b6000806040838503121561247357612472612f32565b5b60006124818582860161216e565b925050602061249285828601612183565b9150509250929050565b6124a581612cea565b82525050565b6124b481612c5f565b82525050565b6124c381612c4d565b82525050565b6124d281612c71565b82525050565b6124e181612c7d565b82525050565b60006124f282612b11565b6124fc8185612b1c565b935061250c818560208601612d2f565b61251581612f37565b840191505092915050565b600061252b82612b11565b6125358185612b2d565b9350612545818560208601612d2f565b80840191505092915050565b600061255e601f83612b1c565b915061256982612f48565b602082019050919050565b6000612581603d83612b1c565b915061258c82612f71565b604082019050919050565b60006125a4602083612b1c565b91506125af82612fc0565b602082019050919050565b60006125c7601483612b1c565b91506125d282612fe9565b602082019050919050565b60006125ea602c83612b1c565b91506125f582613012565b604082019050919050565b600061260d601983612b1c565b915061261882613061565b602082019050919050565b6000612630602183612b1c565b915061263b8261308a565b604082019050919050565b6000612653601683612b1c565b915061265e826130d9565b602082019050919050565b6000612676602883612b1c565b915061268182613102565b604082019050919050565b6000612699601683612b1c565b91506126a482613151565b602082019050919050565b60006126bc602583612b1c565b91506126c78261317a565b604082019050919050565b60006126df601783612b2d565b91506126ea826131c9565b601782019050919050565b6000612702601c83612b1c565b915061270d826131f2565b602082019050919050565b6000612725601183612b2d565b91506127308261321b565b601182019050919050565b6000612748602f83612b1c565b915061275382613244565b604082019050919050565b61276781612cd3565b82525050565b61277681612cdd565b82525050565b6000612787826126d2565b91506127938285612520565b915061279e82612718565b91506127aa8284612520565b91508190509392505050565b60006020820190506127cb60008301846124c9565b92915050565b60006020820190506127e660008301846124d8565b92915050565b6000602082019050818103600083015261280681846124e7565b905092915050565b6000608082019050818103600083015261282881876124e7565b905061283760208301866124ab565b612844604083018561275e565b61285160608301846124c9565b95945050505050565b600060a082019050818103600083015261287481886124e7565b9050818103602083015261288881876124e7565b9050612897604083018661276d565b6128a4606083018561275e565b6128b1608083018461275e565b9695505050505050565b600060208201905081810360008301526128d481612551565b9050919050565b600060208201905081810360008301526128f481612574565b9050919050565b6000602082019050818103600083015261291481612597565b9050919050565b60006020820190508181036000830152612934816125ba565b9050919050565b60006020820190508181036000830152612954816125dd565b9050919050565b6000602082019050818103600083015261297481612600565b9050919050565b6000602082019050818103600083015261299481612623565b9050919050565b600060208201905081810360008301526129b481612646565b9050919050565b600060208201905081810360008301526129d481612669565b9050919050565b600060208201905081810360008301526129f48161268c565b9050919050565b60006020820190508181036000830152612a14816126af565b9050919050565b60006020820190508181036000830152612a34816126f5565b9050919050565b60006020820190508181036000830152612a548161273b565b9050919050565b6000602082019050612a70600083018461275e565b92915050565b6000608082019050612a8b600083018761275e565b612a98602083018661275e565b612aa5604083018561249c565b612ab260608301846124ba565b95945050505050565b6000612ac5612ad6565b9050612ad18282612dbe565b919050565b6000604051905090565b600067ffffffffffffffff821115612afb57612afa612ef4565b5b612b0482612f37565b9050602081019050919050565b600081519050919050565b600082825260208201905092915050565b600081905092915050565b6000612b4382612cd3565b9150612b4e83612cd3565b9250827fffffffffffffffffffffffffffffffffffffffffffffffffffffffffffffffff03821115612b8357612b82612e38565b5b828201905092915050565b6000612b9982612cd3565b9150612ba483612cd3565b925082612bb457612bb3612e67565b5b828204905092915050565b6000612bca82612cd3565b9150612bd583612cd3565b9250817fffffffffffffffffffffffffffffffffffffffffffffffffffffffffffffffff0483118215151615612c0e57612c0d612e38565b5b828202905092915050565b6000612c2482612cdd565b9150612c2f83612cdd565b925082821015612c4257612c41612e38565b5b828203905092915050565b6000612c5882612cb3565b9050919050565b6000612c6a82612cb3565b9050919050565b60008115159050919050565b6000819050919050565b60007fffffffff0000000000000000000000000000000000000000000000000000000082169050919050565b600073ffffffffffffffffffffffffffffffffffffffff82169050919050565b6000819050919050565b600060ff82169050919050565b6000612cf582612cfc565b9050919050565b6000612d0782612d0e565b9050919050565b6000612d1982612cb3565b9050919050565b82818337600083830152505050565b60005b83811015612d4d578082015181840152602081019050612d32565b83811115612d5c576000848401525b50505050565b6000612d6d82612cd3565b91506000821415612d8157612d80612e38565b5b600182039050919050565b60006002820490506001821680612da457607f821691505b60208210811415612db857612db7612e96565b5b50919050565b612dc782612f37565b810181811067ffffffffffffffff82111715612de657612de5612ef4565b5b80604052505050565b6000612dfa82612cd3565b91507fffffffffffffffffffffffffffffffffffffffffffffffffffffffffffffffff821415612e2d57612e2c612e38565b5b600182019050919050565b7f4e487b7100000000000000000000000000000000000000000000000000000000600052601160045260246000fd5b7f4e487b7100000000000000000000000000000000000000000000000000000000600052601260045260246000fd5b7f4e487b7100000000000000000000000000000000000000000000000000000000600052602260045260246000fd5b7f4e487b7100000000000000000000000000000000000000000000000000000000600052603260045260246000fd5b7f4e487b7100000000000000000000000000000000000000000000000000000000600052604160045260246000fd5b600080fd5b600080fd5b600080fd5b600080fd5b6000601f19601f8301169050919050565b7f5175616e74697479206d7573742062652067726561746572207468616e203000600082015250565b7f5175616e74697479206d757374206265206c657373207468616e206f7220657160008201527f75616c20746f2074686520617661696c61626c65207175616e74697479000000602082015250565b7f537472696e67733a20686578206c656e67746820696e73756666696369656e74600082015250565b7f507269636520646f6573206e6f74206d61746368000000000000000000000000600082015250565b7f4f6e6c792070726f647563742073656c6c65722063616e20657865637574652060008201527f7468697320616374696f6e2e0000000000000000000000000000000000000000602082015250565b7f4d61726b6574206974656d206973206e6f742061637469766500000000000000600082015250565b7f596f752063616e6e6f7420766f746520666f7220746869732070726f6475637460008201527f2e00000000000000000000000000000000000000000000000000000000000000602082015250565b7f4d61726b6574206974656d20697320626c6f636b656400000000000000000000600082015250565b7f5374617273206d7573742062652067726561746572207468616e206f7220657160008201527f75616c20746f2031000000000000000000000000000000000000000000000000602082015250565b7f5468652073656c6c65722063616e6e6f7420766f746500000000000000000000600082015250565b7f5374617273206d757374206265206c657373207468616e206f7220657175616c60008201527f20746f2035000000000000000000000000000000000000000000000000000000602082015250565b7f416363657373436f6e74726f6c3a206163636f756e7420000000000000000000600082015250565b7f5072696365206d7573742062652067726561746572207468616e203000000000600082015250565b7f206973206d697373696e6720726f6c6520000000000000000000000000000000600082015250565b7f416363657373436f6e74726f6c3a2063616e206f6e6c792072656e6f756e636560008201527f20726f6c657320666f722073656c660000000000000000000000000000000000602082015250565b61329c81612c4d565b81146132a757600080fd5b50565b6132b381612c71565b81146132be57600080fd5b50565b6132ca81612c7d565b81146132d557600080fd5b50565b6132e181612c87565b81146132ec57600080fd5b50565b6132f881612cd3565b811461330357600080fd5b50565b61330f81612cdd565b811461331a57600080fd5b5056fea264697066735822122087cc0784702ef51674587f291280c486322b2b2f6a12977a58b0097d2db2a81c64736f6c63430008070033",
					"opcodes": "PUSH1 0x80 PUSH1 0x40 MSTORE PUSH1 0x0 PUSH1 0x1 SSTORE CALLVALUE DUP1 ISZERO PUSH3 0x16 JUMPI PUSH1 0x0 DUP1 REVERT JUMPDEST POP PUSH3 0x49 PUSH32 0x1F9CA85E780B3B3CFBE1334CA9DD68802DB7860F692BD163C796BB76D464EDC0 CALLER PUSH3 0x4F PUSH1 0x20 SHL PUSH1 0x20 SHR JUMP JUMPDEST PUSH3 0x1B2 JUMP JUMPDEST PUSH3 0x61 DUP3 DUP3 PUSH3 0x140 PUSH1 0x20 SHL PUSH1 0x20 SHR JUMP JUMPDEST PUSH3 0x13C JUMPI PUSH1 0x1 PUSH1 0x0 DUP1 DUP5 DUP2 MSTORE PUSH1 0x20 ADD SWAP1 DUP2 MSTORE PUSH1 0x20 ADD PUSH1 0x0 KECCAK256 PUSH1 0x0 ADD PUSH1 0x0 DUP4 PUSH20 0xFFFFFFFFFFFFFFFFFFFFFFFFFFFFFFFFFFFFFFFF AND PUSH20 0xFFFFFFFFFFFFFFFFFFFFFFFFFFFFFFFFFFFFFFFF AND DUP2 MSTORE PUSH1 0x20 ADD SWAP1 DUP2 MSTORE PUSH1 0x20 ADD PUSH1 0x0 KECCAK256 PUSH1 0x0 PUSH2 0x100 EXP DUP2 SLOAD DUP2 PUSH1 0xFF MUL NOT AND SWAP1 DUP4 ISZERO ISZERO MUL OR SWAP1 SSTORE POP PUSH3 0xE1 PUSH3 0x1AA PUSH1 0x20 SHL PUSH1 0x20 SHR JUMP JUMPDEST PUSH20 0xFFFFFFFFFFFFFFFFFFFFFFFFFFFFFFFFFFFFFFFF AND DUP2 PUSH20 0xFFFFFFFFFFFFFFFFFFFFFFFFFFFFFFFFFFFFFFFF AND DUP4 PUSH32 0x2F8788117E7EFF1D82E926EC794901D17C78024A50270940304540A733656F0D PUSH1 0x40 MLOAD PUSH1 0x40 MLOAD DUP1 SWAP2 SUB SWAP1 LOG4 JUMPDEST POP POP JUMP JUMPDEST PUSH1 0x0 DUP1 PUSH1 0x0 DUP5 DUP2 MSTORE PUSH1 0x20 ADD SWAP1 DUP2 MSTORE PUSH1 0x20 ADD PUSH1 0x0 KECCAK256 PUSH1 0x0 ADD PUSH1 0x0 DUP4 PUSH20 0xFFFFFFFFFFFFFFFFFFFFFFFFFFFFFFFFFFFFFFFF AND PUSH20 0xFFFFFFFFFFFFFFFFFFFFFFFFFFFFFFFFFFFFFFFF AND DUP2 MSTORE PUSH1 0x20 ADD SWAP1 DUP2 MSTORE PUSH1 0x20 ADD PUSH1 0x0 KECCAK256 PUSH1 0x0 SWAP1 SLOAD SWAP1 PUSH2 0x100 EXP SWAP1 DIV PUSH1 0xFF AND SWAP1 POP SWAP3 SWAP2 POP POP JUMP JUMPDEST PUSH1 0x0 CALLER SWAP1 POP SWAP1 JUMP JUMPDEST PUSH2 0x3353 DUP1 PUSH3 0x1C2 PUSH1 0x0 CODECOPY PUSH1 0x0 RETURN INVALID PUSH1 0x80 PUSH1 0x40 MSTORE PUSH1 0x4 CALLDATASIZE LT PUSH2 0x135 JUMPI PUSH1 0x0 CALLDATALOAD PUSH1 0xE0 SHR DUP1 PUSH4 0x91D14854 GT PUSH2 0xAB JUMPI DUP1 PUSH4 0xBF9C6554 GT PUSH2 0x6F JUMPI DUP1 PUSH4 0xBF9C6554 EQ PUSH2 0x42B JUMPI DUP1 PUSH4 0xC7BE7A49 EQ PUSH2 0x454 JUMPI DUP1 PUSH4 0xD547741F EQ PUSH2 0x494 JUMPI DUP1 PUSH4 0xECA1E6A0 EQ PUSH2 0x4BD JUMPI DUP1 PUSH4 0xF0D2D06D EQ PUSH2 0x4E6 JUMPI DUP1 PUSH4 0xFEC4D15D EQ PUSH2 0x50F JUMPI PUSH2 0x135 JUMP JUMPDEST DUP1 PUSH4 0x91D14854 EQ PUSH2 0x346 JUMPI DUP1 PUSH4 0xA217FDDF EQ PUSH2 0x383 JUMPI DUP1 PUSH4 0xA63C7020 EQ PUSH2 0x3AE JUMPI DUP1 PUSH4 0xAE13A317 EQ PUSH2 0x3D7 JUMPI DUP1 PUSH4 0xB491EFA0 EQ PUSH2 0x400 JUMPI PUSH2 0x135 JUMP JUMPDEST DUP1 PUSH4 0x36568ABE GT PUSH2 0xFD JUMPI DUP1 PUSH4 0x36568ABE EQ PUSH2 0x222 JUMPI DUP1 PUSH4 0x6A868974 EQ PUSH2 0x24B JUMPI DUP1 PUSH4 0x77247D91 EQ PUSH2 0x276 JUMPI DUP1 PUSH4 0x7735904F EQ PUSH2 0x29F JUMPI DUP1 PUSH4 0x88D9E84C EQ PUSH2 0x2DC JUMPI DUP1 PUSH4 0x8F28AFEE EQ PUSH2 0x31D JUMPI PUSH2 0x135 JUMP JUMPDEST DUP1 PUSH4 0x1FFC9A7 EQ PUSH2 0x13A JUMPI DUP1 PUSH4 0xC3774FC EQ PUSH2 0x177 JUMPI DUP1 PUSH4 0x1DFEF0EB EQ PUSH2 0x1A0 JUMPI DUP1 PUSH4 0x248A9CA3 EQ PUSH2 0x1BC JUMPI DUP1 PUSH4 0x2F2FF15D EQ PUSH2 0x1F9 JUMPI JUMPDEST PUSH1 0x0 DUP1 REVERT JUMPDEST CALLVALUE DUP1 ISZERO PUSH2 0x146 JUMPI PUSH1 0x0 DUP1 REVERT JUMPDEST POP PUSH2 0x161 PUSH1 0x4 DUP1 CALLDATASIZE SUB DUP2 ADD SWAP1 PUSH2 0x15C SWAP2 SWAP1 PUSH2 0x2205 JUMP JUMPDEST PUSH2 0x54C JUMP JUMPDEST PUSH1 0x40 MLOAD PUSH2 0x16E SWAP2 SWAP1 PUSH2 0x27B6 JUMP JUMPDEST PUSH1 0x40 MLOAD DUP1 SWAP2 SUB SWAP1 RETURN JUMPDEST CALLVALUE DUP1 ISZERO PUSH2 0x183 JUMPI PUSH1 0x0 DUP1 REVERT JUMPDEST POP PUSH2 0x19E PUSH1 0x4 DUP1 CALLDATASIZE SUB DUP2 ADD SWAP1 PUSH2 0x199 SWAP2 SWAP1 PUSH2 0x245C JUMP JUMPDEST PUSH2 0x5C6 JUMP JUMPDEST STOP JUMPDEST PUSH2 0x1BA PUSH1 0x4 DUP1 CALLDATASIZE SUB DUP2 ADD SWAP1 PUSH2 0x1B5 SWAP2 SWAP1 PUSH2 0x245C JUMP JUMPDEST PUSH2 0x7AF JUMP JUMPDEST STOP JUMPDEST CALLVALUE DUP1 ISZERO PUSH2 0x1C8 JUMPI PUSH1 0x0 DUP1 REVERT JUMPDEST POP PUSH2 0x1E3 PUSH1 0x4 DUP1 CALLDATASIZE SUB DUP2 ADD SWAP1 PUSH2 0x1DE SWAP2 SWAP1 PUSH2 0x2198 JUMP JUMPDEST PUSH2 0xB60 JUMP JUMPDEST PUSH1 0x40 MLOAD PUSH2 0x1F0 SWAP2 SWAP1 PUSH2 0x27D1 JUMP JUMPDEST PUSH1 0x40 MLOAD DUP1 SWAP2 SUB SWAP1 RETURN JUMPDEST CALLVALUE DUP1 ISZERO PUSH2 0x205 JUMPI PUSH1 0x0 DUP1 REVERT JUMPDEST POP PUSH2 0x220 PUSH1 0x4 DUP1 CALLDATASIZE SUB DUP2 ADD SWAP1 PUSH2 0x21B SWAP2 SWAP1 PUSH2 0x21C5 JUMP JUMPDEST PUSH2 0xB7F JUMP JUMPDEST STOP JUMPDEST CALLVALUE DUP1 ISZERO PUSH2 0x22E JUMPI PUSH1 0x0 DUP1 REVERT JUMPDEST POP PUSH2 0x249 PUSH1 0x4 DUP1 CALLDATASIZE SUB DUP2 ADD SWAP1 PUSH2 0x244 SWAP2 SWAP1 PUSH2 0x21C5 JUMP JUMPDEST PUSH2 0xBA8 JUMP JUMPDEST STOP JUMPDEST CALLVALUE DUP1 ISZERO PUSH2 0x257 JUMPI PUSH1 0x0 DUP1 REVERT JUMPDEST POP PUSH2 0x260 PUSH2 0xC2B JUMP JUMPDEST PUSH1 0x40 MLOAD PUSH2 0x26D SWAP2 SWAP1 PUSH2 0x2A5B JUMP JUMPDEST PUSH1 0x40 MLOAD DUP1 SWAP2 SUB SWAP1 RETURN JUMPDEST CALLVALUE DUP1 ISZERO PUSH2 0x282 JUMPI PUSH1 0x0 DUP1 REVERT JUMPDEST POP PUSH2 0x29D PUSH1 0x4 DUP1 CALLDATASIZE SUB DUP2 ADD SWAP1 PUSH2 0x298 SWAP2 SWAP1 PUSH2 0x2232 JUMP JUMPDEST PUSH2 0xC31 JUMP JUMPDEST STOP JUMPDEST CALLVALUE DUP1 ISZERO PUSH2 0x2AB JUMPI PUSH1 0x0 DUP1 REVERT JUMPDEST POP PUSH2 0x2C6 PUSH1 0x4 DUP1 CALLDATASIZE SUB DUP2 ADD SWAP1 PUSH2 0x2C1 SWAP2 SWAP1 PUSH2 0x2313 JUMP JUMPDEST PUSH2 0xE42 JUMP JUMPDEST PUSH1 0x40 MLOAD PUSH2 0x2D3 SWAP2 SWAP1 PUSH2 0x2A5B JUMP JUMPDEST PUSH1 0x40 MLOAD DUP1 SWAP2 SUB SWAP1 RETURN JUMPDEST CALLVALUE DUP1 ISZERO PUSH2 0x2E8 JUMPI PUSH1 0x0 DUP1 REVERT JUMPDEST POP PUSH2 0x303 PUSH1 0x4 DUP1 CALLDATASIZE SUB DUP2 ADD SWAP1 PUSH2 0x2FE SWAP2 SWAP1 PUSH2 0x2313 JUMP JUMPDEST PUSH2 0xFDA JUMP JUMPDEST PUSH1 0x40 MLOAD PUSH2 0x314 SWAP6 SWAP5 SWAP4 SWAP3 SWAP2 SWAP1 PUSH2 0x285A JUMP JUMPDEST PUSH1 0x40 MLOAD DUP1 SWAP2 SUB SWAP1 RETURN JUMPDEST CALLVALUE DUP1 ISZERO PUSH2 0x329 JUMPI PUSH1 0x0 DUP1 REVERT JUMPDEST POP PUSH2 0x344 PUSH1 0x4 DUP1 CALLDATASIZE SUB DUP2 ADD SWAP1 PUSH2 0x33F SWAP2 SWAP1 PUSH2 0x23C0 JUMP JUMPDEST PUSH2 0x12B9 JUMP JUMPDEST STOP JUMPDEST CALLVALUE DUP1 ISZERO PUSH2 0x352 JUMPI PUSH1 0x0 DUP1 REVERT JUMPDEST POP PUSH2 0x36D PUSH1 0x4 DUP1 CALLDATASIZE SUB DUP2 ADD SWAP1 PUSH2 0x368 SWAP2 SWAP1 PUSH2 0x21C5 JUMP JUMPDEST PUSH2 0x13A9 JUMP JUMPDEST PUSH1 0x40 MLOAD PUSH2 0x37A SWAP2 SWAP1 PUSH2 0x27B6 JUMP JUMPDEST PUSH1 0x40 MLOAD DUP1 SWAP2 SUB SWAP1 RETURN JUMPDEST CALLVALUE DUP1 ISZERO PUSH2 0x38F JUMPI PUSH1 0x0 DUP1 REVERT JUMPDEST POP PUSH2 0x398 PUSH2 0x1413 JUMP JUMPDEST PUSH1 0x40 MLOAD PUSH2 0x3A5 SWAP2 SWAP1 PUSH2 0x27D1 JUMP JUMPDEST PUSH1 0x40 MLOAD DUP1 SWAP2 SUB SWAP1 RETURN JUMPDEST CALLVALUE DUP1 ISZERO PUSH2 0x3BA JUMPI PUSH1 0x0 DUP1 REVERT JUMPDEST POP PUSH2 0x3D5 PUSH1 0x4 DUP1 CALLDATASIZE SUB DUP2 ADD SWAP1 PUSH2 0x3D0 SWAP2 SWAP1 PUSH2 0x2380 JUMP JUMPDEST PUSH2 0x141A JUMP JUMPDEST STOP JUMPDEST CALLVALUE DUP1 ISZERO PUSH2 0x3E3 JUMPI PUSH1 0x0 DUP1 REVERT JUMPDEST POP PUSH2 0x3FE PUSH1 0x4 DUP1 CALLDATASIZE SUB DUP2 ADD SWAP1 PUSH2 0x3F9 SWAP2 SWAP1 PUSH2 0x241C JUMP JUMPDEST PUSH2 0x149A JUMP JUMPDEST STOP JUMPDEST CALLVALUE DUP1 ISZERO PUSH2 0x40C JUMPI PUSH1 0x0 DUP1 REVERT JUMPDEST POP PUSH2 0x415 PUSH2 0x157A JUMP JUMPDEST PUSH1 0x40 MLOAD PUSH2 0x422 SWAP2 SWAP1 PUSH2 0x27D1 JUMP JUMPDEST PUSH1 0x40 MLOAD DUP1 SWAP2 SUB SWAP1 RETURN JUMPDEST CALLVALUE DUP1 ISZERO PUSH2 0x437 JUMPI PUSH1 0x0 DUP1 REVERT JUMPDEST POP PUSH2 0x452 PUSH1 0x4 DUP1 CALLDATASIZE SUB DUP2 ADD SWAP1 PUSH2 0x44D SWAP2 SWAP1 PUSH2 0x2380 JUMP JUMPDEST PUSH2 0x159E JUMP JUMPDEST STOP JUMPDEST CALLVALUE DUP1 ISZERO PUSH2 0x460 JUMPI PUSH1 0x0 DUP1 REVERT JUMPDEST POP PUSH2 0x47B PUSH1 0x4 DUP1 CALLDATASIZE SUB DUP2 ADD SWAP1 PUSH2 0x476 SWAP2 SWAP1 PUSH2 0x2313 JUMP JUMPDEST PUSH2 0x1691 JUMP JUMPDEST PUSH1 0x40 MLOAD PUSH2 0x48B SWAP5 SWAP4 SWAP3 SWAP2 SWAP1 PUSH2 0x280E JUMP JUMPDEST PUSH1 0x40 MLOAD DUP1 SWAP2 SUB SWAP1 RETURN JUMPDEST CALLVALUE DUP1 ISZERO PUSH2 0x4A0 JUMPI PUSH1 0x0 DUP1 REVERT JUMPDEST POP PUSH2 0x4BB PUSH1 0x4 DUP1 CALLDATASIZE SUB DUP2 ADD SWAP1 PUSH2 0x4B6 SWAP2 SWAP1 PUSH2 0x21C5 JUMP JUMPDEST PUSH2 0x17BB JUMP JUMPDEST STOP JUMPDEST CALLVALUE DUP1 ISZERO PUSH2 0x4C9 JUMPI PUSH1 0x0 DUP1 REVERT JUMPDEST POP PUSH2 0x4E4 PUSH1 0x4 DUP1 CALLDATASIZE SUB DUP2 ADD SWAP1 PUSH2 0x4DF SWAP2 SWAP1 PUSH2 0x245C JUMP JUMPDEST PUSH2 0x17E4 JUMP JUMPDEST STOP JUMPDEST CALLVALUE DUP1 ISZERO PUSH2 0x4F2 JUMPI PUSH1 0x0 DUP1 REVERT JUMPDEST POP PUSH2 0x50D PUSH1 0x4 DUP1 CALLDATASIZE SUB DUP2 ADD SWAP1 PUSH2 0x508 SWAP2 SWAP1 PUSH2 0x23C0 JUMP JUMPDEST PUSH2 0x18D8 JUMP JUMPDEST STOP JUMPDEST CALLVALUE DUP1 ISZERO PUSH2 0x51B JUMPI PUSH1 0x0 DUP1 REVERT JUMPDEST POP PUSH2 0x536 PUSH1 0x4 DUP1 CALLDATASIZE SUB DUP2 ADD SWAP1 PUSH2 0x531 SWAP2 SWAP1 PUSH2 0x2340 JUMP JUMPDEST PUSH2 0x19C8 JUMP JUMPDEST PUSH1 0x40 MLOAD PUSH2 0x543 SWAP2 SWAP1 PUSH2 0x27B6 JUMP JUMPDEST PUSH1 0x40 MLOAD DUP1 SWAP2 SUB SWAP1 RETURN JUMPDEST PUSH1 0x0 PUSH32 0x7965DB0B00000000000000000000000000000000000000000000000000000000 PUSH28 0xFFFFFFFFFFFFFFFFFFFFFFFFFFFFFFFFFFFFFFFFFFFFFFFFFFFFFFFF NOT AND DUP3 PUSH28 0xFFFFFFFFFFFFFFFFFFFFFFFFFFFFFFFFFFFFFFFFFFFFFFFFFFFFFFFF NOT AND EQ DUP1 PUSH2 0x5BF JUMPI POP PUSH2 0x5BE DUP3 PUSH2 0x1A73 JUMP JUMPDEST JUMPDEST SWAP1 POP SWAP2 SWAP1 POP JUMP JUMPDEST PUSH1 0x3 PUSH1 0x0 DUP4 DUP2 MSTORE PUSH1 0x20 ADD SWAP1 DUP2 MSTORE PUSH1 0x20 ADD PUSH1 0x0 KECCAK256 PUSH1 0x4 ADD PUSH1 0x0 SWAP1 SLOAD SWAP1 PUSH2 0x100 EXP SWAP1 DIV PUSH20 0xFFFFFFFFFFFFFFFFFFFFFFFFFFFFFFFFFFFFFFFF AND PUSH20 0xFFFFFFFFFFFFFFFFFFFFFFFFFFFFFFFFFFFFFFFF AND CALLER PUSH20 0xFFFFFFFFFFFFFFFFFFFFFFFFFFFFFFFFFFFFFFFF AND EQ ISZERO PUSH2 0x66B JUMPI PUSH1 0x40 MLOAD PUSH32 0x8C379A000000000000000000000000000000000000000000000000000000000 DUP2 MSTORE PUSH1 0x4 ADD PUSH2 0x662 SWAP1 PUSH2 0x29DB JUMP JUMPDEST PUSH1 0x40 MLOAD DUP1 SWAP2 SUB SWAP1 REVERT JUMPDEST PUSH1 0x5 DUP2 PUSH1 0xFF AND GT ISZERO PUSH2 0x6B2 JUMPI PUSH1 0x40 MLOAD PUSH32 0x8C379A000000000000000000000000000000000000000000000000000000000 DUP2 MSTORE PUSH1 0x4 ADD PUSH2 0x6A9 SWAP1 PUSH2 0x29FB JUMP JUMPDEST PUSH1 0x40 MLOAD DUP1 SWAP2 SUB SWAP1 REVERT JUMPDEST PUSH1 0x1 DUP2 PUSH1 0xFF AND LT ISZERO PUSH2 0x6F9 JUMPI PUSH1 0x40 MLOAD PUSH32 0x8C379A000000000000000000000000000000000000000000000000000000000 DUP2 MSTORE PUSH1 0x4 ADD PUSH2 0x6F0 SWAP1 PUSH2 0x29BB JUMP JUMPDEST PUSH1 0x40 MLOAD DUP1 SWAP2 SUB SWAP1 REVERT JUMPDEST PUSH2 0x703 DUP3 CALLER PUSH2 0x19C8 JUMP JUMPDEST PUSH2 0x742 JUMPI PUSH1 0x40 MLOAD PUSH32 0x8C379A000000000000000000000000000000000000000000000000000000000 DUP2 MSTORE PUSH1 0x4 ADD PUSH2 0x739 SWAP1 PUSH2 0x297B JUMP JUMPDEST PUSH1 0x40 MLOAD DUP1 SWAP2 SUB SWAP1 REVERT JUMPDEST DUP1 PUSH1 0x4 PUSH1 0x0 CALLER PUSH20 0xFFFFFFFFFFFFFFFFFFFFFFFFFFFFFFFFFFFFFFFF AND PUSH20 0xFFFFFFFFFFFFFFFFFFFFFFFFFFFFFFFFFFFFFFFF AND DUP2 MSTORE PUSH1 0x20 ADD SWAP1 DUP2 MSTORE PUSH1 0x20 ADD PUSH1 0x0 KECCAK256 PUSH1 0x0 DUP5 DUP2 MSTORE PUSH1 0x20 ADD SWAP1 DUP2 MSTORE PUSH1 0x20 ADD PUSH1 0x0 KECCAK256 PUSH1 0x0 PUSH2 0x100 EXP DUP2 SLOAD DUP2 PUSH1 0xFF MUL NOT AND SWAP1 DUP4 PUSH1 0xFF AND MUL OR SWAP1 SSTORE POP POP POP JUMP JUMPDEST DUP2 DUP2 PUSH1 0x3 PUSH1 0x0 DUP4 DUP2 MSTORE PUSH1 0x20 ADD SWAP1 DUP2 MSTORE PUSH1 0x20 ADD PUSH1 0x0 KECCAK256 PUSH1 0x9 ADD PUSH1 0x0 SWAP1 SLOAD SWAP1 PUSH2 0x100 EXP SWAP1 DIV PUSH1 0xFF AND PUSH2 0x814 JUMPI PUSH1 0x40 MLOAD PUSH32 0x8C379A000000000000000000000000000000000000000000000000000000000 DUP2 MSTORE PUSH1 0x4 ADD PUSH2 0x80B SWAP1 PUSH2 0x295B JUMP JUMPDEST PUSH1 0x40 MLOAD DUP1 SWAP2 SUB SWAP1 REVERT JUMPDEST PUSH1 0x3 PUSH1 0x0 DUP4 DUP2 MSTORE PUSH1 0x20 ADD SWAP1 DUP2 MSTORE PUSH1 0x20 ADD PUSH1 0x0 KECCAK256 PUSH1 0x9 ADD PUSH1 0x1 SWAP1 SLOAD SWAP1 PUSH2 0x100 EXP SWAP1 DIV PUSH1 0xFF AND ISZERO PUSH2 0x878 JUMPI PUSH1 0x40 MLOAD PUSH32 0x8C379A000000000000000000000000000000000000000000000000000000000 DUP2 MSTORE PUSH1 0x4 ADD PUSH2 0x86F SWAP1 PUSH2 0x299B JUMP JUMPDEST PUSH1 0x40 MLOAD DUP1 SWAP2 SUB SWAP1 REVERT JUMPDEST PUSH1 0x0 DUP2 PUSH1 0xFF AND GT PUSH2 0x8BE JUMPI PUSH1 0x40 MLOAD PUSH32 0x8C379A000000000000000000000000000000000000000000000000000000000 DUP2 MSTORE PUSH1 0x4 ADD PUSH2 0x8B5 SWAP1 PUSH2 0x28BB JUMP JUMPDEST PUSH1 0x40 MLOAD DUP1 SWAP2 SUB SWAP1 REVERT JUMPDEST PUSH1 0x3 PUSH1 0x0 DUP4 DUP2 MSTORE PUSH1 0x20 ADD SWAP1 DUP2 MSTORE PUSH1 0x20 ADD PUSH1 0x0 KECCAK256 PUSH1 0x6 ADD PUSH1 0x0 SWAP1 SLOAD SWAP1 PUSH2 0x100 EXP SWAP1 DIV PUSH1 0xFF AND PUSH1 0xFF AND DUP2 PUSH1 0xFF AND GT ISZERO PUSH2 0x92A JUMPI PUSH1 0x40 MLOAD PUSH32 0x8C379A000000000000000000000000000000000000000000000000000000000 DUP2 MSTORE PUSH1 0x4 ADD PUSH2 0x921 SWAP1 PUSH2 0x28DB JUMP JUMPDEST PUSH1 0x40 MLOAD DUP1 SWAP2 SUB SWAP1 REVERT JUMPDEST PUSH1 0x0 DUP2 PUSH1 0xFF AND PUSH1 0x3 PUSH1 0x0 DUP6 DUP2 MSTORE PUSH1 0x20 ADD SWAP1 DUP2 MSTORE PUSH1 0x20 ADD PUSH1 0x0 KECCAK256 PUSH1 0x3 ADD SLOAD PUSH2 0x951 SWAP2 SWAP1 PUSH2 0x2BBF JUMP JUMPDEST SWAP1 POP CALLVALUE DUP2 EQ PUSH2 0x995 JUMPI PUSH1 0x40 MLOAD PUSH32 0x8C379A000000000000000000000000000000000000000000000000000000000 DUP2 MSTORE PUSH1 0x4 ADD PUSH2 0x98C SWAP1 PUSH2 0x291B JUMP JUMPDEST PUSH1 0x40 MLOAD DUP1 SWAP2 SUB SWAP1 REVERT JUMPDEST PUSH1 0x3 PUSH1 0x0 DUP7 DUP2 MSTORE PUSH1 0x20 ADD SWAP1 DUP2 MSTORE PUSH1 0x20 ADD PUSH1 0x0 KECCAK256 PUSH1 0x4 ADD PUSH1 0x0 SWAP1 SLOAD SWAP1 PUSH2 0x100 EXP SWAP1 DIV PUSH20 0xFFFFFFFFFFFFFFFFFFFFFFFFFFFFFFFFFFFFFFFF AND PUSH20 0xFFFFFFFFFFFFFFFFFFFFFFFFFFFFFFFFFFFFFFFF AND PUSH2 0x8FC CALLVALUE SWAP1 DUP2 ISZERO MUL SWAP1 PUSH1 0x40 MLOAD PUSH1 0x0 PUSH1 0x40 MLOAD DUP1 DUP4 SUB DUP2 DUP6 DUP9 DUP9 CALL SWAP4 POP POP POP POP ISZERO DUP1 ISZERO PUSH2 0xA11 JUMPI RETURNDATASIZE PUSH1 0x0 DUP1 RETURNDATACOPY RETURNDATASIZE PUSH1 0x0 REVERT JUMPDEST POP DUP4 PUSH1 0x3 PUSH1 0x0 DUP8 DUP2 MSTORE PUSH1 0x20 ADD SWAP1 DUP2 MSTORE PUSH1 0x20 ADD PUSH1 0x0 KECCAK256 PUSH1 0x6 ADD PUSH1 0x0 DUP3 DUP3 DUP3 SWAP1 SLOAD SWAP1 PUSH2 0x100 EXP SWAP1 DIV PUSH1 0xFF AND PUSH2 0xA44 SWAP2 SWAP1 PUSH2 0x2C19 JUMP JUMPDEST SWAP3 POP PUSH2 0x100 EXP DUP2 SLOAD DUP2 PUSH1 0xFF MUL NOT AND SWAP1 DUP4 PUSH1 0xFF AND MUL OR SWAP1 SSTORE POP PUSH1 0x2 PUSH1 0x0 DUP7 DUP2 MSTORE PUSH1 0x20 ADD SWAP1 DUP2 MSTORE PUSH1 0x20 ADD PUSH1 0x0 KECCAK256 CALLER SWAP1 DUP1 PUSH1 0x1 DUP2 SLOAD ADD DUP1 DUP3 SSTORE DUP1 SWAP2 POP POP PUSH1 0x1 SWAP1 SUB SWAP1 PUSH1 0x0 MSTORE PUSH1 0x20 PUSH1 0x0 KECCAK256 ADD PUSH1 0x0 SWAP1 SWAP2 SWAP1 SWAP2 SWAP1 SWAP2 PUSH2 0x100 EXP DUP2 SLOAD DUP2 PUSH20 0xFFFFFFFFFFFFFFFFFFFFFFFFFFFFFFFFFFFFFFFF MUL NOT AND SWAP1 DUP4 PUSH20 0xFFFFFFFFFFFFFFFFFFFFFFFFFFFFFFFFFFFFFFFF AND MUL OR SWAP1 SSTORE POP PUSH32 0xF2F622C4EE3232D0D08C3870751D38DDEF2EAF0E7E0C5D38239C7DC8921CA680 DUP6 PUSH1 0x3 PUSH1 0x0 DUP9 DUP2 MSTORE PUSH1 0x20 ADD SWAP1 DUP2 MSTORE PUSH1 0x20 ADD PUSH1 0x0 KECCAK256 PUSH1 0x3 ADD SLOAD PUSH1 0x3 PUSH1 0x0 DUP10 DUP2 MSTORE PUSH1 0x20 ADD SWAP1 DUP2 MSTORE PUSH1 0x20 ADD PUSH1 0x0 KECCAK256 PUSH1 0x4 ADD PUSH1 0x0 SWAP1 SLOAD SWAP1 PUSH2 0x100 EXP SWAP1 DIV PUSH20 0xFFFFFFFFFFFFFFFFFFFFFFFFFFFFFFFFFFFFFFFF AND CALLER PUSH1 0x40 MLOAD PUSH2 0xB51 SWAP5 SWAP4 SWAP3 SWAP2 SWAP1 PUSH2 0x2A76 JUMP JUMPDEST PUSH1 0x40 MLOAD DUP1 SWAP2 SUB SWAP1 LOG1 POP POP POP POP POP JUMP JUMPDEST PUSH1 0x0 DUP1 PUSH1 0x0 DUP4 DUP2 MSTORE PUSH1 0x20 ADD SWAP1 DUP2 MSTORE PUSH1 0x20 ADD PUSH1 0x0 KECCAK256 PUSH1 0x1 ADD SLOAD SWAP1 POP SWAP2 SWAP1 POP JUMP JUMPDEST PUSH2 0xB88 DUP3 PUSH2 0xB60 JUMP JUMPDEST PUSH2 0xB99 DUP2 PUSH2 0xB94 PUSH2 0x1ADD JUMP JUMPDEST PUSH2 0x1AE5 JUMP JUMPDEST PUSH2 0xBA3 DUP4 DUP4 PUSH2 0x1B82 JUMP JUMPDEST POP POP POP JUMP JUMPDEST PUSH2 0xBB0 PUSH2 0x1ADD JUMP JUMPDEST PUSH20 0xFFFFFFFFFFFFFFFFFFFFFFFFFFFFFFFFFFFFFFFF AND DUP2 PUSH20 0xFFFFFFFFFFFFFFFFFFFFFFFFFFFFFFFFFFFFFFFF AND EQ PUSH2 0xC1D JUMPI PUSH1 0x40 MLOAD PUSH32 0x8C379A000000000000000000000000000000000000000000000000000000000 DUP2 MSTORE PUSH1 0x4 ADD PUSH2 0xC14 SWAP1 PUSH2 0x2A3B JUMP JUMPDEST PUSH1 0x40 MLOAD DUP1 SWAP2 SUB SWAP1 REVERT JUMPDEST PUSH2 0xC27 DUP3 DUP3 PUSH2 0x1C62 JUMP JUMPDEST POP POP JUMP JUMPDEST PUSH1 0x1 SLOAD DUP2 JUMP JUMPDEST PUSH1 0x0 DUP5 GT PUSH2 0xC74 JUMPI PUSH1 0x40 MLOAD PUSH32 0x8C379A000000000000000000000000000000000000000000000000000000000 DUP2 MSTORE PUSH1 0x4 ADD PUSH2 0xC6B SWAP1 PUSH2 0x2A1B JUMP JUMPDEST PUSH1 0x40 MLOAD DUP1 SWAP2 SUB SWAP1 REVERT JUMPDEST PUSH1 0x40 MLOAD DUP1 PUSH2 0x160 ADD PUSH1 0x40 MSTORE DUP1 PUSH1 0x1 SLOAD DUP2 MSTORE PUSH1 0x20 ADD DUP8 DUP2 MSTORE PUSH1 0x20 ADD DUP7 DUP2 MSTORE PUSH1 0x20 ADD DUP6 DUP2 MSTORE PUSH1 0x20 ADD CALLER PUSH20 0xFFFFFFFFFFFFFFFFFFFFFFFFFFFFFFFFFFFFFFFF AND DUP2 MSTORE PUSH1 0x20 ADD DUP5 DUP2 MSTORE PUSH1 0x20 ADD DUP4 PUSH1 0xFF AND DUP2 MSTORE PUSH1 0x20 ADD TIMESTAMP DUP2 MSTORE PUSH1 0x20 ADD TIMESTAMP DUP2 MSTORE PUSH1 0x20 ADD DUP3 ISZERO ISZERO DUP2 MSTORE PUSH1 0x20 ADD PUSH1 0x0 ISZERO ISZERO DUP2 MSTORE POP PUSH1 0x3 PUSH1 0x0 PUSH1 0x1 SLOAD DUP2 MSTORE PUSH1 0x20 ADD SWAP1 DUP2 MSTORE PUSH1 0x20 ADD PUSH1 0x0 KECCAK256 PUSH1 0x0 DUP3 ADD MLOAD DUP2 PUSH1 0x0 ADD SSTORE PUSH1 0x20 DUP3 ADD MLOAD DUP2 PUSH1 0x1 ADD SWAP1 DUP1 MLOAD SWAP1 PUSH1 0x20 ADD SWAP1 PUSH2 0xD1B SWAP3 SWAP2 SWAP1 PUSH2 0x2007 JUMP JUMPDEST POP PUSH1 0x40 DUP3 ADD MLOAD DUP2 PUSH1 0x2 ADD SWAP1 DUP1 MLOAD SWAP1 PUSH1 0x20 ADD SWAP1 PUSH2 0xD38 SWAP3 SWAP2 SWAP1 PUSH2 0x2007 JUMP JUMPDEST POP PUSH1 0x60 DUP3 ADD MLOAD DUP2 PUSH1 0x3 ADD SSTORE PUSH1 0x80 DUP3 ADD MLOAD DUP2 PUSH1 0x4 ADD PUSH1 0x0 PUSH2 0x100 EXP DUP2 SLOAD DUP2 PUSH20 0xFFFFFFFFFFFFFFFFFFFFFFFFFFFFFFFFFFFFFFFF MUL NOT AND SWAP1 DUP4 PUSH20 0xFFFFFFFFFFFFFFFFFFFFFFFFFFFFFFFFFFFFFFFF AND MUL OR SWAP1 SSTORE POP PUSH1 0xA0 DUP3 ADD MLOAD DUP2 PUSH1 0x5 ADD SWAP1 DUP1 MLOAD SWAP1 PUSH1 0x20 ADD SWAP1 PUSH2 0xDA6 SWAP3 SWAP2 SWAP1 PUSH2 0x2007 JUMP JUMPDEST POP PUSH1 0xC0 DUP3 ADD MLOAD DUP2 PUSH1 0x6 ADD PUSH1 0x0 PUSH2 0x100 EXP DUP2 SLOAD DUP2 PUSH1 0xFF MUL NOT AND SWAP1 DUP4 PUSH1 0xFF AND MUL OR SWAP1 SSTORE POP PUSH1 0xE0 DUP3 ADD MLOAD DUP2 PUSH1 0x7 ADD SSTORE PUSH2 0x100 DUP3 ADD MLOAD DUP2 PUSH1 0x8 ADD SSTORE PUSH2 0x120 DUP3 ADD MLOAD DUP2 PUSH1 0x9 ADD PUSH1 0x0 PUSH2 0x100 EXP DUP2 SLOAD DUP2 PUSH1 0xFF MUL NOT AND SWAP1 DUP4 ISZERO ISZERO MUL OR SWAP1 SSTORE POP PUSH2 0x140 DUP3 ADD MLOAD DUP2 PUSH1 0x9 ADD PUSH1 0x1 PUSH2 0x100 EXP DUP2 SLOAD DUP2 PUSH1 0xFF MUL NOT AND SWAP1 DUP4 ISZERO ISZERO MUL OR SWAP1 SSTORE POP SWAP1 POP POP PUSH1 0x1 PUSH1 0x0 DUP2 SLOAD DUP1 SWAP3 SWAP2 SWAP1 PUSH2 0xE35 SWAP1 PUSH2 0x2DEF JUMP JUMPDEST SWAP2 SWAP1 POP SSTORE POP POP POP POP POP POP POP JUMP JUMPDEST PUSH1 0x0 DUP1 PUSH1 0x0 SWAP1 POP PUSH1 0x0 DUP1 JUMPDEST PUSH1 0x2 PUSH1 0x0 DUP7 DUP2 MSTORE PUSH1 0x20 ADD SWAP1 DUP2 MSTORE PUSH1 0x20 ADD PUSH1 0x0 KECCAK256 DUP1 SLOAD SWAP1 POP DUP2 LT ISZERO PUSH2 0xFB8 JUMPI PUSH1 0x0 PUSH1 0x2 PUSH1 0x0 DUP8 DUP2 MSTORE PUSH1 0x20 ADD SWAP1 DUP2 MSTORE PUSH1 0x20 ADD PUSH1 0x0 KECCAK256 DUP3 DUP2 SLOAD DUP2 LT PUSH2 0xE92 JUMPI PUSH2 0xE91 PUSH2 0x2EC5 JUMP JUMPDEST JUMPDEST SWAP1 PUSH1 0x0 MSTORE PUSH1 0x20 PUSH1 0x0 KECCAK256 ADD PUSH1 0x0 SWAP1 SLOAD SWAP1 PUSH2 0x100 EXP SWAP1 DIV PUSH20 0xFFFFFFFFFFFFFFFFFFFFFFFFFFFFFFFFFFFFFFFF AND SWAP1 POP PUSH1 0x0 PUSH1 0x4 PUSH1 0x0 DUP4 PUSH20 0xFFFFFFFFFFFFFFFFFFFFFFFFFFFFFFFFFFFFFFFF AND PUSH20 0xFFFFFFFFFFFFFFFFFFFFFFFFFFFFFFFFFFFFFFFF AND DUP2 MSTORE PUSH1 0x20 ADD SWAP1 DUP2 MSTORE PUSH1 0x20 ADD PUSH1 0x0 KECCAK256 PUSH1 0x0 DUP9 DUP2 MSTORE PUSH1 0x20 ADD SWAP1 DUP2 MSTORE PUSH1 0x20 ADD PUSH1 0x0 KECCAK256 PUSH1 0x0 SWAP1 SLOAD SWAP1 PUSH2 0x100 EXP SWAP1 DIV PUSH1 0xFF AND PUSH1 0xFF AND EQ PUSH2 0xFA4 JUMPI PUSH1 0x4 PUSH1 0x0 DUP3 PUSH20 0xFFFFFFFFFFFFFFFFFFFFFFFFFFFFFFFFFFFFFFFF AND PUSH20 0xFFFFFFFFFFFFFFFFFFFFFFFFFFFFFFFFFFFFFFFF AND DUP2 MSTORE PUSH1 0x20 ADD SWAP1 DUP2 MSTORE PUSH1 0x20 ADD PUSH1 0x0 KECCAK256 PUSH1 0x0 DUP8 DUP2 MSTORE PUSH1 0x20 ADD SWAP1 DUP2 MSTORE PUSH1 0x20 ADD PUSH1 0x0 KECCAK256 PUSH1 0x0 SWAP1 SLOAD SWAP1 PUSH2 0x100 EXP SWAP1 DIV PUSH1 0xFF AND PUSH1 0xFF AND DUP5 PUSH2 0xF93 SWAP2 SWAP1 PUSH2 0x2B38 JUMP JUMPDEST SWAP4 POP DUP3 DUP1 PUSH2 0xFA0 SWAP1 PUSH2 0x2DEF JUMP JUMPDEST SWAP4 POP POP JUMPDEST POP DUP1 DUP1 PUSH2 0xFB0 SWAP1 PUSH2 0x2DEF JUMP JUMPDEST SWAP2 POP POP PUSH2 0xE4D JUMP JUMPDEST POP DUP1 PUSH1 0x64 DUP4 PUSH2 0xFC7 SWAP2 SWAP1 PUSH2 0x2BBF JUMP JUMPDEST PUSH2 0xFD1 SWAP2 SWAP1 PUSH2 0x2B8E JUMP JUMPDEST SWAP3 POP POP POP SWAP2 SWAP1 POP JUMP JUMPDEST PUSH1 0x60 DUP1 PUSH1 0x0 DUP1 PUSH1 0x0 DUP1 PUSH1 0x3 PUSH1 0x0 DUP9 DUP2 MSTORE PUSH1 0x20 ADD SWAP1 DUP2 MSTORE PUSH1 0x20 ADD PUSH1 0x0 KECCAK256 PUSH1 0x40 MLOAD DUP1 PUSH2 0x160 ADD PUSH1 0x40 MSTORE SWAP1 DUP2 PUSH1 0x0 DUP3 ADD SLOAD DUP2 MSTORE PUSH1 0x20 ADD PUSH1 0x1 DUP3 ADD DUP1 SLOAD PUSH2 0x101C SWAP1 PUSH2 0x2D8C JUMP JUMPDEST DUP1 PUSH1 0x1F ADD PUSH1 0x20 DUP1 SWAP2 DIV MUL PUSH1 0x20 ADD PUSH1 0x40 MLOAD SWAP1 DUP2 ADD PUSH1 0x40 MSTORE DUP1 SWAP3 SWAP2 SWAP1 DUP2 DUP2 MSTORE PUSH1 0x20 ADD DUP3 DUP1 SLOAD PUSH2 0x1048 SWAP1 PUSH2 0x2D8C JUMP JUMPDEST DUP1 ISZERO PUSH2 0x1095 JUMPI DUP1 PUSH1 0x1F LT PUSH2 0x106A JUMPI PUSH2 0x100 DUP1 DUP4 SLOAD DIV MUL DUP4 MSTORE SWAP2 PUSH1 0x20 ADD SWAP2 PUSH2 0x1095 JUMP JUMPDEST DUP3 ADD SWAP2 SWAP1 PUSH1 0x0 MSTORE PUSH1 0x20 PUSH1 0x0 KECCAK256 SWAP1 JUMPDEST DUP2 SLOAD DUP2 MSTORE SWAP1 PUSH1 0x1 ADD SWAP1 PUSH1 0x20 ADD DUP1 DUP4 GT PUSH2 0x1078 JUMPI DUP3 SWAP1 SUB PUSH1 0x1F AND DUP3 ADD SWAP2 JUMPDEST POP POP POP POP POP DUP2 MSTORE PUSH1 0x20 ADD PUSH1 0x2 DUP3 ADD DUP1 SLOAD PUSH2 0x10AE SWAP1 PUSH2 0x2D8C JUMP JUMPDEST DUP1 PUSH1 0x1F ADD PUSH1 0x20 DUP1 SWAP2 DIV MUL PUSH1 0x20 ADD PUSH1 0x40 MLOAD SWAP1 DUP2 ADD PUSH1 0x40 MSTORE DUP1 SWAP3 SWAP2 SWAP1 DUP2 DUP2 MSTORE PUSH1 0x20 ADD DUP3 DUP1 SLOAD PUSH2 0x10DA SWAP1 PUSH2 0x2D8C JUMP JUMPDEST DUP1 ISZERO PUSH2 0x1127 JUMPI DUP1 PUSH1 0x1F LT PUSH2 0x10FC JUMPI PUSH2 0x100 DUP1 DUP4 SLOAD DIV MUL DUP4 MSTORE SWAP2 PUSH1 0x20 ADD SWAP2 PUSH2 0x1127 JUMP JUMPDEST DUP3 ADD SWAP2 SWAP1 PUSH1 0x0 MSTORE PUSH1 0x20 PUSH1 0x0 KECCAK256 SWAP1 JUMPDEST DUP2 SLOAD DUP2 MSTORE SWAP1 PUSH1 0x1 ADD SWAP1 PUSH1 0x20 ADD DUP1 DUP4 GT PUSH2 0x110A JUMPI DUP3 SWAP1 SUB PUSH1 0x1F AND DUP3 ADD SWAP2 JUMPDEST POP POP POP POP POP DUP2 MSTORE PUSH1 0x20 ADD PUSH1 0x3 DUP3 ADD SLOAD DUP2 MSTORE PUSH1 0x20 ADD PUSH1 0x4 DUP3 ADD PUSH1 0x0 SWAP1 SLOAD SWAP1 PUSH2 0x100 EXP SWAP1 DIV PUSH20 0xFFFFFFFFFFFFFFFFFFFFFFFFFFFFFFFFFFFFFFFF AND PUSH20 0xFFFFFFFFFFFFFFFFFFFFFFFFFFFFFFFFFFFFFFFF AND PUSH20 0xFFFFFFFFFFFFFFFFFFFFFFFFFFFFFFFFFFFFFFFF AND DUP2 MSTORE PUSH1 0x20 ADD PUSH1 0x5 DUP3 ADD DUP1 SLOAD PUSH2 0x11A0 SWAP1 PUSH2 0x2D8C JUMP JUMPDEST DUP1 PUSH1 0x1F ADD PUSH1 0x20 DUP1 SWAP2 DIV MUL PUSH1 0x20 ADD PUSH1 0x40 MLOAD SWAP1 DUP2 ADD PUSH1 0x40 MSTORE DUP1 SWAP3 SWAP2 SWAP1 DUP2 DUP2 MSTORE PUSH1 0x20 ADD DUP3 DUP1 SLOAD PUSH2 0x11CC SWAP1 PUSH2 0x2D8C JUMP JUMPDEST DUP1 ISZERO PUSH2 0x1219 JUMPI DUP1 PUSH1 0x1F LT PUSH2 0x11EE JUMPI PUSH2 0x100 DUP1 DUP4 SLOAD DIV MUL DUP4 MSTORE SWAP2 PUSH1 0x20 ADD SWAP2 PUSH2 0x1219 JUMP JUMPDEST DUP3 ADD SWAP2 SWAP1 PUSH1 0x0 MSTORE PUSH1 0x20 PUSH1 0x0 KECCAK256 SWAP1 JUMPDEST DUP2 SLOAD DUP2 MSTORE SWAP1 PUSH1 0x1 ADD SWAP1 PUSH1 0x20 ADD DUP1 DUP4 GT PUSH2 0x11FC JUMPI DUP3 SWAP1 SUB PUSH1 0x1F AND DUP3 ADD SWAP2 JUMPDEST POP POP POP POP POP DUP2 MSTORE PUSH1 0x20 ADD PUSH1 0x6 DUP3 ADD PUSH1 0x0 SWAP1 SLOAD SWAP1 PUSH2 0x100 EXP SWAP1 DIV PUSH1 0xFF AND PUSH1 0xFF AND PUSH1 0xFF AND DUP2 MSTORE PUSH1 0x20 ADD PUSH1 0x7 DUP3 ADD SLOAD DUP2 MSTORE PUSH1 0x20 ADD PUSH1 0x8 DUP3 ADD SLOAD DUP2 MSTORE PUSH1 0x20 ADD PUSH1 0x9 DUP3 ADD PUSH1 0x0 SWAP1 SLOAD SWAP1 PUSH2 0x100 EXP SWAP1 DIV PUSH1 0xFF AND ISZERO ISZERO ISZERO ISZERO DUP2 MSTORE PUSH1 0x20 ADD PUSH1 0x9 DUP3 ADD PUSH1 0x1 SWAP1 SLOAD SWAP1 PUSH2 0x100 EXP SWAP1 DIV PUSH1 0xFF AND ISZERO ISZERO ISZERO ISZERO DUP2 MSTORE POP POP SWAP1 POP DUP1 PUSH1 0x40 ADD MLOAD DUP2 PUSH1 0xA0 ADD MLOAD DUP3 PUSH1 0xC0 ADD MLOAD DUP4 PUSH1 0xE0 ADD MLOAD DUP5 PUSH2 0x100 ADD MLOAD SWAP6 POP SWAP6 POP SWAP6 POP SWAP6 POP SWAP6 POP POP SWAP2 SWAP4 SWAP6 SWAP1 SWAP3 SWAP5 POP JUMP JUMPDEST DUP2 PUSH1 0x3 PUSH1 0x0 DUP3 DUP2 MSTORE PUSH1 0x20 ADD SWAP1 DUP2 MSTORE PUSH1 0x20 ADD PUSH1 0x0 KECCAK256 PUSH1 0x4 ADD PUSH1 0x0 SWAP1 SLOAD SWAP1 PUSH2 0x100 EXP SWAP1 DIV PUSH20 0xFFFFFFFFFFFFFFFFFFFFFFFFFFFFFFFFFFFFFFFF AND PUSH20 0xFFFFFFFFFFFFFFFFFFFFFFFFFFFFFFFFFFFFFFFF AND CALLER PUSH20 0xFFFFFFFFFFFFFFFFFFFFFFFFFFFFFFFFFFFFFFFF AND EQ PUSH2 0x135E JUMPI PUSH1 0x40 MLOAD PUSH32 0x8C379A000000000000000000000000000000000000000000000000000000000 DUP2 MSTORE PUSH1 0x4 ADD PUSH2 0x1355 SWAP1 PUSH2 0x293B JUMP JUMPDEST PUSH1 0x40 MLOAD DUP1 SWAP2 SUB SWAP1 REVERT JUMPDEST DUP2 PUSH1 0x3 PUSH1 0x0 DUP6 DUP2 MSTORE PUSH1 0x20 ADD SWAP1 DUP2 MSTORE PUSH1 0x20 ADD PUSH1 0x0 KECCAK256 PUSH1 0x2 ADD SWAP1 DUP1 MLOAD SWAP1 PUSH1 0x20 ADD SWAP1 PUSH2 0x1388 SWAP3 SWAP2 SWAP1 PUSH2 0x2007 JUMP JUMPDEST POP TIMESTAMP PUSH1 0x3 PUSH1 0x0 DUP6 DUP2 MSTORE PUSH1 0x20 ADD SWAP1 DUP2 MSTORE PUSH1 0x20 ADD PUSH1 0x0 KECCAK256 PUSH1 0x8 ADD DUP2 SWAP1 SSTORE POP POP POP POP JUMP JUMPDEST PUSH1 0x0 DUP1 PUSH1 0x0 DUP5 DUP2 MSTORE PUSH1 0x20 ADD SWAP1 DUP2 MSTORE PUSH1 0x20 ADD PUSH1 0x0 KECCAK256 PUSH1 0x0 ADD PUSH1 0x0 DUP4 PUSH20 0xFFFFFFFFFFFFFFFFFFFFFFFFFFFFFFFFFFFFFFFF AND PUSH20 0xFFFFFFFFFFFFFFFFFFFFFFFFFFFFFFFFFFFFFFFF AND DUP2 MSTORE PUSH1 0x20 ADD SWAP1 DUP2 MSTORE PUSH1 0x20 ADD PUSH1 0x0 KECCAK256 PUSH1 0x0 SWAP1 SLOAD SWAP1 PUSH2 0x100 EXP SWAP1 DIV PUSH1 0xFF AND SWAP1 POP SWAP3 SWAP2 POP POP JUMP JUMPDEST PUSH1 0x0 DUP1 SHL DUP2 JUMP JUMPDEST PUSH32 0x1F9CA85E780B3B3CFBE1334CA9DD68802DB7860F692BD163C796BB76D464EDC0 PUSH2 0x144C DUP2 PUSH2 0x1447 PUSH2 0x1ADD JUMP JUMPDEST PUSH2 0x1AE5 JUMP JUMPDEST DUP2 PUSH1 0x3 PUSH1 0x0 DUP6 DUP2 MSTORE PUSH1 0x20 ADD SWAP1 DUP2 MSTORE PUSH1 0x20 ADD PUSH1 0x0 KECCAK256 PUSH1 0x9 ADD PUSH1 0x1 PUSH2 0x100 EXP DUP2 SLOAD DUP2 PUSH1 0xFF MUL NOT AND SWAP1 DUP4 ISZERO ISZERO MUL OR SWAP1 SSTORE POP TIMESTAMP PUSH1 0x3 PUSH1 0x0 DUP6 DUP2 MSTORE PUSH1 0x20 ADD SWAP1 DUP2 MSTORE PUSH1 0x20 ADD PUSH1 0x0 KECCAK256 PUSH1 0x8 ADD DUP2 SWAP1 SSTORE POP POP POP POP JUMP JUMPDEST DUP2 PUSH1 0x3 PUSH1 0x0 DUP3 DUP2 MSTORE PUSH1 0x20 ADD SWAP1 DUP2 MSTORE PUSH1 0x20 ADD PUSH1 0x0 KECCAK256 PUSH1 0x4 ADD PUSH1 0x0 SWAP1 SLOAD SWAP1 PUSH2 0x100 EXP SWAP1 DIV PUSH20 0xFFFFFFFFFFFFFFFFFFFFFFFFFFFFFFFFFFFFFFFF AND PUSH20 0xFFFFFFFFFFFFFFFFFFFFFFFFFFFFFFFFFFFFFFFF AND CALLER PUSH20 0xFFFFFFFFFFFFFFFFFFFFFFFFFFFFFFFFFFFFFFFF AND EQ PUSH2 0x153F JUMPI PUSH1 0x40 MLOAD PUSH32 0x8C379A000000000000000000000000000000000000000000000000000000000 DUP2 MSTORE PUSH1 0x4 ADD PUSH2 0x1536 SWAP1 PUSH2 0x293B JUMP JUMPDEST PUSH1 0x40 MLOAD DUP1 SWAP2 SUB SWAP1 REVERT JUMPDEST DUP2 PUSH1 0x3 PUSH1 0x0 DUP6 DUP2 MSTORE PUSH1 0x20 ADD SWAP1 DUP2 MSTORE PUSH1 0x20 ADD PUSH1 0x0 KECCAK256 PUSH1 0x3 ADD DUP2 SWAP1 SSTORE POP TIMESTAMP PUSH1 0x3 PUSH1 0x0 DUP6 DUP2 MSTORE PUSH1 0x20 ADD SWAP1 DUP2 MSTORE PUSH1 0x20 ADD PUSH1 0x0 KECCAK256 PUSH1 0x8 ADD DUP2 SWAP1 SSTORE POP POP POP POP JUMP JUMPDEST PUSH32 0x1F9CA85E780B3B3CFBE1334CA9DD68802DB7860F692BD163C796BB76D464EDC0 DUP2 JUMP JUMPDEST DUP2 PUSH1 0x3 PUSH1 0x0 DUP3 DUP2 MSTORE PUSH1 0x20 ADD SWAP1 DUP2 MSTORE PUSH1 0x20 ADD PUSH1 0x0 KECCAK256 PUSH1 0x4 ADD PUSH1 0x0 SWAP1 SLOAD SWAP1 PUSH2 0x100 EXP SWAP1 DIV PUSH20 0xFFFFFFFFFFFFFFFFFFFFFFFFFFFFFFFFFFFFFFFF AND PUSH20 0xFFFFFFFFFFFFFFFFFFFFFFFFFFFFFFFFFFFFFFFF AND CALLER PUSH20 0xFFFFFFFFFFFFFFFFFFFFFFFFFFFFFFFFFFFFFFFF AND EQ PUSH2 0x1643 JUMPI PUSH1 0x40 MLOAD PUSH32 0x8C379A000000000000000000000000000000000000000000000000000000000 DUP2 MSTORE PUSH1 0x4 ADD PUSH2 0x163A SWAP1 PUSH2 0x293B JUMP JUMPDEST PUSH1 0x40 MLOAD DUP1 SWAP2 SUB SWAP1 REVERT JUMPDEST DUP2 PUSH1 0x3 PUSH1 0x0 DUP6 DUP2 MSTORE PUSH1 0x20 ADD SWAP1 DUP2 MSTORE PUSH1 0x20 ADD PUSH1 0x0 KECCAK256 PUSH1 0x9 ADD PUSH1 0x0 PUSH2 0x100 EXP DUP2 SLOAD DUP2 PUSH1 0xFF MUL NOT AND SWAP1 DUP4 ISZERO ISZERO MUL OR SWAP1 SSTORE POP TIMESTAMP PUSH1 0x3 PUSH1 0x0 DUP6 DUP2 MSTORE PUSH1 0x20 ADD SWAP1 DUP2 MSTORE PUSH1 0x20 ADD PUSH1 0x0 KECCAK256 PUSH1 0x8 ADD DUP2 SWAP1 SSTORE POP POP POP POP JUMP JUMPDEST PUSH1 0x60 PUSH1 0x0 DUP1 PUSH1 0x0 PUSH1 0x3 PUSH1 0x0 DUP7 DUP2 MSTORE PUSH1 0x20 ADD SWAP1 DUP2 MSTORE PUSH1 0x20 ADD PUSH1 0x0 KECCAK256 PUSH1 0x1 ADD PUSH1 0x3 PUSH1 0x0 DUP8 DUP2 MSTORE PUSH1 0x20 ADD SWAP1 DUP2 MSTORE PUSH1 0x20 ADD PUSH1 0x0 KECCAK256 PUSH1 0x4 ADD PUSH1 0x0 SWAP1 SLOAD SWAP1 PUSH2 0x100 EXP SWAP1 DIV PUSH20 0xFFFFFFFFFFFFFFFFFFFFFFFFFFFFFFFFFFFFFFFF AND PUSH1 0x3 PUSH1 0x0 DUP9 DUP2 MSTORE PUSH1 0x20 ADD SWAP1 DUP2 MSTORE PUSH1 0x20 ADD PUSH1 0x0 KECCAK256 PUSH1 0x3 ADD SLOAD PUSH1 0x3 PUSH1 0x0 DUP10 DUP2 MSTORE PUSH1 0x20 ADD SWAP1 DUP2 MSTORE PUSH1 0x20 ADD PUSH1 0x0 KECCAK256 PUSH1 0x9 ADD PUSH1 0x0 SWAP1 SLOAD SWAP1 PUSH2 0x100 EXP SWAP1 DIV PUSH1 0xFF AND DUP4 DUP1 SLOAD PUSH2 0x172C SWAP1 PUSH2 0x2D8C JUMP JUMPDEST DUP1 PUSH1 0x1F ADD PUSH1 0x20 DUP1 SWAP2 DIV MUL PUSH1 0x20 ADD PUSH1 0x40 MLOAD SWAP1 DUP2 ADD PUSH1 0x40 MSTORE DUP1 SWAP3 SWAP2 SWAP1 DUP2 DUP2 MSTORE PUSH1 0x20 ADD DUP3 DUP1 SLOAD PUSH2 0x1758 SWAP1 PUSH2 0x2D8C JUMP JUMPDEST DUP1 ISZERO PUSH2 0x17A5 JUMPI DUP1 PUSH1 0x1F LT PUSH2 0x177A JUMPI PUSH2 0x100 DUP1 DUP4 SLOAD DIV MUL DUP4 MSTORE SWAP2 PUSH1 0x20 ADD SWAP2 PUSH2 0x17A5 JUMP JUMPDEST DUP3 ADD SWAP2 SWAP1 PUSH1 0x0 MSTORE PUSH1 0x20 PUSH1 0x0 KECCAK256 SWAP1 JUMPDEST DUP2 SLOAD DUP2 MSTORE SWAP1 PUSH1 0x1 ADD SWAP1 PUSH1 0x20 ADD DUP1 DUP4 GT PUSH2 0x1788 JUMPI DUP3 SWAP1 SUB PUSH1 0x1F AND DUP3 ADD SWAP2 JUMPDEST POP POP POP POP POP SWAP4 POP SWAP4 POP SWAP4 POP SWAP4 POP SWAP4 POP SWAP2 SWAP4 POP SWAP2 SWAP4 JUMP JUMPDEST PUSH2 0x17C4 DUP3 PUSH2 0xB60 JUMP JUMPDEST PUSH2 0x17D5 DUP2 PUSH2 0x17D0 PUSH2 0x1ADD JUMP JUMPDEST PUSH2 0x1AE5 JUMP JUMPDEST PUSH2 0x17DF DUP4 DUP4 PUSH2 0x1C62 JUMP JUMPDEST POP POP POP JUMP JUMPDEST DUP2 PUSH1 0x3 PUSH1 0x0 DUP3 DUP2 MSTORE PUSH1 0x20 ADD SWAP1 DUP2 MSTORE PUSH1 0x20 ADD PUSH1 0x0 KECCAK256 PUSH1 0x4 ADD PUSH1 0x0 SWAP1 SLOAD SWAP1 PUSH2 0x100 EXP SWAP1 DIV PUSH20 0xFFFFFFFFFFFFFFFFFFFFFFFFFFFFFFFFFFFFFFFF AND PUSH20 0xFFFFFFFFFFFFFFFFFFFFFFFFFFFFFFFFFFFFFFFF AND CALLER PUSH20 0xFFFFFFFFFFFFFFFFFFFFFFFFFFFFFFFFFFFFFFFF AND EQ PUSH2 0x1889 JUMPI PUSH1 0x40 MLOAD PUSH32 0x8C379A000000000000000000000000000000000000000000000000000000000 DUP2 MSTORE PUSH1 0x4 ADD PUSH2 0x1880 SWAP1 PUSH2 0x293B JUMP JUMPDEST PUSH1 0x40 MLOAD DUP1 SWAP2 SUB SWAP1 REVERT JUMPDEST DUP2 PUSH1 0x3 PUSH1 0x0 DUP6 DUP2 MSTORE PUSH1 0x20 ADD SWAP1 DUP2 MSTORE PUSH1 0x20 ADD PUSH1 0x0 KECCAK256 PUSH1 0x6 ADD PUSH1 0x0 PUSH2 0x100 EXP DUP2 SLOAD DUP2 PUSH1 0xFF MUL NOT AND SWAP1 DUP4 PUSH1 0xFF AND MUL OR SWAP1 SSTORE POP TIMESTAMP PUSH1 0x3 PUSH1 0x0 DUP6 DUP2 MSTORE PUSH1 0x20 ADD SWAP1 DUP2 MSTORE PUSH1 0x20 ADD PUSH1 0x0 KECCAK256 PUSH1 0x8 ADD DUP2 SWAP1 SSTORE POP POP POP POP JUMP JUMPDEST DUP2 PUSH1 0x3 PUSH1 0x0 DUP3 DUP2 MSTORE PUSH1 0x20 ADD SWAP1 DUP2 MSTORE PUSH1 0x20 ADD PUSH1 0x0 KECCAK256 PUSH1 0x4 ADD PUSH1 0x0 SWAP1 SLOAD SWAP1 PUSH2 0x100 EXP SWAP1 DIV PUSH20 0xFFFFFFFFFFFFFFFFFFFFFFFFFFFFFFFFFFFFFFFF AND PUSH20 0xFFFFFFFFFFFFFFFFFFFFFFFFFFFFFFFFFFFFFFFF AND CALLER PUSH20 0xFFFFFFFFFFFFFFFFFFFFFFFFFFFFFFFFFFFFFFFF AND EQ PUSH2 0x197D JUMPI PUSH1 0x40 MLOAD PUSH32 0x8C379A000000000000000000000000000000000000000000000000000000000 DUP2 MSTORE PUSH1 0x4 ADD PUSH2 0x1974 SWAP1 PUSH2 0x293B JUMP JUMPDEST PUSH1 0x40 MLOAD DUP1 SWAP2 SUB SWAP1 REVERT JUMPDEST DUP2 PUSH1 0x3 PUSH1 0x0 DUP6 DUP2 MSTORE PUSH1 0x20 ADD SWAP1 DUP2 MSTORE PUSH1 0x20 ADD PUSH1 0x0 KECCAK256 PUSH1 0x5 ADD SWAP1 DUP1 MLOAD SWAP1 PUSH1 0x20 ADD SWAP1 PUSH2 0x19A7 SWAP3 SWAP2 SWAP1 PUSH2 0x2007 JUMP JUMPDEST POP TIMESTAMP PUSH1 0x3 PUSH1 0x0 DUP6 DUP2 MSTORE PUSH1 0x20 ADD SWAP1 DUP2 MSTORE PUSH1 0x20 ADD PUSH1 0x0 KECCAK256 PUSH1 0x8 ADD DUP2 SWAP1 SSTORE POP POP POP POP JUMP JUMPDEST PUSH1 0x0 PUSH2 0x1A6B PUSH1 0x2 PUSH1 0x0 DUP6 DUP2 MSTORE PUSH1 0x20 ADD SWAP1 DUP2 MSTORE PUSH1 0x20 ADD PUSH1 0x0 KECCAK256 DUP1 SLOAD DUP1 PUSH1 0x20 MUL PUSH1 0x20 ADD PUSH1 0x40 MLOAD SWAP1 DUP2 ADD PUSH1 0x40 MSTORE DUP1 SWAP3 SWAP2 SWAP1 DUP2 DUP2 MSTORE PUSH1 0x20 ADD DUP3 DUP1 SLOAD DUP1 ISZERO PUSH2 0x1A60 JUMPI PUSH1 0x20 MUL DUP3 ADD SWAP2 SWAP1 PUSH1 0x0 MSTORE PUSH1 0x20 PUSH1 0x0 KECCAK256 SWAP1 JUMPDEST DUP2 PUSH1 0x0 SWAP1 SLOAD SWAP1 PUSH2 0x100 EXP SWAP1 DIV PUSH20 0xFFFFFFFFFFFFFFFFFFFFFFFFFFFFFFFFFFFFFFFF AND PUSH20 0xFFFFFFFFFFFFFFFFFFFFFFFFFFFFFFFFFFFFFFFF AND DUP2 MSTORE PUSH1 0x20 ADD SWAP1 PUSH1 0x1 ADD SWAP1 DUP1 DUP4 GT PUSH2 0x1A16 JUMPI JUMPDEST POP POP POP POP POP DUP4 PUSH2 0x1D43 JUMP JUMPDEST SWAP1 POP SWAP3 SWAP2 POP POP JUMP JUMPDEST PUSH1 0x0 PUSH32 0x1FFC9A700000000000000000000000000000000000000000000000000000000 PUSH28 0xFFFFFFFFFFFFFFFFFFFFFFFFFFFFFFFFFFFFFFFFFFFFFFFFFFFFFFFF NOT AND DUP3 PUSH28 0xFFFFFFFFFFFFFFFFFFFFFFFFFFFFFFFFFFFFFFFFFFFFFFFFFFFFFFFF NOT AND EQ SWAP1 POP SWAP2 SWAP1 POP JUMP JUMPDEST PUSH1 0x0 CALLER SWAP1 POP SWAP1 JUMP JUMPDEST PUSH2 0x1AEF DUP3 DUP3 PUSH2 0x13A9 JUMP JUMPDEST PUSH2 0x1B7E JUMPI PUSH2 0x1B14 DUP2 PUSH20 0xFFFFFFFFFFFFFFFFFFFFFFFFFFFFFFFFFFFFFFFF AND PUSH1 0x14 PUSH2 0x1DCB JUMP JUMPDEST PUSH2 0x1B22 DUP4 PUSH1 0x0 SHR PUSH1 0x20 PUSH2 0x1DCB JUMP JUMPDEST PUSH1 0x40 MLOAD PUSH1 0x20 ADD PUSH2 0x1B33 SWAP3 SWAP2 SWAP1 PUSH2 0x277C JUMP JUMPDEST PUSH1 0x40 MLOAD PUSH1 0x20 DUP2 DUP4 SUB SUB DUP2 MSTORE SWAP1 PUSH1 0x40 MSTORE PUSH1 0x40 MLOAD PUSH32 0x8C379A000000000000000000000000000000000000000000000000000000000 DUP2 MSTORE PUSH1 0x4 ADD PUSH2 0x1B75 SWAP2 SWAP1 PUSH2 0x27EC JUMP JUMPDEST PUSH1 0x40 MLOAD DUP1 SWAP2 SUB SWAP1 REVERT JUMPDEST POP POP JUMP JUMPDEST PUSH2 0x1B8C DUP3 DUP3 PUSH2 0x13A9 JUMP JUMPDEST PUSH2 0x1C5E JUMPI PUSH1 0x1 PUSH1 0x0 DUP1 DUP5 DUP2 MSTORE PUSH1 0x20 ADD SWAP1 DUP2 MSTORE PUSH1 0x20 ADD PUSH1 0x0 KECCAK256 PUSH1 0x0 ADD PUSH1 0x0 DUP4 PUSH20 0xFFFFFFFFFFFFFFFFFFFFFFFFFFFFFFFFFFFFFFFF AND PUSH20 0xFFFFFFFFFFFFFFFFFFFFFFFFFFFFFFFFFFFFFFFF AND DUP2 MSTORE PUSH1 0x20 ADD SWAP1 DUP2 MSTORE PUSH1 0x20 ADD PUSH1 0x0 KECCAK256 PUSH1 0x0 PUSH2 0x100 EXP DUP2 SLOAD DUP2 PUSH1 0xFF MUL NOT AND SWAP1 DUP4 ISZERO ISZERO MUL OR SWAP1 SSTORE POP PUSH2 0x1C03 PUSH2 0x1ADD JUMP JUMPDEST PUSH20 0xFFFFFFFFFFFFFFFFFFFFFFFFFFFFFFFFFFFFFFFF AND DUP2 PUSH20 0xFFFFFFFFFFFFFFFFFFFFFFFFFFFFFFFFFFFFFFFF AND DUP4 PUSH32 0x2F8788117E7EFF1D82E926EC794901D17C78024A50270940304540A733656F0D PUSH1 0x40 MLOAD PUSH1 0x40 MLOAD DUP1 SWAP2 SUB SWAP1 LOG4 JUMPDEST POP POP JUMP JUMPDEST PUSH2 0x1C6C DUP3 DUP3 PUSH2 0x13A9 JUMP JUMPDEST ISZERO PUSH2 0x1D3F JUMPI PUSH1 0x0 DUP1 PUSH1 0x0 DUP5 DUP2 MSTORE PUSH1 0x20 ADD SWAP1 DUP2 MSTORE PUSH1 0x20 ADD PUSH1 0x0 KECCAK256 PUSH1 0x0 ADD PUSH1 0x0 DUP4 PUSH20 0xFFFFFFFFFFFFFFFFFFFFFFFFFFFFFFFFFFFFFFFF AND PUSH20 0xFFFFFFFFFFFFFFFFFFFFFFFFFFFFFFFFFFFFFFFF AND DUP2 MSTORE PUSH1 0x20 ADD SWAP1 DUP2 MSTORE PUSH1 0x20 ADD PUSH1 0x0 KECCAK256 PUSH1 0x0 PUSH2 0x100 EXP DUP2 SLOAD DUP2 PUSH1 0xFF MUL NOT AND SWAP1 DUP4 ISZERO ISZERO MUL OR SWAP1 SSTORE POP PUSH2 0x1CE4 PUSH2 0x1ADD JUMP JUMPDEST PUSH20 0xFFFFFFFFFFFFFFFFFFFFFFFFFFFFFFFFFFFFFFFF AND DUP2 PUSH20 0xFFFFFFFFFFFFFFFFFFFFFFFFFFFFFFFFFFFFFFFF AND DUP4 PUSH32 0xF6391F5C32D9C69D2A47EA670B442974B53935D1EDC7FD64EB21E047A839171B PUSH1 0x40 MLOAD PUSH1 0x40 MLOAD DUP1 SWAP2 SUB SWAP1 LOG4 JUMPDEST POP POP JUMP JUMPDEST PUSH1 0x0 DUP1 PUSH1 0x0 SWAP1 POP JUMPDEST DUP4 MLOAD DUP2 LT ISZERO PUSH2 0x1DBF JUMPI DUP3 PUSH20 0xFFFFFFFFFFFFFFFFFFFFFFFFFFFFFFFFFFFFFFFF AND DUP5 DUP3 DUP2 MLOAD DUP2 LT PUSH2 0x1D7E JUMPI PUSH2 0x1D7D PUSH2 0x2EC5 JUMP JUMPDEST JUMPDEST PUSH1 0x20 MUL PUSH1 0x20 ADD ADD MLOAD PUSH20 0xFFFFFFFFFFFFFFFFFFFFFFFFFFFFFFFFFFFFFFFF AND EQ ISZERO PUSH2 0x1DAC JUMPI PUSH1 0x1 SWAP2 POP POP PUSH2 0x1DC5 JUMP JUMPDEST DUP1 DUP1 PUSH2 0x1DB7 SWAP1 PUSH2 0x2DEF JUMP JUMPDEST SWAP2 POP POP PUSH2 0x1D4B JUMP JUMPDEST POP PUSH1 0x0 SWAP1 POP JUMPDEST SWAP3 SWAP2 POP POP JUMP JUMPDEST PUSH1 0x60 PUSH1 0x0 PUSH1 0x2 DUP4 PUSH1 0x2 PUSH2 0x1DDE SWAP2 SWAP1 PUSH2 0x2BBF JUMP JUMPDEST PUSH2 0x1DE8 SWAP2 SWAP1 PUSH2 0x2B38 JUMP JUMPDEST PUSH8 0xFFFFFFFFFFFFFFFF DUP2 GT ISZERO PUSH2 0x1E01 JUMPI PUSH2 0x1E00 PUSH2 0x2EF4 JUMP JUMPDEST JUMPDEST PUSH1 0x40 MLOAD SWAP1 DUP1 DUP3 MSTORE DUP1 PUSH1 0x1F ADD PUSH1 0x1F NOT AND PUSH1 0x20 ADD DUP3 ADD PUSH1 0x40 MSTORE DUP1 ISZERO PUSH2 0x1E33 JUMPI DUP2 PUSH1 0x20 ADD PUSH1 0x1 DUP3 MUL DUP1 CALLDATASIZE DUP4 CALLDATACOPY DUP1 DUP3 ADD SWAP2 POP POP SWAP1 POP JUMPDEST POP SWAP1 POP PUSH32 0x3000000000000000000000000000000000000000000000000000000000000000 DUP2 PUSH1 0x0 DUP2 MLOAD DUP2 LT PUSH2 0x1E6B JUMPI PUSH2 0x1E6A PUSH2 0x2EC5 JUMP JUMPDEST JUMPDEST PUSH1 0x20 ADD ADD SWAP1 PUSH31 0xFFFFFFFFFFFFFFFFFFFFFFFFFFFFFFFFFFFFFFFFFFFFFFFFFFFFFFFFFFFFFF NOT AND SWAP1 DUP2 PUSH1 0x0 BYTE SWAP1 MSTORE8 POP PUSH32 0x7800000000000000000000000000000000000000000000000000000000000000 DUP2 PUSH1 0x1 DUP2 MLOAD DUP2 LT PUSH2 0x1ECF JUMPI PUSH2 0x1ECE PUSH2 0x2EC5 JUMP JUMPDEST JUMPDEST PUSH1 0x20 ADD ADD SWAP1 PUSH31 0xFFFFFFFFFFFFFFFFFFFFFFFFFFFFFFFFFFFFFFFFFFFFFFFFFFFFFFFFFFFFFF NOT AND SWAP1 DUP2 PUSH1 0x0 BYTE SWAP1 MSTORE8 POP PUSH1 0x0 PUSH1 0x1 DUP5 PUSH1 0x2 PUSH2 0x1F0F SWAP2 SWAP1 PUSH2 0x2BBF JUMP JUMPDEST PUSH2 0x1F19 SWAP2 SWAP1 PUSH2 0x2B38 JUMP JUMPDEST SWAP1 POP JUMPDEST PUSH1 0x1 DUP2 GT ISZERO PUSH2 0x1FB9 JUMPI PUSH32 0x3031323334353637383961626364656600000000000000000000000000000000 PUSH1 0xF DUP7 AND PUSH1 0x10 DUP2 LT PUSH2 0x1F5B JUMPI PUSH2 0x1F5A PUSH2 0x2EC5 JUMP JUMPDEST JUMPDEST BYTE PUSH1 0xF8 SHL DUP3 DUP3 DUP2 MLOAD DUP2 LT PUSH2 0x1F72 JUMPI PUSH2 0x1F71 PUSH2 0x2EC5 JUMP JUMPDEST JUMPDEST PUSH1 0x20 ADD ADD SWAP1 PUSH31 0xFFFFFFFFFFFFFFFFFFFFFFFFFFFFFFFFFFFFFFFFFFFFFFFFFFFFFFFFFFFFFF NOT AND SWAP1 DUP2 PUSH1 0x0 BYTE SWAP1 MSTORE8 POP PUSH1 0x4 DUP6 SWAP1 SHR SWAP5 POP DUP1 PUSH2 0x1FB2 SWAP1 PUSH2 0x2D62 JUMP JUMPDEST SWAP1 POP PUSH2 0x1F1C JUMP JUMPDEST POP PUSH1 0x0 DUP5 EQ PUSH2 0x1FFD JUMPI PUSH1 0x40 MLOAD PUSH32 0x8C379A000000000000000000000000000000000000000000000000000000000 DUP2 MSTORE PUSH1 0x4 ADD PUSH2 0x1FF4 SWAP1 PUSH2 0x28FB JUMP JUMPDEST PUSH1 0x40 MLOAD DUP1 SWAP2 SUB SWAP1 REVERT JUMPDEST DUP1 SWAP2 POP POP SWAP3 SWAP2 POP POP JUMP JUMPDEST DUP3 DUP1 SLOAD PUSH2 0x2013 SWAP1 PUSH2 0x2D8C JUMP JUMPDEST SWAP1 PUSH1 0x0 MSTORE PUSH1 0x20 PUSH1 0x0 KECCAK256 SWAP1 PUSH1 0x1F ADD PUSH1 0x20 SWAP1 DIV DUP2 ADD SWAP3 DUP3 PUSH2 0x2035 JUMPI PUSH1 0x0 DUP6 SSTORE PUSH2 0x207C JUMP JUMPDEST DUP3 PUSH1 0x1F LT PUSH2 0x204E JUMPI DUP1 MLOAD PUSH1 0xFF NOT AND DUP4 DUP1 ADD OR DUP6 SSTORE PUSH2 0x207C JUMP JUMPDEST DUP3 DUP1 ADD PUSH1 0x1 ADD DUP6 SSTORE DUP3 ISZERO PUSH2 0x207C JUMPI SWAP2 DUP3 ADD JUMPDEST DUP3 DUP2 GT ISZERO PUSH2 0x207B JUMPI DUP3 MLOAD DUP3 SSTORE SWAP2 PUSH1 0x20 ADD SWAP2 SWAP1 PUSH1 0x1 ADD SWAP1 PUSH2 0x2060 JUMP JUMPDEST JUMPDEST POP SWAP1 POP PUSH2 0x2089 SWAP2 SWAP1 PUSH2 0x208D JUMP JUMPDEST POP SWAP1 JUMP JUMPDEST JUMPDEST DUP1 DUP3 GT ISZERO PUSH2 0x20A6 JUMPI PUSH1 0x0 DUP2 PUSH1 0x0 SWAP1 SSTORE POP PUSH1 0x1 ADD PUSH2 0x208E JUMP JUMPDEST POP SWAP1 JUMP JUMPDEST PUSH1 0x0 PUSH2 0x20BD PUSH2 0x20B8 DUP5 PUSH2 0x2AE0 JUMP JUMPDEST PUSH2 0x2ABB JUMP JUMPDEST SWAP1 POP DUP3 DUP2 MSTORE PUSH1 0x20 DUP2 ADD DUP5 DUP5 DUP5 ADD GT ISZERO PUSH2 0x20D9 JUMPI PUSH2 0x20D8 PUSH2 0x2F28 JUMP JUMPDEST JUMPDEST PUSH2 0x20E4 DUP5 DUP3 DUP6 PUSH2 0x2D20 JUMP JUMPDEST POP SWAP4 SWAP3 POP POP POP JUMP JUMPDEST PUSH1 0x0 DUP2 CALLDATALOAD SWAP1 POP PUSH2 0x20FB DUP2 PUSH2 0x3293 JUMP JUMPDEST SWAP3 SWAP2 POP POP JUMP JUMPDEST PUSH1 0x0 DUP2 CALLDATALOAD SWAP1 POP PUSH2 0x2110 DUP2 PUSH2 0x32AA JUMP JUMPDEST SWAP3 SWAP2 POP POP JUMP JUMPDEST PUSH1 0x0 DUP2 CALLDATALOAD SWAP1 POP PUSH2 0x2125 DUP2 PUSH2 0x32C1 JUMP JUMPDEST SWAP3 SWAP2 POP POP JUMP JUMPDEST PUSH1 0x0 DUP2 CALLDATALOAD SWAP1 POP PUSH2 0x213A DUP2 PUSH2 0x32D8 JUMP JUMPDEST SWAP3 SWAP2 POP POP JUMP JUMPDEST PUSH1 0x0 DUP3 PUSH1 0x1F DUP4 ADD SLT PUSH2 0x2155 JUMPI PUSH2 0x2154 PUSH2 0x2F23 JUMP JUMPDEST JUMPDEST DUP2 CALLDATALOAD PUSH2 0x2165 DUP5 DUP3 PUSH1 0x20 DUP7 ADD PUSH2 0x20AA JUMP JUMPDEST SWAP2 POP POP SWAP3 SWAP2 POP POP JUMP JUMPDEST PUSH1 0x0 DUP2 CALLDATALOAD SWAP1 POP PUSH2 0x217D DUP2 PUSH2 0x32EF JUMP JUMPDEST SWAP3 SWAP2 POP POP JUMP JUMPDEST PUSH1 0x0 DUP2 CALLDATALOAD SWAP1 POP PUSH2 0x2192 DUP2 PUSH2 0x3306 JUMP JUMPDEST SWAP3 SWAP2 POP POP JUMP JUMPDEST PUSH1 0x0 PUSH1 0x20 DUP3 DUP5 SUB SLT ISZERO PUSH2 0x21AE JUMPI PUSH2 0x21AD PUSH2 0x2F32 JUMP JUMPDEST JUMPDEST PUSH1 0x0 PUSH2 0x21BC DUP5 DUP3 DUP6 ADD PUSH2 0x2116 JUMP JUMPDEST SWAP2 POP POP SWAP3 SWAP2 POP POP JUMP JUMPDEST PUSH1 0x0 DUP1 PUSH1 0x40 DUP4 DUP6 SUB SLT ISZERO PUSH2 0x21DC JUMPI PUSH2 0x21DB PUSH2 0x2F32 JUMP JUMPDEST JUMPDEST PUSH1 0x0 PUSH2 0x21EA DUP6 DUP3 DUP7 ADD PUSH2 0x2116 JUMP JUMPDEST SWAP3 POP POP PUSH1 0x20 PUSH2 0x21FB DUP6 DUP3 DUP7 ADD PUSH2 0x20EC JUMP JUMPDEST SWAP2 POP POP SWAP3 POP SWAP3 SWAP1 POP JUMP JUMPDEST PUSH1 0x0 PUSH1 0x20 DUP3 DUP5 SUB SLT ISZERO PUSH2 0x221B JUMPI PUSH2 0x221A PUSH2 0x2F32 JUMP JUMPDEST JUMPDEST PUSH1 0x0 PUSH2 0x2229 DUP5 DUP3 DUP6 ADD PUSH2 0x212B JUMP JUMPDEST SWAP2 POP POP SWAP3 SWAP2 POP POP JUMP JUMPDEST PUSH1 0x0 DUP1 PUSH1 0x0 DUP1 PUSH1 0x0 DUP1 PUSH1 0xC0 DUP8 DUP10 SUB SLT ISZERO PUSH2 0x224F JUMPI PUSH2 0x224E PUSH2 0x2F32 JUMP JUMPDEST JUMPDEST PUSH1 0x0 DUP8 ADD CALLDATALOAD PUSH8 0xFFFFFFFFFFFFFFFF DUP2 GT ISZERO PUSH2 0x226D JUMPI PUSH2 0x226C PUSH2 0x2F2D JUMP JUMPDEST JUMPDEST PUSH2 0x2279 DUP10 DUP3 DUP11 ADD PUSH2 0x2140 JUMP JUMPDEST SWAP7 POP POP PUSH1 0x20 DUP8 ADD CALLDATALOAD PUSH8 0xFFFFFFFFFFFFFFFF DUP2 GT ISZERO PUSH2 0x229A JUMPI PUSH2 0x2299 PUSH2 0x2F2D JUMP JUMPDEST JUMPDEST PUSH2 0x22A6 DUP10 DUP3 DUP11 ADD PUSH2 0x2140 JUMP JUMPDEST SWAP6 POP POP PUSH1 0x40 PUSH2 0x22B7 DUP10 DUP3 DUP11 ADD PUSH2 0x216E JUMP JUMPDEST SWAP5 POP POP PUSH1 0x60 DUP8 ADD CALLDATALOAD PUSH8 0xFFFFFFFFFFFFFFFF DUP2 GT ISZERO PUSH2 0x22D8 JUMPI PUSH2 0x22D7 PUSH2 0x2F2D JUMP JUMPDEST JUMPDEST PUSH2 0x22E4 DUP10 DUP3 DUP11 ADD PUSH2 0x2140 JUMP JUMPDEST SWAP4 POP POP PUSH1 0x80 PUSH2 0x22F5 DUP10 DUP3 DUP11 ADD PUSH2 0x2183 JUMP JUMPDEST SWAP3 POP POP PUSH1 0xA0 PUSH2 0x2306 DUP10 DUP3 DUP11 ADD PUSH2 0x2101 JUMP JUMPDEST SWAP2 POP POP SWAP3 SWAP6 POP SWAP3 SWAP6 POP SWAP3 SWAP6 JUMP JUMPDEST PUSH1 0x0 PUSH1 0x20 DUP3 DUP5 SUB SLT ISZERO PUSH2 0x2329 JUMPI PUSH2 0x2328 PUSH2 0x2F32 JUMP JUMPDEST JUMPDEST PUSH1 0x0 PUSH2 0x2337 DUP5 DUP3 DUP6 ADD PUSH2 0x216E JUMP JUMPDEST SWAP2 POP POP SWAP3 SWAP2 POP POP JUMP JUMPDEST PUSH1 0x0 DUP1 PUSH1 0x40 DUP4 DUP6 SUB SLT ISZERO PUSH2 0x2357 JUMPI PUSH2 0x2356 PUSH2 0x2F32 JUMP JUMPDEST JUMPDEST PUSH1 0x0 PUSH2 0x2365 DUP6 DUP3 DUP7 ADD PUSH2 0x216E JUMP JUMPDEST SWAP3 POP POP PUSH1 0x20 PUSH2 0x2376 DUP6 DUP3 DUP7 ADD PUSH2 0x20EC JUMP JUMPDEST SWAP2 POP POP SWAP3 POP SWAP3 SWAP1 POP JUMP JUMPDEST PUSH1 0x0 DUP1 PUSH1 0x40 DUP4 DUP6 SUB SLT ISZERO PUSH2 0x2397 JUMPI PUSH2 0x2396 PUSH2 0x2F32 JUMP JUMPDEST JUMPDEST PUSH1 0x0 PUSH2 0x23A5 DUP6 DUP3 DUP7 ADD PUSH2 0x216E JUMP JUMPDEST SWAP3 POP POP PUSH1 0x20 PUSH2 0x23B6 DUP6 DUP3 DUP7 ADD PUSH2 0x2101 JUMP JUMPDEST SWAP2 POP POP SWAP3 POP SWAP3 SWAP1 POP JUMP JUMPDEST PUSH1 0x0 DUP1 PUSH1 0x40 DUP4 DUP6 SUB SLT ISZERO PUSH2 0x23D7 JUMPI PUSH2 0x23D6 PUSH2 0x2F32 JUMP JUMPDEST JUMPDEST PUSH1 0x0 PUSH2 0x23E5 DUP6 DUP3 DUP7 ADD PUSH2 0x216E JUMP JUMPDEST SWAP3 POP POP PUSH1 0x20 DUP4 ADD CALLDATALOAD PUSH8 0xFFFFFFFFFFFFFFFF DUP2 GT ISZERO PUSH2 0x2406 JUMPI PUSH2 0x2405 PUSH2 0x2F2D JUMP JUMPDEST JUMPDEST PUSH2 0x2412 DUP6 DUP3 DUP7 ADD PUSH2 0x2140 JUMP JUMPDEST SWAP2 POP POP SWAP3 POP SWAP3 SWAP1 POP JUMP JUMPDEST PUSH1 0x0 DUP1 PUSH1 0x40 DUP4 DUP6 SUB SLT ISZERO PUSH2 0x2433 JUMPI PUSH2 0x2432 PUSH2 0x2F32 JUMP JUMPDEST JUMPDEST PUSH1 0x0 PUSH2 0x2441 DUP6 DUP3 DUP7 ADD PUSH2 0x216E JUMP JUMPDEST SWAP3 POP POP PUSH1 0x20 PUSH2 0x2452 DUP6 DUP3 DUP7 ADD PUSH2 0x216E JUMP JUMPDEST SWAP2 POP POP SWAP3 POP SWAP3 SWAP1 POP JUMP JUMPDEST PUSH1 0x0 DUP1 PUSH1 0x40 DUP4 DUP6 SUB SLT ISZERO PUSH2 0x2473 JUMPI PUSH2 0x2472 PUSH2 0x2F32 JUMP JUMPDEST JUMPDEST PUSH1 0x0 PUSH2 0x2481 DUP6 DUP3 DUP7 ADD PUSH2 0x216E JUMP JUMPDEST SWAP3 POP POP PUSH1 0x20 PUSH2 0x2492 DUP6 DUP3 DUP7 ADD PUSH2 0x2183 JUMP JUMPDEST SWAP2 POP POP SWAP3 POP SWAP3 SWAP1 POP JUMP JUMPDEST PUSH2 0x24A5 DUP2 PUSH2 0x2CEA JUMP JUMPDEST DUP3 MSTORE POP POP JUMP JUMPDEST PUSH2 0x24B4 DUP2 PUSH2 0x2C5F JUMP JUMPDEST DUP3 MSTORE POP POP JUMP JUMPDEST PUSH2 0x24C3 DUP2 PUSH2 0x2C4D JUMP JUMPDEST DUP3 MSTORE POP POP JUMP JUMPDEST PUSH2 0x24D2 DUP2 PUSH2 0x2C71 JUMP JUMPDEST DUP3 MSTORE POP POP JUMP JUMPDEST PUSH2 0x24E1 DUP2 PUSH2 0x2C7D JUMP JUMPDEST DUP3 MSTORE POP POP JUMP JUMPDEST PUSH1 0x0 PUSH2 0x24F2 DUP3 PUSH2 0x2B11 JUMP JUMPDEST PUSH2 0x24FC DUP2 DUP6 PUSH2 0x2B1C JUMP JUMPDEST SWAP4 POP PUSH2 0x250C DUP2 DUP6 PUSH1 0x20 DUP7 ADD PUSH2 0x2D2F JUMP JUMPDEST PUSH2 0x2515 DUP2 PUSH2 0x2F37 JUMP JUMPDEST DUP5 ADD SWAP2 POP POP SWAP3 SWAP2 POP POP JUMP JUMPDEST PUSH1 0x0 PUSH2 0x252B DUP3 PUSH2 0x2B11 JUMP JUMPDEST PUSH2 0x2535 DUP2 DUP6 PUSH2 0x2B2D JUMP JUMPDEST SWAP4 POP PUSH2 0x2545 DUP2 DUP6 PUSH1 0x20 DUP7 ADD PUSH2 0x2D2F JUMP JUMPDEST DUP1 DUP5 ADD SWAP2 POP POP SWAP3 SWAP2 POP POP JUMP JUMPDEST PUSH1 0x0 PUSH2 0x255E PUSH1 0x1F DUP4 PUSH2 0x2B1C JUMP JUMPDEST SWAP2 POP PUSH2 0x2569 DUP3 PUSH2 0x2F48 JUMP JUMPDEST PUSH1 0x20 DUP3 ADD SWAP1 POP SWAP2 SWAP1 POP JUMP JUMPDEST PUSH1 0x0 PUSH2 0x2581 PUSH1 0x3D DUP4 PUSH2 0x2B1C JUMP JUMPDEST SWAP2 POP PUSH2 0x258C DUP3 PUSH2 0x2F71 JUMP JUMPDEST PUSH1 0x40 DUP3 ADD SWAP1 POP SWAP2 SWAP1 POP JUMP JUMPDEST PUSH1 0x0 PUSH2 0x25A4 PUSH1 0x20 DUP4 PUSH2 0x2B1C JUMP JUMPDEST SWAP2 POP PUSH2 0x25AF DUP3 PUSH2 0x2FC0 JUMP JUMPDEST PUSH1 0x20 DUP3 ADD SWAP1 POP SWAP2 SWAP1 POP JUMP JUMPDEST PUSH1 0x0 PUSH2 0x25C7 PUSH1 0x14 DUP4 PUSH2 0x2B1C JUMP JUMPDEST SWAP2 POP PUSH2 0x25D2 DUP3 PUSH2 0x2FE9 JUMP JUMPDEST PUSH1 0x20 DUP3 ADD SWAP1 POP SWAP2 SWAP1 POP JUMP JUMPDEST PUSH1 0x0 PUSH2 0x25EA PUSH1 0x2C DUP4 PUSH2 0x2B1C JUMP JUMPDEST SWAP2 POP PUSH2 0x25F5 DUP3 PUSH2 0x3012 JUMP JUMPDEST PUSH1 0x40 DUP3 ADD SWAP1 POP SWAP2 SWAP1 POP JUMP JUMPDEST PUSH1 0x0 PUSH2 0x260D PUSH1 0x19 DUP4 PUSH2 0x2B1C JUMP JUMPDEST SWAP2 POP PUSH2 0x2618 DUP3 PUSH2 0x3061 JUMP JUMPDEST PUSH1 0x20 DUP3 ADD SWAP1 POP SWAP2 SWAP1 POP JUMP JUMPDEST PUSH1 0x0 PUSH2 0x2630 PUSH1 0x21 DUP4 PUSH2 0x2B1C JUMP JUMPDEST SWAP2 POP PUSH2 0x263B DUP3 PUSH2 0x308A JUMP JUMPDEST PUSH1 0x40 DUP3 ADD SWAP1 POP SWAP2 SWAP1 POP JUMP JUMPDEST PUSH1 0x0 PUSH2 0x2653 PUSH1 0x16 DUP4 PUSH2 0x2B1C JUMP JUMPDEST SWAP2 POP PUSH2 0x265E DUP3 PUSH2 0x30D9 JUMP JUMPDEST PUSH1 0x20 DUP3 ADD SWAP1 POP SWAP2 SWAP1 POP JUMP JUMPDEST PUSH1 0x0 PUSH2 0x2676 PUSH1 0x28 DUP4 PUSH2 0x2B1C JUMP JUMPDEST SWAP2 POP PUSH2 0x2681 DUP3 PUSH2 0x3102 JUMP JUMPDEST PUSH1 0x40 DUP3 ADD SWAP1 POP SWAP2 SWAP1 POP JUMP JUMPDEST PUSH1 0x0 PUSH2 0x2699 PUSH1 0x16 DUP4 PUSH2 0x2B1C JUMP JUMPDEST SWAP2 POP PUSH2 0x26A4 DUP3 PUSH2 0x3151 JUMP JUMPDEST PUSH1 0x20 DUP3 ADD SWAP1 POP SWAP2 SWAP1 POP JUMP JUMPDEST PUSH1 0x0 PUSH2 0x26BC PUSH1 0x25 DUP4 PUSH2 0x2B1C JUMP JUMPDEST SWAP2 POP PUSH2 0x26C7 DUP3 PUSH2 0x317A JUMP JUMPDEST PUSH1 0x40 DUP3 ADD SWAP1 POP SWAP2 SWAP1 POP JUMP JUMPDEST PUSH1 0x0 PUSH2 0x26DF PUSH1 0x17 DUP4 PUSH2 0x2B2D JUMP JUMPDEST SWAP2 POP PUSH2 0x26EA DUP3 PUSH2 0x31C9 JUMP JUMPDEST PUSH1 0x17 DUP3 ADD SWAP1 POP SWAP2 SWAP1 POP JUMP JUMPDEST PUSH1 0x0 PUSH2 0x2702 PUSH1 0x1C DUP4 PUSH2 0x2B1C JUMP JUMPDEST SWAP2 POP PUSH2 0x270D DUP3 PUSH2 0x31F2 JUMP JUMPDEST PUSH1 0x20 DUP3 ADD SWAP1 POP SWAP2 SWAP1 POP JUMP JUMPDEST PUSH1 0x0 PUSH2 0x2725 PUSH1 0x11 DUP4 PUSH2 0x2B2D JUMP JUMPDEST SWAP2 POP PUSH2 0x2730 DUP3 PUSH2 0x321B JUMP JUMPDEST PUSH1 0x11 DUP3 ADD SWAP1 POP SWAP2 SWAP1 POP JUMP JUMPDEST PUSH1 0x0 PUSH2 0x2748 PUSH1 0x2F DUP4 PUSH2 0x2B1C JUMP JUMPDEST SWAP2 POP PUSH2 0x2753 DUP3 PUSH2 0x3244 JUMP JUMPDEST PUSH1 0x40 DUP3 ADD SWAP1 POP SWAP2 SWAP1 POP JUMP JUMPDEST PUSH2 0x2767 DUP2 PUSH2 0x2CD3 JUMP JUMPDEST DUP3 MSTORE POP POP JUMP JUMPDEST PUSH2 0x2776 DUP2 PUSH2 0x2CDD JUMP JUMPDEST DUP3 MSTORE POP POP JUMP JUMPDEST PUSH1 0x0 PUSH2 0x2787 DUP3 PUSH2 0x26D2 JUMP JUMPDEST SWAP2 POP PUSH2 0x2793 DUP3 DUP6 PUSH2 0x2520 JUMP JUMPDEST SWAP2 POP PUSH2 0x279E DUP3 PUSH2 0x2718 JUMP JUMPDEST SWAP2 POP PUSH2 0x27AA DUP3 DUP5 PUSH2 0x2520 JUMP JUMPDEST SWAP2 POP DUP2 SWAP1 POP SWAP4 SWAP3 POP POP POP JUMP JUMPDEST PUSH1 0x0 PUSH1 0x20 DUP3 ADD SWAP1 POP PUSH2 0x27CB PUSH1 0x0 DUP4 ADD DUP5 PUSH2 0x24C9 JUMP JUMPDEST SWAP3 SWAP2 POP POP JUMP JUMPDEST PUSH1 0x0 PUSH1 0x20 DUP3 ADD SWAP1 POP PUSH2 0x27E6 PUSH1 0x0 DUP4 ADD DUP5 PUSH2 0x24D8 JUMP JUMPDEST SWAP3 SWAP2 POP POP JUMP JUMPDEST PUSH1 0x0 PUSH1 0x20 DUP3 ADD SWAP1 POP DUP2 DUP2 SUB PUSH1 0x0 DUP4 ADD MSTORE PUSH2 0x2806 DUP2 DUP5 PUSH2 0x24E7 JUMP JUMPDEST SWAP1 POP SWAP3 SWAP2 POP POP JUMP JUMPDEST PUSH1 0x0 PUSH1 0x80 DUP3 ADD SWAP1 POP DUP2 DUP2 SUB PUSH1 0x0 DUP4 ADD MSTORE PUSH2 0x2828 DUP2 DUP8 PUSH2 0x24E7 JUMP JUMPDEST SWAP1 POP PUSH2 0x2837 PUSH1 0x20 DUP4 ADD DUP7 PUSH2 0x24AB JUMP JUMPDEST PUSH2 0x2844 PUSH1 0x40 DUP4 ADD DUP6 PUSH2 0x275E JUMP JUMPDEST PUSH2 0x2851 PUSH1 0x60 DUP4 ADD DUP5 PUSH2 0x24C9 JUMP JUMPDEST SWAP6 SWAP5 POP POP POP POP POP JUMP JUMPDEST PUSH1 0x0 PUSH1 0xA0 DUP3 ADD SWAP1 POP DUP2 DUP2 SUB PUSH1 0x0 DUP4 ADD MSTORE PUSH2 0x2874 DUP2 DUP9 PUSH2 0x24E7 JUMP JUMPDEST SWAP1 POP DUP2 DUP2 SUB PUSH1 0x20 DUP4 ADD MSTORE PUSH2 0x2888 DUP2 DUP8 PUSH2 0x24E7 JUMP JUMPDEST SWAP1 POP PUSH2 0x2897 PUSH1 0x40 DUP4 ADD DUP7 PUSH2 0x276D JUMP JUMPDEST PUSH2 0x28A4 PUSH1 0x60 DUP4 ADD DUP6 PUSH2 0x275E JUMP JUMPDEST PUSH2 0x28B1 PUSH1 0x80 DUP4 ADD DUP5 PUSH2 0x275E JUMP JUMPDEST SWAP7 SWAP6 POP POP POP POP POP POP JUMP JUMPDEST PUSH1 0x0 PUSH1 0x20 DUP3 ADD SWAP1 POP DUP2 DUP2 SUB PUSH1 0x0 DUP4 ADD MSTORE PUSH2 0x28D4 DUP2 PUSH2 0x2551 JUMP JUMPDEST SWAP1 POP SWAP2 SWAP1 POP JUMP JUMPDEST PUSH1 0x0 PUSH1 0x20 DUP3 ADD SWAP1 POP DUP2 DUP2 SUB PUSH1 0x0 DUP4 ADD MSTORE PUSH2 0x28F4 DUP2 PUSH2 0x2574 JUMP JUMPDEST SWAP1 POP SWAP2 SWAP1 POP JUMP JUMPDEST PUSH1 0x0 PUSH1 0x20 DUP3 ADD SWAP1 POP DUP2 DUP2 SUB PUSH1 0x0 DUP4 ADD MSTORE PUSH2 0x2914 DUP2 PUSH2 0x2597 JUMP JUMPDEST SWAP1 POP SWAP2 SWAP1 POP JUMP JUMPDEST PUSH1 0x0 PUSH1 0x20 DUP3 ADD SWAP1 POP DUP2 DUP2 SUB PUSH1 0x0 DUP4 ADD MSTORE PUSH2 0x2934 DUP2 PUSH2 0x25BA JUMP JUMPDEST SWAP1 POP SWAP2 SWAP1 POP JUMP JUMPDEST PUSH1 0x0 PUSH1 0x20 DUP3 ADD SWAP1 POP DUP2 DUP2 SUB PUSH1 0x0 DUP4 ADD MSTORE PUSH2 0x2954 DUP2 PUSH2 0x25DD JUMP JUMPDEST SWAP1 POP SWAP2 SWAP1 POP JUMP JUMPDEST PUSH1 0x0 PUSH1 0x20 DUP3 ADD SWAP1 POP DUP2 DUP2 SUB PUSH1 0x0 DUP4 ADD MSTORE PUSH2 0x2974 DUP2 PUSH2 0x2600 JUMP JUMPDEST SWAP1 POP SWAP2 SWAP1 POP JUMP JUMPDEST PUSH1 0x0 PUSH1 0x20 DUP3 ADD SWAP1 POP DUP2 DUP2 SUB PUSH1 0x0 DUP4 ADD MSTORE PUSH2 0x2994 DUP2 PUSH2 0x2623 JUMP JUMPDEST SWAP1 POP SWAP2 SWAP1 POP JUMP JUMPDEST PUSH1 0x0 PUSH1 0x20 DUP3 ADD SWAP1 POP DUP2 DUP2 SUB PUSH1 0x0 DUP4 ADD MSTORE PUSH2 0x29B4 DUP2 PUSH2 0x2646 JUMP JUMPDEST SWAP1 POP SWAP2 SWAP1 POP JUMP JUMPDEST PUSH1 0x0 PUSH1 0x20 DUP3 ADD SWAP1 POP DUP2 DUP2 SUB PUSH1 0x0 DUP4 ADD MSTORE PUSH2 0x29D4 DUP2 PUSH2 0x2669 JUMP JUMPDEST SWAP1 POP SWAP2 SWAP1 POP JUMP JUMPDEST PUSH1 0x0 PUSH1 0x20 DUP3 ADD SWAP1 POP DUP2 DUP2 SUB PUSH1 0x0 DUP4 ADD MSTORE PUSH2 0x29F4 DUP2 PUSH2 0x268C JUMP JUMPDEST SWAP1 POP SWAP2 SWAP1 POP JUMP JUMPDEST PUSH1 0x0 PUSH1 0x20 DUP3 ADD SWAP1 POP DUP2 DUP2 SUB PUSH1 0x0 DUP4 ADD MSTORE PUSH2 0x2A14 DUP2 PUSH2 0x26AF JUMP JUMPDEST SWAP1 POP SWAP2 SWAP1 POP JUMP JUMPDEST PUSH1 0x0 PUSH1 0x20 DUP3 ADD SWAP1 POP DUP2 DUP2 SUB PUSH1 0x0 DUP4 ADD MSTORE PUSH2 0x2A34 DUP2 PUSH2 0x26F5 JUMP JUMPDEST SWAP1 POP SWAP2 SWAP1 POP JUMP JUMPDEST PUSH1 0x0 PUSH1 0x20 DUP3 ADD SWAP1 POP DUP2 DUP2 SUB PUSH1 0x0 DUP4 ADD MSTORE PUSH2 0x2A54 DUP2 PUSH2 0x273B JUMP JUMPDEST SWAP1 POP SWAP2 SWAP1 POP JUMP JUMPDEST PUSH1 0x0 PUSH1 0x20 DUP3 ADD SWAP1 POP PUSH2 0x2A70 PUSH1 0x0 DUP4 ADD DUP5 PUSH2 0x275E JUMP JUMPDEST SWAP3 SWAP2 POP POP JUMP JUMPDEST PUSH1 0x0 PUSH1 0x80 DUP3 ADD SWAP1 POP PUSH2 0x2A8B PUSH1 0x0 DUP4 ADD DUP8 PUSH2 0x275E JUMP JUMPDEST PUSH2 0x2A98 PUSH1 0x20 DUP4 ADD DUP7 PUSH2 0x275E JUMP JUMPDEST PUSH2 0x2AA5 PUSH1 0x40 DUP4 ADD DUP6 PUSH2 0x249C JUMP JUMPDEST PUSH2 0x2AB2 PUSH1 0x60 DUP4 ADD DUP5 PUSH2 0x24BA JUMP JUMPDEST SWAP6 SWAP5 POP POP POP POP POP JUMP JUMPDEST PUSH1 0x0 PUSH2 0x2AC5 PUSH2 0x2AD6 JUMP JUMPDEST SWAP1 POP PUSH2 0x2AD1 DUP3 DUP3 PUSH2 0x2DBE JUMP JUMPDEST SWAP2 SWAP1 POP JUMP JUMPDEST PUSH1 0x0 PUSH1 0x40 MLOAD SWAP1 POP SWAP1 JUMP JUMPDEST PUSH1 0x0 PUSH8 0xFFFFFFFFFFFFFFFF DUP3 GT ISZERO PUSH2 0x2AFB JUMPI PUSH2 0x2AFA PUSH2 0x2EF4 JUMP JUMPDEST JUMPDEST PUSH2 0x2B04 DUP3 PUSH2 0x2F37 JUMP JUMPDEST SWAP1 POP PUSH1 0x20 DUP2 ADD SWAP1 POP SWAP2 SWAP1 POP JUMP JUMPDEST PUSH1 0x0 DUP2 MLOAD SWAP1 POP SWAP2 SWAP1 POP JUMP JUMPDEST PUSH1 0x0 DUP3 DUP3 MSTORE PUSH1 0x20 DUP3 ADD SWAP1 POP SWAP3 SWAP2 POP POP JUMP JUMPDEST PUSH1 0x0 DUP2 SWAP1 POP SWAP3 SWAP2 POP POP JUMP JUMPDEST PUSH1 0x0 PUSH2 0x2B43 DUP3 PUSH2 0x2CD3 JUMP JUMPDEST SWAP2 POP PUSH2 0x2B4E DUP4 PUSH2 0x2CD3 JUMP JUMPDEST SWAP3 POP DUP3 PUSH32 0xFFFFFFFFFFFFFFFFFFFFFFFFFFFFFFFFFFFFFFFFFFFFFFFFFFFFFFFFFFFFFFFF SUB DUP3 GT ISZERO PUSH2 0x2B83 JUMPI PUSH2 0x2B82 PUSH2 0x2E38 JUMP JUMPDEST JUMPDEST DUP3 DUP3 ADD SWAP1 POP SWAP3 SWAP2 POP POP JUMP JUMPDEST PUSH1 0x0 PUSH2 0x2B99 DUP3 PUSH2 0x2CD3 JUMP JUMPDEST SWAP2 POP PUSH2 0x2BA4 DUP4 PUSH2 0x2CD3 JUMP JUMPDEST SWAP3 POP DUP3 PUSH2 0x2BB4 JUMPI PUSH2 0x2BB3 PUSH2 0x2E67 JUMP JUMPDEST JUMPDEST DUP3 DUP3 DIV SWAP1 POP SWAP3 SWAP2 POP POP JUMP JUMPDEST PUSH1 0x0 PUSH2 0x2BCA DUP3 PUSH2 0x2CD3 JUMP JUMPDEST SWAP2 POP PUSH2 0x2BD5 DUP4 PUSH2 0x2CD3 JUMP JUMPDEST SWAP3 POP DUP2 PUSH32 0xFFFFFFFFFFFFFFFFFFFFFFFFFFFFFFFFFFFFFFFFFFFFFFFFFFFFFFFFFFFFFFFF DIV DUP4 GT DUP3 ISZERO ISZERO AND ISZERO PUSH2 0x2C0E JUMPI PUSH2 0x2C0D PUSH2 0x2E38 JUMP JUMPDEST JUMPDEST DUP3 DUP3 MUL SWAP1 POP SWAP3 SWAP2 POP POP JUMP JUMPDEST PUSH1 0x0 PUSH2 0x2C24 DUP3 PUSH2 0x2CDD JUMP JUMPDEST SWAP2 POP PUSH2 0x2C2F DUP4 PUSH2 0x2CDD JUMP JUMPDEST SWAP3 POP DUP3 DUP3 LT ISZERO PUSH2 0x2C42 JUMPI PUSH2 0x2C41 PUSH2 0x2E38 JUMP JUMPDEST JUMPDEST DUP3 DUP3 SUB SWAP1 POP SWAP3 SWAP2 POP POP JUMP JUMPDEST PUSH1 0x0 PUSH2 0x2C58 DUP3 PUSH2 0x2CB3 JUMP JUMPDEST SWAP1 POP SWAP2 SWAP1 POP JUMP JUMPDEST PUSH1 0x0 PUSH2 0x2C6A DUP3 PUSH2 0x2CB3 JUMP JUMPDEST SWAP1 POP SWAP2 SWAP1 POP JUMP JUMPDEST PUSH1 0x0 DUP2 ISZERO ISZERO SWAP1 POP SWAP2 SWAP1 POP JUMP JUMPDEST PUSH1 0x0 DUP2 SWAP1 POP SWAP2 SWAP1 POP JUMP JUMPDEST PUSH1 0x0 PUSH32 0xFFFFFFFF00000000000000000000000000000000000000000000000000000000 DUP3 AND SWAP1 POP SWAP2 SWAP1 POP JUMP JUMPDEST PUSH1 0x0 PUSH20 0xFFFFFFFFFFFFFFFFFFFFFFFFFFFFFFFFFFFFFFFF DUP3 AND SWAP1 POP SWAP2 SWAP1 POP JUMP JUMPDEST PUSH1 0x0 DUP2 SWAP1 POP SWAP2 SWAP1 POP JUMP JUMPDEST PUSH1 0x0 PUSH1 0xFF DUP3 AND SWAP1 POP SWAP2 SWAP1 POP JUMP JUMPDEST PUSH1 0x0 PUSH2 0x2CF5 DUP3 PUSH2 0x2CFC JUMP JUMPDEST SWAP1 POP SWAP2 SWAP1 POP JUMP JUMPDEST PUSH1 0x0 PUSH2 0x2D07 DUP3 PUSH2 0x2D0E JUMP JUMPDEST SWAP1 POP SWAP2 SWAP1 POP JUMP JUMPDEST PUSH1 0x0 PUSH2 0x2D19 DUP3 PUSH2 0x2CB3 JUMP JUMPDEST SWAP1 POP SWAP2 SWAP1 POP JUMP JUMPDEST DUP3 DUP2 DUP4 CALLDATACOPY PUSH1 0x0 DUP4 DUP4 ADD MSTORE POP POP POP JUMP JUMPDEST PUSH1 0x0 JUMPDEST DUP4 DUP2 LT ISZERO PUSH2 0x2D4D JUMPI DUP1 DUP3 ADD MLOAD DUP2 DUP5 ADD MSTORE PUSH1 0x20 DUP2 ADD SWAP1 POP PUSH2 0x2D32 JUMP JUMPDEST DUP4 DUP2 GT ISZERO PUSH2 0x2D5C JUMPI PUSH1 0x0 DUP5 DUP5 ADD MSTORE JUMPDEST POP POP POP POP JUMP JUMPDEST PUSH1 0x0 PUSH2 0x2D6D DUP3 PUSH2 0x2CD3 JUMP JUMPDEST SWAP2 POP PUSH1 0x0 DUP3 EQ ISZERO PUSH2 0x2D81 JUMPI PUSH2 0x2D80 PUSH2 0x2E38 JUMP JUMPDEST JUMPDEST PUSH1 0x1 DUP3 SUB SWAP1 POP SWAP2 SWAP1 POP JUMP JUMPDEST PUSH1 0x0 PUSH1 0x2 DUP3 DIV SWAP1 POP PUSH1 0x1 DUP3 AND DUP1 PUSH2 0x2DA4 JUMPI PUSH1 0x7F DUP3 AND SWAP2 POP JUMPDEST PUSH1 0x20 DUP3 LT DUP2 EQ ISZERO PUSH2 0x2DB8 JUMPI PUSH2 0x2DB7 PUSH2 0x2E96 JUMP JUMPDEST JUMPDEST POP SWAP2 SWAP1 POP JUMP JUMPDEST PUSH2 0x2DC7 DUP3 PUSH2 0x2F37 JUMP JUMPDEST DUP2 ADD DUP2 DUP2 LT PUSH8 0xFFFFFFFFFFFFFFFF DUP3 GT OR ISZERO PUSH2 0x2DE6 JUMPI PUSH2 0x2DE5 PUSH2 0x2EF4 JUMP JUMPDEST JUMPDEST DUP1 PUSH1 0x40 MSTORE POP POP POP JUMP JUMPDEST PUSH1 0x0 PUSH2 0x2DFA DUP3 PUSH2 0x2CD3 JUMP JUMPDEST SWAP2 POP PUSH32 0xFFFFFFFFFFFFFFFFFFFFFFFFFFFFFFFFFFFFFFFFFFFFFFFFFFFFFFFFFFFFFFFF DUP3 EQ ISZERO PUSH2 0x2E2D JUMPI PUSH2 0x2E2C PUSH2 0x2E38 JUMP JUMPDEST JUMPDEST PUSH1 0x1 DUP3 ADD SWAP1 POP SWAP2 SWAP1 POP JUMP JUMPDEST PUSH32 0x4E487B7100000000000000000000000000000000000000000000000000000000 PUSH1 0x0 MSTORE PUSH1 0x11 PUSH1 0x4 MSTORE PUSH1 0x24 PUSH1 0x0 REVERT JUMPDEST PUSH32 0x4E487B7100000000000000000000000000000000000000000000000000000000 PUSH1 0x0 MSTORE PUSH1 0x12 PUSH1 0x4 MSTORE PUSH1 0x24 PUSH1 0x0 REVERT JUMPDEST PUSH32 0x4E487B7100000000000000000000000000000000000000000000000000000000 PUSH1 0x0 MSTORE PUSH1 0x22 PUSH1 0x4 MSTORE PUSH1 0x24 PUSH1 0x0 REVERT JUMPDEST PUSH32 0x4E487B7100000000000000000000000000000000000000000000000000000000 PUSH1 0x0 MSTORE PUSH1 0x32 PUSH1 0x4 MSTORE PUSH1 0x24 PUSH1 0x0 REVERT JUMPDEST PUSH32 0x4E487B7100000000000000000000000000000000000000000000000000000000 PUSH1 0x0 MSTORE PUSH1 0x41 PUSH1 0x4 MSTORE PUSH1 0x24 PUSH1 0x0 REVERT JUMPDEST PUSH1 0x0 DUP1 REVERT JUMPDEST PUSH1 0x0 DUP1 REVERT JUMPDEST PUSH1 0x0 DUP1 REVERT JUMPDEST PUSH1 0x0 DUP1 REVERT JUMPDEST PUSH1 0x0 PUSH1 0x1F NOT PUSH1 0x1F DUP4 ADD AND SWAP1 POP SWAP2 SWAP1 POP JUMP JUMPDEST PUSH32 0x5175616E74697479206D7573742062652067726561746572207468616E203000 PUSH1 0x0 DUP3 ADD MSTORE POP JUMP JUMPDEST PUSH32 0x5175616E74697479206D757374206265206C657373207468616E206F72206571 PUSH1 0x0 DUP3 ADD MSTORE PUSH32 0x75616C20746F2074686520617661696C61626C65207175616E74697479000000 PUSH1 0x20 DUP3 ADD MSTORE POP JUMP JUMPDEST PUSH32 0x537472696E67733A20686578206C656E67746820696E73756666696369656E74 PUSH1 0x0 DUP3 ADD MSTORE POP JUMP JUMPDEST PUSH32 0x507269636520646F6573206E6F74206D61746368000000000000000000000000 PUSH1 0x0 DUP3 ADD MSTORE POP JUMP JUMPDEST PUSH32 0x4F6E6C792070726F647563742073656C6C65722063616E206578656375746520 PUSH1 0x0 DUP3 ADD MSTORE PUSH32 0x7468697320616374696F6E2E0000000000000000000000000000000000000000 PUSH1 0x20 DUP3 ADD MSTORE POP JUMP JUMPDEST PUSH32 0x4D61726B6574206974656D206973206E6F742061637469766500000000000000 PUSH1 0x0 DUP3 ADD MSTORE POP JUMP JUMPDEST PUSH32 0x596F752063616E6E6F7420766F746520666F7220746869732070726F64756374 PUSH1 0x0 DUP3 ADD MSTORE PUSH32 0x2E00000000000000000000000000000000000000000000000000000000000000 PUSH1 0x20 DUP3 ADD MSTORE POP JUMP JUMPDEST PUSH32 0x4D61726B6574206974656D20697320626C6F636B656400000000000000000000 PUSH1 0x0 DUP3 ADD MSTORE POP JUMP JUMPDEST PUSH32 0x5374617273206D7573742062652067726561746572207468616E206F72206571 PUSH1 0x0 DUP3 ADD MSTORE PUSH32 0x75616C20746F2031000000000000000000000000000000000000000000000000 PUSH1 0x20 DUP3 ADD MSTORE POP JUMP JUMPDEST PUSH32 0x5468652073656C6C65722063616E6E6F7420766F746500000000000000000000 PUSH1 0x0 DUP3 ADD MSTORE POP JUMP JUMPDEST PUSH32 0x5374617273206D757374206265206C657373207468616E206F7220657175616C PUSH1 0x0 DUP3 ADD MSTORE PUSH32 0x20746F2035000000000000000000000000000000000000000000000000000000 PUSH1 0x20 DUP3 ADD MSTORE POP JUMP JUMPDEST PUSH32 0x416363657373436F6E74726F6C3A206163636F756E7420000000000000000000 PUSH1 0x0 DUP3 ADD MSTORE POP JUMP JUMPDEST PUSH32 0x5072696365206D7573742062652067726561746572207468616E203000000000 PUSH1 0x0 DUP3 ADD MSTORE POP JUMP JUMPDEST PUSH32 0x206973206D697373696E6720726F6C6520000000000000000000000000000000 PUSH1 0x0 DUP3 ADD MSTORE POP JUMP JUMPDEST PUSH32 0x416363657373436F6E74726F6C3A2063616E206F6E6C792072656E6F756E6365 PUSH1 0x0 DUP3 ADD MSTORE PUSH32 0x20726F6C657320666F722073656C660000000000000000000000000000000000 PUSH1 0x20 DUP3 ADD MSTORE POP JUMP JUMPDEST PUSH2 0x329C DUP2 PUSH2 0x2C4D JUMP JUMPDEST DUP2 EQ PUSH2 0x32A7 JUMPI PUSH1 0x0 DUP1 REVERT JUMPDEST POP JUMP JUMPDEST PUSH2 0x32B3 DUP2 PUSH2 0x2C71 JUMP JUMPDEST DUP2 EQ PUSH2 0x32BE JUMPI PUSH1 0x0 DUP1 REVERT JUMPDEST POP JUMP JUMPDEST PUSH2 0x32CA DUP2 PUSH2 0x2C7D JUMP JUMPDEST DUP2 EQ PUSH2 0x32D5 JUMPI PUSH1 0x0 DUP1 REVERT JUMPDEST POP JUMP JUMPDEST PUSH2 0x32E1 DUP2 PUSH2 0x2C87 JUMP JUMPDEST DUP2 EQ PUSH2 0x32EC JUMPI PUSH1 0x0 DUP1 REVERT JUMPDEST POP JUMP JUMPDEST PUSH2 0x32F8 DUP2 PUSH2 0x2CD3 JUMP JUMPDEST DUP2 EQ PUSH2 0x3303 JUMPI PUSH1 0x0 DUP1 REVERT JUMPDEST POP JUMP JUMPDEST PUSH2 0x330F DUP2 PUSH2 0x2CDD JUMP JUMPDEST DUP2 EQ PUSH2 0x331A JUMPI PUSH1 0x0 DUP1 REVERT JUMPDEST POP JUMP INVALID LOG2 PUSH5 0x6970667358 0x22 SLT KECCAK256 DUP8 0xCC SMOD DUP5 PUSH17 0x2EF51674587F291280C486322B2B2F6A12 SWAP8 PUSH27 0x58B0097D2DB2A81C64736F6C634300080700330000000000000000 "
				},
				"gasEstimates": {
					"creation": {
						"codeDepositCost": "2627800",
						"executionCost": "infinite",
						"totalCost": "infinite"
					},
					"external": {
						"DEFAULT_ADMIN_ROLE()": "380",
						"MARKETPLACE_OWNER()": "440",
						"buyMarketItem(uint256,uint8)": "infinite",
						"checkBuyer(uint256,address)": "infinite",
						"createMarketItem(string,string,uint256,string,uint8,bool)": "infinite",
						"getAverageStars(uint256)": "infinite",
						"getMarketItem(uint256)": "infinite",
						"getMarketItemDetails(uint256)": "infinite",
						"getRoleAdmin(bytes32)": "infinite",
						"grantRole(bytes32,address)": "infinite",
						"hasRole(bytes32,address)": "3163",
						"nextItemId()": "2474",
						"renounceRole(bytes32,address)": "infinite",
						"revokeRole(bytes32,address)": "infinite",
						"supportsInterface(bytes4)": "751",
						"updateBlockMarketItem(uint256,bool)": "infinite",
						"updateMarketItemActive(uint256,bool)": "49414",
						"updateMarketItemDescription(uint256,string)": "infinite",
						"updateMarketItemImgUrl(uint256,string)": "infinite",
						"updateMarketItemPrice(uint256,uint256)": "infinite",
						"updateMarketItemQuantity(uint256,uint8)": "49480",
						"voteMarketItemStars(uint256,uint8)": "infinite"
					},
					"internal": {
						"indexOf(address[] memory,address)": "infinite"
					}
				},
				"methodIdentifiers": {
					"DEFAULT_ADMIN_ROLE()": "a217fddf",
					"MARKETPLACE_OWNER()": "b491efa0",
					"buyMarketItem(uint256,uint8)": "1dfef0eb",
					"checkBuyer(uint256,address)": "fec4d15d",
					"createMarketItem(string,string,uint256,string,uint8,bool)": "77247d91",
					"getAverageStars(uint256)": "7735904f",
					"getMarketItem(uint256)": "c7be7a49",
					"getMarketItemDetails(uint256)": "88d9e84c",
					"getRoleAdmin(bytes32)": "248a9ca3",
					"grantRole(bytes32,address)": "2f2ff15d",
					"hasRole(bytes32,address)": "91d14854",
					"nextItemId()": "6a868974",
					"renounceRole(bytes32,address)": "36568abe",
					"revokeRole(bytes32,address)": "d547741f",
					"supportsInterface(bytes4)": "01ffc9a7",
					"updateBlockMarketItem(uint256,bool)": "a63c7020",
					"updateMarketItemActive(uint256,bool)": "bf9c6554",
					"updateMarketItemDescription(uint256,string)": "8f28afee",
					"updateMarketItemImgUrl(uint256,string)": "f0d2d06d",
					"updateMarketItemPrice(uint256,uint256)": "ae13a317",
					"updateMarketItemQuantity(uint256,uint8)": "eca1e6a0",
					"voteMarketItemStars(uint256,uint8)": "0c3774fc"
				}
			},
			"storageLayout": {
				"storage": [
					{
						"astId": 24,
						"contract": "Marketplace.sol:Marketplace",
						"label": "_roles",
						"offset": 0,
						"slot": "0",
						"type": "t_mapping(t_bytes32,t_struct(RoleData)19_storage)"
					},
					{
						"astId": 655,
						"contract": "Marketplace.sol:Marketplace",
						"label": "nextItemId",
						"offset": 0,
						"slot": "1",
						"type": "t_uint256"
					},
					{
						"astId": 693,
						"contract": "Marketplace.sol:Marketplace",
						"label": "idToBuyerAddress",
						"offset": 0,
						"slot": "2",
						"type": "t_mapping(t_uint256,t_array(t_address)dyn_storage)"
					},
					{
						"astId": 698,
						"contract": "Marketplace.sol:Marketplace",
						"label": "idToMarketItem",
						"offset": 0,
						"slot": "3",
						"type": "t_mapping(t_uint256,t_struct(MarketItem)688_storage)"
					},
					{
						"astId": 704,
						"contract": "Marketplace.sol:Marketplace",
						"label": "addressToProductVotes",
						"offset": 0,
						"slot": "4",
						"type": "t_mapping(t_address,t_mapping(t_uint256,t_uint8))"
					}
				],
				"types": {
					"t_address": {
						"encoding": "inplace",
						"label": "address",
						"numberOfBytes": "20"
					},
					"t_address_payable": {
						"encoding": "inplace",
						"label": "address payable",
						"numberOfBytes": "20"
					},
					"t_array(t_address)dyn_storage": {
						"base": "t_address",
						"encoding": "dynamic_array",
						"label": "address[]",
						"numberOfBytes": "32"
					},
					"t_bool": {
						"encoding": "inplace",
						"label": "bool",
						"numberOfBytes": "1"
					},
					"t_bytes32": {
						"encoding": "inplace",
						"label": "bytes32",
						"numberOfBytes": "32"
					},
					"t_mapping(t_address,t_bool)": {
						"encoding": "mapping",
						"key": "t_address",
						"label": "mapping(address => bool)",
						"numberOfBytes": "32",
						"value": "t_bool"
					},
					"t_mapping(t_address,t_mapping(t_uint256,t_uint8))": {
						"encoding": "mapping",
						"key": "t_address",
						"label": "mapping(address => mapping(uint256 => uint8))",
						"numberOfBytes": "32",
						"value": "t_mapping(t_uint256,t_uint8)"
					},
					"t_mapping(t_bytes32,t_struct(RoleData)19_storage)": {
						"encoding": "mapping",
						"key": "t_bytes32",
						"label": "mapping(bytes32 => struct AccessControl.RoleData)",
						"numberOfBytes": "32",
						"value": "t_struct(RoleData)19_storage"
					},
					"t_mapping(t_uint256,t_array(t_address)dyn_storage)": {
						"encoding": "mapping",
						"key": "t_uint256",
						"label": "mapping(uint256 => address[])",
						"numberOfBytes": "32",
						"value": "t_array(t_address)dyn_storage"
					},
					"t_mapping(t_uint256,t_struct(MarketItem)688_storage)": {
						"encoding": "mapping",
						"key": "t_uint256",
						"label": "mapping(uint256 => struct Marketplace.MarketItem)",
						"numberOfBytes": "32",
						"value": "t_struct(MarketItem)688_storage"
					},
					"t_mapping(t_uint256,t_uint8)": {
						"encoding": "mapping",
						"key": "t_uint256",
						"label": "mapping(uint256 => uint8)",
						"numberOfBytes": "32",
						"value": "t_uint8"
					},
					"t_string_storage": {
						"encoding": "bytes",
						"label": "string",
						"numberOfBytes": "32"
					},
					"t_struct(MarketItem)688_storage": {
						"encoding": "inplace",
						"label": "struct Marketplace.MarketItem",
						"members": [
							{
								"astId": 667,
								"contract": "Marketplace.sol:Marketplace",
								"label": "itemId",
								"offset": 0,
								"slot": "0",
								"type": "t_uint256"
							},
							{
								"astId": 669,
								"contract": "Marketplace.sol:Marketplace",
								"label": "title",
								"offset": 0,
								"slot": "1",
								"type": "t_string_storage"
							},
							{
								"astId": 671,
								"contract": "Marketplace.sol:Marketplace",
								"label": "description",
								"offset": 0,
								"slot": "2",
								"type": "t_string_storage"
							},
							{
								"astId": 673,
								"contract": "Marketplace.sol:Marketplace",
								"label": "price",
								"offset": 0,
								"slot": "3",
								"type": "t_uint256"
							},
							{
								"astId": 675,
								"contract": "Marketplace.sol:Marketplace",
								"label": "seller",
								"offset": 0,
								"slot": "4",
								"type": "t_address_payable"
							},
							{
								"astId": 677,
								"contract": "Marketplace.sol:Marketplace",
								"label": "imageUrl",
								"offset": 0,
								"slot": "5",
								"type": "t_string_storage"
							},
							{
								"astId": 679,
								"contract": "Marketplace.sol:Marketplace",
								"label": "quantity",
								"offset": 0,
								"slot": "6",
								"type": "t_uint8"
							},
							{
								"astId": 681,
								"contract": "Marketplace.sol:Marketplace",
								"label": "createdAt",
								"offset": 0,
								"slot": "7",
								"type": "t_uint256"
							},
							{
								"astId": 683,
								"contract": "Marketplace.sol:Marketplace",
								"label": "updatedAt",
								"offset": 0,
								"slot": "8",
								"type": "t_uint256"
							},
							{
								"astId": 685,
								"contract": "Marketplace.sol:Marketplace",
								"label": "isActive",
								"offset": 0,
								"slot": "9",
								"type": "t_bool"
							},
							{
								"astId": 687,
								"contract": "Marketplace.sol:Marketplace",
								"label": "isBlocked",
								"offset": 1,
								"slot": "9",
								"type": "t_bool"
							}
						],
						"numberOfBytes": "320"
					},
					"t_struct(RoleData)19_storage": {
						"encoding": "inplace",
						"label": "struct AccessControl.RoleData",
						"members": [
							{
								"astId": 16,
								"contract": "Marketplace.sol:Marketplace",
								"label": "members",
								"offset": 0,
								"slot": "0",
								"type": "t_mapping(t_address,t_bool)"
							},
							{
								"astId": 18,
								"contract": "Marketplace.sol:Marketplace",
								"label": "adminRole",
								"offset": 0,
								"slot": "1",
								"type": "t_bytes32"
							}
						],
						"numberOfBytes": "64"
					},
					"t_uint256": {
						"encoding": "inplace",
						"label": "uint256",
						"numberOfBytes": "32"
					},
					"t_uint8": {
						"encoding": "inplace",
						"label": "uint8",
						"numberOfBytes": "1"
					}
				}
			},
			"userdoc": {
				"kind": "user",
				"methods": {},
				"version": 1
			}
		}
	}
}