{
	"Marketplace.sol": {
		"Marketplace": {
			"abi": [
				{
					"inputs": [],
					"stateMutability": "nonpayable",
					"type": "constructor"
				},
				{
					"anonymous": false,
					"inputs": [
						{
							"indexed": false,
							"internalType": "uint256",
							"name": "_itemId",
							"type": "uint256"
						},
						{
							"indexed": false,
							"internalType": "uint256",
							"name": "_price",
							"type": "uint256"
						},
						{
							"indexed": false,
							"internalType": "address",
							"name": "_seller",
							"type": "address"
						},
						{
							"indexed": false,
							"internalType": "address",
							"name": "_buyer",
							"type": "address"
						}
					],
					"name": "BuyItem",
					"type": "event"
				},
				{
					"anonymous": false,
					"inputs": [
						{
							"indexed": true,
							"internalType": "bytes32",
							"name": "role",
							"type": "bytes32"
						},
						{
							"indexed": true,
							"internalType": "bytes32",
							"name": "previousAdminRole",
							"type": "bytes32"
						},
						{
							"indexed": true,
							"internalType": "bytes32",
							"name": "newAdminRole",
							"type": "bytes32"
						}
					],
					"name": "RoleAdminChanged",
					"type": "event"
				},
				{
					"anonymous": false,
					"inputs": [
						{
							"indexed": true,
							"internalType": "bytes32",
							"name": "role",
							"type": "bytes32"
						},
						{
							"indexed": true,
							"internalType": "address",
							"name": "account",
							"type": "address"
						},
						{
							"indexed": true,
							"internalType": "address",
							"name": "sender",
							"type": "address"
						}
					],
					"name": "RoleGranted",
					"type": "event"
				},
				{
					"anonymous": false,
					"inputs": [
						{
							"indexed": true,
							"internalType": "bytes32",
							"name": "role",
							"type": "bytes32"
						},
						{
							"indexed": true,
							"internalType": "address",
							"name": "account",
							"type": "address"
						},
						{
							"indexed": true,
							"internalType": "address",
							"name": "sender",
							"type": "address"
						}
					],
					"name": "RoleRevoked",
					"type": "event"
				},
				{
					"inputs": [],
					"name": "DEFAULT_ADMIN_ROLE",
					"outputs": [
						{
							"internalType": "bytes32",
							"name": "",
							"type": "bytes32"
						}
					],
					"stateMutability": "view",
					"type": "function"
				},
				{
					"inputs": [],
					"name": "MARKETPLACE_OWNER",
					"outputs": [
						{
							"internalType": "bytes32",
							"name": "",
							"type": "bytes32"
						}
					],
					"stateMutability": "view",
					"type": "function"
				},
				{
					"inputs": [
						{
							"internalType": "uint256",
							"name": "_itemId",
							"type": "uint256"
						},
						{
							"internalType": "uint8",
							"name": "_quantity",
							"type": "uint8"
						}
					],
					"name": "buyMarketItem",
					"outputs": [],
					"stateMutability": "payable",
					"type": "function"
				},
				{
					"inputs": [
						{
							"internalType": "uint256",
							"name": "_itemId",
							"type": "uint256"
						},
						{
							"internalType": "address",
							"name": "_buyer",
							"type": "address"
						}
					],
					"name": "checkBuyer",
					"outputs": [
						{
							"internalType": "bool",
							"name": "",
							"type": "bool"
						}
					],
					"stateMutability": "view",
					"type": "function"
				},
				{
					"inputs": [
						{
							"internalType": "string",
							"name": "_title",
							"type": "string"
						},
						{
							"internalType": "string",
							"name": "_description",
							"type": "string"
						},
						{
							"internalType": "uint256",
							"name": "_price",
							"type": "uint256"
						},
						{
							"internalType": "string",
							"name": "_imageUrl",
							"type": "string"
						},
						{
							"internalType": "uint8",
							"name": "_quantity",
							"type": "uint8"
						},
						{
							"internalType": "bool",
							"name": "_isActive",
							"type": "bool"
						}
					],
					"name": "createMarketItem",
					"outputs": [],
					"stateMutability": "nonpayable",
					"type": "function"
				},
				{
					"inputs": [
						{
							"internalType": "uint256",
							"name": "_itemId",
							"type": "uint256"
						}
					],
					"name": "getAverageStars",
					"outputs": [
						{
							"internalType": "uint256",
							"name": "",
							"type": "uint256"
						}
					],
					"stateMutability": "view",
					"type": "function"
				},
				{
					"inputs": [
						{
							"internalType": "uint256",
							"name": "_itemId",
							"type": "uint256"
						}
					],
					"name": "getMarketItem",
					"outputs": [
						{
							"internalType": "string",
							"name": "title",
							"type": "string"
						},
						{
							"internalType": "address payable",
							"name": "seller",
							"type": "address"
						},
						{
							"internalType": "uint256",
							"name": "price",
							"type": "uint256"
						},
						{
							"internalType": "bool",
							"name": "isActive",
							"type": "bool"
						}
					],
					"stateMutability": "view",
					"type": "function"
				},
				{
					"inputs": [
						{
							"internalType": "uint256",
							"name": "_itemId",
							"type": "uint256"
						}
					],
					"name": "getMarketItemDetails",
					"outputs": [
						{
							"internalType": "string",
							"name": "description",
							"type": "string"
						},
						{
							"internalType": "string",
							"name": "imageUrl",
							"type": "string"
						},
						{
							"internalType": "uint8",
							"name": "quantity",
							"type": "uint8"
						},
						{
							"internalType": "uint256",
							"name": "createdAt",
							"type": "uint256"
						},
						{
							"internalType": "uint256",
							"name": "updatedAt",
							"type": "uint256"
						}
					],
					"stateMutability": "view",
					"type": "function"
				},
				{
					"inputs": [
						{
							"internalType": "bytes32",
							"name": "role",
							"type": "bytes32"
						}
					],
					"name": "getRoleAdmin",
					"outputs": [
						{
							"internalType": "bytes32",
							"name": "",
							"type": "bytes32"
						}
					],
					"stateMutability": "view",
					"type": "function"
				},
				{
					"inputs": [
						{
							"internalType": "bytes32",
							"name": "role",
							"type": "bytes32"
						},
						{
							"internalType": "address",
							"name": "account",
							"type": "address"
						}
					],
					"name": "grantRole",
					"outputs": [],
					"stateMutability": "nonpayable",
					"type": "function"
				},
				{
					"inputs": [
						{
							"internalType": "bytes32",
							"name": "role",
							"type": "bytes32"
						},
						{
							"internalType": "address",
							"name": "account",
							"type": "address"
						}
					],
					"name": "hasRole",
					"outputs": [
						{
							"internalType": "bool",
							"name": "",
							"type": "bool"
						}
					],
					"stateMutability": "view",
					"type": "function"
				},
				{
					"inputs": [],
					"name": "nextItemId",
					"outputs": [
						{
							"internalType": "uint256",
							"name": "",
							"type": "uint256"
						}
					],
					"stateMutability": "view",
					"type": "function"
				},
				{
					"inputs": [
						{
							"internalType": "bytes32",
							"name": "role",
							"type": "bytes32"
						},
						{
							"internalType": "address",
							"name": "account",
							"type": "address"
						}
					],
					"name": "renounceRole",
					"outputs": [],
					"stateMutability": "nonpayable",
					"type": "function"
				},
				{
					"inputs": [
						{
							"internalType": "bytes32",
							"name": "role",
							"type": "bytes32"
						},
						{
							"internalType": "address",
							"name": "account",
							"type": "address"
						}
					],
					"name": "revokeRole",
					"outputs": [],
					"stateMutability": "nonpayable",
					"type": "function"
				},
				{
					"inputs": [
						{
							"internalType": "bytes4",
							"name": "interfaceId",
							"type": "bytes4"
						}
					],
					"name": "supportsInterface",
					"outputs": [
						{
							"internalType": "bool",
							"name": "",
							"type": "bool"
						}
					],
					"stateMutability": "view",
					"type": "function"
				},
				{
					"inputs": [
						{
							"internalType": "uint256",
							"name": "_itemId",
							"type": "uint256"
						},
						{
							"internalType": "bool",
							"name": "_isActive",
							"type": "bool"
						}
					],
					"name": "updateMarketItemActive",
					"outputs": [],
					"stateMutability": "nonpayable",
					"type": "function"
				},
				{
					"inputs": [
						{
							"internalType": "uint256",
							"name": "_itemId",
							"type": "uint256"
						},
						{
							"internalType": "string",
							"name": "_description",
							"type": "string"
						}
					],
					"name": "updateMarketItemDescription",
					"outputs": [],
					"stateMutability": "nonpayable",
					"type": "function"
				},
				{
					"inputs": [
						{
							"internalType": "uint256",
							"name": "_itemId",
							"type": "uint256"
						},
						{
							"internalType": "string",
							"name": "_imageUrl",
							"type": "string"
						}
					],
					"name": "updateMarketItemImgUrl",
					"outputs": [],
					"stateMutability": "nonpayable",
					"type": "function"
				},
				{
					"inputs": [
						{
							"internalType": "uint256",
							"name": "_itemId",
							"type": "uint256"
						},
						{
							"internalType": "uint256",
							"name": "_price",
							"type": "uint256"
						}
					],
					"name": "updateMarketItemPrice",
					"outputs": [],
					"stateMutability": "nonpayable",
					"type": "function"
				},
				{
					"inputs": [
						{
							"internalType": "uint256",
							"name": "_itemId",
							"type": "uint256"
						},
						{
							"internalType": "uint8",
							"name": "_quantity",
							"type": "uint8"
						}
					],
					"name": "updateMarketItemQuantity",
					"outputs": [],
					"stateMutability": "nonpayable",
					"type": "function"
				},
				{
					"inputs": [
						{
							"internalType": "uint256",
							"name": "_itemId",
							"type": "uint256"
						},
						{
							"internalType": "uint8",
							"name": "_stars",
							"type": "uint8"
						}
					],
					"name": "voteMarketItemStars",
					"outputs": [],
					"stateMutability": "nonpayable",
					"type": "function"
				}
			],
			"devdoc": {
				"kind": "dev",
				"methods": {
					"getRoleAdmin(bytes32)": {
						"details": "Returns the admin role that controls `role`. See {grantRole} and {revokeRole}. To change a role's admin, use {_setRoleAdmin}."
					},
					"grantRole(bytes32,address)": {
						"details": "Grants `role` to `account`. If `account` had not been already granted `role`, emits a {RoleGranted} event. Requirements: - the caller must have ``role``'s admin role."
					},
					"hasRole(bytes32,address)": {
						"details": "Returns `true` if `account` has been granted `role`."
					},
					"renounceRole(bytes32,address)": {
						"details": "Revokes `role` from the calling account. Roles are often managed via {grantRole} and {revokeRole}: this function's purpose is to provide a mechanism for accounts to lose their privileges if they are compromised (such as when a trusted device is misplaced). If the calling account had been revoked `role`, emits a {RoleRevoked} event. Requirements: - the caller must be `account`."
					},
					"revokeRole(bytes32,address)": {
						"details": "Revokes `role` from `account`. If `account` had been granted `role`, emits a {RoleRevoked} event. Requirements: - the caller must have ``role``'s admin role."
					},
					"supportsInterface(bytes4)": {
						"details": "See {IERC165-supportsInterface}."
					}
				},
				"version": 1
			},
			"evm": {
				"assembly": "    /* \"Marketplace.sol\":122:5629  contract Marketplace is  AccessControl {\r... */\n  mstore(0x40, 0x80)\n    /* \"Marketplace.sol\":277:278  0 */\n  0x00\n    /* \"Marketplace.sol\":249:278  uint256 public nextItemId = 0 */\n  0x01\n  sstore\n    /* \"Marketplace.sol\":891:965  constructor() {\r... */\n  callvalue\n  dup1\n  iszero\n  tag_1\n  jumpi\n  0x00\n  dup1\n  revert\ntag_1:\n  pop\n    /* \"Marketplace.sol\":916:957  _grantRole(MARKETPLACE_OWNER, msg.sender) */\n  tag_4\n    /* \"Marketplace.sol\":212:242  keccak256(\"MARKETPLACE_OWNER\") */\n  0x1f9ca85e780b3b3cfbe1334ca9dd68802db7860f692bd163c796bb76d464edc0\n    /* \"Marketplace.sol\":946:956  msg.sender */\n  caller\n    /* \"Marketplace.sol\":916:926  _grantRole */\n  shl(0x20, tag_5)\n    /* \"Marketplace.sol\":916:957  _grantRole(MARKETPLACE_OWNER, msg.sender) */\n  0x20\n  shr\n  jump\t// in\ntag_4:\n    /* \"Marketplace.sol\":122:5629  contract Marketplace is  AccessControl {\r... */\n  jump(tag_6)\n    /* \"@openzeppelin/contracts/access/AccessControl.sol\":6861:7094  function _grantRole(bytes32 role, address account) internal virtual {... */\ntag_5:\n    /* \"@openzeppelin/contracts/access/AccessControl.sol\":6944:6966  hasRole(role, account) */\n  tag_8\n    /* \"@openzeppelin/contracts/access/AccessControl.sol\":6952:6956  role */\n  dup3\n    /* \"@openzeppelin/contracts/access/AccessControl.sol\":6958:6965  account */\n  dup3\n    /* \"@openzeppelin/contracts/access/AccessControl.sol\":6944:6951  hasRole */\n  shl(0x20, tag_9)\n    /* \"@openzeppelin/contracts/access/AccessControl.sol\":6944:6966  hasRole(role, account) */\n  0x20\n  shr\n  jump\t// in\ntag_8:\n    /* \"@openzeppelin/contracts/access/AccessControl.sol\":6939:7088  if (!hasRole(role, account)) {... */\n  tag_10\n  jumpi\n    /* \"@openzeppelin/contracts/access/AccessControl.sol\":7014:7018  true */\n  0x01\n    /* \"@openzeppelin/contracts/access/AccessControl.sol\":6982:6988  _roles */\n  0x00\n    /* \"@openzeppelin/contracts/access/AccessControl.sol\":6982:6994  _roles[role] */\n  dup1\n    /* \"@openzeppelin/contracts/access/AccessControl.sol\":6989:6993  role */\n  dup5\n    /* \"@openzeppelin/contracts/access/AccessControl.sol\":6982:6994  _roles[role] */\n  dup2\n  mstore\n  0x20\n  add\n  swap1\n  dup2\n  mstore\n  0x20\n  add\n  0x00\n  keccak256\n    /* \"@openzeppelin/contracts/access/AccessControl.sol\":6982:7002  _roles[role].members */\n  0x00\n  add\n    /* \"@openzeppelin/contracts/access/AccessControl.sol\":6982:7011  _roles[role].members[account] */\n  0x00\n    /* \"@openzeppelin/contracts/access/AccessControl.sol\":7003:7010  account */\n  dup4\n    /* \"@openzeppelin/contracts/access/AccessControl.sol\":6982:7011  _roles[role].members[account] */\n  0xffffffffffffffffffffffffffffffffffffffff\n  and\n  0xffffffffffffffffffffffffffffffffffffffff\n  and\n  dup2\n  mstore\n  0x20\n  add\n  swap1\n  dup2\n  mstore\n  0x20\n  add\n  0x00\n  keccak256\n  0x00\n    /* \"@openzeppelin/contracts/access/AccessControl.sol\":6982:7018  _roles[role].members[account] = true */\n  0x0100\n  exp\n  dup2\n  sload\n  dup2\n  0xff\n  mul\n  not\n  and\n  swap1\n  dup4\n  iszero\n  iszero\n  mul\n  or\n  swap1\n  sstore\n  pop\n    /* \"@openzeppelin/contracts/access/AccessControl.sol\":7064:7076  _msgSender() */\n  tag_11\n    /* \"@openzeppelin/contracts/access/AccessControl.sol\":7064:7074  _msgSender */\n  shl(0x20, tag_12)\n    /* \"@openzeppelin/contracts/access/AccessControl.sol\":7064:7076  _msgSender() */\n  0x20\n  shr\n  jump\t// in\ntag_11:\n    /* \"@openzeppelin/contracts/access/AccessControl.sol\":7037:7077  RoleGranted(role, account, _msgSender()) */\n  0xffffffffffffffffffffffffffffffffffffffff\n  and\n    /* \"@openzeppelin/contracts/access/AccessControl.sol\":7055:7062  account */\n  dup2\n    /* \"@openzeppelin/contracts/access/AccessControl.sol\":7037:7077  RoleGranted(role, account, _msgSender()) */\n  0xffffffffffffffffffffffffffffffffffffffff\n  and\n    /* \"@openzeppelin/contracts/access/AccessControl.sol\":7049:7053  role */\n  dup4\n    /* \"@openzeppelin/contracts/access/AccessControl.sol\":7037:7077  RoleGranted(role, account, _msgSender()) */\n  0x2f8788117e7eff1d82e926ec794901d17c78024a50270940304540a733656f0d\n  mload(0x40)\n  mload(0x40)\n  dup1\n  swap2\n  sub\n  swap1\n  log4\n    /* \"@openzeppelin/contracts/access/AccessControl.sol\":6939:7088  if (!hasRole(role, account)) {... */\ntag_10:\n    /* \"@openzeppelin/contracts/access/AccessControl.sol\":6861:7094  function _grantRole(bytes32 role, address account) internal virtual {... */\n  pop\n  pop\n  jump\t// out\n    /* \"@openzeppelin/contracts/access/AccessControl.sol\":2909:3054  function hasRole(bytes32 role, address account) public view virtual override returns (bool) {... */\ntag_9:\n    /* \"@openzeppelin/contracts/access/AccessControl.sol\":2995:2999  bool */\n  0x00\n    /* \"@openzeppelin/contracts/access/AccessControl.sol\":3018:3024  _roles */\n  dup1\n    /* \"@openzeppelin/contracts/access/AccessControl.sol\":3018:3030  _roles[role] */\n  0x00\n    /* \"@openzeppelin/contracts/access/AccessControl.sol\":3025:3029  role */\n  dup5\n    /* \"@openzeppelin/contracts/access/AccessControl.sol\":3018:3030  _roles[role] */\n  dup2\n  mstore\n  0x20\n  add\n  swap1\n  dup2\n  mstore\n  0x20\n  add\n  0x00\n  keccak256\n    /* \"@openzeppelin/contracts/access/AccessControl.sol\":3018:3038  _roles[role].members */\n  0x00\n  add\n    /* \"@openzeppelin/contracts/access/AccessControl.sol\":3018:3047  _roles[role].members[account] */\n  0x00\n    /* \"@openzeppelin/contracts/access/AccessControl.sol\":3039:3046  account */\n  dup4\n    /* \"@openzeppelin/contracts/access/AccessControl.sol\":3018:3047  _roles[role].members[account] */\n  0xffffffffffffffffffffffffffffffffffffffff\n  and\n  0xffffffffffffffffffffffffffffffffffffffff\n  and\n  dup2\n  mstore\n  0x20\n  add\n  swap1\n  dup2\n  mstore\n  0x20\n  add\n  0x00\n  keccak256\n  0x00\n  swap1\n  sload\n  swap1\n  0x0100\n  exp\n  swap1\n  div\n  0xff\n  and\n    /* \"@openzeppelin/contracts/access/AccessControl.sol\":3011:3047  return _roles[role].members[account] */\n  swap1\n  pop\n    /* \"@openzeppelin/contracts/access/AccessControl.sol\":2909:3054  function hasRole(bytes32 role, address account) public view virtual override returns (bool) {... */\n  swap3\n  swap2\n  pop\n  pop\n  jump\t// out\n    /* \"@openzeppelin/contracts/utils/Context.sol\":640:736  function _msgSender() internal view virtual returns (address) {... */\ntag_12:\n    /* \"@openzeppelin/contracts/utils/Context.sol\":693:700  address */\n  0x00\n    /* \"@openzeppelin/contracts/utils/Context.sol\":719:729  msg.sender */\n  caller\n    /* \"@openzeppelin/contracts/utils/Context.sol\":712:729  return msg.sender */\n  swap1\n  pop\n    /* \"@openzeppelin/contracts/utils/Context.sol\":640:736  function _msgSender() internal view virtual returns (address) {... */\n  swap1\n  jump\t// out\n    /* \"Marketplace.sol\":122:5629  contract Marketplace is  AccessControl {\r... */\ntag_6:\n  dataSize(sub_0)\n  dup1\n  dataOffset(sub_0)\n  0x00\n  codecopy\n  0x00\n  return\nstop\n\nsub_0: assembly {\n        /* \"Marketplace.sol\":122:5629  contract Marketplace is  AccessControl {\r... */\n      mstore(0x40, 0x80)\n      jumpi(tag_1, lt(calldatasize, 0x04))\n      shr(0xe0, calldataload(0x00))\n      dup1\n      0x8f28afee\n      gt\n      tag_23\n      jumpi\n      dup1\n      0xbf9c6554\n      gt\n      tag_24\n      jumpi\n      dup1\n      0xbf9c6554\n      eq\n      tag_17\n      jumpi\n      dup1\n      0xc7be7a49\n      eq\n      tag_18\n      jumpi\n      dup1\n      0xd547741f\n      eq\n      tag_19\n      jumpi\n      dup1\n      0xeca1e6a0\n      eq\n      tag_20\n      jumpi\n      dup1\n      0xf0d2d06d\n      eq\n      tag_21\n      jumpi\n      dup1\n      0xfec4d15d\n      eq\n      tag_22\n      jumpi\n      jump(tag_1)\n    tag_24:\n      dup1\n      0x8f28afee\n      eq\n      tag_12\n      jumpi\n      dup1\n      0x91d14854\n      eq\n      tag_13\n      jumpi\n      dup1\n      0xa217fddf\n      eq\n      tag_14\n      jumpi\n      dup1\n      0xae13a317\n      eq\n      tag_15\n      jumpi\n      dup1\n      0xb491efa0\n      eq\n      tag_16\n      jumpi\n      jump(tag_1)\n    tag_23:\n      dup1\n      0x36568abe\n      gt\n      tag_25\n      jumpi\n      dup1\n      0x36568abe\n      eq\n      tag_7\n      jumpi\n      dup1\n      0x6a868974\n      eq\n      tag_8\n      jumpi\n      dup1\n      0x77247d91\n      eq\n      tag_9\n      jumpi\n      dup1\n      0x7735904f\n      eq\n      tag_10\n      jumpi\n      dup1\n      0x88d9e84c\n      eq\n      tag_11\n      jumpi\n      jump(tag_1)\n    tag_25:\n      dup1\n      0x01ffc9a7\n      eq\n      tag_2\n      jumpi\n      dup1\n      0x0c3774fc\n      eq\n      tag_3\n      jumpi\n      dup1\n      0x1dfef0eb\n      eq\n      tag_4\n      jumpi\n      dup1\n      0x248a9ca3\n      eq\n      tag_5\n      jumpi\n      dup1\n      0x2f2ff15d\n      eq\n      tag_6\n      jumpi\n    tag_1:\n      0x00\n      dup1\n      revert\n        /* \"@openzeppelin/contracts/access/AccessControl.sol\":2620:2822  function supportsInterface(bytes4 interfaceId) public view virtual override returns (bool) {... */\n    tag_2:\n      callvalue\n      dup1\n      iszero\n      tag_26\n      jumpi\n      0x00\n      dup1\n      revert\n    tag_26:\n      pop\n      tag_27\n      0x04\n      dup1\n      calldatasize\n      sub\n      dup2\n      add\n      swap1\n      tag_28\n      swap2\n      swap1\n      tag_29\n      jump\t// in\n    tag_28:\n      tag_30\n      jump\t// in\n    tag_27:\n      mload(0x40)\n      tag_31\n      swap2\n      swap1\n      tag_32\n      jump\t// in\n    tag_31:\n      mload(0x40)\n      dup1\n      swap2\n      sub\n      swap1\n      return\n        /* \"Marketplace.sol\":4636:5098  function voteMarketItemStars(uint256 _itemId, uint8 _stars) public {\r... */\n    tag_3:\n      callvalue\n      dup1\n      iszero\n      tag_33\n      jumpi\n      0x00\n      dup1\n      revert\n    tag_33:\n      pop\n      tag_34\n      0x04\n      dup1\n      calldatasize\n      sub\n      dup2\n      add\n      swap1\n      tag_35\n      swap2\n      swap1\n      tag_36\n      jump\t// in\n    tag_35:\n      tag_37\n      jump\t// in\n    tag_34:\n      stop\n        /* \"Marketplace.sol\":1595:2371  function buyMarketItem(uint256 _itemId, uint8 _quantity) public payable {\r... */\n    tag_4:\n      tag_38\n      0x04\n      dup1\n      calldatasize\n      sub\n      dup2\n      add\n      swap1\n      tag_39\n      swap2\n      swap1\n      tag_36\n      jump\t// in\n    tag_39:\n      tag_40\n      jump\t// in\n    tag_38:\n      stop\n        /* \"@openzeppelin/contracts/access/AccessControl.sol\":4008:4137  function getRoleAdmin(bytes32 role) public view virtual override returns (bytes32) {... */\n    tag_5:\n      callvalue\n      dup1\n      iszero\n      tag_41\n      jumpi\n      0x00\n      dup1\n      revert\n    tag_41:\n      pop\n      tag_42\n      0x04\n      dup1\n      calldatasize\n      sub\n      dup2\n      add\n      swap1\n      tag_43\n      swap2\n      swap1\n      tag_44\n      jump\t// in\n    tag_43:\n      tag_45\n      jump\t// in\n    tag_42:\n      mload(0x40)\n      tag_46\n      swap2\n      swap1\n      tag_47\n      jump\t// in\n    tag_46:\n      mload(0x40)\n      dup1\n      swap2\n      sub\n      swap1\n      return\n        /* \"@openzeppelin/contracts/access/AccessControl.sol\":4387:4532  function grantRole(bytes32 role, address account) public virtual override onlyRole(getRoleAdmin(role)) {... */\n    tag_6:\n      callvalue\n      dup1\n      iszero\n      tag_48\n      jumpi\n      0x00\n      dup1\n      revert\n    tag_48:\n      pop\n      tag_49\n      0x04\n      dup1\n      calldatasize\n      sub\n      dup2\n      add\n      swap1\n      tag_50\n      swap2\n      swap1\n      tag_51\n      jump\t// in\n    tag_50:\n      tag_52\n      jump\t// in\n    tag_49:\n      stop\n        /* \"@openzeppelin/contracts/access/AccessControl.sol\":5404:5618  function renounceRole(bytes32 role, address account) public virtual override {... */\n    tag_7:\n      callvalue\n      dup1\n      iszero\n      tag_53\n      jumpi\n      0x00\n      dup1\n      revert\n    tag_53:\n      pop\n      tag_54\n      0x04\n      dup1\n      calldatasize\n      sub\n      dup2\n      add\n      swap1\n      tag_55\n      swap2\n      swap1\n      tag_51\n      jump\t// in\n    tag_55:\n      tag_56\n      jump\t// in\n    tag_54:\n      stop\n        /* \"Marketplace.sol\":249:278  uint256 public nextItemId = 0 */\n    tag_8:\n      callvalue\n      dup1\n      iszero\n      tag_57\n      jumpi\n      0x00\n      dup1\n      revert\n    tag_57:\n      pop\n      tag_58\n      tag_59\n      jump\t// in\n    tag_58:\n      mload(0x40)\n      tag_60\n      swap2\n      swap1\n      tag_61\n      jump\t// in\n    tag_60:\n      mload(0x40)\n      dup1\n      swap2\n      sub\n      swap1\n      return\n        /* \"Marketplace.sol\":1157:1587  function createMarketItem(string memory _title, string memory _description, uint256 _price, string memory _imageUrl, uint8 _quantity, bool _isActive) public {\r... */\n    tag_9:\n      callvalue\n      dup1\n      iszero\n      tag_62\n      jumpi\n      0x00\n      dup1\n      revert\n    tag_62:\n      pop\n      tag_63\n      0x04\n      dup1\n      calldatasize\n      sub\n      dup2\n      add\n      swap1\n      tag_64\n      swap2\n      swap1\n      tag_65\n      jump\t// in\n    tag_64:\n      tag_66\n      jump\t// in\n    tag_63:\n      stop\n        /* \"Marketplace.sol\":5108:5626  function getAverageStars(uint256 _itemId) public view returns (uint256) {\r... */\n    tag_10:\n      callvalue\n      dup1\n      iszero\n      tag_67\n      jumpi\n      0x00\n      dup1\n      revert\n    tag_67:\n      pop\n      tag_68\n      0x04\n      dup1\n      calldatasize\n      sub\n      dup2\n      add\n      swap1\n      tag_69\n      swap2\n      swap1\n      tag_70\n      jump\t// in\n    tag_69:\n      tag_71\n      jump\t// in\n    tag_68:\n      mload(0x40)\n      tag_72\n      swap2\n      swap1\n      tag_61\n      jump\t// in\n    tag_72:\n      mload(0x40)\n      dup1\n      swap2\n      sub\n      swap1\n      return\n        /* \"Marketplace.sol\":2677:3015  function getMarketItemDetails(uint256 _itemId) public view returns (string memory description, string memory imageUrl, uint8 quantity, uint256 createdAt, uint256 updatedAt) {\r... */\n    tag_11:\n      callvalue\n      dup1\n      iszero\n      tag_73\n      jumpi\n      0x00\n      dup1\n      revert\n    tag_73:\n      pop\n      tag_74\n      0x04\n      dup1\n      calldatasize\n      sub\n      dup2\n      add\n      swap1\n      tag_75\n      swap2\n      swap1\n      tag_70\n      jump\t// in\n    tag_75:\n      tag_76\n      jump\t// in\n    tag_74:\n      mload(0x40)\n      tag_77\n      swap6\n      swap5\n      swap4\n      swap3\n      swap2\n      swap1\n      tag_78\n      jump\t// in\n    tag_77:\n      mload(0x40)\n      dup1\n      swap2\n      sub\n      swap1\n      return\n        /* \"Marketplace.sol\":3023:3270  function updateMarketItemDescription(uint256 _itemId, string memory _description) public onlyProductSeller(_itemId) {\r... */\n    tag_12:\n      callvalue\n      dup1\n      iszero\n      tag_79\n      jumpi\n      0x00\n      dup1\n      revert\n    tag_79:\n      pop\n      tag_80\n      0x04\n      dup1\n      calldatasize\n      sub\n      dup2\n      add\n      swap1\n      tag_81\n      swap2\n      swap1\n      tag_82\n      jump\t// in\n    tag_81:\n      tag_83\n      jump\t// in\n    tag_80:\n      stop\n        /* \"@openzeppelin/contracts/access/AccessControl.sol\":2909:3054  function hasRole(bytes32 role, address account) public view virtual override returns (bool) {... */\n    tag_13:\n      callvalue\n      dup1\n      iszero\n      tag_84\n      jumpi\n      0x00\n      dup1\n      revert\n    tag_84:\n      pop\n      tag_85\n      0x04\n      dup1\n      calldatasize\n      sub\n      dup2\n      add\n      swap1\n      tag_86\n      swap2\n      swap1\n      tag_51\n      jump\t// in\n    tag_86:\n      tag_87\n      jump\t// in\n    tag_85:\n      mload(0x40)\n      tag_88\n      swap2\n      swap1\n      tag_32\n      jump\t// in\n    tag_88:\n      mload(0x40)\n      dup1\n      swap2\n      sub\n      swap1\n      return\n        /* \"@openzeppelin/contracts/access/AccessControl.sol\":2027:2076  bytes32 public constant DEFAULT_ADMIN_ROLE = 0x00 */\n    tag_14:\n      callvalue\n      dup1\n      iszero\n      tag_89\n      jumpi\n      0x00\n      dup1\n      revert\n    tag_89:\n      pop\n      tag_90\n      tag_91\n      jump\t// in\n    tag_90:\n      mload(0x40)\n      tag_92\n      swap2\n      swap1\n      tag_47\n      jump\t// in\n    tag_92:\n      mload(0x40)\n      dup1\n      swap2\n      sub\n      swap1\n      return\n        /* \"Marketplace.sol\":3754:3971  function updateMarketItemPrice(uint256 _itemId, uint256 _price) public onlyProductSeller(_itemId) {\r... */\n    tag_15:\n      callvalue\n      dup1\n      iszero\n      tag_93\n      jumpi\n      0x00\n      dup1\n      revert\n    tag_93:\n      pop\n      tag_94\n      0x04\n      dup1\n      calldatasize\n      sub\n      dup2\n      add\n      swap1\n      tag_95\n      swap2\n      swap1\n      tag_96\n      jump\t// in\n    tag_95:\n      tag_97\n      jump\t// in\n    tag_94:\n      stop\n        /* \"Marketplace.sol\":168:242  bytes32 public constant MARKETPLACE_OWNER = keccak256(\"MARKETPLACE_OWNER\") */\n    tag_16:\n      callvalue\n      dup1\n      iszero\n      tag_98\n      jumpi\n      0x00\n      dup1\n      revert\n    tag_98:\n      pop\n      tag_99\n      tag_100\n      jump\t// in\n    tag_99:\n      mload(0x40)\n      tag_101\n      swap2\n      swap1\n      tag_47\n      jump\t// in\n    tag_101:\n      mload(0x40)\n      dup1\n      swap2\n      sub\n      swap1\n      return\n        /* \"Marketplace.sol\":3979:4203  function updateMarketItemActive(uint256 _itemId, bool _isActive) public onlyProductSeller(_itemId) {\r... */\n    tag_17:\n      callvalue\n      dup1\n      iszero\n      tag_102\n      jumpi\n      0x00\n      dup1\n      revert\n    tag_102:\n      pop\n      tag_103\n      0x04\n      dup1\n      calldatasize\n      sub\n      dup2\n      add\n      swap1\n      tag_104\n      swap2\n      swap1\n      tag_105\n      jump\t// in\n    tag_104:\n      tag_106\n      jump\t// in\n    tag_103:\n      stop\n        /* \"Marketplace.sol\":2379:2669  function getMarketItem(uint256 _itemId) public view returns (string memory title, address payable seller, uint256 price, bool isActive) {\r... */\n    tag_18:\n      callvalue\n      dup1\n      iszero\n      tag_107\n      jumpi\n      0x00\n      dup1\n      revert\n    tag_107:\n      pop\n      tag_108\n      0x04\n      dup1\n      calldatasize\n      sub\n      dup2\n      add\n      swap1\n      tag_109\n      swap2\n      swap1\n      tag_70\n      jump\t// in\n    tag_109:\n      tag_110\n      jump\t// in\n    tag_108:\n      mload(0x40)\n      tag_111\n      swap5\n      swap4\n      swap3\n      swap2\n      swap1\n      tag_112\n      jump\t// in\n    tag_111:\n      mload(0x40)\n      dup1\n      swap2\n      sub\n      swap1\n      return\n        /* \"@openzeppelin/contracts/access/AccessControl.sol\":4766:4913  function revokeRole(bytes32 role, address account) public virtual override onlyRole(getRoleAdmin(role)) {... */\n    tag_19:\n      callvalue\n      dup1\n      iszero\n      tag_113\n      jumpi\n      0x00\n      dup1\n      revert\n    tag_113:\n      pop\n      tag_114\n      0x04\n      dup1\n      calldatasize\n      sub\n      dup2\n      add\n      swap1\n      tag_115\n      swap2\n      swap1\n      tag_51\n      jump\t// in\n    tag_115:\n      tag_116\n      jump\t// in\n    tag_114:\n      stop\n        /* \"Marketplace.sol\":3278:3505  function updateMarketItemQuantity(uint256 _itemId, uint8 _quantity) public onlyProductSeller(_itemId) {\r... */\n    tag_20:\n      callvalue\n      dup1\n      iszero\n      tag_117\n      jumpi\n      0x00\n      dup1\n      revert\n    tag_117:\n      pop\n      tag_118\n      0x04\n      dup1\n      calldatasize\n      sub\n      dup2\n      add\n      swap1\n      tag_119\n      swap2\n      swap1\n      tag_36\n      jump\t// in\n    tag_119:\n      tag_120\n      jump\t// in\n    tag_118:\n      stop\n        /* \"Marketplace.sol\":3513:3746  function updateMarketItemImgUrl(uint256 _itemId, string memory _imageUrl) public onlyProductSeller(_itemId) {\r... */\n    tag_21:\n      callvalue\n      dup1\n      iszero\n      tag_121\n      jumpi\n      0x00\n      dup1\n      revert\n    tag_121:\n      pop\n      tag_122\n      0x04\n      dup1\n      calldatasize\n      sub\n      dup2\n      add\n      swap1\n      tag_123\n      swap2\n      swap1\n      tag_82\n      jump\t// in\n    tag_123:\n      tag_124\n      jump\t// in\n    tag_122:\n      stop\n        /* \"Marketplace.sol\":4480:4628  function checkBuyer(uint256 _itemId, address _buyer) public view returns (bool) {\r... */\n    tag_22:\n      callvalue\n      dup1\n      iszero\n      tag_125\n      jumpi\n      0x00\n      dup1\n      revert\n    tag_125:\n      pop\n      tag_126\n      0x04\n      dup1\n      calldatasize\n      sub\n      dup2\n      add\n      swap1\n      tag_127\n      swap2\n      swap1\n      tag_128\n      jump\t// in\n    tag_127:\n      tag_129\n      jump\t// in\n    tag_126:\n      mload(0x40)\n      tag_130\n      swap2\n      swap1\n      tag_32\n      jump\t// in\n    tag_130:\n      mload(0x40)\n      dup1\n      swap2\n      sub\n      swap1\n      return\n        /* \"@openzeppelin/contracts/access/AccessControl.sol\":2620:2822  function supportsInterface(bytes4 interfaceId) public view virtual override returns (bool) {... */\n    tag_30:\n        /* \"@openzeppelin/contracts/access/AccessControl.sol\":2705:2709  bool */\n      0x00\n        /* \"@openzeppelin/contracts/access/AccessControl.sol\":2743:2775  type(IAccessControl).interfaceId */\n      0x7965db0b00000000000000000000000000000000000000000000000000000000\n        /* \"@openzeppelin/contracts/access/AccessControl.sol\":2728:2775  interfaceId == type(IAccessControl).interfaceId */\n      not(0xffffffffffffffffffffffffffffffffffffffffffffffffffffffff)\n      and\n        /* \"@openzeppelin/contracts/access/AccessControl.sol\":2728:2739  interfaceId */\n      dup3\n        /* \"@openzeppelin/contracts/access/AccessControl.sol\":2728:2775  interfaceId == type(IAccessControl).interfaceId */\n      not(0xffffffffffffffffffffffffffffffffffffffffffffffffffffffff)\n      and\n      eq\n        /* \"@openzeppelin/contracts/access/AccessControl.sol\":2728:2815  interfaceId == type(IAccessControl).interfaceId || super.supportsInterface(interfaceId) */\n      dup1\n      tag_132\n      jumpi\n      pop\n        /* \"@openzeppelin/contracts/access/AccessControl.sol\":2779:2815  super.supportsInterface(interfaceId) */\n      tag_133\n        /* \"@openzeppelin/contracts/access/AccessControl.sol\":2803:2814  interfaceId */\n      dup3\n        /* \"@openzeppelin/contracts/access/AccessControl.sol\":2779:2802  super.supportsInterface */\n      tag_134\n        /* \"@openzeppelin/contracts/access/AccessControl.sol\":2779:2815  super.supportsInterface(interfaceId) */\n      jump\t// in\n    tag_133:\n        /* \"@openzeppelin/contracts/access/AccessControl.sol\":2728:2815  interfaceId == type(IAccessControl).interfaceId || super.supportsInterface(interfaceId) */\n    tag_132:\n        /* \"@openzeppelin/contracts/access/AccessControl.sol\":2721:2815  return interfaceId == type(IAccessControl).interfaceId || super.supportsInterface(interfaceId) */\n      swap1\n      pop\n        /* \"@openzeppelin/contracts/access/AccessControl.sol\":2620:2822  function supportsInterface(bytes4 interfaceId) public view virtual override returns (bool) {... */\n      swap2\n      swap1\n      pop\n      jump\t// out\n        /* \"Marketplace.sol\":4636:5098  function voteMarketItemStars(uint256 _itemId, uint8 _stars) public {\r... */\n    tag_37:\n        /* \"Marketplace.sol\":4736:4750  idToMarketItem */\n      0x03\n        /* \"Marketplace.sol\":4736:4759  idToMarketItem[_itemId] */\n      0x00\n        /* \"Marketplace.sol\":4751:4758  _itemId */\n      dup4\n        /* \"Marketplace.sol\":4736:4759  idToMarketItem[_itemId] */\n      dup2\n      mstore\n      0x20\n      add\n      swap1\n      dup2\n      mstore\n      0x20\n      add\n      0x00\n      keccak256\n        /* \"Marketplace.sol\":4736:4766  idToMarketItem[_itemId].seller */\n      0x04\n      add\n      0x00\n      swap1\n      sload\n      swap1\n      0x0100\n      exp\n      swap1\n      div\n      0xffffffffffffffffffffffffffffffffffffffff\n      and\n        /* \"Marketplace.sol\":4722:4766  msg.sender != idToMarketItem[_itemId].seller */\n      0xffffffffffffffffffffffffffffffffffffffff\n      and\n        /* \"Marketplace.sol\":4722:4732  msg.sender */\n      caller\n        /* \"Marketplace.sol\":4722:4766  msg.sender != idToMarketItem[_itemId].seller */\n      0xffffffffffffffffffffffffffffffffffffffff\n      and\n      eq\n      iszero\n        /* \"Marketplace.sol\":4714:4793  require(msg.sender != idToMarketItem[_itemId].seller, \"The seller cannot vote\") */\n      tag_136\n      jumpi\n      mload(0x40)\n      0x08c379a000000000000000000000000000000000000000000000000000000000\n      dup2\n      mstore\n      0x04\n      add\n      tag_137\n      swap1\n      tag_138\n      jump\t// in\n    tag_137:\n      mload(0x40)\n      dup1\n      swap2\n      sub\n      swap1\n      revert\n    tag_136:\n        /* \"Marketplace.sol\":4822:4823  5 */\n      0x05\n        /* \"Marketplace.sol\":4812:4818  _stars */\n      dup2\n        /* \"Marketplace.sol\":4812:4823  _stars <= 5 */\n      0xff\n      and\n      gt\n      iszero\n        /* \"Marketplace.sol\":4804:4865  require(_stars <= 5, \"Stars must be less than or equal to 5\") */\n      tag_139\n      jumpi\n      mload(0x40)\n      0x08c379a000000000000000000000000000000000000000000000000000000000\n      dup2\n      mstore\n      0x04\n      add\n      tag_140\n      swap1\n      tag_141\n      jump\t// in\n    tag_140:\n      mload(0x40)\n      dup1\n      swap2\n      sub\n      swap1\n      revert\n    tag_139:\n        /* \"Marketplace.sol\":4894:4895  1 */\n      0x01\n        /* \"Marketplace.sol\":4884:4890  _stars */\n      dup2\n        /* \"Marketplace.sol\":4884:4895  _stars >= 1 */\n      0xff\n      and\n      lt\n      iszero\n        /* \"Marketplace.sol\":4876:4940  require(_stars >= 1, \"Stars must be greater than or equal to 1\") */\n      tag_142\n      jumpi\n      mload(0x40)\n      0x08c379a000000000000000000000000000000000000000000000000000000000\n      dup2\n      mstore\n      0x04\n      add\n      tag_143\n      swap1\n      tag_144\n      jump\t// in\n    tag_143:\n      mload(0x40)\n      dup1\n      swap2\n      sub\n      swap1\n      revert\n    tag_142:\n        /* \"Marketplace.sol\":4959:4990  checkBuyer(_itemId, msg.sender) */\n      tag_145\n        /* \"Marketplace.sol\":4970:4977  _itemId */\n      dup3\n        /* \"Marketplace.sol\":4979:4989  msg.sender */\n      caller\n        /* \"Marketplace.sol\":4959:4969  checkBuyer */\n      tag_129\n        /* \"Marketplace.sol\":4959:4990  checkBuyer(_itemId, msg.sender) */\n      jump\t// in\n    tag_145:\n        /* \"Marketplace.sol\":4951:5028  require(checkBuyer(_itemId, msg.sender), \"You cannot vote for this product.\") */\n      tag_146\n      jumpi\n      mload(0x40)\n      0x08c379a000000000000000000000000000000000000000000000000000000000\n      dup2\n      mstore\n      0x04\n      add\n      tag_147\n      swap1\n      tag_148\n      jump\t// in\n    tag_147:\n      mload(0x40)\n      dup1\n      swap2\n      sub\n      swap1\n      revert\n    tag_146:\n        /* \"Marketplace.sol\":5084:5090  _stars */\n      dup1\n        /* \"Marketplace.sol\":5039:5060  addressToProductVotes */\n      0x04\n        /* \"Marketplace.sol\":5039:5072  addressToProductVotes[msg.sender] */\n      0x00\n        /* \"Marketplace.sol\":5061:5071  msg.sender */\n      caller\n        /* \"Marketplace.sol\":5039:5072  addressToProductVotes[msg.sender] */\n      0xffffffffffffffffffffffffffffffffffffffff\n      and\n      0xffffffffffffffffffffffffffffffffffffffff\n      and\n      dup2\n      mstore\n      0x20\n      add\n      swap1\n      dup2\n      mstore\n      0x20\n      add\n      0x00\n      keccak256\n        /* \"Marketplace.sol\":5039:5081  addressToProductVotes[msg.sender][_itemId] */\n      0x00\n        /* \"Marketplace.sol\":5073:5080  _itemId */\n      dup5\n        /* \"Marketplace.sol\":5039:5081  addressToProductVotes[msg.sender][_itemId] */\n      dup2\n      mstore\n      0x20\n      add\n      swap1\n      dup2\n      mstore\n      0x20\n      add\n      0x00\n      keccak256\n      0x00\n        /* \"Marketplace.sol\":5039:5090  addressToProductVotes[msg.sender][_itemId] = _stars */\n      0x0100\n      exp\n      dup2\n      sload\n      dup2\n      0xff\n      mul\n      not\n      and\n      swap1\n      dup4\n      0xff\n      and\n      mul\n      or\n      swap1\n      sstore\n      pop\n        /* \"Marketplace.sol\":4636:5098  function voteMarketItemStars(uint256 _itemId, uint8 _stars) public {\r... */\n      pop\n      pop\n      jump\t// out\n        /* \"Marketplace.sol\":1595:2371  function buyMarketItem(uint256 _itemId, uint8 _quantity) public payable {\r... */\n    tag_40:\n        /* \"Marketplace.sol\":1678:1696  uint256 finalPrice */\n      0x00\n        /* \"Marketplace.sol\":1731:1740  _quantity */\n      dup2\n        /* \"Marketplace.sol\":1699:1740  idToMarketItem[_itemId].price * _quantity */\n      0xff\n      and\n        /* \"Marketplace.sol\":1699:1713  idToMarketItem */\n      0x03\n        /* \"Marketplace.sol\":1699:1722  idToMarketItem[_itemId] */\n      0x00\n        /* \"Marketplace.sol\":1714:1721  _itemId */\n      dup6\n        /* \"Marketplace.sol\":1699:1722  idToMarketItem[_itemId] */\n      dup2\n      mstore\n      0x20\n      add\n      swap1\n      dup2\n      mstore\n      0x20\n      add\n      0x00\n      keccak256\n        /* \"Marketplace.sol\":1699:1728  idToMarketItem[_itemId].price */\n      0x03\n      add\n      sload\n        /* \"Marketplace.sol\":1699:1740  idToMarketItem[_itemId].price * _quantity */\n      tag_150\n      swap2\n      swap1\n      tag_151\n      jump\t// in\n    tag_150:\n        /* \"Marketplace.sol\":1678:1740  uint256 finalPrice = idToMarketItem[_itemId].price * _quantity */\n      swap1\n      pop\n        /* \"Marketplace.sol\":1773:1782  msg.value */\n      callvalue\n        /* \"Marketplace.sol\":1759:1769  finalPrice */\n      dup2\n        /* \"Marketplace.sol\":1759:1782  finalPrice == msg.value */\n      eq\n        /* \"Marketplace.sol\":1751:1807  require(finalPrice == msg.value, \"Price does not match\") */\n      tag_152\n      jumpi\n      mload(0x40)\n      0x08c379a000000000000000000000000000000000000000000000000000000000\n      dup2\n      mstore\n      0x04\n      add\n      tag_153\n      swap1\n      tag_154\n      jump\t// in\n    tag_153:\n      mload(0x40)\n      dup1\n      swap2\n      sub\n      swap1\n      revert\n    tag_152:\n        /* \"Marketplace.sol\":1838:1839  0 */\n      0x00\n        /* \"Marketplace.sol\":1826:1835  _quantity */\n      dup3\n        /* \"Marketplace.sol\":1826:1839  _quantity > 0 */\n      0xff\n      and\n      gt\n        /* \"Marketplace.sol\":1818:1875  require(_quantity > 0, \"Quantity must be greater than 0\") */\n      tag_155\n      jumpi\n      mload(0x40)\n      0x08c379a000000000000000000000000000000000000000000000000000000000\n      dup2\n      mstore\n      0x04\n      add\n      tag_156\n      swap1\n      tag_157\n      jump\t// in\n    tag_156:\n      mload(0x40)\n      dup1\n      swap2\n      sub\n      swap1\n      revert\n    tag_155:\n        /* \"Marketplace.sol\":1907:1921  idToMarketItem */\n      0x03\n        /* \"Marketplace.sol\":1907:1930  idToMarketItem[_itemId] */\n      0x00\n        /* \"Marketplace.sol\":1922:1929  _itemId */\n      dup5\n        /* \"Marketplace.sol\":1907:1930  idToMarketItem[_itemId] */\n      dup2\n      mstore\n      0x20\n      add\n      swap1\n      dup2\n      mstore\n      0x20\n      add\n      0x00\n      keccak256\n        /* \"Marketplace.sol\":1907:1939  idToMarketItem[_itemId].quantity */\n      0x06\n      add\n      0x00\n      swap1\n      sload\n      swap1\n      0x0100\n      exp\n      swap1\n      div\n      0xff\n      and\n        /* \"Marketplace.sol\":1894:1939  _quantity <= idToMarketItem[_itemId].quantity */\n      0xff\n      and\n        /* \"Marketplace.sol\":1894:1903  _quantity */\n      dup3\n        /* \"Marketplace.sol\":1894:1939  _quantity <= idToMarketItem[_itemId].quantity */\n      0xff\n      and\n      gt\n      iszero\n        /* \"Marketplace.sol\":1886:2005  require(_quantity <= idToMarketItem[_itemId].quantity, \"Quantity must be less than or equal to the available quantity\") */\n      tag_158\n      jumpi\n      mload(0x40)\n      0x08c379a000000000000000000000000000000000000000000000000000000000\n      dup2\n      mstore\n      0x04\n      add\n      tag_159\n      swap1\n      tag_160\n      jump\t// in\n    tag_159:\n      mload(0x40)\n      dup1\n      swap2\n      sub\n      swap1\n      revert\n    tag_158:\n        /* \"Marketplace.sol\":2024:2038  idToMarketItem */\n      0x03\n        /* \"Marketplace.sol\":2024:2047  idToMarketItem[_itemId] */\n      0x00\n        /* \"Marketplace.sol\":2039:2046  _itemId */\n      dup5\n        /* \"Marketplace.sol\":2024:2047  idToMarketItem[_itemId] */\n      dup2\n      mstore\n      0x20\n      add\n      swap1\n      dup2\n      mstore\n      0x20\n      add\n      0x00\n      keccak256\n        /* \"Marketplace.sol\":2024:2056  idToMarketItem[_itemId].isActive */\n      0x09\n      add\n      0x00\n      swap1\n      sload\n      swap1\n      0x0100\n      exp\n      swap1\n      div\n      0xff\n      and\n        /* \"Marketplace.sol\":2016:2086  require(idToMarketItem[_itemId].isActive, \"Market item is not active\") */\n      tag_161\n      jumpi\n      mload(0x40)\n      0x08c379a000000000000000000000000000000000000000000000000000000000\n      dup2\n      mstore\n      0x04\n      add\n      tag_162\n      swap1\n      tag_163\n      jump\t// in\n    tag_162:\n      mload(0x40)\n      dup1\n      swap2\n      sub\n      swap1\n      revert\n    tag_161:\n        /* \"Marketplace.sol\":2097:2111  idToMarketItem */\n      0x03\n        /* \"Marketplace.sol\":2097:2120  idToMarketItem[_itemId] */\n      0x00\n        /* \"Marketplace.sol\":2112:2119  _itemId */\n      dup5\n        /* \"Marketplace.sol\":2097:2120  idToMarketItem[_itemId] */\n      dup2\n      mstore\n      0x20\n      add\n      swap1\n      dup2\n      mstore\n      0x20\n      add\n      0x00\n      keccak256\n        /* \"Marketplace.sol\":2097:2127  idToMarketItem[_itemId].seller */\n      0x04\n      add\n      0x00\n      swap1\n      sload\n      swap1\n      0x0100\n      exp\n      swap1\n      div\n      0xffffffffffffffffffffffffffffffffffffffff\n      and\n        /* \"Marketplace.sol\":2097:2136  idToMarketItem[_itemId].seller.transfer */\n      0xffffffffffffffffffffffffffffffffffffffff\n      and\n        /* \"Marketplace.sol\":2097:2147  idToMarketItem[_itemId].seller.transfer(msg.value) */\n      0x08fc\n        /* \"Marketplace.sol\":2137:2146  msg.value */\n      callvalue\n        /* \"Marketplace.sol\":2097:2147  idToMarketItem[_itemId].seller.transfer(msg.value) */\n      swap1\n      dup2\n      iszero\n      mul\n      swap1\n      mload(0x40)\n      0x00\n      mload(0x40)\n      dup1\n      dup4\n      sub\n      dup2\n      dup6\n      dup9\n      dup9\n      call\n      swap4\n      pop\n      pop\n      pop\n      pop\n      iszero\n      dup1\n      iszero\n      tag_165\n      jumpi\n      returndatasize\n      0x00\n      dup1\n      returndatacopy\n      revert(0x00, returndatasize)\n    tag_165:\n      pop\n        /* \"Marketplace.sol\":2194:2203  _quantity */\n      dup2\n        /* \"Marketplace.sol\":2158:2172  idToMarketItem */\n      0x03\n        /* \"Marketplace.sol\":2158:2181  idToMarketItem[_itemId] */\n      0x00\n        /* \"Marketplace.sol\":2173:2180  _itemId */\n      dup6\n        /* \"Marketplace.sol\":2158:2181  idToMarketItem[_itemId] */\n      dup2\n      mstore\n      0x20\n      add\n      swap1\n      dup2\n      mstore\n      0x20\n      add\n      0x00\n      keccak256\n        /* \"Marketplace.sol\":2158:2190  idToMarketItem[_itemId].quantity */\n      0x06\n      add\n      0x00\n        /* \"Marketplace.sol\":2158:2203  idToMarketItem[_itemId].quantity -= _quantity */\n      dup3\n      dup3\n      dup3\n      swap1\n      sload\n      swap1\n      0x0100\n      exp\n      swap1\n      div\n      0xff\n      and\n      tag_166\n      swap2\n      swap1\n      tag_167\n      jump\t// in\n    tag_166:\n      swap3\n      pop\n      0x0100\n      exp\n      dup2\n      sload\n      dup2\n      0xff\n      mul\n      not\n      and\n      swap1\n      dup4\n      0xff\n      and\n      mul\n      or\n      swap1\n      sstore\n      pop\n        /* \"Marketplace.sol\":2214:2230  idToBuyerAddress */\n      0x02\n        /* \"Marketplace.sol\":2214:2239  idToBuyerAddress[_itemId] */\n      0x00\n        /* \"Marketplace.sol\":2231:2238  _itemId */\n      dup5\n        /* \"Marketplace.sol\":2214:2239  idToBuyerAddress[_itemId] */\n      dup2\n      mstore\n      0x20\n      add\n      swap1\n      dup2\n      mstore\n      0x20\n      add\n      0x00\n      keccak256\n        /* \"Marketplace.sol\":2245:2255  msg.sender */\n      caller\n        /* \"Marketplace.sol\":2214:2256  idToBuyerAddress[_itemId].push(msg.sender) */\n      swap1\n      dup1\n      0x01\n      dup2\n      sload\n      add\n      dup1\n      dup3\n      sstore\n      dup1\n      swap2\n      pop\n      pop\n      0x01\n      swap1\n      sub\n      swap1\n      0x00\n      mstore\n      keccak256(0x00, 0x20)\n      add\n      0x00\n      swap1\n      swap2\n      swap1\n      swap2\n      swap1\n      swap2\n      0x0100\n      exp\n      dup2\n      sload\n      dup2\n      0xffffffffffffffffffffffffffffffffffffffff\n      mul\n      not\n      and\n      swap1\n      dup4\n      0xffffffffffffffffffffffffffffffffffffffff\n      and\n      mul\n      or\n      swap1\n      sstore\n      pop\n        /* \"Marketplace.sol\":2272:2363  BuyItem(_itemId, idToMarketItem[_itemId].price, idToMarketItem[_itemId].seller, msg.sender) */\n      0xf2f622c4ee3232d0d08c3870751d38ddef2eaf0e7e0c5d38239c7dc8921ca680\n        /* \"Marketplace.sol\":2280:2287  _itemId */\n      dup4\n        /* \"Marketplace.sol\":2289:2303  idToMarketItem */\n      0x03\n        /* \"Marketplace.sol\":2289:2312  idToMarketItem[_itemId] */\n      0x00\n        /* \"Marketplace.sol\":2304:2311  _itemId */\n      dup7\n        /* \"Marketplace.sol\":2289:2312  idToMarketItem[_itemId] */\n      dup2\n      mstore\n      0x20\n      add\n      swap1\n      dup2\n      mstore\n      0x20\n      add\n      0x00\n      keccak256\n        /* \"Marketplace.sol\":2289:2318  idToMarketItem[_itemId].price */\n      0x03\n      add\n      sload\n        /* \"Marketplace.sol\":2320:2334  idToMarketItem */\n      0x03\n        /* \"Marketplace.sol\":2320:2343  idToMarketItem[_itemId] */\n      0x00\n        /* \"Marketplace.sol\":2335:2342  _itemId */\n      dup8\n        /* \"Marketplace.sol\":2320:2343  idToMarketItem[_itemId] */\n      dup2\n      mstore\n      0x20\n      add\n      swap1\n      dup2\n      mstore\n      0x20\n      add\n      0x00\n      keccak256\n        /* \"Marketplace.sol\":2320:2350  idToMarketItem[_itemId].seller */\n      0x04\n      add\n      0x00\n      swap1\n      sload\n      swap1\n      0x0100\n      exp\n      swap1\n      div\n      0xffffffffffffffffffffffffffffffffffffffff\n      and\n        /* \"Marketplace.sol\":2352:2362  msg.sender */\n      caller\n        /* \"Marketplace.sol\":2272:2363  BuyItem(_itemId, idToMarketItem[_itemId].price, idToMarketItem[_itemId].seller, msg.sender) */\n      mload(0x40)\n      tag_169\n      swap5\n      swap4\n      swap3\n      swap2\n      swap1\n      tag_170\n      jump\t// in\n    tag_169:\n      mload(0x40)\n      dup1\n      swap2\n      sub\n      swap1\n      log1\n        /* \"Marketplace.sol\":1667:2371  {\r... */\n      pop\n        /* \"Marketplace.sol\":1595:2371  function buyMarketItem(uint256 _itemId, uint8 _quantity) public payable {\r... */\n      pop\n      pop\n      jump\t// out\n        /* \"@openzeppelin/contracts/access/AccessControl.sol\":4008:4137  function getRoleAdmin(bytes32 role) public view virtual override returns (bytes32) {... */\n    tag_45:\n        /* \"@openzeppelin/contracts/access/AccessControl.sol\":4082:4089  bytes32 */\n      0x00\n        /* \"@openzeppelin/contracts/access/AccessControl.sol\":4108:4114  _roles */\n      dup1\n        /* \"@openzeppelin/contracts/access/AccessControl.sol\":4108:4120  _roles[role] */\n      0x00\n        /* \"@openzeppelin/contracts/access/AccessControl.sol\":4115:4119  role */\n      dup4\n        /* \"@openzeppelin/contracts/access/AccessControl.sol\":4108:4120  _roles[role] */\n      dup2\n      mstore\n      0x20\n      add\n      swap1\n      dup2\n      mstore\n      0x20\n      add\n      0x00\n      keccak256\n        /* \"@openzeppelin/contracts/access/AccessControl.sol\":4108:4130  _roles[role].adminRole */\n      0x01\n      add\n      sload\n        /* \"@openzeppelin/contracts/access/AccessControl.sol\":4101:4130  return _roles[role].adminRole */\n      swap1\n      pop\n        /* \"@openzeppelin/contracts/access/AccessControl.sol\":4008:4137  function getRoleAdmin(bytes32 role) public view virtual override returns (bytes32) {... */\n      swap2\n      swap1\n      pop\n      jump\t// out\n        /* \"@openzeppelin/contracts/access/AccessControl.sol\":4387:4532  function grantRole(bytes32 role, address account) public virtual override onlyRole(getRoleAdmin(role)) {... */\n    tag_52:\n        /* \"@openzeppelin/contracts/access/AccessControl.sol\":4470:4488  getRoleAdmin(role) */\n      tag_172\n        /* \"@openzeppelin/contracts/access/AccessControl.sol\":4483:4487  role */\n      dup3\n        /* \"@openzeppelin/contracts/access/AccessControl.sol\":4470:4482  getRoleAdmin */\n      tag_45\n        /* \"@openzeppelin/contracts/access/AccessControl.sol\":4470:4488  getRoleAdmin(role) */\n      jump\t// in\n    tag_172:\n        /* \"@openzeppelin/contracts/access/AccessControl.sol\":2505:2535  _checkRole(role, _msgSender()) */\n      tag_174\n        /* \"@openzeppelin/contracts/access/AccessControl.sol\":2516:2520  role */\n      dup2\n        /* \"@openzeppelin/contracts/access/AccessControl.sol\":2522:2534  _msgSender() */\n      tag_175\n        /* \"@openzeppelin/contracts/access/AccessControl.sol\":2522:2532  _msgSender */\n      tag_176\n        /* \"@openzeppelin/contracts/access/AccessControl.sol\":2522:2534  _msgSender() */\n      jump\t// in\n    tag_175:\n        /* \"@openzeppelin/contracts/access/AccessControl.sol\":2505:2515  _checkRole */\n      tag_177\n        /* \"@openzeppelin/contracts/access/AccessControl.sol\":2505:2535  _checkRole(role, _msgSender()) */\n      jump\t// in\n    tag_174:\n        /* \"@openzeppelin/contracts/access/AccessControl.sol\":4500:4525  _grantRole(role, account) */\n      tag_179\n        /* \"@openzeppelin/contracts/access/AccessControl.sol\":4511:4515  role */\n      dup4\n        /* \"@openzeppelin/contracts/access/AccessControl.sol\":4517:4524  account */\n      dup4\n        /* \"@openzeppelin/contracts/access/AccessControl.sol\":4500:4510  _grantRole */\n      tag_180\n        /* \"@openzeppelin/contracts/access/AccessControl.sol\":4500:4525  _grantRole(role, account) */\n      jump\t// in\n    tag_179:\n        /* \"@openzeppelin/contracts/access/AccessControl.sol\":4387:4532  function grantRole(bytes32 role, address account) public virtual override onlyRole(getRoleAdmin(role)) {... */\n      pop\n      pop\n      pop\n      jump\t// out\n        /* \"@openzeppelin/contracts/access/AccessControl.sol\":5404:5618  function renounceRole(bytes32 role, address account) public virtual override {... */\n    tag_56:\n        /* \"@openzeppelin/contracts/access/AccessControl.sol\":5510:5522  _msgSender() */\n      tag_182\n        /* \"@openzeppelin/contracts/access/AccessControl.sol\":5510:5520  _msgSender */\n      tag_176\n        /* \"@openzeppelin/contracts/access/AccessControl.sol\":5510:5522  _msgSender() */\n      jump\t// in\n    tag_182:\n        /* \"@openzeppelin/contracts/access/AccessControl.sol\":5499:5522  account == _msgSender() */\n      0xffffffffffffffffffffffffffffffffffffffff\n      and\n        /* \"@openzeppelin/contracts/access/AccessControl.sol\":5499:5506  account */\n      dup2\n        /* \"@openzeppelin/contracts/access/AccessControl.sol\":5499:5522  account == _msgSender() */\n      0xffffffffffffffffffffffffffffffffffffffff\n      and\n      eq\n        /* \"@openzeppelin/contracts/access/AccessControl.sol\":5491:5574  require(account == _msgSender(), \"AccessControl: can only renounce roles for self\") */\n      tag_183\n      jumpi\n      mload(0x40)\n      0x08c379a000000000000000000000000000000000000000000000000000000000\n      dup2\n      mstore\n      0x04\n      add\n      tag_184\n      swap1\n      tag_185\n      jump\t// in\n    tag_184:\n      mload(0x40)\n      dup1\n      swap2\n      sub\n      swap1\n      revert\n    tag_183:\n        /* \"@openzeppelin/contracts/access/AccessControl.sol\":5585:5611  _revokeRole(role, account) */\n      tag_186\n        /* \"@openzeppelin/contracts/access/AccessControl.sol\":5597:5601  role */\n      dup3\n        /* \"@openzeppelin/contracts/access/AccessControl.sol\":5603:5610  account */\n      dup3\n        /* \"@openzeppelin/contracts/access/AccessControl.sol\":5585:5596  _revokeRole */\n      tag_187\n        /* \"@openzeppelin/contracts/access/AccessControl.sol\":5585:5611  _revokeRole(role, account) */\n      jump\t// in\n    tag_186:\n        /* \"@openzeppelin/contracts/access/AccessControl.sol\":5404:5618  function renounceRole(bytes32 role, address account) public virtual override {... */\n      pop\n      pop\n      jump\t// out\n        /* \"Marketplace.sol\":249:278  uint256 public nextItemId = 0 */\n    tag_59:\n      sload(0x01)\n      dup2\n      jump\t// out\n        /* \"Marketplace.sol\":1157:1587  function createMarketItem(string memory _title, string memory _description, uint256 _price, string memory _imageUrl, uint8 _quantity, bool _isActive) public {\r... */\n    tag_66:\n        /* \"Marketplace.sol\":1342:1343  0 */\n      0x00\n        /* \"Marketplace.sol\":1333:1339  _price */\n      dup5\n        /* \"Marketplace.sol\":1333:1343  _price > 0 */\n      gt\n        /* \"Marketplace.sol\":1325:1376  require(_price > 0, \"Price must be greater than 0\") */\n      tag_189\n      jumpi\n      mload(0x40)\n      0x08c379a000000000000000000000000000000000000000000000000000000000\n      dup2\n      mstore\n      0x04\n      add\n      tag_190\n      swap1\n      tag_191\n      jump\t// in\n    tag_190:\n      mload(0x40)\n      dup1\n      swap2\n      sub\n      swap1\n      revert\n    tag_189:\n        /* \"Marketplace.sol\":1416:1556  MarketItem(nextItemId, _title, _description, _price, payable(msg.sender), _imageUrl, _quantity, block.timestamp, block.timestamp, _isActive) */\n      mload(0x40)\n      dup1\n      0x0140\n      add\n      0x40\n      mstore\n      dup1\n        /* \"Marketplace.sol\":1427:1437  nextItemId */\n      sload(0x01)\n        /* \"Marketplace.sol\":1416:1556  MarketItem(nextItemId, _title, _description, _price, payable(msg.sender), _imageUrl, _quantity, block.timestamp, block.timestamp, _isActive) */\n      dup2\n      mstore\n      0x20\n      add\n        /* \"Marketplace.sol\":1439:1445  _title */\n      dup8\n        /* \"Marketplace.sol\":1416:1556  MarketItem(nextItemId, _title, _description, _price, payable(msg.sender), _imageUrl, _quantity, block.timestamp, block.timestamp, _isActive) */\n      dup2\n      mstore\n      0x20\n      add\n        /* \"Marketplace.sol\":1447:1459  _description */\n      dup7\n        /* \"Marketplace.sol\":1416:1556  MarketItem(nextItemId, _title, _description, _price, payable(msg.sender), _imageUrl, _quantity, block.timestamp, block.timestamp, _isActive) */\n      dup2\n      mstore\n      0x20\n      add\n        /* \"Marketplace.sol\":1461:1467  _price */\n      dup6\n        /* \"Marketplace.sol\":1416:1556  MarketItem(nextItemId, _title, _description, _price, payable(msg.sender), _imageUrl, _quantity, block.timestamp, block.timestamp, _isActive) */\n      dup2\n      mstore\n      0x20\n      add\n        /* \"Marketplace.sol\":1477:1487  msg.sender */\n      caller\n        /* \"Marketplace.sol\":1416:1556  MarketItem(nextItemId, _title, _description, _price, payable(msg.sender), _imageUrl, _quantity, block.timestamp, block.timestamp, _isActive) */\n      0xffffffffffffffffffffffffffffffffffffffff\n      and\n      dup2\n      mstore\n      0x20\n      add\n        /* \"Marketplace.sol\":1490:1499  _imageUrl */\n      dup5\n        /* \"Marketplace.sol\":1416:1556  MarketItem(nextItemId, _title, _description, _price, payable(msg.sender), _imageUrl, _quantity, block.timestamp, block.timestamp, _isActive) */\n      dup2\n      mstore\n      0x20\n      add\n        /* \"Marketplace.sol\":1501:1510  _quantity */\n      dup4\n        /* \"Marketplace.sol\":1416:1556  MarketItem(nextItemId, _title, _description, _price, payable(msg.sender), _imageUrl, _quantity, block.timestamp, block.timestamp, _isActive) */\n      0xff\n      and\n      dup2\n      mstore\n      0x20\n      add\n        /* \"Marketplace.sol\":1512:1527  block.timestamp */\n      timestamp\n        /* \"Marketplace.sol\":1416:1556  MarketItem(nextItemId, _title, _description, _price, payable(msg.sender), _imageUrl, _quantity, block.timestamp, block.timestamp, _isActive) */\n      dup2\n      mstore\n      0x20\n      add\n        /* \"Marketplace.sol\":1529:1544  block.timestamp */\n      timestamp\n        /* \"Marketplace.sol\":1416:1556  MarketItem(nextItemId, _title, _description, _price, payable(msg.sender), _imageUrl, _quantity, block.timestamp, block.timestamp, _isActive) */\n      dup2\n      mstore\n      0x20\n      add\n        /* \"Marketplace.sol\":1546:1555  _isActive */\n      dup3\n        /* \"Marketplace.sol\":1416:1556  MarketItem(nextItemId, _title, _description, _price, payable(msg.sender), _imageUrl, _quantity, block.timestamp, block.timestamp, _isActive) */\n      iszero\n      iszero\n      dup2\n      mstore\n      pop\n        /* \"Marketplace.sol\":1387:1401  idToMarketItem */\n      0x03\n        /* \"Marketplace.sol\":1387:1413  idToMarketItem[nextItemId] */\n      0x00\n        /* \"Marketplace.sol\":1402:1412  nextItemId */\n      sload(0x01)\n        /* \"Marketplace.sol\":1387:1413  idToMarketItem[nextItemId] */\n      dup2\n      mstore\n      0x20\n      add\n      swap1\n      dup2\n      mstore\n      0x20\n      add\n      0x00\n      keccak256\n        /* \"Marketplace.sol\":1387:1556  idToMarketItem[nextItemId] = MarketItem(nextItemId, _title, _description, _price, payable(msg.sender), _imageUrl, _quantity, block.timestamp, block.timestamp, _isActive) */\n      0x00\n      dup3\n      add\n      mload\n      dup2\n      0x00\n      add\n      sstore\n      0x20\n      dup3\n      add\n      mload\n      dup2\n      0x01\n      add\n      swap1\n      dup1\n      mload\n      swap1\n      0x20\n      add\n      swap1\n      tag_192\n      swap3\n      swap2\n      swap1\n      tag_193\n      jump\t// in\n    tag_192:\n      pop\n      0x40\n      dup3\n      add\n      mload\n      dup2\n      0x02\n      add\n      swap1\n      dup1\n      mload\n      swap1\n      0x20\n      add\n      swap1\n      tag_194\n      swap3\n      swap2\n      swap1\n      tag_193\n      jump\t// in\n    tag_194:\n      pop\n      0x60\n      dup3\n      add\n      mload\n      dup2\n      0x03\n      add\n      sstore\n      0x80\n      dup3\n      add\n      mload\n      dup2\n      0x04\n      add\n      exp(0x0100, 0x00)\n      dup2\n      sload\n      dup2\n      0xffffffffffffffffffffffffffffffffffffffff\n      mul\n      not\n      and\n      swap1\n      dup4\n      0xffffffffffffffffffffffffffffffffffffffff\n      and\n      mul\n      or\n      swap1\n      sstore\n      pop\n      0xa0\n      dup3\n      add\n      mload\n      dup2\n      0x05\n      add\n      swap1\n      dup1\n      mload\n      swap1\n      0x20\n      add\n      swap1\n      tag_195\n      swap3\n      swap2\n      swap1\n      tag_193\n      jump\t// in\n    tag_195:\n      pop\n      0xc0\n      dup3\n      add\n      mload\n      dup2\n      0x06\n      add\n      exp(0x0100, 0x00)\n      dup2\n      sload\n      dup2\n      0xff\n      mul\n      not\n      and\n      swap1\n      dup4\n      0xff\n      and\n      mul\n      or\n      swap1\n      sstore\n      pop\n      0xe0\n      dup3\n      add\n      mload\n      dup2\n      0x07\n      add\n      sstore\n      0x0100\n      dup3\n      add\n      mload\n      dup2\n      0x08\n      add\n      sstore\n      0x0120\n      dup3\n      add\n      mload\n      dup2\n      0x09\n      add\n      exp(0x0100, 0x00)\n      dup2\n      sload\n      dup2\n      0xff\n      mul\n      not\n      and\n      swap1\n      dup4\n      iszero\n      iszero\n      mul\n      or\n      swap1\n      sstore\n      pop\n      swap1\n      pop\n      pop\n        /* \"Marketplace.sol\":1567:1577  nextItemId */\n      0x01\n      0x00\n        /* \"Marketplace.sol\":1567:1579  nextItemId++ */\n      dup2\n      sload\n      dup1\n      swap3\n      swap2\n      swap1\n      tag_196\n      swap1\n      tag_197\n      jump\t// in\n    tag_196:\n      swap2\n      swap1\n      pop\n      sstore\n      pop\n        /* \"Marketplace.sol\":1157:1587  function createMarketItem(string memory _title, string memory _description, uint256 _price, string memory _imageUrl, uint8 _quantity, bool _isActive) public {\r... */\n      pop\n      pop\n      pop\n      pop\n      pop\n      pop\n      jump\t// out\n        /* \"Marketplace.sol\":5108:5626  function getAverageStars(uint256 _itemId) public view returns (uint256) {\r... */\n    tag_71:\n        /* \"Marketplace.sol\":5171:5178  uint256 */\n      0x00\n        /* \"Marketplace.sol\":5191:5206  uint256 voteSum */\n      dup1\n        /* \"Marketplace.sol\":5209:5210  0 */\n      0x00\n        /* \"Marketplace.sol\":5191:5210  uint256 voteSum = 0 */\n      swap1\n      pop\n        /* \"Marketplace.sol\":5221:5238  uint256 voteCount */\n      0x00\n        /* \"Marketplace.sol\":5268:5277  uint256 i */\n      dup1\n        /* \"Marketplace.sol\":5263:5572  for (uint256 i = 0; i < idToBuyerAddress[_itemId].length; i++) {\r... */\n    tag_199:\n        /* \"Marketplace.sol\":5287:5303  idToBuyerAddress */\n      0x02\n        /* \"Marketplace.sol\":5287:5312  idToBuyerAddress[_itemId] */\n      0x00\n        /* \"Marketplace.sol\":5304:5311  _itemId */\n      dup7\n        /* \"Marketplace.sol\":5287:5312  idToBuyerAddress[_itemId] */\n      dup2\n      mstore\n      0x20\n      add\n      swap1\n      dup2\n      mstore\n      0x20\n      add\n      0x00\n      keccak256\n        /* \"Marketplace.sol\":5287:5319  idToBuyerAddress[_itemId].length */\n      dup1\n      sload\n      swap1\n      pop\n        /* \"Marketplace.sol\":5283:5284  i */\n      dup2\n        /* \"Marketplace.sol\":5283:5319  i < idToBuyerAddress[_itemId].length */\n      lt\n        /* \"Marketplace.sol\":5263:5572  for (uint256 i = 0; i < idToBuyerAddress[_itemId].length; i++) {\r... */\n      iszero\n      tag_200\n      jumpi\n        /* \"Marketplace.sol\":5341:5354  address buyer */\n      0x00\n        /* \"Marketplace.sol\":5357:5373  idToBuyerAddress */\n      0x02\n        /* \"Marketplace.sol\":5357:5382  idToBuyerAddress[_itemId] */\n      0x00\n        /* \"Marketplace.sol\":5374:5381  _itemId */\n      dup8\n        /* \"Marketplace.sol\":5357:5382  idToBuyerAddress[_itemId] */\n      dup2\n      mstore\n      0x20\n      add\n      swap1\n      dup2\n      mstore\n      0x20\n      add\n      0x00\n      keccak256\n        /* \"Marketplace.sol\":5383:5384  i */\n      dup3\n        /* \"Marketplace.sol\":5357:5385  idToBuyerAddress[_itemId][i] */\n      dup2\n      sload\n      dup2\n      lt\n      tag_202\n      jumpi\n      tag_203\n      tag_204\n      jump\t// in\n    tag_203:\n    tag_202:\n      swap1\n      0x00\n      mstore\n      keccak256(0x00, 0x20)\n      add\n      0x00\n      swap1\n      sload\n      swap1\n      0x0100\n      exp\n      swap1\n      div\n      0xffffffffffffffffffffffffffffffffffffffff\n      and\n        /* \"Marketplace.sol\":5341:5385  address buyer = idToBuyerAddress[_itemId][i] */\n      swap1\n      pop\n        /* \"Marketplace.sol\":5445:5446  0 */\n      0x00\n        /* \"Marketplace.sol\":5404:5425  addressToProductVotes */\n      0x04\n        /* \"Marketplace.sol\":5404:5432  addressToProductVotes[buyer] */\n      0x00\n        /* \"Marketplace.sol\":5426:5431  buyer */\n      dup4\n        /* \"Marketplace.sol\":5404:5432  addressToProductVotes[buyer] */\n      0xffffffffffffffffffffffffffffffffffffffff\n      and\n      0xffffffffffffffffffffffffffffffffffffffff\n      and\n      dup2\n      mstore\n      0x20\n      add\n      swap1\n      dup2\n      mstore\n      0x20\n      add\n      0x00\n      keccak256\n        /* \"Marketplace.sol\":5404:5441  addressToProductVotes[buyer][_itemId] */\n      0x00\n        /* \"Marketplace.sol\":5433:5440  _itemId */\n      dup9\n        /* \"Marketplace.sol\":5404:5441  addressToProductVotes[buyer][_itemId] */\n      dup2\n      mstore\n      0x20\n      add\n      swap1\n      dup2\n      mstore\n      0x20\n      add\n      0x00\n      keccak256\n      0x00\n      swap1\n      sload\n      swap1\n      0x0100\n      exp\n      swap1\n      div\n      0xff\n      and\n        /* \"Marketplace.sol\":5404:5446  addressToProductVotes[buyer][_itemId] != 0 */\n      0xff\n      and\n      eq\n        /* \"Marketplace.sol\":5400:5561  if (addressToProductVotes[buyer][_itemId] != 0) {\r... */\n      tag_206\n      jumpi\n        /* \"Marketplace.sol\":5478:5499  addressToProductVotes */\n      0x04\n        /* \"Marketplace.sol\":5478:5506  addressToProductVotes[buyer] */\n      0x00\n        /* \"Marketplace.sol\":5500:5505  buyer */\n      dup3\n        /* \"Marketplace.sol\":5478:5506  addressToProductVotes[buyer] */\n      0xffffffffffffffffffffffffffffffffffffffff\n      and\n      0xffffffffffffffffffffffffffffffffffffffff\n      and\n      dup2\n      mstore\n      0x20\n      add\n      swap1\n      dup2\n      mstore\n      0x20\n      add\n      0x00\n      keccak256\n        /* \"Marketplace.sol\":5478:5515  addressToProductVotes[buyer][_itemId] */\n      0x00\n        /* \"Marketplace.sol\":5507:5514  _itemId */\n      dup8\n        /* \"Marketplace.sol\":5478:5515  addressToProductVotes[buyer][_itemId] */\n      dup2\n      mstore\n      0x20\n      add\n      swap1\n      dup2\n      mstore\n      0x20\n      add\n      0x00\n      keccak256\n      0x00\n      swap1\n      sload\n      swap1\n      0x0100\n      exp\n      swap1\n      div\n      0xff\n      and\n        /* \"Marketplace.sol\":5467:5515  voteSum += addressToProductVotes[buyer][_itemId] */\n      0xff\n      and\n      dup5\n      tag_207\n      swap2\n      swap1\n      tag_208\n      jump\t// in\n    tag_207:\n      swap4\n      pop\n        /* \"Marketplace.sol\":5534:5545  voteCount++ */\n      dup3\n      dup1\n      tag_209\n      swap1\n      tag_197\n      jump\t// in\n    tag_209:\n      swap4\n      pop\n      pop\n        /* \"Marketplace.sol\":5400:5561  if (addressToProductVotes[buyer][_itemId] != 0) {\r... */\n    tag_206:\n        /* \"Marketplace.sol\":5326:5572  {\r... */\n      pop\n        /* \"Marketplace.sol\":5321:5324  i++ */\n      dup1\n      dup1\n      tag_210\n      swap1\n      tag_197\n      jump\t// in\n    tag_210:\n      swap2\n      pop\n      pop\n        /* \"Marketplace.sol\":5263:5572  for (uint256 i = 0; i < idToBuyerAddress[_itemId].length; i++) {\r... */\n      jump(tag_199)\n    tag_200:\n      pop\n        /* \"Marketplace.sol\":5609:5618  voteCount */\n      dup1\n        /* \"Marketplace.sol\":5602:5605  100 */\n      0x64\n        /* \"Marketplace.sol\":5592:5599  voteSum */\n      dup4\n        /* \"Marketplace.sol\":5592:5605  voteSum * 100 */\n      tag_211\n      swap2\n      swap1\n      tag_151\n      jump\t// in\n    tag_211:\n        /* \"Marketplace.sol\":5591:5618  (voteSum * 100) / voteCount */\n      tag_212\n      swap2\n      swap1\n      tag_213\n      jump\t// in\n    tag_212:\n        /* \"Marketplace.sol\":5584:5618  return (voteSum * 100) / voteCount */\n      swap3\n      pop\n      pop\n      pop\n        /* \"Marketplace.sol\":5108:5626  function getAverageStars(uint256 _itemId) public view returns (uint256) {\r... */\n      swap2\n      swap1\n      pop\n      jump\t// out\n        /* \"Marketplace.sol\":2677:3015  function getMarketItemDetails(uint256 _itemId) public view returns (string memory description, string memory imageUrl, uint8 quantity, uint256 createdAt, uint256 updatedAt) {\r... */\n    tag_76:\n        /* \"Marketplace.sol\":2745:2770  string memory description */\n      0x60\n        /* \"Marketplace.sol\":2772:2794  string memory imageUrl */\n      dup1\n        /* \"Marketplace.sol\":2796:2810  uint8 quantity */\n      0x00\n        /* \"Marketplace.sol\":2812:2829  uint256 createdAt */\n      dup1\n        /* \"Marketplace.sol\":2831:2848  uint256 updatedAt */\n      0x00\n        /* \"Marketplace.sol\":2861:2883  MarketItem memory item */\n      dup1\n        /* \"Marketplace.sol\":2886:2900  idToMarketItem */\n      0x03\n        /* \"Marketplace.sol\":2886:2909  idToMarketItem[_itemId] */\n      0x00\n        /* \"Marketplace.sol\":2901:2908  _itemId */\n      dup9\n        /* \"Marketplace.sol\":2886:2909  idToMarketItem[_itemId] */\n      dup2\n      mstore\n      0x20\n      add\n      swap1\n      dup2\n      mstore\n      0x20\n      add\n      0x00\n      keccak256\n        /* \"Marketplace.sol\":2861:2909  MarketItem memory item = idToMarketItem[_itemId] */\n      mload(0x40)\n      dup1\n      0x0140\n      add\n      0x40\n      mstore\n      swap1\n      dup2\n      0x00\n      dup3\n      add\n      sload\n      dup2\n      mstore\n      0x20\n      add\n      0x01\n      dup3\n      add\n      dup1\n      sload\n      tag_215\n      swap1\n      tag_216\n      jump\t// in\n    tag_215:\n      dup1\n      0x1f\n      add\n      0x20\n      dup1\n      swap2\n      div\n      mul\n      0x20\n      add\n      mload(0x40)\n      swap1\n      dup2\n      add\n      0x40\n      mstore\n      dup1\n      swap3\n      swap2\n      swap1\n      dup2\n      dup2\n      mstore\n      0x20\n      add\n      dup3\n      dup1\n      sload\n      tag_217\n      swap1\n      tag_216\n      jump\t// in\n    tag_217:\n      dup1\n      iszero\n      tag_218\n      jumpi\n      dup1\n      0x1f\n      lt\n      tag_219\n      jumpi\n      0x0100\n      dup1\n      dup4\n      sload\n      div\n      mul\n      dup4\n      mstore\n      swap2\n      0x20\n      add\n      swap2\n      jump(tag_218)\n    tag_219:\n      dup3\n      add\n      swap2\n      swap1\n      0x00\n      mstore\n      keccak256(0x00, 0x20)\n      swap1\n    tag_220:\n      dup2\n      sload\n      dup2\n      mstore\n      swap1\n      0x01\n      add\n      swap1\n      0x20\n      add\n      dup1\n      dup4\n      gt\n      tag_220\n      jumpi\n      dup3\n      swap1\n      sub\n      0x1f\n      and\n      dup3\n      add\n      swap2\n    tag_218:\n      pop\n      pop\n      pop\n      pop\n      pop\n      dup2\n      mstore\n      0x20\n      add\n      0x02\n      dup3\n      add\n      dup1\n      sload\n      tag_221\n      swap1\n      tag_216\n      jump\t// in\n    tag_221:\n      dup1\n      0x1f\n      add\n      0x20\n      dup1\n      swap2\n      div\n      mul\n      0x20\n      add\n      mload(0x40)\n      swap1\n      dup2\n      add\n      0x40\n      mstore\n      dup1\n      swap3\n      swap2\n      swap1\n      dup2\n      dup2\n      mstore\n      0x20\n      add\n      dup3\n      dup1\n      sload\n      tag_222\n      swap1\n      tag_216\n      jump\t// in\n    tag_222:\n      dup1\n      iszero\n      tag_223\n      jumpi\n      dup1\n      0x1f\n      lt\n      tag_224\n      jumpi\n      0x0100\n      dup1\n      dup4\n      sload\n      div\n      mul\n      dup4\n      mstore\n      swap2\n      0x20\n      add\n      swap2\n      jump(tag_223)\n    tag_224:\n      dup3\n      add\n      swap2\n      swap1\n      0x00\n      mstore\n      keccak256(0x00, 0x20)\n      swap1\n    tag_225:\n      dup2\n      sload\n      dup2\n      mstore\n      swap1\n      0x01\n      add\n      swap1\n      0x20\n      add\n      dup1\n      dup4\n      gt\n      tag_225\n      jumpi\n      dup3\n      swap1\n      sub\n      0x1f\n      and\n      dup3\n      add\n      swap2\n    tag_223:\n      pop\n      pop\n      pop\n      pop\n      pop\n      dup2\n      mstore\n      0x20\n      add\n      0x03\n      dup3\n      add\n      sload\n      dup2\n      mstore\n      0x20\n      add\n      0x04\n      dup3\n      add\n      0x00\n      swap1\n      sload\n      swap1\n      0x0100\n      exp\n      swap1\n      div\n      0xffffffffffffffffffffffffffffffffffffffff\n      and\n      0xffffffffffffffffffffffffffffffffffffffff\n      and\n      0xffffffffffffffffffffffffffffffffffffffff\n      and\n      dup2\n      mstore\n      0x20\n      add\n      0x05\n      dup3\n      add\n      dup1\n      sload\n      tag_226\n      swap1\n      tag_216\n      jump\t// in\n    tag_226:\n      dup1\n      0x1f\n      add\n      0x20\n      dup1\n      swap2\n      div\n      mul\n      0x20\n      add\n      mload(0x40)\n      swap1\n      dup2\n      add\n      0x40\n      mstore\n      dup1\n      swap3\n      swap2\n      swap1\n      dup2\n      dup2\n      mstore\n      0x20\n      add\n      dup3\n      dup1\n      sload\n      tag_227\n      swap1\n      tag_216\n      jump\t// in\n    tag_227:\n      dup1\n      iszero\n      tag_228\n      jumpi\n      dup1\n      0x1f\n      lt\n      tag_229\n      jumpi\n      0x0100\n      dup1\n      dup4\n      sload\n      div\n      mul\n      dup4\n      mstore\n      swap2\n      0x20\n      add\n      swap2\n      jump(tag_228)\n    tag_229:\n      dup3\n      add\n      swap2\n      swap1\n      0x00\n      mstore\n      keccak256(0x00, 0x20)\n      swap1\n    tag_230:\n      dup2\n      sload\n      dup2\n      mstore\n      swap1\n      0x01\n      add\n      swap1\n      0x20\n      add\n      dup1\n      dup4\n      gt\n      tag_230\n      jumpi\n      dup3\n      swap1\n      sub\n      0x1f\n      and\n      dup3\n      add\n      swap2\n    tag_228:\n      pop\n      pop\n      pop\n      pop\n      pop\n      dup2\n      mstore\n      0x20\n      add\n      0x06\n      dup3\n      add\n      0x00\n      swap1\n      sload\n      swap1\n      0x0100\n      exp\n      swap1\n      div\n      0xff\n      and\n      0xff\n      and\n      0xff\n      and\n      dup2\n      mstore\n      0x20\n      add\n      0x07\n      dup3\n      add\n      sload\n      dup2\n      mstore\n      0x20\n      add\n      0x08\n      dup3\n      add\n      sload\n      dup2\n      mstore\n      0x20\n      add\n      0x09\n      dup3\n      add\n      0x00\n      swap1\n      sload\n      swap1\n      0x0100\n      exp\n      swap1\n      div\n      0xff\n      and\n      iszero\n      iszero\n      iszero\n      iszero\n      dup2\n      mstore\n      pop\n      pop\n      swap1\n      pop\n        /* \"Marketplace.sol\":2928:2932  item */\n      dup1\n        /* \"Marketplace.sol\":2928:2944  item.description */\n      0x40\n      add\n      mload\n        /* \"Marketplace.sol\":2946:2950  item */\n      dup2\n        /* \"Marketplace.sol\":2946:2959  item.imageUrl */\n      0xa0\n      add\n      mload\n        /* \"Marketplace.sol\":2961:2965  item */\n      dup3\n        /* \"Marketplace.sol\":2961:2974  item.quantity */\n      0xc0\n      add\n      mload\n        /* \"Marketplace.sol\":2976:2980  item */\n      dup4\n        /* \"Marketplace.sol\":2976:2990  item.createdAt */\n      0xe0\n      add\n      mload\n        /* \"Marketplace.sol\":2992:2996  item */\n      dup5\n        /* \"Marketplace.sol\":2992:3006  item.updatedAt */\n      0x0100\n      add\n      mload\n        /* \"Marketplace.sol\":2920:3007  return (item.description, item.imageUrl, item.quantity, item.createdAt, item.updatedAt) */\n      swap6\n      pop\n      swap6\n      pop\n      swap6\n      pop\n      swap6\n      pop\n      swap6\n      pop\n      pop\n        /* \"Marketplace.sol\":2677:3015  function getMarketItemDetails(uint256 _itemId) public view returns (string memory description, string memory imageUrl, uint8 quantity, uint256 createdAt, uint256 updatedAt) {\r... */\n      swap2\n      swap4\n      swap6\n      swap1\n      swap3\n      swap5\n      pop\n      jump\t// out\n        /* \"Marketplace.sol\":3023:3270  function updateMarketItemDescription(uint256 _itemId, string memory _description) public onlyProductSeller(_itemId) {\r... */\n    tag_83:\n        /* \"Marketplace.sol\":3130:3137  _itemId */\n      dup2\n        /* \"Marketplace.sol\":1050:1064  idToMarketItem */\n      0x03\n        /* \"Marketplace.sol\":1050:1073  idToMarketItem[_itemId] */\n      0x00\n        /* \"Marketplace.sol\":1065:1072  _itemId */\n      dup3\n        /* \"Marketplace.sol\":1050:1073  idToMarketItem[_itemId] */\n      dup2\n      mstore\n      0x20\n      add\n      swap1\n      dup2\n      mstore\n      0x20\n      add\n      0x00\n      keccak256\n        /* \"Marketplace.sol\":1050:1080  idToMarketItem[_itemId].seller */\n      0x04\n      add\n      0x00\n      swap1\n      sload\n      swap1\n      0x0100\n      exp\n      swap1\n      div\n      0xffffffffffffffffffffffffffffffffffffffff\n      and\n        /* \"Marketplace.sol\":1036:1080  msg.sender == idToMarketItem[_itemId].seller */\n      0xffffffffffffffffffffffffffffffffffffffff\n      and\n        /* \"Marketplace.sol\":1036:1046  msg.sender */\n      caller\n        /* \"Marketplace.sol\":1036:1080  msg.sender == idToMarketItem[_itemId].seller */\n      0xffffffffffffffffffffffffffffffffffffffff\n      and\n      eq\n        /* \"Marketplace.sol\":1028:1129  require(msg.sender == idToMarketItem[_itemId].seller, \"Only product seller can execute this action.\") */\n      tag_232\n      jumpi\n      mload(0x40)\n      0x08c379a000000000000000000000000000000000000000000000000000000000\n      dup2\n      mstore\n      0x04\n      add\n      tag_233\n      swap1\n      tag_234\n      jump\t// in\n    tag_233:\n      mload(0x40)\n      dup1\n      swap2\n      sub\n      swap1\n      revert\n    tag_232:\n        /* \"Marketplace.sol\":3188:3200  _description */\n      dup2\n        /* \"Marketplace.sol\":3150:3164  idToMarketItem */\n      0x03\n        /* \"Marketplace.sol\":3150:3173  idToMarketItem[_itemId] */\n      0x00\n        /* \"Marketplace.sol\":3165:3172  _itemId */\n      dup6\n        /* \"Marketplace.sol\":3150:3173  idToMarketItem[_itemId] */\n      dup2\n      mstore\n      0x20\n      add\n      swap1\n      dup2\n      mstore\n      0x20\n      add\n      0x00\n      keccak256\n        /* \"Marketplace.sol\":3150:3185  idToMarketItem[_itemId].description */\n      0x02\n      add\n        /* \"Marketplace.sol\":3150:3200  idToMarketItem[_itemId].description = _description */\n      swap1\n      dup1\n      mload\n      swap1\n      0x20\n      add\n      swap1\n      tag_236\n      swap3\n      swap2\n      swap1\n      tag_193\n      jump\t// in\n    tag_236:\n      pop\n        /* \"Marketplace.sol\":3247:3262  block.timestamp */\n      timestamp\n        /* \"Marketplace.sol\":3211:3225  idToMarketItem */\n      0x03\n        /* \"Marketplace.sol\":3211:3234  idToMarketItem[_itemId] */\n      0x00\n        /* \"Marketplace.sol\":3226:3233  _itemId */\n      dup6\n        /* \"Marketplace.sol\":3211:3234  idToMarketItem[_itemId] */\n      dup2\n      mstore\n      0x20\n      add\n      swap1\n      dup2\n      mstore\n      0x20\n      add\n      0x00\n      keccak256\n        /* \"Marketplace.sol\":3211:3244  idToMarketItem[_itemId].updatedAt */\n      0x08\n      add\n        /* \"Marketplace.sol\":3211:3262  idToMarketItem[_itemId].updatedAt = block.timestamp */\n      dup2\n      swap1\n      sstore\n      pop\n        /* \"Marketplace.sol\":3023:3270  function updateMarketItemDescription(uint256 _itemId, string memory _description) public onlyProductSeller(_itemId) {\r... */\n      pop\n      pop\n      pop\n      jump\t// out\n        /* \"@openzeppelin/contracts/access/AccessControl.sol\":2909:3054  function hasRole(bytes32 role, address account) public view virtual override returns (bool) {... */\n    tag_87:\n        /* \"@openzeppelin/contracts/access/AccessControl.sol\":2995:2999  bool */\n      0x00\n        /* \"@openzeppelin/contracts/access/AccessControl.sol\":3018:3024  _roles */\n      dup1\n        /* \"@openzeppelin/contracts/access/AccessControl.sol\":3018:3030  _roles[role] */\n      0x00\n        /* \"@openzeppelin/contracts/access/AccessControl.sol\":3025:3029  role */\n      dup5\n        /* \"@openzeppelin/contracts/access/AccessControl.sol\":3018:3030  _roles[role] */\n      dup2\n      mstore\n      0x20\n      add\n      swap1\n      dup2\n      mstore\n      0x20\n      add\n      0x00\n      keccak256\n        /* \"@openzeppelin/contracts/access/AccessControl.sol\":3018:3038  _roles[role].members */\n      0x00\n      add\n        /* \"@openzeppelin/contracts/access/AccessControl.sol\":3018:3047  _roles[role].members[account] */\n      0x00\n        /* \"@openzeppelin/contracts/access/AccessControl.sol\":3039:3046  account */\n      dup4\n        /* \"@openzeppelin/contracts/access/AccessControl.sol\":3018:3047  _roles[role].members[account] */\n      0xffffffffffffffffffffffffffffffffffffffff\n      and\n      0xffffffffffffffffffffffffffffffffffffffff\n      and\n      dup2\n      mstore\n      0x20\n      add\n      swap1\n      dup2\n      mstore\n      0x20\n      add\n      0x00\n      keccak256\n      0x00\n      swap1\n      sload\n      swap1\n      0x0100\n      exp\n      swap1\n      div\n      0xff\n      and\n        /* \"@openzeppelin/contracts/access/AccessControl.sol\":3011:3047  return _roles[role].members[account] */\n      swap1\n      pop\n        /* \"@openzeppelin/contracts/access/AccessControl.sol\":2909:3054  function hasRole(bytes32 role, address account) public view virtual override returns (bool) {... */\n      swap3\n      swap2\n      pop\n      pop\n      jump\t// out\n        /* \"@openzeppelin/contracts/access/AccessControl.sol\":2027:2076  bytes32 public constant DEFAULT_ADMIN_ROLE = 0x00 */\n    tag_91:\n        /* \"@openzeppelin/contracts/access/AccessControl.sol\":2072:2076  0x00 */\n      0x00\n        /* \"@openzeppelin/contracts/access/AccessControl.sol\":2027:2076  bytes32 public constant DEFAULT_ADMIN_ROLE = 0x00 */\n      dup1\n      shl\n      dup2\n      jump\t// out\n        /* \"Marketplace.sol\":3754:3971  function updateMarketItemPrice(uint256 _itemId, uint256 _price) public onlyProductSeller(_itemId) {\r... */\n    tag_97:\n        /* \"Marketplace.sol\":3843:3850  _itemId */\n      dup2\n        /* \"Marketplace.sol\":1050:1064  idToMarketItem */\n      0x03\n        /* \"Marketplace.sol\":1050:1073  idToMarketItem[_itemId] */\n      0x00\n        /* \"Marketplace.sol\":1065:1072  _itemId */\n      dup3\n        /* \"Marketplace.sol\":1050:1073  idToMarketItem[_itemId] */\n      dup2\n      mstore\n      0x20\n      add\n      swap1\n      dup2\n      mstore\n      0x20\n      add\n      0x00\n      keccak256\n        /* \"Marketplace.sol\":1050:1080  idToMarketItem[_itemId].seller */\n      0x04\n      add\n      0x00\n      swap1\n      sload\n      swap1\n      0x0100\n      exp\n      swap1\n      div\n      0xffffffffffffffffffffffffffffffffffffffff\n      and\n        /* \"Marketplace.sol\":1036:1080  msg.sender == idToMarketItem[_itemId].seller */\n      0xffffffffffffffffffffffffffffffffffffffff\n      and\n        /* \"Marketplace.sol\":1036:1046  msg.sender */\n      caller\n        /* \"Marketplace.sol\":1036:1080  msg.sender == idToMarketItem[_itemId].seller */\n      0xffffffffffffffffffffffffffffffffffffffff\n      and\n      eq\n        /* \"Marketplace.sol\":1028:1129  require(msg.sender == idToMarketItem[_itemId].seller, \"Only product seller can execute this action.\") */\n      tag_239\n      jumpi\n      mload(0x40)\n      0x08c379a000000000000000000000000000000000000000000000000000000000\n      dup2\n      mstore\n      0x04\n      add\n      tag_240\n      swap1\n      tag_234\n      jump\t// in\n    tag_240:\n      mload(0x40)\n      dup1\n      swap2\n      sub\n      swap1\n      revert\n    tag_239:\n        /* \"Marketplace.sol\":3895:3901  _price */\n      dup2\n        /* \"Marketplace.sol\":3863:3877  idToMarketItem */\n      0x03\n        /* \"Marketplace.sol\":3863:3886  idToMarketItem[_itemId] */\n      0x00\n        /* \"Marketplace.sol\":3878:3885  _itemId */\n      dup6\n        /* \"Marketplace.sol\":3863:3886  idToMarketItem[_itemId] */\n      dup2\n      mstore\n      0x20\n      add\n      swap1\n      dup2\n      mstore\n      0x20\n      add\n      0x00\n      keccak256\n        /* \"Marketplace.sol\":3863:3892  idToMarketItem[_itemId].price */\n      0x03\n      add\n        /* \"Marketplace.sol\":3863:3901  idToMarketItem[_itemId].price = _price */\n      dup2\n      swap1\n      sstore\n      pop\n        /* \"Marketplace.sol\":3948:3963  block.timestamp */\n      timestamp\n        /* \"Marketplace.sol\":3912:3926  idToMarketItem */\n      0x03\n        /* \"Marketplace.sol\":3912:3935  idToMarketItem[_itemId] */\n      0x00\n        /* \"Marketplace.sol\":3927:3934  _itemId */\n      dup6\n        /* \"Marketplace.sol\":3912:3935  idToMarketItem[_itemId] */\n      dup2\n      mstore\n      0x20\n      add\n      swap1\n      dup2\n      mstore\n      0x20\n      add\n      0x00\n      keccak256\n        /* \"Marketplace.sol\":3912:3945  idToMarketItem[_itemId].updatedAt */\n      0x08\n      add\n        /* \"Marketplace.sol\":3912:3963  idToMarketItem[_itemId].updatedAt = block.timestamp */\n      dup2\n      swap1\n      sstore\n      pop\n        /* \"Marketplace.sol\":3754:3971  function updateMarketItemPrice(uint256 _itemId, uint256 _price) public onlyProductSeller(_itemId) {\r... */\n      pop\n      pop\n      pop\n      jump\t// out\n        /* \"Marketplace.sol\":168:242  bytes32 public constant MARKETPLACE_OWNER = keccak256(\"MARKETPLACE_OWNER\") */\n    tag_100:\n        /* \"Marketplace.sol\":212:242  keccak256(\"MARKETPLACE_OWNER\") */\n      0x1f9ca85e780b3b3cfbe1334ca9dd68802db7860f692bd163c796bb76d464edc0\n        /* \"Marketplace.sol\":168:242  bytes32 public constant MARKETPLACE_OWNER = keccak256(\"MARKETPLACE_OWNER\") */\n      dup2\n      jump\t// out\n        /* \"Marketplace.sol\":3979:4203  function updateMarketItemActive(uint256 _itemId, bool _isActive) public onlyProductSeller(_itemId) {\r... */\n    tag_106:\n        /* \"Marketplace.sol\":4069:4076  _itemId */\n      dup2\n        /* \"Marketplace.sol\":1050:1064  idToMarketItem */\n      0x03\n        /* \"Marketplace.sol\":1050:1073  idToMarketItem[_itemId] */\n      0x00\n        /* \"Marketplace.sol\":1065:1072  _itemId */\n      dup3\n        /* \"Marketplace.sol\":1050:1073  idToMarketItem[_itemId] */\n      dup2\n      mstore\n      0x20\n      add\n      swap1\n      dup2\n      mstore\n      0x20\n      add\n      0x00\n      keccak256\n        /* \"Marketplace.sol\":1050:1080  idToMarketItem[_itemId].seller */\n      0x04\n      add\n      0x00\n      swap1\n      sload\n      swap1\n      0x0100\n      exp\n      swap1\n      div\n      0xffffffffffffffffffffffffffffffffffffffff\n      and\n        /* \"Marketplace.sol\":1036:1080  msg.sender == idToMarketItem[_itemId].seller */\n      0xffffffffffffffffffffffffffffffffffffffff\n      and\n        /* \"Marketplace.sol\":1036:1046  msg.sender */\n      caller\n        /* \"Marketplace.sol\":1036:1080  msg.sender == idToMarketItem[_itemId].seller */\n      0xffffffffffffffffffffffffffffffffffffffff\n      and\n      eq\n        /* \"Marketplace.sol\":1028:1129  require(msg.sender == idToMarketItem[_itemId].seller, \"Only product seller can execute this action.\") */\n      tag_243\n      jumpi\n      mload(0x40)\n      0x08c379a000000000000000000000000000000000000000000000000000000000\n      dup2\n      mstore\n      0x04\n      add\n      tag_244\n      swap1\n      tag_234\n      jump\t// in\n    tag_244:\n      mload(0x40)\n      dup1\n      swap2\n      sub\n      swap1\n      revert\n    tag_243:\n        /* \"Marketplace.sol\":4124:4133  _isActive */\n      dup2\n        /* \"Marketplace.sol\":4089:4103  idToMarketItem */\n      0x03\n        /* \"Marketplace.sol\":4089:4112  idToMarketItem[_itemId] */\n      0x00\n        /* \"Marketplace.sol\":4104:4111  _itemId */\n      dup6\n        /* \"Marketplace.sol\":4089:4112  idToMarketItem[_itemId] */\n      dup2\n      mstore\n      0x20\n      add\n      swap1\n      dup2\n      mstore\n      0x20\n      add\n      0x00\n      keccak256\n        /* \"Marketplace.sol\":4089:4121  idToMarketItem[_itemId].isActive */\n      0x09\n      add\n      0x00\n        /* \"Marketplace.sol\":4089:4133  idToMarketItem[_itemId].isActive = _isActive */\n      0x0100\n      exp\n      dup2\n      sload\n      dup2\n      0xff\n      mul\n      not\n      and\n      swap1\n      dup4\n      iszero\n      iszero\n      mul\n      or\n      swap1\n      sstore\n      pop\n        /* \"Marketplace.sol\":4180:4195  block.timestamp */\n      timestamp\n        /* \"Marketplace.sol\":4144:4158  idToMarketItem */\n      0x03\n        /* \"Marketplace.sol\":4144:4167  idToMarketItem[_itemId] */\n      0x00\n        /* \"Marketplace.sol\":4159:4166  _itemId */\n      dup6\n        /* \"Marketplace.sol\":4144:4167  idToMarketItem[_itemId] */\n      dup2\n      mstore\n      0x20\n      add\n      swap1\n      dup2\n      mstore\n      0x20\n      add\n      0x00\n      keccak256\n        /* \"Marketplace.sol\":4144:4177  idToMarketItem[_itemId].updatedAt */\n      0x08\n      add\n        /* \"Marketplace.sol\":4144:4195  idToMarketItem[_itemId].updatedAt = block.timestamp */\n      dup2\n      swap1\n      sstore\n      pop\n        /* \"Marketplace.sol\":3979:4203  function updateMarketItemActive(uint256 _itemId, bool _isActive) public onlyProductSeller(_itemId) {\r... */\n      pop\n      pop\n      pop\n      jump\t// out\n        /* \"Marketplace.sol\":2379:2669  function getMarketItem(uint256 _itemId) public view returns (string memory title, address payable seller, uint256 price, bool isActive) {\r... */\n    tag_110:\n        /* \"Marketplace.sol\":2440:2459  string memory title */\n      0x60\n        /* \"Marketplace.sol\":2461:2483  address payable seller */\n      0x00\n        /* \"Marketplace.sol\":2485:2498  uint256 price */\n      dup1\n        /* \"Marketplace.sol\":2500:2513  bool isActive */\n      0x00\n        /* \"Marketplace.sol\":2534:2548  idToMarketItem */\n      0x03\n        /* \"Marketplace.sol\":2534:2557  idToMarketItem[_itemId] */\n      0x00\n        /* \"Marketplace.sol\":2549:2556  _itemId */\n      dup7\n        /* \"Marketplace.sol\":2534:2557  idToMarketItem[_itemId] */\n      dup2\n      mstore\n      0x20\n      add\n      swap1\n      dup2\n      mstore\n      0x20\n      add\n      0x00\n      keccak256\n        /* \"Marketplace.sol\":2534:2563  idToMarketItem[_itemId].title */\n      0x01\n      add\n        /* \"Marketplace.sol\":2565:2579  idToMarketItem */\n      0x03\n        /* \"Marketplace.sol\":2565:2588  idToMarketItem[_itemId] */\n      0x00\n        /* \"Marketplace.sol\":2580:2587  _itemId */\n      dup8\n        /* \"Marketplace.sol\":2565:2588  idToMarketItem[_itemId] */\n      dup2\n      mstore\n      0x20\n      add\n      swap1\n      dup2\n      mstore\n      0x20\n      add\n      0x00\n      keccak256\n        /* \"Marketplace.sol\":2565:2595  idToMarketItem[_itemId].seller */\n      0x04\n      add\n      0x00\n      swap1\n      sload\n      swap1\n      0x0100\n      exp\n      swap1\n      div\n      0xffffffffffffffffffffffffffffffffffffffff\n      and\n        /* \"Marketplace.sol\":2597:2611  idToMarketItem */\n      0x03\n        /* \"Marketplace.sol\":2597:2620  idToMarketItem[_itemId] */\n      0x00\n        /* \"Marketplace.sol\":2612:2619  _itemId */\n      dup9\n        /* \"Marketplace.sol\":2597:2620  idToMarketItem[_itemId] */\n      dup2\n      mstore\n      0x20\n      add\n      swap1\n      dup2\n      mstore\n      0x20\n      add\n      0x00\n      keccak256\n        /* \"Marketplace.sol\":2597:2626  idToMarketItem[_itemId].price */\n      0x03\n      add\n      sload\n        /* \"Marketplace.sol\":2628:2642  idToMarketItem */\n      0x03\n        /* \"Marketplace.sol\":2628:2651  idToMarketItem[_itemId] */\n      0x00\n        /* \"Marketplace.sol\":2643:2650  _itemId */\n      dup10\n        /* \"Marketplace.sol\":2628:2651  idToMarketItem[_itemId] */\n      dup2\n      mstore\n      0x20\n      add\n      swap1\n      dup2\n      mstore\n      0x20\n      add\n      0x00\n      keccak256\n        /* \"Marketplace.sol\":2628:2660  idToMarketItem[_itemId].isActive */\n      0x09\n      add\n      0x00\n      swap1\n      sload\n      swap1\n      0x0100\n      exp\n      swap1\n      div\n      0xff\n      and\n        /* \"Marketplace.sol\":2526:2661  return (idToMarketItem[_itemId].title, idToMarketItem[_itemId].seller, idToMarketItem[_itemId].price, idToMarketItem[_itemId].isActive) */\n      dup4\n      dup1\n      sload\n      tag_247\n      swap1\n      tag_216\n      jump\t// in\n    tag_247:\n      dup1\n      0x1f\n      add\n      0x20\n      dup1\n      swap2\n      div\n      mul\n      0x20\n      add\n      mload(0x40)\n      swap1\n      dup2\n      add\n      0x40\n      mstore\n      dup1\n      swap3\n      swap2\n      swap1\n      dup2\n      dup2\n      mstore\n      0x20\n      add\n      dup3\n      dup1\n      sload\n      tag_248\n      swap1\n      tag_216\n      jump\t// in\n    tag_248:\n      dup1\n      iszero\n      tag_249\n      jumpi\n      dup1\n      0x1f\n      lt\n      tag_250\n      jumpi\n      0x0100\n      dup1\n      dup4\n      sload\n      div\n      mul\n      dup4\n      mstore\n      swap2\n      0x20\n      add\n      swap2\n      jump(tag_249)\n    tag_250:\n      dup3\n      add\n      swap2\n      swap1\n      0x00\n      mstore\n      keccak256(0x00, 0x20)\n      swap1\n    tag_251:\n      dup2\n      sload\n      dup2\n      mstore\n      swap1\n      0x01\n      add\n      swap1\n      0x20\n      add\n      dup1\n      dup4\n      gt\n      tag_251\n      jumpi\n      dup3\n      swap1\n      sub\n      0x1f\n      and\n      dup3\n      add\n      swap2\n    tag_249:\n      pop\n      pop\n      pop\n      pop\n      pop\n      swap4\n      pop\n      swap4\n      pop\n      swap4\n      pop\n      swap4\n      pop\n      swap4\n      pop\n        /* \"Marketplace.sol\":2379:2669  function getMarketItem(uint256 _itemId) public view returns (string memory title, address payable seller, uint256 price, bool isActive) {\r... */\n      swap2\n      swap4\n      pop\n      swap2\n      swap4\n      jump\t// out\n        /* \"@openzeppelin/contracts/access/AccessControl.sol\":4766:4913  function revokeRole(bytes32 role, address account) public virtual override onlyRole(getRoleAdmin(role)) {... */\n    tag_116:\n        /* \"@openzeppelin/contracts/access/AccessControl.sol\":4850:4868  getRoleAdmin(role) */\n      tag_252\n        /* \"@openzeppelin/contracts/access/AccessControl.sol\":4863:4867  role */\n      dup3\n        /* \"@openzeppelin/contracts/access/AccessControl.sol\":4850:4862  getRoleAdmin */\n      tag_45\n        /* \"@openzeppelin/contracts/access/AccessControl.sol\":4850:4868  getRoleAdmin(role) */\n      jump\t// in\n    tag_252:\n        /* \"@openzeppelin/contracts/access/AccessControl.sol\":2505:2535  _checkRole(role, _msgSender()) */\n      tag_254\n        /* \"@openzeppelin/contracts/access/AccessControl.sol\":2516:2520  role */\n      dup2\n        /* \"@openzeppelin/contracts/access/AccessControl.sol\":2522:2534  _msgSender() */\n      tag_255\n        /* \"@openzeppelin/contracts/access/AccessControl.sol\":2522:2532  _msgSender */\n      tag_176\n        /* \"@openzeppelin/contracts/access/AccessControl.sol\":2522:2534  _msgSender() */\n      jump\t// in\n    tag_255:\n        /* \"@openzeppelin/contracts/access/AccessControl.sol\":2505:2515  _checkRole */\n      tag_177\n        /* \"@openzeppelin/contracts/access/AccessControl.sol\":2505:2535  _checkRole(role, _msgSender()) */\n      jump\t// in\n    tag_254:\n        /* \"@openzeppelin/contracts/access/AccessControl.sol\":4880:4906  _revokeRole(role, account) */\n      tag_257\n        /* \"@openzeppelin/contracts/access/AccessControl.sol\":4892:4896  role */\n      dup4\n        /* \"@openzeppelin/contracts/access/AccessControl.sol\":4898:4905  account */\n      dup4\n        /* \"@openzeppelin/contracts/access/AccessControl.sol\":4880:4891  _revokeRole */\n      tag_187\n        /* \"@openzeppelin/contracts/access/AccessControl.sol\":4880:4906  _revokeRole(role, account) */\n      jump\t// in\n    tag_257:\n        /* \"@openzeppelin/contracts/access/AccessControl.sol\":4766:4913  function revokeRole(bytes32 role, address account) public virtual override onlyRole(getRoleAdmin(role)) {... */\n      pop\n      pop\n      pop\n      jump\t// out\n        /* \"Marketplace.sol\":3278:3505  function updateMarketItemQuantity(uint256 _itemId, uint8 _quantity) public onlyProductSeller(_itemId) {\r... */\n    tag_120:\n        /* \"Marketplace.sol\":3371:3378  _itemId */\n      dup2\n        /* \"Marketplace.sol\":1050:1064  idToMarketItem */\n      0x03\n        /* \"Marketplace.sol\":1050:1073  idToMarketItem[_itemId] */\n      0x00\n        /* \"Marketplace.sol\":1065:1072  _itemId */\n      dup3\n        /* \"Marketplace.sol\":1050:1073  idToMarketItem[_itemId] */\n      dup2\n      mstore\n      0x20\n      add\n      swap1\n      dup2\n      mstore\n      0x20\n      add\n      0x00\n      keccak256\n        /* \"Marketplace.sol\":1050:1080  idToMarketItem[_itemId].seller */\n      0x04\n      add\n      0x00\n      swap1\n      sload\n      swap1\n      0x0100\n      exp\n      swap1\n      div\n      0xffffffffffffffffffffffffffffffffffffffff\n      and\n        /* \"Marketplace.sol\":1036:1080  msg.sender == idToMarketItem[_itemId].seller */\n      0xffffffffffffffffffffffffffffffffffffffff\n      and\n        /* \"Marketplace.sol\":1036:1046  msg.sender */\n      caller\n        /* \"Marketplace.sol\":1036:1080  msg.sender == idToMarketItem[_itemId].seller */\n      0xffffffffffffffffffffffffffffffffffffffff\n      and\n      eq\n        /* \"Marketplace.sol\":1028:1129  require(msg.sender == idToMarketItem[_itemId].seller, \"Only product seller can execute this action.\") */\n      tag_259\n      jumpi\n      mload(0x40)\n      0x08c379a000000000000000000000000000000000000000000000000000000000\n      dup2\n      mstore\n      0x04\n      add\n      tag_260\n      swap1\n      tag_234\n      jump\t// in\n    tag_260:\n      mload(0x40)\n      dup1\n      swap2\n      sub\n      swap1\n      revert\n    tag_259:\n        /* \"Marketplace.sol\":3426:3435  _quantity */\n      dup2\n        /* \"Marketplace.sol\":3391:3405  idToMarketItem */\n      0x03\n        /* \"Marketplace.sol\":3391:3414  idToMarketItem[_itemId] */\n      0x00\n        /* \"Marketplace.sol\":3406:3413  _itemId */\n      dup6\n        /* \"Marketplace.sol\":3391:3414  idToMarketItem[_itemId] */\n      dup2\n      mstore\n      0x20\n      add\n      swap1\n      dup2\n      mstore\n      0x20\n      add\n      0x00\n      keccak256\n        /* \"Marketplace.sol\":3391:3423  idToMarketItem[_itemId].quantity */\n      0x06\n      add\n      0x00\n        /* \"Marketplace.sol\":3391:3435  idToMarketItem[_itemId].quantity = _quantity */\n      0x0100\n      exp\n      dup2\n      sload\n      dup2\n      0xff\n      mul\n      not\n      and\n      swap1\n      dup4\n      0xff\n      and\n      mul\n      or\n      swap1\n      sstore\n      pop\n        /* \"Marketplace.sol\":3482:3497  block.timestamp */\n      timestamp\n        /* \"Marketplace.sol\":3446:3460  idToMarketItem */\n      0x03\n        /* \"Marketplace.sol\":3446:3469  idToMarketItem[_itemId] */\n      0x00\n        /* \"Marketplace.sol\":3461:3468  _itemId */\n      dup6\n        /* \"Marketplace.sol\":3446:3469  idToMarketItem[_itemId] */\n      dup2\n      mstore\n      0x20\n      add\n      swap1\n      dup2\n      mstore\n      0x20\n      add\n      0x00\n      keccak256\n        /* \"Marketplace.sol\":3446:3479  idToMarketItem[_itemId].updatedAt */\n      0x08\n      add\n        /* \"Marketplace.sol\":3446:3497  idToMarketItem[_itemId].updatedAt = block.timestamp */\n      dup2\n      swap1\n      sstore\n      pop\n        /* \"Marketplace.sol\":3278:3505  function updateMarketItemQuantity(uint256 _itemId, uint8 _quantity) public onlyProductSeller(_itemId) {\r... */\n      pop\n      pop\n      pop\n      jump\t// out\n        /* \"Marketplace.sol\":3513:3746  function updateMarketItemImgUrl(uint256 _itemId, string memory _imageUrl) public onlyProductSeller(_itemId) {\r... */\n    tag_124:\n        /* \"Marketplace.sol\":3612:3619  _itemId */\n      dup2\n        /* \"Marketplace.sol\":1050:1064  idToMarketItem */\n      0x03\n        /* \"Marketplace.sol\":1050:1073  idToMarketItem[_itemId] */\n      0x00\n        /* \"Marketplace.sol\":1065:1072  _itemId */\n      dup3\n        /* \"Marketplace.sol\":1050:1073  idToMarketItem[_itemId] */\n      dup2\n      mstore\n      0x20\n      add\n      swap1\n      dup2\n      mstore\n      0x20\n      add\n      0x00\n      keccak256\n        /* \"Marketplace.sol\":1050:1080  idToMarketItem[_itemId].seller */\n      0x04\n      add\n      0x00\n      swap1\n      sload\n      swap1\n      0x0100\n      exp\n      swap1\n      div\n      0xffffffffffffffffffffffffffffffffffffffff\n      and\n        /* \"Marketplace.sol\":1036:1080  msg.sender == idToMarketItem[_itemId].seller */\n      0xffffffffffffffffffffffffffffffffffffffff\n      and\n        /* \"Marketplace.sol\":1036:1046  msg.sender */\n      caller\n        /* \"Marketplace.sol\":1036:1080  msg.sender == idToMarketItem[_itemId].seller */\n      0xffffffffffffffffffffffffffffffffffffffff\n      and\n      eq\n        /* \"Marketplace.sol\":1028:1129  require(msg.sender == idToMarketItem[_itemId].seller, \"Only product seller can execute this action.\") */\n      tag_263\n      jumpi\n      mload(0x40)\n      0x08c379a000000000000000000000000000000000000000000000000000000000\n      dup2\n      mstore\n      0x04\n      add\n      tag_264\n      swap1\n      tag_234\n      jump\t// in\n    tag_264:\n      mload(0x40)\n      dup1\n      swap2\n      sub\n      swap1\n      revert\n    tag_263:\n        /* \"Marketplace.sol\":3667:3676  _imageUrl */\n      dup2\n        /* \"Marketplace.sol\":3632:3646  idToMarketItem */\n      0x03\n        /* \"Marketplace.sol\":3632:3655  idToMarketItem[_itemId] */\n      0x00\n        /* \"Marketplace.sol\":3647:3654  _itemId */\n      dup6\n        /* \"Marketplace.sol\":3632:3655  idToMarketItem[_itemId] */\n      dup2\n      mstore\n      0x20\n      add\n      swap1\n      dup2\n      mstore\n      0x20\n      add\n      0x00\n      keccak256\n        /* \"Marketplace.sol\":3632:3664  idToMarketItem[_itemId].imageUrl */\n      0x05\n      add\n        /* \"Marketplace.sol\":3632:3676  idToMarketItem[_itemId].imageUrl = _imageUrl */\n      swap1\n      dup1\n      mload\n      swap1\n      0x20\n      add\n      swap1\n      tag_266\n      swap3\n      swap2\n      swap1\n      tag_193\n      jump\t// in\n    tag_266:\n      pop\n        /* \"Marketplace.sol\":3723:3738  block.timestamp */\n      timestamp\n        /* \"Marketplace.sol\":3687:3701  idToMarketItem */\n      0x03\n        /* \"Marketplace.sol\":3687:3710  idToMarketItem[_itemId] */\n      0x00\n        /* \"Marketplace.sol\":3702:3709  _itemId */\n      dup6\n        /* \"Marketplace.sol\":3687:3710  idToMarketItem[_itemId] */\n      dup2\n      mstore\n      0x20\n      add\n      swap1\n      dup2\n      mstore\n      0x20\n      add\n      0x00\n      keccak256\n        /* \"Marketplace.sol\":3687:3720  idToMarketItem[_itemId].updatedAt */\n      0x08\n      add\n        /* \"Marketplace.sol\":3687:3738  idToMarketItem[_itemId].updatedAt = block.timestamp */\n      dup2\n      swap1\n      sstore\n      pop\n        /* \"Marketplace.sol\":3513:3746  function updateMarketItemImgUrl(uint256 _itemId, string memory _imageUrl) public onlyProductSeller(_itemId) {\r... */\n      pop\n      pop\n      pop\n      jump\t// out\n        /* \"Marketplace.sol\":4480:4628  function checkBuyer(uint256 _itemId, address _buyer) public view returns (bool) {\r... */\n    tag_129:\n        /* \"Marketplace.sol\":4554:4558  bool */\n      0x00\n        /* \"Marketplace.sol\":4578:4620  indexOf(idToBuyerAddress[_itemId], _buyer) */\n      tag_268\n        /* \"Marketplace.sol\":4586:4602  idToBuyerAddress */\n      0x02\n        /* \"Marketplace.sol\":4586:4611  idToBuyerAddress[_itemId] */\n      0x00\n        /* \"Marketplace.sol\":4603:4610  _itemId */\n      dup6\n        /* \"Marketplace.sol\":4586:4611  idToBuyerAddress[_itemId] */\n      dup2\n      mstore\n      0x20\n      add\n      swap1\n      dup2\n      mstore\n      0x20\n      add\n      0x00\n      keccak256\n        /* \"Marketplace.sol\":4578:4620  indexOf(idToBuyerAddress[_itemId], _buyer) */\n      dup1\n      sload\n      dup1\n      0x20\n      mul\n      0x20\n      add\n      mload(0x40)\n      swap1\n      dup2\n      add\n      0x40\n      mstore\n      dup1\n      swap3\n      swap2\n      swap1\n      dup2\n      dup2\n      mstore\n      0x20\n      add\n      dup3\n      dup1\n      sload\n      dup1\n      iszero\n      tag_269\n      jumpi\n      0x20\n      mul\n      dup3\n      add\n      swap2\n      swap1\n      0x00\n      mstore\n      keccak256(0x00, 0x20)\n      swap1\n    tag_270:\n      dup2\n      0x00\n      swap1\n      sload\n      swap1\n      0x0100\n      exp\n      swap1\n      div\n      0xffffffffffffffffffffffffffffffffffffffff\n      and\n      0xffffffffffffffffffffffffffffffffffffffff\n      and\n      dup2\n      mstore\n      0x20\n      add\n      swap1\n      0x01\n      add\n      swap1\n      dup1\n      dup4\n      gt\n      tag_270\n      jumpi\n    tag_269:\n      pop\n      pop\n      pop\n      pop\n      pop\n        /* \"Marketplace.sol\":4613:4619  _buyer */\n      dup4\n        /* \"Marketplace.sol\":4578:4585  indexOf */\n      tag_271\n        /* \"Marketplace.sol\":4578:4620  indexOf(idToBuyerAddress[_itemId], _buyer) */\n      jump\t// in\n    tag_268:\n        /* \"Marketplace.sol\":4571:4620  return indexOf(idToBuyerAddress[_itemId], _buyer) */\n      swap1\n      pop\n        /* \"Marketplace.sol\":4480:4628  function checkBuyer(uint256 _itemId, address _buyer) public view returns (bool) {\r... */\n      swap3\n      swap2\n      pop\n      pop\n      jump\t// out\n        /* \"@openzeppelin/contracts/utils/introspection/ERC165.sol\":829:984  function supportsInterface(bytes4 interfaceId) public view virtual override returns (bool) {... */\n    tag_134:\n        /* \"@openzeppelin/contracts/utils/introspection/ERC165.sol\":914:918  bool */\n      0x00\n        /* \"@openzeppelin/contracts/utils/introspection/ERC165.sol\":952:977  type(IERC165).interfaceId */\n      0x01ffc9a700000000000000000000000000000000000000000000000000000000\n        /* \"@openzeppelin/contracts/utils/introspection/ERC165.sol\":937:977  interfaceId == type(IERC165).interfaceId */\n      not(0xffffffffffffffffffffffffffffffffffffffffffffffffffffffff)\n      and\n        /* \"@openzeppelin/contracts/utils/introspection/ERC165.sol\":937:948  interfaceId */\n      dup3\n        /* \"@openzeppelin/contracts/utils/introspection/ERC165.sol\":937:977  interfaceId == type(IERC165).interfaceId */\n      not(0xffffffffffffffffffffffffffffffffffffffffffffffffffffffff)\n      and\n      eq\n        /* \"@openzeppelin/contracts/utils/introspection/ERC165.sol\":930:977  return interfaceId == type(IERC165).interfaceId */\n      swap1\n      pop\n        /* \"@openzeppelin/contracts/utils/introspection/ERC165.sol\":829:984  function supportsInterface(bytes4 interfaceId) public view virtual override returns (bool) {... */\n      swap2\n      swap1\n      pop\n      jump\t// out\n        /* \"@openzeppelin/contracts/utils/Context.sol\":640:736  function _msgSender() internal view virtual returns (address) {... */\n    tag_176:\n        /* \"@openzeppelin/contracts/utils/Context.sol\":693:700  address */\n      0x00\n        /* \"@openzeppelin/contracts/utils/Context.sol\":719:729  msg.sender */\n      caller\n        /* \"@openzeppelin/contracts/utils/Context.sol\":712:729  return msg.sender */\n      swap1\n      pop\n        /* \"@openzeppelin/contracts/utils/Context.sol\":640:736  function _msgSender() internal view virtual returns (address) {... */\n      swap1\n      jump\t// out\n        /* \"@openzeppelin/contracts/access/AccessControl.sol\":3335:3827  function _checkRole(bytes32 role, address account) internal view virtual {... */\n    tag_177:\n        /* \"@openzeppelin/contracts/access/AccessControl.sol\":3423:3445  hasRole(role, account) */\n      tag_275\n        /* \"@openzeppelin/contracts/access/AccessControl.sol\":3431:3435  role */\n      dup3\n        /* \"@openzeppelin/contracts/access/AccessControl.sol\":3437:3444  account */\n      dup3\n        /* \"@openzeppelin/contracts/access/AccessControl.sol\":3423:3430  hasRole */\n      tag_87\n        /* \"@openzeppelin/contracts/access/AccessControl.sol\":3423:3445  hasRole(role, account) */\n      jump\t// in\n    tag_275:\n        /* \"@openzeppelin/contracts/access/AccessControl.sol\":3418:3821  if (!hasRole(role, account)) {... */\n      tag_276\n      jumpi\n        /* \"@openzeppelin/contracts/access/AccessControl.sol\":3606:3647  Strings.toHexString(uint160(account), 20) */\n      tag_277\n        /* \"@openzeppelin/contracts/access/AccessControl.sol\":3634:3641  account */\n      dup2\n        /* \"@openzeppelin/contracts/access/AccessControl.sol\":3606:3647  Strings.toHexString(uint160(account), 20) */\n      0xffffffffffffffffffffffffffffffffffffffff\n      and\n        /* \"@openzeppelin/contracts/access/AccessControl.sol\":3644:3646  20 */\n      0x14\n        /* \"@openzeppelin/contracts/access/AccessControl.sol\":3606:3625  Strings.toHexString */\n      tag_278\n        /* \"@openzeppelin/contracts/access/AccessControl.sol\":3606:3647  Strings.toHexString(uint160(account), 20) */\n      jump\t// in\n    tag_277:\n        /* \"@openzeppelin/contracts/access/AccessControl.sol\":3718:3756  Strings.toHexString(uint256(role), 32) */\n      tag_279\n        /* \"@openzeppelin/contracts/access/AccessControl.sol\":3746:3750  role */\n      dup4\n        /* \"@openzeppelin/contracts/access/AccessControl.sol\":3738:3751  uint256(role) */\n      0x00\n      shr\n        /* \"@openzeppelin/contracts/access/AccessControl.sol\":3753:3755  32 */\n      0x20\n        /* \"@openzeppelin/contracts/access/AccessControl.sol\":3718:3737  Strings.toHexString */\n      tag_278\n        /* \"@openzeppelin/contracts/access/AccessControl.sol\":3718:3756  Strings.toHexString(uint256(role), 32) */\n      jump\t// in\n    tag_279:\n        /* \"@openzeppelin/contracts/access/AccessControl.sol\":3513:3778  abi.encodePacked(... */\n      add(0x20, mload(0x40))\n      tag_280\n      swap3\n      swap2\n      swap1\n      tag_281\n      jump\t// in\n    tag_280:\n      mload(0x40)\n      0x20\n      dup2\n      dup4\n      sub\n      sub\n      dup2\n      mstore\n      swap1\n      0x40\n      mstore\n        /* \"@openzeppelin/contracts/access/AccessControl.sol\":3461:3810  revert(... */\n      mload(0x40)\n      0x08c379a000000000000000000000000000000000000000000000000000000000\n      dup2\n      mstore\n      0x04\n      add\n      tag_282\n      swap2\n      swap1\n      tag_283\n      jump\t// in\n    tag_282:\n      mload(0x40)\n      dup1\n      swap2\n      sub\n      swap1\n      revert\n        /* \"@openzeppelin/contracts/access/AccessControl.sol\":3418:3821  if (!hasRole(role, account)) {... */\n    tag_276:\n        /* \"@openzeppelin/contracts/access/AccessControl.sol\":3335:3827  function _checkRole(bytes32 role, address account) internal view virtual {... */\n      pop\n      pop\n      jump\t// out\n        /* \"@openzeppelin/contracts/access/AccessControl.sol\":6861:7094  function _grantRole(bytes32 role, address account) internal virtual {... */\n    tag_180:\n        /* \"@openzeppelin/contracts/access/AccessControl.sol\":6944:6966  hasRole(role, account) */\n      tag_285\n        /* \"@openzeppelin/contracts/access/AccessControl.sol\":6952:6956  role */\n      dup3\n        /* \"@openzeppelin/contracts/access/AccessControl.sol\":6958:6965  account */\n      dup3\n        /* \"@openzeppelin/contracts/access/AccessControl.sol\":6944:6951  hasRole */\n      tag_87\n        /* \"@openzeppelin/contracts/access/AccessControl.sol\":6944:6966  hasRole(role, account) */\n      jump\t// in\n    tag_285:\n        /* \"@openzeppelin/contracts/access/AccessControl.sol\":6939:7088  if (!hasRole(role, account)) {... */\n      tag_286\n      jumpi\n        /* \"@openzeppelin/contracts/access/AccessControl.sol\":7014:7018  true */\n      0x01\n        /* \"@openzeppelin/contracts/access/AccessControl.sol\":6982:6988  _roles */\n      0x00\n        /* \"@openzeppelin/contracts/access/AccessControl.sol\":6982:6994  _roles[role] */\n      dup1\n        /* \"@openzeppelin/contracts/access/AccessControl.sol\":6989:6993  role */\n      dup5\n        /* \"@openzeppelin/contracts/access/AccessControl.sol\":6982:6994  _roles[role] */\n      dup2\n      mstore\n      0x20\n      add\n      swap1\n      dup2\n      mstore\n      0x20\n      add\n      0x00\n      keccak256\n        /* \"@openzeppelin/contracts/access/AccessControl.sol\":6982:7002  _roles[role].members */\n      0x00\n      add\n        /* \"@openzeppelin/contracts/access/AccessControl.sol\":6982:7011  _roles[role].members[account] */\n      0x00\n        /* \"@openzeppelin/contracts/access/AccessControl.sol\":7003:7010  account */\n      dup4\n        /* \"@openzeppelin/contracts/access/AccessControl.sol\":6982:7011  _roles[role].members[account] */\n      0xffffffffffffffffffffffffffffffffffffffff\n      and\n      0xffffffffffffffffffffffffffffffffffffffff\n      and\n      dup2\n      mstore\n      0x20\n      add\n      swap1\n      dup2\n      mstore\n      0x20\n      add\n      0x00\n      keccak256\n      0x00\n        /* \"@openzeppelin/contracts/access/AccessControl.sol\":6982:7018  _roles[role].members[account] = true */\n      0x0100\n      exp\n      dup2\n      sload\n      dup2\n      0xff\n      mul\n      not\n      and\n      swap1\n      dup4\n      iszero\n      iszero\n      mul\n      or\n      swap1\n      sstore\n      pop\n        /* \"@openzeppelin/contracts/access/AccessControl.sol\":7064:7076  _msgSender() */\n      tag_287\n        /* \"@openzeppelin/contracts/access/AccessControl.sol\":7064:7074  _msgSender */\n      tag_176\n        /* \"@openzeppelin/contracts/access/AccessControl.sol\":7064:7076  _msgSender() */\n      jump\t// in\n    tag_287:\n        /* \"@openzeppelin/contracts/access/AccessControl.sol\":7037:7077  RoleGranted(role, account, _msgSender()) */\n      0xffffffffffffffffffffffffffffffffffffffff\n      and\n        /* \"@openzeppelin/contracts/access/AccessControl.sol\":7055:7062  account */\n      dup2\n        /* \"@openzeppelin/contracts/access/AccessControl.sol\":7037:7077  RoleGranted(role, account, _msgSender()) */\n      0xffffffffffffffffffffffffffffffffffffffff\n      and\n        /* \"@openzeppelin/contracts/access/AccessControl.sol\":7049:7053  role */\n      dup4\n        /* \"@openzeppelin/contracts/access/AccessControl.sol\":7037:7077  RoleGranted(role, account, _msgSender()) */\n      0x2f8788117e7eff1d82e926ec794901d17c78024a50270940304540a733656f0d\n      mload(0x40)\n      mload(0x40)\n      dup1\n      swap2\n      sub\n      swap1\n      log4\n        /* \"@openzeppelin/contracts/access/AccessControl.sol\":6939:7088  if (!hasRole(role, account)) {... */\n    tag_286:\n        /* \"@openzeppelin/contracts/access/AccessControl.sol\":6861:7094  function _grantRole(bytes32 role, address account) internal virtual {... */\n      pop\n      pop\n      jump\t// out\n        /* \"@openzeppelin/contracts/access/AccessControl.sol\":7219:7453  function _revokeRole(bytes32 role, address account) internal virtual {... */\n    tag_187:\n        /* \"@openzeppelin/contracts/access/AccessControl.sol\":7302:7324  hasRole(role, account) */\n      tag_289\n        /* \"@openzeppelin/contracts/access/AccessControl.sol\":7310:7314  role */\n      dup3\n        /* \"@openzeppelin/contracts/access/AccessControl.sol\":7316:7323  account */\n      dup3\n        /* \"@openzeppelin/contracts/access/AccessControl.sol\":7302:7309  hasRole */\n      tag_87\n        /* \"@openzeppelin/contracts/access/AccessControl.sol\":7302:7324  hasRole(role, account) */\n      jump\t// in\n    tag_289:\n        /* \"@openzeppelin/contracts/access/AccessControl.sol\":7298:7447  if (hasRole(role, account)) {... */\n      iszero\n      tag_290\n      jumpi\n        /* \"@openzeppelin/contracts/access/AccessControl.sol\":7372:7377  false */\n      0x00\n        /* \"@openzeppelin/contracts/access/AccessControl.sol\":7340:7346  _roles */\n      dup1\n        /* \"@openzeppelin/contracts/access/AccessControl.sol\":7340:7352  _roles[role] */\n      0x00\n        /* \"@openzeppelin/contracts/access/AccessControl.sol\":7347:7351  role */\n      dup5\n        /* \"@openzeppelin/contracts/access/AccessControl.sol\":7340:7352  _roles[role] */\n      dup2\n      mstore\n      0x20\n      add\n      swap1\n      dup2\n      mstore\n      0x20\n      add\n      0x00\n      keccak256\n        /* \"@openzeppelin/contracts/access/AccessControl.sol\":7340:7360  _roles[role].members */\n      0x00\n      add\n        /* \"@openzeppelin/contracts/access/AccessControl.sol\":7340:7369  _roles[role].members[account] */\n      0x00\n        /* \"@openzeppelin/contracts/access/AccessControl.sol\":7361:7368  account */\n      dup4\n        /* \"@openzeppelin/contracts/access/AccessControl.sol\":7340:7369  _roles[role].members[account] */\n      0xffffffffffffffffffffffffffffffffffffffff\n      and\n      0xffffffffffffffffffffffffffffffffffffffff\n      and\n      dup2\n      mstore\n      0x20\n      add\n      swap1\n      dup2\n      mstore\n      0x20\n      add\n      0x00\n      keccak256\n      0x00\n        /* \"@openzeppelin/contracts/access/AccessControl.sol\":7340:7377  _roles[role].members[account] = false */\n      0x0100\n      exp\n      dup2\n      sload\n      dup2\n      0xff\n      mul\n      not\n      and\n      swap1\n      dup4\n      iszero\n      iszero\n      mul\n      or\n      swap1\n      sstore\n      pop\n        /* \"@openzeppelin/contracts/access/AccessControl.sol\":7423:7435  _msgSender() */\n      tag_291\n        /* \"@openzeppelin/contracts/access/AccessControl.sol\":7423:7433  _msgSender */\n      tag_176\n        /* \"@openzeppelin/contracts/access/AccessControl.sol\":7423:7435  _msgSender() */\n      jump\t// in\n    tag_291:\n        /* \"@openzeppelin/contracts/access/AccessControl.sol\":7396:7436  RoleRevoked(role, account, _msgSender()) */\n      0xffffffffffffffffffffffffffffffffffffffff\n      and\n        /* \"@openzeppelin/contracts/access/AccessControl.sol\":7414:7421  account */\n      dup2\n        /* \"@openzeppelin/contracts/access/AccessControl.sol\":7396:7436  RoleRevoked(role, account, _msgSender()) */\n      0xffffffffffffffffffffffffffffffffffffffff\n      and\n        /* \"@openzeppelin/contracts/access/AccessControl.sol\":7408:7412  role */\n      dup4\n        /* \"@openzeppelin/contracts/access/AccessControl.sol\":7396:7436  RoleRevoked(role, account, _msgSender()) */\n      0xf6391f5c32d9c69d2a47ea670b442974b53935d1edc7fd64eb21e047a839171b\n      mload(0x40)\n      mload(0x40)\n      dup1\n      swap2\n      sub\n      swap1\n      log4\n        /* \"@openzeppelin/contracts/access/AccessControl.sol\":7298:7447  if (hasRole(role, account)) {... */\n    tag_290:\n        /* \"@openzeppelin/contracts/access/AccessControl.sol\":7219:7453  function _revokeRole(bytes32 role, address account) internal virtual {... */\n      pop\n      pop\n      jump\t// out\n        /* \"Marketplace.sol\":4211:4472  function indexOf(address[] memory arr, address searchFor) private pure returns (bool) {\r... */\n    tag_271:\n        /* \"Marketplace.sol\":4291:4295  bool */\n      0x00\n        /* \"Marketplace.sol\":4313:4322  uint256 i */\n      dup1\n        /* \"Marketplace.sol\":4325:4326  0 */\n      0x00\n        /* \"Marketplace.sol\":4313:4326  uint256 i = 0 */\n      swap1\n      pop\n        /* \"Marketplace.sol\":4308:4442  for (uint256 i = 0; i < arr.length; i++) {\r... */\n    tag_293:\n        /* \"Marketplace.sol\":4332:4335  arr */\n      dup4\n        /* \"Marketplace.sol\":4332:4342  arr.length */\n      mload\n        /* \"Marketplace.sol\":4328:4329  i */\n      dup2\n        /* \"Marketplace.sol\":4328:4342  i < arr.length */\n      lt\n        /* \"Marketplace.sol\":4308:4442  for (uint256 i = 0; i < arr.length; i++) {\r... */\n      iszero\n      tag_294\n      jumpi\n        /* \"Marketplace.sol\":4378:4387  searchFor */\n      dup3\n        /* \"Marketplace.sol\":4368:4387  arr[i] == searchFor */\n      0xffffffffffffffffffffffffffffffffffffffff\n      and\n        /* \"Marketplace.sol\":4368:4371  arr */\n      dup5\n        /* \"Marketplace.sol\":4372:4373  i */\n      dup3\n        /* \"Marketplace.sol\":4368:4374  arr[i] */\n      dup2\n      mload\n      dup2\n      lt\n      tag_296\n      jumpi\n      tag_297\n      tag_204\n      jump\t// in\n    tag_297:\n    tag_296:\n      0x20\n      mul\n      0x20\n      add\n      add\n      mload\n        /* \"Marketplace.sol\":4368:4387  arr[i] == searchFor */\n      0xffffffffffffffffffffffffffffffffffffffff\n      and\n      eq\n        /* \"Marketplace.sol\":4364:4431  if (arr[i] == searchFor) {\r... */\n      iszero\n      tag_298\n      jumpi\n        /* \"Marketplace.sol\":4411:4415  true */\n      0x01\n        /* \"Marketplace.sol\":4404:4415  return true */\n      swap2\n      pop\n      pop\n      jump(tag_292)\n        /* \"Marketplace.sol\":4364:4431  if (arr[i] == searchFor) {\r... */\n    tag_298:\n        /* \"Marketplace.sol\":4344:4347  i++ */\n      dup1\n      dup1\n      tag_299\n      swap1\n      tag_197\n      jump\t// in\n    tag_299:\n      swap2\n      pop\n      pop\n        /* \"Marketplace.sol\":4308:4442  for (uint256 i = 0; i < arr.length; i++) {\r... */\n      jump(tag_293)\n    tag_294:\n      pop\n        /* \"Marketplace.sol\":4459:4464  false */\n      0x00\n        /* \"Marketplace.sol\":4452:4464  return false */\n      swap1\n      pop\n        /* \"Marketplace.sol\":4211:4472  function indexOf(address[] memory arr, address searchFor) private pure returns (bool) {\r... */\n    tag_292:\n      swap3\n      swap2\n      pop\n      pop\n      jump\t// out\n        /* \"@openzeppelin/contracts/utils/Strings.sol\":1588:2029  function toHexString(uint256 value, uint256 length) internal pure returns (string memory) {... */\n    tag_278:\n        /* \"@openzeppelin/contracts/utils/Strings.sol\":1663:1676  string memory */\n      0x60\n        /* \"@openzeppelin/contracts/utils/Strings.sol\":1688:1707  bytes memory buffer */\n      0x00\n        /* \"@openzeppelin/contracts/utils/Strings.sol\":1733:1734  2 */\n      0x02\n        /* \"@openzeppelin/contracts/utils/Strings.sol\":1724:1730  length */\n      dup4\n        /* \"@openzeppelin/contracts/utils/Strings.sol\":1720:1721  2 */\n      0x02\n        /* \"@openzeppelin/contracts/utils/Strings.sol\":1720:1730  2 * length */\n      tag_301\n      swap2\n      swap1\n      tag_151\n      jump\t// in\n    tag_301:\n        /* \"@openzeppelin/contracts/utils/Strings.sol\":1720:1734  2 * length + 2 */\n      tag_302\n      swap2\n      swap1\n      tag_208\n      jump\t// in\n    tag_302:\n        /* \"@openzeppelin/contracts/utils/Strings.sol\":1710:1735  new bytes(2 * length + 2) */\n      0xffffffffffffffff\n      dup2\n      gt\n      iszero\n      tag_303\n      jumpi\n      tag_304\n      tag_305\n      jump\t// in\n    tag_304:\n    tag_303:\n      mload(0x40)\n      swap1\n      dup1\n      dup3\n      mstore\n      dup1\n      0x1f\n      add\n      not(0x1f)\n      and\n      0x20\n      add\n      dup3\n      add\n      0x40\n      mstore\n      dup1\n      iszero\n      tag_306\n      jumpi\n      dup2\n      0x20\n      add\n      0x01\n      dup3\n      mul\n      dup1\n      calldatasize\n      dup4\n      calldatacopy\n      dup1\n      dup3\n      add\n      swap2\n      pop\n      pop\n      swap1\n      pop\n    tag_306:\n      pop\n        /* \"@openzeppelin/contracts/utils/Strings.sol\":1688:1735  bytes memory buffer = new bytes(2 * length + 2) */\n      swap1\n      pop\n        /* \"@openzeppelin/contracts/utils/Strings.sol\":1745:1760  buffer[0] = \"0\" */\n      0x3000000000000000000000000000000000000000000000000000000000000000\n        /* \"@openzeppelin/contracts/utils/Strings.sol\":1745:1751  buffer */\n      dup2\n        /* \"@openzeppelin/contracts/utils/Strings.sol\":1752:1753  0 */\n      0x00\n        /* \"@openzeppelin/contracts/utils/Strings.sol\":1745:1754  buffer[0] */\n      dup2\n      mload\n      dup2\n      lt\n      tag_307\n      jumpi\n      tag_308\n      tag_204\n      jump\t// in\n    tag_308:\n    tag_307:\n      0x20\n      add\n      add\n        /* \"@openzeppelin/contracts/utils/Strings.sol\":1745:1760  buffer[0] = \"0\" */\n      swap1\n      not(0xffffffffffffffffffffffffffffffffffffffffffffffffffffffffffffff)\n      and\n      swap1\n      dup2\n      0x00\n      byte\n      swap1\n      mstore8\n      pop\n        /* \"@openzeppelin/contracts/utils/Strings.sol\":1770:1785  buffer[1] = \"x\" */\n      0x7800000000000000000000000000000000000000000000000000000000000000\n        /* \"@openzeppelin/contracts/utils/Strings.sol\":1770:1776  buffer */\n      dup2\n        /* \"@openzeppelin/contracts/utils/Strings.sol\":1777:1778  1 */\n      0x01\n        /* \"@openzeppelin/contracts/utils/Strings.sol\":1770:1779  buffer[1] */\n      dup2\n      mload\n      dup2\n      lt\n      tag_309\n      jumpi\n      tag_310\n      tag_204\n      jump\t// in\n    tag_310:\n    tag_309:\n      0x20\n      add\n      add\n        /* \"@openzeppelin/contracts/utils/Strings.sol\":1770:1785  buffer[1] = \"x\" */\n      swap1\n      not(0xffffffffffffffffffffffffffffffffffffffffffffffffffffffffffffff)\n      and\n      swap1\n      dup2\n      0x00\n      byte\n      swap1\n      mstore8\n      pop\n        /* \"@openzeppelin/contracts/utils/Strings.sol\":1800:1809  uint256 i */\n      0x00\n        /* \"@openzeppelin/contracts/utils/Strings.sol\":1825:1826  1 */\n      0x01\n        /* \"@openzeppelin/contracts/utils/Strings.sol\":1816:1822  length */\n      dup5\n        /* \"@openzeppelin/contracts/utils/Strings.sol\":1812:1813  2 */\n      0x02\n        /* \"@openzeppelin/contracts/utils/Strings.sol\":1812:1822  2 * length */\n      tag_314\n      swap2\n      swap1\n      tag_151\n      jump\t// in\n    tag_314:\n        /* \"@openzeppelin/contracts/utils/Strings.sol\":1812:1826  2 * length + 1 */\n      tag_315\n      swap2\n      swap1\n      tag_208\n      jump\t// in\n    tag_315:\n        /* \"@openzeppelin/contracts/utils/Strings.sol\":1800:1826  uint256 i = 2 * length + 1 */\n      swap1\n      pop\n        /* \"@openzeppelin/contracts/utils/Strings.sol\":1795:1927  for (uint256 i = 2 * length + 1; i > 1; --i) {... */\n    tag_311:\n        /* \"@openzeppelin/contracts/utils/Strings.sol\":1832:1833  1 */\n      0x01\n        /* \"@openzeppelin/contracts/utils/Strings.sol\":1828:1829  i */\n      dup2\n        /* \"@openzeppelin/contracts/utils/Strings.sol\":1828:1833  i > 1 */\n      gt\n        /* \"@openzeppelin/contracts/utils/Strings.sol\":1795:1927  for (uint256 i = 2 * length + 1; i > 1; --i) {... */\n      iszero\n      tag_312\n      jumpi\n        /* \"@openzeppelin/contracts/utils/Strings.sol\":1866:1878  _HEX_SYMBOLS */\n      0x3031323334353637383961626364656600000000000000000000000000000000\n        /* \"@openzeppelin/contracts/utils/Strings.sol\":1887:1890  0xf */\n      0x0f\n        /* \"@openzeppelin/contracts/utils/Strings.sol\":1879:1884  value */\n      dup7\n        /* \"@openzeppelin/contracts/utils/Strings.sol\":1879:1890  value & 0xf */\n      and\n        /* \"@openzeppelin/contracts/utils/Strings.sol\":1866:1891  _HEX_SYMBOLS[value & 0xf] */\n      0x10\n      dup2\n      lt\n      tag_316\n      jumpi\n      tag_317\n      tag_204\n      jump\t// in\n    tag_317:\n    tag_316:\n      byte\n      0xf8\n      shl\n        /* \"@openzeppelin/contracts/utils/Strings.sol\":1854:1860  buffer */\n      dup3\n        /* \"@openzeppelin/contracts/utils/Strings.sol\":1861:1862  i */\n      dup3\n        /* \"@openzeppelin/contracts/utils/Strings.sol\":1854:1863  buffer[i] */\n      dup2\n      mload\n      dup2\n      lt\n      tag_318\n      jumpi\n      tag_319\n      tag_204\n      jump\t// in\n    tag_319:\n    tag_318:\n      0x20\n      add\n      add\n        /* \"@openzeppelin/contracts/utils/Strings.sol\":1854:1891  buffer[i] = _HEX_SYMBOLS[value & 0xf] */\n      swap1\n      not(0xffffffffffffffffffffffffffffffffffffffffffffffffffffffffffffff)\n      and\n      swap1\n      dup2\n      0x00\n      byte\n      swap1\n      mstore8\n      pop\n        /* \"@openzeppelin/contracts/utils/Strings.sol\":1915:1916  4 */\n      0x04\n        /* \"@openzeppelin/contracts/utils/Strings.sol\":1905:1916  value >>= 4 */\n      dup6\n      swap1\n      shr\n      swap5\n      pop\n        /* \"@openzeppelin/contracts/utils/Strings.sol\":1835:1838  --i */\n      dup1\n      tag_320\n      swap1\n      tag_321\n      jump\t// in\n    tag_320:\n      swap1\n      pop\n        /* \"@openzeppelin/contracts/utils/Strings.sol\":1795:1927  for (uint256 i = 2 * length + 1; i > 1; --i) {... */\n      jump(tag_311)\n    tag_312:\n      pop\n        /* \"@openzeppelin/contracts/utils/Strings.sol\":1953:1954  0 */\n      0x00\n        /* \"@openzeppelin/contracts/utils/Strings.sol\":1944:1949  value */\n      dup5\n        /* \"@openzeppelin/contracts/utils/Strings.sol\":1944:1954  value == 0 */\n      eq\n        /* \"@openzeppelin/contracts/utils/Strings.sol\":1936:1991  require(value == 0, \"Strings: hex length insufficient\") */\n      tag_322\n      jumpi\n      mload(0x40)\n      0x08c379a000000000000000000000000000000000000000000000000000000000\n      dup2\n      mstore\n      0x04\n      add\n      tag_323\n      swap1\n      tag_324\n      jump\t// in\n    tag_323:\n      mload(0x40)\n      dup1\n      swap2\n      sub\n      swap1\n      revert\n    tag_322:\n        /* \"@openzeppelin/contracts/utils/Strings.sol\":2015:2021  buffer */\n      dup1\n        /* \"@openzeppelin/contracts/utils/Strings.sol\":2001:2022  return string(buffer) */\n      swap2\n      pop\n      pop\n        /* \"@openzeppelin/contracts/utils/Strings.sol\":1588:2029  function toHexString(uint256 value, uint256 length) internal pure returns (string memory) {... */\n      swap3\n      swap2\n      pop\n      pop\n      jump\t// out\n    tag_193:\n      dup3\n      dup1\n      sload\n      tag_325\n      swap1\n      tag_216\n      jump\t// in\n    tag_325:\n      swap1\n      0x00\n      mstore\n      keccak256(0x00, 0x20)\n      swap1\n      0x1f\n      add\n      0x20\n      swap1\n      div\n      dup2\n      add\n      swap3\n      dup3\n      tag_327\n      jumpi\n      0x00\n      dup6\n      sstore\n      jump(tag_326)\n    tag_327:\n      dup3\n      0x1f\n      lt\n      tag_328\n      jumpi\n      dup1\n      mload\n      not(0xff)\n      and\n      dup4\n      dup1\n      add\n      or\n      dup6\n      sstore\n      jump(tag_326)\n    tag_328:\n      dup3\n      dup1\n      add\n      0x01\n      add\n      dup6\n      sstore\n      dup3\n      iszero\n      tag_326\n      jumpi\n      swap2\n      dup3\n      add\n    tag_329:\n      dup3\n      dup2\n      gt\n      iszero\n      tag_330\n      jumpi\n      dup3\n      mload\n      dup3\n      sstore\n      swap2\n      0x20\n      add\n      swap2\n      swap1\n      0x01\n      add\n      swap1\n      jump(tag_329)\n    tag_330:\n    tag_326:\n      pop\n      swap1\n      pop\n      tag_331\n      swap2\n      swap1\n      tag_332\n      jump\t// in\n    tag_331:\n      pop\n      swap1\n      jump\t// out\n    tag_332:\n    tag_333:\n      dup1\n      dup3\n      gt\n      iszero\n      tag_334\n      jumpi\n      0x00\n      dup2\n      0x00\n      swap1\n      sstore\n      pop\n      0x01\n      add\n      jump(tag_333)\n    tag_334:\n      pop\n      swap1\n      jump\t// out\n        /* \"#utility.yul\":7:419   */\n    tag_336:\n        /* \"#utility.yul\":85:90   */\n      0x00\n        /* \"#utility.yul\":110:176   */\n      tag_338\n        /* \"#utility.yul\":126:175   */\n      tag_339\n        /* \"#utility.yul\":168:174   */\n      dup5\n        /* \"#utility.yul\":126:175   */\n      tag_340\n      jump\t// in\n    tag_339:\n        /* \"#utility.yul\":110:176   */\n      tag_341\n      jump\t// in\n    tag_338:\n        /* \"#utility.yul\":101:176   */\n      swap1\n      pop\n        /* \"#utility.yul\":199:205   */\n      dup3\n        /* \"#utility.yul\":192:197   */\n      dup2\n        /* \"#utility.yul\":185:206   */\n      mstore\n        /* \"#utility.yul\":237:241   */\n      0x20\n        /* \"#utility.yul\":230:235   */\n      dup2\n        /* \"#utility.yul\":226:242   */\n      add\n        /* \"#utility.yul\":275:278   */\n      dup5\n        /* \"#utility.yul\":266:272   */\n      dup5\n        /* \"#utility.yul\":261:264   */\n      dup5\n        /* \"#utility.yul\":257:273   */\n      add\n        /* \"#utility.yul\":254:279   */\n      gt\n        /* \"#utility.yul\":251:363   */\n      iszero\n      tag_342\n      jumpi\n        /* \"#utility.yul\":282:361   */\n      tag_343\n      tag_344\n      jump\t// in\n    tag_343:\n        /* \"#utility.yul\":251:363   */\n    tag_342:\n        /* \"#utility.yul\":372:413   */\n      tag_345\n        /* \"#utility.yul\":406:412   */\n      dup5\n        /* \"#utility.yul\":401:404   */\n      dup3\n        /* \"#utility.yul\":396:399   */\n      dup6\n        /* \"#utility.yul\":372:413   */\n      tag_346\n      jump\t// in\n    tag_345:\n        /* \"#utility.yul\":91:419   */\n      pop\n        /* \"#utility.yul\":7:419   */\n      swap4\n      swap3\n      pop\n      pop\n      pop\n      jump\t// out\n        /* \"#utility.yul\":425:564   */\n    tag_347:\n        /* \"#utility.yul\":471:476   */\n      0x00\n        /* \"#utility.yul\":509:515   */\n      dup2\n        /* \"#utility.yul\":496:516   */\n      calldataload\n        /* \"#utility.yul\":487:516   */\n      swap1\n      pop\n        /* \"#utility.yul\":525:558   */\n      tag_349\n        /* \"#utility.yul\":552:557   */\n      dup2\n        /* \"#utility.yul\":525:558   */\n      tag_350\n      jump\t// in\n    tag_349:\n        /* \"#utility.yul\":425:564   */\n      swap3\n      swap2\n      pop\n      pop\n      jump\t// out\n        /* \"#utility.yul\":570:703   */\n    tag_351:\n        /* \"#utility.yul\":613:618   */\n      0x00\n        /* \"#utility.yul\":651:657   */\n      dup2\n        /* \"#utility.yul\":638:658   */\n      calldataload\n        /* \"#utility.yul\":629:658   */\n      swap1\n      pop\n        /* \"#utility.yul\":667:697   */\n      tag_353\n        /* \"#utility.yul\":691:696   */\n      dup2\n        /* \"#utility.yul\":667:697   */\n      tag_354\n      jump\t// in\n    tag_353:\n        /* \"#utility.yul\":570:703   */\n      swap3\n      swap2\n      pop\n      pop\n      jump\t// out\n        /* \"#utility.yul\":709:848   */\n    tag_355:\n        /* \"#utility.yul\":755:760   */\n      0x00\n        /* \"#utility.yul\":793:799   */\n      dup2\n        /* \"#utility.yul\":780:800   */\n      calldataload\n        /* \"#utility.yul\":771:800   */\n      swap1\n      pop\n        /* \"#utility.yul\":809:842   */\n      tag_357\n        /* \"#utility.yul\":836:841   */\n      dup2\n        /* \"#utility.yul\":809:842   */\n      tag_358\n      jump\t// in\n    tag_357:\n        /* \"#utility.yul\":709:848   */\n      swap3\n      swap2\n      pop\n      pop\n      jump\t// out\n        /* \"#utility.yul\":854:991   */\n    tag_359:\n        /* \"#utility.yul\":899:904   */\n      0x00\n        /* \"#utility.yul\":937:943   */\n      dup2\n        /* \"#utility.yul\":924:944   */\n      calldataload\n        /* \"#utility.yul\":915:944   */\n      swap1\n      pop\n        /* \"#utility.yul\":953:985   */\n      tag_361\n        /* \"#utility.yul\":979:984   */\n      dup2\n        /* \"#utility.yul\":953:985   */\n      tag_362\n      jump\t// in\n    tag_361:\n        /* \"#utility.yul\":854:991   */\n      swap3\n      swap2\n      pop\n      pop\n      jump\t// out\n        /* \"#utility.yul\":1011:1351   */\n    tag_363:\n        /* \"#utility.yul\":1067:1072   */\n      0x00\n        /* \"#utility.yul\":1116:1119   */\n      dup3\n        /* \"#utility.yul\":1109:1113   */\n      0x1f\n        /* \"#utility.yul\":1101:1107   */\n      dup4\n        /* \"#utility.yul\":1097:1114   */\n      add\n        /* \"#utility.yul\":1093:1120   */\n      slt\n        /* \"#utility.yul\":1083:1205   */\n      tag_365\n      jumpi\n        /* \"#utility.yul\":1124:1203   */\n      tag_366\n      tag_367\n      jump\t// in\n    tag_366:\n        /* \"#utility.yul\":1083:1205   */\n    tag_365:\n        /* \"#utility.yul\":1241:1247   */\n      dup2\n        /* \"#utility.yul\":1228:1248   */\n      calldataload\n        /* \"#utility.yul\":1266:1345   */\n      tag_368\n        /* \"#utility.yul\":1341:1344   */\n      dup5\n        /* \"#utility.yul\":1333:1339   */\n      dup3\n        /* \"#utility.yul\":1326:1330   */\n      0x20\n        /* \"#utility.yul\":1318:1324   */\n      dup7\n        /* \"#utility.yul\":1314:1331   */\n      add\n        /* \"#utility.yul\":1266:1345   */\n      tag_336\n      jump\t// in\n    tag_368:\n        /* \"#utility.yul\":1257:1345   */\n      swap2\n      pop\n        /* \"#utility.yul\":1073:1351   */\n      pop\n        /* \"#utility.yul\":1011:1351   */\n      swap3\n      swap2\n      pop\n      pop\n      jump\t// out\n        /* \"#utility.yul\":1357:1496   */\n    tag_369:\n        /* \"#utility.yul\":1403:1408   */\n      0x00\n        /* \"#utility.yul\":1441:1447   */\n      dup2\n        /* \"#utility.yul\":1428:1448   */\n      calldataload\n        /* \"#utility.yul\":1419:1448   */\n      swap1\n      pop\n        /* \"#utility.yul\":1457:1490   */\n      tag_371\n        /* \"#utility.yul\":1484:1489   */\n      dup2\n        /* \"#utility.yul\":1457:1490   */\n      tag_372\n      jump\t// in\n    tag_371:\n        /* \"#utility.yul\":1357:1496   */\n      swap3\n      swap2\n      pop\n      pop\n      jump\t// out\n        /* \"#utility.yul\":1502:1637   */\n    tag_373:\n        /* \"#utility.yul\":1546:1551   */\n      0x00\n        /* \"#utility.yul\":1584:1590   */\n      dup2\n        /* \"#utility.yul\":1571:1591   */\n      calldataload\n        /* \"#utility.yul\":1562:1591   */\n      swap1\n      pop\n        /* \"#utility.yul\":1600:1631   */\n      tag_375\n        /* \"#utility.yul\":1625:1630   */\n      dup2\n        /* \"#utility.yul\":1600:1631   */\n      tag_376\n      jump\t// in\n    tag_375:\n        /* \"#utility.yul\":1502:1637   */\n      swap3\n      swap2\n      pop\n      pop\n      jump\t// out\n        /* \"#utility.yul\":1643:1972   */\n    tag_44:\n        /* \"#utility.yul\":1702:1708   */\n      0x00\n        /* \"#utility.yul\":1751:1753   */\n      0x20\n        /* \"#utility.yul\":1739:1748   */\n      dup3\n        /* \"#utility.yul\":1730:1737   */\n      dup5\n        /* \"#utility.yul\":1726:1749   */\n      sub\n        /* \"#utility.yul\":1722:1754   */\n      slt\n        /* \"#utility.yul\":1719:1838   */\n      iszero\n      tag_378\n      jumpi\n        /* \"#utility.yul\":1757:1836   */\n      tag_379\n      tag_380\n      jump\t// in\n    tag_379:\n        /* \"#utility.yul\":1719:1838   */\n    tag_378:\n        /* \"#utility.yul\":1877:1878   */\n      0x00\n        /* \"#utility.yul\":1902:1955   */\n      tag_381\n        /* \"#utility.yul\":1947:1954   */\n      dup5\n        /* \"#utility.yul\":1938:1944   */\n      dup3\n        /* \"#utility.yul\":1927:1936   */\n      dup6\n        /* \"#utility.yul\":1923:1945   */\n      add\n        /* \"#utility.yul\":1902:1955   */\n      tag_355\n      jump\t// in\n    tag_381:\n        /* \"#utility.yul\":1892:1955   */\n      swap2\n      pop\n        /* \"#utility.yul\":1848:1965   */\n      pop\n        /* \"#utility.yul\":1643:1972   */\n      swap3\n      swap2\n      pop\n      pop\n      jump\t// out\n        /* \"#utility.yul\":1978:2452   */\n    tag_51:\n        /* \"#utility.yul\":2046:2052   */\n      0x00\n        /* \"#utility.yul\":2054:2060   */\n      dup1\n        /* \"#utility.yul\":2103:2105   */\n      0x40\n        /* \"#utility.yul\":2091:2100   */\n      dup4\n        /* \"#utility.yul\":2082:2089   */\n      dup6\n        /* \"#utility.yul\":2078:2101   */\n      sub\n        /* \"#utility.yul\":2074:2106   */\n      slt\n        /* \"#utility.yul\":2071:2190   */\n      iszero\n      tag_383\n      jumpi\n        /* \"#utility.yul\":2109:2188   */\n      tag_384\n      tag_380\n      jump\t// in\n    tag_384:\n        /* \"#utility.yul\":2071:2190   */\n    tag_383:\n        /* \"#utility.yul\":2229:2230   */\n      0x00\n        /* \"#utility.yul\":2254:2307   */\n      tag_385\n        /* \"#utility.yul\":2299:2306   */\n      dup6\n        /* \"#utility.yul\":2290:2296   */\n      dup3\n        /* \"#utility.yul\":2279:2288   */\n      dup7\n        /* \"#utility.yul\":2275:2297   */\n      add\n        /* \"#utility.yul\":2254:2307   */\n      tag_355\n      jump\t// in\n    tag_385:\n        /* \"#utility.yul\":2244:2307   */\n      swap3\n      pop\n        /* \"#utility.yul\":2200:2317   */\n      pop\n        /* \"#utility.yul\":2356:2358   */\n      0x20\n        /* \"#utility.yul\":2382:2435   */\n      tag_386\n        /* \"#utility.yul\":2427:2434   */\n      dup6\n        /* \"#utility.yul\":2418:2424   */\n      dup3\n        /* \"#utility.yul\":2407:2416   */\n      dup7\n        /* \"#utility.yul\":2403:2425   */\n      add\n        /* \"#utility.yul\":2382:2435   */\n      tag_347\n      jump\t// in\n    tag_386:\n        /* \"#utility.yul\":2372:2435   */\n      swap2\n      pop\n        /* \"#utility.yul\":2327:2445   */\n      pop\n        /* \"#utility.yul\":1978:2452   */\n      swap3\n      pop\n      swap3\n      swap1\n      pop\n      jump\t// out\n        /* \"#utility.yul\":2458:2785   */\n    tag_29:\n        /* \"#utility.yul\":2516:2522   */\n      0x00\n        /* \"#utility.yul\":2565:2567   */\n      0x20\n        /* \"#utility.yul\":2553:2562   */\n      dup3\n        /* \"#utility.yul\":2544:2551   */\n      dup5\n        /* \"#utility.yul\":2540:2563   */\n      sub\n        /* \"#utility.yul\":2536:2568   */\n      slt\n        /* \"#utility.yul\":2533:2652   */\n      iszero\n      tag_388\n      jumpi\n        /* \"#utility.yul\":2571:2650   */\n      tag_389\n      tag_380\n      jump\t// in\n    tag_389:\n        /* \"#utility.yul\":2533:2652   */\n    tag_388:\n        /* \"#utility.yul\":2691:2692   */\n      0x00\n        /* \"#utility.yul\":2716:2768   */\n      tag_390\n        /* \"#utility.yul\":2760:2767   */\n      dup5\n        /* \"#utility.yul\":2751:2757   */\n      dup3\n        /* \"#utility.yul\":2740:2749   */\n      dup6\n        /* \"#utility.yul\":2736:2758   */\n      add\n        /* \"#utility.yul\":2716:2768   */\n      tag_359\n      jump\t// in\n    tag_390:\n        /* \"#utility.yul\":2706:2768   */\n      swap2\n      pop\n        /* \"#utility.yul\":2662:2778   */\n      pop\n        /* \"#utility.yul\":2458:2785   */\n      swap3\n      swap2\n      pop\n      pop\n      jump\t// out\n        /* \"#utility.yul\":2791:4378   */\n    tag_65:\n        /* \"#utility.yul\":2920:2926   */\n      0x00\n        /* \"#utility.yul\":2928:2934   */\n      dup1\n        /* \"#utility.yul\":2936:2942   */\n      0x00\n        /* \"#utility.yul\":2944:2950   */\n      dup1\n        /* \"#utility.yul\":2952:2958   */\n      0x00\n        /* \"#utility.yul\":2960:2966   */\n      dup1\n        /* \"#utility.yul\":3009:3012   */\n      0xc0\n        /* \"#utility.yul\":2997:3006   */\n      dup8\n        /* \"#utility.yul\":2988:2995   */\n      dup10\n        /* \"#utility.yul\":2984:3007   */\n      sub\n        /* \"#utility.yul\":2980:3013   */\n      slt\n        /* \"#utility.yul\":2977:3097   */\n      iszero\n      tag_392\n      jumpi\n        /* \"#utility.yul\":3016:3095   */\n      tag_393\n      tag_380\n      jump\t// in\n    tag_393:\n        /* \"#utility.yul\":2977:3097   */\n    tag_392:\n        /* \"#utility.yul\":3164:3165   */\n      0x00\n        /* \"#utility.yul\":3153:3162   */\n      dup8\n        /* \"#utility.yul\":3149:3166   */\n      add\n        /* \"#utility.yul\":3136:3167   */\n      calldataload\n        /* \"#utility.yul\":3194:3212   */\n      0xffffffffffffffff\n        /* \"#utility.yul\":3186:3192   */\n      dup2\n        /* \"#utility.yul\":3183:3213   */\n      gt\n        /* \"#utility.yul\":3180:3297   */\n      iszero\n      tag_394\n      jumpi\n        /* \"#utility.yul\":3216:3295   */\n      tag_395\n      tag_396\n      jump\t// in\n    tag_395:\n        /* \"#utility.yul\":3180:3297   */\n    tag_394:\n        /* \"#utility.yul\":3321:3384   */\n      tag_397\n        /* \"#utility.yul\":3376:3383   */\n      dup10\n        /* \"#utility.yul\":3367:3373   */\n      dup3\n        /* \"#utility.yul\":3356:3365   */\n      dup11\n        /* \"#utility.yul\":3352:3374   */\n      add\n        /* \"#utility.yul\":3321:3384   */\n      tag_363\n      jump\t// in\n    tag_397:\n        /* \"#utility.yul\":3311:3384   */\n      swap7\n      pop\n        /* \"#utility.yul\":3107:3394   */\n      pop\n        /* \"#utility.yul\":3461:3463   */\n      0x20\n        /* \"#utility.yul\":3450:3459   */\n      dup8\n        /* \"#utility.yul\":3446:3464   */\n      add\n        /* \"#utility.yul\":3433:3465   */\n      calldataload\n        /* \"#utility.yul\":3492:3510   */\n      0xffffffffffffffff\n        /* \"#utility.yul\":3484:3490   */\n      dup2\n        /* \"#utility.yul\":3481:3511   */\n      gt\n        /* \"#utility.yul\":3478:3595   */\n      iszero\n      tag_398\n      jumpi\n        /* \"#utility.yul\":3514:3593   */\n      tag_399\n      tag_396\n      jump\t// in\n    tag_399:\n        /* \"#utility.yul\":3478:3595   */\n    tag_398:\n        /* \"#utility.yul\":3619:3682   */\n      tag_400\n        /* \"#utility.yul\":3674:3681   */\n      dup10\n        /* \"#utility.yul\":3665:3671   */\n      dup3\n        /* \"#utility.yul\":3654:3663   */\n      dup11\n        /* \"#utility.yul\":3650:3672   */\n      add\n        /* \"#utility.yul\":3619:3682   */\n      tag_363\n      jump\t// in\n    tag_400:\n        /* \"#utility.yul\":3609:3682   */\n      swap6\n      pop\n        /* \"#utility.yul\":3404:3692   */\n      pop\n        /* \"#utility.yul\":3731:3733   */\n      0x40\n        /* \"#utility.yul\":3757:3810   */\n      tag_401\n        /* \"#utility.yul\":3802:3809   */\n      dup10\n        /* \"#utility.yul\":3793:3799   */\n      dup3\n        /* \"#utility.yul\":3782:3791   */\n      dup11\n        /* \"#utility.yul\":3778:3800   */\n      add\n        /* \"#utility.yul\":3757:3810   */\n      tag_369\n      jump\t// in\n    tag_401:\n        /* \"#utility.yul\":3747:3810   */\n      swap5\n      pop\n        /* \"#utility.yul\":3702:3820   */\n      pop\n        /* \"#utility.yul\":3887:3889   */\n      0x60\n        /* \"#utility.yul\":3876:3885   */\n      dup8\n        /* \"#utility.yul\":3872:3890   */\n      add\n        /* \"#utility.yul\":3859:3891   */\n      calldataload\n        /* \"#utility.yul\":3918:3936   */\n      0xffffffffffffffff\n        /* \"#utility.yul\":3910:3916   */\n      dup2\n        /* \"#utility.yul\":3907:3937   */\n      gt\n        /* \"#utility.yul\":3904:4021   */\n      iszero\n      tag_402\n      jumpi\n        /* \"#utility.yul\":3940:4019   */\n      tag_403\n      tag_396\n      jump\t// in\n    tag_403:\n        /* \"#utility.yul\":3904:4021   */\n    tag_402:\n        /* \"#utility.yul\":4045:4108   */\n      tag_404\n        /* \"#utility.yul\":4100:4107   */\n      dup10\n        /* \"#utility.yul\":4091:4097   */\n      dup3\n        /* \"#utility.yul\":4080:4089   */\n      dup11\n        /* \"#utility.yul\":4076:4098   */\n      add\n        /* \"#utility.yul\":4045:4108   */\n      tag_363\n      jump\t// in\n    tag_404:\n        /* \"#utility.yul\":4035:4108   */\n      swap4\n      pop\n        /* \"#utility.yul\":3830:4118   */\n      pop\n        /* \"#utility.yul\":4157:4160   */\n      0x80\n        /* \"#utility.yul\":4184:4235   */\n      tag_405\n        /* \"#utility.yul\":4227:4234   */\n      dup10\n        /* \"#utility.yul\":4218:4224   */\n      dup3\n        /* \"#utility.yul\":4207:4216   */\n      dup11\n        /* \"#utility.yul\":4203:4225   */\n      add\n        /* \"#utility.yul\":4184:4235   */\n      tag_373\n      jump\t// in\n    tag_405:\n        /* \"#utility.yul\":4174:4235   */\n      swap3\n      pop\n        /* \"#utility.yul\":4128:4245   */\n      pop\n        /* \"#utility.yul\":4284:4287   */\n      0xa0\n        /* \"#utility.yul\":4311:4361   */\n      tag_406\n        /* \"#utility.yul\":4353:4360   */\n      dup10\n        /* \"#utility.yul\":4344:4350   */\n      dup3\n        /* \"#utility.yul\":4333:4342   */\n      dup11\n        /* \"#utility.yul\":4329:4351   */\n      add\n        /* \"#utility.yul\":4311:4361   */\n      tag_351\n      jump\t// in\n    tag_406:\n        /* \"#utility.yul\":4301:4361   */\n      swap2\n      pop\n        /* \"#utility.yul\":4255:4371   */\n      pop\n        /* \"#utility.yul\":2791:4378   */\n      swap3\n      swap6\n      pop\n      swap3\n      swap6\n      pop\n      swap3\n      swap6\n      jump\t// out\n        /* \"#utility.yul\":4384:4713   */\n    tag_70:\n        /* \"#utility.yul\":4443:4449   */\n      0x00\n        /* \"#utility.yul\":4492:4494   */\n      0x20\n        /* \"#utility.yul\":4480:4489   */\n      dup3\n        /* \"#utility.yul\":4471:4478   */\n      dup5\n        /* \"#utility.yul\":4467:4490   */\n      sub\n        /* \"#utility.yul\":4463:4495   */\n      slt\n        /* \"#utility.yul\":4460:4579   */\n      iszero\n      tag_408\n      jumpi\n        /* \"#utility.yul\":4498:4577   */\n      tag_409\n      tag_380\n      jump\t// in\n    tag_409:\n        /* \"#utility.yul\":4460:4579   */\n    tag_408:\n        /* \"#utility.yul\":4618:4619   */\n      0x00\n        /* \"#utility.yul\":4643:4696   */\n      tag_410\n        /* \"#utility.yul\":4688:4695   */\n      dup5\n        /* \"#utility.yul\":4679:4685   */\n      dup3\n        /* \"#utility.yul\":4668:4677   */\n      dup6\n        /* \"#utility.yul\":4664:4686   */\n      add\n        /* \"#utility.yul\":4643:4696   */\n      tag_369\n      jump\t// in\n    tag_410:\n        /* \"#utility.yul\":4633:4696   */\n      swap2\n      pop\n        /* \"#utility.yul\":4589:4706   */\n      pop\n        /* \"#utility.yul\":4384:4713   */\n      swap3\n      swap2\n      pop\n      pop\n      jump\t// out\n        /* \"#utility.yul\":4719:5193   */\n    tag_128:\n        /* \"#utility.yul\":4787:4793   */\n      0x00\n        /* \"#utility.yul\":4795:4801   */\n      dup1\n        /* \"#utility.yul\":4844:4846   */\n      0x40\n        /* \"#utility.yul\":4832:4841   */\n      dup4\n        /* \"#utility.yul\":4823:4830   */\n      dup6\n        /* \"#utility.yul\":4819:4842   */\n      sub\n        /* \"#utility.yul\":4815:4847   */\n      slt\n        /* \"#utility.yul\":4812:4931   */\n      iszero\n      tag_412\n      jumpi\n        /* \"#utility.yul\":4850:4929   */\n      tag_413\n      tag_380\n      jump\t// in\n    tag_413:\n        /* \"#utility.yul\":4812:4931   */\n    tag_412:\n        /* \"#utility.yul\":4970:4971   */\n      0x00\n        /* \"#utility.yul\":4995:5048   */\n      tag_414\n        /* \"#utility.yul\":5040:5047   */\n      dup6\n        /* \"#utility.yul\":5031:5037   */\n      dup3\n        /* \"#utility.yul\":5020:5029   */\n      dup7\n        /* \"#utility.yul\":5016:5038   */\n      add\n        /* \"#utility.yul\":4995:5048   */\n      tag_369\n      jump\t// in\n    tag_414:\n        /* \"#utility.yul\":4985:5048   */\n      swap3\n      pop\n        /* \"#utility.yul\":4941:5058   */\n      pop\n        /* \"#utility.yul\":5097:5099   */\n      0x20\n        /* \"#utility.yul\":5123:5176   */\n      tag_415\n        /* \"#utility.yul\":5168:5175   */\n      dup6\n        /* \"#utility.yul\":5159:5165   */\n      dup3\n        /* \"#utility.yul\":5148:5157   */\n      dup7\n        /* \"#utility.yul\":5144:5166   */\n      add\n        /* \"#utility.yul\":5123:5176   */\n      tag_347\n      jump\t// in\n    tag_415:\n        /* \"#utility.yul\":5113:5176   */\n      swap2\n      pop\n        /* \"#utility.yul\":5068:5186   */\n      pop\n        /* \"#utility.yul\":4719:5193   */\n      swap3\n      pop\n      swap3\n      swap1\n      pop\n      jump\t// out\n        /* \"#utility.yul\":5199:5667   */\n    tag_105:\n        /* \"#utility.yul\":5264:5270   */\n      0x00\n        /* \"#utility.yul\":5272:5278   */\n      dup1\n        /* \"#utility.yul\":5321:5323   */\n      0x40\n        /* \"#utility.yul\":5309:5318   */\n      dup4\n        /* \"#utility.yul\":5300:5307   */\n      dup6\n        /* \"#utility.yul\":5296:5319   */\n      sub\n        /* \"#utility.yul\":5292:5324   */\n      slt\n        /* \"#utility.yul\":5289:5408   */\n      iszero\n      tag_417\n      jumpi\n        /* \"#utility.yul\":5327:5406   */\n      tag_418\n      tag_380\n      jump\t// in\n    tag_418:\n        /* \"#utility.yul\":5289:5408   */\n    tag_417:\n        /* \"#utility.yul\":5447:5448   */\n      0x00\n        /* \"#utility.yul\":5472:5525   */\n      tag_419\n        /* \"#utility.yul\":5517:5524   */\n      dup6\n        /* \"#utility.yul\":5508:5514   */\n      dup3\n        /* \"#utility.yul\":5497:5506   */\n      dup7\n        /* \"#utility.yul\":5493:5515   */\n      add\n        /* \"#utility.yul\":5472:5525   */\n      tag_369\n      jump\t// in\n    tag_419:\n        /* \"#utility.yul\":5462:5525   */\n      swap3\n      pop\n        /* \"#utility.yul\":5418:5535   */\n      pop\n        /* \"#utility.yul\":5574:5576   */\n      0x20\n        /* \"#utility.yul\":5600:5650   */\n      tag_420\n        /* \"#utility.yul\":5642:5649   */\n      dup6\n        /* \"#utility.yul\":5633:5639   */\n      dup3\n        /* \"#utility.yul\":5622:5631   */\n      dup7\n        /* \"#utility.yul\":5618:5640   */\n      add\n        /* \"#utility.yul\":5600:5650   */\n      tag_351\n      jump\t// in\n    tag_420:\n        /* \"#utility.yul\":5590:5650   */\n      swap2\n      pop\n        /* \"#utility.yul\":5545:5660   */\n      pop\n        /* \"#utility.yul\":5199:5667   */\n      swap3\n      pop\n      swap3\n      swap1\n      pop\n      jump\t// out\n        /* \"#utility.yul\":5673:6327   */\n    tag_82:\n        /* \"#utility.yul\":5751:5757   */\n      0x00\n        /* \"#utility.yul\":5759:5765   */\n      dup1\n        /* \"#utility.yul\":5808:5810   */\n      0x40\n        /* \"#utility.yul\":5796:5805   */\n      dup4\n        /* \"#utility.yul\":5787:5794   */\n      dup6\n        /* \"#utility.yul\":5783:5806   */\n      sub\n        /* \"#utility.yul\":5779:5811   */\n      slt\n        /* \"#utility.yul\":5776:5895   */\n      iszero\n      tag_422\n      jumpi\n        /* \"#utility.yul\":5814:5893   */\n      tag_423\n      tag_380\n      jump\t// in\n    tag_423:\n        /* \"#utility.yul\":5776:5895   */\n    tag_422:\n        /* \"#utility.yul\":5934:5935   */\n      0x00\n        /* \"#utility.yul\":5959:6012   */\n      tag_424\n        /* \"#utility.yul\":6004:6011   */\n      dup6\n        /* \"#utility.yul\":5995:6001   */\n      dup3\n        /* \"#utility.yul\":5984:5993   */\n      dup7\n        /* \"#utility.yul\":5980:6002   */\n      add\n        /* \"#utility.yul\":5959:6012   */\n      tag_369\n      jump\t// in\n    tag_424:\n        /* \"#utility.yul\":5949:6012   */\n      swap3\n      pop\n        /* \"#utility.yul\":5905:6022   */\n      pop\n        /* \"#utility.yul\":6089:6091   */\n      0x20\n        /* \"#utility.yul\":6078:6087   */\n      dup4\n        /* \"#utility.yul\":6074:6092   */\n      add\n        /* \"#utility.yul\":6061:6093   */\n      calldataload\n        /* \"#utility.yul\":6120:6138   */\n      0xffffffffffffffff\n        /* \"#utility.yul\":6112:6118   */\n      dup2\n        /* \"#utility.yul\":6109:6139   */\n      gt\n        /* \"#utility.yul\":6106:6223   */\n      iszero\n      tag_425\n      jumpi\n        /* \"#utility.yul\":6142:6221   */\n      tag_426\n      tag_396\n      jump\t// in\n    tag_426:\n        /* \"#utility.yul\":6106:6223   */\n    tag_425:\n        /* \"#utility.yul\":6247:6310   */\n      tag_427\n        /* \"#utility.yul\":6302:6309   */\n      dup6\n        /* \"#utility.yul\":6293:6299   */\n      dup3\n        /* \"#utility.yul\":6282:6291   */\n      dup7\n        /* \"#utility.yul\":6278:6300   */\n      add\n        /* \"#utility.yul\":6247:6310   */\n      tag_363\n      jump\t// in\n    tag_427:\n        /* \"#utility.yul\":6237:6310   */\n      swap2\n      pop\n        /* \"#utility.yul\":6032:6320   */\n      pop\n        /* \"#utility.yul\":5673:6327   */\n      swap3\n      pop\n      swap3\n      swap1\n      pop\n      jump\t// out\n        /* \"#utility.yul\":6333:6807   */\n    tag_96:\n        /* \"#utility.yul\":6401:6407   */\n      0x00\n        /* \"#utility.yul\":6409:6415   */\n      dup1\n        /* \"#utility.yul\":6458:6460   */\n      0x40\n        /* \"#utility.yul\":6446:6455   */\n      dup4\n        /* \"#utility.yul\":6437:6444   */\n      dup6\n        /* \"#utility.yul\":6433:6456   */\n      sub\n        /* \"#utility.yul\":6429:6461   */\n      slt\n        /* \"#utility.yul\":6426:6545   */\n      iszero\n      tag_429\n      jumpi\n        /* \"#utility.yul\":6464:6543   */\n      tag_430\n      tag_380\n      jump\t// in\n    tag_430:\n        /* \"#utility.yul\":6426:6545   */\n    tag_429:\n        /* \"#utility.yul\":6584:6585   */\n      0x00\n        /* \"#utility.yul\":6609:6662   */\n      tag_431\n        /* \"#utility.yul\":6654:6661   */\n      dup6\n        /* \"#utility.yul\":6645:6651   */\n      dup3\n        /* \"#utility.yul\":6634:6643   */\n      dup7\n        /* \"#utility.yul\":6630:6652   */\n      add\n        /* \"#utility.yul\":6609:6662   */\n      tag_369\n      jump\t// in\n    tag_431:\n        /* \"#utility.yul\":6599:6662   */\n      swap3\n      pop\n        /* \"#utility.yul\":6555:6672   */\n      pop\n        /* \"#utility.yul\":6711:6713   */\n      0x20\n        /* \"#utility.yul\":6737:6790   */\n      tag_432\n        /* \"#utility.yul\":6782:6789   */\n      dup6\n        /* \"#utility.yul\":6773:6779   */\n      dup3\n        /* \"#utility.yul\":6762:6771   */\n      dup7\n        /* \"#utility.yul\":6758:6780   */\n      add\n        /* \"#utility.yul\":6737:6790   */\n      tag_369\n      jump\t// in\n    tag_432:\n        /* \"#utility.yul\":6727:6790   */\n      swap2\n      pop\n        /* \"#utility.yul\":6682:6800   */\n      pop\n        /* \"#utility.yul\":6333:6807   */\n      swap3\n      pop\n      swap3\n      swap1\n      pop\n      jump\t// out\n        /* \"#utility.yul\":6813:7283   */\n    tag_36:\n        /* \"#utility.yul\":6879:6885   */\n      0x00\n        /* \"#utility.yul\":6887:6893   */\n      dup1\n        /* \"#utility.yul\":6936:6938   */\n      0x40\n        /* \"#utility.yul\":6924:6933   */\n      dup4\n        /* \"#utility.yul\":6915:6922   */\n      dup6\n        /* \"#utility.yul\":6911:6934   */\n      sub\n        /* \"#utility.yul\":6907:6939   */\n      slt\n        /* \"#utility.yul\":6904:7023   */\n      iszero\n      tag_434\n      jumpi\n        /* \"#utility.yul\":6942:7021   */\n      tag_435\n      tag_380\n      jump\t// in\n    tag_435:\n        /* \"#utility.yul\":6904:7023   */\n    tag_434:\n        /* \"#utility.yul\":7062:7063   */\n      0x00\n        /* \"#utility.yul\":7087:7140   */\n      tag_436\n        /* \"#utility.yul\":7132:7139   */\n      dup6\n        /* \"#utility.yul\":7123:7129   */\n      dup3\n        /* \"#utility.yul\":7112:7121   */\n      dup7\n        /* \"#utility.yul\":7108:7130   */\n      add\n        /* \"#utility.yul\":7087:7140   */\n      tag_369\n      jump\t// in\n    tag_436:\n        /* \"#utility.yul\":7077:7140   */\n      swap3\n      pop\n        /* \"#utility.yul\":7033:7150   */\n      pop\n        /* \"#utility.yul\":7189:7191   */\n      0x20\n        /* \"#utility.yul\":7215:7266   */\n      tag_437\n        /* \"#utility.yul\":7258:7265   */\n      dup6\n        /* \"#utility.yul\":7249:7255   */\n      dup3\n        /* \"#utility.yul\":7238:7247   */\n      dup7\n        /* \"#utility.yul\":7234:7256   */\n      add\n        /* \"#utility.yul\":7215:7266   */\n      tag_373\n      jump\t// in\n    tag_437:\n        /* \"#utility.yul\":7205:7266   */\n      swap2\n      pop\n        /* \"#utility.yul\":7160:7276   */\n      pop\n        /* \"#utility.yul\":6813:7283   */\n      swap3\n      pop\n      swap3\n      swap1\n      pop\n      jump\t// out\n        /* \"#utility.yul\":7289:7436   */\n    tag_438:\n        /* \"#utility.yul\":7384:7429   */\n      tag_440\n        /* \"#utility.yul\":7423:7428   */\n      dup2\n        /* \"#utility.yul\":7384:7429   */\n      tag_441\n      jump\t// in\n    tag_440:\n        /* \"#utility.yul\":7379:7382   */\n      dup3\n        /* \"#utility.yul\":7372:7430   */\n      mstore\n        /* \"#utility.yul\":7289:7436   */\n      pop\n      pop\n      jump\t// out\n        /* \"#utility.yul\":7442:7584   */\n    tag_442:\n        /* \"#utility.yul\":7545:7577   */\n      tag_444\n        /* \"#utility.yul\":7571:7576   */\n      dup2\n        /* \"#utility.yul\":7545:7577   */\n      tag_445\n      jump\t// in\n    tag_444:\n        /* \"#utility.yul\":7540:7543   */\n      dup3\n        /* \"#utility.yul\":7533:7578   */\n      mstore\n        /* \"#utility.yul\":7442:7584   */\n      pop\n      pop\n      jump\t// out\n        /* \"#utility.yul\":7590:7708   */\n    tag_446:\n        /* \"#utility.yul\":7677:7701   */\n      tag_448\n        /* \"#utility.yul\":7695:7700   */\n      dup2\n        /* \"#utility.yul\":7677:7701   */\n      tag_449\n      jump\t// in\n    tag_448:\n        /* \"#utility.yul\":7672:7675   */\n      dup3\n        /* \"#utility.yul\":7665:7702   */\n      mstore\n        /* \"#utility.yul\":7590:7708   */\n      pop\n      pop\n      jump\t// out\n        /* \"#utility.yul\":7714:7823   */\n    tag_450:\n        /* \"#utility.yul\":7795:7816   */\n      tag_452\n        /* \"#utility.yul\":7810:7815   */\n      dup2\n        /* \"#utility.yul\":7795:7816   */\n      tag_453\n      jump\t// in\n    tag_452:\n        /* \"#utility.yul\":7790:7793   */\n      dup3\n        /* \"#utility.yul\":7783:7817   */\n      mstore\n        /* \"#utility.yul\":7714:7823   */\n      pop\n      pop\n      jump\t// out\n        /* \"#utility.yul\":7829:7947   */\n    tag_454:\n        /* \"#utility.yul\":7916:7940   */\n      tag_456\n        /* \"#utility.yul\":7934:7939   */\n      dup2\n        /* \"#utility.yul\":7916:7940   */\n      tag_457\n      jump\t// in\n    tag_456:\n        /* \"#utility.yul\":7911:7914   */\n      dup3\n        /* \"#utility.yul\":7904:7941   */\n      mstore\n        /* \"#utility.yul\":7829:7947   */\n      pop\n      pop\n      jump\t// out\n        /* \"#utility.yul\":7953:8317   */\n    tag_458:\n        /* \"#utility.yul\":8041:8044   */\n      0x00\n        /* \"#utility.yul\":8069:8108   */\n      tag_460\n        /* \"#utility.yul\":8102:8107   */\n      dup3\n        /* \"#utility.yul\":8069:8108   */\n      tag_461\n      jump\t// in\n    tag_460:\n        /* \"#utility.yul\":8124:8195   */\n      tag_462\n        /* \"#utility.yul\":8188:8194   */\n      dup2\n        /* \"#utility.yul\":8183:8186   */\n      dup6\n        /* \"#utility.yul\":8124:8195   */\n      tag_463\n      jump\t// in\n    tag_462:\n        /* \"#utility.yul\":8117:8195   */\n      swap4\n      pop\n        /* \"#utility.yul\":8204:8256   */\n      tag_464\n        /* \"#utility.yul\":8249:8255   */\n      dup2\n        /* \"#utility.yul\":8244:8247   */\n      dup6\n        /* \"#utility.yul\":8237:8241   */\n      0x20\n        /* \"#utility.yul\":8230:8235   */\n      dup7\n        /* \"#utility.yul\":8226:8242   */\n      add\n        /* \"#utility.yul\":8204:8256   */\n      tag_465\n      jump\t// in\n    tag_464:\n        /* \"#utility.yul\":8281:8310   */\n      tag_466\n        /* \"#utility.yul\":8303:8309   */\n      dup2\n        /* \"#utility.yul\":8281:8310   */\n      tag_467\n      jump\t// in\n    tag_466:\n        /* \"#utility.yul\":8276:8279   */\n      dup5\n        /* \"#utility.yul\":8272:8311   */\n      add\n        /* \"#utility.yul\":8265:8311   */\n      swap2\n      pop\n        /* \"#utility.yul\":8045:8317   */\n      pop\n        /* \"#utility.yul\":7953:8317   */\n      swap3\n      swap2\n      pop\n      pop\n      jump\t// out\n        /* \"#utility.yul\":8323:8700   */\n    tag_468:\n        /* \"#utility.yul\":8429:8432   */\n      0x00\n        /* \"#utility.yul\":8457:8496   */\n      tag_470\n        /* \"#utility.yul\":8490:8495   */\n      dup3\n        /* \"#utility.yul\":8457:8496   */\n      tag_461\n      jump\t// in\n    tag_470:\n        /* \"#utility.yul\":8512:8601   */\n      tag_471\n        /* \"#utility.yul\":8594:8600   */\n      dup2\n        /* \"#utility.yul\":8589:8592   */\n      dup6\n        /* \"#utility.yul\":8512:8601   */\n      tag_472\n      jump\t// in\n    tag_471:\n        /* \"#utility.yul\":8505:8601   */\n      swap4\n      pop\n        /* \"#utility.yul\":8610:8662   */\n      tag_473\n        /* \"#utility.yul\":8655:8661   */\n      dup2\n        /* \"#utility.yul\":8650:8653   */\n      dup6\n        /* \"#utility.yul\":8643:8647   */\n      0x20\n        /* \"#utility.yul\":8636:8641   */\n      dup7\n        /* \"#utility.yul\":8632:8648   */\n      add\n        /* \"#utility.yul\":8610:8662   */\n      tag_465\n      jump\t// in\n    tag_473:\n        /* \"#utility.yul\":8687:8693   */\n      dup1\n        /* \"#utility.yul\":8682:8685   */\n      dup5\n        /* \"#utility.yul\":8678:8694   */\n      add\n        /* \"#utility.yul\":8671:8694   */\n      swap2\n      pop\n        /* \"#utility.yul\":8433:8700   */\n      pop\n        /* \"#utility.yul\":8323:8700   */\n      swap3\n      swap2\n      pop\n      pop\n      jump\t// out\n        /* \"#utility.yul\":8706:9072   */\n    tag_474:\n        /* \"#utility.yul\":8848:8851   */\n      0x00\n        /* \"#utility.yul\":8869:8936   */\n      tag_476\n        /* \"#utility.yul\":8933:8935   */\n      0x1f\n        /* \"#utility.yul\":8928:8931   */\n      dup4\n        /* \"#utility.yul\":8869:8936   */\n      tag_463\n      jump\t// in\n    tag_476:\n        /* \"#utility.yul\":8862:8936   */\n      swap2\n      pop\n        /* \"#utility.yul\":8945:9038   */\n      tag_477\n        /* \"#utility.yul\":9034:9037   */\n      dup3\n        /* \"#utility.yul\":8945:9038   */\n      tag_478\n      jump\t// in\n    tag_477:\n        /* \"#utility.yul\":9063:9065   */\n      0x20\n        /* \"#utility.yul\":9058:9061   */\n      dup3\n        /* \"#utility.yul\":9054:9066   */\n      add\n        /* \"#utility.yul\":9047:9066   */\n      swap1\n      pop\n        /* \"#utility.yul\":8706:9072   */\n      swap2\n      swap1\n      pop\n      jump\t// out\n        /* \"#utility.yul\":9078:9444   */\n    tag_479:\n        /* \"#utility.yul\":9220:9223   */\n      0x00\n        /* \"#utility.yul\":9241:9308   */\n      tag_481\n        /* \"#utility.yul\":9305:9307   */\n      0x3d\n        /* \"#utility.yul\":9300:9303   */\n      dup4\n        /* \"#utility.yul\":9241:9308   */\n      tag_463\n      jump\t// in\n    tag_481:\n        /* \"#utility.yul\":9234:9308   */\n      swap2\n      pop\n        /* \"#utility.yul\":9317:9410   */\n      tag_482\n        /* \"#utility.yul\":9406:9409   */\n      dup3\n        /* \"#utility.yul\":9317:9410   */\n      tag_483\n      jump\t// in\n    tag_482:\n        /* \"#utility.yul\":9435:9437   */\n      0x40\n        /* \"#utility.yul\":9430:9433   */\n      dup3\n        /* \"#utility.yul\":9426:9438   */\n      add\n        /* \"#utility.yul\":9419:9438   */\n      swap1\n      pop\n        /* \"#utility.yul\":9078:9444   */\n      swap2\n      swap1\n      pop\n      jump\t// out\n        /* \"#utility.yul\":9450:9816   */\n    tag_484:\n        /* \"#utility.yul\":9592:9595   */\n      0x00\n        /* \"#utility.yul\":9613:9680   */\n      tag_486\n        /* \"#utility.yul\":9677:9679   */\n      0x20\n        /* \"#utility.yul\":9672:9675   */\n      dup4\n        /* \"#utility.yul\":9613:9680   */\n      tag_463\n      jump\t// in\n    tag_486:\n        /* \"#utility.yul\":9606:9680   */\n      swap2\n      pop\n        /* \"#utility.yul\":9689:9782   */\n      tag_487\n        /* \"#utility.yul\":9778:9781   */\n      dup3\n        /* \"#utility.yul\":9689:9782   */\n      tag_488\n      jump\t// in\n    tag_487:\n        /* \"#utility.yul\":9807:9809   */\n      0x20\n        /* \"#utility.yul\":9802:9805   */\n      dup3\n        /* \"#utility.yul\":9798:9810   */\n      add\n        /* \"#utility.yul\":9791:9810   */\n      swap1\n      pop\n        /* \"#utility.yul\":9450:9816   */\n      swap2\n      swap1\n      pop\n      jump\t// out\n        /* \"#utility.yul\":9822:10188   */\n    tag_489:\n        /* \"#utility.yul\":9964:9967   */\n      0x00\n        /* \"#utility.yul\":9985:10052   */\n      tag_491\n        /* \"#utility.yul\":10049:10051   */\n      0x14\n        /* \"#utility.yul\":10044:10047   */\n      dup4\n        /* \"#utility.yul\":9985:10052   */\n      tag_463\n      jump\t// in\n    tag_491:\n        /* \"#utility.yul\":9978:10052   */\n      swap2\n      pop\n        /* \"#utility.yul\":10061:10154   */\n      tag_492\n        /* \"#utility.yul\":10150:10153   */\n      dup3\n        /* \"#utility.yul\":10061:10154   */\n      tag_493\n      jump\t// in\n    tag_492:\n        /* \"#utility.yul\":10179:10181   */\n      0x20\n        /* \"#utility.yul\":10174:10177   */\n      dup3\n        /* \"#utility.yul\":10170:10182   */\n      add\n        /* \"#utility.yul\":10163:10182   */\n      swap1\n      pop\n        /* \"#utility.yul\":9822:10188   */\n      swap2\n      swap1\n      pop\n      jump\t// out\n        /* \"#utility.yul\":10194:10560   */\n    tag_494:\n        /* \"#utility.yul\":10336:10339   */\n      0x00\n        /* \"#utility.yul\":10357:10424   */\n      tag_496\n        /* \"#utility.yul\":10421:10423   */\n      0x2c\n        /* \"#utility.yul\":10416:10419   */\n      dup4\n        /* \"#utility.yul\":10357:10424   */\n      tag_463\n      jump\t// in\n    tag_496:\n        /* \"#utility.yul\":10350:10424   */\n      swap2\n      pop\n        /* \"#utility.yul\":10433:10526   */\n      tag_497\n        /* \"#utility.yul\":10522:10525   */\n      dup3\n        /* \"#utility.yul\":10433:10526   */\n      tag_498\n      jump\t// in\n    tag_497:\n        /* \"#utility.yul\":10551:10553   */\n      0x40\n        /* \"#utility.yul\":10546:10549   */\n      dup3\n        /* \"#utility.yul\":10542:10554   */\n      add\n        /* \"#utility.yul\":10535:10554   */\n      swap1\n      pop\n        /* \"#utility.yul\":10194:10560   */\n      swap2\n      swap1\n      pop\n      jump\t// out\n        /* \"#utility.yul\":10566:10932   */\n    tag_499:\n        /* \"#utility.yul\":10708:10711   */\n      0x00\n        /* \"#utility.yul\":10729:10796   */\n      tag_501\n        /* \"#utility.yul\":10793:10795   */\n      0x19\n        /* \"#utility.yul\":10788:10791   */\n      dup4\n        /* \"#utility.yul\":10729:10796   */\n      tag_463\n      jump\t// in\n    tag_501:\n        /* \"#utility.yul\":10722:10796   */\n      swap2\n      pop\n        /* \"#utility.yul\":10805:10898   */\n      tag_502\n        /* \"#utility.yul\":10894:10897   */\n      dup3\n        /* \"#utility.yul\":10805:10898   */\n      tag_503\n      jump\t// in\n    tag_502:\n        /* \"#utility.yul\":10923:10925   */\n      0x20\n        /* \"#utility.yul\":10918:10921   */\n      dup3\n        /* \"#utility.yul\":10914:10926   */\n      add\n        /* \"#utility.yul\":10907:10926   */\n      swap1\n      pop\n        /* \"#utility.yul\":10566:10932   */\n      swap2\n      swap1\n      pop\n      jump\t// out\n        /* \"#utility.yul\":10938:11304   */\n    tag_504:\n        /* \"#utility.yul\":11080:11083   */\n      0x00\n        /* \"#utility.yul\":11101:11168   */\n      tag_506\n        /* \"#utility.yul\":11165:11167   */\n      0x21\n        /* \"#utility.yul\":11160:11163   */\n      dup4\n        /* \"#utility.yul\":11101:11168   */\n      tag_463\n      jump\t// in\n    tag_506:\n        /* \"#utility.yul\":11094:11168   */\n      swap2\n      pop\n        /* \"#utility.yul\":11177:11270   */\n      tag_507\n        /* \"#utility.yul\":11266:11269   */\n      dup3\n        /* \"#utility.yul\":11177:11270   */\n      tag_508\n      jump\t// in\n    tag_507:\n        /* \"#utility.yul\":11295:11297   */\n      0x40\n        /* \"#utility.yul\":11290:11293   */\n      dup3\n        /* \"#utility.yul\":11286:11298   */\n      add\n        /* \"#utility.yul\":11279:11298   */\n      swap1\n      pop\n        /* \"#utility.yul\":10938:11304   */\n      swap2\n      swap1\n      pop\n      jump\t// out\n        /* \"#utility.yul\":11310:11676   */\n    tag_509:\n        /* \"#utility.yul\":11452:11455   */\n      0x00\n        /* \"#utility.yul\":11473:11540   */\n      tag_511\n        /* \"#utility.yul\":11537:11539   */\n      0x28\n        /* \"#utility.yul\":11532:11535   */\n      dup4\n        /* \"#utility.yul\":11473:11540   */\n      tag_463\n      jump\t// in\n    tag_511:\n        /* \"#utility.yul\":11466:11540   */\n      swap2\n      pop\n        /* \"#utility.yul\":11549:11642   */\n      tag_512\n        /* \"#utility.yul\":11638:11641   */\n      dup3\n        /* \"#utility.yul\":11549:11642   */\n      tag_513\n      jump\t// in\n    tag_512:\n        /* \"#utility.yul\":11667:11669   */\n      0x40\n        /* \"#utility.yul\":11662:11665   */\n      dup3\n        /* \"#utility.yul\":11658:11670   */\n      add\n        /* \"#utility.yul\":11651:11670   */\n      swap1\n      pop\n        /* \"#utility.yul\":11310:11676   */\n      swap2\n      swap1\n      pop\n      jump\t// out\n        /* \"#utility.yul\":11682:12048   */\n    tag_514:\n        /* \"#utility.yul\":11824:11827   */\n      0x00\n        /* \"#utility.yul\":11845:11912   */\n      tag_516\n        /* \"#utility.yul\":11909:11911   */\n      0x16\n        /* \"#utility.yul\":11904:11907   */\n      dup4\n        /* \"#utility.yul\":11845:11912   */\n      tag_463\n      jump\t// in\n    tag_516:\n        /* \"#utility.yul\":11838:11912   */\n      swap2\n      pop\n        /* \"#utility.yul\":11921:12014   */\n      tag_517\n        /* \"#utility.yul\":12010:12013   */\n      dup3\n        /* \"#utility.yul\":11921:12014   */\n      tag_518\n      jump\t// in\n    tag_517:\n        /* \"#utility.yul\":12039:12041   */\n      0x20\n        /* \"#utility.yul\":12034:12037   */\n      dup3\n        /* \"#utility.yul\":12030:12042   */\n      add\n        /* \"#utility.yul\":12023:12042   */\n      swap1\n      pop\n        /* \"#utility.yul\":11682:12048   */\n      swap2\n      swap1\n      pop\n      jump\t// out\n        /* \"#utility.yul\":12054:12420   */\n    tag_519:\n        /* \"#utility.yul\":12196:12199   */\n      0x00\n        /* \"#utility.yul\":12217:12284   */\n      tag_521\n        /* \"#utility.yul\":12281:12283   */\n      0x25\n        /* \"#utility.yul\":12276:12279   */\n      dup4\n        /* \"#utility.yul\":12217:12284   */\n      tag_463\n      jump\t// in\n    tag_521:\n        /* \"#utility.yul\":12210:12284   */\n      swap2\n      pop\n        /* \"#utility.yul\":12293:12386   */\n      tag_522\n        /* \"#utility.yul\":12382:12385   */\n      dup3\n        /* \"#utility.yul\":12293:12386   */\n      tag_523\n      jump\t// in\n    tag_522:\n        /* \"#utility.yul\":12411:12413   */\n      0x40\n        /* \"#utility.yul\":12406:12409   */\n      dup3\n        /* \"#utility.yul\":12402:12414   */\n      add\n        /* \"#utility.yul\":12395:12414   */\n      swap1\n      pop\n        /* \"#utility.yul\":12054:12420   */\n      swap2\n      swap1\n      pop\n      jump\t// out\n        /* \"#utility.yul\":12426:12828   */\n    tag_524:\n        /* \"#utility.yul\":12586:12589   */\n      0x00\n        /* \"#utility.yul\":12607:12692   */\n      tag_526\n        /* \"#utility.yul\":12689:12691   */\n      0x17\n        /* \"#utility.yul\":12684:12687   */\n      dup4\n        /* \"#utility.yul\":12607:12692   */\n      tag_472\n      jump\t// in\n    tag_526:\n        /* \"#utility.yul\":12600:12692   */\n      swap2\n      pop\n        /* \"#utility.yul\":12701:12794   */\n      tag_527\n        /* \"#utility.yul\":12790:12793   */\n      dup3\n        /* \"#utility.yul\":12701:12794   */\n      tag_528\n      jump\t// in\n    tag_527:\n        /* \"#utility.yul\":12819:12821   */\n      0x17\n        /* \"#utility.yul\":12814:12817   */\n      dup3\n        /* \"#utility.yul\":12810:12822   */\n      add\n        /* \"#utility.yul\":12803:12822   */\n      swap1\n      pop\n        /* \"#utility.yul\":12426:12828   */\n      swap2\n      swap1\n      pop\n      jump\t// out\n        /* \"#utility.yul\":12834:13200   */\n    tag_529:\n        /* \"#utility.yul\":12976:12979   */\n      0x00\n        /* \"#utility.yul\":12997:13064   */\n      tag_531\n        /* \"#utility.yul\":13061:13063   */\n      0x1c\n        /* \"#utility.yul\":13056:13059   */\n      dup4\n        /* \"#utility.yul\":12997:13064   */\n      tag_463\n      jump\t// in\n    tag_531:\n        /* \"#utility.yul\":12990:13064   */\n      swap2\n      pop\n        /* \"#utility.yul\":13073:13166   */\n      tag_532\n        /* \"#utility.yul\":13162:13165   */\n      dup3\n        /* \"#utility.yul\":13073:13166   */\n      tag_533\n      jump\t// in\n    tag_532:\n        /* \"#utility.yul\":13191:13193   */\n      0x20\n        /* \"#utility.yul\":13186:13189   */\n      dup3\n        /* \"#utility.yul\":13182:13194   */\n      add\n        /* \"#utility.yul\":13175:13194   */\n      swap1\n      pop\n        /* \"#utility.yul\":12834:13200   */\n      swap2\n      swap1\n      pop\n      jump\t// out\n        /* \"#utility.yul\":13206:13608   */\n    tag_534:\n        /* \"#utility.yul\":13366:13369   */\n      0x00\n        /* \"#utility.yul\":13387:13472   */\n      tag_536\n        /* \"#utility.yul\":13469:13471   */\n      0x11\n        /* \"#utility.yul\":13464:13467   */\n      dup4\n        /* \"#utility.yul\":13387:13472   */\n      tag_472\n      jump\t// in\n    tag_536:\n        /* \"#utility.yul\":13380:13472   */\n      swap2\n      pop\n        /* \"#utility.yul\":13481:13574   */\n      tag_537\n        /* \"#utility.yul\":13570:13573   */\n      dup3\n        /* \"#utility.yul\":13481:13574   */\n      tag_538\n      jump\t// in\n    tag_537:\n        /* \"#utility.yul\":13599:13601   */\n      0x11\n        /* \"#utility.yul\":13594:13597   */\n      dup3\n        /* \"#utility.yul\":13590:13602   */\n      add\n        /* \"#utility.yul\":13583:13602   */\n      swap1\n      pop\n        /* \"#utility.yul\":13206:13608   */\n      swap2\n      swap1\n      pop\n      jump\t// out\n        /* \"#utility.yul\":13614:13980   */\n    tag_539:\n        /* \"#utility.yul\":13756:13759   */\n      0x00\n        /* \"#utility.yul\":13777:13844   */\n      tag_541\n        /* \"#utility.yul\":13841:13843   */\n      0x2f\n        /* \"#utility.yul\":13836:13839   */\n      dup4\n        /* \"#utility.yul\":13777:13844   */\n      tag_463\n      jump\t// in\n    tag_541:\n        /* \"#utility.yul\":13770:13844   */\n      swap2\n      pop\n        /* \"#utility.yul\":13853:13946   */\n      tag_542\n        /* \"#utility.yul\":13942:13945   */\n      dup3\n        /* \"#utility.yul\":13853:13946   */\n      tag_543\n      jump\t// in\n    tag_542:\n        /* \"#utility.yul\":13971:13973   */\n      0x40\n        /* \"#utility.yul\":13966:13969   */\n      dup3\n        /* \"#utility.yul\":13962:13974   */\n      add\n        /* \"#utility.yul\":13955:13974   */\n      swap1\n      pop\n        /* \"#utility.yul\":13614:13980   */\n      swap2\n      swap1\n      pop\n      jump\t// out\n        /* \"#utility.yul\":13986:14104   */\n    tag_544:\n        /* \"#utility.yul\":14073:14097   */\n      tag_546\n        /* \"#utility.yul\":14091:14096   */\n      dup2\n        /* \"#utility.yul\":14073:14097   */\n      tag_547\n      jump\t// in\n    tag_546:\n        /* \"#utility.yul\":14068:14071   */\n      dup3\n        /* \"#utility.yul\":14061:14098   */\n      mstore\n        /* \"#utility.yul\":13986:14104   */\n      pop\n      pop\n      jump\t// out\n        /* \"#utility.yul\":14110:14222   */\n    tag_548:\n        /* \"#utility.yul\":14193:14215   */\n      tag_550\n        /* \"#utility.yul\":14209:14214   */\n      dup2\n        /* \"#utility.yul\":14193:14215   */\n      tag_551\n      jump\t// in\n    tag_550:\n        /* \"#utility.yul\":14188:14191   */\n      dup3\n        /* \"#utility.yul\":14181:14216   */\n      mstore\n        /* \"#utility.yul\":14110:14222   */\n      pop\n      pop\n      jump\t// out\n        /* \"#utility.yul\":14228:15195   */\n    tag_281:\n        /* \"#utility.yul\":14610:14613   */\n      0x00\n        /* \"#utility.yul\":14632:14780   */\n      tag_553\n        /* \"#utility.yul\":14776:14779   */\n      dup3\n        /* \"#utility.yul\":14632:14780   */\n      tag_524\n      jump\t// in\n    tag_553:\n        /* \"#utility.yul\":14625:14780   */\n      swap2\n      pop\n        /* \"#utility.yul\":14797:14892   */\n      tag_554\n        /* \"#utility.yul\":14888:14891   */\n      dup3\n        /* \"#utility.yul\":14879:14885   */\n      dup6\n        /* \"#utility.yul\":14797:14892   */\n      tag_468\n      jump\t// in\n    tag_554:\n        /* \"#utility.yul\":14790:14892   */\n      swap2\n      pop\n        /* \"#utility.yul\":14909:15057   */\n      tag_555\n        /* \"#utility.yul\":15053:15056   */\n      dup3\n        /* \"#utility.yul\":14909:15057   */\n      tag_534\n      jump\t// in\n    tag_555:\n        /* \"#utility.yul\":14902:15057   */\n      swap2\n      pop\n        /* \"#utility.yul\":15074:15169   */\n      tag_556\n        /* \"#utility.yul\":15165:15168   */\n      dup3\n        /* \"#utility.yul\":15156:15162   */\n      dup5\n        /* \"#utility.yul\":15074:15169   */\n      tag_468\n      jump\t// in\n    tag_556:\n        /* \"#utility.yul\":15067:15169   */\n      swap2\n      pop\n        /* \"#utility.yul\":15186:15189   */\n      dup2\n        /* \"#utility.yul\":15179:15189   */\n      swap1\n      pop\n        /* \"#utility.yul\":14228:15195   */\n      swap4\n      swap3\n      pop\n      pop\n      pop\n      jump\t// out\n        /* \"#utility.yul\":15201:15411   */\n    tag_32:\n        /* \"#utility.yul\":15288:15292   */\n      0x00\n        /* \"#utility.yul\":15326:15328   */\n      0x20\n        /* \"#utility.yul\":15315:15324   */\n      dup3\n        /* \"#utility.yul\":15311:15329   */\n      add\n        /* \"#utility.yul\":15303:15329   */\n      swap1\n      pop\n        /* \"#utility.yul\":15339:15404   */\n      tag_558\n        /* \"#utility.yul\":15401:15402   */\n      0x00\n        /* \"#utility.yul\":15390:15399   */\n      dup4\n        /* \"#utility.yul\":15386:15403   */\n      add\n        /* \"#utility.yul\":15377:15383   */\n      dup5\n        /* \"#utility.yul\":15339:15404   */\n      tag_450\n      jump\t// in\n    tag_558:\n        /* \"#utility.yul\":15201:15411   */\n      swap3\n      swap2\n      pop\n      pop\n      jump\t// out\n        /* \"#utility.yul\":15417:15639   */\n    tag_47:\n        /* \"#utility.yul\":15510:15514   */\n      0x00\n        /* \"#utility.yul\":15548:15550   */\n      0x20\n        /* \"#utility.yul\":15537:15546   */\n      dup3\n        /* \"#utility.yul\":15533:15551   */\n      add\n        /* \"#utility.yul\":15525:15551   */\n      swap1\n      pop\n        /* \"#utility.yul\":15561:15632   */\n      tag_560\n        /* \"#utility.yul\":15629:15630   */\n      0x00\n        /* \"#utility.yul\":15618:15627   */\n      dup4\n        /* \"#utility.yul\":15614:15631   */\n      add\n        /* \"#utility.yul\":15605:15611   */\n      dup5\n        /* \"#utility.yul\":15561:15632   */\n      tag_454\n      jump\t// in\n    tag_560:\n        /* \"#utility.yul\":15417:15639   */\n      swap3\n      swap2\n      pop\n      pop\n      jump\t// out\n        /* \"#utility.yul\":15645:15958   */\n    tag_283:\n        /* \"#utility.yul\":15758:15762   */\n      0x00\n        /* \"#utility.yul\":15796:15798   */\n      0x20\n        /* \"#utility.yul\":15785:15794   */\n      dup3\n        /* \"#utility.yul\":15781:15799   */\n      add\n        /* \"#utility.yul\":15773:15799   */\n      swap1\n      pop\n        /* \"#utility.yul\":15845:15854   */\n      dup2\n        /* \"#utility.yul\":15839:15843   */\n      dup2\n        /* \"#utility.yul\":15835:15855   */\n      sub\n        /* \"#utility.yul\":15831:15832   */\n      0x00\n        /* \"#utility.yul\":15820:15829   */\n      dup4\n        /* \"#utility.yul\":15816:15833   */\n      add\n        /* \"#utility.yul\":15809:15856   */\n      mstore\n        /* \"#utility.yul\":15873:15951   */\n      tag_562\n        /* \"#utility.yul\":15946:15950   */\n      dup2\n        /* \"#utility.yul\":15937:15943   */\n      dup5\n        /* \"#utility.yul\":15873:15951   */\n      tag_458\n      jump\t// in\n    tag_562:\n        /* \"#utility.yul\":15865:15951   */\n      swap1\n      pop\n        /* \"#utility.yul\":15645:15958   */\n      swap3\n      swap2\n      pop\n      pop\n      jump\t// out\n        /* \"#utility.yul\":15964:16628   */\n    tag_112:\n        /* \"#utility.yul\":16171:16175   */\n      0x00\n        /* \"#utility.yul\":16209:16212   */\n      0x80\n        /* \"#utility.yul\":16198:16207   */\n      dup3\n        /* \"#utility.yul\":16194:16213   */\n      add\n        /* \"#utility.yul\":16186:16213   */\n      swap1\n      pop\n        /* \"#utility.yul\":16259:16268   */\n      dup2\n        /* \"#utility.yul\":16253:16257   */\n      dup2\n        /* \"#utility.yul\":16249:16269   */\n      sub\n        /* \"#utility.yul\":16245:16246   */\n      0x00\n        /* \"#utility.yul\":16234:16243   */\n      dup4\n        /* \"#utility.yul\":16230:16247   */\n      add\n        /* \"#utility.yul\":16223:16270   */\n      mstore\n        /* \"#utility.yul\":16287:16365   */\n      tag_564\n        /* \"#utility.yul\":16360:16364   */\n      dup2\n        /* \"#utility.yul\":16351:16357   */\n      dup8\n        /* \"#utility.yul\":16287:16365   */\n      tag_458\n      jump\t// in\n    tag_564:\n        /* \"#utility.yul\":16279:16365   */\n      swap1\n      pop\n        /* \"#utility.yul\":16375:16463   */\n      tag_565\n        /* \"#utility.yul\":16459:16461   */\n      0x20\n        /* \"#utility.yul\":16448:16457   */\n      dup4\n        /* \"#utility.yul\":16444:16462   */\n      add\n        /* \"#utility.yul\":16435:16441   */\n      dup7\n        /* \"#utility.yul\":16375:16463   */\n      tag_442\n      jump\t// in\n    tag_565:\n        /* \"#utility.yul\":16473:16545   */\n      tag_566\n        /* \"#utility.yul\":16541:16543   */\n      0x40\n        /* \"#utility.yul\":16530:16539   */\n      dup4\n        /* \"#utility.yul\":16526:16544   */\n      add\n        /* \"#utility.yul\":16517:16523   */\n      dup6\n        /* \"#utility.yul\":16473:16545   */\n      tag_544\n      jump\t// in\n    tag_566:\n        /* \"#utility.yul\":16555:16621   */\n      tag_567\n        /* \"#utility.yul\":16617:16619   */\n      0x60\n        /* \"#utility.yul\":16606:16615   */\n      dup4\n        /* \"#utility.yul\":16602:16620   */\n      add\n        /* \"#utility.yul\":16593:16599   */\n      dup5\n        /* \"#utility.yul\":16555:16621   */\n      tag_450\n      jump\t// in\n    tag_567:\n        /* \"#utility.yul\":15964:16628   */\n      swap6\n      swap5\n      pop\n      pop\n      pop\n      pop\n      pop\n      jump\t// out\n        /* \"#utility.yul\":16634:17472   */\n    tag_78:\n        /* \"#utility.yul\":16875:16879   */\n      0x00\n        /* \"#utility.yul\":16913:16916   */\n      0xa0\n        /* \"#utility.yul\":16902:16911   */\n      dup3\n        /* \"#utility.yul\":16898:16917   */\n      add\n        /* \"#utility.yul\":16890:16917   */\n      swap1\n      pop\n        /* \"#utility.yul\":16963:16972   */\n      dup2\n        /* \"#utility.yul\":16957:16961   */\n      dup2\n        /* \"#utility.yul\":16953:16973   */\n      sub\n        /* \"#utility.yul\":16949:16950   */\n      0x00\n        /* \"#utility.yul\":16938:16947   */\n      dup4\n        /* \"#utility.yul\":16934:16951   */\n      add\n        /* \"#utility.yul\":16927:16974   */\n      mstore\n        /* \"#utility.yul\":16991:17069   */\n      tag_569\n        /* \"#utility.yul\":17064:17068   */\n      dup2\n        /* \"#utility.yul\":17055:17061   */\n      dup9\n        /* \"#utility.yul\":16991:17069   */\n      tag_458\n      jump\t// in\n    tag_569:\n        /* \"#utility.yul\":16983:17069   */\n      swap1\n      pop\n        /* \"#utility.yul\":17116:17125   */\n      dup2\n        /* \"#utility.yul\":17110:17114   */\n      dup2\n        /* \"#utility.yul\":17106:17126   */\n      sub\n        /* \"#utility.yul\":17101:17103   */\n      0x20\n        /* \"#utility.yul\":17090:17099   */\n      dup4\n        /* \"#utility.yul\":17086:17104   */\n      add\n        /* \"#utility.yul\":17079:17127   */\n      mstore\n        /* \"#utility.yul\":17144:17222   */\n      tag_570\n        /* \"#utility.yul\":17217:17221   */\n      dup2\n        /* \"#utility.yul\":17208:17214   */\n      dup8\n        /* \"#utility.yul\":17144:17222   */\n      tag_458\n      jump\t// in\n    tag_570:\n        /* \"#utility.yul\":17136:17222   */\n      swap1\n      pop\n        /* \"#utility.yul\":17232:17300   */\n      tag_571\n        /* \"#utility.yul\":17296:17298   */\n      0x40\n        /* \"#utility.yul\":17285:17294   */\n      dup4\n        /* \"#utility.yul\":17281:17299   */\n      add\n        /* \"#utility.yul\":17272:17278   */\n      dup7\n        /* \"#utility.yul\":17232:17300   */\n      tag_548\n      jump\t// in\n    tag_571:\n        /* \"#utility.yul\":17310:17382   */\n      tag_572\n        /* \"#utility.yul\":17378:17380   */\n      0x60\n        /* \"#utility.yul\":17367:17376   */\n      dup4\n        /* \"#utility.yul\":17363:17381   */\n      add\n        /* \"#utility.yul\":17354:17360   */\n      dup6\n        /* \"#utility.yul\":17310:17382   */\n      tag_544\n      jump\t// in\n    tag_572:\n        /* \"#utility.yul\":17392:17465   */\n      tag_573\n        /* \"#utility.yul\":17460:17463   */\n      0x80\n        /* \"#utility.yul\":17449:17458   */\n      dup4\n        /* \"#utility.yul\":17445:17464   */\n      add\n        /* \"#utility.yul\":17436:17442   */\n      dup5\n        /* \"#utility.yul\":17392:17465   */\n      tag_544\n      jump\t// in\n    tag_573:\n        /* \"#utility.yul\":16634:17472   */\n      swap7\n      swap6\n      pop\n      pop\n      pop\n      pop\n      pop\n      pop\n      jump\t// out\n        /* \"#utility.yul\":17478:17897   */\n    tag_157:\n        /* \"#utility.yul\":17644:17648   */\n      0x00\n        /* \"#utility.yul\":17682:17684   */\n      0x20\n        /* \"#utility.yul\":17671:17680   */\n      dup3\n        /* \"#utility.yul\":17667:17685   */\n      add\n        /* \"#utility.yul\":17659:17685   */\n      swap1\n      pop\n        /* \"#utility.yul\":17731:17740   */\n      dup2\n        /* \"#utility.yul\":17725:17729   */\n      dup2\n        /* \"#utility.yul\":17721:17741   */\n      sub\n        /* \"#utility.yul\":17717:17718   */\n      0x00\n        /* \"#utility.yul\":17706:17715   */\n      dup4\n        /* \"#utility.yul\":17702:17719   */\n      add\n        /* \"#utility.yul\":17695:17742   */\n      mstore\n        /* \"#utility.yul\":17759:17890   */\n      tag_575\n        /* \"#utility.yul\":17885:17889   */\n      dup2\n        /* \"#utility.yul\":17759:17890   */\n      tag_474\n      jump\t// in\n    tag_575:\n        /* \"#utility.yul\":17751:17890   */\n      swap1\n      pop\n        /* \"#utility.yul\":17478:17897   */\n      swap2\n      swap1\n      pop\n      jump\t// out\n        /* \"#utility.yul\":17903:18322   */\n    tag_160:\n        /* \"#utility.yul\":18069:18073   */\n      0x00\n        /* \"#utility.yul\":18107:18109   */\n      0x20\n        /* \"#utility.yul\":18096:18105   */\n      dup3\n        /* \"#utility.yul\":18092:18110   */\n      add\n        /* \"#utility.yul\":18084:18110   */\n      swap1\n      pop\n        /* \"#utility.yul\":18156:18165   */\n      dup2\n        /* \"#utility.yul\":18150:18154   */\n      dup2\n        /* \"#utility.yul\":18146:18166   */\n      sub\n        /* \"#utility.yul\":18142:18143   */\n      0x00\n        /* \"#utility.yul\":18131:18140   */\n      dup4\n        /* \"#utility.yul\":18127:18144   */\n      add\n        /* \"#utility.yul\":18120:18167   */\n      mstore\n        /* \"#utility.yul\":18184:18315   */\n      tag_577\n        /* \"#utility.yul\":18310:18314   */\n      dup2\n        /* \"#utility.yul\":18184:18315   */\n      tag_479\n      jump\t// in\n    tag_577:\n        /* \"#utility.yul\":18176:18315   */\n      swap1\n      pop\n        /* \"#utility.yul\":17903:18322   */\n      swap2\n      swap1\n      pop\n      jump\t// out\n        /* \"#utility.yul\":18328:18747   */\n    tag_324:\n        /* \"#utility.yul\":18494:18498   */\n      0x00\n        /* \"#utility.yul\":18532:18534   */\n      0x20\n        /* \"#utility.yul\":18521:18530   */\n      dup3\n        /* \"#utility.yul\":18517:18535   */\n      add\n        /* \"#utility.yul\":18509:18535   */\n      swap1\n      pop\n        /* \"#utility.yul\":18581:18590   */\n      dup2\n        /* \"#utility.yul\":18575:18579   */\n      dup2\n        /* \"#utility.yul\":18571:18591   */\n      sub\n        /* \"#utility.yul\":18567:18568   */\n      0x00\n        /* \"#utility.yul\":18556:18565   */\n      dup4\n        /* \"#utility.yul\":18552:18569   */\n      add\n        /* \"#utility.yul\":18545:18592   */\n      mstore\n        /* \"#utility.yul\":18609:18740   */\n      tag_579\n        /* \"#utility.yul\":18735:18739   */\n      dup2\n        /* \"#utility.yul\":18609:18740   */\n      tag_484\n      jump\t// in\n    tag_579:\n        /* \"#utility.yul\":18601:18740   */\n      swap1\n      pop\n        /* \"#utility.yul\":18328:18747   */\n      swap2\n      swap1\n      pop\n      jump\t// out\n        /* \"#utility.yul\":18753:19172   */\n    tag_154:\n        /* \"#utility.yul\":18919:18923   */\n      0x00\n        /* \"#utility.yul\":18957:18959   */\n      0x20\n        /* \"#utility.yul\":18946:18955   */\n      dup3\n        /* \"#utility.yul\":18942:18960   */\n      add\n        /* \"#utility.yul\":18934:18960   */\n      swap1\n      pop\n        /* \"#utility.yul\":19006:19015   */\n      dup2\n        /* \"#utility.yul\":19000:19004   */\n      dup2\n        /* \"#utility.yul\":18996:19016   */\n      sub\n        /* \"#utility.yul\":18992:18993   */\n      0x00\n        /* \"#utility.yul\":18981:18990   */\n      dup4\n        /* \"#utility.yul\":18977:18994   */\n      add\n        /* \"#utility.yul\":18970:19017   */\n      mstore\n        /* \"#utility.yul\":19034:19165   */\n      tag_581\n        /* \"#utility.yul\":19160:19164   */\n      dup2\n        /* \"#utility.yul\":19034:19165   */\n      tag_489\n      jump\t// in\n    tag_581:\n        /* \"#utility.yul\":19026:19165   */\n      swap1\n      pop\n        /* \"#utility.yul\":18753:19172   */\n      swap2\n      swap1\n      pop\n      jump\t// out\n        /* \"#utility.yul\":19178:19597   */\n    tag_234:\n        /* \"#utility.yul\":19344:19348   */\n      0x00\n        /* \"#utility.yul\":19382:19384   */\n      0x20\n        /* \"#utility.yul\":19371:19380   */\n      dup3\n        /* \"#utility.yul\":19367:19385   */\n      add\n        /* \"#utility.yul\":19359:19385   */\n      swap1\n      pop\n        /* \"#utility.yul\":19431:19440   */\n      dup2\n        /* \"#utility.yul\":19425:19429   */\n      dup2\n        /* \"#utility.yul\":19421:19441   */\n      sub\n        /* \"#utility.yul\":19417:19418   */\n      0x00\n        /* \"#utility.yul\":19406:19415   */\n      dup4\n        /* \"#utility.yul\":19402:19419   */\n      add\n        /* \"#utility.yul\":19395:19442   */\n      mstore\n        /* \"#utility.yul\":19459:19590   */\n      tag_583\n        /* \"#utility.yul\":19585:19589   */\n      dup2\n        /* \"#utility.yul\":19459:19590   */\n      tag_494\n      jump\t// in\n    tag_583:\n        /* \"#utility.yul\":19451:19590   */\n      swap1\n      pop\n        /* \"#utility.yul\":19178:19597   */\n      swap2\n      swap1\n      pop\n      jump\t// out\n        /* \"#utility.yul\":19603:20022   */\n    tag_163:\n        /* \"#utility.yul\":19769:19773   */\n      0x00\n        /* \"#utility.yul\":19807:19809   */\n      0x20\n        /* \"#utility.yul\":19796:19805   */\n      dup3\n        /* \"#utility.yul\":19792:19810   */\n      add\n        /* \"#utility.yul\":19784:19810   */\n      swap1\n      pop\n        /* \"#utility.yul\":19856:19865   */\n      dup2\n        /* \"#utility.yul\":19850:19854   */\n      dup2\n        /* \"#utility.yul\":19846:19866   */\n      sub\n        /* \"#utility.yul\":19842:19843   */\n      0x00\n        /* \"#utility.yul\":19831:19840   */\n      dup4\n        /* \"#utility.yul\":19827:19844   */\n      add\n        /* \"#utility.yul\":19820:19867   */\n      mstore\n        /* \"#utility.yul\":19884:20015   */\n      tag_585\n        /* \"#utility.yul\":20010:20014   */\n      dup2\n        /* \"#utility.yul\":19884:20015   */\n      tag_499\n      jump\t// in\n    tag_585:\n        /* \"#utility.yul\":19876:20015   */\n      swap1\n      pop\n        /* \"#utility.yul\":19603:20022   */\n      swap2\n      swap1\n      pop\n      jump\t// out\n        /* \"#utility.yul\":20028:20447   */\n    tag_148:\n        /* \"#utility.yul\":20194:20198   */\n      0x00\n        /* \"#utility.yul\":20232:20234   */\n      0x20\n        /* \"#utility.yul\":20221:20230   */\n      dup3\n        /* \"#utility.yul\":20217:20235   */\n      add\n        /* \"#utility.yul\":20209:20235   */\n      swap1\n      pop\n        /* \"#utility.yul\":20281:20290   */\n      dup2\n        /* \"#utility.yul\":20275:20279   */\n      dup2\n        /* \"#utility.yul\":20271:20291   */\n      sub\n        /* \"#utility.yul\":20267:20268   */\n      0x00\n        /* \"#utility.yul\":20256:20265   */\n      dup4\n        /* \"#utility.yul\":20252:20269   */\n      add\n        /* \"#utility.yul\":20245:20292   */\n      mstore\n        /* \"#utility.yul\":20309:20440   */\n      tag_587\n        /* \"#utility.yul\":20435:20439   */\n      dup2\n        /* \"#utility.yul\":20309:20440   */\n      tag_504\n      jump\t// in\n    tag_587:\n        /* \"#utility.yul\":20301:20440   */\n      swap1\n      pop\n        /* \"#utility.yul\":20028:20447   */\n      swap2\n      swap1\n      pop\n      jump\t// out\n        /* \"#utility.yul\":20453:20872   */\n    tag_144:\n        /* \"#utility.yul\":20619:20623   */\n      0x00\n        /* \"#utility.yul\":20657:20659   */\n      0x20\n        /* \"#utility.yul\":20646:20655   */\n      dup3\n        /* \"#utility.yul\":20642:20660   */\n      add\n        /* \"#utility.yul\":20634:20660   */\n      swap1\n      pop\n        /* \"#utility.yul\":20706:20715   */\n      dup2\n        /* \"#utility.yul\":20700:20704   */\n      dup2\n        /* \"#utility.yul\":20696:20716   */\n      sub\n        /* \"#utility.yul\":20692:20693   */\n      0x00\n        /* \"#utility.yul\":20681:20690   */\n      dup4\n        /* \"#utility.yul\":20677:20694   */\n      add\n        /* \"#utility.yul\":20670:20717   */\n      mstore\n        /* \"#utility.yul\":20734:20865   */\n      tag_589\n        /* \"#utility.yul\":20860:20864   */\n      dup2\n        /* \"#utility.yul\":20734:20865   */\n      tag_509\n      jump\t// in\n    tag_589:\n        /* \"#utility.yul\":20726:20865   */\n      swap1\n      pop\n        /* \"#utility.yul\":20453:20872   */\n      swap2\n      swap1\n      pop\n      jump\t// out\n        /* \"#utility.yul\":20878:21297   */\n    tag_138:\n        /* \"#utility.yul\":21044:21048   */\n      0x00\n        /* \"#utility.yul\":21082:21084   */\n      0x20\n        /* \"#utility.yul\":21071:21080   */\n      dup3\n        /* \"#utility.yul\":21067:21085   */\n      add\n        /* \"#utility.yul\":21059:21085   */\n      swap1\n      pop\n        /* \"#utility.yul\":21131:21140   */\n      dup2\n        /* \"#utility.yul\":21125:21129   */\n      dup2\n        /* \"#utility.yul\":21121:21141   */\n      sub\n        /* \"#utility.yul\":21117:21118   */\n      0x00\n        /* \"#utility.yul\":21106:21115   */\n      dup4\n        /* \"#utility.yul\":21102:21119   */\n      add\n        /* \"#utility.yul\":21095:21142   */\n      mstore\n        /* \"#utility.yul\":21159:21290   */\n      tag_591\n        /* \"#utility.yul\":21285:21289   */\n      dup2\n        /* \"#utility.yul\":21159:21290   */\n      tag_514\n      jump\t// in\n    tag_591:\n        /* \"#utility.yul\":21151:21290   */\n      swap1\n      pop\n        /* \"#utility.yul\":20878:21297   */\n      swap2\n      swap1\n      pop\n      jump\t// out\n        /* \"#utility.yul\":21303:21722   */\n    tag_141:\n        /* \"#utility.yul\":21469:21473   */\n      0x00\n        /* \"#utility.yul\":21507:21509   */\n      0x20\n        /* \"#utility.yul\":21496:21505   */\n      dup3\n        /* \"#utility.yul\":21492:21510   */\n      add\n        /* \"#utility.yul\":21484:21510   */\n      swap1\n      pop\n        /* \"#utility.yul\":21556:21565   */\n      dup2\n        /* \"#utility.yul\":21550:21554   */\n      dup2\n        /* \"#utility.yul\":21546:21566   */\n      sub\n        /* \"#utility.yul\":21542:21543   */\n      0x00\n        /* \"#utility.yul\":21531:21540   */\n      dup4\n        /* \"#utility.yul\":21527:21544   */\n      add\n        /* \"#utility.yul\":21520:21567   */\n      mstore\n        /* \"#utility.yul\":21584:21715   */\n      tag_593\n        /* \"#utility.yul\":21710:21714   */\n      dup2\n        /* \"#utility.yul\":21584:21715   */\n      tag_519\n      jump\t// in\n    tag_593:\n        /* \"#utility.yul\":21576:21715   */\n      swap1\n      pop\n        /* \"#utility.yul\":21303:21722   */\n      swap2\n      swap1\n      pop\n      jump\t// out\n        /* \"#utility.yul\":21728:22147   */\n    tag_191:\n        /* \"#utility.yul\":21894:21898   */\n      0x00\n        /* \"#utility.yul\":21932:21934   */\n      0x20\n        /* \"#utility.yul\":21921:21930   */\n      dup3\n        /* \"#utility.yul\":21917:21935   */\n      add\n        /* \"#utility.yul\":21909:21935   */\n      swap1\n      pop\n        /* \"#utility.yul\":21981:21990   */\n      dup2\n        /* \"#utility.yul\":21975:21979   */\n      dup2\n        /* \"#utility.yul\":21971:21991   */\n      sub\n        /* \"#utility.yul\":21967:21968   */\n      0x00\n        /* \"#utility.yul\":21956:21965   */\n      dup4\n        /* \"#utility.yul\":21952:21969   */\n      add\n        /* \"#utility.yul\":21945:21992   */\n      mstore\n        /* \"#utility.yul\":22009:22140   */\n      tag_595\n        /* \"#utility.yul\":22135:22139   */\n      dup2\n        /* \"#utility.yul\":22009:22140   */\n      tag_529\n      jump\t// in\n    tag_595:\n        /* \"#utility.yul\":22001:22140   */\n      swap1\n      pop\n        /* \"#utility.yul\":21728:22147   */\n      swap2\n      swap1\n      pop\n      jump\t// out\n        /* \"#utility.yul\":22153:22572   */\n    tag_185:\n        /* \"#utility.yul\":22319:22323   */\n      0x00\n        /* \"#utility.yul\":22357:22359   */\n      0x20\n        /* \"#utility.yul\":22346:22355   */\n      dup3\n        /* \"#utility.yul\":22342:22360   */\n      add\n        /* \"#utility.yul\":22334:22360   */\n      swap1\n      pop\n        /* \"#utility.yul\":22406:22415   */\n      dup2\n        /* \"#utility.yul\":22400:22404   */\n      dup2\n        /* \"#utility.yul\":22396:22416   */\n      sub\n        /* \"#utility.yul\":22392:22393   */\n      0x00\n        /* \"#utility.yul\":22381:22390   */\n      dup4\n        /* \"#utility.yul\":22377:22394   */\n      add\n        /* \"#utility.yul\":22370:22417   */\n      mstore\n        /* \"#utility.yul\":22434:22565   */\n      tag_597\n        /* \"#utility.yul\":22560:22564   */\n      dup2\n        /* \"#utility.yul\":22434:22565   */\n      tag_539\n      jump\t// in\n    tag_597:\n        /* \"#utility.yul\":22426:22565   */\n      swap1\n      pop\n        /* \"#utility.yul\":22153:22572   */\n      swap2\n      swap1\n      pop\n      jump\t// out\n        /* \"#utility.yul\":22578:22800   */\n    tag_61:\n        /* \"#utility.yul\":22671:22675   */\n      0x00\n        /* \"#utility.yul\":22709:22711   */\n      0x20\n        /* \"#utility.yul\":22698:22707   */\n      dup3\n        /* \"#utility.yul\":22694:22712   */\n      add\n        /* \"#utility.yul\":22686:22712   */\n      swap1\n      pop\n        /* \"#utility.yul\":22722:22793   */\n      tag_599\n        /* \"#utility.yul\":22790:22791   */\n      0x00\n        /* \"#utility.yul\":22779:22788   */\n      dup4\n        /* \"#utility.yul\":22775:22792   */\n      add\n        /* \"#utility.yul\":22766:22772   */\n      dup5\n        /* \"#utility.yul\":22722:22793   */\n      tag_544\n      jump\t// in\n    tag_599:\n        /* \"#utility.yul\":22578:22800   */\n      swap3\n      swap2\n      pop\n      pop\n      jump\t// out\n        /* \"#utility.yul\":22806:23375   */\n    tag_170:\n        /* \"#utility.yul\":22991:22995   */\n      0x00\n        /* \"#utility.yul\":23029:23032   */\n      0x80\n        /* \"#utility.yul\":23018:23027   */\n      dup3\n        /* \"#utility.yul\":23014:23033   */\n      add\n        /* \"#utility.yul\":23006:23033   */\n      swap1\n      pop\n        /* \"#utility.yul\":23043:23114   */\n      tag_601\n        /* \"#utility.yul\":23111:23112   */\n      0x00\n        /* \"#utility.yul\":23100:23109   */\n      dup4\n        /* \"#utility.yul\":23096:23113   */\n      add\n        /* \"#utility.yul\":23087:23093   */\n      dup8\n        /* \"#utility.yul\":23043:23114   */\n      tag_544\n      jump\t// in\n    tag_601:\n        /* \"#utility.yul\":23124:23196   */\n      tag_602\n        /* \"#utility.yul\":23192:23194   */\n      0x20\n        /* \"#utility.yul\":23181:23190   */\n      dup4\n        /* \"#utility.yul\":23177:23195   */\n      add\n        /* \"#utility.yul\":23168:23174   */\n      dup7\n        /* \"#utility.yul\":23124:23196   */\n      tag_544\n      jump\t// in\n    tag_602:\n        /* \"#utility.yul\":23206:23286   */\n      tag_603\n        /* \"#utility.yul\":23282:23284   */\n      0x40\n        /* \"#utility.yul\":23271:23280   */\n      dup4\n        /* \"#utility.yul\":23267:23285   */\n      add\n        /* \"#utility.yul\":23258:23264   */\n      dup6\n        /* \"#utility.yul\":23206:23286   */\n      tag_438\n      jump\t// in\n    tag_603:\n        /* \"#utility.yul\":23296:23368   */\n      tag_604\n        /* \"#utility.yul\":23364:23366   */\n      0x60\n        /* \"#utility.yul\":23353:23362   */\n      dup4\n        /* \"#utility.yul\":23349:23367   */\n      add\n        /* \"#utility.yul\":23340:23346   */\n      dup5\n        /* \"#utility.yul\":23296:23368   */\n      tag_446\n      jump\t// in\n    tag_604:\n        /* \"#utility.yul\":22806:23375   */\n      swap6\n      swap5\n      pop\n      pop\n      pop\n      pop\n      pop\n      jump\t// out\n        /* \"#utility.yul\":23381:23510   */\n    tag_341:\n        /* \"#utility.yul\":23415:23421   */\n      0x00\n        /* \"#utility.yul\":23442:23462   */\n      tag_606\n      tag_607\n      jump\t// in\n    tag_606:\n        /* \"#utility.yul\":23432:23462   */\n      swap1\n      pop\n        /* \"#utility.yul\":23471:23504   */\n      tag_608\n        /* \"#utility.yul\":23499:23503   */\n      dup3\n        /* \"#utility.yul\":23491:23497   */\n      dup3\n        /* \"#utility.yul\":23471:23504   */\n      tag_609\n      jump\t// in\n    tag_608:\n        /* \"#utility.yul\":23381:23510   */\n      swap2\n      swap1\n      pop\n      jump\t// out\n        /* \"#utility.yul\":23516:23591   */\n    tag_607:\n        /* \"#utility.yul\":23549:23555   */\n      0x00\n        /* \"#utility.yul\":23582:23584   */\n      0x40\n        /* \"#utility.yul\":23576:23585   */\n      mload\n        /* \"#utility.yul\":23566:23585   */\n      swap1\n      pop\n        /* \"#utility.yul\":23516:23591   */\n      swap1\n      jump\t// out\n        /* \"#utility.yul\":23597:23905   */\n    tag_340:\n        /* \"#utility.yul\":23659:23663   */\n      0x00\n        /* \"#utility.yul\":23749:23767   */\n      0xffffffffffffffff\n        /* \"#utility.yul\":23741:23747   */\n      dup3\n        /* \"#utility.yul\":23738:23768   */\n      gt\n        /* \"#utility.yul\":23735:23791   */\n      iszero\n      tag_612\n      jumpi\n        /* \"#utility.yul\":23771:23789   */\n      tag_613\n      tag_305\n      jump\t// in\n    tag_613:\n        /* \"#utility.yul\":23735:23791   */\n    tag_612:\n        /* \"#utility.yul\":23809:23838   */\n      tag_614\n        /* \"#utility.yul\":23831:23837   */\n      dup3\n        /* \"#utility.yul\":23809:23838   */\n      tag_467\n      jump\t// in\n    tag_614:\n        /* \"#utility.yul\":23801:23838   */\n      swap1\n      pop\n        /* \"#utility.yul\":23893:23897   */\n      0x20\n        /* \"#utility.yul\":23887:23891   */\n      dup2\n        /* \"#utility.yul\":23883:23898   */\n      add\n        /* \"#utility.yul\":23875:23898   */\n      swap1\n      pop\n        /* \"#utility.yul\":23597:23905   */\n      swap2\n      swap1\n      pop\n      jump\t// out\n        /* \"#utility.yul\":23911:24010   */\n    tag_461:\n        /* \"#utility.yul\":23963:23969   */\n      0x00\n        /* \"#utility.yul\":23997:24002   */\n      dup2\n        /* \"#utility.yul\":23991:24003   */\n      mload\n        /* \"#utility.yul\":23981:24003   */\n      swap1\n      pop\n        /* \"#utility.yul\":23911:24010   */\n      swap2\n      swap1\n      pop\n      jump\t// out\n        /* \"#utility.yul\":24016:24185   */\n    tag_463:\n        /* \"#utility.yul\":24100:24111   */\n      0x00\n        /* \"#utility.yul\":24134:24140   */\n      dup3\n        /* \"#utility.yul\":24129:24132   */\n      dup3\n        /* \"#utility.yul\":24122:24141   */\n      mstore\n        /* \"#utility.yul\":24174:24178   */\n      0x20\n        /* \"#utility.yul\":24169:24172   */\n      dup3\n        /* \"#utility.yul\":24165:24179   */\n      add\n        /* \"#utility.yul\":24150:24179   */\n      swap1\n      pop\n        /* \"#utility.yul\":24016:24185   */\n      swap3\n      swap2\n      pop\n      pop\n      jump\t// out\n        /* \"#utility.yul\":24191:24339   */\n    tag_472:\n        /* \"#utility.yul\":24293:24304   */\n      0x00\n        /* \"#utility.yul\":24330:24333   */\n      dup2\n        /* \"#utility.yul\":24315:24333   */\n      swap1\n      pop\n        /* \"#utility.yul\":24191:24339   */\n      swap3\n      swap2\n      pop\n      pop\n      jump\t// out\n        /* \"#utility.yul\":24345:24650   */\n    tag_208:\n        /* \"#utility.yul\":24385:24388   */\n      0x00\n        /* \"#utility.yul\":24404:24424   */\n      tag_619\n        /* \"#utility.yul\":24422:24423   */\n      dup3\n        /* \"#utility.yul\":24404:24424   */\n      tag_547\n      jump\t// in\n    tag_619:\n        /* \"#utility.yul\":24399:24424   */\n      swap2\n      pop\n        /* \"#utility.yul\":24438:24458   */\n      tag_620\n        /* \"#utility.yul\":24456:24457   */\n      dup4\n        /* \"#utility.yul\":24438:24458   */\n      tag_547\n      jump\t// in\n    tag_620:\n        /* \"#utility.yul\":24433:24458   */\n      swap3\n      pop\n        /* \"#utility.yul\":24592:24593   */\n      dup3\n        /* \"#utility.yul\":24524:24590   */\n      0xffffffffffffffffffffffffffffffffffffffffffffffffffffffffffffffff\n        /* \"#utility.yul\":24520:24594   */\n      sub\n        /* \"#utility.yul\":24517:24518   */\n      dup3\n        /* \"#utility.yul\":24514:24595   */\n      gt\n        /* \"#utility.yul\":24511:24618   */\n      iszero\n      tag_621\n      jumpi\n        /* \"#utility.yul\":24598:24616   */\n      tag_622\n      tag_623\n      jump\t// in\n    tag_622:\n        /* \"#utility.yul\":24511:24618   */\n    tag_621:\n        /* \"#utility.yul\":24642:24643   */\n      dup3\n        /* \"#utility.yul\":24639:24640   */\n      dup3\n        /* \"#utility.yul\":24635:24644   */\n      add\n        /* \"#utility.yul\":24628:24644   */\n      swap1\n      pop\n        /* \"#utility.yul\":24345:24650   */\n      swap3\n      swap2\n      pop\n      pop\n      jump\t// out\n        /* \"#utility.yul\":24656:24841   */\n    tag_213:\n        /* \"#utility.yul\":24696:24697   */\n      0x00\n        /* \"#utility.yul\":24713:24733   */\n      tag_625\n        /* \"#utility.yul\":24731:24732   */\n      dup3\n        /* \"#utility.yul\":24713:24733   */\n      tag_547\n      jump\t// in\n    tag_625:\n        /* \"#utility.yul\":24708:24733   */\n      swap2\n      pop\n        /* \"#utility.yul\":24747:24767   */\n      tag_626\n        /* \"#utility.yul\":24765:24766   */\n      dup4\n        /* \"#utility.yul\":24747:24767   */\n      tag_547\n      jump\t// in\n    tag_626:\n        /* \"#utility.yul\":24742:24767   */\n      swap3\n      pop\n        /* \"#utility.yul\":24786:24787   */\n      dup3\n        /* \"#utility.yul\":24776:24811   */\n      tag_627\n      jumpi\n        /* \"#utility.yul\":24791:24809   */\n      tag_628\n      tag_629\n      jump\t// in\n    tag_628:\n        /* \"#utility.yul\":24776:24811   */\n    tag_627:\n        /* \"#utility.yul\":24833:24834   */\n      dup3\n        /* \"#utility.yul\":24830:24831   */\n      dup3\n        /* \"#utility.yul\":24826:24835   */\n      div\n        /* \"#utility.yul\":24821:24835   */\n      swap1\n      pop\n        /* \"#utility.yul\":24656:24841   */\n      swap3\n      swap2\n      pop\n      pop\n      jump\t// out\n        /* \"#utility.yul\":24847:25195   */\n    tag_151:\n        /* \"#utility.yul\":24887:24894   */\n      0x00\n        /* \"#utility.yul\":24910:24930   */\n      tag_631\n        /* \"#utility.yul\":24928:24929   */\n      dup3\n        /* \"#utility.yul\":24910:24930   */\n      tag_547\n      jump\t// in\n    tag_631:\n        /* \"#utility.yul\":24905:24930   */\n      swap2\n      pop\n        /* \"#utility.yul\":24944:24964   */\n      tag_632\n        /* \"#utility.yul\":24962:24963   */\n      dup4\n        /* \"#utility.yul\":24944:24964   */\n      tag_547\n      jump\t// in\n    tag_632:\n        /* \"#utility.yul\":24939:24964   */\n      swap3\n      pop\n        /* \"#utility.yul\":25132:25133   */\n      dup2\n        /* \"#utility.yul\":25064:25130   */\n      0xffffffffffffffffffffffffffffffffffffffffffffffffffffffffffffffff\n        /* \"#utility.yul\":25060:25134   */\n      div\n        /* \"#utility.yul\":25057:25058   */\n      dup4\n        /* \"#utility.yul\":25054:25135   */\n      gt\n        /* \"#utility.yul\":25049:25050   */\n      dup3\n        /* \"#utility.yul\":25042:25051   */\n      iszero\n        /* \"#utility.yul\":25035:25052   */\n      iszero\n        /* \"#utility.yul\":25031:25136   */\n      and\n        /* \"#utility.yul\":25028:25159   */\n      iszero\n      tag_633\n      jumpi\n        /* \"#utility.yul\":25139:25157   */\n      tag_634\n      tag_623\n      jump\t// in\n    tag_634:\n        /* \"#utility.yul\":25028:25159   */\n    tag_633:\n        /* \"#utility.yul\":25187:25188   */\n      dup3\n        /* \"#utility.yul\":25184:25185   */\n      dup3\n        /* \"#utility.yul\":25180:25189   */\n      mul\n        /* \"#utility.yul\":25169:25189   */\n      swap1\n      pop\n        /* \"#utility.yul\":24847:25195   */\n      swap3\n      swap2\n      pop\n      pop\n      jump\t// out\n        /* \"#utility.yul\":25201:25386   */\n    tag_167:\n        /* \"#utility.yul\":25239:25243   */\n      0x00\n        /* \"#utility.yul\":25259:25277   */\n      tag_636\n        /* \"#utility.yul\":25275:25276   */\n      dup3\n        /* \"#utility.yul\":25259:25277   */\n      tag_551\n      jump\t// in\n    tag_636:\n        /* \"#utility.yul\":25254:25277   */\n      swap2\n      pop\n        /* \"#utility.yul\":25291:25309   */\n      tag_637\n        /* \"#utility.yul\":25307:25308   */\n      dup4\n        /* \"#utility.yul\":25291:25309   */\n      tag_551\n      jump\t// in\n    tag_637:\n        /* \"#utility.yul\":25286:25309   */\n      swap3\n      pop\n        /* \"#utility.yul\":25328:25329   */\n      dup3\n        /* \"#utility.yul\":25325:25326   */\n      dup3\n        /* \"#utility.yul\":25322:25330   */\n      lt\n        /* \"#utility.yul\":25319:25353   */\n      iszero\n      tag_638\n      jumpi\n        /* \"#utility.yul\":25333:25351   */\n      tag_639\n      tag_623\n      jump\t// in\n    tag_639:\n        /* \"#utility.yul\":25319:25353   */\n    tag_638:\n        /* \"#utility.yul\":25378:25379   */\n      dup3\n        /* \"#utility.yul\":25375:25376   */\n      dup3\n        /* \"#utility.yul\":25371:25380   */\n      sub\n        /* \"#utility.yul\":25363:25380   */\n      swap1\n      pop\n        /* \"#utility.yul\":25201:25386   */\n      swap3\n      swap2\n      pop\n      pop\n      jump\t// out\n        /* \"#utility.yul\":25392:25488   */\n    tag_449:\n        /* \"#utility.yul\":25429:25436   */\n      0x00\n        /* \"#utility.yul\":25458:25482   */\n      tag_641\n        /* \"#utility.yul\":25476:25481   */\n      dup3\n        /* \"#utility.yul\":25458:25482   */\n      tag_642\n      jump\t// in\n    tag_641:\n        /* \"#utility.yul\":25447:25482   */\n      swap1\n      pop\n        /* \"#utility.yul\":25392:25488   */\n      swap2\n      swap1\n      pop\n      jump\t// out\n        /* \"#utility.yul\":25494:25598   */\n    tag_445:\n        /* \"#utility.yul\":25539:25546   */\n      0x00\n        /* \"#utility.yul\":25568:25592   */\n      tag_644\n        /* \"#utility.yul\":25586:25591   */\n      dup3\n        /* \"#utility.yul\":25568:25592   */\n      tag_642\n      jump\t// in\n    tag_644:\n        /* \"#utility.yul\":25557:25592   */\n      swap1\n      pop\n        /* \"#utility.yul\":25494:25598   */\n      swap2\n      swap1\n      pop\n      jump\t// out\n        /* \"#utility.yul\":25604:25694   */\n    tag_453:\n        /* \"#utility.yul\":25638:25645   */\n      0x00\n        /* \"#utility.yul\":25681:25686   */\n      dup2\n        /* \"#utility.yul\":25674:25687   */\n      iszero\n        /* \"#utility.yul\":25667:25688   */\n      iszero\n        /* \"#utility.yul\":25656:25688   */\n      swap1\n      pop\n        /* \"#utility.yul\":25604:25694   */\n      swap2\n      swap1\n      pop\n      jump\t// out\n        /* \"#utility.yul\":25700:25777   */\n    tag_457:\n        /* \"#utility.yul\":25737:25744   */\n      0x00\n        /* \"#utility.yul\":25766:25771   */\n      dup2\n        /* \"#utility.yul\":25755:25771   */\n      swap1\n      pop\n        /* \"#utility.yul\":25700:25777   */\n      swap2\n      swap1\n      pop\n      jump\t// out\n        /* \"#utility.yul\":25783:25932   */\n    tag_647:\n        /* \"#utility.yul\":25819:25826   */\n      0x00\n        /* \"#utility.yul\":25859:25925   */\n      0xffffffff00000000000000000000000000000000000000000000000000000000\n        /* \"#utility.yul\":25852:25857   */\n      dup3\n        /* \"#utility.yul\":25848:25926   */\n      and\n        /* \"#utility.yul\":25837:25926   */\n      swap1\n      pop\n        /* \"#utility.yul\":25783:25932   */\n      swap2\n      swap1\n      pop\n      jump\t// out\n        /* \"#utility.yul\":25938:26064   */\n    tag_642:\n        /* \"#utility.yul\":25975:25982   */\n      0x00\n        /* \"#utility.yul\":26015:26057   */\n      0xffffffffffffffffffffffffffffffffffffffff\n        /* \"#utility.yul\":26008:26013   */\n      dup3\n        /* \"#utility.yul\":26004:26058   */\n      and\n        /* \"#utility.yul\":25993:26058   */\n      swap1\n      pop\n        /* \"#utility.yul\":25938:26064   */\n      swap2\n      swap1\n      pop\n      jump\t// out\n        /* \"#utility.yul\":26070:26147   */\n    tag_547:\n        /* \"#utility.yul\":26107:26114   */\n      0x00\n        /* \"#utility.yul\":26136:26141   */\n      dup2\n        /* \"#utility.yul\":26125:26141   */\n      swap1\n      pop\n        /* \"#utility.yul\":26070:26147   */\n      swap2\n      swap1\n      pop\n      jump\t// out\n        /* \"#utility.yul\":26153:26239   */\n    tag_551:\n        /* \"#utility.yul\":26188:26195   */\n      0x00\n        /* \"#utility.yul\":26228:26232   */\n      0xff\n        /* \"#utility.yul\":26221:26226   */\n      dup3\n        /* \"#utility.yul\":26217:26233   */\n      and\n        /* \"#utility.yul\":26206:26233   */\n      swap1\n      pop\n        /* \"#utility.yul\":26153:26239   */\n      swap2\n      swap1\n      pop\n      jump\t// out\n        /* \"#utility.yul\":26245:26379   */\n    tag_441:\n        /* \"#utility.yul\":26303:26312   */\n      0x00\n        /* \"#utility.yul\":26336:26373   */\n      tag_653\n        /* \"#utility.yul\":26367:26372   */\n      dup3\n        /* \"#utility.yul\":26336:26373   */\n      tag_654\n      jump\t// in\n    tag_653:\n        /* \"#utility.yul\":26323:26373   */\n      swap1\n      pop\n        /* \"#utility.yul\":26245:26379   */\n      swap2\n      swap1\n      pop\n      jump\t// out\n        /* \"#utility.yul\":26385:26511   */\n    tag_654:\n        /* \"#utility.yul\":26435:26444   */\n      0x00\n        /* \"#utility.yul\":26468:26505   */\n      tag_656\n        /* \"#utility.yul\":26499:26504   */\n      dup3\n        /* \"#utility.yul\":26468:26505   */\n      tag_657\n      jump\t// in\n    tag_656:\n        /* \"#utility.yul\":26455:26505   */\n      swap1\n      pop\n        /* \"#utility.yul\":26385:26511   */\n      swap2\n      swap1\n      pop\n      jump\t// out\n        /* \"#utility.yul\":26517:26630   */\n    tag_657:\n        /* \"#utility.yul\":26567:26576   */\n      0x00\n        /* \"#utility.yul\":26600:26624   */\n      tag_659\n        /* \"#utility.yul\":26618:26623   */\n      dup3\n        /* \"#utility.yul\":26600:26624   */\n      tag_642\n      jump\t// in\n    tag_659:\n        /* \"#utility.yul\":26587:26624   */\n      swap1\n      pop\n        /* \"#utility.yul\":26517:26630   */\n      swap2\n      swap1\n      pop\n      jump\t// out\n        /* \"#utility.yul\":26636:26790   */\n    tag_346:\n        /* \"#utility.yul\":26720:26726   */\n      dup3\n        /* \"#utility.yul\":26715:26718   */\n      dup2\n        /* \"#utility.yul\":26710:26713   */\n      dup4\n        /* \"#utility.yul\":26697:26727   */\n      calldatacopy\n        /* \"#utility.yul\":26782:26783   */\n      0x00\n        /* \"#utility.yul\":26773:26779   */\n      dup4\n        /* \"#utility.yul\":26768:26771   */\n      dup4\n        /* \"#utility.yul\":26764:26780   */\n      add\n        /* \"#utility.yul\":26757:26784   */\n      mstore\n        /* \"#utility.yul\":26636:26790   */\n      pop\n      pop\n      pop\n      jump\t// out\n        /* \"#utility.yul\":26796:27103   */\n    tag_465:\n        /* \"#utility.yul\":26864:26865   */\n      0x00\n        /* \"#utility.yul\":26874:26987   */\n    tag_662:\n        /* \"#utility.yul\":26888:26894   */\n      dup4\n        /* \"#utility.yul\":26885:26886   */\n      dup2\n        /* \"#utility.yul\":26882:26895   */\n      lt\n        /* \"#utility.yul\":26874:26987   */\n      iszero\n      tag_664\n      jumpi\n        /* \"#utility.yul\":26973:26974   */\n      dup1\n        /* \"#utility.yul\":26968:26971   */\n      dup3\n        /* \"#utility.yul\":26964:26975   */\n      add\n        /* \"#utility.yul\":26958:26976   */\n      mload\n        /* \"#utility.yul\":26954:26955   */\n      dup2\n        /* \"#utility.yul\":26949:26952   */\n      dup5\n        /* \"#utility.yul\":26945:26956   */\n      add\n        /* \"#utility.yul\":26938:26977   */\n      mstore\n        /* \"#utility.yul\":26910:26912   */\n      0x20\n        /* \"#utility.yul\":26907:26908   */\n      dup2\n        /* \"#utility.yul\":26903:26913   */\n      add\n        /* \"#utility.yul\":26898:26913   */\n      swap1\n      pop\n        /* \"#utility.yul\":26874:26987   */\n      jump(tag_662)\n    tag_664:\n        /* \"#utility.yul\":27005:27011   */\n      dup4\n        /* \"#utility.yul\":27002:27003   */\n      dup2\n        /* \"#utility.yul\":26999:27012   */\n      gt\n        /* \"#utility.yul\":26996:27097   */\n      iszero\n      tag_665\n      jumpi\n        /* \"#utility.yul\":27085:27086   */\n      0x00\n        /* \"#utility.yul\":27076:27082   */\n      dup5\n        /* \"#utility.yul\":27071:27074   */\n      dup5\n        /* \"#utility.yul\":27067:27083   */\n      add\n        /* \"#utility.yul\":27060:27087   */\n      mstore\n        /* \"#utility.yul\":26996:27097   */\n    tag_665:\n        /* \"#utility.yul\":26845:27103   */\n      pop\n        /* \"#utility.yul\":26796:27103   */\n      pop\n      pop\n      pop\n      jump\t// out\n        /* \"#utility.yul\":27109:27280   */\n    tag_321:\n        /* \"#utility.yul\":27148:27151   */\n      0x00\n        /* \"#utility.yul\":27171:27195   */\n      tag_667\n        /* \"#utility.yul\":27189:27194   */\n      dup3\n        /* \"#utility.yul\":27171:27195   */\n      tag_547\n      jump\t// in\n    tag_667:\n        /* \"#utility.yul\":27162:27195   */\n      swap2\n      pop\n        /* \"#utility.yul\":27217:27221   */\n      0x00\n        /* \"#utility.yul\":27210:27215   */\n      dup3\n        /* \"#utility.yul\":27207:27222   */\n      eq\n        /* \"#utility.yul\":27204:27245   */\n      iszero\n      tag_668\n      jumpi\n        /* \"#utility.yul\":27225:27243   */\n      tag_669\n      tag_623\n      jump\t// in\n    tag_669:\n        /* \"#utility.yul\":27204:27245   */\n    tag_668:\n        /* \"#utility.yul\":27272:27273   */\n      0x01\n        /* \"#utility.yul\":27265:27270   */\n      dup3\n        /* \"#utility.yul\":27261:27274   */\n      sub\n        /* \"#utility.yul\":27254:27274   */\n      swap1\n      pop\n        /* \"#utility.yul\":27109:27280   */\n      swap2\n      swap1\n      pop\n      jump\t// out\n        /* \"#utility.yul\":27286:27606   */\n    tag_216:\n        /* \"#utility.yul\":27330:27336   */\n      0x00\n        /* \"#utility.yul\":27367:27368   */\n      0x02\n        /* \"#utility.yul\":27361:27365   */\n      dup3\n        /* \"#utility.yul\":27357:27369   */\n      div\n        /* \"#utility.yul\":27347:27369   */\n      swap1\n      pop\n        /* \"#utility.yul\":27414:27415   */\n      0x01\n        /* \"#utility.yul\":27408:27412   */\n      dup3\n        /* \"#utility.yul\":27404:27416   */\n      and\n        /* \"#utility.yul\":27435:27453   */\n      dup1\n        /* \"#utility.yul\":27425:27506   */\n      tag_671\n      jumpi\n        /* \"#utility.yul\":27491:27495   */\n      0x7f\n        /* \"#utility.yul\":27483:27489   */\n      dup3\n        /* \"#utility.yul\":27479:27496   */\n      and\n        /* \"#utility.yul\":27469:27496   */\n      swap2\n      pop\n        /* \"#utility.yul\":27425:27506   */\n    tag_671:\n        /* \"#utility.yul\":27553:27555   */\n      0x20\n        /* \"#utility.yul\":27545:27551   */\n      dup3\n        /* \"#utility.yul\":27542:27556   */\n      lt\n        /* \"#utility.yul\":27522:27540   */\n      dup2\n        /* \"#utility.yul\":27519:27557   */\n      eq\n        /* \"#utility.yul\":27516:27600   */\n      iszero\n      tag_672\n      jumpi\n        /* \"#utility.yul\":27572:27590   */\n      tag_673\n      tag_674\n      jump\t// in\n    tag_673:\n        /* \"#utility.yul\":27516:27600   */\n    tag_672:\n        /* \"#utility.yul\":27337:27606   */\n      pop\n        /* \"#utility.yul\":27286:27606   */\n      swap2\n      swap1\n      pop\n      jump\t// out\n        /* \"#utility.yul\":27612:27893   */\n    tag_609:\n        /* \"#utility.yul\":27695:27722   */\n      tag_676\n        /* \"#utility.yul\":27717:27721   */\n      dup3\n        /* \"#utility.yul\":27695:27722   */\n      tag_467\n      jump\t// in\n    tag_676:\n        /* \"#utility.yul\":27687:27693   */\n      dup2\n        /* \"#utility.yul\":27683:27723   */\n      add\n        /* \"#utility.yul\":27825:27831   */\n      dup2\n        /* \"#utility.yul\":27813:27823   */\n      dup2\n        /* \"#utility.yul\":27810:27832   */\n      lt\n        /* \"#utility.yul\":27789:27807   */\n      0xffffffffffffffff\n        /* \"#utility.yul\":27777:27787   */\n      dup3\n        /* \"#utility.yul\":27774:27808   */\n      gt\n        /* \"#utility.yul\":27771:27833   */\n      or\n        /* \"#utility.yul\":27768:27856   */\n      iszero\n      tag_677\n      jumpi\n        /* \"#utility.yul\":27836:27854   */\n      tag_678\n      tag_305\n      jump\t// in\n    tag_678:\n        /* \"#utility.yul\":27768:27856   */\n    tag_677:\n        /* \"#utility.yul\":27876:27886   */\n      dup1\n        /* \"#utility.yul\":27872:27874   */\n      0x40\n        /* \"#utility.yul\":27865:27887   */\n      mstore\n        /* \"#utility.yul\":27655:27893   */\n      pop\n        /* \"#utility.yul\":27612:27893   */\n      pop\n      pop\n      jump\t// out\n        /* \"#utility.yul\":27899:28132   */\n    tag_197:\n        /* \"#utility.yul\":27938:27941   */\n      0x00\n        /* \"#utility.yul\":27961:27985   */\n      tag_680\n        /* \"#utility.yul\":27979:27984   */\n      dup3\n        /* \"#utility.yul\":27961:27985   */\n      tag_547\n      jump\t// in\n    tag_680:\n        /* \"#utility.yul\":27952:27985   */\n      swap2\n      pop\n        /* \"#utility.yul\":28007:28073   */\n      0xffffffffffffffffffffffffffffffffffffffffffffffffffffffffffffffff\n        /* \"#utility.yul\":28000:28005   */\n      dup3\n        /* \"#utility.yul\":27997:28074   */\n      eq\n        /* \"#utility.yul\":27994:28097   */\n      iszero\n      tag_681\n      jumpi\n        /* \"#utility.yul\":28077:28095   */\n      tag_682\n      tag_623\n      jump\t// in\n    tag_682:\n        /* \"#utility.yul\":27994:28097   */\n    tag_681:\n        /* \"#utility.yul\":28124:28125   */\n      0x01\n        /* \"#utility.yul\":28117:28122   */\n      dup3\n        /* \"#utility.yul\":28113:28126   */\n      add\n        /* \"#utility.yul\":28106:28126   */\n      swap1\n      pop\n        /* \"#utility.yul\":27899:28132   */\n      swap2\n      swap1\n      pop\n      jump\t// out\n        /* \"#utility.yul\":28138:28318   */\n    tag_623:\n        /* \"#utility.yul\":28186:28263   */\n      0x4e487b7100000000000000000000000000000000000000000000000000000000\n        /* \"#utility.yul\":28183:28184   */\n      0x00\n        /* \"#utility.yul\":28176:28264   */\n      mstore\n        /* \"#utility.yul\":28283:28287   */\n      0x11\n        /* \"#utility.yul\":28280:28281   */\n      0x04\n        /* \"#utility.yul\":28273:28288   */\n      mstore\n        /* \"#utility.yul\":28307:28311   */\n      0x24\n        /* \"#utility.yul\":28304:28305   */\n      0x00\n        /* \"#utility.yul\":28297:28312   */\n      revert\n        /* \"#utility.yul\":28324:28504   */\n    tag_629:\n        /* \"#utility.yul\":28372:28449   */\n      0x4e487b7100000000000000000000000000000000000000000000000000000000\n        /* \"#utility.yul\":28369:28370   */\n      0x00\n        /* \"#utility.yul\":28362:28450   */\n      mstore\n        /* \"#utility.yul\":28469:28473   */\n      0x12\n        /* \"#utility.yul\":28466:28467   */\n      0x04\n        /* \"#utility.yul\":28459:28474   */\n      mstore\n        /* \"#utility.yul\":28493:28497   */\n      0x24\n        /* \"#utility.yul\":28490:28491   */\n      0x00\n        /* \"#utility.yul\":28483:28498   */\n      revert\n        /* \"#utility.yul\":28510:28690   */\n    tag_674:\n        /* \"#utility.yul\":28558:28635   */\n      0x4e487b7100000000000000000000000000000000000000000000000000000000\n        /* \"#utility.yul\":28555:28556   */\n      0x00\n        /* \"#utility.yul\":28548:28636   */\n      mstore\n        /* \"#utility.yul\":28655:28659   */\n      0x22\n        /* \"#utility.yul\":28652:28653   */\n      0x04\n        /* \"#utility.yul\":28645:28660   */\n      mstore\n        /* \"#utility.yul\":28679:28683   */\n      0x24\n        /* \"#utility.yul\":28676:28677   */\n      0x00\n        /* \"#utility.yul\":28669:28684   */\n      revert\n        /* \"#utility.yul\":28696:28876   */\n    tag_204:\n        /* \"#utility.yul\":28744:28821   */\n      0x4e487b7100000000000000000000000000000000000000000000000000000000\n        /* \"#utility.yul\":28741:28742   */\n      0x00\n        /* \"#utility.yul\":28734:28822   */\n      mstore\n        /* \"#utility.yul\":28841:28845   */\n      0x32\n        /* \"#utility.yul\":28838:28839   */\n      0x04\n        /* \"#utility.yul\":28831:28846   */\n      mstore\n        /* \"#utility.yul\":28865:28869   */\n      0x24\n        /* \"#utility.yul\":28862:28863   */\n      0x00\n        /* \"#utility.yul\":28855:28870   */\n      revert\n        /* \"#utility.yul\":28882:29062   */\n    tag_305:\n        /* \"#utility.yul\":28930:29007   */\n      0x4e487b7100000000000000000000000000000000000000000000000000000000\n        /* \"#utility.yul\":28927:28928   */\n      0x00\n        /* \"#utility.yul\":28920:29008   */\n      mstore\n        /* \"#utility.yul\":29027:29031   */\n      0x41\n        /* \"#utility.yul\":29024:29025   */\n      0x04\n        /* \"#utility.yul\":29017:29032   */\n      mstore\n        /* \"#utility.yul\":29051:29055   */\n      0x24\n        /* \"#utility.yul\":29048:29049   */\n      0x00\n        /* \"#utility.yul\":29041:29056   */\n      revert\n        /* \"#utility.yul\":29068:29185   */\n    tag_367:\n        /* \"#utility.yul\":29177:29178   */\n      0x00\n        /* \"#utility.yul\":29174:29175   */\n      dup1\n        /* \"#utility.yul\":29167:29179   */\n      revert\n        /* \"#utility.yul\":29191:29308   */\n    tag_344:\n        /* \"#utility.yul\":29300:29301   */\n      0x00\n        /* \"#utility.yul\":29297:29298   */\n      dup1\n        /* \"#utility.yul\":29290:29302   */\n      revert\n        /* \"#utility.yul\":29314:29431   */\n    tag_396:\n        /* \"#utility.yul\":29423:29424   */\n      0x00\n        /* \"#utility.yul\":29420:29421   */\n      dup1\n        /* \"#utility.yul\":29413:29425   */\n      revert\n        /* \"#utility.yul\":29437:29554   */\n    tag_380:\n        /* \"#utility.yul\":29546:29547   */\n      0x00\n        /* \"#utility.yul\":29543:29544   */\n      dup1\n        /* \"#utility.yul\":29536:29548   */\n      revert\n        /* \"#utility.yul\":29560:29662   */\n    tag_467:\n        /* \"#utility.yul\":29601:29607   */\n      0x00\n        /* \"#utility.yul\":29652:29654   */\n      0x1f\n        /* \"#utility.yul\":29648:29655   */\n      not\n        /* \"#utility.yul\":29643:29645   */\n      0x1f\n        /* \"#utility.yul\":29636:29641   */\n      dup4\n        /* \"#utility.yul\":29632:29646   */\n      add\n        /* \"#utility.yul\":29628:29656   */\n      and\n        /* \"#utility.yul\":29618:29656   */\n      swap1\n      pop\n        /* \"#utility.yul\":29560:29662   */\n      swap2\n      swap1\n      pop\n      jump\t// out\n        /* \"#utility.yul\":29668:29849   */\n    tag_478:\n        /* \"#utility.yul\":29808:29841   */\n      0x5175616e74697479206d7573742062652067726561746572207468616e203000\n        /* \"#utility.yul\":29804:29805   */\n      0x00\n        /* \"#utility.yul\":29796:29802   */\n      dup3\n        /* \"#utility.yul\":29792:29806   */\n      add\n        /* \"#utility.yul\":29785:29842   */\n      mstore\n        /* \"#utility.yul\":29668:29849   */\n      pop\n      jump\t// out\n        /* \"#utility.yul\":29855:30103   */\n    tag_483:\n        /* \"#utility.yul\":29995:30029   */\n      0x5175616e74697479206d757374206265206c657373207468616e206f72206571\n        /* \"#utility.yul\":29991:29992   */\n      0x00\n        /* \"#utility.yul\":29983:29989   */\n      dup3\n        /* \"#utility.yul\":29979:29993   */\n      add\n        /* \"#utility.yul\":29972:30030   */\n      mstore\n        /* \"#utility.yul\":30064:30095   */\n      0x75616c20746f2074686520617661696c61626c65207175616e74697479000000\n        /* \"#utility.yul\":30059:30061   */\n      0x20\n        /* \"#utility.yul\":30051:30057   */\n      dup3\n        /* \"#utility.yul\":30047:30062   */\n      add\n        /* \"#utility.yul\":30040:30096   */\n      mstore\n        /* \"#utility.yul\":29855:30103   */\n      pop\n      jump\t// out\n        /* \"#utility.yul\":30109:30291   */\n    tag_488:\n        /* \"#utility.yul\":30249:30283   */\n      0x537472696e67733a20686578206c656e67746820696e73756666696369656e74\n        /* \"#utility.yul\":30245:30246   */\n      0x00\n        /* \"#utility.yul\":30237:30243   */\n      dup3\n        /* \"#utility.yul\":30233:30247   */\n      add\n        /* \"#utility.yul\":30226:30284   */\n      mstore\n        /* \"#utility.yul\":30109:30291   */\n      pop\n      jump\t// out\n        /* \"#utility.yul\":30297:30467   */\n    tag_493:\n        /* \"#utility.yul\":30437:30459   */\n      0x507269636520646f6573206e6f74206d61746368000000000000000000000000\n        /* \"#utility.yul\":30433:30434   */\n      0x00\n        /* \"#utility.yul\":30425:30431   */\n      dup3\n        /* \"#utility.yul\":30421:30435   */\n      add\n        /* \"#utility.yul\":30414:30460   */\n      mstore\n        /* \"#utility.yul\":30297:30467   */\n      pop\n      jump\t// out\n        /* \"#utility.yul\":30473:30704   */\n    tag_498:\n        /* \"#utility.yul\":30613:30647   */\n      0x4f6e6c792070726f647563742073656c6c65722063616e206578656375746520\n        /* \"#utility.yul\":30609:30610   */\n      0x00\n        /* \"#utility.yul\":30601:30607   */\n      dup3\n        /* \"#utility.yul\":30597:30611   */\n      add\n        /* \"#utility.yul\":30590:30648   */\n      mstore\n        /* \"#utility.yul\":30682:30696   */\n      0x7468697320616374696f6e2e0000000000000000000000000000000000000000\n        /* \"#utility.yul\":30677:30679   */\n      0x20\n        /* \"#utility.yul\":30669:30675   */\n      dup3\n        /* \"#utility.yul\":30665:30680   */\n      add\n        /* \"#utility.yul\":30658:30697   */\n      mstore\n        /* \"#utility.yul\":30473:30704   */\n      pop\n      jump\t// out\n        /* \"#utility.yul\":30710:30885   */\n    tag_503:\n        /* \"#utility.yul\":30850:30877   */\n      0x4d61726b6574206974656d206973206e6f742061637469766500000000000000\n        /* \"#utility.yul\":30846:30847   */\n      0x00\n        /* \"#utility.yul\":30838:30844   */\n      dup3\n        /* \"#utility.yul\":30834:30848   */\n      add\n        /* \"#utility.yul\":30827:30878   */\n      mstore\n        /* \"#utility.yul\":30710:30885   */\n      pop\n      jump\t// out\n        /* \"#utility.yul\":30891:31111   */\n    tag_508:\n        /* \"#utility.yul\":31031:31065   */\n      0x596f752063616e6e6f7420766f746520666f7220746869732070726f64756374\n        /* \"#utility.yul\":31027:31028   */\n      0x00\n        /* \"#utility.yul\":31019:31025   */\n      dup3\n        /* \"#utility.yul\":31015:31029   */\n      add\n        /* \"#utility.yul\":31008:31066   */\n      mstore\n        /* \"#utility.yul\":31100:31103   */\n      0x2e00000000000000000000000000000000000000000000000000000000000000\n        /* \"#utility.yul\":31095:31097   */\n      0x20\n        /* \"#utility.yul\":31087:31093   */\n      dup3\n        /* \"#utility.yul\":31083:31098   */\n      add\n        /* \"#utility.yul\":31076:31104   */\n      mstore\n        /* \"#utility.yul\":30891:31111   */\n      pop\n      jump\t// out\n        /* \"#utility.yul\":31117:31344   */\n    tag_513:\n        /* \"#utility.yul\":31257:31291   */\n      0x5374617273206d7573742062652067726561746572207468616e206f72206571\n        /* \"#utility.yul\":31253:31254   */\n      0x00\n        /* \"#utility.yul\":31245:31251   */\n      dup3\n        /* \"#utility.yul\":31241:31255   */\n      add\n        /* \"#utility.yul\":31234:31292   */\n      mstore\n        /* \"#utility.yul\":31326:31336   */\n      0x75616c20746f2031000000000000000000000000000000000000000000000000\n        /* \"#utility.yul\":31321:31323   */\n      0x20\n        /* \"#utility.yul\":31313:31319   */\n      dup3\n        /* \"#utility.yul\":31309:31324   */\n      add\n        /* \"#utility.yul\":31302:31337   */\n      mstore\n        /* \"#utility.yul\":31117:31344   */\n      pop\n      jump\t// out\n        /* \"#utility.yul\":31350:31522   */\n    tag_518:\n        /* \"#utility.yul\":31490:31514   */\n      0x5468652073656c6c65722063616e6e6f7420766f746500000000000000000000\n        /* \"#utility.yul\":31486:31487   */\n      0x00\n        /* \"#utility.yul\":31478:31484   */\n      dup3\n        /* \"#utility.yul\":31474:31488   */\n      add\n        /* \"#utility.yul\":31467:31515   */\n      mstore\n        /* \"#utility.yul\":31350:31522   */\n      pop\n      jump\t// out\n        /* \"#utility.yul\":31528:31752   */\n    tag_523:\n        /* \"#utility.yul\":31668:31702   */\n      0x5374617273206d757374206265206c657373207468616e206f7220657175616c\n        /* \"#utility.yul\":31664:31665   */\n      0x00\n        /* \"#utility.yul\":31656:31662   */\n      dup3\n        /* \"#utility.yul\":31652:31666   */\n      add\n        /* \"#utility.yul\":31645:31703   */\n      mstore\n        /* \"#utility.yul\":31737:31744   */\n      0x20746f2035000000000000000000000000000000000000000000000000000000\n        /* \"#utility.yul\":31732:31734   */\n      0x20\n        /* \"#utility.yul\":31724:31730   */\n      dup3\n        /* \"#utility.yul\":31720:31735   */\n      add\n        /* \"#utility.yul\":31713:31745   */\n      mstore\n        /* \"#utility.yul\":31528:31752   */\n      pop\n      jump\t// out\n        /* \"#utility.yul\":31758:31931   */\n    tag_528:\n        /* \"#utility.yul\":31898:31923   */\n      0x416363657373436f6e74726f6c3a206163636f756e7420000000000000000000\n        /* \"#utility.yul\":31894:31895   */\n      0x00\n        /* \"#utility.yul\":31886:31892   */\n      dup3\n        /* \"#utility.yul\":31882:31896   */\n      add\n        /* \"#utility.yul\":31875:31924   */\n      mstore\n        /* \"#utility.yul\":31758:31931   */\n      pop\n      jump\t// out\n        /* \"#utility.yul\":31937:32115   */\n    tag_533:\n        /* \"#utility.yul\":32077:32107   */\n      0x5072696365206d7573742062652067726561746572207468616e203000000000\n        /* \"#utility.yul\":32073:32074   */\n      0x00\n        /* \"#utility.yul\":32065:32071   */\n      dup3\n        /* \"#utility.yul\":32061:32075   */\n      add\n        /* \"#utility.yul\":32054:32108   */\n      mstore\n        /* \"#utility.yul\":31937:32115   */\n      pop\n      jump\t// out\n        /* \"#utility.yul\":32121:32288   */\n    tag_538:\n        /* \"#utility.yul\":32261:32280   */\n      0x206973206d697373696e6720726f6c6520000000000000000000000000000000\n        /* \"#utility.yul\":32257:32258   */\n      0x00\n        /* \"#utility.yul\":32249:32255   */\n      dup3\n        /* \"#utility.yul\":32245:32259   */\n      add\n        /* \"#utility.yul\":32238:32281   */\n      mstore\n        /* \"#utility.yul\":32121:32288   */\n      pop\n      jump\t// out\n        /* \"#utility.yul\":32294:32528   */\n    tag_543:\n        /* \"#utility.yul\":32434:32468   */\n      0x416363657373436f6e74726f6c3a2063616e206f6e6c792072656e6f756e6365\n        /* \"#utility.yul\":32430:32431   */\n      0x00\n        /* \"#utility.yul\":32422:32428   */\n      dup3\n        /* \"#utility.yul\":32418:32432   */\n      add\n        /* \"#utility.yul\":32411:32469   */\n      mstore\n        /* \"#utility.yul\":32503:32520   */\n      0x20726f6c657320666f722073656c660000000000000000000000000000000000\n        /* \"#utility.yul\":32498:32500   */\n      0x20\n        /* \"#utility.yul\":32490:32496   */\n      dup3\n        /* \"#utility.yul\":32486:32501   */\n      add\n        /* \"#utility.yul\":32479:32521   */\n      mstore\n        /* \"#utility.yul\":32294:32528   */\n      pop\n      jump\t// out\n        /* \"#utility.yul\":32534:32656   */\n    tag_350:\n        /* \"#utility.yul\":32607:32631   */\n      tag_708\n        /* \"#utility.yul\":32625:32630   */\n      dup2\n        /* \"#utility.yul\":32607:32631   */\n      tag_449\n      jump\t// in\n    tag_708:\n        /* \"#utility.yul\":32600:32605   */\n      dup2\n        /* \"#utility.yul\":32597:32632   */\n      eq\n        /* \"#utility.yul\":32587:32650   */\n      tag_709\n      jumpi\n        /* \"#utility.yul\":32646:32647   */\n      0x00\n        /* \"#utility.yul\":32643:32644   */\n      dup1\n        /* \"#utility.yul\":32636:32648   */\n      revert\n        /* \"#utility.yul\":32587:32650   */\n    tag_709:\n        /* \"#utility.yul\":32534:32656   */\n      pop\n      jump\t// out\n        /* \"#utility.yul\":32662:32778   */\n    tag_354:\n        /* \"#utility.yul\":32732:32753   */\n      tag_711\n        /* \"#utility.yul\":32747:32752   */\n      dup2\n        /* \"#utility.yul\":32732:32753   */\n      tag_453\n      jump\t// in\n    tag_711:\n        /* \"#utility.yul\":32725:32730   */\n      dup2\n        /* \"#utility.yul\":32722:32754   */\n      eq\n        /* \"#utility.yul\":32712:32772   */\n      tag_712\n      jumpi\n        /* \"#utility.yul\":32768:32769   */\n      0x00\n        /* \"#utility.yul\":32765:32766   */\n      dup1\n        /* \"#utility.yul\":32758:32770   */\n      revert\n        /* \"#utility.yul\":32712:32772   */\n    tag_712:\n        /* \"#utility.yul\":32662:32778   */\n      pop\n      jump\t// out\n        /* \"#utility.yul\":32784:32906   */\n    tag_358:\n        /* \"#utility.yul\":32857:32881   */\n      tag_714\n        /* \"#utility.yul\":32875:32880   */\n      dup2\n        /* \"#utility.yul\":32857:32881   */\n      tag_457\n      jump\t// in\n    tag_714:\n        /* \"#utility.yul\":32850:32855   */\n      dup2\n        /* \"#utility.yul\":32847:32882   */\n      eq\n        /* \"#utility.yul\":32837:32900   */\n      tag_715\n      jumpi\n        /* \"#utility.yul\":32896:32897   */\n      0x00\n        /* \"#utility.yul\":32893:32894   */\n      dup1\n        /* \"#utility.yul\":32886:32898   */\n      revert\n        /* \"#utility.yul\":32837:32900   */\n    tag_715:\n        /* \"#utility.yul\":32784:32906   */\n      pop\n      jump\t// out\n        /* \"#utility.yul\":32912:33032   */\n    tag_362:\n        /* \"#utility.yul\":32984:33007   */\n      tag_717\n        /* \"#utility.yul\":33001:33006   */\n      dup2\n        /* \"#utility.yul\":32984:33007   */\n      tag_647\n      jump\t// in\n    tag_717:\n        /* \"#utility.yul\":32977:32982   */\n      dup2\n        /* \"#utility.yul\":32974:33008   */\n      eq\n        /* \"#utility.yul\":32964:33026   */\n      tag_718\n      jumpi\n        /* \"#utility.yul\":33022:33023   */\n      0x00\n        /* \"#utility.yul\":33019:33020   */\n      dup1\n        /* \"#utility.yul\":33012:33024   */\n      revert\n        /* \"#utility.yul\":32964:33026   */\n    tag_718:\n        /* \"#utility.yul\":32912:33032   */\n      pop\n      jump\t// out\n        /* \"#utility.yul\":33038:33160   */\n    tag_372:\n        /* \"#utility.yul\":33111:33135   */\n      tag_720\n        /* \"#utility.yul\":33129:33134   */\n      dup2\n        /* \"#utility.yul\":33111:33135   */\n      tag_547\n      jump\t// in\n    tag_720:\n        /* \"#utility.yul\":33104:33109   */\n      dup2\n        /* \"#utility.yul\":33101:33136   */\n      eq\n        /* \"#utility.yul\":33091:33154   */\n      tag_721\n      jumpi\n        /* \"#utility.yul\":33150:33151   */\n      0x00\n        /* \"#utility.yul\":33147:33148   */\n      dup1\n        /* \"#utility.yul\":33140:33152   */\n      revert\n        /* \"#utility.yul\":33091:33154   */\n    tag_721:\n        /* \"#utility.yul\":33038:33160   */\n      pop\n      jump\t// out\n        /* \"#utility.yul\":33166:33284   */\n    tag_376:\n        /* \"#utility.yul\":33237:33259   */\n      tag_723\n        /* \"#utility.yul\":33253:33258   */\n      dup2\n        /* \"#utility.yul\":33237:33259   */\n      tag_551\n      jump\t// in\n    tag_723:\n        /* \"#utility.yul\":33230:33235   */\n      dup2\n        /* \"#utility.yul\":33227:33260   */\n      eq\n        /* \"#utility.yul\":33217:33278   */\n      tag_724\n      jumpi\n        /* \"#utility.yul\":33274:33275   */\n      0x00\n        /* \"#utility.yul\":33271:33272   */\n      dup1\n        /* \"#utility.yul\":33264:33276   */\n      revert\n        /* \"#utility.yul\":33217:33278   */\n    tag_724:\n        /* \"#utility.yul\":33166:33284   */\n      pop\n      jump\t// out\n\n    auxdata: 0xa2646970667358221220fa8bfa21c575480d374bc182af31df6b617beda6f8f95966492c2fc5147999d264736f6c63430008070033\n}\n",
				"bytecode": {
					"linkReferences": {},
					"object": "608060405260006001553480156200001657600080fd5b50620000497f1f9ca85e780b3b3cfbe1334ca9dd68802db7860f692bd163c796bb76d464edc0336200004f60201b60201c565b620001b2565b6200006182826200014060201b60201c565b6200013c57600160008084815260200190815260200160002060000160008373ffffffffffffffffffffffffffffffffffffffff1673ffffffffffffffffffffffffffffffffffffffff16815260200190815260200160002060006101000a81548160ff021916908315150217905550620000e1620001aa60201b60201c565b73ffffffffffffffffffffffffffffffffffffffff168173ffffffffffffffffffffffffffffffffffffffff16837f2f8788117e7eff1d82e926ec794901d17c78024a50270940304540a733656f0d60405160405180910390a45b5050565b600080600084815260200190815260200160002060000160008373ffffffffffffffffffffffffffffffffffffffff1673ffffffffffffffffffffffffffffffffffffffff16815260200190815260200160002060009054906101000a900460ff16905092915050565b600033905090565b61318680620001c26000396000f3fe60806040526004361061012a5760003560e01c80638f28afee116100ab578063bf9c65541161006f578063bf9c6554146103f7578063c7be7a4914610420578063d547741f14610460578063eca1e6a014610489578063f0d2d06d146104b2578063fec4d15d146104db5761012a565b80638f28afee1461031257806391d148541461033b578063a217fddf14610378578063ae13a317146103a3578063b491efa0146103cc5761012a565b806336568abe116100f257806336568abe146102175780636a8689741461024057806377247d911461026b5780637735904f1461029457806388d9e84c146102d15761012a565b806301ffc9a71461012f5780630c3774fc1461016c5780631dfef0eb14610195578063248a9ca3146101b15780632f2ff15d146101ee575b600080fd5b34801561013b57600080fd5b50610156600480360381019061015191906120a4565b610518565b6040516101639190612632565b60405180910390f35b34801561017857600080fd5b50610193600480360381019061018e91906122fb565b610592565b005b6101af60048036038101906101aa91906122fb565b61077b565b005b3480156101bd57600080fd5b506101d860048036038101906101d39190612037565b610ac4565b6040516101e5919061264d565b60405180910390f35b3480156101fa57600080fd5b5061021560048036038101906102109190612064565b610ae3565b005b34801561022357600080fd5b5061023e60048036038101906102399190612064565b610b0c565b005b34801561024c57600080fd5b50610255610b8f565b60405161026291906128b7565b60405180910390f35b34801561027757600080fd5b50610292600480360381019061028d91906120d1565b610b95565b005b3480156102a057600080fd5b506102bb60048036038101906102b691906121b2565b610d7c565b6040516102c891906128b7565b60405180910390f35b3480156102dd57600080fd5b506102f860048036038101906102f391906121b2565b610f14565b6040516103099594939291906126d6565b60405180910390f35b34801561031e57600080fd5b506103396004803603810190610334919061225f565b6111d8565b005b34801561034757600080fd5b50610362600480360381019061035d9190612064565b6112c8565b60405161036f9190612632565b60405180910390f35b34801561038457600080fd5b5061038d611332565b60405161039a919061264d565b60405180910390f35b3480156103af57600080fd5b506103ca60048036038101906103c591906122bb565b611339565b005b3480156103d857600080fd5b506103e1611419565b6040516103ee919061264d565b60405180910390f35b34801561040357600080fd5b5061041e6004803603810190610419919061221f565b61143d565b005b34801561042c57600080fd5b50610447600480360381019061044291906121b2565b611530565b604051610457949392919061268a565b60405180910390f35b34801561046c57600080fd5b5061048760048036038101906104829190612064565b61165a565b005b34801561049557600080fd5b506104b060048036038101906104ab91906122fb565b611683565b005b3480156104be57600080fd5b506104d960048036038101906104d4919061225f565b611777565b005b3480156104e757600080fd5b5061050260048036038101906104fd91906121df565b611867565b60405161050f9190612632565b60405180910390f35b60007f7965db0b000000000000000000000000000000000000000000000000000000007bffffffffffffffffffffffffffffffffffffffffffffffffffffffff1916827bffffffffffffffffffffffffffffffffffffffffffffffffffffffff1916148061058b575061058a82611912565b5b9050919050565b6003600083815260200190815260200160002060040160009054906101000a900473ffffffffffffffffffffffffffffffffffffffff1673ffffffffffffffffffffffffffffffffffffffff163373ffffffffffffffffffffffffffffffffffffffff161415610637576040517f08c379a000000000000000000000000000000000000000000000000000000000815260040161062e90612837565b60405180910390fd5b60058160ff16111561067e576040517f08c379a000000000000000000000000000000000000000000000000000000000815260040161067590612857565b60405180910390fd5b60018160ff1610156106c5576040517f08c379a00000000000000000000000000000000000000000000000000000000081526004016106bc90612817565b60405180910390fd5b6106cf8233611867565b61070e576040517f08c379a0000000000000000000000000000000000000000000000000000000008152600401610705906127f7565b60405180910390fd5b80600460003373ffffffffffffffffffffffffffffffffffffffff1673ffffffffffffffffffffffffffffffffffffffff168152602001908152602001600020600084815260200190815260200160002060006101000a81548160ff021916908360ff1602179055505050565b60008160ff1660036000858152602001908152602001600020600301546107a29190612a1b565b90503481146107e6576040517f08c379a00000000000000000000000000000000000000000000000000000000081526004016107dd90612797565b60405180910390fd5b60008260ff161161082c576040517f08c379a000000000000000000000000000000000000000000000000000000000815260040161082390612737565b60405180910390fd5b6003600084815260200190815260200160002060060160009054906101000a900460ff1660ff168260ff161115610898576040517f08c379a000000000000000000000000000000000000000000000000000000000815260040161088f90612757565b60405180910390fd5b6003600084815260200190815260200160002060090160009054906101000a900460ff166108fb576040517f08c379a00000000000000000000000000000000000000000000000000000000081526004016108f2906127d7565b60405180910390fd5b6003600084815260200190815260200160002060040160009054906101000a900473ffffffffffffffffffffffffffffffffffffffff1673ffffffffffffffffffffffffffffffffffffffff166108fc349081150290604051600060405180830381858888f19350505050158015610977573d6000803e3d6000fd5b50816003600085815260200190815260200160002060060160008282829054906101000a900460ff166109aa9190612a75565b92506101000a81548160ff021916908360ff16021790555060026000848152602001908152602001600020339080600181540180825580915050600190039060005260206000200160009091909190916101000a81548173ffffffffffffffffffffffffffffffffffffffff021916908373ffffffffffffffffffffffffffffffffffffffff1602179055507ff2f622c4ee3232d0d08c3870751d38ddef2eaf0e7e0c5d38239c7dc8921ca6808360036000868152602001908152602001600020600301546003600087815260200190815260200160002060040160009054906101000a900473ffffffffffffffffffffffffffffffffffffffff1633604051610ab794939291906128d2565b60405180910390a1505050565b6000806000838152602001908152602001600020600101549050919050565b610aec82610ac4565b610afd81610af861197c565b611984565b610b078383611a21565b505050565b610b1461197c565b73ffffffffffffffffffffffffffffffffffffffff168173ffffffffffffffffffffffffffffffffffffffff1614610b81576040517f08c379a0000000000000000000000000000000000000000000000000000000008152600401610b7890612897565b60405180910390fd5b610b8b8282611b01565b5050565b60015481565b60008411610bd8576040517f08c379a0000000000000000000000000000000000000000000000000000000008152600401610bcf90612877565b60405180910390fd5b60405180610140016040528060015481526020018781526020018681526020018581526020013373ffffffffffffffffffffffffffffffffffffffff1681526020018481526020018360ff168152602001428152602001428152602001821515815250600360006001548152602001908152602001600020600082015181600001556020820151816001019080519060200190610c76929190611ea6565b506040820151816002019080519060200190610c93929190611ea6565b506060820151816003015560808201518160040160006101000a81548173ffffffffffffffffffffffffffffffffffffffff021916908373ffffffffffffffffffffffffffffffffffffffff16021790555060a0820151816005019080519060200190610d01929190611ea6565b5060c08201518160060160006101000a81548160ff021916908360ff16021790555060e0820151816007015561010082015181600801556101208201518160090160006101000a81548160ff02191690831515021790555090505060016000815480929190610d6f90612c4b565b9190505550505050505050565b600080600090506000805b6002600086815260200190815260200160002080549050811015610ef2576000600260008781526020019081526020016000208281548110610dcc57610dcb612d21565b5b9060005260206000200160009054906101000a900473ffffffffffffffffffffffffffffffffffffffff1690506000600460008373ffffffffffffffffffffffffffffffffffffffff1673ffffffffffffffffffffffffffffffffffffffff168152602001908152602001600020600088815260200190815260200160002060009054906101000a900460ff1660ff1614610ede57600460008273ffffffffffffffffffffffffffffffffffffffff1673ffffffffffffffffffffffffffffffffffffffff168152602001908152602001600020600087815260200190815260200160002060009054906101000a900460ff1660ff1684610ecd9190612994565b93508280610eda90612c4b565b9350505b508080610eea90612c4b565b915050610d87565b5080606483610f019190612a1b565b610f0b91906129ea565b92505050919050565b606080600080600080600360008881526020019081526020016000206040518061014001604052908160008201548152602001600182018054610f5690612be8565b80601f0160208091040260200160405190810160405280929190818152602001828054610f8290612be8565b8015610fcf5780601f10610fa457610100808354040283529160200191610fcf565b820191906000526020600020905b815481529060010190602001808311610fb257829003601f168201915b50505050508152602001600282018054610fe890612be8565b80601f016020809104026020016040519081016040528092919081815260200182805461101490612be8565b80156110615780601f1061103657610100808354040283529160200191611061565b820191906000526020600020905b81548152906001019060200180831161104457829003601f168201915b50505050508152602001600382015481526020016004820160009054906101000a900473ffffffffffffffffffffffffffffffffffffffff1673ffffffffffffffffffffffffffffffffffffffff1673ffffffffffffffffffffffffffffffffffffffff1681526020016005820180546110da90612be8565b80601f016020809104026020016040519081016040528092919081815260200182805461110690612be8565b80156111535780601f1061112857610100808354040283529160200191611153565b820191906000526020600020905b81548152906001019060200180831161113657829003601f168201915b505050505081526020016006820160009054906101000a900460ff1660ff1660ff16815260200160078201548152602001600882015481526020016009820160009054906101000a900460ff161515151581525050905080604001518160a001518260c001518360e00151846101000151955095509550955095505091939590929450565b816003600082815260200190815260200160002060040160009054906101000a900473ffffffffffffffffffffffffffffffffffffffff1673ffffffffffffffffffffffffffffffffffffffff163373ffffffffffffffffffffffffffffffffffffffff161461127d576040517f08c379a0000000000000000000000000000000000000000000000000000000008152600401611274906127b7565b60405180910390fd5b816003600085815260200190815260200160002060020190805190602001906112a7929190611ea6565b50426003600085815260200190815260200160002060080181905550505050565b600080600084815260200190815260200160002060000160008373ffffffffffffffffffffffffffffffffffffffff1673ffffffffffffffffffffffffffffffffffffffff16815260200190815260200160002060009054906101000a900460ff16905092915050565b6000801b81565b816003600082815260200190815260200160002060040160009054906101000a900473ffffffffffffffffffffffffffffffffffffffff1673ffffffffffffffffffffffffffffffffffffffff163373ffffffffffffffffffffffffffffffffffffffff16146113de576040517f08c379a00000000000000000000000000000000000000000000000000000000081526004016113d5906127b7565b60405180910390fd5b816003600085815260200190815260200160002060030181905550426003600085815260200190815260200160002060080181905550505050565b7f1f9ca85e780b3b3cfbe1334ca9dd68802db7860f692bd163c796bb76d464edc081565b816003600082815260200190815260200160002060040160009054906101000a900473ffffffffffffffffffffffffffffffffffffffff1673ffffffffffffffffffffffffffffffffffffffff163373ffffffffffffffffffffffffffffffffffffffff16146114e2576040517f08c379a00000000000000000000000000000000000000000000000000000000081526004016114d9906127b7565b60405180910390fd5b816003600085815260200190815260200160002060090160006101000a81548160ff021916908315150217905550426003600085815260200190815260200160002060080181905550505050565b60606000806000600360008681526020019081526020016000206001016003600087815260200190815260200160002060040160009054906101000a900473ffffffffffffffffffffffffffffffffffffffff1660036000888152602001908152602001600020600301546003600089815260200190815260200160002060090160009054906101000a900460ff168380546115cb90612be8565b80601f01602080910402602001604051908101604052809291908181526020018280546115f790612be8565b80156116445780601f1061161957610100808354040283529160200191611644565b820191906000526020600020905b81548152906001019060200180831161162757829003601f168201915b5050505050935093509350935093509193509193565b61166382610ac4565b6116748161166f61197c565b611984565b61167e8383611b01565b505050565b816003600082815260200190815260200160002060040160009054906101000a900473ffffffffffffffffffffffffffffffffffffffff1673ffffffffffffffffffffffffffffffffffffffff163373ffffffffffffffffffffffffffffffffffffffff1614611728576040517f08c379a000000000000000000000000000000000000000000000000000000000815260040161171f906127b7565b60405180910390fd5b816003600085815260200190815260200160002060060160006101000a81548160ff021916908360ff160217905550426003600085815260200190815260200160002060080181905550505050565b816003600082815260200190815260200160002060040160009054906101000a900473ffffffffffffffffffffffffffffffffffffffff1673ffffffffffffffffffffffffffffffffffffffff163373ffffffffffffffffffffffffffffffffffffffff161461181c576040517f08c379a0000000000000000000000000000000000000000000000000000000008152600401611813906127b7565b60405180910390fd5b81600360008581526020019081526020016000206005019080519060200190611846929190611ea6565b50426003600085815260200190815260200160002060080181905550505050565b600061190a600260008581526020019081526020016000208054806020026020016040519081016040528092919081815260200182805480156118ff57602002820191906000526020600020905b8160009054906101000a900473ffffffffffffffffffffffffffffffffffffffff1673ffffffffffffffffffffffffffffffffffffffff16815260200190600101908083116118b5575b505050505083611be2565b905092915050565b60007f01ffc9a7000000000000000000000000000000000000000000000000000000007bffffffffffffffffffffffffffffffffffffffffffffffffffffffff1916827bffffffffffffffffffffffffffffffffffffffffffffffffffffffff1916149050919050565b600033905090565b61198e82826112c8565b611a1d576119b38173ffffffffffffffffffffffffffffffffffffffff166014611c6a565b6119c18360001c6020611c6a565b6040516020016119d29291906125f8565b6040516020818303038152906040526040517f08c379a0000000000000000000000000000000000000000000000000000000008152600401611a149190612668565b60405180910390fd5b5050565b611a2b82826112c8565b611afd57600160008084815260200190815260200160002060000160008373ffffffffffffffffffffffffffffffffffffffff1673ffffffffffffffffffffffffffffffffffffffff16815260200190815260200160002060006101000a81548160ff021916908315150217905550611aa261197c565b73ffffffffffffffffffffffffffffffffffffffff168173ffffffffffffffffffffffffffffffffffffffff16837f2f8788117e7eff1d82e926ec794901d17c78024a50270940304540a733656f0d60405160405180910390a45b5050565b611b0b82826112c8565b15611bde57600080600084815260200190815260200160002060000160008373ffffffffffffffffffffffffffffffffffffffff1673ffffffffffffffffffffffffffffffffffffffff16815260200190815260200160002060006101000a81548160ff021916908315150217905550611b8361197c565b73ffffffffffffffffffffffffffffffffffffffff168173ffffffffffffffffffffffffffffffffffffffff16837ff6391f5c32d9c69d2a47ea670b442974b53935d1edc7fd64eb21e047a839171b60405160405180910390a45b5050565b600080600090505b8351811015611c5e578273ffffffffffffffffffffffffffffffffffffffff16848281518110611c1d57611c1c612d21565b5b602002602001015173ffffffffffffffffffffffffffffffffffffffff161415611c4b576001915050611c64565b8080611c5690612c4b565b915050611bea565b50600090505b92915050565b606060006002836002611c7d9190612a1b565b611c879190612994565b67ffffffffffffffff811115611ca057611c9f612d50565b5b6040519080825280601f01601f191660200182016040528015611cd25781602001600182028036833780820191505090505b5090507f300000000000000000000000000000000000000000000000000000000000000081600081518110611d0a57611d09612d21565b5b60200101907effffffffffffffffffffffffffffffffffffffffffffffffffffffffffffff1916908160001a9053507f780000000000000000000000000000000000000000000000000000000000000081600181518110611d6e57611d6d612d21565b5b60200101907effffffffffffffffffffffffffffffffffffffffffffffffffffffffffffff1916908160001a90535060006001846002611dae9190612a1b565b611db89190612994565b90505b6001811115611e58577f3031323334353637383961626364656600000000000000000000000000000000600f861660108110611dfa57611df9612d21565b5b1a60f81b828281518110611e1157611e10612d21565b5b60200101907effffffffffffffffffffffffffffffffffffffffffffffffffffffffffffff1916908160001a905350600485901c945080611e5190612bbe565b9050611dbb565b5060008414611e9c576040517f08c379a0000000000000000000000000000000000000000000000000000000008152600401611e9390612777565b60405180910390fd5b8091505092915050565b828054611eb290612be8565b90600052602060002090601f016020900481019282611ed45760008555611f1b565b82601f10611eed57805160ff1916838001178555611f1b565b82800160010185558215611f1b579182015b82811115611f1a578251825591602001919060010190611eff565b5b509050611f289190611f2c565b5090565b5b80821115611f45576000816000905550600101611f2d565b5090565b6000611f5c611f578461293c565b612917565b905082815260208101848484011115611f7857611f77612d84565b5b611f83848285612b7c565b509392505050565b600081359050611f9a816130c6565b92915050565b600081359050611faf816130dd565b92915050565b600081359050611fc4816130f4565b92915050565b600081359050611fd98161310b565b92915050565b600082601f830112611ff457611ff3612d7f565b5b8135612004848260208601611f49565b91505092915050565b60008135905061201c81613122565b92915050565b60008135905061203181613139565b92915050565b60006020828403121561204d5761204c612d8e565b5b600061205b84828501611fb5565b91505092915050565b6000806040838503121561207b5761207a612d8e565b5b600061208985828601611fb5565b925050602061209a85828601611f8b565b9150509250929050565b6000602082840312156120ba576120b9612d8e565b5b60006120c884828501611fca565b91505092915050565b60008060008060008060c087890312156120ee576120ed612d8e565b5b600087013567ffffffffffffffff81111561210c5761210b612d89565b5b61211889828a01611fdf565b965050602087013567ffffffffffffffff81111561213957612138612d89565b5b61214589828a01611fdf565b955050604061215689828a0161200d565b945050606087013567ffffffffffffffff81111561217757612176612d89565b5b61218389828a01611fdf565b935050608061219489828a01612022565b92505060a06121a589828a01611fa0565b9150509295509295509295565b6000602082840312156121c8576121c7612d8e565b5b60006121d68482850161200d565b91505092915050565b600080604083850312156121f6576121f5612d8e565b5b60006122048582860161200d565b925050602061221585828601611f8b565b9150509250929050565b6000806040838503121561223657612235612d8e565b5b60006122448582860161200d565b925050602061225585828601611fa0565b9150509250929050565b6000806040838503121561227657612275612d8e565b5b60006122848582860161200d565b925050602083013567ffffffffffffffff8111156122a5576122a4612d89565b5b6122b185828601611fdf565b9150509250929050565b600080604083850312156122d2576122d1612d8e565b5b60006122e08582860161200d565b92505060206122f18582860161200d565b9150509250929050565b6000806040838503121561231257612311612d8e565b5b60006123208582860161200d565b925050602061233185828601612022565b9150509250929050565b61234481612b46565b82525050565b61235381612abb565b82525050565b61236281612aa9565b82525050565b61237181612acd565b82525050565b61238081612ad9565b82525050565b60006123918261296d565b61239b8185612978565b93506123ab818560208601612b8b565b6123b481612d93565b840191505092915050565b60006123ca8261296d565b6123d48185612989565b93506123e4818560208601612b8b565b80840191505092915050565b60006123fd601f83612978565b915061240882612da4565b602082019050919050565b6000612420603d83612978565b915061242b82612dcd565b604082019050919050565b6000612443602083612978565b915061244e82612e1c565b602082019050919050565b6000612466601483612978565b915061247182612e45565b602082019050919050565b6000612489602c83612978565b915061249482612e6e565b604082019050919050565b60006124ac601983612978565b91506124b782612ebd565b602082019050919050565b60006124cf602183612978565b91506124da82612ee6565b604082019050919050565b60006124f2602883612978565b91506124fd82612f35565b604082019050919050565b6000612515601683612978565b915061252082612f84565b602082019050919050565b6000612538602583612978565b915061254382612fad565b604082019050919050565b600061255b601783612989565b915061256682612ffc565b601782019050919050565b600061257e601c83612978565b915061258982613025565b602082019050919050565b60006125a1601183612989565b91506125ac8261304e565b601182019050919050565b60006125c4602f83612978565b91506125cf82613077565b604082019050919050565b6125e381612b2f565b82525050565b6125f281612b39565b82525050565b60006126038261254e565b915061260f82856123bf565b915061261a82612594565b915061262682846123bf565b91508190509392505050565b60006020820190506126476000830184612368565b92915050565b60006020820190506126626000830184612377565b92915050565b600060208201905081810360008301526126828184612386565b905092915050565b600060808201905081810360008301526126a48187612386565b90506126b3602083018661234a565b6126c060408301856125da565b6126cd6060830184612368565b95945050505050565b600060a08201905081810360008301526126f08188612386565b905081810360208301526127048187612386565b905061271360408301866125e9565b61272060608301856125da565b61272d60808301846125da565b9695505050505050565b60006020820190508181036000830152612750816123f0565b9050919050565b6000602082019050818103600083015261277081612413565b9050919050565b6000602082019050818103600083015261279081612436565b9050919050565b600060208201905081810360008301526127b081612459565b9050919050565b600060208201905081810360008301526127d08161247c565b9050919050565b600060208201905081810360008301526127f08161249f565b9050919050565b60006020820190508181036000830152612810816124c2565b9050919050565b60006020820190508181036000830152612830816124e5565b9050919050565b6000602082019050818103600083015261285081612508565b9050919050565b600060208201905081810360008301526128708161252b565b9050919050565b6000602082019050818103600083015261289081612571565b9050919050565b600060208201905081810360008301526128b0816125b7565b9050919050565b60006020820190506128cc60008301846125da565b92915050565b60006080820190506128e760008301876125da565b6128f460208301866125da565b612901604083018561233b565b61290e6060830184612359565b95945050505050565b6000612921612932565b905061292d8282612c1a565b919050565b6000604051905090565b600067ffffffffffffffff82111561295757612956612d50565b5b61296082612d93565b9050602081019050919050565b600081519050919050565b600082825260208201905092915050565b600081905092915050565b600061299f82612b2f565b91506129aa83612b2f565b9250827fffffffffffffffffffffffffffffffffffffffffffffffffffffffffffffffff038211156129df576129de612c94565b5b828201905092915050565b60006129f582612b2f565b9150612a0083612b2f565b925082612a1057612a0f612cc3565b5b828204905092915050565b6000612a2682612b2f565b9150612a3183612b2f565b9250817fffffffffffffffffffffffffffffffffffffffffffffffffffffffffffffffff0483118215151615612a6a57612a69612c94565b5b828202905092915050565b6000612a8082612b39565b9150612a8b83612b39565b925082821015612a9e57612a9d612c94565b5b828203905092915050565b6000612ab482612b0f565b9050919050565b6000612ac682612b0f565b9050919050565b60008115159050919050565b6000819050919050565b60007fffffffff0000000000000000000000000000000000000000000000000000000082169050919050565b600073ffffffffffffffffffffffffffffffffffffffff82169050919050565b6000819050919050565b600060ff82169050919050565b6000612b5182612b58565b9050919050565b6000612b6382612b6a565b9050919050565b6000612b7582612b0f565b9050919050565b82818337600083830152505050565b60005b83811015612ba9578082015181840152602081019050612b8e565b83811115612bb8576000848401525b50505050565b6000612bc982612b2f565b91506000821415612bdd57612bdc612c94565b5b600182039050919050565b60006002820490506001821680612c0057607f821691505b60208210811415612c1457612c13612cf2565b5b50919050565b612c2382612d93565b810181811067ffffffffffffffff82111715612c4257612c41612d50565b5b80604052505050565b6000612c5682612b2f565b91507fffffffffffffffffffffffffffffffffffffffffffffffffffffffffffffffff821415612c8957612c88612c94565b5b600182019050919050565b7f4e487b7100000000000000000000000000000000000000000000000000000000600052601160045260246000fd5b7f4e487b7100000000000000000000000000000000000000000000000000000000600052601260045260246000fd5b7f4e487b7100000000000000000000000000000000000000000000000000000000600052602260045260246000fd5b7f4e487b7100000000000000000000000000000000000000000000000000000000600052603260045260246000fd5b7f4e487b7100000000000000000000000000000000000000000000000000000000600052604160045260246000fd5b600080fd5b600080fd5b600080fd5b600080fd5b6000601f19601f8301169050919050565b7f5175616e74697479206d7573742062652067726561746572207468616e203000600082015250565b7f5175616e74697479206d757374206265206c657373207468616e206f7220657160008201527f75616c20746f2074686520617661696c61626c65207175616e74697479000000602082015250565b7f537472696e67733a20686578206c656e67746820696e73756666696369656e74600082015250565b7f507269636520646f6573206e6f74206d61746368000000000000000000000000600082015250565b7f4f6e6c792070726f647563742073656c6c65722063616e20657865637574652060008201527f7468697320616374696f6e2e0000000000000000000000000000000000000000602082015250565b7f4d61726b6574206974656d206973206e6f742061637469766500000000000000600082015250565b7f596f752063616e6e6f7420766f746520666f7220746869732070726f6475637460008201527f2e00000000000000000000000000000000000000000000000000000000000000602082015250565b7f5374617273206d7573742062652067726561746572207468616e206f7220657160008201527f75616c20746f2031000000000000000000000000000000000000000000000000602082015250565b7f5468652073656c6c65722063616e6e6f7420766f746500000000000000000000600082015250565b7f5374617273206d757374206265206c657373207468616e206f7220657175616c60008201527f20746f2035000000000000000000000000000000000000000000000000000000602082015250565b7f416363657373436f6e74726f6c3a206163636f756e7420000000000000000000600082015250565b7f5072696365206d7573742062652067726561746572207468616e203000000000600082015250565b7f206973206d697373696e6720726f6c6520000000000000000000000000000000600082015250565b7f416363657373436f6e74726f6c3a2063616e206f6e6c792072656e6f756e636560008201527f20726f6c657320666f722073656c660000000000000000000000000000000000602082015250565b6130cf81612aa9565b81146130da57600080fd5b50565b6130e681612acd565b81146130f157600080fd5b50565b6130fd81612ad9565b811461310857600080fd5b50565b61311481612ae3565b811461311f57600080fd5b50565b61312b81612b2f565b811461313657600080fd5b50565b61314281612b39565b811461314d57600080fd5b5056fea2646970667358221220fa8bfa21c575480d374bc182af31df6b617beda6f8f95966492c2fc5147999d264736f6c63430008070033",
					"opcodes": "PUSH1 0x80 PUSH1 0x40 MSTORE PUSH1 0x0 PUSH1 0x1 SSTORE CALLVALUE DUP1 ISZERO PUSH3 0x16 JUMPI PUSH1 0x0 DUP1 REVERT JUMPDEST POP PUSH3 0x49 PUSH32 0x1F9CA85E780B3B3CFBE1334CA9DD68802DB7860F692BD163C796BB76D464EDC0 CALLER PUSH3 0x4F PUSH1 0x20 SHL PUSH1 0x20 SHR JUMP JUMPDEST PUSH3 0x1B2 JUMP JUMPDEST PUSH3 0x61 DUP3 DUP3 PUSH3 0x140 PUSH1 0x20 SHL PUSH1 0x20 SHR JUMP JUMPDEST PUSH3 0x13C JUMPI PUSH1 0x1 PUSH1 0x0 DUP1 DUP5 DUP2 MSTORE PUSH1 0x20 ADD SWAP1 DUP2 MSTORE PUSH1 0x20 ADD PUSH1 0x0 KECCAK256 PUSH1 0x0 ADD PUSH1 0x0 DUP4 PUSH20 0xFFFFFFFFFFFFFFFFFFFFFFFFFFFFFFFFFFFFFFFF AND PUSH20 0xFFFFFFFFFFFFFFFFFFFFFFFFFFFFFFFFFFFFFFFF AND DUP2 MSTORE PUSH1 0x20 ADD SWAP1 DUP2 MSTORE PUSH1 0x20 ADD PUSH1 0x0 KECCAK256 PUSH1 0x0 PUSH2 0x100 EXP DUP2 SLOAD DUP2 PUSH1 0xFF MUL NOT AND SWAP1 DUP4 ISZERO ISZERO MUL OR SWAP1 SSTORE POP PUSH3 0xE1 PUSH3 0x1AA PUSH1 0x20 SHL PUSH1 0x20 SHR JUMP JUMPDEST PUSH20 0xFFFFFFFFFFFFFFFFFFFFFFFFFFFFFFFFFFFFFFFF AND DUP2 PUSH20 0xFFFFFFFFFFFFFFFFFFFFFFFFFFFFFFFFFFFFFFFF AND DUP4 PUSH32 0x2F8788117E7EFF1D82E926EC794901D17C78024A50270940304540A733656F0D PUSH1 0x40 MLOAD PUSH1 0x40 MLOAD DUP1 SWAP2 SUB SWAP1 LOG4 JUMPDEST POP POP JUMP JUMPDEST PUSH1 0x0 DUP1 PUSH1 0x0 DUP5 DUP2 MSTORE PUSH1 0x20 ADD SWAP1 DUP2 MSTORE PUSH1 0x20 ADD PUSH1 0x0 KECCAK256 PUSH1 0x0 ADD PUSH1 0x0 DUP4 PUSH20 0xFFFFFFFFFFFFFFFFFFFFFFFFFFFFFFFFFFFFFFFF AND PUSH20 0xFFFFFFFFFFFFFFFFFFFFFFFFFFFFFFFFFFFFFFFF AND DUP2 MSTORE PUSH1 0x20 ADD SWAP1 DUP2 MSTORE PUSH1 0x20 ADD PUSH1 0x0 KECCAK256 PUSH1 0x0 SWAP1 SLOAD SWAP1 PUSH2 0x100 EXP SWAP1 DIV PUSH1 0xFF AND SWAP1 POP SWAP3 SWAP2 POP POP JUMP JUMPDEST PUSH1 0x0 CALLER SWAP1 POP SWAP1 JUMP JUMPDEST PUSH2 0x3186 DUP1 PUSH3 0x1C2 PUSH1 0x0 CODECOPY PUSH1 0x0 RETURN INVALID PUSH1 0x80 PUSH1 0x40 MSTORE PUSH1 0x4 CALLDATASIZE LT PUSH2 0x12A JUMPI PUSH1 0x0 CALLDATALOAD PUSH1 0xE0 SHR DUP1 PUSH4 0x8F28AFEE GT PUSH2 0xAB JUMPI DUP1 PUSH4 0xBF9C6554 GT PUSH2 0x6F JUMPI DUP1 PUSH4 0xBF9C6554 EQ PUSH2 0x3F7 JUMPI DUP1 PUSH4 0xC7BE7A49 EQ PUSH2 0x420 JUMPI DUP1 PUSH4 0xD547741F EQ PUSH2 0x460 JUMPI DUP1 PUSH4 0xECA1E6A0 EQ PUSH2 0x489 JUMPI DUP1 PUSH4 0xF0D2D06D EQ PUSH2 0x4B2 JUMPI DUP1 PUSH4 0xFEC4D15D EQ PUSH2 0x4DB JUMPI PUSH2 0x12A JUMP JUMPDEST DUP1 PUSH4 0x8F28AFEE EQ PUSH2 0x312 JUMPI DUP1 PUSH4 0x91D14854 EQ PUSH2 0x33B JUMPI DUP1 PUSH4 0xA217FDDF EQ PUSH2 0x378 JUMPI DUP1 PUSH4 0xAE13A317 EQ PUSH2 0x3A3 JUMPI DUP1 PUSH4 0xB491EFA0 EQ PUSH2 0x3CC JUMPI PUSH2 0x12A JUMP JUMPDEST DUP1 PUSH4 0x36568ABE GT PUSH2 0xF2 JUMPI DUP1 PUSH4 0x36568ABE EQ PUSH2 0x217 JUMPI DUP1 PUSH4 0x6A868974 EQ PUSH2 0x240 JUMPI DUP1 PUSH4 0x77247D91 EQ PUSH2 0x26B JUMPI DUP1 PUSH4 0x7735904F EQ PUSH2 0x294 JUMPI DUP1 PUSH4 0x88D9E84C EQ PUSH2 0x2D1 JUMPI PUSH2 0x12A JUMP JUMPDEST DUP1 PUSH4 0x1FFC9A7 EQ PUSH2 0x12F JUMPI DUP1 PUSH4 0xC3774FC EQ PUSH2 0x16C JUMPI DUP1 PUSH4 0x1DFEF0EB EQ PUSH2 0x195 JUMPI DUP1 PUSH4 0x248A9CA3 EQ PUSH2 0x1B1 JUMPI DUP1 PUSH4 0x2F2FF15D EQ PUSH2 0x1EE JUMPI JUMPDEST PUSH1 0x0 DUP1 REVERT JUMPDEST CALLVALUE DUP1 ISZERO PUSH2 0x13B JUMPI PUSH1 0x0 DUP1 REVERT JUMPDEST POP PUSH2 0x156 PUSH1 0x4 DUP1 CALLDATASIZE SUB DUP2 ADD SWAP1 PUSH2 0x151 SWAP2 SWAP1 PUSH2 0x20A4 JUMP JUMPDEST PUSH2 0x518 JUMP JUMPDEST PUSH1 0x40 MLOAD PUSH2 0x163 SWAP2 SWAP1 PUSH2 0x2632 JUMP JUMPDEST PUSH1 0x40 MLOAD DUP1 SWAP2 SUB SWAP1 RETURN JUMPDEST CALLVALUE DUP1 ISZERO PUSH2 0x178 JUMPI PUSH1 0x0 DUP1 REVERT JUMPDEST POP PUSH2 0x193 PUSH1 0x4 DUP1 CALLDATASIZE SUB DUP2 ADD SWAP1 PUSH2 0x18E SWAP2 SWAP1 PUSH2 0x22FB JUMP JUMPDEST PUSH2 0x592 JUMP JUMPDEST STOP JUMPDEST PUSH2 0x1AF PUSH1 0x4 DUP1 CALLDATASIZE SUB DUP2 ADD SWAP1 PUSH2 0x1AA SWAP2 SWAP1 PUSH2 0x22FB JUMP JUMPDEST PUSH2 0x77B JUMP JUMPDEST STOP JUMPDEST CALLVALUE DUP1 ISZERO PUSH2 0x1BD JUMPI PUSH1 0x0 DUP1 REVERT JUMPDEST POP PUSH2 0x1D8 PUSH1 0x4 DUP1 CALLDATASIZE SUB DUP2 ADD SWAP1 PUSH2 0x1D3 SWAP2 SWAP1 PUSH2 0x2037 JUMP JUMPDEST PUSH2 0xAC4 JUMP JUMPDEST PUSH1 0x40 MLOAD PUSH2 0x1E5 SWAP2 SWAP1 PUSH2 0x264D JUMP JUMPDEST PUSH1 0x40 MLOAD DUP1 SWAP2 SUB SWAP1 RETURN JUMPDEST CALLVALUE DUP1 ISZERO PUSH2 0x1FA JUMPI PUSH1 0x0 DUP1 REVERT JUMPDEST POP PUSH2 0x215 PUSH1 0x4 DUP1 CALLDATASIZE SUB DUP2 ADD SWAP1 PUSH2 0x210 SWAP2 SWAP1 PUSH2 0x2064 JUMP JUMPDEST PUSH2 0xAE3 JUMP JUMPDEST STOP JUMPDEST CALLVALUE DUP1 ISZERO PUSH2 0x223 JUMPI PUSH1 0x0 DUP1 REVERT JUMPDEST POP PUSH2 0x23E PUSH1 0x4 DUP1 CALLDATASIZE SUB DUP2 ADD SWAP1 PUSH2 0x239 SWAP2 SWAP1 PUSH2 0x2064 JUMP JUMPDEST PUSH2 0xB0C JUMP JUMPDEST STOP JUMPDEST CALLVALUE DUP1 ISZERO PUSH2 0x24C JUMPI PUSH1 0x0 DUP1 REVERT JUMPDEST POP PUSH2 0x255 PUSH2 0xB8F JUMP JUMPDEST PUSH1 0x40 MLOAD PUSH2 0x262 SWAP2 SWAP1 PUSH2 0x28B7 JUMP JUMPDEST PUSH1 0x40 MLOAD DUP1 SWAP2 SUB SWAP1 RETURN JUMPDEST CALLVALUE DUP1 ISZERO PUSH2 0x277 JUMPI PUSH1 0x0 DUP1 REVERT JUMPDEST POP PUSH2 0x292 PUSH1 0x4 DUP1 CALLDATASIZE SUB DUP2 ADD SWAP1 PUSH2 0x28D SWAP2 SWAP1 PUSH2 0x20D1 JUMP JUMPDEST PUSH2 0xB95 JUMP JUMPDEST STOP JUMPDEST CALLVALUE DUP1 ISZERO PUSH2 0x2A0 JUMPI PUSH1 0x0 DUP1 REVERT JUMPDEST POP PUSH2 0x2BB PUSH1 0x4 DUP1 CALLDATASIZE SUB DUP2 ADD SWAP1 PUSH2 0x2B6 SWAP2 SWAP1 PUSH2 0x21B2 JUMP JUMPDEST PUSH2 0xD7C JUMP JUMPDEST PUSH1 0x40 MLOAD PUSH2 0x2C8 SWAP2 SWAP1 PUSH2 0x28B7 JUMP JUMPDEST PUSH1 0x40 MLOAD DUP1 SWAP2 SUB SWAP1 RETURN JUMPDEST CALLVALUE DUP1 ISZERO PUSH2 0x2DD JUMPI PUSH1 0x0 DUP1 REVERT JUMPDEST POP PUSH2 0x2F8 PUSH1 0x4 DUP1 CALLDATASIZE SUB DUP2 ADD SWAP1 PUSH2 0x2F3 SWAP2 SWAP1 PUSH2 0x21B2 JUMP JUMPDEST PUSH2 0xF14 JUMP JUMPDEST PUSH1 0x40 MLOAD PUSH2 0x309 SWAP6 SWAP5 SWAP4 SWAP3 SWAP2 SWAP1 PUSH2 0x26D6 JUMP JUMPDEST PUSH1 0x40 MLOAD DUP1 SWAP2 SUB SWAP1 RETURN JUMPDEST CALLVALUE DUP1 ISZERO PUSH2 0x31E JUMPI PUSH1 0x0 DUP1 REVERT JUMPDEST POP PUSH2 0x339 PUSH1 0x4 DUP1 CALLDATASIZE SUB DUP2 ADD SWAP1 PUSH2 0x334 SWAP2 SWAP1 PUSH2 0x225F JUMP JUMPDEST PUSH2 0x11D8 JUMP JUMPDEST STOP JUMPDEST CALLVALUE DUP1 ISZERO PUSH2 0x347 JUMPI PUSH1 0x0 DUP1 REVERT JUMPDEST POP PUSH2 0x362 PUSH1 0x4 DUP1 CALLDATASIZE SUB DUP2 ADD SWAP1 PUSH2 0x35D SWAP2 SWAP1 PUSH2 0x2064 JUMP JUMPDEST PUSH2 0x12C8 JUMP JUMPDEST PUSH1 0x40 MLOAD PUSH2 0x36F SWAP2 SWAP1 PUSH2 0x2632 JUMP JUMPDEST PUSH1 0x40 MLOAD DUP1 SWAP2 SUB SWAP1 RETURN JUMPDEST CALLVALUE DUP1 ISZERO PUSH2 0x384 JUMPI PUSH1 0x0 DUP1 REVERT JUMPDEST POP PUSH2 0x38D PUSH2 0x1332 JUMP JUMPDEST PUSH1 0x40 MLOAD PUSH2 0x39A SWAP2 SWAP1 PUSH2 0x264D JUMP JUMPDEST PUSH1 0x40 MLOAD DUP1 SWAP2 SUB SWAP1 RETURN JUMPDEST CALLVALUE DUP1 ISZERO PUSH2 0x3AF JUMPI PUSH1 0x0 DUP1 REVERT JUMPDEST POP PUSH2 0x3CA PUSH1 0x4 DUP1 CALLDATASIZE SUB DUP2 ADD SWAP1 PUSH2 0x3C5 SWAP2 SWAP1 PUSH2 0x22BB JUMP JUMPDEST PUSH2 0x1339 JUMP JUMPDEST STOP JUMPDEST CALLVALUE DUP1 ISZERO PUSH2 0x3D8 JUMPI PUSH1 0x0 DUP1 REVERT JUMPDEST POP PUSH2 0x3E1 PUSH2 0x1419 JUMP JUMPDEST PUSH1 0x40 MLOAD PUSH2 0x3EE SWAP2 SWAP1 PUSH2 0x264D JUMP JUMPDEST PUSH1 0x40 MLOAD DUP1 SWAP2 SUB SWAP1 RETURN JUMPDEST CALLVALUE DUP1 ISZERO PUSH2 0x403 JUMPI PUSH1 0x0 DUP1 REVERT JUMPDEST POP PUSH2 0x41E PUSH1 0x4 DUP1 CALLDATASIZE SUB DUP2 ADD SWAP1 PUSH2 0x419 SWAP2 SWAP1 PUSH2 0x221F JUMP JUMPDEST PUSH2 0x143D JUMP JUMPDEST STOP JUMPDEST CALLVALUE DUP1 ISZERO PUSH2 0x42C JUMPI PUSH1 0x0 DUP1 REVERT JUMPDEST POP PUSH2 0x447 PUSH1 0x4 DUP1 CALLDATASIZE SUB DUP2 ADD SWAP1 PUSH2 0x442 SWAP2 SWAP1 PUSH2 0x21B2 JUMP JUMPDEST PUSH2 0x1530 JUMP JUMPDEST PUSH1 0x40 MLOAD PUSH2 0x457 SWAP5 SWAP4 SWAP3 SWAP2 SWAP1 PUSH2 0x268A JUMP JUMPDEST PUSH1 0x40 MLOAD DUP1 SWAP2 SUB SWAP1 RETURN JUMPDEST CALLVALUE DUP1 ISZERO PUSH2 0x46C JUMPI PUSH1 0x0 DUP1 REVERT JUMPDEST POP PUSH2 0x487 PUSH1 0x4 DUP1 CALLDATASIZE SUB DUP2 ADD SWAP1 PUSH2 0x482 SWAP2 SWAP1 PUSH2 0x2064 JUMP JUMPDEST PUSH2 0x165A JUMP JUMPDEST STOP JUMPDEST CALLVALUE DUP1 ISZERO PUSH2 0x495 JUMPI PUSH1 0x0 DUP1 REVERT JUMPDEST POP PUSH2 0x4B0 PUSH1 0x4 DUP1 CALLDATASIZE SUB DUP2 ADD SWAP1 PUSH2 0x4AB SWAP2 SWAP1 PUSH2 0x22FB JUMP JUMPDEST PUSH2 0x1683 JUMP JUMPDEST STOP JUMPDEST CALLVALUE DUP1 ISZERO PUSH2 0x4BE JUMPI PUSH1 0x0 DUP1 REVERT JUMPDEST POP PUSH2 0x4D9 PUSH1 0x4 DUP1 CALLDATASIZE SUB DUP2 ADD SWAP1 PUSH2 0x4D4 SWAP2 SWAP1 PUSH2 0x225F JUMP JUMPDEST PUSH2 0x1777 JUMP JUMPDEST STOP JUMPDEST CALLVALUE DUP1 ISZERO PUSH2 0x4E7 JUMPI PUSH1 0x0 DUP1 REVERT JUMPDEST POP PUSH2 0x502 PUSH1 0x4 DUP1 CALLDATASIZE SUB DUP2 ADD SWAP1 PUSH2 0x4FD SWAP2 SWAP1 PUSH2 0x21DF JUMP JUMPDEST PUSH2 0x1867 JUMP JUMPDEST PUSH1 0x40 MLOAD PUSH2 0x50F SWAP2 SWAP1 PUSH2 0x2632 JUMP JUMPDEST PUSH1 0x40 MLOAD DUP1 SWAP2 SUB SWAP1 RETURN JUMPDEST PUSH1 0x0 PUSH32 0x7965DB0B00000000000000000000000000000000000000000000000000000000 PUSH28 0xFFFFFFFFFFFFFFFFFFFFFFFFFFFFFFFFFFFFFFFFFFFFFFFFFFFFFFFF NOT AND DUP3 PUSH28 0xFFFFFFFFFFFFFFFFFFFFFFFFFFFFFFFFFFFFFFFFFFFFFFFFFFFFFFFF NOT AND EQ DUP1 PUSH2 0x58B JUMPI POP PUSH2 0x58A DUP3 PUSH2 0x1912 JUMP JUMPDEST JUMPDEST SWAP1 POP SWAP2 SWAP1 POP JUMP JUMPDEST PUSH1 0x3 PUSH1 0x0 DUP4 DUP2 MSTORE PUSH1 0x20 ADD SWAP1 DUP2 MSTORE PUSH1 0x20 ADD PUSH1 0x0 KECCAK256 PUSH1 0x4 ADD PUSH1 0x0 SWAP1 SLOAD SWAP1 PUSH2 0x100 EXP SWAP1 DIV PUSH20 0xFFFFFFFFFFFFFFFFFFFFFFFFFFFFFFFFFFFFFFFF AND PUSH20 0xFFFFFFFFFFFFFFFFFFFFFFFFFFFFFFFFFFFFFFFF AND CALLER PUSH20 0xFFFFFFFFFFFFFFFFFFFFFFFFFFFFFFFFFFFFFFFF AND EQ ISZERO PUSH2 0x637 JUMPI PUSH1 0x40 MLOAD PUSH32 0x8C379A000000000000000000000000000000000000000000000000000000000 DUP2 MSTORE PUSH1 0x4 ADD PUSH2 0x62E SWAP1 PUSH2 0x2837 JUMP JUMPDEST PUSH1 0x40 MLOAD DUP1 SWAP2 SUB SWAP1 REVERT JUMPDEST PUSH1 0x5 DUP2 PUSH1 0xFF AND GT ISZERO PUSH2 0x67E JUMPI PUSH1 0x40 MLOAD PUSH32 0x8C379A000000000000000000000000000000000000000000000000000000000 DUP2 MSTORE PUSH1 0x4 ADD PUSH2 0x675 SWAP1 PUSH2 0x2857 JUMP JUMPDEST PUSH1 0x40 MLOAD DUP1 SWAP2 SUB SWAP1 REVERT JUMPDEST PUSH1 0x1 DUP2 PUSH1 0xFF AND LT ISZERO PUSH2 0x6C5 JUMPI PUSH1 0x40 MLOAD PUSH32 0x8C379A000000000000000000000000000000000000000000000000000000000 DUP2 MSTORE PUSH1 0x4 ADD PUSH2 0x6BC SWAP1 PUSH2 0x2817 JUMP JUMPDEST PUSH1 0x40 MLOAD DUP1 SWAP2 SUB SWAP1 REVERT JUMPDEST PUSH2 0x6CF DUP3 CALLER PUSH2 0x1867 JUMP JUMPDEST PUSH2 0x70E JUMPI PUSH1 0x40 MLOAD PUSH32 0x8C379A000000000000000000000000000000000000000000000000000000000 DUP2 MSTORE PUSH1 0x4 ADD PUSH2 0x705 SWAP1 PUSH2 0x27F7 JUMP JUMPDEST PUSH1 0x40 MLOAD DUP1 SWAP2 SUB SWAP1 REVERT JUMPDEST DUP1 PUSH1 0x4 PUSH1 0x0 CALLER PUSH20 0xFFFFFFFFFFFFFFFFFFFFFFFFFFFFFFFFFFFFFFFF AND PUSH20 0xFFFFFFFFFFFFFFFFFFFFFFFFFFFFFFFFFFFFFFFF AND DUP2 MSTORE PUSH1 0x20 ADD SWAP1 DUP2 MSTORE PUSH1 0x20 ADD PUSH1 0x0 KECCAK256 PUSH1 0x0 DUP5 DUP2 MSTORE PUSH1 0x20 ADD SWAP1 DUP2 MSTORE PUSH1 0x20 ADD PUSH1 0x0 KECCAK256 PUSH1 0x0 PUSH2 0x100 EXP DUP2 SLOAD DUP2 PUSH1 0xFF MUL NOT AND SWAP1 DUP4 PUSH1 0xFF AND MUL OR SWAP1 SSTORE POP POP POP JUMP JUMPDEST PUSH1 0x0 DUP2 PUSH1 0xFF AND PUSH1 0x3 PUSH1 0x0 DUP6 DUP2 MSTORE PUSH1 0x20 ADD SWAP1 DUP2 MSTORE PUSH1 0x20 ADD PUSH1 0x0 KECCAK256 PUSH1 0x3 ADD SLOAD PUSH2 0x7A2 SWAP2 SWAP1 PUSH2 0x2A1B JUMP JUMPDEST SWAP1 POP CALLVALUE DUP2 EQ PUSH2 0x7E6 JUMPI PUSH1 0x40 MLOAD PUSH32 0x8C379A000000000000000000000000000000000000000000000000000000000 DUP2 MSTORE PUSH1 0x4 ADD PUSH2 0x7DD SWAP1 PUSH2 0x2797 JUMP JUMPDEST PUSH1 0x40 MLOAD DUP1 SWAP2 SUB SWAP1 REVERT JUMPDEST PUSH1 0x0 DUP3 PUSH1 0xFF AND GT PUSH2 0x82C JUMPI PUSH1 0x40 MLOAD PUSH32 0x8C379A000000000000000000000000000000000000000000000000000000000 DUP2 MSTORE PUSH1 0x4 ADD PUSH2 0x823 SWAP1 PUSH2 0x2737 JUMP JUMPDEST PUSH1 0x40 MLOAD DUP1 SWAP2 SUB SWAP1 REVERT JUMPDEST PUSH1 0x3 PUSH1 0x0 DUP5 DUP2 MSTORE PUSH1 0x20 ADD SWAP1 DUP2 MSTORE PUSH1 0x20 ADD PUSH1 0x0 KECCAK256 PUSH1 0x6 ADD PUSH1 0x0 SWAP1 SLOAD SWAP1 PUSH2 0x100 EXP SWAP1 DIV PUSH1 0xFF AND PUSH1 0xFF AND DUP3 PUSH1 0xFF AND GT ISZERO PUSH2 0x898 JUMPI PUSH1 0x40 MLOAD PUSH32 0x8C379A000000000000000000000000000000000000000000000000000000000 DUP2 MSTORE PUSH1 0x4 ADD PUSH2 0x88F SWAP1 PUSH2 0x2757 JUMP JUMPDEST PUSH1 0x40 MLOAD DUP1 SWAP2 SUB SWAP1 REVERT JUMPDEST PUSH1 0x3 PUSH1 0x0 DUP5 DUP2 MSTORE PUSH1 0x20 ADD SWAP1 DUP2 MSTORE PUSH1 0x20 ADD PUSH1 0x0 KECCAK256 PUSH1 0x9 ADD PUSH1 0x0 SWAP1 SLOAD SWAP1 PUSH2 0x100 EXP SWAP1 DIV PUSH1 0xFF AND PUSH2 0x8FB JUMPI PUSH1 0x40 MLOAD PUSH32 0x8C379A000000000000000000000000000000000000000000000000000000000 DUP2 MSTORE PUSH1 0x4 ADD PUSH2 0x8F2 SWAP1 PUSH2 0x27D7 JUMP JUMPDEST PUSH1 0x40 MLOAD DUP1 SWAP2 SUB SWAP1 REVERT JUMPDEST PUSH1 0x3 PUSH1 0x0 DUP5 DUP2 MSTORE PUSH1 0x20 ADD SWAP1 DUP2 MSTORE PUSH1 0x20 ADD PUSH1 0x0 KECCAK256 PUSH1 0x4 ADD PUSH1 0x0 SWAP1 SLOAD SWAP1 PUSH2 0x100 EXP SWAP1 DIV PUSH20 0xFFFFFFFFFFFFFFFFFFFFFFFFFFFFFFFFFFFFFFFF AND PUSH20 0xFFFFFFFFFFFFFFFFFFFFFFFFFFFFFFFFFFFFFFFF AND PUSH2 0x8FC CALLVALUE SWAP1 DUP2 ISZERO MUL SWAP1 PUSH1 0x40 MLOAD PUSH1 0x0 PUSH1 0x40 MLOAD DUP1 DUP4 SUB DUP2 DUP6 DUP9 DUP9 CALL SWAP4 POP POP POP POP ISZERO DUP1 ISZERO PUSH2 0x977 JUMPI RETURNDATASIZE PUSH1 0x0 DUP1 RETURNDATACOPY RETURNDATASIZE PUSH1 0x0 REVERT JUMPDEST POP DUP2 PUSH1 0x3 PUSH1 0x0 DUP6 DUP2 MSTORE PUSH1 0x20 ADD SWAP1 DUP2 MSTORE PUSH1 0x20 ADD PUSH1 0x0 KECCAK256 PUSH1 0x6 ADD PUSH1 0x0 DUP3 DUP3 DUP3 SWAP1 SLOAD SWAP1 PUSH2 0x100 EXP SWAP1 DIV PUSH1 0xFF AND PUSH2 0x9AA SWAP2 SWAP1 PUSH2 0x2A75 JUMP JUMPDEST SWAP3 POP PUSH2 0x100 EXP DUP2 SLOAD DUP2 PUSH1 0xFF MUL NOT AND SWAP1 DUP4 PUSH1 0xFF AND MUL OR SWAP1 SSTORE POP PUSH1 0x2 PUSH1 0x0 DUP5 DUP2 MSTORE PUSH1 0x20 ADD SWAP1 DUP2 MSTORE PUSH1 0x20 ADD PUSH1 0x0 KECCAK256 CALLER SWAP1 DUP1 PUSH1 0x1 DUP2 SLOAD ADD DUP1 DUP3 SSTORE DUP1 SWAP2 POP POP PUSH1 0x1 SWAP1 SUB SWAP1 PUSH1 0x0 MSTORE PUSH1 0x20 PUSH1 0x0 KECCAK256 ADD PUSH1 0x0 SWAP1 SWAP2 SWAP1 SWAP2 SWAP1 SWAP2 PUSH2 0x100 EXP DUP2 SLOAD DUP2 PUSH20 0xFFFFFFFFFFFFFFFFFFFFFFFFFFFFFFFFFFFFFFFF MUL NOT AND SWAP1 DUP4 PUSH20 0xFFFFFFFFFFFFFFFFFFFFFFFFFFFFFFFFFFFFFFFF AND MUL OR SWAP1 SSTORE POP PUSH32 0xF2F622C4EE3232D0D08C3870751D38DDEF2EAF0E7E0C5D38239C7DC8921CA680 DUP4 PUSH1 0x3 PUSH1 0x0 DUP7 DUP2 MSTORE PUSH1 0x20 ADD SWAP1 DUP2 MSTORE PUSH1 0x20 ADD PUSH1 0x0 KECCAK256 PUSH1 0x3 ADD SLOAD PUSH1 0x3 PUSH1 0x0 DUP8 DUP2 MSTORE PUSH1 0x20 ADD SWAP1 DUP2 MSTORE PUSH1 0x20 ADD PUSH1 0x0 KECCAK256 PUSH1 0x4 ADD PUSH1 0x0 SWAP1 SLOAD SWAP1 PUSH2 0x100 EXP SWAP1 DIV PUSH20 0xFFFFFFFFFFFFFFFFFFFFFFFFFFFFFFFFFFFFFFFF AND CALLER PUSH1 0x40 MLOAD PUSH2 0xAB7 SWAP5 SWAP4 SWAP3 SWAP2 SWAP1 PUSH2 0x28D2 JUMP JUMPDEST PUSH1 0x40 MLOAD DUP1 SWAP2 SUB SWAP1 LOG1 POP POP POP JUMP JUMPDEST PUSH1 0x0 DUP1 PUSH1 0x0 DUP4 DUP2 MSTORE PUSH1 0x20 ADD SWAP1 DUP2 MSTORE PUSH1 0x20 ADD PUSH1 0x0 KECCAK256 PUSH1 0x1 ADD SLOAD SWAP1 POP SWAP2 SWAP1 POP JUMP JUMPDEST PUSH2 0xAEC DUP3 PUSH2 0xAC4 JUMP JUMPDEST PUSH2 0xAFD DUP2 PUSH2 0xAF8 PUSH2 0x197C JUMP JUMPDEST PUSH2 0x1984 JUMP JUMPDEST PUSH2 0xB07 DUP4 DUP4 PUSH2 0x1A21 JUMP JUMPDEST POP POP POP JUMP JUMPDEST PUSH2 0xB14 PUSH2 0x197C JUMP JUMPDEST PUSH20 0xFFFFFFFFFFFFFFFFFFFFFFFFFFFFFFFFFFFFFFFF AND DUP2 PUSH20 0xFFFFFFFFFFFFFFFFFFFFFFFFFFFFFFFFFFFFFFFF AND EQ PUSH2 0xB81 JUMPI PUSH1 0x40 MLOAD PUSH32 0x8C379A000000000000000000000000000000000000000000000000000000000 DUP2 MSTORE PUSH1 0x4 ADD PUSH2 0xB78 SWAP1 PUSH2 0x2897 JUMP JUMPDEST PUSH1 0x40 MLOAD DUP1 SWAP2 SUB SWAP1 REVERT JUMPDEST PUSH2 0xB8B DUP3 DUP3 PUSH2 0x1B01 JUMP JUMPDEST POP POP JUMP JUMPDEST PUSH1 0x1 SLOAD DUP2 JUMP JUMPDEST PUSH1 0x0 DUP5 GT PUSH2 0xBD8 JUMPI PUSH1 0x40 MLOAD PUSH32 0x8C379A000000000000000000000000000000000000000000000000000000000 DUP2 MSTORE PUSH1 0x4 ADD PUSH2 0xBCF SWAP1 PUSH2 0x2877 JUMP JUMPDEST PUSH1 0x40 MLOAD DUP1 SWAP2 SUB SWAP1 REVERT JUMPDEST PUSH1 0x40 MLOAD DUP1 PUSH2 0x140 ADD PUSH1 0x40 MSTORE DUP1 PUSH1 0x1 SLOAD DUP2 MSTORE PUSH1 0x20 ADD DUP8 DUP2 MSTORE PUSH1 0x20 ADD DUP7 DUP2 MSTORE PUSH1 0x20 ADD DUP6 DUP2 MSTORE PUSH1 0x20 ADD CALLER PUSH20 0xFFFFFFFFFFFFFFFFFFFFFFFFFFFFFFFFFFFFFFFF AND DUP2 MSTORE PUSH1 0x20 ADD DUP5 DUP2 MSTORE PUSH1 0x20 ADD DUP4 PUSH1 0xFF AND DUP2 MSTORE PUSH1 0x20 ADD TIMESTAMP DUP2 MSTORE PUSH1 0x20 ADD TIMESTAMP DUP2 MSTORE PUSH1 0x20 ADD DUP3 ISZERO ISZERO DUP2 MSTORE POP PUSH1 0x3 PUSH1 0x0 PUSH1 0x1 SLOAD DUP2 MSTORE PUSH1 0x20 ADD SWAP1 DUP2 MSTORE PUSH1 0x20 ADD PUSH1 0x0 KECCAK256 PUSH1 0x0 DUP3 ADD MLOAD DUP2 PUSH1 0x0 ADD SSTORE PUSH1 0x20 DUP3 ADD MLOAD DUP2 PUSH1 0x1 ADD SWAP1 DUP1 MLOAD SWAP1 PUSH1 0x20 ADD SWAP1 PUSH2 0xC76 SWAP3 SWAP2 SWAP1 PUSH2 0x1EA6 JUMP JUMPDEST POP PUSH1 0x40 DUP3 ADD MLOAD DUP2 PUSH1 0x2 ADD SWAP1 DUP1 MLOAD SWAP1 PUSH1 0x20 ADD SWAP1 PUSH2 0xC93 SWAP3 SWAP2 SWAP1 PUSH2 0x1EA6 JUMP JUMPDEST POP PUSH1 0x60 DUP3 ADD MLOAD DUP2 PUSH1 0x3 ADD SSTORE PUSH1 0x80 DUP3 ADD MLOAD DUP2 PUSH1 0x4 ADD PUSH1 0x0 PUSH2 0x100 EXP DUP2 SLOAD DUP2 PUSH20 0xFFFFFFFFFFFFFFFFFFFFFFFFFFFFFFFFFFFFFFFF MUL NOT AND SWAP1 DUP4 PUSH20 0xFFFFFFFFFFFFFFFFFFFFFFFFFFFFFFFFFFFFFFFF AND MUL OR SWAP1 SSTORE POP PUSH1 0xA0 DUP3 ADD MLOAD DUP2 PUSH1 0x5 ADD SWAP1 DUP1 MLOAD SWAP1 PUSH1 0x20 ADD SWAP1 PUSH2 0xD01 SWAP3 SWAP2 SWAP1 PUSH2 0x1EA6 JUMP JUMPDEST POP PUSH1 0xC0 DUP3 ADD MLOAD DUP2 PUSH1 0x6 ADD PUSH1 0x0 PUSH2 0x100 EXP DUP2 SLOAD DUP2 PUSH1 0xFF MUL NOT AND SWAP1 DUP4 PUSH1 0xFF AND MUL OR SWAP1 SSTORE POP PUSH1 0xE0 DUP3 ADD MLOAD DUP2 PUSH1 0x7 ADD SSTORE PUSH2 0x100 DUP3 ADD MLOAD DUP2 PUSH1 0x8 ADD SSTORE PUSH2 0x120 DUP3 ADD MLOAD DUP2 PUSH1 0x9 ADD PUSH1 0x0 PUSH2 0x100 EXP DUP2 SLOAD DUP2 PUSH1 0xFF MUL NOT AND SWAP1 DUP4 ISZERO ISZERO MUL OR SWAP1 SSTORE POP SWAP1 POP POP PUSH1 0x1 PUSH1 0x0 DUP2 SLOAD DUP1 SWAP3 SWAP2 SWAP1 PUSH2 0xD6F SWAP1 PUSH2 0x2C4B JUMP JUMPDEST SWAP2 SWAP1 POP SSTORE POP POP POP POP POP POP POP JUMP JUMPDEST PUSH1 0x0 DUP1 PUSH1 0x0 SWAP1 POP PUSH1 0x0 DUP1 JUMPDEST PUSH1 0x2 PUSH1 0x0 DUP7 DUP2 MSTORE PUSH1 0x20 ADD SWAP1 DUP2 MSTORE PUSH1 0x20 ADD PUSH1 0x0 KECCAK256 DUP1 SLOAD SWAP1 POP DUP2 LT ISZERO PUSH2 0xEF2 JUMPI PUSH1 0x0 PUSH1 0x2 PUSH1 0x0 DUP8 DUP2 MSTORE PUSH1 0x20 ADD SWAP1 DUP2 MSTORE PUSH1 0x20 ADD PUSH1 0x0 KECCAK256 DUP3 DUP2 SLOAD DUP2 LT PUSH2 0xDCC JUMPI PUSH2 0xDCB PUSH2 0x2D21 JUMP JUMPDEST JUMPDEST SWAP1 PUSH1 0x0 MSTORE PUSH1 0x20 PUSH1 0x0 KECCAK256 ADD PUSH1 0x0 SWAP1 SLOAD SWAP1 PUSH2 0x100 EXP SWAP1 DIV PUSH20 0xFFFFFFFFFFFFFFFFFFFFFFFFFFFFFFFFFFFFFFFF AND SWAP1 POP PUSH1 0x0 PUSH1 0x4 PUSH1 0x0 DUP4 PUSH20 0xFFFFFFFFFFFFFFFFFFFFFFFFFFFFFFFFFFFFFFFF AND PUSH20 0xFFFFFFFFFFFFFFFFFFFFFFFFFFFFFFFFFFFFFFFF AND DUP2 MSTORE PUSH1 0x20 ADD SWAP1 DUP2 MSTORE PUSH1 0x20 ADD PUSH1 0x0 KECCAK256 PUSH1 0x0 DUP9 DUP2 MSTORE PUSH1 0x20 ADD SWAP1 DUP2 MSTORE PUSH1 0x20 ADD PUSH1 0x0 KECCAK256 PUSH1 0x0 SWAP1 SLOAD SWAP1 PUSH2 0x100 EXP SWAP1 DIV PUSH1 0xFF AND PUSH1 0xFF AND EQ PUSH2 0xEDE JUMPI PUSH1 0x4 PUSH1 0x0 DUP3 PUSH20 0xFFFFFFFFFFFFFFFFFFFFFFFFFFFFFFFFFFFFFFFF AND PUSH20 0xFFFFFFFFFFFFFFFFFFFFFFFFFFFFFFFFFFFFFFFF AND DUP2 MSTORE PUSH1 0x20 ADD SWAP1 DUP2 MSTORE PUSH1 0x20 ADD PUSH1 0x0 KECCAK256 PUSH1 0x0 DUP8 DUP2 MSTORE PUSH1 0x20 ADD SWAP1 DUP2 MSTORE PUSH1 0x20 ADD PUSH1 0x0 KECCAK256 PUSH1 0x0 SWAP1 SLOAD SWAP1 PUSH2 0x100 EXP SWAP1 DIV PUSH1 0xFF AND PUSH1 0xFF AND DUP5 PUSH2 0xECD SWAP2 SWAP1 PUSH2 0x2994 JUMP JUMPDEST SWAP4 POP DUP3 DUP1 PUSH2 0xEDA SWAP1 PUSH2 0x2C4B JUMP JUMPDEST SWAP4 POP POP JUMPDEST POP DUP1 DUP1 PUSH2 0xEEA SWAP1 PUSH2 0x2C4B JUMP JUMPDEST SWAP2 POP POP PUSH2 0xD87 JUMP JUMPDEST POP DUP1 PUSH1 0x64 DUP4 PUSH2 0xF01 SWAP2 SWAP1 PUSH2 0x2A1B JUMP JUMPDEST PUSH2 0xF0B SWAP2 SWAP1 PUSH2 0x29EA JUMP JUMPDEST SWAP3 POP POP POP SWAP2 SWAP1 POP JUMP JUMPDEST PUSH1 0x60 DUP1 PUSH1 0x0 DUP1 PUSH1 0x0 DUP1 PUSH1 0x3 PUSH1 0x0 DUP9 DUP2 MSTORE PUSH1 0x20 ADD SWAP1 DUP2 MSTORE PUSH1 0x20 ADD PUSH1 0x0 KECCAK256 PUSH1 0x40 MLOAD DUP1 PUSH2 0x140 ADD PUSH1 0x40 MSTORE SWAP1 DUP2 PUSH1 0x0 DUP3 ADD SLOAD DUP2 MSTORE PUSH1 0x20 ADD PUSH1 0x1 DUP3 ADD DUP1 SLOAD PUSH2 0xF56 SWAP1 PUSH2 0x2BE8 JUMP JUMPDEST DUP1 PUSH1 0x1F ADD PUSH1 0x20 DUP1 SWAP2 DIV MUL PUSH1 0x20 ADD PUSH1 0x40 MLOAD SWAP1 DUP2 ADD PUSH1 0x40 MSTORE DUP1 SWAP3 SWAP2 SWAP1 DUP2 DUP2 MSTORE PUSH1 0x20 ADD DUP3 DUP1 SLOAD PUSH2 0xF82 SWAP1 PUSH2 0x2BE8 JUMP JUMPDEST DUP1 ISZERO PUSH2 0xFCF JUMPI DUP1 PUSH1 0x1F LT PUSH2 0xFA4 JUMPI PUSH2 0x100 DUP1 DUP4 SLOAD DIV MUL DUP4 MSTORE SWAP2 PUSH1 0x20 ADD SWAP2 PUSH2 0xFCF JUMP JUMPDEST DUP3 ADD SWAP2 SWAP1 PUSH1 0x0 MSTORE PUSH1 0x20 PUSH1 0x0 KECCAK256 SWAP1 JUMPDEST DUP2 SLOAD DUP2 MSTORE SWAP1 PUSH1 0x1 ADD SWAP1 PUSH1 0x20 ADD DUP1 DUP4 GT PUSH2 0xFB2 JUMPI DUP3 SWAP1 SUB PUSH1 0x1F AND DUP3 ADD SWAP2 JUMPDEST POP POP POP POP POP DUP2 MSTORE PUSH1 0x20 ADD PUSH1 0x2 DUP3 ADD DUP1 SLOAD PUSH2 0xFE8 SWAP1 PUSH2 0x2BE8 JUMP JUMPDEST DUP1 PUSH1 0x1F ADD PUSH1 0x20 DUP1 SWAP2 DIV MUL PUSH1 0x20 ADD PUSH1 0x40 MLOAD SWAP1 DUP2 ADD PUSH1 0x40 MSTORE DUP1 SWAP3 SWAP2 SWAP1 DUP2 DUP2 MSTORE PUSH1 0x20 ADD DUP3 DUP1 SLOAD PUSH2 0x1014 SWAP1 PUSH2 0x2BE8 JUMP JUMPDEST DUP1 ISZERO PUSH2 0x1061 JUMPI DUP1 PUSH1 0x1F LT PUSH2 0x1036 JUMPI PUSH2 0x100 DUP1 DUP4 SLOAD DIV MUL DUP4 MSTORE SWAP2 PUSH1 0x20 ADD SWAP2 PUSH2 0x1061 JUMP JUMPDEST DUP3 ADD SWAP2 SWAP1 PUSH1 0x0 MSTORE PUSH1 0x20 PUSH1 0x0 KECCAK256 SWAP1 JUMPDEST DUP2 SLOAD DUP2 MSTORE SWAP1 PUSH1 0x1 ADD SWAP1 PUSH1 0x20 ADD DUP1 DUP4 GT PUSH2 0x1044 JUMPI DUP3 SWAP1 SUB PUSH1 0x1F AND DUP3 ADD SWAP2 JUMPDEST POP POP POP POP POP DUP2 MSTORE PUSH1 0x20 ADD PUSH1 0x3 DUP3 ADD SLOAD DUP2 MSTORE PUSH1 0x20 ADD PUSH1 0x4 DUP3 ADD PUSH1 0x0 SWAP1 SLOAD SWAP1 PUSH2 0x100 EXP SWAP1 DIV PUSH20 0xFFFFFFFFFFFFFFFFFFFFFFFFFFFFFFFFFFFFFFFF AND PUSH20 0xFFFFFFFFFFFFFFFFFFFFFFFFFFFFFFFFFFFFFFFF AND PUSH20 0xFFFFFFFFFFFFFFFFFFFFFFFFFFFFFFFFFFFFFFFF AND DUP2 MSTORE PUSH1 0x20 ADD PUSH1 0x5 DUP3 ADD DUP1 SLOAD PUSH2 0x10DA SWAP1 PUSH2 0x2BE8 JUMP JUMPDEST DUP1 PUSH1 0x1F ADD PUSH1 0x20 DUP1 SWAP2 DIV MUL PUSH1 0x20 ADD PUSH1 0x40 MLOAD SWAP1 DUP2 ADD PUSH1 0x40 MSTORE DUP1 SWAP3 SWAP2 SWAP1 DUP2 DUP2 MSTORE PUSH1 0x20 ADD DUP3 DUP1 SLOAD PUSH2 0x1106 SWAP1 PUSH2 0x2BE8 JUMP JUMPDEST DUP1 ISZERO PUSH2 0x1153 JUMPI DUP1 PUSH1 0x1F LT PUSH2 0x1128 JUMPI PUSH2 0x100 DUP1 DUP4 SLOAD DIV MUL DUP4 MSTORE SWAP2 PUSH1 0x20 ADD SWAP2 PUSH2 0x1153 JUMP JUMPDEST DUP3 ADD SWAP2 SWAP1 PUSH1 0x0 MSTORE PUSH1 0x20 PUSH1 0x0 KECCAK256 SWAP1 JUMPDEST DUP2 SLOAD DUP2 MSTORE SWAP1 PUSH1 0x1 ADD SWAP1 PUSH1 0x20 ADD DUP1 DUP4 GT PUSH2 0x1136 JUMPI DUP3 SWAP1 SUB PUSH1 0x1F AND DUP3 ADD SWAP2 JUMPDEST POP POP POP POP POP DUP2 MSTORE PUSH1 0x20 ADD PUSH1 0x6 DUP3 ADD PUSH1 0x0 SWAP1 SLOAD SWAP1 PUSH2 0x100 EXP SWAP1 DIV PUSH1 0xFF AND PUSH1 0xFF AND PUSH1 0xFF AND DUP2 MSTORE PUSH1 0x20 ADD PUSH1 0x7 DUP3 ADD SLOAD DUP2 MSTORE PUSH1 0x20 ADD PUSH1 0x8 DUP3 ADD SLOAD DUP2 MSTORE PUSH1 0x20 ADD PUSH1 0x9 DUP3 ADD PUSH1 0x0 SWAP1 SLOAD SWAP1 PUSH2 0x100 EXP SWAP1 DIV PUSH1 0xFF AND ISZERO ISZERO ISZERO ISZERO DUP2 MSTORE POP POP SWAP1 POP DUP1 PUSH1 0x40 ADD MLOAD DUP2 PUSH1 0xA0 ADD MLOAD DUP3 PUSH1 0xC0 ADD MLOAD DUP4 PUSH1 0xE0 ADD MLOAD DUP5 PUSH2 0x100 ADD MLOAD SWAP6 POP SWAP6 POP SWAP6 POP SWAP6 POP SWAP6 POP POP SWAP2 SWAP4 SWAP6 SWAP1 SWAP3 SWAP5 POP JUMP JUMPDEST DUP2 PUSH1 0x3 PUSH1 0x0 DUP3 DUP2 MSTORE PUSH1 0x20 ADD SWAP1 DUP2 MSTORE PUSH1 0x20 ADD PUSH1 0x0 KECCAK256 PUSH1 0x4 ADD PUSH1 0x0 SWAP1 SLOAD SWAP1 PUSH2 0x100 EXP SWAP1 DIV PUSH20 0xFFFFFFFFFFFFFFFFFFFFFFFFFFFFFFFFFFFFFFFF AND PUSH20 0xFFFFFFFFFFFFFFFFFFFFFFFFFFFFFFFFFFFFFFFF AND CALLER PUSH20 0xFFFFFFFFFFFFFFFFFFFFFFFFFFFFFFFFFFFFFFFF AND EQ PUSH2 0x127D JUMPI PUSH1 0x40 MLOAD PUSH32 0x8C379A000000000000000000000000000000000000000000000000000000000 DUP2 MSTORE PUSH1 0x4 ADD PUSH2 0x1274 SWAP1 PUSH2 0x27B7 JUMP JUMPDEST PUSH1 0x40 MLOAD DUP1 SWAP2 SUB SWAP1 REVERT JUMPDEST DUP2 PUSH1 0x3 PUSH1 0x0 DUP6 DUP2 MSTORE PUSH1 0x20 ADD SWAP1 DUP2 MSTORE PUSH1 0x20 ADD PUSH1 0x0 KECCAK256 PUSH1 0x2 ADD SWAP1 DUP1 MLOAD SWAP1 PUSH1 0x20 ADD SWAP1 PUSH2 0x12A7 SWAP3 SWAP2 SWAP1 PUSH2 0x1EA6 JUMP JUMPDEST POP TIMESTAMP PUSH1 0x3 PUSH1 0x0 DUP6 DUP2 MSTORE PUSH1 0x20 ADD SWAP1 DUP2 MSTORE PUSH1 0x20 ADD PUSH1 0x0 KECCAK256 PUSH1 0x8 ADD DUP2 SWAP1 SSTORE POP POP POP POP JUMP JUMPDEST PUSH1 0x0 DUP1 PUSH1 0x0 DUP5 DUP2 MSTORE PUSH1 0x20 ADD SWAP1 DUP2 MSTORE PUSH1 0x20 ADD PUSH1 0x0 KECCAK256 PUSH1 0x0 ADD PUSH1 0x0 DUP4 PUSH20 0xFFFFFFFFFFFFFFFFFFFFFFFFFFFFFFFFFFFFFFFF AND PUSH20 0xFFFFFFFFFFFFFFFFFFFFFFFFFFFFFFFFFFFFFFFF AND DUP2 MSTORE PUSH1 0x20 ADD SWAP1 DUP2 MSTORE PUSH1 0x20 ADD PUSH1 0x0 KECCAK256 PUSH1 0x0 SWAP1 SLOAD SWAP1 PUSH2 0x100 EXP SWAP1 DIV PUSH1 0xFF AND SWAP1 POP SWAP3 SWAP2 POP POP JUMP JUMPDEST PUSH1 0x0 DUP1 SHL DUP2 JUMP JUMPDEST DUP2 PUSH1 0x3 PUSH1 0x0 DUP3 DUP2 MSTORE PUSH1 0x20 ADD SWAP1 DUP2 MSTORE PUSH1 0x20 ADD PUSH1 0x0 KECCAK256 PUSH1 0x4 ADD PUSH1 0x0 SWAP1 SLOAD SWAP1 PUSH2 0x100 EXP SWAP1 DIV PUSH20 0xFFFFFFFFFFFFFFFFFFFFFFFFFFFFFFFFFFFFFFFF AND PUSH20 0xFFFFFFFFFFFFFFFFFFFFFFFFFFFFFFFFFFFFFFFF AND CALLER PUSH20 0xFFFFFFFFFFFFFFFFFFFFFFFFFFFFFFFFFFFFFFFF AND EQ PUSH2 0x13DE JUMPI PUSH1 0x40 MLOAD PUSH32 0x8C379A000000000000000000000000000000000000000000000000000000000 DUP2 MSTORE PUSH1 0x4 ADD PUSH2 0x13D5 SWAP1 PUSH2 0x27B7 JUMP JUMPDEST PUSH1 0x40 MLOAD DUP1 SWAP2 SUB SWAP1 REVERT JUMPDEST DUP2 PUSH1 0x3 PUSH1 0x0 DUP6 DUP2 MSTORE PUSH1 0x20 ADD SWAP1 DUP2 MSTORE PUSH1 0x20 ADD PUSH1 0x0 KECCAK256 PUSH1 0x3 ADD DUP2 SWAP1 SSTORE POP TIMESTAMP PUSH1 0x3 PUSH1 0x0 DUP6 DUP2 MSTORE PUSH1 0x20 ADD SWAP1 DUP2 MSTORE PUSH1 0x20 ADD PUSH1 0x0 KECCAK256 PUSH1 0x8 ADD DUP2 SWAP1 SSTORE POP POP POP POP JUMP JUMPDEST PUSH32 0x1F9CA85E780B3B3CFBE1334CA9DD68802DB7860F692BD163C796BB76D464EDC0 DUP2 JUMP JUMPDEST DUP2 PUSH1 0x3 PUSH1 0x0 DUP3 DUP2 MSTORE PUSH1 0x20 ADD SWAP1 DUP2 MSTORE PUSH1 0x20 ADD PUSH1 0x0 KECCAK256 PUSH1 0x4 ADD PUSH1 0x0 SWAP1 SLOAD SWAP1 PUSH2 0x100 EXP SWAP1 DIV PUSH20 0xFFFFFFFFFFFFFFFFFFFFFFFFFFFFFFFFFFFFFFFF AND PUSH20 0xFFFFFFFFFFFFFFFFFFFFFFFFFFFFFFFFFFFFFFFF AND CALLER PUSH20 0xFFFFFFFFFFFFFFFFFFFFFFFFFFFFFFFFFFFFFFFF AND EQ PUSH2 0x14E2 JUMPI PUSH1 0x40 MLOAD PUSH32 0x8C379A000000000000000000000000000000000000000000000000000000000 DUP2 MSTORE PUSH1 0x4 ADD PUSH2 0x14D9 SWAP1 PUSH2 0x27B7 JUMP JUMPDEST PUSH1 0x40 MLOAD DUP1 SWAP2 SUB SWAP1 REVERT JUMPDEST DUP2 PUSH1 0x3 PUSH1 0x0 DUP6 DUP2 MSTORE PUSH1 0x20 ADD SWAP1 DUP2 MSTORE PUSH1 0x20 ADD PUSH1 0x0 KECCAK256 PUSH1 0x9 ADD PUSH1 0x0 PUSH2 0x100 EXP DUP2 SLOAD DUP2 PUSH1 0xFF MUL NOT AND SWAP1 DUP4 ISZERO ISZERO MUL OR SWAP1 SSTORE POP TIMESTAMP PUSH1 0x3 PUSH1 0x0 DUP6 DUP2 MSTORE PUSH1 0x20 ADD SWAP1 DUP2 MSTORE PUSH1 0x20 ADD PUSH1 0x0 KECCAK256 PUSH1 0x8 ADD DUP2 SWAP1 SSTORE POP POP POP POP JUMP JUMPDEST PUSH1 0x60 PUSH1 0x0 DUP1 PUSH1 0x0 PUSH1 0x3 PUSH1 0x0 DUP7 DUP2 MSTORE PUSH1 0x20 ADD SWAP1 DUP2 MSTORE PUSH1 0x20 ADD PUSH1 0x0 KECCAK256 PUSH1 0x1 ADD PUSH1 0x3 PUSH1 0x0 DUP8 DUP2 MSTORE PUSH1 0x20 ADD SWAP1 DUP2 MSTORE PUSH1 0x20 ADD PUSH1 0x0 KECCAK256 PUSH1 0x4 ADD PUSH1 0x0 SWAP1 SLOAD SWAP1 PUSH2 0x100 EXP SWAP1 DIV PUSH20 0xFFFFFFFFFFFFFFFFFFFFFFFFFFFFFFFFFFFFFFFF AND PUSH1 0x3 PUSH1 0x0 DUP9 DUP2 MSTORE PUSH1 0x20 ADD SWAP1 DUP2 MSTORE PUSH1 0x20 ADD PUSH1 0x0 KECCAK256 PUSH1 0x3 ADD SLOAD PUSH1 0x3 PUSH1 0x0 DUP10 DUP2 MSTORE PUSH1 0x20 ADD SWAP1 DUP2 MSTORE PUSH1 0x20 ADD PUSH1 0x0 KECCAK256 PUSH1 0x9 ADD PUSH1 0x0 SWAP1 SLOAD SWAP1 PUSH2 0x100 EXP SWAP1 DIV PUSH1 0xFF AND DUP4 DUP1 SLOAD PUSH2 0x15CB SWAP1 PUSH2 0x2BE8 JUMP JUMPDEST DUP1 PUSH1 0x1F ADD PUSH1 0x20 DUP1 SWAP2 DIV MUL PUSH1 0x20 ADD PUSH1 0x40 MLOAD SWAP1 DUP2 ADD PUSH1 0x40 MSTORE DUP1 SWAP3 SWAP2 SWAP1 DUP2 DUP2 MSTORE PUSH1 0x20 ADD DUP3 DUP1 SLOAD PUSH2 0x15F7 SWAP1 PUSH2 0x2BE8 JUMP JUMPDEST DUP1 ISZERO PUSH2 0x1644 JUMPI DUP1 PUSH1 0x1F LT PUSH2 0x1619 JUMPI PUSH2 0x100 DUP1 DUP4 SLOAD DIV MUL DUP4 MSTORE SWAP2 PUSH1 0x20 ADD SWAP2 PUSH2 0x1644 JUMP JUMPDEST DUP3 ADD SWAP2 SWAP1 PUSH1 0x0 MSTORE PUSH1 0x20 PUSH1 0x0 KECCAK256 SWAP1 JUMPDEST DUP2 SLOAD DUP2 MSTORE SWAP1 PUSH1 0x1 ADD SWAP1 PUSH1 0x20 ADD DUP1 DUP4 GT PUSH2 0x1627 JUMPI DUP3 SWAP1 SUB PUSH1 0x1F AND DUP3 ADD SWAP2 JUMPDEST POP POP POP POP POP SWAP4 POP SWAP4 POP SWAP4 POP SWAP4 POP SWAP4 POP SWAP2 SWAP4 POP SWAP2 SWAP4 JUMP JUMPDEST PUSH2 0x1663 DUP3 PUSH2 0xAC4 JUMP JUMPDEST PUSH2 0x1674 DUP2 PUSH2 0x166F PUSH2 0x197C JUMP JUMPDEST PUSH2 0x1984 JUMP JUMPDEST PUSH2 0x167E DUP4 DUP4 PUSH2 0x1B01 JUMP JUMPDEST POP POP POP JUMP JUMPDEST DUP2 PUSH1 0x3 PUSH1 0x0 DUP3 DUP2 MSTORE PUSH1 0x20 ADD SWAP1 DUP2 MSTORE PUSH1 0x20 ADD PUSH1 0x0 KECCAK256 PUSH1 0x4 ADD PUSH1 0x0 SWAP1 SLOAD SWAP1 PUSH2 0x100 EXP SWAP1 DIV PUSH20 0xFFFFFFFFFFFFFFFFFFFFFFFFFFFFFFFFFFFFFFFF AND PUSH20 0xFFFFFFFFFFFFFFFFFFFFFFFFFFFFFFFFFFFFFFFF AND CALLER PUSH20 0xFFFFFFFFFFFFFFFFFFFFFFFFFFFFFFFFFFFFFFFF AND EQ PUSH2 0x1728 JUMPI PUSH1 0x40 MLOAD PUSH32 0x8C379A000000000000000000000000000000000000000000000000000000000 DUP2 MSTORE PUSH1 0x4 ADD PUSH2 0x171F SWAP1 PUSH2 0x27B7 JUMP JUMPDEST PUSH1 0x40 MLOAD DUP1 SWAP2 SUB SWAP1 REVERT JUMPDEST DUP2 PUSH1 0x3 PUSH1 0x0 DUP6 DUP2 MSTORE PUSH1 0x20 ADD SWAP1 DUP2 MSTORE PUSH1 0x20 ADD PUSH1 0x0 KECCAK256 PUSH1 0x6 ADD PUSH1 0x0 PUSH2 0x100 EXP DUP2 SLOAD DUP2 PUSH1 0xFF MUL NOT AND SWAP1 DUP4 PUSH1 0xFF AND MUL OR SWAP1 SSTORE POP TIMESTAMP PUSH1 0x3 PUSH1 0x0 DUP6 DUP2 MSTORE PUSH1 0x20 ADD SWAP1 DUP2 MSTORE PUSH1 0x20 ADD PUSH1 0x0 KECCAK256 PUSH1 0x8 ADD DUP2 SWAP1 SSTORE POP POP POP POP JUMP JUMPDEST DUP2 PUSH1 0x3 PUSH1 0x0 DUP3 DUP2 MSTORE PUSH1 0x20 ADD SWAP1 DUP2 MSTORE PUSH1 0x20 ADD PUSH1 0x0 KECCAK256 PUSH1 0x4 ADD PUSH1 0x0 SWAP1 SLOAD SWAP1 PUSH2 0x100 EXP SWAP1 DIV PUSH20 0xFFFFFFFFFFFFFFFFFFFFFFFFFFFFFFFFFFFFFFFF AND PUSH20 0xFFFFFFFFFFFFFFFFFFFFFFFFFFFFFFFFFFFFFFFF AND CALLER PUSH20 0xFFFFFFFFFFFFFFFFFFFFFFFFFFFFFFFFFFFFFFFF AND EQ PUSH2 0x181C JUMPI PUSH1 0x40 MLOAD PUSH32 0x8C379A000000000000000000000000000000000000000000000000000000000 DUP2 MSTORE PUSH1 0x4 ADD PUSH2 0x1813 SWAP1 PUSH2 0x27B7 JUMP JUMPDEST PUSH1 0x40 MLOAD DUP1 SWAP2 SUB SWAP1 REVERT JUMPDEST DUP2 PUSH1 0x3 PUSH1 0x0 DUP6 DUP2 MSTORE PUSH1 0x20 ADD SWAP1 DUP2 MSTORE PUSH1 0x20 ADD PUSH1 0x0 KECCAK256 PUSH1 0x5 ADD SWAP1 DUP1 MLOAD SWAP1 PUSH1 0x20 ADD SWAP1 PUSH2 0x1846 SWAP3 SWAP2 SWAP1 PUSH2 0x1EA6 JUMP JUMPDEST POP TIMESTAMP PUSH1 0x3 PUSH1 0x0 DUP6 DUP2 MSTORE PUSH1 0x20 ADD SWAP1 DUP2 MSTORE PUSH1 0x20 ADD PUSH1 0x0 KECCAK256 PUSH1 0x8 ADD DUP2 SWAP1 SSTORE POP POP POP POP JUMP JUMPDEST PUSH1 0x0 PUSH2 0x190A PUSH1 0x2 PUSH1 0x0 DUP6 DUP2 MSTORE PUSH1 0x20 ADD SWAP1 DUP2 MSTORE PUSH1 0x20 ADD PUSH1 0x0 KECCAK256 DUP1 SLOAD DUP1 PUSH1 0x20 MUL PUSH1 0x20 ADD PUSH1 0x40 MLOAD SWAP1 DUP2 ADD PUSH1 0x40 MSTORE DUP1 SWAP3 SWAP2 SWAP1 DUP2 DUP2 MSTORE PUSH1 0x20 ADD DUP3 DUP1 SLOAD DUP1 ISZERO PUSH2 0x18FF JUMPI PUSH1 0x20 MUL DUP3 ADD SWAP2 SWAP1 PUSH1 0x0 MSTORE PUSH1 0x20 PUSH1 0x0 KECCAK256 SWAP1 JUMPDEST DUP2 PUSH1 0x0 SWAP1 SLOAD SWAP1 PUSH2 0x100 EXP SWAP1 DIV PUSH20 0xFFFFFFFFFFFFFFFFFFFFFFFFFFFFFFFFFFFFFFFF AND PUSH20 0xFFFFFFFFFFFFFFFFFFFFFFFFFFFFFFFFFFFFFFFF AND DUP2 MSTORE PUSH1 0x20 ADD SWAP1 PUSH1 0x1 ADD SWAP1 DUP1 DUP4 GT PUSH2 0x18B5 JUMPI JUMPDEST POP POP POP POP POP DUP4 PUSH2 0x1BE2 JUMP JUMPDEST SWAP1 POP SWAP3 SWAP2 POP POP JUMP JUMPDEST PUSH1 0x0 PUSH32 0x1FFC9A700000000000000000000000000000000000000000000000000000000 PUSH28 0xFFFFFFFFFFFFFFFFFFFFFFFFFFFFFFFFFFFFFFFFFFFFFFFFFFFFFFFF NOT AND DUP3 PUSH28 0xFFFFFFFFFFFFFFFFFFFFFFFFFFFFFFFFFFFFFFFFFFFFFFFFFFFFFFFF NOT AND EQ SWAP1 POP SWAP2 SWAP1 POP JUMP JUMPDEST PUSH1 0x0 CALLER SWAP1 POP SWAP1 JUMP JUMPDEST PUSH2 0x198E DUP3 DUP3 PUSH2 0x12C8 JUMP JUMPDEST PUSH2 0x1A1D JUMPI PUSH2 0x19B3 DUP2 PUSH20 0xFFFFFFFFFFFFFFFFFFFFFFFFFFFFFFFFFFFFFFFF AND PUSH1 0x14 PUSH2 0x1C6A JUMP JUMPDEST PUSH2 0x19C1 DUP4 PUSH1 0x0 SHR PUSH1 0x20 PUSH2 0x1C6A JUMP JUMPDEST PUSH1 0x40 MLOAD PUSH1 0x20 ADD PUSH2 0x19D2 SWAP3 SWAP2 SWAP1 PUSH2 0x25F8 JUMP JUMPDEST PUSH1 0x40 MLOAD PUSH1 0x20 DUP2 DUP4 SUB SUB DUP2 MSTORE SWAP1 PUSH1 0x40 MSTORE PUSH1 0x40 MLOAD PUSH32 0x8C379A000000000000000000000000000000000000000000000000000000000 DUP2 MSTORE PUSH1 0x4 ADD PUSH2 0x1A14 SWAP2 SWAP1 PUSH2 0x2668 JUMP JUMPDEST PUSH1 0x40 MLOAD DUP1 SWAP2 SUB SWAP1 REVERT JUMPDEST POP POP JUMP JUMPDEST PUSH2 0x1A2B DUP3 DUP3 PUSH2 0x12C8 JUMP JUMPDEST PUSH2 0x1AFD JUMPI PUSH1 0x1 PUSH1 0x0 DUP1 DUP5 DUP2 MSTORE PUSH1 0x20 ADD SWAP1 DUP2 MSTORE PUSH1 0x20 ADD PUSH1 0x0 KECCAK256 PUSH1 0x0 ADD PUSH1 0x0 DUP4 PUSH20 0xFFFFFFFFFFFFFFFFFFFFFFFFFFFFFFFFFFFFFFFF AND PUSH20 0xFFFFFFFFFFFFFFFFFFFFFFFFFFFFFFFFFFFFFFFF AND DUP2 MSTORE PUSH1 0x20 ADD SWAP1 DUP2 MSTORE PUSH1 0x20 ADD PUSH1 0x0 KECCAK256 PUSH1 0x0 PUSH2 0x100 EXP DUP2 SLOAD DUP2 PUSH1 0xFF MUL NOT AND SWAP1 DUP4 ISZERO ISZERO MUL OR SWAP1 SSTORE POP PUSH2 0x1AA2 PUSH2 0x197C JUMP JUMPDEST PUSH20 0xFFFFFFFFFFFFFFFFFFFFFFFFFFFFFFFFFFFFFFFF AND DUP2 PUSH20 0xFFFFFFFFFFFFFFFFFFFFFFFFFFFFFFFFFFFFFFFF AND DUP4 PUSH32 0x2F8788117E7EFF1D82E926EC794901D17C78024A50270940304540A733656F0D PUSH1 0x40 MLOAD PUSH1 0x40 MLOAD DUP1 SWAP2 SUB SWAP1 LOG4 JUMPDEST POP POP JUMP JUMPDEST PUSH2 0x1B0B DUP3 DUP3 PUSH2 0x12C8 JUMP JUMPDEST ISZERO PUSH2 0x1BDE JUMPI PUSH1 0x0 DUP1 PUSH1 0x0 DUP5 DUP2 MSTORE PUSH1 0x20 ADD SWAP1 DUP2 MSTORE PUSH1 0x20 ADD PUSH1 0x0 KECCAK256 PUSH1 0x0 ADD PUSH1 0x0 DUP4 PUSH20 0xFFFFFFFFFFFFFFFFFFFFFFFFFFFFFFFFFFFFFFFF AND PUSH20 0xFFFFFFFFFFFFFFFFFFFFFFFFFFFFFFFFFFFFFFFF AND DUP2 MSTORE PUSH1 0x20 ADD SWAP1 DUP2 MSTORE PUSH1 0x20 ADD PUSH1 0x0 KECCAK256 PUSH1 0x0 PUSH2 0x100 EXP DUP2 SLOAD DUP2 PUSH1 0xFF MUL NOT AND SWAP1 DUP4 ISZERO ISZERO MUL OR SWAP1 SSTORE POP PUSH2 0x1B83 PUSH2 0x197C JUMP JUMPDEST PUSH20 0xFFFFFFFFFFFFFFFFFFFFFFFFFFFFFFFFFFFFFFFF AND DUP2 PUSH20 0xFFFFFFFFFFFFFFFFFFFFFFFFFFFFFFFFFFFFFFFF AND DUP4 PUSH32 0xF6391F5C32D9C69D2A47EA670B442974B53935D1EDC7FD64EB21E047A839171B PUSH1 0x40 MLOAD PUSH1 0x40 MLOAD DUP1 SWAP2 SUB SWAP1 LOG4 JUMPDEST POP POP JUMP JUMPDEST PUSH1 0x0 DUP1 PUSH1 0x0 SWAP1 POP JUMPDEST DUP4 MLOAD DUP2 LT ISZERO PUSH2 0x1C5E JUMPI DUP3 PUSH20 0xFFFFFFFFFFFFFFFFFFFFFFFFFFFFFFFFFFFFFFFF AND DUP5 DUP3 DUP2 MLOAD DUP2 LT PUSH2 0x1C1D JUMPI PUSH2 0x1C1C PUSH2 0x2D21 JUMP JUMPDEST JUMPDEST PUSH1 0x20 MUL PUSH1 0x20 ADD ADD MLOAD PUSH20 0xFFFFFFFFFFFFFFFFFFFFFFFFFFFFFFFFFFFFFFFF AND EQ ISZERO PUSH2 0x1C4B JUMPI PUSH1 0x1 SWAP2 POP POP PUSH2 0x1C64 JUMP JUMPDEST DUP1 DUP1 PUSH2 0x1C56 SWAP1 PUSH2 0x2C4B JUMP JUMPDEST SWAP2 POP POP PUSH2 0x1BEA JUMP JUMPDEST POP PUSH1 0x0 SWAP1 POP JUMPDEST SWAP3 SWAP2 POP POP JUMP JUMPDEST PUSH1 0x60 PUSH1 0x0 PUSH1 0x2 DUP4 PUSH1 0x2 PUSH2 0x1C7D SWAP2 SWAP1 PUSH2 0x2A1B JUMP JUMPDEST PUSH2 0x1C87 SWAP2 SWAP1 PUSH2 0x2994 JUMP JUMPDEST PUSH8 0xFFFFFFFFFFFFFFFF DUP2 GT ISZERO PUSH2 0x1CA0 JUMPI PUSH2 0x1C9F PUSH2 0x2D50 JUMP JUMPDEST JUMPDEST PUSH1 0x40 MLOAD SWAP1 DUP1 DUP3 MSTORE DUP1 PUSH1 0x1F ADD PUSH1 0x1F NOT AND PUSH1 0x20 ADD DUP3 ADD PUSH1 0x40 MSTORE DUP1 ISZERO PUSH2 0x1CD2 JUMPI DUP2 PUSH1 0x20 ADD PUSH1 0x1 DUP3 MUL DUP1 CALLDATASIZE DUP4 CALLDATACOPY DUP1 DUP3 ADD SWAP2 POP POP SWAP1 POP JUMPDEST POP SWAP1 POP PUSH32 0x3000000000000000000000000000000000000000000000000000000000000000 DUP2 PUSH1 0x0 DUP2 MLOAD DUP2 LT PUSH2 0x1D0A JUMPI PUSH2 0x1D09 PUSH2 0x2D21 JUMP JUMPDEST JUMPDEST PUSH1 0x20 ADD ADD SWAP1 PUSH31 0xFFFFFFFFFFFFFFFFFFFFFFFFFFFFFFFFFFFFFFFFFFFFFFFFFFFFFFFFFFFFFF NOT AND SWAP1 DUP2 PUSH1 0x0 BYTE SWAP1 MSTORE8 POP PUSH32 0x7800000000000000000000000000000000000000000000000000000000000000 DUP2 PUSH1 0x1 DUP2 MLOAD DUP2 LT PUSH2 0x1D6E JUMPI PUSH2 0x1D6D PUSH2 0x2D21 JUMP JUMPDEST JUMPDEST PUSH1 0x20 ADD ADD SWAP1 PUSH31 0xFFFFFFFFFFFFFFFFFFFFFFFFFFFFFFFFFFFFFFFFFFFFFFFFFFFFFFFFFFFFFF NOT AND SWAP1 DUP2 PUSH1 0x0 BYTE SWAP1 MSTORE8 POP PUSH1 0x0 PUSH1 0x1 DUP5 PUSH1 0x2 PUSH2 0x1DAE SWAP2 SWAP1 PUSH2 0x2A1B JUMP JUMPDEST PUSH2 0x1DB8 SWAP2 SWAP1 PUSH2 0x2994 JUMP JUMPDEST SWAP1 POP JUMPDEST PUSH1 0x1 DUP2 GT ISZERO PUSH2 0x1E58 JUMPI PUSH32 0x3031323334353637383961626364656600000000000000000000000000000000 PUSH1 0xF DUP7 AND PUSH1 0x10 DUP2 LT PUSH2 0x1DFA JUMPI PUSH2 0x1DF9 PUSH2 0x2D21 JUMP JUMPDEST JUMPDEST BYTE PUSH1 0xF8 SHL DUP3 DUP3 DUP2 MLOAD DUP2 LT PUSH2 0x1E11 JUMPI PUSH2 0x1E10 PUSH2 0x2D21 JUMP JUMPDEST JUMPDEST PUSH1 0x20 ADD ADD SWAP1 PUSH31 0xFFFFFFFFFFFFFFFFFFFFFFFFFFFFFFFFFFFFFFFFFFFFFFFFFFFFFFFFFFFFFF NOT AND SWAP1 DUP2 PUSH1 0x0 BYTE SWAP1 MSTORE8 POP PUSH1 0x4 DUP6 SWAP1 SHR SWAP5 POP DUP1 PUSH2 0x1E51 SWAP1 PUSH2 0x2BBE JUMP JUMPDEST SWAP1 POP PUSH2 0x1DBB JUMP JUMPDEST POP PUSH1 0x0 DUP5 EQ PUSH2 0x1E9C JUMPI PUSH1 0x40 MLOAD PUSH32 0x8C379A000000000000000000000000000000000000000000000000000000000 DUP2 MSTORE PUSH1 0x4 ADD PUSH2 0x1E93 SWAP1 PUSH2 0x2777 JUMP JUMPDEST PUSH1 0x40 MLOAD DUP1 SWAP2 SUB SWAP1 REVERT JUMPDEST DUP1 SWAP2 POP POP SWAP3 SWAP2 POP POP JUMP JUMPDEST DUP3 DUP1 SLOAD PUSH2 0x1EB2 SWAP1 PUSH2 0x2BE8 JUMP JUMPDEST SWAP1 PUSH1 0x0 MSTORE PUSH1 0x20 PUSH1 0x0 KECCAK256 SWAP1 PUSH1 0x1F ADD PUSH1 0x20 SWAP1 DIV DUP2 ADD SWAP3 DUP3 PUSH2 0x1ED4 JUMPI PUSH1 0x0 DUP6 SSTORE PUSH2 0x1F1B JUMP JUMPDEST DUP3 PUSH1 0x1F LT PUSH2 0x1EED JUMPI DUP1 MLOAD PUSH1 0xFF NOT AND DUP4 DUP1 ADD OR DUP6 SSTORE PUSH2 0x1F1B JUMP JUMPDEST DUP3 DUP1 ADD PUSH1 0x1 ADD DUP6 SSTORE DUP3 ISZERO PUSH2 0x1F1B JUMPI SWAP2 DUP3 ADD JUMPDEST DUP3 DUP2 GT ISZERO PUSH2 0x1F1A JUMPI DUP3 MLOAD DUP3 SSTORE SWAP2 PUSH1 0x20 ADD SWAP2 SWAP1 PUSH1 0x1 ADD SWAP1 PUSH2 0x1EFF JUMP JUMPDEST JUMPDEST POP SWAP1 POP PUSH2 0x1F28 SWAP2 SWAP1 PUSH2 0x1F2C JUMP JUMPDEST POP SWAP1 JUMP JUMPDEST JUMPDEST DUP1 DUP3 GT ISZERO PUSH2 0x1F45 JUMPI PUSH1 0x0 DUP2 PUSH1 0x0 SWAP1 SSTORE POP PUSH1 0x1 ADD PUSH2 0x1F2D JUMP JUMPDEST POP SWAP1 JUMP JUMPDEST PUSH1 0x0 PUSH2 0x1F5C PUSH2 0x1F57 DUP5 PUSH2 0x293C JUMP JUMPDEST PUSH2 0x2917 JUMP JUMPDEST SWAP1 POP DUP3 DUP2 MSTORE PUSH1 0x20 DUP2 ADD DUP5 DUP5 DUP5 ADD GT ISZERO PUSH2 0x1F78 JUMPI PUSH2 0x1F77 PUSH2 0x2D84 JUMP JUMPDEST JUMPDEST PUSH2 0x1F83 DUP5 DUP3 DUP6 PUSH2 0x2B7C JUMP JUMPDEST POP SWAP4 SWAP3 POP POP POP JUMP JUMPDEST PUSH1 0x0 DUP2 CALLDATALOAD SWAP1 POP PUSH2 0x1F9A DUP2 PUSH2 0x30C6 JUMP JUMPDEST SWAP3 SWAP2 POP POP JUMP JUMPDEST PUSH1 0x0 DUP2 CALLDATALOAD SWAP1 POP PUSH2 0x1FAF DUP2 PUSH2 0x30DD JUMP JUMPDEST SWAP3 SWAP2 POP POP JUMP JUMPDEST PUSH1 0x0 DUP2 CALLDATALOAD SWAP1 POP PUSH2 0x1FC4 DUP2 PUSH2 0x30F4 JUMP JUMPDEST SWAP3 SWAP2 POP POP JUMP JUMPDEST PUSH1 0x0 DUP2 CALLDATALOAD SWAP1 POP PUSH2 0x1FD9 DUP2 PUSH2 0x310B JUMP JUMPDEST SWAP3 SWAP2 POP POP JUMP JUMPDEST PUSH1 0x0 DUP3 PUSH1 0x1F DUP4 ADD SLT PUSH2 0x1FF4 JUMPI PUSH2 0x1FF3 PUSH2 0x2D7F JUMP JUMPDEST JUMPDEST DUP2 CALLDATALOAD PUSH2 0x2004 DUP5 DUP3 PUSH1 0x20 DUP7 ADD PUSH2 0x1F49 JUMP JUMPDEST SWAP2 POP POP SWAP3 SWAP2 POP POP JUMP JUMPDEST PUSH1 0x0 DUP2 CALLDATALOAD SWAP1 POP PUSH2 0x201C DUP2 PUSH2 0x3122 JUMP JUMPDEST SWAP3 SWAP2 POP POP JUMP JUMPDEST PUSH1 0x0 DUP2 CALLDATALOAD SWAP1 POP PUSH2 0x2031 DUP2 PUSH2 0x3139 JUMP JUMPDEST SWAP3 SWAP2 POP POP JUMP JUMPDEST PUSH1 0x0 PUSH1 0x20 DUP3 DUP5 SUB SLT ISZERO PUSH2 0x204D JUMPI PUSH2 0x204C PUSH2 0x2D8E JUMP JUMPDEST JUMPDEST PUSH1 0x0 PUSH2 0x205B DUP5 DUP3 DUP6 ADD PUSH2 0x1FB5 JUMP JUMPDEST SWAP2 POP POP SWAP3 SWAP2 POP POP JUMP JUMPDEST PUSH1 0x0 DUP1 PUSH1 0x40 DUP4 DUP6 SUB SLT ISZERO PUSH2 0x207B JUMPI PUSH2 0x207A PUSH2 0x2D8E JUMP JUMPDEST JUMPDEST PUSH1 0x0 PUSH2 0x2089 DUP6 DUP3 DUP7 ADD PUSH2 0x1FB5 JUMP JUMPDEST SWAP3 POP POP PUSH1 0x20 PUSH2 0x209A DUP6 DUP3 DUP7 ADD PUSH2 0x1F8B JUMP JUMPDEST SWAP2 POP POP SWAP3 POP SWAP3 SWAP1 POP JUMP JUMPDEST PUSH1 0x0 PUSH1 0x20 DUP3 DUP5 SUB SLT ISZERO PUSH2 0x20BA JUMPI PUSH2 0x20B9 PUSH2 0x2D8E JUMP JUMPDEST JUMPDEST PUSH1 0x0 PUSH2 0x20C8 DUP5 DUP3 DUP6 ADD PUSH2 0x1FCA JUMP JUMPDEST SWAP2 POP POP SWAP3 SWAP2 POP POP JUMP JUMPDEST PUSH1 0x0 DUP1 PUSH1 0x0 DUP1 PUSH1 0x0 DUP1 PUSH1 0xC0 DUP8 DUP10 SUB SLT ISZERO PUSH2 0x20EE JUMPI PUSH2 0x20ED PUSH2 0x2D8E JUMP JUMPDEST JUMPDEST PUSH1 0x0 DUP8 ADD CALLDATALOAD PUSH8 0xFFFFFFFFFFFFFFFF DUP2 GT ISZERO PUSH2 0x210C JUMPI PUSH2 0x210B PUSH2 0x2D89 JUMP JUMPDEST JUMPDEST PUSH2 0x2118 DUP10 DUP3 DUP11 ADD PUSH2 0x1FDF JUMP JUMPDEST SWAP7 POP POP PUSH1 0x20 DUP8 ADD CALLDATALOAD PUSH8 0xFFFFFFFFFFFFFFFF DUP2 GT ISZERO PUSH2 0x2139 JUMPI PUSH2 0x2138 PUSH2 0x2D89 JUMP JUMPDEST JUMPDEST PUSH2 0x2145 DUP10 DUP3 DUP11 ADD PUSH2 0x1FDF JUMP JUMPDEST SWAP6 POP POP PUSH1 0x40 PUSH2 0x2156 DUP10 DUP3 DUP11 ADD PUSH2 0x200D JUMP JUMPDEST SWAP5 POP POP PUSH1 0x60 DUP8 ADD CALLDATALOAD PUSH8 0xFFFFFFFFFFFFFFFF DUP2 GT ISZERO PUSH2 0x2177 JUMPI PUSH2 0x2176 PUSH2 0x2D89 JUMP JUMPDEST JUMPDEST PUSH2 0x2183 DUP10 DUP3 DUP11 ADD PUSH2 0x1FDF JUMP JUMPDEST SWAP4 POP POP PUSH1 0x80 PUSH2 0x2194 DUP10 DUP3 DUP11 ADD PUSH2 0x2022 JUMP JUMPDEST SWAP3 POP POP PUSH1 0xA0 PUSH2 0x21A5 DUP10 DUP3 DUP11 ADD PUSH2 0x1FA0 JUMP JUMPDEST SWAP2 POP POP SWAP3 SWAP6 POP SWAP3 SWAP6 POP SWAP3 SWAP6 JUMP JUMPDEST PUSH1 0x0 PUSH1 0x20 DUP3 DUP5 SUB SLT ISZERO PUSH2 0x21C8 JUMPI PUSH2 0x21C7 PUSH2 0x2D8E JUMP JUMPDEST JUMPDEST PUSH1 0x0 PUSH2 0x21D6 DUP5 DUP3 DUP6 ADD PUSH2 0x200D JUMP JUMPDEST SWAP2 POP POP SWAP3 SWAP2 POP POP JUMP JUMPDEST PUSH1 0x0 DUP1 PUSH1 0x40 DUP4 DUP6 SUB SLT ISZERO PUSH2 0x21F6 JUMPI PUSH2 0x21F5 PUSH2 0x2D8E JUMP JUMPDEST JUMPDEST PUSH1 0x0 PUSH2 0x2204 DUP6 DUP3 DUP7 ADD PUSH2 0x200D JUMP JUMPDEST SWAP3 POP POP PUSH1 0x20 PUSH2 0x2215 DUP6 DUP3 DUP7 ADD PUSH2 0x1F8B JUMP JUMPDEST SWAP2 POP POP SWAP3 POP SWAP3 SWAP1 POP JUMP JUMPDEST PUSH1 0x0 DUP1 PUSH1 0x40 DUP4 DUP6 SUB SLT ISZERO PUSH2 0x2236 JUMPI PUSH2 0x2235 PUSH2 0x2D8E JUMP JUMPDEST JUMPDEST PUSH1 0x0 PUSH2 0x2244 DUP6 DUP3 DUP7 ADD PUSH2 0x200D JUMP JUMPDEST SWAP3 POP POP PUSH1 0x20 PUSH2 0x2255 DUP6 DUP3 DUP7 ADD PUSH2 0x1FA0 JUMP JUMPDEST SWAP2 POP POP SWAP3 POP SWAP3 SWAP1 POP JUMP JUMPDEST PUSH1 0x0 DUP1 PUSH1 0x40 DUP4 DUP6 SUB SLT ISZERO PUSH2 0x2276 JUMPI PUSH2 0x2275 PUSH2 0x2D8E JUMP JUMPDEST JUMPDEST PUSH1 0x0 PUSH2 0x2284 DUP6 DUP3 DUP7 ADD PUSH2 0x200D JUMP JUMPDEST SWAP3 POP POP PUSH1 0x20 DUP4 ADD CALLDATALOAD PUSH8 0xFFFFFFFFFFFFFFFF DUP2 GT ISZERO PUSH2 0x22A5 JUMPI PUSH2 0x22A4 PUSH2 0x2D89 JUMP JUMPDEST JUMPDEST PUSH2 0x22B1 DUP6 DUP3 DUP7 ADD PUSH2 0x1FDF JUMP JUMPDEST SWAP2 POP POP SWAP3 POP SWAP3 SWAP1 POP JUMP JUMPDEST PUSH1 0x0 DUP1 PUSH1 0x40 DUP4 DUP6 SUB SLT ISZERO PUSH2 0x22D2 JUMPI PUSH2 0x22D1 PUSH2 0x2D8E JUMP JUMPDEST JUMPDEST PUSH1 0x0 PUSH2 0x22E0 DUP6 DUP3 DUP7 ADD PUSH2 0x200D JUMP JUMPDEST SWAP3 POP POP PUSH1 0x20 PUSH2 0x22F1 DUP6 DUP3 DUP7 ADD PUSH2 0x200D JUMP JUMPDEST SWAP2 POP POP SWAP3 POP SWAP3 SWAP1 POP JUMP JUMPDEST PUSH1 0x0 DUP1 PUSH1 0x40 DUP4 DUP6 SUB SLT ISZERO PUSH2 0x2312 JUMPI PUSH2 0x2311 PUSH2 0x2D8E JUMP JUMPDEST JUMPDEST PUSH1 0x0 PUSH2 0x2320 DUP6 DUP3 DUP7 ADD PUSH2 0x200D JUMP JUMPDEST SWAP3 POP POP PUSH1 0x20 PUSH2 0x2331 DUP6 DUP3 DUP7 ADD PUSH2 0x2022 JUMP JUMPDEST SWAP2 POP POP SWAP3 POP SWAP3 SWAP1 POP JUMP JUMPDEST PUSH2 0x2344 DUP2 PUSH2 0x2B46 JUMP JUMPDEST DUP3 MSTORE POP POP JUMP JUMPDEST PUSH2 0x2353 DUP2 PUSH2 0x2ABB JUMP JUMPDEST DUP3 MSTORE POP POP JUMP JUMPDEST PUSH2 0x2362 DUP2 PUSH2 0x2AA9 JUMP JUMPDEST DUP3 MSTORE POP POP JUMP JUMPDEST PUSH2 0x2371 DUP2 PUSH2 0x2ACD JUMP JUMPDEST DUP3 MSTORE POP POP JUMP JUMPDEST PUSH2 0x2380 DUP2 PUSH2 0x2AD9 JUMP JUMPDEST DUP3 MSTORE POP POP JUMP JUMPDEST PUSH1 0x0 PUSH2 0x2391 DUP3 PUSH2 0x296D JUMP JUMPDEST PUSH2 0x239B DUP2 DUP6 PUSH2 0x2978 JUMP JUMPDEST SWAP4 POP PUSH2 0x23AB DUP2 DUP6 PUSH1 0x20 DUP7 ADD PUSH2 0x2B8B JUMP JUMPDEST PUSH2 0x23B4 DUP2 PUSH2 0x2D93 JUMP JUMPDEST DUP5 ADD SWAP2 POP POP SWAP3 SWAP2 POP POP JUMP JUMPDEST PUSH1 0x0 PUSH2 0x23CA DUP3 PUSH2 0x296D JUMP JUMPDEST PUSH2 0x23D4 DUP2 DUP6 PUSH2 0x2989 JUMP JUMPDEST SWAP4 POP PUSH2 0x23E4 DUP2 DUP6 PUSH1 0x20 DUP7 ADD PUSH2 0x2B8B JUMP JUMPDEST DUP1 DUP5 ADD SWAP2 POP POP SWAP3 SWAP2 POP POP JUMP JUMPDEST PUSH1 0x0 PUSH2 0x23FD PUSH1 0x1F DUP4 PUSH2 0x2978 JUMP JUMPDEST SWAP2 POP PUSH2 0x2408 DUP3 PUSH2 0x2DA4 JUMP JUMPDEST PUSH1 0x20 DUP3 ADD SWAP1 POP SWAP2 SWAP1 POP JUMP JUMPDEST PUSH1 0x0 PUSH2 0x2420 PUSH1 0x3D DUP4 PUSH2 0x2978 JUMP JUMPDEST SWAP2 POP PUSH2 0x242B DUP3 PUSH2 0x2DCD JUMP JUMPDEST PUSH1 0x40 DUP3 ADD SWAP1 POP SWAP2 SWAP1 POP JUMP JUMPDEST PUSH1 0x0 PUSH2 0x2443 PUSH1 0x20 DUP4 PUSH2 0x2978 JUMP JUMPDEST SWAP2 POP PUSH2 0x244E DUP3 PUSH2 0x2E1C JUMP JUMPDEST PUSH1 0x20 DUP3 ADD SWAP1 POP SWAP2 SWAP1 POP JUMP JUMPDEST PUSH1 0x0 PUSH2 0x2466 PUSH1 0x14 DUP4 PUSH2 0x2978 JUMP JUMPDEST SWAP2 POP PUSH2 0x2471 DUP3 PUSH2 0x2E45 JUMP JUMPDEST PUSH1 0x20 DUP3 ADD SWAP1 POP SWAP2 SWAP1 POP JUMP JUMPDEST PUSH1 0x0 PUSH2 0x2489 PUSH1 0x2C DUP4 PUSH2 0x2978 JUMP JUMPDEST SWAP2 POP PUSH2 0x2494 DUP3 PUSH2 0x2E6E JUMP JUMPDEST PUSH1 0x40 DUP3 ADD SWAP1 POP SWAP2 SWAP1 POP JUMP JUMPDEST PUSH1 0x0 PUSH2 0x24AC PUSH1 0x19 DUP4 PUSH2 0x2978 JUMP JUMPDEST SWAP2 POP PUSH2 0x24B7 DUP3 PUSH2 0x2EBD JUMP JUMPDEST PUSH1 0x20 DUP3 ADD SWAP1 POP SWAP2 SWAP1 POP JUMP JUMPDEST PUSH1 0x0 PUSH2 0x24CF PUSH1 0x21 DUP4 PUSH2 0x2978 JUMP JUMPDEST SWAP2 POP PUSH2 0x24DA DUP3 PUSH2 0x2EE6 JUMP JUMPDEST PUSH1 0x40 DUP3 ADD SWAP1 POP SWAP2 SWAP1 POP JUMP JUMPDEST PUSH1 0x0 PUSH2 0x24F2 PUSH1 0x28 DUP4 PUSH2 0x2978 JUMP JUMPDEST SWAP2 POP PUSH2 0x24FD DUP3 PUSH2 0x2F35 JUMP JUMPDEST PUSH1 0x40 DUP3 ADD SWAP1 POP SWAP2 SWAP1 POP JUMP JUMPDEST PUSH1 0x0 PUSH2 0x2515 PUSH1 0x16 DUP4 PUSH2 0x2978 JUMP JUMPDEST SWAP2 POP PUSH2 0x2520 DUP3 PUSH2 0x2F84 JUMP JUMPDEST PUSH1 0x20 DUP3 ADD SWAP1 POP SWAP2 SWAP1 POP JUMP JUMPDEST PUSH1 0x0 PUSH2 0x2538 PUSH1 0x25 DUP4 PUSH2 0x2978 JUMP JUMPDEST SWAP2 POP PUSH2 0x2543 DUP3 PUSH2 0x2FAD JUMP JUMPDEST PUSH1 0x40 DUP3 ADD SWAP1 POP SWAP2 SWAP1 POP JUMP JUMPDEST PUSH1 0x0 PUSH2 0x255B PUSH1 0x17 DUP4 PUSH2 0x2989 JUMP JUMPDEST SWAP2 POP PUSH2 0x2566 DUP3 PUSH2 0x2FFC JUMP JUMPDEST PUSH1 0x17 DUP3 ADD SWAP1 POP SWAP2 SWAP1 POP JUMP JUMPDEST PUSH1 0x0 PUSH2 0x257E PUSH1 0x1C DUP4 PUSH2 0x2978 JUMP JUMPDEST SWAP2 POP PUSH2 0x2589 DUP3 PUSH2 0x3025 JUMP JUMPDEST PUSH1 0x20 DUP3 ADD SWAP1 POP SWAP2 SWAP1 POP JUMP JUMPDEST PUSH1 0x0 PUSH2 0x25A1 PUSH1 0x11 DUP4 PUSH2 0x2989 JUMP JUMPDEST SWAP2 POP PUSH2 0x25AC DUP3 PUSH2 0x304E JUMP JUMPDEST PUSH1 0x11 DUP3 ADD SWAP1 POP SWAP2 SWAP1 POP JUMP JUMPDEST PUSH1 0x0 PUSH2 0x25C4 PUSH1 0x2F DUP4 PUSH2 0x2978 JUMP JUMPDEST SWAP2 POP PUSH2 0x25CF DUP3 PUSH2 0x3077 JUMP JUMPDEST PUSH1 0x40 DUP3 ADD SWAP1 POP SWAP2 SWAP1 POP JUMP JUMPDEST PUSH2 0x25E3 DUP2 PUSH2 0x2B2F JUMP JUMPDEST DUP3 MSTORE POP POP JUMP JUMPDEST PUSH2 0x25F2 DUP2 PUSH2 0x2B39 JUMP JUMPDEST DUP3 MSTORE POP POP JUMP JUMPDEST PUSH1 0x0 PUSH2 0x2603 DUP3 PUSH2 0x254E JUMP JUMPDEST SWAP2 POP PUSH2 0x260F DUP3 DUP6 PUSH2 0x23BF JUMP JUMPDEST SWAP2 POP PUSH2 0x261A DUP3 PUSH2 0x2594 JUMP JUMPDEST SWAP2 POP PUSH2 0x2626 DUP3 DUP5 PUSH2 0x23BF JUMP JUMPDEST SWAP2 POP DUP2 SWAP1 POP SWAP4 SWAP3 POP POP POP JUMP JUMPDEST PUSH1 0x0 PUSH1 0x20 DUP3 ADD SWAP1 POP PUSH2 0x2647 PUSH1 0x0 DUP4 ADD DUP5 PUSH2 0x2368 JUMP JUMPDEST SWAP3 SWAP2 POP POP JUMP JUMPDEST PUSH1 0x0 PUSH1 0x20 DUP3 ADD SWAP1 POP PUSH2 0x2662 PUSH1 0x0 DUP4 ADD DUP5 PUSH2 0x2377 JUMP JUMPDEST SWAP3 SWAP2 POP POP JUMP JUMPDEST PUSH1 0x0 PUSH1 0x20 DUP3 ADD SWAP1 POP DUP2 DUP2 SUB PUSH1 0x0 DUP4 ADD MSTORE PUSH2 0x2682 DUP2 DUP5 PUSH2 0x2386 JUMP JUMPDEST SWAP1 POP SWAP3 SWAP2 POP POP JUMP JUMPDEST PUSH1 0x0 PUSH1 0x80 DUP3 ADD SWAP1 POP DUP2 DUP2 SUB PUSH1 0x0 DUP4 ADD MSTORE PUSH2 0x26A4 DUP2 DUP8 PUSH2 0x2386 JUMP JUMPDEST SWAP1 POP PUSH2 0x26B3 PUSH1 0x20 DUP4 ADD DUP7 PUSH2 0x234A JUMP JUMPDEST PUSH2 0x26C0 PUSH1 0x40 DUP4 ADD DUP6 PUSH2 0x25DA JUMP JUMPDEST PUSH2 0x26CD PUSH1 0x60 DUP4 ADD DUP5 PUSH2 0x2368 JUMP JUMPDEST SWAP6 SWAP5 POP POP POP POP POP JUMP JUMPDEST PUSH1 0x0 PUSH1 0xA0 DUP3 ADD SWAP1 POP DUP2 DUP2 SUB PUSH1 0x0 DUP4 ADD MSTORE PUSH2 0x26F0 DUP2 DUP9 PUSH2 0x2386 JUMP JUMPDEST SWAP1 POP DUP2 DUP2 SUB PUSH1 0x20 DUP4 ADD MSTORE PUSH2 0x2704 DUP2 DUP8 PUSH2 0x2386 JUMP JUMPDEST SWAP1 POP PUSH2 0x2713 PUSH1 0x40 DUP4 ADD DUP7 PUSH2 0x25E9 JUMP JUMPDEST PUSH2 0x2720 PUSH1 0x60 DUP4 ADD DUP6 PUSH2 0x25DA JUMP JUMPDEST PUSH2 0x272D PUSH1 0x80 DUP4 ADD DUP5 PUSH2 0x25DA JUMP JUMPDEST SWAP7 SWAP6 POP POP POP POP POP POP JUMP JUMPDEST PUSH1 0x0 PUSH1 0x20 DUP3 ADD SWAP1 POP DUP2 DUP2 SUB PUSH1 0x0 DUP4 ADD MSTORE PUSH2 0x2750 DUP2 PUSH2 0x23F0 JUMP JUMPDEST SWAP1 POP SWAP2 SWAP1 POP JUMP JUMPDEST PUSH1 0x0 PUSH1 0x20 DUP3 ADD SWAP1 POP DUP2 DUP2 SUB PUSH1 0x0 DUP4 ADD MSTORE PUSH2 0x2770 DUP2 PUSH2 0x2413 JUMP JUMPDEST SWAP1 POP SWAP2 SWAP1 POP JUMP JUMPDEST PUSH1 0x0 PUSH1 0x20 DUP3 ADD SWAP1 POP DUP2 DUP2 SUB PUSH1 0x0 DUP4 ADD MSTORE PUSH2 0x2790 DUP2 PUSH2 0x2436 JUMP JUMPDEST SWAP1 POP SWAP2 SWAP1 POP JUMP JUMPDEST PUSH1 0x0 PUSH1 0x20 DUP3 ADD SWAP1 POP DUP2 DUP2 SUB PUSH1 0x0 DUP4 ADD MSTORE PUSH2 0x27B0 DUP2 PUSH2 0x2459 JUMP JUMPDEST SWAP1 POP SWAP2 SWAP1 POP JUMP JUMPDEST PUSH1 0x0 PUSH1 0x20 DUP3 ADD SWAP1 POP DUP2 DUP2 SUB PUSH1 0x0 DUP4 ADD MSTORE PUSH2 0x27D0 DUP2 PUSH2 0x247C JUMP JUMPDEST SWAP1 POP SWAP2 SWAP1 POP JUMP JUMPDEST PUSH1 0x0 PUSH1 0x20 DUP3 ADD SWAP1 POP DUP2 DUP2 SUB PUSH1 0x0 DUP4 ADD MSTORE PUSH2 0x27F0 DUP2 PUSH2 0x249F JUMP JUMPDEST SWAP1 POP SWAP2 SWAP1 POP JUMP JUMPDEST PUSH1 0x0 PUSH1 0x20 DUP3 ADD SWAP1 POP DUP2 DUP2 SUB PUSH1 0x0 DUP4 ADD MSTORE PUSH2 0x2810 DUP2 PUSH2 0x24C2 JUMP JUMPDEST SWAP1 POP SWAP2 SWAP1 POP JUMP JUMPDEST PUSH1 0x0 PUSH1 0x20 DUP3 ADD SWAP1 POP DUP2 DUP2 SUB PUSH1 0x0 DUP4 ADD MSTORE PUSH2 0x2830 DUP2 PUSH2 0x24E5 JUMP JUMPDEST SWAP1 POP SWAP2 SWAP1 POP JUMP JUMPDEST PUSH1 0x0 PUSH1 0x20 DUP3 ADD SWAP1 POP DUP2 DUP2 SUB PUSH1 0x0 DUP4 ADD MSTORE PUSH2 0x2850 DUP2 PUSH2 0x2508 JUMP JUMPDEST SWAP1 POP SWAP2 SWAP1 POP JUMP JUMPDEST PUSH1 0x0 PUSH1 0x20 DUP3 ADD SWAP1 POP DUP2 DUP2 SUB PUSH1 0x0 DUP4 ADD MSTORE PUSH2 0x2870 DUP2 PUSH2 0x252B JUMP JUMPDEST SWAP1 POP SWAP2 SWAP1 POP JUMP JUMPDEST PUSH1 0x0 PUSH1 0x20 DUP3 ADD SWAP1 POP DUP2 DUP2 SUB PUSH1 0x0 DUP4 ADD MSTORE PUSH2 0x2890 DUP2 PUSH2 0x2571 JUMP JUMPDEST SWAP1 POP SWAP2 SWAP1 POP JUMP JUMPDEST PUSH1 0x0 PUSH1 0x20 DUP3 ADD SWAP1 POP DUP2 DUP2 SUB PUSH1 0x0 DUP4 ADD MSTORE PUSH2 0x28B0 DUP2 PUSH2 0x25B7 JUMP JUMPDEST SWAP1 POP SWAP2 SWAP1 POP JUMP JUMPDEST PUSH1 0x0 PUSH1 0x20 DUP3 ADD SWAP1 POP PUSH2 0x28CC PUSH1 0x0 DUP4 ADD DUP5 PUSH2 0x25DA JUMP JUMPDEST SWAP3 SWAP2 POP POP JUMP JUMPDEST PUSH1 0x0 PUSH1 0x80 DUP3 ADD SWAP1 POP PUSH2 0x28E7 PUSH1 0x0 DUP4 ADD DUP8 PUSH2 0x25DA JUMP JUMPDEST PUSH2 0x28F4 PUSH1 0x20 DUP4 ADD DUP7 PUSH2 0x25DA JUMP JUMPDEST PUSH2 0x2901 PUSH1 0x40 DUP4 ADD DUP6 PUSH2 0x233B JUMP JUMPDEST PUSH2 0x290E PUSH1 0x60 DUP4 ADD DUP5 PUSH2 0x2359 JUMP JUMPDEST SWAP6 SWAP5 POP POP POP POP POP JUMP JUMPDEST PUSH1 0x0 PUSH2 0x2921 PUSH2 0x2932 JUMP JUMPDEST SWAP1 POP PUSH2 0x292D DUP3 DUP3 PUSH2 0x2C1A JUMP JUMPDEST SWAP2 SWAP1 POP JUMP JUMPDEST PUSH1 0x0 PUSH1 0x40 MLOAD SWAP1 POP SWAP1 JUMP JUMPDEST PUSH1 0x0 PUSH8 0xFFFFFFFFFFFFFFFF DUP3 GT ISZERO PUSH2 0x2957 JUMPI PUSH2 0x2956 PUSH2 0x2D50 JUMP JUMPDEST JUMPDEST PUSH2 0x2960 DUP3 PUSH2 0x2D93 JUMP JUMPDEST SWAP1 POP PUSH1 0x20 DUP2 ADD SWAP1 POP SWAP2 SWAP1 POP JUMP JUMPDEST PUSH1 0x0 DUP2 MLOAD SWAP1 POP SWAP2 SWAP1 POP JUMP JUMPDEST PUSH1 0x0 DUP3 DUP3 MSTORE PUSH1 0x20 DUP3 ADD SWAP1 POP SWAP3 SWAP2 POP POP JUMP JUMPDEST PUSH1 0x0 DUP2 SWAP1 POP SWAP3 SWAP2 POP POP JUMP JUMPDEST PUSH1 0x0 PUSH2 0x299F DUP3 PUSH2 0x2B2F JUMP JUMPDEST SWAP2 POP PUSH2 0x29AA DUP4 PUSH2 0x2B2F JUMP JUMPDEST SWAP3 POP DUP3 PUSH32 0xFFFFFFFFFFFFFFFFFFFFFFFFFFFFFFFFFFFFFFFFFFFFFFFFFFFFFFFFFFFFFFFF SUB DUP3 GT ISZERO PUSH2 0x29DF JUMPI PUSH2 0x29DE PUSH2 0x2C94 JUMP JUMPDEST JUMPDEST DUP3 DUP3 ADD SWAP1 POP SWAP3 SWAP2 POP POP JUMP JUMPDEST PUSH1 0x0 PUSH2 0x29F5 DUP3 PUSH2 0x2B2F JUMP JUMPDEST SWAP2 POP PUSH2 0x2A00 DUP4 PUSH2 0x2B2F JUMP JUMPDEST SWAP3 POP DUP3 PUSH2 0x2A10 JUMPI PUSH2 0x2A0F PUSH2 0x2CC3 JUMP JUMPDEST JUMPDEST DUP3 DUP3 DIV SWAP1 POP SWAP3 SWAP2 POP POP JUMP JUMPDEST PUSH1 0x0 PUSH2 0x2A26 DUP3 PUSH2 0x2B2F JUMP JUMPDEST SWAP2 POP PUSH2 0x2A31 DUP4 PUSH2 0x2B2F JUMP JUMPDEST SWAP3 POP DUP2 PUSH32 0xFFFFFFFFFFFFFFFFFFFFFFFFFFFFFFFFFFFFFFFFFFFFFFFFFFFFFFFFFFFFFFFF DIV DUP4 GT DUP3 ISZERO ISZERO AND ISZERO PUSH2 0x2A6A JUMPI PUSH2 0x2A69 PUSH2 0x2C94 JUMP JUMPDEST JUMPDEST DUP3 DUP3 MUL SWAP1 POP SWAP3 SWAP2 POP POP JUMP JUMPDEST PUSH1 0x0 PUSH2 0x2A80 DUP3 PUSH2 0x2B39 JUMP JUMPDEST SWAP2 POP PUSH2 0x2A8B DUP4 PUSH2 0x2B39 JUMP JUMPDEST SWAP3 POP DUP3 DUP3 LT ISZERO PUSH2 0x2A9E JUMPI PUSH2 0x2A9D PUSH2 0x2C94 JUMP JUMPDEST JUMPDEST DUP3 DUP3 SUB SWAP1 POP SWAP3 SWAP2 POP POP JUMP JUMPDEST PUSH1 0x0 PUSH2 0x2AB4 DUP3 PUSH2 0x2B0F JUMP JUMPDEST SWAP1 POP SWAP2 SWAP1 POP JUMP JUMPDEST PUSH1 0x0 PUSH2 0x2AC6 DUP3 PUSH2 0x2B0F JUMP JUMPDEST SWAP1 POP SWAP2 SWAP1 POP JUMP JUMPDEST PUSH1 0x0 DUP2 ISZERO ISZERO SWAP1 POP SWAP2 SWAP1 POP JUMP JUMPDEST PUSH1 0x0 DUP2 SWAP1 POP SWAP2 SWAP1 POP JUMP JUMPDEST PUSH1 0x0 PUSH32 0xFFFFFFFF00000000000000000000000000000000000000000000000000000000 DUP3 AND SWAP1 POP SWAP2 SWAP1 POP JUMP JUMPDEST PUSH1 0x0 PUSH20 0xFFFFFFFFFFFFFFFFFFFFFFFFFFFFFFFFFFFFFFFF DUP3 AND SWAP1 POP SWAP2 SWAP1 POP JUMP JUMPDEST PUSH1 0x0 DUP2 SWAP1 POP SWAP2 SWAP1 POP JUMP JUMPDEST PUSH1 0x0 PUSH1 0xFF DUP3 AND SWAP1 POP SWAP2 SWAP1 POP JUMP JUMPDEST PUSH1 0x0 PUSH2 0x2B51 DUP3 PUSH2 0x2B58 JUMP JUMPDEST SWAP1 POP SWAP2 SWAP1 POP JUMP JUMPDEST PUSH1 0x0 PUSH2 0x2B63 DUP3 PUSH2 0x2B6A JUMP JUMPDEST SWAP1 POP SWAP2 SWAP1 POP JUMP JUMPDEST PUSH1 0x0 PUSH2 0x2B75 DUP3 PUSH2 0x2B0F JUMP JUMPDEST SWAP1 POP SWAP2 SWAP1 POP JUMP JUMPDEST DUP3 DUP2 DUP4 CALLDATACOPY PUSH1 0x0 DUP4 DUP4 ADD MSTORE POP POP POP JUMP JUMPDEST PUSH1 0x0 JUMPDEST DUP4 DUP2 LT ISZERO PUSH2 0x2BA9 JUMPI DUP1 DUP3 ADD MLOAD DUP2 DUP5 ADD MSTORE PUSH1 0x20 DUP2 ADD SWAP1 POP PUSH2 0x2B8E JUMP JUMPDEST DUP4 DUP2 GT ISZERO PUSH2 0x2BB8 JUMPI PUSH1 0x0 DUP5 DUP5 ADD MSTORE JUMPDEST POP POP POP POP JUMP JUMPDEST PUSH1 0x0 PUSH2 0x2BC9 DUP3 PUSH2 0x2B2F JUMP JUMPDEST SWAP2 POP PUSH1 0x0 DUP3 EQ ISZERO PUSH2 0x2BDD JUMPI PUSH2 0x2BDC PUSH2 0x2C94 JUMP JUMPDEST JUMPDEST PUSH1 0x1 DUP3 SUB SWAP1 POP SWAP2 SWAP1 POP JUMP JUMPDEST PUSH1 0x0 PUSH1 0x2 DUP3 DIV SWAP1 POP PUSH1 0x1 DUP3 AND DUP1 PUSH2 0x2C00 JUMPI PUSH1 0x7F DUP3 AND SWAP2 POP JUMPDEST PUSH1 0x20 DUP3 LT DUP2 EQ ISZERO PUSH2 0x2C14 JUMPI PUSH2 0x2C13 PUSH2 0x2CF2 JUMP JUMPDEST JUMPDEST POP SWAP2 SWAP1 POP JUMP JUMPDEST PUSH2 0x2C23 DUP3 PUSH2 0x2D93 JUMP JUMPDEST DUP2 ADD DUP2 DUP2 LT PUSH8 0xFFFFFFFFFFFFFFFF DUP3 GT OR ISZERO PUSH2 0x2C42 JUMPI PUSH2 0x2C41 PUSH2 0x2D50 JUMP JUMPDEST JUMPDEST DUP1 PUSH1 0x40 MSTORE POP POP POP JUMP JUMPDEST PUSH1 0x0 PUSH2 0x2C56 DUP3 PUSH2 0x2B2F JUMP JUMPDEST SWAP2 POP PUSH32 0xFFFFFFFFFFFFFFFFFFFFFFFFFFFFFFFFFFFFFFFFFFFFFFFFFFFFFFFFFFFFFFFF DUP3 EQ ISZERO PUSH2 0x2C89 JUMPI PUSH2 0x2C88 PUSH2 0x2C94 JUMP JUMPDEST JUMPDEST PUSH1 0x1 DUP3 ADD SWAP1 POP SWAP2 SWAP1 POP JUMP JUMPDEST PUSH32 0x4E487B7100000000000000000000000000000000000000000000000000000000 PUSH1 0x0 MSTORE PUSH1 0x11 PUSH1 0x4 MSTORE PUSH1 0x24 PUSH1 0x0 REVERT JUMPDEST PUSH32 0x4E487B7100000000000000000000000000000000000000000000000000000000 PUSH1 0x0 MSTORE PUSH1 0x12 PUSH1 0x4 MSTORE PUSH1 0x24 PUSH1 0x0 REVERT JUMPDEST PUSH32 0x4E487B7100000000000000000000000000000000000000000000000000000000 PUSH1 0x0 MSTORE PUSH1 0x22 PUSH1 0x4 MSTORE PUSH1 0x24 PUSH1 0x0 REVERT JUMPDEST PUSH32 0x4E487B7100000000000000000000000000000000000000000000000000000000 PUSH1 0x0 MSTORE PUSH1 0x32 PUSH1 0x4 MSTORE PUSH1 0x24 PUSH1 0x0 REVERT JUMPDEST PUSH32 0x4E487B7100000000000000000000000000000000000000000000000000000000 PUSH1 0x0 MSTORE PUSH1 0x41 PUSH1 0x4 MSTORE PUSH1 0x24 PUSH1 0x0 REVERT JUMPDEST PUSH1 0x0 DUP1 REVERT JUMPDEST PUSH1 0x0 DUP1 REVERT JUMPDEST PUSH1 0x0 DUP1 REVERT JUMPDEST PUSH1 0x0 DUP1 REVERT JUMPDEST PUSH1 0x0 PUSH1 0x1F NOT PUSH1 0x1F DUP4 ADD AND SWAP1 POP SWAP2 SWAP1 POP JUMP JUMPDEST PUSH32 0x5175616E74697479206D7573742062652067726561746572207468616E203000 PUSH1 0x0 DUP3 ADD MSTORE POP JUMP JUMPDEST PUSH32 0x5175616E74697479206D757374206265206C657373207468616E206F72206571 PUSH1 0x0 DUP3 ADD MSTORE PUSH32 0x75616C20746F2074686520617661696C61626C65207175616E74697479000000 PUSH1 0x20 DUP3 ADD MSTORE POP JUMP JUMPDEST PUSH32 0x537472696E67733A20686578206C656E67746820696E73756666696369656E74 PUSH1 0x0 DUP3 ADD MSTORE POP JUMP JUMPDEST PUSH32 0x507269636520646F6573206E6F74206D61746368000000000000000000000000 PUSH1 0x0 DUP3 ADD MSTORE POP JUMP JUMPDEST PUSH32 0x4F6E6C792070726F647563742073656C6C65722063616E206578656375746520 PUSH1 0x0 DUP3 ADD MSTORE PUSH32 0x7468697320616374696F6E2E0000000000000000000000000000000000000000 PUSH1 0x20 DUP3 ADD MSTORE POP JUMP JUMPDEST PUSH32 0x4D61726B6574206974656D206973206E6F742061637469766500000000000000 PUSH1 0x0 DUP3 ADD MSTORE POP JUMP JUMPDEST PUSH32 0x596F752063616E6E6F7420766F746520666F7220746869732070726F64756374 PUSH1 0x0 DUP3 ADD MSTORE PUSH32 0x2E00000000000000000000000000000000000000000000000000000000000000 PUSH1 0x20 DUP3 ADD MSTORE POP JUMP JUMPDEST PUSH32 0x5374617273206D7573742062652067726561746572207468616E206F72206571 PUSH1 0x0 DUP3 ADD MSTORE PUSH32 0x75616C20746F2031000000000000000000000000000000000000000000000000 PUSH1 0x20 DUP3 ADD MSTORE POP JUMP JUMPDEST PUSH32 0x5468652073656C6C65722063616E6E6F7420766F746500000000000000000000 PUSH1 0x0 DUP3 ADD MSTORE POP JUMP JUMPDEST PUSH32 0x5374617273206D757374206265206C657373207468616E206F7220657175616C PUSH1 0x0 DUP3 ADD MSTORE PUSH32 0x20746F2035000000000000000000000000000000000000000000000000000000 PUSH1 0x20 DUP3 ADD MSTORE POP JUMP JUMPDEST PUSH32 0x416363657373436F6E74726F6C3A206163636F756E7420000000000000000000 PUSH1 0x0 DUP3 ADD MSTORE POP JUMP JUMPDEST PUSH32 0x5072696365206D7573742062652067726561746572207468616E203000000000 PUSH1 0x0 DUP3 ADD MSTORE POP JUMP JUMPDEST PUSH32 0x206973206D697373696E6720726F6C6520000000000000000000000000000000 PUSH1 0x0 DUP3 ADD MSTORE POP JUMP JUMPDEST PUSH32 0x416363657373436F6E74726F6C3A2063616E206F6E6C792072656E6F756E6365 PUSH1 0x0 DUP3 ADD MSTORE PUSH32 0x20726F6C657320666F722073656C660000000000000000000000000000000000 PUSH1 0x20 DUP3 ADD MSTORE POP JUMP JUMPDEST PUSH2 0x30CF DUP2 PUSH2 0x2AA9 JUMP JUMPDEST DUP2 EQ PUSH2 0x30DA JUMPI PUSH1 0x0 DUP1 REVERT JUMPDEST POP JUMP JUMPDEST PUSH2 0x30E6 DUP2 PUSH2 0x2ACD JUMP JUMPDEST DUP2 EQ PUSH2 0x30F1 JUMPI PUSH1 0x0 DUP1 REVERT JUMPDEST POP JUMP JUMPDEST PUSH2 0x30FD DUP2 PUSH2 0x2AD9 JUMP JUMPDEST DUP2 EQ PUSH2 0x3108 JUMPI PUSH1 0x0 DUP1 REVERT JUMPDEST POP JUMP JUMPDEST PUSH2 0x3114 DUP2 PUSH2 0x2AE3 JUMP JUMPDEST DUP2 EQ PUSH2 0x311F JUMPI PUSH1 0x0 DUP1 REVERT JUMPDEST POP JUMP JUMPDEST PUSH2 0x312B DUP2 PUSH2 0x2B2F JUMP JUMPDEST DUP2 EQ PUSH2 0x3136 JUMPI PUSH1 0x0 DUP1 REVERT JUMPDEST POP JUMP JUMPDEST PUSH2 0x3142 DUP2 PUSH2 0x2B39 JUMP JUMPDEST DUP2 EQ PUSH2 0x314D JUMPI PUSH1 0x0 DUP1 REVERT JUMPDEST POP JUMP INVALID LOG2 PUSH5 0x6970667358 0x22 SLT KECCAK256 STATICCALL DUP12 STATICCALL 0x21 0xC5 PUSH22 0x480D374BC182AF31DF6B617BEDA6F8F95966492C2FC5 EQ PUSH26 0x99D264736F6C6343000807003300000000000000000000000000 "
				},
				"gasEstimates": {
					"creation": {
						"codeDepositCost": "2535600",
						"executionCost": "infinite",
						"totalCost": "infinite"
					},
					"external": {
						"DEFAULT_ADMIN_ROLE()": "402",
						"MARKETPLACE_OWNER()": "440",
						"buyMarketItem(uint256,uint8)": "infinite",
						"checkBuyer(uint256,address)": "infinite",
						"createMarketItem(string,string,uint256,string,uint8,bool)": "infinite",
						"getAverageStars(uint256)": "infinite",
						"getMarketItem(uint256)": "infinite",
						"getMarketItemDetails(uint256)": "infinite",
						"getRoleAdmin(bytes32)": "infinite",
						"grantRole(bytes32,address)": "infinite",
						"hasRole(bytes32,address)": "3185",
						"nextItemId()": "2474",
						"renounceRole(bytes32,address)": "infinite",
						"revokeRole(bytes32,address)": "infinite",
						"supportsInterface(bytes4)": "751",
						"updateMarketItemActive(uint256,bool)": "49414",
						"updateMarketItemDescription(uint256,string)": "infinite",
						"updateMarketItemImgUrl(uint256,string)": "infinite",
						"updateMarketItemPrice(uint256,uint256)": "infinite",
						"updateMarketItemQuantity(uint256,uint8)": "49480",
						"voteMarketItemStars(uint256,uint8)": "infinite"
					},
					"internal": {
						"indexOf(address[] memory,address)": "infinite"
					}
				},
				"methodIdentifiers": {
					"DEFAULT_ADMIN_ROLE()": "a217fddf",
					"MARKETPLACE_OWNER()": "b491efa0",
					"buyMarketItem(uint256,uint8)": "1dfef0eb",
					"checkBuyer(uint256,address)": "fec4d15d",
					"createMarketItem(string,string,uint256,string,uint8,bool)": "77247d91",
					"getAverageStars(uint256)": "7735904f",
					"getMarketItem(uint256)": "c7be7a49",
					"getMarketItemDetails(uint256)": "88d9e84c",
					"getRoleAdmin(bytes32)": "248a9ca3",
					"grantRole(bytes32,address)": "2f2ff15d",
					"hasRole(bytes32,address)": "91d14854",
					"nextItemId()": "6a868974",
					"renounceRole(bytes32,address)": "36568abe",
					"revokeRole(bytes32,address)": "d547741f",
					"supportsInterface(bytes4)": "01ffc9a7",
					"updateMarketItemActive(uint256,bool)": "bf9c6554",
					"updateMarketItemDescription(uint256,string)": "8f28afee",
					"updateMarketItemImgUrl(uint256,string)": "f0d2d06d",
					"updateMarketItemPrice(uint256,uint256)": "ae13a317",
					"updateMarketItemQuantity(uint256,uint8)": "eca1e6a0",
					"voteMarketItemStars(uint256,uint8)": "0c3774fc"
				}
			},
			"storageLayout": {
				"storage": [
					{
						"astId": 24,
						"contract": "Marketplace.sol:Marketplace",
						"label": "_roles",
						"offset": 0,
						"slot": "0",
						"type": "t_mapping(t_bytes32,t_struct(RoleData)19_storage)"
					},
					{
						"astId": 655,
						"contract": "Marketplace.sol:Marketplace",
						"label": "nextItemId",
						"offset": 0,
						"slot": "1",
						"type": "t_uint256"
					},
					{
						"astId": 691,
						"contract": "Marketplace.sol:Marketplace",
						"label": "idToBuyerAddress",
						"offset": 0,
						"slot": "2",
						"type": "t_mapping(t_uint256,t_array(t_address)dyn_storage)"
					},
					{
						"astId": 696,
						"contract": "Marketplace.sol:Marketplace",
						"label": "idToMarketItem",
						"offset": 0,
						"slot": "3",
						"type": "t_mapping(t_uint256,t_struct(MarketItem)686_storage)"
					},
					{
						"astId": 702,
						"contract": "Marketplace.sol:Marketplace",
						"label": "addressToProductVotes",
						"offset": 0,
						"slot": "4",
						"type": "t_mapping(t_address,t_mapping(t_uint256,t_uint8))"
					}
				],
				"types": {
					"t_address": {
						"encoding": "inplace",
						"label": "address",
						"numberOfBytes": "20"
					},
					"t_address_payable": {
						"encoding": "inplace",
						"label": "address payable",
						"numberOfBytes": "20"
					},
					"t_array(t_address)dyn_storage": {
						"base": "t_address",
						"encoding": "dynamic_array",
						"label": "address[]",
						"numberOfBytes": "32"
					},
					"t_bool": {
						"encoding": "inplace",
						"label": "bool",
						"numberOfBytes": "1"
					},
					"t_bytes32": {
						"encoding": "inplace",
						"label": "bytes32",
						"numberOfBytes": "32"
					},
					"t_mapping(t_address,t_bool)": {
						"encoding": "mapping",
						"key": "t_address",
						"label": "mapping(address => bool)",
						"numberOfBytes": "32",
						"value": "t_bool"
					},
					"t_mapping(t_address,t_mapping(t_uint256,t_uint8))": {
						"encoding": "mapping",
						"key": "t_address",
						"label": "mapping(address => mapping(uint256 => uint8))",
						"numberOfBytes": "32",
						"value": "t_mapping(t_uint256,t_uint8)"
					},
					"t_mapping(t_bytes32,t_struct(RoleData)19_storage)": {
						"encoding": "mapping",
						"key": "t_bytes32",
						"label": "mapping(bytes32 => struct AccessControl.RoleData)",
						"numberOfBytes": "32",
						"value": "t_struct(RoleData)19_storage"
					},
					"t_mapping(t_uint256,t_array(t_address)dyn_storage)": {
						"encoding": "mapping",
						"key": "t_uint256",
						"label": "mapping(uint256 => address[])",
						"numberOfBytes": "32",
						"value": "t_array(t_address)dyn_storage"
					},
					"t_mapping(t_uint256,t_struct(MarketItem)686_storage)": {
						"encoding": "mapping",
						"key": "t_uint256",
						"label": "mapping(uint256 => struct Marketplace.MarketItem)",
						"numberOfBytes": "32",
						"value": "t_struct(MarketItem)686_storage"
					},
					"t_mapping(t_uint256,t_uint8)": {
						"encoding": "mapping",
						"key": "t_uint256",
						"label": "mapping(uint256 => uint8)",
						"numberOfBytes": "32",
						"value": "t_uint8"
					},
					"t_string_storage": {
						"encoding": "bytes",
						"label": "string",
						"numberOfBytes": "32"
					},
					"t_struct(MarketItem)686_storage": {
						"encoding": "inplace",
						"label": "struct Marketplace.MarketItem",
						"members": [
							{
								"astId": 667,
								"contract": "Marketplace.sol:Marketplace",
								"label": "itemId",
								"offset": 0,
								"slot": "0",
								"type": "t_uint256"
							},
							{
								"astId": 669,
								"contract": "Marketplace.sol:Marketplace",
								"label": "title",
								"offset": 0,
								"slot": "1",
								"type": "t_string_storage"
							},
							{
								"astId": 671,
								"contract": "Marketplace.sol:Marketplace",
								"label": "description",
								"offset": 0,
								"slot": "2",
								"type": "t_string_storage"
							},
							{
								"astId": 673,
								"contract": "Marketplace.sol:Marketplace",
								"label": "price",
								"offset": 0,
								"slot": "3",
								"type": "t_uint256"
							},
							{
								"astId": 675,
								"contract": "Marketplace.sol:Marketplace",
								"label": "seller",
								"offset": 0,
								"slot": "4",
								"type": "t_address_payable"
							},
							{
								"astId": 677,
								"contract": "Marketplace.sol:Marketplace",
								"label": "imageUrl",
								"offset": 0,
								"slot": "5",
								"type": "t_string_storage"
							},
							{
								"astId": 679,
								"contract": "Marketplace.sol:Marketplace",
								"label": "quantity",
								"offset": 0,
								"slot": "6",
								"type": "t_uint8"
							},
							{
								"astId": 681,
								"contract": "Marketplace.sol:Marketplace",
								"label": "createdAt",
								"offset": 0,
								"slot": "7",
								"type": "t_uint256"
							},
							{
								"astId": 683,
								"contract": "Marketplace.sol:Marketplace",
								"label": "updatedAt",
								"offset": 0,
								"slot": "8",
								"type": "t_uint256"
							},
							{
								"astId": 685,
								"contract": "Marketplace.sol:Marketplace",
								"label": "isActive",
								"offset": 0,
								"slot": "9",
								"type": "t_bool"
							}
						],
						"numberOfBytes": "320"
					},
					"t_struct(RoleData)19_storage": {
						"encoding": "inplace",
						"label": "struct AccessControl.RoleData",
						"members": [
							{
								"astId": 16,
								"contract": "Marketplace.sol:Marketplace",
								"label": "members",
								"offset": 0,
								"slot": "0",
								"type": "t_mapping(t_address,t_bool)"
							},
							{
								"astId": 18,
								"contract": "Marketplace.sol:Marketplace",
								"label": "adminRole",
								"offset": 0,
								"slot": "1",
								"type": "t_bytes32"
							}
						],
						"numberOfBytes": "64"
					},
					"t_uint256": {
						"encoding": "inplace",
						"label": "uint256",
						"numberOfBytes": "32"
					},
					"t_uint8": {
						"encoding": "inplace",
						"label": "uint8",
						"numberOfBytes": "1"
					}
				}
			},
			"userdoc": {
				"kind": "user",
				"methods": {},
				"version": 1
			}
		}
	}
}